REC2018091020180910ISUZU                              76     
MDDDJ9227806201809                D89821984430PT1D20180914000030RADIO;AM/FM,CD                M IMCTM S5NC06 TNTH  09020IMCT  S5 PTB  00005                    0230 SR        000000000000 DENSO TEN (THAILAND)180LXCL0084084                                                                                                                              *          20180910 IMCT                IMCT                                                                                                                    WMF1809104.TXT
MDDDJ9227807201809                D89821984430PT1D20180914000030RADIO;AM/FM,CD                M IMCTM S5NC06 TNTH  09020IMCT  S5 PTB  00005                    1300 SR        000000000000 DENSO TEN (THAILAND)180LNGL0199199                                                                                                                              *          20180910 IMCT                IMCT                                                                                                                    WMF1809104.TXT
MDDDJ9227808201809                D89821984430PT1D20180914000030RADIO;AM/FM,CD                M IMCTM S5NC06 TNTH  09020IMCT  S5 PTB  00005                    2100 SR        000000000000 DENSO TEN (THAILAND)180LXCL0085085                                                                                                                              *          20180910 IMCT                IMCT                                                                                                                    WMF1809104.TXT
MDDDJ9227809201809                D89828070100PV1D20180914000060SPEAKER ASM                   M IMCTM S5MB11 TNTH  09020IMCT  S5 PTB  00004                    0230 SR        000000000000 DENSO TEN (THAILAND)180LXCL0084084                                                                                                                              *          20180910 IMCT                IMCT                                                                                                                    WMF1809104.TXT
MDDDJ9227810201809                D89828070100PV1D20180914000060SPEAKER ASM                   M IMCTM S5MB11 TNTH  09020IMCT  S5 PTB  00004                    0400 SR        000000000000 DENSO TEN (THAILAND)180LPGL0317317                                                                                                                              *          20180910 IMCT                IMCT                                                                                                                    WMF1809104.TXT
MDDDJ9227811201809                D89828070100PV1D20180914000060SPEAKER ASM                   M IMCTM S5MB11 TNTH  09020IMCT  S5 PTB  00004                    1030 SR        000000000000 DENSO TEN (THAILAND)180LPGL0318318                                                                                                                              *          20180910 IMCT                IMCT                                                                                                                    WMF1809104.TXT
MDDDJ9227812201809                D89828070100PV1D20180914000060SPEAKER ASM                   M IMCTM S5MB11 TNTH  09020IMCT  S5 PTB  00004                    1300 SR        000000000000 DENSO TEN (THAILAND)180LNGL0199199                                                                                                                              *          20180910 IMCT                IMCT                                                                                                                    WMF1809104.TXT
MDDDJ9227813201809                D89828070100PV1D20180914000060SPEAKER ASM                   M IMCTM S5MB11 TNTH  09020IMCT  S5 PTB  00004                    1600 SR        000000000000 DENSO TEN (THAILAND)180LPJL0033033                                                                                                                              *          20180910 IMCT                IMCT                                                                                                                    WMF1809104.TXT
MDDDJ9227814201809                D89828070100PV1D20180914000060SPEAKER ASM                   M IMCTM S5MB11 TNTH  09020IMCT  S5 PTB  00004                    2100 SR        000000000000 DENSO TEN (THAILAND)180LXCL0085085                                                                                                                              *          20180910 IMCT                IMCT                                                                                                                    WMF1809104.TXT
MDDDJ9227815201809                D89828070300PT1D20180914000060SPEAKER ASM                   M IMCTM S5NB082TNTH  09020IMCT  S5 PTB  00015                    0400 SR        000000000000 DENSO TEN (THAILAND)180LPGL0317317                                                                                                                              *          20180910 IMCT                IMCT                                                                                                                    WMF1809104.TXT
MDDDJ9227816201809                D89828070300PT1D20180914000060SPEAKER ASM                   M IMCTM S5NB082TNTH  09020IMCT  S5 PTB  00015                    1030 SR        000000000000 DENSO TEN (THAILAND)180LPGL0318318                                                                                                                              *          20180910 IMCT                IMCT                                                                                                                    WMF1809104.TXT
MDDDJ9227817201809                D89828070300PT1D20180914000060SPEAKER ASM                   M IMCTM S5NB082TNTH  09020IMCT  S5 PTB  00015                    1600 SR        000000000000 DENSO TEN (THAILAND)180LPJL0033033                                                                                                                              *          20180910 IMCT                IMCT                                                                                                                    WMF1809104.TXT
MDDDJ9227818201809                D89831228300PT1D20180914000030RADIO;AM/FM,CD                M IMCTM S5NC06 TNTH  09020IMCT  S5 CPB  00003                    0400 SR        000000000000 DENSO TEN (THAILAND)180LPGL0317317                                                                                                                              *          20180910 IMCT                IMCT                                                                                                                    WMF1809104.TXT
MDDDJ9227819201809                D89831228300PT1D20180914000030RADIO;AM/FM,CD                M IMCTM S5NC06 TNTH  09020IMCT  S5 CPB  00003                    1030 SR        000000000000 DENSO TEN (THAILAND)180LPGL0318318                                                                                                                              *          20180910 IMCT                IMCT                                                                                                                    WMF1809104.TXT
MDDDJ9227820201809                D89831228300PT1D20180914000030RADIO;AM/FM,CD                M IMCTM S5NC06 TNTH  09020IMCT  S5 CPB  00003                    1600 SR        000000000000 DENSO TEN (THAILAND)180LPJL0033033                                                                                                                              *          20180910 IMCT                IMCT                                                                                                                    WMF1809104.TXT
MDDUJ9213313201809                D89828070100PT4U20180914000030SPEAKER ASM                   M IMCTM S0FL05 TNTH  09020IMCT  S0 PTB  00004                    0230 SR        000000000000 DENSO TEN (THAILAND)180LULU0049049                                                                                                                              *          20180910 IMCT                IMCT                                                                                                                    WMF1809104.TXT
MDDUJ9213314201809                D89828070100PT4U20180914000030SPEAKER ASM                   M IMCTM S0FL05 TNTH  09020IMCT  S0 PTB  00004                    0400 SR        000000000000 DENSO TEN (THAILAND)180LUTU0121121                                                                                                                              *          20180910 IMCT                IMCT                                                                                                                    WMF1809104.TXT
MDDUJ9213315201809                D89828070100PT4U20180914000030SPEAKER ASM                   M IMCTM S0FL05 TNTH  09020IMCT  S0 PTB  00004                    1300 SR        000000000000 DENSO TEN (THAILAND)180LUSU0172172                                                                                                                              *          20180910 IMCT                IMCT                                                                                                                    WMF1809104.TXT
MDDUJ9213316201809                D89828070100PT4U20180914000030SPEAKER ASM                   M IMCTM S0FL05 TNTH  09020IMCT  S0 PTB  00004                    2100 SR        000000000000 DENSO TEN (THAILAND)180LUQU0072072                                                                                                                              *          20180910 IMCT                IMCT                                                                                                                    WMF1809104.TXT
MDDUJ9213317201809                D89828070200PV4U20180914000030SPEAKER ASM                   M IMCTM S0FR05 TNTH  09020IMCT  S0 PTB  00005                    0230 SR        000000000000 DENSO TEN (THAILAND)180LULU0049049                                                                                                                              *          20180910 IMCT                IMCT                                                                                                                    WMF1809104.TXT
MDDUJ9213318201809                D89828070200PV4U20180914000030SPEAKER ASM                   M IMCTM S0FR05 TNTH  09020IMCT  S0 PTB  00005                    0400 SR        000000000000 DENSO TEN (THAILAND)180LUTU0121121                                                                                                                              *          20180910 IMCT                IMCT                                                                                                                    WMF1809104.TXT
MDDUJ9213319201809                D89828070200PV4U20180914000030SPEAKER ASM                   M IMCTM S0FR05 TNTH  09020IMCT  S0 PTB  00005                    1300 SR        000000000000 DENSO TEN (THAILAND)180LUSU0172172                                                                                                                              *          20180910 IMCT                IMCT                                                                                                                    WMF1809104.TXT
MDDUJ9213320201809                D89828070200PV4U20180914000030SPEAKER ASM                   M IMCTM S0FR05 TNTH  09020IMCT  S0 PTB  00005                    2100 SR        000000000000 DENSO TEN (THAILAND)180LUQU0072072                                                                                                                              *          20180910 IMCT                IMCT                                                                                                                    WMF1809104.TXT
MDDUJ9213321201809                D89828070300PT4U20180914000030SPEAKER ASM                   M IMCTM S9TS02 TNTH  09020IMCT  S9 PTB  00015                    0230 SR        000000000000 DENSO TEN (THAILAND)180LULU0049049                                                                                                                              *          20180910 IMCT                IMCT                                                                                                                    WMF1809104.TXT
MDDUJ9213322201809                D89828070300PT4U20180914000030SPEAKER ASM                   M IMCTM S9TS02 TNTH  09020IMCT  S9 PTB  00015                    0400 SR        000000000000 DENSO TEN (THAILAND)180LUTU0121121                                                                                                                              *          20180910 IMCT                IMCT                                                                                                                    WMF1809104.TXT
MDDUJ9213323201809                D89828070300PT4U20180914000030SPEAKER ASM                   M IMCTM S9TS02 TNTH  09020IMCT  S9 PTB  00015                    1300 SR        000000000000 DENSO TEN (THAILAND)180LUSU0172172                                                                                                                              *          20180910 IMCT                IMCT                                                                                                                    WMF1809104.TXT
MDDUJ9213324201809                D89828070300PT4U20180914000030SPEAKER ASM                   M IMCTM S9TS02 TNTH  09020IMCT  S9 PTB  00015                    2100 SR        000000000000 DENSO TEN (THAILAND)180LUQU0072072                                                                                                                              *          20180910 IMCT                IMCT                                                                                                                    WMF1809104.TXT
MDDUJ9213325201809                D89848584200PT4U20180914000015RADIO;AM/FM CD D              M IMCTM S9CO001TNTH  09020IMCT  S9 PTB  00003                    2100 SR        000000000000 DENSO TEN (THAILAND)180LUQU0072072                                                                                                                              *          20180910 IMCT                IMCT                                                                                                                    WMF1809104.TXT
MDEDJ9239771201809                D89828070100PV1D20180913000060SPEAKER ASM                   M IMCTM S5MB11 TNTH  09020IMCT  S5 PTB  00004                    2230 SR        000000000000 DENSO TEN (THAILAND)18073UL0007008                                                                                                                              *          20180910 IMCT                IMCT                                                                                                                    WMF1809104.TXT
MDEDJ9239772201809                D89828070100PV1D20180914000030SPEAKER ASM                   M IMCTM S5MB11 TNTH  09020IMCT  S5 PTB  00004                    0230 SR        000000000000 DENSO TEN (THAILAND)18006YL0012012                                                                                                                              *          20180910 IMCT                IMCT                                                                                                                    WMF1809104.TXT
MDEDJ9239773201809                D89828070100PV1D20180914000030SPEAKER ASM                   M IMCTM S5MB11 TNTH  09020IMCT  S5 PTB  00004                    0400 SR        000000000000 DENSO TEN (THAILAND)18006YL0013013                                                                                                                              *          20180910 IMCT                IMCT                                                                                                                    WMF1809104.TXT
MDEDJ9239774201809                D89828070100PV1D20180914000060SPEAKER ASM                   M IMCTM S5MB11 TNTH  09020IMCT  S5 PTB  00004                    0830 SR        000000000000 DENSO TEN (THAILAND)17021QL0064065                                                                                                                              *          20180910 IMCT                IMCT                                                                                                                    WMF1809104.TXT
MDEDJ9239775201809                D89828070100PV1D20180914000060SPEAKER ASM                   M IMCTM S5MB11 TNTH  09020IMCT  S5 PTB  00004                    1300 SR        000000000000 DENSO TEN (THAILAND)17021QL006606618066UL0012012                                                                                                                *          20180910 IMCT                IMCT                                                                                                                    WMF1809104.TXT
MDEDJ9239776201809                D89828070100PV1D20180914000030SPEAKER ASM                   M IMCTM S5MB11 TNTH  09020IMCT  S5 PTB  00004                    1600 SR        000000000000 DENSO TEN (THAILAND)18098XL0038038                                                                                                                              *          20180910 IMCT                IMCT                                                                                                                    WMF1809104.TXT
MDEDJ9239777201809                D89828070100PV1D20180914000030SPEAKER ASM                   M IMCTM S5MB11 TNTH  09020IMCT  S5 PTB  00004                    2100 SR        000000000000 DENSO TEN (THAILAND)18098XL0039039                                                                                                                              *          20180910 IMCT                IMCT                                                                                                                    WMF1809104.TXT
MDEDJ9239778201809                D89828070100PV4D20180913000030SPEAKER ASM                   M IMCTM S0FL05 TNTH  09020IMCT  S0 PTB  00004                    2230 SR        000000000000 DENSO TEN (THAILAND)18099UU0037037                                                                                                                              *          20180910 IMCT                IMCT                                                                                                                    WMF1809104.TXT
MDEDJ9239779201809                D89828070100PV4D20180914000030SPEAKER ASM                   M IMCTM S0FL05 TNTH  09020IMCT  S0 PTB  00004                    0830 SR        000000000000 DENSO TEN (THAILAND)18076XU0005005                                                                                                                              *          20180910 IMCT                IMCT                                                                                                                    WMF1809104.TXT
MDEDJ9239780201809                D89828070100PV4D20180914000030SPEAKER ASM                   M IMCTM S0FL05 TNTH  09020IMCT  S0 PTB  00004                    1300 SR        000000000000 DENSO TEN (THAILAND)18099UU0038038                                                                                                                              *          20180910 IMCT                IMCT                                                                                                                    WMF1809104.TXT
MDEDJ9239781201809                D89828070100PV4D20180914000030SPEAKER ASM                   M IMCTM S0FL05 TNTH  09020IMCT  S0 PTB  00004                    1600 SR        000000000000 DENSO TEN (THAILAND)18082UU0021021                                                                                                                              *          20180910 IMCT                IMCT                                                                                                                    WMF1809104.TXT
MDEDJ9239782201809                D89828070100PV4D20180914000030SPEAKER ASM                   M IMCTM S0FL05 TNTH  09020IMCT  S0 PTB  00004                    2230 SR        000000000000 DENSO TEN (THAILAND)18098UU0043043                                                                                                                              *          20180910 IMCT                IMCT                                                                                                                    WMF1809104.TXT
MDEDJ9239783201809                D89828070200PV1D20180914000030SPEAKER ASM                   M IMCTM S5MA14 TNTH  09020IMCT  S5 PTB  00005                    0230 SR        000000000000 DENSO TEN (THAILAND)18006YL0012012                                                                                                                              *          20180910 IMCT                IMCT                                                                                                                    WMF1809104.TXT
MDEDJ9239784201809                D89828070200PV1D20180914000030SPEAKER ASM                   M IMCTM S5MA14 TNTH  09020IMCT  S5 PTB  00005                    0400 SR        000000000000 DENSO TEN (THAILAND)18006YL0013013                                                                                                                              *          20180910 IMCT                IMCT                                                                                                                    WMF1809104.TXT
MDEDJ9239785201809                D89828070200PV1D20180914000030SPEAKER ASM                   M IMCTM S5MA14 TNTH  09020IMCT  S5 PTB  00005                    1300 SR        000000000000 DENSO TEN (THAILAND)18066UL0012012                                                                                                                              *          20180910 IMCT                IMCT                                                                                                                    WMF1809104.TXT
MDEDJ9239786201809                D89828070200PV1D20180914000030SPEAKER ASM                   M IMCTM S5MA14 TNTH  09020IMCT  S5 PTB  00005                    1600 SR        000000000000 DENSO TEN (THAILAND)18098XL0038038                                                                                                                              *          20180910 IMCT                IMCT                                                                                                                    WMF1809104.TXT
MDEDJ9239787201809                D89828070200PV1D20180914000030SPEAKER ASM                   M IMCTM S5MA14 TNTH  09020IMCT  S5 PTB  00005                    2100 SR        000000000000 DENSO TEN (THAILAND)18098XL0039039                                                                                                                              *          20180910 IMCT                IMCT                                                                                                                    WMF1809104.TXT
MDEDJ9239788201809                D89828070200PV4D20180913000030SPEAKER ASM                   M IMCTM S0FR05 TNTH  09020IMCT  S0 PTB  00005                    2230 SR        000000000000 DENSO TEN (THAILAND)18099UU0037037                                                                                                                              *          20180910 IMCT                IMCT                                                                                                                    WMF1809104.TXT
MDEDJ9239789201809                D89828070200PV4D20180914000030SPEAKER ASM                   M IMCTM S0FR05 TNTH  09020IMCT  S0 PTB  00005                    1300 SR        000000000000 DENSO TEN (THAILAND)18099UU0038038                                                                                                                              *          20180910 IMCT                IMCT                                                                                                                    WMF1809104.TXT
MDEDJ9239790201809                D89828070200PV4D20180914000030SPEAKER ASM                   M IMCTM S0FR05 TNTH  09020IMCT  S0 PTB  00005                    1600 SR        000000000000 DENSO TEN (THAILAND)18082UU0021021                                                                                                                              *          20180910 IMCT                IMCT                                                                                                                    WMF1809104.TXT
MDEDJ9239791201809                D89828070200PV4D20180914000030SPEAKER ASM                   M IMCTM S0FR05 TNTH  09020IMCT  S0 PTB  00005                    2230 SR        000000000000 DENSO TEN (THAILAND)18098UU0043043                                                                                                                              *          20180910 IMCT                IMCT                                                                                                                    WMF1809104.TXT
MDEDJ9239792201809                D89828070300PT1D20180913000060SPEAKER ASM                   M IMCTM S5NB082TNTH  09020IMCT  S5 PTB  00015                    2230 SR        000000000000 DENSO TEN (THAILAND)18073UL0007008                                                                                                                              *          20180910 IMCT                IMCT                                                                                                                    WMF1809104.TXT
MDEDJ9239793201809                D89828070300PT1D20180914000030SPEAKER ASM                   M IMCTM S5NB082TNTH  09020IMCT  S5 PTB  00015                    0230 SR        000000000000 DENSO TEN (THAILAND)18006YL0012012                                                                                                                              *          20180910 IMCT                IMCT                                                                                                                    WMF1809104.TXT
MDEDJ9239794201809                D89828070300PT1D20180914000030SPEAKER ASM                   M IMCTM S5NB082TNTH  09020IMCT  S5 PTB  00015                    0400 SR        000000000000 DENSO TEN (THAILAND)18006YL0013013                                                                                                                              *          20180910 IMCT                IMCT                                                                                                                    WMF1809104.TXT
MDEDJ9239795201809                D89828070300PT1D20180914000030SPEAKER ASM                   M IMCTM S5NB082TNTH  09020IMCT  S5 PTB  00015                    1300 SR        000000000000 DENSO TEN (THAILAND)18066UL0012012                                                                                                                              *          20180910 IMCT                IMCT                                                                                                                    WMF1809104.TXT
MDEDJ9239796201809                D89828070300PT1D20180914000030SPEAKER ASM                   M IMCTM S5NB082TNTH  09020IMCT  S5 PTB  00015                    1600 SR        000000000000 DENSO TEN (THAILAND)18098XL0038038                                                                                                                              *          20180910 IMCT                IMCT                                                                                                                    WMF1809104.TXT
MDEDJ9239797201809                D89828070300PT1D20180914000030SPEAKER ASM                   M IMCTM S5NB082TNTH  09020IMCT  S5 PTB  00015                    2100 SR        000000000000 DENSO TEN (THAILAND)18098XL0039039                                                                                                                              *          20180910 IMCT                IMCT                                                                                                                    WMF1809104.TXT
MDEDJ9239798201809                D89828070300PT4D20180913000030SPEAKER ASM                   M IMCTM S9TS02 TNTH  09020IMCT  S9 PTB  00015                    2230 SR        000000000000 DENSO TEN (THAILAND)18099UU0037037                                                                                                                              *          20180910 IMCT                IMCT                                                                                                                    WMF1809104.TXT
MDEDJ9239799201809                D89828070300PT4D20180914000030SPEAKER ASM                   M IMCTM S9TS02 TNTH  09020IMCT  S9 PTB  00015                    1300 SR        000000000000 DENSO TEN (THAILAND)18099UU0038038                                                                                                                              *          20180910 IMCT                IMCT                                                                                                                    WMF1809104.TXT
MDEDJ9239800201809                D89828070300PT4D20180914000030SPEAKER ASM                   M IMCTM S9TS02 TNTH  09020IMCT  S9 PTB  00015                    1600 SR        000000000000 DENSO TEN (THAILAND)18082UU0021021                                                                                                                              *          20180910 IMCT                IMCT                                                                                                                    WMF1809104.TXT
MDEDJ9239801201809                D89828070300PT4D20180914000030SPEAKER ASM                   M IMCTM S9TS02 TNTH  09020IMCT  S9 PTB  00015                    2230 SR        000000000000 DENSO TEN (THAILAND)18098UU0043043                                                                                                                              *          20180910 IMCT                IMCT                                                                                                                    WMF1809104.TXT
MDEDJ9239802201809                D89848581800PT1D20180914000015RADIO;AM/FM CD D              M IMCTM S5NC06 TNTH  09020IMCT  S5 PTB  00003                    1300 SR        000000000000 DENSO TEN (THAILAND)18066UL0012012                                                                                                                              *          20180910 IMCT                IMCT                                                                                                                    WMF1809104.TXT
MDEDJ9239803201809                D89848581800PT4D20180914000015RADIO;AM/FM CD D              M IMCTM S9CO001TNTH  09020IMCT  S9 PTB  00003                    1600 SR        000000000000 DENSO TEN (THAILAND)18082UU0021021                                                                                                                              *          20180910 IMCT                IMCT                                                                                                                    WMF1809104.TXT
MDEDJ9239804201809                D89848581800PT4D20180914000015RADIO;AM/FM CD D              M IMCTM S9CO001TNTH  09020IMCT  S9 PTB  00003                    2230 SR        000000000000 DENSO TEN (THAILAND)18098UU0043043                                                                                                                              *          20180910 IMCT                IMCT                                                                                                                    WMF1809104.TXT
MDEDJ9239805201809                D89848582100PT1D20180914000015RADIO;AM/FM CD D              M IMCTM S5NC06 TNTH  09020IMCT  S5 PTB  00003                    0230 SR        000000000000 DENSO TEN (THAILAND)18006YL0012012                                                                                                                              *          20180910 IMCT                IMCT                                                                                                                    WMF1809104.TXT
MDEDJ9239806201809                D89848582100PT1D20180914000015RADIO;AM/FM CD D              M IMCTM S5NC06 TNTH  09020IMCT  S5 PTB  00003                    0400 SR        000000000000 DENSO TEN (THAILAND)18006YL0013013                                                                                                                              *          20180910 IMCT                IMCT                                                                                                                    WMF1809104.TXT
MDEDJ9239807201809                D89848582100PT1D20180914000015RADIO;AM/FM CD D              M IMCTM S5NC06 TNTH  09020IMCT  S5 PTB  00003                    1600 SR        000000000000 DENSO TEN (THAILAND)18098XL0038038                                                                                                                              *          20180910 IMCT                IMCT                                                                                                                    WMF1809104.TXT
MDEDJ9239808201809                D89848582100PT1D20180914000015RADIO;AM/FM CD D              M IMCTM S5NC06 TNTH  09020IMCT  S5 PTB  00003                    2100 SR        000000000000 DENSO TEN (THAILAND)18098XL0039039                                                                                                                              *          20180910 IMCT                IMCT                                                                                                                    WMF1809104.TXT
MDEDJ9239809201809                D89848582500PT1D20180913000030RADIO;AM/FM CD D              M IMCTM S5NC06 TNTH  09020IMCT  S5 PTB  00003                    2230 SR        000000000000 DENSO TEN (THAILAND)18073UL0007008                                                                                                                              *          20180910 IMCT                IMCT                                                                                                                    WMF1809104.TXT
MDEUJ9218871201809                D89828070100PT4U20180914000030SPEAKER ASM                   M IMCTM S0FL05 TNTH  09020IMCT  S0 PTB  00004                    0230 SR        000000000000 DENSO TEN (THAILAND)18020UU0113113                                                                                                                              *          20180910 IMCT                IMCT                                                                                                                    WMF1809104.TXT
MDEUJ9218872201809                D89828070100PT4U20180914000030SPEAKER ASM                   M IMCTM S0FL05 TNTH  09020IMCT  S0 PTB  00004                    1030 SR        000000000000 DENSO TEN (THAILAND)18021UU0176176                                                                                                                              *          20180910 IMCT                IMCT                                                                                                                    WMF1809104.TXT
MDEUJ9218873201809                D89828070100PT4U20180914000030SPEAKER ASM                   M IMCTM S0FL05 TNTH  09020IMCT  S0 PTB  00004                    1600 SR        000000000000 DENSO TEN (THAILAND)180D06U0011011                                                                                                                              *          20180910 IMCT                IMCT                                                                                                                    WMF1809104.TXT
MDEUJ9218874201809                D89828070200PV4U20180914000030SPEAKER ASM                   M IMCTM S0FR05 TNTH  09020IMCT  S0 PTB  00005                    0230 SR        000000000000 DENSO TEN (THAILAND)18020UU0113113                                                                                                                              *          20180910 IMCT                IMCT                                                                                                                    WMF1809104.TXT
MDEUJ9218875201809                D89828070200PV4U20180914000030SPEAKER ASM                   M IMCTM S0FR05 TNTH  09020IMCT  S0 PTB  00005                    1030 SR        000000000000 DENSO TEN (THAILAND)18021UU0176176                                                                                                                              *          20180910 IMCT                IMCT                                                                                                                    WMF1809104.TXT
MDEUJ9218876201809                D89828070200PV4U20180914000030SPEAKER ASM                   M IMCTM S0FR05 TNTH  09020IMCT  S0 PTB  00005                    1600 SR        000000000000 DENSO TEN (THAILAND)180D06U0011011                                                                                                                              *          20180910 IMCT                IMCT                                                                                                                    WMF1809104.TXT
MDEUJ9218877201809                D89828070300PT4U20180914000030SPEAKER ASM                   M IMCTM S9TS02 TNTH  09020IMCT  S9 PTB  00015                    0230 SR        000000000000 DENSO TEN (THAILAND)18020UU0113113                                                                                                                              *          20180910 IMCT                IMCT                                                                                                                    WMF1809104.TXT
MDEUJ9218878201809                D89828070300PT4U20180914000030SPEAKER ASM                   M IMCTM S9TS02 TNTH  09020IMCT  S9 PTB  00015                    1030 SR        000000000000 DENSO TEN (THAILAND)18021UU0176176                                                                                                                              *          20180910 IMCT                IMCT                                                                                                                    WMF1809104.TXT
MDEUJ9218879201809                D89828070300PT4U20180914000030SPEAKER ASM                   M IMCTM S9TS02 TNTH  09020IMCT  S9 PTB  00015                    1600 SR        000000000000 DENSO TEN (THAILAND)180D06U0011011                                                                                                                              *          20180910 IMCT                IMCT                                                                                                                    WMF1809104.TXT
