REC2018092420180924ISUZU                              68     
MDDDJ9278805201809                D89821984430PT1D20180927000030RADIO;AM/FM,CD                M IMCTM S5NC06 TNTH  09020IMCT  S5 PTB  00005                    2230 SR        000000000000 DENSO TEN (THAILAND)180LNGL0212212                                                                                                                              *          20180924 IMCT                IMCT                                                                                                                    WMF1809243.TXT
MDDDJ9278806201809                D89821984430PT1D20180928000030RADIO;AM/FM,CD                M IMCTM S5NC06 TNTH  09020IMCT  S5 PTB  00005                    0400 SR        000000000000 DENSO TEN (THAILAND)180LXCL0092092                                                                                                                              *          20180924 IMCT                IMCT                                                                                                                    WMF1809243.TXT
MDDDJ9278807201809                D89821984430PT1D20180928000030RADIO;AM/FM,CD                M IMCTM S5NC06 TNTH  09020IMCT  S5 PTB  00005                    1030 SR        000000000000 DENSO TEN (THAILAND)180LNGL0213213                                                                                                                              *          20180924 IMCT                IMCT                                                                                                                    WMF1809243.TXT
MDDDJ9278808201809                D89821984430PT1D20180928000030RADIO;AM/FM,CD                M IMCTM S5NC06 TNTH  09020IMCT  S5 PTB  00005                    1300 SR        000000000000 DENSO TEN (THAILAND)180LRAL0259259                                                                                                                              *          20180924 IMCT                IMCT                                                                                                                    WMF1809243.TXT
MDDDJ9278809201809                D89821984430PT1D20180928000030RADIO;AM/FM,CD                M IMCTM S5NC06 TNTH  09020IMCT  S5 PTB  00005                    2100 SR        000000000000 DENSO TEN (THAILAND)190MYAL0001001                                                                                                                              *          20180924 IMCT                IMCT                                                                                                                    WMF1809243.TXT
MDDDJ9278810201809                D89828070100PV1D20180927000060SPEAKER ASM                   M IMCTM S5MB11 TNTH  09020IMCT  S5 PTB  00004                    2230 SR        000000000000 DENSO TEN (THAILAND)180LNGL0212212                                                                                                                              *          20180924 IMCT                IMCT                                                                                                                    WMF1809243.TXT
MDDDJ9278811201809                D89828070100PV1D20180928000060SPEAKER ASM                   M IMCTM S5MB11 TNTH  09020IMCT  S5 PTB  00004                    0400 SR        000000000000 DENSO TEN (THAILAND)180LXCL0092092                                                                                                                              *          20180924 IMCT                IMCT                                                                                                                    WMF1809243.TXT
MDDDJ9278812201809                D89828070100PV1D20180928000060SPEAKER ASM                   M IMCTM S5MB11 TNTH  09020IMCT  S5 PTB  00004                    1030 SR        000000000000 DENSO TEN (THAILAND)180LNGL0213213                                                                                                                              *          20180924 IMCT                IMCT                                                                                                                    WMF1809243.TXT
MDDDJ9278813201809                D89828070100PV1D20180928000060SPEAKER ASM                   M IMCTM S5MB11 TNTH  09020IMCT  S5 PTB  00004                    1300 SR        000000000000 DENSO TEN (THAILAND)180LRAL0259259                                                                                                                              *          20180924 IMCT                IMCT                                                                                                                    WMF1809243.TXT
MDDDJ9278814201809                D89828070100PV1D20180928000060SPEAKER ASM                   M IMCTM S5MB11 TNTH  09020IMCT  S5 PTB  00004                    1600 SR        000000000000 DENSO TEN (THAILAND)190MPGL0001001                                                                                                                              *          20180924 IMCT                IMCT                                                                                                                    WMF1809243.TXT
MDDDJ9278815201809                D89828070100PV1D20180928000060SPEAKER ASM                   M IMCTM S5MB11 TNTH  09020IMCT  S5 PTB  00004                    2100 SR        000000000000 DENSO TEN (THAILAND)190MYAL0001001                                                                                                                              *          20180924 IMCT                IMCT                                                                                                                    WMF1809243.TXT
MDDDJ9278816201809                D89828070300PT1D20180928000060SPEAKER ASM                   M IMCTM S5NB082TNTH  09020IMCT  S5 PTB  00015                    1600 SR        000000000000 DENSO TEN (THAILAND)190MPGL0001001                                                                                                                              *          20180924 IMCT                IMCT                                                                                                                    WMF1809243.TXT
MDDDJ9278817201809                D89831228300PT1D20180928000030RADIO;AM/FM,CD                M IMCTM S5NC06 TNTH  09020IMCT  S5 CPB  00003                    1600 SR        000000000000 DENSO TEN (THAILAND)190MPGL0001001                                                                                                                              *          20180924 IMCT                IMCT                                                                                                                    WMF1809243.TXT
MDDUJ9238441201809                D89828070100PT4U20180927000030SPEAKER ASM                   M IMCTM S0FL05 TNTH  09020IMCT  S0 PTB  00004                    2230 SR        000000000000 DENSO TEN (THAILAND)180LURU0083083                                                                                                                              *          20180924 IMCT                IMCT                                                                                                                    WMF1809243.TXT
MDDUJ9238442201809                D89828070100PT4U20180928000030SPEAKER ASM                   M IMCTM S0FL05 TNTH  09020IMCT  S0 PTB  00004                    0400 SR        000000000000 DENSO TEN (THAILAND)180LUSU0179179                                                                                                                              *          20180924 IMCT                IMCT                                                                                                                    WMF1809243.TXT
MDDUJ9238443201809                D89828070100PT4U20180928000030SPEAKER ASM                   M IMCTM S0FL05 TNTH  09020IMCT  S0 PTB  00004                    1300 SR        000000000000 DENSO TEN (THAILAND)180LUQU0076076                                                                                                                              *          20180924 IMCT                IMCT                                                                                                                    WMF1809243.TXT
MDDUJ9238444201809                D89828070200PV4U20180927000030SPEAKER ASM                   M IMCTM S0FR05 TNTH  09020IMCT  S0 PTB  00005                    2230 SR        000000000000 DENSO TEN (THAILAND)180LURU0083083                                                                                                                              *          20180924 IMCT                IMCT                                                                                                                    WMF1809243.TXT
MDDUJ9238445201809                D89828070200PV4U20180928000030SPEAKER ASM                   M IMCTM S0FR05 TNTH  09020IMCT  S0 PTB  00005                    0400 SR        000000000000 DENSO TEN (THAILAND)180LUSU0179179                                                                                                                              *          20180924 IMCT                IMCT                                                                                                                    WMF1809243.TXT
MDDUJ9238446201809                D89828070200PV4U20180928000030SPEAKER ASM                   M IMCTM S0FR05 TNTH  09020IMCT  S0 PTB  00005                    1300 SR        000000000000 DENSO TEN (THAILAND)180LUQU0076076                                                                                                                              *          20180924 IMCT                IMCT                                                                                                                    WMF1809243.TXT
MDDUJ9238447201809                D89828070300PT4U20180927000030SPEAKER ASM                   M IMCTM S9TS02 TNTH  09020IMCT  S9 PTB  00015                    2230 SR        000000000000 DENSO TEN (THAILAND)180LURU0083083                                                                                                                              *          20180924 IMCT                IMCT                                                                                                                    WMF1809243.TXT
MDDUJ9238448201809                D89828070300PT4U20180928000030SPEAKER ASM                   M IMCTM S9TS02 TNTH  09020IMCT  S9 PTB  00015                    0400 SR        000000000000 DENSO TEN (THAILAND)180LUSU0179179                                                                                                                              *          20180924 IMCT                IMCT                                                                                                                    WMF1809243.TXT
MDDUJ9238449201809                D89828070300PT4U20180928000030SPEAKER ASM                   M IMCTM S9TS02 TNTH  09020IMCT  S9 PTB  00015                    1300 SR        000000000000 DENSO TEN (THAILAND)180LUQU0076076                                                                                                                              *          20180924 IMCT                IMCT                                                                                                                    WMF1809243.TXT
MDDUJ9238450201809                D89848584200PT4U20180928000015RADIO;AM/FM CD D              M IMCTM S9CO001TNTH  09020IMCT  S9 PTB  00003                    1300 SR        000000000000 DENSO TEN (THAILAND)180LUQU0076076                                                                                                                              *          20180924 IMCT                IMCT                                                                                                                    WMF1809243.TXT
MDEDJ9325678201809                D89805293700PV1D20180928000030SPEAKER ASM                   M IMCTM S5MB14 TNTH  09020IMCT  S5 PTB  00003                    1300 SR        000000000000 DENSO TEN (THAILAND)15021DL0019019                                                                                                                              *          20180924 IMCT                IMCT                                                                                                                    WMF1809243.TXT
MDEDJ9325679201809                D89828070100PV1D20180927000030SPEAKER ASM                   M IMCTM S5MB11 TNTH  09020IMCT  S5 PTB  00004                    2230 SR        000000000000 DENSO TEN (THAILAND)17032QL0027027                                                                                                                              *          20180924 IMCT                IMCT                                                                                                                    WMF1809243.TXT
MDEDJ9325680201809                D89828070100PV1D20180928000060SPEAKER ASM                   M IMCTM S5MB11 TNTH  09020IMCT  S5 PTB  00004                    0230 SR        000000000000 DENSO TEN (THAILAND)18008YL0030031                                                                                                                              *          20180924 IMCT                IMCT                                                                                                                    WMF1809243.TXT
MDEDJ9325681201809                D89828070100PV1D20180928000060SPEAKER ASM                   M IMCTM S5MB11 TNTH  09020IMCT  S5 PTB  00004                    0400 SR        000000000000 DENSO TEN (THAILAND)17069PL000100118084UL0011011                                                                                                                *          20180924 IMCT                IMCT                                                                                                                    WMF1809243.TXT
MDEDJ9325682201809                D89828070100PV1D20180928000060SPEAKER ASM                   M IMCTM S5MB11 TNTH  09020IMCT  S5 PTB  00004                    0830 SR        000000000000 DENSO TEN (THAILAND)18076XL0017018                                                                                                                              *          20180924 IMCT                IMCT                                                                                                                    WMF1809243.TXT
MDEDJ9325683201809                D89828070100PV1D20180928000030SPEAKER ASM                   M IMCTM S5MB11 TNTH  09020IMCT  S5 PTB  00004                    1300 SR        000000000000 DENSO TEN (THAILAND)18007YL0025025                                                                                                                              *          20180924 IMCT                IMCT                                                                                                                    WMF1809243.TXT
MDEDJ9325684201809                D89828070100PV1D20180928000030SPEAKER ASM                   M IMCTM S5MB11 TNTH  09020IMCT  S5 PTB  00004                    1600 SR        000000000000 DENSO TEN (THAILAND)17033QL0103103                                                                                                                              *          20180924 IMCT                IMCT                                                                                                                    WMF1809243.TXT
MDEDJ9325685201809                D89828070100PV1D20180928000030SPEAKER ASM                   M IMCTM S5MB11 TNTH  09020IMCT  S5 PTB  00004                    2100 SR        000000000000 DENSO TEN (THAILAND)18001VL0054054                                                                                                                              *          20180924 IMCT                IMCT                                                                                                                    WMF1809243.TXT
MDEDJ9325686201809                D89828070100PV4D20180928000030SPEAKER ASM                   M IMCTM S0FL05 TNTH  09020IMCT  S0 PTB  00004                    0230 SR        000000000000 DENSO TEN (THAILAND)18082UU0028028                                                                                                                              *          20180924 IMCT                IMCT                                                                                                                    WMF1809243.TXT
MDEDJ9325687201809                D89828070100PV4D20180928000030SPEAKER ASM                   M IMCTM S0FL05 TNTH  09020IMCT  S0 PTB  00004                    0830 SR        000000000000 DENSO TEN (THAILAND)18098UU0051051                                                                                                                              *          20180924 IMCT                IMCT                                                                                                                    WMF1809243.TXT
MDEDJ9325688201809                D89828070100PV4D20180928000030SPEAKER ASM                   M IMCTM S0FL05 TNTH  09020IMCT  S0 PTB  00004                    1300 SR        000000000000 DENSO TEN (THAILAND)18099UU0051051                                                                                                                              *          20180924 IMCT                IMCT                                                                                                                    WMF1809243.TXT
MDEDJ9325689201809                D89828070200PV1D20180927000030SPEAKER ASM                   M IMCTM S5MA14 TNTH  09020IMCT  S5 PTB  00005                    2230 SR        000000000000 DENSO TEN (THAILAND)17032QL0027027                                                                                                                              *          20180924 IMCT                IMCT                                                                                                                    WMF1809243.TXT
MDEDJ9325690201809                D89828070200PV1D20180928000060SPEAKER ASM                   M IMCTM S5MA14 TNTH  09020IMCT  S5 PTB  00005                    0230 SR        000000000000 DENSO TEN (THAILAND)18008YL0030031                                                                                                                              *          20180924 IMCT                IMCT                                                                                                                    WMF1809243.TXT
MDEDJ9325691201809                D89828070200PV1D20180928000030SPEAKER ASM                   M IMCTM S5MA14 TNTH  09020IMCT  S5 PTB  00005                    0400 SR        000000000000 DENSO TEN (THAILAND)18084UL0011011                                                                                                                              *          20180924 IMCT                IMCT                                                                                                                    WMF1809243.TXT
MDEDJ9325692201809                D89828070200PV1D20180928000030SPEAKER ASM                   M IMCTM S5MA14 TNTH  09020IMCT  S5 PTB  00005                    1300 SR        000000000000 DENSO TEN (THAILAND)18007YL0025025                                                                                                                              *          20180924 IMCT                IMCT                                                                                                                    WMF1809243.TXT
MDEDJ9325693201809                D89828070200PV1D20180928000030SPEAKER ASM                   M IMCTM S5MA14 TNTH  09020IMCT  S5 PTB  00005                    1600 SR        000000000000 DENSO TEN (THAILAND)17033QL0103103                                                                                                                              *          20180924 IMCT                IMCT                                                                                                                    WMF1809243.TXT
MDEDJ9325694201809                D89828070200PV1D20180928000030SPEAKER ASM                   M IMCTM S5MA14 TNTH  09020IMCT  S5 PTB  00005                    2100 SR        000000000000 DENSO TEN (THAILAND)18001VL0054054                                                                                                                              *          20180924 IMCT                IMCT                                                                                                                    WMF1809243.TXT
MDEDJ9325695201809                D89828070200PV4D20180928000030SPEAKER ASM                   M IMCTM S0FR05 TNTH  09020IMCT  S0 PTB  00005                    0230 SR        000000000000 DENSO TEN (THAILAND)18082UU0028028                                                                                                                              *          20180924 IMCT                IMCT                                                                                                                    WMF1809243.TXT
MDEDJ9325696201809                D89828070200PV4D20180928000030SPEAKER ASM                   M IMCTM S0FR05 TNTH  09020IMCT  S0 PTB  00005                    0830 SR        000000000000 DENSO TEN (THAILAND)18098UU0051051                                                                                                                              *          20180924 IMCT                IMCT                                                                                                                    WMF1809243.TXT
MDEDJ9325697201809                D89828070200PV4D20180928000030SPEAKER ASM                   M IMCTM S0FR05 TNTH  09020IMCT  S0 PTB  00005                    1300 SR        000000000000 DENSO TEN (THAILAND)18099UU0051051                                                                                                                              *          20180924 IMCT                IMCT                                                                                                                    WMF1809243.TXT
MDEDJ9325698201809                D89828070300PT1D20180927000030SPEAKER ASM                   M IMCTM S5NB082TNTH  09020IMCT  S5 PTB  00015                    2230 SR        000000000000 DENSO TEN (THAILAND)17032QL0027027                                                                                                                              *          20180924 IMCT                IMCT                                                                                                                    WMF1809243.TXT
MDEDJ9325699201809                D89828070300PT1D20180928000060SPEAKER ASM                   M IMCTM S5NB082TNTH  09020IMCT  S5 PTB  00015                    0230 SR        000000000000 DENSO TEN (THAILAND)18008YL0030031                                                                                                                              *          20180924 IMCT                IMCT                                                                                                                    WMF1809243.TXT
MDEDJ9325700201809                D89828070300PT1D20180928000030SPEAKER ASM                   M IMCTM S5NB082TNTH  09020IMCT  S5 PTB  00015                    0400 SR        000000000000 DENSO TEN (THAILAND)18084UL0011011                                                                                                                              *          20180924 IMCT                IMCT                                                                                                                    WMF1809243.TXT
MDEDJ9325701201809                D89828070300PT1D20180928000030SPEAKER ASM                   M IMCTM S5NB082TNTH  09020IMCT  S5 PTB  00015                    1300 SR        000000000000 DENSO TEN (THAILAND)18007YL0025025                                                                                                                              *          20180924 IMCT                IMCT                                                                                                                    WMF1809243.TXT
MDEDJ9325702201809                D89828070300PT1D20180928000030SPEAKER ASM                   M IMCTM S5NB082TNTH  09020IMCT  S5 PTB  00015                    1600 SR        000000000000 DENSO TEN (THAILAND)17033QL0103103                                                                                                                              *          20180924 IMCT                IMCT                                                                                                                    WMF1809243.TXT
MDEDJ9325703201809                D89828070300PT1D20180928000030SPEAKER ASM                   M IMCTM S5NB082TNTH  09020IMCT  S5 PTB  00015                    2100 SR        000000000000 DENSO TEN (THAILAND)18001VL0054054                                                                                                                              *          20180924 IMCT                IMCT                                                                                                                    WMF1809243.TXT
MDEDJ9325704201809                D89828070300PT4D20180928000030SPEAKER ASM                   M IMCTM S9TS02 TNTH  09020IMCT  S9 PTB  00015                    0230 SR        000000000000 DENSO TEN (THAILAND)18082UU0028028                                                                                                                              *          20180924 IMCT                IMCT                                                                                                                    WMF1809243.TXT
MDEDJ9325705201809                D89828070300PT4D20180928000030SPEAKER ASM                   M IMCTM S9TS02 TNTH  09020IMCT  S9 PTB  00015                    0830 SR        000000000000 DENSO TEN (THAILAND)18098UU0051051                                                                                                                              *          20180924 IMCT                IMCT                                                                                                                    WMF1809243.TXT
MDEDJ9325706201809                D89828070300PT4D20180928000030SPEAKER ASM                   M IMCTM S9TS02 TNTH  09020IMCT  S9 PTB  00015                    1300 SR        000000000000 DENSO TEN (THAILAND)18099UU0051051                                                                                                                              *          20180924 IMCT                IMCT                                                                                                                    WMF1809243.TXT
MDEDJ9325707201809                D89831229200PT1D20180927000015RADIO;AM/FM,CD                M IMCTM S5NC06 TNTH  09020IMCT  S5 PTB  00003                    2230 SR        000000000000 DENSO TEN (THAILAND)17032QL0027027                                                                                                                              *          20180924 IMCT                IMCT                                                                                                                    WMF1809243.TXT
MDEDJ9325708201809                D89831229200PT1D20180928000015RADIO;AM/FM,CD                M IMCTM S5NC06 TNTH  09020IMCT  S5 PTB  00003                    1600 SR        000000000000 DENSO TEN (THAILAND)17033QL0103103                                                                                                                              *          20180924 IMCT                IMCT                                                                                                                    WMF1809243.TXT
MDEDJ9325709201809                D89848581800PT4D20180928000015RADIO;AM/FM CD D              M IMCTM S9CO001TNTH  09020IMCT  S9 PTB  00003                    0230 SR        000000000000 DENSO TEN (THAILAND)18082UU0028028                                                                                                                              *          20180924 IMCT                IMCT                                                                                                                    WMF1809243.TXT
MDEDJ9325710201809                D89848581800PT4D20180928000015RADIO;AM/FM CD D              M IMCTM S9CO001TNTH  09020IMCT  S9 PTB  00003                    0830 SR        000000000000 DENSO TEN (THAILAND)18098UU0051051                                                                                                                              *          20180924 IMCT                IMCT                                                                                                                    WMF1809243.TXT
MDEUJ9256072201809                D89828070100PT4U20180928000030SPEAKER ASM                   M IMCTM S0FL05 TNTH  09020IMCT  S0 PTB  00004                    0230 SR        000000000000 DENSO TEN (THAILAND)18015UU0047047                                                                                                                              *          20180924 IMCT                IMCT                                                                                                                    WMF1809243.TXT
MDEUJ9256073201809                D89828070100PT4U20180928000030SPEAKER ASM                   M IMCTM S0FL05 TNTH  09020IMCT  S0 PTB  00004                    1030 SR        000000000000 DENSO TEN (THAILAND)18020UU0126126                                                                                                                              *          20180924 IMCT                IMCT                                                                                                                    WMF1809243.TXT
MDEUJ9256074201809                D89828070100PT4U20180928000030SPEAKER ASM                   M IMCTM S0FL05 TNTH  09020IMCT  S0 PTB  00004                    1600 SR        000000000000 DENSO TEN (THAILAND)18016UU0048048                                                                                                                              *          20180924 IMCT                IMCT                                                                                                                    WMF1809243.TXT
MDEUJ9256075201809                D89828070100PT4U20180928000030SPEAKER ASM                   M IMCTM S0FL05 TNTH  09020IMCT  S0 PTB  00004                    2100 SR        000000000000 DENSO TEN (THAILAND)18021UU0193193                                                                                                                              *          20180924 IMCT                IMCT                                                                                                                    WMF1809243.TXT
MDEUJ9256076201809                D89828070200PV4U20180928000030SPEAKER ASM                   M IMCTM S0FR05 TNTH  09020IMCT  S0 PTB  00005                    0230 SR        000000000000 DENSO TEN (THAILAND)18015UU0047047                                                                                                                              *          20180924 IMCT                IMCT                                                                                                                    WMF1809243.TXT
MDEUJ9256077201809                D89828070200PV4U20180928000030SPEAKER ASM                   M IMCTM S0FR05 TNTH  09020IMCT  S0 PTB  00005                    1030 SR        000000000000 DENSO TEN (THAILAND)18020UU0126126                                                                                                                              *          20180924 IMCT                IMCT                                                                                                                    WMF1809243.TXT
MDEUJ9256078201809                D89828070200PV4U20180928000030SPEAKER ASM                   M IMCTM S0FR05 TNTH  09020IMCT  S0 PTB  00005                    1600 SR        000000000000 DENSO TEN (THAILAND)18016UU0048048                                                                                                                              *          20180924 IMCT                IMCT                                                                                                                    WMF1809243.TXT
MDEUJ9256079201809                D89828070200PV4U20180928000030SPEAKER ASM                   M IMCTM S0FR05 TNTH  09020IMCT  S0 PTB  00005                    2100 SR        000000000000 DENSO TEN (THAILAND)18021UU0193193                                                                                                                              *          20180924 IMCT                IMCT                                                                                                                    WMF1809243.TXT
MDEUJ9256080201809                D89828070300PT4U20180928000030SPEAKER ASM                   M IMCTM S9TS02 TNTH  09020IMCT  S9 PTB  00015                    0230 SR        000000000000 DENSO TEN (THAILAND)18015UU0047047                                                                                                                              *          20180924 IMCT                IMCT                                                                                                                    WMF1809243.TXT
MDEUJ9256081201809                D89828070300PT4U20180928000030SPEAKER ASM                   M IMCTM S9TS02 TNTH  09020IMCT  S9 PTB  00015                    1030 SR        000000000000 DENSO TEN (THAILAND)18020UU0126126                                                                                                                              *          20180924 IMCT                IMCT                                                                                                                    WMF1809243.TXT
MDEUJ9256082201809                D89828070300PT4U20180928000030SPEAKER ASM                   M IMCTM S9TS02 TNTH  09020IMCT  S9 PTB  00015                    1600 SR        000000000000 DENSO TEN (THAILAND)18016UU0048048                                                                                                                              *          20180924 IMCT                IMCT                                                                                                                    WMF1809243.TXT
MDEUJ9256083201809                D89828070300PT4U20180928000030SPEAKER ASM                   M IMCTM S9TS02 TNTH  09020IMCT  S9 PTB  00015                    2100 SR        000000000000 DENSO TEN (THAILAND)18021UU0193193                                                                                                                              *          20180924 IMCT                IMCT                                                                                                                    WMF1809243.TXT
