REC2018092620180926ISUZU                              29     
MDD6J9279920201810                D89821984430PT5620181002000030RADIO;AM/FM,CD                M IMCTM G9J213 TNTH  09020G/WAY G9 PTB  00005                    0900 GW        0000000000005DENSO TEN (THAILAND)190MYAG0002002                                                                                                                              *          20180926 IMCT                IMCT                                                                                                                    WMF1809262.TXT
MDD6J9279921201810                D89828070100PV5620181001000060SPEAKER ASM                   M IMCTM G9B114 TNTH  09020G/WAY G9 PTB  00004                    1530 GW        0000000000005DENSO TEN (THAILAND)190MPLG0001001                                                                                                                              *          20180926 IMCT                IMCT                                                                                                                    WMF1809262.TXT
MDD6J9279922201810                D89828070100PV5620181001000060SPEAKER ASM                   M IMCTM G9B114 TNTH  09020G/WAY G9 PTB  00004                    2100 GW        0000000000005DENSO TEN (THAILAND)190MRVG0001001                                                                                                                              *          20180926 IMCT                IMCT                                                                                                                    WMF1809262.TXT
MDD6J9279923201810                D89828070100PV5620181001000060SPEAKER ASM                   M IMCTM G9B114 TNTH  09020G/WAY G9 PTB  00004                    2300 GW        0000000000005DENSO TEN (THAILAND)190MRRG0001001                                                                                                                              *          20180926 IMCT                IMCT                                                                                                                    WMF1809262.TXT
MDD6J9279924201810                D89828070100PV5620181002000060SPEAKER ASM                   M IMCTM G9B114 TNTH  09020G/WAY G9 PTB  00004                    0200 GW        0000000000005DENSO TEN (THAILAND)190MRTG0002002                                                                                                                              *          20180926 IMCT                IMCT                                                                                                                    WMF1809262.TXT
MDD6J9279925201810                D89828070100PV5620181002000060SPEAKER ASM                   M IMCTM G9B114 TNTH  09020G/WAY G9 PTB  00004                    0900 GW        0000000000005DENSO TEN (THAILAND)190MYAG0002002                                                                                                                              *          20180926 IMCT                IMCT                                                                                                                    WMF1809262.TXT
MDD6J9279926201810                D89828070100PV5620181002000060SPEAKER ASM                   M IMCTM G9B114 TNTH  09020G/WAY G9 PTB  00004                    1100 GW        0000000000005DENSO TEN (THAILAND)190MRHG0003003                                                                                                                              *          20180926 IMCT                IMCT                                                                                                                    WMF1809262.TXT
MDD6J9279927201810                D89828070100PV5620181002000060SPEAKER ASM                   M IMCTM G9B114 TNTH  09020G/WAY G9 PTB  00004                    1400 GW        0000000000005DENSO TEN (THAILAND)190MRTG0003003                                                                                                                              *          20180926 IMCT                IMCT                                                                                                                    WMF1809262.TXT
MDD6J9279928201810                D89828070100PV5620181002000060SPEAKER ASM                   M IMCTM G9B114 TNTH  09020G/WAY G9 PTB  00004                    1530 GW        0000000000005DENSO TEN (THAILAND)190MRNG0001001                                                                                                                              *          20180926 IMCT                IMCT                                                                                                                    WMF1809262.TXT
MDD6J9279929201810                D89828070200PV5620181001000060SPEAKER ASM                   M IMCTM G9F132 TNTH  09020G/WAY G9 PTB  00005                    2100 GW        0000000000005DENSO TEN (THAILAND)190MRVG0001001                                                                                                                              *          20180926 IMCT                IMCT                                                                                                                    WMF1809262.TXT
MDD6J9279930201810                D89828070200PV5620181001000060SPEAKER ASM                   M IMCTM G9F132 TNTH  09020G/WAY G9 PTB  00005                    2300 GW        0000000000005DENSO TEN (THAILAND)190MRRG0001001                                                                                                                              *          20180926 IMCT                IMCT                                                                                                                    WMF1809262.TXT
MDD6J9279931201810                D89828070200PV5620181002000060SPEAKER ASM                   M IMCTM G9F132 TNTH  09020G/WAY G9 PTB  00005                    0200 GW        0000000000005DENSO TEN (THAILAND)190MRTG0002002                                                                                                                              *          20180926 IMCT                IMCT                                                                                                                    WMF1809262.TXT
MDD6J9279932201810                D89828070200PV5620181002000060SPEAKER ASM                   M IMCTM G9F132 TNTH  09020G/WAY G9 PTB  00005                    1100 GW        0000000000005DENSO TEN (THAILAND)190MRHG0003003                                                                                                                              *          20180926 IMCT                IMCT                                                                                                                    WMF1809262.TXT
MDD6J9279933201810                D89828070200PV5620181002000060SPEAKER ASM                   M IMCTM G9F132 TNTH  09020G/WAY G9 PTB  00005                    1400 GW        0000000000005DENSO TEN (THAILAND)190MRTG0003003                                                                                                                              *          20180926 IMCT                IMCT                                                                                                                    WMF1809262.TXT
MDD6J9279934201810                D89828070200PV5620181002000060SPEAKER ASM                   M IMCTM G9F132 TNTH  09020G/WAY G9 PTB  00005                    1530 GW        0000000000005DENSO TEN (THAILAND)190MRNG0001001                                                                                                                              *          20180926 IMCT                IMCT                                                                                                                    WMF1809262.TXT
MDD6J9279935201810                D89828070300PT5620181001000060SPEAKER ASM                   M IMCTM G9JA33 TNTH  09020G/WAY G9 PTB  00015                    1530 GW        0000000000005DENSO TEN (THAILAND)190MPLG0001001                                                                                                                              *          20180926 IMCT                IMCT                                                                                                                    WMF1809262.TXT
MDD6J9279936201810                D89828070300PT5620181001000060SPEAKER ASM                   M IMCTM G9JA33 TNTH  09020G/WAY G9 PTB  00015                    2100 GW        0000000000005DENSO TEN (THAILAND)190MRVG0001001                                                                                                                              *          20180926 IMCT                IMCT                                                                                                                    WMF1809262.TXT
MDD6J9279937201810                D89828070300PT5620181001000060SPEAKER ASM                   M IMCTM G9JA33 TNTH  09020G/WAY G9 PTB  00015                    2300 GW        0000000000005DENSO TEN (THAILAND)190MRRG0001001                                                                                                                              *          20180926 IMCT                IMCT                                                                                                                    WMF1809262.TXT
MDD6J9279938201810                D89828070300PT5620181002000060SPEAKER ASM                   M IMCTM G9JA33 TNTH  09020G/WAY G9 PTB  00015                    0200 GW        0000000000005DENSO TEN (THAILAND)190MRTG0002002                                                                                                                              *          20180926 IMCT                IMCT                                                                                                                    WMF1809262.TXT
MDD6J9279939201810                D89828070300PT5620181002000060SPEAKER ASM                   M IMCTM G9JA33 TNTH  09020G/WAY G9 PTB  00015                    1100 GW        0000000000005DENSO TEN (THAILAND)190MRHG0003003                                                                                                                              *          20180926 IMCT                IMCT                                                                                                                    WMF1809262.TXT
MDD6J9279940201810                D89828070300PT5620181002000060SPEAKER ASM                   M IMCTM G9JA33 TNTH  09020G/WAY G9 PTB  00015                    1400 GW        0000000000005DENSO TEN (THAILAND)190MRTG0003003                                                                                                                              *          20180926 IMCT                IMCT                                                                                                                    WMF1809262.TXT
MDD6J9279941201810                D89828070300PT5620181002000060SPEAKER ASM                   M IMCTM G9JA33 TNTH  09020G/WAY G9 PTB  00015                    1530 GW        0000000000005DENSO TEN (THAILAND)190MRNG0001001                                                                                                                              *          20180926 IMCT                IMCT                                                                                                                    WMF1809262.TXT
MDD6J9279942201810                D89848581500PT5620181002000030RADIO;AM/FM CD D              M IMCTM G9J213 TNTH  09020G/WAY G9 PTB  00003                    0200 GW        0000000000005DENSO TEN (THAILAND)190MRTG0002002                                                                                                                              *          20180926 IMCT                IMCT                                                                                                                    WMF1809262.TXT
MDD6J9279943201810                D89848581500PT5620181002000030RADIO;AM/FM CD D              M IMCTM G9J213 TNTH  09020G/WAY G9 PTB  00003                    1100 GW        0000000000005DENSO TEN (THAILAND)190MRHG0003003                                                                                                                              *          20180926 IMCT                IMCT                                                                                                                    WMF1809262.TXT
MDD6J9279944201810                D89848581500PT5620181002000030RADIO;AM/FM CD D              M IMCTM G9J213 TNTH  09020G/WAY G9 PTB  00003                    1400 GW        0000000000005DENSO TEN (THAILAND)190MRTG0003003                                                                                                                              *          20180926 IMCT                IMCT                                                                                                                    WMF1809262.TXT
MDD6J9279945201810                D89848581600PT5620181001000030RADIO;AM/FM CD D              M IMCTM G9J213 TNTH  09020G/WAY G9 PTB  00003                    1530 GW        0000000000005DENSO TEN (THAILAND)190MPLG0001001                                                                                                                              *          20180926 IMCT                IMCT                                                                                                                    WMF1809262.TXT
MDE6J9203981201810                D89828070100PV5620181002000060SPEAKER ASM                   M IMCTM G9B114 TNTH  09020G/WAY G9 PTB  00004                    0330 GW        0000000000005DENSO TEN (THAILAND)18084UG0012012                                                                                                                              *          20180926 IMCT                IMCT                                                                                                                    WMF1809262.TXT
MDE6J9203982201810                D89828070200PV5620181002000060SPEAKER ASM                   M IMCTM G9F132 TNTH  09020G/WAY G9 PTB  00005                    0330 GW        0000000000005DENSO TEN (THAILAND)18084UG0012012                                                                                                                              *          20180926 IMCT                IMCT                                                                                                                    WMF1809262.TXT
MDE6J9203983201810                D89828070300PT5620181002000060SPEAKER ASM                   M IMCTM G9JA33 TNTH  09020G/WAY G9 PTB  00015                    0330 GW        0000000000005DENSO TEN (THAILAND)18084UG0012012                                                                                                                              *          20180926 IMCT                IMCT                                                                                                                    WMF1809262.TXT
