REC2018092120180921ISUZU                              76     
MDDDJ9268909201809                D89821984430PT1D20180925000030RADIO;AM/FM,CD                M IMCTM S5NC06 TNTH  09020IMCT  S5 PTB  00005                    2230 SR        000000000000 DENSO TEN (THAILAND)180LXEL0096096                                                                                                                              *          20180921 IMCT                IMCT                                                                                                                    WMF1809217.TXT
MDDDJ9268910201809                D89821984430PT1D20180926000030RADIO;AM/FM,CD                M IMCTM S5NC06 TNTH  09020IMCT  S5 PTB  00005                    0830 SR        000000000000 DENSO TEN (THAILAND)180LXFL0015015                                                                                                                              *          20180921 IMCT                IMCT                                                                                                                    WMF1809217.TXT
MDDDJ9268911201809                D89821984430PT1D20180926000030RADIO;AM/FM,CD                M IMCTM S5NC06 TNTH  09020IMCT  S5 PTB  00005                    1030 SR        000000000000 DENSO TEN (THAILAND)180LRAL0257257                                                                                                                              *          20180921 IMCT                IMCT                                                                                                                    WMF1809217.TXT
MDDDJ9268912201809                D89821984430PT1D20180926000030RADIO;AM/FM,CD                M IMCTM S5NC06 TNTH  09020IMCT  S5 PTB  00005                    1300 SR        000000000000 DENSO TEN (THAILAND)180LRBL0060060                                                                                                                              *          20180921 IMCT                IMCT                                                                                                                    WMF1809217.TXT
MDDDJ9268913201809                D89821984430PT1D20180926000030RADIO;AM/FM,CD                M IMCTM S5NC06 TNTH  09020IMCT  S5 PTB  00005                    1600 SR        000000000000 DENSO TEN (THAILAND)180LNGL0210210                                                                                                                              *          20180921 IMCT                IMCT                                                                                                                    WMF1809217.TXT
MDDDJ9268914201809                D89828070100PV1D20180925000060SPEAKER ASM                   M IMCTM S5MB11 TNTH  09020IMCT  S5 PTB  00004                    2230 SR        000000000000 DENSO TEN (THAILAND)180LXEL0096096                                                                                                                              *          20180921 IMCT                IMCT                                                                                                                    WMF1809217.TXT
MDDDJ9268915201809                D89828070100PV1D20180926000060SPEAKER ASM                   M IMCTM S5MB11 TNTH  09020IMCT  S5 PTB  00004                    0830 SR        000000000000 DENSO TEN (THAILAND)180LXFL0015015                                                                                                                              *          20180921 IMCT                IMCT                                                                                                                    WMF1809217.TXT
MDDDJ9268916201809                D89828070100PV1D20180926000060SPEAKER ASM                   M IMCTM S5MB11 TNTH  09020IMCT  S5 PTB  00004                    1030 SR        000000000000 DENSO TEN (THAILAND)180LRAL0257257                                                                                                                              *          20180921 IMCT                IMCT                                                                                                                    WMF1809217.TXT
MDDDJ9268917201809                D89828070100PV1D20180926000060SPEAKER ASM                   M IMCTM S5MB11 TNTH  09020IMCT  S5 PTB  00004                    1300 SR        000000000000 DENSO TEN (THAILAND)180LRBL0060060                                                                                                                              *          20180921 IMCT                IMCT                                                                                                                    WMF1809217.TXT
MDDDJ9268918201809                D89828070100PV1D20180926000060SPEAKER ASM                   M IMCTM S5MB11 TNTH  09020IMCT  S5 PTB  00004                    1600 SR        000000000000 DENSO TEN (THAILAND)180LNGL0210210                                                                                                                              *          20180921 IMCT                IMCT                                                                                                                    WMF1809217.TXT
MDDUJ9234153201809                D89828070100PT4U20180926000030SPEAKER ASM                   M IMCTM S0FL05 TNTH  09020IMCT  S0 PTB  00004                    0400 SR        000000000000 DENSO TEN (THAILAND)180LUSU0176176                                                                                                                              *          20180921 IMCT                IMCT                                                                                                                    WMF1809217.TXT
MDDUJ9234154201809                D89828070100PT4U20180926000030SPEAKER ASM                   M IMCTM S0FL05 TNTH  09020IMCT  S0 PTB  00004                    1300 SR        000000000000 DENSO TEN (THAILAND)180LUSU0177177                                                                                                                              *          20180921 IMCT                IMCT                                                                                                                    WMF1809217.TXT
MDDUJ9234155201809                D89828070100PT4U20180926000030SPEAKER ASM                   M IMCTM S0FL05 TNTH  09020IMCT  S0 PTB  00004                    1600 SR        000000000000 DENSO TEN (THAILAND)180LUQU0075075                                                                                                                              *          20180921 IMCT                IMCT                                                                                                                    WMF1809217.TXT
MDDUJ9234156201809                D89828070200PV4U20180926000030SPEAKER ASM                   M IMCTM S0FR05 TNTH  09020IMCT  S0 PTB  00005                    0400 SR        000000000000 DENSO TEN (THAILAND)180LUSU0176176                                                                                                                              *          20180921 IMCT                IMCT                                                                                                                    WMF1809217.TXT
MDDUJ9234157201809                D89828070200PV4U20180926000030SPEAKER ASM                   M IMCTM S0FR05 TNTH  09020IMCT  S0 PTB  00005                    1300 SR        000000000000 DENSO TEN (THAILAND)180LUSU0177177                                                                                                                              *          20180921 IMCT                IMCT                                                                                                                    WMF1809217.TXT
MDDUJ9234158201809                D89828070200PV4U20180926000030SPEAKER ASM                   M IMCTM S0FR05 TNTH  09020IMCT  S0 PTB  00005                    1600 SR        000000000000 DENSO TEN (THAILAND)180LUQU0075075                                                                                                                              *          20180921 IMCT                IMCT                                                                                                                    WMF1809217.TXT
MDDUJ9234159201809                D89828070300PT4U20180926000030SPEAKER ASM                   M IMCTM S9TS02 TNTH  09020IMCT  S9 PTB  00015                    0400 SR        000000000000 DENSO TEN (THAILAND)180LUSU0176176                                                                                                                              *          20180921 IMCT                IMCT                                                                                                                    WMF1809217.TXT
MDDUJ9234160201809                D89828070300PT4U20180926000030SPEAKER ASM                   M IMCTM S9TS02 TNTH  09020IMCT  S9 PTB  00015                    1300 SR        000000000000 DENSO TEN (THAILAND)180LUSU0177177                                                                                                                              *          20180921 IMCT                IMCT                                                                                                                    WMF1809217.TXT
MDDUJ9234161201809                D89828070300PT4U20180926000030SPEAKER ASM                   M IMCTM S9TS02 TNTH  09020IMCT  S9 PTB  00015                    1600 SR        000000000000 DENSO TEN (THAILAND)180LUQU0075075                                                                                                                              *          20180921 IMCT                IMCT                                                                                                                    WMF1809217.TXT
MDDUJ9234162201809                D89848584200PT4U20180926000015RADIO;AM/FM CD D              M IMCTM S9CO001TNTH  09020IMCT  S9 PTB  00003                    1600 SR        000000000000 DENSO TEN (THAILAND)180LUQU0075075                                                                                                                              *          20180921 IMCT                IMCT                                                                                                                    WMF1809217.TXT
MDEDJ9310035201809                D89828070100PV1D20180925000030SPEAKER ASM                   M IMCTM S5MB11 TNTH  09020IMCT  S5 PTB  00004                    2230 SR        000000000000 DENSO TEN (THAILAND)17034QL0006006                                                                                                                              *          20180921 IMCT                IMCT                                                                                                                    WMF1809217.TXT
MDEDJ9310036201809                D89828070100PV1D20180926000090SPEAKER ASM                   M IMCTM S5MB11 TNTH  09020IMCT  S5 PTB  00004                    0230 SR        000000000000 DENSO TEN (THAILAND)18001YL002102218063UL0033033                                                                                                                *          20180921 IMCT                IMCT                                                                                                                    WMF1809217.TXT
MDEDJ9310037201809                D89828070100PV1D20180926000090SPEAKER ASM                   M IMCTM S5MB11 TNTH  09020IMCT  S5 PTB  00004                    0400 SR        000000000000 DENSO TEN (THAILAND)18011XL000200218063UL003403418082XL0019019                                                                                                  *          20180921 IMCT                IMCT                                                                                                                    WMF1809217.TXT
MDEDJ9310038201809                D89828070100PV1D20180926000030SPEAKER ASM                   M IMCTM S5MB11 TNTH  09020IMCT  S5 PTB  00004                    0830 SR        000000000000 DENSO TEN (THAILAND)18098UL0069069                                                                                                                              *          20180921 IMCT                IMCT                                                                                                                    WMF1809217.TXT
MDEDJ9310039201809                D89828070100PV1D20180926000030SPEAKER ASM                   M IMCTM S5MB11 TNTH  09020IMCT  S5 PTB  00004                    1030 SR        000000000000 DENSO TEN (THAILAND)18098UL0070070                                                                                                                              *          20180921 IMCT                IMCT                                                                                                                    WMF1809217.TXT
MDEDJ9310040201809                D89828070100PV1D20180926000060SPEAKER ASM                   M IMCTM S5MB11 TNTH  09020IMCT  S5 PTB  00004                    1300 SR        000000000000 DENSO TEN (THAILAND)18074XL0013014                                                                                                                              *          20180921 IMCT                IMCT                                                                                                                    WMF1809217.TXT
MDEDJ9310041201809                D89828070100PV1D20180926000090SPEAKER ASM                   M IMCTM S5MB11 TNTH  09020IMCT  S5 PTB  00004                    1600 SR        000000000000 DENSO TEN (THAILAND)18007YL002402418041XL000200218069XL0001001                                                                                                  *          20180921 IMCT                IMCT                                                                                                                    WMF1809217.TXT
MDEDJ9310042201809                D89828070100PV1D20180926000060SPEAKER ASM                   M IMCTM S5MB11 TNTH  09020IMCT  S5 PTB  00004                    2100 SR        000000000000 DENSO TEN (THAILAND)18008YL002702718018XL0010010                                                                                                                *          20180921 IMCT                IMCT                                                                                                                    WMF1809217.TXT
MDEDJ9310043201809                D89828070100PV4D20180925000030SPEAKER ASM                   M IMCTM S0FL05 TNTH  09020IMCT  S0 PTB  00004                    2230 SR        000000000000 DENSO TEN (THAILAND)18082UU0026026                                                                                                                              *          20180921 IMCT                IMCT                                                                                                                    WMF1809217.TXT
MDEDJ9310044201809                D89828070100PV4D20180926000030SPEAKER ASM                   M IMCTM S0FL05 TNTH  09020IMCT  S0 PTB  00004                    0400 SR        000000000000 DENSO TEN (THAILAND)18099UU0048048                                                                                                                              *          20180921 IMCT                IMCT                                                                                                                    WMF1809217.TXT
MDEDJ9310045201809                D89828070100PV4D20180926000030SPEAKER ASM                   M IMCTM S0FL05 TNTH  09020IMCT  S0 PTB  00004                    1300 SR        000000000000 DENSO TEN (THAILAND)18098UU0049049                                                                                                                              *          20180921 IMCT                IMCT                                                                                                                    WMF1809217.TXT
MDEDJ9310046201809                D89828070100PV4D20180926000030SPEAKER ASM                   M IMCTM S0FL05 TNTH  09020IMCT  S0 PTB  00004                    1600 SR        000000000000 DENSO TEN (THAILAND)18082UU0027027                                                                                                                              *          20180921 IMCT                IMCT                                                                                                                    WMF1809217.TXT
MDEDJ9310047201809                D89828070200PV1D20180925000030SPEAKER ASM                   M IMCTM S5MA14 TNTH  09020IMCT  S5 PTB  00005                    2230 SR        000000000000 DENSO TEN (THAILAND)17034QL0006006                                                                                                                              *          20180921 IMCT                IMCT                                                                                                                    WMF1809217.TXT
MDEDJ9310048201809                D89828070200PV1D20180926000060SPEAKER ASM                   M IMCTM S5MA14 TNTH  09020IMCT  S5 PTB  00005                    0230 SR        000000000000 DENSO TEN (THAILAND)18001YL0021022                                                                                                                              *          20180921 IMCT                IMCT                                                                                                                    WMF1809217.TXT
MDEDJ9310049201809                D89828070200PV1D20180926000030SPEAKER ASM                   M IMCTM S5MA14 TNTH  09020IMCT  S5 PTB  00005                    0830 SR        000000000000 DENSO TEN (THAILAND)18098UL0069069                                                                                                                              *          20180921 IMCT                IMCT                                                                                                                    WMF1809217.TXT
MDEDJ9310050201809                D89828070200PV1D20180926000030SPEAKER ASM                   M IMCTM S5MA14 TNTH  09020IMCT  S5 PTB  00005                    1030 SR        000000000000 DENSO TEN (THAILAND)18098UL0070070                                                                                                                              *          20180921 IMCT                IMCT                                                                                                                    WMF1809217.TXT
MDEDJ9310051201809                D89828070200PV1D20180926000060SPEAKER ASM                   M IMCTM S5MA14 TNTH  09020IMCT  S5 PTB  00005                    1600 SR        000000000000 DENSO TEN (THAILAND)18007YL002402418041XL0002002                                                                                                                *          20180921 IMCT                IMCT                                                                                                                    WMF1809217.TXT
MDEDJ9310052201809                D89828070200PV1D20180926000030SPEAKER ASM                   M IMCTM S5MA14 TNTH  09020IMCT  S5 PTB  00005                    2100 SR        000000000000 DENSO TEN (THAILAND)18008YL0027027                                                                                                                              *          20180921 IMCT                IMCT                                                                                                                    WMF1809217.TXT
MDEDJ9310053201809                D89828070200PV4D20180925000030SPEAKER ASM                   M IMCTM S0FR05 TNTH  09020IMCT  S0 PTB  00005                    2230 SR        000000000000 DENSO TEN (THAILAND)18082UU0026026                                                                                                                              *          20180921 IMCT                IMCT                                                                                                                    WMF1809217.TXT
MDEDJ9310054201809                D89828070200PV4D20180926000030SPEAKER ASM                   M IMCTM S0FR05 TNTH  09020IMCT  S0 PTB  00005                    0400 SR        000000000000 DENSO TEN (THAILAND)18099UU0048048                                                                                                                              *          20180921 IMCT                IMCT                                                                                                                    WMF1809217.TXT
MDEDJ9310055201809                D89828070200PV4D20180926000030SPEAKER ASM                   M IMCTM S0FR05 TNTH  09020IMCT  S0 PTB  00005                    1300 SR        000000000000 DENSO TEN (THAILAND)18098UU0049049                                                                                                                              *          20180921 IMCT                IMCT                                                                                                                    WMF1809217.TXT
MDEDJ9310056201809                D89828070200PV4D20180926000030SPEAKER ASM                   M IMCTM S0FR05 TNTH  09020IMCT  S0 PTB  00005                    1600 SR        000000000000 DENSO TEN (THAILAND)18082UU0027027                                                                                                                              *          20180921 IMCT                IMCT                                                                                                                    WMF1809217.TXT
MDEDJ9310057201809                D89828070300PT1D20180925000030SPEAKER ASM                   M IMCTM S5NB082TNTH  09020IMCT  S5 PTB  00015                    2230 SR        000000000000 DENSO TEN (THAILAND)17034QL0006006                                                                                                                              *          20180921 IMCT                IMCT                                                                                                                    WMF1809217.TXT
MDEDJ9310058201809                D89828070300PT1D20180926000090SPEAKER ASM                   M IMCTM S5NB082TNTH  09020IMCT  S5 PTB  00015                    0230 SR        000000000000 DENSO TEN (THAILAND)18001YL002102218063UL0033033                                                                                                                *          20180921 IMCT                IMCT                                                                                                                    WMF1809217.TXT
MDEDJ9310059201809                D89828070300PT1D20180926000060SPEAKER ASM                   M IMCTM S5NB082TNTH  09020IMCT  S5 PTB  00015                    0400 SR        000000000000 DENSO TEN (THAILAND)18011XL000200218063UL0034034                                                                                                                *          20180921 IMCT                IMCT                                                                                                                    WMF1809217.TXT
MDEDJ9310060201809                D89828070300PT1D20180926000030SPEAKER ASM                   M IMCTM S5NB082TNTH  09020IMCT  S5 PTB  00015                    0830 SR        000000000000 DENSO TEN (THAILAND)18098UL0069069                                                                                                                              *          20180921 IMCT                IMCT                                                                                                                    WMF1809217.TXT
MDEDJ9310061201809                D89828070300PT1D20180926000030SPEAKER ASM                   M IMCTM S5NB082TNTH  09020IMCT  S5 PTB  00015                    1030 SR        000000000000 DENSO TEN (THAILAND)18098UL0070070                                                                                                                              *          20180921 IMCT                IMCT                                                                                                                    WMF1809217.TXT
MDEDJ9310062201809                D89828070300PT1D20180926000060SPEAKER ASM                   M IMCTM S5NB082TNTH  09020IMCT  S5 PTB  00015                    1600 SR        000000000000 DENSO TEN (THAILAND)18007YL002402418041XL0002002                                                                                                                *          20180921 IMCT                IMCT                                                                                                                    WMF1809217.TXT
MDEDJ9310063201809                D89828070300PT1D20180926000060SPEAKER ASM                   M IMCTM S5NB082TNTH  09020IMCT  S5 PTB  00015                    2100 SR        000000000000 DENSO TEN (THAILAND)18008YL002702718018XL0010010                                                                                                                *          20180921 IMCT                IMCT                                                                                                                    WMF1809217.TXT
MDEDJ9310064201809                D89828070300PT4D20180925000030SPEAKER ASM                   M IMCTM S9TS02 TNTH  09020IMCT  S9 PTB  00015                    2230 SR        000000000000 DENSO TEN (THAILAND)18082UU0026026                                                                                                                              *          20180921 IMCT                IMCT                                                                                                                    WMF1809217.TXT
MDEDJ9310065201809                D89828070300PT4D20180926000030SPEAKER ASM                   M IMCTM S9TS02 TNTH  09020IMCT  S9 PTB  00015                    0400 SR        000000000000 DENSO TEN (THAILAND)18099UU0048048                                                                                                                              *          20180921 IMCT                IMCT                                                                                                                    WMF1809217.TXT
MDEDJ9310066201809                D89828070300PT4D20180926000030SPEAKER ASM                   M IMCTM S9TS02 TNTH  09020IMCT  S9 PTB  00015                    1300 SR        000000000000 DENSO TEN (THAILAND)18098UU0049049                                                                                                                              *          20180921 IMCT                IMCT                                                                                                                    WMF1809217.TXT
MDEDJ9310067201809                D89828070300PT4D20180926000030SPEAKER ASM                   M IMCTM S9TS02 TNTH  09020IMCT  S9 PTB  00015                    1600 SR        000000000000 DENSO TEN (THAILAND)18082UU0027027                                                                                                                              *          20180921 IMCT                IMCT                                                                                                                    WMF1809217.TXT
MDEDJ9310068201809                D89831229200PT1D20180925000015RADIO;AM/FM,CD                M IMCTM S5NC06 TNTH  09020IMCT  S5 PTB  00003                    2230 SR        000000000000 DENSO TEN (THAILAND)17034QL0006006                                                                                                                              *          20180921 IMCT                IMCT                                                                                                                    WMF1809217.TXT
MDEDJ9310069201809                D89848581800PT1D20180926000015RADIO;AM/FM CD D              M IMCTM S5NC06 TNTH  09020IMCT  S5 PTB  00003                    0230 SR        000000000000 DENSO TEN (THAILAND)18063UL0033033                                                                                                                              *          20180921 IMCT                IMCT                                                                                                                    WMF1809217.TXT
MDEDJ9310070201809                D89848581800PT1D20180926000015RADIO;AM/FM CD D              M IMCTM S5NC06 TNTH  09020IMCT  S5 PTB  00003                    0400 SR        000000000000 DENSO TEN (THAILAND)18063UL0034034                                                                                                                              *          20180921 IMCT                IMCT                                                                                                                    WMF1809217.TXT
MDEDJ9310071201809                D89848581800PT1D20180926000015RADIO;AM/FM CD D              M IMCTM S5NC06 TNTH  09020IMCT  S5 PTB  00003                    0830 SR        000000000000 DENSO TEN (THAILAND)18098UL0069069                                                                                                                              *          20180921 IMCT                IMCT                                                                                                                    WMF1809217.TXT
MDEDJ9310072201809                D89848581800PT1D20180926000015RADIO;AM/FM CD D              M IMCTM S5NC06 TNTH  09020IMCT  S5 PTB  00003                    1030 SR        000000000000 DENSO TEN (THAILAND)18098UL0070070                                                                                                                              *          20180921 IMCT                IMCT                                                                                                                    WMF1809217.TXT
MDEDJ9310073201809                D89848581800PT4D20180925000015RADIO;AM/FM CD D              M IMCTM S9CO001TNTH  09020IMCT  S9 PTB  00003                    2230 SR        000000000000 DENSO TEN (THAILAND)18082UU0026026                                                                                                                              *          20180921 IMCT                IMCT                                                                                                                    WMF1809217.TXT
MDEDJ9310074201809                D89848581800PT4D20180926000015RADIO;AM/FM CD D              M IMCTM S9CO001TNTH  09020IMCT  S9 PTB  00003                    1300 SR        000000000000 DENSO TEN (THAILAND)18098UU0049049                                                                                                                              *          20180921 IMCT                IMCT                                                                                                                    WMF1809217.TXT
MDEDJ9310075201809                D89848581800PT4D20180926000015RADIO;AM/FM CD D              M IMCTM S9CO001TNTH  09020IMCT  S9 PTB  00003                    1600 SR        000000000000 DENSO TEN (THAILAND)18082UU0027027                                                                                                                              *          20180921 IMCT                IMCT                                                                                                                    WMF1809217.TXT
MDEUJ9249314201809                D89828070100PT4U20180926000030SPEAKER ASM                   M IMCTM S0FL05 TNTH  09020IMCT  S0 PTB  00004                    0230 SR        000000000000 DENSO TEN (THAILAND)18016UU0045045                                                                                                                              *          20180921 IMCT                IMCT                                                                                                                    WMF1809217.TXT
MDEUJ9249315201809                D89828070100PT4U20180926000030SPEAKER ASM                   M IMCTM S0FL05 TNTH  09020IMCT  S0 PTB  00004                    0830 SR        000000000000 DENSO TEN (THAILAND)18020UU0124124                                                                                                                              *          20180921 IMCT                IMCT                                                                                                                    WMF1809217.TXT
MDEUJ9249316201809                D89828070100PT4U20180926000030SPEAKER ASM                   M IMCTM S0FL05 TNTH  09020IMCT  S0 PTB  00004                    1030 SR        000000000000 DENSO TEN (THAILAND)18021UU0190190                                                                                                                              *          20180921 IMCT                IMCT                                                                                                                    WMF1809217.TXT
MDEUJ9249317201809                D89828070100PT4U20180926000060SPEAKER ASM                   M IMCTM S0FL05 TNTH  09020IMCT  S0 PTB  00004                    1600 SR        000000000000 DENSO TEN (THAILAND)180D06U001601618016UU0046046                                                                                                                *          20180921 IMCT                IMCT                                                                                                                    WMF1809217.TXT
MDEUJ9249318201809                D89828070100PT4U20180926000030SPEAKER ASM                   M IMCTM S0FL05 TNTH  09020IMCT  S0 PTB  00004                    2230 SR        000000000000 DENSO TEN (THAILAND)18016UU0047047                                                                                                                              *          20180921 IMCT                IMCT                                                                                                                    WMF1809217.TXT
MDEUJ9249319201809                D89828070200PV4U20180926000030SPEAKER ASM                   M IMCTM S0FR05 TNTH  09020IMCT  S0 PTB  00005                    0230 SR        000000000000 DENSO TEN (THAILAND)18016UU0045045                                                                                                                              *          20180921 IMCT                IMCT                                                                                                                    WMF1809217.TXT
MDEUJ9249320201809                D89828070200PV4U20180926000030SPEAKER ASM                   M IMCTM S0FR05 TNTH  09020IMCT  S0 PTB  00005                    0830 SR        000000000000 DENSO TEN (THAILAND)18020UU0124124                                                                                                                              *          20180921 IMCT                IMCT                                                                                                                    WMF1809217.TXT
MDEUJ9249321201809                D89828070200PV4U20180926000030SPEAKER ASM                   M IMCTM S0FR05 TNTH  09020IMCT  S0 PTB  00005                    1030 SR        000000000000 DENSO TEN (THAILAND)18021UU0190190                                                                                                                              *          20180921 IMCT                IMCT                                                                                                                    WMF1809217.TXT
MDEUJ9249322201809                D89828070200PV4U20180926000060SPEAKER ASM                   M IMCTM S0FR05 TNTH  09020IMCT  S0 PTB  00005                    1600 SR        000000000000 DENSO TEN (THAILAND)180D06U001601618016UU0046046                                                                                                                *          20180921 IMCT                IMCT                                                                                                                    WMF1809217.TXT
MDEUJ9249323201809                D89828070200PV4U20180926000030SPEAKER ASM                   M IMCTM S0FR05 TNTH  09020IMCT  S0 PTB  00005                    2230 SR        000000000000 DENSO TEN (THAILAND)18016UU0047047                                                                                                                              *          20180921 IMCT                IMCT                                                                                                                    WMF1809217.TXT
MDEUJ9249324201809                D89828070300PT4U20180926000030SPEAKER ASM                   M IMCTM S9TS02 TNTH  09020IMCT  S9 PTB  00015                    0230 SR        000000000000 DENSO TEN (THAILAND)18016UU0045045                                                                                                                              *          20180921 IMCT                IMCT                                                                                                                    WMF1809217.TXT
MDEUJ9249325201809                D89828070300PT4U20180926000030SPEAKER ASM                   M IMCTM S9TS02 TNTH  09020IMCT  S9 PTB  00015                    0830 SR        000000000000 DENSO TEN (THAILAND)18020UU0124124                                                                                                                              *          20180921 IMCT                IMCT                                                                                                                    WMF1809217.TXT
MDEUJ9249326201809                D89828070300PT4U20180926000030SPEAKER ASM                   M IMCTM S9TS02 TNTH  09020IMCT  S9 PTB  00015                    1030 SR        000000000000 DENSO TEN (THAILAND)18021UU0190190                                                                                                                              *          20180921 IMCT                IMCT                                                                                                                    WMF1809217.TXT
MDEUJ9249327201809                D89828070300PT4U20180926000060SPEAKER ASM                   M IMCTM S9TS02 TNTH  09020IMCT  S9 PTB  00015                    1600 SR        000000000000 DENSO TEN (THAILAND)180D06U001601618016UU0046046                                                                                                                *          20180921 IMCT                IMCT                                                                                                                    WMF1809217.TXT
MDEUJ9249328201809                D89828070300PT4U20180926000030SPEAKER ASM                   M IMCTM S9TS02 TNTH  09020IMCT  S9 PTB  00015                    2230 SR        000000000000 DENSO TEN (THAILAND)18016UU0047047                                                                                                                              *          20180921 IMCT                IMCT                                                                                                                    WMF1809217.TXT
