REC2018090320180903ISUZU                              9      
MDEBJ9T00549201809                D89828070100PT4B20180907000030SPEAKER ASM                   M IMCTM S7FL05 TNTH  09020IMCT  S7 PTB  00004                    1300 SR        000000000000 DENSO TEN (THAILAND)18033TR0051   18034TR0068   Z180901801    Z180901815    000000                                                                              *R         20180903 IMCT                IMCT                                                                                                                    RMF1809034.TXT
MDEBJ9T00550201809                D89828070200PV4B20180907000030SPEAKER ASM                   M IMCTM S7FL05 TNTH  09020IMCT  S7 PTB  00005                    1300 SR        000000000000 DENSO TEN (THAILAND)18033TR0051   18034TR0068   Z180901801    Z180901815    000000                                                                              *R         20180903 IMCT                IMCT                                                                                                                    RMF1809034.TXT
MDEBJ9T00551201809                D89828070300PT4B20180907000030SPEAKER ASM                   M IMCTM S7TS02 TNTH  09020IMCT  S7 PTB  00015                    1300 SR        000000000000 DENSO TEN (THAILAND)18033TR0051   18034TR0068   Z180901801    Z180901815    000000                                                                              *R         20180903 IMCT                IMCT                                                                                                                    RMF1809034.TXT
MDEBJ9T00552201809                D89831229200PT4B20180907000008RADIO;AM/FM,CD                M IMCTM S7TS03 TNTH  09020IMCT  S7 PTB  00003                    1300 SR        000000000000 DENSO TEN (THAILAND)18034TR0064   18034TR0068   Z180901806    Z180901815    000000                                                                              *R         20180903 IMCT                IMCT                                                                                                                    RMF1809034.TXT
MDEFJ9T00729201809                D89828070100PV4F20180907000028SPEAKER ASM                   M IMCTM S7FL05 TNTH  09020IMCT  S7 PTB  00004                    0830 SR        000000000000 DENSO TEN (THAILAND)18084WR0006   18088WR0042   S180901702    S180901715    000000                                                                              *R         20180903 IMCT                IMCT                                                                                                                    RMF1809034.TXT
MDEFJ9T00730201809                D89828070200PV4F20180906000022SPEAKER ASM                   M IMCTM S7FL05 TNTH  09020IMCT  S7 PTB  00005                    2230 SR        000000000000 DENSO TEN (THAILAND)17048QR0077   18033XR0030   D180901605    D180901615    000000                                                                              *R         20180903 IMCT                IMCT                                                                                                                    RMF1809034.TXT
MDEFJ9T00731201809                D89828070300PT4F20180906000022SPEAKER ASM                   M IMCTM S7TS02 TNTH  09020IMCT  S7 PTB  00015                    2230 SR        000000000000 DENSO TEN (THAILAND)17048QR0077   18033XR0030   D180901605    D180901615    000000                                                                              *R         20180903 IMCT                IMCT                                                                                                                    RMF1809034.TXT
MDEFJ9T00732201809                D89848582100PT4F20180906000003RADIO;AM/FM CD D              M IMCTM S7TS01 TNTH  09020IMCT  S7 PTB  00003                    2230 SR        000000000000 DENSO TEN (THAILAND)18033XR0028   18033XR0030   D180901613    D180901615    000000                                                                              *R         20180903 IMCT                IMCT                                                                                                                    RMF1809034.TXT
MDEFJ9200298201809                D89828070100PV4F20180906000032SPEAKER ASM                   M IMCTM S7FL05 TNTH  09020IMCT  S7 PTB  00004                    2230 SR        000000000000 DENSO TEN (THAILAND)17033RR0143   18084WR0005   D180901601    S180901701    000000                                                                              *R         20180903 IMCT                IMCT                                                                                                                    RMF1809034.TXT
