REC2018091720180917ISUZU                              10     
MDEFJ9T12994201809                D89828070100PV4F20180921000012SPEAKER ASM                   M IMCTM S7FL05 TNTH  09020IMCT  S7 PTB  00004                    1030 SR        000000000000 DENSO TEN (THAILAND)18082XR0028   18082XR0033   D180904410    D180904415    000000                                                                              *R         20180917 IMCT                IMCT                                                                                                                    RMF1809174.TXT
MDEFJ9T12995201809                D89828070200PV4F20180921000015SPEAKER ASM                   M IMCTM S7FL05 TNTH  09020IMCT  S7 PTB  00005                    0830 SR        000000000000 DENSO TEN (THAILAND)17072QR0135   18068XR0024   D180904402    D180904409    000000                                                                              *R         20180917 IMCT                IMCT                                                                                                                    RMF1809174.TXT
MDEFJ9T12996201809                D89828070300PT4F20180921000015SPEAKER ASM                   M IMCTM S7TS02 TNTH  09020IMCT  S7 PTB  00015                    0830 SR        000000000000 DENSO TEN (THAILAND)17072QR0135   18068XR0024   D180904402    D180904409    000000                                                                              *R         20180917 IMCT                IMCT                                                                                                                    RMF1809174.TXT
MDEFJ9T12997201809                D89829645410PT4F20180921000006RADIO;ASM DVD                 M IMCTM S7TS03 TNTH  09020IMCT  S7 PTB  00003                    0830 SR        000000000000 DENSO TEN (THAILAND)17072QR0134   17072QR0139   D180904401    D180904406    000000                                                                              *R         20180917 IMCT                IMCT                                                                                                                    RMF1809174.TXT
MDEFJ9T12998201809                D89831229200PT4F20180920000006RADIO;AM/FM,CD                M IMCTM S7TS03 TNTH  09020IMCT  S7 PTB  00003                    2230 SR        000000000000 DENSO TEN (THAILAND)17030QR0048   17034QR0070   D180904310    D180904315    000000                                                                              *R         20180917 IMCT                IMCT                                                                                                                    RMF1809174.TXT
MDEFJ9234883201809                D89828070100PV4F20180920000004SPEAKER ASM                   M IMCTM S7FL05 TNTH  09020IMCT  S7 PTB  00004                    2100 SR        000000000000 DENSO TEN (THAILAND)17024QR0076   17024QR0077   D180904301    D180904302    000000                                                                              *R         20180917 IMCT                IMCT                                                                                                                    RMF1809174.TXT
MDEFJ9234884201809                D89828070100PV4F20180920000028SPEAKER ASM                   M IMCTM S7FL05 TNTH  09020IMCT  S7 PTB  00004                    2230 SR        000000000000 DENSO TEN (THAILAND)17024QR0078   17072QR0134   D180904303    D180904401    000000                                                                              *R         20180917 IMCT                IMCT                                                                                                                    RMF1809174.TXT
MDEFJ9234885201809                D89828070100PV4F20180921000016SPEAKER ASM                   M IMCTM S7FL05 TNTH  09020IMCT  S7 PTB  00004                    0830 SR        000000000000 DENSO TEN (THAILAND)17072QR0135   18068XR0024   D180904402    D180904409    000000                                                                              *R         20180917 IMCT                IMCT                                                                                                                    RMF1809174.TXT
MDEFJ9234886201809                D89828070200PV4F20180920000015SPEAKER ASM                   M IMCTM S7FL05 TNTH  09020IMCT  S7 PTB  00005                    2230 SR        000000000000 DENSO TEN (THAILAND)17030QR0048   17072QR0135   D180904310    D180904402    000000                                                                              *R         20180917 IMCT                IMCT                                                                                                                    RMF1809174.TXT
MDEFJ9234887201809                D89828070300PT4F20180920000015SPEAKER ASM                   M IMCTM S7TS02 TNTH  09020IMCT  S7 PTB  00015                    2230 SR        000000000000 DENSO TEN (THAILAND)17030QR0048   17072QR0135   D180904310    D180904402    000000                                                                              *R         20180917 IMCT                IMCT                                                                                                                    RMF1809174.TXT
