REC2018091720180917ISUZU                              69     
MDDDJ9251528201809                D89821984430PT1D20180920000030RADIO;AM/FM,CD                M IMCTM S5NC06 TNTH  09020IMCT  S5 PTB  00005                    2230 SR        000000000000 DENSO TEN (THAILAND)180LRBL0059059                                                                                                                              *          20180917 IMCT                IMCT                                                                                                                    WMF1809174.TXT
MDDDJ9251529201809                D89821984430PT1D20180921000030RADIO;AM/FM,CD                M IMCTM S5NC06 TNTH  09020IMCT  S5 PTB  00005                    0400 SR        000000000000 DENSO TEN (THAILAND)180LRAL0253253                                                                                                                              *          20180917 IMCT                IMCT                                                                                                                    WMF1809174.TXT
MDDDJ9251530201809                D89821984430PT1D20180921000030RADIO;AM/FM,CD                M IMCTM S5NC06 TNTH  09020IMCT  S5 PTB  00005                    0830 SR        000000000000 DENSO TEN (THAILAND)180LPAL0226226                                                                                                                              *          20180917 IMCT                IMCT                                                                                                                    WMF1809174.TXT
MDDDJ9251531201809                D89821984430PT1D20180921000030RADIO;AM/FM,CD                M IMCTM S5NC06 TNTH  09020IMCT  S5 PTB  00005                    1300 SR        000000000000 DENSO TEN (THAILAND)180LNGL0204204                                                                                                                              *          20180917 IMCT                IMCT                                                                                                                    WMF1809174.TXT
MDDDJ9251532201809                D89828070100PV1D20180920000060SPEAKER ASM                   M IMCTM S5MB11 TNTH  09020IMCT  S5 PTB  00004                    2230 SR        000000000000 DENSO TEN (THAILAND)180LRBL0059059                                                                                                                              *          20180917 IMCT                IMCT                                                                                                                    WMF1809174.TXT
MDDDJ9251533201809                D89828070100PV1D20180921000060SPEAKER ASM                   M IMCTM S5MB11 TNTH  09020IMCT  S5 PTB  00004                    0400 SR        000000000000 DENSO TEN (THAILAND)180LRAL0253253                                                                                                                              *          20180917 IMCT                IMCT                                                                                                                    WMF1809174.TXT
MDDDJ9251534201809                D89828070100PV1D20180921000060SPEAKER ASM                   M IMCTM S5MB11 TNTH  09020IMCT  S5 PTB  00004                    0830 SR        000000000000 DENSO TEN (THAILAND)180LPAL0226226                                                                                                                              *          20180917 IMCT                IMCT                                                                                                                    WMF1809174.TXT
MDDDJ9251535201809                D89828070100PV1D20180921000120SPEAKER ASM                   M IMCTM S5MB11 TNTH  09020IMCT  S5 PTB  00004                    1300 SR        000000000000 DENSO TEN (THAILAND)180LNGL0204204180LPCL0090090                                                                                                                *          20180917 IMCT                IMCT                                                                                                                    WMF1809174.TXT
MDDDJ9251536201809                D89828070100PV1D20180921000060SPEAKER ASM                   M IMCTM S5MB11 TNTH  09020IMCT  S5 PTB  00004                    2100 SR        000000000000 DENSO TEN (THAILAND)180LPFL0087087                                                                                                                              *          20180917 IMCT                IMCT                                                                                                                    WMF1809174.TXT
MDDDJ9251537201809                D89828070100PV1D20180921000060SPEAKER ASM                   M IMCTM S5MB11 TNTH  09020IMCT  S5 PTB  00004                    2230 SR        000000000000 DENSO TEN (THAILAND)180LXBL0021021                                                                                                                              *          20180917 IMCT                IMCT                                                                                                                    WMF1809174.TXT
MDDDJ9251538201809                D89828070300PT1D20180921000060SPEAKER ASM                   M IMCTM S5NB082TNTH  09020IMCT  S5 PTB  00015                    1300 SR        000000000000 DENSO TEN (THAILAND)180LPCL0090090                                                                                                                              *          20180917 IMCT                IMCT                                                                                                                    WMF1809174.TXT
MDDDJ9251539201809                D89828070300PT1D20180921000060SPEAKER ASM                   M IMCTM S5NB082TNTH  09020IMCT  S5 PTB  00015                    2100 SR        000000000000 DENSO TEN (THAILAND)180LPFL0087087                                                                                                                              *          20180917 IMCT                IMCT                                                                                                                    WMF1809174.TXT
MDDDJ9251540201809                D89831228300PT1D20180921000030RADIO;AM/FM,CD                M IMCTM S5NC06 TNTH  09020IMCT  S5 CPB  00003                    1300 SR        000000000000 DENSO TEN (THAILAND)180LPCL0090090                                                                                                                              *          20180917 IMCT                IMCT                                                                                                                    WMF1809174.TXT
MDDDJ9251541201809                D89831228300PT1D20180921000030RADIO;AM/FM,CD                M IMCTM S5NC06 TNTH  09020IMCT  S5 CPB  00003                    2100 SR        000000000000 DENSO TEN (THAILAND)180LPFL0087087                                                                                                                              *          20180917 IMCT                IMCT                                                                                                                    WMF1809174.TXT
MDDUJ9225399201809                D89828070100PT4U20180921000030SPEAKER ASM                   M IMCTM S0FL05 TNTH  09020IMCT  S0 PTB  00004                    0400 SR        000000000000 DENSO TEN (THAILAND)180LULU0059059                                                                                                                              *          20180917 IMCT                IMCT                                                                                                                    WMF1809174.TXT
MDDUJ9225400201809                D89828070100PT4U20180921000030SPEAKER ASM                   M IMCTM S0FL05 TNTH  09020IMCT  S0 PTB  00004                    1600 SR        000000000000 DENSO TEN (THAILAND)180LULU0060060                                                                                                                              *          20180917 IMCT                IMCT                                                                                                                    WMF1809174.TXT
MDDUJ9225401201809                D89828070100PT4U20180921000030SPEAKER ASM                   M IMCTM S0FL05 TNTH  09020IMCT  S0 PTB  00004                    2230 SR        000000000000 DENSO TEN (THAILAND)180LUSU0173173                                                                                                                              *          20180917 IMCT                IMCT                                                                                                                    WMF1809174.TXT
MDDUJ9225402201809                D89828070200PV4U20180921000030SPEAKER ASM                   M IMCTM S0FR05 TNTH  09020IMCT  S0 PTB  00005                    0400 SR        000000000000 DENSO TEN (THAILAND)180LULU0059059                                                                                                                              *          20180917 IMCT                IMCT                                                                                                                    WMF1809174.TXT
MDDUJ9225403201809                D89828070200PV4U20180921000030SPEAKER ASM                   M IMCTM S0FR05 TNTH  09020IMCT  S0 PTB  00005                    1600 SR        000000000000 DENSO TEN (THAILAND)180LULU0060060                                                                                                                              *          20180917 IMCT                IMCT                                                                                                                    WMF1809174.TXT
MDDUJ9225404201809                D89828070200PV4U20180921000030SPEAKER ASM                   M IMCTM S0FR05 TNTH  09020IMCT  S0 PTB  00005                    2230 SR        000000000000 DENSO TEN (THAILAND)180LUSU0173173                                                                                                                              *          20180917 IMCT                IMCT                                                                                                                    WMF1809174.TXT
MDDUJ9225405201809                D89828070300PT4U20180921000030SPEAKER ASM                   M IMCTM S9TS02 TNTH  09020IMCT  S9 PTB  00015                    0400 SR        000000000000 DENSO TEN (THAILAND)180LULU0059059                                                                                                                              *          20180917 IMCT                IMCT                                                                                                                    WMF1809174.TXT
MDDUJ9225406201809                D89828070300PT4U20180921000030SPEAKER ASM                   M IMCTM S9TS02 TNTH  09020IMCT  S9 PTB  00015                    1600 SR        000000000000 DENSO TEN (THAILAND)180LULU0060060                                                                                                                              *          20180917 IMCT                IMCT                                                                                                                    WMF1809174.TXT
MDDUJ9225407201809                D89828070300PT4U20180921000030SPEAKER ASM                   M IMCTM S9TS02 TNTH  09020IMCT  S9 PTB  00015                    2230 SR        000000000000 DENSO TEN (THAILAND)180LUSU0173173                                                                                                                              *          20180917 IMCT                IMCT                                                                                                                    WMF1809174.TXT
MDEDJ9276952201809                D89828070100PV1D20180920000030SPEAKER ASM                   M IMCTM S5MB11 TNTH  09020IMCT  S5 PTB  00004                    2230 SR        000000000000 DENSO TEN (THAILAND)18074XL0007007                                                                                                                              *          20180917 IMCT                IMCT                                                                                                                    WMF1809174.TXT
MDEDJ9276953201809                D89828070100PV1D20180921000090SPEAKER ASM                   M IMCTM S5MB11 TNTH  09020IMCT  S5 PTB  00004                    0230 SR        000000000000 DENSO TEN (THAILAND)18063UL003103118074XL0008009                                                                                                                *          20180917 IMCT                IMCT                                                                                                                    WMF1809174.TXT
MDEDJ9276954201809                D89828070100PV1D20180921000030SPEAKER ASM                   M IMCTM S5MB11 TNTH  09020IMCT  S5 PTB  00004                    0400 SR        000000000000 DENSO TEN (THAILAND)18098UL0064064                                                                                                                              *          20180917 IMCT                IMCT                                                                                                                    WMF1809174.TXT
MDEDJ9276955201809                D89828070100PV1D20180921000030SPEAKER ASM                   M IMCTM S5MB11 TNTH  09020IMCT  S5 PTB  00004                    0830 SR        000000000000 DENSO TEN (THAILAND)18098UL0065065                                                                                                                              *          20180917 IMCT                IMCT                                                                                                                    WMF1809174.TXT
MDEDJ9276956201809                D89828070100PV1D20180921000030SPEAKER ASM                   M IMCTM S5MB11 TNTH  09020IMCT  S5 PTB  00004                    1030 SR        000000000000 DENSO TEN (THAILAND)18074XL0010010                                                                                                                              *          20180917 IMCT                IMCT                                                                                                                    WMF1809174.TXT
MDEDJ9276957201809                D89828070100PV1D20180921000030SPEAKER ASM                   M IMCTM S5MB11 TNTH  09020IMCT  S5 PTB  00004                    1300 SR        000000000000 DENSO TEN (THAILAND)18074XL0011011                                                                                                                              *          20180917 IMCT                IMCT                                                                                                                    WMF1809174.TXT
MDEDJ9276958201809                D89828070100PV1D20180921000060SPEAKER ASM                   M IMCTM S5MB11 TNTH  09020IMCT  S5 PTB  00004                    1600 SR        000000000000 DENSO TEN (THAILAND)18001VL0052053                                                                                                                              *          20180917 IMCT                IMCT                                                                                                                    WMF1809174.TXT
MDEDJ9276959201809                D89828070100PV4D20180920000030SPEAKER ASM                   M IMCTM S0FL05 TNTH  09020IMCT  S0 PTB  00004                    2230 SR        000000000000 DENSO TEN (THAILAND)18001VU0012012                                                                                                                              *          20180917 IMCT                IMCT                                                                                                                    WMF1809174.TXT
MDEDJ9276960201809                D89828070100PV4D20180921000030SPEAKER ASM                   M IMCTM S0FL05 TNTH  09020IMCT  S0 PTB  00004                    0400 SR        000000000000 DENSO TEN (THAILAND)18099UU0042042                                                                                                                              *          20180917 IMCT                IMCT                                                                                                                    WMF1809174.TXT
MDEDJ9276961201809                D89828070100PV4D20180921000030SPEAKER ASM                   M IMCTM S0FL05 TNTH  09020IMCT  S0 PTB  00004                    1030 SR        000000000000 DENSO TEN (THAILAND)18082UU0023023                                                                                                                              *          20180917 IMCT                IMCT                                                                                                                    WMF1809174.TXT
MDEDJ9276962201809                D89828070100PV4D20180921000030SPEAKER ASM                   M IMCTM S0FL05 TNTH  09020IMCT  S0 PTB  00004                    1300 SR        000000000000 DENSO TEN (THAILAND)18098UU0046046                                                                                                                              *          20180917 IMCT                IMCT                                                                                                                    WMF1809174.TXT
MDEDJ9276963201809                D89828070100PV4D20180921000030SPEAKER ASM                   M IMCTM S0FL05 TNTH  09020IMCT  S0 PTB  00004                    2100 SR        000000000000 DENSO TEN (THAILAND)18099UU0043043                                                                                                                              *          20180917 IMCT                IMCT                                                                                                                    WMF1809174.TXT
MDEDJ9276964201809                D89828070200PV1D20180921000030SPEAKER ASM                   M IMCTM S5MA14 TNTH  09020IMCT  S5 PTB  00005                    0400 SR        000000000000 DENSO TEN (THAILAND)18098UL0064064                                                                                                                              *          20180917 IMCT                IMCT                                                                                                                    WMF1809174.TXT
MDEDJ9276965201809                D89828070200PV1D20180921000030SPEAKER ASM                   M IMCTM S5MA14 TNTH  09020IMCT  S5 PTB  00005                    0830 SR        000000000000 DENSO TEN (THAILAND)18098UL0065065                                                                                                                              *          20180917 IMCT                IMCT                                                                                                                    WMF1809174.TXT
MDEDJ9276966201809                D89828070200PV1D20180921000060SPEAKER ASM                   M IMCTM S5MA14 TNTH  09020IMCT  S5 PTB  00005                    1600 SR        000000000000 DENSO TEN (THAILAND)18001VL0052053                                                                                                                              *          20180917 IMCT                IMCT                                                                                                                    WMF1809174.TXT
MDEDJ9276967201809                D89828070200PV4D20180920000030SPEAKER ASM                   M IMCTM S0FR05 TNTH  09020IMCT  S0 PTB  00005                    2230 SR        000000000000 DENSO TEN (THAILAND)18001VU0012012                                                                                                                              *          20180917 IMCT                IMCT                                                                                                                    WMF1809174.TXT
MDEDJ9276968201809                D89828070200PV4D20180921000030SPEAKER ASM                   M IMCTM S0FR05 TNTH  09020IMCT  S0 PTB  00005                    0400 SR        000000000000 DENSO TEN (THAILAND)18099UU0042042                                                                                                                              *          20180917 IMCT                IMCT                                                                                                                    WMF1809174.TXT
MDEDJ9276969201809                D89828070200PV4D20180921000030SPEAKER ASM                   M IMCTM S0FR05 TNTH  09020IMCT  S0 PTB  00005                    1030 SR        000000000000 DENSO TEN (THAILAND)18082UU0023023                                                                                                                              *          20180917 IMCT                IMCT                                                                                                                    WMF1809174.TXT
MDEDJ9276970201809                D89828070200PV4D20180921000030SPEAKER ASM                   M IMCTM S0FR05 TNTH  09020IMCT  S0 PTB  00005                    1300 SR        000000000000 DENSO TEN (THAILAND)18098UU0046046                                                                                                                              *          20180917 IMCT                IMCT                                                                                                                    WMF1809174.TXT
MDEDJ9276971201809                D89828070200PV4D20180921000030SPEAKER ASM                   M IMCTM S0FR05 TNTH  09020IMCT  S0 PTB  00005                    2100 SR        000000000000 DENSO TEN (THAILAND)18099UU0043043                                                                                                                              *          20180917 IMCT                IMCT                                                                                                                    WMF1809174.TXT
MDEDJ9276972201809                D89828070300PT1D20180921000030SPEAKER ASM                   M IMCTM S5NB082TNTH  09020IMCT  S5 PTB  00015                    0230 SR        000000000000 DENSO TEN (THAILAND)18063UL0031031                                                                                                                              *          20180917 IMCT                IMCT                                                                                                                    WMF1809174.TXT
MDEDJ9276973201809                D89828070300PT1D20180921000030SPEAKER ASM                   M IMCTM S5NB082TNTH  09020IMCT  S5 PTB  00015                    0400 SR        000000000000 DENSO TEN (THAILAND)18098UL0064064                                                                                                                              *          20180917 IMCT                IMCT                                                                                                                    WMF1809174.TXT
MDEDJ9276974201809                D89828070300PT1D20180921000030SPEAKER ASM                   M IMCTM S5NB082TNTH  09020IMCT  S5 PTB  00015                    0830 SR        000000000000 DENSO TEN (THAILAND)18098UL0065065                                                                                                                              *          20180917 IMCT                IMCT                                                                                                                    WMF1809174.TXT
MDEDJ9276975201809                D89828070300PT1D20180921000060SPEAKER ASM                   M IMCTM S5NB082TNTH  09020IMCT  S5 PTB  00015                    1600 SR        000000000000 DENSO TEN (THAILAND)18001VL0052053                                                                                                                              *          20180917 IMCT                IMCT                                                                                                                    WMF1809174.TXT
MDEDJ9276976201809                D89828070300PT4D20180920000030SPEAKER ASM                   M IMCTM S9TS02 TNTH  09020IMCT  S9 PTB  00015                    2230 SR        000000000000 DENSO TEN (THAILAND)18001VU0012012                                                                                                                              *          20180917 IMCT                IMCT                                                                                                                    WMF1809174.TXT
MDEDJ9276977201809                D89828070300PT4D20180921000030SPEAKER ASM                   M IMCTM S9TS02 TNTH  09020IMCT  S9 PTB  00015                    0400 SR        000000000000 DENSO TEN (THAILAND)18099UU0042042                                                                                                                              *          20180917 IMCT                IMCT                                                                                                                    WMF1809174.TXT
MDEDJ9276978201809                D89828070300PT4D20180921000030SPEAKER ASM                   M IMCTM S9TS02 TNTH  09020IMCT  S9 PTB  00015                    1030 SR        000000000000 DENSO TEN (THAILAND)18082UU0023023                                                                                                                              *          20180917 IMCT                IMCT                                                                                                                    WMF1809174.TXT
MDEDJ9276979201809                D89828070300PT4D20180921000030SPEAKER ASM                   M IMCTM S9TS02 TNTH  09020IMCT  S9 PTB  00015                    1300 SR        000000000000 DENSO TEN (THAILAND)18098UU0046046                                                                                                                              *          20180917 IMCT                IMCT                                                                                                                    WMF1809174.TXT
MDEDJ9276980201809                D89828070300PT4D20180921000030SPEAKER ASM                   M IMCTM S9TS02 TNTH  09020IMCT  S9 PTB  00015                    2100 SR        000000000000 DENSO TEN (THAILAND)18099UU0043043                                                                                                                              *          20180917 IMCT                IMCT                                                                                                                    WMF1809174.TXT
MDEDJ9276981201809                D89848581800PT1D20180921000015RADIO;AM/FM CD D              M IMCTM S5NC06 TNTH  09020IMCT  S5 PTB  00003                    0230 SR        000000000000 DENSO TEN (THAILAND)18063UL0031031                                                                                                                              *          20180917 IMCT                IMCT                                                                                                                    WMF1809174.TXT
MDEDJ9276982201809                D89848581800PT1D20180921000015RADIO;AM/FM CD D              M IMCTM S5NC06 TNTH  09020IMCT  S5 PTB  00003                    0400 SR        000000000000 DENSO TEN (THAILAND)18098UL0064064                                                                                                                              *          20180917 IMCT                IMCT                                                                                                                    WMF1809174.TXT
MDEDJ9276983201809                D89848581800PT1D20180921000015RADIO;AM/FM CD D              M IMCTM S5NC06 TNTH  09020IMCT  S5 PTB  00003                    0830 SR        000000000000 DENSO TEN (THAILAND)18098UL0065065                                                                                                                              *          20180917 IMCT                IMCT                                                                                                                    WMF1809174.TXT
MDEDJ9276984201809                D89848581800PT4D20180921000015RADIO;AM/FM CD D              M IMCTM S9CO001TNTH  09020IMCT  S9 PTB  00003                    1030 SR        000000000000 DENSO TEN (THAILAND)18082UU0023023                                                                                                                              *          20180917 IMCT                IMCT                                                                                                                    WMF1809174.TXT
MDEDJ9276985201809                D89848581800PT4D20180921000015RADIO;AM/FM CD D              M IMCTM S9CO001TNTH  09020IMCT  S9 PTB  00003                    1300 SR        000000000000 DENSO TEN (THAILAND)18098UU0046046                                                                                                                              *          20180917 IMCT                IMCT                                                                                                                    WMF1809174.TXT
MDEUJ9235320201809                D89828070100PT4U20180921000030SPEAKER ASM                   M IMCTM S0FL05 TNTH  09020IMCT  S0 PTB  00004                    0230 SR        000000000000 DENSO TEN (THAILAND)180D06U0013013                                                                                                                              *          20180917 IMCT                IMCT                                                                                                                    WMF1809174.TXT
MDEUJ9235321201809                D89828070100PT4U20180921000030SPEAKER ASM                   M IMCTM S0FL05 TNTH  09020IMCT  S0 PTB  00004                    0830 SR        000000000000 DENSO TEN (THAILAND)18021UU0184184                                                                                                                              *          20180917 IMCT                IMCT                                                                                                                    WMF1809174.TXT
MDEUJ9235322201809                D89828070100PT4U20180921000030SPEAKER ASM                   M IMCTM S0FL05 TNTH  09020IMCT  S0 PTB  00004                    1300 SR        000000000000 DENSO TEN (THAILAND)18015UU0043043                                                                                                                              *          20180917 IMCT                IMCT                                                                                                                    WMF1809174.TXT
MDEUJ9235323201809                D89828070100PT4U20180921000030SPEAKER ASM                   M IMCTM S0FL05 TNTH  09020IMCT  S0 PTB  00004                    1600 SR        000000000000 DENSO TEN (THAILAND)18021UU0185185                                                                                                                              *          20180917 IMCT                IMCT                                                                                                                    WMF1809174.TXT
MDEUJ9235324201809                D89828070200PV4U20180921000030SPEAKER ASM                   M IMCTM S0FR05 TNTH  09020IMCT  S0 PTB  00005                    0230 SR        000000000000 DENSO TEN (THAILAND)180D06U0013013                                                                                                                              *          20180917 IMCT                IMCT                                                                                                                    WMF1809174.TXT
MDEUJ9235325201809                D89828070200PV4U20180921000030SPEAKER ASM                   M IMCTM S0FR05 TNTH  09020IMCT  S0 PTB  00005                    0830 SR        000000000000 DENSO TEN (THAILAND)18021UU0184184                                                                                                                              *          20180917 IMCT                IMCT                                                                                                                    WMF1809174.TXT
MDEUJ9235326201809                D89828070200PV4U20180921000030SPEAKER ASM                   M IMCTM S0FR05 TNTH  09020IMCT  S0 PTB  00005                    1300 SR        000000000000 DENSO TEN (THAILAND)18015UU0043043                                                                                                                              *          20180917 IMCT                IMCT                                                                                                                    WMF1809174.TXT
MDEUJ9235327201809                D89828070200PV4U20180921000030SPEAKER ASM                   M IMCTM S0FR05 TNTH  09020IMCT  S0 PTB  00005                    1600 SR        000000000000 DENSO TEN (THAILAND)18021UU0185185                                                                                                                              *          20180917 IMCT                IMCT                                                                                                                    WMF1809174.TXT
MDEUJ9235328201809                D89828070300PT4U20180921000030SPEAKER ASM                   M IMCTM S9TS02 TNTH  09020IMCT  S9 PTB  00015                    0230 SR        000000000000 DENSO TEN (THAILAND)180D06U0013013                                                                                                                              *          20180917 IMCT                IMCT                                                                                                                    WMF1809174.TXT
MDEUJ9235329201809                D89828070300PT4U20180921000030SPEAKER ASM                   M IMCTM S9TS02 TNTH  09020IMCT  S9 PTB  00015                    0830 SR        000000000000 DENSO TEN (THAILAND)18021UU0184184                                                                                                                              *          20180917 IMCT                IMCT                                                                                                                    WMF1809174.TXT
MDEUJ9235330201809                D89828070300PT4U20180921000030SPEAKER ASM                   M IMCTM S9TS02 TNTH  09020IMCT  S9 PTB  00015                    1300 SR        000000000000 DENSO TEN (THAILAND)18015UU0043043                                                                                                                              *          20180917 IMCT                IMCT                                                                                                                    WMF1809174.TXT
MDEUJ9235331201809                D89828070300PT4U20180921000030SPEAKER ASM                   M IMCTM S9TS02 TNTH  09020IMCT  S9 PTB  00015                    1600 SR        000000000000 DENSO TEN (THAILAND)18021UU0185185                                                                                                                              *          20180917 IMCT                IMCT                                                                                                                    WMF1809174.TXT
