REC2018090320180903ISUZU                              63     
MDDDJ9203717201809                D89821984430PT1D20180907000030RADIO;AM/FM,CD                M IMCTM S5NC06 TNTH  09020IMCT  S5 PTB  00005                    0830 SR        000000000000 DENSO TEN (THAILAND)180LNGL0197197                                                                                                                              *          20180903 IMCT                IMCT                                                                                                                    WMF1809034.TXT
MDDDJ9203718201809                D89821984430PT1D20180907000030RADIO;AM/FM,CD                M IMCTM S5NC06 TNTH  09020IMCT  S5 PTB  00005                    1300 SR        000000000000 DENSO TEN (THAILAND)180LRAL0248248                                                                                                                              *          20180903 IMCT                IMCT                                                                                                                    WMF1809034.TXT
MDDDJ9203719201809                D89828070100PV1D20180907000060SPEAKER ASM                   M IMCTM S5MB11 TNTH  09020IMCT  S5 PTB  00004                    0400 SR        000000000000 DENSO TEN (THAILAND)180LPFL0085085                                                                                                                              *          20180903 IMCT                IMCT                                                                                                                    WMF1809034.TXT
MDDDJ9203720201809                D89828070100PV1D20180907000060SPEAKER ASM                   M IMCTM S5MB11 TNTH  09020IMCT  S5 PTB  00004                    0830 SR        000000000000 DENSO TEN (THAILAND)180LNGL0197197                                                                                                                              *          20180903 IMCT                IMCT                                                                                                                    WMF1809034.TXT
MDDDJ9203721201809                D89828070100PV1D20180907000060SPEAKER ASM                   M IMCTM S5MB11 TNTH  09020IMCT  S5 PTB  00004                    1030 SR        000000000000 DENSO TEN (THAILAND)180LPGL0311311                                                                                                                              *          20180903 IMCT                IMCT                                                                                                                    WMF1809034.TXT
MDDDJ9203722201809                D89828070100PV1D20180907000060SPEAKER ASM                   M IMCTM S5MB11 TNTH  09020IMCT  S5 PTB  00004                    1300 SR        000000000000 DENSO TEN (THAILAND)180LRAL0248248                                                                                                                              *          20180903 IMCT                IMCT                                                                                                                    WMF1809034.TXT
MDDDJ9203723201809                D89828070100PV1D20180907000060SPEAKER ASM                   M IMCTM S5MB11 TNTH  09020IMCT  S5 PTB  00004                    1600 SR        000000000000 DENSO TEN (THAILAND)180LXAL0050050                                                                                                                              *          20180903 IMCT                IMCT                                                                                                                    WMF1809034.TXT
MDDDJ9203724201809                D89828070100PV1D20180907000060SPEAKER ASM                   M IMCTM S5MB11 TNTH  09020IMCT  S5 PTB  00004                    2100 SR        000000000000 DENSO TEN (THAILAND)180LPCL0085085                                                                                                                              *          20180903 IMCT                IMCT                                                                                                                    WMF1809034.TXT
MDDDJ9203725201809                D89828070300PT1D20180907000060SPEAKER ASM                   M IMCTM S5NB082TNTH  09020IMCT  S5 PTB  00015                    0400 SR        000000000000 DENSO TEN (THAILAND)180LPFL0085085                                                                                                                              *          20180903 IMCT                IMCT                                                                                                                    WMF1809034.TXT
MDDDJ9203726201809                D89828070300PT1D20180907000060SPEAKER ASM                   M IMCTM S5NB082TNTH  09020IMCT  S5 PTB  00015                    1030 SR        000000000000 DENSO TEN (THAILAND)180LPGL0311311                                                                                                                              *          20180903 IMCT                IMCT                                                                                                                    WMF1809034.TXT
MDDDJ9203727201809                D89828070300PT1D20180907000060SPEAKER ASM                   M IMCTM S5NB082TNTH  09020IMCT  S5 PTB  00015                    2100 SR        000000000000 DENSO TEN (THAILAND)180LPCL0085085                                                                                                                              *          20180903 IMCT                IMCT                                                                                                                    WMF1809034.TXT
MDDDJ9203728201809                D89831228300PT1D20180907000030RADIO;AM/FM,CD                M IMCTM S5NC06 TNTH  09020IMCT  S5 CPB  00003                    0400 SR        000000000000 DENSO TEN (THAILAND)180LPFL0085085                                                                                                                              *          20180903 IMCT                IMCT                                                                                                                    WMF1809034.TXT
MDDDJ9203729201809                D89831228300PT1D20180907000030RADIO;AM/FM,CD                M IMCTM S5NC06 TNTH  09020IMCT  S5 CPB  00003                    1030 SR        000000000000 DENSO TEN (THAILAND)180LPGL0311311                                                                                                                              *          20180903 IMCT                IMCT                                                                                                                    WMF1809034.TXT
MDDDJ9203730201809                D89831228300PT1D20180907000030RADIO;AM/FM,CD                M IMCTM S5NC06 TNTH  09020IMCT  S5 CPB  00003                    2100 SR        000000000000 DENSO TEN (THAILAND)180LPCL0085085                                                                                                                              *          20180903 IMCT                IMCT                                                                                                                    WMF1809034.TXT
MDDUJ9202194201809                D89828070100PT4U20180907000030SPEAKER ASM                   M IMCTM S0FL05 TNTH  09020IMCT  S0 PTB  00004                    0230 SR        000000000000 DENSO TEN (THAILAND)180LUPU0037037                                                                                                                              *          20180903 IMCT                IMCT                                                                                                                    WMF1809034.TXT
MDDUJ9202195201809                D89828070100PT4U20180907000030SPEAKER ASM                   M IMCTM S0FL05 TNTH  09020IMCT  S0 PTB  00004                    0400 SR        000000000000 DENSO TEN (THAILAND)180LUQU0068068                                                                                                                              *          20180903 IMCT                IMCT                                                                                                                    WMF1809034.TXT
MDDUJ9202196201809                D89828070100PT4U20180907000030SPEAKER ASM                   M IMCTM S0FL05 TNTH  09020IMCT  S0 PTB  00004                    1300 SR        000000000000 DENSO TEN (THAILAND)180LUSU0167167                                                                                                                              *          20180903 IMCT                IMCT                                                                                                                    WMF1809034.TXT
MDDUJ9202197201809                D89828070100PT4U20180907000030SPEAKER ASM                   M IMCTM S0FL05 TNTH  09020IMCT  S0 PTB  00004                    2230 SR        000000000000 DENSO TEN (THAILAND)180LUTU0118118                                                                                                                              *          20180903 IMCT                IMCT                                                                                                                    WMF1809034.TXT
MDDUJ9202198201809                D89828070200PV4U20180907000030SPEAKER ASM                   M IMCTM S0FR05 TNTH  09020IMCT  S0 PTB  00005                    0230 SR        000000000000 DENSO TEN (THAILAND)180LUPU0037037                                                                                                                              *          20180903 IMCT                IMCT                                                                                                                    WMF1809034.TXT
MDDUJ9202199201809                D89828070200PV4U20180907000030SPEAKER ASM                   M IMCTM S0FR05 TNTH  09020IMCT  S0 PTB  00005                    0400 SR        000000000000 DENSO TEN (THAILAND)180LUQU0068068                                                                                                                              *          20180903 IMCT                IMCT                                                                                                                    WMF1809034.TXT
MDDUJ9202200201809                D89828070200PV4U20180907000030SPEAKER ASM                   M IMCTM S0FR05 TNTH  09020IMCT  S0 PTB  00005                    1300 SR        000000000000 DENSO TEN (THAILAND)180LUSU0167167                                                                                                                              *          20180903 IMCT                IMCT                                                                                                                    WMF1809034.TXT
MDDUJ9202201201809                D89828070200PV4U20180907000030SPEAKER ASM                   M IMCTM S0FR05 TNTH  09020IMCT  S0 PTB  00005                    2230 SR        000000000000 DENSO TEN (THAILAND)180LUTU0118118                                                                                                                              *          20180903 IMCT                IMCT                                                                                                                    WMF1809034.TXT
MDDUJ9202202201809                D89828070300PT4U20180907000030SPEAKER ASM                   M IMCTM S9TS02 TNTH  09020IMCT  S9 PTB  00015                    0230 SR        000000000000 DENSO TEN (THAILAND)180LUPU0037037                                                                                                                              *          20180903 IMCT                IMCT                                                                                                                    WMF1809034.TXT
MDDUJ9202203201809                D89828070300PT4U20180907000030SPEAKER ASM                   M IMCTM S9TS02 TNTH  09020IMCT  S9 PTB  00015                    0400 SR        000000000000 DENSO TEN (THAILAND)180LUQU0068068                                                                                                                              *          20180903 IMCT                IMCT                                                                                                                    WMF1809034.TXT
MDDUJ9202204201809                D89828070300PT4U20180907000030SPEAKER ASM                   M IMCTM S9TS02 TNTH  09020IMCT  S9 PTB  00015                    1300 SR        000000000000 DENSO TEN (THAILAND)180LUSU0167167                                                                                                                              *          20180903 IMCT                IMCT                                                                                                                    WMF1809034.TXT
MDDUJ9202205201809                D89828070300PT4U20180907000030SPEAKER ASM                   M IMCTM S9TS02 TNTH  09020IMCT  S9 PTB  00015                    2230 SR        000000000000 DENSO TEN (THAILAND)180LUTU0118118                                                                                                                              *          20180903 IMCT                IMCT                                                                                                                    WMF1809034.TXT
MDDUJ9202206201809                D89831228400PT4U20180907000015RADIO;AM/FM,CD                M IMCTM S9CO001TNTH  09020IMCT  S9 CPB  00003                    0230 SR        000000000000 DENSO TEN (THAILAND)180LUPU0037037                                                                                                                              *          20180903 IMCT                IMCT                                                                                                                    WMF1809034.TXT
MDDUJ9202207201809                D89848584200PT4U20180907000015RADIO;AM/FM CD D              M IMCTM S9CO001TNTH  09020IMCT  S9 PTB  00003                    0400 SR        000000000000 DENSO TEN (THAILAND)180LUQU0068068                                                                                                                              *          20180903 IMCT                IMCT                                                                                                                    WMF1809034.TXT
MDEDJ9205229201809                D89828070100PV1D20180906000060SPEAKER ASM                   M IMCTM S5MB11 TNTH  09020IMCT  S5 PTB  00004                    2230 SR        000000000000 DENSO TEN (THAILAND)17033QL0098099                                                                                                                              *          20180903 IMCT                IMCT                                                                                                                    WMF1809034.TXT
MDEDJ9205230201809                D89828070100PV1D20180907000060SPEAKER ASM                   M IMCTM S5MB11 TNTH  09020IMCT  S5 PTB  00004                    0230 SR        000000000000 DENSO TEN (THAILAND)17052RL0037038                                                                                                                              *          20180903 IMCT                IMCT                                                                                                                    WMF1809034.TXT
MDEDJ9205231201809                D89828070100PV1D20180907000060SPEAKER ASM                   M IMCTM S5MB11 TNTH  09020IMCT  S5 PTB  00004                    0400 SR        000000000000 DENSO TEN (THAILAND)17021QL006306318050XL0003003                                                                                                                *          20180903 IMCT                IMCT                                                                                                                    WMF1809034.TXT
MDEDJ9205232201809                D89828070100PV1D20180907000030SPEAKER ASM                   M IMCTM S5MB11 TNTH  09020IMCT  S5 PTB  00004                    0830 SR        000000000000 DENSO TEN (THAILAND)17046QL0053053                                                                                                                              *          20180903 IMCT                IMCT                                                                                                                    WMF1809034.TXT
MDEDJ9205233201809                D89828070100PV1D20180907000030SPEAKER ASM                   M IMCTM S5MB11 TNTH  09020IMCT  S5 PTB  00004                    1300 SR        000000000000 DENSO TEN (THAILAND)18013YL0001001                                                                                                                              *          20180903 IMCT                IMCT                                                                                                                    WMF1809034.TXT
MDEDJ9205234201809                D89828070100PV1D20180907000060SPEAKER ASM                   M IMCTM S5MB11 TNTH  09020IMCT  S5 PTB  00004                    1600 SR        000000000000 DENSO TEN (THAILAND)18006YL0005006                                                                                                                              *          20180903 IMCT                IMCT                                                                                                                    WMF1809034.TXT
MDEDJ9205235201809                D89828070100PV4D20180906000030SPEAKER ASM                   M IMCTM S0FL05 TNTH  09020IMCT  S0 PTB  00004                    2230 SR        000000000000 DENSO TEN (THAILAND)18099UU0032032                                                                                                                              *          20180903 IMCT                IMCT                                                                                                                    WMF1809034.TXT
MDEDJ9205236201809                D89828070100PV4D20180907000030SPEAKER ASM                   M IMCTM S0FL05 TNTH  09020IMCT  S0 PTB  00004                    0830 SR        000000000000 DENSO TEN (THAILAND)18099UU0033033                                                                                                                              *          20180903 IMCT                IMCT                                                                                                                    WMF1809034.TXT
MDEDJ9205237201809                D89828070100PV4D20180907000030SPEAKER ASM                   M IMCTM S0FL05 TNTH  09020IMCT  S0 PTB  00004                    1600 SR        000000000000 DENSO TEN (THAILAND)17075PU0031031                                                                                                                              *          20180903 IMCT                IMCT                                                                                                                    WMF1809034.TXT
MDEDJ9205238201809                D89828070100PV4D20180907000030SPEAKER ASM                   M IMCTM S0FL05 TNTH  09020IMCT  S0 PTB  00004                    2100 SR        000000000000 DENSO TEN (THAILAND)18036ZU0007007                                                                                                                              *          20180903 IMCT                IMCT                                                                                                                    WMF1809034.TXT
MDEDJ9205239201809                D89828070200PV1D20180906000060SPEAKER ASM                   M IMCTM S5MA14 TNTH  09020IMCT  S5 PTB  00005                    2230 SR        000000000000 DENSO TEN (THAILAND)17033QL0098099                                                                                                                              *          20180903 IMCT                IMCT                                                                                                                    WMF1809034.TXT
MDEDJ9205240201809                D89828070200PV1D20180907000030SPEAKER ASM                   M IMCTM S5MA14 TNTH  09020IMCT  S5 PTB  00005                    0400 SR        000000000000 DENSO TEN (THAILAND)18050XL0003003                                                                                                                              *          20180903 IMCT                IMCT                                                                                                                    WMF1809034.TXT
MDEDJ9205241201809                D89828070200PV1D20180907000030SPEAKER ASM                   M IMCTM S5MA14 TNTH  09020IMCT  S5 PTB  00005                    0830 SR        000000000000 DENSO TEN (THAILAND)17046QL0053053                                                                                                                              *          20180903 IMCT                IMCT                                                                                                                    WMF1809034.TXT
MDEDJ9205242201809                D89828070200PV1D20180907000060SPEAKER ASM                   M IMCTM S5MA14 TNTH  09020IMCT  S5 PTB  00005                    1600 SR        000000000000 DENSO TEN (THAILAND)18006YL0005006                                                                                                                              *          20180903 IMCT                IMCT                                                                                                                    WMF1809034.TXT
MDEDJ9205243201809                D89828070200PV4D20180906000030SPEAKER ASM                   M IMCTM S0FR05 TNTH  09020IMCT  S0 PTB  00005                    2230 SR        000000000000 DENSO TEN (THAILAND)18099UU0032032                                                                                                                              *          20180903 IMCT                IMCT                                                                                                                    WMF1809034.TXT
MDEDJ9205244201809                D89828070200PV4D20180907000030SPEAKER ASM                   M IMCTM S0FR05 TNTH  09020IMCT  S0 PTB  00005                    0830 SR        000000000000 DENSO TEN (THAILAND)18099UU0033033                                                                                                                              *          20180903 IMCT                IMCT                                                                                                                    WMF1809034.TXT
MDEDJ9205245201809                D89828070200PV4D20180907000030SPEAKER ASM                   M IMCTM S0FR05 TNTH  09020IMCT  S0 PTB  00005                    2100 SR        000000000000 DENSO TEN (THAILAND)18036ZU0007007                                                                                                                              *          20180903 IMCT                IMCT                                                                                                                    WMF1809034.TXT
MDEDJ9205246201809                D89828070300PT1D20180906000060SPEAKER ASM                   M IMCTM S5NB082TNTH  09020IMCT  S5 PTB  00015                    2230 SR        000000000000 DENSO TEN (THAILAND)17033QL0098099                                                                                                                              *          20180903 IMCT                IMCT                                                                                                                    WMF1809034.TXT
MDEDJ9205247201809                D89828070300PT1D20180907000030SPEAKER ASM                   M IMCTM S5NB082TNTH  09020IMCT  S5 PTB  00015                    0400 SR        000000000000 DENSO TEN (THAILAND)18050XL0003003                                                                                                                              *          20180903 IMCT                IMCT                                                                                                                    WMF1809034.TXT
MDEDJ9205248201809                D89828070300PT1D20180907000030SPEAKER ASM                   M IMCTM S5NB082TNTH  09020IMCT  S5 PTB  00015                    0830 SR        000000000000 DENSO TEN (THAILAND)17046QL0053053                                                                                                                              *          20180903 IMCT                IMCT                                                                                                                    WMF1809034.TXT
MDEDJ9205249201809                D89828070300PT1D20180907000060SPEAKER ASM                   M IMCTM S5NB082TNTH  09020IMCT  S5 PTB  00015                    1600 SR        000000000000 DENSO TEN (THAILAND)18006YL0005006                                                                                                                              *          20180903 IMCT                IMCT                                                                                                                    WMF1809034.TXT
MDEDJ9205250201809                D89828070300PT4D20180906000030SPEAKER ASM                   M IMCTM S9TS02 TNTH  09020IMCT  S9 PTB  00015                    2230 SR        000000000000 DENSO TEN (THAILAND)18099UU0032032                                                                                                                              *          20180903 IMCT                IMCT                                                                                                                    WMF1809034.TXT
MDEDJ9205251201809                D89828070300PT4D20180907000030SPEAKER ASM                   M IMCTM S9TS02 TNTH  09020IMCT  S9 PTB  00015                    0830 SR        000000000000 DENSO TEN (THAILAND)18099UU0033033                                                                                                                              *          20180903 IMCT                IMCT                                                                                                                    WMF1809034.TXT
MDEDJ9205252201809                D89828070300PT4D20180907000030SPEAKER ASM                   M IMCTM S9TS02 TNTH  09020IMCT  S9 PTB  00015                    2100 SR        000000000000 DENSO TEN (THAILAND)18036ZU0007007                                                                                                                              *          20180903 IMCT                IMCT                                                                                                                    WMF1809034.TXT
MDEDJ9205253201809                D89831229200PT1D20180906000030RADIO;AM/FM,CD                M IMCTM S5NC06 TNTH  09020IMCT  S5 PTB  00003                    2230 SR        000000000000 DENSO TEN (THAILAND)17033QL0098099                                                                                                                              *          20180903 IMCT                IMCT                                                                                                                    WMF1809034.TXT
MDEDJ9205254201809                D89848582100PT1D20180907000030RADIO;AM/FM CD D              M IMCTM S5NC06 TNTH  09020IMCT  S5 PTB  00003                    1600 SR        000000000000 DENSO TEN (THAILAND)18006YL0005006                                                                                                                              *          20180903 IMCT                IMCT                                                                                                                    WMF1809034.TXT
MDEUJ9201984201809                D89828070100PT4U20180907000030SPEAKER ASM                   M IMCTM S0FL05 TNTH  09020IMCT  S0 PTB  00004                    0230 SR        000000000000 DENSO TEN (THAILAND)18021UU0165165                                                                                                                              *          20180903 IMCT                IMCT                                                                                                                    WMF1809034.TXT
MDEUJ9201985201809                D89828070100PT4U20180907000030SPEAKER ASM                   M IMCTM S0FL05 TNTH  09020IMCT  S0 PTB  00004                    1030 SR        000000000000 DENSO TEN (THAILAND)18049ZU0075075                                                                                                                              *          20180903 IMCT                IMCT                                                                                                                    WMF1809034.TXT
MDEUJ9201986201809                D89828070100PT4U20180907000030SPEAKER ASM                   M IMCTM S0FL05 TNTH  09020IMCT  S0 PTB  00004                    1300 SR        000000000000 DENSO TEN (THAILAND)18020UU0109109                                                                                                                              *          20180903 IMCT                IMCT                                                                                                                    WMF1809034.TXT
MDEUJ9201987201809                D89828070200PV4U20180907000030SPEAKER ASM                   M IMCTM S0FR05 TNTH  09020IMCT  S0 PTB  00005                    0230 SR        000000000000 DENSO TEN (THAILAND)18021UU0165165                                                                                                                              *          20180903 IMCT                IMCT                                                                                                                    WMF1809034.TXT
MDEUJ9201988201809                D89828070200PV4U20180907000030SPEAKER ASM                   M IMCTM S0FR05 TNTH  09020IMCT  S0 PTB  00005                    1030 SR        000000000000 DENSO TEN (THAILAND)18049ZU0075075                                                                                                                              *          20180903 IMCT                IMCT                                                                                                                    WMF1809034.TXT
MDEUJ9201989201809                D89828070200PV4U20180907000030SPEAKER ASM                   M IMCTM S0FR05 TNTH  09020IMCT  S0 PTB  00005                    1300 SR        000000000000 DENSO TEN (THAILAND)18020UU0109109                                                                                                                              *          20180903 IMCT                IMCT                                                                                                                    WMF1809034.TXT
MDEUJ9201990201809                D89828070300PT4U20180907000030SPEAKER ASM                   M IMCTM S9TS02 TNTH  09020IMCT  S9 PTB  00015                    0230 SR        000000000000 DENSO TEN (THAILAND)18021UU0165165                                                                                                                              *          20180903 IMCT                IMCT                                                                                                                    WMF1809034.TXT
MDEUJ9201991201809                D89828070300PT4U20180907000030SPEAKER ASM                   M IMCTM S9TS02 TNTH  09020IMCT  S9 PTB  00015                    1030 SR        000000000000 DENSO TEN (THAILAND)18049ZU0075075                                                                                                                              *          20180903 IMCT                IMCT                                                                                                                    WMF1809034.TXT
MDEUJ9201992201809                D89828070300PT4U20180907000030SPEAKER ASM                   M IMCTM S9TS02 TNTH  09020IMCT  S9 PTB  00015                    1300 SR        000000000000 DENSO TEN (THAILAND)18020UU0109109                                                                                                                              *          20180903 IMCT                IMCT                                                                                                                    WMF1809034.TXT
