REC2018090620180906ISUZU                              68     
MDDDJ9218671201809                D89821984430PT1D20180912000030RADIO;AM/FM,CD                M IMCTM S5NC06 TNTH  09020IMCT  S5 PTB  00005                    1030 SR        000000000000 DENSO TEN (THAILAND)180LRAL0250250                                                                                                                              *          20180906 IMCT                IMCT                                                                                                                    WMF1809065.TXT
MDDDJ9218672201809                D89821984430PT1D20180912000030RADIO;AM/FM,CD                M IMCTM S5NC06 TNTH  09020IMCT  S5 PTB  00005                    1600 SR        000000000000 DENSO TEN (THAILAND)180LNHL0065065                                                                                                                              *          20180906 IMCT                IMCT                                                                                                                    WMF1809065.TXT
MDDDJ9218673201809                D89821984430PT4D20180912000030RADIO;AM/FM,CD                M IMCTM S9CO001TNTH  09020IMCT  S9 PTB  00005                    1300 SR        000000000000 DENSO TEN (THAILAND)180LNGU0022022                                                                                                                              *          20180906 IMCT                IMCT                                                                                                                    WMF1809065.TXT
MDDDJ9218674201809                D89828070100PV1D20180912000060SPEAKER ASM                   M IMCTM S5MB11 TNTH  09020IMCT  S5 PTB  00004                    0230 SR        000000000000 DENSO TEN (THAILAND)180LXAL0051051                                                                                                                              *          20180906 IMCT                IMCT                                                                                                                    WMF1809065.TXT
MDDDJ9218675201809                D89828070100PV1D20180912000060SPEAKER ASM                   M IMCTM S5MB11 TNTH  09020IMCT  S5 PTB  00004                    0400 SR        000000000000 DENSO TEN (THAILAND)180LPCL0086086                                                                                                                              *          20180906 IMCT                IMCT                                                                                                                    WMF1809065.TXT
MDDDJ9218676201809                D89828070100PV1D20180912000060SPEAKER ASM                   M IMCTM S5MB11 TNTH  09020IMCT  S5 PTB  00004                    1030 SR        000000000000 DENSO TEN (THAILAND)180LRAL0250250                                                                                                                              *          20180906 IMCT                IMCT                                                                                                                    WMF1809065.TXT
MDDDJ9218677201809                D89828070100PV1D20180912000060SPEAKER ASM                   M IMCTM S5MB11 TNTH  09020IMCT  S5 PTB  00004                    1600 SR        000000000000 DENSO TEN (THAILAND)180LNHL0065065                                                                                                                              *          20180906 IMCT                IMCT                                                                                                                    WMF1809065.TXT
MDDDJ9218678201809                D89828070100PV1D20180912000060SPEAKER ASM                   M IMCTM S5MB11 TNTH  09020IMCT  S5 PTB  00004                    2100 SR        000000000000 DENSO TEN (THAILAND)180LPGL0316316                                                                                                                              *          20180906 IMCT                IMCT                                                                                                                    WMF1809065.TXT
MDDDJ9218679201809                D89828070100PV4D20180912000060SPEAKER ASM                   M IMCTM S0FL05 TNTH  09020IMCT  S0 PTB  00004                    1300 SR        000000000000 DENSO TEN (THAILAND)180LNGU0022022                                                                                                                              *          20180906 IMCT                IMCT                                                                                                                    WMF1809065.TXT
MDDDJ9218680201809                D89828070300PT1D20180912000060SPEAKER ASM                   M IMCTM S5NB082TNTH  09020IMCT  S5 PTB  00015                    0400 SR        000000000000 DENSO TEN (THAILAND)180LPCL0086086                                                                                                                              *          20180906 IMCT                IMCT                                                                                                                    WMF1809065.TXT
MDDDJ9218681201809                D89828070300PT1D20180912000060SPEAKER ASM                   M IMCTM S5NB082TNTH  09020IMCT  S5 PTB  00015                    2100 SR        000000000000 DENSO TEN (THAILAND)180LPGL0316316                                                                                                                              *          20180906 IMCT                IMCT                                                                                                                    WMF1809065.TXT
MDDDJ9218682201809                D89831228300PT1D20180912000030RADIO;AM/FM,CD                M IMCTM S5NC06 TNTH  09020IMCT  S5 CPB  00003                    0400 SR        000000000000 DENSO TEN (THAILAND)180LPCL0086086                                                                                                                              *          20180906 IMCT                IMCT                                                                                                                    WMF1809065.TXT
MDDDJ9218683201809                D89831228300PT1D20180912000030RADIO;AM/FM,CD                M IMCTM S5NC06 TNTH  09020IMCT  S5 CPB  00003                    2100 SR        000000000000 DENSO TEN (THAILAND)180LPGL0316316                                                                                                                              *          20180906 IMCT                IMCT                                                                                                                    WMF1809065.TXT
MDDUJ9208533201809                D89828070100PT4U20180911000030SPEAKER ASM                   M IMCTM S0FL05 TNTH  09020IMCT  S0 PTB  00004                    2230 SR        000000000000 DENSO TEN (THAILAND)180LURU0082082                                                                                                                              *          20180906 IMCT                IMCT                                                                                                                    WMF1809065.TXT
MDDUJ9208534201809                D89828070100PT4U20180912000030SPEAKER ASM                   M IMCTM S0FL05 TNTH  09020IMCT  S0 PTB  00004                    0830 SR        000000000000 DENSO TEN (THAILAND)180LUQU0070070                                                                                                                              *          20180906 IMCT                IMCT                                                                                                                    WMF1809065.TXT
MDDUJ9208535201809                D89828070100PT4U20180912000030SPEAKER ASM                   M IMCTM S0FL05 TNTH  09020IMCT  S0 PTB  00004                    1300 SR        000000000000 DENSO TEN (THAILAND)180LUSU0170170                                                                                                                              *          20180906 IMCT                IMCT                                                                                                                    WMF1809065.TXT
MDDUJ9208536201809                D89828070100PT4U20180912000030SPEAKER ASM                   M IMCTM S0FL05 TNTH  09020IMCT  S0 PTB  00004                    2230 SR        000000000000 DENSO TEN (THAILAND)180LUTU0120120                                                                                                                              *          20180906 IMCT                IMCT                                                                                                                    WMF1809065.TXT
MDDUJ9208537201809                D89828070200PV4U20180911000030SPEAKER ASM                   M IMCTM S0FR05 TNTH  09020IMCT  S0 PTB  00005                    2230 SR        000000000000 DENSO TEN (THAILAND)180LURU0082082                                                                                                                              *          20180906 IMCT                IMCT                                                                                                                    WMF1809065.TXT
MDDUJ9208538201809                D89828070200PV4U20180912000030SPEAKER ASM                   M IMCTM S0FR05 TNTH  09020IMCT  S0 PTB  00005                    0830 SR        000000000000 DENSO TEN (THAILAND)180LUQU0070070                                                                                                                              *          20180906 IMCT                IMCT                                                                                                                    WMF1809065.TXT
MDDUJ9208539201809                D89828070200PV4U20180912000030SPEAKER ASM                   M IMCTM S0FR05 TNTH  09020IMCT  S0 PTB  00005                    1300 SR        000000000000 DENSO TEN (THAILAND)180LUSU0170170                                                                                                                              *          20180906 IMCT                IMCT                                                                                                                    WMF1809065.TXT
MDDUJ9208540201809                D89828070200PV4U20180912000030SPEAKER ASM                   M IMCTM S0FR05 TNTH  09020IMCT  S0 PTB  00005                    2230 SR        000000000000 DENSO TEN (THAILAND)180LUTU0120120                                                                                                                              *          20180906 IMCT                IMCT                                                                                                                    WMF1809065.TXT
MDDUJ9208541201809                D89828070300PT4U20180911000030SPEAKER ASM                   M IMCTM S9TS02 TNTH  09020IMCT  S9 PTB  00015                    2230 SR        000000000000 DENSO TEN (THAILAND)180LURU0082082                                                                                                                              *          20180906 IMCT                IMCT                                                                                                                    WMF1809065.TXT
MDDUJ9208542201809                D89828070300PT4U20180912000030SPEAKER ASM                   M IMCTM S9TS02 TNTH  09020IMCT  S9 PTB  00015                    0830 SR        000000000000 DENSO TEN (THAILAND)180LUQU0070070                                                                                                                              *          20180906 IMCT                IMCT                                                                                                                    WMF1809065.TXT
MDDUJ9208543201809                D89828070300PT4U20180912000030SPEAKER ASM                   M IMCTM S9TS02 TNTH  09020IMCT  S9 PTB  00015                    1300 SR        000000000000 DENSO TEN (THAILAND)180LUSU0170170                                                                                                                              *          20180906 IMCT                IMCT                                                                                                                    WMF1809065.TXT
MDDUJ9208544201809                D89828070300PT4U20180912000030SPEAKER ASM                   M IMCTM S9TS02 TNTH  09020IMCT  S9 PTB  00015                    2230 SR        000000000000 DENSO TEN (THAILAND)180LUTU0120120                                                                                                                              *          20180906 IMCT                IMCT                                                                                                                    WMF1809065.TXT
MDDUJ9208545201809                D89848584200PT4U20180912000015RADIO;AM/FM CD D              M IMCTM S9CO001TNTH  09020IMCT  S9 PTB  00003                    0830 SR        000000000000 DENSO TEN (THAILAND)180LUQU0070070                                                                                                                              *          20180906 IMCT                IMCT                                                                                                                    WMF1809065.TXT
MDEDJ9225136201809                D89828070100PV1D20180911000060SPEAKER ASM                   M IMCTM S5MB11 TNTH  09020IMCT  S5 PTB  00004                    2230 SR        000000000000 DENSO TEN (THAILAND)17075QL0015016                                                                                                                              *          20180906 IMCT                IMCT                                                                                                                    WMF1809065.TXT
MDEDJ9225137201809                D89828070100PV1D20180912000030SPEAKER ASM                   M IMCTM S5MB11 TNTH  09020IMCT  S5 PTB  00004                    0230 SR        000000000000 DENSO TEN (THAILAND)18006YL0008008                                                                                                                              *          20180906 IMCT                IMCT                                                                                                                    WMF1809065.TXT
MDEDJ9225138201809                D89828070100PV1D20180912000030SPEAKER ASM                   M IMCTM S5MB11 TNTH  09020IMCT  S5 PTB  00004                    0400 SR        000000000000 DENSO TEN (THAILAND)18006YL0009009                                                                                                                              *          20180906 IMCT                IMCT                                                                                                                    WMF1809065.TXT
MDEDJ9225139201809                D89828070100PV1D20180912000090SPEAKER ASM                   M IMCTM S5MB11 TNTH  09020IMCT  S5 PTB  00004                    0830 SR        000000000000 DENSO TEN (THAILAND)17062ZL000300418063UL0026026                                                                                                                *          20180906 IMCT                IMCT                                                                                                                    WMF1809065.TXT
MDEDJ9225140201809                D89828070100PV1D20180912000030SPEAKER ASM                   M IMCTM S5MB11 TNTH  09020IMCT  S5 PTB  00004                    1030 SR        000000000000 DENSO TEN (THAILAND)18063UL0027027                                                                                                                              *          20180906 IMCT                IMCT                                                                                                                    WMF1809065.TXT
MDEDJ9225141201809                D89828070100PV1D20180912000090SPEAKER ASM                   M IMCTM S5MB11 TNTH  09020IMCT  S5 PTB  00004                    1300 SR        000000000000 DENSO TEN (THAILAND)18064UL001801818098XL0034035                                                                                                                *          20180906 IMCT                IMCT                                                                                                                    WMF1809065.TXT
MDEDJ9225142201809                D89828070100PV1D20180912000030SPEAKER ASM                   M IMCTM S5MB11 TNTH  09020IMCT  S5 PTB  00004                    1600 SR        000000000000 DENSO TEN (THAILAND)18066UL0011011                                                                                                                              *          20180906 IMCT                IMCT                                                                                                                    WMF1809065.TXT
MDEDJ9225143201809                D89828070100PV1D20180912000030SPEAKER ASM                   M IMCTM S5MB11 TNTH  09020IMCT  S5 PTB  00004                    2230 SR        000000000000 DENSO TEN (THAILAND)18071UL0016016                                                                                                                              *          20180906 IMCT                IMCT                                                                                                                    WMF1809065.TXT
MDEDJ9225144201809                D89828070100PV4D20180912000030SPEAKER ASM                   M IMCTM S0FL05 TNTH  09020IMCT  S0 PTB  00004                    0230 SR        000000000000 DENSO TEN (THAILAND)18098UU0042042                                                                                                                              *          20180906 IMCT                IMCT                                                                                                                    WMF1809065.TXT
MDEDJ9225145201809                D89828070100PV4D20180912000030SPEAKER ASM                   M IMCTM S0FL05 TNTH  09020IMCT  S0 PTB  00004                    0400 SR        000000000000 DENSO TEN (THAILAND)18076XU0003003                                                                                                                              *          20180906 IMCT                IMCT                                                                                                                    WMF1809065.TXT
MDEDJ9225146201809                D89828070200PV1D20180912000030SPEAKER ASM                   M IMCTM S5MA14 TNTH  09020IMCT  S5 PTB  00005                    0230 SR        000000000000 DENSO TEN (THAILAND)18006YL0008008                                                                                                                              *          20180906 IMCT                IMCT                                                                                                                    WMF1809065.TXT
MDEDJ9225147201809                D89828070200PV1D20180912000030SPEAKER ASM                   M IMCTM S5MA14 TNTH  09020IMCT  S5 PTB  00005                    0400 SR        000000000000 DENSO TEN (THAILAND)18006YL0009009                                                                                                                              *          20180906 IMCT                IMCT                                                                                                                    WMF1809065.TXT
MDEDJ9225148201809                D89828070200PV1D20180912000060SPEAKER ASM                   M IMCTM S5MA14 TNTH  09020IMCT  S5 PTB  00005                    1300 SR        000000000000 DENSO TEN (THAILAND)18098XL0034035                                                                                                                              *          20180906 IMCT                IMCT                                                                                                                    WMF1809065.TXT
MDEDJ9225149201809                D89828070200PV1D20180912000030SPEAKER ASM                   M IMCTM S5MA14 TNTH  09020IMCT  S5 PTB  00005                    1600 SR        000000000000 DENSO TEN (THAILAND)18066UL0011011                                                                                                                              *          20180906 IMCT                IMCT                                                                                                                    WMF1809065.TXT
MDEDJ9225150201809                D89828070200PV4D20180912000030SPEAKER ASM                   M IMCTM S0FR05 TNTH  09020IMCT  S0 PTB  00005                    0230 SR        000000000000 DENSO TEN (THAILAND)18098UU0042042                                                                                                                              *          20180906 IMCT                IMCT                                                                                                                    WMF1809065.TXT
MDEDJ9225151201809                D89828070300PT1D20180912000030SPEAKER ASM                   M IMCTM S5NB082TNTH  09020IMCT  S5 PTB  00015                    0230 SR        000000000000 DENSO TEN (THAILAND)18006YL0008008                                                                                                                              *          20180906 IMCT                IMCT                                                                                                                    WMF1809065.TXT
MDEDJ9225152201809                D89828070300PT1D20180912000030SPEAKER ASM                   M IMCTM S5NB082TNTH  09020IMCT  S5 PTB  00015                    0400 SR        000000000000 DENSO TEN (THAILAND)18006YL0009009                                                                                                                              *          20180906 IMCT                IMCT                                                                                                                    WMF1809065.TXT
MDEDJ9225153201809                D89828070300PT1D20180912000030SPEAKER ASM                   M IMCTM S5NB082TNTH  09020IMCT  S5 PTB  00015                    0830 SR        000000000000 DENSO TEN (THAILAND)18063UL0026026                                                                                                                              *          20180906 IMCT                IMCT                                                                                                                    WMF1809065.TXT
MDEDJ9225154201809                D89828070300PT1D20180912000030SPEAKER ASM                   M IMCTM S5NB082TNTH  09020IMCT  S5 PTB  00015                    1030 SR        000000000000 DENSO TEN (THAILAND)18063UL0027027                                                                                                                              *          20180906 IMCT                IMCT                                                                                                                    WMF1809065.TXT
MDEDJ9225155201809                D89828070300PT1D20180912000090SPEAKER ASM                   M IMCTM S5NB082TNTH  09020IMCT  S5 PTB  00015                    1300 SR        000000000000 DENSO TEN (THAILAND)18064UL001801818098XL0034035                                                                                                                *          20180906 IMCT                IMCT                                                                                                                    WMF1809065.TXT
MDEDJ9225156201809                D89828070300PT1D20180912000030SPEAKER ASM                   M IMCTM S5NB082TNTH  09020IMCT  S5 PTB  00015                    1600 SR        000000000000 DENSO TEN (THAILAND)18066UL0011011                                                                                                                              *          20180906 IMCT                IMCT                                                                                                                    WMF1809065.TXT
MDEDJ9225157201809                D89828070300PT1D20180912000030SPEAKER ASM                   M IMCTM S5NB082TNTH  09020IMCT  S5 PTB  00015                    2230 SR        000000000000 DENSO TEN (THAILAND)18071UL0016016                                                                                                                              *          20180906 IMCT                IMCT                                                                                                                    WMF1809065.TXT
MDEDJ9225158201809                D89828070300PT4D20180912000030SPEAKER ASM                   M IMCTM S9TS02 TNTH  09020IMCT  S9 PTB  00015                    0230 SR        000000000000 DENSO TEN (THAILAND)18098UU0042042                                                                                                                              *          20180906 IMCT                IMCT                                                                                                                    WMF1809065.TXT
MDEDJ9225159201809                D89848581800PT1D20180912000015RADIO;AM/FM CD D              M IMCTM S5NC06 TNTH  09020IMCT  S5 PTB  00003                    0830 SR        000000000000 DENSO TEN (THAILAND)18063UL0026026                                                                                                                              *          20180906 IMCT                IMCT                                                                                                                    WMF1809065.TXT
MDEDJ9225160201809                D89848581800PT1D20180912000015RADIO;AM/FM CD D              M IMCTM S5NC06 TNTH  09020IMCT  S5 PTB  00003                    1030 SR        000000000000 DENSO TEN (THAILAND)18063UL0027027                                                                                                                              *          20180906 IMCT                IMCT                                                                                                                    WMF1809065.TXT
MDEDJ9225161201809                D89848581800PT1D20180912000015RADIO;AM/FM CD D              M IMCTM S5NC06 TNTH  09020IMCT  S5 PTB  00003                    1600 SR        000000000000 DENSO TEN (THAILAND)18066UL0011011                                                                                                                              *          20180906 IMCT                IMCT                                                                                                                    WMF1809065.TXT
MDEDJ9225162201809                D89848581800PT1D20180912000015RADIO;AM/FM CD D              M IMCTM S5NC06 TNTH  09020IMCT  S5 PTB  00003                    2230 SR        000000000000 DENSO TEN (THAILAND)18071UL0016016                                                                                                                              *          20180906 IMCT                IMCT                                                                                                                    WMF1809065.TXT
MDEDJ9225163201809                D89848581800PT4D20180912000015RADIO;AM/FM CD D              M IMCTM S9CO001TNTH  09020IMCT  S9 PTB  00003                    0230 SR        000000000000 DENSO TEN (THAILAND)18098UU0042042                                                                                                                              *          20180906 IMCT                IMCT                                                                                                                    WMF1809065.TXT
MDEDJ9225164201809                D89848582100PT1D20180912000015RADIO;AM/FM CD D              M IMCTM S5NC06 TNTH  09020IMCT  S5 PTB  00003                    0230 SR        000000000000 DENSO TEN (THAILAND)18006YL0008008                                                                                                                              *          20180906 IMCT                IMCT                                                                                                                    WMF1809065.TXT
MDEDJ9225165201809                D89848582100PT1D20180912000015RADIO;AM/FM CD D              M IMCTM S5NC06 TNTH  09020IMCT  S5 PTB  00003                    0400 SR        000000000000 DENSO TEN (THAILAND)18006YL0009009                                                                                                                              *          20180906 IMCT                IMCT                                                                                                                    WMF1809065.TXT
MDEDJ9225166201809                D89848582100PT1D20180912000030RADIO;AM/FM CD D              M IMCTM S5NC06 TNTH  09020IMCT  S5 PTB  00003                    1300 SR        000000000000 DENSO TEN (THAILAND)18098XL0034035                                                                                                                              *          20180906 IMCT                IMCT                                                                                                                    WMF1809065.TXT
MDEDJ9225167201809                D89848582500PT1D20180912000015RADIO;AM/FM CD D              M IMCTM S5NC06 TNTH  09020IMCT  S5 PTB  00003                    1300 SR        000000000000 DENSO TEN (THAILAND)18064UL0018018                                                                                                                              *          20180906 IMCT                IMCT                                                                                                                    WMF1809065.TXT
MDEUJ9212580201809                D89828070100PT4U20180912000030SPEAKER ASM                   M IMCTM S0FL05 TNTH  09020IMCT  S0 PTB  00004                    0400 SR        000000000000 DENSO TEN (THAILAND)18020UU0112112                                                                                                                              *          20180906 IMCT                IMCT                                                                                                                    WMF1809065.TXT
MDEUJ9212581201809                D89828070100PT4U20180912000030SPEAKER ASM                   M IMCTM S0FL05 TNTH  09020IMCT  S0 PTB  00004                    1300 SR        000000000000 DENSO TEN (THAILAND)18019UU0027027                                                                                                                              *          20180906 IMCT                IMCT                                                                                                                    WMF1809065.TXT
MDEUJ9212582201809                D89828070100PT4U20180912000030SPEAKER ASM                   M IMCTM S0FL05 TNTH  09020IMCT  S0 PTB  00004                    1600 SR        000000000000 DENSO TEN (THAILAND)18021UU0172172                                                                                                                              *          20180906 IMCT                IMCT                                                                                                                    WMF1809065.TXT
MDEUJ9212583201809                D89828070200PV4U20180912000030SPEAKER ASM                   M IMCTM S0FR05 TNTH  09020IMCT  S0 PTB  00005                    0400 SR        000000000000 DENSO TEN (THAILAND)18020UU0112112                                                                                                                              *          20180906 IMCT                IMCT                                                                                                                    WMF1809065.TXT
MDEUJ9212584201809                D89828070200PV4U20180912000030SPEAKER ASM                   M IMCTM S0FR05 TNTH  09020IMCT  S0 PTB  00005                    1300 SR        000000000000 DENSO TEN (THAILAND)18019UU0027027                                                                                                                              *          20180906 IMCT                IMCT                                                                                                                    WMF1809065.TXT
MDEUJ9212585201809                D89828070200PV4U20180912000030SPEAKER ASM                   M IMCTM S0FR05 TNTH  09020IMCT  S0 PTB  00005                    1600 SR        000000000000 DENSO TEN (THAILAND)18021UU0172172                                                                                                                              *          20180906 IMCT                IMCT                                                                                                                    WMF1809065.TXT
MDEUJ9212586201809                D89828070300PT4U20180912000030SPEAKER ASM                   M IMCTM S9TS02 TNTH  09020IMCT  S9 PTB  00015                    0400 SR        000000000000 DENSO TEN (THAILAND)18020UU0112112                                                                                                                              *          20180906 IMCT                IMCT                                                                                                                    WMF1809065.TXT
MDEUJ9212587201809                D89828070300PT4U20180912000030SPEAKER ASM                   M IMCTM S9TS02 TNTH  09020IMCT  S9 PTB  00015                    1300 SR        000000000000 DENSO TEN (THAILAND)18019UU0027027                                                                                                                              *          20180906 IMCT                IMCT                                                                                                                    WMF1809065.TXT
MDEUJ9212588201809                D89828070300PT4U20180912000030SPEAKER ASM                   M IMCTM S9TS02 TNTH  09020IMCT  S9 PTB  00015                    1600 SR        000000000000 DENSO TEN (THAILAND)18021UU0172172                                                                                                                              *          20180906 IMCT                IMCT                                                                                                                    WMF1809065.TXT
MDEUJ9212589201809                D89848584700PT4U20180912000015RADIO;AM/FM CD D              M IMCTM S9CO001TNTH  09020IMCT  S9 PTB  00003                    1300 SR        000000000000 DENSO TEN (THAILAND)18019UU0027027                                                                                                                              *          20180906 IMCT                IMCT                                                                                                                    WMF1809065.TXT
