REC2018091320180913ISUZU                              68     
MDDDJ9242225201809                D89821984430PT1D20180918000030RADIO;AM/FM,CD                M IMCTM S5NC06 TNTH  09020IMCT  S5 PTB  00005                    2230 SR        000000000000 DENSO TEN (THAILAND)180LNGL0201201                                                                                                                              *          20180913 IMCT                IMCT                                                                                                                    WMF1809133.TXT
MDDDJ9242226201809                D89821984430PT1D20180919000030RADIO;AM/FM,CD                M IMCTM S5NC06 TNTH  09020IMCT  S5 PTB  00005                    0400 SR        000000000000 DENSO TEN (THAILAND)180LNGL0202202                                                                                                                              *          20180913 IMCT                IMCT                                                                                                                    WMF1809133.TXT
MDDDJ9242227201809                D89821984430PT1D20180919000060RADIO;AM/FM,CD                M IMCTM S5NC06 TNTH  09020IMCT  S5 PTB  00005                    1300 SR        000000000000 DENSO TEN (THAILAND)180LNHL0067067180LRAL0251251                                                                                                                *          20180913 IMCT                IMCT                                                                                                                    WMF1809133.TXT
MDDDJ9242228201809                D89821984430PT1D20180919000030RADIO;AM/FM,CD                M IMCTM S5NC06 TNTH  09020IMCT  S5 PTB  00005                    1600 SR        000000000000 DENSO TEN (THAILAND)180LPAL0224224                                                                                                                              *          20180913 IMCT                IMCT                                                                                                                    WMF1809133.TXT
MDDDJ9242229201809                D89821984430PT1D20180919000030RADIO;AM/FM,CD                M IMCTM S5NC06 TNTH  09020IMCT  S5 PTB  00005                    2100 SR        000000000000 DENSO TEN (THAILAND)180LXFL0013013                                                                                                                              *          20180913 IMCT                IMCT                                                                                                                    WMF1809133.TXT
MDDDJ9242230201809                D89828070100PV1D20180918000060SPEAKER ASM                   M IMCTM S5MB11 TNTH  09020IMCT  S5 PTB  00004                    2230 SR        000000000000 DENSO TEN (THAILAND)180LNGL0201201                                                                                                                              *          20180913 IMCT                IMCT                                                                                                                    WMF1809133.TXT
MDDDJ9242231201809                D89828070100PV1D20180919000060SPEAKER ASM                   M IMCTM S5MB11 TNTH  09020IMCT  S5 PTB  00004                    0400 SR        000000000000 DENSO TEN (THAILAND)180LNGL0202202                                                                                                                              *          20180913 IMCT                IMCT                                                                                                                    WMF1809133.TXT
MDDDJ9242232201809                D89828070100PV1D20180919000120SPEAKER ASM                   M IMCTM S5MB11 TNTH  09020IMCT  S5 PTB  00004                    1300 SR        000000000000 DENSO TEN (THAILAND)180LNHL0067067180LRAL0251251                                                                                                                *          20180913 IMCT                IMCT                                                                                                                    WMF1809133.TXT
MDDDJ9242233201809                D89828070100PV1D20180919000060SPEAKER ASM                   M IMCTM S5MB11 TNTH  09020IMCT  S5 PTB  00004                    1600 SR        000000000000 DENSO TEN (THAILAND)180LPAL0224224                                                                                                                              *          20180913 IMCT                IMCT                                                                                                                    WMF1809133.TXT
MDDDJ9242234201809                D89828070100PV1D20180919000060SPEAKER ASM                   M IMCTM S5MB11 TNTH  09020IMCT  S5 PTB  00004                    2100 SR        000000000000 DENSO TEN (THAILAND)180LXFL0013013                                                                                                                              *          20180913 IMCT                IMCT                                                                                                                    WMF1809133.TXT
MDDUJ9220147201809                D89828070100PT4U20180918000030SPEAKER ASM                   M IMCTM S0FL05 TNTH  09020IMCT  S0 PTB  00004                    2230 SR        000000000000 DENSO TEN (THAILAND)180LUNU0016016                                                                                                                              *          20180913 IMCT                IMCT                                                                                                                    WMF1809133.TXT
MDDUJ9220148201809                D89828070100PT4U20180919000030SPEAKER ASM                   M IMCTM S0FL05 TNTH  09020IMCT  S0 PTB  00004                    0830 SR        000000000000 DENSO TEN (THAILAND)180LULU0054054                                                                                                                              *          20180913 IMCT                IMCT                                                                                                                    WMF1809133.TXT
MDDUJ9220149201809                D89828070100PT4U20180919000030SPEAKER ASM                   M IMCTM S0FL05 TNTH  09020IMCT  S0 PTB  00004                    1600 SR        000000000000 DENSO TEN (THAILAND)180LULU0055055                                                                                                                              *          20180913 IMCT                IMCT                                                                                                                    WMF1809133.TXT
MDDUJ9220150201809                D89828070200PV4U20180918000030SPEAKER ASM                   M IMCTM S0FR05 TNTH  09020IMCT  S0 PTB  00005                    2230 SR        000000000000 DENSO TEN (THAILAND)180LUNU0016016                                                                                                                              *          20180913 IMCT                IMCT                                                                                                                    WMF1809133.TXT
MDDUJ9220151201809                D89828070200PV4U20180919000030SPEAKER ASM                   M IMCTM S0FR05 TNTH  09020IMCT  S0 PTB  00005                    0830 SR        000000000000 DENSO TEN (THAILAND)180LULU0054054                                                                                                                              *          20180913 IMCT                IMCT                                                                                                                    WMF1809133.TXT
MDDUJ9220152201809                D89828070200PV4U20180919000030SPEAKER ASM                   M IMCTM S0FR05 TNTH  09020IMCT  S0 PTB  00005                    1600 SR        000000000000 DENSO TEN (THAILAND)180LULU0055055                                                                                                                              *          20180913 IMCT                IMCT                                                                                                                    WMF1809133.TXT
MDDUJ9220153201809                D89828070300PT4U20180918000030SPEAKER ASM                   M IMCTM S9TS02 TNTH  09020IMCT  S9 PTB  00015                    2230 SR        000000000000 DENSO TEN (THAILAND)180LUNU0016016                                                                                                                              *          20180913 IMCT                IMCT                                                                                                                    WMF1809133.TXT
MDDUJ9220154201809                D89828070300PT4U20180919000030SPEAKER ASM                   M IMCTM S9TS02 TNTH  09020IMCT  S9 PTB  00015                    0830 SR        000000000000 DENSO TEN (THAILAND)180LULU0054054                                                                                                                              *          20180913 IMCT                IMCT                                                                                                                    WMF1809133.TXT
MDDUJ9220155201809                D89828070300PT4U20180919000030SPEAKER ASM                   M IMCTM S9TS02 TNTH  09020IMCT  S9 PTB  00015                    1600 SR        000000000000 DENSO TEN (THAILAND)180LULU0055055                                                                                                                              *          20180913 IMCT                IMCT                                                                                                                    WMF1809133.TXT
MDDUJ9220156201809                D89848584200PT4U20180918000015RADIO;AM/FM CD D              M IMCTM S9CO001TNTH  09020IMCT  S9 PTB  00003                    2230 SR        000000000000 DENSO TEN (THAILAND)180LUNU0016016                                                                                                                              *          20180913 IMCT                IMCT                                                                                                                    WMF1809133.TXT
MDEDJ9263459201809                D89828070100PV1D20180918000030SPEAKER ASM                   M IMCTM S5MB11 TNTH  09020IMCT  S5 PTB  00004                    2230 SR        000000000000 DENSO TEN (THAILAND)18076UL0021021                                                                                                                              *          20180913 IMCT                IMCT                                                                                                                    WMF1809133.TXT
MDEDJ9263460201809                D89828070100PV1D20180919000090SPEAKER ASM                   M IMCTM S5MB11 TNTH  09020IMCT  S5 PTB  00004                    0230 SR        000000000000 DENSO TEN (THAILAND)18061UL002702818076UL0022022                                                                                                                *          20180913 IMCT                IMCT                                                                                                                    WMF1809133.TXT
MDEDJ9263461201809                D89828070100PV1D20180919000060SPEAKER ASM                   M IMCTM S5MB11 TNTH  09020IMCT  S5 PTB  00004                    0400 SR        000000000000 DENSO TEN (THAILAND)18082XL0012013                                                                                                                              *          20180913 IMCT                IMCT                                                                                                                    WMF1809133.TXT
MDEDJ9263462201809                D89828070100PV1D20180919000060SPEAKER ASM                   M IMCTM S5MB11 TNTH  09020IMCT  S5 PTB  00004                    0830 SR        000000000000 DENSO TEN (THAILAND)18001YL0018019                                                                                                                              *          20180913 IMCT                IMCT                                                                                                                    WMF1809133.TXT
MDEDJ9263463201809                D89828070100PV1D20180919000060SPEAKER ASM                   M IMCTM S5MB11 TNTH  09020IMCT  S5 PTB  00004                    1030 SR        000000000000 DENSO TEN (THAILAND)18066UL0013014                                                                                                                              *          20180913 IMCT                IMCT                                                                                                                    WMF1809133.TXT
MDEDJ9263464201809                D89828070100PV1D20180919000030SPEAKER ASM                   M IMCTM S5MB11 TNTH  09020IMCT  S5 PTB  00004                    1600 SR        000000000000 DENSO TEN (THAILAND)18014XL0002002                                                                                                                              *          20180913 IMCT                IMCT                                                                                                                    WMF1809133.TXT
MDEDJ9263465201809                D89828070100PV1D20180919000030SPEAKER ASM                   M IMCTM S5MB11 TNTH  09020IMCT  S5 PTB  00004                    2100 SR        000000000000 DENSO TEN (THAILAND)18065XL0011011                                                                                                                              *          20180913 IMCT                IMCT                                                                                                                    WMF1809133.TXT
MDEDJ9263466201809                D89828070100PV4D20180919000030SPEAKER ASM                   M IMCTM S0FL05 TNTH  09020IMCT  S0 PTB  00004                    0230 SR        000000000000 DENSO TEN (THAILAND)18099UU0039039                                                                                                                              *          20180913 IMCT                IMCT                                                                                                                    WMF1809133.TXT
MDEDJ9263467201809                D89828070100PV4D20180919000030SPEAKER ASM                   M IMCTM S0FL05 TNTH  09020IMCT  S0 PTB  00004                    1030 SR        000000000000 DENSO TEN (THAILAND)18004XU0001001                                                                                                                              *          20180913 IMCT                IMCT                                                                                                                    WMF1809133.TXT
MDEDJ9263468201809                D89828070100PV4D20180919000030SPEAKER ASM                   M IMCTM S0FL05 TNTH  09020IMCT  S0 PTB  00004                    1300 SR        000000000000 DENSO TEN (THAILAND)18098UU0045045                                                                                                                              *          20180913 IMCT                IMCT                                                                                                                    WMF1809133.TXT
MDEDJ9263469201809                D89828070100PV4D20180919000030SPEAKER ASM                   M IMCTM S0FL05 TNTH  09020IMCT  S0 PTB  00004                    1600 SR        000000000000 DENSO TEN (THAILAND)18099UU0040040                                                                                                                              *          20180913 IMCT                IMCT                                                                                                                    WMF1809133.TXT
MDEDJ9263470201809                D89828070100PV4D20180919000030SPEAKER ASM                   M IMCTM S0FL05 TNTH  09020IMCT  S0 PTB  00004                    2230 SR        000000000000 DENSO TEN (THAILAND)18079UU0001001                                                                                                                              *          20180913 IMCT                IMCT                                                                                                                    WMF1809133.TXT
MDEDJ9263471201809                D89828070200PV1D20180919000060SPEAKER ASM                   M IMCTM S5MA14 TNTH  09020IMCT  S5 PTB  00005                    0830 SR        000000000000 DENSO TEN (THAILAND)18001YL0018019                                                                                                                              *          20180913 IMCT                IMCT                                                                                                                    WMF1809133.TXT
MDEDJ9263472201809                D89828070200PV1D20180919000060SPEAKER ASM                   M IMCTM S5MA14 TNTH  09020IMCT  S5 PTB  00005                    1030 SR        000000000000 DENSO TEN (THAILAND)18066UL0013014                                                                                                                              *          20180913 IMCT                IMCT                                                                                                                    WMF1809133.TXT
MDEDJ9263473201809                D89828070200PV1D20180919000030SPEAKER ASM                   M IMCTM S5MA14 TNTH  09020IMCT  S5 PTB  00005                    2100 SR        000000000000 DENSO TEN (THAILAND)18065XL0011011                                                                                                                              *          20180913 IMCT                IMCT                                                                                                                    WMF1809133.TXT
MDEDJ9263474201809                D89828070200PV4D20180919000030SPEAKER ASM                   M IMCTM S0FR05 TNTH  09020IMCT  S0 PTB  00005                    0230 SR        000000000000 DENSO TEN (THAILAND)18099UU0039039                                                                                                                              *          20180913 IMCT                IMCT                                                                                                                    WMF1809133.TXT
MDEDJ9263475201809                D89828070200PV4D20180919000030SPEAKER ASM                   M IMCTM S0FR05 TNTH  09020IMCT  S0 PTB  00005                    1300 SR        000000000000 DENSO TEN (THAILAND)18098UU0045045                                                                                                                              *          20180913 IMCT                IMCT                                                                                                                    WMF1809133.TXT
MDEDJ9263476201809                D89828070200PV4D20180919000030SPEAKER ASM                   M IMCTM S0FR05 TNTH  09020IMCT  S0 PTB  00005                    1600 SR        000000000000 DENSO TEN (THAILAND)18099UU0040040                                                                                                                              *          20180913 IMCT                IMCT                                                                                                                    WMF1809133.TXT
MDEDJ9263477201809                D89828070200PV4D20180919000030SPEAKER ASM                   M IMCTM S0FR05 TNTH  09020IMCT  S0 PTB  00005                    2230 SR        000000000000 DENSO TEN (THAILAND)18079UU0001001                                                                                                                              *          20180913 IMCT                IMCT                                                                                                                    WMF1809133.TXT
MDEDJ9263478201809                D89828070300PT1D20180918000030SPEAKER ASM                   M IMCTM S5NB082TNTH  09020IMCT  S5 PTB  00015                    2230 SR        000000000000 DENSO TEN (THAILAND)18076UL0021021                                                                                                                              *          20180913 IMCT                IMCT                                                                                                                    WMF1809133.TXT
MDEDJ9263479201809                D89828070300PT1D20180919000090SPEAKER ASM                   M IMCTM S5NB082TNTH  09020IMCT  S5 PTB  00015                    0230 SR        000000000000 DENSO TEN (THAILAND)18061UL002702818076UL0022022                                                                                                                *          20180913 IMCT                IMCT                                                                                                                    WMF1809133.TXT
MDEDJ9263480201809                D89828070300PT1D20180919000060SPEAKER ASM                   M IMCTM S5NB082TNTH  09020IMCT  S5 PTB  00015                    0830 SR        000000000000 DENSO TEN (THAILAND)18001YL0018019                                                                                                                              *          20180913 IMCT                IMCT                                                                                                                    WMF1809133.TXT
MDEDJ9263481201809                D89828070300PT1D20180919000060SPEAKER ASM                   M IMCTM S5NB082TNTH  09020IMCT  S5 PTB  00015                    1030 SR        000000000000 DENSO TEN (THAILAND)18066UL0013014                                                                                                                              *          20180913 IMCT                IMCT                                                                                                                    WMF1809133.TXT
MDEDJ9263482201809                D89828070300PT1D20180919000030SPEAKER ASM                   M IMCTM S5NB082TNTH  09020IMCT  S5 PTB  00015                    1600 SR        000000000000 DENSO TEN (THAILAND)18014XL0002002                                                                                                                              *          20180913 IMCT                IMCT                                                                                                                    WMF1809133.TXT
MDEDJ9263483201809                D89828070300PT1D20180919000030SPEAKER ASM                   M IMCTM S5NB082TNTH  09020IMCT  S5 PTB  00015                    2100 SR        000000000000 DENSO TEN (THAILAND)18065XL0011011                                                                                                                              *          20180913 IMCT                IMCT                                                                                                                    WMF1809133.TXT
MDEDJ9263484201809                D89828070300PT4D20180919000030SPEAKER ASM                   M IMCTM S9TS02 TNTH  09020IMCT  S9 PTB  00015                    0230 SR        000000000000 DENSO TEN (THAILAND)18099UU0039039                                                                                                                              *          20180913 IMCT                IMCT                                                                                                                    WMF1809133.TXT
MDEDJ9263485201809                D89828070300PT4D20180919000030SPEAKER ASM                   M IMCTM S9TS02 TNTH  09020IMCT  S9 PTB  00015                    1030 SR        000000000000 DENSO TEN (THAILAND)18004XU0001001                                                                                                                              *          20180913 IMCT                IMCT                                                                                                                    WMF1809133.TXT
MDEDJ9263486201809                D89828070300PT4D20180919000030SPEAKER ASM                   M IMCTM S9TS02 TNTH  09020IMCT  S9 PTB  00015                    1300 SR        000000000000 DENSO TEN (THAILAND)18098UU0045045                                                                                                                              *          20180913 IMCT                IMCT                                                                                                                    WMF1809133.TXT
MDEDJ9263487201809                D89828070300PT4D20180919000030SPEAKER ASM                   M IMCTM S9TS02 TNTH  09020IMCT  S9 PTB  00015                    1600 SR        000000000000 DENSO TEN (THAILAND)18099UU0040040                                                                                                                              *          20180913 IMCT                IMCT                                                                                                                    WMF1809133.TXT
MDEDJ9263488201809                D89828070300PT4D20180919000030SPEAKER ASM                   M IMCTM S9TS02 TNTH  09020IMCT  S9 PTB  00015                    2230 SR        000000000000 DENSO TEN (THAILAND)18079UU0001001                                                                                                                              *          20180913 IMCT                IMCT                                                                                                                    WMF1809133.TXT
MDEDJ9263489201809                D89848581800PT1D20180919000030RADIO;AM/FM CD D              M IMCTM S5NC06 TNTH  09020IMCT  S5 PTB  00003                    0230 SR        000000000000 DENSO TEN (THAILAND)18061UL0027028                                                                                                                              *          20180913 IMCT                IMCT                                                                                                                    WMF1809133.TXT
MDEDJ9263490201809                D89848581800PT1D20180919000030RADIO;AM/FM CD D              M IMCTM S5NC06 TNTH  09020IMCT  S5 PTB  00003                    1030 SR        000000000000 DENSO TEN (THAILAND)18066UL0013014                                                                                                                              *          20180913 IMCT                IMCT                                                                                                                    WMF1809133.TXT
MDEDJ9263491201809                D89848581800PT4D20180919000015RADIO;AM/FM CD D              M IMCTM S9CO001TNTH  09020IMCT  S9 PTB  00003                    1300 SR        000000000000 DENSO TEN (THAILAND)18098UU0045045                                                                                                                              *          20180913 IMCT                IMCT                                                                                                                    WMF1809133.TXT
MDEDJ9263492201809                D89848581800PT4D20180919000015RADIO;AM/FM CD D              M IMCTM S9CO001TNTH  09020IMCT  S9 PTB  00003                    2230 SR        000000000000 DENSO TEN (THAILAND)18079UU0001001                                                                                                                              *          20180913 IMCT                IMCT                                                                                                                    WMF1809133.TXT
MDEDJ9263493201809                D89848582800PT1D20180919000015RADIO;AM/FM CD D              M IMCTM S5NC06 TNTH  09020IMCT  S5 PTB  00003                    1600 SR        000000000000 DENSO TEN (THAILAND)18014XL0002002                                                                                                                              *          20180913 IMCT                IMCT                                                                                                                    WMF1809133.TXT
MDEDJ9263494201809                D89848582800PT4D20180919000015RADIO;AM/FM CD D              M IMCTM S9CO001TNTH  09020IMCT  S9 PTB  00003                    1030 SR        000000000000 DENSO TEN (THAILAND)18004XU0001001                                                                                                                              *          20180913 IMCT                IMCT                                                                                                                    WMF1809133.TXT
MDEUJ9229013201809                D89828070100PT4U20180919000030SPEAKER ASM                   M IMCTM S0FL05 TNTH  09020IMCT  S0 PTB  00004                    0230 SR        000000000000 DENSO TEN (THAILAND)180D06U0012012                                                                                                                              *          20180913 IMCT                IMCT                                                                                                                    WMF1809133.TXT
MDEUJ9229014201809                D89828070100PT4U20180919000030SPEAKER ASM                   M IMCTM S0FL05 TNTH  09020IMCT  S0 PTB  00004                    0400 SR        000000000000 DENSO TEN (THAILAND)18021UU0180180                                                                                                                              *          20180913 IMCT                IMCT                                                                                                                    WMF1809133.TXT
MDEUJ9229015201809                D89828070100PT4U20180919000030SPEAKER ASM                   M IMCTM S0FL05 TNTH  09020IMCT  S0 PTB  00004                    1300 SR        000000000000 DENSO TEN (THAILAND)18015UU0042042                                                                                                                              *          20180913 IMCT                IMCT                                                                                                                    WMF1809133.TXT
MDEUJ9229016201809                D89828070100PT4U20180919000030SPEAKER ASM                   M IMCTM S0FL05 TNTH  09020IMCT  S0 PTB  00004                    2100 SR        000000000000 DENSO TEN (THAILAND)18021UU0181181                                                                                                                              *          20180913 IMCT                IMCT                                                                                                                    WMF1809133.TXT
MDEUJ9229017201809                D89828070200PV4U20180919000030SPEAKER ASM                   M IMCTM S0FR05 TNTH  09020IMCT  S0 PTB  00005                    0230 SR        000000000000 DENSO TEN (THAILAND)180D06U0012012                                                                                                                              *          20180913 IMCT                IMCT                                                                                                                    WMF1809133.TXT
MDEUJ9229018201809                D89828070200PV4U20180919000030SPEAKER ASM                   M IMCTM S0FR05 TNTH  09020IMCT  S0 PTB  00005                    0400 SR        000000000000 DENSO TEN (THAILAND)18021UU0180180                                                                                                                              *          20180913 IMCT                IMCT                                                                                                                    WMF1809133.TXT
MDEUJ9229019201809                D89828070200PV4U20180919000030SPEAKER ASM                   M IMCTM S0FR05 TNTH  09020IMCT  S0 PTB  00005                    1300 SR        000000000000 DENSO TEN (THAILAND)18015UU0042042                                                                                                                              *          20180913 IMCT                IMCT                                                                                                                    WMF1809133.TXT
MDEUJ9229020201809                D89828070200PV4U20180919000030SPEAKER ASM                   M IMCTM S0FR05 TNTH  09020IMCT  S0 PTB  00005                    2100 SR        000000000000 DENSO TEN (THAILAND)18021UU0181181                                                                                                                              *          20180913 IMCT                IMCT                                                                                                                    WMF1809133.TXT
MDEUJ9229021201809                D89828070300PT4U20180919000030SPEAKER ASM                   M IMCTM S9TS02 TNTH  09020IMCT  S9 PTB  00015                    0230 SR        000000000000 DENSO TEN (THAILAND)180D06U0012012                                                                                                                              *          20180913 IMCT                IMCT                                                                                                                    WMF1809133.TXT
MDEUJ9229022201809                D89828070300PT4U20180919000030SPEAKER ASM                   M IMCTM S9TS02 TNTH  09020IMCT  S9 PTB  00015                    0400 SR        000000000000 DENSO TEN (THAILAND)18021UU0180180                                                                                                                              *          20180913 IMCT                IMCT                                                                                                                    WMF1809133.TXT
MDEUJ9229023201809                D89828070300PT4U20180919000030SPEAKER ASM                   M IMCTM S9TS02 TNTH  09020IMCT  S9 PTB  00015                    1300 SR        000000000000 DENSO TEN (THAILAND)18015UU0042042                                                                                                                              *          20180913 IMCT                IMCT                                                                                                                    WMF1809133.TXT
MDEUJ9229024201809                D89828070300PT4U20180919000030SPEAKER ASM                   M IMCTM S9TS02 TNTH  09020IMCT  S9 PTB  00015                    2100 SR        000000000000 DENSO TEN (THAILAND)18021UU0181181                                                                                                                              *          20180913 IMCT                IMCT                                                                                                                    WMF1809133.TXT
