REC2018092520180925ISUZU                              29     
MDD6J9275788201810                D89828070100PV5620180928000060SPEAKER ASM                   M IMCTM G9B114 TNTH  09020G/WAY G9 PTB  00004                    1530 GW        0000000000005DENSO TEN (THAILAND)190MRTG0001001                                                                                                                              *          20180925 IMCT                IMCT                                                                                                                    WMF1809252.TXT
MDD6J9275789201810                D89828070100PV5620180928000060SPEAKER ASM                   M IMCTM G9B114 TNTH  09020G/WAY G9 PTB  00004                    2100 GW        0000000000005DENSO TEN (THAILAND)190MRGG0001001                                                                                                                              *          20180925 IMCT                IMCT                                                                                                                    WMF1809252.TXT
MDD6J9275790201810                D89828070100PV5620180928000060SPEAKER ASM                   M IMCTM G9B114 TNTH  09020G/WAY G9 PTB  00004                    2300 GW        0000000000005DENSO TEN (THAILAND)190MRMG0001001                                                                                                                              *          20180925 IMCT                IMCT                                                                                                                    WMF1809252.TXT
MDD6J9275791201810                D89828070100PV5620180929000060SPEAKER ASM                   M IMCTM G9B114 TNTH  09020G/WAY G9 PTB  00004                    0200 GW        0000000000005DENSO TEN (THAILAND)190MRMG0002002                                                                                                                              *          20180925 IMCT                IMCT                                                                                                                    WMF1809252.TXT
MDD6J9275792201810                D89828070100PV5620180929000060SPEAKER ASM                   M IMCTM G9B114 TNTH  09020G/WAY G9 PTB  00004                    0330 GW        0000000000005DENSO TEN (THAILAND)190MPHG0001001                                                                                                                              *          20180925 IMCT                IMCT                                                                                                                    WMF1809252.TXT
MDD6J9275793201810                D89828070100PV5620181001000060SPEAKER ASM                   M IMCTM G9B114 TNTH  09020G/WAY G9 PTB  00004                    0900 GW        0000000000005DENSO TEN (THAILAND)190MREG0001001                                                                                                                              *          20180925 IMCT                IMCT                                                                                                                    WMF1809252.TXT
MDD6J9275794201810                D89828070100PV5620181001000060SPEAKER ASM                   M IMCTM G9B114 TNTH  09020G/WAY G9 PTB  00004                    1100 GW        0000000000005DENSO TEN (THAILAND)190MRJG0001001                                                                                                                              *          20180925 IMCT                IMCT                                                                                                                    WMF1809252.TXT
MDD6J9275795201810                D89828070100PV5620181001000060SPEAKER ASM                   M IMCTM G9B114 TNTH  09020G/WAY G9 PTB  00004                    1400 GW        0000000000005DENSO TEN (THAILAND)190MREG0002002                                                                                                                              *          20180925 IMCT                IMCT                                                                                                                    WMF1809252.TXT
MDD6J9275796201810                D89828070200PV5620180928000060SPEAKER ASM                   M IMCTM G9F132 TNTH  09020G/WAY G9 PTB  00005                    1530 GW        0000000000005DENSO TEN (THAILAND)190MRTG0001001                                                                                                                              *          20180925 IMCT                IMCT                                                                                                                    WMF1809252.TXT
MDD6J9275797201810                D89828070200PV5620180928000060SPEAKER ASM                   M IMCTM G9F132 TNTH  09020G/WAY G9 PTB  00005                    2100 GW        0000000000005DENSO TEN (THAILAND)190MRGG0001001                                                                                                                              *          20180925 IMCT                IMCT                                                                                                                    WMF1809252.TXT
MDD6J9275798201810                D89828070200PV5620180928000060SPEAKER ASM                   M IMCTM G9F132 TNTH  09020G/WAY G9 PTB  00005                    2300 GW        0000000000005DENSO TEN (THAILAND)190MRMG0001001                                                                                                                              *          20180925 IMCT                IMCT                                                                                                                    WMF1809252.TXT
MDD6J9275799201810                D89828070200PV5620180929000060SPEAKER ASM                   M IMCTM G9F132 TNTH  09020G/WAY G9 PTB  00005                    0200 GW        0000000000005DENSO TEN (THAILAND)190MRMG0002002                                                                                                                              *          20180925 IMCT                IMCT                                                                                                                    WMF1809252.TXT
MDD6J9275800201810                D89828070200PV5620181001000060SPEAKER ASM                   M IMCTM G9F132 TNTH  09020G/WAY G9 PTB  00005                    0900 GW        0000000000005DENSO TEN (THAILAND)190MREG0001001                                                                                                                              *          20180925 IMCT                IMCT                                                                                                                    WMF1809252.TXT
MDD6J9275801201810                D89828070200PV5620181001000060SPEAKER ASM                   M IMCTM G9F132 TNTH  09020G/WAY G9 PTB  00005                    1100 GW        0000000000005DENSO TEN (THAILAND)190MRJG0001001                                                                                                                              *          20180925 IMCT                IMCT                                                                                                                    WMF1809252.TXT
MDD6J9275802201810                D89828070200PV5620181001000060SPEAKER ASM                   M IMCTM G9F132 TNTH  09020G/WAY G9 PTB  00005                    1400 GW        0000000000005DENSO TEN (THAILAND)190MREG0002002                                                                                                                              *          20180925 IMCT                IMCT                                                                                                                    WMF1809252.TXT
MDD6J9275803201810                D89828070300PT5620180928000060SPEAKER ASM                   M IMCTM G9JA33 TNTH  09020G/WAY G9 PTB  00015                    1530 GW        0000000000005DENSO TEN (THAILAND)190MRTG0001001                                                                                                                              *          20180925 IMCT                IMCT                                                                                                                    WMF1809252.TXT
MDD6J9275804201810                D89828070300PT5620180928000060SPEAKER ASM                   M IMCTM G9JA33 TNTH  09020G/WAY G9 PTB  00015                    2100 GW        0000000000005DENSO TEN (THAILAND)190MRGG0001001                                                                                                                              *          20180925 IMCT                IMCT                                                                                                                    WMF1809252.TXT
MDD6J9275805201810                D89828070300PT5620180928000060SPEAKER ASM                   M IMCTM G9JA33 TNTH  09020G/WAY G9 PTB  00015                    2300 GW        0000000000005DENSO TEN (THAILAND)190MRMG0001001                                                                                                                              *          20180925 IMCT                IMCT                                                                                                                    WMF1809252.TXT
MDD6J9275806201810                D89828070300PT5620180929000060SPEAKER ASM                   M IMCTM G9JA33 TNTH  09020G/WAY G9 PTB  00015                    0200 GW        0000000000005DENSO TEN (THAILAND)190MRMG0002002                                                                                                                              *          20180925 IMCT                IMCT                                                                                                                    WMF1809252.TXT
MDD6J9275807201810                D89828070300PT5620180929000060SPEAKER ASM                   M IMCTM G9JA33 TNTH  09020G/WAY G9 PTB  00015                    0330 GW        0000000000005DENSO TEN (THAILAND)190MPHG0001001                                                                                                                              *          20180925 IMCT                IMCT                                                                                                                    WMF1809252.TXT
MDD6J9275808201810                D89828070300PT5620181001000060SPEAKER ASM                   M IMCTM G9JA33 TNTH  09020G/WAY G9 PTB  00015                    0900 GW        0000000000005DENSO TEN (THAILAND)190MREG0001001                                                                                                                              *          20180925 IMCT                IMCT                                                                                                                    WMF1809252.TXT
MDD6J9275809201810                D89828070300PT5620181001000060SPEAKER ASM                   M IMCTM G9JA33 TNTH  09020G/WAY G9 PTB  00015                    1100 GW        0000000000005DENSO TEN (THAILAND)190MRJG0001001                                                                                                                              *          20180925 IMCT                IMCT                                                                                                                    WMF1809252.TXT
MDD6J9275810201810                D89828070300PT5620181001000060SPEAKER ASM                   M IMCTM G9JA33 TNTH  09020G/WAY G9 PTB  00015                    1400 GW        0000000000005DENSO TEN (THAILAND)190MREG0002002                                                                                                                              *          20180925 IMCT                IMCT                                                                                                                    WMF1809252.TXT
MDD6J9275811201810                D89831228300PT5620180929000030RADIO;AM/FM,CD                M IMCTM G9J213 TNTH  09020G/WAY G9 CPB  00003                    0330 GW        0000000000005DENSO TEN (THAILAND)190MPHG0001001                                                                                                                              *          20180925 IMCT                IMCT                                                                                                                    WMF1809252.TXT
MDD6J9275812201810                D89831228400PT5620180928000030RADIO;AM/FM,CD                M IMCTM G9J213 TNTH  09020G/WAY G9 CPB  00003                    2100 GW        0000000000005DENSO TEN (THAILAND)190MRGG0001001                                                                                                                              *          20180925 IMCT                IMCT                                                                                                                    WMF1809252.TXT
MDD6J9275813201810                D89831228400PT5620181001000030RADIO;AM/FM,CD                M IMCTM G9J213 TNTH  09020G/WAY G9 CPB  00003                    0900 GW        0000000000005DENSO TEN (THAILAND)190MREG0001001                                                                                                                              *          20180925 IMCT                IMCT                                                                                                                    WMF1809252.TXT
MDD6J9275814201810                D89831228400PT5620181001000030RADIO;AM/FM,CD                M IMCTM G9J213 TNTH  09020G/WAY G9 CPB  00003                    1400 GW        0000000000005DENSO TEN (THAILAND)190MREG0002002                                                                                                                              *          20180925 IMCT                IMCT                                                                                                                    WMF1809252.TXT
MDD6J9275815201810                D89848581500PT5620180928000030RADIO;AM/FM CD D              M IMCTM G9J213 TNTH  09020G/WAY G9 PTB  00003                    1530 GW        0000000000005DENSO TEN (THAILAND)190MRTG0001001                                                                                                                              *          20180925 IMCT                IMCT                                                                                                                    WMF1809252.TXT
MDD6J9275816201810                D89848581500PT5620181001000030RADIO;AM/FM CD D              M IMCTM G9J213 TNTH  09020G/WAY G9 PTB  00003                    1100 GW        0000000000005DENSO TEN (THAILAND)190MRJG0001001                                                                                                                              *          20180925 IMCT                IMCT                                                                                                                    WMF1809252.TXT
