REC2018091420180914ISUZU                              24     
MDD6J9242750201809                D89821984430PT5620180919000030RADIO;AM/FM,CD                M IMCTM G9J213 TNTH  09020G/WAY G9 PTB  00005                    2100 GW        0000000000005DENSO TEN (THAILAND)180LRBG0037037                                                                                                                              *          20180914 IMCT                IMCT                                                                                                                    WMF1809145.TXT
MDD6J9242751201809                D89828070100PV5620180919000060SPEAKER ASM                   M IMCTM G9B114 TNTH  09020G/WAY G9 PTB  00004                    1530 GW        0000000000005DENSO TEN (THAILAND)180LPGG0220220                                                                                                                              *          20180914 IMCT                IMCT                                                                                                                    WMF1809145.TXT
MDD6J9242752201809                D89828070100PV5620180919000060SPEAKER ASM                   M IMCTM G9B114 TNTH  09020G/WAY G9 PTB  00004                    2100 GW        0000000000005DENSO TEN (THAILAND)180LRBG0037037                                                                                                                              *          20180914 IMCT                IMCT                                                                                                                    WMF1809145.TXT
MDD6J9242753201809                D89828070100PV5620180919000060SPEAKER ASM                   M IMCTM G9B114 TNTH  09020G/WAY G9 PTB  00004                    2300 GW        0000000000005DENSO TEN (THAILAND)180LRRG0031031                                                                                                                              *          20180914 IMCT                IMCT                                                                                                                    WMF1809145.TXT
MDD6J9242754201809                D89828070100PV5620180920000060SPEAKER ASM                   M IMCTM G9B114 TNTH  09020G/WAY G9 PTB  00004                    0200 GW        0000000000005DENSO TEN (THAILAND)180LPDG0015015                                                                                                                              *          20180914 IMCT                IMCT                                                                                                                    WMF1809145.TXT
MDD6J9242755201809                D89828070100PV5620180920000060SPEAKER ASM                   M IMCTM G9B114 TNTH  09020G/WAY G9 PTB  00004                    0330 GW        0000000000005DENSO TEN (THAILAND)180LRLG0142142                                                                                                                              *          20180914 IMCT                IMCT                                                                                                                    WMF1809145.TXT
MDD6J9242756201809                D89828070100PV5620180920000060SPEAKER ASM                   M IMCTM G9B114 TNTH  09020G/WAY G9 PTB  00004                    0900 GW        0000000000005DENSO TEN (THAILAND)180LREG0176176                                                                                                                              *          20180914 IMCT                IMCT                                                                                                                    WMF1809145.TXT
MDD6J9242757201809                D89828070100PV5620180920000060SPEAKER ASM                   M IMCTM G9B114 TNTH  09020G/WAY G9 PTB  00004                    1100 GW        0000000000005DENSO TEN (THAILAND)180LPKG0069069                                                                                                                              *          20180914 IMCT                IMCT                                                                                                                    WMF1809145.TXT
MDD6J9242758201809                D89828070100PV5620180920000060SPEAKER ASM                   M IMCTM G9B114 TNTH  09020G/WAY G9 PTB  00004                    1400 GW        0000000000005DENSO TEN (THAILAND)180LRLG0143143                                                                                                                              *          20180914 IMCT                IMCT                                                                                                                    WMF1809145.TXT
MDD6J9242759201809                D89828070200PV5620180919000060SPEAKER ASM                   M IMCTM G9F132 TNTH  09020G/WAY G9 PTB  00005                    2300 GW        0000000000005DENSO TEN (THAILAND)180LRRG0031031                                                                                                                              *          20180914 IMCT                IMCT                                                                                                                    WMF1809145.TXT
MDD6J9242760201809                D89828070200PV5620180920000060SPEAKER ASM                   M IMCTM G9F132 TNTH  09020G/WAY G9 PTB  00005                    0330 GW        0000000000005DENSO TEN (THAILAND)180LRLG0142142                                                                                                                              *          20180914 IMCT                IMCT                                                                                                                    WMF1809145.TXT
MDD6J9242761201809                D89828070200PV5620180920000060SPEAKER ASM                   M IMCTM G9F132 TNTH  09020G/WAY G9 PTB  00005                    0900 GW        0000000000005DENSO TEN (THAILAND)180LREG0176176                                                                                                                              *          20180914 IMCT                IMCT                                                                                                                    WMF1809145.TXT
MDD6J9242762201809                D89828070200PV5620180920000060SPEAKER ASM                   M IMCTM G9F132 TNTH  09020G/WAY G9 PTB  00005                    1400 GW        0000000000005DENSO TEN (THAILAND)180LRLG0143143                                                                                                                              *          20180914 IMCT                IMCT                                                                                                                    WMF1809145.TXT
MDD6J9242763201809                D89828070300PT5620180919000060SPEAKER ASM                   M IMCTM G9JA33 TNTH  09020G/WAY G9 PTB  00015                    1530 GW        0000000000005DENSO TEN (THAILAND)180LPGG0220220                                                                                                                              *          20180914 IMCT                IMCT                                                                                                                    WMF1809145.TXT
MDD6J9242764201809                D89828070300PT5620180919000060SPEAKER ASM                   M IMCTM G9JA33 TNTH  09020G/WAY G9 PTB  00015                    2300 GW        0000000000005DENSO TEN (THAILAND)180LRRG0031031                                                                                                                              *          20180914 IMCT                IMCT                                                                                                                    WMF1809145.TXT
MDD6J9242765201809                D89828070300PT5620180920000060SPEAKER ASM                   M IMCTM G9JA33 TNTH  09020G/WAY G9 PTB  00015                    0200 GW        0000000000005DENSO TEN (THAILAND)180LPDG0015015                                                                                                                              *          20180914 IMCT                IMCT                                                                                                                    WMF1809145.TXT
MDD6J9242766201809                D89828070300PT5620180920000060SPEAKER ASM                   M IMCTM G9JA33 TNTH  09020G/WAY G9 PTB  00015                    0330 GW        0000000000005DENSO TEN (THAILAND)180LRLG0142142                                                                                                                              *          20180914 IMCT                IMCT                                                                                                                    WMF1809145.TXT
MDD6J9242767201809                D89828070300PT5620180920000060SPEAKER ASM                   M IMCTM G9JA33 TNTH  09020G/WAY G9 PTB  00015                    0900 GW        0000000000005DENSO TEN (THAILAND)180LREG0176176                                                                                                                              *          20180914 IMCT                IMCT                                                                                                                    WMF1809145.TXT
MDD6J9242768201809                D89828070300PT5620180920000060SPEAKER ASM                   M IMCTM G9JA33 TNTH  09020G/WAY G9 PTB  00015                    1100 GW        0000000000005DENSO TEN (THAILAND)180LPKG0069069                                                                                                                              *          20180914 IMCT                IMCT                                                                                                                    WMF1809145.TXT
MDD6J9242769201809                D89828070300PT5620180920000060SPEAKER ASM                   M IMCTM G9JA33 TNTH  09020G/WAY G9 PTB  00015                    1400 GW        0000000000005DENSO TEN (THAILAND)180LRLG0143143                                                                                                                              *          20180914 IMCT                IMCT                                                                                                                    WMF1809145.TXT
MDD6J9242770201809                D89831228300PT5620180919000030RADIO;AM/FM,CD                M IMCTM G9J213 TNTH  09020G/WAY G9 CPB  00003                    1530 GW        0000000000005DENSO TEN (THAILAND)180LPGG0220220                                                                                                                              *          20180914 IMCT                IMCT                                                                                                                    WMF1809145.TXT
MDD6J9242771201809                D89831228300PT5620180920000030RADIO;AM/FM,CD                M IMCTM G9J213 TNTH  09020G/WAY G9 CPB  00003                    0200 GW        0000000000005DENSO TEN (THAILAND)180LPDG0015015                                                                                                                              *          20180914 IMCT                IMCT                                                                                                                    WMF1809145.TXT
MDD6J9242772201809                D89831228400PT5620180920000030RADIO;AM/FM,CD                M IMCTM G9J213 TNTH  09020G/WAY G9 CPB  00003                    0900 GW        0000000000005DENSO TEN (THAILAND)180LREG0176176                                                                                                                              *          20180914 IMCT                IMCT                                                                                                                    WMF1809145.TXT
MDD6J9242773201809                D89848581600PT5620180920000030RADIO;AM/FM CD D              M IMCTM G9J213 TNTH  09020G/WAY G9 PTB  00003                    1100 GW        0000000000005DENSO TEN (THAILAND)180LPKG0069069                                                                                                                              *          20180914 IMCT                IMCT                                                                                                                    WMF1809145.TXT
