REC2018090520180905ISUZU                              22     
MAKK89058272201809D1               89825451200P3YK20180917000030SPEAKER ASM;ROOF              M IMCTM CM1    TNTH  09020IMKDC KA PTB  00036  K0                0911DES        000000000000 DENSO TEN (THAILAND)                                                                                                                                            *G         20180905 IMCT                IMCT                                                                                                                    WMF1809057.TXT
MAKK89058273201809D1               89825451200P3YK20180918000030SPEAKER ASM;ROOF              M IMCTM CM1    TNTH  09020IMKDC KA PTB  00036  K0                0911DES        000000000000 DENSO TEN (THAILAND)                                                                                                                                            *G         20180905 IMCT                IMCT                                                                                                                    WMF1809057.TXT
MAKK89058274201809D1               89825451200P3YK20180919000030SPEAKER ASM;ROOF              M IMCTM CM1    TNTH  09020IMKDC KA PTB  00036  K0                0911DES        000000000000 DENSO TEN (THAILAND)                                                                                                                                            *G         20180905 IMCT                IMCT                                                                                                                    WMF1809057.TXT
MAKK89058275201809D1               89825451200P3YK20180921000030SPEAKER ASM;ROOF              M IMCTM CM1    TNTH  09020IMKDC KA PTB  00036  K0                0911DES        000000000000 DENSO TEN (THAILAND)                                                                                                                                            *G         20180905 IMCT                IMCT                                                                                                                    WMF1809057.TXT
MAKK89058276201809D1               89828070100P3YK20180917000300SPEAKER ASM                   M IMCTM CM1    TNTH  09020IMKDC KA PTB  00004  K0                0911DES        000000000000 DENSO TEN (THAILAND)                                                                                                                                            *G         20180905 IMCT                IMCT                                                                                                                    WMF1809057.TXT
MAKK89058277201809D1               89828070100P3YK20180918000330SPEAKER ASM                   M IMCTM CM1    TNTH  09020IMKDC KA PTB  00004  K0                0911DES        000000000000 DENSO TEN (THAILAND)                                                                                                                                            *G         20180905 IMCT                IMCT                                                                                                                    WMF1809057.TXT
MAKK89058278201809D1               89828070100P3YK20180919000240SPEAKER ASM                   M IMCTM CM1    TNTH  09020IMKDC KA PTB  00004  K0                0911DES        000000000000 DENSO TEN (THAILAND)                                                                                                                                            *G         20180905 IMCT                IMCT                                                                                                                    WMF1809057.TXT
MAKK89058279201809D1               89828070100P3YK20180920000240SPEAKER ASM                   M IMCTM CM1    TNTH  09020IMKDC KA PTB  00004  K0                0911DES        000000000000 DENSO TEN (THAILAND)                                                                                                                                            *G         20180905 IMCT                IMCT                                                                                                                    WMF1809057.TXT
MAKK89058280201809D1               89828070100P3YK20180921000270SPEAKER ASM                   M IMCTM CM1    TNTH  09020IMKDC KA PTB  00004  K0                0911DES        000000000000 DENSO TEN (THAILAND)                                                                                                                                            *G         20180905 IMCT                IMCT                                                                                                                    WMF1809057.TXT
MAKK89058281201809D1               89828070100P3YK20180922000300SPEAKER ASM                   M IMCTM CM1    TNTH  09020IMKDC KA PTB  00004  K0                0911DES        000000000000 DENSO TEN (THAILAND)                                                                                                                                            *G         20180905 IMCT                IMCT                                                                                                                    WMF1809057.TXT
MAKK89058282201809D1               89828070200P3YK20180917000090SPEAKER ASM                   M IMCTM CM1    TNTH  09020IMKDC KA PTB  00005  K0                0911DES        000000000000 DENSO TEN (THAILAND)                                                                                                                                            *G         20180905 IMCT                IMCT                                                                                                                    WMF1809057.TXT
MAKK89058283201809D1               89828070200P3YK20180918000150SPEAKER ASM                   M IMCTM CM1    TNTH  09020IMKDC KA PTB  00005  K0                0911DES        000000000000 DENSO TEN (THAILAND)                                                                                                                                            *G         20180905 IMCT                IMCT                                                                                                                    WMF1809057.TXT
MAKK89058284201809D1               89828070200P3YK20180919000090SPEAKER ASM                   M IMCTM CM1    TNTH  09020IMKDC KA PTB  00005  K0                0911DES        000000000000 DENSO TEN (THAILAND)                                                                                                                                            *G         20180905 IMCT                IMCT                                                                                                                    WMF1809057.TXT
MAKK89058285201809D1               89828070200P3YK20180920000090SPEAKER ASM                   M IMCTM CM1    TNTH  09020IMKDC KA PTB  00005  K0                0911DES        000000000000 DENSO TEN (THAILAND)                                                                                                                                            *G         20180905 IMCT                IMCT                                                                                                                    WMF1809057.TXT
MAKK89058286201809D1               89828070200P3YK20180921000090SPEAKER ASM                   M IMCTM CM1    TNTH  09020IMKDC KA PTB  00005  K0                0911DES        000000000000 DENSO TEN (THAILAND)                                                                                                                                            *G         20180905 IMCT                IMCT                                                                                                                    WMF1809057.TXT
MAKK89058287201809D1               89828070200P3YK20180922000060SPEAKER ASM                   M IMCTM CM1    TNTH  09020IMKDC KA PTB  00005  K0                0911DES        000000000000 DENSO TEN (THAILAND)                                                                                                                                            *G         20180905 IMCT                IMCT                                                                                                                    WMF1809057.TXT
MAKK89058288201809D1               89828070300P3YK20180917000120SPEAKER ASM                   M IMCTM CM1    TNTH  09020IMKDC KA PTB  00015  K0                0911DES        000000000000 DENSO TEN (THAILAND)                                                                                                                                            *G         20180905 IMCT                IMCT                                                                                                                    WMF1809057.TXT
MAKK89058289201809D1               89828070300P3YK20180918000180SPEAKER ASM                   M IMCTM CM1    TNTH  09020IMKDC KA PTB  00015  K0                0911DES        000000000000 DENSO TEN (THAILAND)                                                                                                                                            *G         20180905 IMCT                IMCT                                                                                                                    WMF1809057.TXT
MAKK89058290201809D1               89828070300P3YK20180919000090SPEAKER ASM                   M IMCTM CM1    TNTH  09020IMKDC KA PTB  00015  K0                0911DES        000000000000 DENSO TEN (THAILAND)                                                                                                                                            *G         20180905 IMCT                IMCT                                                                                                                    WMF1809057.TXT
MAKK89058291201809D1               89828070300P3YK20180920000090SPEAKER ASM                   M IMCTM CM1    TNTH  09020IMKDC KA PTB  00015  K0                0911DES        000000000000 DENSO TEN (THAILAND)                                                                                                                                            *G         20180905 IMCT                IMCT                                                                                                                    WMF1809057.TXT
MAKK89058292201809D1               89828070300P3YK20180921000090SPEAKER ASM                   M IMCTM CM1    TNTH  09020IMKDC KA PTB  00015  K0                0911DES        000000000000 DENSO TEN (THAILAND)                                                                                                                                            *G         20180905 IMCT                IMCT                                                                                                                    WMF1809057.TXT
MAKK89058293201809D1               89828070300P3YK20180922000060SPEAKER ASM                   M IMCTM CM1    TNTH  09020IMKDC KA PTB  00015  K0                0911DES        000000000000 DENSO TEN (THAILAND)                                                                                                                                            *G         20180905 IMCT                IMCT                                                                                                                    WMF1809057.TXT
