REC2018091420180914ISUZU                              63     
MDDDJ9246777201809                D89821984430PT1D20180920000030RADIO;AM/FM,CD                M IMCTM S5NC06 TNTH  09020IMCT  S5 PTB  00005                    0230 SR        000000000000 DENSO TEN (THAILAND)180LNGL0203203                                                                                                                              *          20180914 IMCT                IMCT                                                                                                                    WMF1809147.TXT
MDDDJ9246778201809                D89821984430PT1D20180920000030RADIO;AM/FM,CD                M IMCTM S5NC06 TNTH  09020IMCT  S5 PTB  00005                    0400 SR        000000000000 DENSO TEN (THAILAND)180LXEL0090090                                                                                                                              *          20180914 IMCT                IMCT                                                                                                                    WMF1809147.TXT
MDDDJ9246779201809                D89821984430PT1D20180920000030RADIO;AM/FM,CD                M IMCTM S5NC06 TNTH  09020IMCT  S5 PTB  00005                    0830 SR        000000000000 DENSO TEN (THAILAND)180LRAL0252252                                                                                                                              *          20180914 IMCT                IMCT                                                                                                                    WMF1809147.TXT
MDDDJ9246780201809                D89821984430PT1D20180920000030RADIO;AM/FM,CD                M IMCTM S5NC06 TNTH  09020IMCT  S5 PTB  00005                    1030 SR        000000000000 DENSO TEN (THAILAND)180LPAL0225225                                                                                                                              *          20180914 IMCT                IMCT                                                                                                                    WMF1809147.TXT
MDDDJ9246781201809                D89821984430PT1D20180920000030RADIO;AM/FM,CD                M IMCTM S5NC06 TNTH  09020IMCT  S5 PTB  00005                    1300 SR        000000000000 DENSO TEN (THAILAND)180LXEL0091091                                                                                                                              *          20180914 IMCT                IMCT                                                                                                                    WMF1809147.TXT
MDDDJ9246782201809                D89821984430PT1D20180920000030RADIO;AM/FM,CD                M IMCTM S5NC06 TNTH  09020IMCT  S5 PTB  00005                    2100 SR        000000000000 DENSO TEN (THAILAND)180LXCL0087087                                                                                                                              *          20180914 IMCT                IMCT                                                                                                                    WMF1809147.TXT
MDDDJ9246783201809                D89828070100PV1D20180920000060SPEAKER ASM                   M IMCTM S5MB11 TNTH  09020IMCT  S5 PTB  00004                    0230 SR        000000000000 DENSO TEN (THAILAND)180LNGL0203203                                                                                                                              *          20180914 IMCT                IMCT                                                                                                                    WMF1809147.TXT
MDDDJ9246784201809                D89828070100PV1D20180920000060SPEAKER ASM                   M IMCTM S5MB11 TNTH  09020IMCT  S5 PTB  00004                    0400 SR        000000000000 DENSO TEN (THAILAND)180LXEL0090090                                                                                                                              *          20180914 IMCT                IMCT                                                                                                                    WMF1809147.TXT
MDDDJ9246785201809                D89828070100PV1D20180920000060SPEAKER ASM                   M IMCTM S5MB11 TNTH  09020IMCT  S5 PTB  00004                    0830 SR        000000000000 DENSO TEN (THAILAND)180LRAL0252252                                                                                                                              *          20180914 IMCT                IMCT                                                                                                                    WMF1809147.TXT
MDDDJ9246786201809                D89828070100PV1D20180920000060SPEAKER ASM                   M IMCTM S5MB11 TNTH  09020IMCT  S5 PTB  00004                    1030 SR        000000000000 DENSO TEN (THAILAND)180LPAL0225225                                                                                                                              *          20180914 IMCT                IMCT                                                                                                                    WMF1809147.TXT
MDDDJ9246787201809                D89828070100PV1D20180920000060SPEAKER ASM                   M IMCTM S5MB11 TNTH  09020IMCT  S5 PTB  00004                    1300 SR        000000000000 DENSO TEN (THAILAND)180LXEL0091091                                                                                                                              *          20180914 IMCT                IMCT                                                                                                                    WMF1809147.TXT
MDDDJ9246788201809                D89828070100PV1D20180920000060SPEAKER ASM                   M IMCTM S5MB11 TNTH  09020IMCT  S5 PTB  00004                    2100 SR        000000000000 DENSO TEN (THAILAND)180LXCL0087087                                                                                                                              *          20180914 IMCT                IMCT                                                                                                                    WMF1809147.TXT
MDDDJ9246789201809                D89828070100PV4D20180920000060SPEAKER ASM                   M IMCTM S0FL05 TNTH  09020IMCT  S0 PTB  00004                    1300 SR        000000000000 DENSO TEN (THAILAND)180LRSU0061061                                                                                                                              *          20180914 IMCT                IMCT                                                                                                                    WMF1809147.TXT
MDDDJ9246790201809                D89828070200PV4D20180920000060SPEAKER ASM                   M IMCTM S0FR05 TNTH  09020IMCT  S0 PTB  00005                    1300 SR        000000000000 DENSO TEN (THAILAND)180LRSU0061061                                                                                                                              *          20180914 IMCT                IMCT                                                                                                                    WMF1809147.TXT
MDDDJ9246791201809                D89828070300PT4D20180920000060SPEAKER ASM                   M IMCTM S9TS02 TNTH  09020IMCT  S9 PTB  00015                    1300 SR        000000000000 DENSO TEN (THAILAND)180LRSU0061061                                                                                                                              *          20180914 IMCT                IMCT                                                                                                                    WMF1809147.TXT
MDDUJ9222896201809                D89828070100PT4U20180919000030SPEAKER ASM                   M IMCTM S0FL05 TNTH  09020IMCT  S0 PTB  00004                    2230 SR        000000000000 DENSO TEN (THAILAND)180LUQU0073073                                                                                                                              *          20180914 IMCT                IMCT                                                                                                                    WMF1809147.TXT
MDDUJ9222897201809                D89828070100PT4U20180920000030SPEAKER ASM                   M IMCTM S0FL05 TNTH  09020IMCT  S0 PTB  00004                    0400 SR        000000000000 DENSO TEN (THAILAND)180LULU0056056                                                                                                                              *          20180914 IMCT                IMCT                                                                                                                    WMF1809147.TXT
MDDUJ9222898201809                D89828070100PT4U20180920000030SPEAKER ASM                   M IMCTM S0FL05 TNTH  09020IMCT  S0 PTB  00004                    1300 SR        000000000000 DENSO TEN (THAILAND)180LULU0057057                                                                                                                              *          20180914 IMCT                IMCT                                                                                                                    WMF1809147.TXT
MDDUJ9222899201809                D89828070100PT4U20180920000030SPEAKER ASM                   M IMCTM S0FL05 TNTH  09020IMCT  S0 PTB  00004                    2230 SR        000000000000 DENSO TEN (THAILAND)180LULU0058058                                                                                                                              *          20180914 IMCT                IMCT                                                                                                                    WMF1809147.TXT
MDDUJ9222900201809                D89828070200PV4U20180919000030SPEAKER ASM                   M IMCTM S0FR05 TNTH  09020IMCT  S0 PTB  00005                    2230 SR        000000000000 DENSO TEN (THAILAND)180LUQU0073073                                                                                                                              *          20180914 IMCT                IMCT                                                                                                                    WMF1809147.TXT
MDDUJ9222901201809                D89828070200PV4U20180920000030SPEAKER ASM                   M IMCTM S0FR05 TNTH  09020IMCT  S0 PTB  00005                    0400 SR        000000000000 DENSO TEN (THAILAND)180LULU0056056                                                                                                                              *          20180914 IMCT                IMCT                                                                                                                    WMF1809147.TXT
MDDUJ9222902201809                D89828070200PV4U20180920000030SPEAKER ASM                   M IMCTM S0FR05 TNTH  09020IMCT  S0 PTB  00005                    1300 SR        000000000000 DENSO TEN (THAILAND)180LULU0057057                                                                                                                              *          20180914 IMCT                IMCT                                                                                                                    WMF1809147.TXT
MDDUJ9222903201809                D89828070200PV4U20180920000030SPEAKER ASM                   M IMCTM S0FR05 TNTH  09020IMCT  S0 PTB  00005                    2230 SR        000000000000 DENSO TEN (THAILAND)180LULU0058058                                                                                                                              *          20180914 IMCT                IMCT                                                                                                                    WMF1809147.TXT
MDDUJ9222904201809                D89828070300PT4U20180919000030SPEAKER ASM                   M IMCTM S9TS02 TNTH  09020IMCT  S9 PTB  00015                    2230 SR        000000000000 DENSO TEN (THAILAND)180LUQU0073073                                                                                                                              *          20180914 IMCT                IMCT                                                                                                                    WMF1809147.TXT
MDDUJ9222905201809                D89828070300PT4U20180920000030SPEAKER ASM                   M IMCTM S9TS02 TNTH  09020IMCT  S9 PTB  00015                    0400 SR        000000000000 DENSO TEN (THAILAND)180LULU0056056                                                                                                                              *          20180914 IMCT                IMCT                                                                                                                    WMF1809147.TXT
MDDUJ9222906201809                D89828070300PT4U20180920000030SPEAKER ASM                   M IMCTM S9TS02 TNTH  09020IMCT  S9 PTB  00015                    1300 SR        000000000000 DENSO TEN (THAILAND)180LULU0057057                                                                                                                              *          20180914 IMCT                IMCT                                                                                                                    WMF1809147.TXT
MDDUJ9222907201809                D89828070300PT4U20180920000030SPEAKER ASM                   M IMCTM S9TS02 TNTH  09020IMCT  S9 PTB  00015                    2230 SR        000000000000 DENSO TEN (THAILAND)180LULU0058058                                                                                                                              *          20180914 IMCT                IMCT                                                                                                                    WMF1809147.TXT
MDDUJ9222908201809                D89848584200PT4U20180919000015RADIO;AM/FM CD D              M IMCTM S9CO001TNTH  09020IMCT  S9 PTB  00003                    2230 SR        000000000000 DENSO TEN (THAILAND)180LUQU0073073                                                                                                                              *          20180914 IMCT                IMCT                                                                                                                    WMF1809147.TXT
MDEDJ9269827201809                D89828070100PV1D20180919000060SPEAKER ASM                   M IMCTM S5MB11 TNTH  09020IMCT  S5 PTB  00004                    2230 SR        000000000000 DENSO TEN (THAILAND)18098UL0062063                                                                                                                              *          20180914 IMCT                IMCT                                                                                                                    WMF1809147.TXT
MDEDJ9269828201809                D89828070100PV1D20180920000030SPEAKER ASM                   M IMCTM S5MB11 TNTH  09020IMCT  S5 PTB  00004                    0230 SR        000000000000 DENSO TEN (THAILAND)18018XL0008008                                                                                                                              *          20180914 IMCT                IMCT                                                                                                                    WMF1809147.TXT
MDEDJ9269829201809                D89828070100PV1D20180920000030SPEAKER ASM                   M IMCTM S5MB11 TNTH  09020IMCT  S5 PTB  00004                    0400 SR        000000000000 DENSO TEN (THAILAND)18018XL0009009                                                                                                                              *          20180914 IMCT                IMCT                                                                                                                    WMF1809147.TXT
MDEDJ9269830201809                D89828070100PV1D20180920000030SPEAKER ASM                   M IMCTM S5MB11 TNTH  09020IMCT  S5 PTB  00004                    0830 SR        000000000000 DENSO TEN (THAILAND)18072UL0021021                                                                                                                              *          20180914 IMCT                IMCT                                                                                                                    WMF1809147.TXT
MDEDJ9269831201809                D89828070100PV1D20180920000030SPEAKER ASM                   M IMCTM S5MB11 TNTH  09020IMCT  S5 PTB  00004                    1030 SR        000000000000 DENSO TEN (THAILAND)18072UL0022022                                                                                                                              *          20180914 IMCT                IMCT                                                                                                                    WMF1809147.TXT
MDEDJ9269832201809                D89828070100PV1D20180920000060SPEAKER ASM                   M IMCTM S5MB11 TNTH  09020IMCT  S5 PTB  00004                    1300 SR        000000000000 DENSO TEN (THAILAND)18005XL001201218082XL0014014                                                                                                                *          20180914 IMCT                IMCT                                                                                                                    WMF1809147.TXT
MDEDJ9269833201809                D89828070100PV1D20180920000060SPEAKER ASM                   M IMCTM S5MB11 TNTH  09020IMCT  S5 PTB  00004                    1600 SR        000000000000 DENSO TEN (THAILAND)18008YL0025026                                                                                                                              *          20180914 IMCT                IMCT                                                                                                                    WMF1809147.TXT
MDEDJ9269834201809                D89828070100PV4D20180920000030SPEAKER ASM                   M IMCTM S0FL05 TNTH  09020IMCT  S0 PTB  00004                    0400 SR        000000000000 DENSO TEN (THAILAND)18099UU0041041                                                                                                                              *          20180914 IMCT                IMCT                                                                                                                    WMF1809147.TXT
MDEDJ9269835201809                D89828070200PV1D20180919000060SPEAKER ASM                   M IMCTM S5MA14 TNTH  09020IMCT  S5 PTB  00005                    2230 SR        000000000000 DENSO TEN (THAILAND)18098UL0062063                                                                                                                              *          20180914 IMCT                IMCT                                                                                                                    WMF1809147.TXT
MDEDJ9269836201809                D89828070200PV1D20180920000060SPEAKER ASM                   M IMCTM S5MA14 TNTH  09020IMCT  S5 PTB  00005                    1600 SR        000000000000 DENSO TEN (THAILAND)18008YL0025026                                                                                                                              *          20180914 IMCT                IMCT                                                                                                                    WMF1809147.TXT
MDEDJ9269837201809                D89828070200PV4D20180920000030SPEAKER ASM                   M IMCTM S0FR05 TNTH  09020IMCT  S0 PTB  00005                    0400 SR        000000000000 DENSO TEN (THAILAND)18099UU0041041                                                                                                                              *          20180914 IMCT                IMCT                                                                                                                    WMF1809147.TXT
MDEDJ9269838201809                D89828070300PT1D20180919000060SPEAKER ASM                   M IMCTM S5NB082TNTH  09020IMCT  S5 PTB  00015                    2230 SR        000000000000 DENSO TEN (THAILAND)18098UL0062063                                                                                                                              *          20180914 IMCT                IMCT                                                                                                                    WMF1809147.TXT
MDEDJ9269839201809                D89828070300PT1D20180920000030SPEAKER ASM                   M IMCTM S5NB082TNTH  09020IMCT  S5 PTB  00015                    0230 SR        000000000000 DENSO TEN (THAILAND)18018XL0008008                                                                                                                              *          20180914 IMCT                IMCT                                                                                                                    WMF1809147.TXT
MDEDJ9269840201809                D89828070300PT1D20180920000030SPEAKER ASM                   M IMCTM S5NB082TNTH  09020IMCT  S5 PTB  00015                    0400 SR        000000000000 DENSO TEN (THAILAND)18018XL0009009                                                                                                                              *          20180914 IMCT                IMCT                                                                                                                    WMF1809147.TXT
MDEDJ9269841201809                D89828070300PT1D20180920000030SPEAKER ASM                   M IMCTM S5NB082TNTH  09020IMCT  S5 PTB  00015                    0830 SR        000000000000 DENSO TEN (THAILAND)18072UL0021021                                                                                                                              *          20180914 IMCT                IMCT                                                                                                                    WMF1809147.TXT
MDEDJ9269842201809                D89828070300PT1D20180920000030SPEAKER ASM                   M IMCTM S5NB082TNTH  09020IMCT  S5 PTB  00015                    1030 SR        000000000000 DENSO TEN (THAILAND)18072UL0022022                                                                                                                              *          20180914 IMCT                IMCT                                                                                                                    WMF1809147.TXT
MDEDJ9269843201809                D89828070300PT1D20180920000030SPEAKER ASM                   M IMCTM S5NB082TNTH  09020IMCT  S5 PTB  00015                    1300 SR        000000000000 DENSO TEN (THAILAND)18005XL0012012                                                                                                                              *          20180914 IMCT                IMCT                                                                                                                    WMF1809147.TXT
MDEDJ9269844201809                D89828070300PT1D20180920000060SPEAKER ASM                   M IMCTM S5NB082TNTH  09020IMCT  S5 PTB  00015                    1600 SR        000000000000 DENSO TEN (THAILAND)18008YL0025026                                                                                                                              *          20180914 IMCT                IMCT                                                                                                                    WMF1809147.TXT
MDEDJ9269845201809                D89828070300PT4D20180920000030SPEAKER ASM                   M IMCTM S9TS02 TNTH  09020IMCT  S9 PTB  00015                    0400 SR        000000000000 DENSO TEN (THAILAND)18099UU0041041                                                                                                                              *          20180914 IMCT                IMCT                                                                                                                    WMF1809147.TXT
MDEDJ9269846201809                D89848581800PT1D20180919000030RADIO;AM/FM CD D              M IMCTM S5NC06 TNTH  09020IMCT  S5 PTB  00003                    2230 SR        000000000000 DENSO TEN (THAILAND)18098UL0062063                                                                                                                              *          20180914 IMCT                IMCT                                                                                                                    WMF1809147.TXT
MDEDJ9269847201809                D89848581800PT1D20180920000015RADIO;AM/FM CD D              M IMCTM S5NC06 TNTH  09020IMCT  S5 PTB  00003                    0830 SR        000000000000 DENSO TEN (THAILAND)18072UL0021021                                                                                                                              *          20180914 IMCT                IMCT                                                                                                                    WMF1809147.TXT
MDEDJ9269848201809                D89848581800PT1D20180920000015RADIO;AM/FM CD D              M IMCTM S5NC06 TNTH  09020IMCT  S5 PTB  00003                    1030 SR        000000000000 DENSO TEN (THAILAND)18072UL0022022                                                                                                                              *          20180914 IMCT                IMCT                                                                                                                    WMF1809147.TXT
MDEUJ9232290201809                D89828070100PT4U20180920000030SPEAKER ASM                   M IMCTM S0FL05 TNTH  09020IMCT  S0 PTB  00004                    0230 SR        000000000000 DENSO TEN (THAILAND)18021UU0182182                                                                                                                              *          20180914 IMCT                IMCT                                                                                                                    WMF1809147.TXT
MDEUJ9232291201809                D89828070100PT4U20180920000030SPEAKER ASM                   M IMCTM S0FL05 TNTH  09020IMCT  S0 PTB  00004                    0830 SR        000000000000 DENSO TEN (THAILAND)18016UU0043043                                                                                                                              *          20180914 IMCT                IMCT                                                                                                                    WMF1809147.TXT
MDEUJ9232292201809                D89828070100PT4U20180920000030SPEAKER ASM                   M IMCTM S0FL05 TNTH  09020IMCT  S0 PTB  00004                    1600 SR        000000000000 DENSO TEN (THAILAND)18014UU0022022                                                                                                                              *          20180914 IMCT                IMCT                                                                                                                    WMF1809147.TXT
MDEUJ9232293201809                D89828070100PT4U20180920000030SPEAKER ASM                   M IMCTM S0FL05 TNTH  09020IMCT  S0 PTB  00004                    2100 SR        000000000000 DENSO TEN (THAILAND)18021UU0183183                                                                                                                              *          20180914 IMCT                IMCT                                                                                                                    WMF1809147.TXT
MDEUJ9232294201809                D89828070200PV4U20180920000030SPEAKER ASM                   M IMCTM S0FR05 TNTH  09020IMCT  S0 PTB  00005                    0230 SR        000000000000 DENSO TEN (THAILAND)18021UU0182182                                                                                                                              *          20180914 IMCT                IMCT                                                                                                                    WMF1809147.TXT
MDEUJ9232295201809                D89828070200PV4U20180920000030SPEAKER ASM                   M IMCTM S0FR05 TNTH  09020IMCT  S0 PTB  00005                    0830 SR        000000000000 DENSO TEN (THAILAND)18016UU0043043                                                                                                                              *          20180914 IMCT                IMCT                                                                                                                    WMF1809147.TXT
MDEUJ9232296201809                D89828070200PV4U20180920000030SPEAKER ASM                   M IMCTM S0FR05 TNTH  09020IMCT  S0 PTB  00005                    1600 SR        000000000000 DENSO TEN (THAILAND)18014UU0022022                                                                                                                              *          20180914 IMCT                IMCT                                                                                                                    WMF1809147.TXT
MDEUJ9232297201809                D89828070200PV4U20180920000030SPEAKER ASM                   M IMCTM S0FR05 TNTH  09020IMCT  S0 PTB  00005                    2100 SR        000000000000 DENSO TEN (THAILAND)18021UU0183183                                                                                                                              *          20180914 IMCT                IMCT                                                                                                                    WMF1809147.TXT
MDEUJ9232298201809                D89828070300PT4U20180920000030SPEAKER ASM                   M IMCTM S9TS02 TNTH  09020IMCT  S9 PTB  00015                    0230 SR        000000000000 DENSO TEN (THAILAND)18021UU0182182                                                                                                                              *          20180914 IMCT                IMCT                                                                                                                    WMF1809147.TXT
MDEUJ9232299201809                D89828070300PT4U20180920000030SPEAKER ASM                   M IMCTM S9TS02 TNTH  09020IMCT  S9 PTB  00015                    0830 SR        000000000000 DENSO TEN (THAILAND)18016UU0043043                                                                                                                              *          20180914 IMCT                IMCT                                                                                                                    WMF1809147.TXT
MDEUJ9232300201809                D89828070300PT4U20180920000030SPEAKER ASM                   M IMCTM S9TS02 TNTH  09020IMCT  S9 PTB  00015                    1600 SR        000000000000 DENSO TEN (THAILAND)18014UU0022022                                                                                                                              *          20180914 IMCT                IMCT                                                                                                                    WMF1809147.TXT
MDEUJ9232301201809                D89828070300PT4U20180920000030SPEAKER ASM                   M IMCTM S9TS02 TNTH  09020IMCT  S9 PTB  00015                    2100 SR        000000000000 DENSO TEN (THAILAND)18021UU0183183                                                                                                                              *          20180914 IMCT                IMCT                                                                                                                    WMF1809147.TXT
MDEUJ9232302201809                D89848584700PT4U20180920000015RADIO;AM/FM CD D              M IMCTM S9CO001TNTH  09020IMCT  S9 PTB  00003                    1600 SR        000000000000 DENSO TEN (THAILAND)18014UU0022022                                                                                                                              *          20180914 IMCT                IMCT                                                                                                                    WMF1809147.TXT
