REC2018091120180911ISUZU                              63     
MDDDJ9232111201809                D89821984430PT1D20180915000030RADIO;AM/FM,CD                M IMCTM S5NC06 TNTH  09020IMCT  S5 PTB  00005                    0400 SR        000000000000 DENSO TEN (THAILAND)180LXEL0088088                                                                                                                              *          20180911 IMCT                IMCT                                                                                                                    WMF1809114.TXT
MDDDJ9232112201809                D89821984430PT1D20180917000030RADIO;AM/FM,CD                M IMCTM S5NC06 TNTH  09020IMCT  S5 PTB  00005                    0830 SR        000000000000 DENSO TEN (THAILAND)180LPAL0222222                                                                                                                              *          20180911 IMCT                IMCT                                                                                                                    WMF1809114.TXT
MDDDJ9232113201809                D89821984430PT1D20180917000030RADIO;AM/FM,CD                M IMCTM S5NC06 TNTH  09020IMCT  S5 PTB  00005                    2230 SR        000000000000 DENSO TEN (THAILAND)180LNGL0200200                                                                                                                              *          20180911 IMCT                IMCT                                                                                                                    WMF1809114.TXT
MDDDJ9232114201809                D89828070100PV1D20180915000060SPEAKER ASM                   M IMCTM S5MB11 TNTH  09020IMCT  S5 PTB  00004                    0400 SR        000000000000 DENSO TEN (THAILAND)180LXEL0088088                                                                                                                              *          20180911 IMCT                IMCT                                                                                                                    WMF1809114.TXT
MDDDJ9232115201809                D89828070100PV1D20180917000060SPEAKER ASM                   M IMCTM S5MB11 TNTH  09020IMCT  S5 PTB  00004                    0830 SR        000000000000 DENSO TEN (THAILAND)180LPAL0222222                                                                                                                              *          20180911 IMCT                IMCT                                                                                                                    WMF1809114.TXT
MDDDJ9232116201809                D89828070100PV1D20180917000060SPEAKER ASM                   M IMCTM S5MB11 TNTH  09020IMCT  S5 PTB  00004                    1030 SR        000000000000 DENSO TEN (THAILAND)180LPCL0088088                                                                                                                              *          20180911 IMCT                IMCT                                                                                                                    WMF1809114.TXT
MDDDJ9232117201809                D89828070100PV1D20180917000060SPEAKER ASM                   M IMCTM S5MB11 TNTH  09020IMCT  S5 PTB  00004                    1300 SR        000000000000 DENSO TEN (THAILAND)180LXAL0052052                                                                                                                              *          20180911 IMCT                IMCT                                                                                                                    WMF1809114.TXT
MDDDJ9232118201809                D89828070100PV1D20180917000060SPEAKER ASM                   M IMCTM S5MB11 TNTH  09020IMCT  S5 PTB  00004                    1600 SR        000000000000 DENSO TEN (THAILAND)180LPGL0319319                                                                                                                              *          20180911 IMCT                IMCT                                                                                                                    WMF1809114.TXT
MDDDJ9232119201809                D89828070100PV1D20180917000060SPEAKER ASM                   M IMCTM S5MB11 TNTH  09020IMCT  S5 PTB  00004                    2230 SR        000000000000 DENSO TEN (THAILAND)180LNGL0200200                                                                                                                              *          20180911 IMCT                IMCT                                                                                                                    WMF1809114.TXT
MDDDJ9232120201809                D89828070300PT1D20180917000060SPEAKER ASM                   M IMCTM S5NB082TNTH  09020IMCT  S5 PTB  00015                    1030 SR        000000000000 DENSO TEN (THAILAND)180LPCL0088088                                                                                                                              *          20180911 IMCT                IMCT                                                                                                                    WMF1809114.TXT
MDDDJ9232121201809                D89828070300PT1D20180917000060SPEAKER ASM                   M IMCTM S5NB082TNTH  09020IMCT  S5 PTB  00015                    1600 SR        000000000000 DENSO TEN (THAILAND)180LPGL0319319                                                                                                                              *          20180911 IMCT                IMCT                                                                                                                    WMF1809114.TXT
MDDDJ9232122201809                D89831228300PT1D20180917000030RADIO;AM/FM,CD                M IMCTM S5NC06 TNTH  09020IMCT  S5 CPB  00003                    1030 SR        000000000000 DENSO TEN (THAILAND)180LPCL0088088                                                                                                                              *          20180911 IMCT                IMCT                                                                                                                    WMF1809114.TXT
MDDDJ9232123201809                D89831228300PT1D20180917000030RADIO;AM/FM,CD                M IMCTM S5NC06 TNTH  09020IMCT  S5 CPB  00003                    1600 SR        000000000000 DENSO TEN (THAILAND)180LPGL0319319                                                                                                                              *          20180911 IMCT                IMCT                                                                                                                    WMF1809114.TXT
MDDUJ9215351201809                D89828070100PT4U20180915000030SPEAKER ASM                   M IMCTM S0FL05 TNTH  09020IMCT  S0 PTB  00004                    0400 SR        000000000000 DENSO TEN (THAILAND)180LULU0050050                                                                                                                              *          20180911 IMCT                IMCT                                                                                                                    WMF1809114.TXT
MDDUJ9215352201809                D89828070100PT4U20180917000030SPEAKER ASM                   M IMCTM S0FL05 TNTH  09020IMCT  S0 PTB  00004                    1300 SR        000000000000 DENSO TEN (THAILAND)180LULU0051051                                                                                                                              *          20180911 IMCT                IMCT                                                                                                                    WMF1809114.TXT
MDDUJ9215353201809                D89828070200PV4U20180915000030SPEAKER ASM                   M IMCTM S0FR05 TNTH  09020IMCT  S0 PTB  00005                    0400 SR        000000000000 DENSO TEN (THAILAND)180LULU0050050                                                                                                                              *          20180911 IMCT                IMCT                                                                                                                    WMF1809114.TXT
MDDUJ9215354201809                D89828070200PV4U20180917000030SPEAKER ASM                   M IMCTM S0FR05 TNTH  09020IMCT  S0 PTB  00005                    1300 SR        000000000000 DENSO TEN (THAILAND)180LULU0051051                                                                                                                              *          20180911 IMCT                IMCT                                                                                                                    WMF1809114.TXT
MDDUJ9215355201809                D89828070300PT4U20180915000030SPEAKER ASM                   M IMCTM S9TS02 TNTH  09020IMCT  S9 PTB  00015                    0400 SR        000000000000 DENSO TEN (THAILAND)180LULU0050050                                                                                                                              *          20180911 IMCT                IMCT                                                                                                                    WMF1809114.TXT
MDDUJ9215356201809                D89828070300PT4U20180917000030SPEAKER ASM                   M IMCTM S9TS02 TNTH  09020IMCT  S9 PTB  00015                    1300 SR        000000000000 DENSO TEN (THAILAND)180LULU0051051                                                                                                                              *          20180911 IMCT                IMCT                                                                                                                    WMF1809114.TXT
MDEDJ9247287201809                D89828070100PV1D20180914000090SPEAKER ASM                   M IMCTM S5MB11 TNTH  09020IMCT  S5 PTB  00004                    2230 SR        000000000000 DENSO TEN (THAILAND)17002RL001001017005RL000600618061UL0024024                                                                                                  *          20180911 IMCT                IMCT                                                                                                                    WMF1809114.TXT
MDEDJ9247288201809                D89828070100PV1D20180915000090SPEAKER ASM                   M IMCTM S5MB11 TNTH  09020IMCT  S5 PTB  00004                    0230 SR        000000000000 DENSO TEN (THAILAND)17014QL000300318007ZL014314318061UL0025025                                                                                                  *          20180911 IMCT                IMCT                                                                                                                    WMF1809114.TXT
MDEDJ9247289201809                D89828070100PV1D20180915000030SPEAKER ASM                   M IMCTM S5MB11 TNTH  09020IMCT  S5 PTB  00004                    0400 SR        000000000000 DENSO TEN (THAILAND)18007ZL0144144                                                                                                                              *          20180911 IMCT                IMCT                                                                                                                    WMF1809114.TXT
MDEDJ9247290201809                D89828070100PV1D20180917000030SPEAKER ASM                   M IMCTM S5MB11 TNTH  09020IMCT  S5 PTB  00004                    0830 SR        000000000000 DENSO TEN (THAILAND)17034QL0005005                                                                                                                              *          20180911 IMCT                IMCT                                                                                                                    WMF1809114.TXT
MDEDJ9247291201809                D89828070100PV1D20180917000060SPEAKER ASM                   M IMCTM S5MB11 TNTH  09020IMCT  S5 PTB  00004                    1300 SR        000000000000 DENSO TEN (THAILAND)18099XL0007008                                                                                                                              *          20180911 IMCT                IMCT                                                                                                                    WMF1809114.TXT
MDEDJ9247292201809                D89828070100PV1D20180917000060SPEAKER ASM                   M IMCTM S5MB11 TNTH  09020IMCT  S5 PTB  00004                    2100 SR        000000000000 DENSO TEN (THAILAND)17046RL001001018025XL0003003                                                                                                                *          20180911 IMCT                IMCT                                                                                                                    WMF1809114.TXT
MDEDJ9247293201809                D89828070100PV4D20180915000030SPEAKER ASM                   M IMCTM S0FL05 TNTH  09020IMCT  S0 PTB  00004                    0230 SR        000000000000 DENSO TEN (THAILAND)18010ZU0058058                                                                                                                              *          20180911 IMCT                IMCT                                                                                                                    WMF1809114.TXT
MDEDJ9247294201809                D89828070100PV4D20180917000030SPEAKER ASM                   M IMCTM S0FL05 TNTH  09020IMCT  S0 PTB  00004                    1030 SR        000000000000 DENSO TEN (THAILAND)18010ZU0059059                                                                                                                              *          20180911 IMCT                IMCT                                                                                                                    WMF1809114.TXT
MDEDJ9247295201809                D89828070100PV4D20180917000030SPEAKER ASM                   M IMCTM S0FL05 TNTH  09020IMCT  S0 PTB  00004                    1600 SR        000000000000 DENSO TEN (THAILAND)18010ZU0060060                                                                                                                              *          20180911 IMCT                IMCT                                                                                                                    WMF1809114.TXT
MDEDJ9247296201809                D89828070200PV1D20180914000060SPEAKER ASM                   M IMCTM S5MA14 TNTH  09020IMCT  S5 PTB  00005                    2230 SR        000000000000 DENSO TEN (THAILAND)17002RL001001017005RL0006006                                                                                                                *          20180911 IMCT                IMCT                                                                                                                    WMF1809114.TXT
MDEDJ9247297201809                D89828070200PV1D20180915000030SPEAKER ASM                   M IMCTM S5MA14 TNTH  09020IMCT  S5 PTB  00005                    0230 SR        000000000000 DENSO TEN (THAILAND)17014QL0003003                                                                                                                              *          20180911 IMCT                IMCT                                                                                                                    WMF1809114.TXT
MDEDJ9247298201809                D89828070200PV1D20180917000030SPEAKER ASM                   M IMCTM S5MA14 TNTH  09020IMCT  S5 PTB  00005                    0830 SR        000000000000 DENSO TEN (THAILAND)17034QL0005005                                                                                                                              *          20180911 IMCT                IMCT                                                                                                                    WMF1809114.TXT
MDEDJ9247299201809                D89828070200PV1D20180917000060SPEAKER ASM                   M IMCTM S5MA14 TNTH  09020IMCT  S5 PTB  00005                    1300 SR        000000000000 DENSO TEN (THAILAND)18099XL0007008                                                                                                                              *          20180911 IMCT                IMCT                                                                                                                    WMF1809114.TXT
MDEDJ9247300201809                D89828070200PV1D20180917000030SPEAKER ASM                   M IMCTM S5MA14 TNTH  09020IMCT  S5 PTB  00005                    2100 SR        000000000000 DENSO TEN (THAILAND)17046RL0010010                                                                                                                              *          20180911 IMCT                IMCT                                                                                                                    WMF1809114.TXT
MDEDJ9247301201809                D89828070300PT1D20180914000090SPEAKER ASM                   M IMCTM S5NB082TNTH  09020IMCT  S5 PTB  00015                    2230 SR        000000000000 DENSO TEN (THAILAND)17002RL001001017005RL000600618061UL0024024                                                                                                  *          20180911 IMCT                IMCT                                                                                                                    WMF1809114.TXT
MDEDJ9247302201809                D89828070300PT1D20180915000060SPEAKER ASM                   M IMCTM S5NB082TNTH  09020IMCT  S5 PTB  00015                    0230 SR        000000000000 DENSO TEN (THAILAND)17014QL000300318061UL0025025                                                                                                                *          20180911 IMCT                IMCT                                                                                                                    WMF1809114.TXT
MDEDJ9247303201809                D89828070300PT1D20180917000030SPEAKER ASM                   M IMCTM S5NB082TNTH  09020IMCT  S5 PTB  00015                    0830 SR        000000000000 DENSO TEN (THAILAND)17034QL0005005                                                                                                                              *          20180911 IMCT                IMCT                                                                                                                    WMF1809114.TXT
MDEDJ9247304201809                D89828070300PT1D20180917000060SPEAKER ASM                   M IMCTM S5NB082TNTH  09020IMCT  S5 PTB  00015                    1300 SR        000000000000 DENSO TEN (THAILAND)18099XL0007008                                                                                                                              *          20180911 IMCT                IMCT                                                                                                                    WMF1809114.TXT
MDEDJ9247305201809                D89828070300PT1D20180917000030SPEAKER ASM                   M IMCTM S5NB082TNTH  09020IMCT  S5 PTB  00015                    2100 SR        000000000000 DENSO TEN (THAILAND)17046RL0010010                                                                                                                              *          20180911 IMCT                IMCT                                                                                                                    WMF1809114.TXT
MDEDJ9247306201809                D89829645410PT1D20180914000015RADIO;ASM DVD                 M IMCTM S5NC06 TNTH  09020IMCT  S5 PTB  00003                    2230 SR        000000000000 DENSO TEN (THAILAND)17005RL0006006                                                                                                                              *          20180911 IMCT                IMCT                                                                                                                    WMF1809114.TXT
MDEDJ9247307201809                D89831229010PT1D20180914000015RADIO;AM/FM,CD                M IMCTM S5NC06 TNTH  09020IMCT  S5 PTB  00003                    2230 SR        000000000000 DENSO TEN (THAILAND)17002RL0010010                                                                                                                              *          20180911 IMCT                IMCT                                                                                                                    WMF1809114.TXT
MDEDJ9247308201809                D89831229010PT1D20180917000015RADIO;AM/FM,CD                M IMCTM S5NC06 TNTH  09020IMCT  S5 PTB  00003                    2100 SR        000000000000 DENSO TEN (THAILAND)17046RL0010010                                                                                                                              *          20180911 IMCT                IMCT                                                                                                                    WMF1809114.TXT
MDEDJ9247309201809                D89831229200PT1D20180915000015RADIO;AM/FM,CD                M IMCTM S5NC06 TNTH  09020IMCT  S5 PTB  00003                    0230 SR        000000000000 DENSO TEN (THAILAND)17014QL0003003                                                                                                                              *          20180911 IMCT                IMCT                                                                                                                    WMF1809114.TXT
MDEDJ9247310201809                D89831229200PT1D20180917000015RADIO;AM/FM,CD                M IMCTM S5NC06 TNTH  09020IMCT  S5 PTB  00003                    0830 SR        000000000000 DENSO TEN (THAILAND)17034QL0005005                                                                                                                              *          20180911 IMCT                IMCT                                                                                                                    WMF1809114.TXT
MDEDJ9247311201809                D89848581800PT1D20180914000015RADIO;AM/FM CD D              M IMCTM S5NC06 TNTH  09020IMCT  S5 PTB  00003                    2230 SR        000000000000 DENSO TEN (THAILAND)18061UL0024024                                                                                                                              *          20180911 IMCT                IMCT                                                                                                                    WMF1809114.TXT
MDEDJ9247312201809                D89848581800PT1D20180915000015RADIO;AM/FM CD D              M IMCTM S5NC06 TNTH  09020IMCT  S5 PTB  00003                    0230 SR        000000000000 DENSO TEN (THAILAND)18061UL0025025                                                                                                                              *          20180911 IMCT                IMCT                                                                                                                    WMF1809114.TXT
MDEUJ9222469201809                D89828070100PT4U20180914000030SPEAKER ASM                   M IMCTM S0FL05 TNTH  09020IMCT  S0 PTB  00004                    2230 SR        000000000000 DENSO TEN (THAILAND)18021UU0177177                                                                                                                              *          20180911 IMCT                IMCT                                                                                                                    WMF1809114.TXT
MDEUJ9222470201809                D89828070100PT4U20180915000030SPEAKER ASM                   M IMCTM S0FL05 TNTH  09020IMCT  S0 PTB  00004                    0230 SR        000000000000 DENSO TEN (THAILAND)18020UU0114114                                                                                                                              *          20180911 IMCT                IMCT                                                                                                                    WMF1809114.TXT
MDEUJ9222471201809                D89828070100PT4U20180917000030SPEAKER ASM                   M IMCTM S0FL05 TNTH  09020IMCT  S0 PTB  00004                    0830 SR        000000000000 DENSO TEN (THAILAND)18020UU0115115                                                                                                                              *          20180911 IMCT                IMCT                                                                                                                    WMF1809114.TXT
MDEUJ9222472201809                D89828070100PT4U20180917000030SPEAKER ASM                   M IMCTM S0FL05 TNTH  09020IMCT  S0 PTB  00004                    1300 SR        000000000000 DENSO TEN (THAILAND)18020UU0116116                                                                                                                              *          20180911 IMCT                IMCT                                                                                                                    WMF1809114.TXT
MDEUJ9222473201809                D89828070100PT4U20180917000030SPEAKER ASM                   M IMCTM S0FL05 TNTH  09020IMCT  S0 PTB  00004                    1600 SR        000000000000 DENSO TEN (THAILAND)18020UU0117117                                                                                                                              *          20180911 IMCT                IMCT                                                                                                                    WMF1809114.TXT
MDEUJ9222474201809                D89828070100PT4U20180917000030SPEAKER ASM                   M IMCTM S0FL05 TNTH  09020IMCT  S0 PTB  00004                    2230 SR        000000000000 DENSO TEN (THAILAND)18021UU0178178                                                                                                                              *          20180911 IMCT                IMCT                                                                                                                    WMF1809114.TXT
MDEUJ9222475201809                D89828070200PV4U20180914000030SPEAKER ASM                   M IMCTM S0FR05 TNTH  09020IMCT  S0 PTB  00005                    2230 SR        000000000000 DENSO TEN (THAILAND)18021UU0177177                                                                                                                              *          20180911 IMCT                IMCT                                                                                                                    WMF1809114.TXT
MDEUJ9222476201809                D89828070200PV4U20180915000030SPEAKER ASM                   M IMCTM S0FR05 TNTH  09020IMCT  S0 PTB  00005                    0230 SR        000000000000 DENSO TEN (THAILAND)18020UU0114114                                                                                                                              *          20180911 IMCT                IMCT                                                                                                                    WMF1809114.TXT
MDEUJ9222477201809                D89828070200PV4U20180917000030SPEAKER ASM                   M IMCTM S0FR05 TNTH  09020IMCT  S0 PTB  00005                    0830 SR        000000000000 DENSO TEN (THAILAND)18020UU0115115                                                                                                                              *          20180911 IMCT                IMCT                                                                                                                    WMF1809114.TXT
MDEUJ9222478201809                D89828070200PV4U20180917000030SPEAKER ASM                   M IMCTM S0FR05 TNTH  09020IMCT  S0 PTB  00005                    1300 SR        000000000000 DENSO TEN (THAILAND)18020UU0116116                                                                                                                              *          20180911 IMCT                IMCT                                                                                                                    WMF1809114.TXT
MDEUJ9222479201809                D89828070200PV4U20180917000030SPEAKER ASM                   M IMCTM S0FR05 TNTH  09020IMCT  S0 PTB  00005                    1600 SR        000000000000 DENSO TEN (THAILAND)18020UU0117117                                                                                                                              *          20180911 IMCT                IMCT                                                                                                                    WMF1809114.TXT
MDEUJ9222480201809                D89828070200PV4U20180917000030SPEAKER ASM                   M IMCTM S0FR05 TNTH  09020IMCT  S0 PTB  00005                    2230 SR        000000000000 DENSO TEN (THAILAND)18021UU0178178                                                                                                                              *          20180911 IMCT                IMCT                                                                                                                    WMF1809114.TXT
MDEUJ9222481201809                D89828070300PT4U20180914000030SPEAKER ASM                   M IMCTM S9TS02 TNTH  09020IMCT  S9 PTB  00015                    2230 SR        000000000000 DENSO TEN (THAILAND)18021UU0177177                                                                                                                              *          20180911 IMCT                IMCT                                                                                                                    WMF1809114.TXT
MDEUJ9222482201809                D89828070300PT4U20180915000030SPEAKER ASM                   M IMCTM S9TS02 TNTH  09020IMCT  S9 PTB  00015                    0230 SR        000000000000 DENSO TEN (THAILAND)18020UU0114114                                                                                                                              *          20180911 IMCT                IMCT                                                                                                                    WMF1809114.TXT
MDEUJ9222483201809                D89828070300PT4U20180917000030SPEAKER ASM                   M IMCTM S9TS02 TNTH  09020IMCT  S9 PTB  00015                    0830 SR        000000000000 DENSO TEN (THAILAND)18020UU0115115                                                                                                                              *          20180911 IMCT                IMCT                                                                                                                    WMF1809114.TXT
MDEUJ9222484201809                D89828070300PT4U20180917000030SPEAKER ASM                   M IMCTM S9TS02 TNTH  09020IMCT  S9 PTB  00015                    1300 SR        000000000000 DENSO TEN (THAILAND)18020UU0116116                                                                                                                              *          20180911 IMCT                IMCT                                                                                                                    WMF1809114.TXT
MDEUJ9222485201809                D89828070300PT4U20180917000030SPEAKER ASM                   M IMCTM S9TS02 TNTH  09020IMCT  S9 PTB  00015                    1600 SR        000000000000 DENSO TEN (THAILAND)18020UU0117117                                                                                                                              *          20180911 IMCT                IMCT                                                                                                                    WMF1809114.TXT
MDEUJ9222486201809                D89828070300PT4U20180917000030SPEAKER ASM                   M IMCTM S9TS02 TNTH  09020IMCT  S9 PTB  00015                    2230 SR        000000000000 DENSO TEN (THAILAND)18021UU0178178                                                                                                                              *          20180911 IMCT                IMCT                                                                                                                    WMF1809114.TXT
