REC2018101020181010ISUZU                              26     
MDD6JO237764201810                D89821984430PT5620181013000030RADIO;AM/FM,CD                M IMCTM G9J213 TNTH  09020G/WAY G9 PTB  00005                    2100 GW        0000000000005DENSO TEN (THAILAND)190MYAG0004004                                                                                                                              *          20181010 IMCT                IMCT                                                                                                                    WMF1810103.TXT
MDD6JO237765201810                D89828070100PV5620181013000060SPEAKER ASM                   M IMCTM G9B114 TNTH  09020G/WAY G9 PTB  00004                    1530 GW        0000000000005DENSO TEN (THAILAND)190MRVG0011011                                                                                                                              *          20181010 IMCT                IMCT                                                                                                                    WMF1810103.TXT
MDD6JO237766201810                D89828070100PV5620181013000060SPEAKER ASM                   M IMCTM G9B114 TNTH  09020G/WAY G9 PTB  00004                    2100 GW        0000000000005DENSO TEN (THAILAND)190MYAG0004004                                                                                                                              *          20181010 IMCT                IMCT                                                                                                                    WMF1810103.TXT
MDD6JO237767201810                D89828070100PV5620181013000060SPEAKER ASM                   M IMCTM G9B114 TNTH  09020G/WAY G9 PTB  00004                    2300 GW        0000000000005DENSO TEN (THAILAND)190MRWG0008008                                                                                                                              *          20181010 IMCT                IMCT                                                                                                                    WMF1810103.TXT
MDD6JO237768201810                D89828070100PV5620181014000060SPEAKER ASM                   M IMCTM G9B114 TNTH  09020G/WAY G9 PTB  00004                    0200 GW        0000000000005DENSO TEN (THAILAND)190MRWG0009009                                                                                                                              *          20181010 IMCT                IMCT                                                                                                                    WMF1810103.TXT
MDD6JO237769201810                D89828070100PV5620181014000060SPEAKER ASM                   M IMCTM G9B114 TNTH  09020G/WAY G9 PTB  00004                    0330 GW        0000000000005DENSO TEN (THAILAND)190MRKG0005005                                                                                                                              *          20181010 IMCT                IMCT                                                                                                                    WMF1810103.TXT
MDD6JO237770201810                D89828070100PV5620181015000060SPEAKER ASM                   M IMCTM G9B114 TNTH  09020G/WAY G9 PTB  00004                    0900 GW        0000000000005DENSO TEN (THAILAND)190MRJG0004004                                                                                                                              *          20181010 IMCT                IMCT                                                                                                                    WMF1810103.TXT
MDD6JO237771201810                D89828070100PV5620181015000060SPEAKER ASM                   M IMCTM G9B114 TNTH  09020G/WAY G9 PTB  00004                    1100 GW        0000000000005DENSO TEN (THAILAND)190MPGG0007007                                                                                                                              *          20181010 IMCT                IMCT                                                                                                                    WMF1810103.TXT
MDD6JO237772201810                D89828070100PV5620181015000060SPEAKER ASM                   M IMCTM G9B114 TNTH  09020G/WAY G9 PTB  00004                    1400 GW        0000000000005DENSO TEN (THAILAND)190MRDG0003003                                                                                                                              *          20181010 IMCT                IMCT                                                                                                                    WMF1810103.TXT
MDD6JO237773201810                D89828070200PV5620181013000060SPEAKER ASM                   M IMCTM G9F132 TNTH  09020G/WAY G9 PTB  00005                    1530 GW        0000000000005DENSO TEN (THAILAND)190MRVG0011011                                                                                                                              *          20181010 IMCT                IMCT                                                                                                                    WMF1810103.TXT
MDD6JO237774201810                D89828070200PV5620181013000060SPEAKER ASM                   M IMCTM G9F132 TNTH  09020G/WAY G9 PTB  00005                    2300 GW        0000000000005DENSO TEN (THAILAND)190MRWG0008008                                                                                                                              *          20181010 IMCT                IMCT                                                                                                                    WMF1810103.TXT
MDD6JO237775201810                D89828070200PV5620181014000060SPEAKER ASM                   M IMCTM G9F132 TNTH  09020G/WAY G9 PTB  00005                    0200 GW        0000000000005DENSO TEN (THAILAND)190MRWG0009009                                                                                                                              *          20181010 IMCT                IMCT                                                                                                                    WMF1810103.TXT
MDD6JO237776201810                D89828070200PV5620181014000060SPEAKER ASM                   M IMCTM G9F132 TNTH  09020G/WAY G9 PTB  00005                    0330 GW        0000000000005DENSO TEN (THAILAND)190MRKG0005005                                                                                                                              *          20181010 IMCT                IMCT                                                                                                                    WMF1810103.TXT
MDD6JO237777201810                D89828070200PV5620181015000060SPEAKER ASM                   M IMCTM G9F132 TNTH  09020G/WAY G9 PTB  00005                    0900 GW        0000000000005DENSO TEN (THAILAND)190MRJG0004004                                                                                                                              *          20181010 IMCT                IMCT                                                                                                                    WMF1810103.TXT
MDD6JO237778201810                D89828070200PV5620181015000060SPEAKER ASM                   M IMCTM G9F132 TNTH  09020G/WAY G9 PTB  00005                    1400 GW        0000000000005DENSO TEN (THAILAND)190MRDG0003003                                                                                                                              *          20181010 IMCT                IMCT                                                                                                                    WMF1810103.TXT
MDD6JO237779201810                D89828070300PT5620181013000060SPEAKER ASM                   M IMCTM G9JA33 TNTH  09020G/WAY G9 PTB  00015                    1530 GW        0000000000005DENSO TEN (THAILAND)190MRVG0011011                                                                                                                              *          20181010 IMCT                IMCT                                                                                                                    WMF1810103.TXT
MDD6JO237780201810                D89828070300PT5620181013000060SPEAKER ASM                   M IMCTM G9JA33 TNTH  09020G/WAY G9 PTB  00015                    2300 GW        0000000000005DENSO TEN (THAILAND)190MRWG0008008                                                                                                                              *          20181010 IMCT                IMCT                                                                                                                    WMF1810103.TXT
MDD6JO237781201810                D89828070300PT5620181014000060SPEAKER ASM                   M IMCTM G9JA33 TNTH  09020G/WAY G9 PTB  00015                    0200 GW        0000000000005DENSO TEN (THAILAND)190MRWG0009009                                                                                                                              *          20181010 IMCT                IMCT                                                                                                                    WMF1810103.TXT
MDD6JO237782201810                D89828070300PT5620181014000060SPEAKER ASM                   M IMCTM G9JA33 TNTH  09020G/WAY G9 PTB  00015                    0330 GW        0000000000005DENSO TEN (THAILAND)190MRKG0005005                                                                                                                              *          20181010 IMCT                IMCT                                                                                                                    WMF1810103.TXT
MDD6JO237783201810                D89828070300PT5620181015000060SPEAKER ASM                   M IMCTM G9JA33 TNTH  09020G/WAY G9 PTB  00015                    0900 GW        0000000000005DENSO TEN (THAILAND)190MRJG0004004                                                                                                                              *          20181010 IMCT                IMCT                                                                                                                    WMF1810103.TXT
MDD6JO237784201810                D89828070300PT5620181015000060SPEAKER ASM                   M IMCTM G9JA33 TNTH  09020G/WAY G9 PTB  00015                    1100 GW        0000000000005DENSO TEN (THAILAND)190MPGG0007007                                                                                                                              *          20181010 IMCT                IMCT                                                                                                                    WMF1810103.TXT
MDD6JO237785201810                D89828070300PT5620181015000060SPEAKER ASM                   M IMCTM G9JA33 TNTH  09020G/WAY G9 PTB  00015                    1400 GW        0000000000005DENSO TEN (THAILAND)190MRDG0003003                                                                                                                              *          20181010 IMCT                IMCT                                                                                                                    WMF1810103.TXT
MDD6JO237786201810                D89831228300PT5620181015000030RADIO;AM/FM,CD                M IMCTM G9J213 TNTH  09020G/WAY G9 CPB  00003                    1100 GW        0000000000005DENSO TEN (THAILAND)190MPGG0007007                                                                                                                              *          20181010 IMCT                IMCT                                                                                                                    WMF1810103.TXT
MDD6JO237787201810                D89831228400PT5620181015000030RADIO;AM/FM,CD                M IMCTM G9J213 TNTH  09020G/WAY G9 CPB  00003                    1400 GW        0000000000005DENSO TEN (THAILAND)190MRDG0003003                                                                                                                              *          20181010 IMCT                IMCT                                                                                                                    WMF1810103.TXT
MDD6JO237788201810                D89848581500PT5620181014000030RADIO;AM/FM CD D              M IMCTM G9J213 TNTH  09020G/WAY G9 PTB  00003                    0330 GW        0000000000005DENSO TEN (THAILAND)190MRKG0005005                                                                                                                              *          20181010 IMCT                IMCT                                                                                                                    WMF1810103.TXT
MDD6JO237789201810                D89848581500PT5620181015000030RADIO;AM/FM CD D              M IMCTM G9J213 TNTH  09020G/WAY G9 PTB  00003                    0900 GW        0000000000005DENSO TEN (THAILAND)190MRJG0004004                                                                                                                              *          20181010 IMCT                IMCT                                                                                                                    WMF1810103.TXT
