REC2018101220181012ISUZU                              28     
MDD6JO246723201810                D89821984430PT5620181016000030RADIO;AM/FM,CD                M IMCTM G9J213 TNTH  09020G/WAY G9 PTB  00005                    2300 GW        0000000000005DENSO TEN (THAILAND)190MYAG0005005                                                                                                                              *          20181012 IMCT                IMCT                                                                                                                    WMF1810127.TXT
MDD6JO246724201810                D89828070100PV5620181016000060SPEAKER ASM                   M IMCTM G9B114 TNTH  09020G/WAY G9 PTB  00004                    1530 GW        0000000000005DENSO TEN (THAILAND)190MRVG0013013                                                                                                                              *          20181012 IMCT                IMCT                                                                                                                    WMF1810127.TXT
MDD6JO246725201810                D89828070100PV5620181016000060SPEAKER ASM                   M IMCTM G9B114 TNTH  09020G/WAY G9 PTB  00004                    2100 GW        0000000000005DENSO TEN (THAILAND)190MRTG0016016                                                                                                                              *          20181012 IMCT                IMCT                                                                                                                    WMF1810127.TXT
MDD6JO246726201810                D89828070100PV5620181016000120SPEAKER ASM                   M IMCTM G9B114 TNTH  09020G/WAY G9 PTB  00004                    2300 GW        0000000000005DENSO TEN (THAILAND)190MRRG0005005190MYAG0005005                                                                                                                *          20181012 IMCT                IMCT                                                                                                                    WMF1810127.TXT
MDD6JO246727201810                D89828070100PV5620181017000120SPEAKER ASM                   M IMCTM G9B114 TNTH  09020G/WAY G9 PTB  00004                    0330 GW        0000000000005DENSO TEN (THAILAND)190MRGG0008008190MRWG0011011                                                                                                                *          20181012 IMCT                IMCT                                                                                                                    WMF1810127.TXT
MDD6JO246728201810                D89828070100PV5620181017000060SPEAKER ASM                   M IMCTM G9B114 TNTH  09020G/WAY G9 PTB  00004                    0900 GW        0000000000005DENSO TEN (THAILAND)190MRFG0006006                                                                                                                              *          20181012 IMCT                IMCT                                                                                                                    WMF1810127.TXT
MDD6JO246729201810                D89828070100PV5620181017000060SPEAKER ASM                   M IMCTM G9B114 TNTH  09020G/WAY G9 PTB  00004                    1100 GW        0000000000005DENSO TEN (THAILAND)190MRLG0005005                                                                                                                              *          20181012 IMCT                IMCT                                                                                                                    WMF1810127.TXT
MDD6JO246730201810                D89828070100PV5620181017000060SPEAKER ASM                   M IMCTM G9B114 TNTH  09020G/WAY G9 PTB  00004                    1400 GW        0000000000005DENSO TEN (THAILAND)190MPMG0002002                                                                                                                              *          20181012 IMCT                IMCT                                                                                                                    WMF1810127.TXT
MDD6JO246731201810                D89828070100PV5620181017000060SPEAKER ASM                   M IMCTM G9B114 TNTH  09020G/WAY G9 PTB  00004                    1530 GW        0000000000005DENSO TEN (THAILAND)190MREG0011011                                                                                                                              *          20181012 IMCT                IMCT                                                                                                                    WMF1810127.TXT
MDD6JO246732201810                D89828070200PV5620181016000060SPEAKER ASM                   M IMCTM G9F132 TNTH  09020G/WAY G9 PTB  00005                    1530 GW        0000000000005DENSO TEN (THAILAND)190MRVG0013013                                                                                                                              *          20181012 IMCT                IMCT                                                                                                                    WMF1810127.TXT
MDD6JO246733201810                D89828070200PV5620181016000060SPEAKER ASM                   M IMCTM G9F132 TNTH  09020G/WAY G9 PTB  00005                    2100 GW        0000000000005DENSO TEN (THAILAND)190MRTG0016016                                                                                                                              *          20181012 IMCT                IMCT                                                                                                                    WMF1810127.TXT
MDD6JO246734201810                D89828070200PV5620181016000060SPEAKER ASM                   M IMCTM G9F132 TNTH  09020G/WAY G9 PTB  00005                    2300 GW        0000000000005DENSO TEN (THAILAND)190MRRG0005005                                                                                                                              *          20181012 IMCT                IMCT                                                                                                                    WMF1810127.TXT
MDD6JO246735201810                D89828070200PV5620181017000120SPEAKER ASM                   M IMCTM G9F132 TNTH  09020G/WAY G9 PTB  00005                    0330 GW        0000000000005DENSO TEN (THAILAND)190MRGG0008008190MRWG0011011                                                                                                                *          20181012 IMCT                IMCT                                                                                                                    WMF1810127.TXT
MDD6JO246736201810                D89828070200PV5620181017000060SPEAKER ASM                   M IMCTM G9F132 TNTH  09020G/WAY G9 PTB  00005                    0900 GW        0000000000005DENSO TEN (THAILAND)190MRFG0006006                                                                                                                              *          20181012 IMCT                IMCT                                                                                                                    WMF1810127.TXT
MDD6JO246737201810                D89828070200PV5620181017000060SPEAKER ASM                   M IMCTM G9F132 TNTH  09020G/WAY G9 PTB  00005                    1100 GW        0000000000005DENSO TEN (THAILAND)190MRLG0005005                                                                                                                              *          20181012 IMCT                IMCT                                                                                                                    WMF1810127.TXT
MDD6JO246738201810                D89828070200PV5620181017000060SPEAKER ASM                   M IMCTM G9F132 TNTH  09020G/WAY G9 PTB  00005                    1530 GW        0000000000005DENSO TEN (THAILAND)190MREG0011011                                                                                                                              *          20181012 IMCT                IMCT                                                                                                                    WMF1810127.TXT
MDD6JO246739201810                D89828070300PT5620181016000060SPEAKER ASM                   M IMCTM G9JA33 TNTH  09020G/WAY G9 PTB  00015                    1530 GW        0000000000005DENSO TEN (THAILAND)190MRVG0013013                                                                                                                              *          20181012 IMCT                IMCT                                                                                                                    WMF1810127.TXT
MDD6JO246740201810                D89828070300PT5620181016000060SPEAKER ASM                   M IMCTM G9JA33 TNTH  09020G/WAY G9 PTB  00015                    2100 GW        0000000000005DENSO TEN (THAILAND)190MRTG0016016                                                                                                                              *          20181012 IMCT                IMCT                                                                                                                    WMF1810127.TXT
MDD6JO246741201810                D89828070300PT5620181016000060SPEAKER ASM                   M IMCTM G9JA33 TNTH  09020G/WAY G9 PTB  00015                    2300 GW        0000000000005DENSO TEN (THAILAND)190MRRG0005005                                                                                                                              *          20181012 IMCT                IMCT                                                                                                                    WMF1810127.TXT
MDD6JO246742201810                D89828070300PT5620181017000120SPEAKER ASM                   M IMCTM G9JA33 TNTH  09020G/WAY G9 PTB  00015                    0330 GW        0000000000005DENSO TEN (THAILAND)190MRGG0008008190MRWG0011011                                                                                                                *          20181012 IMCT                IMCT                                                                                                                    WMF1810127.TXT
MDD6JO246743201810                D89828070300PT5620181017000060SPEAKER ASM                   M IMCTM G9JA33 TNTH  09020G/WAY G9 PTB  00015                    0900 GW        0000000000005DENSO TEN (THAILAND)190MRFG0006006                                                                                                                              *          20181012 IMCT                IMCT                                                                                                                    WMF1810127.TXT
MDD6JO246744201810                D89828070300PT5620181017000060SPEAKER ASM                   M IMCTM G9JA33 TNTH  09020G/WAY G9 PTB  00015                    1100 GW        0000000000005DENSO TEN (THAILAND)190MRLG0005005                                                                                                                              *          20181012 IMCT                IMCT                                                                                                                    WMF1810127.TXT
MDD6JO246745201810                D89828070300PT5620181017000060SPEAKER ASM                   M IMCTM G9JA33 TNTH  09020G/WAY G9 PTB  00015                    1400 GW        0000000000005DENSO TEN (THAILAND)190MPMG0002002                                                                                                                              *          20181012 IMCT                IMCT                                                                                                                    WMF1810127.TXT
MDD6JO246746201810                D89828070300PT5620181017000060SPEAKER ASM                   M IMCTM G9JA33 TNTH  09020G/WAY G9 PTB  00015                    1530 GW        0000000000005DENSO TEN (THAILAND)190MREG0011011                                                                                                                              *          20181012 IMCT                IMCT                                                                                                                    WMF1810127.TXT
MDD6JO246747201810                D89831228400PT5620181017000030RADIO;AM/FM,CD                M IMCTM G9J213 TNTH  09020G/WAY G9 CPB  00003                    0330 GW        0000000000005DENSO TEN (THAILAND)190MRGG0008008                                                                                                                              *          20181012 IMCT                IMCT                                                                                                                    WMF1810127.TXT
MDD6JO246748201810                D89831228400PT5620181017000030RADIO;AM/FM,CD                M IMCTM G9J213 TNTH  09020G/WAY G9 CPB  00003                    0900 GW        0000000000005DENSO TEN (THAILAND)190MRFG0006006                                                                                                                              *          20181012 IMCT                IMCT                                                                                                                    WMF1810127.TXT
MDD6JO246749201810                D89831228400PT5620181017000030RADIO;AM/FM,CD                M IMCTM G9J213 TNTH  09020G/WAY G9 CPB  00003                    1530 GW        0000000000005DENSO TEN (THAILAND)190MREG0011011                                                                                                                              *          20181012 IMCT                IMCT                                                                                                                    WMF1810127.TXT
MDD6JO246750201810                D89848581500PT5620181016000030RADIO;AM/FM CD D              M IMCTM G9J213 TNTH  09020G/WAY G9 PTB  00003                    2100 GW        0000000000005DENSO TEN (THAILAND)190MRTG0016016                                                                                                                              *          20181012 IMCT                IMCT                                                                                                                    WMF1810127.TXT
