REC2018100520181005ISUZU                              72     
MDDDJO233745201810                D89821984430PT1D20181009000030RADIO;AM/FM,CD                M IMCTM S5NC06 TNTH  09020IMCT  S5 PTB  00005                    2230 SR        000000000000 DENSO TEN (THAILAND)190MYAL0015015                                                                                                                              *          20181005 IMCT                IMCT                                                                                                                    WMF1810055.TXT
MDDDJO233746201810                D89821984430PT1D20181010000030RADIO;AM/FM,CD                M IMCTM S5NC06 TNTH  09020IMCT  S5 PTB  00005                    0830 SR        000000000000 DENSO TEN (THAILAND)190MXEL0003003                                                                                                                              *          20181005 IMCT                IMCT                                                                                                                    WMF1810055.TXT
MDDDJO233747201810                D89821984430PT1D20181010000030RADIO;AM/FM,CD                M IMCTM S5NC06 TNTH  09020IMCT  S5 PTB  00005                    1300 SR        000000000000 DENSO TEN (THAILAND)190MRAL0001001                                                                                                                              *          20181005 IMCT                IMCT                                                                                                                    WMF1810055.TXT
MDDDJO233748201810                D89821984430PT1D20181010000030RADIO;AM/FM,CD                M IMCTM S5NC06 TNTH  09020IMCT  S5 PTB  00005                    1600 SR        000000000000 DENSO TEN (THAILAND)190MNGL0005005                                                                                                                              *          20181005 IMCT                IMCT                                                                                                                    WMF1810055.TXT
MDDDJO233749201810                D89828070100PV1D20181009000060SPEAKER ASM                   M IMCTM S5MB11 TNTH  09020IMCT  S5 PTB  00004                    2230 SR        000000000000 DENSO TEN (THAILAND)190MYAL0015015                                                                                                                              *          20181005 IMCT                IMCT                                                                                                                    WMF1810055.TXT
MDDDJO233750201810                D89828070100PV1D20181010000060SPEAKER ASM                   M IMCTM S5MB11 TNTH  09020IMCT  S5 PTB  00004                    0830 SR        000000000000 DENSO TEN (THAILAND)190MXEL0003003                                                                                                                              *          20181005 IMCT                IMCT                                                                                                                    WMF1810055.TXT
MDDDJO233751201810                D89828070100PV1D20181010000120SPEAKER ASM                   M IMCTM S5MB11 TNTH  09020IMCT  S5 PTB  00004                    1300 SR        000000000000 DENSO TEN (THAILAND)190MPLL0002002190MRAL0001001                                                                                                                *          20181005 IMCT                IMCT                                                                                                                    WMF1810055.TXT
MDDDJO233752201810                D89828070100PV1D20181010000180SPEAKER ASM                   M IMCTM S5MB11 TNTH  09020IMCT  S5 PTB  00004                    1600 SR        000000000000 DENSO TEN (THAILAND)190MNGL0005005190MPDL0002002190MPFL0004004                                                                                                  *          20181005 IMCT                IMCT                                                                                                                    WMF1810055.TXT
MDDDJO233753201810                D89828070100PV4D20181010000060SPEAKER ASM                   M IMCTM S0FL05 TNTH  09020IMCT  S0 PTB  00004                    0400 SR        000000000000 DENSO TEN (THAILAND)190MRVU0004004                                                                                                                              *          20181005 IMCT                IMCT                                                                                                                    WMF1810055.TXT
MDDDJO233754201810                D89828070100PV4D20181010000060SPEAKER ASM                   M IMCTM S0FL05 TNTH  09020IMCT  S0 PTB  00004                    1300 SR        000000000000 DENSO TEN (THAILAND)190MRMU0005005                                                                                                                              *          20181005 IMCT                IMCT                                                                                                                    WMF1810055.TXT
MDDDJO233755201810                D89828070100PV4D20181010000060SPEAKER ASM                   M IMCTM S0FL05 TNTH  09020IMCT  S0 PTB  00004                    2100 SR        000000000000 DENSO TEN (THAILAND)190MRTU0007007                                                                                                                              *          20181005 IMCT                IMCT                                                                                                                    WMF1810055.TXT
MDDDJO233756201810                D89828070200PV4D20181010000060SPEAKER ASM                   M IMCTM S0FR05 TNTH  09020IMCT  S0 PTB  00005                    0400 SR        000000000000 DENSO TEN (THAILAND)190MRVU0004004                                                                                                                              *          20181005 IMCT                IMCT                                                                                                                    WMF1810055.TXT
MDDDJO233757201810                D89828070200PV4D20181010000060SPEAKER ASM                   M IMCTM S0FR05 TNTH  09020IMCT  S0 PTB  00005                    1300 SR        000000000000 DENSO TEN (THAILAND)190MRMU0005005                                                                                                                              *          20181005 IMCT                IMCT                                                                                                                    WMF1810055.TXT
MDDDJO233758201810                D89828070200PV4D20181010000060SPEAKER ASM                   M IMCTM S0FR05 TNTH  09020IMCT  S0 PTB  00005                    2100 SR        000000000000 DENSO TEN (THAILAND)190MRTU0007007                                                                                                                              *          20181005 IMCT                IMCT                                                                                                                    WMF1810055.TXT
MDDDJO233759201810                D89828070300PT1D20181010000060SPEAKER ASM                   M IMCTM S5NB082TNTH  09020IMCT  S5 PTB  00015                    1300 SR        000000000000 DENSO TEN (THAILAND)190MPLL0002002                                                                                                                              *          20181005 IMCT                IMCT                                                                                                                    WMF1810055.TXT
MDDDJO233760201810                D89828070300PT1D20181010000120SPEAKER ASM                   M IMCTM S5NB082TNTH  09020IMCT  S5 PTB  00015                    1600 SR        000000000000 DENSO TEN (THAILAND)190MPDL0002002190MPFL0004004                                                                                                                *          20181005 IMCT                IMCT                                                                                                                    WMF1810055.TXT
MDDDJO233761201810                D89828070300PT4D20181010000060SPEAKER ASM                   M IMCTM S9TS02 TNTH  09020IMCT  S9 PTB  00015                    0400 SR        000000000000 DENSO TEN (THAILAND)190MRVU0004004                                                                                                                              *          20181005 IMCT                IMCT                                                                                                                    WMF1810055.TXT
MDDDJO233762201810                D89828070300PT4D20181010000060SPEAKER ASM                   M IMCTM S9TS02 TNTH  09020IMCT  S9 PTB  00015                    1300 SR        000000000000 DENSO TEN (THAILAND)190MRMU0005005                                                                                                                              *          20181005 IMCT                IMCT                                                                                                                    WMF1810055.TXT
MDDDJO233763201810                D89828070300PT4D20181010000060SPEAKER ASM                   M IMCTM S9TS02 TNTH  09020IMCT  S9 PTB  00015                    2100 SR        000000000000 DENSO TEN (THAILAND)190MRTU0007007                                                                                                                              *          20181005 IMCT                IMCT                                                                                                                    WMF1810055.TXT
MDDDJO233764201810                D89831228300PT1D20181010000060RADIO;AM/FM,CD                M IMCTM S5NC06 TNTH  09020IMCT  S5 CPB  00003                    1600 SR        000000000000 DENSO TEN (THAILAND)190MPDL0002002190MPFL0004004                                                                                                                *          20181005 IMCT                IMCT                                                                                                                    WMF1810055.TXT
MDDDJO233765201810                D89848581500PT4D20181010000030RADIO;AM/FM CD D              M IMCTM S9CO001TNTH  09020IMCT  S9 PTB  00003                    2100 SR        000000000000 DENSO TEN (THAILAND)190MRTU0007007                                                                                                                              *          20181005 IMCT                IMCT                                                                                                                    WMF1810055.TXT
MDDDJO233766201810                D89848581600PT1D20181010000030RADIO;AM/FM CD D              M IMCTM S5NC06 TNTH  09020IMCT  S5 PTB  00003                    1300 SR        000000000000 DENSO TEN (THAILAND)190MPLL0002002                                                                                                                              *          20181005 IMCT                IMCT                                                                                                                    WMF1810055.TXT
MDDUJO208630201810                D89828070100PT4U20181010000030SPEAKER ASM                   M IMCTM S0FL05 TNTH  09020IMCT  S0 PTB  00004                    0230 SR        000000000000 DENSO TEN (THAILAND)180LUSU0180180                                                                                                                              *          20181005 IMCT                IMCT                                                                                                                    WMF1810055.TXT
MDDUJO208631201810                D89828070100PT4U20181010000030SPEAKER ASM                   M IMCTM S0FL05 TNTH  09020IMCT  S0 PTB  00004                    0830 SR        000000000000 DENSO TEN (THAILAND)180LURU0084084                                                                                                                              *          20181005 IMCT                IMCT                                                                                                                    WMF1810055.TXT
MDDUJO208632201810                D89828070100PT4U20181010000030SPEAKER ASM                   M IMCTM S0FL05 TNTH  09020IMCT  S0 PTB  00004                    1600 SR        000000000000 DENSO TEN (THAILAND)180LULU0081081                                                                                                                              *          20181005 IMCT                IMCT                                                                                                                    WMF1810055.TXT
MDDUJO208633201810                D89828070200PV4U20181010000030SPEAKER ASM                   M IMCTM S0FR05 TNTH  09020IMCT  S0 PTB  00005                    0230 SR        000000000000 DENSO TEN (THAILAND)180LUSU0180180                                                                                                                              *          20181005 IMCT                IMCT                                                                                                                    WMF1810055.TXT
MDDUJO208634201810                D89828070200PV4U20181010000030SPEAKER ASM                   M IMCTM S0FR05 TNTH  09020IMCT  S0 PTB  00005                    0830 SR        000000000000 DENSO TEN (THAILAND)180LURU0084084                                                                                                                              *          20181005 IMCT                IMCT                                                                                                                    WMF1810055.TXT
MDDUJO208635201810                D89828070200PV4U20181010000030SPEAKER ASM                   M IMCTM S0FR05 TNTH  09020IMCT  S0 PTB  00005                    1600 SR        000000000000 DENSO TEN (THAILAND)180LULU0081081                                                                                                                              *          20181005 IMCT                IMCT                                                                                                                    WMF1810055.TXT
MDDUJO208636201810                D89828070300PT4U20181010000030SPEAKER ASM                   M IMCTM S9TS02 TNTH  09020IMCT  S9 PTB  00015                    0230 SR        000000000000 DENSO TEN (THAILAND)180LUSU0180180                                                                                                                              *          20181005 IMCT                IMCT                                                                                                                    WMF1810055.TXT
MDDUJO208637201810                D89828070300PT4U20181010000030SPEAKER ASM                   M IMCTM S9TS02 TNTH  09020IMCT  S9 PTB  00015                    0830 SR        000000000000 DENSO TEN (THAILAND)180LURU0084084                                                                                                                              *          20181005 IMCT                IMCT                                                                                                                    WMF1810055.TXT
MDDUJO208638201810                D89828070300PT4U20181010000030SPEAKER ASM                   M IMCTM S9TS02 TNTH  09020IMCT  S9 PTB  00015                    1600 SR        000000000000 DENSO TEN (THAILAND)180LULU0081081                                                                                                                              *          20181005 IMCT                IMCT                                                                                                                    WMF1810055.TXT
MDEDJO226368201810                D89828070100PV1D20181009000060SPEAKER ASM                   M IMCTM S5MB11 TNTH  09020IMCT  S5 PTB  00004                    2230 SR        000000000000 DENSO TEN (THAILAND)17033QL010410418075UL0006006                                                                                                                *          20181005 IMCT                IMCT                                                                                                                    WMF1810055.TXT
MDEDJO226369201810                D89828070100PV1D20181010000060SPEAKER ASM                   M IMCTM S5MB11 TNTH  09020IMCT  S5 PTB  00004                    0230 SR        000000000000 DENSO TEN (THAILAND)17072PL000100118061UL0032032                                                                                                                *          20181005 IMCT                IMCT                                                                                                                    WMF1810055.TXT
MDEDJO226370201810                D89828070100PV1D20181010000090SPEAKER ASM                   M IMCTM S5MB11 TNTH  09020IMCT  S5 PTB  00004                    0400 SR        000000000000 DENSO TEN (THAILAND)17033QL010510617075PL0148148                                                                                                                *          20181005 IMCT                IMCT                                                                                                                    WMF1810055.TXT
MDEDJO226371201810                D89828070100PV1D20181010000030SPEAKER ASM                   M IMCTM S5MB11 TNTH  09020IMCT  S5 PTB  00004                    0830 SR        000000000000 DENSO TEN (THAILAND)17075PL0149149                                                                                                                              *          20181005 IMCT                IMCT                                                                                                                    WMF1810055.TXT
MDEDJO226372201810                D89828070100PV1D20181010000060SPEAKER ASM                   M IMCTM S5MB11 TNTH  09020IMCT  S5 PTB  00004                    1030 SR        000000000000 DENSO TEN (THAILAND)180G89L000100118066UL0017017                                                                                                                *          20181005 IMCT                IMCT                                                                                                                    WMF1810055.TXT
MDEDJO226373201810                D89828070100PV1D20181010000060SPEAKER ASM                   M IMCTM S5MB11 TNTH  09020IMCT  S5 PTB  00004                    1600 SR        000000000000 DENSO TEN (THAILAND)18082UL0073074                                                                                                                              *          20181005 IMCT                IMCT                                                                                                                    WMF1810055.TXT
MDEDJO226374201810                D89828070100PV1D20181010000030SPEAKER ASM                   M IMCTM S5MB11 TNTH  09020IMCT  S5 PTB  00004                    2100 SR        000000000000 DENSO TEN (THAILAND)17033QL0107107                                                                                                                              *          20181005 IMCT                IMCT                                                                                                                    WMF1810055.TXT
MDEDJO226375201810                D89828070100PV1D20181010000030SPEAKER ASM                   M IMCTM S5MB11 TNTH  09020IMCT  S5 PTB  00004                    2230 SR        000000000000 DENSO TEN (THAILAND)17033QL0108108                                                                                                                              *          20181005 IMCT                IMCT                                                                                                                    WMF1810055.TXT
MDEDJO226376201810                D89828070100PV4D20181010000030SPEAKER ASM                   M IMCTM S0FL05 TNTH  09020IMCT  S0 PTB  00004                    1600 SR        000000000000 DENSO TEN (THAILAND)18036ZU0008008                                                                                                                              *          20181005 IMCT                IMCT                                                                                                                    WMF1810055.TXT
MDEDJO226377201810                D89828070200PV1D20181009000030SPEAKER ASM                   M IMCTM S5MA14 TNTH  09020IMCT  S5 PTB  00005                    2230 SR        000000000000 DENSO TEN (THAILAND)17033QL0104104                                                                                                                              *          20181005 IMCT                IMCT                                                                                                                    WMF1810055.TXT
MDEDJO226378201810                D89828070200PV1D20181010000060SPEAKER ASM                   M IMCTM S5MA14 TNTH  09020IMCT  S5 PTB  00005                    0400 SR        000000000000 DENSO TEN (THAILAND)17033QL0105106                                                                                                                              *          20181005 IMCT                IMCT                                                                                                                    WMF1810055.TXT
MDEDJO226379201810                D89828070200PV1D20181010000030SPEAKER ASM                   M IMCTM S5MA14 TNTH  09020IMCT  S5 PTB  00005                    1030 SR        000000000000 DENSO TEN (THAILAND)18066UL0017017                                                                                                                              *          20181005 IMCT                IMCT                                                                                                                    WMF1810055.TXT
MDEDJO226380201810                D89828070200PV1D20181010000060SPEAKER ASM                   M IMCTM S5MA14 TNTH  09020IMCT  S5 PTB  00005                    1600 SR        000000000000 DENSO TEN (THAILAND)18082UL0073074                                                                                                                              *          20181005 IMCT                IMCT                                                                                                                    WMF1810055.TXT
MDEDJO226381201810                D89828070200PV1D20181010000030SPEAKER ASM                   M IMCTM S5MA14 TNTH  09020IMCT  S5 PTB  00005                    2100 SR        000000000000 DENSO TEN (THAILAND)17033QL0107107                                                                                                                              *          20181005 IMCT                IMCT                                                                                                                    WMF1810055.TXT
MDEDJO226382201810                D89828070200PV1D20181010000030SPEAKER ASM                   M IMCTM S5MA14 TNTH  09020IMCT  S5 PTB  00005                    2230 SR        000000000000 DENSO TEN (THAILAND)17033QL0108108                                                                                                                              *          20181005 IMCT                IMCT                                                                                                                    WMF1810055.TXT
MDEDJO226383201810                D89828070200PV4D20181010000030SPEAKER ASM                   M IMCTM S0FR05 TNTH  09020IMCT  S0 PTB  00005                    1600 SR        000000000000 DENSO TEN (THAILAND)18036ZU0008008                                                                                                                              *          20181005 IMCT                IMCT                                                                                                                    WMF1810055.TXT
MDEDJO226384201810                D89828070300PT1D20181009000060SPEAKER ASM                   M IMCTM S5NB082TNTH  09020IMCT  S5 PTB  00015                    2230 SR        000000000000 DENSO TEN (THAILAND)17033QL010410418075UL0006006                                                                                                                *          20181005 IMCT                IMCT                                                                                                                    WMF1810055.TXT
MDEDJO226385201810                D89828070300PT1D20181010000060SPEAKER ASM                   M IMCTM S5NB082TNTH  09020IMCT  S5 PTB  00015                    0230 SR        000000000000 DENSO TEN (THAILAND)17072PL000100118061UL0032032                                                                                                                *          20181005 IMCT                IMCT                                                                                                                    WMF1810055.TXT
MDEDJO226386201810                D89828070300PT1D20181010000060SPEAKER ASM                   M IMCTM S5NB082TNTH  09020IMCT  S5 PTB  00015                    0400 SR        000000000000 DENSO TEN (THAILAND)17033QL0105106                                                                                                                              *          20181005 IMCT                IMCT                                                                                                                    WMF1810055.TXT
MDEDJO226387201810                D89828070300PT1D20181010000060SPEAKER ASM                   M IMCTM S5NB082TNTH  09020IMCT  S5 PTB  00015                    1030 SR        000000000000 DENSO TEN (THAILAND)180G89L000100118066UL0017017                                                                                                                *          20181005 IMCT                IMCT                                                                                                                    WMF1810055.TXT
MDEDJO226388201810                D89828070300PT1D20181010000060SPEAKER ASM                   M IMCTM S5NB082TNTH  09020IMCT  S5 PTB  00015                    1600 SR        000000000000 DENSO TEN (THAILAND)18082UL0073074                                                                                                                              *          20181005 IMCT                IMCT                                                                                                                    WMF1810055.TXT
MDEDJO226389201810                D89828070300PT1D20181010000030SPEAKER ASM                   M IMCTM S5NB082TNTH  09020IMCT  S5 PTB  00015                    2100 SR        000000000000 DENSO TEN (THAILAND)17033QL0107107                                                                                                                              *          20181005 IMCT                IMCT                                                                                                                    WMF1810055.TXT
MDEDJO226390201810                D89828070300PT1D20181010000030SPEAKER ASM                   M IMCTM S5NB082TNTH  09020IMCT  S5 PTB  00015                    2230 SR        000000000000 DENSO TEN (THAILAND)17033QL0108108                                                                                                                              *          20181005 IMCT                IMCT                                                                                                                    WMF1810055.TXT
MDEDJO226391201810                D89828070300PT4D20181010000030SPEAKER ASM                   M IMCTM S9TS02 TNTH  09020IMCT  S9 PTB  00015                    1600 SR        000000000000 DENSO TEN (THAILAND)18036ZU0008008                                                                                                                              *          20181005 IMCT                IMCT                                                                                                                    WMF1810055.TXT
MDEDJO226392201810                D89831229200PT1D20181009000015RADIO;AM/FM,CD                M IMCTM S5NC06 TNTH  09020IMCT  S5 PTB  00003                    2230 SR        000000000000 DENSO TEN (THAILAND)17033QL0104104                                                                                                                              *          20181005 IMCT                IMCT                                                                                                                    WMF1810055.TXT
MDEDJO226393201810                D89831229200PT1D20181010000015RADIO;AM/FM,CD                M IMCTM S5NC06 TNTH  09020IMCT  S5 PTB  00003                    0230 SR        000000000000 DENSO TEN (THAILAND)17072PL0001001                                                                                                                              *          20181005 IMCT                IMCT                                                                                                                    WMF1810055.TXT
MDEDJO226394201810                D89831229200PT1D20181010000030RADIO;AM/FM,CD                M IMCTM S5NC06 TNTH  09020IMCT  S5 PTB  00003                    0400 SR        000000000000 DENSO TEN (THAILAND)17033QL0105106                                                                                                                              *          20181005 IMCT                IMCT                                                                                                                    WMF1810055.TXT
MDEDJO226395201810                D89831229200PT1D20181010000015RADIO;AM/FM,CD                M IMCTM S5NC06 TNTH  09020IMCT  S5 PTB  00003                    2100 SR        000000000000 DENSO TEN (THAILAND)17033QL0107107                                                                                                                              *          20181005 IMCT                IMCT                                                                                                                    WMF1810055.TXT
MDEDJO226396201810                D89831229200PT1D20181010000015RADIO;AM/FM,CD                M IMCTM S5NC06 TNTH  09020IMCT  S5 PTB  00003                    2230 SR        000000000000 DENSO TEN (THAILAND)17033QL0108108                                                                                                                              *          20181005 IMCT                IMCT                                                                                                                    WMF1810055.TXT
MDEDJO226397201810                D89848581800PT1D20181010000015RADIO;AM/FM CD D              M IMCTM S5NC06 TNTH  09020IMCT  S5 PTB  00003                    0230 SR        000000000000 DENSO TEN (THAILAND)18061UL0032032                                                                                                                              *          20181005 IMCT                IMCT                                                                                                                    WMF1810055.TXT
MDEDJO226398201810                D89848581800PT1D20181010000015RADIO;AM/FM CD D              M IMCTM S5NC06 TNTH  09020IMCT  S5 PTB  00003                    1030 SR        000000000000 DENSO TEN (THAILAND)18066UL0017017                                                                                                                              *          20181005 IMCT                IMCT                                                                                                                    WMF1810055.TXT
MDEDJO226399201810                D89848581800PT1D20181010000030RADIO;AM/FM CD D              M IMCTM S5NC06 TNTH  09020IMCT  S5 PTB  00003                    1600 SR        000000000000 DENSO TEN (THAILAND)18082UL0073074                                                                                                                              *          20181005 IMCT                IMCT                                                                                                                    WMF1810055.TXT
MDEUJO212661201810                D89828070100PT4U20181010000030SPEAKER ASM                   M IMCTM S0FL05 TNTH  09020IMCT  S0 PTB  00004                    0400 SR        000000000000 DENSO TEN (THAILAND)18021UU0203203                                                                                                                              *          20181005 IMCT                IMCT                                                                                                                    WMF1810055.TXT
MDEUJO212662201810                D89828070100PT4U20181010000030SPEAKER ASM                   M IMCTM S0FL05 TNTH  09020IMCT  S0 PTB  00004                    1300 SR        000000000000 DENSO TEN (THAILAND)190G77U0001001                                                                                                                              *          20181005 IMCT                IMCT                                                                                                                    WMF1810055.TXT
MDEUJO212663201810                D89828070100PT4U20181010000030SPEAKER ASM                   M IMCTM S0FL05 TNTH  09020IMCT  S0 PTB  00004                    1600 SR        000000000000 DENSO TEN (THAILAND)18020UU0132132                                                                                                                              *          20181005 IMCT                IMCT                                                                                                                    WMF1810055.TXT
MDEUJO212664201810                D89828070200PV4U20181010000030SPEAKER ASM                   M IMCTM S0FR05 TNTH  09020IMCT  S0 PTB  00005                    0400 SR        000000000000 DENSO TEN (THAILAND)18021UU0203203                                                                                                                              *          20181005 IMCT                IMCT                                                                                                                    WMF1810055.TXT
MDEUJO212665201810                D89828070200PV4U20181010000030SPEAKER ASM                   M IMCTM S0FR05 TNTH  09020IMCT  S0 PTB  00005                    1300 SR        000000000000 DENSO TEN (THAILAND)190G77U0001001                                                                                                                              *          20181005 IMCT                IMCT                                                                                                                    WMF1810055.TXT
MDEUJO212666201810                D89828070200PV4U20181010000030SPEAKER ASM                   M IMCTM S0FR05 TNTH  09020IMCT  S0 PTB  00005                    1600 SR        000000000000 DENSO TEN (THAILAND)18020UU0132132                                                                                                                              *          20181005 IMCT                IMCT                                                                                                                    WMF1810055.TXT
MDEUJO212667201810                D89828070300PT4U20181010000030SPEAKER ASM                   M IMCTM S9TS02 TNTH  09020IMCT  S9 PTB  00015                    0400 SR        000000000000 DENSO TEN (THAILAND)18021UU0203203                                                                                                                              *          20181005 IMCT                IMCT                                                                                                                    WMF1810055.TXT
MDEUJO212668201810                D89828070300PT4U20181010000030SPEAKER ASM                   M IMCTM S9TS02 TNTH  09020IMCT  S9 PTB  00015                    1300 SR        000000000000 DENSO TEN (THAILAND)190G77U0001001                                                                                                                              *          20181005 IMCT                IMCT                                                                                                                    WMF1810055.TXT
MDEUJO212669201810                D89828070300PT4U20181010000030SPEAKER ASM                   M IMCTM S9TS02 TNTH  09020IMCT  S9 PTB  00015                    1600 SR        000000000000 DENSO TEN (THAILAND)18020UU0132132                                                                                                                              *          20181005 IMCT                IMCT                                                                                                                    WMF1810055.TXT
