REC2018100820181008ISUZU                              60     
MDDDJO248467201810                D89821984430PT1D20181012000030RADIO;AM/FM,CD                M IMCTM S5NC06 TNTH  09020IMCT  S5 PTB  00005                    0400 SR        000000000000 DENSO TEN (THAILAND)190MRAL0003003                                                                                                                              *          20181008 IMCT                IMCT                                                                                                                    WMF1810085.TXT
MDDDJO248468201810                D89821984430PT1D20181012000030RADIO;AM/FM,CD                M IMCTM S5NC06 TNTH  09020IMCT  S5 PTB  00005                    0830 SR        000000000000 DENSO TEN (THAILAND)190MRAL0004004                                                                                                                              *          20181008 IMCT                IMCT                                                                                                                    WMF1810085.TXT
MDDDJO248469201810                D89821984430PT1D20181012000030RADIO;AM/FM,CD                M IMCTM S5NC06 TNTH  09020IMCT  S5 PTB  00005                    1030 SR        000000000000 DENSO TEN (THAILAND)190MNGL0006006                                                                                                                              *          20181008 IMCT                IMCT                                                                                                                    WMF1810085.TXT
MDDDJO248470201810                D89821984430PT1D20181012000030RADIO;AM/FM,CD                M IMCTM S5NC06 TNTH  09020IMCT  S5 PTB  00005                    1600 SR        000000000000 DENSO TEN (THAILAND)190MRBL0002002                                                                                                                              *          20181008 IMCT                IMCT                                                                                                                    WMF1810085.TXT
MDDDJO248471201810                D89828070100PV1D20181012000060SPEAKER ASM                   M IMCTM S5MB11 TNTH  09020IMCT  S5 PTB  00004                    0400 SR        000000000000 DENSO TEN (THAILAND)190MRAL0003003                                                                                                                              *          20181008 IMCT                IMCT                                                                                                                    WMF1810085.TXT
MDDDJO248472201810                D89828070100PV1D20181012000060SPEAKER ASM                   M IMCTM S5MB11 TNTH  09020IMCT  S5 PTB  00004                    0830 SR        000000000000 DENSO TEN (THAILAND)190MRAL0004004                                                                                                                              *          20181008 IMCT                IMCT                                                                                                                    WMF1810085.TXT
MDDDJO248473201810                D89828070100PV1D20181012000060SPEAKER ASM                   M IMCTM S5MB11 TNTH  09020IMCT  S5 PTB  00004                    1030 SR        000000000000 DENSO TEN (THAILAND)190MNGL0006006                                                                                                                              *          20181008 IMCT                IMCT                                                                                                                    WMF1810085.TXT
MDDDJO248474201810                D89828070100PV1D20181012000060SPEAKER ASM                   M IMCTM S5MB11 TNTH  09020IMCT  S5 PTB  00004                    1300 SR        000000000000 DENSO TEN (THAILAND)190MPGL0017017                                                                                                                              *          20181008 IMCT                IMCT                                                                                                                    WMF1810085.TXT
MDDDJO248475201810                D89828070100PV1D20181012000120SPEAKER ASM                   M IMCTM S5MB11 TNTH  09020IMCT  S5 PTB  00004                    1600 SR        000000000000 DENSO TEN (THAILAND)190MPKL0005005190MRBL0002002                                                                                                                *          20181008 IMCT                IMCT                                                                                                                    WMF1810085.TXT
MDDDJO248476201810                D89828070100PV1D20181012000060SPEAKER ASM                   M IMCTM S5MB11 TNTH  09020IMCT  S5 PTB  00004                    2100 SR        000000000000 DENSO TEN (THAILAND)190MPPL0002002                                                                                                                              *          20181008 IMCT                IMCT                                                                                                                    WMF1810085.TXT
MDDDJO248477201810                D89828070100PV4D20181012000060SPEAKER ASM                   M IMCTM S0FL05 TNTH  09020IMCT  S0 PTB  00004                    0230 SR        000000000000 DENSO TEN (THAILAND)190MRSU0008008                                                                                                                              *          20181008 IMCT                IMCT                                                                                                                    WMF1810085.TXT
MDDDJO248478201810                D89828070100PV4D20181012000060SPEAKER ASM                   M IMCTM S0FL05 TNTH  09020IMCT  S0 PTB  00004                    1030 SR        000000000000 DENSO TEN (THAILAND)190MRTU0009009                                                                                                                              *          20181008 IMCT                IMCT                                                                                                                    WMF1810085.TXT
MDDDJO248479201810                D89828070100PV4D20181012000120SPEAKER ASM                   M IMCTM S0FL05 TNTH  09020IMCT  S0 PTB  00004                    1600 SR        000000000000 DENSO TEN (THAILAND)190MRVU0006006190MRWU0008008                                                                                                                *          20181008 IMCT                IMCT                                                                                                                    WMF1810085.TXT
MDDDJO248480201810                D89828070200PV4D20181012000060SPEAKER ASM                   M IMCTM S0FR05 TNTH  09020IMCT  S0 PTB  00005                    0230 SR        000000000000 DENSO TEN (THAILAND)190MRSU0008008                                                                                                                              *          20181008 IMCT                IMCT                                                                                                                    WMF1810085.TXT
MDDDJO248481201810                D89828070200PV4D20181012000060SPEAKER ASM                   M IMCTM S0FR05 TNTH  09020IMCT  S0 PTB  00005                    1030 SR        000000000000 DENSO TEN (THAILAND)190MRTU0009009                                                                                                                              *          20181008 IMCT                IMCT                                                                                                                    WMF1810085.TXT
MDDDJO248482201810                D89828070200PV4D20181012000120SPEAKER ASM                   M IMCTM S0FR05 TNTH  09020IMCT  S0 PTB  00005                    1600 SR        000000000000 DENSO TEN (THAILAND)190MRVU0006006190MRWU0008008                                                                                                                *          20181008 IMCT                IMCT                                                                                                                    WMF1810085.TXT
MDDDJO248483201810                D89828070300PT1D20181012000060SPEAKER ASM                   M IMCTM S5NB082TNTH  09020IMCT  S5 PTB  00015                    1300 SR        000000000000 DENSO TEN (THAILAND)190MPGL0017017                                                                                                                              *          20181008 IMCT                IMCT                                                                                                                    WMF1810085.TXT
MDDDJO248484201810                D89828070300PT1D20181012000060SPEAKER ASM                   M IMCTM S5NB082TNTH  09020IMCT  S5 PTB  00015                    1600 SR        000000000000 DENSO TEN (THAILAND)190MPKL0005005                                                                                                                              *          20181008 IMCT                IMCT                                                                                                                    WMF1810085.TXT
MDDDJO248485201810                D89828070300PT1D20181012000060SPEAKER ASM                   M IMCTM S5NB082TNTH  09020IMCT  S5 PTB  00015                    2100 SR        000000000000 DENSO TEN (THAILAND)190MPPL0002002                                                                                                                              *          20181008 IMCT                IMCT                                                                                                                    WMF1810085.TXT
MDDDJO248486201810                D89828070300PT4D20181012000060SPEAKER ASM                   M IMCTM S9TS02 TNTH  09020IMCT  S9 PTB  00015                    0230 SR        000000000000 DENSO TEN (THAILAND)190MRSU0008008                                                                                                                              *          20181008 IMCT                IMCT                                                                                                                    WMF1810085.TXT
MDDDJO248487201810                D89828070300PT4D20181012000060SPEAKER ASM                   M IMCTM S9TS02 TNTH  09020IMCT  S9 PTB  00015                    1030 SR        000000000000 DENSO TEN (THAILAND)190MRTU0009009                                                                                                                              *          20181008 IMCT                IMCT                                                                                                                    WMF1810085.TXT
MDDDJO248488201810                D89828070300PT4D20181012000120SPEAKER ASM                   M IMCTM S9TS02 TNTH  09020IMCT  S9 PTB  00015                    1600 SR        000000000000 DENSO TEN (THAILAND)190MRVU0006006190MRWU0008008                                                                                                                *          20181008 IMCT                IMCT                                                                                                                    WMF1810085.TXT
MDDDJO248489201810                D89831228300PT1D20181012000030RADIO;AM/FM,CD                M IMCTM S5NC06 TNTH  09020IMCT  S5 CPB  00003                    1300 SR        000000000000 DENSO TEN (THAILAND)190MPGL0017017                                                                                                                              *          20181008 IMCT                IMCT                                                                                                                    WMF1810085.TXT
MDDDJO248490201810                D89848581500PT4D20181012000030RADIO;AM/FM CD D              M IMCTM S9CO001TNTH  09020IMCT  S9 PTB  00003                    1030 SR        000000000000 DENSO TEN (THAILAND)190MRTU0009009                                                                                                                              *          20181008 IMCT                IMCT                                                                                                                    WMF1810085.TXT
MDDDJO248491201810                D89848581600PT1D20181012000030RADIO;AM/FM CD D              M IMCTM S5NC06 TNTH  09020IMCT  S5 PTB  00003                    1600 SR        000000000000 DENSO TEN (THAILAND)190MPKL0005005                                                                                                                              *          20181008 IMCT                IMCT                                                                                                                    WMF1810085.TXT
MDDUJO212741201810                D89828070100PT4U20181012000030SPEAKER ASM                   M IMCTM S0FL05 TNTH  09020IMCT  S0 PTB  00004                    0400 SR        000000000000 DENSO TEN (THAILAND)180LULU0084084                                                                                                                              *          20181008 IMCT                IMCT                                                                                                                    WMF1810085.TXT
MDDUJO212742201810                D89828070100PT4U20181012000030SPEAKER ASM                   M IMCTM S0FL05 TNTH  09020IMCT  S0 PTB  00004                    2230 SR        000000000000 DENSO TEN (THAILAND)180LUTU0125125                                                                                                                              *          20181008 IMCT                IMCT                                                                                                                    WMF1810085.TXT
MDDUJO212743201810                D89828070200PV4U20181012000030SPEAKER ASM                   M IMCTM S0FR05 TNTH  09020IMCT  S0 PTB  00005                    0400 SR        000000000000 DENSO TEN (THAILAND)180LULU0084084                                                                                                                              *          20181008 IMCT                IMCT                                                                                                                    WMF1810085.TXT
MDDUJO212744201810                D89828070200PV4U20181012000030SPEAKER ASM                   M IMCTM S0FR05 TNTH  09020IMCT  S0 PTB  00005                    2230 SR        000000000000 DENSO TEN (THAILAND)180LUTU0125125                                                                                                                              *          20181008 IMCT                IMCT                                                                                                                    WMF1810085.TXT
MDDUJO212745201810                D89828070300PT4U20181012000030SPEAKER ASM                   M IMCTM S9TS02 TNTH  09020IMCT  S9 PTB  00015                    0400 SR        000000000000 DENSO TEN (THAILAND)180LULU0084084                                                                                                                              *          20181008 IMCT                IMCT                                                                                                                    WMF1810085.TXT
MDDUJO212746201810                D89828070300PT4U20181012000030SPEAKER ASM                   M IMCTM S9TS02 TNTH  09020IMCT  S9 PTB  00015                    2230 SR        000000000000 DENSO TEN (THAILAND)180LUTU0125125                                                                                                                              *          20181008 IMCT                IMCT                                                                                                                    WMF1810085.TXT
MDEDJO238100201810                D89828070100PV1D20181011000090SPEAKER ASM                   M IMCTM S5MB11 TNTH  09020IMCT  S5 PTB  00004                    2230 SR        000000000000 DENSO TEN (THAILAND)17075PL015115218074UL0055055                                                                                                                *          20181008 IMCT                IMCT                                                                                                                    WMF1810085.TXT
MDEDJO238101201810                D89828070100PV1D20181012000090SPEAKER ASM                   M IMCTM S5MB11 TNTH  09020IMCT  S5 PTB  00004                    0230 SR        000000000000 DENSO TEN (THAILAND)17072PL000200318018XL0013013                                                                                                                *          20181008 IMCT                IMCT                                                                                                                    WMF1810085.TXT
MDEDJO238102201810                D89828070100PV1D20181012000030SPEAKER ASM                   M IMCTM S5MB11 TNTH  09020IMCT  S5 PTB  00004                    0400 SR        000000000000 DENSO TEN (THAILAND)18074UL0056056                                                                                                                              *          20181008 IMCT                IMCT                                                                                                                    WMF1810085.TXT
MDEDJO238103201810                D89828070100PV1D20181012000030SPEAKER ASM                   M IMCTM S5MB11 TNTH  09020IMCT  S5 PTB  00004                    0830 SR        000000000000 DENSO TEN (THAILAND)18074UL0057057                                                                                                                              *          20181008 IMCT                IMCT                                                                                                                    WMF1810085.TXT
MDEDJO238104201810                D89828070100PV1D20181012000090SPEAKER ASM                   M IMCTM S5MB11 TNTH  09020IMCT  S5 PTB  00004                    1300 SR        000000000000 DENSO TEN (THAILAND)17033QL010911018061UL0033033                                                                                                                *          20181008 IMCT                IMCT                                                                                                                    WMF1810085.TXT
MDEDJO238105201810                D89828070100PV1D20181012000060SPEAKER ASM                   M IMCTM S5MB11 TNTH  09020IMCT  S5 PTB  00004                    1600 SR        000000000000 DENSO TEN (THAILAND)18074UL0058059                                                                                                                              *          20181008 IMCT                IMCT                                                                                                                    WMF1810085.TXT
MDEDJO238106201810                D89828070200PV1D20181012000060SPEAKER ASM                   M IMCTM S5MA14 TNTH  09020IMCT  S5 PTB  00005                    1300 SR        000000000000 DENSO TEN (THAILAND)17033QL0109110                                                                                                                              *          20181008 IMCT                IMCT                                                                                                                    WMF1810085.TXT
MDEDJO238107201810                D89828070300PT1D20181011000030SPEAKER ASM                   M IMCTM S5NB082TNTH  09020IMCT  S5 PTB  00015                    2230 SR        000000000000 DENSO TEN (THAILAND)18074UL0055055                                                                                                                              *          20181008 IMCT                IMCT                                                                                                                    WMF1810085.TXT
MDEDJO238108201810                D89828070300PT1D20181012000090SPEAKER ASM                   M IMCTM S5NB082TNTH  09020IMCT  S5 PTB  00015                    0230 SR        000000000000 DENSO TEN (THAILAND)17072PL000200318018XL0013013                                                                                                                *          20181008 IMCT                IMCT                                                                                                                    WMF1810085.TXT
MDEDJO238109201810                D89828070300PT1D20181012000030SPEAKER ASM                   M IMCTM S5NB082TNTH  09020IMCT  S5 PTB  00015                    0400 SR        000000000000 DENSO TEN (THAILAND)18074UL0056056                                                                                                                              *          20181008 IMCT                IMCT                                                                                                                    WMF1810085.TXT
MDEDJO238110201810                D89828070300PT1D20181012000030SPEAKER ASM                   M IMCTM S5NB082TNTH  09020IMCT  S5 PTB  00015                    0830 SR        000000000000 DENSO TEN (THAILAND)18074UL0057057                                                                                                                              *          20181008 IMCT                IMCT                                                                                                                    WMF1810085.TXT
MDEDJO238111201810                D89828070300PT1D20181012000090SPEAKER ASM                   M IMCTM S5NB082TNTH  09020IMCT  S5 PTB  00015                    1300 SR        000000000000 DENSO TEN (THAILAND)17033QL010911018061UL0033033                                                                                                                *          20181008 IMCT                IMCT                                                                                                                    WMF1810085.TXT
MDEDJO238112201810                D89828070300PT1D20181012000060SPEAKER ASM                   M IMCTM S5NB082TNTH  09020IMCT  S5 PTB  00015                    1600 SR        000000000000 DENSO TEN (THAILAND)18074UL0058059                                                                                                                              *          20181008 IMCT                IMCT                                                                                                                    WMF1810085.TXT
MDEDJO238113201810                D89831229200PT1D20181012000030RADIO;AM/FM,CD                M IMCTM S5NC06 TNTH  09020IMCT  S5 PTB  00003                    0230 SR        000000000000 DENSO TEN (THAILAND)17072PL0002003                                                                                                                              *          20181008 IMCT                IMCT                                                                                                                    WMF1810085.TXT
MDEDJO238114201810                D89831229200PT1D20181012000030RADIO;AM/FM,CD                M IMCTM S5NC06 TNTH  09020IMCT  S5 PTB  00003                    1300 SR        000000000000 DENSO TEN (THAILAND)17033QL0109110                                                                                                                              *          20181008 IMCT                IMCT                                                                                                                    WMF1810085.TXT
MDEDJO238115201810                D89848581800PT1D20181012000015RADIO;AM/FM CD D              M IMCTM S5NC06 TNTH  09020IMCT  S5 PTB  00003                    1300 SR        000000000000 DENSO TEN (THAILAND)18061UL0033033                                                                                                                              *          20181008 IMCT                IMCT                                                                                                                    WMF1810085.TXT
MDEDJO238116201810                D89848582500PT1D20181011000015RADIO;AM/FM CD D              M IMCTM S5NC06 TNTH  09020IMCT  S5 PTB  00003                    2230 SR        000000000000 DENSO TEN (THAILAND)18074UL0055055                                                                                                                              *          20181008 IMCT                IMCT                                                                                                                    WMF1810085.TXT
MDEDJO238117201810                D89848582500PT1D20181012000015RADIO;AM/FM CD D              M IMCTM S5NC06 TNTH  09020IMCT  S5 PTB  00003                    0400 SR        000000000000 DENSO TEN (THAILAND)18074UL0056056                                                                                                                              *          20181008 IMCT                IMCT                                                                                                                    WMF1810085.TXT
MDEDJO238118201810                D89848582500PT1D20181012000015RADIO;AM/FM CD D              M IMCTM S5NC06 TNTH  09020IMCT  S5 PTB  00003                    0830 SR        000000000000 DENSO TEN (THAILAND)18074UL0057057                                                                                                                              *          20181008 IMCT                IMCT                                                                                                                    WMF1810085.TXT
MDEDJO238119201810                D89848582500PT1D20181012000030RADIO;AM/FM CD D              M IMCTM S5NC06 TNTH  09020IMCT  S5 PTB  00003                    1600 SR        000000000000 DENSO TEN (THAILAND)18074UL0058059                                                                                                                              *          20181008 IMCT                IMCT                                                                                                                    WMF1810085.TXT
MDEUJO218143201810                D89828070100PT4U20181012000030SPEAKER ASM                   M IMCTM S0FL05 TNTH  09020IMCT  S0 PTB  00004                    0230 SR        000000000000 DENSO TEN (THAILAND)190G77U0003003                                                                                                                              *          20181008 IMCT                IMCT                                                                                                                    WMF1810085.TXT
MDEUJO218144201810                D89828070100PT4U20181012000030SPEAKER ASM                   M IMCTM S0FL05 TNTH  09020IMCT  S0 PTB  00004                    1030 SR        000000000000 DENSO TEN (THAILAND)18021UU0206206                                                                                                                              *          20181008 IMCT                IMCT                                                                                                                    WMF1810085.TXT
MDEUJO218145201810                D89828070100PT4U20181012000030SPEAKER ASM                   M IMCTM S0FL05 TNTH  09020IMCT  S0 PTB  00004                    1300 SR        000000000000 DENSO TEN (THAILAND)18021UU0207207                                                                                                                              *          20181008 IMCT                IMCT                                                                                                                    WMF1810085.TXT
MDEUJO218146201810                D89828070200PV4U20181012000030SPEAKER ASM                   M IMCTM S0FR05 TNTH  09020IMCT  S0 PTB  00005                    0230 SR        000000000000 DENSO TEN (THAILAND)190G77U0003003                                                                                                                              *          20181008 IMCT                IMCT                                                                                                                    WMF1810085.TXT
MDEUJO218147201810                D89828070200PV4U20181012000030SPEAKER ASM                   M IMCTM S0FR05 TNTH  09020IMCT  S0 PTB  00005                    1030 SR        000000000000 DENSO TEN (THAILAND)18021UU0206206                                                                                                                              *          20181008 IMCT                IMCT                                                                                                                    WMF1810085.TXT
MDEUJO218148201810                D89828070200PV4U20181012000030SPEAKER ASM                   M IMCTM S0FR05 TNTH  09020IMCT  S0 PTB  00005                    1300 SR        000000000000 DENSO TEN (THAILAND)18021UU0207207                                                                                                                              *          20181008 IMCT                IMCT                                                                                                                    WMF1810085.TXT
MDEUJO218149201810                D89828070300PT4U20181012000030SPEAKER ASM                   M IMCTM S9TS02 TNTH  09020IMCT  S9 PTB  00015                    0230 SR        000000000000 DENSO TEN (THAILAND)190G77U0003003                                                                                                                              *          20181008 IMCT                IMCT                                                                                                                    WMF1810085.TXT
MDEUJO218150201810                D89828070300PT4U20181012000030SPEAKER ASM                   M IMCTM S9TS02 TNTH  09020IMCT  S9 PTB  00015                    1030 SR        000000000000 DENSO TEN (THAILAND)18021UU0206206                                                                                                                              *          20181008 IMCT                IMCT                                                                                                                    WMF1810085.TXT
MDEUJO218151201810                D89828070300PT4U20181012000030SPEAKER ASM                   M IMCTM S9TS02 TNTH  09020IMCT  S9 PTB  00015                    1300 SR        000000000000 DENSO TEN (THAILAND)18021UU0207207                                                                                                                              *          20181008 IMCT                IMCT                                                                                                                    WMF1810085.TXT
