REC2018100220181002ISUZU                              59     
MDDDJO212958201810                D89828070100PV1D20181006000120SPEAKER ASM                   M IMCTM S5MB11 TNTH  09020IMCT  S5 PTB  00004                    0230 SR        000000000000 DENSO TEN (THAILAND)190MPGL0009010                                                                                                                              *          20181002 IMCT                IMCT                                                                                                                    WMF1810023.TXT
MDDDJO212959201810                D89828070100PV1D20181006000060SPEAKER ASM                   M IMCTM S5MB11 TNTH  09020IMCT  S5 PTB  00004                    0830 SR        000000000000 DENSO TEN (THAILAND)190MXBL0001001                                                                                                                              *          20181002 IMCT                IMCT                                                                                                                    WMF1810023.TXT
MDDDJO212960201810                D89828070100PV1D20181006000060SPEAKER ASM                   M IMCTM S5MB11 TNTH  09020IMCT  S5 PTB  00004                    1030 SR        000000000000 DENSO TEN (THAILAND)190MPGL0011011                                                                                                                              *          20181002 IMCT                IMCT                                                                                                                    WMF1810023.TXT
MDDDJO212961201810                D89828070100PV1D20181006000120SPEAKER ASM                   M IMCTM S5MB11 TNTH  09020IMCT  S5 PTB  00004                    1300 SR        000000000000 DENSO TEN (THAILAND)190MPGL0012012190MPKL0003003                                                                                                                *          20181002 IMCT                IMCT                                                                                                                    WMF1810023.TXT
MDDDJO212962201810                D89828070100PV1D20181006000060SPEAKER ASM                   M IMCTM S5MB11 TNTH  09020IMCT  S5 PTB  00004                    2100 SR        000000000000 DENSO TEN (THAILAND)190MPPL0001001                                                                                                                              *          20181002 IMCT                IMCT                                                                                                                    WMF1810023.TXT
MDDDJO212963201810                D89828070100PV4D20181006000060SPEAKER ASM                   M IMCTM S0FL05 TNTH  09020IMCT  S0 PTB  00004                    0400 SR        000000000000 DENSO TEN (THAILAND)190MRSU0006006                                                                                                                              *          20181002 IMCT                IMCT                                                                                                                    WMF1810023.TXT
MDDDJO212964201810                D89828070100PV4D20181006000060SPEAKER ASM                   M IMCTM S0FL05 TNTH  09020IMCT  S0 PTB  00004                    1300 SR        000000000000 DENSO TEN (THAILAND)190MRTU0003003                                                                                                                              *          20181002 IMCT                IMCT                                                                                                                    WMF1810023.TXT
MDDDJO212965201810                D89828070100PV4D20181006000060SPEAKER ASM                   M IMCTM S0FL05 TNTH  09020IMCT  S0 PTB  00004                    2230 SR        000000000000 DENSO TEN (THAILAND)190MRWU0006006                                                                                                                              *          20181002 IMCT                IMCT                                                                                                                    WMF1810023.TXT
MDDDJO212966201810                D89828070200PV4D20181006000060SPEAKER ASM                   M IMCTM S0FR05 TNTH  09020IMCT  S0 PTB  00005                    0400 SR        000000000000 DENSO TEN (THAILAND)190MRSU0006006                                                                                                                              *          20181002 IMCT                IMCT                                                                                                                    WMF1810023.TXT
MDDDJO212967201810                D89828070200PV4D20181006000060SPEAKER ASM                   M IMCTM S0FR05 TNTH  09020IMCT  S0 PTB  00005                    1300 SR        000000000000 DENSO TEN (THAILAND)190MRTU0003003                                                                                                                              *          20181002 IMCT                IMCT                                                                                                                    WMF1810023.TXT
MDDDJO212968201810                D89828070200PV4D20181006000060SPEAKER ASM                   M IMCTM S0FR05 TNTH  09020IMCT  S0 PTB  00005                    2230 SR        000000000000 DENSO TEN (THAILAND)190MRWU0006006                                                                                                                              *          20181002 IMCT                IMCT                                                                                                                    WMF1810023.TXT
MDDDJO212969201810                D89828070300PT1D20181006000120SPEAKER ASM                   M IMCTM S5NB082TNTH  09020IMCT  S5 PTB  00015                    0230 SR        000000000000 DENSO TEN (THAILAND)190MPGL0009010                                                                                                                              *          20181002 IMCT                IMCT                                                                                                                    WMF1810023.TXT
MDDDJO212970201810                D89828070300PT1D20181006000060SPEAKER ASM                   M IMCTM S5NB082TNTH  09020IMCT  S5 PTB  00015                    1030 SR        000000000000 DENSO TEN (THAILAND)190MPGL0011011                                                                                                                              *          20181002 IMCT                IMCT                                                                                                                    WMF1810023.TXT
MDDDJO212971201810                D89828070300PT1D20181006000120SPEAKER ASM                   M IMCTM S5NB082TNTH  09020IMCT  S5 PTB  00015                    1300 SR        000000000000 DENSO TEN (THAILAND)190MPGL0012012190MPKL0003003                                                                                                                *          20181002 IMCT                IMCT                                                                                                                    WMF1810023.TXT
MDDDJO212972201810                D89828070300PT1D20181006000060SPEAKER ASM                   M IMCTM S5NB082TNTH  09020IMCT  S5 PTB  00015                    2100 SR        000000000000 DENSO TEN (THAILAND)190MPPL0001001                                                                                                                              *          20181002 IMCT                IMCT                                                                                                                    WMF1810023.TXT
MDDDJO212973201810                D89828070300PT4D20181006000060SPEAKER ASM                   M IMCTM S9TS02 TNTH  09020IMCT  S9 PTB  00015                    0400 SR        000000000000 DENSO TEN (THAILAND)190MRSU0006006                                                                                                                              *          20181002 IMCT                IMCT                                                                                                                    WMF1810023.TXT
MDDDJO212974201810                D89828070300PT4D20181006000060SPEAKER ASM                   M IMCTM S9TS02 TNTH  09020IMCT  S9 PTB  00015                    1300 SR        000000000000 DENSO TEN (THAILAND)190MRTU0003003                                                                                                                              *          20181002 IMCT                IMCT                                                                                                                    WMF1810023.TXT
MDDDJO212975201810                D89828070300PT4D20181006000060SPEAKER ASM                   M IMCTM S9TS02 TNTH  09020IMCT  S9 PTB  00015                    2230 SR        000000000000 DENSO TEN (THAILAND)190MRWU0006006                                                                                                                              *          20181002 IMCT                IMCT                                                                                                                    WMF1810023.TXT
MDDDJO212976201810                D89831228300PT1D20181006000060RADIO;AM/FM,CD                M IMCTM S5NC06 TNTH  09020IMCT  S5 CPB  00003                    0230 SR        000000000000 DENSO TEN (THAILAND)190MPGL0009010                                                                                                                              *          20181002 IMCT                IMCT                                                                                                                    WMF1810023.TXT
MDDDJO212977201810                D89831228300PT1D20181006000030RADIO;AM/FM,CD                M IMCTM S5NC06 TNTH  09020IMCT  S5 CPB  00003                    1030 SR        000000000000 DENSO TEN (THAILAND)190MPGL0011011                                                                                                                              *          20181002 IMCT                IMCT                                                                                                                    WMF1810023.TXT
MDDDJO212978201810                D89831228300PT1D20181006000030RADIO;AM/FM,CD                M IMCTM S5NC06 TNTH  09020IMCT  S5 CPB  00003                    1300 SR        000000000000 DENSO TEN (THAILAND)190MPGL0012012                                                                                                                              *          20181002 IMCT                IMCT                                                                                                                    WMF1810023.TXT
MDDDJO212979201810                D89848581500PT4D20181006000030RADIO;AM/FM CD D              M IMCTM S9CO001TNTH  09020IMCT  S9 PTB  00003                    1300 SR        000000000000 DENSO TEN (THAILAND)190MRTU0003003                                                                                                                              *          20181002 IMCT                IMCT                                                                                                                    WMF1810023.TXT
MDDDJO212980201810                D89848581600PT1D20181006000030RADIO;AM/FM CD D              M IMCTM S5NC06 TNTH  09020IMCT  S5 PTB  00003                    1300 SR        000000000000 DENSO TEN (THAILAND)190MPKL0003003                                                                                                                              *          20181002 IMCT                IMCT                                                                                                                    WMF1810023.TXT
MDDUJO203399201810                D89828070100PT4U20181006000030SPEAKER ASM                   M IMCTM S0FL05 TNTH  09020IMCT  S0 PTB  00004                    0230 SR        000000000000 DENSO TEN (THAILAND)180LULU0076076                                                                                                                              *          20181002 IMCT                IMCT                                                                                                                    WMF1810023.TXT
MDDUJO203400201810                D89828070100PT4U20181006000030SPEAKER ASM                   M IMCTM S0FL05 TNTH  09020IMCT  S0 PTB  00004                    1300 SR        000000000000 DENSO TEN (THAILAND)180LULU0077077                                                                                                                              *          20181002 IMCT                IMCT                                                                                                                    WMF1810023.TXT
MDDUJO203401201810                D89828070100PT4U20181006000030SPEAKER ASM                   M IMCTM S0FL05 TNTH  09020IMCT  S0 PTB  00004                    2100 SR        000000000000 DENSO TEN (THAILAND)180LULU0078078                                                                                                                              *          20181002 IMCT                IMCT                                                                                                                    WMF1810023.TXT
MDDUJO203402201810                D89828070200PV4U20181006000030SPEAKER ASM                   M IMCTM S0FR05 TNTH  09020IMCT  S0 PTB  00005                    0230 SR        000000000000 DENSO TEN (THAILAND)180LULU0076076                                                                                                                              *          20181002 IMCT                IMCT                                                                                                                    WMF1810023.TXT
MDDUJO203403201810                D89828070200PV4U20181006000030SPEAKER ASM                   M IMCTM S0FR05 TNTH  09020IMCT  S0 PTB  00005                    1300 SR        000000000000 DENSO TEN (THAILAND)180LULU0077077                                                                                                                              *          20181002 IMCT                IMCT                                                                                                                    WMF1810023.TXT
MDDUJO203404201810                D89828070200PV4U20181006000030SPEAKER ASM                   M IMCTM S0FR05 TNTH  09020IMCT  S0 PTB  00005                    2100 SR        000000000000 DENSO TEN (THAILAND)180LULU0078078                                                                                                                              *          20181002 IMCT                IMCT                                                                                                                    WMF1810023.TXT
MDDUJO203405201810                D89828070300PT4U20181006000030SPEAKER ASM                   M IMCTM S9TS02 TNTH  09020IMCT  S9 PTB  00015                    0230 SR        000000000000 DENSO TEN (THAILAND)180LULU0076076                                                                                                                              *          20181002 IMCT                IMCT                                                                                                                    WMF1810023.TXT
MDDUJO203406201810                D89828070300PT4U20181006000030SPEAKER ASM                   M IMCTM S9TS02 TNTH  09020IMCT  S9 PTB  00015                    1300 SR        000000000000 DENSO TEN (THAILAND)180LULU0077077                                                                                                                              *          20181002 IMCT                IMCT                                                                                                                    WMF1810023.TXT
MDDUJO203407201810                D89828070300PT4U20181006000030SPEAKER ASM                   M IMCTM S9TS02 TNTH  09020IMCT  S9 PTB  00015                    2100 SR        000000000000 DENSO TEN (THAILAND)180LULU0078078                                                                                                                              *          20181002 IMCT                IMCT                                                                                                                    WMF1810023.TXT
MDEDJO208763201810                D89828070100PV1D20181005000090SPEAKER ASM                   M IMCTM S5MB11 TNTH  09020IMCT  S5 PTB  00004                    2230 SR        000000000000 DENSO TEN (THAILAND)17065RL000200218098UL0077078                                                                                                                *          20181002 IMCT                IMCT                                                                                                                    WMF1810023.TXT
MDEDJO208764201810                D89828070100PV1D20181006000060SPEAKER ASM                   M IMCTM S5MB11 TNTH  09020IMCT  S5 PTB  00004                    0400 SR        000000000000 DENSO TEN (THAILAND)18098WL0017018                                                                                                                              *          20181002 IMCT                IMCT                                                                                                                    WMF1810023.TXT
MDEDJO208765201810                D89828070100PV1D20181006000030SPEAKER ASM                   M IMCTM S5MB11 TNTH  09020IMCT  S5 PTB  00004                    1030 SR        000000000000 DENSO TEN (THAILAND)18076UL0023023                                                                                                                              *          20181002 IMCT                IMCT                                                                                                                    WMF1810023.TXT
MDEDJO208766201810                D89828070100PV1D20181006000030SPEAKER ASM                   M IMCTM S5MB11 TNTH  09020IMCT  S5 PTB  00004                    1300 SR        000000000000 DENSO TEN (THAILAND)18076UL0024024                                                                                                                              *          20181002 IMCT                IMCT                                                                                                                    WMF1810023.TXT
MDEDJO208767201810                D89828070100PV1D20181006000030SPEAKER ASM                   M IMCTM S5MB11 TNTH  09020IMCT  S5 PTB  00004                    1600 SR        000000000000 DENSO TEN (THAILAND)18080UL0043043                                                                                                                              *          20181002 IMCT                IMCT                                                                                                                    WMF1810023.TXT
MDEDJO208768201810                D89828070100PV1D20181006000030SPEAKER ASM                   M IMCTM S5MB11 TNTH  09020IMCT  S5 PTB  00004                    2100 SR        000000000000 DENSO TEN (THAILAND)18080UL0044044                                                                                                                              *          20181002 IMCT                IMCT                                                                                                                    WMF1810023.TXT
MDEDJO208769201810                D89828070200PV1D20181005000060SPEAKER ASM                   M IMCTM S5MA14 TNTH  09020IMCT  S5 PTB  00005                    2230 SR        000000000000 DENSO TEN (THAILAND)18098UL0077078                                                                                                                              *          20181002 IMCT                IMCT                                                                                                                    WMF1810023.TXT
MDEDJO208770201810                D89828070200PV1D20181006000030SPEAKER ASM                   M IMCTM S5MA14 TNTH  09020IMCT  S5 PTB  00005                    1600 SR        000000000000 DENSO TEN (THAILAND)18080UL0043043                                                                                                                              *          20181002 IMCT                IMCT                                                                                                                    WMF1810023.TXT
MDEDJO208771201810                D89828070200PV1D20181006000030SPEAKER ASM                   M IMCTM S5MA14 TNTH  09020IMCT  S5 PTB  00005                    2100 SR        000000000000 DENSO TEN (THAILAND)18080UL0044044                                                                                                                              *          20181002 IMCT                IMCT                                                                                                                    WMF1810023.TXT
MDEDJO208772201810                D89828070300PT1D20181005000090SPEAKER ASM                   M IMCTM S5NB082TNTH  09020IMCT  S5 PTB  00015                    2230 SR        000000000000 DENSO TEN (THAILAND)17065RL000200218098UL0077078                                                                                                                *          20181002 IMCT                IMCT                                                                                                                    WMF1810023.TXT
MDEDJO208773201810                D89828070300PT1D20181006000030SPEAKER ASM                   M IMCTM S5NB082TNTH  09020IMCT  S5 PTB  00015                    1030 SR        000000000000 DENSO TEN (THAILAND)18076UL0023023                                                                                                                              *          20181002 IMCT                IMCT                                                                                                                    WMF1810023.TXT
MDEDJO208774201810                D89828070300PT1D20181006000030SPEAKER ASM                   M IMCTM S5NB082TNTH  09020IMCT  S5 PTB  00015                    1300 SR        000000000000 DENSO TEN (THAILAND)18076UL0024024                                                                                                                              *          20181002 IMCT                IMCT                                                                                                                    WMF1810023.TXT
MDEDJO208775201810                D89828070300PT1D20181006000030SPEAKER ASM                   M IMCTM S5NB082TNTH  09020IMCT  S5 PTB  00015                    1600 SR        000000000000 DENSO TEN (THAILAND)18080UL0043043                                                                                                                              *          20181002 IMCT                IMCT                                                                                                                    WMF1810023.TXT
MDEDJO208776201810                D89828070300PT1D20181006000030SPEAKER ASM                   M IMCTM S5NB082TNTH  09020IMCT  S5 PTB  00015                    2100 SR        000000000000 DENSO TEN (THAILAND)18080UL0044044                                                                                                                              *          20181002 IMCT                IMCT                                                                                                                    WMF1810023.TXT
MDEDJO208777201810                D89831229200PT1D20181005000015RADIO;AM/FM,CD                M IMCTM S5NC06 TNTH  09020IMCT  S5 PTB  00003                    2230 SR        000000000000 DENSO TEN (THAILAND)17065RL0002002                                                                                                                              *          20181002 IMCT                IMCT                                                                                                                    WMF1810023.TXT
MDEDJO208778201810                D89848581800PT1D20181005000030RADIO;AM/FM CD D              M IMCTM S5NC06 TNTH  09020IMCT  S5 PTB  00003                    2230 SR        000000000000 DENSO TEN (THAILAND)18098UL0077078                                                                                                                              *          20181002 IMCT                IMCT                                                                                                                    WMF1810023.TXT
MDEDJO208779201810                D89848581800PT1D20181006000015RADIO;AM/FM CD D              M IMCTM S5NC06 TNTH  09020IMCT  S5 PTB  00003                    1600 SR        000000000000 DENSO TEN (THAILAND)18080UL0043043                                                                                                                              *          20181002 IMCT                IMCT                                                                                                                    WMF1810023.TXT
MDEDJO208780201810                D89848581800PT1D20181006000015RADIO;AM/FM CD D              M IMCTM S5NC06 TNTH  09020IMCT  S5 PTB  00003                    2100 SR        000000000000 DENSO TEN (THAILAND)18080UL0044044                                                                                                                              *          20181002 IMCT                IMCT                                                                                                                    WMF1810023.TXT
MDEUJO204690201810                D89828070100PT4U20181005000030SPEAKER ASM                   M IMCTM S0FL05 TNTH  09020IMCT  S0 PTB  00004                    2230 SR        000000000000 DENSO TEN (THAILAND)18043YU0009009                                                                                                                              *          20181002 IMCT                IMCT                                                                                                                    WMF1810023.TXT
MDEUJO204691201810                D89828070100PT4U20181006000030SPEAKER ASM                   M IMCTM S0FL05 TNTH  09020IMCT  S0 PTB  00004                    0830 SR        000000000000 DENSO TEN (THAILAND)18016UU0050050                                                                                                                              *          20181002 IMCT                IMCT                                                                                                                    WMF1810023.TXT
MDEUJO204692201810                D89828070100PT4U20181006000030SPEAKER ASM                   M IMCTM S0FL05 TNTH  09020IMCT  S0 PTB  00004                    1600 SR        000000000000 DENSO TEN (THAILAND)18021UU0198198                                                                                                                              *          20181002 IMCT                IMCT                                                                                                                    WMF1810023.TXT
MDEUJO204693201810                D89828070200PV4U20181005000030SPEAKER ASM                   M IMCTM S0FR05 TNTH  09020IMCT  S0 PTB  00005                    2230 SR        000000000000 DENSO TEN (THAILAND)18043YU0009009                                                                                                                              *          20181002 IMCT                IMCT                                                                                                                    WMF1810023.TXT
MDEUJO204694201810                D89828070200PV4U20181006000030SPEAKER ASM                   M IMCTM S0FR05 TNTH  09020IMCT  S0 PTB  00005                    0830 SR        000000000000 DENSO TEN (THAILAND)18016UU0050050                                                                                                                              *          20181002 IMCT                IMCT                                                                                                                    WMF1810023.TXT
MDEUJO204695201810                D89828070200PV4U20181006000030SPEAKER ASM                   M IMCTM S0FR05 TNTH  09020IMCT  S0 PTB  00005                    1600 SR        000000000000 DENSO TEN (THAILAND)18021UU0198198                                                                                                                              *          20181002 IMCT                IMCT                                                                                                                    WMF1810023.TXT
MDEUJO204696201810                D89828070300PT4U20181005000030SPEAKER ASM                   M IMCTM S9TS02 TNTH  09020IMCT  S9 PTB  00015                    2230 SR        000000000000 DENSO TEN (THAILAND)18043YU0009009                                                                                                                              *          20181002 IMCT                IMCT                                                                                                                    WMF1810023.TXT
MDEUJO204697201810                D89828070300PT4U20181006000030SPEAKER ASM                   M IMCTM S9TS02 TNTH  09020IMCT  S9 PTB  00015                    0830 SR        000000000000 DENSO TEN (THAILAND)18016UU0050050                                                                                                                              *          20181002 IMCT                IMCT                                                                                                                    WMF1810023.TXT
MDEUJO204698201810                D89828070300PT4U20181006000030SPEAKER ASM                   M IMCTM S9TS02 TNTH  09020IMCT  S9 PTB  00015                    1600 SR        000000000000 DENSO TEN (THAILAND)18021UU0198198                                                                                                                              *          20181002 IMCT                IMCT                                                                                                                    WMF1810023.TXT
