REC2018102420181024ISUZU                              5      
MDEFJOT22894201810                D89828070100PV4F20181029000030SPEAKER ASM                   M IMCTM S7FL05 TNTH  09020IMCT  S7 PTB  00004                    1300 SR        000000000000 DENSO TEN (THAILAND)18030YR0013   180G87R0012   R181006901    R181006915    000000                                                                              *R         20181024 IMCT                IMCT                                                                                                                    RMF1810245.TXT
MDEFJOT22895201810                D89828070200PV4F20181027000002SPEAKER ASM                   M IMCTM S7FL05 TNTH  09020IMCT  S7 PTB  00005                    2230 SR        000000000000 DENSO TEN (THAILAND)17015RR0048   17015RR0048   C181006702    C181006702    000000                                                                              *R         20181024 IMCT                IMCT                                                                                                                    RMF1810245.TXT
MDEFJOT22896201810                D89828070300PT4F20181027000002SPEAKER ASM                   M IMCTM S7TS02 TNTH  09020IMCT  S7 PTB  00015                    2230 SR        000000000000 DENSO TEN (THAILAND)17015RR0048   17015RR0048   C181006702    C181006702    000000                                                                              *R         20181024 IMCT                IMCT                                                                                                                    RMF1810245.TXT
MDEFJO270219201810                D89828070100PV4F20181027000032SPEAKER ASM                   M IMCTM S7FL05 TNTH  09020IMCT  S7 PTB  00004                    2230 SR        000000000000 DENSO TEN (THAILAND)17013RR0018   17001QR0011   C181006701    H181006801    000000                                                                              *R         20181024 IMCT                IMCT                                                                                                                    RMF1810245.TXT
MDEFJO270220201810                D89828070100PV4F20181029000028SPEAKER ASM                   M IMCTM S7FL05 TNTH  09020IMCT  S7 PTB  00004                    0830 SR        000000000000 DENSO TEN (THAILAND)17001QR0012   190J96R0004   H181006802    H181006815    000000                                                                              *R         20181024 IMCT                IMCT                                                                                                                    RMF1810245.TXT
