REC2018101620181016ISUZU                              34     
MDDDJO292252201810                D89821984430PT1D20181020000030RADIO;AM/FM,CD                M IMCTM S5NC06 TNTH  09020IMCT  S5 PTB  00005                    0230 SR        000000000000 DENSO TEN (THAILAND)190MYAL0023023                                                                                                                              *          20181016 IMCT                IMCT                                                                                                                    WMF1810162.TXT
MDDDJO292253201810                D89821984430PT1D20181020000030RADIO;AM/FM,CD                M IMCTM S5NC06 TNTH  09020IMCT  S5 PTB  00005                    0830 SR        000000000000 DENSO TEN (THAILAND)190MYAL0024024                                                                                                                              *          20181016 IMCT                IMCT                                                                                                                    WMF1810162.TXT
MDDDJO292254201810                D89828070100PV1D20181020000060SPEAKER ASM                   M IMCTM S5MB11 TNTH  09020IMCT  S5 PTB  00004                    0230 SR        000000000000 DENSO TEN (THAILAND)190MYAL0023023                                                                                                                              *          20181016 IMCT                IMCT                                                                                                                    WMF1810162.TXT
MDDDJO292255201810                D89828070100PV1D20181020000060SPEAKER ASM                   M IMCTM S5MB11 TNTH  09020IMCT  S5 PTB  00004                    0830 SR        000000000000 DENSO TEN (THAILAND)190MYAL0024024                                                                                                                              *          20181016 IMCT                IMCT                                                                                                                    WMF1810162.TXT
MDDDJO292256201810                D89828070100PV4D20181020000060SPEAKER ASM                   M IMCTM S0FL05 TNTH  09020IMCT  S0 PTB  00004                    0230 SR        000000000000 DENSO TEN (THAILAND)190MRWU0011011                                                                                                                              *          20181016 IMCT                IMCT                                                                                                                    WMF1810162.TXT
MDDDJO292257201810                D89828070100PV4D20181020000060SPEAKER ASM                   M IMCTM S0FL05 TNTH  09020IMCT  S0 PTB  00004                    1030 SR        000000000000 DENSO TEN (THAILAND)190MRSU0012012                                                                                                                              *          20181016 IMCT                IMCT                                                                                                                    WMF1810162.TXT
MDDDJO292258201810                D89828070200PV4D20181020000060SPEAKER ASM                   M IMCTM S0FR05 TNTH  09020IMCT  S0 PTB  00005                    0230 SR        000000000000 DENSO TEN (THAILAND)190MRWU0011011                                                                                                                              *          20181016 IMCT                IMCT                                                                                                                    WMF1810162.TXT
MDDDJO292259201810                D89828070200PV4D20181020000060SPEAKER ASM                   M IMCTM S0FR05 TNTH  09020IMCT  S0 PTB  00005                    1030 SR        000000000000 DENSO TEN (THAILAND)190MRSU0012012                                                                                                                              *          20181016 IMCT                IMCT                                                                                                                    WMF1810162.TXT
MDDDJO292260201810                D89828070300PT4D20181020000060SPEAKER ASM                   M IMCTM S9TS02 TNTH  09020IMCT  S9 PTB  00015                    0230 SR        000000000000 DENSO TEN (THAILAND)190MRWU0011011                                                                                                                              *          20181016 IMCT                IMCT                                                                                                                    WMF1810162.TXT
MDDDJO292261201810                D89828070300PT4D20181020000060SPEAKER ASM                   M IMCTM S9TS02 TNTH  09020IMCT  S9 PTB  00015                    1030 SR        000000000000 DENSO TEN (THAILAND)190MRSU0012012                                                                                                                              *          20181016 IMCT                IMCT                                                                                                                    WMF1810162.TXT
MDDUJO226844201810                D89828070100PT4U20181020000030SPEAKER ASM                   M IMCTM S0FL05 TNTH  09020IMCT  S0 PTB  00004                    0400 SR        000000000000 DENSO TEN (THAILAND)180LUQU0078078                                                                                                                              *          20181016 IMCT                IMCT                                                                                                                    WMF1810162.TXT
MDDUJO226845201810                D89828070200PV4U20181020000030SPEAKER ASM                   M IMCTM S0FR05 TNTH  09020IMCT  S0 PTB  00005                    0400 SR        000000000000 DENSO TEN (THAILAND)180LUQU0078078                                                                                                                              *          20181016 IMCT                IMCT                                                                                                                    WMF1810162.TXT
MDDUJO226846201810                D89828070300PT4U20181020000030SPEAKER ASM                   M IMCTM S9TS02 TNTH  09020IMCT  S9 PTB  00015                    0400 SR        000000000000 DENSO TEN (THAILAND)180LUQU0078078                                                                                                                              *          20181016 IMCT                IMCT                                                                                                                    WMF1810162.TXT
MDDUJO226847201810                D89848584200PT4U20181020000015RADIO;AM/FM CD D              M IMCTM S9CO001TNTH  09020IMCT  S9 PTB  00003                    0400 SR        000000000000 DENSO TEN (THAILAND)180LUQU0078078                                                                                                                              *          20181016 IMCT                IMCT                                                                                                                    WMF1810162.TXT
MDEDJO279506201810                D89828070100PV1D20181019000060SPEAKER ASM                   M IMCTM S5MB11 TNTH  09020IMCT  S5 PTB  00004                    2230 SR        000000000000 DENSO TEN (THAILAND)17033QL0129130                                                                                                                              *          20181016 IMCT                IMCT                                                                                                                    WMF1810162.TXT
MDEDJO279507201810                D89828070100PV1D20181020000060SPEAKER ASM                   M IMCTM S5MB11 TNTH  09020IMCT  S5 PTB  00004                    0230 SR        000000000000 DENSO TEN (THAILAND)190F84L0005006                                                                                                                              *          20181016 IMCT                IMCT                                                                                                                    WMF1810162.TXT
MDEDJO279508201810                D89828070100PV1D20181020000060SPEAKER ASM                   M IMCTM S5MB11 TNTH  09020IMCT  S5 PTB  00004                    0400 SR        000000000000 DENSO TEN (THAILAND)17006SL000600617047RL0014014                                                                                                                *          20181016 IMCT                IMCT                                                                                                                    WMF1810162.TXT
MDEDJO279509201810                D89828070100PV1D20181020000030SPEAKER ASM                   M IMCTM S5MB11 TNTH  09020IMCT  S5 PTB  00004                    0830 SR        000000000000 DENSO TEN (THAILAND)17033QL0131131                                                                                                                              *          20181016 IMCT                IMCT                                                                                                                    WMF1810162.TXT
MDEDJO279510201810                D89828070200PV1D20181019000060SPEAKER ASM                   M IMCTM S5MA14 TNTH  09020IMCT  S5 PTB  00005                    2230 SR        000000000000 DENSO TEN (THAILAND)17033QL0129130                                                                                                                              *          20181016 IMCT                IMCT                                                                                                                    WMF1810162.TXT
MDEDJO279511201810                D89828070200PV1D20181020000060SPEAKER ASM                   M IMCTM S5MA14 TNTH  09020IMCT  S5 PTB  00005                    0400 SR        000000000000 DENSO TEN (THAILAND)17006SL000600617047RL0014014                                                                                                                *          20181016 IMCT                IMCT                                                                                                                    WMF1810162.TXT
MDEDJO279512201810                D89828070200PV1D20181020000030SPEAKER ASM                   M IMCTM S5MA14 TNTH  09020IMCT  S5 PTB  00005                    0830 SR        000000000000 DENSO TEN (THAILAND)17033QL0131131                                                                                                                              *          20181016 IMCT                IMCT                                                                                                                    WMF1810162.TXT
MDEDJO279513201810                D89828070300PT1D20181019000060SPEAKER ASM                   M IMCTM S5NB082TNTH  09020IMCT  S5 PTB  00015                    2230 SR        000000000000 DENSO TEN (THAILAND)17033QL0129130                                                                                                                              *          20181016 IMCT                IMCT                                                                                                                    WMF1810162.TXT
MDEDJO279514201810                D89828070300PT1D20181020000060SPEAKER ASM                   M IMCTM S5NB082TNTH  09020IMCT  S5 PTB  00015                    0400 SR        000000000000 DENSO TEN (THAILAND)17006SL000600617047RL0014014                                                                                                                *          20181016 IMCT                IMCT                                                                                                                    WMF1810162.TXT
MDEDJO279515201810                D89828070300PT1D20181020000030SPEAKER ASM                   M IMCTM S5NB082TNTH  09020IMCT  S5 PTB  00015                    0830 SR        000000000000 DENSO TEN (THAILAND)17033QL0131131                                                                                                                              *          20181016 IMCT                IMCT                                                                                                                    WMF1810162.TXT
MDEDJO279516201810                D89831229010PT1D20181020000015RADIO;AM/FM,CD                M IMCTM S5NC06 TNTH  09020IMCT  S5 PTB  00003                    0400 SR        000000000000 DENSO TEN (THAILAND)17047RL0014014                                                                                                                              *          20181016 IMCT                IMCT                                                                                                                    WMF1810162.TXT
MDEDJO279517201810                D89831229200PT1D20181019000030RADIO;AM/FM,CD                M IMCTM S5NC06 TNTH  09020IMCT  S5 PTB  00003                    2230 SR        000000000000 DENSO TEN (THAILAND)17033QL0129130                                                                                                                              *          20181016 IMCT                IMCT                                                                                                                    WMF1810162.TXT
MDEDJO279518201810                D89831229200PT1D20181020000015RADIO;AM/FM,CD                M IMCTM S5NC06 TNTH  09020IMCT  S5 PTB  00003                    0400 SR        000000000000 DENSO TEN (THAILAND)17006SL0006006                                                                                                                              *          20181016 IMCT                IMCT                                                                                                                    WMF1810162.TXT
MDEDJO279519201810                D89831229200PT1D20181020000015RADIO;AM/FM,CD                M IMCTM S5NC06 TNTH  09020IMCT  S5 PTB  00003                    0830 SR        000000000000 DENSO TEN (THAILAND)17033QL0131131                                                                                                                              *          20181016 IMCT                IMCT                                                                                                                    WMF1810162.TXT
MDEUJO235409201810                D89828070100PT4U20181019000030SPEAKER ASM                   M IMCTM S0FL05 TNTH  09020IMCT  S0 PTB  00004                    2230 SR        000000000000 DENSO TEN (THAILAND)18021UU0216216                                                                                                                              *          20181016 IMCT                IMCT                                                                                                                    WMF1810162.TXT
MDEUJO235410201810                D89828070100PT4U20181020000030SPEAKER ASM                   M IMCTM S0FL05 TNTH  09020IMCT  S0 PTB  00004                    0830 SR        000000000000 DENSO TEN (THAILAND)190G77U0009009                                                                                                                              *          20181016 IMCT                IMCT                                                                                                                    WMF1810162.TXT
MDEUJO235411201810                D89828070200PV4U20181019000030SPEAKER ASM                   M IMCTM S0FR05 TNTH  09020IMCT  S0 PTB  00005                    2230 SR        000000000000 DENSO TEN (THAILAND)18021UU0216216                                                                                                                              *          20181016 IMCT                IMCT                                                                                                                    WMF1810162.TXT
MDEUJO235412201810                D89828070200PV4U20181020000030SPEAKER ASM                   M IMCTM S0FR05 TNTH  09020IMCT  S0 PTB  00005                    0830 SR        000000000000 DENSO TEN (THAILAND)190G77U0009009                                                                                                                              *          20181016 IMCT                IMCT                                                                                                                    WMF1810162.TXT
MDEUJO235413201810                D89828070300PT4U20181019000030SPEAKER ASM                   M IMCTM S9TS02 TNTH  09020IMCT  S9 PTB  00015                    2230 SR        000000000000 DENSO TEN (THAILAND)18021UU0216216                                                                                                                              *          20181016 IMCT                IMCT                                                                                                                    WMF1810162.TXT
MDEUJO235414201810                D89828070300PT4U20181020000030SPEAKER ASM                   M IMCTM S9TS02 TNTH  09020IMCT  S9 PTB  00015                    0830 SR        000000000000 DENSO TEN (THAILAND)190G77U0009009                                                                                                                              *          20181016 IMCT                IMCT                                                                                                                    WMF1810162.TXT
