REC2018101320181013ISUZU                              31     
MDD6JO251248201810                D89828070100PV5620181017000060SPEAKER ASM                   M IMCTM G9B114 TNTH  09020G/WAY G9 PTB  00004                    1530 GW        0000000000005DENSO TEN (THAILAND)190MRVG0014014                                                                                                                              *          20181013 IMCT                IMCT                                                                                                                    WMF1810132.TXT
MDD6JO251249201810                D89828070100PV5620181017000060SPEAKER ASM                   M IMCTM G9B114 TNTH  09020G/WAY G9 PTB  00004                    2100 GW        0000000000005DENSO TEN (THAILAND)190MRTG0017017                                                                                                                              *          20181013 IMCT                IMCT                                                                                                                    WMF1810132.TXT
MDD6JO251250201810                D89828070100PV5620181017000060SPEAKER ASM                   M IMCTM G9B114 TNTH  09020G/WAY G9 PTB  00004                    2300 GW        0000000000005DENSO TEN (THAILAND)190MPGG0008008                                                                                                                              *          20181013 IMCT                IMCT                                                                                                                    WMF1810132.TXT
MDD6JO251251201810                D89828070100PV5620181018000120SPEAKER ASM                   M IMCTM G9B114 TNTH  09020G/WAY G9 PTB  00004                    0330 GW        0000000000005DENSO TEN (THAILAND)190MRLG0006006190MRRG0006006                                                                                                                *          20181013 IMCT                IMCT                                                                                                                    WMF1810132.TXT
MDD6JO251252201810                D89828070100PV5620181018000060SPEAKER ASM                   M IMCTM G9B114 TNTH  09020G/WAY G9 PTB  00004                    0900 GW        0000000000005DENSO TEN (THAILAND)190MREG0012012                                                                                                                              *          20181013 IMCT                IMCT                                                                                                                    WMF1810132.TXT
MDD6JO251253201810                D89828070100PV5620181018000060SPEAKER ASM                   M IMCTM G9B114 TNTH  09020G/WAY G9 PTB  00004                    1100 GW        0000000000005DENSO TEN (THAILAND)190MRNG0004004                                                                                                                              *          20181013 IMCT                IMCT                                                                                                                    WMF1810132.TXT
MDD6JO251254201810                D89828070100PV5620181018000060SPEAKER ASM                   M IMCTM G9B114 TNTH  09020G/WAY G9 PTB  00004                    1400 GW        0000000000005DENSO TEN (THAILAND)190MPKG0003003                                                                                                                              *          20181013 IMCT                IMCT                                                                                                                    WMF1810132.TXT
MDD6JO251255201810                D89828070100PV5620181018000060SPEAKER ASM                   M IMCTM G9B114 TNTH  09020G/WAY G9 PTB  00004                    1530 GW        0000000000005DENSO TEN (THAILAND)190MREG0013013                                                                                                                              *          20181013 IMCT                IMCT                                                                                                                    WMF1810132.TXT
MDD6JO251256201810                D89828070200PV5620181017000060SPEAKER ASM                   M IMCTM G9F132 TNTH  09020G/WAY G9 PTB  00005                    1530 GW        0000000000005DENSO TEN (THAILAND)190MRVG0014014                                                                                                                              *          20181013 IMCT                IMCT                                                                                                                    WMF1810132.TXT
MDD6JO251257201810                D89828070200PV5620181017000060SPEAKER ASM                   M IMCTM G9F132 TNTH  09020G/WAY G9 PTB  00005                    2100 GW        0000000000005DENSO TEN (THAILAND)190MRTG0017017                                                                                                                              *          20181013 IMCT                IMCT                                                                                                                    WMF1810132.TXT
MDD6JO251258201810                D89828070200PV5620181018000120SPEAKER ASM                   M IMCTM G9F132 TNTH  09020G/WAY G9 PTB  00005                    0330 GW        0000000000005DENSO TEN (THAILAND)190MRLG0006006190MRRG0006006                                                                                                                *          20181013 IMCT                IMCT                                                                                                                    WMF1810132.TXT
MDD6JO251259201810                D89828070200PV5620181018000060SPEAKER ASM                   M IMCTM G9F132 TNTH  09020G/WAY G9 PTB  00005                    0900 GW        0000000000005DENSO TEN (THAILAND)190MREG0012012                                                                                                                              *          20181013 IMCT                IMCT                                                                                                                    WMF1810132.TXT
MDD6JO251260201810                D89828070200PV5620181018000060SPEAKER ASM                   M IMCTM G9F132 TNTH  09020G/WAY G9 PTB  00005                    1100 GW        0000000000005DENSO TEN (THAILAND)190MRNG0004004                                                                                                                              *          20181013 IMCT                IMCT                                                                                                                    WMF1810132.TXT
MDD6JO251261201810                D89828070200PV5620181018000060SPEAKER ASM                   M IMCTM G9F132 TNTH  09020G/WAY G9 PTB  00005                    1530 GW        0000000000005DENSO TEN (THAILAND)190MREG0013013                                                                                                                              *          20181013 IMCT                IMCT                                                                                                                    WMF1810132.TXT
MDD6JO251262201810                D89828070300PT5620181017000060SPEAKER ASM                   M IMCTM G9JA33 TNTH  09020G/WAY G9 PTB  00015                    1530 GW        0000000000005DENSO TEN (THAILAND)190MRVG0014014                                                                                                                              *          20181013 IMCT                IMCT                                                                                                                    WMF1810132.TXT
MDD6JO251263201810                D89828070300PT5620181017000060SPEAKER ASM                   M IMCTM G9JA33 TNTH  09020G/WAY G9 PTB  00015                    2100 GW        0000000000005DENSO TEN (THAILAND)190MRTG0017017                                                                                                                              *          20181013 IMCT                IMCT                                                                                                                    WMF1810132.TXT
MDD6JO251264201810                D89828070300PT5620181017000060SPEAKER ASM                   M IMCTM G9JA33 TNTH  09020G/WAY G9 PTB  00015                    2300 GW        0000000000005DENSO TEN (THAILAND)190MPGG0008008                                                                                                                              *          20181013 IMCT                IMCT                                                                                                                    WMF1810132.TXT
MDD6JO251265201810                D89828070300PT5620181018000120SPEAKER ASM                   M IMCTM G9JA33 TNTH  09020G/WAY G9 PTB  00015                    0330 GW        0000000000005DENSO TEN (THAILAND)190MRLG0006006190MRRG0006006                                                                                                                *          20181013 IMCT                IMCT                                                                                                                    WMF1810132.TXT
MDD6JO251266201810                D89828070300PT5620181018000060SPEAKER ASM                   M IMCTM G9JA33 TNTH  09020G/WAY G9 PTB  00015                    0900 GW        0000000000005DENSO TEN (THAILAND)190MREG0012012                                                                                                                              *          20181013 IMCT                IMCT                                                                                                                    WMF1810132.TXT
MDD6JO251267201810                D89828070300PT5620181018000060SPEAKER ASM                   M IMCTM G9JA33 TNTH  09020G/WAY G9 PTB  00015                    1100 GW        0000000000005DENSO TEN (THAILAND)190MRNG0004004                                                                                                                              *          20181013 IMCT                IMCT                                                                                                                    WMF1810132.TXT
MDD6JO251268201810                D89828070300PT5620181018000060SPEAKER ASM                   M IMCTM G9JA33 TNTH  09020G/WAY G9 PTB  00015                    1400 GW        0000000000005DENSO TEN (THAILAND)190MPKG0003003                                                                                                                              *          20181013 IMCT                IMCT                                                                                                                    WMF1810132.TXT
MDD6JO251269201810                D89828070300PT5620181018000060SPEAKER ASM                   M IMCTM G9JA33 TNTH  09020G/WAY G9 PTB  00015                    1530 GW        0000000000005DENSO TEN (THAILAND)190MREG0013013                                                                                                                              *          20181013 IMCT                IMCT                                                                                                                    WMF1810132.TXT
MDD6JO251270201810                D89831228300PT5620181017000030RADIO;AM/FM,CD                M IMCTM G9J213 TNTH  09020G/WAY G9 CPB  00003                    2300 GW        0000000000005DENSO TEN (THAILAND)190MPGG0008008                                                                                                                              *          20181013 IMCT                IMCT                                                                                                                    WMF1810132.TXT
MDD6JO251271201810                D89831228400PT5620181018000030RADIO;AM/FM,CD                M IMCTM G9J213 TNTH  09020G/WAY G9 CPB  00003                    0900 GW        0000000000005DENSO TEN (THAILAND)190MREG0012012                                                                                                                              *          20181013 IMCT                IMCT                                                                                                                    WMF1810132.TXT
MDD6JO251272201810                D89831228400PT5620181018000030RADIO;AM/FM,CD                M IMCTM G9J213 TNTH  09020G/WAY G9 CPB  00003                    1530 GW        0000000000005DENSO TEN (THAILAND)190MREG0013013                                                                                                                              *          20181013 IMCT                IMCT                                                                                                                    WMF1810132.TXT
MDD6JO251273201810                D89848581500PT5620181017000030RADIO;AM/FM CD D              M IMCTM G9J213 TNTH  09020G/WAY G9 PTB  00003                    2100 GW        0000000000005DENSO TEN (THAILAND)190MRTG0017017                                                                                                                              *          20181013 IMCT                IMCT                                                                                                                    WMF1810132.TXT
MDD6JO251274201810                D89848581600PT5620181018000030RADIO;AM/FM CD D              M IMCTM G9J213 TNTH  09020G/WAY G9 PTB  00003                    1400 GW        0000000000005DENSO TEN (THAILAND)190MPKG0003003                                                                                                                              *          20181013 IMCT                IMCT                                                                                                                    WMF1810132.TXT
MDE6JO203105201810                D89828070100PV5620181017000060SPEAKER ASM                   M IMCTM G9B114 TNTH  09020G/WAY G9 PTB  00004                    2300 GW        0000000000005DENSO TEN (THAILAND)18079UG0013013                                                                                                                              *          20181013 IMCT                IMCT                                                                                                                    WMF1810132.TXT
MDE6JO203106201810                D89828070200PV5620181017000060SPEAKER ASM                   M IMCTM G9F132 TNTH  09020G/WAY G9 PTB  00005                    2300 GW        0000000000005DENSO TEN (THAILAND)18079UG0013013                                                                                                                              *          20181013 IMCT                IMCT                                                                                                                    WMF1810132.TXT
MDE6JO203107201810                D89828070300PT5620181017000060SPEAKER ASM                   M IMCTM G9JA33 TNTH  09020G/WAY G9 PTB  00015                    2300 GW        0000000000005DENSO TEN (THAILAND)18079UG0013013                                                                                                                              *          20181013 IMCT                IMCT                                                                                                                    WMF1810132.TXT
MDE6JO203108201810                D89848581800PT5620181017000030RADIO;AM/FM CD D              M IMCTM G9J213 TNTH  09020G/WAY G9 PTB  00003                    2300 GW        0000000000005DENSO TEN (THAILAND)18079UG0013013                                                                                                                              *          20181013 IMCT                IMCT                                                                                                                    WMF1810132.TXT
