REC2018101620181016ISUZU                              68     
MDDDJO297613201810                D89821984430PT1D20181020000030RADIO;AM/FM,CD                M IMCTM S5NC06 TNTH  09020IMCT  S5 PTB  00005                    1030 SR        000000000000 DENSO TEN (THAILAND)190MRAL0013013                                                                                                                              *          20181016 IMCT                IMCT                                                                                                                    WMF1810166.TXT
MDDDJO297614201810                D89821984430PT1D20181024000030RADIO;AM/FM,CD                M IMCTM S5NC06 TNTH  09020IMCT  S5 PTB  00005                    0830 SR        000000000000 DENSO TEN (THAILAND)190MYAL0025025                                                                                                                              *          20181016 IMCT                IMCT                                                                                                                    WMF1810166.TXT
MDDDJO297615201810                D89821984430PT1D20181024000030RADIO;AM/FM,CD                M IMCTM S5NC06 TNTH  09020IMCT  S5 PTB  00005                    1030 SR        000000000000 DENSO TEN (THAILAND)190MRAL0014014                                                                                                                              *          20181016 IMCT                IMCT                                                                                                                    WMF1810166.TXT
MDDDJO297616201810                D89821984430PT1D20181024000030RADIO;AM/FM,CD                M IMCTM S5NC06 TNTH  09020IMCT  S5 PTB  00005                    2100 SR        000000000000 DENSO TEN (THAILAND)190MNGL0010010                                                                                                                              *          20181016 IMCT                IMCT                                                                                                                    WMF1810166.TXT
MDDDJO297617201810                D89828070100PV1D20181020000060SPEAKER ASM                   M IMCTM S5MB11 TNTH  09020IMCT  S5 PTB  00004                    1030 SR        000000000000 DENSO TEN (THAILAND)190MRAL0013013                                                                                                                              *          20181016 IMCT                IMCT                                                                                                                    WMF1810166.TXT
MDDDJO297618201810                D89828070100PV1D20181020000060SPEAKER ASM                   M IMCTM S5MB11 TNTH  09020IMCT  S5 PTB  00004                    1300 SR        000000000000 DENSO TEN (THAILAND)190MXBL0003003                                                                                                                              *          20181016 IMCT                IMCT                                                                                                                    WMF1810166.TXT
MDDDJO297619201810                D89828070100PV1D20181024000060SPEAKER ASM                   M IMCTM S5MB11 TNTH  09020IMCT  S5 PTB  00004                    0830 SR        000000000000 DENSO TEN (THAILAND)190MYAL0025025                                                                                                                              *          20181016 IMCT                IMCT                                                                                                                    WMF1810166.TXT
MDDDJO297620201810                D89828070100PV1D20181024000060SPEAKER ASM                   M IMCTM S5MB11 TNTH  09020IMCT  S5 PTB  00004                    1030 SR        000000000000 DENSO TEN (THAILAND)190MRAL0014014                                                                                                                              *          20181016 IMCT                IMCT                                                                                                                    WMF1810166.TXT
MDDDJO297621201810                D89828070100PV1D20181024000060SPEAKER ASM                   M IMCTM S5MB11 TNTH  09020IMCT  S5 PTB  00004                    1300 SR        000000000000 DENSO TEN (THAILAND)190MPJL0005005                                                                                                                              *          20181016 IMCT                IMCT                                                                                                                    WMF1810166.TXT
MDDDJO297622201810                D89828070100PV1D20181024000060SPEAKER ASM                   M IMCTM S5MB11 TNTH  09020IMCT  S5 PTB  00004                    2100 SR        000000000000 DENSO TEN (THAILAND)190MNGL0010010                                                                                                                              *          20181016 IMCT                IMCT                                                                                                                    WMF1810166.TXT
MDDDJO297623201810                D89828070100PV4D20181020000060SPEAKER ASM                   M IMCTM S0FL05 TNTH  09020IMCT  S0 PTB  00004                    1600 SR        000000000000 DENSO TEN (THAILAND)190MRSU0013013                                                                                                                              *          20181016 IMCT                IMCT                                                                                                                    WMF1810166.TXT
MDDDJO297624201810                D89828070100PV4D20181024000060SPEAKER ASM                   M IMCTM S0FL05 TNTH  09020IMCT  S0 PTB  00004                    1300 SR        000000000000 DENSO TEN (THAILAND)190MRSU0014014                                                                                                                              *          20181016 IMCT                IMCT                                                                                                                    WMF1810166.TXT
MDDDJO297625201810                D89828070200PV4D20181020000060SPEAKER ASM                   M IMCTM S0FR05 TNTH  09020IMCT  S0 PTB  00005                    1600 SR        000000000000 DENSO TEN (THAILAND)190MRSU0013013                                                                                                                              *          20181016 IMCT                IMCT                                                                                                                    WMF1810166.TXT
MDDDJO297626201810                D89828070200PV4D20181024000060SPEAKER ASM                   M IMCTM S0FR05 TNTH  09020IMCT  S0 PTB  00005                    1300 SR        000000000000 DENSO TEN (THAILAND)190MRSU0014014                                                                                                                              *          20181016 IMCT                IMCT                                                                                                                    WMF1810166.TXT
MDDDJO297627201810                D89828070300PT1D20181024000060SPEAKER ASM                   M IMCTM S5NB082TNTH  09020IMCT  S5 PTB  00015                    1300 SR        000000000000 DENSO TEN (THAILAND)190MPJL0005005                                                                                                                              *          20181016 IMCT                IMCT                                                                                                                    WMF1810166.TXT
MDDDJO297628201810                D89828070300PT4D20181020000060SPEAKER ASM                   M IMCTM S9TS02 TNTH  09020IMCT  S9 PTB  00015                    1600 SR        000000000000 DENSO TEN (THAILAND)190MRSU0013013                                                                                                                              *          20181016 IMCT                IMCT                                                                                                                    WMF1810166.TXT
MDDDJO297629201810                D89828070300PT4D20181024000060SPEAKER ASM                   M IMCTM S9TS02 TNTH  09020IMCT  S9 PTB  00015                    1300 SR        000000000000 DENSO TEN (THAILAND)190MRSU0014014                                                                                                                              *          20181016 IMCT                IMCT                                                                                                                    WMF1810166.TXT
MDDDJO297630201810                D89831228300PT1D20181024000030RADIO;AM/FM,CD                M IMCTM S5NC06 TNTH  09020IMCT  S5 CPB  00003                    1300 SR        000000000000 DENSO TEN (THAILAND)190MPJL0005005                                                                                                                              *          20181016 IMCT                IMCT                                                                                                                    WMF1810166.TXT
MDDUJO228846201810                D89828070100PT4U20181020000030SPEAKER ASM                   M IMCTM S0FL05 TNTH  09020IMCT  S0 PTB  00004                    1600 SR        000000000000 DENSO TEN (THAILAND)180LUPU0040040                                                                                                                              *          20181016 IMCT                IMCT                                                                                                                    WMF1810166.TXT
MDDUJO228847201810                D89828070100PT4U20181024000030SPEAKER ASM                   M IMCTM S0FL05 TNTH  09020IMCT  S0 PTB  00004                    1300 SR        000000000000 DENSO TEN (THAILAND)180LUSU0192192                                                                                                                              *          20181016 IMCT                IMCT                                                                                                                    WMF1810166.TXT
MDDUJO228848201810                D89828070100PT4U20181024000030SPEAKER ASM                   M IMCTM S0FL05 TNTH  09020IMCT  S0 PTB  00004                    1600 SR        000000000000 DENSO TEN (THAILAND)180LUQU0079079                                                                                                                              *          20181016 IMCT                IMCT                                                                                                                    WMF1810166.TXT
MDDUJO228849201810                D89828070200PV4U20181020000030SPEAKER ASM                   M IMCTM S0FR05 TNTH  09020IMCT  S0 PTB  00005                    1600 SR        000000000000 DENSO TEN (THAILAND)180LUPU0040040                                                                                                                              *          20181016 IMCT                IMCT                                                                                                                    WMF1810166.TXT
MDDUJO228850201810                D89828070200PV4U20181024000030SPEAKER ASM                   M IMCTM S0FR05 TNTH  09020IMCT  S0 PTB  00005                    1300 SR        000000000000 DENSO TEN (THAILAND)180LUSU0192192                                                                                                                              *          20181016 IMCT                IMCT                                                                                                                    WMF1810166.TXT
MDDUJO228851201810                D89828070200PV4U20181024000030SPEAKER ASM                   M IMCTM S0FR05 TNTH  09020IMCT  S0 PTB  00005                    1600 SR        000000000000 DENSO TEN (THAILAND)180LUQU0079079                                                                                                                              *          20181016 IMCT                IMCT                                                                                                                    WMF1810166.TXT
MDDUJO228852201810                D89828070300PT4U20181020000030SPEAKER ASM                   M IMCTM S9TS02 TNTH  09020IMCT  S9 PTB  00015                    1600 SR        000000000000 DENSO TEN (THAILAND)180LUPU0040040                                                                                                                              *          20181016 IMCT                IMCT                                                                                                                    WMF1810166.TXT
MDDUJO228853201810                D89828070300PT4U20181024000030SPEAKER ASM                   M IMCTM S9TS02 TNTH  09020IMCT  S9 PTB  00015                    1300 SR        000000000000 DENSO TEN (THAILAND)180LUSU0192192                                                                                                                              *          20181016 IMCT                IMCT                                                                                                                    WMF1810166.TXT
MDDUJO228854201810                D89828070300PT4U20181024000030SPEAKER ASM                   M IMCTM S9TS02 TNTH  09020IMCT  S9 PTB  00015                    1600 SR        000000000000 DENSO TEN (THAILAND)180LUQU0079079                                                                                                                              *          20181016 IMCT                IMCT                                                                                                                    WMF1810166.TXT
MDDUJO228855201810                D89831228400PT4U20181020000015RADIO;AM/FM,CD                M IMCTM S9CO001TNTH  09020IMCT  S9 CPB  00003                    1600 SR        000000000000 DENSO TEN (THAILAND)180LUPU0040040                                                                                                                              *          20181016 IMCT                IMCT                                                                                                                    WMF1810166.TXT
MDDUJO228856201810                D89848584200PT4U20181024000015RADIO;AM/FM CD D              M IMCTM S9CO001TNTH  09020IMCT  S9 PTB  00003                    1600 SR        000000000000 DENSO TEN (THAILAND)180LUQU0079079                                                                                                                              *          20181016 IMCT                IMCT                                                                                                                    WMF1810166.TXT
MDEDJO286394201810                D89828070100PV1D20181020000030SPEAKER ASM                   M IMCTM S5MB11 TNTH  09020IMCT  S5 PTB  00004                    1030 SR        000000000000 DENSO TEN (THAILAND)17033QL0132132                                                                                                                              *          20181016 IMCT                IMCT                                                                                                                    WMF1810166.TXT
MDEDJO286395201810                D89828070100PV1D20181020000060SPEAKER ASM                   M IMCTM S5MB11 TNTH  09020IMCT  S5 PTB  00004                    1300 SR        000000000000 DENSO TEN (THAILAND)18018XL0014015                                                                                                                              *          20181016 IMCT                IMCT                                                                                                                    WMF1810166.TXT
MDEDJO286396201810                D89828070100PV1D20181020000060SPEAKER ASM                   M IMCTM S5MB11 TNTH  09020IMCT  S5 PTB  00004                    1600 SR        000000000000 DENSO TEN (THAILAND)17033QL0133134                                                                                                                              *          20181016 IMCT                IMCT                                                                                                                    WMF1810166.TXT
MDEDJO286397201810                D89828070100PV1D20181024000030SPEAKER ASM                   M IMCTM S5MB11 TNTH  09020IMCT  S5 PTB  00004                    0830 SR        000000000000 DENSO TEN (THAILAND)17032QL0028028                                                                                                                              *          20181016 IMCT                IMCT                                                                                                                    WMF1810166.TXT
MDEDJO286398201810                D89828070100PV1D20181024000030SPEAKER ASM                   M IMCTM S5MB11 TNTH  09020IMCT  S5 PTB  00004                    1030 SR        000000000000 DENSO TEN (THAILAND)18018XL0016016                                                                                                                              *          20181016 IMCT                IMCT                                                                                                                    WMF1810166.TXT
MDEDJO286399201810                D89828070100PV1D20181024000060SPEAKER ASM                   M IMCTM S5MB11 TNTH  09020IMCT  S5 PTB  00004                    1300 SR        000000000000 DENSO TEN (THAILAND)190F86L0010011                                                                                                                              *          20181016 IMCT                IMCT                                                                                                                    WMF1810166.TXT
MDEDJO286400201810                D89828070100PV1D20181024000120SPEAKER ASM                   M IMCTM S5MB11 TNTH  09020IMCT  S5 PTB  00004                    1600 SR        000000000000 DENSO TEN (THAILAND)18064UL002502518082XL0020020190F86L0012013                                                                                                  *          20181016 IMCT                IMCT                                                                                                                    WMF1810166.TXT
MDEDJO286401201810                D89828070100PV1D20181024000030SPEAKER ASM                   M IMCTM S5MB11 TNTH  09020IMCT  S5 PTB  00004                    2230 SR        000000000000 DENSO TEN (THAILAND)17033QL0135135                                                                                                                              *          20181016 IMCT                IMCT                                                                                                                    WMF1810166.TXT
MDEDJO286402201810                D89828070100PV4D20181024000030SPEAKER ASM                   M IMCTM S0FL05 TNTH  09020IMCT  S0 PTB  00004                    1600 SR        000000000000 DENSO TEN (THAILAND)190D24U0002002                                                                                                                              *          20181016 IMCT                IMCT                                                                                                                    WMF1810166.TXT
MDEDJO286403201810                D89828070100PV4D20181024000030SPEAKER ASM                   M IMCTM S0FL05 TNTH  09020IMCT  S0 PTB  00004                    2230 SR        000000000000 DENSO TEN (THAILAND)190D24U0003003                                                                                                                              *          20181016 IMCT                IMCT                                                                                                                    WMF1810166.TXT
MDEDJO286404201810                D89828070200PV1D20181020000030SPEAKER ASM                   M IMCTM S5MA14 TNTH  09020IMCT  S5 PTB  00005                    1030 SR        000000000000 DENSO TEN (THAILAND)17033QL0132132                                                                                                                              *          20181016 IMCT                IMCT                                                                                                                    WMF1810166.TXT
MDEDJO286405201810                D89828070200PV1D20181020000060SPEAKER ASM                   M IMCTM S5MA14 TNTH  09020IMCT  S5 PTB  00005                    1600 SR        000000000000 DENSO TEN (THAILAND)17033QL0133134                                                                                                                              *          20181016 IMCT                IMCT                                                                                                                    WMF1810166.TXT
MDEDJO286406201810                D89828070200PV1D20181024000030SPEAKER ASM                   M IMCTM S5MA14 TNTH  09020IMCT  S5 PTB  00005                    0830 SR        000000000000 DENSO TEN (THAILAND)17032QL0028028                                                                                                                              *          20181016 IMCT                IMCT                                                                                                                    WMF1810166.TXT
MDEDJO286407201810                D89828070200PV1D20181024000030SPEAKER ASM                   M IMCTM S5MA14 TNTH  09020IMCT  S5 PTB  00005                    2230 SR        000000000000 DENSO TEN (THAILAND)17033QL0135135                                                                                                                              *          20181016 IMCT                IMCT                                                                                                                    WMF1810166.TXT
MDEDJO286408201810                D89828070200PV4D20181024000030SPEAKER ASM                   M IMCTM S0FR05 TNTH  09020IMCT  S0 PTB  00005                    1600 SR        000000000000 DENSO TEN (THAILAND)190D24U0002002                                                                                                                              *          20181016 IMCT                IMCT                                                                                                                    WMF1810166.TXT
MDEDJO286409201810                D89828070200PV4D20181024000030SPEAKER ASM                   M IMCTM S0FR05 TNTH  09020IMCT  S0 PTB  00005                    2230 SR        000000000000 DENSO TEN (THAILAND)190D24U0003003                                                                                                                              *          20181016 IMCT                IMCT                                                                                                                    WMF1810166.TXT
MDEDJO286410201810                D89828070300PT1D20181020000030SPEAKER ASM                   M IMCTM S5NB082TNTH  09020IMCT  S5 PTB  00015                    1030 SR        000000000000 DENSO TEN (THAILAND)17033QL0132132                                                                                                                              *          20181016 IMCT                IMCT                                                                                                                    WMF1810166.TXT
MDEDJO286411201810                D89828070300PT1D20181020000060SPEAKER ASM                   M IMCTM S5NB082TNTH  09020IMCT  S5 PTB  00015                    1300 SR        000000000000 DENSO TEN (THAILAND)18018XL0014015                                                                                                                              *          20181016 IMCT                IMCT                                                                                                                    WMF1810166.TXT
MDEDJO286412201810                D89828070300PT1D20181020000060SPEAKER ASM                   M IMCTM S5NB082TNTH  09020IMCT  S5 PTB  00015                    1600 SR        000000000000 DENSO TEN (THAILAND)17033QL0133134                                                                                                                              *          20181016 IMCT                IMCT                                                                                                                    WMF1810166.TXT
MDEDJO286413201810                D89828070300PT1D20181024000030SPEAKER ASM                   M IMCTM S5NB082TNTH  09020IMCT  S5 PTB  00015                    0830 SR        000000000000 DENSO TEN (THAILAND)17032QL0028028                                                                                                                              *          20181016 IMCT                IMCT                                                                                                                    WMF1810166.TXT
MDEDJO286414201810                D89828070300PT1D20181024000030SPEAKER ASM                   M IMCTM S5NB082TNTH  09020IMCT  S5 PTB  00015                    1030 SR        000000000000 DENSO TEN (THAILAND)18018XL0016016                                                                                                                              *          20181016 IMCT                IMCT                                                                                                                    WMF1810166.TXT
MDEDJO286415201810                D89828070300PT1D20181024000030SPEAKER ASM                   M IMCTM S5NB082TNTH  09020IMCT  S5 PTB  00015                    1600 SR        000000000000 DENSO TEN (THAILAND)18064UL0025025                                                                                                                              *          20181016 IMCT                IMCT                                                                                                                    WMF1810166.TXT
MDEDJO286416201810                D89828070300PT1D20181024000030SPEAKER ASM                   M IMCTM S5NB082TNTH  09020IMCT  S5 PTB  00015                    2230 SR        000000000000 DENSO TEN (THAILAND)17033QL0135135                                                                                                                              *          20181016 IMCT                IMCT                                                                                                                    WMF1810166.TXT
MDEDJO286417201810                D89828070300PT4D20181024000030SPEAKER ASM                   M IMCTM S9TS02 TNTH  09020IMCT  S9 PTB  00015                    1600 SR        000000000000 DENSO TEN (THAILAND)190D24U0002002                                                                                                                              *          20181016 IMCT                IMCT                                                                                                                    WMF1810166.TXT
MDEDJO286418201810                D89828070300PT4D20181024000030SPEAKER ASM                   M IMCTM S9TS02 TNTH  09020IMCT  S9 PTB  00015                    2230 SR        000000000000 DENSO TEN (THAILAND)190D24U0003003                                                                                                                              *          20181016 IMCT                IMCT                                                                                                                    WMF1810166.TXT
MDEDJO286419201810                D89831229200PT1D20181020000015RADIO;AM/FM,CD                M IMCTM S5NC06 TNTH  09020IMCT  S5 PTB  00003                    1030 SR        000000000000 DENSO TEN (THAILAND)17033QL0132132                                                                                                                              *          20181016 IMCT                IMCT                                                                                                                    WMF1810166.TXT
MDEDJO286420201810                D89831229200PT1D20181020000030RADIO;AM/FM,CD                M IMCTM S5NC06 TNTH  09020IMCT  S5 PTB  00003                    1600 SR        000000000000 DENSO TEN (THAILAND)17033QL0133134                                                                                                                              *          20181016 IMCT                IMCT                                                                                                                    WMF1810166.TXT
MDEDJO286421201810                D89831229200PT1D20181024000015RADIO;AM/FM,CD                M IMCTM S5NC06 TNTH  09020IMCT  S5 PTB  00003                    0830 SR        000000000000 DENSO TEN (THAILAND)17032QL0028028                                                                                                                              *          20181016 IMCT                IMCT                                                                                                                    WMF1810166.TXT
MDEDJO286422201810                D89831229200PT1D20181024000015RADIO;AM/FM,CD                M IMCTM S5NC06 TNTH  09020IMCT  S5 PTB  00003                    2230 SR        000000000000 DENSO TEN (THAILAND)17033QL0135135                                                                                                                              *          20181016 IMCT                IMCT                                                                                                                    WMF1810166.TXT
MDEDJO286423201810                D89848582500PT1D20181024000015RADIO;AM/FM CD D              M IMCTM S5NC06 TNTH  09020IMCT  S5 PTB  00003                    1600 SR        000000000000 DENSO TEN (THAILAND)18064UL0025025                                                                                                                              *          20181016 IMCT                IMCT                                                                                                                    WMF1810166.TXT
MDEUJO237743201810                D89828070100PT4U20181020000030SPEAKER ASM                   M IMCTM S0FL05 TNTH  09020IMCT  S0 PTB  00004                    1300 SR        000000000000 DENSO TEN (THAILAND)190G77U0010010                                                                                                                              *          20181016 IMCT                IMCT                                                                                                                    WMF1810166.TXT
MDEUJO237744201810                D89828070100PT4U20181024000030SPEAKER ASM                   M IMCTM S0FL05 TNTH  09020IMCT  S0 PTB  00004                    1030 SR        000000000000 DENSO TEN (THAILAND)18020UU0136136                                                                                                                              *          20181016 IMCT                IMCT                                                                                                                    WMF1810166.TXT
MDEUJO237745201810                D89828070100PT4U20181024000030SPEAKER ASM                   M IMCTM S0FL05 TNTH  09020IMCT  S0 PTB  00004                    1600 SR        000000000000 DENSO TEN (THAILAND)18020UU0137137                                                                                                                              *          20181016 IMCT                IMCT                                                                                                                    WMF1810166.TXT
MDEUJO237746201810                D89828070200PV4U20181020000030SPEAKER ASM                   M IMCTM S0FR05 TNTH  09020IMCT  S0 PTB  00005                    1300 SR        000000000000 DENSO TEN (THAILAND)190G77U0010010                                                                                                                              *          20181016 IMCT                IMCT                                                                                                                    WMF1810166.TXT
MDEUJO237747201810                D89828070200PV4U20181024000030SPEAKER ASM                   M IMCTM S0FR05 TNTH  09020IMCT  S0 PTB  00005                    1030 SR        000000000000 DENSO TEN (THAILAND)18020UU0136136                                                                                                                              *          20181016 IMCT                IMCT                                                                                                                    WMF1810166.TXT
MDEUJO237748201810                D89828070200PV4U20181024000030SPEAKER ASM                   M IMCTM S0FR05 TNTH  09020IMCT  S0 PTB  00005                    1600 SR        000000000000 DENSO TEN (THAILAND)18020UU0137137                                                                                                                              *          20181016 IMCT                IMCT                                                                                                                    WMF1810166.TXT
MDEUJO237749201810                D89828070300PT4U20181020000030SPEAKER ASM                   M IMCTM S9TS02 TNTH  09020IMCT  S9 PTB  00015                    1300 SR        000000000000 DENSO TEN (THAILAND)190G77U0010010                                                                                                                              *          20181016 IMCT                IMCT                                                                                                                    WMF1810166.TXT
MDEUJO237750201810                D89828070300PT4U20181024000030SPEAKER ASM                   M IMCTM S9TS02 TNTH  09020IMCT  S9 PTB  00015                    1030 SR        000000000000 DENSO TEN (THAILAND)18020UU0136136                                                                                                                              *          20181016 IMCT                IMCT                                                                                                                    WMF1810166.TXT
MDEUJO237751201810                D89828070300PT4U20181024000030SPEAKER ASM                   M IMCTM S9TS02 TNTH  09020IMCT  S9 PTB  00015                    1600 SR        000000000000 DENSO TEN (THAILAND)18020UU0137137                                                                                                                              *          20181016 IMCT                IMCT                                                                                                                    WMF1810166.TXT
