REC2018101820181018ISUZU                              65     
MDDDJO309277201810                D89821984430PT1D20181026000030RADIO;AM/FM,CD                M IMCTM S5NC06 TNTH  09020IMCT  S5 PTB  00005                    0230 SR        000000000000 DENSO TEN (THAILAND)190MYAL0027027                                                                                                                              *          20181018 IMCT                IMCT                                                                                                                    WMF1810188.TXT
MDDDJO309278201810                D89821984430PT1D20181026000030RADIO;AM/FM,CD                M IMCTM S5NC06 TNTH  09020IMCT  S5 PTB  00005                    1600 SR        000000000000 DENSO TEN (THAILAND)190MYBL0003003                                                                                                                              *          20181018 IMCT                IMCT                                                                                                                    WMF1810188.TXT
MDDDJO309279201810                D89828070100PV1D20181026000060SPEAKER ASM                   M IMCTM S5MB11 TNTH  09020IMCT  S5 PTB  00004                    0230 SR        000000000000 DENSO TEN (THAILAND)190MYAL0027027                                                                                                                              *          20181018 IMCT                IMCT                                                                                                                    WMF1810188.TXT
MDDDJO309280201810                D89828070100PV1D20181026000060SPEAKER ASM                   M IMCTM S5MB11 TNTH  09020IMCT  S5 PTB  00004                    1030 SR        000000000000 DENSO TEN (THAILAND)190MPKL0008008                                                                                                                              *          20181018 IMCT                IMCT                                                                                                                    WMF1810188.TXT
MDDDJO309281201810                D89828070100PV1D20181026000120SPEAKER ASM                   M IMCTM S5MB11 TNTH  09020IMCT  S5 PTB  00004                    1600 SR        000000000000 DENSO TEN (THAILAND)190MPEL0003003190MYBL0003003                                                                                                                *          20181018 IMCT                IMCT                                                                                                                    WMF1810188.TXT
MDDDJO309282201810                D89828070100PV4D20181026000060SPEAKER ASM                   M IMCTM S0FL05 TNTH  09020IMCT  S0 PTB  00004                    0230 SR        000000000000 DENSO TEN (THAILAND)190MRSU0016016                                                                                                                              *          20181018 IMCT                IMCT                                                                                                                    WMF1810188.TXT
MDDDJO309283201810                D89828070100PV4D20181026000060SPEAKER ASM                   M IMCTM S0FL05 TNTH  09020IMCT  S0 PTB  00004                    1030 SR        000000000000 DENSO TEN (THAILAND)190MRMU0007007                                                                                                                              *          20181018 IMCT                IMCT                                                                                                                    WMF1810188.TXT
MDDDJO309284201810                D89828070100PV4D20181026000060SPEAKER ASM                   M IMCTM S0FL05 TNTH  09020IMCT  S0 PTB  00004                    1600 SR        000000000000 DENSO TEN (THAILAND)190MRSU0017017                                                                                                                              *          20181018 IMCT                IMCT                                                                                                                    WMF1810188.TXT
MDDDJO309285201810                D89828070200PV4D20181026000060SPEAKER ASM                   M IMCTM S0FR05 TNTH  09020IMCT  S0 PTB  00005                    0230 SR        000000000000 DENSO TEN (THAILAND)190MRSU0016016                                                                                                                              *          20181018 IMCT                IMCT                                                                                                                    WMF1810188.TXT
MDDDJO309286201810                D89828070200PV4D20181026000060SPEAKER ASM                   M IMCTM S0FR05 TNTH  09020IMCT  S0 PTB  00005                    1030 SR        000000000000 DENSO TEN (THAILAND)190MRMU0007007                                                                                                                              *          20181018 IMCT                IMCT                                                                                                                    WMF1810188.TXT
MDDDJO309287201810                D89828070200PV4D20181026000060SPEAKER ASM                   M IMCTM S0FR05 TNTH  09020IMCT  S0 PTB  00005                    1600 SR        000000000000 DENSO TEN (THAILAND)190MRSU0017017                                                                                                                              *          20181018 IMCT                IMCT                                                                                                                    WMF1810188.TXT
MDDDJO309288201810                D89828070300PT1D20181026000060SPEAKER ASM                   M IMCTM S5NB082TNTH  09020IMCT  S5 PTB  00015                    1030 SR        000000000000 DENSO TEN (THAILAND)190MPKL0008008                                                                                                                              *          20181018 IMCT                IMCT                                                                                                                    WMF1810188.TXT
MDDDJO309289201810                D89828070300PT1D20181026000060SPEAKER ASM                   M IMCTM S5NB082TNTH  09020IMCT  S5 PTB  00015                    1600 SR        000000000000 DENSO TEN (THAILAND)190MPEL0003003                                                                                                                              *          20181018 IMCT                IMCT                                                                                                                    WMF1810188.TXT
MDDDJO309290201810                D89828070300PT4D20181026000060SPEAKER ASM                   M IMCTM S9TS02 TNTH  09020IMCT  S9 PTB  00015                    0230 SR        000000000000 DENSO TEN (THAILAND)190MRSU0016016                                                                                                                              *          20181018 IMCT                IMCT                                                                                                                    WMF1810188.TXT
MDDDJO309291201810                D89828070300PT4D20181026000060SPEAKER ASM                   M IMCTM S9TS02 TNTH  09020IMCT  S9 PTB  00015                    1030 SR        000000000000 DENSO TEN (THAILAND)190MRMU0007007                                                                                                                              *          20181018 IMCT                IMCT                                                                                                                    WMF1810188.TXT
MDDDJO309292201810                D89828070300PT4D20181026000060SPEAKER ASM                   M IMCTM S9TS02 TNTH  09020IMCT  S9 PTB  00015                    1600 SR        000000000000 DENSO TEN (THAILAND)190MRSU0017017                                                                                                                              *          20181018 IMCT                IMCT                                                                                                                    WMF1810188.TXT
MDDDJO309293201810                D89831228300PT1D20181026000030RADIO;AM/FM,CD                M IMCTM S5NC06 TNTH  09020IMCT  S5 CPB  00003                    1600 SR        000000000000 DENSO TEN (THAILAND)190MPEL0003003                                                                                                                              *          20181018 IMCT                IMCT                                                                                                                    WMF1810188.TXT
MDDDJO309294201810                D89848581600PT1D20181026000030RADIO;AM/FM CD D              M IMCTM S5NC06 TNTH  09020IMCT  S5 PTB  00003                    1030 SR        000000000000 DENSO TEN (THAILAND)190MPKL0008008                                                                                                                              *          20181018 IMCT                IMCT                                                                                                                    WMF1810188.TXT
MDDUJO232910201810                D89828070100PT4U20181025000030SPEAKER ASM                   M IMCTM S0FL05 TNTH  09020IMCT  S0 PTB  00004                    2230 SR        000000000000 DENSO TEN (THAILAND)180LUPU0041041                                                                                                                              *          20181018 IMCT                IMCT                                                                                                                    WMF1810188.TXT
MDDUJO232911201810                D89828070100PT4U20181026000030SPEAKER ASM                   M IMCTM S0FL05 TNTH  09020IMCT  S0 PTB  00004                    1300 SR        000000000000 DENSO TEN (THAILAND)180LUSU0193193                                                                                                                              *          20181018 IMCT                IMCT                                                                                                                    WMF1810188.TXT
MDDUJO232912201810                D89828070100PT4U20181026000030SPEAKER ASM                   M IMCTM S0FL05 TNTH  09020IMCT  S0 PTB  00004                    2100 SR        000000000000 DENSO TEN (THAILAND)180LUNU0017017                                                                                                                              *          20181018 IMCT                IMCT                                                                                                                    WMF1810188.TXT
MDDUJO232913201810                D89828070200PV4U20181025000030SPEAKER ASM                   M IMCTM S0FR05 TNTH  09020IMCT  S0 PTB  00005                    2230 SR        000000000000 DENSO TEN (THAILAND)180LUPU0041041                                                                                                                              *          20181018 IMCT                IMCT                                                                                                                    WMF1810188.TXT
MDDUJO232914201810                D89828070200PV4U20181026000030SPEAKER ASM                   M IMCTM S0FR05 TNTH  09020IMCT  S0 PTB  00005                    1300 SR        000000000000 DENSO TEN (THAILAND)180LUSU0193193                                                                                                                              *          20181018 IMCT                IMCT                                                                                                                    WMF1810188.TXT
MDDUJO232915201810                D89828070200PV4U20181026000030SPEAKER ASM                   M IMCTM S0FR05 TNTH  09020IMCT  S0 PTB  00005                    2100 SR        000000000000 DENSO TEN (THAILAND)180LUNU0017017                                                                                                                              *          20181018 IMCT                IMCT                                                                                                                    WMF1810188.TXT
MDDUJO232916201810                D89828070300PT4U20181025000030SPEAKER ASM                   M IMCTM S9TS02 TNTH  09020IMCT  S9 PTB  00015                    2230 SR        000000000000 DENSO TEN (THAILAND)180LUPU0041041                                                                                                                              *          20181018 IMCT                IMCT                                                                                                                    WMF1810188.TXT
MDDUJO232917201810                D89828070300PT4U20181026000030SPEAKER ASM                   M IMCTM S9TS02 TNTH  09020IMCT  S9 PTB  00015                    1300 SR        000000000000 DENSO TEN (THAILAND)180LUSU0193193                                                                                                                              *          20181018 IMCT                IMCT                                                                                                                    WMF1810188.TXT
MDDUJO232918201810                D89828070300PT4U20181026000030SPEAKER ASM                   M IMCTM S9TS02 TNTH  09020IMCT  S9 PTB  00015                    2100 SR        000000000000 DENSO TEN (THAILAND)180LUNU0017017                                                                                                                              *          20181018 IMCT                IMCT                                                                                                                    WMF1810188.TXT
MDDUJO232919201810                D89831228400PT4U20181025000015RADIO;AM/FM,CD                M IMCTM S9CO001TNTH  09020IMCT  S9 CPB  00003                    2230 SR        000000000000 DENSO TEN (THAILAND)180LUPU0041041                                                                                                                              *          20181018 IMCT                IMCT                                                                                                                    WMF1810188.TXT
MDDUJO232920201810                D89848584200PT4U20181026000015RADIO;AM/FM CD D              M IMCTM S9CO001TNTH  09020IMCT  S9 PTB  00003                    2100 SR        000000000000 DENSO TEN (THAILAND)180LUNU0017017                                                                                                                              *          20181018 IMCT                IMCT                                                                                                                    WMF1810188.TXT
MDEDJO301872201810                D89828070100PV1D20181025000090SPEAKER ASM                   M IMCTM S5MB11 TNTH  09020IMCT  S5 PTB  00004                    2230 SR        000000000000 DENSO TEN (THAILAND)18013YL000700818061UL0040040                                                                                                                *          20181018 IMCT                IMCT                                                                                                                    WMF1810188.TXT
MDEDJO301873201810                D89828070100PV1D20181026000090SPEAKER ASM                   M IMCTM S5MB11 TNTH  09020IMCT  S5 PTB  00004                    0400 SR        000000000000 DENSO TEN (THAILAND)170C94L000500518013YL000900918065UL0024024                                                                                                  *          20181018 IMCT                IMCT                                                                                                                    WMF1810188.TXT
MDEDJO301874201810                D89828070100PV1D20181026000090SPEAKER ASM                   M IMCTM S5MB11 TNTH  09020IMCT  S5 PTB  00004                    0830 SR        000000000000 DENSO TEN (THAILAND)18055XL000500518061UL004104118070UL0010010                                                                                                  *          20181018 IMCT                IMCT                                                                                                                    WMF1810188.TXT
MDEDJO301875201810                D89828070100PV1D20181026000030SPEAKER ASM                   M IMCTM S5MB11 TNTH  09020IMCT  S5 PTB  00004                    1030 SR        000000000000 DENSO TEN (THAILAND)190F86L0016016                                                                                                                              *          20181018 IMCT                IMCT                                                                                                                    WMF1810188.TXT
MDEDJO301876201810                D89828070100PV1D20181026000090SPEAKER ASM                   M IMCTM S5MB11 TNTH  09020IMCT  S5 PTB  00004                    1300 SR        000000000000 DENSO TEN (THAILAND)18056XL001701718066UL0018018190F86L0017017                                                                                                  *          20181018 IMCT                IMCT                                                                                                                    WMF1810188.TXT
MDEDJO301877201810                D89828070100PV1D20181026000060SPEAKER ASM                   M IMCTM S5MB11 TNTH  09020IMCT  S5 PTB  00004                    1600 SR        000000000000 DENSO TEN (THAILAND)18098UL0079080                                                                                                                              *          20181018 IMCT                IMCT                                                                                                                    WMF1810188.TXT
MDEDJO301878201810                D89828070100PV1D20181026000060SPEAKER ASM                   M IMCTM S5MB11 TNTH  09020IMCT  S5 PTB  00004                    2100 SR        000000000000 DENSO TEN (THAILAND)18020XL000700718076UL0025025                                                                                                                *          20181018 IMCT                IMCT                                                                                                                    WMF1810188.TXT
MDEDJO301879201810                D89828070200PV1D20181026000030SPEAKER ASM                   M IMCTM S5MA14 TNTH  09020IMCT  S5 PTB  00005                    0400 SR        000000000000 DENSO TEN (THAILAND)18065UL0024024                                                                                                                              *          20181018 IMCT                IMCT                                                                                                                    WMF1810188.TXT
MDEDJO301880201810                D89828070200PV1D20181026000030SPEAKER ASM                   M IMCTM S5MA14 TNTH  09020IMCT  S5 PTB  00005                    0830 SR        000000000000 DENSO TEN (THAILAND)18055XL0005005                                                                                                                              *          20181018 IMCT                IMCT                                                                                                                    WMF1810188.TXT
MDEDJO301881201810                D89828070200PV1D20181026000060SPEAKER ASM                   M IMCTM S5MA14 TNTH  09020IMCT  S5 PTB  00005                    1300 SR        000000000000 DENSO TEN (THAILAND)18056XL001701718066UL0018018                                                                                                                *          20181018 IMCT                IMCT                                                                                                                    WMF1810188.TXT
MDEDJO301882201810                D89828070200PV1D20181026000060SPEAKER ASM                   M IMCTM S5MA14 TNTH  09020IMCT  S5 PTB  00005                    1600 SR        000000000000 DENSO TEN (THAILAND)18098UL0079080                                                                                                                              *          20181018 IMCT                IMCT                                                                                                                    WMF1810188.TXT
MDEDJO301883201810                D89828070300PT1D20181025000030SPEAKER ASM                   M IMCTM S5NB082TNTH  09020IMCT  S5 PTB  00015                    2230 SR        000000000000 DENSO TEN (THAILAND)18061UL0040040                                                                                                                              *          20181018 IMCT                IMCT                                                                                                                    WMF1810188.TXT
MDEDJO301884201810                D89828070300PT1D20181026000030SPEAKER ASM                   M IMCTM S5NB082TNTH  09020IMCT  S5 PTB  00015                    0400 SR        000000000000 DENSO TEN (THAILAND)18065UL0024024                                                                                                                              *          20181018 IMCT                IMCT                                                                                                                    WMF1810188.TXT
MDEDJO301885201810                D89828070300PT1D20181026000090SPEAKER ASM                   M IMCTM S5NB082TNTH  09020IMCT  S5 PTB  00015                    0830 SR        000000000000 DENSO TEN (THAILAND)18055XL000500518061UL004104118070UL0010010                                                                                                  *          20181018 IMCT                IMCT                                                                                                                    WMF1810188.TXT
MDEDJO301886201810                D89828070300PT1D20181026000060SPEAKER ASM                   M IMCTM S5NB082TNTH  09020IMCT  S5 PTB  00015                    1300 SR        000000000000 DENSO TEN (THAILAND)18056XL001701718066UL0018018                                                                                                                *          20181018 IMCT                IMCT                                                                                                                    WMF1810188.TXT
MDEDJO301887201810                D89828070300PT1D20181026000060SPEAKER ASM                   M IMCTM S5NB082TNTH  09020IMCT  S5 PTB  00015                    1600 SR        000000000000 DENSO TEN (THAILAND)18098UL0079080                                                                                                                              *          20181018 IMCT                IMCT                                                                                                                    WMF1810188.TXT
MDEDJO301888201810                D89828070300PT1D20181026000060SPEAKER ASM                   M IMCTM S5NB082TNTH  09020IMCT  S5 PTB  00015                    2100 SR        000000000000 DENSO TEN (THAILAND)18020XL000700718076UL0025025                                                                                                                *          20181018 IMCT                IMCT                                                                                                                    WMF1810188.TXT
MDEDJO301889201810                D89831228600PT1D20181026000015RADIO;AM/FM,CD                M IMCTM S5NC06 TNTH  09020IMCT  S5 PTB  00003                    0830 SR        000000000000 DENSO TEN (THAILAND)18070UL0010010                                                                                                                              *          20181018 IMCT                IMCT                                                                                                                    WMF1810188.TXT
MDEDJO301890201810                D89848581800PT1D20181025000015RADIO;AM/FM CD D              M IMCTM S5NC06 TNTH  09020IMCT  S5 PTB  00003                    2230 SR        000000000000 DENSO TEN (THAILAND)18061UL0040040                                                                                                                              *          20181018 IMCT                IMCT                                                                                                                    WMF1810188.TXT
MDEDJO301891201810                D89848581800PT1D20181026000015RADIO;AM/FM CD D              M IMCTM S5NC06 TNTH  09020IMCT  S5 PTB  00003                    0400 SR        000000000000 DENSO TEN (THAILAND)18065UL0024024                                                                                                                              *          20181018 IMCT                IMCT                                                                                                                    WMF1810188.TXT
MDEDJO301892201810                D89848581800PT1D20181026000015RADIO;AM/FM CD D              M IMCTM S5NC06 TNTH  09020IMCT  S5 PTB  00003                    0830 SR        000000000000 DENSO TEN (THAILAND)18061UL0041041                                                                                                                              *          20181018 IMCT                IMCT                                                                                                                    WMF1810188.TXT
MDEDJO301893201810                D89848581800PT1D20181026000015RADIO;AM/FM CD D              M IMCTM S5NC06 TNTH  09020IMCT  S5 PTB  00003                    1300 SR        000000000000 DENSO TEN (THAILAND)18066UL0018018                                                                                                                              *          20181018 IMCT                IMCT                                                                                                                    WMF1810188.TXT
MDEDJO301894201810                D89848581800PT1D20181026000030RADIO;AM/FM CD D              M IMCTM S5NC06 TNTH  09020IMCT  S5 PTB  00003                    1600 SR        000000000000 DENSO TEN (THAILAND)18098UL0079080                                                                                                                              *          20181018 IMCT                IMCT                                                                                                                    WMF1810188.TXT
MDEDJO301895201810                D89848582100PT1D20181026000015RADIO;AM/FM CD D              M IMCTM S5NC06 TNTH  09020IMCT  S5 PTB  00003                    0830 SR        000000000000 DENSO TEN (THAILAND)18055XL0005005                                                                                                                              *          20181018 IMCT                IMCT                                                                                                                    WMF1810188.TXT
MDEUJO243752201810                D89828070100PT4U20181026000030SPEAKER ASM                   M IMCTM S0FL05 TNTH  09020IMCT  S0 PTB  00004                    0400 SR        000000000000 DENSO TEN (THAILAND)18015UU0053053                                                                                                                              *          20181018 IMCT                IMCT                                                                                                                    WMF1810188.TXT
MDEUJO243753201810                D89828070100PT4U20181026000030SPEAKER ASM                   M IMCTM S0FL05 TNTH  09020IMCT  S0 PTB  00004                    0830 SR        000000000000 DENSO TEN (THAILAND)18021UU0218218                                                                                                                              *          20181018 IMCT                IMCT                                                                                                                    WMF1810188.TXT
MDEUJO243754201810                D89828070100PT4U20181026000030SPEAKER ASM                   M IMCTM S0FL05 TNTH  09020IMCT  S0 PTB  00004                    1600 SR        000000000000 DENSO TEN (THAILAND)18021UU0219219                                                                                                                              *          20181018 IMCT                IMCT                                                                                                                    WMF1810188.TXT
MDEUJO243755201810                D89828070100PT4U20181026000030SPEAKER ASM                   M IMCTM S0FL05 TNTH  09020IMCT  S0 PTB  00004                    2230 SR        000000000000 DENSO TEN (THAILAND)18020UU0139139                                                                                                                              *          20181018 IMCT                IMCT                                                                                                                    WMF1810188.TXT
MDEUJO243756201810                D89828070200PV4U20181026000030SPEAKER ASM                   M IMCTM S0FR05 TNTH  09020IMCT  S0 PTB  00005                    0400 SR        000000000000 DENSO TEN (THAILAND)18015UU0053053                                                                                                                              *          20181018 IMCT                IMCT                                                                                                                    WMF1810188.TXT
MDEUJO243757201810                D89828070200PV4U20181026000030SPEAKER ASM                   M IMCTM S0FR05 TNTH  09020IMCT  S0 PTB  00005                    0830 SR        000000000000 DENSO TEN (THAILAND)18021UU0218218                                                                                                                              *          20181018 IMCT                IMCT                                                                                                                    WMF1810188.TXT
MDEUJO243758201810                D89828070200PV4U20181026000030SPEAKER ASM                   M IMCTM S0FR05 TNTH  09020IMCT  S0 PTB  00005                    1600 SR        000000000000 DENSO TEN (THAILAND)18021UU0219219                                                                                                                              *          20181018 IMCT                IMCT                                                                                                                    WMF1810188.TXT
MDEUJO243759201810                D89828070200PV4U20181026000030SPEAKER ASM                   M IMCTM S0FR05 TNTH  09020IMCT  S0 PTB  00005                    2230 SR        000000000000 DENSO TEN (THAILAND)18020UU0139139                                                                                                                              *          20181018 IMCT                IMCT                                                                                                                    WMF1810188.TXT
MDEUJO243760201810                D89828070300PT4U20181026000030SPEAKER ASM                   M IMCTM S9TS02 TNTH  09020IMCT  S9 PTB  00015                    0400 SR        000000000000 DENSO TEN (THAILAND)18015UU0053053                                                                                                                              *          20181018 IMCT                IMCT                                                                                                                    WMF1810188.TXT
MDEUJO243761201810                D89828070300PT4U20181026000030SPEAKER ASM                   M IMCTM S9TS02 TNTH  09020IMCT  S9 PTB  00015                    0830 SR        000000000000 DENSO TEN (THAILAND)18021UU0218218                                                                                                                              *          20181018 IMCT                IMCT                                                                                                                    WMF1810188.TXT
MDEUJO243762201810                D89828070300PT4U20181026000030SPEAKER ASM                   M IMCTM S9TS02 TNTH  09020IMCT  S9 PTB  00015                    1600 SR        000000000000 DENSO TEN (THAILAND)18021UU0219219                                                                                                                              *          20181018 IMCT                IMCT                                                                                                                    WMF1810188.TXT
MDEUJO243763201810                D89828070300PT4U20181026000030SPEAKER ASM                   M IMCTM S9TS02 TNTH  09020IMCT  S9 PTB  00015                    2230 SR        000000000000 DENSO TEN (THAILAND)18020UU0139139                                                                                                                              *          20181018 IMCT                IMCT                                                                                                                    WMF1810188.TXT
