REC2018101320181013ISUZU                              70     
MDDDJO282133201810                D89821984430PT1D20181017000060RADIO;AM/FM,CD                M IMCTM S5NC06 TNTH  09020IMCT  S5 PTB  00005                    2230 SR        000000000000 DENSO TEN (THAILAND)190MRBL0003003190MYAL0020020                                                                                                                *          20181013 IMCT                IMCT                                                                                                                    WMF1810134.TXT
MDDDJO282134201810                D89821984430PT1D20181018000030RADIO;AM/FM,CD                M IMCTM S5NC06 TNTH  09020IMCT  S5 PTB  00005                    0830 SR        000000000000 DENSO TEN (THAILAND)190MYAL0021021                                                                                                                              *          20181013 IMCT                IMCT                                                                                                                    WMF1810134.TXT
MDDDJO282135201810                D89821984430PT1D20181018000030RADIO;AM/FM,CD                M IMCTM S5NC06 TNTH  09020IMCT  S5 PTB  00005                    1300 SR        000000000000 DENSO TEN (THAILAND)190MRAL0012012                                                                                                                              *          20181013 IMCT                IMCT                                                                                                                    WMF1810134.TXT
MDDDJO282136201810                D89828070100PV1D20181017000120SPEAKER ASM                   M IMCTM S5MB11 TNTH  09020IMCT  S5 PTB  00004                    2230 SR        000000000000 DENSO TEN (THAILAND)190MRBL0003003190MYAL0020020                                                                                                                *          20181013 IMCT                IMCT                                                                                                                    WMF1810134.TXT
MDDDJO282137201810                D89828070100PV1D20181018000060SPEAKER ASM                   M IMCTM S5MB11 TNTH  09020IMCT  S5 PTB  00004                    0400 SR        000000000000 DENSO TEN (THAILAND)190MPGL0021021                                                                                                                              *          20181013 IMCT                IMCT                                                                                                                    WMF1810134.TXT
MDDDJO282138201810                D89828070100PV1D20181018000060SPEAKER ASM                   M IMCTM S5MB11 TNTH  09020IMCT  S5 PTB  00004                    0830 SR        000000000000 DENSO TEN (THAILAND)190MYAL0021021                                                                                                                              *          20181013 IMCT                IMCT                                                                                                                    WMF1810134.TXT
MDDDJO282139201810                D89828070100PV1D20181018000060SPEAKER ASM                   M IMCTM S5MB11 TNTH  09020IMCT  S5 PTB  00004                    1300 SR        000000000000 DENSO TEN (THAILAND)190MRAL0012012                                                                                                                              *          20181013 IMCT                IMCT                                                                                                                    WMF1810134.TXT
MDDDJO282140201810                D89828070100PV1D20181018000060SPEAKER ASM                   M IMCTM S5MB11 TNTH  09020IMCT  S5 PTB  00004                    1600 SR        000000000000 DENSO TEN (THAILAND)190MPEL0002002                                                                                                                              *          20181013 IMCT                IMCT                                                                                                                    WMF1810134.TXT
MDDDJO282141201810                D89828070100PV1D20181018000060SPEAKER ASM                   M IMCTM S5MB11 TNTH  09020IMCT  S5 PTB  00004                    2100 SR        000000000000 DENSO TEN (THAILAND)190MPNL0003003                                                                                                                              *          20181013 IMCT                IMCT                                                                                                                    WMF1810134.TXT
MDDDJO282142201810                D89828070100PV4D20181018000060SPEAKER ASM                   M IMCTM S0FL05 TNTH  09020IMCT  S0 PTB  00004                    0230 SR        000000000000 DENSO TEN (THAILAND)190MRTU0014014                                                                                                                              *          20181013 IMCT                IMCT                                                                                                                    WMF1810134.TXT
MDDDJO282143201810                D89828070100PV4D20181018000060SPEAKER ASM                   M IMCTM S0FL05 TNTH  09020IMCT  S0 PTB  00004                    1300 SR        000000000000 DENSO TEN (THAILAND)190MRMU0006006                                                                                                                              *          20181013 IMCT                IMCT                                                                                                                    WMF1810134.TXT
MDDDJO282144201810                D89828070100PV4D20181018000060SPEAKER ASM                   M IMCTM S0FL05 TNTH  09020IMCT  S0 PTB  00004                    1600 SR        000000000000 DENSO TEN (THAILAND)190MRTU0015015                                                                                                                              *          20181013 IMCT                IMCT                                                                                                                    WMF1810134.TXT
MDDDJO282145201810                D89828070200PV4D20181018000060SPEAKER ASM                   M IMCTM S0FR05 TNTH  09020IMCT  S0 PTB  00005                    0230 SR        000000000000 DENSO TEN (THAILAND)190MRTU0014014                                                                                                                              *          20181013 IMCT                IMCT                                                                                                                    WMF1810134.TXT
MDDDJO282146201810                D89828070200PV4D20181018000060SPEAKER ASM                   M IMCTM S0FR05 TNTH  09020IMCT  S0 PTB  00005                    1300 SR        000000000000 DENSO TEN (THAILAND)190MRMU0006006                                                                                                                              *          20181013 IMCT                IMCT                                                                                                                    WMF1810134.TXT
MDDDJO282147201810                D89828070200PV4D20181018000060SPEAKER ASM                   M IMCTM S0FR05 TNTH  09020IMCT  S0 PTB  00005                    1600 SR        000000000000 DENSO TEN (THAILAND)190MRTU0015015                                                                                                                              *          20181013 IMCT                IMCT                                                                                                                    WMF1810134.TXT
MDDDJO282148201810                D89828070300PT1D20181018000060SPEAKER ASM                   M IMCTM S5NB082TNTH  09020IMCT  S5 PTB  00015                    0400 SR        000000000000 DENSO TEN (THAILAND)190MPGL0021021                                                                                                                              *          20181013 IMCT                IMCT                                                                                                                    WMF1810134.TXT
MDDDJO282149201810                D89828070300PT1D20181018000060SPEAKER ASM                   M IMCTM S5NB082TNTH  09020IMCT  S5 PTB  00015                    1600 SR        000000000000 DENSO TEN (THAILAND)190MPEL0002002                                                                                                                              *          20181013 IMCT                IMCT                                                                                                                    WMF1810134.TXT
MDDDJO282150201810                D89828070300PT1D20181018000060SPEAKER ASM                   M IMCTM S5NB082TNTH  09020IMCT  S5 PTB  00015                    2100 SR        000000000000 DENSO TEN (THAILAND)190MPNL0003003                                                                                                                              *          20181013 IMCT                IMCT                                                                                                                    WMF1810134.TXT
MDDDJO282151201810                D89828070300PT4D20181018000060SPEAKER ASM                   M IMCTM S9TS02 TNTH  09020IMCT  S9 PTB  00015                    0230 SR        000000000000 DENSO TEN (THAILAND)190MRTU0014014                                                                                                                              *          20181013 IMCT                IMCT                                                                                                                    WMF1810134.TXT
MDDDJO282152201810                D89828070300PT4D20181018000060SPEAKER ASM                   M IMCTM S9TS02 TNTH  09020IMCT  S9 PTB  00015                    1300 SR        000000000000 DENSO TEN (THAILAND)190MRMU0006006                                                                                                                              *          20181013 IMCT                IMCT                                                                                                                    WMF1810134.TXT
MDDDJO282153201810                D89828070300PT4D20181018000060SPEAKER ASM                   M IMCTM S9TS02 TNTH  09020IMCT  S9 PTB  00015                    1600 SR        000000000000 DENSO TEN (THAILAND)190MRTU0015015                                                                                                                              *          20181013 IMCT                IMCT                                                                                                                    WMF1810134.TXT
MDDDJO282154201810                D89831228300PT1D20181018000030RADIO;AM/FM,CD                M IMCTM S5NC06 TNTH  09020IMCT  S5 CPB  00003                    0400 SR        000000000000 DENSO TEN (THAILAND)190MPGL0021021                                                                                                                              *          20181013 IMCT                IMCT                                                                                                                    WMF1810134.TXT
MDDDJO282155201810                D89831228300PT1D20181018000030RADIO;AM/FM,CD                M IMCTM S5NC06 TNTH  09020IMCT  S5 CPB  00003                    1600 SR        000000000000 DENSO TEN (THAILAND)190MPEL0002002                                                                                                                              *          20181013 IMCT                IMCT                                                                                                                    WMF1810134.TXT
MDDDJO282156201810                D89848581500PT4D20181018000030RADIO;AM/FM CD D              M IMCTM S9CO001TNTH  09020IMCT  S9 PTB  00003                    0230 SR        000000000000 DENSO TEN (THAILAND)190MRTU0014014                                                                                                                              *          20181013 IMCT                IMCT                                                                                                                    WMF1810134.TXT
MDDDJO282157201810                D89848581500PT4D20181018000030RADIO;AM/FM CD D              M IMCTM S9CO001TNTH  09020IMCT  S9 PTB  00003                    1600 SR        000000000000 DENSO TEN (THAILAND)190MRTU0015015                                                                                                                              *          20181013 IMCT                IMCT                                                                                                                    WMF1810134.TXT
MDDUJO223355201810                D89828070100PT4U20181018000030SPEAKER ASM                   M IMCTM S0FL05 TNTH  09020IMCT  S0 PTB  00004                    0230 SR        000000000000 DENSO TEN (THAILAND)180LUSU0188188                                                                                                                              *          20181013 IMCT                IMCT                                                                                                                    WMF1810134.TXT
MDDUJO223356201810                D89828070100PT4U20181018000030SPEAKER ASM                   M IMCTM S0FL05 TNTH  09020IMCT  S0 PTB  00004                    1030 SR        000000000000 DENSO TEN (THAILAND)180LUMU0023023                                                                                                                              *          20181013 IMCT                IMCT                                                                                                                    WMF1810134.TXT
MDDUJO223357201810                D89828070100PT4U20181018000030SPEAKER ASM                   M IMCTM S0FL05 TNTH  09020IMCT  S0 PTB  00004                    2100 SR        000000000000 DENSO TEN (THAILAND)180LUSU0189189                                                                                                                              *          20181013 IMCT                IMCT                                                                                                                    WMF1810134.TXT
MDDUJO223358201810                D89828070200PV4U20181018000030SPEAKER ASM                   M IMCTM S0FR05 TNTH  09020IMCT  S0 PTB  00005                    0230 SR        000000000000 DENSO TEN (THAILAND)180LUSU0188188                                                                                                                              *          20181013 IMCT                IMCT                                                                                                                    WMF1810134.TXT
MDDUJO223359201810                D89828070200PV4U20181018000030SPEAKER ASM                   M IMCTM S0FR05 TNTH  09020IMCT  S0 PTB  00005                    1030 SR        000000000000 DENSO TEN (THAILAND)180LUMU0023023                                                                                                                              *          20181013 IMCT                IMCT                                                                                                                    WMF1810134.TXT
MDDUJO223360201810                D89828070200PV4U20181018000030SPEAKER ASM                   M IMCTM S0FR05 TNTH  09020IMCT  S0 PTB  00005                    2100 SR        000000000000 DENSO TEN (THAILAND)180LUSU0189189                                                                                                                              *          20181013 IMCT                IMCT                                                                                                                    WMF1810134.TXT
MDDUJO223361201810                D89828070300PT4U20181018000030SPEAKER ASM                   M IMCTM S9TS02 TNTH  09020IMCT  S9 PTB  00015                    0230 SR        000000000000 DENSO TEN (THAILAND)180LUSU0188188                                                                                                                              *          20181013 IMCT                IMCT                                                                                                                    WMF1810134.TXT
MDDUJO223362201810                D89828070300PT4U20181018000030SPEAKER ASM                   M IMCTM S9TS02 TNTH  09020IMCT  S9 PTB  00015                    1030 SR        000000000000 DENSO TEN (THAILAND)180LUMU0023023                                                                                                                              *          20181013 IMCT                IMCT                                                                                                                    WMF1810134.TXT
MDDUJO223363201810                D89828070300PT4U20181018000030SPEAKER ASM                   M IMCTM S9TS02 TNTH  09020IMCT  S9 PTB  00015                    2100 SR        000000000000 DENSO TEN (THAILAND)180LUSU0189189                                                                                                                              *          20181013 IMCT                IMCT                                                                                                                    WMF1810134.TXT
MDEDJO268709201810                D89828070100PV1D20181018000060SPEAKER ASM                   M IMCTM S5MB11 TNTH  09020IMCT  S5 PTB  00004                    0230 SR        000000000000 DENSO TEN (THAILAND)17033QL0119120                                                                                                                              *          20181013 IMCT                IMCT                                                                                                                    WMF1810134.TXT
MDEDJO268710201810                D89828070100PV1D20181018000030SPEAKER ASM                   M IMCTM S5MB11 TNTH  09020IMCT  S5 PTB  00004                    0400 SR        000000000000 DENSO TEN (THAILAND)17028QL0011011                                                                                                                              *          20181013 IMCT                IMCT                                                                                                                    WMF1810134.TXT
MDEDJO268711201810                D89828070100PV1D20181018000030SPEAKER ASM                   M IMCTM S5MB11 TNTH  09020IMCT  S5 PTB  00004                    0830 SR        000000000000 DENSO TEN (THAILAND)18098XL0042042                                                                                                                              *          20181013 IMCT                IMCT                                                                                                                    WMF1810134.TXT
MDEDJO268712201810                D89828070100PV1D20181018000060SPEAKER ASM                   M IMCTM S5MB11 TNTH  09020IMCT  S5 PTB  00004                    1030 SR        000000000000 DENSO TEN (THAILAND)18071UL0020021                                                                                                                              *          20181013 IMCT                IMCT                                                                                                                    WMF1810134.TXT
MDEDJO268713201810                D89828070100PV1D20181018000060SPEAKER ASM                   M IMCTM S5MB11 TNTH  09020IMCT  S5 PTB  00004                    1300 SR        000000000000 DENSO TEN (THAILAND)18077UL001001018099XL0011011                                                                                                                *          20181013 IMCT                IMCT                                                                                                                    WMF1810134.TXT
MDEDJO268714201810                D89828070100PV1D20181018000150SPEAKER ASM                   M IMCTM S5MB11 TNTH  09020IMCT  S5 PTB  00004                    1600 SR        000000000000 DENSO TEN (THAILAND)18061UL003703718065UL0022023190F84L0002002190F86L0007007                                                                                    *          20181013 IMCT                IMCT                                                                                                                    WMF1810134.TXT
MDEDJO268715201810                D89828070100PV1D20181018000030SPEAKER ASM                   M IMCTM S5MB11 TNTH  09020IMCT  S5 PTB  00004                    2100 SR        000000000000 DENSO TEN (THAILAND)190F84L0003003                                                                                                                              *          20181013 IMCT                IMCT                                                                                                                    WMF1810134.TXT
MDEDJO268716201810                D89828070100PV4D20181018000030SPEAKER ASM                   M IMCTM S0FL05 TNTH  09020IMCT  S0 PTB  00004                    0830 SR        000000000000 DENSO TEN (THAILAND)190D24U0001001                                                                                                                              *          20181013 IMCT                IMCT                                                                                                                    WMF1810134.TXT
MDEDJO268717201810                D89828070100PV4D20181018000030SPEAKER ASM                   M IMCTM S0FL05 TNTH  09020IMCT  S0 PTB  00004                    2230 SR        000000000000 DENSO TEN (THAILAND)190D25U0002002                                                                                                                              *          20181013 IMCT                IMCT                                                                                                                    WMF1810134.TXT
MDEDJO268718201810                D89828070200PV1D20181018000060SPEAKER ASM                   M IMCTM S5MA14 TNTH  09020IMCT  S5 PTB  00005                    0230 SR        000000000000 DENSO TEN (THAILAND)17033QL0119120                                                                                                                              *          20181013 IMCT                IMCT                                                                                                                    WMF1810134.TXT
MDEDJO268719201810                D89828070200PV1D20181018000030SPEAKER ASM                   M IMCTM S5MA14 TNTH  09020IMCT  S5 PTB  00005                    0400 SR        000000000000 DENSO TEN (THAILAND)17028QL0011011                                                                                                                              *          20181013 IMCT                IMCT                                                                                                                    WMF1810134.TXT
MDEDJO268720201810                D89828070200PV1D20181018000030SPEAKER ASM                   M IMCTM S5MA14 TNTH  09020IMCT  S5 PTB  00005                    0830 SR        000000000000 DENSO TEN (THAILAND)18098XL0042042                                                                                                                              *          20181013 IMCT                IMCT                                                                                                                    WMF1810134.TXT
MDEDJO268721201810                D89828070200PV1D20181018000060SPEAKER ASM                   M IMCTM S5MA14 TNTH  09020IMCT  S5 PTB  00005                    1300 SR        000000000000 DENSO TEN (THAILAND)18077UL001001018099XL0011011                                                                                                                *          20181013 IMCT                IMCT                                                                                                                    WMF1810134.TXT
MDEDJO268722201810                D89828070200PV1D20181018000060SPEAKER ASM                   M IMCTM S5MA14 TNTH  09020IMCT  S5 PTB  00005                    1600 SR        000000000000 DENSO TEN (THAILAND)18065UL0022023                                                                                                                              *          20181013 IMCT                IMCT                                                                                                                    WMF1810134.TXT
MDEDJO268723201810                D89828070200PV4D20181018000030SPEAKER ASM                   M IMCTM S0FR05 TNTH  09020IMCT  S0 PTB  00005                    0830 SR        000000000000 DENSO TEN (THAILAND)190D24U0001001                                                                                                                              *          20181013 IMCT                IMCT                                                                                                                    WMF1810134.TXT
MDEDJO268724201810                D89828070200PV4D20181018000030SPEAKER ASM                   M IMCTM S0FR05 TNTH  09020IMCT  S0 PTB  00005                    2230 SR        000000000000 DENSO TEN (THAILAND)190D25U0002002                                                                                                                              *          20181013 IMCT                IMCT                                                                                                                    WMF1810134.TXT
MDEDJO268725201810                D89828070300PT1D20181018000060SPEAKER ASM                   M IMCTM S5NB082TNTH  09020IMCT  S5 PTB  00015                    0230 SR        000000000000 DENSO TEN (THAILAND)17033QL0119120                                                                                                                              *          20181013 IMCT                IMCT                                                                                                                    WMF1810134.TXT
MDEDJO268726201810                D89828070300PT1D20181018000030SPEAKER ASM                   M IMCTM S5NB082TNTH  09020IMCT  S5 PTB  00015                    0400 SR        000000000000 DENSO TEN (THAILAND)17028QL0011011                                                                                                                              *          20181013 IMCT                IMCT                                                                                                                    WMF1810134.TXT
MDEDJO268727201810                D89828070300PT1D20181018000030SPEAKER ASM                   M IMCTM S5NB082TNTH  09020IMCT  S5 PTB  00015                    0830 SR        000000000000 DENSO TEN (THAILAND)18098XL0042042                                                                                                                              *          20181013 IMCT                IMCT                                                                                                                    WMF1810134.TXT
MDEDJO268728201810                D89828070300PT1D20181018000060SPEAKER ASM                   M IMCTM S5NB082TNTH  09020IMCT  S5 PTB  00015                    1030 SR        000000000000 DENSO TEN (THAILAND)18071UL0020021                                                                                                                              *          20181013 IMCT                IMCT                                                                                                                    WMF1810134.TXT
MDEDJO268729201810                D89828070300PT1D20181018000060SPEAKER ASM                   M IMCTM S5NB082TNTH  09020IMCT  S5 PTB  00015                    1300 SR        000000000000 DENSO TEN (THAILAND)18077UL001001018099XL0011011                                                                                                                *          20181013 IMCT                IMCT                                                                                                                    WMF1810134.TXT
MDEDJO268730201810                D89828070300PT1D20181018000090SPEAKER ASM                   M IMCTM S5NB082TNTH  09020IMCT  S5 PTB  00015                    1600 SR        000000000000 DENSO TEN (THAILAND)18061UL003703718065UL0022023                                                                                                                *          20181013 IMCT                IMCT                                                                                                                    WMF1810134.TXT
MDEDJO268731201810                D89828070300PT4D20181018000030SPEAKER ASM                   M IMCTM S9TS02 TNTH  09020IMCT  S9 PTB  00015                    0830 SR        000000000000 DENSO TEN (THAILAND)190D24U0001001                                                                                                                              *          20181013 IMCT                IMCT                                                                                                                    WMF1810134.TXT
MDEDJO268732201810                D89828070300PT4D20181018000030SPEAKER ASM                   M IMCTM S9TS02 TNTH  09020IMCT  S9 PTB  00015                    2230 SR        000000000000 DENSO TEN (THAILAND)190D25U0002002                                                                                                                              *          20181013 IMCT                IMCT                                                                                                                    WMF1810134.TXT
MDEDJO268733201810                D89831229200PT1D20181018000030RADIO;AM/FM,CD                M IMCTM S5NC06 TNTH  09020IMCT  S5 PTB  00003                    0230 SR        000000000000 DENSO TEN (THAILAND)17033QL0119120                                                                                                                              *          20181013 IMCT                IMCT                                                                                                                    WMF1810134.TXT
MDEDJO268734201810                D89831229200PT1D20181018000015RADIO;AM/FM,CD                M IMCTM S5NC06 TNTH  09020IMCT  S5 PTB  00003                    0400 SR        000000000000 DENSO TEN (THAILAND)17028QL0011011                                                                                                                              *          20181013 IMCT                IMCT                                                                                                                    WMF1810134.TXT
MDEDJO268735201810                D89848581800PT1D20181018000030RADIO;AM/FM CD D              M IMCTM S5NC06 TNTH  09020IMCT  S5 PTB  00003                    1030 SR        000000000000 DENSO TEN (THAILAND)18071UL0020021                                                                                                                              *          20181013 IMCT                IMCT                                                                                                                    WMF1810134.TXT
MDEDJO268736201810                D89848581800PT1D20181018000015RADIO;AM/FM CD D              M IMCTM S5NC06 TNTH  09020IMCT  S5 PTB  00003                    1300 SR        000000000000 DENSO TEN (THAILAND)18077UL0010010                                                                                                                              *          20181013 IMCT                IMCT                                                                                                                    WMF1810134.TXT
MDEDJO268737201810                D89848581800PT1D20181018000045RADIO;AM/FM CD D              M IMCTM S5NC06 TNTH  09020IMCT  S5 PTB  00003                    1600 SR        000000000000 DENSO TEN (THAILAND)18061UL003703718065UL0022023                                                                                                                *          20181013 IMCT                IMCT                                                                                                                    WMF1810134.TXT
MDEDJO268738201810                D89848582100PT1D20181018000015RADIO;AM/FM CD D              M IMCTM S5NC06 TNTH  09020IMCT  S5 PTB  00003                    0830 SR        000000000000 DENSO TEN (THAILAND)18098XL0042042                                                                                                                              *          20181013 IMCT                IMCT                                                                                                                    WMF1810134.TXT
MDEUJO231242201810                D89828070100PT4U20181018000030SPEAKER ASM                   M IMCTM S0FL05 TNTH  09020IMCT  S0 PTB  00004                    0400 SR        000000000000 DENSO TEN (THAILAND)18021UU0213213                                                                                                                              *          20181013 IMCT                IMCT                                                                                                                    WMF1810134.TXT
MDEUJO231243201810                D89828070100PT4U20181018000030SPEAKER ASM                   M IMCTM S0FL05 TNTH  09020IMCT  S0 PTB  00004                    1300 SR        000000000000 DENSO TEN (THAILAND)18020UU0134134                                                                                                                              *          20181013 IMCT                IMCT                                                                                                                    WMF1810134.TXT
MDEUJO231244201810                D89828070200PV4U20181018000030SPEAKER ASM                   M IMCTM S0FR05 TNTH  09020IMCT  S0 PTB  00005                    0400 SR        000000000000 DENSO TEN (THAILAND)18021UU0213213                                                                                                                              *          20181013 IMCT                IMCT                                                                                                                    WMF1810134.TXT
MDEUJO231245201810                D89828070200PV4U20181018000030SPEAKER ASM                   M IMCTM S0FR05 TNTH  09020IMCT  S0 PTB  00005                    1300 SR        000000000000 DENSO TEN (THAILAND)18020UU0134134                                                                                                                              *          20181013 IMCT                IMCT                                                                                                                    WMF1810134.TXT
MDEUJO231246201810                D89828070300PT4U20181018000030SPEAKER ASM                   M IMCTM S9TS02 TNTH  09020IMCT  S9 PTB  00015                    0400 SR        000000000000 DENSO TEN (THAILAND)18021UU0213213                                                                                                                              *          20181013 IMCT                IMCT                                                                                                                    WMF1810134.TXT
MDEUJO231247201810                D89828070300PT4U20181018000030SPEAKER ASM                   M IMCTM S9TS02 TNTH  09020IMCT  S9 PTB  00015                    1300 SR        000000000000 DENSO TEN (THAILAND)18020UU0134134                                                                                                                              *          20181013 IMCT                IMCT                                                                                                                    WMF1810134.TXT
