REC2018102620181026ISUZU                              63     
MDDDJO334198201810                D89821984430PT1D20181031000030RADIO;AM/FM,CD                M IMCTM S5NC06 TNTH  09020IMCT  S5 PTB  00005                    0230 SR        000000000000 DENSO TEN (THAILAND)190MYBL0004004                                                                                                                              *          20181026 IMCT                IMCT                                                                                                                    WMF1810265.TXT
MDDDJO334199201810                D89821984430PT1D20181031000030RADIO;AM/FM,CD                M IMCTM S5NC06 TNTH  09020IMCT  S5 PTB  00005                    0400 SR        000000000000 DENSO TEN (THAILAND)190MYBL0005005                                                                                                                              *          20181026 IMCT                IMCT                                                                                                                    WMF1810265.TXT
MDDDJO334200201810                D89828070100PV1D20181031000060SPEAKER ASM                   M IMCTM S5MB11 TNTH  09020IMCT  S5 PTB  00004                    0230 SR        000000000000 DENSO TEN (THAILAND)190MYBL0004004                                                                                                                              *          20181026 IMCT                IMCT                                                                                                                    WMF1810265.TXT
MDDDJO334201201810                D89828070100PV1D20181031000060SPEAKER ASM                   M IMCTM S5MB11 TNTH  09020IMCT  S5 PTB  00004                    0400 SR        000000000000 DENSO TEN (THAILAND)190MYBL0005005                                                                                                                              *          20181026 IMCT                IMCT                                                                                                                    WMF1810265.TXT
MDDDJO334202201810                D89828070100PV1D20181031000060SPEAKER ASM                   M IMCTM S5MB11 TNTH  09020IMCT  S5 PTB  00004                    1300 SR        000000000000 DENSO TEN (THAILAND)190MPGL0027027                                                                                                                              *          20181026 IMCT                IMCT                                                                                                                    WMF1810265.TXT
MDDDJO334203201810                D89828070100PV1D20181031000060SPEAKER ASM                   M IMCTM S5MB11 TNTH  09020IMCT  S5 PTB  00004                    1600 SR        000000000000 DENSO TEN (THAILAND)190MPFL0006006                                                                                                                              *          20181026 IMCT                IMCT                                                                                                                    WMF1810265.TXT
MDDDJO334204201810                D89828070100PV1D20181031000060SPEAKER ASM                   M IMCTM S5MB11 TNTH  09020IMCT  S5 PTB  00004                    2100 SR        000000000000 DENSO TEN (THAILAND)190MPFL0007007                                                                                                                              *          20181026 IMCT                IMCT                                                                                                                    WMF1810265.TXT
MDDDJO334205201810                D89828070100PV4D20181031000060SPEAKER ASM                   M IMCTM S0FL05 TNTH  09020IMCT  S0 PTB  00004                    1300 SR        000000000000 DENSO TEN (THAILAND)190MRMU0008008                                                                                                                              *          20181026 IMCT                IMCT                                                                                                                    WMF1810265.TXT
MDDDJO334206201810                D89828070100PV4D20181031000060SPEAKER ASM                   M IMCTM S0FL05 TNTH  09020IMCT  S0 PTB  00004                    2230 SR        000000000000 DENSO TEN (THAILAND)190MRVU0010010                                                                                                                              *          20181026 IMCT                IMCT                                                                                                                    WMF1810265.TXT
MDDDJO334207201810                D89828070200PV4D20181031000060SPEAKER ASM                   M IMCTM S0FR05 TNTH  09020IMCT  S0 PTB  00005                    1300 SR        000000000000 DENSO TEN (THAILAND)190MRMU0008008                                                                                                                              *          20181026 IMCT                IMCT                                                                                                                    WMF1810265.TXT
MDDDJO334208201810                D89828070200PV4D20181031000060SPEAKER ASM                   M IMCTM S0FR05 TNTH  09020IMCT  S0 PTB  00005                    2230 SR        000000000000 DENSO TEN (THAILAND)190MRVU0010010                                                                                                                              *          20181026 IMCT                IMCT                                                                                                                    WMF1810265.TXT
MDDDJO334209201810                D89828070300PT1D20181031000060SPEAKER ASM                   M IMCTM S5NB082TNTH  09020IMCT  S5 PTB  00015                    1300 SR        000000000000 DENSO TEN (THAILAND)190MPGL0027027                                                                                                                              *          20181026 IMCT                IMCT                                                                                                                    WMF1810265.TXT
MDDDJO334210201810                D89828070300PT1D20181031000060SPEAKER ASM                   M IMCTM S5NB082TNTH  09020IMCT  S5 PTB  00015                    1600 SR        000000000000 DENSO TEN (THAILAND)190MPFL0006006                                                                                                                              *          20181026 IMCT                IMCT                                                                                                                    WMF1810265.TXT
MDDDJO334211201810                D89828070300PT1D20181031000060SPEAKER ASM                   M IMCTM S5NB082TNTH  09020IMCT  S5 PTB  00015                    2100 SR        000000000000 DENSO TEN (THAILAND)190MPFL0007007                                                                                                                              *          20181026 IMCT                IMCT                                                                                                                    WMF1810265.TXT
MDDDJO334212201810                D89828070300PT4D20181031000060SPEAKER ASM                   M IMCTM S9TS02 TNTH  09020IMCT  S9 PTB  00015                    1300 SR        000000000000 DENSO TEN (THAILAND)190MRMU0008008                                                                                                                              *          20181026 IMCT                IMCT                                                                                                                    WMF1810265.TXT
MDDDJO334213201810                D89828070300PT4D20181031000060SPEAKER ASM                   M IMCTM S9TS02 TNTH  09020IMCT  S9 PTB  00015                    2230 SR        000000000000 DENSO TEN (THAILAND)190MRVU0010010                                                                                                                              *          20181026 IMCT                IMCT                                                                                                                    WMF1810265.TXT
MDDDJO334214201810                D89831228300PT1D20181031000030RADIO;AM/FM,CD                M IMCTM S5NC06 TNTH  09020IMCT  S5 CPB  00003                    1300 SR        000000000000 DENSO TEN (THAILAND)190MPGL0027027                                                                                                                              *          20181026 IMCT                IMCT                                                                                                                    WMF1810265.TXT
MDDDJO334215201810                D89831228300PT1D20181031000030RADIO;AM/FM,CD                M IMCTM S5NC06 TNTH  09020IMCT  S5 CPB  00003                    1600 SR        000000000000 DENSO TEN (THAILAND)190MPFL0006006                                                                                                                              *          20181026 IMCT                IMCT                                                                                                                    WMF1810265.TXT
MDDDJO334216201810                D89831228300PT1D20181031000030RADIO;AM/FM,CD                M IMCTM S5NC06 TNTH  09020IMCT  S5 CPB  00003                    2100 SR        000000000000 DENSO TEN (THAILAND)190MPFL0007007                                                                                                                              *          20181026 IMCT                IMCT                                                                                                                    WMF1810265.TXT
MDDUJO241159201810                D89828070100PT4U20181031000030SPEAKER ASM                   M IMCTM S0FL05 TNTH  09020IMCT  S0 PTB  00004                    0400 SR        000000000000 DENSO TEN (THAILAND)180LUSU0196196                                                                                                                              *          20181026 IMCT                IMCT                                                                                                                    WMF1810265.TXT
MDDUJO241160201810                D89828070100PT4U20181031000030SPEAKER ASM                   M IMCTM S0FL05 TNTH  09020IMCT  S0 PTB  00004                    0830 SR        000000000000 DENSO TEN (THAILAND)180LUTU0129129                                                                                                                              *          20181026 IMCT                IMCT                                                                                                                    WMF1810265.TXT
MDDUJO241161201810                D89828070100PT4U20181031000030SPEAKER ASM                   M IMCTM S0FL05 TNTH  09020IMCT  S0 PTB  00004                    1300 SR        000000000000 DENSO TEN (THAILAND)180LUQU0081081                                                                                                                              *          20181026 IMCT                IMCT                                                                                                                    WMF1810265.TXT
MDDUJO241162201810                D89828070200PV4U20181031000030SPEAKER ASM                   M IMCTM S0FR05 TNTH  09020IMCT  S0 PTB  00005                    0400 SR        000000000000 DENSO TEN (THAILAND)180LUSU0196196                                                                                                                              *          20181026 IMCT                IMCT                                                                                                                    WMF1810265.TXT
MDDUJO241163201810                D89828070200PV4U20181031000030SPEAKER ASM                   M IMCTM S0FR05 TNTH  09020IMCT  S0 PTB  00005                    0830 SR        000000000000 DENSO TEN (THAILAND)180LUTU0129129                                                                                                                              *          20181026 IMCT                IMCT                                                                                                                    WMF1810265.TXT
MDDUJO241164201810                D89828070200PV4U20181031000030SPEAKER ASM                   M IMCTM S0FR05 TNTH  09020IMCT  S0 PTB  00005                    1300 SR        000000000000 DENSO TEN (THAILAND)180LUQU0081081                                                                                                                              *          20181026 IMCT                IMCT                                                                                                                    WMF1810265.TXT
MDDUJO241165201810                D89828070300PT4U20181031000030SPEAKER ASM                   M IMCTM S9TS02 TNTH  09020IMCT  S9 PTB  00015                    0400 SR        000000000000 DENSO TEN (THAILAND)180LUSU0196196                                                                                                                              *          20181026 IMCT                IMCT                                                                                                                    WMF1810265.TXT
MDDUJO241166201810                D89828070300PT4U20181031000030SPEAKER ASM                   M IMCTM S9TS02 TNTH  09020IMCT  S9 PTB  00015                    0830 SR        000000000000 DENSO TEN (THAILAND)180LUTU0129129                                                                                                                              *          20181026 IMCT                IMCT                                                                                                                    WMF1810265.TXT
MDDUJO241167201810                D89828070300PT4U20181031000030SPEAKER ASM                   M IMCTM S9TS02 TNTH  09020IMCT  S9 PTB  00015                    1300 SR        000000000000 DENSO TEN (THAILAND)180LUQU0081081                                                                                                                              *          20181026 IMCT                IMCT                                                                                                                    WMF1810265.TXT
MDDUJO241168201810                D89848584200PT4U20181031000015RADIO;AM/FM CD D              M IMCTM S9CO001TNTH  09020IMCT  S9 PTB  00003                    1300 SR        000000000000 DENSO TEN (THAILAND)180LUQU0081081                                                                                                                              *          20181026 IMCT                IMCT                                                                                                                    WMF1810265.TXT
MDEDJO326027201810                D89828070100PV1D20181030000060SPEAKER ASM                   M IMCTM S5MB11 TNTH  09020IMCT  S5 PTB  00004                    2230 SR        000000000000 DENSO TEN (THAILAND)18007YL0028029                                                                                                                              *          20181026 IMCT                IMCT                                                                                                                    WMF1810265.TXT
MDEDJO326028201810                D89828070100PV1D20181031000030SPEAKER ASM                   M IMCTM S5MB11 TNTH  09020IMCT  S5 PTB  00004                    0230 SR        000000000000 DENSO TEN (THAILAND)18082UL0079079                                                                                                                              *          20181026 IMCT                IMCT                                                                                                                    WMF1810265.TXT
MDEDJO326029201810                D89828070100PV1D20181031000030SPEAKER ASM                   M IMCTM S5MB11 TNTH  09020IMCT  S5 PTB  00004                    0400 SR        000000000000 DENSO TEN (THAILAND)18074UL0060060                                                                                                                              *          20181026 IMCT                IMCT                                                                                                                    WMF1810265.TXT
MDEDJO326030201810                D89828070100PV1D20181031000060SPEAKER ASM                   M IMCTM S5MB11 TNTH  09020IMCT  S5 PTB  00004                    0830 SR        000000000000 DENSO TEN (THAILAND)18001YL002302318074UL0061061                                                                                                                *          20181026 IMCT                IMCT                                                                                                                    WMF1810265.TXT
MDEDJO326031201810                D89828070100PV1D20181031000060SPEAKER ASM                   M IMCTM S5MB11 TNTH  09020IMCT  S5 PTB  00004                    1030 SR        000000000000 DENSO TEN (THAILAND)17001QL000100118001YL0024024                                                                                                                *          20181026 IMCT                IMCT                                                                                                                    WMF1810265.TXT
MDEDJO326032201810                D89828070100PV1D20181031000060SPEAKER ASM                   M IMCTM S5MB11 TNTH  09020IMCT  S5 PTB  00004                    1300 SR        000000000000 DENSO TEN (THAILAND)17012RL000200218082UL0080080                                                                                                                *          20181026 IMCT                IMCT                                                                                                                    WMF1810265.TXT
MDEDJO326033201810                D89828070100PV1D20181031000030SPEAKER ASM                   M IMCTM S5MB11 TNTH  09020IMCT  S5 PTB  00004                    1600 SR        000000000000 DENSO TEN (THAILAND)18082UL0081081                                                                                                                              *          20181026 IMCT                IMCT                                                                                                                    WMF1810265.TXT
MDEDJO326034201810                D89828070100PV4D20181031000030SPEAKER ASM                   M IMCTM S0FL05 TNTH  09020IMCT  S0 PTB  00004                    0400 SR        000000000000 DENSO TEN (THAILAND)18076UU0003003                                                                                                                              *          20181026 IMCT                IMCT                                                                                                                    WMF1810265.TXT
MDEDJO326035201810                D89828070100PV4D20181031000030SPEAKER ASM                   M IMCTM S0FL05 TNTH  09020IMCT  S0 PTB  00004                    1600 SR        000000000000 DENSO TEN (THAILAND)17001QU0002002                                                                                                                              *          20181026 IMCT                IMCT                                                                                                                    WMF1810265.TXT
MDEDJO326036201810                D89828070200PV1D20181030000060SPEAKER ASM                   M IMCTM S5MA14 TNTH  09020IMCT  S5 PTB  00005                    2230 SR        000000000000 DENSO TEN (THAILAND)18007YL0028029                                                                                                                              *          20181026 IMCT                IMCT                                                                                                                    WMF1810265.TXT
MDEDJO326037201810                D89828070200PV1D20181031000030SPEAKER ASM                   M IMCTM S5MA14 TNTH  09020IMCT  S5 PTB  00005                    0230 SR        000000000000 DENSO TEN (THAILAND)18082UL0079079                                                                                                                              *          20181026 IMCT                IMCT                                                                                                                    WMF1810265.TXT
MDEDJO326038201810                D89828070200PV1D20181031000030SPEAKER ASM                   M IMCTM S5MA14 TNTH  09020IMCT  S5 PTB  00005                    0830 SR        000000000000 DENSO TEN (THAILAND)18001YL0023023                                                                                                                              *          20181026 IMCT                IMCT                                                                                                                    WMF1810265.TXT
MDEDJO326039201810                D89828070200PV1D20181031000030SPEAKER ASM                   M IMCTM S5MA14 TNTH  09020IMCT  S5 PTB  00005                    1030 SR        000000000000 DENSO TEN (THAILAND)18001YL0024024                                                                                                                              *          20181026 IMCT                IMCT                                                                                                                    WMF1810265.TXT
MDEDJO326040201810                D89828070200PV1D20181031000030SPEAKER ASM                   M IMCTM S5MA14 TNTH  09020IMCT  S5 PTB  00005                    1300 SR        000000000000 DENSO TEN (THAILAND)18082UL0080080                                                                                                                              *          20181026 IMCT                IMCT                                                                                                                    WMF1810265.TXT
MDEDJO326041201810                D89828070200PV1D20181031000030SPEAKER ASM                   M IMCTM S5MA14 TNTH  09020IMCT  S5 PTB  00005                    1600 SR        000000000000 DENSO TEN (THAILAND)18082UL0081081                                                                                                                              *          20181026 IMCT                IMCT                                                                                                                    WMF1810265.TXT
MDEDJO326042201810                D89828070300PT1D20181030000060SPEAKER ASM                   M IMCTM S5NB082TNTH  09020IMCT  S5 PTB  00015                    2230 SR        000000000000 DENSO TEN (THAILAND)18007YL0028029                                                                                                                              *          20181026 IMCT                IMCT                                                                                                                    WMF1810265.TXT
MDEDJO326043201810                D89828070300PT1D20181031000030SPEAKER ASM                   M IMCTM S5NB082TNTH  09020IMCT  S5 PTB  00015                    0230 SR        000000000000 DENSO TEN (THAILAND)18082UL0079079                                                                                                                              *          20181026 IMCT                IMCT                                                                                                                    WMF1810265.TXT
MDEDJO326044201810                D89828070300PT1D20181031000030SPEAKER ASM                   M IMCTM S5NB082TNTH  09020IMCT  S5 PTB  00015                    0400 SR        000000000000 DENSO TEN (THAILAND)18074UL0060060                                                                                                                              *          20181026 IMCT                IMCT                                                                                                                    WMF1810265.TXT
MDEDJO326045201810                D89828070300PT1D20181031000060SPEAKER ASM                   M IMCTM S5NB082TNTH  09020IMCT  S5 PTB  00015                    0830 SR        000000000000 DENSO TEN (THAILAND)18001YL002302318074UL0061061                                                                                                                *          20181026 IMCT                IMCT                                                                                                                    WMF1810265.TXT
MDEDJO326046201810                D89828070300PT1D20181031000030SPEAKER ASM                   M IMCTM S5NB082TNTH  09020IMCT  S5 PTB  00015                    1030 SR        000000000000 DENSO TEN (THAILAND)18001YL0024024                                                                                                                              *          20181026 IMCT                IMCT                                                                                                                    WMF1810265.TXT
MDEDJO326047201810                D89828070300PT1D20181031000030SPEAKER ASM                   M IMCTM S5NB082TNTH  09020IMCT  S5 PTB  00015                    1300 SR        000000000000 DENSO TEN (THAILAND)18082UL0080080                                                                                                                              *          20181026 IMCT                IMCT                                                                                                                    WMF1810265.TXT
MDEDJO326048201810                D89828070300PT1D20181031000030SPEAKER ASM                   M IMCTM S5NB082TNTH  09020IMCT  S5 PTB  00015                    1600 SR        000000000000 DENSO TEN (THAILAND)18082UL0081081                                                                                                                              *          20181026 IMCT                IMCT                                                                                                                    WMF1810265.TXT
MDEDJO326049201810                D89828070300PT4D20181031000030SPEAKER ASM                   M IMCTM S9TS02 TNTH  09020IMCT  S9 PTB  00015                    0400 SR        000000000000 DENSO TEN (THAILAND)18076UU0003003                                                                                                                              *          20181026 IMCT                IMCT                                                                                                                    WMF1810265.TXT
MDEDJO326050201810                D89848581800PT1D20181031000015RADIO;AM/FM CD D              M IMCTM S5NC06 TNTH  09020IMCT  S5 PTB  00003                    0230 SR        000000000000 DENSO TEN (THAILAND)18082UL0079079                                                                                                                              *          20181026 IMCT                IMCT                                                                                                                    WMF1810265.TXT
MDEDJO326051201810                D89848581800PT1D20181031000015RADIO;AM/FM CD D              M IMCTM S5NC06 TNTH  09020IMCT  S5 PTB  00003                    1300 SR        000000000000 DENSO TEN (THAILAND)18082UL0080080                                                                                                                              *          20181026 IMCT                IMCT                                                                                                                    WMF1810265.TXT
MDEDJO326052201810                D89848581800PT1D20181031000015RADIO;AM/FM CD D              M IMCTM S5NC06 TNTH  09020IMCT  S5 PTB  00003                    1600 SR        000000000000 DENSO TEN (THAILAND)18082UL0081081                                                                                                                              *          20181026 IMCT                IMCT                                                                                                                    WMF1810265.TXT
MDEDJO326053201810                D89848582500PT1D20181031000015RADIO;AM/FM CD D              M IMCTM S5NC06 TNTH  09020IMCT  S5 PTB  00003                    0400 SR        000000000000 DENSO TEN (THAILAND)18074UL0060060                                                                                                                              *          20181026 IMCT                IMCT                                                                                                                    WMF1810265.TXT
MDEDJO326054201810                D89848582500PT1D20181031000015RADIO;AM/FM CD D              M IMCTM S5NC06 TNTH  09020IMCT  S5 PTB  00003                    0830 SR        000000000000 DENSO TEN (THAILAND)18074UL0061061                                                                                                                              *          20181026 IMCT                IMCT                                                                                                                    WMF1810265.TXT
MDEUJO252247201810                D89828070100PT4U20181031000030SPEAKER ASM                   M IMCTM S0FL05 TNTH  09020IMCT  S0 PTB  00004                    0230 SR        000000000000 DENSO TEN (THAILAND)18021UU0222222                                                                                                                              *          20181026 IMCT                IMCT                                                                                                                    WMF1810265.TXT
MDEUJO252248201810                D89828070100PT4U20181031000030SPEAKER ASM                   M IMCTM S0FL05 TNTH  09020IMCT  S0 PTB  00004                    2100 SR        000000000000 DENSO TEN (THAILAND)18020UU0141141                                                                                                                              *          20181026 IMCT                IMCT                                                                                                                    WMF1810265.TXT
MDEUJO252249201810                D89828070200PV4U20181031000030SPEAKER ASM                   M IMCTM S0FR05 TNTH  09020IMCT  S0 PTB  00005                    0230 SR        000000000000 DENSO TEN (THAILAND)18021UU0222222                                                                                                                              *          20181026 IMCT                IMCT                                                                                                                    WMF1810265.TXT
MDEUJO252250201810                D89828070200PV4U20181031000030SPEAKER ASM                   M IMCTM S0FR05 TNTH  09020IMCT  S0 PTB  00005                    2100 SR        000000000000 DENSO TEN (THAILAND)18020UU0141141                                                                                                                              *          20181026 IMCT                IMCT                                                                                                                    WMF1810265.TXT
MDEUJO252251201810                D89828070300PT4U20181031000030SPEAKER ASM                   M IMCTM S9TS02 TNTH  09020IMCT  S9 PTB  00015                    0230 SR        000000000000 DENSO TEN (THAILAND)18021UU0222222                                                                                                                              *          20181026 IMCT                IMCT                                                                                                                    WMF1810265.TXT
MDEUJO252252201810                D89828070300PT4U20181031000030SPEAKER ASM                   M IMCTM S9TS02 TNTH  09020IMCT  S9 PTB  00015                    2100 SR        000000000000 DENSO TEN (THAILAND)18020UU0141141                                                                                                                              *          20181026 IMCT                IMCT                                                                                                                    WMF1810265.TXT
