REC2018092820180928ISUZU                              28     
MDD6J9288946201810                D89828070100PV5620181003000060SPEAKER ASM                   M IMCTM G9B114 TNTH  09020G/WAY G9 PTB  00004                    1530 GW        0000000000005DENSO TEN (THAILAND)190MPCG0002002                                                                                                                              *          20180928 IMCT                IMCT                                                                                                                    WMF1809283.TXT
MDD6J9288947201810                D89828070100PV5620181003000060SPEAKER ASM                   M IMCTM G9B114 TNTH  09020G/WAY G9 PTB  00004                    2100 GW        0000000000005DENSO TEN (THAILAND)190MRTG0006006                                                                                                                              *          20180928 IMCT                IMCT                                                                                                                    WMF1809283.TXT
MDD6J9288948201810                D89828070100PV5620181003000120SPEAKER ASM                   M IMCTM G9B114 TNTH  09020G/WAY G9 PTB  00004                    2300 GW        0000000000005DENSO TEN (THAILAND)190MRRG0002002190MRVG0002002                                                                                                                *          20180928 IMCT                IMCT                                                                                                                    WMF1809283.TXT
MDD6J9288949201810                D89828070100PV5620181004000060SPEAKER ASM                   M IMCTM G9B114 TNTH  09020G/WAY G9 PTB  00004                    0330 GW        0000000000005DENSO TEN (THAILAND)190MPKG0001001                                                                                                                              *          20180928 IMCT                IMCT                                                                                                                    WMF1809283.TXT
MDD6J9288950201810                D89828070100PV5620181004000060SPEAKER ASM                   M IMCTM G9B114 TNTH  09020G/WAY G9 PTB  00004                    0900 GW        0000000000005DENSO TEN (THAILAND)190MRPG0001001                                                                                                                              *          20180928 IMCT                IMCT                                                                                                                    WMF1809283.TXT
MDD6J9288951201810                D89828070100PV5620181004000060SPEAKER ASM                   M IMCTM G9B114 TNTH  09020G/WAY G9 PTB  00004                    1100 GW        0000000000005DENSO TEN (THAILAND)190MRLG0001001                                                                                                                              *          20180928 IMCT                IMCT                                                                                                                    WMF1809283.TXT
MDD6J9288952201810                D89828070100PV5620181004000060SPEAKER ASM                   M IMCTM G9B114 TNTH  09020G/WAY G9 PTB  00004                    1400 GW        0000000000005DENSO TEN (THAILAND)190MRVG0003003                                                                                                                              *          20180928 IMCT                IMCT                                                                                                                    WMF1809283.TXT
MDD6J9288953201810                D89828070100PV5620181004000060SPEAKER ASM                   M IMCTM G9B114 TNTH  09020G/WAY G9 PTB  00004                    1530 GW        0000000000005DENSO TEN (THAILAND)190MPMG0001001                                                                                                                              *          20180928 IMCT                IMCT                                                                                                                    WMF1809283.TXT
MDD6J9288954201810                D89828070200PV5620181003000060SPEAKER ASM                   M IMCTM G9F132 TNTH  09020G/WAY G9 PTB  00005                    2100 GW        0000000000005DENSO TEN (THAILAND)190MRTG0006006                                                                                                                              *          20180928 IMCT                IMCT                                                                                                                    WMF1809283.TXT
MDD6J9288955201810                D89828070200PV5620181003000120SPEAKER ASM                   M IMCTM G9F132 TNTH  09020G/WAY G9 PTB  00005                    2300 GW        0000000000005DENSO TEN (THAILAND)190MRRG0002002190MRVG0002002                                                                                                                *          20180928 IMCT                IMCT                                                                                                                    WMF1809283.TXT
MDD6J9288956201810                D89828070200PV5620181004000060SPEAKER ASM                   M IMCTM G9F132 TNTH  09020G/WAY G9 PTB  00005                    0900 GW        0000000000005DENSO TEN (THAILAND)190MRPG0001001                                                                                                                              *          20180928 IMCT                IMCT                                                                                                                    WMF1809283.TXT
MDD6J9288957201810                D89828070200PV5620181004000060SPEAKER ASM                   M IMCTM G9F132 TNTH  09020G/WAY G9 PTB  00005                    1100 GW        0000000000005DENSO TEN (THAILAND)190MRLG0001001                                                                                                                              *          20180928 IMCT                IMCT                                                                                                                    WMF1809283.TXT
MDD6J9288958201810                D89828070200PV5620181004000060SPEAKER ASM                   M IMCTM G9F132 TNTH  09020G/WAY G9 PTB  00005                    1400 GW        0000000000005DENSO TEN (THAILAND)190MRVG0003003                                                                                                                              *          20180928 IMCT                IMCT                                                                                                                    WMF1809283.TXT
MDD6J9288959201810                D89828070300PT5620181003000060SPEAKER ASM                   M IMCTM G9JA33 TNTH  09020G/WAY G9 PTB  00015                    1530 GW        0000000000005DENSO TEN (THAILAND)190MPCG0002002                                                                                                                              *          20180928 IMCT                IMCT                                                                                                                    WMF1809283.TXT
MDD6J9288960201810                D89828070300PT5620181003000060SPEAKER ASM                   M IMCTM G9JA33 TNTH  09020G/WAY G9 PTB  00015                    2100 GW        0000000000005DENSO TEN (THAILAND)190MRTG0006006                                                                                                                              *          20180928 IMCT                IMCT                                                                                                                    WMF1809283.TXT
MDD6J9288961201810                D89828070300PT5620181003000120SPEAKER ASM                   M IMCTM G9JA33 TNTH  09020G/WAY G9 PTB  00015                    2300 GW        0000000000005DENSO TEN (THAILAND)190MRRG0002002190MRVG0002002                                                                                                                *          20180928 IMCT                IMCT                                                                                                                    WMF1809283.TXT
MDD6J9288962201810                D89828070300PT5620181004000060SPEAKER ASM                   M IMCTM G9JA33 TNTH  09020G/WAY G9 PTB  00015                    0330 GW        0000000000005DENSO TEN (THAILAND)190MPKG0001001                                                                                                                              *          20180928 IMCT                IMCT                                                                                                                    WMF1809283.TXT
MDD6J9288963201810                D89828070300PT5620181004000060SPEAKER ASM                   M IMCTM G9JA33 TNTH  09020G/WAY G9 PTB  00015                    0900 GW        0000000000005DENSO TEN (THAILAND)190MRPG0001001                                                                                                                              *          20180928 IMCT                IMCT                                                                                                                    WMF1809283.TXT
MDD6J9288964201810                D89828070300PT5620181004000060SPEAKER ASM                   M IMCTM G9JA33 TNTH  09020G/WAY G9 PTB  00015                    1100 GW        0000000000005DENSO TEN (THAILAND)190MRLG0001001                                                                                                                              *          20180928 IMCT                IMCT                                                                                                                    WMF1809283.TXT
MDD6J9288965201810                D89828070300PT5620181004000060SPEAKER ASM                   M IMCTM G9JA33 TNTH  09020G/WAY G9 PTB  00015                    1400 GW        0000000000005DENSO TEN (THAILAND)190MRVG0003003                                                                                                                              *          20180928 IMCT                IMCT                                                                                                                    WMF1809283.TXT
MDD6J9288966201810                D89828070300PT5620181004000060SPEAKER ASM                   M IMCTM G9JA33 TNTH  09020G/WAY G9 PTB  00015                    1530 GW        0000000000005DENSO TEN (THAILAND)190MPMG0001001                                                                                                                              *          20180928 IMCT                IMCT                                                                                                                    WMF1809283.TXT
MDD6J9288967201810                D89831228300PT5620181003000030RADIO;AM/FM,CD                M IMCTM G9J213 TNTH  09020G/WAY G9 CPB  00003                    1530 GW        0000000000005DENSO TEN (THAILAND)190MPCG0002002                                                                                                                              *          20180928 IMCT                IMCT                                                                                                                    WMF1809283.TXT
MDD6J9288968201810                D89848581500PT5620181003000030RADIO;AM/FM CD D              M IMCTM G9J213 TNTH  09020G/WAY G9 PTB  00003                    2100 GW        0000000000005DENSO TEN (THAILAND)190MRTG0006006                                                                                                                              *          20180928 IMCT                IMCT                                                                                                                    WMF1809283.TXT
MDD6J9288969201810                D89848581600PT5620181004000030RADIO;AM/FM CD D              M IMCTM G9J213 TNTH  09020G/WAY G9 PTB  00003                    0330 GW        0000000000005DENSO TEN (THAILAND)190MPKG0001001                                                                                                                              *          20180928 IMCT                IMCT                                                                                                                    WMF1809283.TXT
MDE6J9204690201810                D89828070100PV5620181004000060SPEAKER ASM                   M IMCTM G9B114 TNTH  09020G/WAY G9 PTB  00004                    0330 GW        0000000000005DENSO TEN (THAILAND)18079UG0012012                                                                                                                              *          20180928 IMCT                IMCT                                                                                                                    WMF1809283.TXT
MDE6J9204691201810                D89828070200PV5620181004000060SPEAKER ASM                   M IMCTM G9F132 TNTH  09020G/WAY G9 PTB  00005                    0330 GW        0000000000005DENSO TEN (THAILAND)18079UG0012012                                                                                                                              *          20180928 IMCT                IMCT                                                                                                                    WMF1809283.TXT
MDE6J9204692201810                D89828070300PT5620181004000060SPEAKER ASM                   M IMCTM G9JA33 TNTH  09020G/WAY G9 PTB  00015                    0330 GW        0000000000005DENSO TEN (THAILAND)18079UG0012012                                                                                                                              *          20180928 IMCT                IMCT                                                                                                                    WMF1809283.TXT
MDE6J9204693201810                D89848581800PT5620181004000030RADIO;AM/FM CD D              M IMCTM G9J213 TNTH  09020G/WAY G9 PTB  00003                    0330 GW        0000000000005DENSO TEN (THAILAND)18079UG0012012                                                                                                                              *          20180928 IMCT                IMCT                                                                                                                    WMF1809283.TXT
