REC2018100820181008ISUZU                              31     
MDD6JO229483201810                D89828070100PV5620181011000060SPEAKER ASM                   M IMCTM G9B114 TNTH  09020G/WAY G9 PTB  00004                    1530 GW        0000000000005DENSO TEN (THAILAND)190MRTG0013013                                                                                                                              *          20181008 IMCT                IMCT                                                                                                                    WMF1810082.TXT
MDD6JO229484201810                D89828070100PV5620181011000060SPEAKER ASM                   M IMCTM G9B114 TNTH  09020G/WAY G9 PTB  00004                    2100 GW        0000000000005DENSO TEN (THAILAND)190MPFG0003003                                                                                                                              *          20181008 IMCT                IMCT                                                                                                                    WMF1810082.TXT
MDD6JO229485201810                D89828070100PV5620181011000060SPEAKER ASM                   M IMCTM G9B114 TNTH  09020G/WAY G9 PTB  00004                    2300 GW        0000000000005DENSO TEN (THAILAND)190MRWG0005005                                                                                                                              *          20181008 IMCT                IMCT                                                                                                                    WMF1810082.TXT
MDD6JO229486201810                D89828070100PV5620181012000060SPEAKER ASM                   M IMCTM G9B114 TNTH  09020G/WAY G9 PTB  00004                    0200 GW        0000000000005DENSO TEN (THAILAND)190MRWG0006006                                                                                                                              *          20181008 IMCT                IMCT                                                                                                                    WMF1810082.TXT
MDD6JO229487201810                D89828070100PV5620181012000120SPEAKER ASM                   M IMCTM G9B114 TNTH  09020G/WAY G9 PTB  00004                    0330 GW        0000000000005DENSO TEN (THAILAND)190MRMG0005005190MRVG0009009                                                                                                                *          20181008 IMCT                IMCT                                                                                                                    WMF1810082.TXT
MDD6JO229488201810                D89828070100PV5620181012000060SPEAKER ASM                   M IMCTM G9B114 TNTH  09020G/WAY G9 PTB  00004                    0900 GW        0000000000005DENSO TEN (THAILAND)190MPHG0002002                                                                                                                              *          20181008 IMCT                IMCT                                                                                                                    WMF1810082.TXT
MDD6JO229489201810                D89828070100PV5620181012000060SPEAKER ASM                   M IMCTM G9B114 TNTH  09020G/WAY G9 PTB  00004                    1100 GW        0000000000005DENSO TEN (THAILAND)190MRDG0002002                                                                                                                              *          20181008 IMCT                IMCT                                                                                                                    WMF1810082.TXT
MDD6JO229490201810                D89828070100PV5620181012000060SPEAKER ASM                   M IMCTM G9B114 TNTH  09020G/WAY G9 PTB  00004                    1400 GW        0000000000005DENSO TEN (THAILAND)190MRCG0001001                                                                                                                              *          20181008 IMCT                IMCT                                                                                                                    WMF1810082.TXT
MDD6JO229491201810                D89828070100PV5620181012000060SPEAKER ASM                   M IMCTM G9B114 TNTH  09020G/WAY G9 PTB  00004                    1530 GW        0000000000005DENSO TEN (THAILAND)190MREG0008008                                                                                                                              *          20181008 IMCT                IMCT                                                                                                                    WMF1810082.TXT
MDD6JO229492201810                D89828070200PV5620181011000060SPEAKER ASM                   M IMCTM G9F132 TNTH  09020G/WAY G9 PTB  00005                    1530 GW        0000000000005DENSO TEN (THAILAND)190MRTG0013013                                                                                                                              *          20181008 IMCT                IMCT                                                                                                                    WMF1810082.TXT
MDD6JO229493201810                D89828070200PV5620181011000060SPEAKER ASM                   M IMCTM G9F132 TNTH  09020G/WAY G9 PTB  00005                    2300 GW        0000000000005DENSO TEN (THAILAND)190MRWG0005005                                                                                                                              *          20181008 IMCT                IMCT                                                                                                                    WMF1810082.TXT
MDD6JO229494201810                D89828070200PV5620181012000060SPEAKER ASM                   M IMCTM G9F132 TNTH  09020G/WAY G9 PTB  00005                    0200 GW        0000000000005DENSO TEN (THAILAND)190MRWG0006006                                                                                                                              *          20181008 IMCT                IMCT                                                                                                                    WMF1810082.TXT
MDD6JO229495201810                D89828070200PV5620181012000120SPEAKER ASM                   M IMCTM G9F132 TNTH  09020G/WAY G9 PTB  00005                    0330 GW        0000000000005DENSO TEN (THAILAND)190MRMG0005005190MRVG0009009                                                                                                                *          20181008 IMCT                IMCT                                                                                                                    WMF1810082.TXT
MDD6JO229496201810                D89828070200PV5620181012000060SPEAKER ASM                   M IMCTM G9F132 TNTH  09020G/WAY G9 PTB  00005                    1100 GW        0000000000005DENSO TEN (THAILAND)190MRDG0002002                                                                                                                              *          20181008 IMCT                IMCT                                                                                                                    WMF1810082.TXT
MDD6JO229497201810                D89828070200PV5620181012000060SPEAKER ASM                   M IMCTM G9F132 TNTH  09020G/WAY G9 PTB  00005                    1400 GW        0000000000005DENSO TEN (THAILAND)190MRCG0001001                                                                                                                              *          20181008 IMCT                IMCT                                                                                                                    WMF1810082.TXT
MDD6JO229498201810                D89828070200PV5620181012000060SPEAKER ASM                   M IMCTM G9F132 TNTH  09020G/WAY G9 PTB  00005                    1530 GW        0000000000005DENSO TEN (THAILAND)190MREG0008008                                                                                                                              *          20181008 IMCT                IMCT                                                                                                                    WMF1810082.TXT
MDD6JO229499201810                D89828070300PT5620181011000060SPEAKER ASM                   M IMCTM G9JA33 TNTH  09020G/WAY G9 PTB  00015                    1530 GW        0000000000005DENSO TEN (THAILAND)190MRTG0013013                                                                                                                              *          20181008 IMCT                IMCT                                                                                                                    WMF1810082.TXT
MDD6JO229500201810                D89828070300PT5620181011000060SPEAKER ASM                   M IMCTM G9JA33 TNTH  09020G/WAY G9 PTB  00015                    2100 GW        0000000000005DENSO TEN (THAILAND)190MPFG0003003                                                                                                                              *          20181008 IMCT                IMCT                                                                                                                    WMF1810082.TXT
MDD6JO229501201810                D89828070300PT5620181011000060SPEAKER ASM                   M IMCTM G9JA33 TNTH  09020G/WAY G9 PTB  00015                    2300 GW        0000000000005DENSO TEN (THAILAND)190MRWG0005005                                                                                                                              *          20181008 IMCT                IMCT                                                                                                                    WMF1810082.TXT
MDD6JO229502201810                D89828070300PT5620181012000060SPEAKER ASM                   M IMCTM G9JA33 TNTH  09020G/WAY G9 PTB  00015                    0200 GW        0000000000005DENSO TEN (THAILAND)190MRWG0006006                                                                                                                              *          20181008 IMCT                IMCT                                                                                                                    WMF1810082.TXT
MDD6JO229503201810                D89828070300PT5620181012000120SPEAKER ASM                   M IMCTM G9JA33 TNTH  09020G/WAY G9 PTB  00015                    0330 GW        0000000000005DENSO TEN (THAILAND)190MRMG0005005190MRVG0009009                                                                                                                *          20181008 IMCT                IMCT                                                                                                                    WMF1810082.TXT
MDD6JO229504201810                D89828070300PT5620181012000060SPEAKER ASM                   M IMCTM G9JA33 TNTH  09020G/WAY G9 PTB  00015                    0900 GW        0000000000005DENSO TEN (THAILAND)190MPHG0002002                                                                                                                              *          20181008 IMCT                IMCT                                                                                                                    WMF1810082.TXT
MDD6JO229505201810                D89828070300PT5620181012000060SPEAKER ASM                   M IMCTM G9JA33 TNTH  09020G/WAY G9 PTB  00015                    1100 GW        0000000000005DENSO TEN (THAILAND)190MRDG0002002                                                                                                                              *          20181008 IMCT                IMCT                                                                                                                    WMF1810082.TXT
MDD6JO229506201810                D89828070300PT5620181012000060SPEAKER ASM                   M IMCTM G9JA33 TNTH  09020G/WAY G9 PTB  00015                    1400 GW        0000000000005DENSO TEN (THAILAND)190MRCG0001001                                                                                                                              *          20181008 IMCT                IMCT                                                                                                                    WMF1810082.TXT
MDD6JO229507201810                D89828070300PT5620181012000060SPEAKER ASM                   M IMCTM G9JA33 TNTH  09020G/WAY G9 PTB  00015                    1530 GW        0000000000005DENSO TEN (THAILAND)190MREG0008008                                                                                                                              *          20181008 IMCT                IMCT                                                                                                                    WMF1810082.TXT
MDD6JO229508201810                D89831228300PT5620181011000030RADIO;AM/FM,CD                M IMCTM G9J213 TNTH  09020G/WAY G9 CPB  00003                    2100 GW        0000000000005DENSO TEN (THAILAND)190MPFG0003003                                                                                                                              *          20181008 IMCT                IMCT                                                                                                                    WMF1810082.TXT
MDD6JO229509201810                D89831228300PT5620181012000030RADIO;AM/FM,CD                M IMCTM G9J213 TNTH  09020G/WAY G9 CPB  00003                    0900 GW        0000000000005DENSO TEN (THAILAND)190MPHG0002002                                                                                                                              *          20181008 IMCT                IMCT                                                                                                                    WMF1810082.TXT
MDD6JO229510201810                D89831228400PT5620181012000030RADIO;AM/FM,CD                M IMCTM G9J213 TNTH  09020G/WAY G9 CPB  00003                    1100 GW        0000000000005DENSO TEN (THAILAND)190MRDG0002002                                                                                                                              *          20181008 IMCT                IMCT                                                                                                                    WMF1810082.TXT
MDD6JO229511201810                D89831228400PT5620181012000030RADIO;AM/FM,CD                M IMCTM G9J213 TNTH  09020G/WAY G9 CPB  00003                    1400 GW        0000000000005DENSO TEN (THAILAND)190MRCG0001001                                                                                                                              *          20181008 IMCT                IMCT                                                                                                                    WMF1810082.TXT
MDD6JO229512201810                D89831228400PT5620181012000030RADIO;AM/FM,CD                M IMCTM G9J213 TNTH  09020G/WAY G9 CPB  00003                    1530 GW        0000000000005DENSO TEN (THAILAND)190MREG0008008                                                                                                                              *          20181008 IMCT                IMCT                                                                                                                    WMF1810082.TXT
MDD6JO229513201810                D89848581500PT5620181011000030RADIO;AM/FM CD D              M IMCTM G9J213 TNTH  09020G/WAY G9 PTB  00003                    1530 GW        0000000000005DENSO TEN (THAILAND)190MRTG0013013                                                                                                                              *          20181008 IMCT                IMCT                                                                                                                    WMF1810082.TXT
