REC2018100120181001ISUZU                              31     
MDD6JO203116201810                D89828070100PV5620181004000060SPEAKER ASM                   M IMCTM G9B114 TNTH  09020G/WAY G9 PTB  00004                    1530 GW        0000000000005DENSO TEN (THAILAND)190MRTG0007007                                                                                                                              *          20181001 IMCT                IMCT                                                                                                                    WMF1810012.TXT
MDD6JO203117201810                D89828070100PV5620181004000060SPEAKER ASM                   M IMCTM G9B114 TNTH  09020G/WAY G9 PTB  00004                    2100 GW        0000000000005DENSO TEN (THAILAND)190MRVG0004004                                                                                                                              *          20181001 IMCT                IMCT                                                                                                                    WMF1810012.TXT
MDD6JO203118201810                D89828070100PV5620181005000060SPEAKER ASM                   M IMCTM G9B114 TNTH  09020G/WAY G9 PTB  00004                    0200 GW        0000000000005DENSO TEN (THAILAND)190MRVG0005005                                                                                                                              *          20181001 IMCT                IMCT                                                                                                                    WMF1810012.TXT
MDD6JO203119201810                D89828070100PV5620181005000060SPEAKER ASM                   M IMCTM G9B114 TNTH  09020G/WAY G9 PTB  00004                    0330 GW        0000000000005DENSO TEN (THAILAND)190MRKG0001001                                                                                                                              *          20181001 IMCT                IMCT                                                                                                                    WMF1810012.TXT
MDD6JO203120201810                D89828070100PV5620181005000060SPEAKER ASM                   M IMCTM G9B114 TNTH  09020G/WAY G9 PTB  00004                    0900 GW        0000000000005DENSO TEN (THAILAND)190MRGG0002002                                                                                                                              *          20181001 IMCT                IMCT                                                                                                                    WMF1810012.TXT
MDD6JO203121201810                D89828070100PV5620181005000060SPEAKER ASM                   M IMCTM G9B114 TNTH  09020G/WAY G9 PTB  00004                    1100 GW        0000000000005DENSO TEN (THAILAND)190MREG0005005                                                                                                                              *          20181001 IMCT                IMCT                                                                                                                    WMF1810012.TXT
MDD6JO203122201810                D89828070100PV5620181005000060SPEAKER ASM                   M IMCTM G9B114 TNTH  09020G/WAY G9 PTB  00004                    1400 GW        0000000000005DENSO TEN (THAILAND)190MPFG0001001                                                                                                                              *          20181001 IMCT                IMCT                                                                                                                    WMF1810012.TXT
MDD6JO203123201810                D89828070100PV5620181005000060SPEAKER ASM                   M IMCTM G9B114 TNTH  09020G/WAY G9 PTB  00004                    1530 GW        0000000000005DENSO TEN (THAILAND)190MRNG0002002                                                                                                                              *          20181001 IMCT                IMCT                                                                                                                    WMF1810012.TXT
MDD6JO203124201810                D89828070200PV5620181004000060SPEAKER ASM                   M IMCTM G9F132 TNTH  09020G/WAY G9 PTB  00005                    1530 GW        0000000000005DENSO TEN (THAILAND)190MRTG0007007                                                                                                                              *          20181001 IMCT                IMCT                                                                                                                    WMF1810012.TXT
MDD6JO203125201810                D89828070200PV5620181004000060SPEAKER ASM                   M IMCTM G9F132 TNTH  09020G/WAY G9 PTB  00005                    2100 GW        0000000000005DENSO TEN (THAILAND)190MRVG0004004                                                                                                                              *          20181001 IMCT                IMCT                                                                                                                    WMF1810012.TXT
MDD6JO203126201810                D89828070200PV5620181005000060SPEAKER ASM                   M IMCTM G9F132 TNTH  09020G/WAY G9 PTB  00005                    0200 GW        0000000000005DENSO TEN (THAILAND)190MRVG0005005                                                                                                                              *          20181001 IMCT                IMCT                                                                                                                    WMF1810012.TXT
MDD6JO203127201810                D89828070200PV5620181005000060SPEAKER ASM                   M IMCTM G9F132 TNTH  09020G/WAY G9 PTB  00005                    0330 GW        0000000000005DENSO TEN (THAILAND)190MRKG0001001                                                                                                                              *          20181001 IMCT                IMCT                                                                                                                    WMF1810012.TXT
MDD6JO203128201810                D89828070200PV5620181005000060SPEAKER ASM                   M IMCTM G9F132 TNTH  09020G/WAY G9 PTB  00005                    0900 GW        0000000000005DENSO TEN (THAILAND)190MRGG0002002                                                                                                                              *          20181001 IMCT                IMCT                                                                                                                    WMF1810012.TXT
MDD6JO203129201810                D89828070200PV5620181005000060SPEAKER ASM                   M IMCTM G9F132 TNTH  09020G/WAY G9 PTB  00005                    1100 GW        0000000000005DENSO TEN (THAILAND)190MREG0005005                                                                                                                              *          20181001 IMCT                IMCT                                                                                                                    WMF1810012.TXT
MDD6JO203130201810                D89828070200PV5620181005000060SPEAKER ASM                   M IMCTM G9F132 TNTH  09020G/WAY G9 PTB  00005                    1530 GW        0000000000005DENSO TEN (THAILAND)190MRNG0002002                                                                                                                              *          20181001 IMCT                IMCT                                                                                                                    WMF1810012.TXT
MDD6JO203131201810                D89828070300PT5620181004000060SPEAKER ASM                   M IMCTM G9JA33 TNTH  09020G/WAY G9 PTB  00015                    1530 GW        0000000000005DENSO TEN (THAILAND)190MRTG0007007                                                                                                                              *          20181001 IMCT                IMCT                                                                                                                    WMF1810012.TXT
MDD6JO203132201810                D89828070300PT5620181004000060SPEAKER ASM                   M IMCTM G9JA33 TNTH  09020G/WAY G9 PTB  00015                    2100 GW        0000000000005DENSO TEN (THAILAND)190MRVG0004004                                                                                                                              *          20181001 IMCT                IMCT                                                                                                                    WMF1810012.TXT
MDD6JO203133201810                D89828070300PT5620181005000060SPEAKER ASM                   M IMCTM G9JA33 TNTH  09020G/WAY G9 PTB  00015                    0200 GW        0000000000005DENSO TEN (THAILAND)190MRVG0005005                                                                                                                              *          20181001 IMCT                IMCT                                                                                                                    WMF1810012.TXT
MDD6JO203134201810                D89828070300PT5620181005000060SPEAKER ASM                   M IMCTM G9JA33 TNTH  09020G/WAY G9 PTB  00015                    0330 GW        0000000000005DENSO TEN (THAILAND)190MRKG0001001                                                                                                                              *          20181001 IMCT                IMCT                                                                                                                    WMF1810012.TXT
MDD6JO203135201810                D89828070300PT5620181005000060SPEAKER ASM                   M IMCTM G9JA33 TNTH  09020G/WAY G9 PTB  00015                    0900 GW        0000000000005DENSO TEN (THAILAND)190MRGG0002002                                                                                                                              *          20181001 IMCT                IMCT                                                                                                                    WMF1810012.TXT
MDD6JO203136201810                D89828070300PT5620181005000060SPEAKER ASM                   M IMCTM G9JA33 TNTH  09020G/WAY G9 PTB  00015                    1100 GW        0000000000005DENSO TEN (THAILAND)190MREG0005005                                                                                                                              *          20181001 IMCT                IMCT                                                                                                                    WMF1810012.TXT
MDD6JO203137201810                D89828070300PT5620181005000060SPEAKER ASM                   M IMCTM G9JA33 TNTH  09020G/WAY G9 PTB  00015                    1400 GW        0000000000005DENSO TEN (THAILAND)190MPFG0001001                                                                                                                              *          20181001 IMCT                IMCT                                                                                                                    WMF1810012.TXT
MDD6JO203138201810                D89828070300PT5620181005000060SPEAKER ASM                   M IMCTM G9JA33 TNTH  09020G/WAY G9 PTB  00015                    1530 GW        0000000000005DENSO TEN (THAILAND)190MRNG0002002                                                                                                                              *          20181001 IMCT                IMCT                                                                                                                    WMF1810012.TXT
MDD6JO203139201810                D89831228300PT5620181005000030RADIO;AM/FM,CD                M IMCTM G9J213 TNTH  09020G/WAY G9 CPB  00003                    1400 GW        0000000000005DENSO TEN (THAILAND)190MPFG0001001                                                                                                                              *          20181001 IMCT                IMCT                                                                                                                    WMF1810012.TXT
MDD6JO203140201810                D89831228400PT5620181005000030RADIO;AM/FM,CD                M IMCTM G9J213 TNTH  09020G/WAY G9 CPB  00003                    0900 GW        0000000000005DENSO TEN (THAILAND)190MRGG0002002                                                                                                                              *          20181001 IMCT                IMCT                                                                                                                    WMF1810012.TXT
MDD6JO203141201810                D89831228400PT5620181005000030RADIO;AM/FM,CD                M IMCTM G9J213 TNTH  09020G/WAY G9 CPB  00003                    1100 GW        0000000000005DENSO TEN (THAILAND)190MREG0005005                                                                                                                              *          20181001 IMCT                IMCT                                                                                                                    WMF1810012.TXT
MDD6JO203142201810                D89848581500PT5620181004000030RADIO;AM/FM CD D              M IMCTM G9J213 TNTH  09020G/WAY G9 PTB  00003                    1530 GW        0000000000005DENSO TEN (THAILAND)190MRTG0007007                                                                                                                              *          20181001 IMCT                IMCT                                                                                                                    WMF1810012.TXT
MDD6JO203143201810                D89848581500PT5620181005000030RADIO;AM/FM CD D              M IMCTM G9J213 TNTH  09020G/WAY G9 PTB  00003                    0330 GW        0000000000005DENSO TEN (THAILAND)190MRKG0001001                                                                                                                              *          20181001 IMCT                IMCT                                                                                                                    WMF1810012.TXT
MDE6JO200361201810                D89828070100PV5620181004000060SPEAKER ASM                   M IMCTM G9B114 TNTH  09020G/WAY G9 PTB  00004                    2300 GW        0000000000005DENSO TEN (THAILAND)18073UG0018018                                                                                                                              *          20181001 IMCT                IMCT                                                                                                                    WMF1810012.TXT
MDE6JO200362201810                D89828070300PT5620181004000060SPEAKER ASM                   M IMCTM G9JA33 TNTH  09020G/WAY G9 PTB  00015                    2300 GW        0000000000005DENSO TEN (THAILAND)18073UG0018018                                                                                                                              *          20181001 IMCT                IMCT                                                                                                                    WMF1810012.TXT
MDE6JO200363201810                D89848582500PT5620181004000030RADIO;AM/FM CD D              M IMCTM G9J213 TNTH  09020G/WAY G9 PTB  00003                    2300 GW        0000000000005DENSO TEN (THAILAND)18073UG0018018                                                                                                                              *          20181001 IMCT                IMCT                                                                                                                    WMF1810012.TXT
