REC2018100620181006ISUZU                              31     
MDD6JO224838201810                D89828070100PV5620181010000060SPEAKER ASM                   M IMCTM G9B114 TNTH  09020G/WAY G9 PTB  00004                    1530 GW        0000000000005DENSO TEN (THAILAND)190MRTG0012012                                                                                                                              *          20181006 IMCT                IMCT                                                                                                                    WMF1810062.TXT
MDD6JO224839201810                D89828070100PV5620181010000060SPEAKER ASM                   M IMCTM G9B114 TNTH  09020G/WAY G9 PTB  00004                    2100 GW        0000000000005DENSO TEN (THAILAND)190MPFG0002002                                                                                                                              *          20181006 IMCT                IMCT                                                                                                                    WMF1810062.TXT
MDD6JO224840201810                D89828070100PV5620181011000060SPEAKER ASM                   M IMCTM G9B114 TNTH  09020G/WAY G9 PTB  00004                    0200 GW        0000000000005DENSO TEN (THAILAND)190MRVG0008008                                                                                                                              *          20181006 IMCT                IMCT                                                                                                                    WMF1810062.TXT
MDD6JO224841201810                D89828070100PV5620181011000060SPEAKER ASM                   M IMCTM G9B114 TNTH  09020G/WAY G9 PTB  00004                    0330 GW        0000000000005DENSO TEN (THAILAND)190MRRG0004004                                                                                                                              *          20181006 IMCT                IMCT                                                                                                                    WMF1810062.TXT
MDD6JO224842201810                D89828070100PV5620181011000060SPEAKER ASM                   M IMCTM G9B114 TNTH  09020G/WAY G9 PTB  00004                    0900 GW        0000000000005DENSO TEN (THAILAND)190MRFG0002002                                                                                                                              *          20181006 IMCT                IMCT                                                                                                                    WMF1810062.TXT
MDD6JO224843201810                D89828070100PV5620181011000060SPEAKER ASM                   M IMCTM G9B114 TNTH  09020G/WAY G9 PTB  00004                    1100 GW        0000000000005DENSO TEN (THAILAND)190MPKG0002002                                                                                                                              *          20181006 IMCT                IMCT                                                                                                                    WMF1810062.TXT
MDD6JO224844201810                D89828070100PV5620181011000060SPEAKER ASM                   M IMCTM G9B114 TNTH  09020G/WAY G9 PTB  00004                    1400 GW        0000000000005DENSO TEN (THAILAND)190MRNG0003003                                                                                                                              *          20181006 IMCT                IMCT                                                                                                                    WMF1810062.TXT
MDD6JO224845201810                D89828070100PV5620181011000060SPEAKER ASM                   M IMCTM G9B114 TNTH  09020G/WAY G9 PTB  00004                    1530 GW        0000000000005DENSO TEN (THAILAND)190MRFG0003003                                                                                                                              *          20181006 IMCT                IMCT                                                                                                                    WMF1810062.TXT
MDD6JO224846201810                D89828070200PV5620181010000060SPEAKER ASM                   M IMCTM G9F132 TNTH  09020G/WAY G9 PTB  00005                    1530 GW        0000000000005DENSO TEN (THAILAND)190MRTG0012012                                                                                                                              *          20181006 IMCT                IMCT                                                                                                                    WMF1810062.TXT
MDD6JO224847201810                D89828070200PV5620181011000060SPEAKER ASM                   M IMCTM G9F132 TNTH  09020G/WAY G9 PTB  00005                    0200 GW        0000000000005DENSO TEN (THAILAND)190MRVG0008008                                                                                                                              *          20181006 IMCT                IMCT                                                                                                                    WMF1810062.TXT
MDD6JO224848201810                D89828070200PV5620181011000060SPEAKER ASM                   M IMCTM G9F132 TNTH  09020G/WAY G9 PTB  00005                    0330 GW        0000000000005DENSO TEN (THAILAND)190MRRG0004004                                                                                                                              *          20181006 IMCT                IMCT                                                                                                                    WMF1810062.TXT
MDD6JO224849201810                D89828070200PV5620181011000060SPEAKER ASM                   M IMCTM G9F132 TNTH  09020G/WAY G9 PTB  00005                    0900 GW        0000000000005DENSO TEN (THAILAND)190MRFG0002002                                                                                                                              *          20181006 IMCT                IMCT                                                                                                                    WMF1810062.TXT
MDD6JO224850201810                D89828070200PV5620181011000060SPEAKER ASM                   M IMCTM G9F132 TNTH  09020G/WAY G9 PTB  00005                    1400 GW        0000000000005DENSO TEN (THAILAND)190MRNG0003003                                                                                                                              *          20181006 IMCT                IMCT                                                                                                                    WMF1810062.TXT
MDD6JO224851201810                D89828070200PV5620181011000060SPEAKER ASM                   M IMCTM G9F132 TNTH  09020G/WAY G9 PTB  00005                    1530 GW        0000000000005DENSO TEN (THAILAND)190MRFG0003003                                                                                                                              *          20181006 IMCT                IMCT                                                                                                                    WMF1810062.TXT
MDD6JO224852201810                D89828070300PT5620181010000060SPEAKER ASM                   M IMCTM G9JA33 TNTH  09020G/WAY G9 PTB  00015                    1530 GW        0000000000005DENSO TEN (THAILAND)190MRTG0012012                                                                                                                              *          20181006 IMCT                IMCT                                                                                                                    WMF1810062.TXT
MDD6JO224853201810                D89828070300PT5620181010000060SPEAKER ASM                   M IMCTM G9JA33 TNTH  09020G/WAY G9 PTB  00015                    2100 GW        0000000000005DENSO TEN (THAILAND)190MPFG0002002                                                                                                                              *          20181006 IMCT                IMCT                                                                                                                    WMF1810062.TXT
MDD6JO224854201810                D89828070300PT5620181011000060SPEAKER ASM                   M IMCTM G9JA33 TNTH  09020G/WAY G9 PTB  00015                    0200 GW        0000000000005DENSO TEN (THAILAND)190MRVG0008008                                                                                                                              *          20181006 IMCT                IMCT                                                                                                                    WMF1810062.TXT
MDD6JO224855201810                D89828070300PT5620181011000060SPEAKER ASM                   M IMCTM G9JA33 TNTH  09020G/WAY G9 PTB  00015                    0330 GW        0000000000005DENSO TEN (THAILAND)190MRRG0004004                                                                                                                              *          20181006 IMCT                IMCT                                                                                                                    WMF1810062.TXT
MDD6JO224856201810                D89828070300PT5620181011000060SPEAKER ASM                   M IMCTM G9JA33 TNTH  09020G/WAY G9 PTB  00015                    0900 GW        0000000000005DENSO TEN (THAILAND)190MRFG0002002                                                                                                                              *          20181006 IMCT                IMCT                                                                                                                    WMF1810062.TXT
MDD6JO224857201810                D89828070300PT5620181011000060SPEAKER ASM                   M IMCTM G9JA33 TNTH  09020G/WAY G9 PTB  00015                    1100 GW        0000000000005DENSO TEN (THAILAND)190MPKG0002002                                                                                                                              *          20181006 IMCT                IMCT                                                                                                                    WMF1810062.TXT
MDD6JO224858201810                D89828070300PT5620181011000060SPEAKER ASM                   M IMCTM G9JA33 TNTH  09020G/WAY G9 PTB  00015                    1400 GW        0000000000005DENSO TEN (THAILAND)190MRNG0003003                                                                                                                              *          20181006 IMCT                IMCT                                                                                                                    WMF1810062.TXT
MDD6JO224859201810                D89828070300PT5620181011000060SPEAKER ASM                   M IMCTM G9JA33 TNTH  09020G/WAY G9 PTB  00015                    1530 GW        0000000000005DENSO TEN (THAILAND)190MRFG0003003                                                                                                                              *          20181006 IMCT                IMCT                                                                                                                    WMF1810062.TXT
MDD6JO224860201810                D89831228300PT5620181010000030RADIO;AM/FM,CD                M IMCTM G9J213 TNTH  09020G/WAY G9 CPB  00003                    2100 GW        0000000000005DENSO TEN (THAILAND)190MPFG0002002                                                                                                                              *          20181006 IMCT                IMCT                                                                                                                    WMF1810062.TXT
MDD6JO224861201810                D89831228400PT5620181011000030RADIO;AM/FM,CD                M IMCTM G9J213 TNTH  09020G/WAY G9 CPB  00003                    0900 GW        0000000000005DENSO TEN (THAILAND)190MRFG0002002                                                                                                                              *          20181006 IMCT                IMCT                                                                                                                    WMF1810062.TXT
MDD6JO224862201810                D89831228400PT5620181011000030RADIO;AM/FM,CD                M IMCTM G9J213 TNTH  09020G/WAY G9 CPB  00003                    1530 GW        0000000000005DENSO TEN (THAILAND)190MRFG0003003                                                                                                                              *          20181006 IMCT                IMCT                                                                                                                    WMF1810062.TXT
MDD6JO224863201810                D89848581500PT5620181010000030RADIO;AM/FM CD D              M IMCTM G9J213 TNTH  09020G/WAY G9 PTB  00003                    1530 GW        0000000000005DENSO TEN (THAILAND)190MRTG0012012                                                                                                                              *          20181006 IMCT                IMCT                                                                                                                    WMF1810062.TXT
MDD6JO224864201810                D89848581600PT5620181011000030RADIO;AM/FM CD D              M IMCTM G9J213 TNTH  09020G/WAY G9 PTB  00003                    1100 GW        0000000000005DENSO TEN (THAILAND)190MPKG0002002                                                                                                                              *          20181006 IMCT                IMCT                                                                                                                    WMF1810062.TXT
MDE6JO201673201810                D89828070100PV5620181010000060SPEAKER ASM                   M IMCTM G9B114 TNTH  09020G/WAY G9 PTB  00004                    2300 GW        0000000000005DENSO TEN (THAILAND)18077UG0011011                                                                                                                              *          20181006 IMCT                IMCT                                                                                                                    WMF1810062.TXT
MDE6JO201674201810                D89828070200PV5620181010000060SPEAKER ASM                   M IMCTM G9F132 TNTH  09020G/WAY G9 PTB  00005                    2300 GW        0000000000005DENSO TEN (THAILAND)18077UG0011011                                                                                                                              *          20181006 IMCT                IMCT                                                                                                                    WMF1810062.TXT
MDE6JO201675201810                D89828070300PT5620181010000060SPEAKER ASM                   M IMCTM G9JA33 TNTH  09020G/WAY G9 PTB  00015                    2300 GW        0000000000005DENSO TEN (THAILAND)18077UG0011011                                                                                                                              *          20181006 IMCT                IMCT                                                                                                                    WMF1810062.TXT
MDE6JO201676201810                D89848581800PT5620181010000030RADIO;AM/FM CD D              M IMCTM G9J213 TNTH  09020G/WAY G9 PTB  00003                    2300 GW        0000000000005DENSO TEN (THAILAND)18077UG0011011                                                                                                                              *          20181006 IMCT                IMCT                                                                                                                    WMF1810062.TXT
