REC2018101720181017ISUZU                              77     
MDDDJO303667201810                D89821984430PT1D20181024000030RADIO;AM/FM,CD                M IMCTM S5NC06 TNTH  09020IMCT  S5 PTB  00005                    2230 SR        000000000000 DENSO TEN (THAILAND)190MYAL0026026                                                                                                                              *          20181017 IMCT                IMCT                                                                                                                    WMF1810175.TXT
MDDDJO303668201810                D89821984430PT1D20181025000030RADIO;AM/FM,CD                M IMCTM S5NC06 TNTH  09020IMCT  S5 PTB  00005                    0230 SR        000000000000 DENSO TEN (THAILAND)190MNGL0011011                                                                                                                              *          20181017 IMCT                IMCT                                                                                                                    WMF1810175.TXT
MDDDJO303669201810                D89821984430PT1D20181025000060RADIO;AM/FM,CD                M IMCTM S5NC06 TNTH  09020IMCT  S5 PTB  00005                    1600 SR        000000000000 DENSO TEN (THAILAND)190MRBL0005005190MXCL0005005                                                                                                                *          20181017 IMCT                IMCT                                                                                                                    WMF1810175.TXT
MDDDJO303670201810                D89828070100PV1D20181024000060SPEAKER ASM                   M IMCTM S5MB11 TNTH  09020IMCT  S5 PTB  00004                    2230 SR        000000000000 DENSO TEN (THAILAND)190MYAL0026026                                                                                                                              *          20181017 IMCT                IMCT                                                                                                                    WMF1810175.TXT
MDDDJO303671201810                D89828070100PV1D20181025000060SPEAKER ASM                   M IMCTM S5MB11 TNTH  09020IMCT  S5 PTB  00004                    0230 SR        000000000000 DENSO TEN (THAILAND)190MNGL0011011                                                                                                                              *          20181017 IMCT                IMCT                                                                                                                    WMF1810175.TXT
MDDDJO303672201810                D89828070100PV1D20181025000060SPEAKER ASM                   M IMCTM S5MB11 TNTH  09020IMCT  S5 PTB  00004                    0830 SR        000000000000 DENSO TEN (THAILAND)190MPDL0003003                                                                                                                              *          20181017 IMCT                IMCT                                                                                                                    WMF1810175.TXT
MDDDJO303673201810                D89828070100PV1D20181025000060SPEAKER ASM                   M IMCTM S5MB11 TNTH  09020IMCT  S5 PTB  00004                    1030 SR        000000000000 DENSO TEN (THAILAND)190MPGL0024024                                                                                                                              *          20181017 IMCT                IMCT                                                                                                                    WMF1810175.TXT
MDDDJO303674201810                D89828070100PV1D20181025000120SPEAKER ASM                   M IMCTM S5MB11 TNTH  09020IMCT  S5 PTB  00004                    1600 SR        000000000000 DENSO TEN (THAILAND)190MRBL0005005190MXCL0005005                                                                                                                *          20181017 IMCT                IMCT                                                                                                                    WMF1810175.TXT
MDDDJO303675201810                D89828070100PV4D20181025000060SPEAKER ASM                   M IMCTM S0FL05 TNTH  09020IMCT  S0 PTB  00004                    0400 SR        000000000000 DENSO TEN (THAILAND)190MRHU0008008                                                                                                                              *          20181017 IMCT                IMCT                                                                                                                    WMF1810175.TXT
MDDDJO303676201810                D89828070100PV4D20181025000060SPEAKER ASM                   M IMCTM S0FL05 TNTH  09020IMCT  S0 PTB  00004                    1300 SR        000000000000 DENSO TEN (THAILAND)190MRSU0015015                                                                                                                              *          20181017 IMCT                IMCT                                                                                                                    WMF1810175.TXT
MDDDJO303677201810                D89828070100PV4D20181025000060SPEAKER ASM                   M IMCTM S0FL05 TNTH  09020IMCT  S0 PTB  00004                    1600 SR        000000000000 DENSO TEN (THAILAND)190MRWU0012012                                                                                                                              *          20181017 IMCT                IMCT                                                                                                                    WMF1810175.TXT
MDDDJO303678201810                D89828070200PV4D20181025000060SPEAKER ASM                   M IMCTM S0FR05 TNTH  09020IMCT  S0 PTB  00005                    0400 SR        000000000000 DENSO TEN (THAILAND)190MRHU0008008                                                                                                                              *          20181017 IMCT                IMCT                                                                                                                    WMF1810175.TXT
MDDDJO303679201810                D89828070200PV4D20181025000060SPEAKER ASM                   M IMCTM S0FR05 TNTH  09020IMCT  S0 PTB  00005                    1300 SR        000000000000 DENSO TEN (THAILAND)190MRSU0015015                                                                                                                              *          20181017 IMCT                IMCT                                                                                                                    WMF1810175.TXT
MDDDJO303680201810                D89828070200PV4D20181025000060SPEAKER ASM                   M IMCTM S0FR05 TNTH  09020IMCT  S0 PTB  00005                    1600 SR        000000000000 DENSO TEN (THAILAND)190MRWU0012012                                                                                                                              *          20181017 IMCT                IMCT                                                                                                                    WMF1810175.TXT
MDDDJO303681201810                D89828070300PT1D20181025000060SPEAKER ASM                   M IMCTM S5NB082TNTH  09020IMCT  S5 PTB  00015                    0830 SR        000000000000 DENSO TEN (THAILAND)190MPDL0003003                                                                                                                              *          20181017 IMCT                IMCT                                                                                                                    WMF1810175.TXT
MDDDJO303682201810                D89828070300PT1D20181025000060SPEAKER ASM                   M IMCTM S5NB082TNTH  09020IMCT  S5 PTB  00015                    1030 SR        000000000000 DENSO TEN (THAILAND)190MPGL0024024                                                                                                                              *          20181017 IMCT                IMCT                                                                                                                    WMF1810175.TXT
MDDDJO303683201810                D89828070300PT4D20181025000060SPEAKER ASM                   M IMCTM S9TS02 TNTH  09020IMCT  S9 PTB  00015                    0400 SR        000000000000 DENSO TEN (THAILAND)190MRHU0008008                                                                                                                              *          20181017 IMCT                IMCT                                                                                                                    WMF1810175.TXT
MDDDJO303684201810                D89828070300PT4D20181025000060SPEAKER ASM                   M IMCTM S9TS02 TNTH  09020IMCT  S9 PTB  00015                    1300 SR        000000000000 DENSO TEN (THAILAND)190MRSU0015015                                                                                                                              *          20181017 IMCT                IMCT                                                                                                                    WMF1810175.TXT
MDDDJO303685201810                D89828070300PT4D20181025000060SPEAKER ASM                   M IMCTM S9TS02 TNTH  09020IMCT  S9 PTB  00015                    1600 SR        000000000000 DENSO TEN (THAILAND)190MRWU0012012                                                                                                                              *          20181017 IMCT                IMCT                                                                                                                    WMF1810175.TXT
MDDDJO303686201810                D89831228300PT1D20181025000030RADIO;AM/FM,CD                M IMCTM S5NC06 TNTH  09020IMCT  S5 CPB  00003                    0830 SR        000000000000 DENSO TEN (THAILAND)190MPDL0003003                                                                                                                              *          20181017 IMCT                IMCT                                                                                                                    WMF1810175.TXT
MDDDJO303687201810                D89831228300PT1D20181025000030RADIO;AM/FM,CD                M IMCTM S5NC06 TNTH  09020IMCT  S5 CPB  00003                    1030 SR        000000000000 DENSO TEN (THAILAND)190MPGL0024024                                                                                                                              *          20181017 IMCT                IMCT                                                                                                                    WMF1810175.TXT
MDDDJO303688201810                D89848581500PT4D20181025000030RADIO;AM/FM CD D              M IMCTM S9CO001TNTH  09020IMCT  S9 PTB  00003                    0400 SR        000000000000 DENSO TEN (THAILAND)190MRHU0008008                                                                                                                              *          20181017 IMCT                IMCT                                                                                                                    WMF1810175.TXT
MDDUJO230713201810                D89828070100PT4U20181025000030SPEAKER ASM                   M IMCTM S0FL05 TNTH  09020IMCT  S0 PTB  00004                    0400 SR        000000000000 DENSO TEN (THAILAND)180LUMU0024024                                                                                                                              *          20181017 IMCT                IMCT                                                                                                                    WMF1810175.TXT
MDDUJO230714201810                D89828070100PT4U20181025000030SPEAKER ASM                   M IMCTM S0FL05 TNTH  09020IMCT  S0 PTB  00004                    1600 SR        000000000000 DENSO TEN (THAILAND)180LULU0087087                                                                                                                              *          20181017 IMCT                IMCT                                                                                                                    WMF1810175.TXT
MDDUJO230715201810                D89828070200PV4U20181025000030SPEAKER ASM                   M IMCTM S0FR05 TNTH  09020IMCT  S0 PTB  00005                    0400 SR        000000000000 DENSO TEN (THAILAND)180LUMU0024024                                                                                                                              *          20181017 IMCT                IMCT                                                                                                                    WMF1810175.TXT
MDDUJO230716201810                D89828070200PV4U20181025000030SPEAKER ASM                   M IMCTM S0FR05 TNTH  09020IMCT  S0 PTB  00005                    1600 SR        000000000000 DENSO TEN (THAILAND)180LULU0087087                                                                                                                              *          20181017 IMCT                IMCT                                                                                                                    WMF1810175.TXT
MDDUJO230717201810                D89828070300PT4U20181025000030SPEAKER ASM                   M IMCTM S9TS02 TNTH  09020IMCT  S9 PTB  00015                    0400 SR        000000000000 DENSO TEN (THAILAND)180LUMU0024024                                                                                                                              *          20181017 IMCT                IMCT                                                                                                                    WMF1810175.TXT
MDDUJO230718201810                D89828070300PT4U20181025000030SPEAKER ASM                   M IMCTM S9TS02 TNTH  09020IMCT  S9 PTB  00015                    1600 SR        000000000000 DENSO TEN (THAILAND)180LULU0087087                                                                                                                              *          20181017 IMCT                IMCT                                                                                                                    WMF1810175.TXT
MDEDJO294337201810                D89828070100PV1D20181024000030SPEAKER ASM                   M IMCTM S5MB11 TNTH  09020IMCT  S5 PTB  00004                    2230 SR        000000000000 DENSO TEN (THAILAND)17033QL0136136                                                                                                                              *          20181017 IMCT                IMCT                                                                                                                    WMF1810175.TXT
MDEDJO294338201810                D89828070100PV1D20181025000060SPEAKER ASM                   M IMCTM S5MB11 TNTH  09020IMCT  S5 PTB  00004                    0230 SR        000000000000 DENSO TEN (THAILAND)17033QL0137138                                                                                                                              *          20181017 IMCT                IMCT                                                                                                                    WMF1810175.TXT
MDEDJO294339201810                D89828070100PV1D20181025000060SPEAKER ASM                   M IMCTM S5MB11 TNTH  09020IMCT  S5 PTB  00004                    0400 SR        000000000000 DENSO TEN (THAILAND)17050RL0054055                                                                                                                              *          20181017 IMCT                IMCT                                                                                                                    WMF1810175.TXT
MDEDJO294340201810                D89828070100PV1D20181025000030SPEAKER ASM                   M IMCTM S5MB11 TNTH  09020IMCT  S5 PTB  00004                    0830 SR        000000000000 DENSO TEN (THAILAND)17033QL0139139                                                                                                                              *          20181017 IMCT                IMCT                                                                                                                    WMF1810175.TXT
MDEDJO294341201810                D89828070100PV1D20181025000030SPEAKER ASM                   M IMCTM S5MB11 TNTH  09020IMCT  S5 PTB  00004                    1030 SR        000000000000 DENSO TEN (THAILAND)17033QL0140140                                                                                                                              *          20181017 IMCT                IMCT                                                                                                                    WMF1810175.TXT
MDEDJO294342201810                D89828070100PV1D20181025000090SPEAKER ASM                   M IMCTM S5MB11 TNTH  09020IMCT  S5 PTB  00004                    1300 SR        000000000000 DENSO TEN (THAILAND)17033QL014114117050RL005605618061UL0038038                                                                                                  *          20181017 IMCT                IMCT                                                                                                                    WMF1810175.TXT
MDEDJO294343201810                D89828070100PV1D20181025000090SPEAKER ASM                   M IMCTM S5MB11 TNTH  09020IMCT  S5 PTB  00004                    1600 SR        000000000000 DENSO TEN (THAILAND)17032QL0029029190F86L0014015                                                                                                                *          20181017 IMCT                IMCT                                                                                                                    WMF1810175.TXT
MDEDJO294344201810                D89828070100PV1D20181025000060SPEAKER ASM                   M IMCTM S5MB11 TNTH  09020IMCT  S5 PTB  00004                    2100 SR        000000000000 DENSO TEN (THAILAND)18013YL0005006                                                                                                                              *          20181017 IMCT                IMCT                                                                                                                    WMF1810175.TXT
MDEDJO294345201810                D89828070100PV1D20181025000030SPEAKER ASM                   M IMCTM S5MB11 TNTH  09020IMCT  S5 PTB  00004                    2230 SR        000000000000 DENSO TEN (THAILAND)18061UL0039039                                                                                                                              *          20181017 IMCT                IMCT                                                                                                                    WMF1810175.TXT
MDEDJO294346201810                D89828070100PV4D20181024000030SPEAKER ASM                   M IMCTM S0FL05 TNTH  09020IMCT  S0 PTB  00004                    2230 SR        000000000000 DENSO TEN (THAILAND)190D24U0004004                                                                                                                              *          20181017 IMCT                IMCT                                                                                                                    WMF1810175.TXT
MDEDJO294347201810                D89828070200PV1D20181024000030SPEAKER ASM                   M IMCTM S5MA14 TNTH  09020IMCT  S5 PTB  00005                    2230 SR        000000000000 DENSO TEN (THAILAND)17033QL0136136                                                                                                                              *          20181017 IMCT                IMCT                                                                                                                    WMF1810175.TXT
MDEDJO294348201810                D89828070200PV1D20181025000060SPEAKER ASM                   M IMCTM S5MA14 TNTH  09020IMCT  S5 PTB  00005                    0230 SR        000000000000 DENSO TEN (THAILAND)17033QL0137138                                                                                                                              *          20181017 IMCT                IMCT                                                                                                                    WMF1810175.TXT
MDEDJO294349201810                D89828070200PV1D20181025000060SPEAKER ASM                   M IMCTM S5MA14 TNTH  09020IMCT  S5 PTB  00005                    0400 SR        000000000000 DENSO TEN (THAILAND)17050RL0054055                                                                                                                              *          20181017 IMCT                IMCT                                                                                                                    WMF1810175.TXT
MDEDJO294350201810                D89828070200PV1D20181025000030SPEAKER ASM                   M IMCTM S5MA14 TNTH  09020IMCT  S5 PTB  00005                    0830 SR        000000000000 DENSO TEN (THAILAND)17033QL0139139                                                                                                                              *          20181017 IMCT                IMCT                                                                                                                    WMF1810175.TXT
MDEDJO294351201810                D89828070200PV1D20181025000030SPEAKER ASM                   M IMCTM S5MA14 TNTH  09020IMCT  S5 PTB  00005                    1030 SR        000000000000 DENSO TEN (THAILAND)17033QL0140140                                                                                                                              *          20181017 IMCT                IMCT                                                                                                                    WMF1810175.TXT
MDEDJO294352201810                D89828070200PV1D20181025000060SPEAKER ASM                   M IMCTM S5MA14 TNTH  09020IMCT  S5 PTB  00005                    1300 SR        000000000000 DENSO TEN (THAILAND)17033QL014114117050RL0056056                                                                                                                *          20181017 IMCT                IMCT                                                                                                                    WMF1810175.TXT
MDEDJO294353201810                D89828070200PV1D20181025000030SPEAKER ASM                   M IMCTM S5MA14 TNTH  09020IMCT  S5 PTB  00005                    1600 SR        000000000000 DENSO TEN (THAILAND)17032QL0029029                                                                                                                              *          20181017 IMCT                IMCT                                                                                                                    WMF1810175.TXT
MDEDJO294354201810                D89828070200PV4D20181024000030SPEAKER ASM                   M IMCTM S0FR05 TNTH  09020IMCT  S0 PTB  00005                    2230 SR        000000000000 DENSO TEN (THAILAND)190D24U0004004                                                                                                                              *          20181017 IMCT                IMCT                                                                                                                    WMF1810175.TXT
MDEDJO294355201810                D89828070300PT1D20181024000030SPEAKER ASM                   M IMCTM S5NB082TNTH  09020IMCT  S5 PTB  00015                    2230 SR        000000000000 DENSO TEN (THAILAND)17033QL0136136                                                                                                                              *          20181017 IMCT                IMCT                                                                                                                    WMF1810175.TXT
MDEDJO294356201810                D89828070300PT1D20181025000060SPEAKER ASM                   M IMCTM S5NB082TNTH  09020IMCT  S5 PTB  00015                    0230 SR        000000000000 DENSO TEN (THAILAND)17033QL0137138                                                                                                                              *          20181017 IMCT                IMCT                                                                                                                    WMF1810175.TXT
MDEDJO294357201810                D89828070300PT1D20181025000060SPEAKER ASM                   M IMCTM S5NB082TNTH  09020IMCT  S5 PTB  00015                    0400 SR        000000000000 DENSO TEN (THAILAND)17050RL0054055                                                                                                                              *          20181017 IMCT                IMCT                                                                                                                    WMF1810175.TXT
MDEDJO294358201810                D89828070300PT1D20181025000030SPEAKER ASM                   M IMCTM S5NB082TNTH  09020IMCT  S5 PTB  00015                    0830 SR        000000000000 DENSO TEN (THAILAND)17033QL0139139                                                                                                                              *          20181017 IMCT                IMCT                                                                                                                    WMF1810175.TXT
MDEDJO294359201810                D89828070300PT1D20181025000030SPEAKER ASM                   M IMCTM S5NB082TNTH  09020IMCT  S5 PTB  00015                    1030 SR        000000000000 DENSO TEN (THAILAND)17033QL0140140                                                                                                                              *          20181017 IMCT                IMCT                                                                                                                    WMF1810175.TXT
MDEDJO294360201810                D89828070300PT1D20181025000090SPEAKER ASM                   M IMCTM S5NB082TNTH  09020IMCT  S5 PTB  00015                    1300 SR        000000000000 DENSO TEN (THAILAND)17033QL014114117050RL005605618061UL0038038                                                                                                  *          20181017 IMCT                IMCT                                                                                                                    WMF1810175.TXT
MDEDJO294361201810                D89828070300PT1D20181025000030SPEAKER ASM                   M IMCTM S5NB082TNTH  09020IMCT  S5 PTB  00015                    1600 SR        000000000000 DENSO TEN (THAILAND)17032QL0029029                                                                                                                              *          20181017 IMCT                IMCT                                                                                                                    WMF1810175.TXT
MDEDJO294362201810                D89828070300PT1D20181025000030SPEAKER ASM                   M IMCTM S5NB082TNTH  09020IMCT  S5 PTB  00015                    2230 SR        000000000000 DENSO TEN (THAILAND)18061UL0039039                                                                                                                              *          20181017 IMCT                IMCT                                                                                                                    WMF1810175.TXT
MDEDJO294363201810                D89828070300PT4D20181024000030SPEAKER ASM                   M IMCTM S9TS02 TNTH  09020IMCT  S9 PTB  00015                    2230 SR        000000000000 DENSO TEN (THAILAND)190D24U0004004                                                                                                                              *          20181017 IMCT                IMCT                                                                                                                    WMF1810175.TXT
MDEDJO294364201810                D89829645420PT1D20181025000030RADIO;ASM DVD                 M IMCTM S5NC06 TNTH  09020IMCT  S5 PTB  00003                    0400 SR        000000000000 DENSO TEN (THAILAND)17050RL0054055                                                                                                                              *          20181017 IMCT                IMCT                                                                                                                    WMF1810175.TXT
MDEDJO294365201810                D89829645420PT1D20181025000015RADIO;ASM DVD                 M IMCTM S5NC06 TNTH  09020IMCT  S5 PTB  00003                    1300 SR        000000000000 DENSO TEN (THAILAND)17050RL0056056                                                                                                                              *          20181017 IMCT                IMCT                                                                                                                    WMF1810175.TXT
MDEDJO294366201810                D89831229200PT1D20181024000015RADIO;AM/FM,CD                M IMCTM S5NC06 TNTH  09020IMCT  S5 PTB  00003                    2230 SR        000000000000 DENSO TEN (THAILAND)17033QL0136136                                                                                                                              *          20181017 IMCT                IMCT                                                                                                                    WMF1810175.TXT
MDEDJO294367201810                D89831229200PT1D20181025000030RADIO;AM/FM,CD                M IMCTM S5NC06 TNTH  09020IMCT  S5 PTB  00003                    0230 SR        000000000000 DENSO TEN (THAILAND)17033QL0137138                                                                                                                              *          20181017 IMCT                IMCT                                                                                                                    WMF1810175.TXT
MDEDJO294368201810                D89831229200PT1D20181025000015RADIO;AM/FM,CD                M IMCTM S5NC06 TNTH  09020IMCT  S5 PTB  00003                    0830 SR        000000000000 DENSO TEN (THAILAND)17033QL0139139                                                                                                                              *          20181017 IMCT                IMCT                                                                                                                    WMF1810175.TXT
MDEDJO294369201810                D89831229200PT1D20181025000015RADIO;AM/FM,CD                M IMCTM S5NC06 TNTH  09020IMCT  S5 PTB  00003                    1030 SR        000000000000 DENSO TEN (THAILAND)17033QL0140140                                                                                                                              *          20181017 IMCT                IMCT                                                                                                                    WMF1810175.TXT
MDEDJO294370201810                D89831229200PT1D20181025000015RADIO;AM/FM,CD                M IMCTM S5NC06 TNTH  09020IMCT  S5 PTB  00003                    1300 SR        000000000000 DENSO TEN (THAILAND)17033QL0141141                                                                                                                              *          20181017 IMCT                IMCT                                                                                                                    WMF1810175.TXT
MDEDJO294371201810                D89831229200PT1D20181025000015RADIO;AM/FM,CD                M IMCTM S5NC06 TNTH  09020IMCT  S5 PTB  00003                    1600 SR        000000000000 DENSO TEN (THAILAND)17032QL0029029                                                                                                                              *          20181017 IMCT                IMCT                                                                                                                    WMF1810175.TXT
MDEDJO294372201810                D89848581800PT1D20181025000015RADIO;AM/FM CD D              M IMCTM S5NC06 TNTH  09020IMCT  S5 PTB  00003                    1300 SR        000000000000 DENSO TEN (THAILAND)18061UL0038038                                                                                                                              *          20181017 IMCT                IMCT                                                                                                                    WMF1810175.TXT
MDEDJO294373201810                D89848581800PT1D20181025000015RADIO;AM/FM CD D              M IMCTM S5NC06 TNTH  09020IMCT  S5 PTB  00003                    2230 SR        000000000000 DENSO TEN (THAILAND)18061UL0039039                                                                                                                              *          20181017 IMCT                IMCT                                                                                                                    WMF1810175.TXT
MDEUJO240671201810                D89828070100PT4U20181025000030SPEAKER ASM                   M IMCTM S0FL05 TNTH  09020IMCT  S0 PTB  00004                    0230 SR        000000000000 DENSO TEN (THAILAND)18016UU0052052                                                                                                                              *          20181017 IMCT                IMCT                                                                                                                    WMF1810175.TXT
MDEUJO240672201810                D89828070100PT4U20181025000030SPEAKER ASM                   M IMCTM S0FL05 TNTH  09020IMCT  S0 PTB  00004                    0830 SR        000000000000 DENSO TEN (THAILAND)18021UU0217217                                                                                                                              *          20181017 IMCT                IMCT                                                                                                                    WMF1810175.TXT
MDEUJO240673201810                D89828070100PT4U20181025000030SPEAKER ASM                   M IMCTM S0FL05 TNTH  09020IMCT  S0 PTB  00004                    1300 SR        000000000000 DENSO TEN (THAILAND)18015UU0052052                                                                                                                              *          20181017 IMCT                IMCT                                                                                                                    WMF1810175.TXT
MDEUJO240674201810                D89828070100PT4U20181025000030SPEAKER ASM                   M IMCTM S0FL05 TNTH  09020IMCT  S0 PTB  00004                    1600 SR        000000000000 DENSO TEN (THAILAND)18020UU0138138                                                                                                                              *          20181017 IMCT                IMCT                                                                                                                    WMF1810175.TXT
MDEUJO240675201810                D89828070200PV4U20181025000030SPEAKER ASM                   M IMCTM S0FR05 TNTH  09020IMCT  S0 PTB  00005                    0230 SR        000000000000 DENSO TEN (THAILAND)18016UU0052052                                                                                                                              *          20181017 IMCT                IMCT                                                                                                                    WMF1810175.TXT
MDEUJO240676201810                D89828070200PV4U20181025000030SPEAKER ASM                   M IMCTM S0FR05 TNTH  09020IMCT  S0 PTB  00005                    0830 SR        000000000000 DENSO TEN (THAILAND)18021UU0217217                                                                                                                              *          20181017 IMCT                IMCT                                                                                                                    WMF1810175.TXT
MDEUJO240677201810                D89828070200PV4U20181025000030SPEAKER ASM                   M IMCTM S0FR05 TNTH  09020IMCT  S0 PTB  00005                    1300 SR        000000000000 DENSO TEN (THAILAND)18015UU0052052                                                                                                                              *          20181017 IMCT                IMCT                                                                                                                    WMF1810175.TXT
MDEUJO240678201810                D89828070200PV4U20181025000030SPEAKER ASM                   M IMCTM S0FR05 TNTH  09020IMCT  S0 PTB  00005                    1600 SR        000000000000 DENSO TEN (THAILAND)18020UU0138138                                                                                                                              *          20181017 IMCT                IMCT                                                                                                                    WMF1810175.TXT
MDEUJO240679201810                D89828070300PT4U20181025000030SPEAKER ASM                   M IMCTM S9TS02 TNTH  09020IMCT  S9 PTB  00015                    0230 SR        000000000000 DENSO TEN (THAILAND)18016UU0052052                                                                                                                              *          20181017 IMCT                IMCT                                                                                                                    WMF1810175.TXT
MDEUJO240680201810                D89828070300PT4U20181025000030SPEAKER ASM                   M IMCTM S9TS02 TNTH  09020IMCT  S9 PTB  00015                    0830 SR        000000000000 DENSO TEN (THAILAND)18021UU0217217                                                                                                                              *          20181017 IMCT                IMCT                                                                                                                    WMF1810175.TXT
MDEUJO240681201810                D89828070300PT4U20181025000030SPEAKER ASM                   M IMCTM S9TS02 TNTH  09020IMCT  S9 PTB  00015                    1300 SR        000000000000 DENSO TEN (THAILAND)18015UU0052052                                                                                                                              *          20181017 IMCT                IMCT                                                                                                                    WMF1810175.TXT
MDEUJO240682201810                D89828070300PT4U20181025000030SPEAKER ASM                   M IMCTM S9TS02 TNTH  09020IMCT  S9 PTB  00015                    1600 SR        000000000000 DENSO TEN (THAILAND)18020UU0138138                                                                                                                              *          20181017 IMCT                IMCT                                                                                                                    WMF1810175.TXT
