REC2018100320181003ISUZU                              11     
MDEBJOT00803201810                D89828070100PT4B20181006000026SPEAKER ASM                   M IMCTM S7FL05 TNTH  09020IMCT  S7 PTB  00004                    2230 SR        000000000000 DENSO TEN (THAILAND)180D06R0003   190G76R0004   Y181001903    Y181001915    000000                                                                              *R         20181003 IMCT                IMCT                                                                                                                    RMF1810034.TXT
MDEBJOT00804201810                D89828070200PV4B20181006000025SPEAKER ASM                   M IMCTM S7FL05 TNTH  09020IMCT  S7 PTB  00005                    2230 SR        000000000000 DENSO TEN (THAILAND)180D06R0003   190G76R0004   Y181001903    Y181001915    000000                                                                              *R         20181003 IMCT                IMCT                                                                                                                    RMF1810034.TXT
MDEBJOT00805201810                D89828070300PT4B20181006000015SPEAKER ASM                   M IMCTM S7TS02 TNTH  09020IMCT  S7 PTB  00015                    2230 SR        000000000000 DENSO TEN (THAILAND)180D06R0008   190G76R0004   Y181001908    Y181001915    000000                                                                              *R         20181003 IMCT                IMCT                                                                                                                    RMF1810034.TXT
MDEBJO200640201810                D89828070100PT4B20181006000004SPEAKER ASM                   M IMCTM S7FL05 TNTH  09020IMCT  S7 PTB  00004                    2100 SR        000000000000 DENSO TEN (THAILAND)180D06R0001   180D06R0002   Y181001901    Y181001902    000000                                                                              *R         20181003 IMCT                IMCT                                                                                                                    RMF1810034.TXT
MDEBJO200641201810                D89828070200PV4B20181006000005SPEAKER ASM                   M IMCTM S7FL05 TNTH  09020IMCT  S7 PTB  00005                    2100 SR        000000000000 DENSO TEN (THAILAND)180D06R0001   180D06R0003   Y181001901    Y181001903    000000                                                                              *R         20181003 IMCT                IMCT                                                                                                                    RMF1810034.TXT
MDEBJO200642201810                D89828070300PT4B20181006000015SPEAKER ASM                   M IMCTM S7TS02 TNTH  09020IMCT  S7 PTB  00015                    2100 SR        000000000000 DENSO TEN (THAILAND)180D06R0001   180D06R0008   Y181001901    Y181001908    000000                                                                              *R         20181003 IMCT                IMCT                                                                                                                    RMF1810034.TXT
MDEFJOT03415201810                D89828070100PV4F20181008000028SPEAKER ASM                   M IMCTM S7FL05 TNTH  09020IMCT  S7 PTB  00004                    1300 SR        000000000000 DENSO TEN (THAILAND)18072WR0043   17071PR0007   R181002102    R181002115    000000                                                                              *R         20181003 IMCT                IMCT                                                                                                                    RMF1810034.TXT
MDEFJOT03416201810                D89828070200PV4F20181007000026SPEAKER ASM                   M IMCTM S7FL05 TNTH  09020IMCT  S7 PTB  00005                    0400 SR        000000000000 DENSO TEN (THAILAND)17046TR0024   18039ZR0015   D181002001    D181002015    000000                                                                              *R         20181003 IMCT                IMCT                                                                                                                    RMF1810034.TXT
MDEFJOT03417201810                D89828070300PT4F20181007000030SPEAKER ASM                   M IMCTM S7TS02 TNTH  09020IMCT  S7 PTB  00015                    0400 SR        000000000000 DENSO TEN (THAILAND)17046TR0024   18039ZR0015   D181002001    D181002015    000000                                                                              *R         20181003 IMCT                IMCT                                                                                                                    RMF1810034.TXT
MDEFJOT03418201810                D89829645420PT4F20181007000004RADIO;ASM DVD                 M IMCTM S7TS01 TNTH  09020IMCT  S7 PTB  00003                    0400 SR        000000000000 DENSO TEN (THAILAND)17044RR0073   17051RR0151   D181002004    D181002008    000000                                                                              *R         20181003 IMCT                IMCT                                                                                                                    RMF1810034.TXT
MDEFJO207762201810                D89828070100PV4F20181007000032SPEAKER ASM                   M IMCTM S7FL05 TNTH  09020IMCT  S7 PTB  00004                    0400 SR        000000000000 DENSO TEN (THAILAND)17046TR0024   18072WR0042   D181002001    R181002101    000000                                                                              *R         20181003 IMCT                IMCT                                                                                                                    RMF1810034.TXT
