REC2018101120181011ISUZU                              58     
MDDDJO268428201810                D89821984430PT1D20181016000030RADIO;AM/FM,CD                M IMCTM S5NC06 TNTH  09020IMCT  S5 PTB  00005                    1030 SR        000000000000 DENSO TEN (THAILAND)190MRAL0008008                                                                                                                              *          20181011 IMCT                IMCT                                                                                                                    WMF1810117.TXT
MDDDJO268429201810                D89821984430PT1D20181016000060RADIO;AM/FM,CD                M IMCTM S5NC06 TNTH  09020IMCT  S5 PTB  00005                    1600 SR        000000000000 DENSO TEN (THAILAND)190MNHL0004004190MRAL0009009                                                                                                                *          20181011 IMCT                IMCT                                                                                                                    WMF1810117.TXT
MDDDJO268430201810                D89821984430PT1D20181016000030RADIO;AM/FM,CD                M IMCTM S5NC06 TNTH  09020IMCT  S5 PTB  00005                    2100 SR        000000000000 DENSO TEN (THAILAND)190MRAL0010010                                                                                                                              *          20181011 IMCT                IMCT                                                                                                                    WMF1810117.TXT
MDDDJO268431201810                D89828070100PV1D20181016000060SPEAKER ASM                   M IMCTM S5MB11 TNTH  09020IMCT  S5 PTB  00004                    0230 SR        000000000000 DENSO TEN (THAILAND)190MPKL0007007                                                                                                                              *          20181011 IMCT                IMCT                                                                                                                    WMF1810117.TXT
MDDDJO268432201810                D89828070100PV1D20181016000060SPEAKER ASM                   M IMCTM S5MB11 TNTH  09020IMCT  S5 PTB  00004                    1030 SR        000000000000 DENSO TEN (THAILAND)190MRAL0008008                                                                                                                              *          20181011 IMCT                IMCT                                                                                                                    WMF1810117.TXT
MDDDJO268433201810                D89828070100PV1D20181016000060SPEAKER ASM                   M IMCTM S5MB11 TNTH  09020IMCT  S5 PTB  00004                    1300 SR        000000000000 DENSO TEN (THAILAND)190MPJL0004004                                                                                                                              *          20181011 IMCT                IMCT                                                                                                                    WMF1810117.TXT
MDDDJO268434201810                D89828070100PV1D20181016000120SPEAKER ASM                   M IMCTM S5MB11 TNTH  09020IMCT  S5 PTB  00004                    1600 SR        000000000000 DENSO TEN (THAILAND)190MNHL0004004190MRAL0009009                                                                                                                *          20181011 IMCT                IMCT                                                                                                                    WMF1810117.TXT
MDDDJO268435201810                D89828070100PV1D20181016000060SPEAKER ASM                   M IMCTM S5MB11 TNTH  09020IMCT  S5 PTB  00004                    2100 SR        000000000000 DENSO TEN (THAILAND)190MRAL0010010                                                                                                                              *          20181011 IMCT                IMCT                                                                                                                    WMF1810117.TXT
MDDDJO268436201810                D89828070100PV4D20181016000060SPEAKER ASM                   M IMCTM S0FL05 TNTH  09020IMCT  S0 PTB  00004                    0400 SR        000000000000 DENSO TEN (THAILAND)190MRSU0011011                                                                                                                              *          20181011 IMCT                IMCT                                                                                                                    WMF1810117.TXT
MDDDJO268437201810                D89828070100PV4D20181016000060SPEAKER ASM                   M IMCTM S0FL05 TNTH  09020IMCT  S0 PTB  00004                    1300 SR        000000000000 DENSO TEN (THAILAND)190MRTU0012012                                                                                                                              *          20181011 IMCT                IMCT                                                                                                                    WMF1810117.TXT
MDDDJO268438201810                D89828070100PV4D20181016000060SPEAKER ASM                   M IMCTM S0FL05 TNTH  09020IMCT  S0 PTB  00004                    2100 SR        000000000000 DENSO TEN (THAILAND)190MRVU0007007                                                                                                                              *          20181011 IMCT                IMCT                                                                                                                    WMF1810117.TXT
MDDDJO268439201810                D89828070200PV4D20181016000060SPEAKER ASM                   M IMCTM S0FR05 TNTH  09020IMCT  S0 PTB  00005                    0400 SR        000000000000 DENSO TEN (THAILAND)190MRSU0011011                                                                                                                              *          20181011 IMCT                IMCT                                                                                                                    WMF1810117.TXT
MDDDJO268440201810                D89828070200PV4D20181016000060SPEAKER ASM                   M IMCTM S0FR05 TNTH  09020IMCT  S0 PTB  00005                    1300 SR        000000000000 DENSO TEN (THAILAND)190MRTU0012012                                                                                                                              *          20181011 IMCT                IMCT                                                                                                                    WMF1810117.TXT
MDDDJO268441201810                D89828070200PV4D20181016000060SPEAKER ASM                   M IMCTM S0FR05 TNTH  09020IMCT  S0 PTB  00005                    2100 SR        000000000000 DENSO TEN (THAILAND)190MRVU0007007                                                                                                                              *          20181011 IMCT                IMCT                                                                                                                    WMF1810117.TXT
MDDDJO268442201810                D89828070300PT1D20181016000060SPEAKER ASM                   M IMCTM S5NB082TNTH  09020IMCT  S5 PTB  00015                    0230 SR        000000000000 DENSO TEN (THAILAND)190MPKL0007007                                                                                                                              *          20181011 IMCT                IMCT                                                                                                                    WMF1810117.TXT
MDDDJO268443201810                D89828070300PT1D20181016000060SPEAKER ASM                   M IMCTM S5NB082TNTH  09020IMCT  S5 PTB  00015                    1300 SR        000000000000 DENSO TEN (THAILAND)190MPJL0004004                                                                                                                              *          20181011 IMCT                IMCT                                                                                                                    WMF1810117.TXT
MDDDJO268444201810                D89828070300PT4D20181016000060SPEAKER ASM                   M IMCTM S9TS02 TNTH  09020IMCT  S9 PTB  00015                    0400 SR        000000000000 DENSO TEN (THAILAND)190MRSU0011011                                                                                                                              *          20181011 IMCT                IMCT                                                                                                                    WMF1810117.TXT
MDDDJO268445201810                D89828070300PT4D20181016000060SPEAKER ASM                   M IMCTM S9TS02 TNTH  09020IMCT  S9 PTB  00015                    1300 SR        000000000000 DENSO TEN (THAILAND)190MRTU0012012                                                                                                                              *          20181011 IMCT                IMCT                                                                                                                    WMF1810117.TXT
MDDDJO268446201810                D89828070300PT4D20181016000060SPEAKER ASM                   M IMCTM S9TS02 TNTH  09020IMCT  S9 PTB  00015                    2100 SR        000000000000 DENSO TEN (THAILAND)190MRVU0007007                                                                                                                              *          20181011 IMCT                IMCT                                                                                                                    WMF1810117.TXT
MDDDJO268447201810                D89831228300PT1D20181016000030RADIO;AM/FM,CD                M IMCTM S5NC06 TNTH  09020IMCT  S5 CPB  00003                    1300 SR        000000000000 DENSO TEN (THAILAND)190MPJL0004004                                                                                                                              *          20181011 IMCT                IMCT                                                                                                                    WMF1810117.TXT
MDDDJO268448201810                D89848581500PT4D20181016000030RADIO;AM/FM CD D              M IMCTM S9CO001TNTH  09020IMCT  S9 PTB  00003                    1300 SR        000000000000 DENSO TEN (THAILAND)190MRTU0012012                                                                                                                              *          20181011 IMCT                IMCT                                                                                                                    WMF1810117.TXT
MDDDJO268449201810                D89848581600PT1D20181016000030RADIO;AM/FM CD D              M IMCTM S5NC06 TNTH  09020IMCT  S5 PTB  00003                    0230 SR        000000000000 DENSO TEN (THAILAND)190MPKL0007007                                                                                                                              *          20181011 IMCT                IMCT                                                                                                                    WMF1810117.TXT
MDDUJO218483201810                D89828070100PT4U20181016000030SPEAKER ASM                   M IMCTM S0FL05 TNTH  09020IMCT  S0 PTB  00004                    0230 SR        000000000000 DENSO TEN (THAILAND)180LUSU0185185                                                                                                                              *          20181011 IMCT                IMCT                                                                                                                    WMF1810117.TXT
MDDUJO218484201810                D89828070100PT4U20181016000030SPEAKER ASM                   M IMCTM S0FL05 TNTH  09020IMCT  S0 PTB  00004                    1300 SR        000000000000 DENSO TEN (THAILAND)180LULU0086086                                                                                                                              *          20181011 IMCT                IMCT                                                                                                                    WMF1810117.TXT
MDDUJO218485201810                D89828070100PT4U20181016000030SPEAKER ASM                   M IMCTM S0FL05 TNTH  09020IMCT  S0 PTB  00004                    1600 SR        000000000000 DENSO TEN (THAILAND)180LUTU0126126                                                                                                                              *          20181011 IMCT                IMCT                                                                                                                    WMF1810117.TXT
MDDUJO218486201810                D89828070200PV4U20181016000030SPEAKER ASM                   M IMCTM S0FR05 TNTH  09020IMCT  S0 PTB  00005                    0230 SR        000000000000 DENSO TEN (THAILAND)180LUSU0185185                                                                                                                              *          20181011 IMCT                IMCT                                                                                                                    WMF1810117.TXT
MDDUJO218487201810                D89828070200PV4U20181016000030SPEAKER ASM                   M IMCTM S0FR05 TNTH  09020IMCT  S0 PTB  00005                    1300 SR        000000000000 DENSO TEN (THAILAND)180LULU0086086                                                                                                                              *          20181011 IMCT                IMCT                                                                                                                    WMF1810117.TXT
MDDUJO218488201810                D89828070200PV4U20181016000030SPEAKER ASM                   M IMCTM S0FR05 TNTH  09020IMCT  S0 PTB  00005                    1600 SR        000000000000 DENSO TEN (THAILAND)180LUTU0126126                                                                                                                              *          20181011 IMCT                IMCT                                                                                                                    WMF1810117.TXT
MDDUJO218489201810                D89828070300PT4U20181016000030SPEAKER ASM                   M IMCTM S9TS02 TNTH  09020IMCT  S9 PTB  00015                    0230 SR        000000000000 DENSO TEN (THAILAND)180LUSU0185185                                                                                                                              *          20181011 IMCT                IMCT                                                                                                                    WMF1810117.TXT
MDDUJO218490201810                D89828070300PT4U20181016000030SPEAKER ASM                   M IMCTM S9TS02 TNTH  09020IMCT  S9 PTB  00015                    1300 SR        000000000000 DENSO TEN (THAILAND)180LULU0086086                                                                                                                              *          20181011 IMCT                IMCT                                                                                                                    WMF1810117.TXT
MDDUJO218491201810                D89828070300PT4U20181016000030SPEAKER ASM                   M IMCTM S9TS02 TNTH  09020IMCT  S9 PTB  00015                    1600 SR        000000000000 DENSO TEN (THAILAND)180LUTU0126126                                                                                                                              *          20181011 IMCT                IMCT                                                                                                                    WMF1810117.TXT
MDEDJO254469201810                D89828070100PV1D20181015000090SPEAKER ASM                   M IMCTM S5MB11 TNTH  09020IMCT  S5 PTB  00004                    2230 SR        000000000000 DENSO TEN (THAILAND)17071PL000500618024XL0015015                                                                                                                *          20181011 IMCT                IMCT                                                                                                                    WMF1810117.TXT
MDEDJO254470201810                D89828070100PV1D20181016000030SPEAKER ASM                   M IMCTM S5MB11 TNTH  09020IMCT  S5 PTB  00004                    0230 SR        000000000000 DENSO TEN (THAILAND)18024XL0016016                                                                                                                              *          20181011 IMCT                IMCT                                                                                                                    WMF1810117.TXT
MDEDJO254471201810                D89828070100PV1D20181016000090SPEAKER ASM                   M IMCTM S5MB11 TNTH  09020IMCT  S5 PTB  00004                    0400 SR        000000000000 DENSO TEN (THAILAND)17033QL011311418061UL0035035                                                                                                                *          20181011 IMCT                IMCT                                                                                                                    WMF1810117.TXT
MDEDJO254472201810                D89828070100PV1D20181016000090SPEAKER ASM                   M IMCTM S5MB11 TNTH  09020IMCT  S5 PTB  00004                    0830 SR        000000000000 DENSO TEN (THAILAND)18005XL001401418061UL003603618074XL0017017                                                                                                  *          20181011 IMCT                IMCT                                                                                                                    WMF1810117.TXT
MDEDJO254473201810                D89828070100PV1D20181016000060SPEAKER ASM                   M IMCTM S5MB11 TNTH  09020IMCT  S5 PTB  00004                    1300 SR        000000000000 DENSO TEN (THAILAND)190F86L0003004                                                                                                                              *          20181011 IMCT                IMCT                                                                                                                    WMF1810117.TXT
MDEDJO254474201810                D89828070100PV1D20181016000030SPEAKER ASM                   M IMCTM S5MB11 TNTH  09020IMCT  S5 PTB  00004                    2230 SR        000000000000 DENSO TEN (THAILAND)17033QL0115115                                                                                                                              *          20181011 IMCT                IMCT                                                                                                                    WMF1810117.TXT
MDEDJO254475201810                D89828070100PV4D20181016000030SPEAKER ASM                   M IMCTM S0FL05 TNTH  09020IMCT  S0 PTB  00004                    1030 SR        000000000000 DENSO TEN (THAILAND)190D23U0002002                                                                                                                              *          20181011 IMCT                IMCT                                                                                                                    WMF1810117.TXT
MDEDJO254476201810                D89828070200PV1D20181016000060SPEAKER ASM                   M IMCTM S5MA14 TNTH  09020IMCT  S5 PTB  00005                    0400 SR        000000000000 DENSO TEN (THAILAND)17033QL0113114                                                                                                                              *          20181011 IMCT                IMCT                                                                                                                    WMF1810117.TXT
MDEDJO254477201810                D89828070200PV1D20181016000030SPEAKER ASM                   M IMCTM S5MA14 TNTH  09020IMCT  S5 PTB  00005                    2230 SR        000000000000 DENSO TEN (THAILAND)17033QL0115115                                                                                                                              *          20181011 IMCT                IMCT                                                                                                                    WMF1810117.TXT
MDEDJO254478201810                D89828070200PV4D20181016000030SPEAKER ASM                   M IMCTM S0FR05 TNTH  09020IMCT  S0 PTB  00005                    1030 SR        000000000000 DENSO TEN (THAILAND)190D23U0002002                                                                                                                              *          20181011 IMCT                IMCT                                                                                                                    WMF1810117.TXT
MDEDJO254479201810                D89828070300PT1D20181016000090SPEAKER ASM                   M IMCTM S5NB082TNTH  09020IMCT  S5 PTB  00015                    0400 SR        000000000000 DENSO TEN (THAILAND)17033QL011311418061UL0035035                                                                                                                *          20181011 IMCT                IMCT                                                                                                                    WMF1810117.TXT
MDEDJO254480201810                D89828070300PT1D20181016000060SPEAKER ASM                   M IMCTM S5NB082TNTH  09020IMCT  S5 PTB  00015                    0830 SR        000000000000 DENSO TEN (THAILAND)18005XL001401418061UL0036036                                                                                                                *          20181011 IMCT                IMCT                                                                                                                    WMF1810117.TXT
MDEDJO254481201810                D89828070300PT1D20181016000030SPEAKER ASM                   M IMCTM S5NB082TNTH  09020IMCT  S5 PTB  00015                    2230 SR        000000000000 DENSO TEN (THAILAND)17033QL0115115                                                                                                                              *          20181011 IMCT                IMCT                                                                                                                    WMF1810117.TXT
MDEDJO254482201810                D89828070300PT4D20181016000030SPEAKER ASM                   M IMCTM S9TS02 TNTH  09020IMCT  S9 PTB  00015                    1030 SR        000000000000 DENSO TEN (THAILAND)190D23U0002002                                                                                                                              *          20181011 IMCT                IMCT                                                                                                                    WMF1810117.TXT
MDEDJO254483201810                D89831229200PT1D20181016000030RADIO;AM/FM,CD                M IMCTM S5NC06 TNTH  09020IMCT  S5 PTB  00003                    0400 SR        000000000000 DENSO TEN (THAILAND)17033QL0113114                                                                                                                              *          20181011 IMCT                IMCT                                                                                                                    WMF1810117.TXT
MDEDJO254484201810                D89831229200PT1D20181016000015RADIO;AM/FM,CD                M IMCTM S5NC06 TNTH  09020IMCT  S5 PTB  00003                    2230 SR        000000000000 DENSO TEN (THAILAND)17033QL0115115                                                                                                                              *          20181011 IMCT                IMCT                                                                                                                    WMF1810117.TXT
MDEDJO254485201810                D89848581800PT1D20181016000015RADIO;AM/FM CD D              M IMCTM S5NC06 TNTH  09020IMCT  S5 PTB  00003                    0400 SR        000000000000 DENSO TEN (THAILAND)18061UL0035035                                                                                                                              *          20181011 IMCT                IMCT                                                                                                                    WMF1810117.TXT
MDEDJO254486201810                D89848581800PT1D20181016000015RADIO;AM/FM CD D              M IMCTM S5NC06 TNTH  09020IMCT  S5 PTB  00003                    0830 SR        000000000000 DENSO TEN (THAILAND)18061UL0036036                                                                                                                              *          20181011 IMCT                IMCT                                                                                                                    WMF1810117.TXT
MDEUJO226038201810                D89828070100PT4U20181015000030SPEAKER ASM                   M IMCTM S0FL05 TNTH  09020IMCT  S0 PTB  00004                    2230 SR        000000000000 DENSO TEN (THAILAND)190G77U0006006                                                                                                                              *          20181011 IMCT                IMCT                                                                                                                    WMF1810117.TXT
MDEUJO226039201810                D89828070100PT4U20181016000030SPEAKER ASM                   M IMCTM S0FL05 TNTH  09020IMCT  S0 PTB  00004                    0830 SR        000000000000 DENSO TEN (THAILAND)190G77U0007007                                                                                                                              *          20181011 IMCT                IMCT                                                                                                                    WMF1810117.TXT
MDEUJO226040201810                D89828070100PT4U20181016000030SPEAKER ASM                   M IMCTM S0FL05 TNTH  09020IMCT  S0 PTB  00004                    1600 SR        000000000000 DENSO TEN (THAILAND)18021UU0210210                                                                                                                              *          20181011 IMCT                IMCT                                                                                                                    WMF1810117.TXT
MDEUJO226041201810                D89828070200PV4U20181015000030SPEAKER ASM                   M IMCTM S0FR05 TNTH  09020IMCT  S0 PTB  00005                    2230 SR        000000000000 DENSO TEN (THAILAND)190G77U0006006                                                                                                                              *          20181011 IMCT                IMCT                                                                                                                    WMF1810117.TXT
MDEUJO226042201810                D89828070200PV4U20181016000030SPEAKER ASM                   M IMCTM S0FR05 TNTH  09020IMCT  S0 PTB  00005                    0830 SR        000000000000 DENSO TEN (THAILAND)190G77U0007007                                                                                                                              *          20181011 IMCT                IMCT                                                                                                                    WMF1810117.TXT
MDEUJO226043201810                D89828070200PV4U20181016000030SPEAKER ASM                   M IMCTM S0FR05 TNTH  09020IMCT  S0 PTB  00005                    1600 SR        000000000000 DENSO TEN (THAILAND)18021UU0210210                                                                                                                              *          20181011 IMCT                IMCT                                                                                                                    WMF1810117.TXT
MDEUJO226044201810                D89828070300PT4U20181015000030SPEAKER ASM                   M IMCTM S9TS02 TNTH  09020IMCT  S9 PTB  00015                    2230 SR        000000000000 DENSO TEN (THAILAND)190G77U0006006                                                                                                                              *          20181011 IMCT                IMCT                                                                                                                    WMF1810117.TXT
MDEUJO226045201810                D89828070300PT4U20181016000030SPEAKER ASM                   M IMCTM S9TS02 TNTH  09020IMCT  S9 PTB  00015                    0830 SR        000000000000 DENSO TEN (THAILAND)190G77U0007007                                                                                                                              *          20181011 IMCT                IMCT                                                                                                                    WMF1810117.TXT
MDEUJO226046201810                D89828070300PT4U20181016000030SPEAKER ASM                   M IMCTM S9TS02 TNTH  09020IMCT  S9 PTB  00015                    1600 SR        000000000000 DENSO TEN (THAILAND)18021UU0210210                                                                                                                              *          20181011 IMCT                IMCT                                                                                                                    WMF1810117.TXT
