REC2018101520181016ISUZU                              27     
MDD6JO255540201810                D89828070100PV5620181018000060SPEAKER ASM                   M IMCTM G9B114 TNTH  09020G/WAY G9 PTB  00004                    1530 GW        0000000000005DENSO TEN (THAILAND)190MRTG0018018                                                                                                                              *          20181015 IMCT                IMCT                                                                                                                    WMF1810151.TXT
MDD6JO255541201810                D89828070100PV5620181018000060SPEAKER ASM                   M IMCTM G9B114 TNTH  09020G/WAY G9 PTB  00004                    2100 GW        0000000000005DENSO TEN (THAILAND)190MRVG0015015                                                                                                                              *          20181015 IMCT                IMCT                                                                                                                    WMF1810151.TXT
MDD6JO255542201810                D89828070100PV5620181018000060SPEAKER ASM                   M IMCTM G9B114 TNTH  09020G/WAY G9 PTB  00004                    2300 GW        0000000000005DENSO TEN (THAILAND)190MPLG0002002                                                                                                                              *          20181015 IMCT                IMCT                                                                                                                    WMF1810151.TXT
MDD6JO255543201810                D89828070100PV5620181019000060SPEAKER ASM                   M IMCTM G9B114 TNTH  09020G/WAY G9 PTB  00004                    0330 GW        0000000000005DENSO TEN (THAILAND)190MRKG0006006                                                                                                                              *          20181015 IMCT                IMCT                                                                                                                    WMF1810151.TXT
MDD6JO255544201810                D89828070100PV5620181019000120SPEAKER ASM                   M IMCTM G9B114 TNTH  09020G/WAY G9 PTB  00004                    0900 GW        0000000000005DENSO TEN (THAILAND)190MRKG0007007190MRVG0016016                                                                                                                *          20181015 IMCT                IMCT                                                                                                                    WMF1810151.TXT
MDD6JO255545201810                D89828070100PV5620181019000060SPEAKER ASM                   M IMCTM G9B114 TNTH  09020G/WAY G9 PTB  00004                    1100 GW        0000000000005DENSO TEN (THAILAND)190MPGG0009009                                                                                                                              *          20181015 IMCT                IMCT                                                                                                                    WMF1810151.TXT
MDD6JO255546201810                D89828070100PV5620181019000060SPEAKER ASM                   M IMCTM G9B114 TNTH  09020G/WAY G9 PTB  00004                    1400 GW        0000000000005DENSO TEN (THAILAND)190MRVG0017017                                                                                                                              *          20181015 IMCT                IMCT                                                                                                                    WMF1810151.TXT
MDD6JO255547201810                D89828070200PV5620181018000060SPEAKER ASM                   M IMCTM G9F132 TNTH  09020G/WAY G9 PTB  00005                    1530 GW        0000000000005DENSO TEN (THAILAND)190MRTG0018018                                                                                                                              *          20181015 IMCT                IMCT                                                                                                                    WMF1810151.TXT
MDD6JO255548201810                D89828070200PV5620181018000060SPEAKER ASM                   M IMCTM G9F132 TNTH  09020G/WAY G9 PTB  00005                    2100 GW        0000000000005DENSO TEN (THAILAND)190MRVG0015015                                                                                                                              *          20181015 IMCT                IMCT                                                                                                                    WMF1810151.TXT
MDD6JO255549201810                D89828070200PV5620181019000060SPEAKER ASM                   M IMCTM G9F132 TNTH  09020G/WAY G9 PTB  00005                    0330 GW        0000000000005DENSO TEN (THAILAND)190MRKG0006006                                                                                                                              *          20181015 IMCT                IMCT                                                                                                                    WMF1810151.TXT
MDD6JO255550201810                D89828070200PV5620181019000120SPEAKER ASM                   M IMCTM G9F132 TNTH  09020G/WAY G9 PTB  00005                    0900 GW        0000000000005DENSO TEN (THAILAND)190MRKG0007007190MRVG0016016                                                                                                                *          20181015 IMCT                IMCT                                                                                                                    WMF1810151.TXT
MDD6JO255551201810                D89828070200PV5620181019000060SPEAKER ASM                   M IMCTM G9F132 TNTH  09020G/WAY G9 PTB  00005                    1400 GW        0000000000005DENSO TEN (THAILAND)190MRVG0017017                                                                                                                              *          20181015 IMCT                IMCT                                                                                                                    WMF1810151.TXT
MDD6JO255552201810                D89828070300PT5620181018000060SPEAKER ASM                   M IMCTM G9JA33 TNTH  09020G/WAY G9 PTB  00015                    1530 GW        0000000000005DENSO TEN (THAILAND)190MRTG0018018                                                                                                                              *          20181015 IMCT                IMCT                                                                                                                    WMF1810151.TXT
MDD6JO255553201810                D89828070300PT5620181018000060SPEAKER ASM                   M IMCTM G9JA33 TNTH  09020G/WAY G9 PTB  00015                    2100 GW        0000000000005DENSO TEN (THAILAND)190MRVG0015015                                                                                                                              *          20181015 IMCT                IMCT                                                                                                                    WMF1810151.TXT
MDD6JO255554201810                D89828070300PT5620181018000060SPEAKER ASM                   M IMCTM G9JA33 TNTH  09020G/WAY G9 PTB  00015                    2300 GW        0000000000005DENSO TEN (THAILAND)190MPLG0002002                                                                                                                              *          20181015 IMCT                IMCT                                                                                                                    WMF1810151.TXT
MDD6JO255555201810                D89828070300PT5620181019000060SPEAKER ASM                   M IMCTM G9JA33 TNTH  09020G/WAY G9 PTB  00015                    0330 GW        0000000000005DENSO TEN (THAILAND)190MRKG0006006                                                                                                                              *          20181015 IMCT                IMCT                                                                                                                    WMF1810151.TXT
MDD6JO255556201810                D89828070300PT5620181019000120SPEAKER ASM                   M IMCTM G9JA33 TNTH  09020G/WAY G9 PTB  00015                    0900 GW        0000000000005DENSO TEN (THAILAND)190MRKG0007007190MRVG0016016                                                                                                                *          20181015 IMCT                IMCT                                                                                                                    WMF1810151.TXT
MDD6JO255557201810                D89828070300PT5620181019000060SPEAKER ASM                   M IMCTM G9JA33 TNTH  09020G/WAY G9 PTB  00015                    1100 GW        0000000000005DENSO TEN (THAILAND)190MPGG0009009                                                                                                                              *          20181015 IMCT                IMCT                                                                                                                    WMF1810151.TXT
MDD6JO255558201810                D89828070300PT5620181019000060SPEAKER ASM                   M IMCTM G9JA33 TNTH  09020G/WAY G9 PTB  00015                    1400 GW        0000000000005DENSO TEN (THAILAND)190MRVG0017017                                                                                                                              *          20181015 IMCT                IMCT                                                                                                                    WMF1810151.TXT
MDD6JO255559201810                D89831228300PT5620181019000030RADIO;AM/FM,CD                M IMCTM G9J213 TNTH  09020G/WAY G9 CPB  00003                    1100 GW        0000000000005DENSO TEN (THAILAND)190MPGG0009009                                                                                                                              *          20181015 IMCT                IMCT                                                                                                                    WMF1810151.TXT
MDD6JO255560201810                D89848581500PT5620181018000030RADIO;AM/FM CD D              M IMCTM G9J213 TNTH  09020G/WAY G9 PTB  00003                    1530 GW        0000000000005DENSO TEN (THAILAND)190MRTG0018018                                                                                                                              *          20181015 IMCT                IMCT                                                                                                                    WMF1810151.TXT
MDD6JO255561201810                D89848581500PT5620181019000030RADIO;AM/FM CD D              M IMCTM G9J213 TNTH  09020G/WAY G9 PTB  00003                    0330 GW        0000000000005DENSO TEN (THAILAND)190MRKG0006006                                                                                                                              *          20181015 IMCT                IMCT                                                                                                                    WMF1810151.TXT
MDD6JO255562201810                D89848581500PT5620181019000030RADIO;AM/FM CD D              M IMCTM G9J213 TNTH  09020G/WAY G9 PTB  00003                    0900 GW        0000000000005DENSO TEN (THAILAND)190MRKG0007007                                                                                                                              *          20181015 IMCT                IMCT                                                                                                                    WMF1810151.TXT
MDD6JO255563201810                D89848581600PT5620181018000030RADIO;AM/FM CD D              M IMCTM G9J213 TNTH  09020G/WAY G9 PTB  00003                    2300 GW        0000000000005DENSO TEN (THAILAND)190MPLG0002002                                                                                                                              *          20181015 IMCT                IMCT                                                                                                                    WMF1810151.TXT
MDE6JO203666201810                D89828070100PV5620181018000060SPEAKER ASM                   M IMCTM G9B114 TNTH  09020G/WAY G9 PTB  00004                    2300 GW        0000000000005DENSO TEN (THAILAND)18084UG0013013                                                                                                                              *          20181015 IMCT                IMCT                                                                                                                    WMF1810151.TXT
MDE6JO203667201810                D89828070200PV5620181018000060SPEAKER ASM                   M IMCTM G9F132 TNTH  09020G/WAY G9 PTB  00005                    2300 GW        0000000000005DENSO TEN (THAILAND)18084UG0013013                                                                                                                              *          20181015 IMCT                IMCT                                                                                                                    WMF1810151.TXT
MDE6JO203668201810                D89828070300PT5620181018000060SPEAKER ASM                   M IMCTM G9JA33 TNTH  09020G/WAY G9 PTB  00015                    2300 GW        0000000000005DENSO TEN (THAILAND)18084UG0013013                                                                                                                              *          20181015 IMCT                IMCT                                                                                                                    WMF1810151.TXT
