REC2018102720181027ISUZU                              26     
MDD6JO293959201811                D89821984430PT5620181101000030RADIO;AM/FM,CD                M IMCTM G9J213 TNTH  09020G/WAY G9 PTB  00005                    0900 GW        0000000000005DENSO TEN (THAILAND)190MYAG0011011                                                                                                                              *          20181027 IMCT                IMCT                                                                                                                    WMF1810272.TXT
MDD6JO293960201811                D89828070100PV5620181031000120SPEAKER ASM                   M IMCTM G9B114 TNTH  09020G/WAY G9 PTB  00004                    2100 GW        0000000000005DENSO TEN (THAILAND)190MPGG0017017190MRTG0027027                                                                                                                *          20181027 IMCT                IMCT                                                                                                                    WMF1810272.TXT
MDD6JO293961201811                D89828070100PV5620181031000060SPEAKER ASM                   M IMCTM G9B114 TNTH  09020G/WAY G9 PTB  00004                    2300 GW        0000000000005DENSO TEN (THAILAND)190MRWG0014014                                                                                                                              *          20181027 IMCT                IMCT                                                                                                                    WMF1810272.TXT
MDD6JO293962201811                D89828070100PV5620181101000060SPEAKER ASM                   M IMCTM G9B114 TNTH  09020G/WAY G9 PTB  00004                    0200 GW        0000000000005DENSO TEN (THAILAND)190MRWG0015015                                                                                                                              *          20181027 IMCT                IMCT                                                                                                                    WMF1810272.TXT
MDD6JO293963201811                D89828070100PV5620181101000060SPEAKER ASM                   M IMCTM G9B114 TNTH  09020G/WAY G9 PTB  00004                    0330 GW        0000000000005DENSO TEN (THAILAND)190MRPG0006006                                                                                                                              *          20181027 IMCT                IMCT                                                                                                                    WMF1810272.TXT
MDD6JO293964201811                D89828070100PV5620181101000120SPEAKER ASM                   M IMCTM G9B114 TNTH  09020G/WAY G9 PTB  00004                    0900 GW        0000000000005DENSO TEN (THAILAND)190MRJG0010010190MYAG0011011                                                                                                                *          20181027 IMCT                IMCT                                                                                                                    WMF1810272.TXT
MDD6JO293965201811                D89828070100PV5620181101000060SPEAKER ASM                   M IMCTM G9B114 TNTH  09020G/WAY G9 PTB  00004                    1100 GW        0000000000005DENSO TEN (THAILAND)190MRFG0010010                                                                                                                              *          20181027 IMCT                IMCT                                                                                                                    WMF1810272.TXT
MDD6JO293966201811                D89828070100PV5620181101000060SPEAKER ASM                   M IMCTM G9B114 TNTH  09020G/WAY G9 PTB  00004                    1400 GW        0000000000005DENSO TEN (THAILAND)190MRLG0010010                                                                                                                              *          20181027 IMCT                IMCT                                                                                                                    WMF1810272.TXT
MDD6JO293967201811                D89828070200PV5620181031000060SPEAKER ASM                   M IMCTM G9F132 TNTH  09020G/WAY G9 PTB  00005                    2100 GW        0000000000005DENSO TEN (THAILAND)190MRTG0027027                                                                                                                              *          20181027 IMCT                IMCT                                                                                                                    WMF1810272.TXT
MDD6JO293968201811                D89828070200PV5620181031000060SPEAKER ASM                   M IMCTM G9F132 TNTH  09020G/WAY G9 PTB  00005                    2300 GW        0000000000005DENSO TEN (THAILAND)190MRWG0014014                                                                                                                              *          20181027 IMCT                IMCT                                                                                                                    WMF1810272.TXT
MDD6JO293969201811                D89828070200PV5620181101000060SPEAKER ASM                   M IMCTM G9F132 TNTH  09020G/WAY G9 PTB  00005                    0200 GW        0000000000005DENSO TEN (THAILAND)190MRWG0015015                                                                                                                              *          20181027 IMCT                IMCT                                                                                                                    WMF1810272.TXT
MDD6JO293970201811                D89828070200PV5620181101000060SPEAKER ASM                   M IMCTM G9F132 TNTH  09020G/WAY G9 PTB  00005                    0330 GW        0000000000005DENSO TEN (THAILAND)190MRPG0006006                                                                                                                              *          20181027 IMCT                IMCT                                                                                                                    WMF1810272.TXT
MDD6JO293971201811                D89828070200PV5620181101000060SPEAKER ASM                   M IMCTM G9F132 TNTH  09020G/WAY G9 PTB  00005                    0900 GW        0000000000005DENSO TEN (THAILAND)190MRJG0010010                                                                                                                              *          20181027 IMCT                IMCT                                                                                                                    WMF1810272.TXT
MDD6JO293972201811                D89828070200PV5620181101000060SPEAKER ASM                   M IMCTM G9F132 TNTH  09020G/WAY G9 PTB  00005                    1100 GW        0000000000005DENSO TEN (THAILAND)190MRFG0010010                                                                                                                              *          20181027 IMCT                IMCT                                                                                                                    WMF1810272.TXT
MDD6JO293973201811                D89828070200PV5620181101000060SPEAKER ASM                   M IMCTM G9F132 TNTH  09020G/WAY G9 PTB  00005                    1400 GW        0000000000005DENSO TEN (THAILAND)190MRLG0010010                                                                                                                              *          20181027 IMCT                IMCT                                                                                                                    WMF1810272.TXT
MDD6JO293974201811                D89828070300PT5620181031000120SPEAKER ASM                   M IMCTM G9JA33 TNTH  09020G/WAY G9 PTB  00015                    2100 GW        0000000000005DENSO TEN (THAILAND)190MPGG0017017190MRTG0027027                                                                                                                *          20181027 IMCT                IMCT                                                                                                                    WMF1810272.TXT
MDD6JO293975201811                D89828070300PT5620181031000060SPEAKER ASM                   M IMCTM G9JA33 TNTH  09020G/WAY G9 PTB  00015                    2300 GW        0000000000005DENSO TEN (THAILAND)190MRWG0014014                                                                                                                              *          20181027 IMCT                IMCT                                                                                                                    WMF1810272.TXT
MDD6JO293976201811                D89828070300PT5620181101000060SPEAKER ASM                   M IMCTM G9JA33 TNTH  09020G/WAY G9 PTB  00015                    0200 GW        0000000000005DENSO TEN (THAILAND)190MRWG0015015                                                                                                                              *          20181027 IMCT                IMCT                                                                                                                    WMF1810272.TXT
MDD6JO293977201811                D89828070300PT5620181101000060SPEAKER ASM                   M IMCTM G9JA33 TNTH  09020G/WAY G9 PTB  00015                    0330 GW        0000000000005DENSO TEN (THAILAND)190MRPG0006006                                                                                                                              *          20181027 IMCT                IMCT                                                                                                                    WMF1810272.TXT
MDD6JO293978201811                D89828070300PT5620181101000060SPEAKER ASM                   M IMCTM G9JA33 TNTH  09020G/WAY G9 PTB  00015                    0900 GW        0000000000005DENSO TEN (THAILAND)190MRJG0010010                                                                                                                              *          20181027 IMCT                IMCT                                                                                                                    WMF1810272.TXT
MDD6JO293979201811                D89828070300PT5620181101000060SPEAKER ASM                   M IMCTM G9JA33 TNTH  09020G/WAY G9 PTB  00015                    1100 GW        0000000000005DENSO TEN (THAILAND)190MRFG0010010                                                                                                                              *          20181027 IMCT                IMCT                                                                                                                    WMF1810272.TXT
MDD6JO293980201811                D89828070300PT5620181101000060SPEAKER ASM                   M IMCTM G9JA33 TNTH  09020G/WAY G9 PTB  00015                    1400 GW        0000000000005DENSO TEN (THAILAND)190MRLG0010010                                                                                                                              *          20181027 IMCT                IMCT                                                                                                                    WMF1810272.TXT
MDD6JO293981201811                D89831228300PT5620181031000030RADIO;AM/FM,CD                M IMCTM G9J213 TNTH  09020G/WAY G9 CPB  00003                    2100 GW        0000000000005DENSO TEN (THAILAND)190MPGG0017017                                                                                                                              *          20181027 IMCT                IMCT                                                                                                                    WMF1810272.TXT
MDD6JO293982201811                D89831228400PT5620181101000030RADIO;AM/FM,CD                M IMCTM G9J213 TNTH  09020G/WAY G9 CPB  00003                    1100 GW        0000000000005DENSO TEN (THAILAND)190MRFG0010010                                                                                                                              *          20181027 IMCT                IMCT                                                                                                                    WMF1810272.TXT
MDD6JO293983201811                D89848581500PT5620181031000030RADIO;AM/FM CD D              M IMCTM G9J213 TNTH  09020G/WAY G9 PTB  00003                    2100 GW        0000000000005DENSO TEN (THAILAND)190MRTG0027027                                                                                                                              *          20181027 IMCT                IMCT                                                                                                                    WMF1810272.TXT
MDD6JO293984201811                D89848581500PT5620181101000030RADIO;AM/FM CD D              M IMCTM G9J213 TNTH  09020G/WAY G9 PTB  00003                    0900 GW        0000000000005DENSO TEN (THAILAND)190MRJG0010010                                                                                                                              *          20181027 IMCT                IMCT                                                                                                                    WMF1810272.TXT
