REC2018101920181019ISUZU                              66     
MDDDJO315119201810                D89821984430PT1D20181026000030RADIO;AM/FM,CD                M IMCTM S5NC06 TNTH  09020IMCT  S5 PTB  00005                    2230 SR        000000000000 DENSO TEN (THAILAND)190MXFL0001001                                                                                                                              *          20181019 IMCT                IMCT                                                                                                                    WMF1810197.TXT
MDDDJO315120201810                D89821984430PT1D20181027000030RADIO;AM/FM,CD                M IMCTM S5NC06 TNTH  09020IMCT  S5 PTB  00005                    0830 SR        000000000000 DENSO TEN (THAILAND)190MNHL0005005                                                                                                                              *          20181019 IMCT                IMCT                                                                                                                    WMF1810197.TXT
MDDDJO315121201810                D89821984430PT1D20181027000030RADIO;AM/FM,CD                M IMCTM S5NC06 TNTH  09020IMCT  S5 PTB  00005                    1300 SR        000000000000 DENSO TEN (THAILAND)190MRAL0015015                                                                                                                              *          20181019 IMCT                IMCT                                                                                                                    WMF1810197.TXT
MDDDJO315122201810                D89821984430PT1D20181027000030RADIO;AM/FM,CD                M IMCTM S5NC06 TNTH  09020IMCT  S5 PTB  00005                    1600 SR        000000000000 DENSO TEN (THAILAND)190MXDL0001001                                                                                                                              *          20181019 IMCT                IMCT                                                                                                                    WMF1810197.TXT
MDDDJO315123201810                D89828070100PV1D20181026000060SPEAKER ASM                   M IMCTM S5MB11 TNTH  09020IMCT  S5 PTB  00004                    2230 SR        000000000000 DENSO TEN (THAILAND)190MXFL0001001                                                                                                                              *          20181019 IMCT                IMCT                                                                                                                    WMF1810197.TXT
MDDDJO315124201810                D89828070100PV1D20181027000060SPEAKER ASM                   M IMCTM S5MB11 TNTH  09020IMCT  S5 PTB  00004                    0230 SR        000000000000 DENSO TEN (THAILAND)190MPNL0004004                                                                                                                              *          20181019 IMCT                IMCT                                                                                                                    WMF1810197.TXT
MDDDJO315125201810                D89828070100PV1D20181027000060SPEAKER ASM                   M IMCTM S5MB11 TNTH  09020IMCT  S5 PTB  00004                    0830 SR        000000000000 DENSO TEN (THAILAND)190MNHL0005005                                                                                                                              *          20181019 IMCT                IMCT                                                                                                                    WMF1810197.TXT
MDDDJO315126201810                D89828070100PV1D20181027000120SPEAKER ASM                   M IMCTM S5MB11 TNTH  09020IMCT  S5 PTB  00004                    1300 SR        000000000000 DENSO TEN (THAILAND)190MPQL0005005190MRAL0015015                                                                                                                *          20181019 IMCT                IMCT                                                                                                                    WMF1810197.TXT
MDDDJO315127201810                D89828070100PV1D20181027000060SPEAKER ASM                   M IMCTM S5MB11 TNTH  09020IMCT  S5 PTB  00004                    1600 SR        000000000000 DENSO TEN (THAILAND)190MXDL0001001                                                                                                                              *          20181019 IMCT                IMCT                                                                                                                    WMF1810197.TXT
MDDDJO315128201810                D89828070100PV4D20181027000060SPEAKER ASM                   M IMCTM S0FL05 TNTH  09020IMCT  S0 PTB  00004                    0230 SR        000000000000 DENSO TEN (THAILAND)190MRSU0018018                                                                                                                              *          20181019 IMCT                IMCT                                                                                                                    WMF1810197.TXT
MDDDJO315129201810                D89828070100PV4D20181027000060SPEAKER ASM                   M IMCTM S0FL05 TNTH  09020IMCT  S0 PTB  00004                    1300 SR        000000000000 DENSO TEN (THAILAND)190MRVU0009009                                                                                                                              *          20181019 IMCT                IMCT                                                                                                                    WMF1810197.TXT
MDDDJO315130201810                D89828070200PV4D20181027000060SPEAKER ASM                   M IMCTM S0FR05 TNTH  09020IMCT  S0 PTB  00005                    0230 SR        000000000000 DENSO TEN (THAILAND)190MRSU0018018                                                                                                                              *          20181019 IMCT                IMCT                                                                                                                    WMF1810197.TXT
MDDDJO315131201810                D89828070200PV4D20181027000060SPEAKER ASM                   M IMCTM S0FR05 TNTH  09020IMCT  S0 PTB  00005                    1300 SR        000000000000 DENSO TEN (THAILAND)190MRVU0009009                                                                                                                              *          20181019 IMCT                IMCT                                                                                                                    WMF1810197.TXT
MDDDJO315132201810                D89828070300PT1D20181027000060SPEAKER ASM                   M IMCTM S5NB082TNTH  09020IMCT  S5 PTB  00015                    0230 SR        000000000000 DENSO TEN (THAILAND)190MPNL0004004                                                                                                                              *          20181019 IMCT                IMCT                                                                                                                    WMF1810197.TXT
MDDDJO315133201810                D89828070300PT1D20181027000060SPEAKER ASM                   M IMCTM S5NB082TNTH  09020IMCT  S5 PTB  00015                    1300 SR        000000000000 DENSO TEN (THAILAND)190MPQL0005005                                                                                                                              *          20181019 IMCT                IMCT                                                                                                                    WMF1810197.TXT
MDDDJO315134201810                D89828070300PT4D20181027000060SPEAKER ASM                   M IMCTM S9TS02 TNTH  09020IMCT  S9 PTB  00015                    0230 SR        000000000000 DENSO TEN (THAILAND)190MRSU0018018                                                                                                                              *          20181019 IMCT                IMCT                                                                                                                    WMF1810197.TXT
MDDDJO315135201810                D89828070300PT4D20181027000060SPEAKER ASM                   M IMCTM S9TS02 TNTH  09020IMCT  S9 PTB  00015                    1300 SR        000000000000 DENSO TEN (THAILAND)190MRVU0009009                                                                                                                              *          20181019 IMCT                IMCT                                                                                                                    WMF1810197.TXT
MDDDJO315136201810                D89848581600PT1D20181027000030RADIO;AM/FM CD D              M IMCTM S5NC06 TNTH  09020IMCT  S5 PTB  00003                    1300 SR        000000000000 DENSO TEN (THAILAND)190MPQL0005005                                                                                                                              *          20181019 IMCT                IMCT                                                                                                                    WMF1810197.TXT
MDDUJO234781201810                D89828070100PT4U20181027000030SPEAKER ASM                   M IMCTM S0FL05 TNTH  09020IMCT  S0 PTB  00004                    0400 SR        000000000000 DENSO TEN (THAILAND)180LURU0085085                                                                                                                              *          20181019 IMCT                IMCT                                                                                                                    WMF1810197.TXT
MDDUJO234782201810                D89828070100PT4U20181027000030SPEAKER ASM                   M IMCTM S0FL05 TNTH  09020IMCT  S0 PTB  00004                    2100 SR        000000000000 DENSO TEN (THAILAND)180LUTU0128128                                                                                                                              *          20181019 IMCT                IMCT                                                                                                                    WMF1810197.TXT
MDDUJO234783201810                D89828070200PV4U20181027000030SPEAKER ASM                   M IMCTM S0FR05 TNTH  09020IMCT  S0 PTB  00005                    0400 SR        000000000000 DENSO TEN (THAILAND)180LURU0085085                                                                                                                              *          20181019 IMCT                IMCT                                                                                                                    WMF1810197.TXT
MDDUJO234784201810                D89828070200PV4U20181027000030SPEAKER ASM                   M IMCTM S0FR05 TNTH  09020IMCT  S0 PTB  00005                    2100 SR        000000000000 DENSO TEN (THAILAND)180LUTU0128128                                                                                                                              *          20181019 IMCT                IMCT                                                                                                                    WMF1810197.TXT
MDDUJO234785201810                D89828070300PT4U20181027000030SPEAKER ASM                   M IMCTM S9TS02 TNTH  09020IMCT  S9 PTB  00015                    0400 SR        000000000000 DENSO TEN (THAILAND)180LURU0085085                                                                                                                              *          20181019 IMCT                IMCT                                                                                                                    WMF1810197.TXT
MDDUJO234786201810                D89828070300PT4U20181027000030SPEAKER ASM                   M IMCTM S9TS02 TNTH  09020IMCT  S9 PTB  00015                    2100 SR        000000000000 DENSO TEN (THAILAND)180LUTU0128128                                                                                                                              *          20181019 IMCT                IMCT                                                                                                                    WMF1810197.TXT
MDEDJO308167201810                D89828070100PV1D20181026000030SPEAKER ASM                   M IMCTM S5MB11 TNTH  09020IMCT  S5 PTB  00004                    2230 SR        000000000000 DENSO TEN (THAILAND)18098XL0043043                                                                                                                              *          20181019 IMCT                IMCT                                                                                                                    WMF1810197.TXT
MDEDJO308168201810                D89828070100PV1D20181027000030SPEAKER ASM                   M IMCTM S5MB11 TNTH  09020IMCT  S5 PTB  00004                    0230 SR        000000000000 DENSO TEN (THAILAND)18098XL0044044                                                                                                                              *          20181019 IMCT                IMCT                                                                                                                    WMF1810197.TXT
MDEDJO308169201810                D89828070100PV1D20181027000090SPEAKER ASM                   M IMCTM S5MB11 TNTH  09020IMCT  S5 PTB  00004                    0400 SR        000000000000 DENSO TEN (THAILAND)18065UL002502518098XL0045046                                                                                                                *          20181019 IMCT                IMCT                                                                                                                    WMF1810197.TXT
MDEDJO308170201810                D89828070100PV1D20181027000030SPEAKER ASM                   M IMCTM S5MB11 TNTH  09020IMCT  S5 PTB  00004                    0830 SR        000000000000 DENSO TEN (THAILAND)18065UL0026026                                                                                                                              *          20181019 IMCT                IMCT                                                                                                                    WMF1810197.TXT
MDEDJO308171201810                D89828070100PV1D20181027000060SPEAKER ASM                   M IMCTM S5MB11 TNTH  09020IMCT  S5 PTB  00004                    1030 SR        000000000000 DENSO TEN (THAILAND)18066UL0019020                                                                                                                              *          20181019 IMCT                IMCT                                                                                                                    WMF1810197.TXT
MDEDJO308172201810                D89828070100PV1D20181027000060SPEAKER ASM                   M IMCTM S5MB11 TNTH  09020IMCT  S5 PTB  00004                    1600 SR        000000000000 DENSO TEN (THAILAND)18099UL0110111                                                                                                                              *          20181019 IMCT                IMCT                                                                                                                    WMF1810197.TXT
MDEDJO308173201810                D89828070100PV1D20181027000030SPEAKER ASM                   M IMCTM S5MB11 TNTH  09020IMCT  S5 PTB  00004                    2100 SR        000000000000 DENSO TEN (THAILAND)18001VL0057057                                                                                                                              *          20181019 IMCT                IMCT                                                                                                                    WMF1810197.TXT
MDEDJO308174201810                D89828070100PV1D20181027000030SPEAKER ASM                   M IMCTM S5MB11 TNTH  09020IMCT  S5 PTB  00004                    2230 SR        000000000000 DENSO TEN (THAILAND)18001VL0058058                                                                                                                              *          20181019 IMCT                IMCT                                                                                                                    WMF1810197.TXT
MDEDJO308175201810                D89828070100PV4D20181027000030SPEAKER ASM                   M IMCTM S0FL05 TNTH  09020IMCT  S0 PTB  00004                    1600 SR        000000000000 DENSO TEN (THAILAND)180J68U0001001                                                                                                                              *          20181019 IMCT                IMCT                                                                                                                    WMF1810197.TXT
MDEDJO308176201810                D89828070200PV1D20181026000030SPEAKER ASM                   M IMCTM S5MA14 TNTH  09020IMCT  S5 PTB  00005                    2230 SR        000000000000 DENSO TEN (THAILAND)18098XL0043043                                                                                                                              *          20181019 IMCT                IMCT                                                                                                                    WMF1810197.TXT
MDEDJO308177201810                D89828070200PV1D20181027000030SPEAKER ASM                   M IMCTM S5MA14 TNTH  09020IMCT  S5 PTB  00005                    0230 SR        000000000000 DENSO TEN (THAILAND)18098XL0044044                                                                                                                              *          20181019 IMCT                IMCT                                                                                                                    WMF1810197.TXT
MDEDJO308178201810                D89828070200PV1D20181027000090SPEAKER ASM                   M IMCTM S5MA14 TNTH  09020IMCT  S5 PTB  00005                    0400 SR        000000000000 DENSO TEN (THAILAND)18065UL002502518098XL0045046                                                                                                                *          20181019 IMCT                IMCT                                                                                                                    WMF1810197.TXT
MDEDJO308179201810                D89828070200PV1D20181027000030SPEAKER ASM                   M IMCTM S5MA14 TNTH  09020IMCT  S5 PTB  00005                    0830 SR        000000000000 DENSO TEN (THAILAND)18065UL0026026                                                                                                                              *          20181019 IMCT                IMCT                                                                                                                    WMF1810197.TXT
MDEDJO308180201810                D89828070200PV1D20181027000060SPEAKER ASM                   M IMCTM S5MA14 TNTH  09020IMCT  S5 PTB  00005                    1030 SR        000000000000 DENSO TEN (THAILAND)18066UL0019020                                                                                                                              *          20181019 IMCT                IMCT                                                                                                                    WMF1810197.TXT
MDEDJO308181201810                D89828070200PV1D20181027000060SPEAKER ASM                   M IMCTM S5MA14 TNTH  09020IMCT  S5 PTB  00005                    1600 SR        000000000000 DENSO TEN (THAILAND)18099UL0110111                                                                                                                              *          20181019 IMCT                IMCT                                                                                                                    WMF1810197.TXT
MDEDJO308182201810                D89828070200PV1D20181027000030SPEAKER ASM                   M IMCTM S5MA14 TNTH  09020IMCT  S5 PTB  00005                    2100 SR        000000000000 DENSO TEN (THAILAND)18001VL0057057                                                                                                                              *          20181019 IMCT                IMCT                                                                                                                    WMF1810197.TXT
MDEDJO308183201810                D89828070200PV1D20181027000030SPEAKER ASM                   M IMCTM S5MA14 TNTH  09020IMCT  S5 PTB  00005                    2230 SR        000000000000 DENSO TEN (THAILAND)18001VL0058058                                                                                                                              *          20181019 IMCT                IMCT                                                                                                                    WMF1810197.TXT
MDEDJO308184201810                D89828070200PV4D20181027000030SPEAKER ASM                   M IMCTM S0FR05 TNTH  09020IMCT  S0 PTB  00005                    1600 SR        000000000000 DENSO TEN (THAILAND)180J68U0001001                                                                                                                              *          20181019 IMCT                IMCT                                                                                                                    WMF1810197.TXT
MDEDJO308185201810                D89828070300PT1D20181026000030SPEAKER ASM                   M IMCTM S5NB082TNTH  09020IMCT  S5 PTB  00015                    2230 SR        000000000000 DENSO TEN (THAILAND)18098XL0043043                                                                                                                              *          20181019 IMCT                IMCT                                                                                                                    WMF1810197.TXT
MDEDJO308186201810                D89828070300PT1D20181027000030SPEAKER ASM                   M IMCTM S5NB082TNTH  09020IMCT  S5 PTB  00015                    0230 SR        000000000000 DENSO TEN (THAILAND)18098XL0044044                                                                                                                              *          20181019 IMCT                IMCT                                                                                                                    WMF1810197.TXT
MDEDJO308187201810                D89828070300PT1D20181027000090SPEAKER ASM                   M IMCTM S5NB082TNTH  09020IMCT  S5 PTB  00015                    0400 SR        000000000000 DENSO TEN (THAILAND)18065UL002502518098XL0045046                                                                                                                *          20181019 IMCT                IMCT                                                                                                                    WMF1810197.TXT
MDEDJO308188201810                D89828070300PT1D20181027000030SPEAKER ASM                   M IMCTM S5NB082TNTH  09020IMCT  S5 PTB  00015                    0830 SR        000000000000 DENSO TEN (THAILAND)18065UL0026026                                                                                                                              *          20181019 IMCT                IMCT                                                                                                                    WMF1810197.TXT
MDEDJO308189201810                D89828070300PT1D20181027000060SPEAKER ASM                   M IMCTM S5NB082TNTH  09020IMCT  S5 PTB  00015                    1030 SR        000000000000 DENSO TEN (THAILAND)18066UL0019020                                                                                                                              *          20181019 IMCT                IMCT                                                                                                                    WMF1810197.TXT
MDEDJO308190201810                D89828070300PT1D20181027000060SPEAKER ASM                   M IMCTM S5NB082TNTH  09020IMCT  S5 PTB  00015                    1600 SR        000000000000 DENSO TEN (THAILAND)18099UL0110111                                                                                                                              *          20181019 IMCT                IMCT                                                                                                                    WMF1810197.TXT
MDEDJO308191201810                D89828070300PT1D20181027000030SPEAKER ASM                   M IMCTM S5NB082TNTH  09020IMCT  S5 PTB  00015                    2100 SR        000000000000 DENSO TEN (THAILAND)18001VL0057057                                                                                                                              *          20181019 IMCT                IMCT                                                                                                                    WMF1810197.TXT
MDEDJO308192201810                D89828070300PT1D20181027000030SPEAKER ASM                   M IMCTM S5NB082TNTH  09020IMCT  S5 PTB  00015                    2230 SR        000000000000 DENSO TEN (THAILAND)18001VL0058058                                                                                                                              *          20181019 IMCT                IMCT                                                                                                                    WMF1810197.TXT
MDEDJO308193201810                D89828070300PT4D20181027000030SPEAKER ASM                   M IMCTM S9TS02 TNTH  09020IMCT  S9 PTB  00015                    1600 SR        000000000000 DENSO TEN (THAILAND)180J68U0001001                                                                                                                              *          20181019 IMCT                IMCT                                                                                                                    WMF1810197.TXT
MDEDJO308194201810                D89848581800PT1D20181027000015RADIO;AM/FM CD D              M IMCTM S5NC06 TNTH  09020IMCT  S5 PTB  00003                    0400 SR        000000000000 DENSO TEN (THAILAND)18065UL0025025                                                                                                                              *          20181019 IMCT                IMCT                                                                                                                    WMF1810197.TXT
MDEDJO308195201810                D89848581800PT1D20181027000015RADIO;AM/FM CD D              M IMCTM S5NC06 TNTH  09020IMCT  S5 PTB  00003                    0830 SR        000000000000 DENSO TEN (THAILAND)18065UL0026026                                                                                                                              *          20181019 IMCT                IMCT                                                                                                                    WMF1810197.TXT
MDEDJO308196201810                D89848581800PT1D20181027000030RADIO;AM/FM CD D              M IMCTM S5NC06 TNTH  09020IMCT  S5 PTB  00003                    1030 SR        000000000000 DENSO TEN (THAILAND)18066UL0019020                                                                                                                              *          20181019 IMCT                IMCT                                                                                                                    WMF1810197.TXT
MDEDJO308197201810                D89848582100PT1D20181026000015RADIO;AM/FM CD D              M IMCTM S5NC06 TNTH  09020IMCT  S5 PTB  00003                    2230 SR        000000000000 DENSO TEN (THAILAND)18098XL0043043                                                                                                                              *          20181019 IMCT                IMCT                                                                                                                    WMF1810197.TXT
MDEDJO308198201810                D89848582100PT1D20181027000015RADIO;AM/FM CD D              M IMCTM S5NC06 TNTH  09020IMCT  S5 PTB  00003                    0230 SR        000000000000 DENSO TEN (THAILAND)18098XL0044044                                                                                                                              *          20181019 IMCT                IMCT                                                                                                                    WMF1810197.TXT
MDEDJO308199201810                D89848582100PT1D20181027000030RADIO;AM/FM CD D              M IMCTM S5NC06 TNTH  09020IMCT  S5 PTB  00003                    0400 SR        000000000000 DENSO TEN (THAILAND)18098XL0045046                                                                                                                              *          20181019 IMCT                IMCT                                                                                                                    WMF1810197.TXT
MDEUJO246279201810                D89828070100PT4U20181027000030SPEAKER ASM                   M IMCTM S0FL05 TNTH  09020IMCT  S0 PTB  00004                    0230 SR        000000000000 DENSO TEN (THAILAND)18016UU0053053                                                                                                                              *          20181019 IMCT                IMCT                                                                                                                    WMF1810197.TXT
MDEUJO246280201810                D89828070100PT4U20181027000030SPEAKER ASM                   M IMCTM S0FL05 TNTH  09020IMCT  S0 PTB  00004                    1030 SR        000000000000 DENSO TEN (THAILAND)18021UU0220220                                                                                                                              *          20181019 IMCT                IMCT                                                                                                                    WMF1810197.TXT
MDEUJO246281201810                D89828070100PT4U20181027000030SPEAKER ASM                   M IMCTM S0FL05 TNTH  09020IMCT  S0 PTB  00004                    1600 SR        000000000000 DENSO TEN (THAILAND)18015UU0054054                                                                                                                              *          20181019 IMCT                IMCT                                                                                                                    WMF1810197.TXT
MDEUJO246282201810                D89828070200PV4U20181027000030SPEAKER ASM                   M IMCTM S0FR05 TNTH  09020IMCT  S0 PTB  00005                    0230 SR        000000000000 DENSO TEN (THAILAND)18016UU0053053                                                                                                                              *          20181019 IMCT                IMCT                                                                                                                    WMF1810197.TXT
MDEUJO246283201810                D89828070200PV4U20181027000030SPEAKER ASM                   M IMCTM S0FR05 TNTH  09020IMCT  S0 PTB  00005                    1030 SR        000000000000 DENSO TEN (THAILAND)18021UU0220220                                                                                                                              *          20181019 IMCT                IMCT                                                                                                                    WMF1810197.TXT
MDEUJO246284201810                D89828070200PV4U20181027000030SPEAKER ASM                   M IMCTM S0FR05 TNTH  09020IMCT  S0 PTB  00005                    1600 SR        000000000000 DENSO TEN (THAILAND)18015UU0054054                                                                                                                              *          20181019 IMCT                IMCT                                                                                                                    WMF1810197.TXT
MDEUJO246285201810                D89828070300PT4U20181027000030SPEAKER ASM                   M IMCTM S9TS02 TNTH  09020IMCT  S9 PTB  00015                    0230 SR        000000000000 DENSO TEN (THAILAND)18016UU0053053                                                                                                                              *          20181019 IMCT                IMCT                                                                                                                    WMF1810197.TXT
MDEUJO246286201810                D89828070300PT4U20181027000030SPEAKER ASM                   M IMCTM S9TS02 TNTH  09020IMCT  S9 PTB  00015                    1030 SR        000000000000 DENSO TEN (THAILAND)18021UU0220220                                                                                                                              *          20181019 IMCT                IMCT                                                                                                                    WMF1810197.TXT
MDEUJO246287201810                D89828070300PT4U20181027000030SPEAKER ASM                   M IMCTM S9TS02 TNTH  09020IMCT  S9 PTB  00015                    1600 SR        000000000000 DENSO TEN (THAILAND)18015UU0054054                                                                                                                              *          20181019 IMCT                IMCT                                                                                                                    WMF1810197.TXT
