REC2018102520181025ISUZU                              20     
MAKK8O090214201810D1               89825451200P3YK20181105000060SPEAKER ASM;ROOF              M IMCTM CM1    TNTH  09020IMKDC KA PTB  00036  K0                0911DES        000000000000 DENSO TEN (THAILAND)                                                                                                                                            *G         20181025 IMCT                IMCT                                                                                                                    WMF1810257.TXT
MAKK8O090215201810D1               89825451200P3YK20181106000060SPEAKER ASM;ROOF              M IMCTM CM1    TNTH  09020IMKDC KA PTB  00036  K0                0911DES        000000000000 DENSO TEN (THAILAND)                                                                                                                                            *G         20181025 IMCT                IMCT                                                                                                                    WMF1810257.TXT
MAKK8O090216201810D1               89825451200P3YK20181109000030SPEAKER ASM;ROOF              M IMCTM CM1    TNTH  09020IMKDC KA PTB  00036  K0                0911DES        000000000000 DENSO TEN (THAILAND)                                                                                                                                            *G         20181025 IMCT                IMCT                                                                                                                    WMF1810257.TXT
MAKK8O090217201810D1               89825451200P3YK20181110000060SPEAKER ASM;ROOF              M IMCTM CM1    TNTH  09020IMKDC KA PTB  00036  K0                0911DES        000000000000 DENSO TEN (THAILAND)                                                                                                                                            *G         20181025 IMCT                IMCT                                                                                                                    WMF1810257.TXT
MAKK8O090218201810D1               89828070100P3YK20181105000240SPEAKER ASM                   M IMCTM CM1    TNTH  09020IMKDC KA PTB  00004  K0                0911DES        000000000000 DENSO TEN (THAILAND)                                                                                                                                            *G         20181025 IMCT                IMCT                                                                                                                    WMF1810257.TXT
MAKK8O090219201810D1               89828070100P3YK20181106000240SPEAKER ASM                   M IMCTM CM1    TNTH  09020IMKDC KA PTB  00004  K0                0911DES        000000000000 DENSO TEN (THAILAND)                                                                                                                                            *G         20181025 IMCT                IMCT                                                                                                                    WMF1810257.TXT
MAKK8O090220201810D1               89828070100P3YK20181107000240SPEAKER ASM                   M IMCTM CM1    TNTH  09020IMKDC KA PTB  00004  K0                0911DES        000000000000 DENSO TEN (THAILAND)                                                                                                                                            *G         20181025 IMCT                IMCT                                                                                                                    WMF1810257.TXT
MAKK8O090221201810D1               89828070100P3YK20181108000240SPEAKER ASM                   M IMCTM CM1    TNTH  09020IMKDC KA PTB  00004  K0                0911DES        000000000000 DENSO TEN (THAILAND)                                                                                                                                            *G         20181025 IMCT                IMCT                                                                                                                    WMF1810257.TXT
MAKK8O090222201810D1               89828070100P3YK20181109000270SPEAKER ASM                   M IMCTM CM1    TNTH  09020IMKDC KA PTB  00004  K0                0911DES        000000000000 DENSO TEN (THAILAND)                                                                                                                                            *G         20181025 IMCT                IMCT                                                                                                                    WMF1810257.TXT
MAKK8O090223201810D1               89828070100P3YK20181110000300SPEAKER ASM                   M IMCTM CM1    TNTH  09020IMKDC KA PTB  00004  K0                0911DES        000000000000 DENSO TEN (THAILAND)                                                                                                                                            *G         20181025 IMCT                IMCT                                                                                                                    WMF1810257.TXT
MAKK8O090224201810D1               89828070200P3YK20181105000030SPEAKER ASM                   M IMCTM CM1    TNTH  09020IMKDC KA PTB  00005  K0                0911DES        000000000000 DENSO TEN (THAILAND)                                                                                                                                            *G         20181025 IMCT                IMCT                                                                                                                    WMF1810257.TXT
MAKK8O090225201810D1               89828070200P3YK20181106000090SPEAKER ASM                   M IMCTM CM1    TNTH  09020IMKDC KA PTB  00005  K0                0911DES        000000000000 DENSO TEN (THAILAND)                                                                                                                                            *G         20181025 IMCT                IMCT                                                                                                                    WMF1810257.TXT
MAKK8O090226201810D1               89828070200P3YK20181108000030SPEAKER ASM                   M IMCTM CM1    TNTH  09020IMKDC KA PTB  00005  K0                0911DES        000000000000 DENSO TEN (THAILAND)                                                                                                                                            *G         20181025 IMCT                IMCT                                                                                                                    WMF1810257.TXT
MAKK8O090227201810D1               89828070200P3YK20181109000090SPEAKER ASM                   M IMCTM CM1    TNTH  09020IMKDC KA PTB  00005  K0                0911DES        000000000000 DENSO TEN (THAILAND)                                                                                                                                            *G         20181025 IMCT                IMCT                                                                                                                    WMF1810257.TXT
MAKK8O090228201810D1               89828070200P3YK20181110000120SPEAKER ASM                   M IMCTM CM1    TNTH  09020IMKDC KA PTB  00005  K0                0911DES        000000000000 DENSO TEN (THAILAND)                                                                                                                                            *G         20181025 IMCT                IMCT                                                                                                                    WMF1810257.TXT
MAKK8O090229201810D1               89828070300P3YK20181105000060SPEAKER ASM                   M IMCTM CM1    TNTH  09020IMKDC KA PTB  00015  K0                0911DES        000000000000 DENSO TEN (THAILAND)                                                                                                                                            *G         20181025 IMCT                IMCT                                                                                                                    WMF1810257.TXT
MAKK8O090230201810D1               89828070300P3YK20181106000090SPEAKER ASM                   M IMCTM CM1    TNTH  09020IMKDC KA PTB  00015  K0                0911DES        000000000000 DENSO TEN (THAILAND)                                                                                                                                            *G         20181025 IMCT                IMCT                                                                                                                    WMF1810257.TXT
MAKK8O090231201810D1               89828070300P3YK20181108000030SPEAKER ASM                   M IMCTM CM1    TNTH  09020IMKDC KA PTB  00015  K0                0911DES        000000000000 DENSO TEN (THAILAND)                                                                                                                                            *G         20181025 IMCT                IMCT                                                                                                                    WMF1810257.TXT
MAKK8O090232201810D1               89828070300P3YK20181109000090SPEAKER ASM                   M IMCTM CM1    TNTH  09020IMKDC KA PTB  00015  K0                0911DES        000000000000 DENSO TEN (THAILAND)                                                                                                                                            *G         20181025 IMCT                IMCT                                                                                                                    WMF1810257.TXT
MAKK8O090233201810D1               89828070300P3YK20181110000120SPEAKER ASM                   M IMCTM CM1    TNTH  09020IMKDC KA PTB  00015  K0                0911DES        000000000000 DENSO TEN (THAILAND)                                                                                                                                            *G         20181025 IMCT                IMCT                                                                                                                    WMF1810257.TXT
