REC2018101020181010ISUZU                              63     
MDDDJO261676201810                D89821984430PT1D20181015000030RADIO;AM/FM,CD                M IMCTM S5NC06 TNTH  09020IMCT  S5 PTB  00005                    0830 SR        000000000000 DENSO TEN (THAILAND)190MXCL0003003                                                                                                                              *          20181010 IMCT                IMCT                                                                                                                    WMF1810105.TXT
MDDDJO261677201810                D89821984430PT1D20181015000030RADIO;AM/FM,CD                M IMCTM S5NC06 TNTH  09020IMCT  S5 PTB  00005                    1600 SR        000000000000 DENSO TEN (THAILAND)190MRAL0007007                                                                                                                              *          20181010 IMCT                IMCT                                                                                                                    WMF1810105.TXT
MDDDJO261678201810                D89828070100PV1D20181014000060SPEAKER ASM                   M IMCTM S5MB11 TNTH  09020IMCT  S5 PTB  00004                    0230 SR        000000000000 DENSO TEN (THAILAND)190MPKL0006006                                                                                                                              *          20181010 IMCT                IMCT                                                                                                                    WMF1810105.TXT
MDDDJO261679201810                D89828070100PV1D20181015000060SPEAKER ASM                   M IMCTM S5MB11 TNTH  09020IMCT  S5 PTB  00004                    0830 SR        000000000000 DENSO TEN (THAILAND)190MXCL0003003                                                                                                                              *          20181010 IMCT                IMCT                                                                                                                    WMF1810105.TXT
MDDDJO261680201810                D89828070100PV1D20181015000060SPEAKER ASM                   M IMCTM S5MB11 TNTH  09020IMCT  S5 PTB  00004                    1300 SR        000000000000 DENSO TEN (THAILAND)190MPJL0003003                                                                                                                              *          20181010 IMCT                IMCT                                                                                                                    WMF1810105.TXT
MDDDJO261681201810                D89828070100PV1D20181015000120SPEAKER ASM                   M IMCTM S5MB11 TNTH  09020IMCT  S5 PTB  00004                    1600 SR        000000000000 DENSO TEN (THAILAND)190MPGL0019019190MRAL0007007                                                                                                                *          20181010 IMCT                IMCT                                                                                                                    WMF1810105.TXT
MDDDJO261682201810                D89828070100PV4D20181014000060SPEAKER ASM                   M IMCTM S0FL05 TNTH  09020IMCT  S0 PTB  00004                    0400 SR        000000000000 DENSO TEN (THAILAND)190MRSU0010010                                                                                                                              *          20181010 IMCT                IMCT                                                                                                                    WMF1810105.TXT
MDDDJO261683201810                D89828070100PV4D20181015000060SPEAKER ASM                   M IMCTM S0FL05 TNTH  09020IMCT  S0 PTB  00004                    1300 SR        000000000000 DENSO TEN (THAILAND)190MRHU0005005                                                                                                                              *          20181010 IMCT                IMCT                                                                                                                    WMF1810105.TXT
MDDDJO261684201810                D89828070100PV4D20181015000060SPEAKER ASM                   M IMCTM S0FL05 TNTH  09020IMCT  S0 PTB  00004                    2100 SR        000000000000 DENSO TEN (THAILAND)190MRTU0011011                                                                                                                              *          20181010 IMCT                IMCT                                                                                                                    WMF1810105.TXT
MDDDJO261685201810                D89828070200PV4D20181014000060SPEAKER ASM                   M IMCTM S0FR05 TNTH  09020IMCT  S0 PTB  00005                    0400 SR        000000000000 DENSO TEN (THAILAND)190MRSU0010010                                                                                                                              *          20181010 IMCT                IMCT                                                                                                                    WMF1810105.TXT
MDDDJO261686201810                D89828070200PV4D20181015000060SPEAKER ASM                   M IMCTM S0FR05 TNTH  09020IMCT  S0 PTB  00005                    1300 SR        000000000000 DENSO TEN (THAILAND)190MRHU0005005                                                                                                                              *          20181010 IMCT                IMCT                                                                                                                    WMF1810105.TXT
MDDDJO261687201810                D89828070200PV4D20181015000060SPEAKER ASM                   M IMCTM S0FR05 TNTH  09020IMCT  S0 PTB  00005                    2100 SR        000000000000 DENSO TEN (THAILAND)190MRTU0011011                                                                                                                              *          20181010 IMCT                IMCT                                                                                                                    WMF1810105.TXT
MDDDJO261688201810                D89828070300PT1D20181014000060SPEAKER ASM                   M IMCTM S5NB082TNTH  09020IMCT  S5 PTB  00015                    0230 SR        000000000000 DENSO TEN (THAILAND)190MPKL0006006                                                                                                                              *          20181010 IMCT                IMCT                                                                                                                    WMF1810105.TXT
MDDDJO261689201810                D89828070300PT1D20181015000060SPEAKER ASM                   M IMCTM S5NB082TNTH  09020IMCT  S5 PTB  00015                    1300 SR        000000000000 DENSO TEN (THAILAND)190MPJL0003003                                                                                                                              *          20181010 IMCT                IMCT                                                                                                                    WMF1810105.TXT
MDDDJO261690201810                D89828070300PT1D20181015000060SPEAKER ASM                   M IMCTM S5NB082TNTH  09020IMCT  S5 PTB  00015                    1600 SR        000000000000 DENSO TEN (THAILAND)190MPGL0019019                                                                                                                              *          20181010 IMCT                IMCT                                                                                                                    WMF1810105.TXT
MDDDJO261691201810                D89828070300PT4D20181014000060SPEAKER ASM                   M IMCTM S9TS02 TNTH  09020IMCT  S9 PTB  00015                    0400 SR        000000000000 DENSO TEN (THAILAND)190MRSU0010010                                                                                                                              *          20181010 IMCT                IMCT                                                                                                                    WMF1810105.TXT
MDDDJO261692201810                D89828070300PT4D20181015000060SPEAKER ASM                   M IMCTM S9TS02 TNTH  09020IMCT  S9 PTB  00015                    1300 SR        000000000000 DENSO TEN (THAILAND)190MRHU0005005                                                                                                                              *          20181010 IMCT                IMCT                                                                                                                    WMF1810105.TXT
MDDDJO261693201810                D89828070300PT4D20181015000060SPEAKER ASM                   M IMCTM S9TS02 TNTH  09020IMCT  S9 PTB  00015                    2100 SR        000000000000 DENSO TEN (THAILAND)190MRTU0011011                                                                                                                              *          20181010 IMCT                IMCT                                                                                                                    WMF1810105.TXT
MDDDJO261694201810                D89831228300PT1D20181015000030RADIO;AM/FM,CD                M IMCTM S5NC06 TNTH  09020IMCT  S5 CPB  00003                    1300 SR        000000000000 DENSO TEN (THAILAND)190MPJL0003003                                                                                                                              *          20181010 IMCT                IMCT                                                                                                                    WMF1810105.TXT
MDDDJO261695201810                D89831228300PT1D20181015000030RADIO;AM/FM,CD                M IMCTM S5NC06 TNTH  09020IMCT  S5 CPB  00003                    1600 SR        000000000000 DENSO TEN (THAILAND)190MPGL0019019                                                                                                                              *          20181010 IMCT                IMCT                                                                                                                    WMF1810105.TXT
MDDDJO261696201810                D89848581500PT4D20181015000030RADIO;AM/FM CD D              M IMCTM S9CO001TNTH  09020IMCT  S9 PTB  00003                    1300 SR        000000000000 DENSO TEN (THAILAND)190MRHU0005005                                                                                                                              *          20181010 IMCT                IMCT                                                                                                                    WMF1810105.TXT
MDDDJO261697201810                D89848581500PT4D20181015000030RADIO;AM/FM CD D              M IMCTM S9CO001TNTH  09020IMCT  S9 PTB  00003                    2100 SR        000000000000 DENSO TEN (THAILAND)190MRTU0011011                                                                                                                              *          20181010 IMCT                IMCT                                                                                                                    WMF1810105.TXT
MDDDJO261698201810                D89848581600PT1D20181014000030RADIO;AM/FM CD D              M IMCTM S5NC06 TNTH  09020IMCT  S5 PTB  00003                    0230 SR        000000000000 DENSO TEN (THAILAND)190MPKL0006006                                                                                                                              *          20181010 IMCT                IMCT                                                                                                                    WMF1810105.TXT
MDDUJO216220201810                D89828070100PT4U20181015000030SPEAKER ASM                   M IMCTM S0FL05 TNTH  09020IMCT  S0 PTB  00004                    0830 SR        000000000000 DENSO TEN (THAILAND)180LUSU0183183                                                                                                                              *          20181010 IMCT                IMCT                                                                                                                    WMF1810105.TXT
MDDUJO216221201810                D89828070100PT4U20181015000030SPEAKER ASM                   M IMCTM S0FL05 TNTH  09020IMCT  S0 PTB  00004                    1600 SR        000000000000 DENSO TEN (THAILAND)180LUSU0184184                                                                                                                              *          20181010 IMCT                IMCT                                                                                                                    WMF1810105.TXT
MDDUJO216222201810                D89828070200PV4U20181015000030SPEAKER ASM                   M IMCTM S0FR05 TNTH  09020IMCT  S0 PTB  00005                    0830 SR        000000000000 DENSO TEN (THAILAND)180LUSU0183183                                                                                                                              *          20181010 IMCT                IMCT                                                                                                                    WMF1810105.TXT
MDDUJO216223201810                D89828070200PV4U20181015000030SPEAKER ASM                   M IMCTM S0FR05 TNTH  09020IMCT  S0 PTB  00005                    1600 SR        000000000000 DENSO TEN (THAILAND)180LUSU0184184                                                                                                                              *          20181010 IMCT                IMCT                                                                                                                    WMF1810105.TXT
MDDUJO216224201810                D89828070300PT4U20181015000030SPEAKER ASM                   M IMCTM S9TS02 TNTH  09020IMCT  S9 PTB  00015                    0830 SR        000000000000 DENSO TEN (THAILAND)180LUSU0183183                                                                                                                              *          20181010 IMCT                IMCT                                                                                                                    WMF1810105.TXT
MDDUJO216225201810                D89828070300PT4U20181015000030SPEAKER ASM                   M IMCTM S9TS02 TNTH  09020IMCT  S9 PTB  00015                    1600 SR        000000000000 DENSO TEN (THAILAND)180LUSU0184184                                                                                                                              *          20181010 IMCT                IMCT                                                                                                                    WMF1810105.TXT
MDEDJO248009201810                D89828070100PV1D20181013000060SPEAKER ASM                   M IMCTM S5MB11 TNTH  09020IMCT  S5 PTB  00004                    2230 SR        000000000000 DENSO TEN (THAILAND)17033QL0111112                                                                                                                              *          20181010 IMCT                IMCT                                                                                                                    WMF1810105.TXT
MDEDJO248010201810                D89828070100PV1D20181014000060SPEAKER ASM                   M IMCTM S5MB11 TNTH  09020IMCT  S5 PTB  00004                    0230 SR        000000000000 DENSO TEN (THAILAND)18033XL0003003190F84L0001001                                                                                                                *          20181010 IMCT                IMCT                                                                                                                    WMF1810105.TXT
MDEDJO248011201810                D89828070100PV1D20181014000060SPEAKER ASM                   M IMCTM S5MB11 TNTH  09020IMCT  S5 PTB  00004                    0400 SR        000000000000 DENSO TEN (THAILAND)18013YL0003004                                                                                                                              *          20181010 IMCT                IMCT                                                                                                                    WMF1810105.TXT
MDEDJO248012201810                D89828070100PV1D20181015000060SPEAKER ASM                   M IMCTM S5MB11 TNTH  09020IMCT  S5 PTB  00004                    1030 SR        000000000000 DENSO TEN (THAILAND)18079UL0010011                                                                                                                              *          20181010 IMCT                IMCT                                                                                                                    WMF1810105.TXT
MDEDJO248013201810                D89828070100PV1D20181015000060SPEAKER ASM                   M IMCTM S5MB11 TNTH  09020IMCT  S5 PTB  00004                    1300 SR        000000000000 DENSO TEN (THAILAND)190F86L0001002                                                                                                                              *          20181010 IMCT                IMCT                                                                                                                    WMF1810105.TXT
MDEDJO248014201810                D89828070100PV1D20181015000030SPEAKER ASM                   M IMCTM S5MB11 TNTH  09020IMCT  S5 PTB  00004                    2100 SR        000000000000 DENSO TEN (THAILAND)17050RL0052052                                                                                                                              *          20181010 IMCT                IMCT                                                                                                                    WMF1810105.TXT
MDEDJO248015201810                D89828070100PV1D20181015000030SPEAKER ASM                   M IMCTM S5MB11 TNTH  09020IMCT  S5 PTB  00004                    2230 SR        000000000000 DENSO TEN (THAILAND)17050RL0053053                                                                                                                              *          20181010 IMCT                IMCT                                                                                                                    WMF1810105.TXT
MDEDJO248016201810                D89828070200PV1D20181013000060SPEAKER ASM                   M IMCTM S5MA14 TNTH  09020IMCT  S5 PTB  00005                    2230 SR        000000000000 DENSO TEN (THAILAND)17033QL0111112                                                                                                                              *          20181010 IMCT                IMCT                                                                                                                    WMF1810105.TXT
MDEDJO248017201810                D89828070200PV1D20181014000030SPEAKER ASM                   M IMCTM S5MA14 TNTH  09020IMCT  S5 PTB  00005                    0230 SR        000000000000 DENSO TEN (THAILAND)18033XL0003003                                                                                                                              *          20181010 IMCT                IMCT                                                                                                                    WMF1810105.TXT
MDEDJO248018201810                D89828070200PV1D20181015000060SPEAKER ASM                   M IMCTM S5MA14 TNTH  09020IMCT  S5 PTB  00005                    1030 SR        000000000000 DENSO TEN (THAILAND)18079UL0010011                                                                                                                              *          20181010 IMCT                IMCT                                                                                                                    WMF1810105.TXT
MDEDJO248019201810                D89828070200PV1D20181015000030SPEAKER ASM                   M IMCTM S5MA14 TNTH  09020IMCT  S5 PTB  00005                    2100 SR        000000000000 DENSO TEN (THAILAND)17050RL0052052                                                                                                                              *          20181010 IMCT                IMCT                                                                                                                    WMF1810105.TXT
MDEDJO248020201810                D89828070200PV1D20181015000030SPEAKER ASM                   M IMCTM S5MA14 TNTH  09020IMCT  S5 PTB  00005                    2230 SR        000000000000 DENSO TEN (THAILAND)17050RL0053053                                                                                                                              *          20181010 IMCT                IMCT                                                                                                                    WMF1810105.TXT
MDEDJO248021201810                D89828070300PT1D20181013000060SPEAKER ASM                   M IMCTM S5NB082TNTH  09020IMCT  S5 PTB  00015                    2230 SR        000000000000 DENSO TEN (THAILAND)17033QL0111112                                                                                                                              *          20181010 IMCT                IMCT                                                                                                                    WMF1810105.TXT
MDEDJO248022201810                D89828070300PT1D20181014000030SPEAKER ASM                   M IMCTM S5NB082TNTH  09020IMCT  S5 PTB  00015                    0230 SR        000000000000 DENSO TEN (THAILAND)18033XL0003003                                                                                                                              *          20181010 IMCT                IMCT                                                                                                                    WMF1810105.TXT
MDEDJO248023201810                D89828070300PT1D20181015000060SPEAKER ASM                   M IMCTM S5NB082TNTH  09020IMCT  S5 PTB  00015                    1030 SR        000000000000 DENSO TEN (THAILAND)18079UL0010011                                                                                                                              *          20181010 IMCT                IMCT                                                                                                                    WMF1810105.TXT
MDEDJO248024201810                D89828070300PT1D20181015000030SPEAKER ASM                   M IMCTM S5NB082TNTH  09020IMCT  S5 PTB  00015                    2100 SR        000000000000 DENSO TEN (THAILAND)17050RL0052052                                                                                                                              *          20181010 IMCT                IMCT                                                                                                                    WMF1810105.TXT
MDEDJO248025201810                D89828070300PT1D20181015000030SPEAKER ASM                   M IMCTM S5NB082TNTH  09020IMCT  S5 PTB  00015                    2230 SR        000000000000 DENSO TEN (THAILAND)17050RL0053053                                                                                                                              *          20181010 IMCT                IMCT                                                                                                                    WMF1810105.TXT
MDEDJO248026201810                D89829645420PT1D20181015000015RADIO;ASM DVD                 M IMCTM S5NC06 TNTH  09020IMCT  S5 PTB  00003                    2100 SR        000000000000 DENSO TEN (THAILAND)17050RL0052052                                                                                                                              *          20181010 IMCT                IMCT                                                                                                                    WMF1810105.TXT
MDEDJO248027201810                D89829645420PT1D20181015000015RADIO;ASM DVD                 M IMCTM S5NC06 TNTH  09020IMCT  S5 PTB  00003                    2230 SR        000000000000 DENSO TEN (THAILAND)17050RL0053053                                                                                                                              *          20181010 IMCT                IMCT                                                                                                                    WMF1810105.TXT
MDEDJO248028201810                D89831229200PT1D20181013000030RADIO;AM/FM,CD                M IMCTM S5NC06 TNTH  09020IMCT  S5 PTB  00003                    2230 SR        000000000000 DENSO TEN (THAILAND)17033QL0111112                                                                                                                              *          20181010 IMCT                IMCT                                                                                                                    WMF1810105.TXT
MDEDJO248029201810                D89848581800PT1D20181015000030RADIO;AM/FM CD D              M IMCTM S5NC06 TNTH  09020IMCT  S5 PTB  00003                    1030 SR        000000000000 DENSO TEN (THAILAND)18079UL0010011                                                                                                                              *          20181010 IMCT                IMCT                                                                                                                    WMF1810105.TXT
MDEDJO248030201810                D89848582100PT1D20181014000015RADIO;AM/FM CD D              M IMCTM S5NC06 TNTH  09020IMCT  S5 PTB  00003                    0230 SR        000000000000 DENSO TEN (THAILAND)18033XL0003003                                                                                                                              *          20181010 IMCT                IMCT                                                                                                                    WMF1810105.TXT
MDEUJO223474201810                D89828070100PT4U20181013000030SPEAKER ASM                   M IMCTM S0FL05 TNTH  09020IMCT  S0 PTB  00004                    2230 SR        000000000000 DENSO TEN (THAILAND)18016UU0051051                                                                                                                              *          20181010 IMCT                IMCT                                                                                                                    WMF1810105.TXT
MDEUJO223475201810                D89828070100PT4U20181014000030SPEAKER ASM                   M IMCTM S0FL05 TNTH  09020IMCT  S0 PTB  00004                    0230 SR        000000000000 DENSO TEN (THAILAND)190G77U0005005                                                                                                                              *          20181010 IMCT                IMCT                                                                                                                    WMF1810105.TXT
MDEUJO223476201810                D89828070100PT4U20181015000030SPEAKER ASM                   M IMCTM S0FL05 TNTH  09020IMCT  S0 PTB  00004                    1030 SR        000000000000 DENSO TEN (THAILAND)18021UU0209209                                                                                                                              *          20181010 IMCT                IMCT                                                                                                                    WMF1810105.TXT
MDEUJO223477201810                D89828070100PT4U20181015000030SPEAKER ASM                   M IMCTM S0FL05 TNTH  09020IMCT  S0 PTB  00004                    1300 SR        000000000000 DENSO TEN (THAILAND)180D06U0017017                                                                                                                              *          20181010 IMCT                IMCT                                                                                                                    WMF1810105.TXT
MDEUJO223478201810                D89828070200PV4U20181013000030SPEAKER ASM                   M IMCTM S0FR05 TNTH  09020IMCT  S0 PTB  00005                    2230 SR        000000000000 DENSO TEN (THAILAND)18016UU0051051                                                                                                                              *          20181010 IMCT                IMCT                                                                                                                    WMF1810105.TXT
MDEUJO223479201810                D89828070200PV4U20181014000030SPEAKER ASM                   M IMCTM S0FR05 TNTH  09020IMCT  S0 PTB  00005                    0230 SR        000000000000 DENSO TEN (THAILAND)190G77U0005005                                                                                                                              *          20181010 IMCT                IMCT                                                                                                                    WMF1810105.TXT
MDEUJO223480201810                D89828070200PV4U20181015000030SPEAKER ASM                   M IMCTM S0FR05 TNTH  09020IMCT  S0 PTB  00005                    1030 SR        000000000000 DENSO TEN (THAILAND)18021UU0209209                                                                                                                              *          20181010 IMCT                IMCT                                                                                                                    WMF1810105.TXT
MDEUJO223481201810                D89828070200PV4U20181015000030SPEAKER ASM                   M IMCTM S0FR05 TNTH  09020IMCT  S0 PTB  00005                    1300 SR        000000000000 DENSO TEN (THAILAND)180D06U0017017                                                                                                                              *          20181010 IMCT                IMCT                                                                                                                    WMF1810105.TXT
MDEUJO223482201810                D89828070300PT4U20181013000030SPEAKER ASM                   M IMCTM S9TS02 TNTH  09020IMCT  S9 PTB  00015                    2230 SR        000000000000 DENSO TEN (THAILAND)18016UU0051051                                                                                                                              *          20181010 IMCT                IMCT                                                                                                                    WMF1810105.TXT
MDEUJO223483201810                D89828070300PT4U20181014000030SPEAKER ASM                   M IMCTM S9TS02 TNTH  09020IMCT  S9 PTB  00015                    0230 SR        000000000000 DENSO TEN (THAILAND)190G77U0005005                                                                                                                              *          20181010 IMCT                IMCT                                                                                                                    WMF1810105.TXT
MDEUJO223484201810                D89828070300PT4U20181015000030SPEAKER ASM                   M IMCTM S9TS02 TNTH  09020IMCT  S9 PTB  00015                    1030 SR        000000000000 DENSO TEN (THAILAND)18021UU0209209                                                                                                                              *          20181010 IMCT                IMCT                                                                                                                    WMF1810105.TXT
MDEUJO223485201810                D89828070300PT4U20181015000030SPEAKER ASM                   M IMCTM S9TS02 TNTH  09020IMCT  S9 PTB  00015                    1300 SR        000000000000 DENSO TEN (THAILAND)180D06U0017017                                                                                                                              *          20181010 IMCT                IMCT                                                                                                                    WMF1810105.TXT
