REC2018102920181029ISUZU                              66     
MDDDJO347233201811                D89821984430PT1D20181102000030RADIO;AM/FM,CD                M IMCTM S5NC06 TNTH  09020IMCT  S5 PTB  00005                    1300 SR        000000000000 DENSO TEN (THAILAND)190MNGL0014014                                                                                                                              *          20181029 IMCT                IMCT                                                                                                                    WMF1810294.TXT
MDDDJO347234201811                D89828070100PV1D20181101000060SPEAKER ASM                   M IMCTM S5MB11 TNTH  09020IMCT  S5 PTB  00004                    2230 SR        000000000000 DENSO TEN (THAILAND)190MPFL0009009                                                                                                                              *          20181029 IMCT                IMCT                                                                                                                    WMF1810294.TXT
MDDDJO347235201811                D89828070100PV1D20181102000060SPEAKER ASM                   M IMCTM S5MB11 TNTH  09020IMCT  S5 PTB  00004                    0400 SR        000000000000 DENSO TEN (THAILAND)190MPCL0004004                                                                                                                              *          20181029 IMCT                IMCT                                                                                                                    WMF1810294.TXT
MDDDJO347236201811                D89828070100PV1D20181102000060SPEAKER ASM                   M IMCTM S5MB11 TNTH  09020IMCT  S5 PTB  00004                    1030 SR        000000000000 DENSO TEN (THAILAND)190MPEL0004004                                                                                                                              *          20181029 IMCT                IMCT                                                                                                                    WMF1810294.TXT
MDDDJO347237201811                D89828070100PV1D20181102000120SPEAKER ASM                   M IMCTM S5MB11 TNTH  09020IMCT  S5 PTB  00004                    1300 SR        000000000000 DENSO TEN (THAILAND)190MNGL0014014190MPQL0007007                                                                                                                *          20181029 IMCT                IMCT                                                                                                                    WMF1810294.TXT
MDDDJO347238201811                D89828070100PV1D20181102000060SPEAKER ASM                   M IMCTM S5MB11 TNTH  09020IMCT  S5 PTB  00004                    1600 SR        000000000000 DENSO TEN (THAILAND)190MPLL0004004                                                                                                                              *          20181029 IMCT                IMCT                                                                                                                    WMF1810294.TXT
MDDDJO347239201811                D89828070100PV4D20181102000060SPEAKER ASM                   M IMCTM S0FL05 TNTH  09020IMCT  S0 PTB  00004                    0400 SR        000000000000 DENSO TEN (THAILAND)190MRTU0019019                                                                                                                              *          20181029 IMCT                IMCT                                                                                                                    WMF1810294.TXT
MDDDJO347240201811                D89828070100PV4D20181102000060SPEAKER ASM                   M IMCTM S0FL05 TNTH  09020IMCT  S0 PTB  00004                    1300 SR        000000000000 DENSO TEN (THAILAND)190MRMU0009009                                                                                                                              *          20181029 IMCT                IMCT                                                                                                                    WMF1810294.TXT
MDDDJO347241201811                D89828070100PV4D20181102000060SPEAKER ASM                   M IMCTM S0FL05 TNTH  09020IMCT  S0 PTB  00004                    2100 SR        000000000000 DENSO TEN (THAILAND)190MRVU0011011                                                                                                                              *          20181029 IMCT                IMCT                                                                                                                    WMF1810294.TXT
MDDDJO347242201811                D89828070200PV4D20181102000060SPEAKER ASM                   M IMCTM S0FR05 TNTH  09020IMCT  S0 PTB  00005                    0400 SR        000000000000 DENSO TEN (THAILAND)190MRTU0019019                                                                                                                              *          20181029 IMCT                IMCT                                                                                                                    WMF1810294.TXT
MDDDJO347243201811                D89828070200PV4D20181102000060SPEAKER ASM                   M IMCTM S0FR05 TNTH  09020IMCT  S0 PTB  00005                    1300 SR        000000000000 DENSO TEN (THAILAND)190MRMU0009009                                                                                                                              *          20181029 IMCT                IMCT                                                                                                                    WMF1810294.TXT
MDDDJO347244201811                D89828070200PV4D20181102000060SPEAKER ASM                   M IMCTM S0FR05 TNTH  09020IMCT  S0 PTB  00005                    2100 SR        000000000000 DENSO TEN (THAILAND)190MRVU0011011                                                                                                                              *          20181029 IMCT                IMCT                                                                                                                    WMF1810294.TXT
MDDDJO347245201811                D89828070300PT1D20181101000060SPEAKER ASM                   M IMCTM S5NB082TNTH  09020IMCT  S5 PTB  00015                    2230 SR        000000000000 DENSO TEN (THAILAND)190MPFL0009009                                                                                                                              *          20181029 IMCT                IMCT                                                                                                                    WMF1810294.TXT
MDDDJO347246201811                D89828070300PT1D20181102000060SPEAKER ASM                   M IMCTM S5NB082TNTH  09020IMCT  S5 PTB  00015                    0400 SR        000000000000 DENSO TEN (THAILAND)190MPCL0004004                                                                                                                              *          20181029 IMCT                IMCT                                                                                                                    WMF1810294.TXT
MDDDJO347247201811                D89828070300PT1D20181102000060SPEAKER ASM                   M IMCTM S5NB082TNTH  09020IMCT  S5 PTB  00015                    1030 SR        000000000000 DENSO TEN (THAILAND)190MPEL0004004                                                                                                                              *          20181029 IMCT                IMCT                                                                                                                    WMF1810294.TXT
MDDDJO347248201811                D89828070300PT1D20181102000060SPEAKER ASM                   M IMCTM S5NB082TNTH  09020IMCT  S5 PTB  00015                    1300 SR        000000000000 DENSO TEN (THAILAND)190MPQL0007007                                                                                                                              *          20181029 IMCT                IMCT                                                                                                                    WMF1810294.TXT
MDDDJO347249201811                D89828070300PT1D20181102000060SPEAKER ASM                   M IMCTM S5NB082TNTH  09020IMCT  S5 PTB  00015                    1600 SR        000000000000 DENSO TEN (THAILAND)190MPLL0004004                                                                                                                              *          20181029 IMCT                IMCT                                                                                                                    WMF1810294.TXT
MDDDJO347250201811                D89828070300PT4D20181102000060SPEAKER ASM                   M IMCTM S9TS02 TNTH  09020IMCT  S9 PTB  00015                    0400 SR        000000000000 DENSO TEN (THAILAND)190MRTU0019019                                                                                                                              *          20181029 IMCT                IMCT                                                                                                                    WMF1810294.TXT
MDDDJO347251201811                D89828070300PT4D20181102000060SPEAKER ASM                   M IMCTM S9TS02 TNTH  09020IMCT  S9 PTB  00015                    1300 SR        000000000000 DENSO TEN (THAILAND)190MRMU0009009                                                                                                                              *          20181029 IMCT                IMCT                                                                                                                    WMF1810294.TXT
MDDDJO347252201811                D89828070300PT4D20181102000060SPEAKER ASM                   M IMCTM S9TS02 TNTH  09020IMCT  S9 PTB  00015                    2100 SR        000000000000 DENSO TEN (THAILAND)190MRVU0011011                                                                                                                              *          20181029 IMCT                IMCT                                                                                                                    WMF1810294.TXT
MDDDJO347253201811                D89831228300PT1D20181101000030RADIO;AM/FM,CD                M IMCTM S5NC06 TNTH  09020IMCT  S5 CPB  00003                    2230 SR        000000000000 DENSO TEN (THAILAND)190MPFL0009009                                                                                                                              *          20181029 IMCT                IMCT                                                                                                                    WMF1810294.TXT
MDDDJO347254201811                D89831228300PT1D20181102000030RADIO;AM/FM,CD                M IMCTM S5NC06 TNTH  09020IMCT  S5 CPB  00003                    0400 SR        000000000000 DENSO TEN (THAILAND)190MPCL0004004                                                                                                                              *          20181029 IMCT                IMCT                                                                                                                    WMF1810294.TXT
MDDDJO347255201811                D89831228300PT1D20181102000030RADIO;AM/FM,CD                M IMCTM S5NC06 TNTH  09020IMCT  S5 CPB  00003                    1030 SR        000000000000 DENSO TEN (THAILAND)190MPEL0004004                                                                                                                              *          20181029 IMCT                IMCT                                                                                                                    WMF1810294.TXT
MDDDJO347256201811                D89848581500PT4D20181102000030RADIO;AM/FM CD D              M IMCTM S9CO001TNTH  09020IMCT  S9 PTB  00003                    0400 SR        000000000000 DENSO TEN (THAILAND)190MRTU0019019                                                                                                                              *          20181029 IMCT                IMCT                                                                                                                    WMF1810294.TXT
MDDDJO347257201811                D89848581600PT1D20181102000030RADIO;AM/FM CD D              M IMCTM S5NC06 TNTH  09020IMCT  S5 PTB  00003                    1300 SR        000000000000 DENSO TEN (THAILAND)190MPQL0007007                                                                                                                              *          20181029 IMCT                IMCT                                                                                                                    WMF1810294.TXT
MDDDJO347258201811                D89848581600PT1D20181102000030RADIO;AM/FM CD D              M IMCTM S5NC06 TNTH  09020IMCT  S5 PTB  00003                    1600 SR        000000000000 DENSO TEN (THAILAND)190MPLL0004004                                                                                                                              *          20181029 IMCT                IMCT                                                                                                                    WMF1810294.TXT
MDDUJO245386201811                D89828070100PT4U20181101000030SPEAKER ASM                   M IMCTM S0FL05 TNTH  09020IMCT  S0 PTB  00004                    2230 SR        000000000000 DENSO TEN (THAILAND)180LUSU0198198                                                                                                                              *          20181029 IMCT                IMCT                                                                                                                    WMF1810294.TXT
MDDUJO245387201811                D89828070100PT4U20181102000030SPEAKER ASM                   M IMCTM S0FL05 TNTH  09020IMCT  S0 PTB  00004                    1030 SR        000000000000 DENSO TEN (THAILAND)180LUSU0199199                                                                                                                              *          20181029 IMCT                IMCT                                                                                                                    WMF1810294.TXT
MDDUJO245388201811                D89828070100PT4U20181102000030SPEAKER ASM                   M IMCTM S0FL05 TNTH  09020IMCT  S0 PTB  00004                    1600 SR        000000000000 DENSO TEN (THAILAND)180LUTU0131131                                                                                                                              *          20181029 IMCT                IMCT                                                                                                                    WMF1810294.TXT
MDDUJO245389201811                D89828070200PV4U20181101000030SPEAKER ASM                   M IMCTM S0FR05 TNTH  09020IMCT  S0 PTB  00005                    2230 SR        000000000000 DENSO TEN (THAILAND)180LUSU0198198                                                                                                                              *          20181029 IMCT                IMCT                                                                                                                    WMF1810294.TXT
MDDUJO245390201811                D89828070200PV4U20181102000030SPEAKER ASM                   M IMCTM S0FR05 TNTH  09020IMCT  S0 PTB  00005                    1030 SR        000000000000 DENSO TEN (THAILAND)180LUSU0199199                                                                                                                              *          20181029 IMCT                IMCT                                                                                                                    WMF1810294.TXT
MDDUJO245391201811                D89828070200PV4U20181102000030SPEAKER ASM                   M IMCTM S0FR05 TNTH  09020IMCT  S0 PTB  00005                    1600 SR        000000000000 DENSO TEN (THAILAND)180LUTU0131131                                                                                                                              *          20181029 IMCT                IMCT                                                                                                                    WMF1810294.TXT
MDDUJO245392201811                D89828070300PT4U20181101000030SPEAKER ASM                   M IMCTM S9TS02 TNTH  09020IMCT  S9 PTB  00015                    2230 SR        000000000000 DENSO TEN (THAILAND)180LUSU0198198                                                                                                                              *          20181029 IMCT                IMCT                                                                                                                    WMF1810294.TXT
MDDUJO245393201811                D89828070300PT4U20181102000030SPEAKER ASM                   M IMCTM S9TS02 TNTH  09020IMCT  S9 PTB  00015                    1030 SR        000000000000 DENSO TEN (THAILAND)180LUSU0199199                                                                                                                              *          20181029 IMCT                IMCT                                                                                                                    WMF1810294.TXT
MDDUJO245394201811                D89828070300PT4U20181102000030SPEAKER ASM                   M IMCTM S9TS02 TNTH  09020IMCT  S9 PTB  00015                    1600 SR        000000000000 DENSO TEN (THAILAND)180LUTU0131131                                                                                                                              *          20181029 IMCT                IMCT                                                                                                                    WMF1810294.TXT
MDEDJO335285201811                D89828070100PV1D20181101000060SPEAKER ASM                   M IMCTM S5MB11 TNTH  09020IMCT  S5 PTB  00004                    2230 SR        000000000000 DENSO TEN (THAILAND)18082UL0082083                                                                                                                              *          20181029 IMCT                IMCT                                                                                                                    WMF1810294.TXT
MDEDJO335286201811                D89828070100PV1D20181102000030SPEAKER ASM                   M IMCTM S5MB11 TNTH  09020IMCT  S5 PTB  00004                    0230 SR        000000000000 DENSO TEN (THAILAND)18098UL0086086                                                                                                                              *          20181029 IMCT                IMCT                                                                                                                    WMF1810294.TXT
MDEDJO335287201811                D89828070100PV1D20181102000060SPEAKER ASM                   M IMCTM S5MB11 TNTH  09020IMCT  S5 PTB  00004                    0400 SR        000000000000 DENSO TEN (THAILAND)18098UL008708718099UL0117117                                                                                                                *          20181029 IMCT                IMCT                                                                                                                    WMF1810294.TXT
MDEDJO335288201811                D89828070100PV1D20181102000030SPEAKER ASM                   M IMCTM S5MB11 TNTH  09020IMCT  S5 PTB  00004                    0830 SR        000000000000 DENSO TEN (THAILAND)18099UL0118118                                                                                                                              *          20181029 IMCT                IMCT                                                                                                                    WMF1810294.TXT
MDEDJO335289201811                D89828070100PV1D20181102000030SPEAKER ASM                   M IMCTM S5MB11 TNTH  09020IMCT  S5 PTB  00004                    1030 SR        000000000000 DENSO TEN (THAILAND)18008YL0034034                                                                                                                              *          20181029 IMCT                IMCT                                                                                                                    WMF1810294.TXT
MDEDJO335290201811                D89828070100PV1D20181102000030SPEAKER ASM                   M IMCTM S5MB11 TNTH  09020IMCT  S5 PTB  00004                    1300 SR        000000000000 DENSO TEN (THAILAND)18008YL0035035                                                                                                                              *          20181029 IMCT                IMCT                                                                                                                    WMF1810294.TXT
MDEDJO335291201811                D89828070100PV1D20181102000030SPEAKER ASM                   M IMCTM S5MB11 TNTH  09020IMCT  S5 PTB  00004                    2100 SR        000000000000 DENSO TEN (THAILAND)18098UL0088088                                                                                                                              *          20181029 IMCT                IMCT                                                                                                                    WMF1810294.TXT
MDEDJO335292201811                D89828070200PV1D20181101000060SPEAKER ASM                   M IMCTM S5MA14 TNTH  09020IMCT  S5 PTB  00005                    2230 SR        000000000000 DENSO TEN (THAILAND)18082UL0082083                                                                                                                              *          20181029 IMCT                IMCT                                                                                                                    WMF1810294.TXT
MDEDJO335293201811                D89828070200PV1D20181102000030SPEAKER ASM                   M IMCTM S5MA14 TNTH  09020IMCT  S5 PTB  00005                    0230 SR        000000000000 DENSO TEN (THAILAND)18098UL0086086                                                                                                                              *          20181029 IMCT                IMCT                                                                                                                    WMF1810294.TXT
MDEDJO335294201811                D89828070200PV1D20181102000060SPEAKER ASM                   M IMCTM S5MA14 TNTH  09020IMCT  S5 PTB  00005                    0400 SR        000000000000 DENSO TEN (THAILAND)18098UL008708718099UL0117117                                                                                                                *          20181029 IMCT                IMCT                                                                                                                    WMF1810294.TXT
MDEDJO335295201811                D89828070200PV1D20181102000030SPEAKER ASM                   M IMCTM S5MA14 TNTH  09020IMCT  S5 PTB  00005                    0830 SR        000000000000 DENSO TEN (THAILAND)18099UL0118118                                                                                                                              *          20181029 IMCT                IMCT                                                                                                                    WMF1810294.TXT
MDEDJO335296201811                D89828070200PV1D20181102000030SPEAKER ASM                   M IMCTM S5MA14 TNTH  09020IMCT  S5 PTB  00005                    1030 SR        000000000000 DENSO TEN (THAILAND)18008YL0034034                                                                                                                              *          20181029 IMCT                IMCT                                                                                                                    WMF1810294.TXT
MDEDJO335297201811                D89828070200PV1D20181102000030SPEAKER ASM                   M IMCTM S5MA14 TNTH  09020IMCT  S5 PTB  00005                    1300 SR        000000000000 DENSO TEN (THAILAND)18008YL0035035                                                                                                                              *          20181029 IMCT                IMCT                                                                                                                    WMF1810294.TXT
MDEDJO335298201811                D89828070200PV1D20181102000030SPEAKER ASM                   M IMCTM S5MA14 TNTH  09020IMCT  S5 PTB  00005                    2100 SR        000000000000 DENSO TEN (THAILAND)18098UL0088088                                                                                                                              *          20181029 IMCT                IMCT                                                                                                                    WMF1810294.TXT
MDEDJO335299201811                D89828070300PT1D20181101000060SPEAKER ASM                   M IMCTM S5NB082TNTH  09020IMCT  S5 PTB  00015                    2230 SR        000000000000 DENSO TEN (THAILAND)18082UL0082083                                                                                                                              *          20181029 IMCT                IMCT                                                                                                                    WMF1810294.TXT
MDEDJO335300201811                D89828070300PT1D20181102000030SPEAKER ASM                   M IMCTM S5NB082TNTH  09020IMCT  S5 PTB  00015                    0230 SR        000000000000 DENSO TEN (THAILAND)18098UL0086086                                                                                                                              *          20181029 IMCT                IMCT                                                                                                                    WMF1810294.TXT
MDEDJO335301201811                D89828070300PT1D20181102000060SPEAKER ASM                   M IMCTM S5NB082TNTH  09020IMCT  S5 PTB  00015                    0400 SR        000000000000 DENSO TEN (THAILAND)18098UL008708718099UL0117117                                                                                                                *          20181029 IMCT                IMCT                                                                                                                    WMF1810294.TXT
MDEDJO335302201811                D89828070300PT1D20181102000030SPEAKER ASM                   M IMCTM S5NB082TNTH  09020IMCT  S5 PTB  00015                    0830 SR        000000000000 DENSO TEN (THAILAND)18099UL0118118                                                                                                                              *          20181029 IMCT                IMCT                                                                                                                    WMF1810294.TXT
MDEDJO335303201811                D89828070300PT1D20181102000030SPEAKER ASM                   M IMCTM S5NB082TNTH  09020IMCT  S5 PTB  00015                    1030 SR        000000000000 DENSO TEN (THAILAND)18008YL0034034                                                                                                                              *          20181029 IMCT                IMCT                                                                                                                    WMF1810294.TXT
MDEDJO335304201811                D89828070300PT1D20181102000030SPEAKER ASM                   M IMCTM S5NB082TNTH  09020IMCT  S5 PTB  00015                    1300 SR        000000000000 DENSO TEN (THAILAND)18008YL0035035                                                                                                                              *          20181029 IMCT                IMCT                                                                                                                    WMF1810294.TXT
MDEDJO335305201811                D89828070300PT1D20181102000030SPEAKER ASM                   M IMCTM S5NB082TNTH  09020IMCT  S5 PTB  00015                    2100 SR        000000000000 DENSO TEN (THAILAND)18098UL0088088                                                                                                                              *          20181029 IMCT                IMCT                                                                                                                    WMF1810294.TXT
MDEDJO335306201811                D89848581800PT1D20181101000030RADIO;AM/FM CD D              M IMCTM S5NC06 TNTH  09020IMCT  S5 PTB  00003                    2230 SR        000000000000 DENSO TEN (THAILAND)18082UL0082083                                                                                                                              *          20181029 IMCT                IMCT                                                                                                                    WMF1810294.TXT
MDEDJO335307201811                D89848581800PT1D20181102000015RADIO;AM/FM CD D              M IMCTM S5NC06 TNTH  09020IMCT  S5 PTB  00003                    0230 SR        000000000000 DENSO TEN (THAILAND)18098UL0086086                                                                                                                              *          20181029 IMCT                IMCT                                                                                                                    WMF1810294.TXT
MDEDJO335308201811                D89848581800PT1D20181102000015RADIO;AM/FM CD D              M IMCTM S5NC06 TNTH  09020IMCT  S5 PTB  00003                    0400 SR        000000000000 DENSO TEN (THAILAND)18098UL0087087                                                                                                                              *          20181029 IMCT                IMCT                                                                                                                    WMF1810294.TXT
MDEDJO335309201811                D89848581800PT1D20181102000015RADIO;AM/FM CD D              M IMCTM S5NC06 TNTH  09020IMCT  S5 PTB  00003                    2100 SR        000000000000 DENSO TEN (THAILAND)18098UL0088088                                                                                                                              *          20181029 IMCT                IMCT                                                                                                                    WMF1810294.TXT
MDEUJO254973201811                D89828070100PT4U20181102000030SPEAKER ASM                   M IMCTM S0FL05 TNTH  09020IMCT  S0 PTB  00004                    0230 SR        000000000000 DENSO TEN (THAILAND)18021UU0223223                                                                                                                              *          20181029 IMCT                IMCT                                                                                                                    WMF1810294.TXT
MDEUJO254974201811                D89828070100PT4U20181102000030SPEAKER ASM                   M IMCTM S0FL05 TNTH  09020IMCT  S0 PTB  00004                    1300 SR        000000000000 DENSO TEN (THAILAND)18020UU0143143                                                                                                                              *          20181029 IMCT                IMCT                                                                                                                    WMF1810294.TXT
MDEUJO254975201811                D89828070200PV4U20181102000030SPEAKER ASM                   M IMCTM S0FR05 TNTH  09020IMCT  S0 PTB  00005                    0230 SR        000000000000 DENSO TEN (THAILAND)18021UU0223223                                                                                                                              *          20181029 IMCT                IMCT                                                                                                                    WMF1810294.TXT
MDEUJO254976201811                D89828070200PV4U20181102000030SPEAKER ASM                   M IMCTM S0FR05 TNTH  09020IMCT  S0 PTB  00005                    1300 SR        000000000000 DENSO TEN (THAILAND)18020UU0143143                                                                                                                              *          20181029 IMCT                IMCT                                                                                                                    WMF1810294.TXT
MDEUJO254977201811                D89828070300PT4U20181102000030SPEAKER ASM                   M IMCTM S9TS02 TNTH  09020IMCT  S9 PTB  00015                    0230 SR        000000000000 DENSO TEN (THAILAND)18021UU0223223                                                                                                                              *          20181029 IMCT                IMCT                                                                                                                    WMF1810294.TXT
MDEUJO254978201811                D89828070300PT4U20181102000030SPEAKER ASM                   M IMCTM S9TS02 TNTH  09020IMCT  S9 PTB  00015                    1300 SR        000000000000 DENSO TEN (THAILAND)18020UU0143143                                                                                                                              *          20181029 IMCT                IMCT                                                                                                                    WMF1810294.TXT
