REC2018092820180928ISUZU                              10     
MDEFJ9T26079201810                D89828070100PV4F20181004000030SPEAKER ASM                   M IMCTM S7FL05 TNTH  09020IMCT  S7 PTB  00004                    1600 SR        000000000000 DENSO TEN (THAILAND)17008RR0137   17063QR0048   R181001201    R181001215    000000                                                                              *R         20180928 IMCT                IMCT                                                                                                                    RMF1809285.TXT
MDEFJ9T26080201810                D89828070200PV4F20181004000023SPEAKER ASM                   M IMCTM S7FL05 TNTH  09020IMCT  S7 PTB  00005                    1030 SR        000000000000 DENSO TEN (THAILAND)18033XR0040   18056XR0039   D181001104    D181001115    000000                                                                              *R         20180928 IMCT                IMCT                                                                                                                    RMF1809285.TXT
MDEFJ9T26081201810                D89828070300PT4F20181004000023SPEAKER ASM                   M IMCTM S7TS02 TNTH  09020IMCT  S7 PTB  00015                    1030 SR        000000000000 DENSO TEN (THAILAND)18033XR0040   18056XR0039   D181001104    D181001115    000000                                                                              *R         20180928 IMCT                IMCT                                                                                                                    RMF1809285.TXT
MDEFJ9T26082201810                D89831229010PT4F20181003000004RADIO;AM/FM,CD                M IMCTM S7TS01 TNTH  09020IMCT  S7 PTB  00003                    2230 SR        000000000000 DENSO TEN (THAILAND)17037RR0179   17081QR0153   D181001005    D181001012    000000                                                                              *R         20180928 IMCT                IMCT                                                                                                                    RMF1809285.TXT
MDEFJ9T26083201810                D89848582100PT4F20181004000007RADIO;AM/FM CD D              M IMCTM S7TS01 TNTH  09020IMCT  S7 PTB  00003                    1030 SR        000000000000 DENSO TEN (THAILAND)18033XR0040   18055XR0079   D181001104    D181001110    000000                                                                              *R         20180928 IMCT                IMCT                                                                                                                    RMF1809285.TXT
MDEFJ9273624201810                D89828070100PV4F20181003000004SPEAKER ASM                   M IMCTM S7FL05 TNTH  09020IMCT  S7 PTB  00004                    2100 SR        000000000000 DENSO TEN (THAILAND)17034RR0156   17034RR0157   D181001001    D181001002    000000                                                                              *R         20180928 IMCT                IMCT                                                                                                                    RMF1809285.TXT
MDEFJ9273625201810                D89828070100PV4F20181003000028SPEAKER ASM                   M IMCTM S7FL05 TNTH  09020IMCT  S7 PTB  00004                    2230 SR        000000000000 DENSO TEN (THAILAND)17034RR0158   18026XR0001   D181001003    D181001101    000000                                                                              *R         20180928 IMCT                IMCT                                                                                                                    RMF1809285.TXT
MDEFJ9273626201810                D89828070100PV4F20181004000028SPEAKER ASM                   M IMCTM S7FL05 TNTH  09020IMCT  S7 PTB  00004                    1030 SR        000000000000 DENSO TEN (THAILAND)18026XR0002   18056XR0039   D181001102    D181001115    000000                                                                              *R         20180928 IMCT                IMCT                                                                                                                    RMF1809285.TXT
MDEFJ9273627201810                D89828070200PV4F20181003000015SPEAKER ASM                   M IMCTM S7FL05 TNTH  09020IMCT  S7 PTB  00005                    2230 SR        000000000000 DENSO TEN (THAILAND)17037RR0179   18033XR0040   D181001005    D181001104    000000                                                                              *R         20180928 IMCT                IMCT                                                                                                                    RMF1809285.TXT
MDEFJ9273628201810                D89828070300PT4F20181003000015SPEAKER ASM                   M IMCTM S7TS02 TNTH  09020IMCT  S7 PTB  00015                    2230 SR        000000000000 DENSO TEN (THAILAND)17037RR0179   18033XR0040   D181001005    D181001104    000000                                                                              *R         20180928 IMCT                IMCT                                                                                                                    RMF1809285.TXT
