REC2018101520181015ISUZU                              13     
MDD6JO258277201810                D89828070100PV5620181019000060SPEAKER ASM                   M IMCTM G9B114 TNTH  09020G/WAY G9 PTB  00004                    1530 GW        0000000000005DENSO TEN (THAILAND)190MRTG0019019                                                                                                                              *          20181015 IMCT                IMCT                                                                                                                    WMF1810156.TXT
MDD6JO258278201810                D89828070100PV5620181019000060SPEAKER ASM                   M IMCTM G9B114 TNTH  09020G/WAY G9 PTB  00004                    2100 GW        0000000000005DENSO TEN (THAILAND)190MPCG0005005                                                                                                                              *          20181015 IMCT                IMCT                                                                                                                    WMF1810156.TXT
MDD6JO258279201810                D89828070100PV5620181019000060SPEAKER ASM                   M IMCTM G9B114 TNTH  09020G/WAY G9 PTB  00004                    2300 GW        0000000000005DENSO TEN (THAILAND)190MRRG0007007                                                                                                                              *          20181015 IMCT                IMCT                                                                                                                    WMF1810156.TXT
MDD6JO258280201810                D89828070100PV5620181020000060SPEAKER ASM                   M IMCTM G9B114 TNTH  09020G/WAY G9 PTB  00004                    0200 GW        0000000000005DENSO TEN (THAILAND)190MRLG0007007                                                                                                                              *          20181015 IMCT                IMCT                                                                                                                    WMF1810156.TXT
MDD6JO258281201810                D89828070200PV5620181019000060SPEAKER ASM                   M IMCTM G9F132 TNTH  09020G/WAY G9 PTB  00005                    1530 GW        0000000000005DENSO TEN (THAILAND)190MRTG0019019                                                                                                                              *          20181015 IMCT                IMCT                                                                                                                    WMF1810156.TXT
MDD6JO258282201810                D89828070200PV5620181019000060SPEAKER ASM                   M IMCTM G9F132 TNTH  09020G/WAY G9 PTB  00005                    2300 GW        0000000000005DENSO TEN (THAILAND)190MRRG0007007                                                                                                                              *          20181015 IMCT                IMCT                                                                                                                    WMF1810156.TXT
MDD6JO258283201810                D89828070200PV5620181020000060SPEAKER ASM                   M IMCTM G9F132 TNTH  09020G/WAY G9 PTB  00005                    0200 GW        0000000000005DENSO TEN (THAILAND)190MRLG0007007                                                                                                                              *          20181015 IMCT                IMCT                                                                                                                    WMF1810156.TXT
MDD6JO258284201810                D89828070300PT5620181019000060SPEAKER ASM                   M IMCTM G9JA33 TNTH  09020G/WAY G9 PTB  00015                    1530 GW        0000000000005DENSO TEN (THAILAND)190MRTG0019019                                                                                                                              *          20181015 IMCT                IMCT                                                                                                                    WMF1810156.TXT
MDD6JO258285201810                D89828070300PT5620181019000060SPEAKER ASM                   M IMCTM G9JA33 TNTH  09020G/WAY G9 PTB  00015                    2100 GW        0000000000005DENSO TEN (THAILAND)190MPCG0005005                                                                                                                              *          20181015 IMCT                IMCT                                                                                                                    WMF1810156.TXT
MDD6JO258286201810                D89828070300PT5620181019000060SPEAKER ASM                   M IMCTM G9JA33 TNTH  09020G/WAY G9 PTB  00015                    2300 GW        0000000000005DENSO TEN (THAILAND)190MRRG0007007                                                                                                                              *          20181015 IMCT                IMCT                                                                                                                    WMF1810156.TXT
MDD6JO258287201810                D89828070300PT5620181020000060SPEAKER ASM                   M IMCTM G9JA33 TNTH  09020G/WAY G9 PTB  00015                    0200 GW        0000000000005DENSO TEN (THAILAND)190MRLG0007007                                                                                                                              *          20181015 IMCT                IMCT                                                                                                                    WMF1810156.TXT
MDD6JO258288201810                D89831228300PT5620181019000030RADIO;AM/FM,CD                M IMCTM G9J213 TNTH  09020G/WAY G9 CPB  00003                    2100 GW        0000000000005DENSO TEN (THAILAND)190MPCG0005005                                                                                                                              *          20181015 IMCT                IMCT                                                                                                                    WMF1810156.TXT
MDD6JO258289201810                D89848581500PT5620181019000030RADIO;AM/FM CD D              M IMCTM G9J213 TNTH  09020G/WAY G9 PTB  00003                    1530 GW        0000000000005DENSO TEN (THAILAND)190MRTG0019019                                                                                                                              *          20181015 IMCT                IMCT                                                                                                                    WMF1810156.TXT
