REC2018112320181123ISUZU                              5      
MDEFJNT20203201811                D89828070100PV4F20181128000006SPEAKER ASM                   M IMCTM S7FL05 TNTH  09020IMCT  S7 PTB  00004                    0830 SR        000000000000 DENSO TEN (THAILAND)18010YR0031   18010YR0033   C181105813    C181105815    000000                                                                              *R         20181123 IMCT                IMCT                                                                                                                    RMF1811235.TXT
MDEFJNT20204201811                D89828070200PV4F20181128000016SPEAKER ASM                   M IMCTM S7FL05 TNTH  09020IMCT  S7 PTB  00005                    0400 SR        000000000000 DENSO TEN (THAILAND)180J62R0008   180J62R0015   C181105803    C181105812    000000                                                                              *R         20181123 IMCT                IMCT                                                                                                                    RMF1811235.TXT
MDEFJNT20205201811                D89828070300PT4F20181128000016SPEAKER ASM                   M IMCTM S7TS02 TNTH  09020IMCT  S7 PTB  00015                    0400 SR        000000000000 DENSO TEN (THAILAND)180J62R0008   180J62R0015   C181105803    C181105812    000000                                                                              *R         20181123 IMCT                IMCT                                                                                                                    RMF1811235.TXT
MDEFJNT20206201811                D89831228400PT4F20181128000008RADIO;AM/FM,CD                M IMCTM S7TS03 TNTH  09020IMCT  S7 CPB  00003                    0400 SR        000000000000 DENSO TEN (THAILAND)180J62R0008   180J62R0015   C181105803    C181105812    000000                                                                              *R         20181123 IMCT                IMCT                                                                                                                    RMF1811235.TXT
MDEFJN254857201811                D89828070100PV4F20181128000024SPEAKER ASM                   M IMCTM S7FL05 TNTH  09020IMCT  S7 PTB  00004                    0400 SR        000000000000 DENSO TEN (THAILAND)17066QR0138   180J62R0015   C181105801    C181105812    000000                                                                              *R         20181123 IMCT                IMCT                                                                                                                    RMF1811235.TXT
