REC2018110920181109ISUZU                              30     
MDD6JN232542201811                D89821984430PT5620181114000030RADIO;AM/FM,CD                M IMCTM G9J213 TNTH  09020G/WAY G9 PTB  00005                    0200 GW        0000000000005DENSO TEN (THAILAND)190MYAG0018018                                                                                                                              *          20181109 IMCT                IMCT                                                                                                                    WMF1811092.TXT
MDD6JN232543201811                D89828070100PV5620181113000120SPEAKER ASM                   M IMCTM G9B114 TNTH  09020G/WAY G9 PTB  00004                    1530 GW        0000000000005DENSO TEN (THAILAND)190MREG0019019190MRTG0039039                                                                                                                *          20181109 IMCT                IMCT                                                                                                                    WMF1811092.TXT
MDD6JN232544201811                D89828070100PV5620181113000060SPEAKER ASM                   M IMCTM G9B114 TNTH  09020G/WAY G9 PTB  00004                    2100 GW        0000000000005DENSO TEN (THAILAND)190MRWG0023023                                                                                                                              *          20181109 IMCT                IMCT                                                                                                                    WMF1811092.TXT
MDD6JN232545201811                D89828070100PV5620181113000060SPEAKER ASM                   M IMCTM G9B114 TNTH  09020G/WAY G9 PTB  00004                    2300 GW        0000000000005DENSO TEN (THAILAND)190MRPG0009009                                                                                                                              *          20181109 IMCT                IMCT                                                                                                                    WMF1811092.TXT
MDD6JN232546201811                D89828070100PV5620181114000060SPEAKER ASM                   M IMCTM G9B114 TNTH  09020G/WAY G9 PTB  00004                    0200 GW        0000000000005DENSO TEN (THAILAND)190MYAG0018018                                                                                                                              *          20181109 IMCT                IMCT                                                                                                                    WMF1811092.TXT
MDD6JN232547201811                D89828070100PV5620181114000060SPEAKER ASM                   M IMCTM G9B114 TNTH  09020G/WAY G9 PTB  00004                    0330 GW        0000000000005DENSO TEN (THAILAND)190MRMG0008008                                                                                                                              *          20181109 IMCT                IMCT                                                                                                                    WMF1811092.TXT
MDD6JN232548201811                D89828070100PV5620181114000060SPEAKER ASM                   M IMCTM G9B114 TNTH  09020G/WAY G9 PTB  00004                    0900 GW        0000000000005DENSO TEN (THAILAND)190MREG0020020                                                                                                                              *          20181109 IMCT                IMCT                                                                                                                    WMF1811092.TXT
MDD6JN232549201811                D89828070100PV5620181114000120SPEAKER ASM                   M IMCTM G9B114 TNTH  09020G/WAY G9 PTB  00004                    1100 GW        0000000000005DENSO TEN (THAILAND)190MRCG0008008190MRVG0025025                                                                                                                *          20181109 IMCT                IMCT                                                                                                                    WMF1811092.TXT
MDD6JN232550201811                D89828070100PV5620181114000060SPEAKER ASM                   M IMCTM G9B114 TNTH  09020G/WAY G9 PTB  00004                    1400 GW        0000000000005DENSO TEN (THAILAND)190MPGG0021021                                                                                                                              *          20181109 IMCT                IMCT                                                                                                                    WMF1811092.TXT
MDD6JN232551201811                D89828070100PV5620181114000060SPEAKER ASM                   M IMCTM G9B114 TNTH  09020G/WAY G9 PTB  00004                    1530 GW        0000000000005DENSO TEN (THAILAND)190MRLG0015015                                                                                                                              *          20181109 IMCT                IMCT                                                                                                                    WMF1811092.TXT
MDD6JN232552201811                D89828070200PV5620181113000120SPEAKER ASM                   M IMCTM G6F132 TNTH  09020G/WAY G6 PTB  00005                    1530 GW        0000000000005DENSO TEN (THAILAND)190MREG0019019190MRTG0039039                                                                                                                *          20181109 IMCT                IMCT                                                                                                                    WMF1811092.TXT
MDD6JN232553201811                D89828070200PV5620181113000060SPEAKER ASM                   M IMCTM G6F132 TNTH  09020G/WAY G6 PTB  00005                    2100 GW        0000000000005DENSO TEN (THAILAND)190MRWG0023023                                                                                                                              *          20181109 IMCT                IMCT                                                                                                                    WMF1811092.TXT
MDD6JN232554201811                D89828070200PV5620181113000060SPEAKER ASM                   M IMCTM G6F132 TNTH  09020G/WAY G6 PTB  00005                    2300 GW        0000000000005DENSO TEN (THAILAND)190MRPG0009009                                                                                                                              *          20181109 IMCT                IMCT                                                                                                                    WMF1811092.TXT
MDD6JN232555201811                D89828070200PV5620181114000060SPEAKER ASM                   M IMCTM G6F132 TNTH  09020G/WAY G6 PTB  00005                    0330 GW        0000000000005DENSO TEN (THAILAND)190MRMG0008008                                                                                                                              *          20181109 IMCT                IMCT                                                                                                                    WMF1811092.TXT
MDD6JN232556201811                D89828070200PV5620181114000060SPEAKER ASM                   M IMCTM G6F132 TNTH  09020G/WAY G6 PTB  00005                    0900 GW        0000000000005DENSO TEN (THAILAND)190MREG0020020                                                                                                                              *          20181109 IMCT                IMCT                                                                                                                    WMF1811092.TXT
MDD6JN232557201811                D89828070200PV5620181114000120SPEAKER ASM                   M IMCTM G6F132 TNTH  09020G/WAY G6 PTB  00005                    1100 GW        0000000000005DENSO TEN (THAILAND)190MRCG0008008190MRVG0025025                                                                                                                *          20181109 IMCT                IMCT                                                                                                                    WMF1811092.TXT
MDD6JN232558201811                D89828070200PV5620181114000060SPEAKER ASM                   M IMCTM G6F132 TNTH  09020G/WAY G6 PTB  00005                    1530 GW        0000000000005DENSO TEN (THAILAND)190MRLG0015015                                                                                                                              *          20181109 IMCT                IMCT                                                                                                                    WMF1811092.TXT
MDD6JN232559201811                D89828070300PT5620181113000120SPEAKER ASM                   M IMCTM G9JA33 TNTH  09020G/WAY G9 PTB  00015                    1530 GW        0000000000005DENSO TEN (THAILAND)190MREG0019019190MRTG0039039                                                                                                                *          20181109 IMCT                IMCT                                                                                                                    WMF1811092.TXT
MDD6JN232560201811                D89828070300PT5620181113000060SPEAKER ASM                   M IMCTM G9JA33 TNTH  09020G/WAY G9 PTB  00015                    2100 GW        0000000000005DENSO TEN (THAILAND)190MRWG0023023                                                                                                                              *          20181109 IMCT                IMCT                                                                                                                    WMF1811092.TXT
MDD6JN232561201811                D89828070300PT5620181113000060SPEAKER ASM                   M IMCTM G9JA33 TNTH  09020G/WAY G9 PTB  00015                    2300 GW        0000000000005DENSO TEN (THAILAND)190MRPG0009009                                                                                                                              *          20181109 IMCT                IMCT                                                                                                                    WMF1811092.TXT
MDD6JN232562201811                D89828070300PT5620181114000060SPEAKER ASM                   M IMCTM G9JA33 TNTH  09020G/WAY G9 PTB  00015                    0330 GW        0000000000005DENSO TEN (THAILAND)190MRMG0008008                                                                                                                              *          20181109 IMCT                IMCT                                                                                                                    WMF1811092.TXT
MDD6JN232563201811                D89828070300PT5620181114000060SPEAKER ASM                   M IMCTM G9JA33 TNTH  09020G/WAY G9 PTB  00015                    0900 GW        0000000000005DENSO TEN (THAILAND)190MREG0020020                                                                                                                              *          20181109 IMCT                IMCT                                                                                                                    WMF1811092.TXT
MDD6JN232564201811                D89828070300PT5620181114000120SPEAKER ASM                   M IMCTM G9JA33 TNTH  09020G/WAY G9 PTB  00015                    1100 GW        0000000000005DENSO TEN (THAILAND)190MRCG0008008190MRVG0025025                                                                                                                *          20181109 IMCT                IMCT                                                                                                                    WMF1811092.TXT
MDD6JN232565201811                D89828070300PT5620181114000060SPEAKER ASM                   M IMCTM G9JA33 TNTH  09020G/WAY G9 PTB  00015                    1400 GW        0000000000005DENSO TEN (THAILAND)190MPGG0021021                                                                                                                              *          20181109 IMCT                IMCT                                                                                                                    WMF1811092.TXT
MDD6JN232566201811                D89828070300PT5620181114000060SPEAKER ASM                   M IMCTM G9JA33 TNTH  09020G/WAY G9 PTB  00015                    1530 GW        0000000000005DENSO TEN (THAILAND)190MRLG0015015                                                                                                                              *          20181109 IMCT                IMCT                                                                                                                    WMF1811092.TXT
MDD6JN232567201811                D89831228300PT5620181114000030RADIO;AM/FM,CD                M IMCTM G9J213 TNTH  09020G/WAY G9 CPB  00003                    1400 GW        0000000000005DENSO TEN (THAILAND)190MPGG0021021                                                                                                                              *          20181109 IMCT                IMCT                                                                                                                    WMF1811092.TXT
MDD6JN232568201811                D89831228400PT5620181113000030RADIO;AM/FM,CD                M IMCTM G9J213 TNTH  09020G/WAY G9 CPB  00003                    1530 GW        0000000000005DENSO TEN (THAILAND)190MREG0019019                                                                                                                              *          20181109 IMCT                IMCT                                                                                                                    WMF1811092.TXT
MDD6JN232569201811                D89831228400PT5620181114000030RADIO;AM/FM,CD                M IMCTM G9J213 TNTH  09020G/WAY G9 CPB  00003                    0900 GW        0000000000005DENSO TEN (THAILAND)190MREG0020020                                                                                                                              *          20181109 IMCT                IMCT                                                                                                                    WMF1811092.TXT
MDD6JN232570201811                D89831228400PT5620181114000030RADIO;AM/FM,CD                M IMCTM G9J213 TNTH  09020G/WAY G9 CPB  00003                    1100 GW        0000000000005DENSO TEN (THAILAND)190MRCG0008008                                                                                                                              *          20181109 IMCT                IMCT                                                                                                                    WMF1811092.TXT
MDD6JN232571201811                D89848581500PT5620181113000030RADIO;AM/FM CD D              M IMCTM G9J213 TNTH  09020G/WAY G9 PTB  00003                    1530 GW        0000000000005DENSO TEN (THAILAND)190MRTG0039039                                                                                                                              *          20181109 IMCT                IMCT                                                                                                                    WMF1811092.TXT
