REC2018112820181128ISUZU                              7      
MDEFJNT25205201812                D89828070100PV4F20181203000028SPEAKER ASM                   M IMCTM S7FL05 TNTH  09020IMCT  S7 PTB  00004                    1300 SR        000000000000 DENSO TEN (THAILAND)18009YR0011   17008RR0164   R181200602    R181200615    000000                                                                              *R         20181128 IMCT                IMCT                                                                                                                    RMF1811282.TXT
MDEFJNT25206201812                D89828070200PV4F20181203000005SPEAKER ASM                   M IMCTM S7FL05 TNTH  09020IMCT  S7 PTB  00005                    0830 SR        000000000000 DENSO TEN (THAILAND)190K22R0007   190K22R0009   D181200513    D181200515    000000                                                                              *R         20181128 IMCT                IMCT                                                                                                                    RMF1811282.TXT
MDEFJNT25207201812                D89828070300PT4F20181202000010SPEAKER ASM                   M IMCTM S7TS02 TNTH  09020IMCT  S7 PTB  00015                    0400 SR        000000000000 DENSO TEN (THAILAND)180G93R0012   190K22R0009   D181200501    D181200515    000000                                                                              *R         20181128 IMCT                IMCT                                                                                                                    RMF1811282.TXT
MDEFJNT25208201812                D89838031200PT4F20181203000003RADIO;ASM DVD                 M IMCTM S7TS03 TNTH  09020IMCT  S7 PTB  00003                    0830 SR        000000000000 DENSO TEN (THAILAND)190K22R0007   190K22R0009   D181200513    D181200515    000000                                                                              *R         20181128 IMCT                IMCT                                                                                                                    RMF1811282.TXT
MDEFJN266174201812                D89828070100PV4F20181202000024SPEAKER ASM                   M IMCTM S7FL05 TNTH  09020IMCT  S7 PTB  00004                    0400 SR        000000000000 DENSO TEN (THAILAND)180G93R0012   18027YR0002   D181200501    D181200512    000000                                                                              *R         20181128 IMCT                IMCT                                                                                                                    RMF1811282.TXT
MDEFJN266175201812                D89828070100PV4F20181203000008SPEAKER ASM                   M IMCTM S7FL05 TNTH  09020IMCT  S7 PTB  00004                    0830 SR        000000000000 DENSO TEN (THAILAND)190K22R0007   180G87R0017   D181200513    R181200601    000000                                                                              *R         20181128 IMCT                IMCT                                                                                                                    RMF1811282.TXT
MDEFJN266176201812                D89828070200PV4F20181202000005SPEAKER ASM                   M IMCTM S7FL05 TNTH  09020IMCT  S7 PTB  00005                    0400 SR        000000000000 DENSO TEN (THAILAND)180G93R0012   190K22R0007   D181200501    D181200513    000000                                                                              *R         20181128 IMCT                IMCT                                                                                                                    RMF1811282.TXT
