REC2018110720181107ISUZU                              9      
MDEBJNT02532201811                D89828070100PT4B20181112000026SPEAKER ASM                   M IMCTM S7FL05 TNTH  09020IMCT  S7 PTB  00004                    1300 SR        000000000000 DENSO TEN (THAILAND)18057YR0032   190J56R0003   Y181102603    Y181102615    000000                                                                              *R         20181107 IMCT                IMCT                                                                                                                    RMF1811074.TXT
MDEBJNT02533201811                D89828070200PV4B20181112000025SPEAKER ASM                   M IMCTM S7FL05 TNTH  09020IMCT  S7 PTB  00005                    1300 SR        000000000000 DENSO TEN (THAILAND)18057YR0032   190J56R0003   Y181102603    Y181102615    000000                                                                              *R         20181107 IMCT                IMCT                                                                                                                    RMF1811074.TXT
MDEBJNT02534201811                D89828070300PT4B20181112000015SPEAKER ASM                   M IMCTM S7TS02 TNTH  09020IMCT  S7 PTB  00015                    1300 SR        000000000000 DENSO TEN (THAILAND)18057YR0035   190J56R0003   Y181102608    Y181102615    000000                                                                              *R         20181107 IMCT                IMCT                                                                                                                    RMF1811074.TXT
MDEBJNT02535201811                D89848584410PT4B20181112000004RADIO;AM/FM CD D              M IMCTM S7TS01 TNTH  09020IMCT  S7 PTB  00003                    1300 SR        000000000000 DENSO TEN (THAILAND)18059UR0023   18060UR0093   Y181102605    Y181102612    000000                                                                              *R         20181107 IMCT                IMCT                                                                                                                    RMF1811074.TXT
MDEBJNT02536201811                D89848584500PT4B20181112000009RADIO;AM/FM CD D              M IMCTM S7TS01 TNTH  09020IMCT  S7 PTB  00003                    1300 SR        000000000000 DENSO TEN (THAILAND)18057YR0031   190J56R0003   Y181102602    Y181102615    000000                                                                              *R         20181107 IMCT                IMCT                                                                                                                    RMF1811074.TXT
MDEBJN203140201811                D89828070100PT4B20181112000004SPEAKER ASM                   M IMCTM S7FL05 TNTH  09020IMCT  S7 PTB  00004                    1030 SR        000000000000 DENSO TEN (THAILAND)18038UR0021   18057YR0031   Y181102601    Y181102602    000000                                                                              *R         20181107 IMCT                IMCT                                                                                                                    RMF1811074.TXT
MDEBJN203141201811                D89828070200PV4B20181112000005SPEAKER ASM                   M IMCTM S7FL05 TNTH  09020IMCT  S7 PTB  00005                    1030 SR        000000000000 DENSO TEN (THAILAND)18038UR0021   18057YR0032   Y181102601    Y181102603    000000                                                                              *R         20181107 IMCT                IMCT                                                                                                                    RMF1811074.TXT
MDEBJN203142201811                D89828070300PT4B20181112000015SPEAKER ASM                   M IMCTM S7TS02 TNTH  09020IMCT  S7 PTB  00015                    1030 SR        000000000000 DENSO TEN (THAILAND)18038UR0021   18057YR0035   Y181102601    Y181102608    000000                                                                              *R         20181107 IMCT                IMCT                                                                                                                    RMF1811074.TXT
MDEFJNT05953201811                D89828070100PV4F20181111000030SPEAKER ASM                   M IMCTM S7FL05 TNTH  09020IMCT  S7 PTB  00004                    0230 SR        000000000000 DENSO TEN (THAILAND)17052RR0057   18075WR0068   R181102501    R181102515    000000                                                                              *R         20181107 IMCT                IMCT                                                                                                                    RMF1811074.TXT
