REC2018111520181115ISUZU                              19     
MAKK8N056311201811D1               89825451200P3YK20181126000060SPEAKER ASM;ROOF              M IMCTM CM1    TNTH  09020IMKDC KA PTB  00036  K0                0911DES        000000000000 DENSO TEN (THAILAND)                                                                                                                                            *G         20181115 IMCT                IMCT                                                                                                                    WMF1811158.TXT
MAKK8N056312201811D1               89825451200P3YK20181128000030SPEAKER ASM;ROOF              M IMCTM CM1    TNTH  09020IMKDC KA PTB  00036  K0                0911DES        000000000000 DENSO TEN (THAILAND)                                                                                                                                            *G         20181115 IMCT                IMCT                                                                                                                    WMF1811158.TXT
MAKK8N056313201811D1               89825451200P3YK20181129000030SPEAKER ASM;ROOF              M IMCTM CM1    TNTH  09020IMKDC KA PTB  00036  K0                0911DES        000000000000 DENSO TEN (THAILAND)                                                                                                                                            *G         20181115 IMCT                IMCT                                                                                                                    WMF1811158.TXT
MAKK8N056314201811D1               89825451200P3YK20181130000060SPEAKER ASM;ROOF              M IMCTM CM1    TNTH  09020IMKDC KA PTB  00036  K0                0911DES        000000000000 DENSO TEN (THAILAND)                                                                                                                                            *G         20181115 IMCT                IMCT                                                                                                                    WMF1811158.TXT
MAKK8N056315201811D1               89828070100P3YK20181126000300SPEAKER ASM                   M IMCTM CM1    TNTH  09020IMKDC KA PTB  00004  K0                0911DES        000000000000 DENSO TEN (THAILAND)                                                                                                                                            *G         20181115 IMCT                IMCT                                                                                                                    WMF1811158.TXT
MAKK8N056316201811D1               89828070100P3YK20181127000330SPEAKER ASM                   M IMCTM CM1    TNTH  09020IMKDC KA PTB  00004  K0                0911DES        000000000000 DENSO TEN (THAILAND)                                                                                                                                            *G         20181115 IMCT                IMCT                                                                                                                    WMF1811158.TXT
MAKK8N056317201811D1               89828070100P3YK20181128000270SPEAKER ASM                   M IMCTM CM1    TNTH  09020IMKDC KA PTB  00004  K0                0911DES        000000000000 DENSO TEN (THAILAND)                                                                                                                                            *G         20181115 IMCT                IMCT                                                                                                                    WMF1811158.TXT
MAKK8N056318201811D1               89828070100P3YK20181129000300SPEAKER ASM                   M IMCTM CM1    TNTH  09020IMKDC KA PTB  00004  K0                0911DES        000000000000 DENSO TEN (THAILAND)                                                                                                                                            *G         20181115 IMCT                IMCT                                                                                                                    WMF1811158.TXT
MAKK8N056319201811D1               89828070100P3YK20181130000360SPEAKER ASM                   M IMCTM CM1    TNTH  09020IMKDC KA PTB  00004  K0                0911DES        000000000000 DENSO TEN (THAILAND)                                                                                                                                            *G         20181115 IMCT                IMCT                                                                                                                    WMF1811158.TXT
MAKK8N056320201811D1               89828070200P3YK20181126000060SPEAKER ASM                   M IMCTM CM1    TNTH  09020IMKDC KA PTB  00005  K0                0911DES        000000000000 DENSO TEN (THAILAND)                                                                                                                                            *G         20181115 IMCT                IMCT                                                                                                                    WMF1811158.TXT
MAKK8N056321201811D1               89828070200P3YK20181127000060SPEAKER ASM                   M IMCTM CM1    TNTH  09020IMKDC KA PTB  00005  K0                0911DES        000000000000 DENSO TEN (THAILAND)                                                                                                                                            *G         20181115 IMCT                IMCT                                                                                                                    WMF1811158.TXT
MAKK8N056322201811D1               89828070200P3YK20181128000060SPEAKER ASM                   M IMCTM CM1    TNTH  09020IMKDC KA PTB  00005  K0                0911DES        000000000000 DENSO TEN (THAILAND)                                                                                                                                            *G         20181115 IMCT                IMCT                                                                                                                    WMF1811158.TXT
MAKK8N056323201811D1               89828070200P3YK20181129000150SPEAKER ASM                   M IMCTM CM1    TNTH  09020IMKDC KA PTB  00005  K0                0911DES        000000000000 DENSO TEN (THAILAND)                                                                                                                                            *G         20181115 IMCT                IMCT                                                                                                                    WMF1811158.TXT
MAKK8N056324201811D1               89828070200P3YK20181130000150SPEAKER ASM                   M IMCTM CM1    TNTH  09020IMKDC KA PTB  00005  K0                0911DES        000000000000 DENSO TEN (THAILAND)                                                                                                                                            *G         20181115 IMCT                IMCT                                                                                                                    WMF1811158.TXT
MAKK8N056325201811D1               89828070300P3YK20181126000060SPEAKER ASM                   M IMCTM CM1    TNTH  09020IMKDC KA PTB  00015  K0                0911DES        000000000000 DENSO TEN (THAILAND)                                                                                                                                            *G         20181115 IMCT                IMCT                                                                                                                    WMF1811158.TXT
MAKK8N056326201811D1               89828070300P3YK20181127000090SPEAKER ASM                   M IMCTM CM1    TNTH  09020IMKDC KA PTB  00015  K0                0911DES        000000000000 DENSO TEN (THAILAND)                                                                                                                                            *G         20181115 IMCT                IMCT                                                                                                                    WMF1811158.TXT
MAKK8N056327201811D1               89828070300P3YK20181128000060SPEAKER ASM                   M IMCTM CM1    TNTH  09020IMKDC KA PTB  00015  K0                0911DES        000000000000 DENSO TEN (THAILAND)                                                                                                                                            *G         20181115 IMCT                IMCT                                                                                                                    WMF1811158.TXT
MAKK8N056328201811D1               89828070300P3YK20181129000150SPEAKER ASM                   M IMCTM CM1    TNTH  09020IMKDC KA PTB  00015  K0                0911DES        000000000000 DENSO TEN (THAILAND)                                                                                                                                            *G         20181115 IMCT                IMCT                                                                                                                    WMF1811158.TXT
MAKK8N056329201811D1               89828070300P3YK20181130000210SPEAKER ASM                   M IMCTM CM1    TNTH  09020IMKDC KA PTB  00015  K0                0911DES        000000000000 DENSO TEN (THAILAND)                                                                                                                                            *G         20181115 IMCT                IMCT                                                                                                                    WMF1811158.TXT
