REC2018112420181124ISUZU                              47     
MDDDJN338681201811                D89821984430PT1D20181129000060RADIO;AM/FM,CD                M IMCTM S5NC06 TNTH  09020IMCT  S5 PTB  00005                    1300 SR        000000000000 DENSO TEN (THAILAND)190MNGL0033033190MYAL0058058                                                                                                                *          20181124 IMCT                IMCT                                                                                                                    WMF1811243.TXT
MDDDJN338682201811                D89828070100PV1D20181128000060SPEAKER ASM                   M IMCTM S5MB11 TNTH  09020IMCT  S5 PTB  00004                    2230 SR        000000000000 DENSO TEN (THAILAND)190MPCL0011011                                                                                                                              *          20181124 IMCT                IMCT                                                                                                                    WMF1811243.TXT
MDDDJN338683201811                D89828070100PV1D20181129000060SPEAKER ASM                   M IMCTM S5MB11 TNTH  09020IMCT  S5 PTB  00004                    0230 SR        000000000000 DENSO TEN (THAILAND)190MXAL0009009                                                                                                                              *          20181124 IMCT                IMCT                                                                                                                    WMF1811243.TXT
MDDDJN338684201811                D89828070100PV1D20181129000120SPEAKER ASM                   M IMCTM S5MB11 TNTH  09020IMCT  S5 PTB  00004                    0400 SR        000000000000 DENSO TEN (THAILAND)190MPFL0022022190MPGL0062062                                                                                                                *          20181124 IMCT                IMCT                                                                                                                    WMF1811243.TXT
MDDDJN338685201811                D89828070100PV1D20181129000060SPEAKER ASM                   M IMCTM S5MB11 TNTH  09020IMCT  S5 PTB  00004                    1030 SR        000000000000 DENSO TEN (THAILAND)190MXBL0007007                                                                                                                              *          20181124 IMCT                IMCT                                                                                                                    WMF1811243.TXT
MDDDJN338686201811                D89828070100PV1D20181129000120SPEAKER ASM                   M IMCTM S5MB11 TNTH  09020IMCT  S5 PTB  00004                    1300 SR        000000000000 DENSO TEN (THAILAND)190MNGL0033033190MYAL0058058                                                                                                                *          20181124 IMCT                IMCT                                                                                                                    WMF1811243.TXT
MDDDJN338687201811                D89828070100PV1D20181129000120SPEAKER ASM                   M IMCTM S5MB11 TNTH  09020IMCT  S5 PTB  00004                    1600 SR        000000000000 DENSO TEN (THAILAND)190MPDL0009009190MPGL0063063                                                                                                                *          20181124 IMCT                IMCT                                                                                                                    WMF1811243.TXT
MDDDJN338688201811                D89828070100PV4D20181129000060SPEAKER ASM                   M IMCTM S0FL05 TNTH  09020IMCT  S0 PTB  00004                    1300 SR        000000000000 DENSO TEN (THAILAND)190MRTU0032032                                                                                                                              *          20181124 IMCT                IMCT                                                                                                                    WMF1811243.TXT
MDDDJN338689201811                D89828070200PV4D20181129000060SPEAKER ASM                   M IMCTM S0FR05 TNTH  09020IMCT  S0 PTB  00005                    1300 SR        000000000000 DENSO TEN (THAILAND)190MRTU0032032                                                                                                                              *          20181124 IMCT                IMCT                                                                                                                    WMF1811243.TXT
MDDDJN338690201811                D89828070300PT1D20181128000060SPEAKER ASM                   M IMCTM S5NB082TNTH  09020IMCT  S5 PTB  00015                    2230 SR        000000000000 DENSO TEN (THAILAND)190MPCL0011011                                                                                                                              *          20181124 IMCT                IMCT                                                                                                                    WMF1811243.TXT
MDDDJN338691201811                D89828070300PT1D20181129000120SPEAKER ASM                   M IMCTM S5NB082TNTH  09020IMCT  S5 PTB  00015                    0400 SR        000000000000 DENSO TEN (THAILAND)190MPFL0022022190MPGL0062062                                                                                                                *          20181124 IMCT                IMCT                                                                                                                    WMF1811243.TXT
MDDDJN338692201811                D89828070300PT1D20181129000120SPEAKER ASM                   M IMCTM S5NB082TNTH  09020IMCT  S5 PTB  00015                    1600 SR        000000000000 DENSO TEN (THAILAND)190MPDL0009009190MPGL0063063                                                                                                                *          20181124 IMCT                IMCT                                                                                                                    WMF1811243.TXT
MDDDJN338693201811                D89828070300PT4D20181129000060SPEAKER ASM                   M IMCTM S9TS02 TNTH  09020IMCT  S9 PTB  00015                    1300 SR        000000000000 DENSO TEN (THAILAND)190MRTU0032032                                                                                                                              *          20181124 IMCT                IMCT                                                                                                                    WMF1811243.TXT
MDDDJN338694201811                D89831228300PT1D20181128000030RADIO;AM/FM,CD                M IMCTM S5NC06 TNTH  09020IMCT  S5 CPB  00003                    2230 SR        000000000000 DENSO TEN (THAILAND)190MPCL0011011                                                                                                                              *          20181124 IMCT                IMCT                                                                                                                    WMF1811243.TXT
MDDDJN338695201811                D89831228300PT1D20181129000060RADIO;AM/FM,CD                M IMCTM S5NC06 TNTH  09020IMCT  S5 CPB  00003                    0400 SR        000000000000 DENSO TEN (THAILAND)190MPFL0022022190MPGL0062062                                                                                                                *          20181124 IMCT                IMCT                                                                                                                    WMF1811243.TXT
MDDDJN338696201811                D89831228300PT1D20181129000060RADIO;AM/FM,CD                M IMCTM S5NC06 TNTH  09020IMCT  S5 CPB  00003                    1600 SR        000000000000 DENSO TEN (THAILAND)190MPDL0009009190MPGL0063063                                                                                                                *          20181124 IMCT                IMCT                                                                                                                    WMF1811243.TXT
MDDDJN338697201811                D89848581500PT4D20181129000030RADIO;AM/FM CD D              M IMCTM S9CO001TNTH  09020IMCT  S9 PTB  00003                    1300 SR        000000000000 DENSO TEN (THAILAND)190MRTU0032032                                                                                                                              *          20181124 IMCT                IMCT                                                                                                                    WMF1811243.TXT
MDDUJN243998201811                D89828070100PT4U20181128000030SPEAKER ASM                   M IMCTM S0FL05 TNTH  09020IMCT  S0 PTB  00004                    2230 SR        000000000000 DENSO TEN (THAILAND)180LUTU0144144                                                                                                                              *          20181124 IMCT                IMCT                                                                                                                    WMF1811243.TXT
MDDUJN243999201811                D89828070100PT4U20181129000030SPEAKER ASM                   M IMCTM S0FL05 TNTH  09020IMCT  S0 PTB  00004                    0230 SR        000000000000 DENSO TEN (THAILAND)180LUSU0220220                                                                                                                              *          20181124 IMCT                IMCT                                                                                                                    WMF1811243.TXT
MDDUJN244000201811                D89828070100PT4U20181129000030SPEAKER ASM                   M IMCTM S0FL05 TNTH  09020IMCT  S0 PTB  00004                    1300 SR        000000000000 DENSO TEN (THAILAND)180LUPU0046046                                                                                                                              *          20181124 IMCT                IMCT                                                                                                                    WMF1811243.TXT
MDDUJN244001201811                D89828070100PT4U20181129000030SPEAKER ASM                   M IMCTM S0FL05 TNTH  09020IMCT  S0 PTB  00004                    2100 SR        000000000000 DENSO TEN (THAILAND)180LURU0090090                                                                                                                              *          20181124 IMCT                IMCT                                                                                                                    WMF1811243.TXT
MDDUJN244002201811                D89828070200PV4U20181128000030SPEAKER ASM                   M IMCTM S0FR05 TNTH  09020IMCT  S0 PTB  00005                    2230 SR        000000000000 DENSO TEN (THAILAND)180LUTU0144144                                                                                                                              *          20181124 IMCT                IMCT                                                                                                                    WMF1811243.TXT
MDDUJN244003201811                D89828070200PV4U20181129000030SPEAKER ASM                   M IMCTM S0FR05 TNTH  09020IMCT  S0 PTB  00005                    0230 SR        000000000000 DENSO TEN (THAILAND)180LUSU0220220                                                                                                                              *          20181124 IMCT                IMCT                                                                                                                    WMF1811243.TXT
MDDUJN244004201811                D89828070200PV4U20181129000030SPEAKER ASM                   M IMCTM S0FR05 TNTH  09020IMCT  S0 PTB  00005                    1300 SR        000000000000 DENSO TEN (THAILAND)180LUPU0046046                                                                                                                              *          20181124 IMCT                IMCT                                                                                                                    WMF1811243.TXT
MDDUJN244005201811                D89828070200PV4U20181129000030SPEAKER ASM                   M IMCTM S0FR05 TNTH  09020IMCT  S0 PTB  00005                    2100 SR        000000000000 DENSO TEN (THAILAND)180LURU0090090                                                                                                                              *          20181124 IMCT                IMCT                                                                                                                    WMF1811243.TXT
MDDUJN244006201811                D89828070300PT4U20181128000030SPEAKER ASM                   M IMCTM S9TS02 TNTH  09020IMCT  S9 PTB  00015                    2230 SR        000000000000 DENSO TEN (THAILAND)180LUTU0144144                                                                                                                              *          20181124 IMCT                IMCT                                                                                                                    WMF1811243.TXT
MDDUJN244007201811                D89828070300PT4U20181129000030SPEAKER ASM                   M IMCTM S9TS02 TNTH  09020IMCT  S9 PTB  00015                    0230 SR        000000000000 DENSO TEN (THAILAND)180LUSU0220220                                                                                                                              *          20181124 IMCT                IMCT                                                                                                                    WMF1811243.TXT
MDDUJN244008201811                D89828070300PT4U20181129000030SPEAKER ASM                   M IMCTM S9TS02 TNTH  09020IMCT  S9 PTB  00015                    1300 SR        000000000000 DENSO TEN (THAILAND)180LUPU0046046                                                                                                                              *          20181124 IMCT                IMCT                                                                                                                    WMF1811243.TXT
MDDUJN244009201811                D89828070300PT4U20181129000030SPEAKER ASM                   M IMCTM S9TS02 TNTH  09020IMCT  S9 PTB  00015                    2100 SR        000000000000 DENSO TEN (THAILAND)180LURU0090090                                                                                                                              *          20181124 IMCT                IMCT                                                                                                                    WMF1811243.TXT
MDDUJN244010201811                D89831228400PT4U20181129000015RADIO;AM/FM,CD                M IMCTM S9CO001TNTH  09020IMCT  S9 CPB  00003                    1300 SR        000000000000 DENSO TEN (THAILAND)180LUPU0046046                                                                                                                              *          20181124 IMCT                IMCT                                                                                                                    WMF1811243.TXT
MDEDJN293666201811                D89752845100PT1D20181129000015RADIO;AM/FM CD D              M IMCTM S5NC06 TNTH  09020IMCT  S5 PTB  00003                    0830 SR        000000000000 DENSO TEN (THAILAND)18077UL0011011                                                                                                                              *          20181124 IMCT                IMCT                                                                                                                    WMF1811243.TXT
MDEDJN293667201811                D89828070100PV1D20181128000060SPEAKER ASM                   M IMCTM S5MB11 TNTH  09020IMCT  S5 PTB  00004                    2230 SR        000000000000 DENSO TEN (THAILAND)17004RL0012013                                                                                                                              *          20181124 IMCT                IMCT                                                                                                                    WMF1811243.TXT
MDEDJN293668201811                D89828070100PV1D20181129000060SPEAKER ASM                   M IMCTM S5MB11 TNTH  09020IMCT  S5 PTB  00004                    0830 SR        000000000000 DENSO TEN (THAILAND)18040XL000800818077UL0011011                                                                                                                *          20181124 IMCT                IMCT                                                                                                                    WMF1811243.TXT
MDEDJN293669201811                D89828070100PV1D20181129000030SPEAKER ASM                   M IMCTM S5MB11 TNTH  09020IMCT  S5 PTB  00004                    2100 SR        000000000000 DENSO TEN (THAILAND)17079QL0049049                                                                                                                              *          20181124 IMCT                IMCT                                                                                                                    WMF1811243.TXT
MDEDJN293670201811                D89828070100PV4D20181128000030SPEAKER ASM                   M IMCTM S0FL05 TNTH  09020IMCT  S0 PTB  00004                    2230 SR        000000000000 DENSO TEN (THAILAND)190J94U0006006                                                                                                                              *          20181124 IMCT                IMCT                                                                                                                    WMF1811243.TXT
MDEDJN293671201811                D89828070100PV4D20181129000030SPEAKER ASM                   M IMCTM S0FL05 TNTH  09020IMCT  S0 PTB  00004                    0230 SR        000000000000 DENSO TEN (THAILAND)190J75U0003003                                                                                                                              *          20181124 IMCT                IMCT                                                                                                                    WMF1811243.TXT
MDEDJN293672201811                D89828070100PV4D20181129000030SPEAKER ASM                   M IMCTM S0FL05 TNTH  09020IMCT  S0 PTB  00004                    0830 SR        000000000000 DENSO TEN (THAILAND)190J85U0004004                                                                                                                              *          20181124 IMCT                IMCT                                                                                                                    WMF1811243.TXT
MDEDJN293673201811                D89828070100PV4D20181129000030SPEAKER ASM                   M IMCTM S0FL05 TNTH  09020IMCT  S0 PTB  00004                    1600 SR        000000000000 DENSO TEN (THAILAND)190K07U0002002                                                                                                                              *          20181124 IMCT                IMCT                                                                                                                    WMF1811243.TXT
MDEDJN293674201811                D89828070200PV1D20181128000060SPEAKER ASM                   M IMCTM S5MA14 TNTH  09020IMCT  S5 PTB  00005                    2230 SR        000000000000 DENSO TEN (THAILAND)17004RL0012013                                                                                                                              *          20181124 IMCT                IMCT                                                                                                                    WMF1811243.TXT
MDEDJN293675201811                D89828070200PV1D20181129000060SPEAKER ASM                   M IMCTM S5MA14 TNTH  09020IMCT  S5 PTB  00005                    0830 SR        000000000000 DENSO TEN (THAILAND)18040XL000800818077UL0011011                                                                                                                *          20181124 IMCT                IMCT                                                                                                                    WMF1811243.TXT
MDEDJN293676201811                D89828070300PT1D20181128000060SPEAKER ASM                   M IMCTM S5NB082TNTH  09020IMCT  S5 PTB  00015                    2230 SR        000000000000 DENSO TEN (THAILAND)17004RL0012013                                                                                                                              *          20181124 IMCT                IMCT                                                                                                                    WMF1811243.TXT
MDEDJN293677201811                D89828070300PT1D20181129000060SPEAKER ASM                   M IMCTM S5NB082TNTH  09020IMCT  S5 PTB  00015                    0830 SR        000000000000 DENSO TEN (THAILAND)18040XL000800818077UL0011011                                                                                                                *          20181124 IMCT                IMCT                                                                                                                    WMF1811243.TXT
MDEDJN293678201811                D89829645420PT1D20181128000030RADIO;ASM DVD                 M IMCTM S5NC06 TNTH  09020IMCT  S5 PTB  00003                    2230 SR        000000000000 DENSO TEN (THAILAND)17004RL0012013                                                                                                                              *          20181124 IMCT                IMCT                                                                                                                    WMF1811243.TXT
MDEDJN293679201811                D89848582100PT1D20181129000015RADIO;AM/FM CD D              M IMCTM S5NC06 TNTH  09020IMCT  S5 PTB  00003                    0830 SR        000000000000 DENSO TEN (THAILAND)18040XL0008008                                                                                                                              *          20181124 IMCT                IMCT                                                                                                                    WMF1811243.TXT
MDEUJN224147201811                D89828070100PT4U20181129000030SPEAKER ASM                   M IMCTM S0FL05 TNTH  09020IMCT  S0 PTB  00004                    1030 SR        000000000000 DENSO TEN (THAILAND)180D06U0031031                                                                                                                              *          20181124 IMCT                IMCT                                                                                                                    WMF1811243.TXT
MDEUJN224148201811                D89828070200PV4U20181129000030SPEAKER ASM                   M IMCTM S0FR05 TNTH  09020IMCT  S0 PTB  00005                    1030 SR        000000000000 DENSO TEN (THAILAND)180D06U0031031                                                                                                                              *          20181124 IMCT                IMCT                                                                                                                    WMF1811243.TXT
MDEUJN224149201811                D89828070300PT4U20181129000030SPEAKER ASM                   M IMCTM S9TS02 TNTH  09020IMCT  S9 PTB  00015                    1030 SR        000000000000 DENSO TEN (THAILAND)180D06U0031031                                                                                                                              *          20181124 IMCT                IMCT                                                                                                                    WMF1811243.TXT
