REC2018112920181129ISUZU                              3      
MGCKJN804868000000          IMKDC  89828070300P3YK20181212000450SPEAKER ASM                   M       IMKDC  TNTH  09020IMKDC KI*PTB  000151   K293J4370   001 0000 ES        000000000000 DENSO TEN (THAILAND)                                                                                                                                                       20181129 IMCT                IMCT                                                                                                                    WMF1811292.TXT
MECKJN805056000000          IMKDC  89828070300P3YK20181207000300SPEAKER ASM                   M IMCTM IMKDC  TNTH  09020IMKDC KI*PTB  00015    K293J4450   011 0000 ES        000000000000 DENSO TEN (THAILAND)                                                                                                                                            *G         20181129 IMCT                IMCT                                                                                                                    WMF1811292.TXT
MECKJN805057000000          IMKDC  89828070300P3YK20181212000150SPEAKER ASM                   M IMCTM IMKDC  TNTH  09020IMKDC KI*PTB  00015    K293J4460   001 0000 ES        000000000000 DENSO TEN (THAILAND)                                                                                                                                            *G         20181129 IMCT                IMCT                                                                                                                    WMF1811292.TXT
