REC2018121720181217ISUZU                              10     
MDD6JD268280201812                D89821984430PT5620181221000030RADIO;AM/FM,CD                M IMCTM G9J213 TNTH  09020G/WAY G9 PTB  00005                    2100 GW        0000000000005DENSO TEN (THAILAND)190MYAG0043043                                                                                                                              *          20181217 IMCT                IMCT                                                                                                                    WMF1812175.TXT
MDD6JD268281201812                D89828070100PV5620181221000120SPEAKER ASM                   M IMCTM G9B114 TNTH  09020G/WAY G9 PTB  00004                    2100 GW        0000000000005DENSO TEN (THAILAND)190MRVG0040040190MYAG0043043                                                                                                                *          20181217 IMCT                IMCT                                                                                                                    WMF1812175.TXT
MDD6JD268282201812                D89828070100PV5620181221000060SPEAKER ASM                   M IMCTM G9B114 TNTH  09020G/WAY G9 PTB  00004                    2300 GW        0000000000005DENSO TEN (THAILAND)190MRWG0039039                                                                                                                              *          20181217 IMCT                IMCT                                                                                                                    WMF1812175.TXT
MDD6JD268283201812                D89828070100PV5620181222000060SPEAKER ASM                   M IMCTM G9B114 TNTH  09020G/WAY G9 PTB  00004                    0200 GW        0000000000005DENSO TEN (THAILAND)190MPKG0014014                                                                                                                              *          20181217 IMCT                IMCT                                                                                                                    WMF1812175.TXT
MDD6JD268284201812                D89828070200PV5620181221000060SPEAKER ASM                   M IMCTM G6F132 TNTH  09020G/WAY G6 PTB  00005                    2100 GW        0000000000005DENSO TEN (THAILAND)190MRVG0040040                                                                                                                              *          20181217 IMCT                IMCT                                                                                                                    WMF1812175.TXT
MDD6JD268285201812                D89828070200PV5620181221000060SPEAKER ASM                   M IMCTM G6F132 TNTH  09020G/WAY G6 PTB  00005                    2300 GW        0000000000005DENSO TEN (THAILAND)190MRWG0039039                                                                                                                              *          20181217 IMCT                IMCT                                                                                                                    WMF1812175.TXT
MDD6JD268286201812                D89828070300PT5620181221000060SPEAKER ASM                   M IMCTM G9JA33 TNTH  09020G/WAY G9 PTB  00015                    2100 GW        0000000000005DENSO TEN (THAILAND)190MRVG0040040                                                                                                                              *          20181217 IMCT                IMCT                                                                                                                    WMF1812175.TXT
MDD6JD268287201812                D89828070300PT5620181221000060SPEAKER ASM                   M IMCTM G9JA33 TNTH  09020G/WAY G9 PTB  00015                    2300 GW        0000000000005DENSO TEN (THAILAND)190MRWG0039039                                                                                                                              *          20181217 IMCT                IMCT                                                                                                                    WMF1812175.TXT
MDD6JD268288201812                D89828070300PT5620181222000060SPEAKER ASM                   M IMCTM G9JA33 TNTH  09020G/WAY G9 PTB  00015                    0200 GW        0000000000005DENSO TEN (THAILAND)190MPKG0014014                                                                                                                              *          20181217 IMCT                IMCT                                                                                                                    WMF1812175.TXT
MDD6JD268289201812                D89848581600PT5620181222000030RADIO;AM/FM CD D              M IMCTM G9J213 TNTH  09020G/WAY G9 PTB  00003                    0200 GW        0000000000005DENSO TEN (THAILAND)190MPKG0014014                                                                                                                              *          20181217 IMCT                IMCT                                                                                                                    WMF1812175.TXT
