REC2018122520181225ISUZU                              6      
MDEFJDT22596201901                D89828070100PV4F20190107000026SPEAKER ASM                   M IMCTM S7FL05 TNTH  09020IMCT  S7 PTB  00004                    1300 SR        000000000000 DENSO TEN (THAILAND)190H78R0002   190J08R0002   D190100103    D190100115    000000                                                                              *R         20181225 IMCT                IMCT                                                                                                                    RMF1812255.TXT
MDEFJDT22597201901                D89828070200PV4F20190107000003SPEAKER ASM                   M IMCTM S7FL05 TNTH  09020IMCT  S7 PTB  00005                    1300 SR        000000000000 DENSO TEN (THAILAND)190J14R0001   190J08R0002   D190100106    D190100115    000000                                                                              *R         20181225 IMCT                IMCT                                                                                                                    RMF1812255.TXT
MDEFJDT22598201901                D89828070300PT4F20190107000008SPEAKER ASM                   M IMCTM S7TS02 TNTH  09020IMCT  S7 PTB  00015                    1030 SR        000000000000 DENSO TEN (THAILAND)190J08R0001   190J08R0002   D190100101    D190100115    000000                                                                              *R         20181225 IMCT                IMCT                                                                                                                    RMF1812255.TXT
MDEFJDT22599201901                D89848582100PT4F20190107000001RADIO;AM/FM CD D              M IMCTM S7TS01 TNTH  09020IMCT  S7 PTB  00003                    1300 SR        000000000000 DENSO TEN (THAILAND)190J14R0001   190J14R0001   D190100106    D190100106    000000                                                                              *R         20181225 IMCT                IMCT                                                                                                                    RMF1812255.TXT
MDEFJD257130201901                D89828070100PV4F20190107000004SPEAKER ASM                   M IMCTM S7FL05 TNTH  09020IMCT  S7 PTB  00004                    1030 SR        000000000000 DENSO TEN (THAILAND)190J08R0001   190H78R0001   D190100101    D190100102    000000                                                                              *R         20181225 IMCT                IMCT                                                                                                                    RMF1812255.TXT
MDEFJD257131201901                D89828070200PV4F20190107000005SPEAKER ASM                   M IMCTM S7FL05 TNTH  09020IMCT  S7 PTB  00005                    1030 SR        000000000000 DENSO TEN (THAILAND)190J08R0001   190J14R0001   D190100101    D190100106    000000                                                                              *R         20181225 IMCT                IMCT                                                                                                                    RMF1812255.TXT
