REC2018122520181225ISUZU                              32     
MDDDJD320663201901                D89821984430PT1D20190107000030RADIO;AM/FM,CD                M IMCTM S5NC06 TNTH  09020IMCT  S5 PTB  00005                    1030 SR        000000000000 DENSO TEN (THAILAND)190MNGL0053053                                                                                                                              *          20181225 IMCT                IMCT                                                                                                                    WMF1812255.TXT
MDDDJD320664201901                D89821984430PT1D20190107000030RADIO;AM/FM,CD                M IMCTM S5NC06 TNTH  09020IMCT  S5 PTB  00005                    2100 SR        000000000000 DENSO TEN (THAILAND)190MXCL0022022                                                                                                                              *          20181225 IMCT                IMCT                                                                                                                    WMF1812255.TXT
MDDDJD320665201901                D89828070100PV1D20190106000060SPEAKER ASM                   M IMCTM S5MB11 TNTH  09020IMCT  S5 PTB  00004                    1300 SR        000000000000 DENSO TEN (THAILAND)190MPCL0025025                                                                                                                              *          20181225 IMCT                IMCT                                                                                                                    WMF1812255.TXT
MDDDJD320666201901                D89828070100PV1D20190107000060SPEAKER ASM                   M IMCTM S5MB11 TNTH  09020IMCT  S5 PTB  00004                    1030 SR        000000000000 DENSO TEN (THAILAND)190MNGL0053053                                                                                                                              *          20181225 IMCT                IMCT                                                                                                                    WMF1812255.TXT
MDDDJD320667201901                D89828070100PV1D20190107000120SPEAKER ASM                   M IMCTM S5MB11 TNTH  09020IMCT  S5 PTB  00004                    1600 SR        000000000000 DENSO TEN (THAILAND)190MPGL0082083                                                                                                                              *          20181225 IMCT                IMCT                                                                                                                    WMF1812255.TXT
MDDDJD320668201901                D89828070100PV1D20190107000060SPEAKER ASM                   M IMCTM S5MB11 TNTH  09020IMCT  S5 PTB  00004                    2100 SR        000000000000 DENSO TEN (THAILAND)190MXCL0022022                                                                                                                              *          20181225 IMCT                IMCT                                                                                                                    WMF1812255.TXT
MDDDJD320669201901                D89828070100PV4D20190107000060SPEAKER ASM                   M IMCTM S0FL05 TNTH  09020IMCT  S0 PTB  00004                    1030 SR        000000000000 DENSO TEN (THAILAND)190MRWU0025025                                                                                                                              *          20181225 IMCT                IMCT                                                                                                                    WMF1812255.TXT
MDDDJD320670201901                D89828070200PV4D20190107000060SPEAKER ASM                   M IMCTM S0FR05 TNTH  09020IMCT  S0 PTB  00005                    1030 SR        000000000000 DENSO TEN (THAILAND)190MRWU0025025                                                                                                                              *          20181225 IMCT                IMCT                                                                                                                    WMF1812255.TXT
MDDDJD320671201901                D89828070300PT1D20190106000060SPEAKER ASM                   M IMCTM S5NB082TNTH  09020IMCT  S5 PTB  00015                    1300 SR        000000000000 DENSO TEN (THAILAND)190MPCL0025025                                                                                                                              *          20181225 IMCT                IMCT                                                                                                                    WMF1812255.TXT
MDDDJD320672201901                D89828070300PT1D20190107000120SPEAKER ASM                   M IMCTM S5NB082TNTH  09020IMCT  S5 PTB  00015                    1600 SR        000000000000 DENSO TEN (THAILAND)190MPGL0082083                                                                                                                              *          20181225 IMCT                IMCT                                                                                                                    WMF1812255.TXT
MDDDJD320673201901                D89828070300PT4D20190107000060SPEAKER ASM                   M IMCTM S9TS02 TNTH  09020IMCT  S9 PTB  00015                    1030 SR        000000000000 DENSO TEN (THAILAND)190MRWU0025025                                                                                                                              *          20181225 IMCT                IMCT                                                                                                                    WMF1812255.TXT
MDDDJD320674201901                D89831228300PT1D20190106000030RADIO;AM/FM,CD                M IMCTM S5NC06 TNTH  09020IMCT  S5 CPB  00003                    1300 SR        000000000000 DENSO TEN (THAILAND)190MPCL0025025                                                                                                                              *          20181225 IMCT                IMCT                                                                                                                    WMF1812255.TXT
MDDDJD320675201901                D89831228300PT1D20190107000060RADIO;AM/FM,CD                M IMCTM S5NC06 TNTH  09020IMCT  S5 CPB  00003                    1600 SR        000000000000 DENSO TEN (THAILAND)190MPGL0082083                                                                                                                              *          20181225 IMCT                IMCT                                                                                                                    WMF1812255.TXT
MDEDJD326037201901                D89828070100PV1D20190106000030SPEAKER ASM                   M IMCTM S5MB11 TNTH  09020IMCT  S5 PTB  00004                    1600 SR        000000000000 DENSO TEN (THAILAND)190J94L0032032                                                                                                                              *          20181225 IMCT                IMCT                                                                                                                    WMF1812255.TXT
MDEDJD326038201901                D89828070100PV1D20190107000090SPEAKER ASM                   M IMCTM S5MB11 TNTH  09020IMCT  S5 PTB  00004                    0830 SR        000000000000 DENSO TEN (THAILAND)190J94L0033035                                                                                                                              *          20181225 IMCT                IMCT                                                                                                                    WMF1812255.TXT
MDEDJD326039201901                D89828070100PV1D20190107000120SPEAKER ASM                   M IMCTM S5MB11 TNTH  09020IMCT  S5 PTB  00004                    1300 SR        000000000000 DENSO TEN (THAILAND)190H49L0001001190J94L0036038                                                                                                                *          20181225 IMCT                IMCT                                                                                                                    WMF1812255.TXT
MDEDJD326040201901                D89828070100PV4D20190106000030SPEAKER ASM                   M IMCTM S0FL05 TNTH  09020IMCT  S0 PTB  00004                    1600 SR        000000000000 DENSO TEN (THAILAND)190F84U0023023                                                                                                                              *          20181225 IMCT                IMCT                                                                                                                    WMF1812255.TXT
MDEDJD326041201901                D89828070100PV4D20190107000060SPEAKER ASM                   M IMCTM S0FL05 TNTH  09020IMCT  S0 PTB  00004                    0830 SR        000000000000 DENSO TEN (THAILAND)190J94U0010011                                                                                                                              *          20181225 IMCT                IMCT                                                                                                                    WMF1812255.TXT
MDEDJD326042201901                D89828070100PV4D20190107000030SPEAKER ASM                   M IMCTM S0FL05 TNTH  09020IMCT  S0 PTB  00004                    1300 SR        000000000000 DENSO TEN (THAILAND)190J94U0012012                                                                                                                              *          20181225 IMCT                IMCT                                                                                                                    WMF1812255.TXT
MDEDJD326043201901                D89828070100PV4D20190107000030SPEAKER ASM                   M IMCTM S0FL05 TNTH  09020IMCT  S0 PTB  00004                    2100 SR        000000000000 DENSO TEN (THAILAND)190H86U0001001                                                                                                                              *          20181225 IMCT                IMCT                                                                                                                    WMF1812255.TXT
MDEDJD326044201901                D89828070200PV4D20190107000030SPEAKER ASM                   M IMCTM S0FR05 TNTH  09020IMCT  S0 PTB  00005                    2100 SR        000000000000 DENSO TEN (THAILAND)190H86U0001001                                                                                                                              *          20181225 IMCT                IMCT                                                                                                                    WMF1812255.TXT
MDEDJD326045201901                D89828070300PT4D20190107000030SPEAKER ASM                   M IMCTM S9TS02 TNTH  09020IMCT  S9 PTB  00015                    2100 SR        000000000000 DENSO TEN (THAILAND)190H86U0001001                                                                                                                              *          20181225 IMCT                IMCT                                                                                                                    WMF1812255.TXT
MDEDJD326046201901                D89848582100PT4D20190107000015RADIO;AM/FM CD D              M IMCTM S9CO001TNTH  09020IMCT  S9 PTB  00003                    2100 SR        000000000000 DENSO TEN (THAILAND)190H86U0001001                                                                                                                              *          20181225 IMCT                IMCT                                                                                                                    WMF1812255.TXT
MDEUJD256974201901                D89828070100PT4U20190107000030SPEAKER ASM                   M IMCTM S0FL05 TNTH  09020IMCT  S0 PTB  00004                    1300 SR        000000000000 DENSO TEN (THAILAND)18043YU0010010                                                                                                                              *          20181225 IMCT                IMCT                                                                                                                    WMF1812255.TXT
MDEUJD256975201901                D89828070100PT4U20190107000030SPEAKER ASM                   M IMCTM S0FL05 TNTH  09020IMCT  S0 PTB  00004                    1600 SR        000000000000 DENSO TEN (THAILAND)190G76U0002002                                                                                                                              *          20181225 IMCT                IMCT                                                                                                                    WMF1812255.TXT
MDEUJD256976201901                D89828070100PT4U20190107000030SPEAKER ASM                   M IMCTM S0FL05 TNTH  09020IMCT  S0 PTB  00004                    2230 SR        000000000000 DENSO TEN (THAILAND)190G76U0003003                                                                                                                              *          20181225 IMCT                IMCT                                                                                                                    WMF1812255.TXT
MDEUJD256977201901                D89828070200PV4U20190107000030SPEAKER ASM                   M IMCTM S0FR05 TNTH  09020IMCT  S0 PTB  00005                    1300 SR        000000000000 DENSO TEN (THAILAND)18043YU0010010                                                                                                                              *          20181225 IMCT                IMCT                                                                                                                    WMF1812255.TXT
MDEUJD256978201901                D89828070200PV4U20190107000030SPEAKER ASM                   M IMCTM S0FR05 TNTH  09020IMCT  S0 PTB  00005                    1600 SR        000000000000 DENSO TEN (THAILAND)190G76U0002002                                                                                                                              *          20181225 IMCT                IMCT                                                                                                                    WMF1812255.TXT
MDEUJD256979201901                D89828070200PV4U20190107000030SPEAKER ASM                   M IMCTM S0FR05 TNTH  09020IMCT  S0 PTB  00005                    2230 SR        000000000000 DENSO TEN (THAILAND)190G76U0003003                                                                                                                              *          20181225 IMCT                IMCT                                                                                                                    WMF1812255.TXT
MDEUJD256980201901                D89828070300PT4U20190107000030SPEAKER ASM                   M IMCTM S9TS02 TNTH  09020IMCT  S9 PTB  00015                    1300 SR        000000000000 DENSO TEN (THAILAND)18043YU0010010                                                                                                                              *          20181225 IMCT                IMCT                                                                                                                    WMF1812255.TXT
MDEUJD256981201901                D89828070300PT4U20190107000030SPEAKER ASM                   M IMCTM S9TS02 TNTH  09020IMCT  S9 PTB  00015                    1600 SR        000000000000 DENSO TEN (THAILAND)190G76U0002002                                                                                                                              *          20181225 IMCT                IMCT                                                                                                                    WMF1812255.TXT
MDEUJD256982201901                D89828070300PT4U20190107000030SPEAKER ASM                   M IMCTM S9TS02 TNTH  09020IMCT  S9 PTB  00015                    2230 SR        000000000000 DENSO TEN (THAILAND)190G76U0003003                                                                                                                              *          20181225 IMCT                IMCT                                                                                                                    WMF1812255.TXT
