REC2018121820181218ISUZU                              45     
MDDDJD291136201812                D89821984430PT1D20181224000030RADIO;AM/FM,CD                M IMCTM S5NC06 TNTH  09020IMCT  S5 PTB  00005                    1300 SR        000000000000 DENSO TEN (THAILAND)190MXCL0020020                                                                                                                              *          20181218 IMCT                IMCT                                                                                                                    WMF1812184.TXT
MDDDJD291137201812                D89821984430PT1D20181224000030RADIO;AM/FM,CD                M IMCTM S5NC06 TNTH  09020IMCT  S5 PTB  00005                    1600 SR        000000000000 DENSO TEN (THAILAND)190MXFL0005005                                                                                                                              *          20181218 IMCT                IMCT                                                                                                                    WMF1812184.TXT
MDDDJD291138201812                D89821984430PT4D20181224000030RADIO;AM/FM,CD                M IMCTM S9CO001TNTH  09020IMCT  S9 PTB  00005                    1300 SR        000000000000 DENSO TEN (THAILAND)190MRAU0004004                                                                                                                              *          20181218 IMCT                IMCT                                                                                                                    WMF1812184.TXT
MDDDJD291139201812                D89828070100PV1D20181222000060SPEAKER ASM                   M IMCTM S5MB11 TNTH  09020IMCT  S5 PTB  00004                    1300 SR        000000000000 DENSO TEN (THAILAND)190MPFL0032032                                                                                                                              *          20181218 IMCT                IMCT                                                                                                                    WMF1812184.TXT
MDDDJD291140201812                D89828070100PV1D20181224000060SPEAKER ASM                   M IMCTM S5MB11 TNTH  09020IMCT  S5 PTB  00004                    0830 SR        000000000000 DENSO TEN (THAILAND)190MPQL0015015                                                                                                                              *          20181218 IMCT                IMCT                                                                                                                    WMF1812184.TXT
MDDDJD291141201812                D89828070100PV1D20181224000060SPEAKER ASM                   M IMCTM S5MB11 TNTH  09020IMCT  S5 PTB  00004                    1300 SR        000000000000 DENSO TEN (THAILAND)190MXCL0020020                                                                                                                              *          20181218 IMCT                IMCT                                                                                                                    WMF1812184.TXT
MDDDJD291142201812                D89828070100PV1D20181224000120SPEAKER ASM                   M IMCTM S5MB11 TNTH  09020IMCT  S5 PTB  00004                    1600 SR        000000000000 DENSO TEN (THAILAND)190MPKL0015015190MXFL0005005                                                                                                                *          20181218 IMCT                IMCT                                                                                                                    WMF1812184.TXT
MDDDJD291143201812                D89828070100PV1D20181224000060SPEAKER ASM                   M IMCTM S5MB11 TNTH  09020IMCT  S5 PTB  00004                    2230 SR        000000000000 DENSO TEN (THAILAND)190MXAL0022022                                                                                                                              *          20181218 IMCT                IMCT                                                                                                                    WMF1812184.TXT
MDDDJD291144201812                D89828070100PV4D20181222000060SPEAKER ASM                   M IMCTM S0FL05 TNTH  09020IMCT  S0 PTB  00004                    1600 SR        000000000000 DENSO TEN (THAILAND)190MRWU0023023                                                                                                                              *          20181218 IMCT                IMCT                                                                                                                    WMF1812184.TXT
MDDDJD291145201812                D89828070100PV4D20181224000060SPEAKER ASM                   M IMCTM S0FL05 TNTH  09020IMCT  S0 PTB  00004                    1300 SR        000000000000 DENSO TEN (THAILAND)190MRAU0004004                                                                                                                              *          20181218 IMCT                IMCT                                                                                                                    WMF1812184.TXT
MDDDJD291146201812                D89828070200PV4D20181222000060SPEAKER ASM                   M IMCTM S0FR05 TNTH  09020IMCT  S0 PTB  00005                    1600 SR        000000000000 DENSO TEN (THAILAND)190MRWU0023023                                                                                                                              *          20181218 IMCT                IMCT                                                                                                                    WMF1812184.TXT
MDDDJD291147201812                D89828070300PT1D20181222000060SPEAKER ASM                   M IMCTM S5NB082TNTH  09020IMCT  S5 PTB  00015                    1300 SR        000000000000 DENSO TEN (THAILAND)190MPFL0032032                                                                                                                              *          20181218 IMCT                IMCT                                                                                                                    WMF1812184.TXT
MDDDJD291148201812                D89828070300PT1D20181224000060SPEAKER ASM                   M IMCTM S5NB082TNTH  09020IMCT  S5 PTB  00015                    0830 SR        000000000000 DENSO TEN (THAILAND)190MPQL0015015                                                                                                                              *          20181218 IMCT                IMCT                                                                                                                    WMF1812184.TXT
MDDDJD291149201812                D89828070300PT1D20181224000060SPEAKER ASM                   M IMCTM S5NB082TNTH  09020IMCT  S5 PTB  00015                    1600 SR        000000000000 DENSO TEN (THAILAND)190MPKL0015015                                                                                                                              *          20181218 IMCT                IMCT                                                                                                                    WMF1812184.TXT
MDDDJD291150201812                D89828070300PT4D20181222000060SPEAKER ASM                   M IMCTM S9TS02 TNTH  09020IMCT  S9 PTB  00015                    1600 SR        000000000000 DENSO TEN (THAILAND)190MRWU0023023                                                                                                                              *          20181218 IMCT                IMCT                                                                                                                    WMF1812184.TXT
MDDDJD291151201812                D89831228300PT1D20181222000030RADIO;AM/FM,CD                M IMCTM S5NC06 TNTH  09020IMCT  S5 CPB  00003                    1300 SR        000000000000 DENSO TEN (THAILAND)190MPFL0032032                                                                                                                              *          20181218 IMCT                IMCT                                                                                                                    WMF1812184.TXT
MDDDJD291152201812                D89848581600PT1D20181224000030RADIO;AM/FM CD D              M IMCTM S5NC06 TNTH  09020IMCT  S5 PTB  00003                    0830 SR        000000000000 DENSO TEN (THAILAND)190MPQL0015015                                                                                                                              *          20181218 IMCT                IMCT                                                                                                                    WMF1812184.TXT
MDDDJD291153201812                D89848581600PT1D20181224000030RADIO;AM/FM CD D              M IMCTM S5NC06 TNTH  09020IMCT  S5 PTB  00003                    1600 SR        000000000000 DENSO TEN (THAILAND)190MPKL0015015                                                                                                                              *          20181218 IMCT                IMCT                                                                                                                    WMF1812184.TXT
MDDUJD234181201812                D89828070100PT4U20181222000030SPEAKER ASM                   M IMCTM S0FL05 TNTH  09020IMCT  S0 PTB  00004                    1300 SR        000000000000 DENSO TEN (THAILAND)180LULU0094094                                                                                                                              *          20181218 IMCT                IMCT                                                                                                                    WMF1812184.TXT
MDDUJD234182201812                D89828070100PT4U20181224000030SPEAKER ASM                   M IMCTM S0FL05 TNTH  09020IMCT  S0 PTB  00004                    0830 SR        000000000000 DENSO TEN (THAILAND)180LUSU0243243                                                                                                                              *          20181218 IMCT                IMCT                                                                                                                    WMF1812184.TXT
MDDUJD234183201812                D89828070100PT4U20181224000030SPEAKER ASM                   M IMCTM S0FL05 TNTH  09020IMCT  S0 PTB  00004                    1300 SR        000000000000 DENSO TEN (THAILAND)180LUTU0157157                                                                                                                              *          20181218 IMCT                IMCT                                                                                                                    WMF1812184.TXT
MDDUJD234184201812                D89828070100PT4U20181224000030SPEAKER ASM                   M IMCTM S0FL05 TNTH  09020IMCT  S0 PTB  00004                    2230 SR        000000000000 DENSO TEN (THAILAND)180LUSU0244244                                                                                                                              *          20181218 IMCT                IMCT                                                                                                                    WMF1812184.TXT
MDDUJD234185201812                D89828070200PV4U20181222000030SPEAKER ASM                   M IMCTM S0FR05 TNTH  09020IMCT  S0 PTB  00005                    1300 SR        000000000000 DENSO TEN (THAILAND)180LULU0094094                                                                                                                              *          20181218 IMCT                IMCT                                                                                                                    WMF1812184.TXT
MDDUJD234186201812                D89828070200PV4U20181224000030SPEAKER ASM                   M IMCTM S0FR05 TNTH  09020IMCT  S0 PTB  00005                    0830 SR        000000000000 DENSO TEN (THAILAND)180LUSU0243243                                                                                                                              *          20181218 IMCT                IMCT                                                                                                                    WMF1812184.TXT
MDDUJD234187201812                D89828070200PV4U20181224000030SPEAKER ASM                   M IMCTM S0FR05 TNTH  09020IMCT  S0 PTB  00005                    1300 SR        000000000000 DENSO TEN (THAILAND)180LUTU0157157                                                                                                                              *          20181218 IMCT                IMCT                                                                                                                    WMF1812184.TXT
MDDUJD234188201812                D89828070200PV4U20181224000030SPEAKER ASM                   M IMCTM S0FR05 TNTH  09020IMCT  S0 PTB  00005                    2230 SR        000000000000 DENSO TEN (THAILAND)180LUSU0244244                                                                                                                              *          20181218 IMCT                IMCT                                                                                                                    WMF1812184.TXT
MDDUJD234189201812                D89828070300PT4U20181222000030SPEAKER ASM                   M IMCTM S9TS02 TNTH  09020IMCT  S9 PTB  00015                    1300 SR        000000000000 DENSO TEN (THAILAND)180LULU0094094                                                                                                                              *          20181218 IMCT                IMCT                                                                                                                    WMF1812184.TXT
MDDUJD234190201812                D89828070300PT4U20181224000030SPEAKER ASM                   M IMCTM S9TS02 TNTH  09020IMCT  S9 PTB  00015                    0830 SR        000000000000 DENSO TEN (THAILAND)180LUSU0243243                                                                                                                              *          20181218 IMCT                IMCT                                                                                                                    WMF1812184.TXT
MDDUJD234191201812                D89828070300PT4U20181224000030SPEAKER ASM                   M IMCTM S9TS02 TNTH  09020IMCT  S9 PTB  00015                    1300 SR        000000000000 DENSO TEN (THAILAND)180LUTU0157157                                                                                                                              *          20181218 IMCT                IMCT                                                                                                                    WMF1812184.TXT
MDDUJD234192201812                D89828070300PT4U20181224000030SPEAKER ASM                   M IMCTM S9TS02 TNTH  09020IMCT  S9 PTB  00015                    2230 SR        000000000000 DENSO TEN (THAILAND)180LUSU0244244                                                                                                                              *          20181218 IMCT                IMCT                                                                                                                    WMF1812184.TXT
MDEDJD302040201812                D89828070100PV1D20181222000060SPEAKER ASM                   M IMCTM S5MB11 TNTH  09020IMCT  S5 PTB  00004                    1030 SR        000000000000 DENSO TEN (THAILAND)190J81L0022023                                                                                                                              *          20181218 IMCT                IMCT                                                                                                                    WMF1812184.TXT
MDEDJD302041201812                D89828070100PV1D20181222000060SPEAKER ASM                   M IMCTM S5MB11 TNTH  09020IMCT  S5 PTB  00004                    1300 SR        000000000000 DENSO TEN (THAILAND)190F86L0053054                                                                                                                              *          20181218 IMCT                IMCT                                                                                                                    WMF1812184.TXT
MDEDJD302042201812                D89828070100PV1D20181222000090SPEAKER ASM                   M IMCTM S5MB11 TNTH  09020IMCT  S5 PTB  00004                    1600 SR        000000000000 DENSO TEN (THAILAND)190J91L0006006190J94L0024025                                                                                                                *          20181218 IMCT                IMCT                                                                                                                    WMF1812184.TXT
MDEDJD302043201812                D89828070100PV1D20181224000060SPEAKER ASM                   M IMCTM S5MB11 TNTH  09020IMCT  S5 PTB  00004                    1030 SR        000000000000 DENSO TEN (THAILAND)190J94L0026027                                                                                                                              *          20181218 IMCT                IMCT                                                                                                                    WMF1812184.TXT
MDEDJD302044201812                D89828070100PV1D20181224000060SPEAKER ASM                   M IMCTM S5MB11 TNTH  09020IMCT  S5 PTB  00004                    1300 SR        000000000000 DENSO TEN (THAILAND)190F86L0055056                                                                                                                              *          20181218 IMCT                IMCT                                                                                                                    WMF1812184.TXT
MDEDJD302045201812                D89828070100PV1D20181224000030SPEAKER ASM                   M IMCTM S5MB11 TNTH  09020IMCT  S5 PTB  00004                    2100 SR        000000000000 DENSO TEN (THAILAND)18068UL0027027                                                                                                                              *          20181218 IMCT                IMCT                                                                                                                    WMF1812184.TXT
MDEDJD302046201812                D89828070100PV4D20181224000030SPEAKER ASM                   M IMCTM S0FL05 TNTH  09020IMCT  S0 PTB  00004                    2100 SR        000000000000 DENSO TEN (THAILAND)190F84U0017017                                                                                                                              *          20181218 IMCT                IMCT                                                                                                                    WMF1812184.TXT
MDEDJD302047201812                D89828070200PV1D20181224000030SPEAKER ASM                   M IMCTM S5MA14 TNTH  09020IMCT  S5 PTB  00005                    2100 SR        000000000000 DENSO TEN (THAILAND)18068UL0027027                                                                                                                              *          20181218 IMCT                IMCT                                                                                                                    WMF1812184.TXT
MDEDJD302048201812                D89828070300PT1D20181224000030SPEAKER ASM                   M IMCTM S5NB082TNTH  09020IMCT  S5 PTB  00015                    2100 SR        000000000000 DENSO TEN (THAILAND)18068UL0027027                                                                                                                              *          20181218 IMCT                IMCT                                                                                                                    WMF1812184.TXT
MDEUJD244791201812                D89828070100PT4U20181222000030SPEAKER ASM                   M IMCTM S0FL05 TNTH  09020IMCT  S0 PTB  00004                    1300 SR        000000000000 DENSO TEN (THAILAND)18021UU0252252                                                                                                                              *          20181218 IMCT                IMCT                                                                                                                    WMF1812184.TXT
MDEUJD244792201812                D89828070100PT4U20181224000030SPEAKER ASM                   M IMCTM S0FL05 TNTH  09020IMCT  S0 PTB  00004                    1600 SR        000000000000 DENSO TEN (THAILAND)18021UU0253253                                                                                                                              *          20181218 IMCT                IMCT                                                                                                                    WMF1812184.TXT
MDEUJD244793201812                D89828070200PV4U20181222000030SPEAKER ASM                   M IMCTM S0FR05 TNTH  09020IMCT  S0 PTB  00005                    1300 SR        000000000000 DENSO TEN (THAILAND)18021UU0252252                                                                                                                              *          20181218 IMCT                IMCT                                                                                                                    WMF1812184.TXT
MDEUJD244794201812                D89828070200PV4U20181224000030SPEAKER ASM                   M IMCTM S0FR05 TNTH  09020IMCT  S0 PTB  00005                    1600 SR        000000000000 DENSO TEN (THAILAND)18021UU0253253                                                                                                                              *          20181218 IMCT                IMCT                                                                                                                    WMF1812184.TXT
MDEUJD244795201812                D89828070300PT4U20181222000030SPEAKER ASM                   M IMCTM S9TS02 TNTH  09020IMCT  S9 PTB  00015                    1300 SR        000000000000 DENSO TEN (THAILAND)18021UU0252252                                                                                                                              *          20181218 IMCT                IMCT                                                                                                                    WMF1812184.TXT
MDEUJD244796201812                D89828070300PT4U20181224000030SPEAKER ASM                   M IMCTM S9TS02 TNTH  09020IMCT  S9 PTB  00015                    1600 SR        000000000000 DENSO TEN (THAILAND)18021UU0253253                                                                                                                              *          20181218 IMCT                IMCT                                                                                                                    WMF1812184.TXT
