REC2018120420181204ISUZU                              55     
MDDDJD217626201812                D89821984430PT1D20181207000060RADIO;AM/FM,CD                M IMCTM S5NC06 TNTH  09020IMCT  S5 PTB  00005                    2230 SR        000000000000 DENSO TEN (THAILAND)190MNGL0039039190MYAL0065065                                                                                                                *          20181204 IMCT                IMCT                                                                                                                    WMF1812043.TXT
MDDDJD217627201812                D89821984430PT1D20181208000030RADIO;AM/FM,CD                M IMCTM S5NC06 TNTH  09020IMCT  S5 PTB  00005                    0400 SR        000000000000 DENSO TEN (THAILAND)190MNGL0040040                                                                                                                              *          20181204 IMCT                IMCT                                                                                                                    WMF1812043.TXT
MDDDJD217628201812                D89821984430PT1D20181208000030RADIO;AM/FM,CD                M IMCTM S5NC06 TNTH  09020IMCT  S5 PTB  00005                    1600 SR        000000000000 DENSO TEN (THAILAND)190MRAL0050050                                                                                                                              *          20181204 IMCT                IMCT                                                                                                                    WMF1812043.TXT
MDDDJD217629201812                D89828070100PV1D20181207000120SPEAKER ASM                   M IMCTM S5MB11 TNTH  09020IMCT  S5 PTB  00004                    2230 SR        000000000000 DENSO TEN (THAILAND)190MNGL0039039190MYAL0065065                                                                                                                *          20181204 IMCT                IMCT                                                                                                                    WMF1812043.TXT
MDDDJD217630201812                D89828070100PV1D20181208000120SPEAKER ASM                   M IMCTM S5MB11 TNTH  09020IMCT  S5 PTB  00004                    0400 SR        000000000000 DENSO TEN (THAILAND)190MNGL0040040190MPGL0071071                                                                                                                *          20181204 IMCT                IMCT                                                                                                                    WMF1812043.TXT
MDDDJD217631201812                D89828070100PV1D20181208000060SPEAKER ASM                   M IMCTM S5MB11 TNTH  09020IMCT  S5 PTB  00004                    1030 SR        000000000000 DENSO TEN (THAILAND)190MXAL0015015                                                                                                                              *          20181204 IMCT                IMCT                                                                                                                    WMF1812043.TXT
MDDDJD217632201812                D89828070100PV1D20181208000060SPEAKER ASM                   M IMCTM S5MB11 TNTH  09020IMCT  S5 PTB  00004                    1300 SR        000000000000 DENSO TEN (THAILAND)190MPPL0005005                                                                                                                              *          20181204 IMCT                IMCT                                                                                                                    WMF1812043.TXT
MDDDJD217633201812                D89828070100PV1D20181208000060SPEAKER ASM                   M IMCTM S5MB11 TNTH  09020IMCT  S5 PTB  00004                    1600 SR        000000000000 DENSO TEN (THAILAND)190MRAL0050050                                                                                                                              *          20181204 IMCT                IMCT                                                                                                                    WMF1812043.TXT
MDDDJD217634201812                D89828070100PV4D20181208000060SPEAKER ASM                   M IMCTM S0FL05 TNTH  09020IMCT  S0 PTB  00004                    1030 SR        000000000000 DENSO TEN (THAILAND)190MREU0015015                                                                                                                              *          20181204 IMCT                IMCT                                                                                                                    WMF1812043.TXT
MDDDJD217635201812                D89828070100PV4D20181208000060SPEAKER ASM                   M IMCTM S0FL05 TNTH  09020IMCT  S0 PTB  00004                    1300 SR        000000000000 DENSO TEN (THAILAND)190MRVU0016016                                                                                                                              *          20181204 IMCT                IMCT                                                                                                                    WMF1812043.TXT
MDDDJD217636201812                D89828070200PV4D20181208000060SPEAKER ASM                   M IMCTM S0FR05 TNTH  09020IMCT  S0 PTB  00005                    1030 SR        000000000000 DENSO TEN (THAILAND)190MREU0015015                                                                                                                              *          20181204 IMCT                IMCT                                                                                                                    WMF1812043.TXT
MDDDJD217637201812                D89828070200PV4D20181208000060SPEAKER ASM                   M IMCTM S0FR05 TNTH  09020IMCT  S0 PTB  00005                    1300 SR        000000000000 DENSO TEN (THAILAND)190MRVU0016016                                                                                                                              *          20181204 IMCT                IMCT                                                                                                                    WMF1812043.TXT
MDDDJD217638201812                D89828070300PT1D20181208000060SPEAKER ASM                   M IMCTM S5NB082TNTH  09020IMCT  S5 PTB  00015                    0400 SR        000000000000 DENSO TEN (THAILAND)190MPGL0071071                                                                                                                              *          20181204 IMCT                IMCT                                                                                                                    WMF1812043.TXT
MDDDJD217639201812                D89828070300PT1D20181208000060SPEAKER ASM                   M IMCTM S5NB082TNTH  09020IMCT  S5 PTB  00015                    1300 SR        000000000000 DENSO TEN (THAILAND)190MPPL0005005                                                                                                                              *          20181204 IMCT                IMCT                                                                                                                    WMF1812043.TXT
MDDDJD217640201812                D89828070300PT4D20181208000060SPEAKER ASM                   M IMCTM S9TS02 TNTH  09020IMCT  S9 PTB  00015                    1030 SR        000000000000 DENSO TEN (THAILAND)190MREU0015015                                                                                                                              *          20181204 IMCT                IMCT                                                                                                                    WMF1812043.TXT
MDDDJD217641201812                D89828070300PT4D20181208000060SPEAKER ASM                   M IMCTM S9TS02 TNTH  09020IMCT  S9 PTB  00015                    1300 SR        000000000000 DENSO TEN (THAILAND)190MRVU0016016                                                                                                                              *          20181204 IMCT                IMCT                                                                                                                    WMF1812043.TXT
MDDDJD217642201812                D89831228300PT1D20181208000030RADIO;AM/FM,CD                M IMCTM S5NC06 TNTH  09020IMCT  S5 CPB  00003                    0400 SR        000000000000 DENSO TEN (THAILAND)190MPGL0071071                                                                                                                              *          20181204 IMCT                IMCT                                                                                                                    WMF1812043.TXT
MDDDJD217643201812                D89831228400PT4D20181208000030RADIO;AM/FM,CD                M IMCTM S9CO001TNTH  09020IMCT  S9 CPB  00003                    1030 SR        000000000000 DENSO TEN (THAILAND)190MREU0015015                                                                                                                              *          20181204 IMCT                IMCT                                                                                                                    WMF1812043.TXT
MDDUJD206745201812                D89828070100PT4U20181208000030SPEAKER ASM                   M IMCTM S0FL05 TNTH  09020IMCT  S0 PTB  00004                    0400 SR        000000000000 DENSO TEN (THAILAND)180LUQU0096096                                                                                                                              *          20181204 IMCT                IMCT                                                                                                                    WMF1812043.TXT
MDDUJD206746201812                D89828070100PT4U20181208000030SPEAKER ASM                   M IMCTM S0FL05 TNTH  09020IMCT  S0 PTB  00004                    1300 SR        000000000000 DENSO TEN (THAILAND)180LUTU0149149                                                                                                                              *          20181204 IMCT                IMCT                                                                                                                    WMF1812043.TXT
MDDUJD206747201812                D89828070100PT4U20181208000030SPEAKER ASM                   M IMCTM S0FL05 TNTH  09020IMCT  S0 PTB  00004                    2230 SR        000000000000 DENSO TEN (THAILAND)180LUSU0228228                                                                                                                              *          20181204 IMCT                IMCT                                                                                                                    WMF1812043.TXT
MDDUJD206748201812                D89828070200PV4U20181208000030SPEAKER ASM                   M IMCTM S0FR05 TNTH  09020IMCT  S0 PTB  00005                    0400 SR        000000000000 DENSO TEN (THAILAND)180LUQU0096096                                                                                                                              *          20181204 IMCT                IMCT                                                                                                                    WMF1812043.TXT
MDDUJD206749201812                D89828070200PV4U20181208000030SPEAKER ASM                   M IMCTM S0FR05 TNTH  09020IMCT  S0 PTB  00005                    1300 SR        000000000000 DENSO TEN (THAILAND)180LUTU0149149                                                                                                                              *          20181204 IMCT                IMCT                                                                                                                    WMF1812043.TXT
MDDUJD206750201812                D89828070200PV4U20181208000030SPEAKER ASM                   M IMCTM S0FR05 TNTH  09020IMCT  S0 PTB  00005                    2230 SR        000000000000 DENSO TEN (THAILAND)180LUSU0228228                                                                                                                              *          20181204 IMCT                IMCT                                                                                                                    WMF1812043.TXT
MDDUJD206751201812                D89828070300PT4U20181208000030SPEAKER ASM                   M IMCTM S9TS02 TNTH  09020IMCT  S9 PTB  00015                    0400 SR        000000000000 DENSO TEN (THAILAND)180LUQU0096096                                                                                                                              *          20181204 IMCT                IMCT                                                                                                                    WMF1812043.TXT
MDDUJD206752201812                D89828070300PT4U20181208000030SPEAKER ASM                   M IMCTM S9TS02 TNTH  09020IMCT  S9 PTB  00015                    1300 SR        000000000000 DENSO TEN (THAILAND)180LUTU0149149                                                                                                                              *          20181204 IMCT                IMCT                                                                                                                    WMF1812043.TXT
MDDUJD206753201812                D89828070300PT4U20181208000030SPEAKER ASM                   M IMCTM S9TS02 TNTH  09020IMCT  S9 PTB  00015                    2230 SR        000000000000 DENSO TEN (THAILAND)180LUSU0228228                                                                                                                              *          20181204 IMCT                IMCT                                                                                                                    WMF1812043.TXT
MDDUJD206754201812                D89848584200PT4U20181208000015RADIO;AM/FM CD D              M IMCTM S9CO001TNTH  09020IMCT  S9 PTB  00003                    0400 SR        000000000000 DENSO TEN (THAILAND)180LUQU0096096                                                                                                                              *          20181204 IMCT                IMCT                                                                                                                    WMF1812043.TXT
MDEDJD218325201812                D89752845200PT1D20181208000015RADIO;AM FM,CD D              M IMCTM S55000 TNTH  09020IMCT  S5 PTB  00003                    2100 SR        000000000000 DENSO TEN (THAILAND)18074UL0063063                                                                                                                              *          20181204 IMCT                IMCT                                                                                                                    WMF1812043.TXT
MDEDJD218326201812                D89828070100PV1D20181208000060SPEAKER ASM                   M IMCTM S5MB11 TNTH  09020IMCT  S5 PTB  00004                    0230 SR        000000000000 DENSO TEN (THAILAND)18001VL0064065                                                                                                                              *          20181204 IMCT                IMCT                                                                                                                    WMF1812043.TXT
MDEDJD218327201812                D89828070100PV1D20181208000060SPEAKER ASM                   M IMCTM S5MB11 TNTH  09020IMCT  S5 PTB  00004                    0830 SR        000000000000 DENSO TEN (THAILAND)18010XL000200218018XL0017017                                                                                                                *          20181204 IMCT                IMCT                                                                                                                    WMF1812043.TXT
MDEDJD218328201812                D89828070100PV1D20181208000060SPEAKER ASM                   M IMCTM S5MB11 TNTH  09020IMCT  S5 PTB  00004                    1300 SR        000000000000 DENSO TEN (THAILAND)18027XL000100118040XL0009009                                                                                                                *          20181204 IMCT                IMCT                                                                                                                    WMF1812043.TXT
MDEDJD218329201812                D89828070100PV1D20181208000030SPEAKER ASM                   M IMCTM S5MB11 TNTH  09020IMCT  S5 PTB  00004                    1600 SR        000000000000 DENSO TEN (THAILAND)190J81L0013013                                                                                                                              *          20181204 IMCT                IMCT                                                                                                                    WMF1812043.TXT
MDEDJD218330201812                D89828070100PV1D20181208000060SPEAKER ASM                   M IMCTM S5MB11 TNTH  09020IMCT  S5 PTB  00004                    2100 SR        000000000000 DENSO TEN (THAILAND)18074UL0063063190J81L0014014                                                                                                                *          20181204 IMCT                IMCT                                                                                                                    WMF1812043.TXT
MDEDJD218331201812                D89828070100PV4D20181208000030SPEAKER ASM                   M IMCTM S0FL05 TNTH  09020IMCT  S0 PTB  00004                    0400 SR        000000000000 DENSO TEN (THAILAND)18039ZU0003003                                                                                                                              *          20181204 IMCT                IMCT                                                                                                                    WMF1812043.TXT
MDEDJD218332201812                D89828070100PV4D20181208000030SPEAKER ASM                   M IMCTM S0FL05 TNTH  09020IMCT  S0 PTB  00004                    2100 SR        000000000000 DENSO TEN (THAILAND)18058WU0002002                                                                                                                              *          20181204 IMCT                IMCT                                                                                                                    WMF1812043.TXT
MDEDJD218333201812                D89828070200PV1D20181208000060SPEAKER ASM                   M IMCTM S5MA14 TNTH  09020IMCT  S5 PTB  00005                    0230 SR        000000000000 DENSO TEN (THAILAND)18001VL0064065                                                                                                                              *          20181204 IMCT                IMCT                                                                                                                    WMF1812043.TXT
MDEDJD218334201812                D89828070200PV1D20181208000030SPEAKER ASM                   M IMCTM S5MA14 TNTH  09020IMCT  S5 PTB  00005                    1300 SR        000000000000 DENSO TEN (THAILAND)18040XL0009009                                                                                                                              *          20181204 IMCT                IMCT                                                                                                                    WMF1812043.TXT
MDEDJD218335201812                D89828070200PV4D20181208000030SPEAKER ASM                   M IMCTM S0FR05 TNTH  09020IMCT  S0 PTB  00005                    0400 SR        000000000000 DENSO TEN (THAILAND)18039ZU0003003                                                                                                                              *          20181204 IMCT                IMCT                                                                                                                    WMF1812043.TXT
MDEDJD218336201812                D89828070200PV4D20181208000030SPEAKER ASM                   M IMCTM S0FR05 TNTH  09020IMCT  S0 PTB  00005                    2100 SR        000000000000 DENSO TEN (THAILAND)18058WU0002002                                                                                                                              *          20181204 IMCT                IMCT                                                                                                                    WMF1812043.TXT
MDEDJD218337201812                D89828070300PT1D20181208000060SPEAKER ASM                   M IMCTM S5NB082TNTH  09020IMCT  S5 PTB  00015                    0230 SR        000000000000 DENSO TEN (THAILAND)18001VL0064065                                                                                                                              *          20181204 IMCT                IMCT                                                                                                                    WMF1812043.TXT
MDEDJD218338201812                D89828070300PT1D20181208000060SPEAKER ASM                   M IMCTM S5NB082TNTH  09020IMCT  S5 PTB  00015                    0830 SR        000000000000 DENSO TEN (THAILAND)18010XL000200218018XL0017017                                                                                                                *          20181204 IMCT                IMCT                                                                                                                    WMF1812043.TXT
MDEDJD218339201812                D89828070300PT1D20181208000030SPEAKER ASM                   M IMCTM S5NB082TNTH  09020IMCT  S5 PTB  00015                    1300 SR        000000000000 DENSO TEN (THAILAND)18040XL0009009                                                                                                                              *          20181204 IMCT                IMCT                                                                                                                    WMF1812043.TXT
MDEDJD218340201812                D89828070300PT1D20181208000030SPEAKER ASM                   M IMCTM S5NB082TNTH  09020IMCT  S5 PTB  00015                    2100 SR        000000000000 DENSO TEN (THAILAND)18074UL0063063                                                                                                                              *          20181204 IMCT                IMCT                                                                                                                    WMF1812043.TXT
MDEDJD218341201812                D89828070300PT4D20181208000030SPEAKER ASM                   M IMCTM S9TS02 TNTH  09020IMCT  S9 PTB  00015                    0400 SR        000000000000 DENSO TEN (THAILAND)18039ZU0003003                                                                                                                              *          20181204 IMCT                IMCT                                                                                                                    WMF1812043.TXT
MDEDJD218342201812                D89828070300PT4D20181208000030SPEAKER ASM                   M IMCTM S9TS02 TNTH  09020IMCT  S9 PTB  00015                    2100 SR        000000000000 DENSO TEN (THAILAND)18058WU0002002                                                                                                                              *          20181204 IMCT                IMCT                                                                                                                    WMF1812043.TXT
MDEDJD218343201812                D89831228700PT1D20181208000015RADIO;AM/FM,CD                M IMCTM S5NC06 TNTH  09020IMCT  S5 PTB  00003                    0830 SR        000000000000 DENSO TEN (THAILAND)18010XL0002002                                                                                                                              *          20181204 IMCT                IMCT                                                                                                                    WMF1812043.TXT
MDEDJD218344201812                D89848582100PT1D20181208000015RADIO;AM/FM CD D              M IMCTM S5NC06 TNTH  09020IMCT  S5 PTB  00003                    1300 SR        000000000000 DENSO TEN (THAILAND)18040XL0009009                                                                                                                              *          20181204 IMCT                IMCT                                                                                                                    WMF1812043.TXT
MDEUJD207121201812                D89752845400PT4U20181208000015RADIO;AM FM,CD D              M IMCTM S22000 TNTH  09020IMCT  S2 PTB  00003                    0230 SR        000000000000 DENSO TEN (THAILAND)18019UU0031031                                                                                                                              *          20181204 IMCT                IMCT                                                                                                                    WMF1812043.TXT
MDEUJD207122201812                D89828070100PT4U20181208000030SPEAKER ASM                   M IMCTM S0FL05 TNTH  09020IMCT  S0 PTB  00004                    0230 SR        000000000000 DENSO TEN (THAILAND)18019UU0031031                                                                                                                              *          20181204 IMCT                IMCT                                                                                                                    WMF1812043.TXT
MDEUJD207123201812                D89828070100PT4U20181208000030SPEAKER ASM                   M IMCTM S0FL05 TNTH  09020IMCT  S0 PTB  00004                    0830 SR        000000000000 DENSO TEN (THAILAND)18020UU0152152                                                                                                                              *          20181204 IMCT                IMCT                                                                                                                    WMF1812043.TXT
MDEUJD207124201812                D89828070200PV4U20181208000030SPEAKER ASM                   M IMCTM S0FR05 TNTH  09020IMCT  S0 PTB  00005                    0230 SR        000000000000 DENSO TEN (THAILAND)18019UU0031031                                                                                                                              *          20181204 IMCT                IMCT                                                                                                                    WMF1812043.TXT
MDEUJD207125201812                D89828070200PV4U20181208000030SPEAKER ASM                   M IMCTM S0FR05 TNTH  09020IMCT  S0 PTB  00005                    0830 SR        000000000000 DENSO TEN (THAILAND)18020UU0152152                                                                                                                              *          20181204 IMCT                IMCT                                                                                                                    WMF1812043.TXT
MDEUJD207126201812                D89828070300PT4U20181208000030SPEAKER ASM                   M IMCTM S9TS02 TNTH  09020IMCT  S9 PTB  00015                    0230 SR        000000000000 DENSO TEN (THAILAND)18019UU0031031                                                                                                                              *          20181204 IMCT                IMCT                                                                                                                    WMF1812043.TXT
MDEUJD207127201812                D89828070300PT4U20181208000030SPEAKER ASM                   M IMCTM S9TS02 TNTH  09020IMCT  S9 PTB  00015                    0830 SR        000000000000 DENSO TEN (THAILAND)18020UU0152152                                                                                                                              *          20181204 IMCT                IMCT                                                                                                                    WMF1812043.TXT
