REC2018122620181226ISUZU                              13     
MDEFJDT23797201901                D89828070100PV4F20190108000028SPEAKER ASM                   M IMCTM S7FL05 TNTH  09020IMCT  S7 PTB  00004                    1600 SR        000000000000 DENSO TEN (THAILAND)190H62R0002   190K73R0001   F190100502    F190100515    000000                                                                              *R         20181226 IMCT                IMCT                                                                                                                    RMF1812265.TXT
MDEFJDT23798201901                D89828070200PV4F20190108000021SPEAKER ASM                   M IMCTM S7FL05 TNTH  09020IMCT  S7 PTB  00005                    0230 SR        000000000000 DENSO TEN (THAILAND)190J18R0008   190J18R0010   D190100305    D190100315    000000                                                                              *R         20181226 IMCT                IMCT                                                                                                                    RMF1812265.TXT
MDEFJDT23799201901                D89828070300PT4F20190108000016SPEAKER ASM                   M IMCTM S7TS02 TNTH  09020IMCT  S7 PTB  00015                    1600 SR        000000000000 DENSO TEN (THAILAND)190H71R0005   190K73R0001   F190100508    F190100515    000000                                                                              *R         20181226 IMCT                IMCT                                                                                                                    RMF1812265.TXT
MDEFJDT23800201901                D89831228700PT4F20190108000003RADIO;AM/FM,CD                M IMCTM S7TS03 TNTH  09020IMCT  S7 PTB  00003                    1600 SR        000000000000 DENSO TEN (THAILAND)190H62R0001   190H62R0003   F190100501    F190100503    000000                                                                              *R         20181226 IMCT                IMCT                                                                                                                    RMF1812265.TXT
MDEFJD260336201901                D89828070100PV4F20190107000032SPEAKER ASM                   M IMCTM S7FL05 TNTH  09020IMCT  S7 PTB  00004                    2100 SR        000000000000 DENSO TEN (THAILAND)190H76R0001   190H76R0007   D190100201    D190100301    000000                                                                              *R         20181226 IMCT                IMCT                                                                                                                    RMF1812265.TXT
MDEFJD260337201901                D89828070100PV4F20190107000004SPEAKER ASM                   M IMCTM S7FL05 TNTH  09020IMCT  S7 PTB  00004                    2230 SR        000000000000 DENSO TEN (THAILAND)190H92R0003   190H95R0002   D190100302    D190100303    000000                                                                              *R         20181226 IMCT                IMCT                                                                                                                    RMF1812265.TXT
MDEFJD260338201901                D89828070100PV4F20190108000024SPEAKER ASM                   M IMCTM S7FL05 TNTH  09020IMCT  S7 PTB  00004                    0230 SR        000000000000 DENSO TEN (THAILAND)190J18R0007   190J18R0010   D190100304    D190100315    000000                                                                              *R         20181226 IMCT                IMCT                                                                                                                    RMF1812265.TXT
MDEFJD260339201901                D89828070100PV4F20190108000016SPEAKER ASM                   M IMCTM S7FL05 TNTH  09020IMCT  S7 PTB  00004                    1030 SR        000000000000 DENSO TEN (THAILAND)190H35R0001   190J29R0001   R190100401    R190100408    000000                                                                              *R         20181226 IMCT                IMCT                                                                                                                    RMF1812265.TXT
MDEFJD260340201901                D89828070100PV4F20190108000016SPEAKER ASM                   M IMCTM S7FL05 TNTH  09020IMCT  S7 PTB  00004                    1300 SR        000000000000 DENSO TEN (THAILAND)190J29R0002   190H62R0001   R190100409    F190100501    000000                                                                              *R         20181226 IMCT                IMCT                                                                                                                    RMF1812265.TXT
MDEFJD260341201901                D89828070200PV4F20190107000020SPEAKER ASM                   M IMCTM S7FL05 TNTH  09020IMCT  S7 PTB  00005                    2100 SR        000000000000 DENSO TEN (THAILAND)190H92R0001   190H92R0003   D190100203    D190100302    000000                                                                              *R         20181226 IMCT                IMCT                                                                                                                    RMF1812265.TXT
MDEFJD260342201901                D89828070200PV4F20190107000005SPEAKER ASM                   M IMCTM S7FL05 TNTH  09020IMCT  S7 PTB  00005                    2230 SR        000000000000 DENSO TEN (THAILAND)190H95R0002   190J18R0008   D190100303    D190100305    000000                                                                              *R         20181226 IMCT                IMCT                                                                                                                    RMF1812265.TXT
MDEFJD260343201901                D89828070300PT4F20190107000030SPEAKER ASM                   M IMCTM S7TS02 TNTH  09020IMCT  S7 PTB  00015                    2100 SR        000000000000 DENSO TEN (THAILAND)190H92R0001   190H95R0004   D190100203    D190100307    000000                                                                              *R         20181226 IMCT                IMCT                                                                                                                    RMF1812265.TXT
MDEFJD260344201901                D89828070300PT4F20190108000030SPEAKER ASM                   M IMCTM S7TS02 TNTH  09020IMCT  S7 PTB  00015                    0230 SR        000000000000 DENSO TEN (THAILAND)190H95R0005   190H71R0004   D190100308    F190100507    000000                                                                              *R         20181226 IMCT                IMCT                                                                                                                    RMF1812265.TXT
