REC2018121220181212ISUZU                              52     
MDDDJD258672201812                D89828070100PV1D20181216000060SPEAKER ASM                   M IMCTM S5MB11 TNTH  09020IMCT  S5 PTB  00004                    0230 SR        000000000000 DENSO TEN (THAILAND)190MPFL0028028                                                                                                                              *          20181212 IMCT                IMCT                                                                                                                    WMF1812124.TXT
MDDDJD258673201812                D89828070100PV1D20181216000060SPEAKER ASM                   M IMCTM S5MB11 TNTH  09020IMCT  S5 PTB  00004                    0400 SR        000000000000 DENSO TEN (THAILAND)190MPCL0018018                                                                                                                              *          20181212 IMCT                IMCT                                                                                                                    WMF1812124.TXT
MDDDJD258674201812                D89828070100PV1D20181217000060SPEAKER ASM                   M IMCTM S5MB11 TNTH  09020IMCT  S5 PTB  00004                    0830 SR        000000000000 DENSO TEN (THAILAND)190MXAL0019019                                                                                                                              *          20181212 IMCT                IMCT                                                                                                                    WMF1812124.TXT
MDDDJD258675201812                D89828070100PV1D20181217000060SPEAKER ASM                   M IMCTM S5MB11 TNTH  09020IMCT  S5 PTB  00004                    1030 SR        000000000000 DENSO TEN (THAILAND)190MPCL0019019                                                                                                                              *          20181212 IMCT                IMCT                                                                                                                    WMF1812124.TXT
MDDDJD258676201812                D89828070100PV1D20181217000060SPEAKER ASM                   M IMCTM S5MB11 TNTH  09020IMCT  S5 PTB  00004                    1300 SR        000000000000 DENSO TEN (THAILAND)190MPNL0009009                                                                                                                              *          20181212 IMCT                IMCT                                                                                                                    WMF1812124.TXT
MDDDJD258677201812                D89828070100PV4D20181216000060SPEAKER ASM                   M IMCTM S0FL05 TNTH  09020IMCT  S0 PTB  00004                    0230 SR        000000000000 DENSO TEN (THAILAND)190MRWU0021021                                                                                                                              *          20181212 IMCT                IMCT                                                                                                                    WMF1812124.TXT
MDDDJD258678201812                D89828070100PV4D20181217000060SPEAKER ASM                   M IMCTM S0FL05 TNTH  09020IMCT  S0 PTB  00004                    1600 SR        000000000000 DENSO TEN (THAILAND)190MRVU0019019                                                                                                                              *          20181212 IMCT                IMCT                                                                                                                    WMF1812124.TXT
MDDDJD258679201812                D89828070200PV4D20181216000060SPEAKER ASM                   M IMCTM S0FR05 TNTH  09020IMCT  S0 PTB  00005                    0230 SR        000000000000 DENSO TEN (THAILAND)190MRWU0021021                                                                                                                              *          20181212 IMCT                IMCT                                                                                                                    WMF1812124.TXT
MDDDJD258680201812                D89828070200PV4D20181217000060SPEAKER ASM                   M IMCTM S0FR05 TNTH  09020IMCT  S0 PTB  00005                    1600 SR        000000000000 DENSO TEN (THAILAND)190MRVU0019019                                                                                                                              *          20181212 IMCT                IMCT                                                                                                                    WMF1812124.TXT
MDDDJD258681201812                D89828070300PT1D20181216000060SPEAKER ASM                   M IMCTM S5NB082TNTH  09020IMCT  S5 PTB  00015                    0230 SR        000000000000 DENSO TEN (THAILAND)190MPFL0028028                                                                                                                              *          20181212 IMCT                IMCT                                                                                                                    WMF1812124.TXT
MDDDJD258682201812                D89828070300PT1D20181216000060SPEAKER ASM                   M IMCTM S5NB082TNTH  09020IMCT  S5 PTB  00015                    0400 SR        000000000000 DENSO TEN (THAILAND)190MPCL0018018                                                                                                                              *          20181212 IMCT                IMCT                                                                                                                    WMF1812124.TXT
MDDDJD258683201812                D89828070300PT1D20181217000060SPEAKER ASM                   M IMCTM S5NB082TNTH  09020IMCT  S5 PTB  00015                    1030 SR        000000000000 DENSO TEN (THAILAND)190MPCL0019019                                                                                                                              *          20181212 IMCT                IMCT                                                                                                                    WMF1812124.TXT
MDDDJD258684201812                D89828070300PT1D20181217000060SPEAKER ASM                   M IMCTM S5NB082TNTH  09020IMCT  S5 PTB  00015                    1300 SR        000000000000 DENSO TEN (THAILAND)190MPNL0009009                                                                                                                              *          20181212 IMCT                IMCT                                                                                                                    WMF1812124.TXT
MDDDJD258685201812                D89828070300PT4D20181216000060SPEAKER ASM                   M IMCTM S9TS02 TNTH  09020IMCT  S9 PTB  00015                    0230 SR        000000000000 DENSO TEN (THAILAND)190MRWU0021021                                                                                                                              *          20181212 IMCT                IMCT                                                                                                                    WMF1812124.TXT
MDDDJD258686201812                D89828070300PT4D20181217000060SPEAKER ASM                   M IMCTM S9TS02 TNTH  09020IMCT  S9 PTB  00015                    1600 SR        000000000000 DENSO TEN (THAILAND)190MRVU0019019                                                                                                                              *          20181212 IMCT                IMCT                                                                                                                    WMF1812124.TXT
MDDDJD258687201812                D89831228300PT1D20181216000030RADIO;AM/FM,CD                M IMCTM S5NC06 TNTH  09020IMCT  S5 CPB  00003                    0230 SR        000000000000 DENSO TEN (THAILAND)190MPFL0028028                                                                                                                              *          20181212 IMCT                IMCT                                                                                                                    WMF1812124.TXT
MDDDJD258688201812                D89831228300PT1D20181216000030RADIO;AM/FM,CD                M IMCTM S5NC06 TNTH  09020IMCT  S5 CPB  00003                    0400 SR        000000000000 DENSO TEN (THAILAND)190MPCL0018018                                                                                                                              *          20181212 IMCT                IMCT                                                                                                                    WMF1812124.TXT
MDDDJD258689201812                D89831228300PT1D20181217000030RADIO;AM/FM,CD                M IMCTM S5NC06 TNTH  09020IMCT  S5 CPB  00003                    1030 SR        000000000000 DENSO TEN (THAILAND)190MPCL0019019                                                                                                                              *          20181212 IMCT                IMCT                                                                                                                    WMF1812124.TXT
MDDUJD222017201812                D89828070100PT4U20181216000030SPEAKER ASM                   M IMCTM S0FL05 TNTH  09020IMCT  S0 PTB  00004                    0400 SR        000000000000 DENSO TEN (THAILAND)180LUSU0236236                                                                                                                              *          20181212 IMCT                IMCT                                                                                                                    WMF1812124.TXT
MDDUJD222018201812                D89828070100PT4U20181217000030SPEAKER ASM                   M IMCTM S0FL05 TNTH  09020IMCT  S0 PTB  00004                    1300 SR        000000000000 DENSO TEN (THAILAND)180LUTU0154154                                                                                                                              *          20181212 IMCT                IMCT                                                                                                                    WMF1812124.TXT
MDDUJD222019201812                D89828070100PT4U20181217000030SPEAKER ASM                   M IMCTM S0FL05 TNTH  09020IMCT  S0 PTB  00004                    2100 SR        000000000000 DENSO TEN (THAILAND)180LUPU0049049                                                                                                                              *          20181212 IMCT                IMCT                                                                                                                    WMF1812124.TXT
MDDUJD222020201812                D89828070200PV4U20181216000030SPEAKER ASM                   M IMCTM S0FR05 TNTH  09020IMCT  S0 PTB  00005                    0400 SR        000000000000 DENSO TEN (THAILAND)180LUSU0236236                                                                                                                              *          20181212 IMCT                IMCT                                                                                                                    WMF1812124.TXT
MDDUJD222021201812                D89828070200PV4U20181217000030SPEAKER ASM                   M IMCTM S0FR05 TNTH  09020IMCT  S0 PTB  00005                    1300 SR        000000000000 DENSO TEN (THAILAND)180LUTU0154154                                                                                                                              *          20181212 IMCT                IMCT                                                                                                                    WMF1812124.TXT
MDDUJD222022201812                D89828070200PV4U20181217000030SPEAKER ASM                   M IMCTM S0FR05 TNTH  09020IMCT  S0 PTB  00005                    2100 SR        000000000000 DENSO TEN (THAILAND)180LUPU0049049                                                                                                                              *          20181212 IMCT                IMCT                                                                                                                    WMF1812124.TXT
MDDUJD222023201812                D89828070300PT4U20181216000030SPEAKER ASM                   M IMCTM S9TS02 TNTH  09020IMCT  S9 PTB  00015                    0400 SR        000000000000 DENSO TEN (THAILAND)180LUSU0236236                                                                                                                              *          20181212 IMCT                IMCT                                                                                                                    WMF1812124.TXT
MDDUJD222024201812                D89828070300PT4U20181217000030SPEAKER ASM                   M IMCTM S9TS02 TNTH  09020IMCT  S9 PTB  00015                    1300 SR        000000000000 DENSO TEN (THAILAND)180LUTU0154154                                                                                                                              *          20181212 IMCT                IMCT                                                                                                                    WMF1812124.TXT
MDDUJD222025201812                D89828070300PT4U20181217000030SPEAKER ASM                   M IMCTM S9TS02 TNTH  09020IMCT  S9 PTB  00015                    2100 SR        000000000000 DENSO TEN (THAILAND)180LUPU0049049                                                                                                                              *          20181212 IMCT                IMCT                                                                                                                    WMF1812124.TXT
MDDUJD222026201812                D89831228400PT4U20181217000015RADIO;AM/FM,CD                M IMCTM S9CO001TNTH  09020IMCT  S9 CPB  00003                    2100 SR        000000000000 DENSO TEN (THAILAND)180LUPU0049049                                                                                                                              *          20181212 IMCT                IMCT                                                                                                                    WMF1812124.TXT
MDEDJD263168201812                D89752845100PT1D20181215000030RADIO;AM FM,CD D              M IMCTM S5NC06 TNTH  09020IMCT  S5 PTB  00003                    2230 SR        000000000000 DENSO TEN (THAILAND)18082UL0094095                                                                                                                              *          20181212 IMCT                IMCT                                                                                                                    WMF1812124.TXT
MDEDJD263169201812                D89828070100PV1D20181215000090SPEAKER ASM                   M IMCTM S5MB11 TNTH  09020IMCT  S5 PTB  00004                    2230 SR        000000000000 DENSO TEN (THAILAND)18082UL0094095190J92L0002002                                                                                                                *          20181212 IMCT                IMCT                                                                                                                    WMF1812124.TXT
MDEDJD263170201812                D89828070100PV1D20181216000060SPEAKER ASM                   M IMCTM S5MB11 TNTH  09020IMCT  S5 PTB  00004                    0400 SR        000000000000 DENSO TEN (THAILAND)190F86L0039040                                                                                                                              *          20181212 IMCT                IMCT                                                                                                                    WMF1812124.TXT
MDEDJD263171201812                D89828070100PV1D20181217000060SPEAKER ASM                   M IMCTM S5MB11 TNTH  09020IMCT  S5 PTB  00004                    1300 SR        000000000000 DENSO TEN (THAILAND)190F86L0041042                                                                                                                              *          20181212 IMCT                IMCT                                                                                                                    WMF1812124.TXT
MDEDJD263172201812                D89828070100PV1D20181217000090SPEAKER ASM                   M IMCTM S5MB11 TNTH  09020IMCT  S5 PTB  00004                    1600 SR        000000000000 DENSO TEN (THAILAND)17052RL0040040190J91L0002002190J94L0021021                                                                                                  *          20181212 IMCT                IMCT                                                                                                                    WMF1812124.TXT
MDEDJD263173201812                D89828070100PV1D20181217000060SPEAKER ASM                   M IMCTM S5MB11 TNTH  09020IMCT  S5 PTB  00004                    2100 SR        000000000000 DENSO TEN (THAILAND)18099UL0140141                                                                                                                              *          20181212 IMCT                IMCT                                                                                                                    WMF1812124.TXT
MDEDJD263174201812                D89828070100PV4D20181217000030SPEAKER ASM                   M IMCTM S0FL05 TNTH  09020IMCT  S0 PTB  00004                    1300 SR        000000000000 DENSO TEN (THAILAND)190K19U0011011                                                                                                                              *          20181212 IMCT                IMCT                                                                                                                    WMF1812124.TXT
MDEDJD263175201812                D89828070200PV1D20181215000060SPEAKER ASM                   M IMCTM S5MA14 TNTH  09020IMCT  S5 PTB  00005                    2230 SR        000000000000 DENSO TEN (THAILAND)18082UL0094095                                                                                                                              *          20181212 IMCT                IMCT                                                                                                                    WMF1812124.TXT
MDEDJD263176201812                D89828070200PV1D20181217000060SPEAKER ASM                   M IMCTM S5MA14 TNTH  09020IMCT  S5 PTB  00005                    2100 SR        000000000000 DENSO TEN (THAILAND)18099UL0140141                                                                                                                              *          20181212 IMCT                IMCT                                                                                                                    WMF1812124.TXT
MDEDJD263177201812                D89828070200PV4D20181217000030SPEAKER ASM                   M IMCTM S0FR05 TNTH  09020IMCT  S0 PTB  00005                    1300 SR        000000000000 DENSO TEN (THAILAND)190K19U0011011                                                                                                                              *          20181212 IMCT                IMCT                                                                                                                    WMF1812124.TXT
MDEDJD263178201812                D89828070300PT1D20181215000090SPEAKER ASM                   M IMCTM S5NB082TNTH  09020IMCT  S5 PTB  00015                    2230 SR        000000000000 DENSO TEN (THAILAND)18082UL0094095190J92L0002002                                                                                                                *          20181212 IMCT                IMCT                                                                                                                    WMF1812124.TXT
MDEDJD263179201812                D89828070300PT1D20181217000060SPEAKER ASM                   M IMCTM S5NB082TNTH  09020IMCT  S5 PTB  00015                    2100 SR        000000000000 DENSO TEN (THAILAND)18099UL0140141                                                                                                                              *          20181212 IMCT                IMCT                                                                                                                    WMF1812124.TXT
MDEDJD263180201812                D89828070300PT4D20181217000030SPEAKER ASM                   M IMCTM S9TS02 TNTH  09020IMCT  S9 PTB  00015                    1300 SR        000000000000 DENSO TEN (THAILAND)190K19U0011011                                                                                                                              *          20181212 IMCT                IMCT                                                                                                                    WMF1812124.TXT
MDEDJD263181201812                D89831229200PT1D20181215000015RADIO;AM/FM,CD                M IMCTM S5NC06 TNTH  09020IMCT  S5 PTB  00003                    2230 SR        000000000000 DENSO TEN (THAILAND)190J92L0002002                                                                                                                              *          20181212 IMCT                IMCT                                                                                                                    WMF1812124.TXT
MDEDJD263182201812                D89838031200PT4D20181217000015RADIO;ASM DVD                 M IMCTM S9CO001TNTH  09020IMCT  S9 PTB  00003                    1300 SR        000000000000 DENSO TEN (THAILAND)190K19U0011011                                                                                                                              *          20181212 IMCT                IMCT                                                                                                                    WMF1812124.TXT
MDEUJD228116201812                D89828070100PT4U20181216000030SPEAKER ASM                   M IMCTM S0FL05 TNTH  09020IMCT  S0 PTB  00004                    0230 SR        000000000000 DENSO TEN (THAILAND)18021UU0244244                                                                                                                              *          20181212 IMCT                IMCT                                                                                                                    WMF1812124.TXT
MDEUJD228117201812                D89828070100PT4U20181217000030SPEAKER ASM                   M IMCTM S0FL05 TNTH  09020IMCT  S0 PTB  00004                    1030 SR        000000000000 DENSO TEN (THAILAND)18016UU0060060                                                                                                                              *          20181212 IMCT                IMCT                                                                                                                    WMF1812124.TXT
MDEUJD228118201812                D89828070100PT4U20181217000030SPEAKER ASM                   M IMCTM S0FL05 TNTH  09020IMCT  S0 PTB  00004                    1300 SR        000000000000 DENSO TEN (THAILAND)18020UU0159159                                                                                                                              *          20181212 IMCT                IMCT                                                                                                                    WMF1812124.TXT
MDEUJD228119201812                D89828070200PV4U20181216000030SPEAKER ASM                   M IMCTM S0FR05 TNTH  09020IMCT  S0 PTB  00005                    0230 SR        000000000000 DENSO TEN (THAILAND)18021UU0244244                                                                                                                              *          20181212 IMCT                IMCT                                                                                                                    WMF1812124.TXT
MDEUJD228120201812                D89828070200PV4U20181217000030SPEAKER ASM                   M IMCTM S0FR05 TNTH  09020IMCT  S0 PTB  00005                    1030 SR        000000000000 DENSO TEN (THAILAND)18016UU0060060                                                                                                                              *          20181212 IMCT                IMCT                                                                                                                    WMF1812124.TXT
MDEUJD228121201812                D89828070200PV4U20181217000030SPEAKER ASM                   M IMCTM S0FR05 TNTH  09020IMCT  S0 PTB  00005                    1300 SR        000000000000 DENSO TEN (THAILAND)18020UU0159159                                                                                                                              *          20181212 IMCT                IMCT                                                                                                                    WMF1812124.TXT
MDEUJD228122201812                D89828070300PT4U20181216000030SPEAKER ASM                   M IMCTM S9TS02 TNTH  09020IMCT  S9 PTB  00015                    0230 SR        000000000000 DENSO TEN (THAILAND)18021UU0244244                                                                                                                              *          20181212 IMCT                IMCT                                                                                                                    WMF1812124.TXT
MDEUJD228123201812                D89828070300PT4U20181217000030SPEAKER ASM                   M IMCTM S9TS02 TNTH  09020IMCT  S9 PTB  00015                    1030 SR        000000000000 DENSO TEN (THAILAND)18016UU0060060                                                                                                                              *          20181212 IMCT                IMCT                                                                                                                    WMF1812124.TXT
MDEUJD228124201812                D89828070300PT4U20181217000030SPEAKER ASM                   M IMCTM S9TS02 TNTH  09020IMCT  S9 PTB  00015                    1300 SR        000000000000 DENSO TEN (THAILAND)18020UU0159159                                                                                                                              *          20181212 IMCT                IMCT                                                                                                                    WMF1812124.TXT
