REC2018121720181217ISUZU                              34     
MDDDJD285957201812                D89821984430PT1D20181222000030RADIO;AM/FM,CD                M IMCTM S5NC06 TNTH  09020IMCT  S5 PTB  00005                    0230 SR        000000000000 DENSO TEN (THAILAND)190MNGL0049049                                                                                                                              *          20181217 IMCT                IMCT                                                                                                                    WMF1812178.TXT
MDDDJD285958201812                D89821984430PT1D20181222000030RADIO;AM/FM,CD                M IMCTM S5NC06 TNTH  09020IMCT  S5 PTB  00005                    0830 SR        000000000000 DENSO TEN (THAILAND)190MYAL0084084                                                                                                                              *          20181217 IMCT                IMCT                                                                                                                    WMF1812178.TXT
MDDDJD285959201812                D89828070100PV1D20181222000060SPEAKER ASM                   M IMCTM S5MB11 TNTH  09020IMCT  S5 PTB  00004                    0230 SR        000000000000 DENSO TEN (THAILAND)190MNGL0049049                                                                                                                              *          20181217 IMCT                IMCT                                                                                                                    WMF1812178.TXT
MDDDJD285960201812                D89828070100PV1D20181222000060SPEAKER ASM                   M IMCTM S5MB11 TNTH  09020IMCT  S5 PTB  00004                    0830 SR        000000000000 DENSO TEN (THAILAND)190MYAL0084084                                                                                                                              *          20181217 IMCT                IMCT                                                                                                                    WMF1812178.TXT
MDDDJD285961201812                D89828070100PV4D20181222000060SPEAKER ASM                   M IMCTM S0FL05 TNTH  09020IMCT  S0 PTB  00004                    0830 SR        000000000000 DENSO TEN (THAILAND)190MREU0018018                                                                                                                              *          20181217 IMCT                IMCT                                                                                                                    WMF1812178.TXT
MDDDJD285962201812                D89828070200PV4D20181222000060SPEAKER ASM                   M IMCTM S0FR05 TNTH  09020IMCT  S0 PTB  00005                    0830 SR        000000000000 DENSO TEN (THAILAND)190MREU0018018                                                                                                                              *          20181217 IMCT                IMCT                                                                                                                    WMF1812178.TXT
MDDDJD285963201812                D89828070300PT4D20181222000060SPEAKER ASM                   M IMCTM S9TS02 TNTH  09020IMCT  S9 PTB  00015                    0830 SR        000000000000 DENSO TEN (THAILAND)190MREU0018018                                                                                                                              *          20181217 IMCT                IMCT                                                                                                                    WMF1812178.TXT
MDDDJD285964201812                D89831228400PT4D20181222000030RADIO;AM/FM,CD                M IMCTM S9CO001TNTH  09020IMCT  S9 CPB  00003                    0830 SR        000000000000 DENSO TEN (THAILAND)190MREU0018018                                                                                                                              *          20181217 IMCT                IMCT                                                                                                                    WMF1812178.TXT
MDDUJD231731201812                D89828070100PT4U20181222000030SPEAKER ASM                   M IMCTM S0FL05 TNTH  09020IMCT  S0 PTB  00004                    0230 SR        000000000000 DENSO TEN (THAILAND)180LUTU0156156                                                                                                                              *          20181217 IMCT                IMCT                                                                                                                    WMF1812178.TXT
MDDUJD231732201812                D89828070200PV4U20181222000030SPEAKER ASM                   M IMCTM S0FR05 TNTH  09020IMCT  S0 PTB  00005                    0230 SR        000000000000 DENSO TEN (THAILAND)180LUTU0156156                                                                                                                              *          20181217 IMCT                IMCT                                                                                                                    WMF1812178.TXT
MDDUJD231733201812                D89828070300PT4U20181222000030SPEAKER ASM                   M IMCTM S9TS02 TNTH  09020IMCT  S9 PTB  00015                    0230 SR        000000000000 DENSO TEN (THAILAND)180LUTU0156156                                                                                                                              *          20181217 IMCT                IMCT                                                                                                                    WMF1812178.TXT
MDEDJD296510201812                D89752845100PT1D20181222000015RADIO;AM FM,CD D              M IMCTM S5NC06 TNTH  09020IMCT  S5 PTB  00003                    0830 SR        000000000000 DENSO TEN (THAILAND)18082UL0096096                                                                                                                              *          20181217 IMCT                IMCT                                                                                                                    WMF1812178.TXT
MDEDJD296511201812                D89752845100PT4D20181222000015RADIO;AM FM,CD D              M IMCTM S9AD002TNTH  09020IMCT  S9 PTB  00003                    0230 SR        000000000000 DENSO TEN (THAILAND)18065UU0023023                                                                                                                              *          20181217 IMCT                IMCT                                                                                                                    WMF1812178.TXT
MDEDJD296512201812                D89752845100PT4D20181222000015RADIO;AM FM,CD D              M IMCTM S9AD002TNTH  09020IMCT  S9 PTB  00003                    0400 SR        000000000000 DENSO TEN (THAILAND)18065UU0024024                                                                                                                              *          20181217 IMCT                IMCT                                                                                                                    WMF1812178.TXT
MDEDJD296513201812                D89828070100PV1D20181221000090SPEAKER ASM                   M IMCTM S5MB11 TNTH  09020IMCT  S5 PTB  00004                    2230 SR        000000000000 DENSO TEN (THAILAND)18099UL0145145190F84L0022023                                                                                                                *          20181217 IMCT                IMCT                                                                                                                    WMF1812178.TXT
MDEDJD296514201812                D89828070100PV1D20181222000030SPEAKER ASM                   M IMCTM S5MB11 TNTH  09020IMCT  S5 PTB  00004                    0230 SR        000000000000 DENSO TEN (THAILAND)190K12L0019019                                                                                                                              *          20181217 IMCT                IMCT                                                                                                                    WMF1812178.TXT
MDEDJD296515201812                D89828070100PV1D20181222000090SPEAKER ASM                   M IMCTM S5MB11 TNTH  09020IMCT  S5 PTB  00004                    0400 SR        000000000000 DENSO TEN (THAILAND)190F84L0024025190K12L0020020                                                                                                                *          20181217 IMCT                IMCT                                                                                                                    WMF1812178.TXT
MDEDJD296516201812                D89828070100PV1D20181222000030SPEAKER ASM                   M IMCTM S5MB11 TNTH  09020IMCT  S5 PTB  00004                    0830 SR        000000000000 DENSO TEN (THAILAND)18082UL0096096                                                                                                                              *          20181217 IMCT                IMCT                                                                                                                    WMF1812178.TXT
MDEDJD296517201812                D89828070100PV4D20181222000030SPEAKER ASM                   M IMCTM S0FL05 TNTH  09020IMCT  S0 PTB  00004                    0230 SR        000000000000 DENSO TEN (THAILAND)18065UU0023023                                                                                                                              *          20181217 IMCT                IMCT                                                                                                                    WMF1812178.TXT
MDEDJD296518201812                D89828070100PV4D20181222000030SPEAKER ASM                   M IMCTM S0FL05 TNTH  09020IMCT  S0 PTB  00004                    0400 SR        000000000000 DENSO TEN (THAILAND)18065UU0024024                                                                                                                              *          20181217 IMCT                IMCT                                                                                                                    WMF1812178.TXT
MDEDJD296519201812                D89828070200PV1D20181221000030SPEAKER ASM                   M IMCTM S5MA14 TNTH  09020IMCT  S5 PTB  00005                    2230 SR        000000000000 DENSO TEN (THAILAND)18099UL0145145                                                                                                                              *          20181217 IMCT                IMCT                                                                                                                    WMF1812178.TXT
MDEDJD296520201812                D89828070200PV1D20181222000030SPEAKER ASM                   M IMCTM S5MA14 TNTH  09020IMCT  S5 PTB  00005                    0830 SR        000000000000 DENSO TEN (THAILAND)18082UL0096096                                                                                                                              *          20181217 IMCT                IMCT                                                                                                                    WMF1812178.TXT
MDEDJD296521201812                D89828070200PV4D20181222000030SPEAKER ASM                   M IMCTM S0FR05 TNTH  09020IMCT  S0 PTB  00005                    0230 SR        000000000000 DENSO TEN (THAILAND)18065UU0023023                                                                                                                              *          20181217 IMCT                IMCT                                                                                                                    WMF1812178.TXT
MDEDJD296522201812                D89828070200PV4D20181222000030SPEAKER ASM                   M IMCTM S0FR05 TNTH  09020IMCT  S0 PTB  00005                    0400 SR        000000000000 DENSO TEN (THAILAND)18065UU0024024                                                                                                                              *          20181217 IMCT                IMCT                                                                                                                    WMF1812178.TXT
MDEDJD296523201812                D89828070300PT1D20181221000030SPEAKER ASM                   M IMCTM S5NB082TNTH  09020IMCT  S5 PTB  00015                    2230 SR        000000000000 DENSO TEN (THAILAND)18099UL0145145                                                                                                                              *          20181217 IMCT                IMCT                                                                                                                    WMF1812178.TXT
MDEDJD296524201812                D89828070300PT1D20181222000030SPEAKER ASM                   M IMCTM S5NB082TNTH  09020IMCT  S5 PTB  00015                    0830 SR        000000000000 DENSO TEN (THAILAND)18082UL0096096                                                                                                                              *          20181217 IMCT                IMCT                                                                                                                    WMF1812178.TXT
MDEDJD296525201812                D89828070300PT4D20181222000030SPEAKER ASM                   M IMCTM S9TS02 TNTH  09020IMCT  S9 PTB  00015                    0230 SR        000000000000 DENSO TEN (THAILAND)18065UU0023023                                                                                                                              *          20181217 IMCT                IMCT                                                                                                                    WMF1812178.TXT
MDEDJD296526201812                D89828070300PT4D20181222000030SPEAKER ASM                   M IMCTM S9TS02 TNTH  09020IMCT  S9 PTB  00015                    0400 SR        000000000000 DENSO TEN (THAILAND)18065UU0024024                                                                                                                              *          20181217 IMCT                IMCT                                                                                                                    WMF1812178.TXT
MDEUJD242925201812                D89828070100PT4U20181221000030SPEAKER ASM                   M IMCTM S0FL05 TNTH  09020IMCT  S0 PTB  00004                    2230 SR        000000000000 DENSO TEN (THAILAND)18021UU0251251                                                                                                                              *          20181217 IMCT                IMCT                                                                                                                    WMF1812178.TXT
MDEUJD242926201812                D89828070100PT4U20181222000030SPEAKER ASM                   M IMCTM S0FL05 TNTH  09020IMCT  S0 PTB  00004                    0400 SR        000000000000 DENSO TEN (THAILAND)18020UU0165165                                                                                                                              *          20181217 IMCT                IMCT                                                                                                                    WMF1812178.TXT
MDEUJD242927201812                D89828070200PV4U20181221000030SPEAKER ASM                   M IMCTM S0FR05 TNTH  09020IMCT  S0 PTB  00005                    2230 SR        000000000000 DENSO TEN (THAILAND)18021UU0251251                                                                                                                              *          20181217 IMCT                IMCT                                                                                                                    WMF1812178.TXT
MDEUJD242928201812                D89828070200PV4U20181222000030SPEAKER ASM                   M IMCTM S0FR05 TNTH  09020IMCT  S0 PTB  00005                    0400 SR        000000000000 DENSO TEN (THAILAND)18020UU0165165                                                                                                                              *          20181217 IMCT                IMCT                                                                                                                    WMF1812178.TXT
MDEUJD242929201812                D89828070300PT4U20181221000030SPEAKER ASM                   M IMCTM S9TS02 TNTH  09020IMCT  S9 PTB  00015                    2230 SR        000000000000 DENSO TEN (THAILAND)18021UU0251251                                                                                                                              *          20181217 IMCT                IMCT                                                                                                                    WMF1812178.TXT
MDEUJD242930201812                D89828070300PT4U20181222000030SPEAKER ASM                   M IMCTM S9TS02 TNTH  09020IMCT  S9 PTB  00015                    0400 SR        000000000000 DENSO TEN (THAILAND)18020UU0165165                                                                                                                              *          20181217 IMCT                IMCT                                                                                                                    WMF1812178.TXT
