REC2019012220190122ISUZU                              54     
MDDDK1284692201901                D89821984430PT1D20190125000030RADIO;AM/FM,CD                M IMCTM S5NC06 TNTH  09020IMCT  S5 PTB  00005                    2230 SR        000000000000 DENSO TEN (THAILAND)190MYAL0105105                                                                                                                              *          20190122 IMCT                IMCT                                                                                                                    WMF1901224.TXT
MDDDK1284693201901                D89821984430PT1D20190126000030RADIO;AM/FM,CD                M IMCTM S5NC06 TNTH  09020IMCT  S5 PTB  00005                    1030 SR        000000000000 DENSO TEN (THAILAND)190MRAL0067067                                                                                                                              *          20190122 IMCT                IMCT                                                                                                                    WMF1901224.TXT
MDDDK1284694201901                D89821984430PT1D20190126000060RADIO;AM/FM,CD                M IMCTM S5NC06 TNTH  09020IMCT  S5 PTB  00005                    1300 SR        000000000000 DENSO TEN (THAILAND)190MRBL0024024190MYAL0106106                                                                                                                *          20190122 IMCT                IMCT                                                                                                                    WMF1901224.TXT
MDDDK1284695201901                D89821984430PT1D20190126000030RADIO;AM/FM,CD                M IMCTM S5NC06 TNTH  09020IMCT  S5 PTB  00005                    1600 SR        000000000000 DENSO TEN (THAILAND)190MNGL0064064                                                                                                                              *          20190122 IMCT                IMCT                                                                                                                    WMF1901224.TXT
MDDDK1284696201901                D89821984430PT1D20190126000030RADIO;AM/FM,CD                M IMCTM S5NC06 TNTH  09020IMCT  S5 PTB  00005                    2100 SR        000000000000 DENSO TEN (THAILAND)190MYAL0107107                                                                                                                              *          20190122 IMCT                IMCT                                                                                                                    WMF1901224.TXT
MDDDK1284697201901                D89828070100PV1D20190125000060SPEAKER ASM                   M IMCTM S5MB11 TNTH  09020IMCT  S5 PTB  00004                    2230 SR        000000000000 DENSO TEN (THAILAND)190MYAL0105105                                                                                                                              *          20190122 IMCT                IMCT                                                                                                                    WMF1901224.TXT
MDDDK1284698201901                D89828070100PV1D20190126000060SPEAKER ASM                   M IMCTM S5MB11 TNTH  09020IMCT  S5 PTB  00004                    0230 SR        000000000000 DENSO TEN (THAILAND)190MPGL0110110                                                                                                                              *          20190122 IMCT                IMCT                                                                                                                    WMF1901224.TXT
MDDDK1284699201901                D89828070100PV1D20190126000060SPEAKER ASM                   M IMCTM S5MB11 TNTH  09020IMCT  S5 PTB  00004                    1030 SR        000000000000 DENSO TEN (THAILAND)190MRAL0067067                                                                                                                              *          20190122 IMCT                IMCT                                                                                                                    WMF1901224.TXT
MDDDK1284700201901                D89828070100PV1D20190126000120SPEAKER ASM                   M IMCTM S5MB11 TNTH  09020IMCT  S5 PTB  00004                    1300 SR        000000000000 DENSO TEN (THAILAND)190MRBL0024024190MYAL0106106                                                                                                                *          20190122 IMCT                IMCT                                                                                                                    WMF1901224.TXT
MDDDK1284701201901                D89828070100PV1D20190126000060SPEAKER ASM                   M IMCTM S5MB11 TNTH  09020IMCT  S5 PTB  00004                    1600 SR        000000000000 DENSO TEN (THAILAND)190MNGL0064064                                                                                                                              *          20190122 IMCT                IMCT                                                                                                                    WMF1901224.TXT
MDDDK1284702201901                D89828070100PV1D20190126000060SPEAKER ASM                   M IMCTM S5MB11 TNTH  09020IMCT  S5 PTB  00004                    2100 SR        000000000000 DENSO TEN (THAILAND)190MYAL0107107                                                                                                                              *          20190122 IMCT                IMCT                                                                                                                    WMF1901224.TXT
MDDDK1284703201901                D89828070300PT1D20190126000060SPEAKER ASM                   M IMCTM S5NB082TNTH  09020IMCT  S5 PTB  00015                    0230 SR        000000000000 DENSO TEN (THAILAND)190MPGL0110110                                                                                                                              *          20190122 IMCT                IMCT                                                                                                                    WMF1901224.TXT
MDDDK1284704201901                D89831228300PT1D20190126000030RADIO;AM/FM,CD                M IMCTM S5NC06 TNTH  09020IMCT  S5 CPB  00003                    0230 SR        000000000000 DENSO TEN (THAILAND)190MPGL0110110                                                                                                                              *          20190122 IMCT                IMCT                                                                                                                    WMF1901224.TXT
MDEDK1313068201901                D89752845100PT4D20190126000015RADIO;AM FM,CD D              M IMCTM S9AD002TNTH  09020IMCT  S9 PTB  00003                    0230 SR        000000000000 DENSO TEN (THAILAND)190G02U0001001                                                                                                                              *          20190122 IMCT                IMCT                                                                                                                    WMF1901224.TXT
MDEDK1313069201901                D89828070100PV1D20190125000030SPEAKER ASM                   M IMCTM S5MB11 TNTH  09020IMCT  S5 PTB  00004                    2230 SR        000000000000 DENSO TEN (THAILAND)190G96L0001001                                                                                                                              *          20190122 IMCT                IMCT                                                                                                                    WMF1901224.TXT
MDEDK1313070201901                D89828070100PV1D20190126000090SPEAKER ASM                   M IMCTM S5MB11 TNTH  09020IMCT  S5 PTB  00004                    0400 SR        000000000000 DENSO TEN (THAILAND)190H04L0002003190J85L0010010                                                                                                                *          20190122 IMCT                IMCT                                                                                                                    WMF1901224.TXT
MDEDK1313071201901                D89828070100PV1D20190126000060SPEAKER ASM                   M IMCTM S5MB11 TNTH  09020IMCT  S5 PTB  00004                    0830 SR        000000000000 DENSO TEN (THAILAND)190J94L0060061                                                                                                                              *          20190122 IMCT                IMCT                                                                                                                    WMF1901224.TXT
MDEDK1313072201901                D89828070100PV1D20190126000030SPEAKER ASM                   M IMCTM S5MB11 TNTH  09020IMCT  S5 PTB  00004                    1600 SR        000000000000 DENSO TEN (THAILAND)190F44L0003003                                                                                                                              *          20190122 IMCT                IMCT                                                                                                                    WMF1901224.TXT
MDEDK1313073201901                D89828070100PV1D20190126000030SPEAKER ASM                   M IMCTM S5MB11 TNTH  09020IMCT  S5 PTB  00004                    2230 SR        000000000000 DENSO TEN (THAILAND)190D08L0001001                                                                                                                              *          20190122 IMCT                IMCT                                                                                                                    WMF1901224.TXT
MDEDK1313074201901                D89828070100PV4D20190125000030SPEAKER ASM                   M IMCTM S0FL05 TNTH  09020IMCT  S0 PTB  00004                    2230 SR        000000000000 DENSO TEN (THAILAND)190K19U0021021                                                                                                                              *          20190122 IMCT                IMCT                                                                                                                    WMF1901224.TXT
MDEDK1313075201901                D89828070100PV4D20190126000030SPEAKER ASM                   M IMCTM S0FL05 TNTH  09020IMCT  S0 PTB  00004                    0230 SR        000000000000 DENSO TEN (THAILAND)190G02U0001001                                                                                                                              *          20190122 IMCT                IMCT                                                                                                                    WMF1901224.TXT
MDEDK1313076201901                D89828070100PV4D20190126000030SPEAKER ASM                   M IMCTM S0FL05 TNTH  09020IMCT  S0 PTB  00004                    0400 SR        000000000000 DENSO TEN (THAILAND)190K21U0019019                                                                                                                              *          20190122 IMCT                IMCT                                                                                                                    WMF1901224.TXT
MDEDK1313077201901                D89828070100PV4D20190126000030SPEAKER ASM                   M IMCTM S0FL05 TNTH  09020IMCT  S0 PTB  00004                    0830 SR        000000000000 DENSO TEN (THAILAND)190D24U0008008                                                                                                                              *          20190122 IMCT                IMCT                                                                                                                    WMF1901224.TXT
MDEDK1313078201901                D89828070100PV4D20190126000030SPEAKER ASM                   M IMCTM S0FL05 TNTH  09020IMCT  S0 PTB  00004                    1030 SR        000000000000 DENSO TEN (THAILAND)190H29U0005005                                                                                                                              *          20190122 IMCT                IMCT                                                                                                                    WMF1901224.TXT
MDEDK1313079201901                D89828070100PV4D20190126000030SPEAKER ASM                   M IMCTM S0FL05 TNTH  09020IMCT  S0 PTB  00004                    1300 SR        000000000000 DENSO TEN (THAILAND)190J25U0004004                                                                                                                              *          20190122 IMCT                IMCT                                                                                                                    WMF1901224.TXT
MDEDK1313080201901                D89828070100PV4D20190126000060SPEAKER ASM                   M IMCTM S0FL05 TNTH  09020IMCT  S0 PTB  00004                    1600 SR        000000000000 DENSO TEN (THAILAND)190H26U0002002190J06U0002002                                                                                                                *          20190122 IMCT                IMCT                                                                                                                    WMF1901224.TXT
MDEDK1313081201901                D89828070200PV1D20190126000030SPEAKER ASM                   M IMCTM S5MA14 TNTH  09020IMCT  S5 PTB  00005                    1600 SR        000000000000 DENSO TEN (THAILAND)190F44L0003003                                                                                                                              *          20190122 IMCT                IMCT                                                                                                                    WMF1901224.TXT
MDEDK1313082201901                D89828070200PV4D20190125000030SPEAKER ASM                   M IMCTM S0FR05 TNTH  09020IMCT  S0 PTB  00005                    2230 SR        000000000000 DENSO TEN (THAILAND)190K19U0021021                                                                                                                              *          20190122 IMCT                IMCT                                                                                                                    WMF1901224.TXT
MDEDK1313083201901                D89828070200PV4D20190126000030SPEAKER ASM                   M IMCTM S0FR05 TNTH  09020IMCT  S0 PTB  00005                    0400 SR        000000000000 DENSO TEN (THAILAND)190K21U0019019                                                                                                                              *          20190122 IMCT                IMCT                                                                                                                    WMF1901224.TXT
MDEDK1313084201901                D89828070200PV4D20190126000030SPEAKER ASM                   M IMCTM S0FR05 TNTH  09020IMCT  S0 PTB  00005                    0830 SR        000000000000 DENSO TEN (THAILAND)190D24U0008008                                                                                                                              *          20190122 IMCT                IMCT                                                                                                                    WMF1901224.TXT
MDEDK1313085201901                D89828070200PV4D20190126000030SPEAKER ASM                   M IMCTM S0FR05 TNTH  09020IMCT  S0 PTB  00005                    1030 SR        000000000000 DENSO TEN (THAILAND)190H29U0005005                                                                                                                              *          20190122 IMCT                IMCT                                                                                                                    WMF1901224.TXT
MDEDK1313086201901                D89828070200PV4D20190126000030SPEAKER ASM                   M IMCTM S0FR05 TNTH  09020IMCT  S0 PTB  00005                    1300 SR        000000000000 DENSO TEN (THAILAND)190J25U0004004                                                                                                                              *          20190122 IMCT                IMCT                                                                                                                    WMF1901224.TXT
MDEDK1313087201901                D89828070200PV4D20190126000060SPEAKER ASM                   M IMCTM S0FR05 TNTH  09020IMCT  S0 PTB  00005                    1600 SR        000000000000 DENSO TEN (THAILAND)190H26U0002002190J06U0002002                                                                                                                *          20190122 IMCT                IMCT                                                                                                                    WMF1901224.TXT
MDEDK1313088201901                D89828070300PT1D20190126000030SPEAKER ASM                   M IMCTM S5NB082TNTH  09020IMCT  S5 PTB  00015                    1600 SR        000000000000 DENSO TEN (THAILAND)190F44L0003003                                                                                                                              *          20190122 IMCT                IMCT                                                                                                                    WMF1901224.TXT
MDEDK1313089201901                D89828070300PT4D20190125000030SPEAKER ASM                   M IMCTM S9TS02 TNTH  09020IMCT  S9 PTB  00015                    2230 SR        000000000000 DENSO TEN (THAILAND)190K19U0021021                                                                                                                              *          20190122 IMCT                IMCT                                                                                                                    WMF1901224.TXT
MDEDK1313090201901                D89828070300PT4D20190126000030SPEAKER ASM                   M IMCTM S9TS02 TNTH  09020IMCT  S9 PTB  00015                    0230 SR        000000000000 DENSO TEN (THAILAND)190G02U0001001                                                                                                                              *          20190122 IMCT                IMCT                                                                                                                    WMF1901224.TXT
MDEDK1313091201901                D89828070300PT4D20190126000030SPEAKER ASM                   M IMCTM S9TS02 TNTH  09020IMCT  S9 PTB  00015                    0400 SR        000000000000 DENSO TEN (THAILAND)190K21U0019019                                                                                                                              *          20190122 IMCT                IMCT                                                                                                                    WMF1901224.TXT
MDEDK1313092201901                D89828070300PT4D20190126000030SPEAKER ASM                   M IMCTM S9TS02 TNTH  09020IMCT  S9 PTB  00015                    0830 SR        000000000000 DENSO TEN (THAILAND)190D24U0008008                                                                                                                              *          20190122 IMCT                IMCT                                                                                                                    WMF1901224.TXT
MDEDK1313093201901                D89828070300PT4D20190126000030SPEAKER ASM                   M IMCTM S9TS02 TNTH  09020IMCT  S9 PTB  00015                    1030 SR        000000000000 DENSO TEN (THAILAND)190H29U0005005                                                                                                                              *          20190122 IMCT                IMCT                                                                                                                    WMF1901224.TXT
MDEDK1313094201901                D89828070300PT4D20190126000030SPEAKER ASM                   M IMCTM S9TS02 TNTH  09020IMCT  S9 PTB  00015                    1300 SR        000000000000 DENSO TEN (THAILAND)190J25U0004004                                                                                                                              *          20190122 IMCT                IMCT                                                                                                                    WMF1901224.TXT
MDEDK1313095201901                D89828070300PT4D20190126000060SPEAKER ASM                   M IMCTM S9TS02 TNTH  09020IMCT  S9 PTB  00015                    1600 SR        000000000000 DENSO TEN (THAILAND)190H26U0002002190J06U0002002                                                                                                                *          20190122 IMCT                IMCT                                                                                                                    WMF1901224.TXT
MDEDK1313096201901                D89838031200PT4D20190125000015RADIO;ASM DVD                 M IMCTM S9CO001TNTH  09020IMCT  S9 PTB  00003                    2230 SR        000000000000 DENSO TEN (THAILAND)190K19U0021021                                                                                                                              *          20190122 IMCT                IMCT                                                                                                                    WMF1901224.TXT
MDEDK1313097201901                D89838031200PT4D20190126000015RADIO;ASM DVD                 M IMCTM S9CO001TNTH  09020IMCT  S9 PTB  00003                    0400 SR        000000000000 DENSO TEN (THAILAND)190K21U0019019                                                                                                                              *          20190122 IMCT                IMCT                                                                                                                    WMF1901224.TXT
MDEDK1313098201901                D89848582010PT1D20190126000015RADIO;AM/FM CD D              M IMCTM S5NC06 TNTH  09020IMCT  S5 PTB  00003                    1600 SR        000000000000 DENSO TEN (THAILAND)190F44L0003003                                                                                                                              *          20190122 IMCT                IMCT                                                                                                                    WMF1901224.TXT
MDEDK1313099201901                D89848582100PT4D20190126000030RADIO;AM/FM CD D              M IMCTM S9CO001TNTH  09020IMCT  S9 PTB  00003                    1600 SR        000000000000 DENSO TEN (THAILAND)190H26U0002002190J06U0002002                                                                                                                *          20190122 IMCT                IMCT                                                                                                                    WMF1901224.TXT
MDEUK1218794201901                D89828070100PT4U20190126000030SPEAKER ASM                   M IMCTM S0FL05 TNTH  09020IMCT  S0 PTB  00004                    0230 SR        000000000000 DENSO TEN (THAILAND)190G77U0018018                                                                                                                              *          20190122 IMCT                IMCT                                                                                                                    WMF1901224.TXT
MDEUK1218795201901                D89828070100PT4U20190126000030SPEAKER ASM                   M IMCTM S0FL05 TNTH  09020IMCT  S0 PTB  00004                    1300 SR        000000000000 DENSO TEN (THAILAND)190G77U0019019                                                                                                                              *          20190122 IMCT                IMCT                                                                                                                    WMF1901224.TXT
MDEUK1218796201901                D89828070100PT4U20190126000030SPEAKER ASM                   M IMCTM S0FL05 TNTH  09020IMCT  S0 PTB  00004                    2100 SR        000000000000 DENSO TEN (THAILAND)190G77U0020020                                                                                                                              *          20190122 IMCT                IMCT                                                                                                                    WMF1901224.TXT
MDEUK1218797201901                D89828070200PV4U20190126000030SPEAKER ASM                   M IMCTM S0FR05 TNTH  09020IMCT  S0 PTB  00005                    0230 SR        000000000000 DENSO TEN (THAILAND)190G77U0018018                                                                                                                              *          20190122 IMCT                IMCT                                                                                                                    WMF1901224.TXT
MDEUK1218798201901                D89828070200PV4U20190126000030SPEAKER ASM                   M IMCTM S0FR05 TNTH  09020IMCT  S0 PTB  00005                    1300 SR        000000000000 DENSO TEN (THAILAND)190G77U0019019                                                                                                                              *          20190122 IMCT                IMCT                                                                                                                    WMF1901224.TXT
MDEUK1218799201901                D89828070200PV4U20190126000030SPEAKER ASM                   M IMCTM S0FR05 TNTH  09020IMCT  S0 PTB  00005                    2100 SR        000000000000 DENSO TEN (THAILAND)190G77U0020020                                                                                                                              *          20190122 IMCT                IMCT                                                                                                                    WMF1901224.TXT
MDEUK1218800201901                D89828070300PT4U20190126000030SPEAKER ASM                   M IMCTM S9TS02 TNTH  09020IMCT  S9 PTB  00015                    0230 SR        000000000000 DENSO TEN (THAILAND)190G77U0018018                                                                                                                              *          20190122 IMCT                IMCT                                                                                                                    WMF1901224.TXT
MDEUK1218801201901                D89828070300PT4U20190126000030SPEAKER ASM                   M IMCTM S9TS02 TNTH  09020IMCT  S9 PTB  00015                    1300 SR        000000000000 DENSO TEN (THAILAND)190G77U0019019                                                                                                                              *          20190122 IMCT                IMCT                                                                                                                    WMF1901224.TXT
MDEUK1218802201901                D89828070300PT4U20190126000030SPEAKER ASM                   M IMCTM S9TS02 TNTH  09020IMCT  S9 PTB  00015                    2100 SR        000000000000 DENSO TEN (THAILAND)190G77U0020020                                                                                                                              *          20190122 IMCT                IMCT                                                                                                                    WMF1901224.TXT
