REC2018122820181228ISUZU                              55     
MDDDJD339548201901                D89821984430PT1D20190110000060RADIO;AM/FM,CD                M IMCTM S5NC06 TNTH  09020IMCT  S5 PTB  00005                    0400 SR        000000000000 DENSO TEN (THAILAND)190MRAL0053053190MYAL0092092                                                                                                                *          20181228 IMCT                IMCT                                                                                                                    WMF181228B.TXT
MDDDJD339549201901                D89821984430PT1D20190110000030RADIO;AM/FM,CD                M IMCTM S5NC06 TNTH  09020IMCT  S5 PTB  00005                    1030 SR        000000000000 DENSO TEN (THAILAND)190MXEL0022022                                                                                                                              *          20181228 IMCT                IMCT                                                                                                                    WMF181228B.TXT
MDDDJD339550201901                D89821984430PT1D20190110000030RADIO;AM/FM,CD                M IMCTM S5NC06 TNTH  09020IMCT  S5 PTB  00005                    1300 SR        000000000000 DENSO TEN (THAILAND)190MNGL0055055                                                                                                                              *          20181228 IMCT                IMCT                                                                                                                    WMF181228B.TXT
MDDDJD339551201901                D89821984430PT1D20190110000060RADIO;AM/FM,CD                M IMCTM S5NC06 TNTH  09020IMCT  S5 PTB  00005                    1600 SR        000000000000 DENSO TEN (THAILAND)190MRAL0054054190MXCL0024024                                                                                                                *          20181228 IMCT                IMCT                                                                                                                    WMF181228B.TXT
MDDDJD339552201901                D89828070100PV1D20190109000060SPEAKER ASM                   M IMCTM S5MB11 TNTH  09020IMCT  S5 PTB  00004                    2230 SR        000000000000 DENSO TEN (THAILAND)190MPPL0006006                                                                                                                              *          20181228 IMCT                IMCT                                                                                                                    WMF181228B.TXT
MDDDJD339553201901                D89828070100PV1D20190110000060SPEAKER ASM                   M IMCTM S5MB11 TNTH  09020IMCT  S5 PTB  00004                    0230 SR        000000000000 DENSO TEN (THAILAND)190MPGL0086086                                                                                                                              *          20181228 IMCT                IMCT                                                                                                                    WMF181228B.TXT
MDDDJD339554201901                D89828070100PV1D20190110000120SPEAKER ASM                   M IMCTM S5MB11 TNTH  09020IMCT  S5 PTB  00004                    0400 SR        000000000000 DENSO TEN (THAILAND)190MRAL0053053190MYAL0092092                                                                                                                *          20181228 IMCT                IMCT                                                                                                                    WMF181228B.TXT
MDDDJD339555201901                D89828070100PV1D20190110000060SPEAKER ASM                   M IMCTM S5MB11 TNTH  09020IMCT  S5 PTB  00004                    0830 SR        000000000000 DENSO TEN (THAILAND)190MPCL0027027                                                                                                                              *          20181228 IMCT                IMCT                                                                                                                    WMF181228B.TXT
MDDDJD339556201901                D89828070100PV1D20190110000060SPEAKER ASM                   M IMCTM S5MB11 TNTH  09020IMCT  S5 PTB  00004                    1030 SR        000000000000 DENSO TEN (THAILAND)190MXEL0022022                                                                                                                              *          20181228 IMCT                IMCT                                                                                                                    WMF181228B.TXT
MDDDJD339557201901                D89828070100PV1D20190110000060SPEAKER ASM                   M IMCTM S5MB11 TNTH  09020IMCT  S5 PTB  00004                    1300 SR        000000000000 DENSO TEN (THAILAND)190MNGL0055055                                                                                                                              *          20181228 IMCT                IMCT                                                                                                                    WMF181228B.TXT
MDDDJD339558201901                D89828070100PV1D20190110000120SPEAKER ASM                   M IMCTM S5MB11 TNTH  09020IMCT  S5 PTB  00004                    1600 SR        000000000000 DENSO TEN (THAILAND)190MRAL0054054190MXCL0024024                                                                                                                *          20181228 IMCT                IMCT                                                                                                                    WMF181228B.TXT
MDDDJD339559201901                D89828070100PV4D20190110000060SPEAKER ASM                   M IMCTM S0FL05 TNTH  09020IMCT  S0 PTB  00004                    1600 SR        000000000000 DENSO TEN (THAILAND)190MRWU0026026                                                                                                                              *          20181228 IMCT                IMCT                                                                                                                    WMF181228B.TXT
MDDDJD339560201901                D89828070200PV4D20190110000060SPEAKER ASM                   M IMCTM S0FR05 TNTH  09020IMCT  S0 PTB  00005                    1600 SR        000000000000 DENSO TEN (THAILAND)190MRWU0026026                                                                                                                              *          20181228 IMCT                IMCT                                                                                                                    WMF181228B.TXT
MDDDJD339561201901                D89828070300PT1D20190109000060SPEAKER ASM                   M IMCTM S5NB082TNTH  09020IMCT  S5 PTB  00015                    2230 SR        000000000000 DENSO TEN (THAILAND)190MPPL0006006                                                                                                                              *          20181228 IMCT                IMCT                                                                                                                    WMF181228B.TXT
MDDDJD339562201901                D89828070300PT1D20190110000060SPEAKER ASM                   M IMCTM S5NB082TNTH  09020IMCT  S5 PTB  00015                    0230 SR        000000000000 DENSO TEN (THAILAND)190MPGL0086086                                                                                                                              *          20181228 IMCT                IMCT                                                                                                                    WMF181228B.TXT
MDDDJD339563201901                D89828070300PT1D20190110000060SPEAKER ASM                   M IMCTM S5NB082TNTH  09020IMCT  S5 PTB  00015                    0830 SR        000000000000 DENSO TEN (THAILAND)190MPCL0027027                                                                                                                              *          20181228 IMCT                IMCT                                                                                                                    WMF181228B.TXT
MDDDJD339564201901                D89828070300PT4D20190110000060SPEAKER ASM                   M IMCTM S9TS02 TNTH  09020IMCT  S9 PTB  00015                    1600 SR        000000000000 DENSO TEN (THAILAND)190MRWU0026026                                                                                                                              *          20181228 IMCT                IMCT                                                                                                                    WMF181228B.TXT
MDDDJD339565201901                D89831228300PT1D20190110000030RADIO;AM/FM,CD                M IMCTM S5NC06 TNTH  09020IMCT  S5 CPB  00003                    0230 SR        000000000000 DENSO TEN (THAILAND)190MPGL0086086                                                                                                                              *          20181228 IMCT                IMCT                                                                                                                    WMF181228B.TXT
MDDDJD339566201901                D89831228300PT1D20190110000030RADIO;AM/FM,CD                M IMCTM S5NC06 TNTH  09020IMCT  S5 CPB  00003                    0830 SR        000000000000 DENSO TEN (THAILAND)190MPCL0027027                                                                                                                              *          20181228 IMCT                IMCT                                                                                                                    WMF181228B.TXT
MDDUJD245725201901                D89828070100PT4U20190110000030SPEAKER ASM                   M IMCTM S0FL05 TNTH  09020IMCT  S0 PTB  00004                    0400 SR        000000000000 DENSO TEN (THAILAND)180LUQU0102102                                                                                                                              *          20181228 IMCT                IMCT                                                                                                                    WMF181228B.TXT
MDDUJD245726201901                D89828070200PV4U20190110000030SPEAKER ASM                   M IMCTM S0FR05 TNTH  09020IMCT  S0 PTB  00005                    0400 SR        000000000000 DENSO TEN (THAILAND)180LUQU0102102                                                                                                                              *          20181228 IMCT                IMCT                                                                                                                    WMF181228B.TXT
MDDUJD245727201901                D89828070300PT4U20190110000030SPEAKER ASM                   M IMCTM S9TS02 TNTH  09020IMCT  S9 PTB  00015                    0400 SR        000000000000 DENSO TEN (THAILAND)180LUQU0102102                                                                                                                              *          20181228 IMCT                IMCT                                                                                                                    WMF181228B.TXT
MDDUJD245728201901                D89848584200PT4U20190110000015RADIO;AM/FM CD D              M IMCTM S9CO001TNTH  09020IMCT  S9 PTB  00003                    0400 SR        000000000000 DENSO TEN (THAILAND)180LUQU0102102                                                                                                                              *          20181228 IMCT                IMCT                                                                                                                    WMF181228B.TXT
MDEDJD352259201901                D89828070100PV1D20190109000030SPEAKER ASM                   M IMCTM S5MB11 TNTH  09020IMCT  S5 PTB  00004                    2230 SR        000000000000 DENSO TEN (THAILAND)190K12L0023023                                                                                                                              *          20181228 IMCT                IMCT                                                                                                                    WMF181228B.TXT
MDEDJD352260201901                D89828070100PV1D20190110000030SPEAKER ASM                   M IMCTM S5MB11 TNTH  09020IMCT  S5 PTB  00004                    0230 SR        000000000000 DENSO TEN (THAILAND)190K12L0024024                                                                                                                              *          20181228 IMCT                IMCT                                                                                                                    WMF181228B.TXT
MDEDJD352261201901                D89828070100PV1D20190110000060SPEAKER ASM                   M IMCTM S5MB11 TNTH  09020IMCT  S5 PTB  00004                    1300 SR        000000000000 DENSO TEN (THAILAND)190H71L0001001190K83L0002002                                                                                                                *          20181228 IMCT                IMCT                                                                                                                    WMF181228B.TXT
MDEDJD352262201901                D89828070100PV1D20190110000060SPEAKER ASM                   M IMCTM S5MB11 TNTH  09020IMCT  S5 PTB  00004                    1600 SR        000000000000 DENSO TEN (THAILAND)190J94L0043044                                                                                                                              *          20181228 IMCT                IMCT                                                                                                                    WMF181228B.TXT
MDEDJD352263201901                D89828070100PV1D20190110000060SPEAKER ASM                   M IMCTM S5MB11 TNTH  09020IMCT  S5 PTB  00004                    2100 SR        000000000000 DENSO TEN (THAILAND)190K08L0002003                                                                                                                              *          20181228 IMCT                IMCT                                                                                                                    WMF181228B.TXT
MDEDJD352264201901                D89828070100PV4D20190109000030SPEAKER ASM                   M IMCTM S0FL05 TNTH  09020IMCT  S0 PTB  00004                    2230 SR        000000000000 DENSO TEN (THAILAND)190H17U0002002                                                                                                                              *          20181228 IMCT                IMCT                                                                                                                    WMF181228B.TXT
MDEDJD352265201901                D89828070100PV4D20190110000030SPEAKER ASM                   M IMCTM S0FL05 TNTH  09020IMCT  S0 PTB  00004                    0230 SR        000000000000 DENSO TEN (THAILAND)190H19U0001001                                                                                                                              *          20181228 IMCT                IMCT                                                                                                                    WMF181228B.TXT
MDEDJD352266201901                D89828070100PV4D20190110000030SPEAKER ASM                   M IMCTM S0FL05 TNTH  09020IMCT  S0 PTB  00004                    0400 SR        000000000000 DENSO TEN (THAILAND)190G22U0001001                                                                                                                              *          20181228 IMCT                IMCT                                                                                                                    WMF181228B.TXT
MDEDJD352267201901                D89828070100PV4D20190110000030SPEAKER ASM                   M IMCTM S0FL05 TNTH  09020IMCT  S0 PTB  00004                    0830 SR        000000000000 DENSO TEN (THAILAND)190H28U0003003                                                                                                                              *          20181228 IMCT                IMCT                                                                                                                    WMF181228B.TXT
MDEDJD352268201901                D89828070100PV4D20190110000030SPEAKER ASM                   M IMCTM S0FL05 TNTH  09020IMCT  S0 PTB  00004                    1030 SR        000000000000 DENSO TEN (THAILAND)190K17U0002002                                                                                                                              *          20181228 IMCT                IMCT                                                                                                                    WMF181228B.TXT
MDEDJD352269201901                D89828070100PV4D20190110000060SPEAKER ASM                   M IMCTM S0FL05 TNTH  09020IMCT  S0 PTB  00004                    1300 SR        000000000000 DENSO TEN (THAILAND)190H17U0003003190H28U0004004                                                                                                                *          20181228 IMCT                IMCT                                                                                                                    WMF181228B.TXT
MDEDJD352270201901                D89828070100PV4D20190110000060SPEAKER ASM                   M IMCTM S0FL05 TNTH  09020IMCT  S0 PTB  00004                    1600 SR        000000000000 DENSO TEN (THAILAND)190F86U0008009                                                                                                                              *          20181228 IMCT                IMCT                                                                                                                    WMF181228B.TXT
MDEDJD352271201901                D89828070200PV1D20190110000030SPEAKER ASM                   M IMCTM S5MA14 TNTH  09020IMCT  S5 PTB  00005                    1300 SR        000000000000 DENSO TEN (THAILAND)190K83L0002002                                                                                                                              *          20181228 IMCT                IMCT                                                                                                                    WMF181228B.TXT
MDEDJD352272201901                D89828070200PV4D20190109000030SPEAKER ASM                   M IMCTM S0FR05 TNTH  09020IMCT  S0 PTB  00005                    2230 SR        000000000000 DENSO TEN (THAILAND)190H17U0002002                                                                                                                              *          20181228 IMCT                IMCT                                                                                                                    WMF181228B.TXT
MDEDJD352273201901                D89828070200PV4D20190110000030SPEAKER ASM                   M IMCTM S0FR05 TNTH  09020IMCT  S0 PTB  00005                    0230 SR        000000000000 DENSO TEN (THAILAND)190H19U0001001                                                                                                                              *          20181228 IMCT                IMCT                                                                                                                    WMF181228B.TXT
MDEDJD352274201901                D89828070200PV4D20190110000030SPEAKER ASM                   M IMCTM S0FR05 TNTH  09020IMCT  S0 PTB  00005                    0400 SR        000000000000 DENSO TEN (THAILAND)190G22U0001001                                                                                                                              *          20181228 IMCT                IMCT                                                                                                                    WMF181228B.TXT
MDEDJD352275201901                D89828070200PV4D20190110000030SPEAKER ASM                   M IMCTM S0FR05 TNTH  09020IMCT  S0 PTB  00005                    0830 SR        000000000000 DENSO TEN (THAILAND)190H28U0003003                                                                                                                              *          20181228 IMCT                IMCT                                                                                                                    WMF181228B.TXT
MDEDJD352276201901                D89828070200PV4D20190110000030SPEAKER ASM                   M IMCTM S0FR05 TNTH  09020IMCT  S0 PTB  00005                    1030 SR        000000000000 DENSO TEN (THAILAND)190K17U0002002                                                                                                                              *          20181228 IMCT                IMCT                                                                                                                    WMF181228B.TXT
MDEDJD352277201901                D89828070200PV4D20190110000060SPEAKER ASM                   M IMCTM S0FR05 TNTH  09020IMCT  S0 PTB  00005                    1300 SR        000000000000 DENSO TEN (THAILAND)190H17U0003003190H28U0004004                                                                                                                *          20181228 IMCT                IMCT                                                                                                                    WMF181228B.TXT
MDEDJD352278201901                D89828070300PT1D20190110000060SPEAKER ASM                   M IMCTM S5NB082TNTH  09020IMCT  S5 PTB  00015                    1300 SR        000000000000 DENSO TEN (THAILAND)190H71L0001001190K83L0002002                                                                                                                *          20181228 IMCT                IMCT                                                                                                                    WMF181228B.TXT
MDEDJD352279201901                D89828070300PT4D20190109000030SPEAKER ASM                   M IMCTM S9TS02 TNTH  09020IMCT  S9 PTB  00015                    2230 SR        000000000000 DENSO TEN (THAILAND)190H17U0002002                                                                                                                              *          20181228 IMCT                IMCT                                                                                                                    WMF181228B.TXT
MDEDJD352280201901                D89828070300PT4D20190110000030SPEAKER ASM                   M IMCTM S9TS02 TNTH  09020IMCT  S9 PTB  00015                    0230 SR        000000000000 DENSO TEN (THAILAND)190H19U0001001                                                                                                                              *          20181228 IMCT                IMCT                                                                                                                    WMF181228B.TXT
MDEDJD352281201901                D89828070300PT4D20190110000030SPEAKER ASM                   M IMCTM S9TS02 TNTH  09020IMCT  S9 PTB  00015                    0400 SR        000000000000 DENSO TEN (THAILAND)190G22U0001001                                                                                                                              *          20181228 IMCT                IMCT                                                                                                                    WMF181228B.TXT
MDEDJD352282201901                D89828070300PT4D20190110000030SPEAKER ASM                   M IMCTM S9TS02 TNTH  09020IMCT  S9 PTB  00015                    0830 SR        000000000000 DENSO TEN (THAILAND)190H28U0003003                                                                                                                              *          20181228 IMCT                IMCT                                                                                                                    WMF181228B.TXT
MDEDJD352283201901                D89828070300PT4D20190110000030SPEAKER ASM                   M IMCTM S9TS02 TNTH  09020IMCT  S9 PTB  00015                    1030 SR        000000000000 DENSO TEN (THAILAND)190K17U0002002                                                                                                                              *          20181228 IMCT                IMCT                                                                                                                    WMF181228B.TXT
MDEDJD352284201901                D89828070300PT4D20190110000060SPEAKER ASM                   M IMCTM S9TS02 TNTH  09020IMCT  S9 PTB  00015                    1300 SR        000000000000 DENSO TEN (THAILAND)190H17U0003003190H28U0004004                                                                                                                *          20181228 IMCT                IMCT                                                                                                                    WMF181228B.TXT
MDEDJD352285201901                D89838031200PT4D20190110000015RADIO;ASM DVD                 M IMCTM S9CO001TNTH  09020IMCT  S9 PTB  00003                    1030 SR        000000000000 DENSO TEN (THAILAND)190K17U0002002                                                                                                                              *          20181228 IMCT                IMCT                                                                                                                    WMF181228B.TXT
MDEDJD352286201901                D89848582100PT4D20190109000015RADIO;AM/FM CD D              M IMCTM S9CO001TNTH  09020IMCT  S9 PTB  00003                    2230 SR        000000000000 DENSO TEN (THAILAND)190H17U0002002                                                                                                                              *          20181228 IMCT                IMCT                                                                                                                    WMF181228B.TXT
MDEDJD352287201901                D89848582100PT4D20190110000015RADIO;AM/FM CD D              M IMCTM S9CO001TNTH  09020IMCT  S9 PTB  00003                    1300 SR        000000000000 DENSO TEN (THAILAND)190H17U0003003                                                                                                                              *          20181228 IMCT                IMCT                                                                                                                    WMF181228B.TXT
MDEUJD260586201901                D89828070100PT4U20190110000030SPEAKER ASM                   M IMCTM S0FL05 TNTH  09020IMCT  S0 PTB  00004                    1300 SR        000000000000 DENSO TEN (THAILAND)190G76U0007007                                                                                                                              *          20181228 IMCT                IMCT                                                                                                                    WMF181228B.TXT
MDEUJD260587201901                D89828070200PV4U20190110000030SPEAKER ASM                   M IMCTM S0FR05 TNTH  09020IMCT  S0 PTB  00005                    1300 SR        000000000000 DENSO TEN (THAILAND)190G76U0007007                                                                                                                              *          20181228 IMCT                IMCT                                                                                                                    WMF181228B.TXT
MDEUJD260588201901                D89828070300PT4U20190110000030SPEAKER ASM                   M IMCTM S9TS02 TNTH  09020IMCT  S9 PTB  00015                    1300 SR        000000000000 DENSO TEN (THAILAND)190G76U0007007                                                                                                                              *          20181228 IMCT                IMCT                                                                                                                    WMF181228B.TXT
