REC2019010920190109ISUZU                              52     
MDDDK1216500201901                D89821984430PT1D20190114000030RADIO;AM/FM,CD                M IMCTM S5NC06 TNTH  09020IMCT  S5 PTB  00005                    1030 SR        000000000000 DENSO TEN (THAILAND)190MNHL0022022                                                                                                                              *          20190109 IMCT                IMCT                                                                                                                    WMF1901095.TXT
MDDDK1216501201901                D89821984430PT1D20190114000030RADIO;AM/FM,CD                M IMCTM S5NC06 TNTH  09020IMCT  S5 PTB  00005                    2100 SR        000000000000 DENSO TEN (THAILAND)190MYAL0097097                                                                                                                              *          20190109 IMCT                IMCT                                                                                                                    WMF1901095.TXT
MDDDK1216502201901                D89828070100PV1D20190112000060SPEAKER ASM                   M IMCTM S5MB11 TNTH  09020IMCT  S5 PTB  00004                    2230 SR        000000000000 DENSO TEN (THAILAND)190MPHL0006006                                                                                                                              *          20190109 IMCT                IMCT                                                                                                                    WMF1901095.TXT
MDDDK1216503201901                D89828070100PV1D20190113000060SPEAKER ASM                   M IMCTM S5MB11 TNTH  09020IMCT  S5 PTB  00004                    0400 SR        000000000000 DENSO TEN (THAILAND)190MPGL0090090                                                                                                                              *          20190109 IMCT                IMCT                                                                                                                    WMF1901095.TXT
MDDDK1216504201901                D89828070100PV1D20190114000120SPEAKER ASM                   M IMCTM S5MB11 TNTH  09020IMCT  S5 PTB  00004                    1030 SR        000000000000 DENSO TEN (THAILAND)190MNHL0022022190MPCL0029029                                                                                                                *          20190109 IMCT                IMCT                                                                                                                    WMF1901095.TXT
MDDDK1216505201901                D89828070100PV1D20190114000060SPEAKER ASM                   M IMCTM S5MB11 TNTH  09020IMCT  S5 PTB  00004                    1300 SR        000000000000 DENSO TEN (THAILAND)190MPDL0014014                                                                                                                              *          20190109 IMCT                IMCT                                                                                                                    WMF1901095.TXT
MDDDK1216506201901                D89828070100PV1D20190114000060SPEAKER ASM                   M IMCTM S5MB11 TNTH  09020IMCT  S5 PTB  00004                    2100 SR        000000000000 DENSO TEN (THAILAND)190MYAL0097097                                                                                                                              *          20190109 IMCT                IMCT                                                                                                                    WMF1901095.TXT
MDDDK1216507201901                D89828070100PV4D20190113000060SPEAKER ASM                   M IMCTM S0FL05 TNTH  09020IMCT  S0 PTB  00004                    0230 SR        000000000000 DENSO TEN (THAILAND)190MRWU0027027                                                                                                                              *          20190109 IMCT                IMCT                                                                                                                    WMF1901095.TXT
MDDDK1216508201901                D89828070200PV4D20190113000060SPEAKER ASM                   M IMCTM S0FR05 TNTH  09020IMCT  S0 PTB  00005                    0230 SR        000000000000 DENSO TEN (THAILAND)190MRWU0027027                                                                                                                              *          20190109 IMCT                IMCT                                                                                                                    WMF1901095.TXT
MDDDK1216509201901                D89828070300PT1D20190112000060SPEAKER ASM                   M IMCTM S5NB082TNTH  09020IMCT  S5 PTB  00015                    2230 SR        000000000000 DENSO TEN (THAILAND)190MPHL0006006                                                                                                                              *          20190109 IMCT                IMCT                                                                                                                    WMF1901095.TXT
MDDDK1216510201901                D89828070300PT1D20190113000060SPEAKER ASM                   M IMCTM S5NB082TNTH  09020IMCT  S5 PTB  00015                    0400 SR        000000000000 DENSO TEN (THAILAND)190MPGL0090090                                                                                                                              *          20190109 IMCT                IMCT                                                                                                                    WMF1901095.TXT
MDDDK1216511201901                D89828070300PT1D20190114000060SPEAKER ASM                   M IMCTM S5NB082TNTH  09020IMCT  S5 PTB  00015                    1030 SR        000000000000 DENSO TEN (THAILAND)190MPCL0029029                                                                                                                              *          20190109 IMCT                IMCT                                                                                                                    WMF1901095.TXT
MDDDK1216512201901                D89828070300PT1D20190114000060SPEAKER ASM                   M IMCTM S5NB082TNTH  09020IMCT  S5 PTB  00015                    1300 SR        000000000000 DENSO TEN (THAILAND)190MPDL0014014                                                                                                                              *          20190109 IMCT                IMCT                                                                                                                    WMF1901095.TXT
MDDDK1216513201901                D89828070300PT4D20190113000060SPEAKER ASM                   M IMCTM S9TS02 TNTH  09020IMCT  S9 PTB  00015                    0230 SR        000000000000 DENSO TEN (THAILAND)190MRWU0027027                                                                                                                              *          20190109 IMCT                IMCT                                                                                                                    WMF1901095.TXT
MDDDK1216514201901                D89831228300PT1D20190112000030RADIO;AM/FM,CD                M IMCTM S5NC06 TNTH  09020IMCT  S5 CPB  00003                    2230 SR        000000000000 DENSO TEN (THAILAND)190MPHL0006006                                                                                                                              *          20190109 IMCT                IMCT                                                                                                                    WMF1901095.TXT
MDDDK1216515201901                D89831228300PT1D20190113000030RADIO;AM/FM,CD                M IMCTM S5NC06 TNTH  09020IMCT  S5 CPB  00003                    0400 SR        000000000000 DENSO TEN (THAILAND)190MPGL0090090                                                                                                                              *          20190109 IMCT                IMCT                                                                                                                    WMF1901095.TXT
MDDDK1216516201901                D89831228300PT1D20190114000030RADIO;AM/FM,CD                M IMCTM S5NC06 TNTH  09020IMCT  S5 CPB  00003                    1030 SR        000000000000 DENSO TEN (THAILAND)190MPCL0029029                                                                                                                              *          20190109 IMCT                IMCT                                                                                                                    WMF1901095.TXT
MDDDK1216517201901                D89831228300PT1D20190114000030RADIO;AM/FM,CD                M IMCTM S5NC06 TNTH  09020IMCT  S5 CPB  00003                    1300 SR        000000000000 DENSO TEN (THAILAND)190MPDL0014014                                                                                                                              *          20190109 IMCT                IMCT                                                                                                                    WMF1901095.TXT
MDEDK1222302201901                D89828070100PV1D20190112000030SPEAKER ASM                   M IMCTM S5MB11 TNTH  09020IMCT  S5 PTB  00004                    2230 SR        000000000000 DENSO TEN (THAILAND)190J94L0047047                                                                                                                              *          20190109 IMCT                IMCT                                                                                                                    WMF1901095.TXT
MDEDK1222303201901                D89828070100PV1D20190113000060SPEAKER ASM                   M IMCTM S5MB11 TNTH  09020IMCT  S5 PTB  00004                    0230 SR        000000000000 DENSO TEN (THAILAND)17052RL0041041190J94L0048048                                                                                                                *          20190109 IMCT                IMCT                                                                                                                    WMF1901095.TXT
MDEDK1222304201901                D89828070100PV1D20190113000060SPEAKER ASM                   M IMCTM S5MB11 TNTH  09020IMCT  S5 PTB  00004                    0400 SR        000000000000 DENSO TEN (THAILAND)190F84L0031031190H47L0001001                                                                                                                *          20190109 IMCT                IMCT                                                                                                                    WMF1901095.TXT
MDEDK1222305201901                D89828070100PV1D20190114000030SPEAKER ASM                   M IMCTM S5MB11 TNTH  09020IMCT  S5 PTB  00004                    0830 SR        000000000000 DENSO TEN (THAILAND)190F84L0032032                                                                                                                              *          20190109 IMCT                IMCT                                                                                                                    WMF1901095.TXT
MDEDK1222306201901                D89828070100PV1D20190114000030SPEAKER ASM                   M IMCTM S5MB11 TNTH  09020IMCT  S5 PTB  00004                    1300 SR        000000000000 DENSO TEN (THAILAND)190J91L0010010                                                                                                                              *          20190109 IMCT                IMCT                                                                                                                    WMF1901095.TXT
MDEDK1222307201901                D89828070100PV1D20190114000060SPEAKER ASM                   M IMCTM S5MB11 TNTH  09020IMCT  S5 PTB  00004                    1600 SR        000000000000 DENSO TEN (THAILAND)190F41L0001001190J92L0004004                                                                                                                *          20190109 IMCT                IMCT                                                                                                                    WMF1901095.TXT
MDEDK1222308201901                D89828070100PV1D20190114000030SPEAKER ASM                   M IMCTM S5MB11 TNTH  09020IMCT  S5 PTB  00004                    2100 SR        000000000000 DENSO TEN (THAILAND)190J92L0005005                                                                                                                              *          20190109 IMCT                IMCT                                                                                                                    WMF1901095.TXT
MDEDK1222309201901                D89828070100PV4D20190112000030SPEAKER ASM                   M IMCTM S0FL05 TNTH  09020IMCT  S0 PTB  00004                    2230 SR        000000000000 DENSO TEN (THAILAND)190J08U0002002                                                                                                                              *          20190109 IMCT                IMCT                                                                                                                    WMF1901095.TXT
MDEDK1222310201901                D89828070100PV4D20190113000030SPEAKER ASM                   M IMCTM S0FL05 TNTH  09020IMCT  S0 PTB  00004                    0400 SR        000000000000 DENSO TEN (THAILAND)190K21U0001001                                                                                                                              *          20190109 IMCT                IMCT                                                                                                                    WMF1901095.TXT
MDEDK1222311201901                D89828070100PV4D20190114000030SPEAKER ASM                   M IMCTM S0FL05 TNTH  09020IMCT  S0 PTB  00004                    0830 SR        000000000000 DENSO TEN (THAILAND)190J14U0001001                                                                                                                              *          20190109 IMCT                IMCT                                                                                                                    WMF1901095.TXT
MDEDK1222312201901                D89828070100PV4D20190114000090SPEAKER ASM                   M IMCTM S0FL05 TNTH  09020IMCT  S0 PTB  00004                    1300 SR        000000000000 DENSO TEN (THAILAND)190D39U0001001190J14U0002002190J32U0001001                                                                                                  *          20190109 IMCT                IMCT                                                                                                                    WMF1901095.TXT
MDEDK1222313201901                D89828070100PV4D20190114000030SPEAKER ASM                   M IMCTM S0FL05 TNTH  09020IMCT  S0 PTB  00004                    2100 SR        000000000000 DENSO TEN (THAILAND)190K21U0002002                                                                                                                              *          20190109 IMCT                IMCT                                                                                                                    WMF1901095.TXT
MDEDK1222314201901                D89828070100PV4D20190114000030SPEAKER ASM                   M IMCTM S0FL05 TNTH  09020IMCT  S0 PTB  00004                    2230 SR        000000000000 DENSO TEN (THAILAND)190H82U0001001                                                                                                                              *          20190109 IMCT                IMCT                                                                                                                    WMF1901095.TXT
MDEDK1222315201901                D89828070200PV1D20190114000030SPEAKER ASM                   M IMCTM S5MA14 TNTH  09020IMCT  S5 PTB  00005                    1600 SR        000000000000 DENSO TEN (THAILAND)190F41L0001001                                                                                                                              *          20190109 IMCT                IMCT                                                                                                                    WMF1901095.TXT
MDEDK1222316201901                D89828070200PV4D20190112000030SPEAKER ASM                   M IMCTM S0FR05 TNTH  09020IMCT  S0 PTB  00005                    2230 SR        000000000000 DENSO TEN (THAILAND)190J08U0002002                                                                                                                              *          20190109 IMCT                IMCT                                                                                                                    WMF1901095.TXT
MDEDK1222317201901                D89828070200PV4D20190113000030SPEAKER ASM                   M IMCTM S0FR05 TNTH  09020IMCT  S0 PTB  00005                    0400 SR        000000000000 DENSO TEN (THAILAND)190K21U0001001                                                                                                                              *          20190109 IMCT                IMCT                                                                                                                    WMF1901095.TXT
MDEDK1222318201901                D89828070200PV4D20190114000030SPEAKER ASM                   M IMCTM S0FR05 TNTH  09020IMCT  S0 PTB  00005                    0830 SR        000000000000 DENSO TEN (THAILAND)190J14U0001001                                                                                                                              *          20190109 IMCT                IMCT                                                                                                                    WMF1901095.TXT
MDEDK1222319201901                D89828070200PV4D20190114000060SPEAKER ASM                   M IMCTM S0FR05 TNTH  09020IMCT  S0 PTB  00005                    1300 SR        000000000000 DENSO TEN (THAILAND)190D39U0001001190J14U0002002                                                                                                                *          20190109 IMCT                IMCT                                                                                                                    WMF1901095.TXT
MDEDK1222320201901                D89828070200PV4D20190114000030SPEAKER ASM                   M IMCTM S0FR05 TNTH  09020IMCT  S0 PTB  00005                    2100 SR        000000000000 DENSO TEN (THAILAND)190K21U0002002                                                                                                                              *          20190109 IMCT                IMCT                                                                                                                    WMF1901095.TXT
MDEDK1222321201901                D89828070300PT1D20190114000060SPEAKER ASM                   M IMCTM S5NB082TNTH  09020IMCT  S5 PTB  00015                    1600 SR        000000000000 DENSO TEN (THAILAND)190F41L0001001190J92L0004004                                                                                                                *          20190109 IMCT                IMCT                                                                                                                    WMF1901095.TXT
MDEDK1222322201901                D89828070300PT1D20190114000030SPEAKER ASM                   M IMCTM S5NB082TNTH  09020IMCT  S5 PTB  00015                    2100 SR        000000000000 DENSO TEN (THAILAND)190J92L0005005                                                                                                                              *          20190109 IMCT                IMCT                                                                                                                    WMF1901095.TXT
MDEDK1222323201901                D89828070300PT4D20190112000030SPEAKER ASM                   M IMCTM S9TS02 TNTH  09020IMCT  S9 PTB  00015                    2230 SR        000000000000 DENSO TEN (THAILAND)190J08U0002002                                                                                                                              *          20190109 IMCT                IMCT                                                                                                                    WMF1901095.TXT
MDEDK1222324201901                D89828070300PT4D20190113000030SPEAKER ASM                   M IMCTM S9TS02 TNTH  09020IMCT  S9 PTB  00015                    0400 SR        000000000000 DENSO TEN (THAILAND)190K21U0001001                                                                                                                              *          20190109 IMCT                IMCT                                                                                                                    WMF1901095.TXT
MDEDK1222325201901                D89828070300PT4D20190114000030SPEAKER ASM                   M IMCTM S9TS02 TNTH  09020IMCT  S9 PTB  00015                    0830 SR        000000000000 DENSO TEN (THAILAND)190J14U0001001                                                                                                                              *          20190109 IMCT                IMCT                                                                                                                    WMF1901095.TXT
MDEDK1222326201901                D89828070300PT4D20190114000090SPEAKER ASM                   M IMCTM S9TS02 TNTH  09020IMCT  S9 PTB  00015                    1300 SR        000000000000 DENSO TEN (THAILAND)190D39U0001001190J14U0002002190J32U0001001                                                                                                  *          20190109 IMCT                IMCT                                                                                                                    WMF1901095.TXT
MDEDK1222327201901                D89828070300PT4D20190114000030SPEAKER ASM                   M IMCTM S9TS02 TNTH  09020IMCT  S9 PTB  00015                    2100 SR        000000000000 DENSO TEN (THAILAND)190K21U0002002                                                                                                                              *          20190109 IMCT                IMCT                                                                                                                    WMF1901095.TXT
MDEDK1222328201901                D89828070300PT4D20190114000030SPEAKER ASM                   M IMCTM S9TS02 TNTH  09020IMCT  S9 PTB  00015                    2230 SR        000000000000 DENSO TEN (THAILAND)190H82U0001001                                                                                                                              *          20190109 IMCT                IMCT                                                                                                                    WMF1901095.TXT
MDEDK1222329201901                D89831229010PT1D20190114000015RADIO;AM/FM,CD                M IMCTM S5NC06 TNTH  09020IMCT  S5 PTB  00003                    1600 SR        000000000000 DENSO TEN (THAILAND)190F41L0001001                                                                                                                              *          20190109 IMCT                IMCT                                                                                                                    WMF1901095.TXT
MDEDK1222330201901                D89831229200PT1D20190114000015RADIO;AM/FM,CD                M IMCTM S5NC06 TNTH  09020IMCT  S5 PTB  00003                    1600 SR        000000000000 DENSO TEN (THAILAND)190J92L0004004                                                                                                                              *          20190109 IMCT                IMCT                                                                                                                    WMF1901095.TXT
MDEDK1222331201901                D89831229200PT1D20190114000015RADIO;AM/FM,CD                M IMCTM S5NC06 TNTH  09020IMCT  S5 PTB  00003                    2100 SR        000000000000 DENSO TEN (THAILAND)190J92L0005005                                                                                                                              *          20190109 IMCT                IMCT                                                                                                                    WMF1901095.TXT
MDEDK1222332201901                D89838031200PT4D20190113000015RADIO;ASM DVD                 M IMCTM S9CO001TNTH  09020IMCT  S9 PTB  00003                    0400 SR        000000000000 DENSO TEN (THAILAND)190K21U0001001                                                                                                                              *          20190109 IMCT                IMCT                                                                                                                    WMF1901095.TXT
MDEDK1222333201901                D89838031200PT4D20190114000015RADIO;ASM DVD                 M IMCTM S9CO001TNTH  09020IMCT  S9 PTB  00003                    2100 SR        000000000000 DENSO TEN (THAILAND)190K21U0002002                                                                                                                              *          20190109 IMCT                IMCT                                                                                                                    WMF1901095.TXT
MDEDK1222334201901                D89848582100PT4D20190114000015RADIO;AM/FM CD D              M IMCTM S9CO001TNTH  09020IMCT  S9 PTB  00003                    0830 SR        000000000000 DENSO TEN (THAILAND)190J14U0001001                                                                                                                              *          20190109 IMCT                IMCT                                                                                                                    WMF1901095.TXT
MDEDK1222335201901                D89848582100PT4D20190114000015RADIO;AM/FM CD D              M IMCTM S9CO001TNTH  09020IMCT  S9 PTB  00003                    1300 SR        000000000000 DENSO TEN (THAILAND)190J14U0002002                                                                                                                              *          20190109 IMCT                IMCT                                                                                                                    WMF1901095.TXT
