REC2018122020181220ISUZU                              19     
MAKK8D065105201812D1               89825451200P3YK20190107000060SPEAKER ASM;ROOF              M IMCTM CM1    TNTH  09020IMKDC KA PTB  00036  K0                0911DES        000000000000 DENSO TEN (THAILAND)                                                                                                                                            *G         20181220 IMCT                IMCT                                                                                                                    WMF1812207.TXT
MAKK8D065106201812D1               89825451200P3YK20190108000060SPEAKER ASM;ROOF              M IMCTM CM1    TNTH  09020IMKDC KA PTB  00036  K0                0911DES        000000000000 DENSO TEN (THAILAND)                                                                                                                                            *G         20181220 IMCT                IMCT                                                                                                                    WMF1812207.TXT
MAKK8D065107201812D1               89825451200P3YK20190109000030SPEAKER ASM;ROOF              M IMCTM CM1    TNTH  09020IMKDC KA PTB  00036  K0                0911DES        000000000000 DENSO TEN (THAILAND)                                                                                                                                            *G         20181220 IMCT                IMCT                                                                                                                    WMF1812207.TXT
MAKK8D065108201812D1               89825451200P3YK20190111000060SPEAKER ASM;ROOF              M IMCTM CM1    TNTH  09020IMKDC KA PTB  00036  K0                0911DES        000000000000 DENSO TEN (THAILAND)                                                                                                                                            *G         20181220 IMCT                IMCT                                                                                                                    WMF1812207.TXT
MAKK8D065109201812D1               89828070100P3YK20190107000090SPEAKER ASM                   M IMCTM CM1    TNTH  09020IMKDC KA PTB  00004  K0                0911DES        000000000000 DENSO TEN (THAILAND)                                                                                                                                            *G         20181220 IMCT                IMCT                                                                                                                    WMF1812207.TXT
MAKK8D065110201812D1               89828070100P3YK20190108000180SPEAKER ASM                   M IMCTM CM1    TNTH  09020IMKDC KA PTB  00004  K0                0911DES        000000000000 DENSO TEN (THAILAND)                                                                                                                                            *G         20181220 IMCT                IMCT                                                                                                                    WMF1812207.TXT
MAKK8D065111201812D1               89828070100P3YK20190109000210SPEAKER ASM                   M IMCTM CM1    TNTH  09020IMKDC KA PTB  00004  K0                0911DES        000000000000 DENSO TEN (THAILAND)                                                                                                                                            *G         20181220 IMCT                IMCT                                                                                                                    WMF1812207.TXT
MAKK8D065112201812D1               89828070100P3YK20190110000120SPEAKER ASM                   M IMCTM CM1    TNTH  09020IMKDC KA PTB  00004  K0                0911DES        000000000000 DENSO TEN (THAILAND)                                                                                                                                            *G         20181220 IMCT                IMCT                                                                                                                    WMF1812207.TXT
MAKK8D065113201812D1               89828070100P3YK20190111000210SPEAKER ASM                   M IMCTM CM1    TNTH  09020IMKDC KA PTB  00004  K0                0911DES        000000000000 DENSO TEN (THAILAND)                                                                                                                                            *G         20181220 IMCT                IMCT                                                                                                                    WMF1812207.TXT
MAKK8D065114201812D1               89828070200P3YK20190107000030SPEAKER ASM                   M IMCTM CM1    TNTH  09020IMKDC KA PTB  00005  K0                0911DES        000000000000 DENSO TEN (THAILAND)                                                                                                                                            *G         20181220 IMCT                IMCT                                                                                                                    WMF1812207.TXT
MAKK8D065115201812D1               89828070200P3YK20190108000030SPEAKER ASM                   M IMCTM CM1    TNTH  09020IMKDC KA PTB  00005  K0                0911DES        000000000000 DENSO TEN (THAILAND)                                                                                                                                            *G         20181220 IMCT                IMCT                                                                                                                    WMF1812207.TXT
MAKK8D065116201812D1               89828070200P3YK20190109000150SPEAKER ASM                   M IMCTM CM1    TNTH  09020IMKDC KA PTB  00005  K0                0911DES        000000000000 DENSO TEN (THAILAND)                                                                                                                                            *G         20181220 IMCT                IMCT                                                                                                                    WMF1812207.TXT
MAKK8D065117201812D1               89828070200P3YK20190110000090SPEAKER ASM                   M IMCTM CM1    TNTH  09020IMKDC KA PTB  00005  K0                0911DES        000000000000 DENSO TEN (THAILAND)                                                                                                                                            *G         20181220 IMCT                IMCT                                                                                                                    WMF1812207.TXT
MAKK8D065118201812D1               89828070200P3YK20190111000090SPEAKER ASM                   M IMCTM CM1    TNTH  09020IMKDC KA PTB  00005  K0                0911DES        000000000000 DENSO TEN (THAILAND)                                                                                                                                            *G         20181220 IMCT                IMCT                                                                                                                    WMF1812207.TXT
MAKK8D065119201812D1               89828070300P3YK20190107000030SPEAKER ASM                   M IMCTM CM1    TNTH  09020IMKDC KA PTB  00015  K0                0911DES        000000000000 DENSO TEN (THAILAND)                                                                                                                                            *G         20181220 IMCT                IMCT                                                                                                                    WMF1812207.TXT
MAKK8D065120201812D1               89828070300P3YK20190108000060SPEAKER ASM                   M IMCTM CM1    TNTH  09020IMKDC KA PTB  00015  K0                0911DES        000000000000 DENSO TEN (THAILAND)                                                                                                                                            *G         20181220 IMCT                IMCT                                                                                                                    WMF1812207.TXT
MAKK8D065121201812D1               89828070300P3YK20190109000150SPEAKER ASM                   M IMCTM CM1    TNTH  09020IMKDC KA PTB  00015  K0                0911DES        000000000000 DENSO TEN (THAILAND)                                                                                                                                            *G         20181220 IMCT                IMCT                                                                                                                    WMF1812207.TXT
MAKK8D065122201812D1               89828070300P3YK20190110000090SPEAKER ASM                   M IMCTM CM1    TNTH  09020IMKDC KA PTB  00015  K0                0911DES        000000000000 DENSO TEN (THAILAND)                                                                                                                                            *G         20181220 IMCT                IMCT                                                                                                                    WMF1812207.TXT
MAKK8D065123201812D1               89828070300P3YK20190111000120SPEAKER ASM                   M IMCTM CM1    TNTH  09020IMKDC KA PTB  00015  K0                0911DES        000000000000 DENSO TEN (THAILAND)                                                                                                                                            *G         20181220 IMCT                IMCT                                                                                                                    WMF1812207.TXT
