REC2019012120190121ISUZU                              9      
MDEFK1T17172201901                D89750126100PT4F20190124000002RADIO;AM/FM CD D              M IMCTM S7TS01 TNTH  09020IMCT  S7 PTB  00003                    2230 SR        000000000000 DENSO TEN (THAILAND)190D09R0004   190D09R0005   D190105714    D190105715    000000                                                                              *R         20190121 IMCT                IMCT                                                                                                                    RMF1901215.TXT
MDEFK1T17173201901                D89828070100PV4F20190125000030SPEAKER ASM                   M IMCTM S7FL05 TNTH  09020IMCT  S7 PTB  00004                    1600 SR        000000000000 DENSO TEN (THAILAND)190H02R0001   190D31R0003   S190105901    S190105915    000000                                                                              *R         20190121 IMCT                IMCT                                                                                                                    RMF1901215.TXT
MDEFK1T17174201901                D89828070200PV4F20190125000030SPEAKER ASM                   M IMCTM S7FL05 TNTH  09020IMCT  S7 PTB  00005                    1030 SR        000000000000 DENSO TEN (THAILAND)180J63R0015   180J63R0018   D190105801    D190105815    000000                                                                              *R         20190121 IMCT                IMCT                                                                                                                    RMF1901215.TXT
MDEFK1T17175201901                D89828070300PT4F20190125000025SPEAKER ASM                   M IMCTM S7TS02 TNTH  09020IMCT  S7 PTB  00015                    1030 SR        000000000000 DENSO TEN (THAILAND)190D24R0011   180J63R0018   D190105803    D190105815    000000                                                                              *R         20190121 IMCT                IMCT                                                                                                                    RMF1901215.TXT
MDEFK1T17176201901                D89831229010PT4F20190125000001RADIO;AM/FM,CD                M IMCTM S7TS01 TNTH  09020IMCT  S7 PTB  00003                    1030 SR        000000000000 DENSO TEN (THAILAND)190K67R0001   190K67R0001   D190105813    D190105813    000000                                                                              *R         20190121 IMCT                IMCT                                                                                                                    RMF1901215.TXT
MDEFK1257354201901                D89828070100PV4F20190124000032SPEAKER ASM                   M IMCTM S7FL05 TNTH  09020IMCT  S7 PTB  00004                    2230 SR        000000000000 DENSO TEN (THAILAND)180J63R0013   180J63R0015   D190105701    D190105801    000000                                                                              *R         20190121 IMCT                IMCT                                                                                                                    RMF1901215.TXT
MDEFK1257355201901                D89828070100PV4F20190125000028SPEAKER ASM                   M IMCTM S7FL05 TNTH  09020IMCT  S7 PTB  00004                    1030 SR        000000000000 DENSO TEN (THAILAND)180J63R0016   180J63R0018   D190105802    D190105815    000000                                                                              *R         20190121 IMCT                IMCT                                                                                                                    RMF1901215.TXT
MDEFK1257356201901                D89828070200PV4F20190124000010SPEAKER ASM                   M IMCTM S7FL05 TNTH  09020IMCT  S7 PTB  00005                    2230 SR        000000000000 DENSO TEN (THAILAND)180J63R0013   190D09R0005   D190105701    D190105715    000000                                                                              *R         20190121 IMCT                IMCT                                                                                                                    RMF1901215.TXT
MDEFK1257357201901                D89828070300PT4F20190124000015SPEAKER ASM                   M IMCTM S7TS02 TNTH  09020IMCT  S7 PTB  00015                    2230 SR        000000000000 DENSO TEN (THAILAND)180J63R0013   190D24R0011   D190105701    D190105803    000000                                                                              *R         20190121 IMCT                IMCT                                                                                                                    RMF1901215.TXT
