REC2019013020190130ISUZU                              29     
MDD6K1306224201902                D89821984430PT5620190204000030RADIO;AM/FM,CD                M IMCTM G9J213 TNTH  09020G/WAY G9 PTB  00005                    2300 GW        0000000000005DENSO TEN (THAILAND)190MRAG0072072                                                                                                                              *          20190130 IMCT                IMCT                                                                                                                    WMF1901302.TXT
MDD6K1306225201902                D89828070100PV5620190204000060SPEAKER ASM                   M IMCTM G9B114 TNTH  09020G/WAY G9 PTB  00004                    1530 GW        0000000000005DENSO TEN (THAILAND)190MRXG0002002                                                                                                                              *          20190130 IMCT                IMCT                                                                                                                    WMF1901302.TXT
MDD6K1306226201902                D89828070100PV5620190204000060SPEAKER ASM                   M IMCTM G9B114 TNTH  09020G/WAY G9 PTB  00004                    2100 GW        0000000000005DENSO TEN (THAILAND)190MPGG0103103                                                                                                                              *          20190130 IMCT                IMCT                                                                                                                    WMF1901302.TXT
MDD6K1306227201902                D89828070100PV5620190204000120SPEAKER ASM                   M IMCTM G9B114 TNTH  09020G/WAY G9 PTB  00004                    2300 GW        0000000000005DENSO TEN (THAILAND)190MRAG0072072190MRYG0003003                                                                                                                *          20190130 IMCT                IMCT                                                                                                                    WMF1901302.TXT
MDD6K1306228201902                D89828070100PV5620190205000060SPEAKER ASM                   M IMCTM G9B114 TNTH  09020G/WAY G9 PTB  00004                    0200 GW        0000000000005DENSO TEN (THAILAND)190MRYG0004004                                                                                                                              *          20190130 IMCT                IMCT                                                                                                                    WMF1901302.TXT
MDD6K1306229201902                D89828070100PV5620190205000060SPEAKER ASM                   M IMCTM G9B114 TNTH  09020G/WAY G9 PTB  00004                    0330 GW        0000000000005DENSO TEN (THAILAND)190MPCG0030030                                                                                                                              *          20190130 IMCT                IMCT                                                                                                                    WMF1901302.TXT
MDD6K1306230201902                D89828070100PV5620190205000060SPEAKER ASM                   M IMCTM G9B114 TNTH  09020G/WAY G9 PTB  00004                    0900 GW        0000000000005DENSO TEN (THAILAND)190MRXG0003003                                                                                                                              *          20190130 IMCT                IMCT                                                                                                                    WMF1901302.TXT
MDD6K1306231201902                D89828070100PV5620190205000060SPEAKER ASM                   M IMCTM G9B114 TNTH  09020G/WAY G9 PTB  00004                    1100 GW        0000000000005DENSO TEN (THAILAND)190MRDG0042042                                                                                                                              *          20190130 IMCT                IMCT                                                                                                                    WMF1901302.TXT
MDD6K1306232201902                D89828070100PV5620190205000060SPEAKER ASM                   M IMCTM G9B114 TNTH  09020G/WAY G9 PTB  00004                    1400 GW        0000000000005DENSO TEN (THAILAND)190MRXG0004004                                                                                                                              *          20190130 IMCT                IMCT                                                                                                                    WMF1901302.TXT
MDD6K1306233201902                D89828070100PV5620190205000060SPEAKER ASM                   M IMCTM G9B114 TNTH  09020G/WAY G9 PTB  00004                    1530 GW        0000000000005DENSO TEN (THAILAND)190MPGG0104104                                                                                                                              *          20190130 IMCT                IMCT                                                                                                                    WMF1901302.TXT
MDD6K1306234201902                D89828070200PV5620190204000060SPEAKER ASM                   M IMCTM G6F132 TNTH  09020G/WAY G6 PTB  00005                    1530 GW        0000000000005DENSO TEN (THAILAND)190MRXG0002002                                                                                                                              *          20190130 IMCT                IMCT                                                                                                                    WMF1901302.TXT
MDD6K1306235201902                D89828070200PV5620190204000060SPEAKER ASM                   M IMCTM G6F132 TNTH  09020G/WAY G6 PTB  00005                    2300 GW        0000000000005DENSO TEN (THAILAND)190MRYG0003003                                                                                                                              *          20190130 IMCT                IMCT                                                                                                                    WMF1901302.TXT
MDD6K1306236201902                D89828070200PV5620190205000060SPEAKER ASM                   M IMCTM G6F132 TNTH  09020G/WAY G6 PTB  00005                    0200 GW        0000000000005DENSO TEN (THAILAND)190MRYG0004004                                                                                                                              *          20190130 IMCT                IMCT                                                                                                                    WMF1901302.TXT
MDD6K1306237201902                D89828070200PV5620190205000060SPEAKER ASM                   M IMCTM G6F132 TNTH  09020G/WAY G6 PTB  00005                    0900 GW        0000000000005DENSO TEN (THAILAND)190MRXG0003003                                                                                                                              *          20190130 IMCT                IMCT                                                                                                                    WMF1901302.TXT
MDD6K1306238201902                D89828070200PV5620190205000060SPEAKER ASM                   M IMCTM G6F132 TNTH  09020G/WAY G6 PTB  00005                    1100 GW        0000000000005DENSO TEN (THAILAND)190MRDG0042042                                                                                                                              *          20190130 IMCT                IMCT                                                                                                                    WMF1901302.TXT
MDD6K1306239201902                D89828070200PV5620190205000060SPEAKER ASM                   M IMCTM G6F132 TNTH  09020G/WAY G6 PTB  00005                    1400 GW        0000000000005DENSO TEN (THAILAND)190MRXG0004004                                                                                                                              *          20190130 IMCT                IMCT                                                                                                                    WMF1901302.TXT
MDD6K1306240201902                D89828070300PT5620190204000060SPEAKER ASM                   M IMCTM G9JA33 TNTH  09020G/WAY G9 PTB  00015                    1530 GW        0000000000005DENSO TEN (THAILAND)190MRXG0002002                                                                                                                              *          20190130 IMCT                IMCT                                                                                                                    WMF1901302.TXT
MDD6K1306241201902                D89828070300PT5620190204000060SPEAKER ASM                   M IMCTM G9JA33 TNTH  09020G/WAY G9 PTB  00015                    2100 GW        0000000000005DENSO TEN (THAILAND)190MPGG0103103                                                                                                                              *          20190130 IMCT                IMCT                                                                                                                    WMF1901302.TXT
MDD6K1306242201902                D89828070300PT5620190204000060SPEAKER ASM                   M IMCTM G9JA33 TNTH  09020G/WAY G9 PTB  00015                    2300 GW        0000000000005DENSO TEN (THAILAND)190MRYG0003003                                                                                                                              *          20190130 IMCT                IMCT                                                                                                                    WMF1901302.TXT
MDD6K1306243201902                D89828070300PT5620190205000060SPEAKER ASM                   M IMCTM G9JA33 TNTH  09020G/WAY G9 PTB  00015                    0200 GW        0000000000005DENSO TEN (THAILAND)190MRYG0004004                                                                                                                              *          20190130 IMCT                IMCT                                                                                                                    WMF1901302.TXT
MDD6K1306244201902                D89828070300PT5620190205000060SPEAKER ASM                   M IMCTM G9JA33 TNTH  09020G/WAY G9 PTB  00015                    0330 GW        0000000000005DENSO TEN (THAILAND)190MPCG0030030                                                                                                                              *          20190130 IMCT                IMCT                                                                                                                    WMF1901302.TXT
MDD6K1306245201902                D89828070300PT5620190205000060SPEAKER ASM                   M IMCTM G9JA33 TNTH  09020G/WAY G9 PTB  00015                    0900 GW        0000000000005DENSO TEN (THAILAND)190MRXG0003003                                                                                                                              *          20190130 IMCT                IMCT                                                                                                                    WMF1901302.TXT
MDD6K1306246201902                D89828070300PT5620190205000060SPEAKER ASM                   M IMCTM G9JA33 TNTH  09020G/WAY G9 PTB  00015                    1100 GW        0000000000005DENSO TEN (THAILAND)190MRDG0042042                                                                                                                              *          20190130 IMCT                IMCT                                                                                                                    WMF1901302.TXT
MDD6K1306247201902                D89828070300PT5620190205000060SPEAKER ASM                   M IMCTM G9JA33 TNTH  09020G/WAY G9 PTB  00015                    1400 GW        0000000000005DENSO TEN (THAILAND)190MRXG0004004                                                                                                                              *          20190130 IMCT                IMCT                                                                                                                    WMF1901302.TXT
MDD6K1306248201902                D89828070300PT5620190205000060SPEAKER ASM                   M IMCTM G9JA33 TNTH  09020G/WAY G9 PTB  00015                    1530 GW        0000000000005DENSO TEN (THAILAND)190MPGG0104104                                                                                                                              *          20190130 IMCT                IMCT                                                                                                                    WMF1901302.TXT
MDD6K1306249201902                D89831228300PT5620190204000030RADIO;AM/FM,CD                M IMCTM G9J213 TNTH  09020G/WAY G9 CPB  00003                    2100 GW        0000000000005DENSO TEN (THAILAND)190MPGG0103103                                                                                                                              *          20190130 IMCT                IMCT                                                                                                                    WMF1901302.TXT
MDD6K1306250201902                D89831228300PT5620190205000030RADIO;AM/FM,CD                M IMCTM G9J213 TNTH  09020G/WAY G9 CPB  00003                    0330 GW        0000000000005DENSO TEN (THAILAND)190MPCG0030030                                                                                                                              *          20190130 IMCT                IMCT                                                                                                                    WMF1901302.TXT
MDD6K1306251201902                D89831228300PT5620190205000030RADIO;AM/FM,CD                M IMCTM G9J213 TNTH  09020G/WAY G9 CPB  00003                    1530 GW        0000000000005DENSO TEN (THAILAND)190MPGG0104104                                                                                                                              *          20190130 IMCT                IMCT                                                                                                                    WMF1901302.TXT
MDD6K1306252201902                D89831228400PT5620190205000030RADIO;AM/FM,CD                M IMCTM G9J213 TNTH  09020G/WAY G9 CPB  00003                    1100 GW        0000000000005DENSO TEN (THAILAND)190MRDG0042042                                                                                                                              *          20190130 IMCT                IMCT                                                                                                                    WMF1901302.TXT
