REC2019011720190117ISUZU                              54     
MDDDK1260256201901                D89821984430PT1D20190122000030RADIO;AM/FM,CD                M IMCTM S5NC06 TNTH  09020IMCT  S5 PTB  00005                    1030 SR        000000000000 DENSO TEN (THAILAND)190MRBL0022022                                                                                                                              *          20190117 IMCT                IMCT                                                                                                                    WMF1901177.TXT
MDDDK1260257201901                D89821984430PT1D20190122000030RADIO;AM/FM,CD                M IMCTM S5NC06 TNTH  09020IMCT  S5 PTB  00005                    1300 SR        000000000000 DENSO TEN (THAILAND)190MRAL0060060                                                                                                                              *          20190117 IMCT                IMCT                                                                                                                    WMF1901177.TXT
MDDDK1260258201901                D89821984430PT1D20190122000060RADIO;AM/FM,CD                M IMCTM S5NC06 TNTH  09020IMCT  S5 PTB  00005                    1600 SR        000000000000 DENSO TEN (THAILAND)190MRAL0061061190MYBL0016016                                                                                                                *          20190117 IMCT                IMCT                                                                                                                    WMF1901177.TXT
MDDDK1260259201901                D89828070100PV1D20190122000060SPEAKER ASM                   M IMCTM S5MB11 TNTH  09020IMCT  S5 PTB  00004                    0830 SR        000000000000 DENSO TEN (THAILAND)190MPGL0104104                                                                                                                              *          20190117 IMCT                IMCT                                                                                                                    WMF1901177.TXT
MDDDK1260260201901                D89828070100PV1D20190122000060SPEAKER ASM                   M IMCTM S5MB11 TNTH  09020IMCT  S5 PTB  00004                    1030 SR        000000000000 DENSO TEN (THAILAND)190MRBL0022022                                                                                                                              *          20190117 IMCT                IMCT                                                                                                                    WMF1901177.TXT
MDDDK1260261201901                D89828070100PV1D20190122000120SPEAKER ASM                   M IMCTM S5MB11 TNTH  09020IMCT  S5 PTB  00004                    1300 SR        000000000000 DENSO TEN (THAILAND)190MPKL0021021190MRAL0060060                                                                                                                *          20190117 IMCT                IMCT                                                                                                                    WMF1901177.TXT
MDDDK1260262201901                D89828070100PV1D20190122000180SPEAKER ASM                   M IMCTM S5MB11 TNTH  09020IMCT  S5 PTB  00004                    1600 SR        000000000000 DENSO TEN (THAILAND)190MPGL0105105190MRAL0061061190MYBL0016016                                                                                                  *          20190117 IMCT                IMCT                                                                                                                    WMF1901177.TXT
MDDDK1260263201901                D89828070100PV1D20190122000060SPEAKER ASM                   M IMCTM S5MB11 TNTH  09020IMCT  S5 PTB  00004                    2100 SR        000000000000 DENSO TEN (THAILAND)190MXAL0026026                                                                                                                              *          20190117 IMCT                IMCT                                                                                                                    WMF1901177.TXT
MDDDK1260264201901                D89828070100PV4D20190122000060SPEAKER ASM                   M IMCTM S0FL05 TNTH  09020IMCT  S0 PTB  00004                    0830 SR        000000000000 DENSO TEN (THAILAND)190MREU0023023                                                                                                                              *          20190117 IMCT                IMCT                                                                                                                    WMF1901177.TXT
MDDDK1260265201901                D89828070200PV4D20190122000060SPEAKER ASM                   M IMCTM S0FR05 TNTH  09020IMCT  S0 PTB  00005                    0830 SR        000000000000 DENSO TEN (THAILAND)190MREU0023023                                                                                                                              *          20190117 IMCT                IMCT                                                                                                                    WMF1901177.TXT
MDDDK1260266201901                D89828070300PT1D20190122000060SPEAKER ASM                   M IMCTM S5NB082TNTH  09020IMCT  S5 PTB  00015                    0830 SR        000000000000 DENSO TEN (THAILAND)190MPGL0104104                                                                                                                              *          20190117 IMCT                IMCT                                                                                                                    WMF1901177.TXT
MDDDK1260267201901                D89828070300PT1D20190122000060SPEAKER ASM                   M IMCTM S5NB082TNTH  09020IMCT  S5 PTB  00015                    1300 SR        000000000000 DENSO TEN (THAILAND)190MPKL0021021                                                                                                                              *          20190117 IMCT                IMCT                                                                                                                    WMF1901177.TXT
MDDDK1260268201901                D89828070300PT1D20190122000060SPEAKER ASM                   M IMCTM S5NB082TNTH  09020IMCT  S5 PTB  00015                    1600 SR        000000000000 DENSO TEN (THAILAND)190MPGL0105105                                                                                                                              *          20190117 IMCT                IMCT                                                                                                                    WMF1901177.TXT
MDDDK1260269201901                D89828070300PT4D20190122000060SPEAKER ASM                   M IMCTM S9TS02 TNTH  09020IMCT  S9 PTB  00015                    0830 SR        000000000000 DENSO TEN (THAILAND)190MREU0023023                                                                                                                              *          20190117 IMCT                IMCT                                                                                                                    WMF1901177.TXT
MDDDK1260270201901                D89831228300PT1D20190122000030RADIO;AM/FM,CD                M IMCTM S5NC06 TNTH  09020IMCT  S5 CPB  00003                    0830 SR        000000000000 DENSO TEN (THAILAND)190MPGL0104104                                                                                                                              *          20190117 IMCT                IMCT                                                                                                                    WMF1901177.TXT
MDDDK1260271201901                D89831228300PT1D20190122000030RADIO;AM/FM,CD                M IMCTM S5NC06 TNTH  09020IMCT  S5 CPB  00003                    1600 SR        000000000000 DENSO TEN (THAILAND)190MPGL0105105                                                                                                                              *          20190117 IMCT                IMCT                                                                                                                    WMF1901177.TXT
MDDDK1260272201901                D89831228400PT4D20190122000030RADIO;AM/FM,CD                M IMCTM S9CO001TNTH  09020IMCT  S9 CPB  00003                    0830 SR        000000000000 DENSO TEN (THAILAND)190MREU0023023                                                                                                                              *          20190117 IMCT                IMCT                                                                                                                    WMF1901177.TXT
MDDDK1260273201901                D89848581600PT1D20190122000030RADIO;AM/FM CD D              M IMCTM S5NC06 TNTH  09020IMCT  S5 PTB  00003                    1300 SR        000000000000 DENSO TEN (THAILAND)190MPKL0021021                                                                                                                              *          20190117 IMCT                IMCT                                                                                                                    WMF1901177.TXT
MDDUK1208244201901                D89828070100PT4U20190122000030SPEAKER ASM                   M IMCTM S0FL05 TNTH  09020IMCT  S0 PTB  00004                    0400 SR        000000000000 DENSO TEN (THAILAND)190MUHU0001001                                                                                                                              *          20190117 IMCT                IMCT                                                                                                                    WMF1901177.TXT
MDDUK1208245201901                D89828070200PV4U20190122000030SPEAKER ASM                   M IMCTM S0FR05 TNTH  09020IMCT  S0 PTB  00005                    0400 SR        000000000000 DENSO TEN (THAILAND)190MUHU0001001                                                                                                                              *          20190117 IMCT                IMCT                                                                                                                    WMF1901177.TXT
MDDUK1208246201901                D89828070300PT4U20190122000030SPEAKER ASM                   M IMCTM S9TS02 TNTH  09020IMCT  S9 PTB  00015                    0400 SR        000000000000 DENSO TEN (THAILAND)190MUHU0001001                                                                                                                              *          20190117 IMCT                IMCT                                                                                                                    WMF1901177.TXT
MDEDK1279087201901                D89828070100PV1D20190122000030SPEAKER ASM                   M IMCTM S5MB11 TNTH  09020IMCT  S5 PTB  00004                    0230 SR        000000000000 DENSO TEN (THAILAND)190J94L0053053                                                                                                                              *          20190117 IMCT                IMCT                                                                                                                    WMF1901177.TXT
MDEDK1279088201901                D89828070100PV1D20190122000090SPEAKER ASM                   M IMCTM S5MB11 TNTH  09020IMCT  S5 PTB  00004                    0400 SR        000000000000 DENSO TEN (THAILAND)190H43L0003004190J94L0054054                                                                                                                *          20190117 IMCT                IMCT                                                                                                                    WMF1901177.TXT
MDEDK1279089201901                D89828070100PV1D20190122000030SPEAKER ASM                   M IMCTM S5MB11 TNTH  09020IMCT  S5 PTB  00004                    0830 SR        000000000000 DENSO TEN (THAILAND)190J85L0008008                                                                                                                              *          20190117 IMCT                IMCT                                                                                                                    WMF1901177.TXT
MDEDK1279090201901                D89828070100PV1D20190122000060SPEAKER ASM                   M IMCTM S5MB11 TNTH  09020IMCT  S5 PTB  00004                    1600 SR        000000000000 DENSO TEN (THAILAND)190F41L0002002190H66L0001001                                                                                                                *          20190117 IMCT                IMCT                                                                                                                    WMF1901177.TXT
MDEDK1279091201901                D89828070100PV4D20190121000030SPEAKER ASM                   M IMCTM S0FL05 TNTH  09020IMCT  S0 PTB  00004                    2230 SR        000000000000 DENSO TEN (THAILAND)190J05U0001001                                                                                                                              *          20190117 IMCT                IMCT                                                                                                                    WMF1901177.TXT
MDEDK1279092201901                D89828070100PV4D20190122000060SPEAKER ASM                   M IMCTM S0FL05 TNTH  09020IMCT  S0 PTB  00004                    0230 SR        000000000000 DENSO TEN (THAILAND)190F84U0025025190K21U0013013                                                                                                                *          20190117 IMCT                IMCT                                                                                                                    WMF1901177.TXT
MDEDK1279093201901                D89828070100PV4D20190122000030SPEAKER ASM                   M IMCTM S0FL05 TNTH  09020IMCT  S0 PTB  00004                    1030 SR        000000000000 DENSO TEN (THAILAND)190K21U0014014                                                                                                                              *          20190117 IMCT                IMCT                                                                                                                    WMF1901177.TXT
MDEDK1279094201901                D89828070100PV4D20190122000090SPEAKER ASM                   M IMCTM S0FL05 TNTH  09020IMCT  S0 PTB  00004                    1600 SR        000000000000 DENSO TEN (THAILAND)190G21U0001001190H29U0001001190H32U0001001                                                                                                  *          20190117 IMCT                IMCT                                                                                                                    WMF1901177.TXT
MDEDK1279095201901                D89828070100PV4D20190122000030SPEAKER ASM                   M IMCTM S0FL05 TNTH  09020IMCT  S0 PTB  00004                    2100 SR        000000000000 DENSO TEN (THAILAND)190H26U0001001                                                                                                                              *          20190117 IMCT                IMCT                                                                                                                    WMF1901177.TXT
MDEDK1279096201901                D89828070200PV1D20190122000030SPEAKER ASM                   M IMCTM S5MA14 TNTH  09020IMCT  S5 PTB  00005                    1600 SR        000000000000 DENSO TEN (THAILAND)190F41L0002002                                                                                                                              *          20190117 IMCT                IMCT                                                                                                                    WMF1901177.TXT
MDEDK1279097201901                D89828070200PV4D20190121000030SPEAKER ASM                   M IMCTM S0FR05 TNTH  09020IMCT  S0 PTB  00005                    2230 SR        000000000000 DENSO TEN (THAILAND)190J05U0001001                                                                                                                              *          20190117 IMCT                IMCT                                                                                                                    WMF1901177.TXT
MDEDK1279098201901                D89828070200PV4D20190122000030SPEAKER ASM                   M IMCTM S0FR05 TNTH  09020IMCT  S0 PTB  00005                    0230 SR        000000000000 DENSO TEN (THAILAND)190K21U0013013                                                                                                                              *          20190117 IMCT                IMCT                                                                                                                    WMF1901177.TXT
MDEDK1279099201901                D89828070200PV4D20190122000030SPEAKER ASM                   M IMCTM S0FR05 TNTH  09020IMCT  S0 PTB  00005                    1030 SR        000000000000 DENSO TEN (THAILAND)190K21U0014014                                                                                                                              *          20190117 IMCT                IMCT                                                                                                                    WMF1901177.TXT
MDEDK1279100201901                D89828070200PV4D20190122000060SPEAKER ASM                   M IMCTM S0FR05 TNTH  09020IMCT  S0 PTB  00005                    1600 SR        000000000000 DENSO TEN (THAILAND)190G21U0001001190H29U0001001                                                                                                                *          20190117 IMCT                IMCT                                                                                                                    WMF1901177.TXT
MDEDK1279101201901                D89828070200PV4D20190122000030SPEAKER ASM                   M IMCTM S0FR05 TNTH  09020IMCT  S0 PTB  00005                    2100 SR        000000000000 DENSO TEN (THAILAND)190H26U0001001                                                                                                                              *          20190117 IMCT                IMCT                                                                                                                    WMF1901177.TXT
MDEDK1279102201901                D89828070300PT1D20190122000060SPEAKER ASM                   M IMCTM S5NB082TNTH  09020IMCT  S5 PTB  00015                    1600 SR        000000000000 DENSO TEN (THAILAND)190F41L0002002190H66L0001001                                                                                                                *          20190117 IMCT                IMCT                                                                                                                    WMF1901177.TXT
MDEDK1279103201901                D89828070300PT4D20190121000030SPEAKER ASM                   M IMCTM S9TS02 TNTH  09020IMCT  S9 PTB  00015                    2230 SR        000000000000 DENSO TEN (THAILAND)190J05U0001001                                                                                                                              *          20190117 IMCT                IMCT                                                                                                                    WMF1901177.TXT
MDEDK1279104201901                D89828070300PT4D20190122000030SPEAKER ASM                   M IMCTM S9TS02 TNTH  09020IMCT  S9 PTB  00015                    0230 SR        000000000000 DENSO TEN (THAILAND)190K21U0013013                                                                                                                              *          20190117 IMCT                IMCT                                                                                                                    WMF1901177.TXT
MDEDK1279105201901                D89828070300PT4D20190122000030SPEAKER ASM                   M IMCTM S9TS02 TNTH  09020IMCT  S9 PTB  00015                    1030 SR        000000000000 DENSO TEN (THAILAND)190K21U0014014                                                                                                                              *          20190117 IMCT                IMCT                                                                                                                    WMF1901177.TXT
MDEDK1279106201901                D89828070300PT4D20190122000060SPEAKER ASM                   M IMCTM S9TS02 TNTH  09020IMCT  S9 PTB  00015                    1600 SR        000000000000 DENSO TEN (THAILAND)190G21U0001001190H29U0001001                                                                                                                *          20190117 IMCT                IMCT                                                                                                                    WMF1901177.TXT
MDEDK1279107201901                D89828070300PT4D20190122000030SPEAKER ASM                   M IMCTM S9TS02 TNTH  09020IMCT  S9 PTB  00015                    2100 SR        000000000000 DENSO TEN (THAILAND)190H26U0001001                                                                                                                              *          20190117 IMCT                IMCT                                                                                                                    WMF1901177.TXT
MDEDK1279108201901                D89831228800PT4D20190121000015RADIO;AM/FM,CD                M IMCTM S9CO001TNTH  09020IMCT  S9 PTB  00003                    2230 SR        000000000000 DENSO TEN (THAILAND)190J05U0001001                                                                                                                              *          20190117 IMCT                IMCT                                                                                                                    WMF1901177.TXT
MDEDK1279109201901                D89831229010PT1D20190122000015RADIO;AM/FM,CD                M IMCTM S5NC06 TNTH  09020IMCT  S5 PTB  00003                    1600 SR        000000000000 DENSO TEN (THAILAND)190F41L0002002                                                                                                                              *          20190117 IMCT                IMCT                                                                                                                    WMF1901177.TXT
MDEDK1279110201901                D89838031200PT4D20190122000015RADIO;ASM DVD                 M IMCTM S9CO001TNTH  09020IMCT  S9 PTB  00003                    0230 SR        000000000000 DENSO TEN (THAILAND)190K21U0013013                                                                                                                              *          20190117 IMCT                IMCT                                                                                                                    WMF1901177.TXT
MDEDK1279111201901                D89838031200PT4D20190122000015RADIO;ASM DVD                 M IMCTM S9CO001TNTH  09020IMCT  S9 PTB  00003                    1030 SR        000000000000 DENSO TEN (THAILAND)190K21U0014014                                                                                                                              *          20190117 IMCT                IMCT                                                                                                                    WMF1901177.TXT
MDEDK1279112201901                D89848582100PT4D20190122000015RADIO;AM/FM CD D              M IMCTM S9CO001TNTH  09020IMCT  S9 PTB  00003                    2100 SR        000000000000 DENSO TEN (THAILAND)190H26U0001001                                                                                                                              *          20190117 IMCT                IMCT                                                                                                                    WMF1901177.TXT
MDEDK1279113201901                D89848582800PT1D20190122000015RADIO;AM/FM CD D              M IMCTM S5NC06 TNTH  09020IMCT  S5 PTB  00003                    1600 SR        000000000000 DENSO TEN (THAILAND)190H66L0001001                                                                                                                              *          20190117 IMCT                IMCT                                                                                                                    WMF1901177.TXT
MDEUK1211864201901                D89828070100PT4U20190122000030SPEAKER ASM                   M IMCTM S0FL05 TNTH  09020IMCT  S0 PTB  00004                    1300 SR        000000000000 DENSO TEN (THAILAND)190G77U0013013                                                                                                                              *          20190117 IMCT                IMCT                                                                                                                    WMF1901177.TXT
MDEUK1211865201901                D89828070100PT4U20190122000030SPEAKER ASM                   M IMCTM S0FL05 TNTH  09020IMCT  S0 PTB  00004                    2230 SR        000000000000 DENSO TEN (THAILAND)190G77U0014014                                                                                                                              *          20190117 IMCT                IMCT                                                                                                                    WMF1901177.TXT
MDEUK1211866201901                D89828070200PV4U20190122000030SPEAKER ASM                   M IMCTM S0FR05 TNTH  09020IMCT  S0 PTB  00005                    1300 SR        000000000000 DENSO TEN (THAILAND)190G77U0013013                                                                                                                              *          20190117 IMCT                IMCT                                                                                                                    WMF1901177.TXT
MDEUK1211867201901                D89828070200PV4U20190122000030SPEAKER ASM                   M IMCTM S0FR05 TNTH  09020IMCT  S0 PTB  00005                    2230 SR        000000000000 DENSO TEN (THAILAND)190G77U0014014                                                                                                                              *          20190117 IMCT                IMCT                                                                                                                    WMF1901177.TXT
MDEUK1211868201901                D89828070300PT4U20190122000030SPEAKER ASM                   M IMCTM S9TS02 TNTH  09020IMCT  S9 PTB  00015                    1300 SR        000000000000 DENSO TEN (THAILAND)190G77U0013013                                                                                                                              *          20190117 IMCT                IMCT                                                                                                                    WMF1901177.TXT
MDEUK1211869201901                D89828070300PT4U20190122000030SPEAKER ASM                   M IMCTM S9TS02 TNTH  09020IMCT  S9 PTB  00015                    2230 SR        000000000000 DENSO TEN (THAILAND)190G77U0014014                                                                                                                              *          20190117 IMCT                IMCT                                                                                                                    WMF1901177.TXT
