REC2019013020190130ISUZU                              56     
MDDDK1327022201902                D89821984430PT1D20190204000060RADIO;AM/FM,CD                M IMCTM S5NC06 TNTH  09020IMCT  S5 PTB  00005                    2230 SR        000000000000 DENSO TEN (THAILAND)190MRAL0073073190MXCL0030030                                                                                                                *          20190130 IMCT                IMCT                                                                                                                    WMF1901304.TXT
MDDDK1327023201902                D89821984430PT1D20190205000030RADIO;AM/FM,CD                M IMCTM S5NC06 TNTH  09020IMCT  S5 PTB  00005                    0400 SR        000000000000 DENSO TEN (THAILAND)190MRAL0074074                                                                                                                              *          20190130 IMCT                IMCT                                                                                                                    WMF1901304.TXT
MDDDK1327024201902                D89821984430PT1D20190205000030RADIO;AM/FM,CD                M IMCTM S5NC06 TNTH  09020IMCT  S5 PTB  00005                    1030 SR        000000000000 DENSO TEN (THAILAND)190MRBL0027027                                                                                                                              *          20190130 IMCT                IMCT                                                                                                                    WMF1901304.TXT
MDDDK1327025201902                D89821984430PT1D20190205000030RADIO;AM/FM,CD                M IMCTM S5NC06 TNTH  09020IMCT  S5 PTB  00005                    1600 SR        000000000000 DENSO TEN (THAILAND)190MRAL0075075                                                                                                                              *          20190130 IMCT                IMCT                                                                                                                    WMF1901304.TXT
MDDDK1327026201902                D89828070100PV1D20190204000120SPEAKER ASM                   M IMCTM S5MB11 TNTH  09020IMCT  S5 PTB  00004                    2230 SR        000000000000 DENSO TEN (THAILAND)190MRAL0073073190MXCL0030030                                                                                                                *          20190130 IMCT                IMCT                                                                                                                    WMF1901304.TXT
MDDDK1327027201902                D89828070100PV1D20190205000060SPEAKER ASM                   M IMCTM S5MB11 TNTH  09020IMCT  S5 PTB  00004                    0400 SR        000000000000 DENSO TEN (THAILAND)190MRAL0074074                                                                                                                              *          20190130 IMCT                IMCT                                                                                                                    WMF1901304.TXT
MDDDK1327028201902                D89828070100PV1D20190205000060SPEAKER ASM                   M IMCTM S5MB11 TNTH  09020IMCT  S5 PTB  00004                    1030 SR        000000000000 DENSO TEN (THAILAND)190MRBL0027027                                                                                                                              *          20190130 IMCT                IMCT                                                                                                                    WMF1901304.TXT
MDDDK1327029201902                D89828070100PV1D20190205000060SPEAKER ASM                   M IMCTM S5MB11 TNTH  09020IMCT  S5 PTB  00004                    1300 SR        000000000000 DENSO TEN (THAILAND)190MPSL0001001                                                                                                                              *          20190130 IMCT                IMCT                                                                                                                    WMF1901304.TXT
MDDDK1327030201902                D89828070100PV1D20190205000060SPEAKER ASM                   M IMCTM S5MB11 TNTH  09020IMCT  S5 PTB  00004                    1600 SR        000000000000 DENSO TEN (THAILAND)190MRAL0075075                                                                                                                              *          20190130 IMCT                IMCT                                                                                                                    WMF1901304.TXT
MDDDK1327031201902                D89828070100PV4D20190205000060SPEAKER ASM                   M IMCTM S0FL05 TNTH  09020IMCT  S0 PTB  00004                    0230 SR        000000000000 DENSO TEN (THAILAND)190MREU0025025                                                                                                                              *          20190130 IMCT                IMCT                                                                                                                    WMF1901304.TXT
MDDDK1327032201902                D89828070100PV4D20190205000060SPEAKER ASM                   M IMCTM S0FL05 TNTH  09020IMCT  S0 PTB  00004                    0830 SR        000000000000 DENSO TEN (THAILAND)190MRTU0040040                                                                                                                              *          20190130 IMCT                IMCT                                                                                                                    WMF1901304.TXT
MDDDK1327033201902                D89828070200PV4D20190205000060SPEAKER ASM                   M IMCTM S0FR05 TNTH  09020IMCT  S0 PTB  00005                    0230 SR        000000000000 DENSO TEN (THAILAND)190MREU0025025                                                                                                                              *          20190130 IMCT                IMCT                                                                                                                    WMF1901304.TXT
MDDDK1327034201902                D89828070200PV4D20190205000060SPEAKER ASM                   M IMCTM S0FR05 TNTH  09020IMCT  S0 PTB  00005                    0830 SR        000000000000 DENSO TEN (THAILAND)190MRTU0040040                                                                                                                              *          20190130 IMCT                IMCT                                                                                                                    WMF1901304.TXT
MDDDK1327035201902                D89828070300PT1D20190205000060SPEAKER ASM                   M IMCTM S5NB082TNTH  09020IMCT  S5 PTB  00015                    1300 SR        000000000000 DENSO TEN (THAILAND)190MPSL0001001                                                                                                                              *          20190130 IMCT                IMCT                                                                                                                    WMF1901304.TXT
MDDDK1327036201902                D89828070300PT4D20190205000060SPEAKER ASM                   M IMCTM S9TS02 TNTH  09020IMCT  S9 PTB  00015                    0230 SR        000000000000 DENSO TEN (THAILAND)190MREU0025025                                                                                                                              *          20190130 IMCT                IMCT                                                                                                                    WMF1901304.TXT
MDDDK1327037201902                D89828070300PT4D20190205000060SPEAKER ASM                   M IMCTM S9TS02 TNTH  09020IMCT  S9 PTB  00015                    0830 SR        000000000000 DENSO TEN (THAILAND)190MRTU0040040                                                                                                                              *          20190130 IMCT                IMCT                                                                                                                    WMF1901304.TXT
MDDDK1327038201902                D89831228400PT4D20190205000030RADIO;AM/FM,CD                M IMCTM S9CO001TNTH  09020IMCT  S9 CPB  00003                    0230 SR        000000000000 DENSO TEN (THAILAND)190MREU0025025                                                                                                                              *          20190130 IMCT                IMCT                                                                                                                    WMF1901304.TXT
MDDDK1327039201902                D89848581500PT4D20190205000030RADIO;AM/FM CD D              M IMCTM S9CO001TNTH  09020IMCT  S9 PTB  00003                    0830 SR        000000000000 DENSO TEN (THAILAND)190MRTU0040040                                                                                                                              *          20190130 IMCT                IMCT                                                                                                                    WMF1901304.TXT
MDDUK1216549201902                D89828070100PT4U20190204000030SPEAKER ASM                   M IMCTM S0FL05 TNTH  09020IMCT  S0 PTB  00004                    2230 SR        000000000000 DENSO TEN (THAILAND)190MUGU0002002                                                                                                                              *          20190130 IMCT                IMCT                                                                                                                    WMF1901304.TXT
MDDUK1216550201902                D89828070100PT4U20190205000030SPEAKER ASM                   M IMCTM S0FL05 TNTH  09020IMCT  S0 PTB  00004                    0830 SR        000000000000 DENSO TEN (THAILAND)190MUEU0005005                                                                                                                              *          20190130 IMCT                IMCT                                                                                                                    WMF1901304.TXT
MDDUK1216551201902                D89828070100PT4U20190205000030SPEAKER ASM                   M IMCTM S0FL05 TNTH  09020IMCT  S0 PTB  00004                    1300 SR        000000000000 DENSO TEN (THAILAND)190MUEU0006006                                                                                                                              *          20190130 IMCT                IMCT                                                                                                                    WMF1901304.TXT
MDDUK1216552201902                D89828070100PT4U20190205000030SPEAKER ASM                   M IMCTM S0FL05 TNTH  09020IMCT  S0 PTB  00004                    1600 SR        000000000000 DENSO TEN (THAILAND)190MUEU0007007                                                                                                                              *          20190130 IMCT                IMCT                                                                                                                    WMF1901304.TXT
MDDUK1216553201902                D89828070200PV4U20190204000030SPEAKER ASM                   M IMCTM S0FR05 TNTH  09020IMCT  S0 PTB  00005                    2230 SR        000000000000 DENSO TEN (THAILAND)190MUGU0002002                                                                                                                              *          20190130 IMCT                IMCT                                                                                                                    WMF1901304.TXT
MDDUK1216554201902                D89828070200PV4U20190205000030SPEAKER ASM                   M IMCTM S0FR05 TNTH  09020IMCT  S0 PTB  00005                    0830 SR        000000000000 DENSO TEN (THAILAND)190MUEU0005005                                                                                                                              *          20190130 IMCT                IMCT                                                                                                                    WMF1901304.TXT
MDDUK1216555201902                D89828070200PV4U20190205000030SPEAKER ASM                   M IMCTM S0FR05 TNTH  09020IMCT  S0 PTB  00005                    1300 SR        000000000000 DENSO TEN (THAILAND)190MUEU0006006                                                                                                                              *          20190130 IMCT                IMCT                                                                                                                    WMF1901304.TXT
MDDUK1216556201902                D89828070200PV4U20190205000030SPEAKER ASM                   M IMCTM S0FR05 TNTH  09020IMCT  S0 PTB  00005                    1600 SR        000000000000 DENSO TEN (THAILAND)190MUEU0007007                                                                                                                              *          20190130 IMCT                IMCT                                                                                                                    WMF1901304.TXT
MDDUK1216557201902                D89828070300PT4U20190204000030SPEAKER ASM                   M IMCTM S9TS02 TNTH  09020IMCT  S9 PTB  00015                    2230 SR        000000000000 DENSO TEN (THAILAND)190MUGU0002002                                                                                                                              *          20190130 IMCT                IMCT                                                                                                                    WMF1901304.TXT
MDDUK1216558201902                D89828070300PT4U20190205000030SPEAKER ASM                   M IMCTM S9TS02 TNTH  09020IMCT  S9 PTB  00015                    0830 SR        000000000000 DENSO TEN (THAILAND)190MUEU0005005                                                                                                                              *          20190130 IMCT                IMCT                                                                                                                    WMF1901304.TXT
MDDUK1216559201902                D89828070300PT4U20190205000030SPEAKER ASM                   M IMCTM S9TS02 TNTH  09020IMCT  S9 PTB  00015                    1300 SR        000000000000 DENSO TEN (THAILAND)190MUEU0006006                                                                                                                              *          20190130 IMCT                IMCT                                                                                                                    WMF1901304.TXT
MDDUK1216560201902                D89828070300PT4U20190205000030SPEAKER ASM                   M IMCTM S9TS02 TNTH  09020IMCT  S9 PTB  00015                    1600 SR        000000000000 DENSO TEN (THAILAND)190MUEU0007007                                                                                                                              *          20190130 IMCT                IMCT                                                                                                                    WMF1901304.TXT
MDEDK1373534201902                D89828070100PV1D20190205000060SPEAKER ASM                   M IMCTM S5MB11 TNTH  09020IMCT  S5 PTB  00004                    0230 SR        000000000000 DENSO TEN (THAILAND)190J28L0001002                                                                                                                              *          20190130 IMCT                IMCT                                                                                                                    WMF1901304.TXT
MDEDK1373535201902                D89828070100PV1D20190205000060SPEAKER ASM                   M IMCTM S5MB11 TNTH  09020IMCT  S5 PTB  00004                    0400 SR        000000000000 DENSO TEN (THAILAND)190J92L0010011                                                                                                                              *          20190130 IMCT                IMCT                                                                                                                    WMF1901304.TXT
MDEDK1373536201902                D89828070100PV1D20190205000060SPEAKER ASM                   M IMCTM S5MB11 TNTH  09020IMCT  S5 PTB  00004                    0830 SR        000000000000 DENSO TEN (THAILAND)190H71L0005006                                                                                                                              *          20190130 IMCT                IMCT                                                                                                                    WMF1901304.TXT
MDEDK1373537201902                D89828070100PV1D20190205000120SPEAKER ASM                   M IMCTM S5MB11 TNTH  09020IMCT  S5 PTB  00004                    1300 SR        000000000000 DENSO TEN (THAILAND)190G21L0003004190J92L0012013                                                                                                                *          20190130 IMCT                IMCT                                                                                                                    WMF1901304.TXT
MDEDK1373538201902                D89828070100PV1D20190205000030SPEAKER ASM                   M IMCTM S5MB11 TNTH  09020IMCT  S5 PTB  00004                    2100 SR        000000000000 DENSO TEN (THAILAND)190G16L0001001                                                                                                                              *          20190130 IMCT                IMCT                                                                                                                    WMF1901304.TXT
MDEDK1373539201902                D89828070100PV4D20190205000030SPEAKER ASM                   M IMCTM S0FL05 TNTH  09020IMCT  S0 PTB  00004                    1600 SR        000000000000 DENSO TEN (THAILAND)190D77U0001001                                                                                                                              *          20190130 IMCT                IMCT                                                                                                                    WMF1901304.TXT
MDEDK1373540201902                D89828070200PV1D20190205000060SPEAKER ASM                   M IMCTM S5MA14 TNTH  09020IMCT  S5 PTB  00005                    0230 SR        000000000000 DENSO TEN (THAILAND)190J28L0001002                                                                                                                              *          20190130 IMCT                IMCT                                                                                                                    WMF1901304.TXT
MDEDK1373541201902                D89828070200PV1D20190205000060SPEAKER ASM                   M IMCTM S5MA14 TNTH  09020IMCT  S5 PTB  00005                    1300 SR        000000000000 DENSO TEN (THAILAND)190G21L0003004                                                                                                                              *          20190130 IMCT                IMCT                                                                                                                    WMF1901304.TXT
MDEDK1373542201902                D89828070200PV1D20190205000030SPEAKER ASM                   M IMCTM S5MA14 TNTH  09020IMCT  S5 PTB  00005                    2100 SR        000000000000 DENSO TEN (THAILAND)190G16L0001001                                                                                                                              *          20190130 IMCT                IMCT                                                                                                                    WMF1901304.TXT
MDEDK1373543201902                D89828070200PV4D20190205000030SPEAKER ASM                   M IMCTM S0FR05 TNTH  09020IMCT  S0 PTB  00005                    1600 SR        000000000000 DENSO TEN (THAILAND)190D77U0001001                                                                                                                              *          20190130 IMCT                IMCT                                                                                                                    WMF1901304.TXT
MDEDK1373544201902                D89828070300PT1D20190205000060SPEAKER ASM                   M IMCTM S5NB082TNTH  09020IMCT  S5 PTB  00015                    0230 SR        000000000000 DENSO TEN (THAILAND)190J28L0001002                                                                                                                              *          20190130 IMCT                IMCT                                                                                                                    WMF1901304.TXT
MDEDK1373545201902                D89828070300PT1D20190205000060SPEAKER ASM                   M IMCTM S5NB082TNTH  09020IMCT  S5 PTB  00015                    0400 SR        000000000000 DENSO TEN (THAILAND)190J92L0010011                                                                                                                              *          20190130 IMCT                IMCT                                                                                                                    WMF1901304.TXT
MDEDK1373546201902                D89828070300PT1D20190205000060SPEAKER ASM                   M IMCTM S5NB082TNTH  09020IMCT  S5 PTB  00015                    0830 SR        000000000000 DENSO TEN (THAILAND)190H71L0005006                                                                                                                              *          20190130 IMCT                IMCT                                                                                                                    WMF1901304.TXT
MDEDK1373547201902                D89828070300PT1D20190205000120SPEAKER ASM                   M IMCTM S5NB082TNTH  09020IMCT  S5 PTB  00015                    1300 SR        000000000000 DENSO TEN (THAILAND)190G21L0003004190J92L0012013                                                                                                                *          20190130 IMCT                IMCT                                                                                                                    WMF1901304.TXT
MDEDK1373548201902                D89828070300PT1D20190205000030SPEAKER ASM                   M IMCTM S5NB082TNTH  09020IMCT  S5 PTB  00015                    2100 SR        000000000000 DENSO TEN (THAILAND)190G16L0001001                                                                                                                              *          20190130 IMCT                IMCT                                                                                                                    WMF1901304.TXT
MDEDK1373549201902                D89828070300PT4D20190205000030SPEAKER ASM                   M IMCTM S9TS02 TNTH  09020IMCT  S9 PTB  00015                    1600 SR        000000000000 DENSO TEN (THAILAND)190D77U0001001                                                                                                                              *          20190130 IMCT                IMCT                                                                                                                    WMF1901304.TXT
MDEDK1373550201902                D89831229200PT1D20190205000030RADIO;AM/FM,CD                M IMCTM S5NC06 TNTH  09020IMCT  S5 PTB  00003                    0400 SR        000000000000 DENSO TEN (THAILAND)190J92L0010011                                                                                                                              *          20190130 IMCT                IMCT                                                                                                                    WMF1901304.TXT
MDEDK1373551201902                D89831229200PT1D20190205000030RADIO;AM/FM,CD                M IMCTM S5NC06 TNTH  09020IMCT  S5 PTB  00003                    1300 SR        000000000000 DENSO TEN (THAILAND)190J92L0012013                                                                                                                              *          20190130 IMCT                IMCT                                                                                                                    WMF1901304.TXT
MDEDK1373552201902                D89848581900PT4D20190205000015RADIO;AM/FM CD D              M IMCTM S9CO001TNTH  09020IMCT  S9 PTB  00003                    1600 SR        000000000000 DENSO TEN (THAILAND)190D77U0001001                                                                                                                              *          20190130 IMCT                IMCT                                                                                                                    WMF1901304.TXT
MDEUK1225815201902                D89828070100PT4U20190205000030SPEAKER ASM                   M IMCTM S0FL05 TNTH  09020IMCT  S0 PTB  00004                    0400 SR        000000000000 DENSO TEN (THAILAND)190F62U0002002                                                                                                                              *          20190130 IMCT                IMCT                                                                                                                    WMF1901304.TXT
MDEUK1225816201902                D89828070100PT4U20190205000030SPEAKER ASM                   M IMCTM S0FL05 TNTH  09020IMCT  S0 PTB  00004                    2100 SR        000000000000 DENSO TEN (THAILAND)190G25U0001001                                                                                                                              *          20190130 IMCT                IMCT                                                                                                                    WMF1901304.TXT
MDEUK1225817201902                D89828070200PV4U20190205000030SPEAKER ASM                   M IMCTM S0FR05 TNTH  09020IMCT  S0 PTB  00005                    0400 SR        000000000000 DENSO TEN (THAILAND)190F62U0002002                                                                                                                              *          20190130 IMCT                IMCT                                                                                                                    WMF1901304.TXT
MDEUK1225818201902                D89828070200PV4U20190205000030SPEAKER ASM                   M IMCTM S0FR05 TNTH  09020IMCT  S0 PTB  00005                    2100 SR        000000000000 DENSO TEN (THAILAND)190G25U0001001                                                                                                                              *          20190130 IMCT                IMCT                                                                                                                    WMF1901304.TXT
MDEUK1225819201902                D89828070300PT4U20190205000030SPEAKER ASM                   M IMCTM S9TS02 TNTH  09020IMCT  S9 PTB  00015                    0400 SR        000000000000 DENSO TEN (THAILAND)190F62U0002002                                                                                                                              *          20190130 IMCT                IMCT                                                                                                                    WMF1901304.TXT
MDEUK1225820201902                D89828070300PT4U20190205000030SPEAKER ASM                   M IMCTM S9TS02 TNTH  09020IMCT  S9 PTB  00015                    2100 SR        000000000000 DENSO TEN (THAILAND)190G25U0001001                                                                                                                              *          20190130 IMCT                IMCT                                                                                                                    WMF1901304.TXT
MDEUK1225821201902                D89838432900PT4U20190205000015RADIO;ASM DVD                 M IMCTM S9TS01 TNTH  09020IMCT  S9 PTB  00003                    0400 SR        000000000000 DENSO TEN (THAILAND)190F62U0002002                                                                                                                              *          20190130 IMCT                IMCT                                                                                                                    WMF1901304.TXT
