REC2019011620190116ISUZU                              52     
MDDDK1254158201901                D89821984430PT1D20190121000030RADIO;AM/FM,CD                M IMCTM S5NC06 TNTH  09020IMCT  S5 PTB  00005                    1030 SR        000000000000 DENSO TEN (THAILAND)190MRAL0059059                                                                                                                              *          20190116 IMCT                IMCT                                                                                                                    WMF1901163.TXT
MDDDK1254159201901                D89821984430PT1D20190121000030RADIO;AM/FM,CD                M IMCTM S5NC06 TNTH  09020IMCT  S5 PTB  00005                    2100 SR        000000000000 DENSO TEN (THAILAND)190MRBL0021021                                                                                                                              *          20190116 IMCT                IMCT                                                                                                                    WMF1901163.TXT
MDDDK1254160201901                D89821984430PT1D20190121000030RADIO;AM/FM,CD                M IMCTM S5NC06 TNTH  09020IMCT  S5 PTB  00005                    2230 SR        000000000000 DENSO TEN (THAILAND)190MXCL0028028                                                                                                                              *          20190116 IMCT                IMCT                                                                                                                    WMF1901163.TXT
MDDDK1254161201901                D89828070100PV1D20190119000060SPEAKER ASM                   M IMCTM S5MB11 TNTH  09020IMCT  S5 PTB  00004                    2230 SR        000000000000 DENSO TEN (THAILAND)190MPFL0039039                                                                                                                              *          20190116 IMCT                IMCT                                                                                                                    WMF1901163.TXT
MDDDK1254162201901                D89828070100PV1D20190120000060SPEAKER ASM                   M IMCTM S5MB11 TNTH  09020IMCT  S5 PTB  00004                    0230 SR        000000000000 DENSO TEN (THAILAND)190MPKL0020020                                                                                                                              *          20190116 IMCT                IMCT                                                                                                                    WMF1901163.TXT
MDDDK1254163201901                D89828070100PV1D20190120000060SPEAKER ASM                   M IMCTM S5MB11 TNTH  09020IMCT  S5 PTB  00004                    0400 SR        000000000000 DENSO TEN (THAILAND)190MPGL0102102                                                                                                                              *          20190116 IMCT                IMCT                                                                                                                    WMF1901163.TXT
MDDDK1254164201901                D89828070100PV1D20190121000060SPEAKER ASM                   M IMCTM S5MB11 TNTH  09020IMCT  S5 PTB  00004                    1030 SR        000000000000 DENSO TEN (THAILAND)190MRAL0059059                                                                                                                              *          20190116 IMCT                IMCT                                                                                                                    WMF1901163.TXT
MDDDK1254165201901                D89828070100PV1D20190121000120SPEAKER ASM                   M IMCTM S5MB11 TNTH  09020IMCT  S5 PTB  00004                    1300 SR        000000000000 DENSO TEN (THAILAND)190MPCL0032032190MPGL0103103                                                                                                                *          20190116 IMCT                IMCT                                                                                                                    WMF1901163.TXT
MDDDK1254166201901                D89828070100PV1D20190121000060SPEAKER ASM                   M IMCTM S5MB11 TNTH  09020IMCT  S5 PTB  00004                    1600 SR        000000000000 DENSO TEN (THAILAND)190MPNL0012012                                                                                                                              *          20190116 IMCT                IMCT                                                                                                                    WMF1901163.TXT
MDDDK1254167201901                D89828070100PV1D20190121000060SPEAKER ASM                   M IMCTM S5MB11 TNTH  09020IMCT  S5 PTB  00004                    2100 SR        000000000000 DENSO TEN (THAILAND)190MRBL0021021                                                                                                                              *          20190116 IMCT                IMCT                                                                                                                    WMF1901163.TXT
MDDDK1254168201901                D89828070100PV1D20190121000060SPEAKER ASM                   M IMCTM S5MB11 TNTH  09020IMCT  S5 PTB  00004                    2230 SR        000000000000 DENSO TEN (THAILAND)190MXCL0028028                                                                                                                              *          20190116 IMCT                IMCT                                                                                                                    WMF1901163.TXT
MDDDK1254169201901                D89828070100PV4D20190121000060SPEAKER ASM                   M IMCTM S0FL05 TNTH  09020IMCT  S0 PTB  00004                    1300 SR        000000000000 DENSO TEN (THAILAND)190MRVU0026026                                                                                                                              *          20190116 IMCT                IMCT                                                                                                                    WMF1901163.TXT
MDDDK1254170201901                D89828070200PV4D20190121000060SPEAKER ASM                   M IMCTM S0FR05 TNTH  09020IMCT  S0 PTB  00005                    1300 SR        000000000000 DENSO TEN (THAILAND)190MRVU0026026                                                                                                                              *          20190116 IMCT                IMCT                                                                                                                    WMF1901163.TXT
MDDDK1254171201901                D89828070300PT1D20190119000060SPEAKER ASM                   M IMCTM S5NB082TNTH  09020IMCT  S5 PTB  00015                    2230 SR        000000000000 DENSO TEN (THAILAND)190MPFL0039039                                                                                                                              *          20190116 IMCT                IMCT                                                                                                                    WMF1901163.TXT
MDDDK1254172201901                D89828070300PT1D20190120000060SPEAKER ASM                   M IMCTM S5NB082TNTH  09020IMCT  S5 PTB  00015                    0230 SR        000000000000 DENSO TEN (THAILAND)190MPKL0020020                                                                                                                              *          20190116 IMCT                IMCT                                                                                                                    WMF1901163.TXT
MDDDK1254173201901                D89828070300PT1D20190120000060SPEAKER ASM                   M IMCTM S5NB082TNTH  09020IMCT  S5 PTB  00015                    0400 SR        000000000000 DENSO TEN (THAILAND)190MPGL0102102                                                                                                                              *          20190116 IMCT                IMCT                                                                                                                    WMF1901163.TXT
MDDDK1254174201901                D89828070300PT1D20190121000120SPEAKER ASM                   M IMCTM S5NB082TNTH  09020IMCT  S5 PTB  00015                    1300 SR        000000000000 DENSO TEN (THAILAND)190MPCL0032032190MPGL0103103                                                                                                                *          20190116 IMCT                IMCT                                                                                                                    WMF1901163.TXT
MDDDK1254175201901                D89828070300PT1D20190121000060SPEAKER ASM                   M IMCTM S5NB082TNTH  09020IMCT  S5 PTB  00015                    1600 SR        000000000000 DENSO TEN (THAILAND)190MPNL0012012                                                                                                                              *          20190116 IMCT                IMCT                                                                                                                    WMF1901163.TXT
MDDDK1254176201901                D89828070300PT4D20190121000060SPEAKER ASM                   M IMCTM S9TS02 TNTH  09020IMCT  S9 PTB  00015                    1300 SR        000000000000 DENSO TEN (THAILAND)190MRVU0026026                                                                                                                              *          20190116 IMCT                IMCT                                                                                                                    WMF1901163.TXT
MDDDK1254177201901                D89831228300PT1D20190119000030RADIO;AM/FM,CD                M IMCTM S5NC06 TNTH  09020IMCT  S5 CPB  00003                    2230 SR        000000000000 DENSO TEN (THAILAND)190MPFL0039039                                                                                                                              *          20190116 IMCT                IMCT                                                                                                                    WMF1901163.TXT
MDDDK1254178201901                D89831228300PT1D20190120000030RADIO;AM/FM,CD                M IMCTM S5NC06 TNTH  09020IMCT  S5 CPB  00003                    0400 SR        000000000000 DENSO TEN (THAILAND)190MPGL0102102                                                                                                                              *          20190116 IMCT                IMCT                                                                                                                    WMF1901163.TXT
MDDDK1254179201901                D89831228300PT1D20190121000060RADIO;AM/FM,CD                M IMCTM S5NC06 TNTH  09020IMCT  S5 CPB  00003                    1300 SR        000000000000 DENSO TEN (THAILAND)190MPCL0032032190MPGL0103103                                                                                                                *          20190116 IMCT                IMCT                                                                                                                    WMF1901163.TXT
MDDDK1254180201901                D89848581600PT1D20190120000030RADIO;AM/FM CD D              M IMCTM S5NC06 TNTH  09020IMCT  S5 PTB  00003                    0230 SR        000000000000 DENSO TEN (THAILAND)190MPKL0020020                                                                                                                              *          20190116 IMCT                IMCT                                                                                                                    WMF1901163.TXT
MDDUK1207430201901                D89828070100PT4U20190120000030SPEAKER ASM                   M IMCTM S0FL05 TNTH  09020IMCT  S0 PTB  00004                    0400 SR        000000000000 DENSO TEN (THAILAND)190MUDU0001001                                                                                                                              *          20190116 IMCT                IMCT                                                                                                                    WMF1901163.TXT
MDDUK1207431201901                D89828070200PV4U20190120000030SPEAKER ASM                   M IMCTM S0FR05 TNTH  09020IMCT  S0 PTB  00005                    0400 SR        000000000000 DENSO TEN (THAILAND)190MUDU0001001                                                                                                                              *          20190116 IMCT                IMCT                                                                                                                    WMF1901163.TXT
MDDUK1207432201901                D89828070300PT4U20190120000030SPEAKER ASM                   M IMCTM S9TS02 TNTH  09020IMCT  S9 PTB  00015                    0400 SR        000000000000 DENSO TEN (THAILAND)190MUDU0001001                                                                                                                              *          20190116 IMCT                IMCT                                                                                                                    WMF1901163.TXT
MDEDK1271250201901                D89828070100PV1D20190119000030SPEAKER ASM                   M IMCTM S5MB11 TNTH  09020IMCT  S5 PTB  00004                    2230 SR        000000000000 DENSO TEN (THAILAND)190F86L0066066                                                                                                                              *          20190116 IMCT                IMCT                                                                                                                    WMF1901163.TXT
MDEDK1271251201901                D89828070100PV1D20190120000030SPEAKER ASM                   M IMCTM S5MB11 TNTH  09020IMCT  S5 PTB  00004                    0230 SR        000000000000 DENSO TEN (THAILAND)190H51L0001001                                                                                                                              *          20190116 IMCT                IMCT                                                                                                                    WMF1901163.TXT
MDEDK1271252201901                D89828070100PV1D20190120000060SPEAKER ASM                   M IMCTM S5MB11 TNTH  09020IMCT  S5 PTB  00004                    0400 SR        000000000000 DENSO TEN (THAILAND)190H54L0001001190J91L0012012                                                                                                                *          20190116 IMCT                IMCT                                                                                                                    WMF1901163.TXT
MDEDK1271253201901                D89828070100PV1D20190121000060SPEAKER ASM                   M IMCTM S5MB11 TNTH  09020IMCT  S5 PTB  00004                    0830 SR        000000000000 DENSO TEN (THAILAND)190J81L0034035                                                                                                                              *          20190116 IMCT                IMCT                                                                                                                    WMF1901163.TXT
MDEDK1271254201901                D89828070100PV1D20190121000090SPEAKER ASM                   M IMCTM S5MB11 TNTH  09020IMCT  S5 PTB  00004                    1600 SR        000000000000 DENSO TEN (THAILAND)190H77L0001002190J91L0013013                                                                                                                *          20190116 IMCT                IMCT                                                                                                                    WMF1901163.TXT
MDEDK1271255201901                D89828070100PV4D20190120000030SPEAKER ASM                   M IMCTM S0FL05 TNTH  09020IMCT  S0 PTB  00004                    0230 SR        000000000000 DENSO TEN (THAILAND)190K21U0012012                                                                                                                              *          20190116 IMCT                IMCT                                                                                                                    WMF1901163.TXT
MDEDK1271256201901                D89828070100PV4D20190120000030SPEAKER ASM                   M IMCTM S0FL05 TNTH  09020IMCT  S0 PTB  00004                    0400 SR        000000000000 DENSO TEN (THAILAND)190F86U0015015                                                                                                                              *          20190116 IMCT                IMCT                                                                                                                    WMF1901163.TXT
MDEDK1271257201901                D89828070100PV4D20190121000060SPEAKER ASM                   M IMCTM S0FL05 TNTH  09020IMCT  S0 PTB  00004                    1030 SR        000000000000 DENSO TEN (THAILAND)190F84U0024024190J28U0002002                                                                                                                *          20190116 IMCT                IMCT                                                                                                                    WMF1901163.TXT
MDEDK1271258201901                D89828070100PV4D20190121000030SPEAKER ASM                   M IMCTM S0FL05 TNTH  09020IMCT  S0 PTB  00004                    1600 SR        000000000000 DENSO TEN (THAILAND)190F36U0001001                                                                                                                              *          20190116 IMCT                IMCT                                                                                                                    WMF1901163.TXT
MDEDK1271259201901                D89828070100PV4D20190121000030SPEAKER ASM                   M IMCTM S0FL05 TNTH  09020IMCT  S0 PTB  00004                    2100 SR        000000000000 DENSO TEN (THAILAND)190G22U0002002                                                                                                                              *          20190116 IMCT                IMCT                                                                                                                    WMF1901163.TXT
MDEDK1271260201901                D89828070200PV4D20190120000030SPEAKER ASM                   M IMCTM S0FR05 TNTH  09020IMCT  S0 PTB  00005                    0230 SR        000000000000 DENSO TEN (THAILAND)190K21U0012012                                                                                                                              *          20190116 IMCT                IMCT                                                                                                                    WMF1901163.TXT
MDEDK1271261201901                D89828070200PV4D20190121000030SPEAKER ASM                   M IMCTM S0FR05 TNTH  09020IMCT  S0 PTB  00005                    1030 SR        000000000000 DENSO TEN (THAILAND)190J28U0002002                                                                                                                              *          20190116 IMCT                IMCT                                                                                                                    WMF1901163.TXT
MDEDK1271262201901                D89828070200PV4D20190121000030SPEAKER ASM                   M IMCTM S0FR05 TNTH  09020IMCT  S0 PTB  00005                    1600 SR        000000000000 DENSO TEN (THAILAND)190F36U0001001                                                                                                                              *          20190116 IMCT                IMCT                                                                                                                    WMF1901163.TXT
MDEDK1271263201901                D89828070200PV4D20190121000030SPEAKER ASM                   M IMCTM S0FR05 TNTH  09020IMCT  S0 PTB  00005                    2100 SR        000000000000 DENSO TEN (THAILAND)190G22U0002002                                                                                                                              *          20190116 IMCT                IMCT                                                                                                                    WMF1901163.TXT
MDEDK1271264201901                D89828070300PT4D20190120000030SPEAKER ASM                   M IMCTM S9TS02 TNTH  09020IMCT  S9 PTB  00015                    0230 SR        000000000000 DENSO TEN (THAILAND)190K21U0012012                                                                                                                              *          20190116 IMCT                IMCT                                                                                                                    WMF1901163.TXT
MDEDK1271265201901                D89828070300PT4D20190121000030SPEAKER ASM                   M IMCTM S9TS02 TNTH  09020IMCT  S9 PTB  00015                    1030 SR        000000000000 DENSO TEN (THAILAND)190J28U0002002                                                                                                                              *          20190116 IMCT                IMCT                                                                                                                    WMF1901163.TXT
MDEDK1271266201901                D89828070300PT4D20190121000030SPEAKER ASM                   M IMCTM S9TS02 TNTH  09020IMCT  S9 PTB  00015                    1600 SR        000000000000 DENSO TEN (THAILAND)190F36U0001001                                                                                                                              *          20190116 IMCT                IMCT                                                                                                                    WMF1901163.TXT
MDEDK1271267201901                D89828070300PT4D20190121000030SPEAKER ASM                   M IMCTM S9TS02 TNTH  09020IMCT  S9 PTB  00015                    2100 SR        000000000000 DENSO TEN (THAILAND)190G22U0002002                                                                                                                              *          20190116 IMCT                IMCT                                                                                                                    WMF1901163.TXT
MDEDK1271268201901                D89838031200PT4D20190120000015RADIO;ASM DVD                 M IMCTM S9CO001TNTH  09020IMCT  S9 PTB  00003                    0230 SR        000000000000 DENSO TEN (THAILAND)190K21U0012012                                                                                                                              *          20190116 IMCT                IMCT                                                                                                                    WMF1901163.TXT
MDEDK1271269201901                D89848582010PT4D20190121000015RADIO;AM/FM CD D              M IMCTM S9CO001TNTH  09020IMCT  S9 PTB  00003                    1600 SR        000000000000 DENSO TEN (THAILAND)190F36U0001001                                                                                                                              *          20190116 IMCT                IMCT                                                                                                                    WMF1901163.TXT
MDEUK1210200201901                D89828070100PT4U20190120000030SPEAKER ASM                   M IMCTM S0FL05 TNTH  09020IMCT  S0 PTB  00004                    0230 SR        000000000000 DENSO TEN (THAILAND)190G77U0011011                                                                                                                              *          20190116 IMCT                IMCT                                                                                                                    WMF1901163.TXT
MDEUK1210201201901                D89828070100PT4U20190121000030SPEAKER ASM                   M IMCTM S0FL05 TNTH  09020IMCT  S0 PTB  00004                    1600 SR        000000000000 DENSO TEN (THAILAND)190G77U0012012                                                                                                                              *          20190116 IMCT                IMCT                                                                                                                    WMF1901163.TXT
MDEUK1210202201901                D89828070200PV4U20190120000030SPEAKER ASM                   M IMCTM S0FR05 TNTH  09020IMCT  S0 PTB  00005                    0230 SR        000000000000 DENSO TEN (THAILAND)190G77U0011011                                                                                                                              *          20190116 IMCT                IMCT                                                                                                                    WMF1901163.TXT
MDEUK1210203201901                D89828070200PV4U20190121000030SPEAKER ASM                   M IMCTM S0FR05 TNTH  09020IMCT  S0 PTB  00005                    1600 SR        000000000000 DENSO TEN (THAILAND)190G77U0012012                                                                                                                              *          20190116 IMCT                IMCT                                                                                                                    WMF1901163.TXT
MDEUK1210204201901                D89828070300PT4U20190120000030SPEAKER ASM                   M IMCTM S9TS02 TNTH  09020IMCT  S9 PTB  00015                    0230 SR        000000000000 DENSO TEN (THAILAND)190G77U0011011                                                                                                                              *          20190116 IMCT                IMCT                                                                                                                    WMF1901163.TXT
MDEUK1210205201901                D89828070300PT4U20190121000030SPEAKER ASM                   M IMCTM S9TS02 TNTH  09020IMCT  S9 PTB  00015                    1600 SR        000000000000 DENSO TEN (THAILAND)190G77U0012012                                                                                                                              *          20190116 IMCT                IMCT                                                                                                                    WMF1901163.TXT
