REC2019012620190126ISUZU                              14     
MDEFK1T23409201901                D89828070100PV4F20190131000028SPEAKER ASM                   M IMCTM S7FL05 TNTH  09020IMCT  S7 PTB  00004                    1600 SR        000000000000 DENSO TEN (THAILAND)190H18R0004   190J07R0002   D190200102    D190200115    000000                                                                              *R         20190126 IMCT                IMCT                                                                                                                    RMF1901263.TXT
MDEFK1T23410201901                D89828070200PV4F20190131000029SPEAKER ASM                   M IMCTM S7FL05 TNTH  09020IMCT  S7 PTB  00005                    1600 SR        000000000000 DENSO TEN (THAILAND)190H18R0003   190J07R0002   D190200101    D190200115    000000                                                                              *R         20190126 IMCT                IMCT                                                                                                                    RMF1901263.TXT
MDEFK1T23411201901                D89828070300PT4F20190131000024SPEAKER ASM                   M IMCTM S7TS02 TNTH  09020IMCT  S7 PTB  00015                    1600 SR        000000000000 DENSO TEN (THAILAND)190H23R0001   190J07R0002   D190200104    D190200115    000000                                                                              *R         20190126 IMCT                IMCT                                                                                                                    RMF1901263.TXT
MDEFK1T23412201901                D89831228800PT4F20190131000001RADIO;AM/FM,CD                M IMCTM S7TS03 TNTH  09020IMCT  S7 PTB  00003                    1600 SR        000000000000 DENSO TEN (THAILAND)190H22R0007   190H22R0007   D190200103    D190200103    000000                                                                              *R         20190126 IMCT                IMCT                                                                                                                    RMF1901263.TXT
MDEFK1T23413201901                D89831229200PT4F20190131000008RADIO;AM/FM,CD                M IMCTM S7TS03 TNTH  09020IMCT  S7 PTB  00003                    1300 SR        000000000000 DENSO TEN (THAILAND)190J98R0013   190J98R0020   H190107608    H190107615    000000                                                                              *R         20190126 IMCT                IMCT                                                                                                                    RMF1901263.TXT
MDEFK1T23414201901                D89848582100PT4F20190131000011RADIO;AM/FM CD D              M IMCTM S7TS01 TNTH  09020IMCT  S7 PTB  00003                    1600 SR        000000000000 DENSO TEN (THAILAND)190H18R0003   190J06R0001   D190200101    D190200113    000000                                                                              *R         20190126 IMCT                IMCT                                                                                                                    RMF1901263.TXT
MDEFK1277927201901                D89828070100PV4F20190130000032SPEAKER ASM                   M IMCTM S7FL05 TNTH  09020IMCT  S7 PTB  00004                    2230 SR        000000000000 DENSO TEN (THAILAND)190G97R0001   190J31R0006   R190107401    C190107501    000000                                                                              *R         20190126 IMCT                IMCT                                                                                                                    RMF1901263.TXT
MDEFK1277928201901                D89828070100PV4F20190131000016SPEAKER ASM                   M IMCTM S7FL05 TNTH  09020IMCT  S7 PTB  00004                    0400 SR        000000000000 DENSO TEN (THAILAND)190J31R0007   190J31R0014   C190107502    C190107509    000000                                                                              *R         20190126 IMCT                IMCT                                                                                                                    RMF1901263.TXT
MDEFK1277929201901                D89828070100PV4F20190131000012SPEAKER ASM                   M IMCTM S7FL05 TNTH  09020IMCT  S7 PTB  00004                    0830 SR        000000000000 DENSO TEN (THAILAND)190K43R0003   190K63R0008   C190107510    C190107515    000000                                                                              *R         20190126 IMCT                IMCT                                                                                                                    RMF1901263.TXT
MDEFK1277930201901                D89828070100PV4F20190131000032SPEAKER ASM                   M IMCTM S7FL05 TNTH  09020IMCT  S7 PTB  00004                    1300 SR        000000000000 DENSO TEN (THAILAND)190J94R0030   190H18R0003   H190107601    D190200101    000000                                                                              *R         20190126 IMCT                IMCT                                                                                                                    RMF1901263.TXT
MDEFK1277931201901                D89828070200PV4F20190131000010SPEAKER ASM                   M IMCTM S7FL05 TNTH  09020IMCT  S7 PTB  00005                    0830 SR        000000000000 DENSO TEN (THAILAND)190K63R0005   190J98R0013   C190107512    H190107608    000000                                                                              *R         20190126 IMCT                IMCT                                                                                                                    RMF1901263.TXT
MDEFK1277932201901                D89828070200PV4F20190131000015SPEAKER ASM                   M IMCTM S7FL05 TNTH  09020IMCT  S7 PTB  00005                    1300 SR        000000000000 DENSO TEN (THAILAND)190J98R0014   190H18R0003   H190107609    D190200101    000000                                                                              *R         20190126 IMCT                IMCT                                                                                                                    RMF1901263.TXT
MDEFK1277933201901                D89828070300PT4F20190131000015SPEAKER ASM                   M IMCTM S7TS02 TNTH  09020IMCT  S7 PTB  00015                    0830 SR        000000000000 DENSO TEN (THAILAND)190K63R0005   190J98R0016   C190107512    H190107611    000000                                                                              *R         20190126 IMCT                IMCT                                                                                                                    RMF1901263.TXT
MDEFK1277934201901                D89828070300PT4F20190131000015SPEAKER ASM                   M IMCTM S7TS02 TNTH  09020IMCT  S7 PTB  00015                    1300 SR        000000000000 DENSO TEN (THAILAND)190J98R0016   190H22R0007   H190107611    D190200103    000000                                                                              *R         20190126 IMCT                IMCT                                                                                                                    RMF1901263.TXT
