REC2019012920190129ISUZU                              56     
MDDDK1321563201902                D89821984430PT1D20190202000030RADIO;AM/FM,CD                M IMCTM S5NC06 TNTH  09020IMCT  S5 PTB  00005                    0400 SR        000000000000 DENSO TEN (THAILAND)190MYAL0113113                                                                                                                              *          20190129 IMCT                IMCT                                                                                                                    WMF1901295.TXT
MDDDK1321564201902                D89821984430PT1D20190204000030RADIO;AM/FM,CD                M IMCTM S5NC06 TNTH  09020IMCT  S5 PTB  00005                    1030 SR        000000000000 DENSO TEN (THAILAND)190MNGL0068068                                                                                                                              *          20190129 IMCT                IMCT                                                                                                                    WMF1901295.TXT
MDDDK1321565201902                D89821984430PT1D20190204000030RADIO;AM/FM,CD                M IMCTM S5NC06 TNTH  09020IMCT  S5 PTB  00005                    1600 SR        000000000000 DENSO TEN (THAILAND)190MRAL0072072                                                                                                                              *          20190129 IMCT                IMCT                                                                                                                    WMF1901295.TXT
MDDDK1321566201902                D89828070100PV1D20190202000060SPEAKER ASM                   M IMCTM S5MB11 TNTH  09020IMCT  S5 PTB  00004                    0400 SR        000000000000 DENSO TEN (THAILAND)190MYAL0113113                                                                                                                              *          20190129 IMCT                IMCT                                                                                                                    WMF1901295.TXT
MDDDK1321567201902                D89828070100PV1D20190204000060SPEAKER ASM                   M IMCTM S5MB11 TNTH  09020IMCT  S5 PTB  00004                    1030 SR        000000000000 DENSO TEN (THAILAND)190MNGL0068068                                                                                                                              *          20190129 IMCT                IMCT                                                                                                                    WMF1901295.TXT
MDDDK1321568201902                D89828070100PV1D20190204000060SPEAKER ASM                   M IMCTM S5MB11 TNTH  09020IMCT  S5 PTB  00004                    1300 SR        000000000000 DENSO TEN (THAILAND)190MPFL0046046                                                                                                                              *          20190129 IMCT                IMCT                                                                                                                    WMF1901295.TXT
MDDDK1321569201902                D89828070100PV1D20190204000060SPEAKER ASM                   M IMCTM S5MB11 TNTH  09020IMCT  S5 PTB  00004                    1600 SR        000000000000 DENSO TEN (THAILAND)190MRAL0072072                                                                                                                              *          20190129 IMCT                IMCT                                                                                                                    WMF1901295.TXT
MDDDK1321570201902                D89828070100PV4D20190202000060SPEAKER ASM                   M IMCTM S0FL05 TNTH  09020IMCT  S0 PTB  00004                    0230 SR        000000000000 DENSO TEN (THAILAND)190MRTU0039039                                                                                                                              *          20190129 IMCT                IMCT                                                                                                                    WMF1901295.TXT
MDDDK1321571201902                D89828070100PV4D20190204000060SPEAKER ASM                   M IMCTM S0FL05 TNTH  09020IMCT  S0 PTB  00004                    1600 SR        000000000000 DENSO TEN (THAILAND)190MRHU0016016                                                                                                                              *          20190129 IMCT                IMCT                                                                                                                    WMF1901295.TXT
MDDDK1321572201902                D89828070200PV4D20190202000060SPEAKER ASM                   M IMCTM S0FR05 TNTH  09020IMCT  S0 PTB  00005                    0230 SR        000000000000 DENSO TEN (THAILAND)190MRTU0039039                                                                                                                              *          20190129 IMCT                IMCT                                                                                                                    WMF1901295.TXT
MDDDK1321573201902                D89828070200PV4D20190204000060SPEAKER ASM                   M IMCTM S0FR05 TNTH  09020IMCT  S0 PTB  00005                    1600 SR        000000000000 DENSO TEN (THAILAND)190MRHU0016016                                                                                                                              *          20190129 IMCT                IMCT                                                                                                                    WMF1901295.TXT
MDDDK1321574201902                D89828070300PT1D20190204000060SPEAKER ASM                   M IMCTM S5NB082TNTH  09020IMCT  S5 PTB  00015                    1300 SR        000000000000 DENSO TEN (THAILAND)190MPFL0046046                                                                                                                              *          20190129 IMCT                IMCT                                                                                                                    WMF1901295.TXT
MDDDK1321575201902                D89828070300PT4D20190202000060SPEAKER ASM                   M IMCTM S9TS02 TNTH  09020IMCT  S9 PTB  00015                    0230 SR        000000000000 DENSO TEN (THAILAND)190MRTU0039039                                                                                                                              *          20190129 IMCT                IMCT                                                                                                                    WMF1901295.TXT
MDDDK1321576201902                D89828070300PT4D20190204000060SPEAKER ASM                   M IMCTM S9TS02 TNTH  09020IMCT  S9 PTB  00015                    1600 SR        000000000000 DENSO TEN (THAILAND)190MRHU0016016                                                                                                                              *          20190129 IMCT                IMCT                                                                                                                    WMF1901295.TXT
MDDDK1321577201902                D89831228300PT1D20190204000030RADIO;AM/FM,CD                M IMCTM S5NC06 TNTH  09020IMCT  S5 CPB  00003                    1300 SR        000000000000 DENSO TEN (THAILAND)190MPFL0046046                                                                                                                              *          20190129 IMCT                IMCT                                                                                                                    WMF1901295.TXT
MDDDK1321578201902                D89848581500PT4D20190202000030RADIO;AM/FM CD D              M IMCTM S9CO001TNTH  09020IMCT  S9 PTB  00003                    0230 SR        000000000000 DENSO TEN (THAILAND)190MRTU0039039                                                                                                                              *          20190129 IMCT                IMCT                                                                                                                    WMF1901295.TXT
MDDDK1321579201902                D89848581500PT4D20190204000030RADIO;AM/FM CD D              M IMCTM S9CO001TNTH  09020IMCT  S9 PTB  00003                    1600 SR        000000000000 DENSO TEN (THAILAND)190MRHU0016016                                                                                                                              *          20190129 IMCT                IMCT                                                                                                                    WMF1901295.TXT
MDDUK1213907201902                D89828070100PT4U20190204000030SPEAKER ASM                   M IMCTM S0FL05 TNTH  09020IMCT  S0 PTB  00004                    0830 SR        000000000000 DENSO TEN (THAILAND)190MUEU0003003                                                                                                                              *          20190129 IMCT                IMCT                                                                                                                    WMF1901295.TXT
MDDUK1213908201902                D89828070100PT4U20190204000030SPEAKER ASM                   M IMCTM S0FL05 TNTH  09020IMCT  S0 PTB  00004                    1600 SR        000000000000 DENSO TEN (THAILAND)190MUEU0004004                                                                                                                              *          20190129 IMCT                IMCT                                                                                                                    WMF1901295.TXT
MDDUK1213909201902                D89828070200PV4U20190204000030SPEAKER ASM                   M IMCTM S0FR05 TNTH  09020IMCT  S0 PTB  00005                    0830 SR        000000000000 DENSO TEN (THAILAND)190MUEU0003003                                                                                                                              *          20190129 IMCT                IMCT                                                                                                                    WMF1901295.TXT
MDDUK1213910201902                D89828070200PV4U20190204000030SPEAKER ASM                   M IMCTM S0FR05 TNTH  09020IMCT  S0 PTB  00005                    1600 SR        000000000000 DENSO TEN (THAILAND)190MUEU0004004                                                                                                                              *          20190129 IMCT                IMCT                                                                                                                    WMF1901295.TXT
MDDUK1213911201902                D89828070300PT4U20190204000030SPEAKER ASM                   M IMCTM S9TS02 TNTH  09020IMCT  S9 PTB  00015                    0830 SR        000000000000 DENSO TEN (THAILAND)190MUEU0003003                                                                                                                              *          20190129 IMCT                IMCT                                                                                                                    WMF1901295.TXT
MDDUK1213912201902                D89828070300PT4U20190204000030SPEAKER ASM                   M IMCTM S9TS02 TNTH  09020IMCT  S9 PTB  00015                    1600 SR        000000000000 DENSO TEN (THAILAND)190MUEU0004004                                                                                                                              *          20190129 IMCT                IMCT                                                                                                                    WMF1901295.TXT
MDEDK1367018201902                D89752845100PT1D20190201000030RADIO;AM FM,CD D              M IMCTM S5NC06 TNTH  09020IMCT  S5 PTB  00003                    2230 SR        000000000000 DENSO TEN (THAILAND)190F91L0003004                                                                                                                              *          20190129 IMCT                IMCT                                                                                                                    WMF1901295.TXT
MDEDK1367019201902                D89828070100PV1D20190201000090SPEAKER ASM                   M IMCTM S5MB11 TNTH  09020IMCT  S5 PTB  00004                    2230 SR        000000000000 DENSO TEN (THAILAND)190F91L0003004190J34L0005005                                                                                                                *          20190129 IMCT                IMCT                                                                                                                    WMF1901295.TXT
MDEDK1367020201902                D89828070100PV1D20190202000060SPEAKER ASM                   M IMCTM S5MB11 TNTH  09020IMCT  S5 PTB  00004                    0230 SR        000000000000 DENSO TEN (THAILAND)190J94L0062063                                                                                                                              *          20190129 IMCT                IMCT                                                                                                                    WMF1901295.TXT
MDEDK1367021201902                D89828070100PV1D20190202000060SPEAKER ASM                   M IMCTM S5MB11 TNTH  09020IMCT  S5 PTB  00004                    0400 SR        000000000000 DENSO TEN (THAILAND)190G21L0001002                                                                                                                              *          20190129 IMCT                IMCT                                                                                                                    WMF1901295.TXT
MDEDK1367022201902                D89828070100PV1D20190204000060SPEAKER ASM                   M IMCTM S5MB11 TNTH  09020IMCT  S5 PTB  00004                    0830 SR        000000000000 DENSO TEN (THAILAND)190H16L0001002                                                                                                                              *          20190129 IMCT                IMCT                                                                                                                    WMF1901295.TXT
MDEDK1367023201902                D89828070100PV1D20190204000030SPEAKER ASM                   M IMCTM S5MB11 TNTH  09020IMCT  S5 PTB  00004                    1030 SR        000000000000 DENSO TEN (THAILAND)190J94L0064064                                                                                                                              *          20190129 IMCT                IMCT                                                                                                                    WMF1901295.TXT
MDEDK1367024201902                D89828070100PV1D20190204000090SPEAKER ASM                   M IMCTM S5MB11 TNTH  09020IMCT  S5 PTB  00004                    1300 SR        000000000000 DENSO TEN (THAILAND)190J25L0001002190J94L0065065                                                                                                                *          20190129 IMCT                IMCT                                                                                                                    WMF1901295.TXT
MDEDK1367025201902                D89828070100PV1D20190204000060SPEAKER ASM                   M IMCTM S5MB11 TNTH  09020IMCT  S5 PTB  00004                    2100 SR        000000000000 DENSO TEN (THAILAND)190K12L0033033190K81L0001001                                                                                                                *          20190129 IMCT                IMCT                                                                                                                    WMF1901295.TXT
MDEDK1367026201902                D89828070100PV4D20190201000030SPEAKER ASM                   M IMCTM S0FL05 TNTH  09020IMCT  S0 PTB  00004                    2230 SR        000000000000 DENSO TEN (THAILAND)190F34U0002002                                                                                                                              *          20190129 IMCT                IMCT                                                                                                                    WMF1901295.TXT
MDEDK1367027201902                D89828070100PV4D20190202000030SPEAKER ASM                   M IMCTM S0FL05 TNTH  09020IMCT  S0 PTB  00004                    0400 SR        000000000000 DENSO TEN (THAILAND)190F44U0001001                                                                                                                              *          20190129 IMCT                IMCT                                                                                                                    WMF1901295.TXT
MDEDK1367028201902                D89828070100PV4D20190204000030SPEAKER ASM                   M IMCTM S0FL05 TNTH  09020IMCT  S0 PTB  00004                    0830 SR        000000000000 DENSO TEN (THAILAND)190F34U0003003                                                                                                                              *          20190129 IMCT                IMCT                                                                                                                    WMF1901295.TXT
MDEDK1367029201902                D89828070100PV4D20190204000060SPEAKER ASM                   M IMCTM S0FL05 TNTH  09020IMCT  S0 PTB  00004                    1300 SR        000000000000 DENSO TEN (THAILAND)190F44U0002002190K86U0001001                                                                                                                *          20190129 IMCT                IMCT                                                                                                                    WMF1901295.TXT
MDEDK1367030201902                D89828070200PV1D20190202000060SPEAKER ASM                   M IMCTM S5MA14 TNTH  09020IMCT  S5 PTB  00005                    0400 SR        000000000000 DENSO TEN (THAILAND)190G21L0001002                                                                                                                              *          20190129 IMCT                IMCT                                                                                                                    WMF1901295.TXT
MDEDK1367031201902                D89828070200PV1D20190204000060SPEAKER ASM                   M IMCTM S5MA14 TNTH  09020IMCT  S5 PTB  00005                    0830 SR        000000000000 DENSO TEN (THAILAND)190H16L0001002                                                                                                                              *          20190129 IMCT                IMCT                                                                                                                    WMF1901295.TXT
MDEDK1367032201902                D89828070200PV1D20190204000060SPEAKER ASM                   M IMCTM S5MA14 TNTH  09020IMCT  S5 PTB  00005                    1300 SR        000000000000 DENSO TEN (THAILAND)190J25L0001002                                                                                                                              *          20190129 IMCT                IMCT                                                                                                                    WMF1901295.TXT
MDEDK1367033201902                D89828070200PV4D20190201000030SPEAKER ASM                   M IMCTM S0FR05 TNTH  09020IMCT  S0 PTB  00005                    2230 SR        000000000000 DENSO TEN (THAILAND)190F34U0002002                                                                                                                              *          20190129 IMCT                IMCT                                                                                                                    WMF1901295.TXT
MDEDK1367034201902                D89828070200PV4D20190202000030SPEAKER ASM                   M IMCTM S0FR05 TNTH  09020IMCT  S0 PTB  00005                    0400 SR        000000000000 DENSO TEN (THAILAND)190F44U0001001                                                                                                                              *          20190129 IMCT                IMCT                                                                                                                    WMF1901295.TXT
MDEDK1367035201902                D89828070200PV4D20190204000030SPEAKER ASM                   M IMCTM S0FR05 TNTH  09020IMCT  S0 PTB  00005                    0830 SR        000000000000 DENSO TEN (THAILAND)190F34U0003003                                                                                                                              *          20190129 IMCT                IMCT                                                                                                                    WMF1901295.TXT
MDEDK1367036201902                D89828070200PV4D20190204000060SPEAKER ASM                   M IMCTM S0FR05 TNTH  09020IMCT  S0 PTB  00005                    1300 SR        000000000000 DENSO TEN (THAILAND)190F44U0002002190K86U0001001                                                                                                                *          20190129 IMCT                IMCT                                                                                                                    WMF1901295.TXT
MDEDK1367037201902                D89828070300PT1D20190201000060SPEAKER ASM                   M IMCTM S5NB082TNTH  09020IMCT  S5 PTB  00015                    2230 SR        000000000000 DENSO TEN (THAILAND)190F91L0003004                                                                                                                              *          20190129 IMCT                IMCT                                                                                                                    WMF1901295.TXT
MDEDK1367038201902                D89828070300PT1D20190202000060SPEAKER ASM                   M IMCTM S5NB082TNTH  09020IMCT  S5 PTB  00015                    0400 SR        000000000000 DENSO TEN (THAILAND)190G21L0001002                                                                                                                              *          20190129 IMCT                IMCT                                                                                                                    WMF1901295.TXT
MDEDK1367039201902                D89828070300PT1D20190204000060SPEAKER ASM                   M IMCTM S5NB082TNTH  09020IMCT  S5 PTB  00015                    0830 SR        000000000000 DENSO TEN (THAILAND)190H16L0001002                                                                                                                              *          20190129 IMCT                IMCT                                                                                                                    WMF1901295.TXT
MDEDK1367040201902                D89828070300PT1D20190204000060SPEAKER ASM                   M IMCTM S5NB082TNTH  09020IMCT  S5 PTB  00015                    1300 SR        000000000000 DENSO TEN (THAILAND)190J25L0001002                                                                                                                              *          20190129 IMCT                IMCT                                                                                                                    WMF1901295.TXT
MDEDK1367041201902                D89828070300PT4D20190201000030SPEAKER ASM                   M IMCTM S9TS02 TNTH  09020IMCT  S9 PTB  00015                    2230 SR        000000000000 DENSO TEN (THAILAND)190F34U0002002                                                                                                                              *          20190129 IMCT                IMCT                                                                                                                    WMF1901295.TXT
MDEDK1367042201902                D89828070300PT4D20190202000030SPEAKER ASM                   M IMCTM S9TS02 TNTH  09020IMCT  S9 PTB  00015                    0400 SR        000000000000 DENSO TEN (THAILAND)190F44U0001001                                                                                                                              *          20190129 IMCT                IMCT                                                                                                                    WMF1901295.TXT
MDEDK1367043201902                D89828070300PT4D20190204000030SPEAKER ASM                   M IMCTM S9TS02 TNTH  09020IMCT  S9 PTB  00015                    0830 SR        000000000000 DENSO TEN (THAILAND)190F34U0003003                                                                                                                              *          20190129 IMCT                IMCT                                                                                                                    WMF1901295.TXT
MDEDK1367044201902                D89828070300PT4D20190204000060SPEAKER ASM                   M IMCTM S9TS02 TNTH  09020IMCT  S9 PTB  00015                    1300 SR        000000000000 DENSO TEN (THAILAND)190F44U0002002190K86U0001001                                                                                                                *          20190129 IMCT                IMCT                                                                                                                    WMF1901295.TXT
MDEDK1367045201902                D89831229010PT4D20190201000015RADIO;AM/FM,CD                M IMCTM S9CO001TNTH  09020IMCT  S9 PTB  00003                    2230 SR        000000000000 DENSO TEN (THAILAND)190F34U0002002                                                                                                                              *          20190129 IMCT                IMCT                                                                                                                    WMF1901295.TXT
MDEDK1367046201902                D89831229010PT4D20190204000015RADIO;AM/FM,CD                M IMCTM S9CO001TNTH  09020IMCT  S9 PTB  00003                    0830 SR        000000000000 DENSO TEN (THAILAND)190F34U0003003                                                                                                                              *          20190129 IMCT                IMCT                                                                                                                    WMF1901295.TXT
MDEDK1367047201902                D89831229010PT4D20190204000015RADIO;AM/FM,CD                M IMCTM S9CO001TNTH  09020IMCT  S9 PTB  00003                    1300 SR        000000000000 DENSO TEN (THAILAND)190K86U0001001                                                                                                                              *          20190129 IMCT                IMCT                                                                                                                    WMF1901295.TXT
MDEDK1367048201902                D89848582010PT4D20190202000015RADIO;AM/FM CD D              M IMCTM S9CO001TNTH  09020IMCT  S9 PTB  00003                    0400 SR        000000000000 DENSO TEN (THAILAND)190F44U0001001                                                                                                                              *          20190129 IMCT                IMCT                                                                                                                    WMF1901295.TXT
MDEDK1367049201902                D89848582010PT4D20190204000015RADIO;AM/FM CD D              M IMCTM S9CO001TNTH  09020IMCT  S9 PTB  00003                    1300 SR        000000000000 DENSO TEN (THAILAND)190F44U0002002                                                                                                                              *          20190129 IMCT                IMCT                                                                                                                    WMF1901295.TXT
MDEDK1367050201902                D89848582100PT1D20190204000030RADIO;AM/FM CD D              M IMCTM S5NC06 TNTH  09020IMCT  S5 PTB  00003                    0830 SR        000000000000 DENSO TEN (THAILAND)190H16L0001002                                                                                                                              *          20190129 IMCT                IMCT                                                                                                                    WMF1901295.TXT
