REC2019011420190114ISUZU                              59     
MDDDK1241624201901                D89821984430PT1D20190117000030RADIO;AM/FM,CD                M IMCTM S5NC06 TNTH  09020IMCT  S5 PTB  00005                    2230 SR        000000000000 DENSO TEN (THAILAND)190MRBL0020020                                                                                                                              *          20190114 IMCT                IMCT                                                                                                                    WMF1901143.TXT
MDDDK1241625201901                D89821984430PT1D20190118000030RADIO;AM/FM,CD                M IMCTM S5NC06 TNTH  09020IMCT  S5 PTB  00005                    0830 SR        000000000000 DENSO TEN (THAILAND)190MXEL0026026                                                                                                                              *          20190114 IMCT                IMCT                                                                                                                    WMF1901143.TXT
MDDDK1241626201901                D89821984430PT1D20190118000060RADIO;AM/FM,CD                M IMCTM S5NC06 TNTH  09020IMCT  S5 PTB  00005                    1600 SR        000000000000 DENSO TEN (THAILAND)190MNGL0059059190MYAL0100100                                                                                                                *          20190114 IMCT                IMCT                                                                                                                    WMF1901143.TXT
MDDDK1241627201901                D89828070100PV1D20190117000120SPEAKER ASM                   M IMCTM S5MB11 TNTH  09020IMCT  S5 PTB  00004                    2230 SR        000000000000 DENSO TEN (THAILAND)190MPLL0011011190MRBL0020020                                                                                                                *          20190114 IMCT                IMCT                                                                                                                    WMF1901143.TXT
MDDDK1241628201901                D89828070100PV1D20190118000060SPEAKER ASM                   M IMCTM S5MB11 TNTH  09020IMCT  S5 PTB  00004                    0830 SR        000000000000 DENSO TEN (THAILAND)190MXEL0026026                                                                                                                              *          20190114 IMCT                IMCT                                                                                                                    WMF1901143.TXT
MDDDK1241629201901                D89828070100PV1D20190118000060SPEAKER ASM                   M IMCTM S5MB11 TNTH  09020IMCT  S5 PTB  00004                    1030 SR        000000000000 DENSO TEN (THAILAND)190MPCL0031031                                                                                                                              *          20190114 IMCT                IMCT                                                                                                                    WMF1901143.TXT
MDDDK1241630201901                D89828070100PV1D20190118000060SPEAKER ASM                   M IMCTM S5MB11 TNTH  09020IMCT  S5 PTB  00004                    1300 SR        000000000000 DENSO TEN (THAILAND)190MPFL0037037                                                                                                                              *          20190114 IMCT                IMCT                                                                                                                    WMF1901143.TXT
MDDDK1241631201901                D89828070100PV1D20190118000180SPEAKER ASM                   M IMCTM S5MB11 TNTH  09020IMCT  S5 PTB  00004                    1600 SR        000000000000 DENSO TEN (THAILAND)190MNGL0059059190MPGL0099099190MYAL0100100                                                                                                  *          20190114 IMCT                IMCT                                                                                                                    WMF1901143.TXT
MDDDK1241632201901                D89828070100PV1D20190118000060SPEAKER ASM                   M IMCTM S5MB11 TNTH  09020IMCT  S5 PTB  00004                    2100 SR        000000000000 DENSO TEN (THAILAND)190MXAL0025025                                                                                                                              *          20190114 IMCT                IMCT                                                                                                                    WMF1901143.TXT
MDDDK1241633201901                D89828070100PV4D20190118000060SPEAKER ASM                   M IMCTM S0FL05 TNTH  09020IMCT  S0 PTB  00004                    1300 SR        000000000000 DENSO TEN (THAILAND)190MRWU0029029                                                                                                                              *          20190114 IMCT                IMCT                                                                                                                    WMF1901143.TXT
MDDDK1241634201901                D89828070200PV4D20190118000060SPEAKER ASM                   M IMCTM S0FR05 TNTH  09020IMCT  S0 PTB  00005                    1300 SR        000000000000 DENSO TEN (THAILAND)190MRWU0029029                                                                                                                              *          20190114 IMCT                IMCT                                                                                                                    WMF1901143.TXT
MDDDK1241635201901                D89828070300PT1D20190117000060SPEAKER ASM                   M IMCTM S5NB082TNTH  09020IMCT  S5 PTB  00015                    2230 SR        000000000000 DENSO TEN (THAILAND)190MPLL0011011                                                                                                                              *          20190114 IMCT                IMCT                                                                                                                    WMF1901143.TXT
MDDDK1241636201901                D89828070300PT1D20190118000060SPEAKER ASM                   M IMCTM S5NB082TNTH  09020IMCT  S5 PTB  00015                    1030 SR        000000000000 DENSO TEN (THAILAND)190MPCL0031031                                                                                                                              *          20190114 IMCT                IMCT                                                                                                                    WMF1901143.TXT
MDDDK1241637201901                D89828070300PT1D20190118000060SPEAKER ASM                   M IMCTM S5NB082TNTH  09020IMCT  S5 PTB  00015                    1300 SR        000000000000 DENSO TEN (THAILAND)190MPFL0037037                                                                                                                              *          20190114 IMCT                IMCT                                                                                                                    WMF1901143.TXT
MDDDK1241638201901                D89828070300PT1D20190118000060SPEAKER ASM                   M IMCTM S5NB082TNTH  09020IMCT  S5 PTB  00015                    1600 SR        000000000000 DENSO TEN (THAILAND)190MPGL0099099                                                                                                                              *          20190114 IMCT                IMCT                                                                                                                    WMF1901143.TXT
MDDDK1241639201901                D89828070300PT4D20190118000060SPEAKER ASM                   M IMCTM S9TS02 TNTH  09020IMCT  S9 PTB  00015                    1300 SR        000000000000 DENSO TEN (THAILAND)190MRWU0029029                                                                                                                              *          20190114 IMCT                IMCT                                                                                                                    WMF1901143.TXT
MDDDK1241640201901                D89831228300PT1D20190118000030RADIO;AM/FM,CD                M IMCTM S5NC06 TNTH  09020IMCT  S5 CPB  00003                    1030 SR        000000000000 DENSO TEN (THAILAND)190MPCL0031031                                                                                                                              *          20190114 IMCT                IMCT                                                                                                                    WMF1901143.TXT
MDDDK1241641201901                D89831228300PT1D20190118000030RADIO;AM/FM,CD                M IMCTM S5NC06 TNTH  09020IMCT  S5 CPB  00003                    1300 SR        000000000000 DENSO TEN (THAILAND)190MPFL0037037                                                                                                                              *          20190114 IMCT                IMCT                                                                                                                    WMF1901143.TXT
MDDDK1241642201901                D89831228300PT1D20190118000030RADIO;AM/FM,CD                M IMCTM S5NC06 TNTH  09020IMCT  S5 CPB  00003                    1600 SR        000000000000 DENSO TEN (THAILAND)190MPGL0099099                                                                                                                              *          20190114 IMCT                IMCT                                                                                                                    WMF1901143.TXT
MDDDK1241643201901                D89848581600PT1D20190117000030RADIO;AM/FM CD D              M IMCTM S5NC06 TNTH  09020IMCT  S5 PTB  00003                    2230 SR        000000000000 DENSO TEN (THAILAND)190MPLL0011011                                                                                                                              *          20190114 IMCT                IMCT                                                                                                                    WMF1901143.TXT
MDDUK1205821201901                D89828070100PT4U20190118000030SPEAKER ASM                   M IMCTM S0FL05 TNTH  09020IMCT  S0 PTB  00004                    0830 SR        000000000000 DENSO TEN (THAILAND)190MUGU0001001                                                                                                                              *          20190114 IMCT                IMCT                                                                                                                    WMF1901143.TXT
MDDUK1205822201901                D89828070200PV4U20190118000030SPEAKER ASM                   M IMCTM S0FR05 TNTH  09020IMCT  S0 PTB  00005                    0830 SR        000000000000 DENSO TEN (THAILAND)190MUGU0001001                                                                                                                              *          20190114 IMCT                IMCT                                                                                                                    WMF1901143.TXT
MDDUK1205823201901                D89828070300PT4U20190118000030SPEAKER ASM                   M IMCTM S9TS02 TNTH  09020IMCT  S9 PTB  00015                    0830 SR        000000000000 DENSO TEN (THAILAND)190MUGU0001001                                                                                                                              *          20190114 IMCT                IMCT                                                                                                                    WMF1901143.TXT
MDEDK1255661201901                D89828070100PV1D20190118000030SPEAKER ASM                   M IMCTM S5MB11 TNTH  09020IMCT  S5 PTB  00004                    0230 SR        000000000000 DENSO TEN (THAILAND)190J85L0005005                                                                                                                              *          20190114 IMCT                IMCT                                                                                                                    WMF1901143.TXT
MDEDK1255662201901                D89828070100PV1D20190118000090SPEAKER ASM                   M IMCTM S5MB11 TNTH  09020IMCT  S5 PTB  00004                    0400 SR        000000000000 DENSO TEN (THAILAND)190H68L0001001190J94L0051052                                                                                                                *          20190114 IMCT                IMCT                                                                                                                    WMF1901143.TXT
MDEDK1255663201901                D89828070100PV1D20190118000030SPEAKER ASM                   M IMCTM S5MB11 TNTH  09020IMCT  S5 PTB  00004                    0830 SR        000000000000 DENSO TEN (THAILAND)190H68L0002002                                                                                                                              *          20190114 IMCT                IMCT                                                                                                                    WMF1901143.TXT
MDEDK1255664201901                D89828070100PV1D20190118000060SPEAKER ASM                   M IMCTM S5MB11 TNTH  09020IMCT  S5 PTB  00004                    1300 SR        000000000000 DENSO TEN (THAILAND)190F44L0001001190J85L0006006                                                                                                                *          20190114 IMCT                IMCT                                                                                                                    WMF1901143.TXT
MDEDK1255665201901                D89828070100PV1D20190118000030SPEAKER ASM                   M IMCTM S5MB11 TNTH  09020IMCT  S5 PTB  00004                    2100 SR        000000000000 DENSO TEN (THAILAND)190F86L0064064                                                                                                                              *          20190114 IMCT                IMCT                                                                                                                    WMF1901143.TXT
MDEDK1255666201901                D89828070100PV4D20190117000030SPEAKER ASM                   M IMCTM S0FL05 TNTH  09020IMCT  S0 PTB  00004                    2230 SR        000000000000 DENSO TEN (THAILAND)190F86U0013013                                                                                                                              *          20190114 IMCT                IMCT                                                                                                                    WMF1901143.TXT
MDEDK1255667201901                D89828070100PV4D20190118000030SPEAKER ASM                   M IMCTM S0FL05 TNTH  09020IMCT  S0 PTB  00004                    0230 SR        000000000000 DENSO TEN (THAILAND)190D39U0002002                                                                                                                              *          20190114 IMCT                IMCT                                                                                                                    WMF1901143.TXT
MDEDK1255668201901                D89828070100PV4D20190118000060SPEAKER ASM                   M IMCTM S0FL05 TNTH  09020IMCT  S0 PTB  00004                    0400 SR        000000000000 DENSO TEN (THAILAND)180J66U0001001190K21U0008008                                                                                                                *          20190114 IMCT                IMCT                                                                                                                    WMF1901143.TXT
MDEDK1255669201901                D89828070100PV4D20190118000030SPEAKER ASM                   M IMCTM S0FL05 TNTH  09020IMCT  S0 PTB  00004                    1030 SR        000000000000 DENSO TEN (THAILAND)190K19U0019019                                                                                                                              *          20190114 IMCT                IMCT                                                                                                                    WMF1901143.TXT
MDEDK1255670201901                D89828070100PV4D20190118000060SPEAKER ASM                   M IMCTM S0FL05 TNTH  09020IMCT  S0 PTB  00004                    1600 SR        000000000000 DENSO TEN (THAILAND)190H87U0002002190K21U0009009                                                                                                                *          20190114 IMCT                IMCT                                                                                                                    WMF1901143.TXT
MDEDK1255671201901                D89828070100PV4D20190118000030SPEAKER ASM                   M IMCTM S0FL05 TNTH  09020IMCT  S0 PTB  00004                    2230 SR        000000000000 DENSO TEN (THAILAND)190K16U0008008                                                                                                                              *          20190114 IMCT                IMCT                                                                                                                    WMF1901143.TXT
MDEDK1255672201901                D89828070200PV1D20190118000030SPEAKER ASM                   M IMCTM S5MA14 TNTH  09020IMCT  S5 PTB  00005                    1300 SR        000000000000 DENSO TEN (THAILAND)190F44L0001001                                                                                                                              *          20190114 IMCT                IMCT                                                                                                                    WMF1901143.TXT
MDEDK1255673201901                D89828070200PV4D20190118000030SPEAKER ASM                   M IMCTM S0FR05 TNTH  09020IMCT  S0 PTB  00005                    0230 SR        000000000000 DENSO TEN (THAILAND)190D39U0002002                                                                                                                              *          20190114 IMCT                IMCT                                                                                                                    WMF1901143.TXT
MDEDK1255674201901                D89828070200PV4D20190118000060SPEAKER ASM                   M IMCTM S0FR05 TNTH  09020IMCT  S0 PTB  00005                    0400 SR        000000000000 DENSO TEN (THAILAND)180J66U0001001190K21U0008008                                                                                                                *          20190114 IMCT                IMCT                                                                                                                    WMF1901143.TXT
MDEDK1255675201901                D89828070200PV4D20190118000030SPEAKER ASM                   M IMCTM S0FR05 TNTH  09020IMCT  S0 PTB  00005                    1030 SR        000000000000 DENSO TEN (THAILAND)190K19U0019019                                                                                                                              *          20190114 IMCT                IMCT                                                                                                                    WMF1901143.TXT
MDEDK1255676201901                D89828070200PV4D20190118000060SPEAKER ASM                   M IMCTM S0FR05 TNTH  09020IMCT  S0 PTB  00005                    1600 SR        000000000000 DENSO TEN (THAILAND)190H87U0002002190K21U0009009                                                                                                                *          20190114 IMCT                IMCT                                                                                                                    WMF1901143.TXT
MDEDK1255677201901                D89828070200PV4D20190118000030SPEAKER ASM                   M IMCTM S0FR05 TNTH  09020IMCT  S0 PTB  00005                    2230 SR        000000000000 DENSO TEN (THAILAND)190K16U0008008                                                                                                                              *          20190114 IMCT                IMCT                                                                                                                    WMF1901143.TXT
MDEDK1255678201901                D89828070300PT1D20190118000030SPEAKER ASM                   M IMCTM S5NB082TNTH  09020IMCT  S5 PTB  00015                    0400 SR        000000000000 DENSO TEN (THAILAND)190H68L0001001                                                                                                                              *          20190114 IMCT                IMCT                                                                                                                    WMF1901143.TXT
MDEDK1255679201901                D89828070300PT1D20190118000030SPEAKER ASM                   M IMCTM S5NB082TNTH  09020IMCT  S5 PTB  00015                    0830 SR        000000000000 DENSO TEN (THAILAND)190H68L0002002                                                                                                                              *          20190114 IMCT                IMCT                                                                                                                    WMF1901143.TXT
MDEDK1255680201901                D89828070300PT1D20190118000030SPEAKER ASM                   M IMCTM S5NB082TNTH  09020IMCT  S5 PTB  00015                    1300 SR        000000000000 DENSO TEN (THAILAND)190F44L0001001                                                                                                                              *          20190114 IMCT                IMCT                                                                                                                    WMF1901143.TXT
MDEDK1255681201901                D89828070300PT4D20190118000030SPEAKER ASM                   M IMCTM S9TS02 TNTH  09020IMCT  S9 PTB  00015                    0230 SR        000000000000 DENSO TEN (THAILAND)190D39U0002002                                                                                                                              *          20190114 IMCT                IMCT                                                                                                                    WMF1901143.TXT
MDEDK1255682201901                D89828070300PT4D20190118000060SPEAKER ASM                   M IMCTM S9TS02 TNTH  09020IMCT  S9 PTB  00015                    0400 SR        000000000000 DENSO TEN (THAILAND)180J66U0001001190K21U0008008                                                                                                                *          20190114 IMCT                IMCT                                                                                                                    WMF1901143.TXT
MDEDK1255683201901                D89828070300PT4D20190118000030SPEAKER ASM                   M IMCTM S9TS02 TNTH  09020IMCT  S9 PTB  00015                    1030 SR        000000000000 DENSO TEN (THAILAND)190K19U0019019                                                                                                                              *          20190114 IMCT                IMCT                                                                                                                    WMF1901143.TXT
MDEDK1255684201901                D89828070300PT4D20190118000060SPEAKER ASM                   M IMCTM S9TS02 TNTH  09020IMCT  S9 PTB  00015                    1600 SR        000000000000 DENSO TEN (THAILAND)190H87U0002002190K21U0009009                                                                                                                *          20190114 IMCT                IMCT                                                                                                                    WMF1901143.TXT
MDEDK1255685201901                D89828070300PT4D20190118000030SPEAKER ASM                   M IMCTM S9TS02 TNTH  09020IMCT  S9 PTB  00015                    2230 SR        000000000000 DENSO TEN (THAILAND)190K16U0008008                                                                                                                              *          20190114 IMCT                IMCT                                                                                                                    WMF1901143.TXT
MDEDK1255686201901                D89831228700PT1D20190118000015RADIO;AM/FM,CD                M IMCTM S5NC06 TNTH  09020IMCT  S5 PTB  00003                    0400 SR        000000000000 DENSO TEN (THAILAND)190H68L0001001                                                                                                                              *          20190114 IMCT                IMCT                                                                                                                    WMF1901143.TXT
MDEDK1255687201901                D89831228700PT1D20190118000015RADIO;AM/FM,CD                M IMCTM S5NC06 TNTH  09020IMCT  S5 PTB  00003                    0830 SR        000000000000 DENSO TEN (THAILAND)190H68L0002002                                                                                                                              *          20190114 IMCT                IMCT                                                                                                                    WMF1901143.TXT
MDEDK1255688201901                D89831228800PT4D20190118000015RADIO;AM/FM,CD                M IMCTM S9CO001TNTH  09020IMCT  S9 PTB  00003                    1600 SR        000000000000 DENSO TEN (THAILAND)190H87U0002002                                                                                                                              *          20190114 IMCT                IMCT                                                                                                                    WMF1901143.TXT
MDEDK1255689201901                D89838031200PT4D20190118000015RADIO;ASM DVD                 M IMCTM S9CO001TNTH  09020IMCT  S9 PTB  00003                    0400 SR        000000000000 DENSO TEN (THAILAND)190K21U0008008                                                                                                                              *          20190114 IMCT                IMCT                                                                                                                    WMF1901143.TXT
MDEDK1255690201901                D89838031200PT4D20190118000015RADIO;ASM DVD                 M IMCTM S9CO001TNTH  09020IMCT  S9 PTB  00003                    1030 SR        000000000000 DENSO TEN (THAILAND)190K19U0019019                                                                                                                              *          20190114 IMCT                IMCT                                                                                                                    WMF1901143.TXT
MDEDK1255691201901                D89838031200PT4D20190118000015RADIO;ASM DVD                 M IMCTM S9CO001TNTH  09020IMCT  S9 PTB  00003                    1600 SR        000000000000 DENSO TEN (THAILAND)190K21U0009009                                                                                                                              *          20190114 IMCT                IMCT                                                                                                                    WMF1901143.TXT
MDEDK1255692201901                D89838031200PT4D20190118000015RADIO;ASM DVD                 M IMCTM S9CO001TNTH  09020IMCT  S9 PTB  00003                    2230 SR        000000000000 DENSO TEN (THAILAND)190K16U0008008                                                                                                                              *          20190114 IMCT                IMCT                                                                                                                    WMF1901143.TXT
MDEDK1255693201901                D89848582010PT1D20190118000015RADIO;AM/FM CD D              M IMCTM S5NC06 TNTH  09020IMCT  S5 PTB  00003                    1300 SR        000000000000 DENSO TEN (THAILAND)190F44L0001001                                                                                                                              *          20190114 IMCT                IMCT                                                                                                                    WMF1901143.TXT
MDEUK1207879201901                D89828070100PT4U20190118000030SPEAKER ASM                   M IMCTM S0FL05 TNTH  09020IMCT  S0 PTB  00004                    1600 SR        000000000000 DENSO TEN (THAILAND)190G76U0012012                                                                                                                              *          20190114 IMCT                IMCT                                                                                                                    WMF1901143.TXT
MDEUK1207880201901                D89828070200PV4U20190118000030SPEAKER ASM                   M IMCTM S0FR05 TNTH  09020IMCT  S0 PTB  00005                    1600 SR        000000000000 DENSO TEN (THAILAND)190G76U0012012                                                                                                                              *          20190114 IMCT                IMCT                                                                                                                    WMF1901143.TXT
MDEUK1207881201901                D89828070300PT4U20190118000030SPEAKER ASM                   M IMCTM S9TS02 TNTH  09020IMCT  S9 PTB  00015                    1600 SR        000000000000 DENSO TEN (THAILAND)190G76U0012012                                                                                                                              *          20190114 IMCT                IMCT                                                                                                                    WMF1901143.TXT
