REC2019011120190111ISUZU                              71     
MDDDK1229355201901                D89821984430PT1D20190115000030RADIO;AM/FM,CD                M IMCTM S5NC06 TNTH  09020IMCT  S5 PTB  00005                    2230 SR        000000000000 DENSO TEN (THAILAND)190MXEL0024024                                                                                                                              *          20190111 IMCT                IMCT                                                                                                                    WMF1901119.TXT
MDDDK1229356201901                D89821984430PT1D20190116000030RADIO;AM/FM,CD                M IMCTM S5NC06 TNTH  09020IMCT  S5 PTB  00005                    0400 SR        000000000000 DENSO TEN (THAILAND)190MYAL0098098                                                                                                                              *          20190111 IMCT                IMCT                                                                                                                    WMF1901119.TXT
MDDDK1229357201901                D89821984430PT1D20190116000030RADIO;AM/FM,CD                M IMCTM S5NC06 TNTH  09020IMCT  S5 PTB  00005                    1300 SR        000000000000 DENSO TEN (THAILAND)190MXEL0025025                                                                                                                              *          20190111 IMCT                IMCT                                                                                                                    WMF1901119.TXT
MDDDK1229358201901                D89828070100PV1D20190115000060SPEAKER ASM                   M IMCTM S5MB11 TNTH  09020IMCT  S5 PTB  00004                    2230 SR        000000000000 DENSO TEN (THAILAND)190MXEL0024024                                                                                                                              *          20190111 IMCT                IMCT                                                                                                                    WMF1901119.TXT
MDDDK1229359201901                D89828070100PV1D20190116000060SPEAKER ASM                   M IMCTM S5MB11 TNTH  09020IMCT  S5 PTB  00004                    0230 SR        000000000000 DENSO TEN (THAILAND)190MPCL0030030                                                                                                                              *          20190111 IMCT                IMCT                                                                                                                    WMF1901119.TXT
MDDDK1229360201901                D89828070100PV1D20190116000060SPEAKER ASM                   M IMCTM S5MB11 TNTH  09020IMCT  S5 PTB  00004                    0400 SR        000000000000 DENSO TEN (THAILAND)190MYAL0098098                                                                                                                              *          20190111 IMCT                IMCT                                                                                                                    WMF1901119.TXT
MDDDK1229361201901                D89828070100PV1D20190116000060SPEAKER ASM                   M IMCTM S5MB11 TNTH  09020IMCT  S5 PTB  00004                    0830 SR        000000000000 DENSO TEN (THAILAND)190MPGL0095095                                                                                                                              *          20190111 IMCT                IMCT                                                                                                                    WMF1901119.TXT
MDDDK1229362201901                D89828070100PV1D20190116000060SPEAKER ASM                   M IMCTM S5MB11 TNTH  09020IMCT  S5 PTB  00004                    1030 SR        000000000000 DENSO TEN (THAILAND)190MPKL0019019                                                                                                                              *          20190111 IMCT                IMCT                                                                                                                    WMF1901119.TXT
MDDDK1229363201901                D89828070100PV1D20190116000060SPEAKER ASM                   M IMCTM S5MB11 TNTH  09020IMCT  S5 PTB  00004                    1300 SR        000000000000 DENSO TEN (THAILAND)190MXEL0025025                                                                                                                              *          20190111 IMCT                IMCT                                                                                                                    WMF1901119.TXT
MDDDK1229364201901                D89828070100PV1D20190116000120SPEAKER ASM                   M IMCTM S5MB11 TNTH  09020IMCT  S5 PTB  00004                    1600 SR        000000000000 DENSO TEN (THAILAND)190MPNL0011011190MPPL0008008                                                                                                                *          20190111 IMCT                IMCT                                                                                                                    WMF1901119.TXT
MDDDK1229365201901                D89828070100PV1D20190116000060SPEAKER ASM                   M IMCTM S5MB11 TNTH  09020IMCT  S5 PTB  00004                    2100 SR        000000000000 DENSO TEN (THAILAND)190MPQL0017017                                                                                                                              *          20190111 IMCT                IMCT                                                                                                                    WMF1901119.TXT
MDDDK1229366201901                D89828070100PV4D20190116000060SPEAKER ASM                   M IMCTM S0FL05 TNTH  09020IMCT  S0 PTB  00004                    2230 SR        000000000000 DENSO TEN (THAILAND)190MRWU0028028                                                                                                                              *          20190111 IMCT                IMCT                                                                                                                    WMF1901119.TXT
MDDDK1229367201901                D89828070200PV4D20190116000060SPEAKER ASM                   M IMCTM S0FR05 TNTH  09020IMCT  S0 PTB  00005                    2230 SR        000000000000 DENSO TEN (THAILAND)190MRWU0028028                                                                                                                              *          20190111 IMCT                IMCT                                                                                                                    WMF1901119.TXT
MDDDK1229368201901                D89828070300PT1D20190116000060SPEAKER ASM                   M IMCTM S5NB082TNTH  09020IMCT  S5 PTB  00015                    0230 SR        000000000000 DENSO TEN (THAILAND)190MPCL0030030                                                                                                                              *          20190111 IMCT                IMCT                                                                                                                    WMF1901119.TXT
MDDDK1229369201901                D89828070300PT1D20190116000060SPEAKER ASM                   M IMCTM S5NB082TNTH  09020IMCT  S5 PTB  00015                    0830 SR        000000000000 DENSO TEN (THAILAND)190MPGL0095095                                                                                                                              *          20190111 IMCT                IMCT                                                                                                                    WMF1901119.TXT
MDDDK1229370201901                D89828070300PT1D20190116000060SPEAKER ASM                   M IMCTM S5NB082TNTH  09020IMCT  S5 PTB  00015                    1030 SR        000000000000 DENSO TEN (THAILAND)190MPKL0019019                                                                                                                              *          20190111 IMCT                IMCT                                                                                                                    WMF1901119.TXT
MDDDK1229371201901                D89828070300PT1D20190116000120SPEAKER ASM                   M IMCTM S5NB082TNTH  09020IMCT  S5 PTB  00015                    1600 SR        000000000000 DENSO TEN (THAILAND)190MPNL0011011190MPPL0008008                                                                                                                *          20190111 IMCT                IMCT                                                                                                                    WMF1901119.TXT
MDDDK1229372201901                D89828070300PT1D20190116000060SPEAKER ASM                   M IMCTM S5NB082TNTH  09020IMCT  S5 PTB  00015                    2100 SR        000000000000 DENSO TEN (THAILAND)190MPQL0017017                                                                                                                              *          20190111 IMCT                IMCT                                                                                                                    WMF1901119.TXT
MDDDK1229373201901                D89828070300PT4D20190116000060SPEAKER ASM                   M IMCTM S9TS02 TNTH  09020IMCT  S9 PTB  00015                    2230 SR        000000000000 DENSO TEN (THAILAND)190MRWU0028028                                                                                                                              *          20190111 IMCT                IMCT                                                                                                                    WMF1901119.TXT
MDDDK1229374201901                D89831228300PT1D20190116000030RADIO;AM/FM,CD                M IMCTM S5NC06 TNTH  09020IMCT  S5 CPB  00003                    0230 SR        000000000000 DENSO TEN (THAILAND)190MPCL0030030                                                                                                                              *          20190111 IMCT                IMCT                                                                                                                    WMF1901119.TXT
MDDDK1229375201901                D89831228300PT1D20190116000030RADIO;AM/FM,CD                M IMCTM S5NC06 TNTH  09020IMCT  S5 CPB  00003                    0830 SR        000000000000 DENSO TEN (THAILAND)190MPGL0095095                                                                                                                              *          20190111 IMCT                IMCT                                                                                                                    WMF1901119.TXT
MDDDK1229376201901                D89848581600PT1D20190116000030RADIO;AM/FM CD D              M IMCTM S5NC06 TNTH  09020IMCT  S5 PTB  00003                    1030 SR        000000000000 DENSO TEN (THAILAND)190MPKL0019019                                                                                                                              *          20190111 IMCT                IMCT                                                                                                                    WMF1901119.TXT
MDDDK1229377201901                D89848581600PT1D20190116000030RADIO;AM/FM CD D              M IMCTM S5NC06 TNTH  09020IMCT  S5 PTB  00003                    2100 SR        000000000000 DENSO TEN (THAILAND)190MPQL0017017                                                                                                                              *          20190111 IMCT                IMCT                                                                                                                    WMF1901119.TXT
MDDUK1204020201901                D89828070100PT4U20190116000030SPEAKER ASM                   M IMCTM S0FL05 TNTH  09020IMCT  S0 PTB  00004                    0400 SR        000000000000 DENSO TEN (THAILAND)190MUEU0001001                                                                                                                              *          20190111 IMCT                IMCT                                                                                                                    WMF1901119.TXT
MDDUK1204021201901                D89828070200PV4U20190116000030SPEAKER ASM                   M IMCTM S0FR05 TNTH  09020IMCT  S0 PTB  00005                    0400 SR        000000000000 DENSO TEN (THAILAND)190MUEU0001001                                                                                                                              *          20190111 IMCT                IMCT                                                                                                                    WMF1901119.TXT
MDDUK1204022201901                D89828070300PT4U20190116000030SPEAKER ASM                   M IMCTM S9TS02 TNTH  09020IMCT  S9 PTB  00015                    0400 SR        000000000000 DENSO TEN (THAILAND)190MUEU0001001                                                                                                                              *          20190111 IMCT                IMCT                                                                                                                    WMF1901119.TXT
MDEDK1239158201901                D89828070100PV1D20190115000030SPEAKER ASM                   M IMCTM S5MB11 TNTH  09020IMCT  S5 PTB  00004                    2230 SR        000000000000 DENSO TEN (THAILAND)190J31L0001001                                                                                                                              *          20190111 IMCT                IMCT                                                                                                                    WMF1901119.TXT
MDEDK1239159201901                D89828070100PV1D20190116000030SPEAKER ASM                   M IMCTM S5MB11 TNTH  09020IMCT  S5 PTB  00004                    0230 SR        000000000000 DENSO TEN (THAILAND)190J75L0001001                                                                                                                              *          20190111 IMCT                IMCT                                                                                                                    WMF1901119.TXT
MDEDK1239160201901                D89828070100PV1D20190116000060SPEAKER ASM                   M IMCTM S5MB11 TNTH  09020IMCT  S5 PTB  00004                    0400 SR        000000000000 DENSO TEN (THAILAND)190D89L0001001190K07L0003003                                                                                                                *          20190111 IMCT                IMCT                                                                                                                    WMF1901119.TXT
MDEDK1239161201901                D89828070100PV1D20190116000030SPEAKER ASM                   M IMCTM S5MB11 TNTH  09020IMCT  S5 PTB  00004                    1030 SR        000000000000 DENSO TEN (THAILAND)190J91L0011011                                                                                                                              *          20190111 IMCT                IMCT                                                                                                                    WMF1901119.TXT
MDEDK1239162201901                D89828070100PV1D20190116000030SPEAKER ASM                   M IMCTM S5MB11 TNTH  09020IMCT  S5 PTB  00004                    1300 SR        000000000000 DENSO TEN (THAILAND)190K83L0005005                                                                                                                              *          20190111 IMCT                IMCT                                                                                                                    WMF1901119.TXT
MDEDK1239163201901                D89828070100PV1D20190116000090SPEAKER ASM                   M IMCTM S5MB11 TNTH  09020IMCT  S5 PTB  00004                    1600 SR        000000000000 DENSO TEN (THAILAND)190J92L0006007190K12L0027027                                                                                                                *          20190111 IMCT                IMCT                                                                                                                    WMF1901119.TXT
MDEDK1239164201901                D89828070100PV4D20190115000030SPEAKER ASM                   M IMCTM S0FL05 TNTH  09020IMCT  S0 PTB  00004                    2230 SR        000000000000 DENSO TEN (THAILAND)190D85U0001001                                                                                                                              *          20190111 IMCT                IMCT                                                                                                                    WMF1901119.TXT
MDEDK1239165201901                D89828070100PV4D20190116000030SPEAKER ASM                   M IMCTM S0FL05 TNTH  09020IMCT  S0 PTB  00004                    0230 SR        000000000000 DENSO TEN (THAILAND)190H28U0005005                                                                                                                              *          20190111 IMCT                IMCT                                                                                                                    WMF1901119.TXT
MDEDK1239166201901                D89828070100PV4D20190116000030SPEAKER ASM                   M IMCTM S0FL05 TNTH  09020IMCT  S0 PTB  00004                    0400 SR        000000000000 DENSO TEN (THAILAND)190K21U0004004                                                                                                                              *          20190111 IMCT                IMCT                                                                                                                    WMF1901119.TXT
MDEDK1239167201901                D89828070100PV4D20190116000030SPEAKER ASM                   M IMCTM S0FL05 TNTH  09020IMCT  S0 PTB  00004                    0830 SR        000000000000 DENSO TEN (THAILAND)190K19U0018018                                                                                                                              *          20190111 IMCT                IMCT                                                                                                                    WMF1901119.TXT
MDEDK1239168201901                D89828070100PV4D20190116000030SPEAKER ASM                   M IMCTM S0FL05 TNTH  09020IMCT  S0 PTB  00004                    1030 SR        000000000000 DENSO TEN (THAILAND)190J79U0001001                                                                                                                              *          20190111 IMCT                IMCT                                                                                                                    WMF1901119.TXT
MDEDK1239169201901                D89828070100PV4D20190116000030SPEAKER ASM                   M IMCTM S0FL05 TNTH  09020IMCT  S0 PTB  00004                    1300 SR        000000000000 DENSO TEN (THAILAND)190K21U0005005                                                                                                                              *          20190111 IMCT                IMCT                                                                                                                    WMF1901119.TXT
MDEDK1239170201901                D89828070100PV4D20190116000060SPEAKER ASM                   M IMCTM S0FL05 TNTH  09020IMCT  S0 PTB  00004                    1600 SR        000000000000 DENSO TEN (THAILAND)190F86U0012012190K16U0007007                                                                                                                *          20190111 IMCT                IMCT                                                                                                                    WMF1901119.TXT
MDEDK1239171201901                D89828070100PV4D20190116000030SPEAKER ASM                   M IMCTM S0FL05 TNTH  09020IMCT  S0 PTB  00004                    2100 SR        000000000000 DENSO TEN (THAILAND)190H82U0002002                                                                                                                              *          20190111 IMCT                IMCT                                                                                                                    WMF1901119.TXT
MDEDK1239172201901                D89828070200PV1D20190116000030SPEAKER ASM                   M IMCTM S5MA14 TNTH  09020IMCT  S5 PTB  00005                    1300 SR        000000000000 DENSO TEN (THAILAND)190K83L0005005                                                                                                                              *          20190111 IMCT                IMCT                                                                                                                    WMF1901119.TXT
MDEDK1239173201901                D89828070200PV4D20190115000030SPEAKER ASM                   M IMCTM S0FR05 TNTH  09020IMCT  S0 PTB  00005                    2230 SR        000000000000 DENSO TEN (THAILAND)190D85U0001001                                                                                                                              *          20190111 IMCT                IMCT                                                                                                                    WMF1901119.TXT
MDEDK1239174201901                D89828070200PV4D20190116000030SPEAKER ASM                   M IMCTM S0FR05 TNTH  09020IMCT  S0 PTB  00005                    0230 SR        000000000000 DENSO TEN (THAILAND)190H28U0005005                                                                                                                              *          20190111 IMCT                IMCT                                                                                                                    WMF1901119.TXT
MDEDK1239175201901                D89828070200PV4D20190116000030SPEAKER ASM                   M IMCTM S0FR05 TNTH  09020IMCT  S0 PTB  00005                    0400 SR        000000000000 DENSO TEN (THAILAND)190K21U0004004                                                                                                                              *          20190111 IMCT                IMCT                                                                                                                    WMF1901119.TXT
MDEDK1239176201901                D89828070200PV4D20190116000030SPEAKER ASM                   M IMCTM S0FR05 TNTH  09020IMCT  S0 PTB  00005                    0830 SR        000000000000 DENSO TEN (THAILAND)190K19U0018018                                                                                                                              *          20190111 IMCT                IMCT                                                                                                                    WMF1901119.TXT
MDEDK1239177201901                D89828070200PV4D20190116000030SPEAKER ASM                   M IMCTM S0FR05 TNTH  09020IMCT  S0 PTB  00005                    1030 SR        000000000000 DENSO TEN (THAILAND)190J79U0001001                                                                                                                              *          20190111 IMCT                IMCT                                                                                                                    WMF1901119.TXT
MDEDK1239178201901                D89828070200PV4D20190116000030SPEAKER ASM                   M IMCTM S0FR05 TNTH  09020IMCT  S0 PTB  00005                    1300 SR        000000000000 DENSO TEN (THAILAND)190K21U0005005                                                                                                                              *          20190111 IMCT                IMCT                                                                                                                    WMF1901119.TXT
MDEDK1239179201901                D89828070200PV4D20190116000030SPEAKER ASM                   M IMCTM S0FR05 TNTH  09020IMCT  S0 PTB  00005                    1600 SR        000000000000 DENSO TEN (THAILAND)190K16U0007007                                                                                                                              *          20190111 IMCT                IMCT                                                                                                                    WMF1901119.TXT
MDEDK1239180201901                D89828070300PT1D20190116000030SPEAKER ASM                   M IMCTM S5NB082TNTH  09020IMCT  S5 PTB  00015                    1300 SR        000000000000 DENSO TEN (THAILAND)190K83L0005005                                                                                                                              *          20190111 IMCT                IMCT                                                                                                                    WMF1901119.TXT
MDEDK1239181201901                D89828070300PT1D20190116000060SPEAKER ASM                   M IMCTM S5NB082TNTH  09020IMCT  S5 PTB  00015                    1600 SR        000000000000 DENSO TEN (THAILAND)190J92L0006007                                                                                                                              *          20190111 IMCT                IMCT                                                                                                                    WMF1901119.TXT
MDEDK1239182201901                D89828070300PT4D20190115000030SPEAKER ASM                   M IMCTM S9TS02 TNTH  09020IMCT  S9 PTB  00015                    2230 SR        000000000000 DENSO TEN (THAILAND)190D85U0001001                                                                                                                              *          20190111 IMCT                IMCT                                                                                                                    WMF1901119.TXT
MDEDK1239183201901                D89828070300PT4D20190116000030SPEAKER ASM                   M IMCTM S9TS02 TNTH  09020IMCT  S9 PTB  00015                    0230 SR        000000000000 DENSO TEN (THAILAND)190H28U0005005                                                                                                                              *          20190111 IMCT                IMCT                                                                                                                    WMF1901119.TXT
MDEDK1239184201901                D89828070300PT4D20190116000030SPEAKER ASM                   M IMCTM S9TS02 TNTH  09020IMCT  S9 PTB  00015                    0400 SR        000000000000 DENSO TEN (THAILAND)190K21U0004004                                                                                                                              *          20190111 IMCT                IMCT                                                                                                                    WMF1901119.TXT
MDEDK1239185201901                D89828070300PT4D20190116000030SPEAKER ASM                   M IMCTM S9TS02 TNTH  09020IMCT  S9 PTB  00015                    0830 SR        000000000000 DENSO TEN (THAILAND)190K19U0018018                                                                                                                              *          20190111 IMCT                IMCT                                                                                                                    WMF1901119.TXT
MDEDK1239186201901                D89828070300PT4D20190116000030SPEAKER ASM                   M IMCTM S9TS02 TNTH  09020IMCT  S9 PTB  00015                    1030 SR        000000000000 DENSO TEN (THAILAND)190J79U0001001                                                                                                                              *          20190111 IMCT                IMCT                                                                                                                    WMF1901119.TXT
MDEDK1239187201901                D89828070300PT4D20190116000030SPEAKER ASM                   M IMCTM S9TS02 TNTH  09020IMCT  S9 PTB  00015                    1300 SR        000000000000 DENSO TEN (THAILAND)190K21U0005005                                                                                                                              *          20190111 IMCT                IMCT                                                                                                                    WMF1901119.TXT
MDEDK1239188201901                D89828070300PT4D20190116000030SPEAKER ASM                   M IMCTM S9TS02 TNTH  09020IMCT  S9 PTB  00015                    1600 SR        000000000000 DENSO TEN (THAILAND)190K16U0007007                                                                                                                              *          20190111 IMCT                IMCT                                                                                                                    WMF1901119.TXT
MDEDK1239189201901                D89828070300PT4D20190116000030SPEAKER ASM                   M IMCTM S9TS02 TNTH  09020IMCT  S9 PTB  00015                    2100 SR        000000000000 DENSO TEN (THAILAND)190H82U0002002                                                                                                                              *          20190111 IMCT                IMCT                                                                                                                    WMF1901119.TXT
MDEDK1239190201901                D89831229200PT1D20190116000030RADIO;AM/FM,CD                M IMCTM S5NC06 TNTH  09020IMCT  S5 PTB  00003                    1600 SR        000000000000 DENSO TEN (THAILAND)190J92L0006007                                                                                                                              *          20190111 IMCT                IMCT                                                                                                                    WMF1901119.TXT
MDEDK1239191201901                D89838031200PT4D20190116000015RADIO;ASM DVD                 M IMCTM S9CO001TNTH  09020IMCT  S9 PTB  00003                    0400 SR        000000000000 DENSO TEN (THAILAND)190K21U0004004                                                                                                                              *          20190111 IMCT                IMCT                                                                                                                    WMF1901119.TXT
MDEDK1239192201901                D89838031200PT4D20190116000015RADIO;ASM DVD                 M IMCTM S9CO001TNTH  09020IMCT  S9 PTB  00003                    0830 SR        000000000000 DENSO TEN (THAILAND)190K19U0018018                                                                                                                              *          20190111 IMCT                IMCT                                                                                                                    WMF1901119.TXT
MDEDK1239193201901                D89838031200PT4D20190116000015RADIO;ASM DVD                 M IMCTM S9CO001TNTH  09020IMCT  S9 PTB  00003                    1030 SR        000000000000 DENSO TEN (THAILAND)190J79U0001001                                                                                                                              *          20190111 IMCT                IMCT                                                                                                                    WMF1901119.TXT
MDEDK1239194201901                D89838031200PT4D20190116000015RADIO;ASM DVD                 M IMCTM S9CO001TNTH  09020IMCT  S9 PTB  00003                    1300 SR        000000000000 DENSO TEN (THAILAND)190K21U0005005                                                                                                                              *          20190111 IMCT                IMCT                                                                                                                    WMF1901119.TXT
MDEDK1239195201901                D89838031200PT4D20190116000015RADIO;ASM DVD                 M IMCTM S9CO001TNTH  09020IMCT  S9 PTB  00003                    1600 SR        000000000000 DENSO TEN (THAILAND)190K16U0007007                                                                                                                              *          20190111 IMCT                IMCT                                                                                                                    WMF1901119.TXT
MDEDK1239196201901                D89848582010PT4D20190115000015RADIO;AM/FM CD D              M IMCTM S9CO001TNTH  09020IMCT  S9 PTB  00003                    2230 SR        000000000000 DENSO TEN (THAILAND)190D85U0001001                                                                                                                              *          20190111 IMCT                IMCT                                                                                                                    WMF1901119.TXT
MDEUK1205076201901                D89828070100PT4U20190116000030SPEAKER ASM                   M IMCTM S0FL05 TNTH  09020IMCT  S0 PTB  00004                    1300 SR        000000000000 DENSO TEN (THAILAND)190G76U0009009                                                                                                                              *          20190111 IMCT                IMCT                                                                                                                    WMF1901119.TXT
MDEUK1205077201901                D89828070100PT4U20190116000030SPEAKER ASM                   M IMCTM S0FL05 TNTH  09020IMCT  S0 PTB  00004                    1600 SR        000000000000 DENSO TEN (THAILAND)190G76U0010010                                                                                                                              *          20190111 IMCT                IMCT                                                                                                                    WMF1901119.TXT
MDEUK1205078201901                D89828070200PV4U20190116000030SPEAKER ASM                   M IMCTM S0FR05 TNTH  09020IMCT  S0 PTB  00005                    1300 SR        000000000000 DENSO TEN (THAILAND)190G76U0009009                                                                                                                              *          20190111 IMCT                IMCT                                                                                                                    WMF1901119.TXT
MDEUK1205079201901                D89828070200PV4U20190116000030SPEAKER ASM                   M IMCTM S0FR05 TNTH  09020IMCT  S0 PTB  00005                    1600 SR        000000000000 DENSO TEN (THAILAND)190G76U0010010                                                                                                                              *          20190111 IMCT                IMCT                                                                                                                    WMF1901119.TXT
MDEUK1205080201901                D89828070300PT4U20190116000030SPEAKER ASM                   M IMCTM S9TS02 TNTH  09020IMCT  S9 PTB  00015                    1300 SR        000000000000 DENSO TEN (THAILAND)190G76U0009009                                                                                                                              *          20190111 IMCT                IMCT                                                                                                                    WMF1901119.TXT
MDEUK1205081201901                D89828070300PT4U20190116000030SPEAKER ASM                   M IMCTM S9TS02 TNTH  09020IMCT  S9 PTB  00015                    1600 SR        000000000000 DENSO TEN (THAILAND)190G76U0010010                                                                                                                              *          20190111 IMCT                IMCT                                                                                                                    WMF1901119.TXT
