REC2019011820190118ISUZU                              18     
MAKK91059112201901D1               89825451200P3YK20190128000030SPEAKER ASM;ROOF              M IMCTM CM1    TNTH  09020IMKDC KA PTB  00036  K0                0911DES        000000000000 DENSO TEN (THAILAND)                                                                                                                                            *G         20190118 IMCT                IMCT                                                                                                                    WMF1901181.TXT
MAKK91059113201901D1               89825451200P3YK20190129000030SPEAKER ASM;ROOF              M IMCTM CM1    TNTH  09020IMKDC KA PTB  00036  K0                0911DES        000000000000 DENSO TEN (THAILAND)                                                                                                                                            *G         20190118 IMCT                IMCT                                                                                                                    WMF1901181.TXT
MAKK91059114201901D1               89825451200P3YK20190130000030SPEAKER ASM;ROOF              M IMCTM CM1    TNTH  09020IMKDC KA PTB  00036  K0                0911DES        000000000000 DENSO TEN (THAILAND)                                                                                                                                            *G         20190118 IMCT                IMCT                                                                                                                    WMF1901181.TXT
MAKK91059115201901D1               89828070100P3YK20190128000180SPEAKER ASM                   M IMCTM CM1    TNTH  09020IMKDC KA PTB  00004  K0                0911DES        000000000000 DENSO TEN (THAILAND)                                                                                                                                            *G         20190118 IMCT                IMCT                                                                                                                    WMF1901181.TXT
MAKK91059116201901D1               89828070100P3YK20190129000060SPEAKER ASM                   M IMCTM CM1    TNTH  09020IMKDC KA PTB  00004  K0                0911DES        000000000000 DENSO TEN (THAILAND)                                                                                                                                            *G         20190118 IMCT                IMCT                                                                                                                    WMF1901181.TXT
MAKK91059117201901D1               89828070100P3YK20190130000150SPEAKER ASM                   M IMCTM CM1    TNTH  09020IMKDC KA PTB  00004  K0                0911DES        000000000000 DENSO TEN (THAILAND)                                                                                                                                            *G         20190118 IMCT                IMCT                                                                                                                    WMF1901181.TXT
MAKK91059118201901D1               89828070100P3YK20190131000240SPEAKER ASM                   M IMCTM CM1    TNTH  09020IMKDC KA PTB  00004  K0                0911DES        000000000000 DENSO TEN (THAILAND)                                                                                                                                            *G         20190118 IMCT                IMCT                                                                                                                    WMF1901181.TXT
MAKK91059119201901D1               89828070100P3YK20190201000240SPEAKER ASM                   M IMCTM CM1    TNTH  09020IMKDC KA PTB  00004  K0                0911DES        000000000000 DENSO TEN (THAILAND)                                                                                                                                            *G         20190118 IMCT                IMCT                                                                                                                    WMF1901181.TXT
MAKK91059120201901D1               89828070200P3YK20190128000120SPEAKER ASM                   M IMCTM CM1    TNTH  09020IMKDC KA PTB  00005  K0                0911DES        000000000000 DENSO TEN (THAILAND)                                                                                                                                            *G         20190118 IMCT                IMCT                                                                                                                    WMF1901181.TXT
MAKK91059121201901D1               89828070200P3YK20190129000030SPEAKER ASM                   M IMCTM CM1    TNTH  09020IMKDC KA PTB  00005  K0                0911DES        000000000000 DENSO TEN (THAILAND)                                                                                                                                            *G         20190118 IMCT                IMCT                                                                                                                    WMF1901181.TXT
MAKK91059122201901D1               89828070200P3YK20190130000090SPEAKER ASM                   M IMCTM CM1    TNTH  09020IMKDC KA PTB  00005  K0                0911DES        000000000000 DENSO TEN (THAILAND)                                                                                                                                            *G         20190118 IMCT                IMCT                                                                                                                    WMF1901181.TXT
MAKK91059123201901D1               89828070200P3YK20190131000030SPEAKER ASM                   M IMCTM CM1    TNTH  09020IMKDC KA PTB  00005  K0                0911DES        000000000000 DENSO TEN (THAILAND)                                                                                                                                            *G         20190118 IMCT                IMCT                                                                                                                    WMF1901181.TXT
MAKK91059124201901D1               89828070200P3YK20190201000090SPEAKER ASM                   M IMCTM CM1    TNTH  09020IMKDC KA PTB  00005  K0                0911DES        000000000000 DENSO TEN (THAILAND)                                                                                                                                            *G         20190118 IMCT                IMCT                                                                                                                    WMF1901181.TXT
MAKK91059125201901D1               89828070300P3YK20190128000120SPEAKER ASM                   M IMCTM CM1    TNTH  09020IMKDC KA PTB  00015  K0                0911DES        000000000000 DENSO TEN (THAILAND)                                                                                                                                            *G         20190118 IMCT                IMCT                                                                                                                    WMF1901181.TXT
MAKK91059126201901D1               89828070300P3YK20190129000030SPEAKER ASM                   M IMCTM CM1    TNTH  09020IMKDC KA PTB  00015  K0                0911DES        000000000000 DENSO TEN (THAILAND)                                                                                                                                            *G         20190118 IMCT                IMCT                                                                                                                    WMF1901181.TXT
MAKK91059127201901D1               89828070300P3YK20190130000120SPEAKER ASM                   M IMCTM CM1    TNTH  09020IMKDC KA PTB  00015  K0                0911DES        000000000000 DENSO TEN (THAILAND)                                                                                                                                            *G         20190118 IMCT                IMCT                                                                                                                    WMF1901181.TXT
MAKK91059128201901D1               89828070300P3YK20190131000030SPEAKER ASM                   M IMCTM CM1    TNTH  09020IMKDC KA PTB  00015  K0                0911DES        000000000000 DENSO TEN (THAILAND)                                                                                                                                            *G         20190118 IMCT                IMCT                                                                                                                    WMF1901181.TXT
MAKK91059129201901D1               89828070300P3YK20190201000120SPEAKER ASM                   M IMCTM CM1    TNTH  09020IMKDC KA PTB  00015  K0                0911DES        000000000000 DENSO TEN (THAILAND)                                                                                                                                            *G         20190118 IMCT                IMCT                                                                                                                    WMF1901181.TXT
