REC2019013020190130ISUZU                              19     
MAKK91088068201901D1               89825451200P3YK20190211000090SPEAKER ASM;ROOF              M IMCTM CM1    TNTH  09020IMKDC KA PTB  00036  K0                0911DES        000000000000 DENSO TEN (THAILAND)                                                                                                                                            *G         20190130 IMCT                IMCT                                                                                                                    WMF1901305.TXT
MAKK91088069201901D1               89825451200P3YK20190213000030SPEAKER ASM;ROOF              M IMCTM CM1    TNTH  09020IMKDC KA PTB  00036  K0                0911DES        000000000000 DENSO TEN (THAILAND)                                                                                                                                            *G         20190130 IMCT                IMCT                                                                                                                    WMF1901305.TXT
MAKK91088070201901D1               89825451200P3YK20190214000030SPEAKER ASM;ROOF              M IMCTM CM1    TNTH  09020IMKDC KA PTB  00036  K0                0911DES        000000000000 DENSO TEN (THAILAND)                                                                                                                                            *G         20190130 IMCT                IMCT                                                                                                                    WMF1901305.TXT
MAKK91088071201901D1               89828070100P3YK20190211000270SPEAKER ASM                   M IMCTM CM1    TNTH  09020IMKDC KA PTB  00004  K0                0911DES        000000000000 DENSO TEN (THAILAND)                                                                                                                                            *G         20190130 IMCT                IMCT                                                                                                                    WMF1901305.TXT
MAKK91088072201901D1               89828070100P3YK20190212000270SPEAKER ASM                   M IMCTM CM1    TNTH  09020IMKDC KA PTB  00004  K0                0911DES        000000000000 DENSO TEN (THAILAND)                                                                                                                                            *G         20190130 IMCT                IMCT                                                                                                                    WMF1901305.TXT
MAKK91088073201901D1               89828070100P3YK20190213000180SPEAKER ASM                   M IMCTM CM1    TNTH  09020IMKDC KA PTB  00004  K0                0911DES        000000000000 DENSO TEN (THAILAND)                                                                                                                                            *G         20190130 IMCT                IMCT                                                                                                                    WMF1901305.TXT
MAKK91088074201901D1               89828070100P3YK20190214000240SPEAKER ASM                   M IMCTM CM1    TNTH  09020IMKDC KA PTB  00004  K0                0911DES        000000000000 DENSO TEN (THAILAND)                                                                                                                                            *G         20190130 IMCT                IMCT                                                                                                                    WMF1901305.TXT
MAKK91088075201901D1               89828070200P3YK20190211000120SPEAKER ASM                   M IMCTM CM1    TNTH  09020IMKDC KA PTB  00005  K0                0911DES        000000000000 DENSO TEN (THAILAND)                                                                                                                                            *G         20190130 IMCT                IMCT                                                                                                                    WMF1901305.TXT
MAKK91088076201901D1               89828070200P3YK20190212000150SPEAKER ASM                   M IMCTM CM1    TNTH  09020IMKDC KA PTB  00005  K0                0911DES        000000000000 DENSO TEN (THAILAND)                                                                                                                                            *G         20190130 IMCT                IMCT                                                                                                                    WMF1901305.TXT
MAKK91088077201901D1               89828070200P3YK20190213000030SPEAKER ASM                   M IMCTM CM1    TNTH  09020IMKDC KA PTB  00005  K0                0911DES        000000000000 DENSO TEN (THAILAND)                                                                                                                                            *G         20190130 IMCT                IMCT                                                                                                                    WMF1901305.TXT
MAKK91088078201901D1               89828070200P3YK20190214000120SPEAKER ASM                   M IMCTM CM1    TNTH  09020IMKDC KA PTB  00005  K0                0911DES        000000000000 DENSO TEN (THAILAND)                                                                                                                                            *G         20190130 IMCT                IMCT                                                                                                                    WMF1901305.TXT
MAKK91088079201901D1               89828070300P3YK20190211000120SPEAKER ASM                   M IMCTM CM1    TNTH  09020IMKDC KA PTB  00015  K0                0911DES        000000000000 DENSO TEN (THAILAND)                                                                                                                                            *G         20190130 IMCT                IMCT                                                                                                                    WMF1901305.TXT
MAKK91088080201901D1               89828070300P3YK20190212000180SPEAKER ASM                   M IMCTM CM1    TNTH  09020IMKDC KA PTB  00015  K0                0911DES        000000000000 DENSO TEN (THAILAND)                                                                                                                                            *G         20190130 IMCT                IMCT                                                                                                                    WMF1901305.TXT
MAKK91088081201901D1               89828070300P3YK20190213000060SPEAKER ASM                   M IMCTM CM1    TNTH  09020IMKDC KA PTB  00015  K0                0911DES        000000000000 DENSO TEN (THAILAND)                                                                                                                                            *G         20190130 IMCT                IMCT                                                                                                                    WMF1901305.TXT
MAKK91088082201901D1               89828070300P3YK20190214000120SPEAKER ASM                   M IMCTM CM1    TNTH  09020IMKDC KA PTB  00015  K0                0911DES        000000000000 DENSO TEN (THAILAND)                                                                                                                                            *G         20190130 IMCT                IMCT                                                                                                                    WMF1901305.TXT
MAKK91088083201901D1               89834050100P3YK20190214000015RADIO;ASM DVD                 M IMCTM CM1    TNTH  09020IMKDC KA PTB  00003  K0                0911DES        000000000000 DENSO TEN (THAILAND)                                                                                                                                            *G         20190130 IMCT                IMCT                                                                                                                    WMF1901305.TXT
MAKK91097222201901D1               89828070100P3YK20190215000150SPEAKER ASM                   M IMCTM CM1    TNTH  09020IMKDC KA PTB  00004  K0                0911DES        000000000000 DENSO TEN (THAILAND)                                                                                                                                            *G         20190130 IMCT                IMCT                                                                                                                    WMF1901305.TXT
MAKK91097223201901D1               89828070200P3YK20190215000090SPEAKER ASM                   M IMCTM CM1    TNTH  09020IMKDC KA PTB  00005  K0                0911DES        000000000000 DENSO TEN (THAILAND)                                                                                                                                            *G         20190130 IMCT                IMCT                                                                                                                    WMF1901305.TXT
MAKK91097224201901D1               89828070300P3YK20190215000090SPEAKER ASM                   M IMCTM CM1    TNTH  09020IMKDC KA PTB  00015  K0                0911DES        000000000000 DENSO TEN (THAILAND)                                                                                                                                            *G         20190130 IMCT                IMCT                                                                                                                    WMF1901305.TXT
