REC2019022120190221ISUZU                              19     
MAKK92084607201902D1               89825451200P3YK20190304000030SPEAKER ASM;ROOF              M IMCTM CM1    TNTH  09020IMKDC KA PTB  00036  K0                0911DES        000000000000 DENSO TEN (THAILAND)                                                                                                                                            *G         20190221 IMCT                IMCT                                                                                                                    WMF1902217.TXT
MAKK92084608201902D1               89825451200P3YK20190305000030SPEAKER ASM;ROOF              M IMCTM CM1    TNTH  09020IMKDC KA PTB  00036  K0                0911DES        000000000000 DENSO TEN (THAILAND)                                                                                                                                            *G         20190221 IMCT                IMCT                                                                                                                    WMF1902217.TXT
MAKK92084609201902D1               89825451200P3YK20190307000030SPEAKER ASM;ROOF              M IMCTM CM1    TNTH  09020IMKDC KA PTB  00036  K0                0911DES        000000000000 DENSO TEN (THAILAND)                                                                                                                                            *G         20190221 IMCT                IMCT                                                                                                                    WMF1902217.TXT
MAKK92084610201902D1               89825451200P3YK20190308000060SPEAKER ASM;ROOF              M IMCTM CM1    TNTH  09020IMKDC KA PTB  00036  K0                0911DES        000000000000 DENSO TEN (THAILAND)                                                                                                                                            *G         20190221 IMCT                IMCT                                                                                                                    WMF1902217.TXT
MAKK92084611201902D1               89828070100P3YK20190304000210SPEAKER ASM                   M IMCTM CM1    TNTH  09020IMKDC KA PTB  00004  K0                0911DES        000000000000 DENSO TEN (THAILAND)                                                                                                                                            *G         20190221 IMCT                IMCT                                                                                                                    WMF1902217.TXT
MAKK92084612201902D1               89828070100P3YK20190305000180SPEAKER ASM                   M IMCTM CM1    TNTH  09020IMKDC KA PTB  00004  K0                0911DES        000000000000 DENSO TEN (THAILAND)                                                                                                                                            *G         20190221 IMCT                IMCT                                                                                                                    WMF1902217.TXT
MAKK92084613201902D1               89828070100P3YK20190306000270SPEAKER ASM                   M IMCTM CM1    TNTH  09020IMKDC KA PTB  00004  K0                0911DES        000000000000 DENSO TEN (THAILAND)                                                                                                                                            *G         20190221 IMCT                IMCT                                                                                                                    WMF1902217.TXT
MAKK92084614201902D1               89828070100P3YK20190307000210SPEAKER ASM                   M IMCTM CM1    TNTH  09020IMKDC KA PTB  00004  K0                0911DES        000000000000 DENSO TEN (THAILAND)                                                                                                                                            *G         20190221 IMCT                IMCT                                                                                                                    WMF1902217.TXT
MAKK92084615201902D1               89828070100P3YK20190308000240SPEAKER ASM                   M IMCTM CM1    TNTH  09020IMKDC KA PTB  00004  K0                0911DES        000000000000 DENSO TEN (THAILAND)                                                                                                                                            *G         20190221 IMCT                IMCT                                                                                                                    WMF1902217.TXT
MAKK92084616201902D1               89828070200P3YK20190304000090SPEAKER ASM                   M IMCTM CM1    TNTH  09020IMKDC KA PTB  00005  K0                0911DES        000000000000 DENSO TEN (THAILAND)                                                                                                                                            *G         20190221 IMCT                IMCT                                                                                                                    WMF1902217.TXT
MAKK92084617201902D1               89828070200P3YK20190305000090SPEAKER ASM                   M IMCTM CM1    TNTH  09020IMKDC KA PTB  00005  K0                0911DES        000000000000 DENSO TEN (THAILAND)                                                                                                                                            *G         20190221 IMCT                IMCT                                                                                                                    WMF1902217.TXT
MAKK92084618201902D1               89828070200P3YK20190306000120SPEAKER ASM                   M IMCTM CM1    TNTH  09020IMKDC KA PTB  00005  K0                0911DES        000000000000 DENSO TEN (THAILAND)                                                                                                                                            *G         20190221 IMCT                IMCT                                                                                                                    WMF1902217.TXT
MAKK92084619201902D1               89828070200P3YK20190307000150SPEAKER ASM                   M IMCTM CM1    TNTH  09020IMKDC KA PTB  00005  K0                0911DES        000000000000 DENSO TEN (THAILAND)                                                                                                                                            *G         20190221 IMCT                IMCT                                                                                                                    WMF1902217.TXT
MAKK92084620201902D1               89828070200P3YK20190308000120SPEAKER ASM                   M IMCTM CM1    TNTH  09020IMKDC KA PTB  00005  K0                0911DES        000000000000 DENSO TEN (THAILAND)                                                                                                                                            *G         20190221 IMCT                IMCT                                                                                                                    WMF1902217.TXT
MAKK92084621201902D1               89828070300P3YK20190304000090SPEAKER ASM                   M IMCTM CM1    TNTH  09020IMKDC KA PTB  00015  K0                0911DES        000000000000 DENSO TEN (THAILAND)                                                                                                                                            *G         20190221 IMCT                IMCT                                                                                                                    WMF1902217.TXT
MAKK92084622201902D1               89828070300P3YK20190305000090SPEAKER ASM                   M IMCTM CM1    TNTH  09020IMKDC KA PTB  00015  K0                0911DES        000000000000 DENSO TEN (THAILAND)                                                                                                                                            *G         20190221 IMCT                IMCT                                                                                                                    WMF1902217.TXT
MAKK92084623201902D1               89828070300P3YK20190306000120SPEAKER ASM                   M IMCTM CM1    TNTH  09020IMKDC KA PTB  00015  K0                0911DES        000000000000 DENSO TEN (THAILAND)                                                                                                                                            *G         20190221 IMCT                IMCT                                                                                                                    WMF1902217.TXT
MAKK92084624201902D1               89828070300P3YK20190307000150SPEAKER ASM                   M IMCTM CM1    TNTH  09020IMKDC KA PTB  00015  K0                0911DES        000000000000 DENSO TEN (THAILAND)                                                                                                                                            *G         20190221 IMCT                IMCT                                                                                                                    WMF1902217.TXT
MAKK92084625201902D1               89828070300P3YK20190308000150SPEAKER ASM                   M IMCTM CM1    TNTH  09020IMKDC KA PTB  00015  K0                0911DES        000000000000 DENSO TEN (THAILAND)                                                                                                                                            *G         20190221 IMCT                IMCT                                                                                                                    WMF1902217.TXT
