REC2019021520190215ISUZU                              19     
MAKK92068309201902D1               89825451200P3YK20190225000030SPEAKER ASM;ROOF              M IMCTM CM1    TNTH  09020IMKDC KA PTB  00036  K0                0911DES        000000000000 DENSO TEN (THAILAND)                                                                                                                                            *G         20190215 IMCT                IMCT                                                                                                                    WMF1902153.TXT
MAKK92068310201902D1               89825451200P3YK20190226000030SPEAKER ASM;ROOF              M IMCTM CM1    TNTH  09020IMKDC KA PTB  00036  K0                0911DES        000000000000 DENSO TEN (THAILAND)                                                                                                                                            *G         20190215 IMCT                IMCT                                                                                                                    WMF1902153.TXT
MAKK92068311201902D1               89825451200P3YK20190227000030SPEAKER ASM;ROOF              M IMCTM CM1    TNTH  09020IMKDC KA PTB  00036  K0                0911DES        000000000000 DENSO TEN (THAILAND)                                                                                                                                            *G         20190215 IMCT                IMCT                                                                                                                    WMF1902153.TXT
MAKK92068312201902D1               89825451200P3YK20190228000090SPEAKER ASM;ROOF              M IMCTM CM1    TNTH  09020IMKDC KA PTB  00036  K0                0911DES        000000000000 DENSO TEN (THAILAND)                                                                                                                                            *G         20190215 IMCT                IMCT                                                                                                                    WMF1902153.TXT
MAKK92068313201902D1               89828070100P3YK20190225000210SPEAKER ASM                   M IMCTM CM1    TNTH  09020IMKDC KA PTB  00004  K0                0911DES        000000000000 DENSO TEN (THAILAND)                                                                                                                                            *G         20190215 IMCT                IMCT                                                                                                                    WMF1902153.TXT
MAKK92068314201902D1               89828070100P3YK20190226000120SPEAKER ASM                   M IMCTM CM1    TNTH  09020IMKDC KA PTB  00004  K0                0911DES        000000000000 DENSO TEN (THAILAND)                                                                                                                                            *G         20190215 IMCT                IMCT                                                                                                                    WMF1902153.TXT
MAKK92068315201902D1               89828070100P3YK20190227000210SPEAKER ASM                   M IMCTM CM1    TNTH  09020IMKDC KA PTB  00004  K0                0911DES        000000000000 DENSO TEN (THAILAND)                                                                                                                                            *G         20190215 IMCT                IMCT                                                                                                                    WMF1902153.TXT
MAKK92068316201902D1               89828070100P3YK20190228000180SPEAKER ASM                   M IMCTM CM1    TNTH  09020IMKDC KA PTB  00004  K0                0911DES        000000000000 DENSO TEN (THAILAND)                                                                                                                                            *G         20190215 IMCT                IMCT                                                                                                                    WMF1902153.TXT
MAKK92068317201902D1               89828070100P3YK20190301000240SPEAKER ASM                   M IMCTM CM1    TNTH  09020IMKDC KA PTB  00004  K0                0911DES        000000000000 DENSO TEN (THAILAND)                                                                                                                                            *G         20190215 IMCT                IMCT                                                                                                                    WMF1902153.TXT
MAKK92068318201902D1               89828070200P3YK20190225000090SPEAKER ASM                   M IMCTM CM1    TNTH  09020IMKDC KA PTB  00005  K0                0911DES        000000000000 DENSO TEN (THAILAND)                                                                                                                                            *G         20190215 IMCT                IMCT                                                                                                                    WMF1902153.TXT
MAKK92068319201902D1               89828070200P3YK20190226000030SPEAKER ASM                   M IMCTM CM1    TNTH  09020IMKDC KA PTB  00005  K0                0911DES        000000000000 DENSO TEN (THAILAND)                                                                                                                                            *G         20190215 IMCT                IMCT                                                                                                                    WMF1902153.TXT
MAKK92068320201902D1               89828070200P3YK20190227000120SPEAKER ASM                   M IMCTM CM1    TNTH  09020IMKDC KA PTB  00005  K0                0911DES        000000000000 DENSO TEN (THAILAND)                                                                                                                                            *G         20190215 IMCT                IMCT                                                                                                                    WMF1902153.TXT
MAKK92068321201902D1               89828070200P3YK20190228000060SPEAKER ASM                   M IMCTM CM1    TNTH  09020IMKDC KA PTB  00005  K0                0911DES        000000000000 DENSO TEN (THAILAND)                                                                                                                                            *G         20190215 IMCT                IMCT                                                                                                                    WMF1902153.TXT
MAKK92068322201902D1               89828070200P3YK20190301000060SPEAKER ASM                   M IMCTM CM1    TNTH  09020IMKDC KA PTB  00005  K0                0911DES        000000000000 DENSO TEN (THAILAND)                                                                                                                                            *G         20190215 IMCT                IMCT                                                                                                                    WMF1902153.TXT
MAKK92068323201902D1               89828070300P3YK20190225000090SPEAKER ASM                   M IMCTM CM1    TNTH  09020IMKDC KA PTB  00015  K0                0911DES        000000000000 DENSO TEN (THAILAND)                                                                                                                                            *G         20190215 IMCT                IMCT                                                                                                                    WMF1902153.TXT
MAKK92068324201902D1               89828070300P3YK20190226000030SPEAKER ASM                   M IMCTM CM1    TNTH  09020IMKDC KA PTB  00015  K0                0911DES        000000000000 DENSO TEN (THAILAND)                                                                                                                                            *G         20190215 IMCT                IMCT                                                                                                                    WMF1902153.TXT
MAKK92068325201902D1               89828070300P3YK20190227000120SPEAKER ASM                   M IMCTM CM1    TNTH  09020IMKDC KA PTB  00015  K0                0911DES        000000000000 DENSO TEN (THAILAND)                                                                                                                                            *G         20190215 IMCT                IMCT                                                                                                                    WMF1902153.TXT
MAKK92068326201902D1               89828070300P3YK20190228000120SPEAKER ASM                   M IMCTM CM1    TNTH  09020IMKDC KA PTB  00015  K0                0911DES        000000000000 DENSO TEN (THAILAND)                                                                                                                                            *G         20190215 IMCT                IMCT                                                                                                                    WMF1902153.TXT
MAKK92068327201902D1               89828070300P3YK20190301000060SPEAKER ASM                   M IMCTM CM1    TNTH  09020IMKDC KA PTB  00015  K0                0911DES        000000000000 DENSO TEN (THAILAND)                                                                                                                                            *G         20190215 IMCT                IMCT                                                                                                                    WMF1902153.TXT
