REC2019020520190205ISUZU                              9      
MDEFK2T03550201902                D89828070100PV4F20190209000028SPEAKER ASM                   M IMCTM S7FL05 TNTH  09020IMCT  S7 PTB  00004                    0830 SR        000000000000 DENSO TEN (THAILAND)190K41R0005   190K41R0007   R190202402    R190202415    000000                                                                              *R         20190205 IMCT                IMCT                                                                                                                    RMF1902054.TXT
MDEFK2T03551201902                D89828070200PV4F20190209000001SPEAKER ASM                   M IMCTM S7FL05 TNTH  09020IMCT  S7 PTB  00005                    0230 SR        000000000000 DENSO TEN (THAILAND)190K84R0004   190K84R0004   D190202315    D190202315    000000                                                                              *R         20190205 IMCT                IMCT                                                                                                                    RMF1902054.TXT
MDEFK2T03552201902                D89828070300PT4F20190209000001SPEAKER ASM                   M IMCTM S7TS02 TNTH  09020IMCT  S7 PTB  00015                    0230 SR        000000000000 DENSO TEN (THAILAND)190K84R0004   190K84R0004   D190202315    D190202315    000000                                                                              *R         20190205 IMCT                IMCT                                                                                                                    RMF1902054.TXT
MDEFK2T03553201902                D89831229010PT4F20190208000002RADIO;AM/FM,CD                M IMCTM S7TS01 TNTH  09020IMCT  S7 PTB  00003                    2230 SR        000000000000 DENSO TEN (THAILAND)190K65R0003   190K65R0004   D190202305    D190202307    000000                                                                              *R         20190205 IMCT                IMCT                                                                                                                    RMF1902054.TXT
MDEFK2T03554201902                D89848582010PT4F20190208000005RADIO;AM/FM CD D              M IMCTM S7TS01 TNTH  09020IMCT  S7 PTB  00003                    2230 SR        000000000000 DENSO TEN (THAILAND)190K48R0011   190F11R0021   D190202301    D190202306    000000                                                                              *R         20190205 IMCT                IMCT                                                                                                                    RMF1902054.TXT
MDEFK2209453201902                D89828070100PV4F20190208000020SPEAKER ASM                   M IMCTM S7FL05 TNTH  09020IMCT  S7 PTB  00004                    2230 SR        000000000000 DENSO TEN (THAILAND)190K48R0011   190K80R0015   D190202301    D190202310    000000                                                                              *R         20190205 IMCT                IMCT                                                                                                                    RMF1902054.TXT
MDEFK2209454201902                D89828070100PV4F20190209000012SPEAKER ASM                   M IMCTM S7FL05 TNTH  09020IMCT  S7 PTB  00004                    0230 SR        000000000000 DENSO TEN (THAILAND)190K80R0016   190K41R0004   D190202311    R190202401    000000                                                                              *R         20190205 IMCT                IMCT                                                                                                                    RMF1902054.TXT
MDEFK2209455201902                D89828070200PV4F20190208000015SPEAKER ASM                   M IMCTM S7FL05 TNTH  09020IMCT  S7 PTB  00005                    2230 SR        000000000000 DENSO TEN (THAILAND)190K48R0011   190K84R0004   D190202301    D190202315    000000                                                                              *R         20190205 IMCT                IMCT                                                                                                                    RMF1902054.TXT
MDEFK2209456201902                D89828070300PT4F20190208000015SPEAKER ASM                   M IMCTM S7TS02 TNTH  09020IMCT  S7 PTB  00015                    2230 SR        000000000000 DENSO TEN (THAILAND)190K48R0011   190K84R0004   D190202301    D190202315    000000                                                                              *R         20190205 IMCT                IMCT                                                                                                                    RMF1902054.TXT
