REC2019022820190228ISUZU                              18     
MAKK92100701201902D1               89825451200P3YK20190311000030SPEAKER ASM;ROOF              M IMCTM CM1    TNTH  09020IMKDC KA PTB  00036  K0                0911DES        000000000000 DENSO TEN (THAILAND)                                                                                                                                            *G         20190228 IMCT                IMCT                                                                                                                    WMF1902282.TXT
MAKK92100702201902D1               89825451200P3YK20190312000030SPEAKER ASM;ROOF              M IMCTM CM1    TNTH  09020IMKDC KA PTB  00036  K0                0911DES        000000000000 DENSO TEN (THAILAND)                                                                                                                                            *G         20190228 IMCT                IMCT                                                                                                                    WMF1902282.TXT
MAKK92100703201902D1               89825451200P3YK20190315000060SPEAKER ASM;ROOF              M IMCTM CM1    TNTH  09020IMKDC KA PTB  00036  K0                0911DES        000000000000 DENSO TEN (THAILAND)                                                                                                                                            *G         20190228 IMCT                IMCT                                                                                                                    WMF1902282.TXT
MAKK92100704201902D1               89828070100P3YK20190311000180SPEAKER ASM                   M IMCTM CM1    TNTH  09020IMKDC KA PTB  00004  K0                0911DES        000000000000 DENSO TEN (THAILAND)                                                                                                                                            *G         20190228 IMCT                IMCT                                                                                                                    WMF1902282.TXT
MAKK92100705201902D1               89828070100P3YK20190312000180SPEAKER ASM                   M IMCTM CM1    TNTH  09020IMKDC KA PTB  00004  K0                0911DES        000000000000 DENSO TEN (THAILAND)                                                                                                                                            *G         20190228 IMCT                IMCT                                                                                                                    WMF1902282.TXT
MAKK92100706201902D1               89828070100P3YK20190313000210SPEAKER ASM                   M IMCTM CM1    TNTH  09020IMKDC KA PTB  00004  K0                0911DES        000000000000 DENSO TEN (THAILAND)                                                                                                                                            *G         20190228 IMCT                IMCT                                                                                                                    WMF1902282.TXT
MAKK92100707201902D1               89828070100P3YK20190314000210SPEAKER ASM                   M IMCTM CM1    TNTH  09020IMKDC KA PTB  00004  K0                0911DES        000000000000 DENSO TEN (THAILAND)                                                                                                                                            *G         20190228 IMCT                IMCT                                                                                                                    WMF1902282.TXT
MAKK92100708201902D1               89828070100P3YK20190315000180SPEAKER ASM                   M IMCTM CM1    TNTH  09020IMKDC KA PTB  00004  K0                0911DES        000000000000 DENSO TEN (THAILAND)                                                                                                                                            *G         20190228 IMCT                IMCT                                                                                                                    WMF1902282.TXT
MAKK92100709201902D1               89828070200P3YK20190311000090SPEAKER ASM                   M IMCTM CM1    TNTH  09020IMKDC KA PTB  00005  K0                0911DES        000000000000 DENSO TEN (THAILAND)                                                                                                                                            *G         20190228 IMCT                IMCT                                                                                                                    WMF1902282.TXT
MAKK92100710201902D1               89828070200P3YK20190312000060SPEAKER ASM                   M IMCTM CM1    TNTH  09020IMKDC KA PTB  00005  K0                0911DES        000000000000 DENSO TEN (THAILAND)                                                                                                                                            *G         20190228 IMCT                IMCT                                                                                                                    WMF1902282.TXT
MAKK92100711201902D1               89828070200P3YK20190313000150SPEAKER ASM                   M IMCTM CM1    TNTH  09020IMKDC KA PTB  00005  K0                0911DES        000000000000 DENSO TEN (THAILAND)                                                                                                                                            *G         20190228 IMCT                IMCT                                                                                                                    WMF1902282.TXT
MAKK92100712201902D1               89828070200P3YK20190314000090SPEAKER ASM                   M IMCTM CM1    TNTH  09020IMKDC KA PTB  00005  K0                0911DES        000000000000 DENSO TEN (THAILAND)                                                                                                                                            *G         20190228 IMCT                IMCT                                                                                                                    WMF1902282.TXT
MAKK92100713201902D1               89828070200P3YK20190315000120SPEAKER ASM                   M IMCTM CM1    TNTH  09020IMKDC KA PTB  00005  K0                0911DES        000000000000 DENSO TEN (THAILAND)                                                                                                                                            *G         20190228 IMCT                IMCT                                                                                                                    WMF1902282.TXT
MAKK92100714201902D1               89828070300P3YK20190311000090SPEAKER ASM                   M IMCTM CM1    TNTH  09020IMKDC KA PTB  00015  K0                0911DES        000000000000 DENSO TEN (THAILAND)                                                                                                                                            *G         20190228 IMCT                IMCT                                                                                                                    WMF1902282.TXT
MAKK92100715201902D1               89828070300P3YK20190312000060SPEAKER ASM                   M IMCTM CM1    TNTH  09020IMKDC KA PTB  00015  K0                0911DES        000000000000 DENSO TEN (THAILAND)                                                                                                                                            *G         20190228 IMCT                IMCT                                                                                                                    WMF1902282.TXT
MAKK92100716201902D1               89828070300P3YK20190313000150SPEAKER ASM                   M IMCTM CM1    TNTH  09020IMKDC KA PTB  00015  K0                0911DES        000000000000 DENSO TEN (THAILAND)                                                                                                                                            *G         20190228 IMCT                IMCT                                                                                                                    WMF1902282.TXT
MAKK92100717201902D1               89828070300P3YK20190314000090SPEAKER ASM                   M IMCTM CM1    TNTH  09020IMKDC KA PTB  00015  K0                0911DES        000000000000 DENSO TEN (THAILAND)                                                                                                                                            *G         20190228 IMCT                IMCT                                                                                                                    WMF1902282.TXT
MAKK92100718201902D1               89828070300P3YK20190315000120SPEAKER ASM                   M IMCTM CM1    TNTH  09020IMKDC KA PTB  00015  K0                0911DES        000000000000 DENSO TEN (THAILAND)                                                                                                                                            *G         20190228 IMCT                IMCT                                                                                                                    WMF1902282.TXT
