REC2019022620190226ISUZU                              4      
MDEBK2T02545201903                D89828070100PT4B20190302000030SPEAKER ASM                   M IMCTM S7FL05 TNTH  09020IMCT  S7 PTB  00004                    0400 SR        000000000000 DENSO TEN (THAILAND)190F59R0019   190F59R0026   Z190300501    Z190300515    000000                                                                              *R         20190226 IMCT                IMCT                                                                                                                    RMF1902264.TXT
MDEBK2T02546201903                D89828070200PV4B20190302000030SPEAKER ASM                   M IMCTM S7FL05 TNTH  09020IMCT  S7 PTB  00005                    0400 SR        000000000000 DENSO TEN (THAILAND)190F59R0019   190F59R0026   Z190300501    Z190300515    000000                                                                              *R         20190226 IMCT                IMCT                                                                                                                    RMF1902264.TXT
MDEBK2T02547201903                D89828070300PT4B20190302000030SPEAKER ASM                   M IMCTM S7TS02 TNTH  09020IMCT  S7 PTB  00015                    0400 SR        000000000000 DENSO TEN (THAILAND)190F59R0019   190F59R0026   Z190300501    Z190300515    000000                                                                              *R         20190226 IMCT                IMCT                                                                                                                    RMF1902264.TXT
MDEBK2T02548201903                D89838432900PT4B20190302000007RADIO;ASM DVD                 M IMCTM S7TS01 TNTH  09020IMCT  S7 PTB  00003                    0400 SR        000000000000 DENSO TEN (THAILAND)190F61R0018   190F62R0014   Z190300507    Z190300513    000000                                                                              *R         20190226 IMCT                IMCT                                                                                                                    RMF1902264.TXT
