REC2019022020190220ISUZU                              6      
MDEFK2T20179201902                D89828070100PV4F20190225000012SPEAKER ASM                   M IMCTM S7FL05 TNTH  09020IMCT  S7 PTB  00004                    1030 SR        000000000000 DENSO TEN (THAILAND)190K08R0032   190H43R0018   S190206310    S190206315    000000                                                                              *R         20190220 IMCT                IMCT                                                                                                                    RMF1902204.TXT
MDEFK2T20180201902                D89828070200PV4F20190224000002SPEAKER ASM                   M IMCTM S7FL05 TNTH  09020IMCT  S7 PTB  00005                    0230 SR        000000000000 DENSO TEN (THAILAND)190J74R0006   190J74R0006   C190206214    C190206214    000000                                                                              *R         20190220 IMCT                IMCT                                                                                                                    RMF1902204.TXT
MDEFK2T20181201902                D89828070300PT4F20190224000002SPEAKER ASM                   M IMCTM S7TS02 TNTH  09020IMCT  S7 PTB  00015                    0230 SR        000000000000 DENSO TEN (THAILAND)190J74R0006   190J74R0006   C190206214    C190206214    000000                                                                              *R         20190220 IMCT                IMCT                                                                                                                    RMF1902204.TXT
MDEFK2T20182201902                D89831229200PT4F20190224000001RADIO;AM/FM,CD                M IMCTM S7TS03 TNTH  09020IMCT  S7 PTB  00003                    0230 SR        000000000000 DENSO TEN (THAILAND)190J74R0006   190J74R0006   C190206214    C190206214    000000                                                                              *R         20190220 IMCT                IMCT                                                                                                                    RMF1902204.TXT
MDEFK2262101201902                D89828070100PV4F20190224000032SPEAKER ASM                   M IMCTM S7FL05 TNTH  09020IMCT  S7 PTB  00004                    0230 SR        000000000000 DENSO TEN (THAILAND)17053RR0017   190H43R0009   C190206201    S190206301    000000                                                                              *R         20190220 IMCT                IMCT                                                                                                                    RMF1902204.TXT
MDEFK2262102201902                D89828070100PV4F20190225000016SPEAKER ASM                   M IMCTM S7FL05 TNTH  09020IMCT  S7 PTB  00004                    0830 SR        000000000000 DENSO TEN (THAILAND)190H43R0010   190K08R0031   S190206302    S190206309    000000                                                                              *R         20190220 IMCT                IMCT                                                                                                                    RMF1902204.TXT
