REC2019020720190207ISUZU                              19     
MAKK92051763201902D1               89825451200P3YK20190218000030SPEAKER ASM;ROOF              M IMCTM CM1    TNTH  09020IMKDC KA PTB  00036  K0                0911DES        000000000000 DENSO TEN (THAILAND)                                                                                                                                            *G         20190207 IMCT                IMCT                                                                                                                    WMF1902079.TXT
MAKK92051764201902D1               89825451200P3YK20190220000030SPEAKER ASM;ROOF              M IMCTM CM1    TNTH  09020IMKDC KA PTB  00036  K0                0911DES        000000000000 DENSO TEN (THAILAND)                                                                                                                                            *G         20190207 IMCT                IMCT                                                                                                                    WMF1902079.TXT
MAKK92051765201902D1               89825451200P3YK20190221000060SPEAKER ASM;ROOF              M IMCTM CM1    TNTH  09020IMKDC KA PTB  00036  K0                0911DES        000000000000 DENSO TEN (THAILAND)                                                                                                                                            *G         20190207 IMCT                IMCT                                                                                                                    WMF1902079.TXT
MAKK92051766201902D1               89828070100P3YK20190218000180SPEAKER ASM                   M IMCTM CM1    TNTH  09020IMKDC KA PTB  00004  K0                0911DES        000000000000 DENSO TEN (THAILAND)                                                                                                                                            *G         20190207 IMCT                IMCT                                                                                                                    WMF1902079.TXT
MAKK92051767201902D1               89828070100P3YK20190220000210SPEAKER ASM                   M IMCTM CM1    TNTH  09020IMKDC KA PTB  00004  K0                0911DES        000000000000 DENSO TEN (THAILAND)                                                                                                                                            *G         20190207 IMCT                IMCT                                                                                                                    WMF1902079.TXT
MAKK92051768201902D1               89828070100P3YK20190221000240SPEAKER ASM                   M IMCTM CM1    TNTH  09020IMKDC KA PTB  00004  K0                0911DES        000000000000 DENSO TEN (THAILAND)                                                                                                                                            *G         20190207 IMCT                IMCT                                                                                                                    WMF1902079.TXT
MAKK92051769201902D1               89828070100P3YK20190222000240SPEAKER ASM                   M IMCTM CM1    TNTH  09020IMKDC KA PTB  00004  K0                0911DES        000000000000 DENSO TEN (THAILAND)                                                                                                                                            *G         20190207 IMCT                IMCT                                                                                                                    WMF1902079.TXT
MAKK92051770201902D1               89828070100P3YK20190223000210SPEAKER ASM                   M IMCTM CM1    TNTH  09020IMKDC KA PTB  00004  K0                0911DES        000000000000 DENSO TEN (THAILAND)                                                                                                                                            *G         20190207 IMCT                IMCT                                                                                                                    WMF1902079.TXT
MAKK92051771201902D1               89828070200P3YK20190218000030SPEAKER ASM                   M IMCTM CM1    TNTH  09020IMKDC KA PTB  00005  K0                0911DES        000000000000 DENSO TEN (THAILAND)                                                                                                                                            *G         20190207 IMCT                IMCT                                                                                                                    WMF1902079.TXT
MAKK92051772201902D1               89828070200P3YK20190220000180SPEAKER ASM                   M IMCTM CM1    TNTH  09020IMKDC KA PTB  00005  K0                0911DES        000000000000 DENSO TEN (THAILAND)                                                                                                                                            *G         20190207 IMCT                IMCT                                                                                                                    WMF1902079.TXT
MAKK92051773201902D1               89828070200P3YK20190221000090SPEAKER ASM                   M IMCTM CM1    TNTH  09020IMKDC KA PTB  00005  K0                0911DES        000000000000 DENSO TEN (THAILAND)                                                                                                                                            *G         20190207 IMCT                IMCT                                                                                                                    WMF1902079.TXT
MAKK92051774201902D1               89828070200P3YK20190222000150SPEAKER ASM                   M IMCTM CM1    TNTH  09020IMKDC KA PTB  00005  K0                0911DES        000000000000 DENSO TEN (THAILAND)                                                                                                                                            *G         20190207 IMCT                IMCT                                                                                                                    WMF1902079.TXT
MAKK92051775201902D1               89828070200P3YK20190223000090SPEAKER ASM                   M IMCTM CM1    TNTH  09020IMKDC KA PTB  00005  K0                0911DES        000000000000 DENSO TEN (THAILAND)                                                                                                                                            *G         20190207 IMCT                IMCT                                                                                                                    WMF1902079.TXT
MAKK92051776201902D1               89828070300P3YK20190218000030SPEAKER ASM                   M IMCTM CM1    TNTH  09020IMKDC KA PTB  00015  K0                0911DES        000000000000 DENSO TEN (THAILAND)                                                                                                                                            *G         20190207 IMCT                IMCT                                                                                                                    WMF1902079.TXT
MAKK92051777201902D1               89828070300P3YK20190220000180SPEAKER ASM                   M IMCTM CM1    TNTH  09020IMKDC KA PTB  00015  K0                0911DES        000000000000 DENSO TEN (THAILAND)                                                                                                                                            *G         20190207 IMCT                IMCT                                                                                                                    WMF1902079.TXT
MAKK92051778201902D1               89828070300P3YK20190221000120SPEAKER ASM                   M IMCTM CM1    TNTH  09020IMKDC KA PTB  00015  K0                0911DES        000000000000 DENSO TEN (THAILAND)                                                                                                                                            *G         20190207 IMCT                IMCT                                                                                                                    WMF1902079.TXT
MAKK92051779201902D1               89828070300P3YK20190222000150SPEAKER ASM                   M IMCTM CM1    TNTH  09020IMKDC KA PTB  00015  K0                0911DES        000000000000 DENSO TEN (THAILAND)                                                                                                                                            *G         20190207 IMCT                IMCT                                                                                                                    WMF1902079.TXT
MAKK92051780201902D1               89828070300P3YK20190223000090SPEAKER ASM                   M IMCTM CM1    TNTH  09020IMKDC KA PTB  00015  K0                0911DES        000000000000 DENSO TEN (THAILAND)                                                                                                                                            *G         20190207 IMCT                IMCT                                                                                                                    WMF1902079.TXT
MAKK92051781201902D1               89834050100P3YK20190223000015RADIO;ASM DVD                 M IMCTM CM1    TNTH  09020IMKDC KA PTB  00003  K0                0911DES        000000000000 DENSO TEN (THAILAND)                                                                                                                                            *G         20190207 IMCT                IMCT                                                                                                                    WMF1902079.TXT
