REC2019022220190222ISUZU                              72     
MDDDK2301524201902                D89821984430PT1D20190227000030RADIO;AM/FM,CD                M IMCTM S5NC06 TNTH  09020IMCT  S5 PTB  00005                    0400 SR        000000000000 DENSO TEN (THAILAND)190MXEL0034034                                                                                                                              *          20190222 IMCT                IMCT                                                                                                                    WMF1902227.TXT
MDDDK2301525201902                D89821984430PT1D20190227000030RADIO;AM/FM,CD                M IMCTM S5NC06 TNTH  09020IMCT  S5 PTB  00005                    1030 SR        000000000000 DENSO TEN (THAILAND)190MNGL0082082                                                                                                                              *          20190222 IMCT                IMCT                                                                                                                    WMF1902227.TXT
MDDDK2301526201902                D89828070100PV1D20190227000060SPEAKER ASM                   M IMCTM S5MB11 TNTH  09020IMCT  S5 PTB  00004                    0400 SR        000000000000 DENSO TEN (THAILAND)190MXEL0034034                                                                                                                              *          20190222 IMCT                IMCT                                                                                                                    WMF1902227.TXT
MDDDK2301527201902                D89828070100PV1D20190227000060SPEAKER ASM                   M IMCTM S5MB11 TNTH  09020IMCT  S5 PTB  00004                    1030 SR        000000000000 DENSO TEN (THAILAND)190MNGL0082082                                                                                                                              *          20190222 IMCT                IMCT                                                                                                                    WMF1902227.TXT
MDDDK2301528201902                D89828070100PV1D20190227000060SPEAKER ASM                   M IMCTM S5MB11 TNTH  09020IMCT  S5 PTB  00004                    1600 SR        000000000000 DENSO TEN (THAILAND)190MPPL0013013                                                                                                                              *          20190222 IMCT                IMCT                                                                                                                    WMF1902227.TXT
MDDDK2301529201902                D89828070300PT1D20190227000060SPEAKER ASM                   M IMCTM S5NB082TNTH  09020IMCT  S5 PTB  00015                    1600 SR        000000000000 DENSO TEN (THAILAND)190MPPL0013013                                                                                                                              *          20190222 IMCT                IMCT                                                                                                                    WMF1902227.TXT
MDDUK2255568201902                D89828070100PT4U20190227000030SPEAKER ASM                   M IMCTM S0FL05 TNTH  09020IMCT  S0 PTB  00004                    0400 SR        000000000000 DENSO TEN (THAILAND)190MUGU0022022                                                                                                                              *          20190222 IMCT                IMCT                                                                                                                    WMF1902227.TXT
MDDUK2255569201902                D89828070100PT4U20190227000030SPEAKER ASM                   M IMCTM S0FL05 TNTH  09020IMCT  S0 PTB  00004                    0830 SR        000000000000 DENSO TEN (THAILAND)190MUEU0046046                                                                                                                              *          20190222 IMCT                IMCT                                                                                                                    WMF1902227.TXT
MDDUK2255570201902                D89828070100PT4U20190227000030SPEAKER ASM                   M IMCTM S0FL05 TNTH  09020IMCT  S0 PTB  00004                    1600 SR        000000000000 DENSO TEN (THAILAND)190MUGU0023023                                                                                                                              *          20190222 IMCT                IMCT                                                                                                                    WMF1902227.TXT
MDDUK2255571201902                D89828070100PT4U20190227000030SPEAKER ASM                   M IMCTM S0FL05 TNTH  09020IMCT  S0 PTB  00004                    2100 SR        000000000000 DENSO TEN (THAILAND)190MUCU0006006                                                                                                                              *          20190222 IMCT                IMCT                                                                                                                    WMF1902227.TXT
MDDUK2255572201902                D89828070200PV4U20190227000030SPEAKER ASM                   M IMCTM S0FR05 TNTH  09020IMCT  S0 PTB  00005                    0400 SR        000000000000 DENSO TEN (THAILAND)190MUGU0022022                                                                                                                              *          20190222 IMCT                IMCT                                                                                                                    WMF1902227.TXT
MDDUK2255573201902                D89828070200PV4U20190227000030SPEAKER ASM                   M IMCTM S0FR05 TNTH  09020IMCT  S0 PTB  00005                    0830 SR        000000000000 DENSO TEN (THAILAND)190MUEU0046046                                                                                                                              *          20190222 IMCT                IMCT                                                                                                                    WMF1902227.TXT
MDDUK2255574201902                D89828070200PV4U20190227000030SPEAKER ASM                   M IMCTM S0FR05 TNTH  09020IMCT  S0 PTB  00005                    1600 SR        000000000000 DENSO TEN (THAILAND)190MUGU0023023                                                                                                                              *          20190222 IMCT                IMCT                                                                                                                    WMF1902227.TXT
MDDUK2255575201902                D89828070200PV4U20190227000030SPEAKER ASM                   M IMCTM S0FR05 TNTH  09020IMCT  S0 PTB  00005                    2100 SR        000000000000 DENSO TEN (THAILAND)190MUCU0006006                                                                                                                              *          20190222 IMCT                IMCT                                                                                                                    WMF1902227.TXT
MDDUK2255576201902                D89828070300PT4U20190227000030SPEAKER ASM                   M IMCTM S9TS02 TNTH  09020IMCT  S9 PTB  00015                    0400 SR        000000000000 DENSO TEN (THAILAND)190MUGU0022022                                                                                                                              *          20190222 IMCT                IMCT                                                                                                                    WMF1902227.TXT
MDDUK2255577201902                D89828070300PT4U20190227000030SPEAKER ASM                   M IMCTM S9TS02 TNTH  09020IMCT  S9 PTB  00015                    0830 SR        000000000000 DENSO TEN (THAILAND)190MUEU0046046                                                                                                                              *          20190222 IMCT                IMCT                                                                                                                    WMF1902227.TXT
MDDUK2255578201902                D89828070300PT4U20190227000030SPEAKER ASM                   M IMCTM S9TS02 TNTH  09020IMCT  S9 PTB  00015                    1600 SR        000000000000 DENSO TEN (THAILAND)190MUGU0023023                                                                                                                              *          20190222 IMCT                IMCT                                                                                                                    WMF1902227.TXT
MDDUK2255579201902                D89828070300PT4U20190227000030SPEAKER ASM                   M IMCTM S9TS02 TNTH  09020IMCT  S9 PTB  00015                    2100 SR        000000000000 DENSO TEN (THAILAND)190MUCU0006006                                                                                                                              *          20190222 IMCT                IMCT                                                                                                                    WMF1902227.TXT
MDDUK2255580201902                D89848584200PT4U20190227000015RADIO;AM/FM CD D              M IMCTM S9CO001TNTH  09020IMCT  S9 PTB  00003                    2100 SR        000000000000 DENSO TEN (THAILAND)190MUCU0006006                                                                                                                              *          20190222 IMCT                IMCT                                                                                                                    WMF1902227.TXT
MDEDK2341309201902                D89752845100PT1D20190227000015RADIO;AM FM,CD D              M IMCTM S5NC06 TNTH  09020IMCT  S5 PTB  00003                    0400 SR        000000000000 DENSO TEN (THAILAND)190F95L0008008                                                                                                                              *          20190222 IMCT                IMCT                                                                                                                    WMF1902227.TXT
MDEDK2341310201902                D89752845100PT1D20190227000030RADIO;AM FM,CD D              M IMCTM S5NC06 TNTH  09020IMCT  S5 PTB  00003                    1300 SR        000000000000 DENSO TEN (THAILAND)190F93L0014014190G14L0006006                                                                                                                *          20190222 IMCT                IMCT                                                                                                                    WMF1902227.TXT
MDEDK2341311201902                D89752845200PT1D20190227000015RADIO;AM FM,CD D              M IMCTM S5NC06 TNTH  09020IMCT  S5 PTB  00003                    1600 SR        000000000000 DENSO TEN (THAILAND)190F94L0005005                                                                                                                              *          20190222 IMCT                IMCT                                                                                                                    WMF1902227.TXT
MDEDK2341312201902                D89752845200PT1D20190227000015RADIO;AM FM,CD D              M IMCTM S5NC06 TNTH  09020IMCT  S5 PTB  00003                    2100 SR        000000000000 DENSO TEN (THAILAND)190G04L0006006                                                                                                                              *          20190222 IMCT                IMCT                                                                                                                    WMF1902227.TXT
MDEDK2341313201902                D89828070100PV1D20190226000030SPEAKER ASM                   M IMCTM S5MB11 TNTH  09020IMCT  S5 PTB  00004                    2230 SR        000000000000 DENSO TEN (THAILAND)190H21L0003003                                                                                                                              *          20190222 IMCT                IMCT                                                                                                                    WMF1902227.TXT
MDEDK2341314201902                D89828070100PV1D20190227000060SPEAKER ASM                   M IMCTM S5MB11 TNTH  09020IMCT  S5 PTB  00004                    0230 SR        000000000000 DENSO TEN (THAILAND)190H76L0010010190J90L0003003                                                                                                                *          20190222 IMCT                IMCT                                                                                                                    WMF1902227.TXT
MDEDK2341315201902                D89828070100PV1D20190227000120SPEAKER ASM                   M IMCTM S5MB11 TNTH  09020IMCT  S5 PTB  00004                    0400 SR        000000000000 DENSO TEN (THAILAND)17041PL0098099190F95L0008008190H49L0008008                                                                                                  *          20190222 IMCT                IMCT                                                                                                                    WMF1902227.TXT
MDEDK2341316201902                D89828070100PV1D20190227000090SPEAKER ASM                   M IMCTM S5MB11 TNTH  09020IMCT  S5 PTB  00004                    0830 SR        000000000000 DENSO TEN (THAILAND)190F98L0001002190H49L0009009                                                                                                                *          20190222 IMCT                IMCT                                                                                                                    WMF1902227.TXT
MDEDK2341317201902                D89828070100PV1D20190227000120SPEAKER ASM                   M IMCTM S5MB11 TNTH  09020IMCT  S5 PTB  00004                    1300 SR        000000000000 DENSO TEN (THAILAND)17041PL0100101190F93L0014014190G14L0006006                                                                                                  *          20190222 IMCT                IMCT                                                                                                                    WMF1902227.TXT
MDEDK2341318201902                D89828070100PV1D20190227000150SPEAKER ASM                   M IMCTM S5MB11 TNTH  09020IMCT  S5 PTB  00004                    1600 SR        000000000000 DENSO TEN (THAILAND)190F86L0085086190F94L0005005190F97L0001002                                                                                                  *          20190222 IMCT                IMCT                                                                                                                    WMF1902227.TXT
MDEDK2341319201902                D89828070100PV1D20190227000060SPEAKER ASM                   M IMCTM S5MB11 TNTH  09020IMCT  S5 PTB  00004                    2100 SR        000000000000 DENSO TEN (THAILAND)190G04L0006006190J15L0005005                                                                                                                *          20190222 IMCT                IMCT                                                                                                                    WMF1902227.TXT
MDEDK2341320201902                D89828070100PV1D20190227000090SPEAKER ASM                   M IMCTM S5MB11 TNTH  09020IMCT  S5 PTB  00004                    2230 SR        000000000000 DENSO TEN (THAILAND)190G96L0002002190H49L0010010190J91L0022022                                                                                                  *          20190222 IMCT                IMCT                                                                                                                    WMF1902227.TXT
MDEDK2341321201902                D89828070100PV4D20190227000060SPEAKER ASM                   M IMCTM S0FL05 TNTH  09020IMCT  S0 PTB  00004                    0400 SR        000000000000 DENSO TEN (THAILAND)17041PU0009010                                                                                                                              *          20190222 IMCT                IMCT                                                                                                                    WMF1902227.TXT
MDEDK2341322201902                D89828070100PV4D20190227000030SPEAKER ASM                   M IMCTM S0FL05 TNTH  09020IMCT  S0 PTB  00004                    0830 SR        000000000000 DENSO TEN (THAILAND)190H17U0016016                                                                                                                              *          20190222 IMCT                IMCT                                                                                                                    WMF1902227.TXT
MDEDK2341323201902                D89828070100PV4D20190227000030SPEAKER ASM                   M IMCTM S0FL05 TNTH  09020IMCT  S0 PTB  00004                    1030 SR        000000000000 DENSO TEN (THAILAND)190K21U0026026                                                                                                                              *          20190222 IMCT                IMCT                                                                                                                    WMF1902227.TXT
MDEDK2341324201902                D89828070100PV4D20190227000030SPEAKER ASM                   M IMCTM S0FL05 TNTH  09020IMCT  S0 PTB  00004                    1300 SR        000000000000 DENSO TEN (THAILAND)190K21U0027027                                                                                                                              *          20190222 IMCT                IMCT                                                                                                                    WMF1902227.TXT
MDEDK2341325201902                D89828070100PV4D20190227000060SPEAKER ASM                   M IMCTM S0FL05 TNTH  09020IMCT  S0 PTB  00004                    1600 SR        000000000000 DENSO TEN (THAILAND)190G22U0005005190K21U0028028                                                                                                                *          20190222 IMCT                IMCT                                                                                                                    WMF1902227.TXT
MDEDK2341326201902                D89828070100PV4D20190227000030SPEAKER ASM                   M IMCTM S0FL05 TNTH  09020IMCT  S0 PTB  00004                    2230 SR        000000000000 DENSO TEN (THAILAND)190G74U0001001                                                                                                                              *          20190222 IMCT                IMCT                                                                                                                    WMF1902227.TXT
MDEDK2341327201902                D89828070200PV1D20190226000030SPEAKER ASM                   M IMCTM S5MA14 TNTH  09020IMCT  S5 PTB  00005                    2230 SR        000000000000 DENSO TEN (THAILAND)190H21L0003003                                                                                                                              *          20190222 IMCT                IMCT                                                                                                                    WMF1902227.TXT
MDEDK2341328201902                D89828070200PV1D20190227000030SPEAKER ASM                   M IMCTM S5MA14 TNTH  09020IMCT  S5 PTB  00005                    0400 SR        000000000000 DENSO TEN (THAILAND)190F95L0008008                                                                                                                              *          20190222 IMCT                IMCT                                                                                                                    WMF1902227.TXT
MDEDK2341329201902                D89828070200PV1D20190227000060SPEAKER ASM                   M IMCTM S5MA14 TNTH  09020IMCT  S5 PTB  00005                    0830 SR        000000000000 DENSO TEN (THAILAND)190F98L0001002                                                                                                                              *          20190222 IMCT                IMCT                                                                                                                    WMF1902227.TXT
MDEDK2341330201902                D89828070200PV1D20190227000030SPEAKER ASM                   M IMCTM S5MA14 TNTH  09020IMCT  S5 PTB  00005                    1300 SR        000000000000 DENSO TEN (THAILAND)190G14L0006006                                                                                                                              *          20190222 IMCT                IMCT                                                                                                                    WMF1902227.TXT
MDEDK2341331201902                D89828070200PV1D20190227000060SPEAKER ASM                   M IMCTM S5MA14 TNTH  09020IMCT  S5 PTB  00005                    1600 SR        000000000000 DENSO TEN (THAILAND)190F97L0001002                                                                                                                              *          20190222 IMCT                IMCT                                                                                                                    WMF1902227.TXT
MDEDK2341332201902                D89828070200PV1D20190227000030SPEAKER ASM                   M IMCTM S5MA14 TNTH  09020IMCT  S5 PTB  00005                    2100 SR        000000000000 DENSO TEN (THAILAND)190J15L0005005                                                                                                                              *          20190222 IMCT                IMCT                                                                                                                    WMF1902227.TXT
MDEDK2341333201902                D89828070200PV4D20190227000030SPEAKER ASM                   M IMCTM S0FR05 TNTH  09020IMCT  S0 PTB  00005                    0830 SR        000000000000 DENSO TEN (THAILAND)190H17U0016016                                                                                                                              *          20190222 IMCT                IMCT                                                                                                                    WMF1902227.TXT
MDEDK2341334201902                D89828070200PV4D20190227000030SPEAKER ASM                   M IMCTM S0FR05 TNTH  09020IMCT  S0 PTB  00005                    1030 SR        000000000000 DENSO TEN (THAILAND)190K21U0026026                                                                                                                              *          20190222 IMCT                IMCT                                                                                                                    WMF1902227.TXT
MDEDK2341335201902                D89828070200PV4D20190227000030SPEAKER ASM                   M IMCTM S0FR05 TNTH  09020IMCT  S0 PTB  00005                    1300 SR        000000000000 DENSO TEN (THAILAND)190K21U0027027                                                                                                                              *          20190222 IMCT                IMCT                                                                                                                    WMF1902227.TXT
MDEDK2341336201902                D89828070200PV4D20190227000060SPEAKER ASM                   M IMCTM S0FR05 TNTH  09020IMCT  S0 PTB  00005                    1600 SR        000000000000 DENSO TEN (THAILAND)190G22U0005005190K21U0028028                                                                                                                *          20190222 IMCT                IMCT                                                                                                                    WMF1902227.TXT
MDEDK2341337201902                D89828070200PV4D20190227000030SPEAKER ASM                   M IMCTM S0FR05 TNTH  09020IMCT  S0 PTB  00005                    2230 SR        000000000000 DENSO TEN (THAILAND)190G74U0001001                                                                                                                              *          20190222 IMCT                IMCT                                                                                                                    WMF1902227.TXT
MDEDK2341338201902                D89828070300PT1D20190226000030SPEAKER ASM                   M IMCTM S5NB082TNTH  09020IMCT  S5 PTB  00015                    2230 SR        000000000000 DENSO TEN (THAILAND)190H21L0003003                                                                                                                              *          20190222 IMCT                IMCT                                                                                                                    WMF1902227.TXT
MDEDK2341339201902                D89828070300PT1D20190227000030SPEAKER ASM                   M IMCTM S5NB082TNTH  09020IMCT  S5 PTB  00015                    0400 SR        000000000000 DENSO TEN (THAILAND)190F95L0008008                                                                                                                              *          20190222 IMCT                IMCT                                                                                                                    WMF1902227.TXT
MDEDK2341340201902                D89828070300PT1D20190227000060SPEAKER ASM                   M IMCTM S5NB082TNTH  09020IMCT  S5 PTB  00015                    0830 SR        000000000000 DENSO TEN (THAILAND)190F98L0001002                                                                                                                              *          20190222 IMCT                IMCT                                                                                                                    WMF1902227.TXT
MDEDK2341341201902                D89828070300PT1D20190227000060SPEAKER ASM                   M IMCTM S5NB082TNTH  09020IMCT  S5 PTB  00015                    1300 SR        000000000000 DENSO TEN (THAILAND)190F93L0014014190G14L0006006                                                                                                                *          20190222 IMCT                IMCT                                                                                                                    WMF1902227.TXT
MDEDK2341342201902                D89828070300PT1D20190227000090SPEAKER ASM                   M IMCTM S5NB082TNTH  09020IMCT  S5 PTB  00015                    1600 SR        000000000000 DENSO TEN (THAILAND)190F94L0005005190F97L0001002                                                                                                                *          20190222 IMCT                IMCT                                                                                                                    WMF1902227.TXT
MDEDK2341343201902                D89828070300PT1D20190227000060SPEAKER ASM                   M IMCTM S5NB082TNTH  09020IMCT  S5 PTB  00015                    2100 SR        000000000000 DENSO TEN (THAILAND)190G04L0006006190J15L0005005                                                                                                                *          20190222 IMCT                IMCT                                                                                                                    WMF1902227.TXT
MDEDK2341344201902                D89828070300PT4D20190227000030SPEAKER ASM                   M IMCTM S9TS02 TNTH  09020IMCT  S9 PTB  00015                    0830 SR        000000000000 DENSO TEN (THAILAND)190H17U0016016                                                                                                                              *          20190222 IMCT                IMCT                                                                                                                    WMF1902227.TXT
MDEDK2341345201902                D89828070300PT4D20190227000030SPEAKER ASM                   M IMCTM S9TS02 TNTH  09020IMCT  S9 PTB  00015                    1030 SR        000000000000 DENSO TEN (THAILAND)190K21U0026026                                                                                                                              *          20190222 IMCT                IMCT                                                                                                                    WMF1902227.TXT
MDEDK2341346201902                D89828070300PT4D20190227000030SPEAKER ASM                   M IMCTM S9TS02 TNTH  09020IMCT  S9 PTB  00015                    1300 SR        000000000000 DENSO TEN (THAILAND)190K21U0027027                                                                                                                              *          20190222 IMCT                IMCT                                                                                                                    WMF1902227.TXT
MDEDK2341347201902                D89828070300PT4D20190227000060SPEAKER ASM                   M IMCTM S9TS02 TNTH  09020IMCT  S9 PTB  00015                    1600 SR        000000000000 DENSO TEN (THAILAND)190G22U0005005190K21U0028028                                                                                                                *          20190222 IMCT                IMCT                                                                                                                    WMF1902227.TXT
MDEDK2341348201902                D89828070300PT4D20190227000030SPEAKER ASM                   M IMCTM S9TS02 TNTH  09020IMCT  S9 PTB  00015                    2230 SR        000000000000 DENSO TEN (THAILAND)190G74U0001001                                                                                                                              *          20190222 IMCT                IMCT                                                                                                                    WMF1902227.TXT
MDEDK2341349201902                D89838031200PT4D20190227000015RADIO;ASM DVD                 M IMCTM S9CO001TNTH  09020IMCT  S9 PTB  00003                    1030 SR        000000000000 DENSO TEN (THAILAND)190K21U0026026                                                                                                                              *          20190222 IMCT                IMCT                                                                                                                    WMF1902227.TXT
MDEDK2341350201902                D89838031200PT4D20190227000015RADIO;ASM DVD                 M IMCTM S9CO001TNTH  09020IMCT  S9 PTB  00003                    1300 SR        000000000000 DENSO TEN (THAILAND)190K21U0027027                                                                                                                              *          20190222 IMCT                IMCT                                                                                                                    WMF1902227.TXT
MDEDK2341351201902                D89838031200PT4D20190227000015RADIO;ASM DVD                 M IMCTM S9CO001TNTH  09020IMCT  S9 PTB  00003                    1600 SR        000000000000 DENSO TEN (THAILAND)190K21U0028028                                                                                                                              *          20190222 IMCT                IMCT                                                                                                                    WMF1902227.TXT
MDEDK2341352201902                D89848582100PT4D20190227000015RADIO;AM/FM CD D              M IMCTM S9CO001TNTH  09020IMCT  S9 PTB  00003                    0830 SR        000000000000 DENSO TEN (THAILAND)190H17U0016016                                                                                                                              *          20190222 IMCT                IMCT                                                                                                                    WMF1902227.TXT
MDEUK2238858201902                D89828070100PT4U20190227000030SPEAKER ASM                   M IMCTM S0FL05 TNTH  09020IMCT  S0 PTB  00004                    0400 SR        000000000000 DENSO TEN (THAILAND)190G25U0008008                                                                                                                              *          20190222 IMCT                IMCT                                                                                                                    WMF1902227.TXT
MDEUK2238859201902                D89828070100PT4U20190227000030SPEAKER ASM                   M IMCTM S0FL05 TNTH  09020IMCT  S0 PTB  00004                    1300 SR        000000000000 DENSO TEN (THAILAND)190G32U0018018                                                                                                                              *          20190222 IMCT                IMCT                                                                                                                    WMF1902227.TXT
MDEUK2238860201902                D89828070100PT4U20190227000030SPEAKER ASM                   M IMCTM S0FL05 TNTH  09020IMCT  S0 PTB  00004                    1600 SR        000000000000 DENSO TEN (THAILAND)190G32U0019019                                                                                                                              *          20190222 IMCT                IMCT                                                                                                                    WMF1902227.TXT
MDEUK2238861201902                D89828070200PV4U20190227000030SPEAKER ASM                   M IMCTM S0FR05 TNTH  09020IMCT  S0 PTB  00005                    0400 SR        000000000000 DENSO TEN (THAILAND)190G25U0008008                                                                                                                              *          20190222 IMCT                IMCT                                                                                                                    WMF1902227.TXT
MDEUK2238862201902                D89828070200PV4U20190227000030SPEAKER ASM                   M IMCTM S0FR05 TNTH  09020IMCT  S0 PTB  00005                    1300 SR        000000000000 DENSO TEN (THAILAND)190G32U0018018                                                                                                                              *          20190222 IMCT                IMCT                                                                                                                    WMF1902227.TXT
MDEUK2238863201902                D89828070200PV4U20190227000030SPEAKER ASM                   M IMCTM S0FR05 TNTH  09020IMCT  S0 PTB  00005                    1600 SR        000000000000 DENSO TEN (THAILAND)190G32U0019019                                                                                                                              *          20190222 IMCT                IMCT                                                                                                                    WMF1902227.TXT
MDEUK2238864201902                D89828070300PT4U20190227000030SPEAKER ASM                   M IMCTM S9TS02 TNTH  09020IMCT  S9 PTB  00015                    0400 SR        000000000000 DENSO TEN (THAILAND)190G25U0008008                                                                                                                              *          20190222 IMCT                IMCT                                                                                                                    WMF1902227.TXT
MDEUK2238865201902                D89828070300PT4U20190227000030SPEAKER ASM                   M IMCTM S9TS02 TNTH  09020IMCT  S9 PTB  00015                    1300 SR        000000000000 DENSO TEN (THAILAND)190G32U0018018                                                                                                                              *          20190222 IMCT                IMCT                                                                                                                    WMF1902227.TXT
MDEUK2238866201902                D89828070300PT4U20190227000030SPEAKER ASM                   M IMCTM S9TS02 TNTH  09020IMCT  S9 PTB  00015                    1600 SR        000000000000 DENSO TEN (THAILAND)190G32U0019019                                                                                                                              *          20190222 IMCT                IMCT                                                                                                                    WMF1902227.TXT
