REC2019022320190223ISUZU                              59     
MDDDK2304644201902                D89821984430PT1D20190228000030RADIO;AM/FM,CD                M IMCTM S5NC06 TNTH  09020IMCT  S5 PTB  00005                    1300 SR        000000000000 DENSO TEN (THAILAND)190MRBL0032032                                                                                                                              *          20190223 IMCT                IMCT                                                                                                                    WMF1902234.TXT
MDDDK2304645201902                D89821984430PT1D20190228000030RADIO;AM/FM,CD                M IMCTM S5NC06 TNTH  09020IMCT  S5 PTB  00005                    1600 SR        000000000000 DENSO TEN (THAILAND)190MXCL0033033                                                                                                                              *          20190223 IMCT                IMCT                                                                                                                    WMF1902234.TXT
MDDDK2304646201902                D89828070100PV1D20190228000060SPEAKER ASM                   M IMCTM S5MB11 TNTH  09020IMCT  S5 PTB  00004                    0400 SR        000000000000 DENSO TEN (THAILAND)190MPCL0041041                                                                                                                              *          20190223 IMCT                IMCT                                                                                                                    WMF1902234.TXT
MDDDK2304647201902                D89828070100PV1D20190228000060SPEAKER ASM                   M IMCTM S5MB11 TNTH  09020IMCT  S5 PTB  00004                    1300 SR        000000000000 DENSO TEN (THAILAND)190MRBL0032032                                                                                                                              *          20190223 IMCT                IMCT                                                                                                                    WMF1902234.TXT
MDDDK2304648201902                D89828070100PV1D20190228000060SPEAKER ASM                   M IMCTM S5MB11 TNTH  09020IMCT  S5 PTB  00004                    1600 SR        000000000000 DENSO TEN (THAILAND)190MXCL0033033                                                                                                                              *          20190223 IMCT                IMCT                                                                                                                    WMF1902234.TXT
MDDDK2304649201902                D89828070300PT1D20190228000060SPEAKER ASM                   M IMCTM S5NB082TNTH  09020IMCT  S5 PTB  00015                    0400 SR        000000000000 DENSO TEN (THAILAND)190MPCL0041041                                                                                                                              *          20190223 IMCT                IMCT                                                                                                                    WMF1902234.TXT
MDDDK2304650201902                D89831228300PT1D20190228000030RADIO;AM/FM,CD                M IMCTM S5NC06 TNTH  09020IMCT  S5 CPB  00003                    0400 SR        000000000000 DENSO TEN (THAILAND)190MPCL0041041                                                                                                                              *          20190223 IMCT                IMCT                                                                                                                    WMF1902234.TXT
MDDUK2258601201902                D89828070100PT4U20190227000030SPEAKER ASM                   M IMCTM S0FL05 TNTH  09020IMCT  S0 PTB  00004                    2230 SR        000000000000 DENSO TEN (THAILAND)190MUEU0047047                                                                                                                              *          20190223 IMCT                IMCT                                                                                                                    WMF1902234.TXT
MDDUK2258602201902                D89828070100PT4U20190228000030SPEAKER ASM                   M IMCTM S0FL05 TNTH  09020IMCT  S0 PTB  00004                    0400 SR        000000000000 DENSO TEN (THAILAND)190MUGU0024024                                                                                                                              *          20190223 IMCT                IMCT                                                                                                                    WMF1902234.TXT
MDDUK2258603201902                D89828070100PT4U20190228000030SPEAKER ASM                   M IMCTM S0FL05 TNTH  09020IMCT  S0 PTB  00004                    1030 SR        000000000000 DENSO TEN (THAILAND)190MUEU0048048                                                                                                                              *          20190223 IMCT                IMCT                                                                                                                    WMF1902234.TXT
MDDUK2258604201902                D89828070100PT4U20190228000030SPEAKER ASM                   M IMCTM S0FL05 TNTH  09020IMCT  S0 PTB  00004                    1300 SR        000000000000 DENSO TEN (THAILAND)190MUGU0025025                                                                                                                              *          20190223 IMCT                IMCT                                                                                                                    WMF1902234.TXT
MDDUK2258605201902                D89828070200PV4U20190227000030SPEAKER ASM                   M IMCTM S0FR05 TNTH  09020IMCT  S0 PTB  00005                    2230 SR        000000000000 DENSO TEN (THAILAND)190MUEU0047047                                                                                                                              *          20190223 IMCT                IMCT                                                                                                                    WMF1902234.TXT
MDDUK2258606201902                D89828070200PV4U20190228000030SPEAKER ASM                   M IMCTM S0FR05 TNTH  09020IMCT  S0 PTB  00005                    0400 SR        000000000000 DENSO TEN (THAILAND)190MUGU0024024                                                                                                                              *          20190223 IMCT                IMCT                                                                                                                    WMF1902234.TXT
MDDUK2258607201902                D89828070200PV4U20190228000030SPEAKER ASM                   M IMCTM S0FR05 TNTH  09020IMCT  S0 PTB  00005                    1030 SR        000000000000 DENSO TEN (THAILAND)190MUEU0048048                                                                                                                              *          20190223 IMCT                IMCT                                                                                                                    WMF1902234.TXT
MDDUK2258608201902                D89828070200PV4U20190228000030SPEAKER ASM                   M IMCTM S0FR05 TNTH  09020IMCT  S0 PTB  00005                    1300 SR        000000000000 DENSO TEN (THAILAND)190MUGU0025025                                                                                                                              *          20190223 IMCT                IMCT                                                                                                                    WMF1902234.TXT
MDDUK2258609201902                D89828070300PT4U20190227000030SPEAKER ASM                   M IMCTM S9TS02 TNTH  09020IMCT  S9 PTB  00015                    2230 SR        000000000000 DENSO TEN (THAILAND)190MUEU0047047                                                                                                                              *          20190223 IMCT                IMCT                                                                                                                    WMF1902234.TXT
MDDUK2258610201902                D89828070300PT4U20190228000030SPEAKER ASM                   M IMCTM S9TS02 TNTH  09020IMCT  S9 PTB  00015                    0400 SR        000000000000 DENSO TEN (THAILAND)190MUGU0024024                                                                                                                              *          20190223 IMCT                IMCT                                                                                                                    WMF1902234.TXT
MDDUK2258611201902                D89828070300PT4U20190228000030SPEAKER ASM                   M IMCTM S9TS02 TNTH  09020IMCT  S9 PTB  00015                    1030 SR        000000000000 DENSO TEN (THAILAND)190MUEU0048048                                                                                                                              *          20190223 IMCT                IMCT                                                                                                                    WMF1902234.TXT
MDDUK2258612201902                D89828070300PT4U20190228000030SPEAKER ASM                   M IMCTM S9TS02 TNTH  09020IMCT  S9 PTB  00015                    1300 SR        000000000000 DENSO TEN (THAILAND)190MUGU0025025                                                                                                                              *          20190223 IMCT                IMCT                                                                                                                    WMF1902234.TXT
MDEDK2352149201902                D89752845200PT1D20190228000015RADIO;AM FM,CD D              M IMCTM S5NC06 TNTH  09020IMCT  S5 PTB  00003                    2100 SR        000000000000 DENSO TEN (THAILAND)190G04L0007007                                                                                                                              *          20190223 IMCT                IMCT                                                                                                                    WMF1902234.TXT
MDEDK2352150201902                D89828070100PV1D20190227000030SPEAKER ASM                   M IMCTM S5MB11 TNTH  09020IMCT  S5 PTB  00004                    2230 SR        000000000000 DENSO TEN (THAILAND)190H76L0011011                                                                                                                              *          20190223 IMCT                IMCT                                                                                                                    WMF1902234.TXT
MDEDK2352151201902                D89828070100PV1D20190228000060SPEAKER ASM                   M IMCTM S5MB11 TNTH  09020IMCT  S5 PTB  00004                    0230 SR        000000000000 DENSO TEN (THAILAND)190F98L0003003190H67L0001001                                                                                                                *          20190223 IMCT                IMCT                                                                                                                    WMF1902234.TXT
MDEDK2352152201902                D89828070100PV1D20190228000120SPEAKER ASM                   M IMCTM S5MB11 TNTH  09020IMCT  S5 PTB  00004                    0400 SR        000000000000 DENSO TEN (THAILAND)190H28L0004005190J92L0014015                                                                                                                *          20190223 IMCT                IMCT                                                                                                                    WMF1902234.TXT
MDEDK2352153201902                D89828070100PV1D20190228000060SPEAKER ASM                   M IMCTM S5MB11 TNTH  09020IMCT  S5 PTB  00004                    0830 SR        000000000000 DENSO TEN (THAILAND)190F86L0087088                                                                                                                              *          20190223 IMCT                IMCT                                                                                                                    WMF1902234.TXT
MDEDK2352154201902                D89828070100PV1D20190228000060SPEAKER ASM                   M IMCTM S5MB11 TNTH  09020IMCT  S5 PTB  00004                    1030 SR        000000000000 DENSO TEN (THAILAND)190G96L0003003190J81L0047047                                                                                                                *          20190223 IMCT                IMCT                                                                                                                    WMF1902234.TXT
MDEDK2352155201902                D89828070100PV1D20190228000060SPEAKER ASM                   M IMCTM S5MB11 TNTH  09020IMCT  S5 PTB  00004                    1300 SR        000000000000 DENSO TEN (THAILAND)190H29L0001002                                                                                                                              *          20190223 IMCT                IMCT                                                                                                                    WMF1902234.TXT
MDEDK2352156201902                D89828070100PV1D20190228000060SPEAKER ASM                   M IMCTM S5MB11 TNTH  09020IMCT  S5 PTB  00004                    1600 SR        000000000000 DENSO TEN (THAILAND)190H67L0002003                                                                                                                              *          20190223 IMCT                IMCT                                                                                                                    WMF1902234.TXT
MDEDK2352157201902                D89828070100PV1D20190228000030SPEAKER ASM                   M IMCTM S5MB11 TNTH  09020IMCT  S5 PTB  00004                    2100 SR        000000000000 DENSO TEN (THAILAND)190G04L0007007                                                                                                                              *          20190223 IMCT                IMCT                                                                                                                    WMF1902234.TXT
MDEDK2352158201902                D89828070100PV1D20190228000030SPEAKER ASM                   M IMCTM S5MB11 TNTH  09020IMCT  S5 PTB  00004                    2230 SR        000000000000 DENSO TEN (THAILAND)190H76L0012012                                                                                                                              *          20190223 IMCT                IMCT                                                                                                                    WMF1902234.TXT
MDEDK2352159201902                D89828070100PV4D20190228000060SPEAKER ASM                   M IMCTM S0FL05 TNTH  09020IMCT  S0 PTB  00004                    0400 SR        000000000000 DENSO TEN (THAILAND)17041PU0011011190K21U0029029                                                                                                                *          20190223 IMCT                IMCT                                                                                                                    WMF1902234.TXT
MDEDK2352160201902                D89828070100PV4D20190228000060SPEAKER ASM                   M IMCTM S0FL05 TNTH  09020IMCT  S0 PTB  00004                    1300 SR        000000000000 DENSO TEN (THAILAND)190K21U0030031                                                                                                                              *          20190223 IMCT                IMCT                                                                                                                    WMF1902234.TXT
MDEDK2352161201902                D89828070100PV4D20190228000030SPEAKER ASM                   M IMCTM S0FL05 TNTH  09020IMCT  S0 PTB  00004                    2100 SR        000000000000 DENSO TEN (THAILAND)17041PU0012012                                                                                                                              *          20190223 IMCT                IMCT                                                                                                                    WMF1902234.TXT
MDEDK2352162201902                D89828070100PV4D20190228000030SPEAKER ASM                   M IMCTM S0FL05 TNTH  09020IMCT  S0 PTB  00004                    2230 SR        000000000000 DENSO TEN (THAILAND)190H17U0017017                                                                                                                              *          20190223 IMCT                IMCT                                                                                                                    WMF1902234.TXT
MDEDK2352163201902                D89828070200PV1D20190228000030SPEAKER ASM                   M IMCTM S5MA14 TNTH  09020IMCT  S5 PTB  00005                    0230 SR        000000000000 DENSO TEN (THAILAND)190F98L0003003                                                                                                                              *          20190223 IMCT                IMCT                                                                                                                    WMF1902234.TXT
MDEDK2352164201902                D89828070200PV1D20190228000060SPEAKER ASM                   M IMCTM S5MA14 TNTH  09020IMCT  S5 PTB  00005                    0400 SR        000000000000 DENSO TEN (THAILAND)190H28L0004005                                                                                                                              *          20190223 IMCT                IMCT                                                                                                                    WMF1902234.TXT
MDEDK2352165201902                D89828070200PV1D20190228000060SPEAKER ASM                   M IMCTM S5MA14 TNTH  09020IMCT  S5 PTB  00005                    1300 SR        000000000000 DENSO TEN (THAILAND)190H29L0001002                                                                                                                              *          20190223 IMCT                IMCT                                                                                                                    WMF1902234.TXT
MDEDK2352166201902                D89828070200PV4D20190228000030SPEAKER ASM                   M IMCTM S0FR05 TNTH  09020IMCT  S0 PTB  00005                    0400 SR        000000000000 DENSO TEN (THAILAND)190K21U0029029                                                                                                                              *          20190223 IMCT                IMCT                                                                                                                    WMF1902234.TXT
MDEDK2352167201902                D89828070200PV4D20190228000060SPEAKER ASM                   M IMCTM S0FR05 TNTH  09020IMCT  S0 PTB  00005                    1300 SR        000000000000 DENSO TEN (THAILAND)190K21U0030031                                                                                                                              *          20190223 IMCT                IMCT                                                                                                                    WMF1902234.TXT
MDEDK2352168201902                D89828070200PV4D20190228000030SPEAKER ASM                   M IMCTM S0FR05 TNTH  09020IMCT  S0 PTB  00005                    2230 SR        000000000000 DENSO TEN (THAILAND)190H17U0017017                                                                                                                              *          20190223 IMCT                IMCT                                                                                                                    WMF1902234.TXT
MDEDK2352169201902                D89828070300PT1D20190228000060SPEAKER ASM                   M IMCTM S5NB082TNTH  09020IMCT  S5 PTB  00015                    0230 SR        000000000000 DENSO TEN (THAILAND)190F98L0003003190H67L0001001                                                                                                                *          20190223 IMCT                IMCT                                                                                                                    WMF1902234.TXT
MDEDK2352170201902                D89828070300PT1D20190228000120SPEAKER ASM                   M IMCTM S5NB082TNTH  09020IMCT  S5 PTB  00015                    0400 SR        000000000000 DENSO TEN (THAILAND)190H28L0004005190J92L0014015                                                                                                                *          20190223 IMCT                IMCT                                                                                                                    WMF1902234.TXT
MDEDK2352171201902                D89828070300PT1D20190228000060SPEAKER ASM                   M IMCTM S5NB082TNTH  09020IMCT  S5 PTB  00015                    1300 SR        000000000000 DENSO TEN (THAILAND)190H29L0001002                                                                                                                              *          20190223 IMCT                IMCT                                                                                                                    WMF1902234.TXT
MDEDK2352172201902                D89828070300PT1D20190228000060SPEAKER ASM                   M IMCTM S5NB082TNTH  09020IMCT  S5 PTB  00015                    1600 SR        000000000000 DENSO TEN (THAILAND)190H67L0002003                                                                                                                              *          20190223 IMCT                IMCT                                                                                                                    WMF1902234.TXT
MDEDK2352173201902                D89828070300PT1D20190228000030SPEAKER ASM                   M IMCTM S5NB082TNTH  09020IMCT  S5 PTB  00015                    2100 SR        000000000000 DENSO TEN (THAILAND)190G04L0007007                                                                                                                              *          20190223 IMCT                IMCT                                                                                                                    WMF1902234.TXT
MDEDK2352174201902                D89828070300PT4D20190228000030SPEAKER ASM                   M IMCTM S9TS02 TNTH  09020IMCT  S9 PTB  00015                    0400 SR        000000000000 DENSO TEN (THAILAND)190K21U0029029                                                                                                                              *          20190223 IMCT                IMCT                                                                                                                    WMF1902234.TXT
MDEDK2352175201902                D89828070300PT4D20190228000060SPEAKER ASM                   M IMCTM S9TS02 TNTH  09020IMCT  S9 PTB  00015                    1300 SR        000000000000 DENSO TEN (THAILAND)190K21U0030031                                                                                                                              *          20190223 IMCT                IMCT                                                                                                                    WMF1902234.TXT
MDEDK2352176201902                D89828070300PT4D20190228000030SPEAKER ASM                   M IMCTM S9TS02 TNTH  09020IMCT  S9 PTB  00015                    2230 SR        000000000000 DENSO TEN (THAILAND)190H17U0017017                                                                                                                              *          20190223 IMCT                IMCT                                                                                                                    WMF1902234.TXT
MDEDK2352177201902                D89831229200PT1D20190228000030RADIO;AM/FM,CD                M IMCTM S5NC06 TNTH  09020IMCT  S5 PTB  00003                    0400 SR        000000000000 DENSO TEN (THAILAND)190J92L0014015                                                                                                                              *          20190223 IMCT                IMCT                                                                                                                    WMF1902234.TXT
MDEDK2352178201902                D89838031200PT4D20190228000015RADIO;ASM DVD                 M IMCTM S9CO001TNTH  09020IMCT  S9 PTB  00003                    0400 SR        000000000000 DENSO TEN (THAILAND)190K21U0029029                                                                                                                              *          20190223 IMCT                IMCT                                                                                                                    WMF1902234.TXT
MDEDK2352179201902                D89838031200PT4D20190228000030RADIO;ASM DVD                 M IMCTM S9CO001TNTH  09020IMCT  S9 PTB  00003                    1300 SR        000000000000 DENSO TEN (THAILAND)190K21U0030031                                                                                                                              *          20190223 IMCT                IMCT                                                                                                                    WMF1902234.TXT
MDEDK2352180201902                D89848582100PT4D20190228000015RADIO;AM/FM CD D              M IMCTM S9CO001TNTH  09020IMCT  S9 PTB  00003                    2230 SR        000000000000 DENSO TEN (THAILAND)190H17U0017017                                                                                                                              *          20190223 IMCT                IMCT                                                                                                                    WMF1902234.TXT
MDEDK2352181201902                D89848582800PT1D20190228000015RADIO;AM/FM CD D              M IMCTM S5NC06 TNTH  09020IMCT  S5 PTB  00003                    0230 SR        000000000000 DENSO TEN (THAILAND)190H67L0001001                                                                                                                              *          20190223 IMCT                IMCT                                                                                                                    WMF1902234.TXT
MDEDK2352182201902                D89848582800PT1D20190228000030RADIO;AM/FM CD D              M IMCTM S5NC06 TNTH  09020IMCT  S5 PTB  00003                    1600 SR        000000000000 DENSO TEN (THAILAND)190H67L0002003                                                                                                                              *          20190223 IMCT                IMCT                                                                                                                    WMF1902234.TXT
MDEUK2240885201902                D89828070100PT4U20190228000030SPEAKER ASM                   M IMCTM S0FL05 TNTH  09020IMCT  S0 PTB  00004                    0230 SR        000000000000 DENSO TEN (THAILAND)190G32U0020020                                                                                                                              *          20190223 IMCT                IMCT                                                                                                                    WMF1902234.TXT
MDEUK2240886201902                D89828070100PT4U20190228000030SPEAKER ASM                   M IMCTM S0FL05 TNTH  09020IMCT  S0 PTB  00004                    1600 SR        000000000000 DENSO TEN (THAILAND)190G25U0009009                                                                                                                              *          20190223 IMCT                IMCT                                                                                                                    WMF1902234.TXT
MDEUK2240887201902                D89828070200PV4U20190228000030SPEAKER ASM                   M IMCTM S0FR05 TNTH  09020IMCT  S0 PTB  00005                    0230 SR        000000000000 DENSO TEN (THAILAND)190G32U0020020                                                                                                                              *          20190223 IMCT                IMCT                                                                                                                    WMF1902234.TXT
MDEUK2240888201902                D89828070200PV4U20190228000030SPEAKER ASM                   M IMCTM S0FR05 TNTH  09020IMCT  S0 PTB  00005                    1600 SR        000000000000 DENSO TEN (THAILAND)190G25U0009009                                                                                                                              *          20190223 IMCT                IMCT                                                                                                                    WMF1902234.TXT
MDEUK2240889201902                D89828070300PT4U20190228000030SPEAKER ASM                   M IMCTM S9TS02 TNTH  09020IMCT  S9 PTB  00015                    0230 SR        000000000000 DENSO TEN (THAILAND)190G32U0020020                                                                                                                              *          20190223 IMCT                IMCT                                                                                                                    WMF1902234.TXT
MDEUK2240890201902                D89828070300PT4U20190228000030SPEAKER ASM                   M IMCTM S9TS02 TNTH  09020IMCT  S9 PTB  00015                    1600 SR        000000000000 DENSO TEN (THAILAND)190G25U0009009                                                                                                                              *          20190223 IMCT                IMCT                                                                                                                    WMF1902234.TXT
