REC2019022720190227ISUZU                              63     
MDDDK2318668201903                D89821984430PT1D20190303000030RADIO;AM/FM,CD                M IMCTM S5NC06 TNTH  09020IMCT  S5 PTB  00005                    0230 SR        000000000000 DENSO TEN (THAILAND)190MNGL0085085                                                                                                                              *          20190227 IMCT                IMCT                                                                                                                    WMF1902273.TXT
MDDDK2318669201903                D89821984430PT1D20190303000030RADIO;AM/FM,CD                M IMCTM S5NC06 TNTH  09020IMCT  S5 PTB  00005                    0400 SR        000000000000 DENSO TEN (THAILAND)190MRAL0083083                                                                                                                              *          20190227 IMCT                IMCT                                                                                                                    WMF1902273.TXT
MDDDK2318670201903                D89821984430PT1D20190304000030RADIO;AM/FM,CD                M IMCTM S5NC06 TNTH  09020IMCT  S5 PTB  00005                    1030 SR        000000000000 DENSO TEN (THAILAND)190MXCL0035035                                                                                                                              *          20190227 IMCT                IMCT                                                                                                                    WMF1902273.TXT
MDDDK2318671201903                D89821984430PT1D20190304000030RADIO;AM/FM,CD                M IMCTM S5NC06 TNTH  09020IMCT  S5 PTB  00005                    1300 SR        000000000000 DENSO TEN (THAILAND)190MYAL0133133                                                                                                                              *          20190227 IMCT                IMCT                                                                                                                    WMF1902273.TXT
MDDDK2318672201903                D89821984430PT1D20190304000030RADIO;AM/FM,CD                M IMCTM S5NC06 TNTH  09020IMCT  S5 PTB  00005                    1600 SR        000000000000 DENSO TEN (THAILAND)190MXFL0009009                                                                                                                              *          20190227 IMCT                IMCT                                                                                                                    WMF1902273.TXT
MDDDK2318673201903                D89828070100PV1D20190303000060SPEAKER ASM                   M IMCTM S5MB11 TNTH  09020IMCT  S5 PTB  00004                    0230 SR        000000000000 DENSO TEN (THAILAND)190MNGL0085085                                                                                                                              *          20190227 IMCT                IMCT                                                                                                                    WMF1902273.TXT
MDDDK2318674201903                D89828070100PV1D20190303000060SPEAKER ASM                   M IMCTM S5MB11 TNTH  09020IMCT  S5 PTB  00004                    0400 SR        000000000000 DENSO TEN (THAILAND)190MRAL0083083                                                                                                                              *          20190227 IMCT                IMCT                                                                                                                    WMF1902273.TXT
MDDDK2318675201903                D89828070100PV1D20190304000060SPEAKER ASM                   M IMCTM S5MB11 TNTH  09020IMCT  S5 PTB  00004                    1030 SR        000000000000 DENSO TEN (THAILAND)190MXCL0035035                                                                                                                              *          20190227 IMCT                IMCT                                                                                                                    WMF1902273.TXT
MDDDK2318676201903                D89828070100PV1D20190304000060SPEAKER ASM                   M IMCTM S5MB11 TNTH  09020IMCT  S5 PTB  00004                    1300 SR        000000000000 DENSO TEN (THAILAND)190MYAL0133133                                                                                                                              *          20190227 IMCT                IMCT                                                                                                                    WMF1902273.TXT
MDDDK2318677201903                D89828070100PV1D20190304000060SPEAKER ASM                   M IMCTM S5MB11 TNTH  09020IMCT  S5 PTB  00004                    1600 SR        000000000000 DENSO TEN (THAILAND)190MXFL0009009                                                                                                                              *          20190227 IMCT                IMCT                                                                                                                    WMF1902273.TXT
MDDDK2318678201903                D89828070100PV4D20190304000060SPEAKER ASM                   M IMCTM S0FL05 TNTH  09020IMCT  S0 PTB  00004                    1300 SR        000000000000 DENSO TEN (THAILAND)190MRWU0038038                                                                                                                              *          20190227 IMCT                IMCT                                                                                                                    WMF1902273.TXT
MDDDK2318679201903                D89828070200PV4D20190304000060SPEAKER ASM                   M IMCTM S0FR05 TNTH  09020IMCT  S0 PTB  00005                    1300 SR        000000000000 DENSO TEN (THAILAND)190MRWU0038038                                                                                                                              *          20190227 IMCT                IMCT                                                                                                                    WMF1902273.TXT
MDDDK2318680201903                D89828070300PT4D20190304000060SPEAKER ASM                   M IMCTM S9TS02 TNTH  09020IMCT  S9 PTB  00015                    1300 SR        000000000000 DENSO TEN (THAILAND)190MRWU0038038                                                                                                                              *          20190227 IMCT                IMCT                                                                                                                    WMF1902273.TXT
MDDUK2267497201903                D89828070100PT4U20190303000030SPEAKER ASM                   M IMCTM S0FL05 TNTH  09020IMCT  S0 PTB  00004                    0230 SR        000000000000 DENSO TEN (THAILAND)190MUEU0052052                                                                                                                              *          20190227 IMCT                IMCT                                                                                                                    WMF1902273.TXT
MDDUK2267498201903                D89828070100PT4U20190303000030SPEAKER ASM                   M IMCTM S0FL05 TNTH  09020IMCT  S0 PTB  00004                    0400 SR        000000000000 DENSO TEN (THAILAND)190MUCU0008008                                                                                                                              *          20190227 IMCT                IMCT                                                                                                                    WMF1902273.TXT
MDDUK2267499201903                D89828070100PT4U20190304000030SPEAKER ASM                   M IMCTM S0FL05 TNTH  09020IMCT  S0 PTB  00004                    1300 SR        000000000000 DENSO TEN (THAILAND)190MUGU0028028                                                                                                                              *          20190227 IMCT                IMCT                                                                                                                    WMF1902273.TXT
MDDUK2267500201903                D89828070100PT4U20190304000030SPEAKER ASM                   M IMCTM S0FL05 TNTH  09020IMCT  S0 PTB  00004                    2100 SR        000000000000 DENSO TEN (THAILAND)190MUDU0006006                                                                                                                              *          20190227 IMCT                IMCT                                                                                                                    WMF1902273.TXT
MDDUK2267501201903                D89828070200PV4U20190303000030SPEAKER ASM                   M IMCTM S0FR05 TNTH  09020IMCT  S0 PTB  00005                    0230 SR        000000000000 DENSO TEN (THAILAND)190MUEU0052052                                                                                                                              *          20190227 IMCT                IMCT                                                                                                                    WMF1902273.TXT
MDDUK2267502201903                D89828070200PV4U20190303000030SPEAKER ASM                   M IMCTM S0FR05 TNTH  09020IMCT  S0 PTB  00005                    0400 SR        000000000000 DENSO TEN (THAILAND)190MUCU0008008                                                                                                                              *          20190227 IMCT                IMCT                                                                                                                    WMF1902273.TXT
MDDUK2267503201903                D89828070200PV4U20190304000030SPEAKER ASM                   M IMCTM S0FR05 TNTH  09020IMCT  S0 PTB  00005                    1300 SR        000000000000 DENSO TEN (THAILAND)190MUGU0028028                                                                                                                              *          20190227 IMCT                IMCT                                                                                                                    WMF1902273.TXT
MDDUK2267504201903                D89828070200PV4U20190304000030SPEAKER ASM                   M IMCTM S0FR05 TNTH  09020IMCT  S0 PTB  00005                    2100 SR        000000000000 DENSO TEN (THAILAND)190MUDU0006006                                                                                                                              *          20190227 IMCT                IMCT                                                                                                                    WMF1902273.TXT
MDDUK2267505201903                D89828070300PT4U20190303000030SPEAKER ASM                   M IMCTM S9TS02 TNTH  09020IMCT  S9 PTB  00015                    0230 SR        000000000000 DENSO TEN (THAILAND)190MUEU0052052                                                                                                                              *          20190227 IMCT                IMCT                                                                                                                    WMF1902273.TXT
MDDUK2267506201903                D89828070300PT4U20190303000030SPEAKER ASM                   M IMCTM S9TS02 TNTH  09020IMCT  S9 PTB  00015                    0400 SR        000000000000 DENSO TEN (THAILAND)190MUCU0008008                                                                                                                              *          20190227 IMCT                IMCT                                                                                                                    WMF1902273.TXT
MDDUK2267507201903                D89828070300PT4U20190304000030SPEAKER ASM                   M IMCTM S9TS02 TNTH  09020IMCT  S9 PTB  00015                    1300 SR        000000000000 DENSO TEN (THAILAND)190MUGU0028028                                                                                                                              *          20190227 IMCT                IMCT                                                                                                                    WMF1902273.TXT
MDDUK2267508201903                D89828070300PT4U20190304000030SPEAKER ASM                   M IMCTM S9TS02 TNTH  09020IMCT  S9 PTB  00015                    2100 SR        000000000000 DENSO TEN (THAILAND)190MUDU0006006                                                                                                                              *          20190227 IMCT                IMCT                                                                                                                    WMF1902273.TXT
MDDUK2267509201903                D89848584200PT4U20190303000015RADIO;AM/FM CD D              M IMCTM S9CO001TNTH  09020IMCT  S9 PTB  00003                    0400 SR        000000000000 DENSO TEN (THAILAND)190MUCU0008008                                                                                                                              *          20190227 IMCT                IMCT                                                                                                                    WMF1902273.TXT
MDEDK2376639201903                D89752845200PT1D20190304000030RADIO;AM FM,CD D              M IMCTM S5NC06 TNTH  09020IMCT  S5 PTB  00003                    0830 SR        000000000000 DENSO TEN (THAILAND)190G05L0004005                                                                                                                              *          20190227 IMCT                IMCT                                                                                                                    WMF1902273.TXT
MDEDK2376640201903                D89828070100PV1D20190302000060SPEAKER ASM                   M IMCTM S5MB11 TNTH  09020IMCT  S5 PTB  00004                    2230 SR        000000000000 DENSO TEN (THAILAND)190K39L0015016                                                                                                                              *          20190227 IMCT                IMCT                                                                                                                    WMF1902273.TXT
MDEDK2376641201903                D89828070100PV1D20190303000060SPEAKER ASM                   M IMCTM S5MB11 TNTH  09020IMCT  S5 PTB  00004                    0400 SR        000000000000 DENSO TEN (THAILAND)17041PL0104104190H16L0003003                                                                                                                *          20190227 IMCT                IMCT                                                                                                                    WMF1902273.TXT
MDEDK2376642201903                D89828070100PV1D20190304000060SPEAKER ASM                   M IMCTM S5MB11 TNTH  09020IMCT  S5 PTB  00004                    0830 SR        000000000000 DENSO TEN (THAILAND)190G05L0004005                                                                                                                              *          20190227 IMCT                IMCT                                                                                                                    WMF1902273.TXT
MDEDK2376643201903                D89828070100PV1D20190304000060SPEAKER ASM                   M IMCTM S5MB11 TNTH  09020IMCT  S5 PTB  00004                    1300 SR        000000000000 DENSO TEN (THAILAND)190K39L0017018                                                                                                                              *          20190227 IMCT                IMCT                                                                                                                    WMF1902273.TXT
MDEDK2376644201903                D89828070100PV1D20190304000060SPEAKER ASM                   M IMCTM S5MB11 TNTH  09020IMCT  S5 PTB  00004                    1600 SR        000000000000 DENSO TEN (THAILAND)190J07L0003004                                                                                                                              *          20190227 IMCT                IMCT                                                                                                                    WMF1902273.TXT
MDEDK2376645201903                D89828070100PV1D20190304000030SPEAKER ASM                   M IMCTM S5MB11 TNTH  09020IMCT  S5 PTB  00004                    2100 SR        000000000000 DENSO TEN (THAILAND)190F86L0091091                                                                                                                              *          20190227 IMCT                IMCT                                                                                                                    WMF1902273.TXT
MDEDK2376646201903                D89828070100PV1D20190304000030SPEAKER ASM                   M IMCTM S5MB11 TNTH  09020IMCT  S5 PTB  00004                    2230 SR        000000000000 DENSO TEN (THAILAND)190F86L0092092                                                                                                                              *          20190227 IMCT                IMCT                                                                                                                    WMF1902273.TXT
MDEDK2376647201903                D89828070100PV4D20190303000030SPEAKER ASM                   M IMCTM S0FL05 TNTH  09020IMCT  S0 PTB  00004                    0230 SR        000000000000 DENSO TEN (THAILAND)190F44U0004004                                                                                                                              *          20190227 IMCT                IMCT                                                                                                                    WMF1902273.TXT
MDEDK2376648201903                D89828070100PV4D20190304000030SPEAKER ASM                   M IMCTM S0FL05 TNTH  09020IMCT  S0 PTB  00004                    1600 SR        000000000000 DENSO TEN (THAILAND)190F44U0005005                                                                                                                              *          20190227 IMCT                IMCT                                                                                                                    WMF1902273.TXT
MDEDK2376649201903                D89828070200PV1D20190302000060SPEAKER ASM                   M IMCTM S5MA14 TNTH  09020IMCT  S5 PTB  00005                    2230 SR        000000000000 DENSO TEN (THAILAND)190K39L0015016                                                                                                                              *          20190227 IMCT                IMCT                                                                                                                    WMF1902273.TXT
MDEDK2376650201903                D89828070200PV1D20190303000030SPEAKER ASM                   M IMCTM S5MA14 TNTH  09020IMCT  S5 PTB  00005                    0400 SR        000000000000 DENSO TEN (THAILAND)190H16L0003003                                                                                                                              *          20190227 IMCT                IMCT                                                                                                                    WMF1902273.TXT
MDEDK2376651201903                D89828070200PV1D20190304000060SPEAKER ASM                   M IMCTM S5MA14 TNTH  09020IMCT  S5 PTB  00005                    1300 SR        000000000000 DENSO TEN (THAILAND)190K39L0017018                                                                                                                              *          20190227 IMCT                IMCT                                                                                                                    WMF1902273.TXT
MDEDK2376652201903                D89828070200PV1D20190304000060SPEAKER ASM                   M IMCTM S5MA14 TNTH  09020IMCT  S5 PTB  00005                    1600 SR        000000000000 DENSO TEN (THAILAND)190J07L0003004                                                                                                                              *          20190227 IMCT                IMCT                                                                                                                    WMF1902273.TXT
MDEDK2376653201903                D89828070200PV4D20190303000030SPEAKER ASM                   M IMCTM S0FR05 TNTH  09020IMCT  S0 PTB  00005                    0230 SR        000000000000 DENSO TEN (THAILAND)190F44U0004004                                                                                                                              *          20190227 IMCT                IMCT                                                                                                                    WMF1902273.TXT
MDEDK2376654201903                D89828070200PV4D20190304000030SPEAKER ASM                   M IMCTM S0FR05 TNTH  09020IMCT  S0 PTB  00005                    1600 SR        000000000000 DENSO TEN (THAILAND)190F44U0005005                                                                                                                              *          20190227 IMCT                IMCT                                                                                                                    WMF1902273.TXT
MDEDK2376655201903                D89828070300PT1D20190302000060SPEAKER ASM                   M IMCTM S5NB082TNTH  09020IMCT  S5 PTB  00015                    2230 SR        000000000000 DENSO TEN (THAILAND)190K39L0015016                                                                                                                              *          20190227 IMCT                IMCT                                                                                                                    WMF1902273.TXT
MDEDK2376656201903                D89828070300PT1D20190303000030SPEAKER ASM                   M IMCTM S5NB082TNTH  09020IMCT  S5 PTB  00015                    0400 SR        000000000000 DENSO TEN (THAILAND)190H16L0003003                                                                                                                              *          20190227 IMCT                IMCT                                                                                                                    WMF1902273.TXT
MDEDK2376657201903                D89828070300PT1D20190304000060SPEAKER ASM                   M IMCTM S5NB082TNTH  09020IMCT  S5 PTB  00015                    0830 SR        000000000000 DENSO TEN (THAILAND)190G05L0004005                                                                                                                              *          20190227 IMCT                IMCT                                                                                                                    WMF1902273.TXT
MDEDK2376658201903                D89828070300PT1D20190304000060SPEAKER ASM                   M IMCTM S5NB082TNTH  09020IMCT  S5 PTB  00015                    1300 SR        000000000000 DENSO TEN (THAILAND)190K39L0017018                                                                                                                              *          20190227 IMCT                IMCT                                                                                                                    WMF1902273.TXT
MDEDK2376659201903                D89828070300PT1D20190304000060SPEAKER ASM                   M IMCTM S5NB082TNTH  09020IMCT  S5 PTB  00015                    1600 SR        000000000000 DENSO TEN (THAILAND)190J07L0003004                                                                                                                              *          20190227 IMCT                IMCT                                                                                                                    WMF1902273.TXT
MDEDK2376660201903                D89828070300PT4D20190303000030SPEAKER ASM                   M IMCTM S9TS02 TNTH  09020IMCT  S9 PTB  00015                    0230 SR        000000000000 DENSO TEN (THAILAND)190F44U0004004                                                                                                                              *          20190227 IMCT                IMCT                                                                                                                    WMF1902273.TXT
MDEDK2376661201903                D89828070300PT4D20190304000030SPEAKER ASM                   M IMCTM S9TS02 TNTH  09020IMCT  S9 PTB  00015                    1600 SR        000000000000 DENSO TEN (THAILAND)190F44U0005005                                                                                                                              *          20190227 IMCT                IMCT                                                                                                                    WMF1902273.TXT
MDEDK2376662201903                D89848582010PT4D20190303000015RADIO;AM/FM CD D              M IMCTM S9CO001TNTH  09020IMCT  S9 PTB  00003                    0230 SR        000000000000 DENSO TEN (THAILAND)190F44U0004004                                                                                                                              *          20190227 IMCT                IMCT                                                                                                                    WMF1902273.TXT
MDEDK2376663201903                D89848582010PT4D20190304000015RADIO;AM/FM CD D              M IMCTM S9CO001TNTH  09020IMCT  S9 PTB  00003                    1600 SR        000000000000 DENSO TEN (THAILAND)190F44U0005005                                                                                                                              *          20190227 IMCT                IMCT                                                                                                                    WMF1902273.TXT
MDEDK2376664201903                D89848582100PT1D20190303000015RADIO;AM/FM CD D              M IMCTM S5NC06 TNTH  09020IMCT  S5 PTB  00003                    0400 SR        000000000000 DENSO TEN (THAILAND)190H16L0003003                                                                                                                              *          20190227 IMCT                IMCT                                                                                                                    WMF1902273.TXT
MDEUK2248283201903                D89828070100PT4U20190303000030SPEAKER ASM                   M IMCTM S0FL05 TNTH  09020IMCT  S0 PTB  00004                    0400 SR        000000000000 DENSO TEN (THAILAND)190F65U0008008                                                                                                                              *          20190227 IMCT                IMCT                                                                                                                    WMF1902273.TXT
MDEUK2248284201903                D89828070100PT4U20190304000030SPEAKER ASM                   M IMCTM S0FL05 TNTH  09020IMCT  S0 PTB  00004                    1030 SR        000000000000 DENSO TEN (THAILAND)190F65U0009009                                                                                                                              *          20190227 IMCT                IMCT                                                                                                                    WMF1902273.TXT
MDEUK2248285201903                D89828070100PT4U20190304000030SPEAKER ASM                   M IMCTM S0FL05 TNTH  09020IMCT  S0 PTB  00004                    2230 SR        000000000000 DENSO TEN (THAILAND)190G26U0006006                                                                                                                              *          20190227 IMCT                IMCT                                                                                                                    WMF1902273.TXT
MDEUK2248286201903                D89828070200PV4U20190303000030SPEAKER ASM                   M IMCTM S0FR05 TNTH  09020IMCT  S0 PTB  00005                    0400 SR        000000000000 DENSO TEN (THAILAND)190F65U0008008                                                                                                                              *          20190227 IMCT                IMCT                                                                                                                    WMF1902273.TXT
MDEUK2248287201903                D89828070200PV4U20190304000030SPEAKER ASM                   M IMCTM S0FR05 TNTH  09020IMCT  S0 PTB  00005                    1030 SR        000000000000 DENSO TEN (THAILAND)190F65U0009009                                                                                                                              *          20190227 IMCT                IMCT                                                                                                                    WMF1902273.TXT
MDEUK2248288201903                D89828070200PV4U20190304000030SPEAKER ASM                   M IMCTM S0FR05 TNTH  09020IMCT  S0 PTB  00005                    2230 SR        000000000000 DENSO TEN (THAILAND)190G26U0006006                                                                                                                              *          20190227 IMCT                IMCT                                                                                                                    WMF1902273.TXT
MDEUK2248289201903                D89828070300PT4U20190303000030SPEAKER ASM                   M IMCTM S9TS02 TNTH  09020IMCT  S9 PTB  00015                    0400 SR        000000000000 DENSO TEN (THAILAND)190F65U0008008                                                                                                                              *          20190227 IMCT                IMCT                                                                                                                    WMF1902273.TXT
MDEUK2248290201903                D89828070300PT4U20190304000030SPEAKER ASM                   M IMCTM S9TS02 TNTH  09020IMCT  S9 PTB  00015                    1030 SR        000000000000 DENSO TEN (THAILAND)190F65U0009009                                                                                                                              *          20190227 IMCT                IMCT                                                                                                                    WMF1902273.TXT
MDEUK2248291201903                D89828070300PT4U20190304000030SPEAKER ASM                   M IMCTM S9TS02 TNTH  09020IMCT  S9 PTB  00015                    2230 SR        000000000000 DENSO TEN (THAILAND)190G26U0006006                                                                                                                              *          20190227 IMCT                IMCT                                                                                                                    WMF1902273.TXT
MDEUK2248292201903                D89838432900PT4U20190303000015RADIO;ASM DVD                 M IMCTM S9TS01 TNTH  09020IMCT  S9 PTB  00003                    0400 SR        000000000000 DENSO TEN (THAILAND)190F65U0008008                                                                                                                              *          20190227 IMCT                IMCT                                                                                                                    WMF1902273.TXT
MDEUK2248293201903                D89838432900PT4U20190304000015RADIO;ASM DVD                 M IMCTM S9TS01 TNTH  09020IMCT  S9 PTB  00003                    1030 SR        000000000000 DENSO TEN (THAILAND)190F65U0009009                                                                                                                              *          20190227 IMCT                IMCT                                                                                                                    WMF1902273.TXT
