REC2019020520190205ISUZU                              67     
MDDDK2219976201902                D89821984430PT1D20190209000030RADIO;AM/FM,CD                M IMCTM S5NC06 TNTH  09020IMCT  S5 PTB  00005                    0400 SR        000000000000 DENSO TEN (THAILAND)190MRAL0080080                                                                                                                              *          20190205 IMCT                IMCT                                                                                                                    WMF1902054.TXT
MDDDK2219977201902                D89821984430PT1D20190209000030RADIO;AM/FM,CD                M IMCTM S5NC06 TNTH  09020IMCT  S5 PTB  00005                    1600 SR        000000000000 DENSO TEN (THAILAND)190MYAL0121121                                                                                                                              *          20190205 IMCT                IMCT                                                                                                                    WMF1902054.TXT
MDDDK2219978201902                D89821984430PT1D20190209000030RADIO;AM/FM,CD                M IMCTM S5NC06 TNTH  09020IMCT  S5 PTB  00005                    2100 SR        000000000000 DENSO TEN (THAILAND)190MRBL0028028                                                                                                                              *          20190205 IMCT                IMCT                                                                                                                    WMF1902054.TXT
MDDDK2219979201902                D89828070100PV1D20190209000060SPEAKER ASM                   M IMCTM S5MB11 TNTH  09020IMCT  S5 PTB  00004                    0230 SR        000000000000 DENSO TEN (THAILAND)190MPTL0004004                                                                                                                              *          20190205 IMCT                IMCT                                                                                                                    WMF1902054.TXT
MDDDK2219980201902                D89828070100PV1D20190209000060SPEAKER ASM                   M IMCTM S5MB11 TNTH  09020IMCT  S5 PTB  00004                    0400 SR        000000000000 DENSO TEN (THAILAND)190MRAL0080080                                                                                                                              *          20190205 IMCT                IMCT                                                                                                                    WMF1902054.TXT
MDDDK2219981201902                D89828070100PV1D20190209000060SPEAKER ASM                   M IMCTM S5MB11 TNTH  09020IMCT  S5 PTB  00004                    0830 SR        000000000000 DENSO TEN (THAILAND)190MPSL0005005                                                                                                                              *          20190205 IMCT                IMCT                                                                                                                    WMF1902054.TXT
MDDDK2219982201902                D89828070100PV1D20190209000060SPEAKER ASM                   M IMCTM S5MB11 TNTH  09020IMCT  S5 PTB  00004                    1030 SR        000000000000 DENSO TEN (THAILAND)190MPFL0051051                                                                                                                              *          20190205 IMCT                IMCT                                                                                                                    WMF1902054.TXT
MDDDK2219983201902                D89828070100PV1D20190209000060SPEAKER ASM                   M IMCTM S5MB11 TNTH  09020IMCT  S5 PTB  00004                    1300 SR        000000000000 DENSO TEN (THAILAND)190MPTL0005005                                                                                                                              *          20190205 IMCT                IMCT                                                                                                                    WMF1902054.TXT
MDDDK2219984201902                D89828070100PV1D20190209000060SPEAKER ASM                   M IMCTM S5MB11 TNTH  09020IMCT  S5 PTB  00004                    1600 SR        000000000000 DENSO TEN (THAILAND)190MYAL0121121                                                                                                                              *          20190205 IMCT                IMCT                                                                                                                    WMF1902054.TXT
MDDDK2219985201902                D89828070100PV1D20190209000060SPEAKER ASM                   M IMCTM S5MB11 TNTH  09020IMCT  S5 PTB  00004                    2100 SR        000000000000 DENSO TEN (THAILAND)190MRBL0028028                                                                                                                              *          20190205 IMCT                IMCT                                                                                                                    WMF1902054.TXT
MDDDK2219986201902                D89828070100PV4D20190209000060SPEAKER ASM                   M IMCTM S0FL05 TNTH  09020IMCT  S0 PTB  00004                    0400 SR        000000000000 DENSO TEN (THAILAND)190MREU0029029                                                                                                                              *          20190205 IMCT                IMCT                                                                                                                    WMF1902054.TXT
MDDDK2219987201902                D89828070200PV4D20190209000060SPEAKER ASM                   M IMCTM S0FR05 TNTH  09020IMCT  S0 PTB  00005                    0400 SR        000000000000 DENSO TEN (THAILAND)190MREU0029029                                                                                                                              *          20190205 IMCT                IMCT                                                                                                                    WMF1902054.TXT
MDDDK2219988201902                D89828070300PT1D20190209000060SPEAKER ASM                   M IMCTM S5NB082TNTH  09020IMCT  S5 PTB  00015                    0230 SR        000000000000 DENSO TEN (THAILAND)190MPTL0004004                                                                                                                              *          20190205 IMCT                IMCT                                                                                                                    WMF1902054.TXT
MDDDK2219989201902                D89828070300PT1D20190209000060SPEAKER ASM                   M IMCTM S5NB082TNTH  09020IMCT  S5 PTB  00015                    0830 SR        000000000000 DENSO TEN (THAILAND)190MPSL0005005                                                                                                                              *          20190205 IMCT                IMCT                                                                                                                    WMF1902054.TXT
MDDDK2219990201902                D89828070300PT1D20190209000060SPEAKER ASM                   M IMCTM S5NB082TNTH  09020IMCT  S5 PTB  00015                    1030 SR        000000000000 DENSO TEN (THAILAND)190MPFL0051051                                                                                                                              *          20190205 IMCT                IMCT                                                                                                                    WMF1902054.TXT
MDDDK2219991201902                D89828070300PT1D20190209000060SPEAKER ASM                   M IMCTM S5NB082TNTH  09020IMCT  S5 PTB  00015                    1300 SR        000000000000 DENSO TEN (THAILAND)190MPTL0005005                                                                                                                              *          20190205 IMCT                IMCT                                                                                                                    WMF1902054.TXT
MDDDK2219992201902                D89828070300PT4D20190209000060SPEAKER ASM                   M IMCTM S9TS02 TNTH  09020IMCT  S9 PTB  00015                    0400 SR        000000000000 DENSO TEN (THAILAND)190MREU0029029                                                                                                                              *          20190205 IMCT                IMCT                                                                                                                    WMF1902054.TXT
MDDDK2219993201902                D89831228300PT1D20190209000030RADIO;AM/FM,CD                M IMCTM S5NC06 TNTH  09020IMCT  S5 CPB  00003                    1030 SR        000000000000 DENSO TEN (THAILAND)190MPFL0051051                                                                                                                              *          20190205 IMCT                IMCT                                                                                                                    WMF1902054.TXT
MDDDK2219994201902                D89831228400PT4D20190209000030RADIO;AM/FM,CD                M IMCTM S9CO001TNTH  09020IMCT  S9 CPB  00003                    0400 SR        000000000000 DENSO TEN (THAILAND)190MREU0029029                                                                                                                              *          20190205 IMCT                IMCT                                                                                                                    WMF1902054.TXT
MDDUK2208726201902                D89828070100PT4U20190209000030SPEAKER ASM                   M IMCTM S0FL05 TNTH  09020IMCT  S0 PTB  00004                    0400 SR        000000000000 DENSO TEN (THAILAND)190MUEU0018018                                                                                                                              *          20190205 IMCT                IMCT                                                                                                                    WMF1902054.TXT
MDDUK2208727201902                D89828070100PT4U20190209000030SPEAKER ASM                   M IMCTM S0FL05 TNTH  09020IMCT  S0 PTB  00004                    1030 SR        000000000000 DENSO TEN (THAILAND)190MUEU0019019                                                                                                                              *          20190205 IMCT                IMCT                                                                                                                    WMF1902054.TXT
MDDUK2208728201902                D89828070100PT4U20190209000030SPEAKER ASM                   M IMCTM S0FL05 TNTH  09020IMCT  S0 PTB  00004                    1300 SR        000000000000 DENSO TEN (THAILAND)190MUEU0020020                                                                                                                              *          20190205 IMCT                IMCT                                                                                                                    WMF1902054.TXT
MDDUK2208729201902                D89828070200PV4U20190209000030SPEAKER ASM                   M IMCTM S0FR05 TNTH  09020IMCT  S0 PTB  00005                    0400 SR        000000000000 DENSO TEN (THAILAND)190MUEU0018018                                                                                                                              *          20190205 IMCT                IMCT                                                                                                                    WMF1902054.TXT
MDDUK2208730201902                D89828070200PV4U20190209000030SPEAKER ASM                   M IMCTM S0FR05 TNTH  09020IMCT  S0 PTB  00005                    1030 SR        000000000000 DENSO TEN (THAILAND)190MUEU0019019                                                                                                                              *          20190205 IMCT                IMCT                                                                                                                    WMF1902054.TXT
MDDUK2208731201902                D89828070200PV4U20190209000030SPEAKER ASM                   M IMCTM S0FR05 TNTH  09020IMCT  S0 PTB  00005                    1300 SR        000000000000 DENSO TEN (THAILAND)190MUEU0020020                                                                                                                              *          20190205 IMCT                IMCT                                                                                                                    WMF1902054.TXT
MDDUK2208732201902                D89828070300PT4U20190209000030SPEAKER ASM                   M IMCTM S9TS02 TNTH  09020IMCT  S9 PTB  00015                    0400 SR        000000000000 DENSO TEN (THAILAND)190MUEU0018018                                                                                                                              *          20190205 IMCT                IMCT                                                                                                                    WMF1902054.TXT
MDDUK2208733201902                D89828070300PT4U20190209000030SPEAKER ASM                   M IMCTM S9TS02 TNTH  09020IMCT  S9 PTB  00015                    1030 SR        000000000000 DENSO TEN (THAILAND)190MUEU0019019                                                                                                                              *          20190205 IMCT                IMCT                                                                                                                    WMF1902054.TXT
MDDUK2208734201902                D89828070300PT4U20190209000030SPEAKER ASM                   M IMCTM S9TS02 TNTH  09020IMCT  S9 PTB  00015                    1300 SR        000000000000 DENSO TEN (THAILAND)190MUEU0020020                                                                                                                              *          20190205 IMCT                IMCT                                                                                                                    WMF1902054.TXT
MDEDK2216733201902                D89828070100PV1D20190208000030SPEAKER ASM                   M IMCTM S5MB11 TNTH  09020IMCT  S5 PTB  00004                    2230 SR        000000000000 DENSO TEN (THAILAND)190K83L0011011                                                                                                                              *          20190205 IMCT                IMCT                                                                                                                    WMF1902054.TXT
MDEDK2216734201902                D89828070100PV1D20190209000030SPEAKER ASM                   M IMCTM S5MB11 TNTH  09020IMCT  S5 PTB  00004                    0230 SR        000000000000 DENSO TEN (THAILAND)190K83L0012012                                                                                                                              *          20190205 IMCT                IMCT                                                                                                                    WMF1902054.TXT
MDEDK2216735201902                D89828070100PV1D20190209000060SPEAKER ASM                   M IMCTM S5MB11 TNTH  09020IMCT  S5 PTB  00004                    0400 SR        000000000000 DENSO TEN (THAILAND)190J28L0003003190J91L0021021                                                                                                                *          20190205 IMCT                IMCT                                                                                                                    WMF1902054.TXT
MDEDK2216736201902                D89828070100PV1D20190209000030SPEAKER ASM                   M IMCTM S5MB11 TNTH  09020IMCT  S5 PTB  00004                    0830 SR        000000000000 DENSO TEN (THAILAND)190J28L0004004                                                                                                                              *          20190205 IMCT                IMCT                                                                                                                    WMF1902054.TXT
MDEDK2216737201902                D89828070100PV1D20190209000060SPEAKER ASM                   M IMCTM S5MB11 TNTH  09020IMCT  S5 PTB  00004                    1300 SR        000000000000 DENSO TEN (THAILAND)190H86L0001001190K17L0002002                                                                                                                *          20190205 IMCT                IMCT                                                                                                                    WMF1902054.TXT
MDEDK2216738201902                D89828070100PV1D20190209000030SPEAKER ASM                   M IMCTM S5MB11 TNTH  09020IMCT  S5 PTB  00004                    1600 SR        000000000000 DENSO TEN (THAILAND)190K16L0001001                                                                                                                              *          20190205 IMCT                IMCT                                                                                                                    WMF1902054.TXT
MDEDK2216739201902                D89828070100PV4D20190209000030SPEAKER ASM                   M IMCTM S0FL05 TNTH  09020IMCT  S0 PTB  00004                    1300 SR        000000000000 DENSO TEN (THAILAND)190K85U0001001                                                                                                                              *          20190205 IMCT                IMCT                                                                                                                    WMF1902054.TXT
MDEDK2216740201902                D89828070100PV4D20190209000030SPEAKER ASM                   M IMCTM S0FL05 TNTH  09020IMCT  S0 PTB  00004                    2100 SR        000000000000 DENSO TEN (THAILAND)190K21U0020020                                                                                                                              *          20190205 IMCT                IMCT                                                                                                                    WMF1902054.TXT
MDEDK2216741201902                D89828070200PV1D20190208000030SPEAKER ASM                   M IMCTM S5MA14 TNTH  09020IMCT  S5 PTB  00005                    2230 SR        000000000000 DENSO TEN (THAILAND)190K83L0011011                                                                                                                              *          20190205 IMCT                IMCT                                                                                                                    WMF1902054.TXT
MDEDK2216742201902                D89828070200PV1D20190209000030SPEAKER ASM                   M IMCTM S5MA14 TNTH  09020IMCT  S5 PTB  00005                    0230 SR        000000000000 DENSO TEN (THAILAND)190K83L0012012                                                                                                                              *          20190205 IMCT                IMCT                                                                                                                    WMF1902054.TXT
MDEDK2216743201902                D89828070200PV1D20190209000030SPEAKER ASM                   M IMCTM S5MA14 TNTH  09020IMCT  S5 PTB  00005                    0400 SR        000000000000 DENSO TEN (THAILAND)190J28L0003003                                                                                                                              *          20190205 IMCT                IMCT                                                                                                                    WMF1902054.TXT
MDEDK2216744201902                D89828070200PV1D20190209000030SPEAKER ASM                   M IMCTM S5MA14 TNTH  09020IMCT  S5 PTB  00005                    0830 SR        000000000000 DENSO TEN (THAILAND)190J28L0004004                                                                                                                              *          20190205 IMCT                IMCT                                                                                                                    WMF1902054.TXT
MDEDK2216745201902                D89828070200PV1D20190209000060SPEAKER ASM                   M IMCTM S5MA14 TNTH  09020IMCT  S5 PTB  00005                    1300 SR        000000000000 DENSO TEN (THAILAND)190H86L0001001190K17L0002002                                                                                                                *          20190205 IMCT                IMCT                                                                                                                    WMF1902054.TXT
MDEDK2216746201902                D89828070200PV1D20190209000030SPEAKER ASM                   M IMCTM S5MA14 TNTH  09020IMCT  S5 PTB  00005                    1600 SR        000000000000 DENSO TEN (THAILAND)190K16L0001001                                                                                                                              *          20190205 IMCT                IMCT                                                                                                                    WMF1902054.TXT
MDEDK2216747201902                D89828070200PV4D20190209000030SPEAKER ASM                   M IMCTM S0FR05 TNTH  09020IMCT  S0 PTB  00005                    1300 SR        000000000000 DENSO TEN (THAILAND)190K85U0001001                                                                                                                              *          20190205 IMCT                IMCT                                                                                                                    WMF1902054.TXT
MDEDK2216748201902                D89828070200PV4D20190209000030SPEAKER ASM                   M IMCTM S0FR05 TNTH  09020IMCT  S0 PTB  00005                    2100 SR        000000000000 DENSO TEN (THAILAND)190K21U0020020                                                                                                                              *          20190205 IMCT                IMCT                                                                                                                    WMF1902054.TXT
MDEDK2216749201902                D89828070300PT1D20190208000030SPEAKER ASM                   M IMCTM S5NB082TNTH  09020IMCT  S5 PTB  00015                    2230 SR        000000000000 DENSO TEN (THAILAND)190K83L0011011                                                                                                                              *          20190205 IMCT                IMCT                                                                                                                    WMF1902054.TXT
MDEDK2216750201902                D89828070300PT1D20190209000030SPEAKER ASM                   M IMCTM S5NB082TNTH  09020IMCT  S5 PTB  00015                    0230 SR        000000000000 DENSO TEN (THAILAND)190K83L0012012                                                                                                                              *          20190205 IMCT                IMCT                                                                                                                    WMF1902054.TXT
MDEDK2216751201902                D89828070300PT1D20190209000030SPEAKER ASM                   M IMCTM S5NB082TNTH  09020IMCT  S5 PTB  00015                    0400 SR        000000000000 DENSO TEN (THAILAND)190J28L0003003                                                                                                                              *          20190205 IMCT                IMCT                                                                                                                    WMF1902054.TXT
MDEDK2216752201902                D89828070300PT1D20190209000030SPEAKER ASM                   M IMCTM S5NB082TNTH  09020IMCT  S5 PTB  00015                    0830 SR        000000000000 DENSO TEN (THAILAND)190J28L0004004                                                                                                                              *          20190205 IMCT                IMCT                                                                                                                    WMF1902054.TXT
MDEDK2216753201902                D89828070300PT1D20190209000060SPEAKER ASM                   M IMCTM S5NB082TNTH  09020IMCT  S5 PTB  00015                    1300 SR        000000000000 DENSO TEN (THAILAND)190H86L0001001190K17L0002002                                                                                                                *          20190205 IMCT                IMCT                                                                                                                    WMF1902054.TXT
MDEDK2216754201902                D89828070300PT1D20190209000030SPEAKER ASM                   M IMCTM S5NB082TNTH  09020IMCT  S5 PTB  00015                    1600 SR        000000000000 DENSO TEN (THAILAND)190K16L0001001                                                                                                                              *          20190205 IMCT                IMCT                                                                                                                    WMF1902054.TXT
MDEDK2216755201902                D89828070300PT4D20190209000030SPEAKER ASM                   M IMCTM S9TS02 TNTH  09020IMCT  S9 PTB  00015                    1300 SR        000000000000 DENSO TEN (THAILAND)190K85U0001001                                                                                                                              *          20190205 IMCT                IMCT                                                                                                                    WMF1902054.TXT
MDEDK2216756201902                D89828070300PT4D20190209000030SPEAKER ASM                   M IMCTM S9TS02 TNTH  09020IMCT  S9 PTB  00015                    2100 SR        000000000000 DENSO TEN (THAILAND)190K21U0020020                                                                                                                              *          20190205 IMCT                IMCT                                                                                                                    WMF1902054.TXT
MDEDK2216757201902                D89831229010PT4D20190209000015RADIO;AM/FM,CD                M IMCTM S9CO001TNTH  09020IMCT  S9 PTB  00003                    1300 SR        000000000000 DENSO TEN (THAILAND)190K85U0001001                                                                                                                              *          20190205 IMCT                IMCT                                                                                                                    WMF1902054.TXT
MDEDK2216758201902                D89838031200PT1D20190209000015RADIO;ASM DVD                 M IMCTM S5NC06 TNTH  09020IMCT  S5 PTB  00003                    1300 SR        000000000000 DENSO TEN (THAILAND)190K17L0002002                                                                                                                              *          20190205 IMCT                IMCT                                                                                                                    WMF1902054.TXT
MDEDK2216759201902                D89838031200PT1D20190209000015RADIO;ASM DVD                 M IMCTM S5NC06 TNTH  09020IMCT  S5 PTB  00003                    1600 SR        000000000000 DENSO TEN (THAILAND)190K16L0001001                                                                                                                              *          20190205 IMCT                IMCT                                                                                                                    WMF1902054.TXT
MDEDK2216760201902                D89838031200PT4D20190209000015RADIO;ASM DVD                 M IMCTM S9CO001TNTH  09020IMCT  S9 PTB  00003                    2100 SR        000000000000 DENSO TEN (THAILAND)190K21U0020020                                                                                                                              *          20190205 IMCT                IMCT                                                                                                                    WMF1902054.TXT
MDEDK2216761201902                D89848582100PT1D20190209000015RADIO;AM/FM CD D              M IMCTM S5NC06 TNTH  09020IMCT  S5 PTB  00003                    1300 SR        000000000000 DENSO TEN (THAILAND)190H86L0001001                                                                                                                              *          20190205 IMCT                IMCT                                                                                                                    WMF1902054.TXT
MDEUK2206019201902                D89828070100PT4U20190209000030SPEAKER ASM                   M IMCTM S0FL05 TNTH  09020IMCT  S0 PTB  00004                    0400 SR        000000000000 DENSO TEN (THAILAND)190F65U0007007                                                                                                                              *          20190205 IMCT                IMCT                                                                                                                    WMF1902054.TXT
MDEUK2206020201902                D89828070100PT4U20190209000030SPEAKER ASM                   M IMCTM S0FL05 TNTH  09020IMCT  S0 PTB  00004                    1300 SR        000000000000 DENSO TEN (THAILAND)190F59U0006006                                                                                                                              *          20190205 IMCT                IMCT                                                                                                                    WMF1902054.TXT
MDEUK2206021201902                D89828070100PT4U20190209000030SPEAKER ASM                   M IMCTM S0FL05 TNTH  09020IMCT  S0 PTB  00004                    2230 SR        000000000000 DENSO TEN (THAILAND)190G25U0002002                                                                                                                              *          20190205 IMCT                IMCT                                                                                                                    WMF1902054.TXT
MDEUK2206022201902                D89828070200PV4U20190209000030SPEAKER ASM                   M IMCTM S0FR05 TNTH  09020IMCT  S0 PTB  00005                    0400 SR        000000000000 DENSO TEN (THAILAND)190F65U0007007                                                                                                                              *          20190205 IMCT                IMCT                                                                                                                    WMF1902054.TXT
MDEUK2206023201902                D89828070200PV4U20190209000030SPEAKER ASM                   M IMCTM S0FR05 TNTH  09020IMCT  S0 PTB  00005                    1300 SR        000000000000 DENSO TEN (THAILAND)190F59U0006006                                                                                                                              *          20190205 IMCT                IMCT                                                                                                                    WMF1902054.TXT
MDEUK2206024201902                D89828070200PV4U20190209000030SPEAKER ASM                   M IMCTM S0FR05 TNTH  09020IMCT  S0 PTB  00005                    2230 SR        000000000000 DENSO TEN (THAILAND)190G25U0002002                                                                                                                              *          20190205 IMCT                IMCT                                                                                                                    WMF1902054.TXT
MDEUK2206025201902                D89828070300PT4U20190209000030SPEAKER ASM                   M IMCTM S9TS02 TNTH  09020IMCT  S9 PTB  00015                    0400 SR        000000000000 DENSO TEN (THAILAND)190F65U0007007                                                                                                                              *          20190205 IMCT                IMCT                                                                                                                    WMF1902054.TXT
MDEUK2206026201902                D89828070300PT4U20190209000030SPEAKER ASM                   M IMCTM S9TS02 TNTH  09020IMCT  S9 PTB  00015                    1300 SR        000000000000 DENSO TEN (THAILAND)190F59U0006006                                                                                                                              *          20190205 IMCT                IMCT                                                                                                                    WMF1902054.TXT
MDEUK2206027201902                D89828070300PT4U20190209000030SPEAKER ASM                   M IMCTM S9TS02 TNTH  09020IMCT  S9 PTB  00015                    2230 SR        000000000000 DENSO TEN (THAILAND)190G25U0002002                                                                                                                              *          20190205 IMCT                IMCT                                                                                                                    WMF1902054.TXT
MDEUK2206028201902                D89838432900PT4U20190209000015RADIO;ASM DVD                 M IMCTM S9TS01 TNTH  09020IMCT  S9 PTB  00003                    0400 SR        000000000000 DENSO TEN (THAILAND)190F65U0007007                                                                                                                              *          20190205 IMCT                IMCT                                                                                                                    WMF1902054.TXT
