REC2019021620190216ISUZU                              12     
MDEFK2T16556201902                D89828070100PV4F20190221000002SPEAKER ASM                   M IMCTM S7FL05 TNTH  09020IMCT  S7 PTB  00004                    2230 SR        000000000000 DENSO TEN (THAILAND)190G72R0009   190G72R0009   D190205515    D190205515    000000                                                                              *R         20190216 IMCT                IMCT                                                                                                                    RMF1902163.TXT
MDEFK2T16557201902                D89828070200PV4F20190221000019SPEAKER ASM                   M IMCTM S7FL05 TNTH  09020IMCT  S7 PTB  00005                    2100 SR        000000000000 DENSO TEN (THAILAND)190H15R0003   190G72R0009   D190205501    D190205515    000000                                                                              *R         20190216 IMCT                IMCT                                                                                                                    RMF1902163.TXT
MDEFK2T16558201902                D89828070300PT4F20190221000014SPEAKER ASM                   M IMCTM S7TS02 TNTH  09020IMCT  S7 PTB  00015                    2100 SR        000000000000 DENSO TEN (THAILAND)190G72R0003   190G72R0009   D190205509    D190205515    000000                                                                              *R         20190216 IMCT                IMCT                                                                                                                    RMF1902163.TXT
MDEFK2T16559201902                D89838031200PT4F20190221000007RADIO;ASM DVD                 M IMCTM S7TS03 TNTH  09020IMCT  S7 PTB  00003                    1300 SR        000000000000 DENSO TEN (THAILAND)190K02R0008   190K19R0025   D190205408    D190205415    000000                                                                              *R         20190216 IMCT                IMCT                                                                                                                    RMF1902163.TXT
MDEFK2T16560201902                D89848582100PT4F20190221000003RADIO;AM/FM CD D              M IMCTM S7TS01 TNTH  09020IMCT  S7 PTB  00003                    0400 SR        000000000000 DENSO TEN (THAILAND)190H15R0002   190H15R0003   D190205311    D190205501    000000                                                                              *R         20190216 IMCT                IMCT                                                                                                                    RMF1902163.TXT
MDEFK2251451201902                D89828070100PV4F20190221000032SPEAKER ASM                   M IMCTM S7FL05 TNTH  09020IMCT  S7 PTB  00004                    0400 SR        000000000000 DENSO TEN (THAILAND)190H95R0010   190J07R0011   D190205301    D190205401    000000                                                                              *R         20190216 IMCT                IMCT                                                                                                                    RMF1902163.TXT
MDEFK2251452201902                D89828070100PV4F20190221000028SPEAKER ASM                   M IMCTM S7FL05 TNTH  09020IMCT  S7 PTB  00004                    1300 SR        000000000000 DENSO TEN (THAILAND)190J21R0003   190K19R0025   D190205402    D190205415    000000                                                                              *R         20190216 IMCT                IMCT                                                                                                                    RMF1902163.TXT
MDEFK2251453201902                D89828070100PV4F20190221000028SPEAKER ASM                   M IMCTM S7FL05 TNTH  09020IMCT  S7 PTB  00004                    2100 SR        000000000000 DENSO TEN (THAILAND)190H15R0003   190G72R0008   D190205501    D190205514    000000                                                                              *R         20190216 IMCT                IMCT                                                                                                                    RMF1902163.TXT
MDEFK2251454201902                D89828070200PV4F20190221000025SPEAKER ASM                   M IMCTM S7FL05 TNTH  09020IMCT  S7 PTB  00005                    0400 SR        000000000000 DENSO TEN (THAILAND)190H95R0010   190J07R0011   D190205301    D190205401    000000                                                                              *R         20190216 IMCT                IMCT                                                                                                                    RMF1902163.TXT
MDEFK2251455201902                D89828070200PV4F20190221000030SPEAKER ASM                   M IMCTM S7FL05 TNTH  09020IMCT  S7 PTB  00005                    1300 SR        000000000000 DENSO TEN (THAILAND)190J07R0011   190H15R0003   D190205401    D190205501    000000                                                                              *R         20190216 IMCT                IMCT                                                                                                                    RMF1902163.TXT
MDEFK2251456201902                D89828070300PT4F20190221000030SPEAKER ASM                   M IMCTM S7TS02 TNTH  09020IMCT  S7 PTB  00015                    0400 SR        000000000000 DENSO TEN (THAILAND)190H95R0010   190J48R0018   D190205301    D190205403    000000                                                                              *R         20190216 IMCT                IMCT                                                                                                                    RMF1902163.TXT
MDEFK2251457201902                D89828070300PT4F20190221000030SPEAKER ASM                   M IMCTM S7TS02 TNTH  09020IMCT  S7 PTB  00015                    1300 SR        000000000000 DENSO TEN (THAILAND)190J47R0008   190G72R0002   D190205404    D190205508    000000                                                                              *R         20190216 IMCT                IMCT                                                                                                                    RMF1902163.TXT
