REC2019022020190220ISUZU                              59     
MDDDK2296137201902                D89821984430PT1D20190225000030RADIO;AM/FM,CD                M IMCTM S5NC06 TNTH  09020IMCT  S5 PTB  00005                    1030 SR        000000000000 DENSO TEN (THAILAND)190MNGL0080080                                                                                                                              *          20190220 IMCT                IMCT                                                                                                                    WMF1902204.TXT
MDDDK2296138201902                D89821984430PT1D20190225000030RADIO;AM/FM,CD                M IMCTM S5NC06 TNTH  09020IMCT  S5 PTB  00005                    1300 SR        000000000000 DENSO TEN (THAILAND)190MXCL0032032                                                                                                                              *          20190220 IMCT                IMCT                                                                                                                    WMF1902204.TXT
MDDDK2296139201902                D89828070100PV1D20190225000060SPEAKER ASM                   M IMCTM S5MB11 TNTH  09020IMCT  S5 PTB  00004                    1030 SR        000000000000 DENSO TEN (THAILAND)190MNGL0080080                                                                                                                              *          20190220 IMCT                IMCT                                                                                                                    WMF1902204.TXT
MDDDK2296140201902                D89828070100PV1D20190225000060SPEAKER ASM                   M IMCTM S5MB11 TNTH  09020IMCT  S5 PTB  00004                    1300 SR        000000000000 DENSO TEN (THAILAND)190MXCL0032032                                                                                                                              *          20190220 IMCT                IMCT                                                                                                                    WMF1902204.TXT
MDDDK2296141201902                D89828070100PV1D20190225000060SPEAKER ASM                   M IMCTM S5MB11 TNTH  09020IMCT  S5 PTB  00004                    2100 SR        000000000000 DENSO TEN (THAILAND)190MPDL0021021                                                                                                                              *          20190220 IMCT                IMCT                                                                                                                    WMF1902204.TXT
MDDDK2296142201902                D89828070300PT1D20190225000060SPEAKER ASM                   M IMCTM S5NB082TNTH  09020IMCT  S5 PTB  00015                    2100 SR        000000000000 DENSO TEN (THAILAND)190MPDL0021021                                                                                                                              *          20190220 IMCT                IMCT                                                                                                                    WMF1902204.TXT
MDDDK2296143201902                D89831228300PT1D20190225000030RADIO;AM/FM,CD                M IMCTM S5NC06 TNTH  09020IMCT  S5 CPB  00003                    2100 SR        000000000000 DENSO TEN (THAILAND)190MPDL0021021                                                                                                                              *          20190220 IMCT                IMCT                                                                                                                    WMF1902204.TXT
MDDUK2249164201902                D89828070100PT4U20190223000030SPEAKER ASM                   M IMCTM S0FL05 TNTH  09020IMCT  S0 PTB  00004                    2230 SR        000000000000 DENSO TEN (THAILAND)190MUGU0019019                                                                                                                              *          20190220 IMCT                IMCT                                                                                                                    WMF1902204.TXT
MDDUK2249165201902                D89828070100PT4U20190224000030SPEAKER ASM                   M IMCTM S0FL05 TNTH  09020IMCT  S0 PTB  00004                    0400 SR        000000000000 DENSO TEN (THAILAND)190MUEU0044044                                                                                                                              *          20190220 IMCT                IMCT                                                                                                                    WMF1902204.TXT
MDDUK2249166201902                D89828070100PT4U20190225000030SPEAKER ASM                   M IMCTM S0FL05 TNTH  09020IMCT  S0 PTB  00004                    1300 SR        000000000000 DENSO TEN (THAILAND)190MUGU0020020                                                                                                                              *          20190220 IMCT                IMCT                                                                                                                    WMF1902204.TXT
MDDUK2249167201902                D89828070100PT4U20190225000030SPEAKER ASM                   M IMCTM S0FL05 TNTH  09020IMCT  S0 PTB  00004                    1600 SR        000000000000 DENSO TEN (THAILAND)190MUDU0004004                                                                                                                              *          20190220 IMCT                IMCT                                                                                                                    WMF1902204.TXT
MDDUK2249168201902                D89828070200PV4U20190223000030SPEAKER ASM                   M IMCTM S0FR05 TNTH  09020IMCT  S0 PTB  00005                    2230 SR        000000000000 DENSO TEN (THAILAND)190MUGU0019019                                                                                                                              *          20190220 IMCT                IMCT                                                                                                                    WMF1902204.TXT
MDDUK2249169201902                D89828070200PV4U20190224000030SPEAKER ASM                   M IMCTM S0FR05 TNTH  09020IMCT  S0 PTB  00005                    0400 SR        000000000000 DENSO TEN (THAILAND)190MUEU0044044                                                                                                                              *          20190220 IMCT                IMCT                                                                                                                    WMF1902204.TXT
MDDUK2249170201902                D89828070200PV4U20190225000030SPEAKER ASM                   M IMCTM S0FR05 TNTH  09020IMCT  S0 PTB  00005                    1300 SR        000000000000 DENSO TEN (THAILAND)190MUGU0020020                                                                                                                              *          20190220 IMCT                IMCT                                                                                                                    WMF1902204.TXT
MDDUK2249171201902                D89828070200PV4U20190225000030SPEAKER ASM                   M IMCTM S0FR05 TNTH  09020IMCT  S0 PTB  00005                    1600 SR        000000000000 DENSO TEN (THAILAND)190MUDU0004004                                                                                                                              *          20190220 IMCT                IMCT                                                                                                                    WMF1902204.TXT
MDDUK2249172201902                D89828070300PT4U20190223000030SPEAKER ASM                   M IMCTM S9TS02 TNTH  09020IMCT  S9 PTB  00015                    2230 SR        000000000000 DENSO TEN (THAILAND)190MUGU0019019                                                                                                                              *          20190220 IMCT                IMCT                                                                                                                    WMF1902204.TXT
MDDUK2249173201902                D89828070300PT4U20190224000030SPEAKER ASM                   M IMCTM S9TS02 TNTH  09020IMCT  S9 PTB  00015                    0400 SR        000000000000 DENSO TEN (THAILAND)190MUEU0044044                                                                                                                              *          20190220 IMCT                IMCT                                                                                                                    WMF1902204.TXT
MDDUK2249174201902                D89828070300PT4U20190225000030SPEAKER ASM                   M IMCTM S9TS02 TNTH  09020IMCT  S9 PTB  00015                    1300 SR        000000000000 DENSO TEN (THAILAND)190MUGU0020020                                                                                                                              *          20190220 IMCT                IMCT                                                                                                                    WMF1902204.TXT
MDDUK2249175201902                D89828070300PT4U20190225000030SPEAKER ASM                   M IMCTM S9TS02 TNTH  09020IMCT  S9 PTB  00015                    1600 SR        000000000000 DENSO TEN (THAILAND)190MUDU0004004                                                                                                                              *          20190220 IMCT                IMCT                                                                                                                    WMF1902204.TXT
MDEDK2314113201902                D89752845100PT1D20190224000015RADIO;AM FM,CD D              M IMCTM S5NC06 TNTH  09020IMCT  S5 PTB  00003                    0230 SR        000000000000 DENSO TEN (THAILAND)190F95L0007007                                                                                                                              *          20190220 IMCT                IMCT                                                                                                                    WMF1902204.TXT
MDEDK2314114201902                D89752845100PT1D20190225000030RADIO;AM FM,CD D              M IMCTM S5NC06 TNTH  09020IMCT  S5 PTB  00003                    0830 SR        000000000000 DENSO TEN (THAILAND)190F93L0010011                                                                                                                              *          20190220 IMCT                IMCT                                                                                                                    WMF1902204.TXT
MDEDK2314115201902                D89828070100PV1D20190223000060SPEAKER ASM                   M IMCTM S5MB11 TNTH  09020IMCT  S5 PTB  00004                    2230 SR        000000000000 DENSO TEN (THAILAND)17041PL0092093                                                                                                                              *          20190220 IMCT                IMCT                                                                                                                    WMF1902204.TXT
MDEDK2314116201902                D89828070100PV1D20190224000090SPEAKER ASM                   M IMCTM S5MB11 TNTH  09020IMCT  S5 PTB  00004                    0230 SR        000000000000 DENSO TEN (THAILAND)190F95L0007007190H21L0001001190J90L0001001                                                                                                  *          20190220 IMCT                IMCT                                                                                                                    WMF1902204.TXT
MDEDK2314117201902                D89828070100PV1D20190224000090SPEAKER ASM                   M IMCTM S5MB11 TNTH  09020IMCT  S5 PTB  00004                    0400 SR        000000000000 DENSO TEN (THAILAND)17041PL0094095190J81L0045045                                                                                                                *          20190220 IMCT                IMCT                                                                                                                    WMF1902204.TXT
MDEDK2314118201902                D89828070100PV1D20190225000090SPEAKER ASM                   M IMCTM S5MB11 TNTH  09020IMCT  S5 PTB  00004                    0830 SR        000000000000 DENSO TEN (THAILAND)190F93L0010011190H04L0012012                                                                                                                *          20190220 IMCT                IMCT                                                                                                                    WMF1902204.TXT
MDEDK2314119201902                D89828070100PV1D20190225000030SPEAKER ASM                   M IMCTM S5MB11 TNTH  09020IMCT  S5 PTB  00004                    1030 SR        000000000000 DENSO TEN (THAILAND)190H04L0013013                                                                                                                              *          20190220 IMCT                IMCT                                                                                                                    WMF1902204.TXT
MDEDK2314120201902                D89828070100PV1D20190225000060SPEAKER ASM                   M IMCTM S5MB11 TNTH  09020IMCT  S5 PTB  00004                    1300 SR        000000000000 DENSO TEN (THAILAND)190J15L0001002                                                                                                                              *          20190220 IMCT                IMCT                                                                                                                    WMF1902204.TXT
MDEDK2314121201902                D89828070100PV1D20190225000060SPEAKER ASM                   M IMCTM S5MB11 TNTH  09020IMCT  S5 PTB  00004                    1600 SR        000000000000 DENSO TEN (THAILAND)190K21L0012013                                                                                                                              *          20190220 IMCT                IMCT                                                                                                                    WMF1902204.TXT
MDEDK2314122201902                D89828070100PV4D20190224000060SPEAKER ASM                   M IMCTM S0FL05 TNTH  09020IMCT  S0 PTB  00004                    0230 SR        000000000000 DENSO TEN (THAILAND)17041PU0005005190H17U0014014                                                                                                                *          20190220 IMCT                IMCT                                                                                                                    WMF1902204.TXT
MDEDK2314123201902                D89828070100PV4D20190225000030SPEAKER ASM                   M IMCTM S0FL05 TNTH  09020IMCT  S0 PTB  00004                    1030 SR        000000000000 DENSO TEN (THAILAND)17041PU0006006                                                                                                                              *          20190220 IMCT                IMCT                                                                                                                    WMF1902204.TXT
MDEDK2314124201902                D89828070100PV4D20190225000030SPEAKER ASM                   M IMCTM S0FL05 TNTH  09020IMCT  S0 PTB  00004                    1300 SR        000000000000 DENSO TEN (THAILAND)190K21U0021021                                                                                                                              *          20190220 IMCT                IMCT                                                                                                                    WMF1902204.TXT
MDEDK2314125201902                D89828070100PV4D20190225000030SPEAKER ASM                   M IMCTM S0FL05 TNTH  09020IMCT  S0 PTB  00004                    1600 SR        000000000000 DENSO TEN (THAILAND)190K21U0022022                                                                                                                              *          20190220 IMCT                IMCT                                                                                                                    WMF1902204.TXT
MDEDK2314126201902                D89828070100PV4D20190225000030SPEAKER ASM                   M IMCTM S0FL05 TNTH  09020IMCT  S0 PTB  00004                    2100 SR        000000000000 DENSO TEN (THAILAND)190K21U0023023                                                                                                                              *          20190220 IMCT                IMCT                                                                                                                    WMF1902204.TXT
MDEDK2314127201902                D89828070200PV1D20190224000060SPEAKER ASM                   M IMCTM S5MA14 TNTH  09020IMCT  S5 PTB  00005                    0230 SR        000000000000 DENSO TEN (THAILAND)190F95L0007007190H21L0001001                                                                                                                *          20190220 IMCT                IMCT                                                                                                                    WMF1902204.TXT
MDEDK2314128201902                D89828070200PV1D20190225000060SPEAKER ASM                   M IMCTM S5MA14 TNTH  09020IMCT  S5 PTB  00005                    1300 SR        000000000000 DENSO TEN (THAILAND)190J15L0001002                                                                                                                              *          20190220 IMCT                IMCT                                                                                                                    WMF1902204.TXT
MDEDK2314129201902                D89828070200PV1D20190225000060SPEAKER ASM                   M IMCTM S5MA14 TNTH  09020IMCT  S5 PTB  00005                    1600 SR        000000000000 DENSO TEN (THAILAND)190K21L0012013                                                                                                                              *          20190220 IMCT                IMCT                                                                                                                    WMF1902204.TXT
MDEDK2314130201902                D89828070200PV4D20190224000030SPEAKER ASM                   M IMCTM S0FR05 TNTH  09020IMCT  S0 PTB  00005                    0230 SR        000000000000 DENSO TEN (THAILAND)190H17U0014014                                                                                                                              *          20190220 IMCT                IMCT                                                                                                                    WMF1902204.TXT
MDEDK2314131201902                D89828070200PV4D20190225000030SPEAKER ASM                   M IMCTM S0FR05 TNTH  09020IMCT  S0 PTB  00005                    1300 SR        000000000000 DENSO TEN (THAILAND)190K21U0021021                                                                                                                              *          20190220 IMCT                IMCT                                                                                                                    WMF1902204.TXT
MDEDK2314132201902                D89828070200PV4D20190225000030SPEAKER ASM                   M IMCTM S0FR05 TNTH  09020IMCT  S0 PTB  00005                    1600 SR        000000000000 DENSO TEN (THAILAND)190K21U0022022                                                                                                                              *          20190220 IMCT                IMCT                                                                                                                    WMF1902204.TXT
MDEDK2314133201902                D89828070200PV4D20190225000030SPEAKER ASM                   M IMCTM S0FR05 TNTH  09020IMCT  S0 PTB  00005                    2100 SR        000000000000 DENSO TEN (THAILAND)190K21U0023023                                                                                                                              *          20190220 IMCT                IMCT                                                                                                                    WMF1902204.TXT
MDEDK2314134201902                D89828070300PT1D20190224000060SPEAKER ASM                   M IMCTM S5NB082TNTH  09020IMCT  S5 PTB  00015                    0230 SR        000000000000 DENSO TEN (THAILAND)190F95L0007007190H21L0001001                                                                                                                *          20190220 IMCT                IMCT                                                                                                                    WMF1902204.TXT
MDEDK2314135201902                D89828070300PT1D20190225000060SPEAKER ASM                   M IMCTM S5NB082TNTH  09020IMCT  S5 PTB  00015                    0830 SR        000000000000 DENSO TEN (THAILAND)190F93L0010011                                                                                                                              *          20190220 IMCT                IMCT                                                                                                                    WMF1902204.TXT
MDEDK2314136201902                D89828070300PT1D20190225000060SPEAKER ASM                   M IMCTM S5NB082TNTH  09020IMCT  S5 PTB  00015                    1300 SR        000000000000 DENSO TEN (THAILAND)190J15L0001002                                                                                                                              *          20190220 IMCT                IMCT                                                                                                                    WMF1902204.TXT
MDEDK2314137201902                D89828070300PT1D20190225000060SPEAKER ASM                   M IMCTM S5NB082TNTH  09020IMCT  S5 PTB  00015                    1600 SR        000000000000 DENSO TEN (THAILAND)190K21L0012013                                                                                                                              *          20190220 IMCT                IMCT                                                                                                                    WMF1902204.TXT
MDEDK2314138201902                D89828070300PT4D20190224000030SPEAKER ASM                   M IMCTM S9TS02 TNTH  09020IMCT  S9 PTB  00015                    0230 SR        000000000000 DENSO TEN (THAILAND)190H17U0014014                                                                                                                              *          20190220 IMCT                IMCT                                                                                                                    WMF1902204.TXT
MDEDK2314139201902                D89828070300PT4D20190225000030SPEAKER ASM                   M IMCTM S9TS02 TNTH  09020IMCT  S9 PTB  00015                    1300 SR        000000000000 DENSO TEN (THAILAND)190K21U0021021                                                                                                                              *          20190220 IMCT                IMCT                                                                                                                    WMF1902204.TXT
MDEDK2314140201902                D89828070300PT4D20190225000030SPEAKER ASM                   M IMCTM S9TS02 TNTH  09020IMCT  S9 PTB  00015                    1600 SR        000000000000 DENSO TEN (THAILAND)190K21U0022022                                                                                                                              *          20190220 IMCT                IMCT                                                                                                                    WMF1902204.TXT
MDEDK2314141201902                D89828070300PT4D20190225000030SPEAKER ASM                   M IMCTM S9TS02 TNTH  09020IMCT  S9 PTB  00015                    2100 SR        000000000000 DENSO TEN (THAILAND)190K21U0023023                                                                                                                              *          20190220 IMCT                IMCT                                                                                                                    WMF1902204.TXT
MDEDK2314142201902                D89838031200PT1D20190225000030RADIO;ASM DVD                 M IMCTM S5NC06 TNTH  09020IMCT  S5 PTB  00003                    1600 SR        000000000000 DENSO TEN (THAILAND)190K21L0012013                                                                                                                              *          20190220 IMCT                IMCT                                                                                                                    WMF1902204.TXT
MDEDK2314143201902                D89838031200PT4D20190225000015RADIO;ASM DVD                 M IMCTM S9CO001TNTH  09020IMCT  S9 PTB  00003                    1300 SR        000000000000 DENSO TEN (THAILAND)190K21U0021021                                                                                                                              *          20190220 IMCT                IMCT                                                                                                                    WMF1902204.TXT
MDEDK2314144201902                D89838031200PT4D20190225000015RADIO;ASM DVD                 M IMCTM S9CO001TNTH  09020IMCT  S9 PTB  00003                    1600 SR        000000000000 DENSO TEN (THAILAND)190K21U0022022                                                                                                                              *          20190220 IMCT                IMCT                                                                                                                    WMF1902204.TXT
MDEDK2314145201902                D89838031200PT4D20190225000015RADIO;ASM DVD                 M IMCTM S9CO001TNTH  09020IMCT  S9 PTB  00003                    2100 SR        000000000000 DENSO TEN (THAILAND)190K21U0023023                                                                                                                              *          20190220 IMCT                IMCT                                                                                                                    WMF1902204.TXT
MDEDK2314146201902                D89848582100PT4D20190224000015RADIO;AM/FM CD D              M IMCTM S9CO001TNTH  09020IMCT  S9 PTB  00003                    0230 SR        000000000000 DENSO TEN (THAILAND)190H17U0014014                                                                                                                              *          20190220 IMCT                IMCT                                                                                                                    WMF1902204.TXT
MDEUK2234322201902                D89828070100PT4U20190225000030SPEAKER ASM                   M IMCTM S0FL05 TNTH  09020IMCT  S0 PTB  00004                    0830 SR        000000000000 DENSO TEN (THAILAND)190G32U0016016                                                                                                                              *          20190220 IMCT                IMCT                                                                                                                    WMF1902204.TXT
MDEUK2234323201902                D89828070100PT4U20190225000030SPEAKER ASM                   M IMCTM S0FL05 TNTH  09020IMCT  S0 PTB  00004                    2230 SR        000000000000 DENSO TEN (THAILAND)190G25U0007007                                                                                                                              *          20190220 IMCT                IMCT                                                                                                                    WMF1902204.TXT
MDEUK2234324201902                D89828070200PV4U20190225000030SPEAKER ASM                   M IMCTM S0FR05 TNTH  09020IMCT  S0 PTB  00005                    0830 SR        000000000000 DENSO TEN (THAILAND)190G32U0016016                                                                                                                              *          20190220 IMCT                IMCT                                                                                                                    WMF1902204.TXT
MDEUK2234325201902                D89828070200PV4U20190225000030SPEAKER ASM                   M IMCTM S0FR05 TNTH  09020IMCT  S0 PTB  00005                    2230 SR        000000000000 DENSO TEN (THAILAND)190G25U0007007                                                                                                                              *          20190220 IMCT                IMCT                                                                                                                    WMF1902204.TXT
MDEUK2234326201902                D89828070300PT4U20190225000030SPEAKER ASM                   M IMCTM S9TS02 TNTH  09020IMCT  S9 PTB  00015                    0830 SR        000000000000 DENSO TEN (THAILAND)190G32U0016016                                                                                                                              *          20190220 IMCT                IMCT                                                                                                                    WMF1902204.TXT
MDEUK2234327201902                D89828070300PT4U20190225000030SPEAKER ASM                   M IMCTM S9TS02 TNTH  09020IMCT  S9 PTB  00015                    2230 SR        000000000000 DENSO TEN (THAILAND)190G25U0007007                                                                                                                              *          20190220 IMCT                IMCT                                                                                                                    WMF1902204.TXT
