REC2019022220190222ISUZU                              14     
MDEFK2T22872201902                D89750126100PT4F20190227000002RADIO;AM/FM CD D              M IMCTM S7TS01 TNTH  09020IMCT  S7 PTB  00003                    2100 SR        000000000000 DENSO TEN (THAILAND)190D12R0006   190D12R0007   D190206909    D190206910    000000                                                                              *R         20190222 IMCT                IMCT                                                                                                                    RMF1902227.TXT
MDEFK2T22873201902                D89828070100PV4F20190227000014SPEAKER ASM                   M IMCTM S7FL05 TNTH  09020IMCT  S7 PTB  00004                    2100 SR        000000000000 DENSO TEN (THAILAND)190D12R0006   190H21R0005   D190206909    D190206915    000000                                                                              *R         20190222 IMCT                IMCT                                                                                                                    RMF1902227.TXT
MDEFK2T22874201902                D89828070200PV4F20190227000010SPEAKER ASM                   M IMCTM S7FL05 TNTH  09020IMCT  S7 PTB  00005                    2100 SR        000000000000 DENSO TEN (THAILAND)190H21R0001   190H21R0005   D190206911    D190206915    000000                                                                              *R         20190222 IMCT                IMCT                                                                                                                    RMF1902227.TXT
MDEFK2T22875201902                D89828070300PT4F20190227000005SPEAKER ASM                   M IMCTM S7TS02 TNTH  09020IMCT  S7 PTB  00015                    2100 SR        000000000000 DENSO TEN (THAILAND)190H21R0003   190H21R0005   D190206913    D190206915    000000                                                                              *R         20190222 IMCT                IMCT                                                                                                                    RMF1902227.TXT
MDEFK2T22876201902                D89831228800PT4F20190227000001RADIO;AM/FM,CD                M IMCTM S7TS03 TNTH  09020IMCT  S7 PTB  00003                    1600 SR        000000000000 DENSO TEN (THAILAND)190H87R0008   190H87R0008   D190206906    D190206906    000000                                                                              *R         20190222 IMCT                IMCT                                                                                                                    RMF1902227.TXT
MDEFK2T22877201902                D89848582100PT4F20190226000003RADIO;AM/FM CD D              M IMCTM S7TS01 TNTH  09020IMCT  S7 PTB  00003                    2230 SR        000000000000 DENSO TEN (THAILAND)190J06R0008   190J06R0010   D190206703    D190206705    000000                                                                              *R         20190222 IMCT                IMCT                                                                                                                    RMF1902227.TXT
MDEFK2268903201902                D89828070100PV4F20190226000032SPEAKER ASM                   M IMCTM S7FL05 TNTH  09020IMCT  S7 PTB  00004                    2230 SR        000000000000 DENSO TEN (THAILAND)190H77R0018   190G97R0003   D190206701    R190206801    000000                                                                              *R         20190222 IMCT                IMCT                                                                                                                    RMF1902227.TXT
MDEFK2268904201902                D89828070100PV4F20190227000012SPEAKER ASM                   M IMCTM S7FL05 TNTH  09020IMCT  S7 PTB  00004                    0830 SR        000000000000 DENSO TEN (THAILAND)190H32R0013   190H32R0018   R190206802    R190206807    000000                                                                              *R         20190222 IMCT                IMCT                                                                                                                    RMF1902227.TXT
MDEFK2268905201902                D89828070100PV4F20190227000016SPEAKER ASM                   M IMCTM S7FL05 TNTH  09020IMCT  S7 PTB  00004                    1030 SR        000000000000 DENSO TEN (THAILAND)190J29R0016   190H32R0019   R190206808    R190206815    000000                                                                              *R         20190222 IMCT                IMCT                                                                                                                    RMF1902227.TXT
MDEFK2268906201902                D89828070100PV4F20190227000016SPEAKER ASM                   M IMCTM S7FL05 TNTH  09020IMCT  S7 PTB  00004                    1600 SR        000000000000 DENSO TEN (THAILAND)190H84R0020   190G74R0005   D190206901    D190206908    000000                                                                              *R         20190222 IMCT                IMCT                                                                                                                    RMF1902227.TXT
MDEFK2268907201902                D89828070200PV4F20190226000020SPEAKER ASM                   M IMCTM S7FL05 TNTH  09020IMCT  S7 PTB  00005                    2230 SR        000000000000 DENSO TEN (THAILAND)190J06R0008   190G74R0004   D190206703    D190206715    000000                                                                              *R         20190222 IMCT                IMCT                                                                                                                    RMF1902227.TXT
MDEFK2268908201902                D89828070200PV4F20190227000020SPEAKER ASM                   M IMCTM S7FL05 TNTH  09020IMCT  S7 PTB  00005                    1600 SR        000000000000 DENSO TEN (THAILAND)190H84R0020   190D12R0007   D190206901    D190206910    000000                                                                              *R         20190222 IMCT                IMCT                                                                                                                    RMF1902227.TXT
MDEFK2268909201902                D89828070300PT4F20190226000030SPEAKER ASM                   M IMCTM S7TS02 TNTH  09020IMCT  S7 PTB  00015                    2230 SR        000000000000 DENSO TEN (THAILAND)190J06R0008   190H84R0024   D190206703    D190206905    000000                                                                              *R         20190222 IMCT                IMCT                                                                                                                    RMF1902227.TXT
MDEFK2268910201902                D89828070300PT4F20190227000015SPEAKER ASM                   M IMCTM S7TS02 TNTH  09020IMCT  S7 PTB  00015                    1600 SR        000000000000 DENSO TEN (THAILAND)190H87R0008   190H21R0003   D190206906    D190206913    000000                                                                              *R         20190222 IMCT                IMCT                                                                                                                    RMF1902227.TXT
