REC2019032320190323ISUZU                              9      
MDEFK3T25202201903                D89828070100PV4F20190328000022SPEAKER ASM                   M IMCTM S7FL05 TNTH  09020IMCT  S7 PTB  00004                    1600 SR        000000000000 DENSO TEN (THAILAND)190H43R0033   190K09R0035   S190307005    S190307015    000000                                                                              *R         20190323 IMCT                IMCT                                                                                                                    RMF1903236.TXT
MDEFK3T25203201903                D89828070200PV4F20190327000014SPEAKER ASM                   M IMCTM S7FL05 TNTH  09020IMCT  S7 PTB  00005                    2230 SR        000000000000 DENSO TEN (THAILAND)190H12R0016   190J55R0009   D190306801    D190306813    000000                                                                              *R         20190323 IMCT                IMCT                                                                                                                    RMF1903236.TXT
MDEFK3T25204201903                D89828070300PT4F20190328000029SPEAKER ASM                   M IMCTM S7TS02 TNTH  09020IMCT  S7 PTB  00015                    0830 SR        000000000000 DENSO TEN (THAILAND)190H55R0023   190D35R0003   F190306901    F190306915    000000                                                                              *R         20190323 IMCT                IMCT                                                                                                                    RMF1903236.TXT
MDEFK3T25205201903                D89831228800PT4F20190327000005RADIO;AM/FM,CD                M IMCTM S7TS03 TNTH  09020IMCT  S7 PTB  00003                    2230 SR        000000000000 DENSO TEN (THAILAND)190H12R0016   190J55R0009   D190306801    D190306813    000000                                                                              *R         20190323 IMCT                IMCT                                                                                                                    RMF1903236.TXT
MDEFK3T25206201903                D89848582800PT4F20190328000011RADIO;AM/FM CD D              M IMCTM S7TS01 TNTH  09020IMCT  S7 PTB  00003                    0830 SR        000000000000 DENSO TEN (THAILAND)190H55R0023   190H61R0034   F190306901    F190306913    000000                                                                              *R         20190323 IMCT                IMCT                                                                                                                    RMF1903236.TXT
MDEFK3274870201903                D89828070100PV4F20190327000032SPEAKER ASM                   M IMCTM S7FL05 TNTH  09020IMCT  S7 PTB  00004                    2230 SR        000000000000 DENSO TEN (THAILAND)190H12R0016   190H55R0023   D190306801    F190306901    000000                                                                              *R         20190323 IMCT                IMCT                                                                                                                    RMF1903236.TXT
MDEFK3274871201903                D89828070100PV4F20190328000028SPEAKER ASM                   M IMCTM S7FL05 TNTH  09020IMCT  S7 PTB  00004                    0830 SR        000000000000 DENSO TEN (THAILAND)190H55R0024   190D35R0003   F190306902    F190306915    000000                                                                              *R         20190323 IMCT                IMCT                                                                                                                    RMF1903236.TXT
MDEFK3274872201903                D89828070100PV4F20190328000008SPEAKER ASM                   M IMCTM S7FL05 TNTH  09020IMCT  S7 PTB  00004                    1300 SR        000000000000 DENSO TEN (THAILAND)190H43R0029   190H43R0032   S190307001    S190307004    000000                                                                              *R         20190323 IMCT                IMCT                                                                                                                    RMF1903236.TXT
MDEFK3274873201903                D89828070300PT4F20190327000015SPEAKER ASM                   M IMCTM S7TS02 TNTH  09020IMCT  S7 PTB  00015                    2230 SR        000000000000 DENSO TEN (THAILAND)190H12R0016   190H55R0023   D190306801    F190306901    000000                                                                              *R         20190323 IMCT                IMCT                                                                                                                    RMF1903236.TXT
