REC2019032020190320ISUZU                              67     
MDDDK3285233201903                D89821984430PT1D20190324000030RADIO;AM/FM,CD                M IMCTM S5NC06 TNTH  09020IMCT  S5 PTB  00005                    0230 SR        000000000000 DENSO TEN (THAILAND)190MNHL0033033                                                                                                                              *          20190320 IMCT                IMCT                                                                                                                    WMF1903203.TXT
MDDDK3285234201903                D89821984430PT1D20190324000030RADIO;AM/FM,CD                M IMCTM S5NC06 TNTH  09020IMCT  S5 PTB  00005                    0400 SR        000000000000 DENSO TEN (THAILAND)190MRBL0034034                                                                                                                              *          20190320 IMCT                IMCT                                                                                                                    WMF1903203.TXT
MDDDK3285235201903                D89821984430PT1D20190325000030RADIO;AM/FM,CD                M IMCTM S5NC06 TNTH  09020IMCT  S5 PTB  00005                    1300 SR        000000000000 DENSO TEN (THAILAND)190MXEL0043043                                                                                                                              *          20190320 IMCT                IMCT                                                                                                                    WMF1903203.TXT
MDDDK3285236201903                D89821984430PT1D20190325000030RADIO;AM/FM,CD                M IMCTM S5NC06 TNTH  09020IMCT  S5 PTB  00005                    2100 SR        000000000000 DENSO TEN (THAILAND)190MNGL0100100                                                                                                                              *          20190320 IMCT                IMCT                                                                                                                    WMF1903203.TXT
MDDDK3285237201903                D89828070100PV1D20190324000120SPEAKER ASM                   M IMCTM S5MB11 TNTH  09020IMCT  S5 PTB  00004                    0230 SR        000000000000 DENSO TEN (THAILAND)190MNHL0033033190MPDL0026026                                                                                                                *          20190320 IMCT                IMCT                                                                                                                    WMF1903203.TXT
MDDDK3285238201903                D89828070100PV1D20190324000060SPEAKER ASM                   M IMCTM S5MB11 TNTH  09020IMCT  S5 PTB  00004                    0400 SR        000000000000 DENSO TEN (THAILAND)190MRBL0034034                                                                                                                              *          20190320 IMCT                IMCT                                                                                                                    WMF1903203.TXT
MDDDK3285239201903                D89828070100PV1D20190325000060SPEAKER ASM                   M IMCTM S5MB11 TNTH  09020IMCT  S5 PTB  00004                    0830 SR        000000000000 DENSO TEN (THAILAND)190MREL0001001                                                                                                                              *          20190320 IMCT                IMCT                                                                                                                    WMF1903203.TXT
MDDDK3285240201903                D89828070100PV1D20190325000060SPEAKER ASM                   M IMCTM S5MB11 TNTH  09020IMCT  S5 PTB  00004                    1300 SR        000000000000 DENSO TEN (THAILAND)190MXEL0043043                                                                                                                              *          20190320 IMCT                IMCT                                                                                                                    WMF1903203.TXT
MDDDK3285241201903                D89828070100PV1D20190325000060SPEAKER ASM                   M IMCTM S5MB11 TNTH  09020IMCT  S5 PTB  00004                    1600 SR        000000000000 DENSO TEN (THAILAND)190MPKL0035035                                                                                                                              *          20190320 IMCT                IMCT                                                                                                                    WMF1903203.TXT
MDDDK3285242201903                D89828070100PV1D20190325000060SPEAKER ASM                   M IMCTM S5MB11 TNTH  09020IMCT  S5 PTB  00004                    2100 SR        000000000000 DENSO TEN (THAILAND)190MNGL0100100                                                                                                                              *          20190320 IMCT                IMCT                                                                                                                    WMF1903203.TXT
MDDDK3285243201903                D89828070200PV1D20190325000060SPEAKER ASM                   M IMCTM S5MA14 TNTH  09020IMCT  S5 PTB  00005                    0830 SR        000000000000 DENSO TEN (THAILAND)190MREL0001001                                                                                                                              *          20190320 IMCT                IMCT                                                                                                                    WMF1903203.TXT
MDDDK3285244201903                D89828070300PT1D20190324000060SPEAKER ASM                   M IMCTM S5NB082TNTH  09020IMCT  S5 PTB  00015                    0230 SR        000000000000 DENSO TEN (THAILAND)190MPDL0026026                                                                                                                              *          20190320 IMCT                IMCT                                                                                                                    WMF1903203.TXT
MDDDK3285245201903                D89828070300PT1D20190325000060SPEAKER ASM                   M IMCTM S5NB082TNTH  09020IMCT  S5 PTB  00015                    0830 SR        000000000000 DENSO TEN (THAILAND)190MREL0001001                                                                                                                              *          20190320 IMCT                IMCT                                                                                                                    WMF1903203.TXT
MDDDK3285246201903                D89828070300PT1D20190325000060SPEAKER ASM                   M IMCTM S5NB082TNTH  09020IMCT  S5 PTB  00015                    1600 SR        000000000000 DENSO TEN (THAILAND)190MPKL0035035                                                                                                                              *          20190320 IMCT                IMCT                                                                                                                    WMF1903203.TXT
MDDDK3285247201903                D89831228300PT1D20190324000030RADIO;AM/FM,CD                M IMCTM S5NC06 TNTH  09020IMCT  S5 CPB  00003                    0230 SR        000000000000 DENSO TEN (THAILAND)190MPDL0026026                                                                                                                              *          20190320 IMCT                IMCT                                                                                                                    WMF1903203.TXT
MDDDK3285248201903                D89831228400PT1D20190325000030RADIO;AM/FM,CD                M IMCTM S5NC06 TNTH  09020IMCT  S5 CPB  00003                    0830 SR        000000000000 DENSO TEN (THAILAND)190MREL0001001                                                                                                                              *          20190320 IMCT                IMCT                                                                                                                    WMF1903203.TXT
MDDDK3285249201903                D89848581600PT1D20190325000030RADIO;AM/FM CD D              M IMCTM S5NC06 TNTH  09020IMCT  S5 PTB  00003                    1600 SR        000000000000 DENSO TEN (THAILAND)190MPKL0035035                                                                                                                              *          20190320 IMCT                IMCT                                                                                                                    WMF1903203.TXT
MDDUK3251943201903                D89828070100PT4U20190323000030SPEAKER ASM                   M IMCTM S0FL05 TNTH  09020IMCT  S0 PTB  00004                    2230 SR        000000000000 DENSO TEN (THAILAND)190MUGU0043043                                                                                                                              *          20190320 IMCT                IMCT                                                                                                                    WMF1903203.TXT
MDDUK3251944201903                D89828070100PT4U20190324000030SPEAKER ASM                   M IMCTM S0FL05 TNTH  09020IMCT  S0 PTB  00004                    0400 SR        000000000000 DENSO TEN (THAILAND)190MUEU0081081                                                                                                                              *          20190320 IMCT                IMCT                                                                                                                    WMF1903203.TXT
MDDUK3251945201903                D89828070100PT4U20190325000030SPEAKER ASM                   M IMCTM S0FL05 TNTH  09020IMCT  S0 PTB  00004                    1030 SR        000000000000 DENSO TEN (THAILAND)190MUGU0044044                                                                                                                              *          20190320 IMCT                IMCT                                                                                                                    WMF1903203.TXT
MDDUK3251946201903                D89828070100PT4U20190325000030SPEAKER ASM                   M IMCTM S0FL05 TNTH  09020IMCT  S0 PTB  00004                    1300 SR        000000000000 DENSO TEN (THAILAND)190MUEU0082082                                                                                                                              *          20190320 IMCT                IMCT                                                                                                                    WMF1903203.TXT
MDDUK3251947201903                D89828070100PT4U20190325000030SPEAKER ASM                   M IMCTM S0FL05 TNTH  09020IMCT  S0 PTB  00004                    2230 SR        000000000000 DENSO TEN (THAILAND)190MUFU0006006                                                                                                                              *          20190320 IMCT                IMCT                                                                                                                    WMF1903203.TXT
MDDUK3251948201903                D89828070200PV4U20190323000030SPEAKER ASM                   M IMCTM S0FR05 TNTH  09020IMCT  S0 PTB  00005                    2230 SR        000000000000 DENSO TEN (THAILAND)190MUGU0043043                                                                                                                              *          20190320 IMCT                IMCT                                                                                                                    WMF1903203.TXT
MDDUK3251949201903                D89828070200PV4U20190324000030SPEAKER ASM                   M IMCTM S0FR05 TNTH  09020IMCT  S0 PTB  00005                    0400 SR        000000000000 DENSO TEN (THAILAND)190MUEU0081081                                                                                                                              *          20190320 IMCT                IMCT                                                                                                                    WMF1903203.TXT
MDDUK3251950201903                D89828070200PV4U20190325000030SPEAKER ASM                   M IMCTM S0FR05 TNTH  09020IMCT  S0 PTB  00005                    1030 SR        000000000000 DENSO TEN (THAILAND)190MUGU0044044                                                                                                                              *          20190320 IMCT                IMCT                                                                                                                    WMF1903203.TXT
MDDUK3251951201903                D89828070200PV4U20190325000030SPEAKER ASM                   M IMCTM S0FR05 TNTH  09020IMCT  S0 PTB  00005                    1300 SR        000000000000 DENSO TEN (THAILAND)190MUEU0082082                                                                                                                              *          20190320 IMCT                IMCT                                                                                                                    WMF1903203.TXT
MDDUK3251952201903                D89828070200PV4U20190325000030SPEAKER ASM                   M IMCTM S0FR05 TNTH  09020IMCT  S0 PTB  00005                    2230 SR        000000000000 DENSO TEN (THAILAND)190MUFU0006006                                                                                                                              *          20190320 IMCT                IMCT                                                                                                                    WMF1903203.TXT
MDDUK3251953201903                D89828070300PT4U20190323000030SPEAKER ASM                   M IMCTM S9TS02 TNTH  09020IMCT  S9 PTB  00015                    2230 SR        000000000000 DENSO TEN (THAILAND)190MUGU0043043                                                                                                                              *          20190320 IMCT                IMCT                                                                                                                    WMF1903203.TXT
MDDUK3251954201903                D89828070300PT4U20190324000030SPEAKER ASM                   M IMCTM S9TS02 TNTH  09020IMCT  S9 PTB  00015                    0400 SR        000000000000 DENSO TEN (THAILAND)190MUEU0081081                                                                                                                              *          20190320 IMCT                IMCT                                                                                                                    WMF1903203.TXT
MDDUK3251955201903                D89828070300PT4U20190325000030SPEAKER ASM                   M IMCTM S9TS02 TNTH  09020IMCT  S9 PTB  00015                    1030 SR        000000000000 DENSO TEN (THAILAND)190MUGU0044044                                                                                                                              *          20190320 IMCT                IMCT                                                                                                                    WMF1903203.TXT
MDDUK3251956201903                D89828070300PT4U20190325000030SPEAKER ASM                   M IMCTM S9TS02 TNTH  09020IMCT  S9 PTB  00015                    1300 SR        000000000000 DENSO TEN (THAILAND)190MUEU0082082                                                                                                                              *          20190320 IMCT                IMCT                                                                                                                    WMF1903203.TXT
MDDUK3251957201903                D89828070300PT4U20190325000030SPEAKER ASM                   M IMCTM S9TS02 TNTH  09020IMCT  S9 PTB  00015                    2230 SR        000000000000 DENSO TEN (THAILAND)190MUFU0006006                                                                                                                              *          20190320 IMCT                IMCT                                                                                                                    WMF1903203.TXT
MDEDK3349363201903                D89828070100PV1D20190323000090SPEAKER ASM                   M IMCTM S5MB11 TNTH  09020IMCT  S5 PTB  00004                    2230 SR        000000000000 DENSO TEN (THAILAND)190G96L0005005190H26L0006007                                                                                                                *          20190320 IMCT                IMCT                                                                                                                    WMF1903203.TXT
MDEDK3349364201903                D89828070100PV1D20190325000060SPEAKER ASM                   M IMCTM S5MB11 TNTH  09020IMCT  S5 PTB  00004                    0830 SR        000000000000 DENSO TEN (THAILAND)190H43L0014015                                                                                                                              *          20190320 IMCT                IMCT                                                                                                                    WMF1903203.TXT
MDEDK3349365201903                D89828070100PV1D20190325000030SPEAKER ASM                   M IMCTM S5MB11 TNTH  09020IMCT  S5 PTB  00004                    1030 SR        000000000000 DENSO TEN (THAILAND)190H67L0006006                                                                                                                              *          20190320 IMCT                IMCT                                                                                                                    WMF1903203.TXT
MDEDK3349366201903                D89828070100PV1D20190325000060SPEAKER ASM                   M IMCTM S5MB11 TNTH  09020IMCT  S5 PTB  00004                    1300 SR        000000000000 DENSO TEN (THAILAND)190H67L0007007190K83L0013013                                                                                                                *          20190320 IMCT                IMCT                                                                                                                    WMF1903203.TXT
MDEDK3349367201903                D89828070100PV1D20190325000030SPEAKER ASM                   M IMCTM S5MB11 TNTH  09020IMCT  S5 PTB  00004                    1600 SR        000000000000 DENSO TEN (THAILAND)190K83L0014014                                                                                                                              *          20190320 IMCT                IMCT                                                                                                                    WMF1903203.TXT
MDEDK3349368201903                D89828070100PV1D20190325000030SPEAKER ASM                   M IMCTM S5MB11 TNTH  09020IMCT  S5 PTB  00004                    2100 SR        000000000000 DENSO TEN (THAILAND)190H82L0006006                                                                                                                              *          20190320 IMCT                IMCT                                                                                                                    WMF1903203.TXT
MDEDK3349369201903                D89828070100PV4D20190324000030SPEAKER ASM                   M IMCTM S0FL05 TNTH  09020IMCT  S0 PTB  00004                    0230 SR        000000000000 DENSO TEN (THAILAND)190F44U0011011                                                                                                                              *          20190320 IMCT                IMCT                                                                                                                    WMF1903203.TXT
MDEDK3349370201903                D89828070100PV4D20190324000030SPEAKER ASM                   M IMCTM S0FL05 TNTH  09020IMCT  S0 PTB  00004                    0400 SR        000000000000 DENSO TEN (THAILAND)190J07U0012012                                                                                                                              *          20190320 IMCT                IMCT                                                                                                                    WMF1903203.TXT
MDEDK3349371201903                D89828070100PV4D20190325000030SPEAKER ASM                   M IMCTM S0FL05 TNTH  09020IMCT  S0 PTB  00004                    0830 SR        000000000000 DENSO TEN (THAILAND)190H84U0005005                                                                                                                              *          20190320 IMCT                IMCT                                                                                                                    WMF1903203.TXT
MDEDK3349372201903                D89828070100PV4D20190325000030SPEAKER ASM                   M IMCTM S0FL05 TNTH  09020IMCT  S0 PTB  00004                    1300 SR        000000000000 DENSO TEN (THAILAND)190H82U0005005                                                                                                                              *          20190320 IMCT                IMCT                                                                                                                    WMF1903203.TXT
MDEDK3349373201903                D89828070100PV4D20190325000030SPEAKER ASM                   M IMCTM S0FL05 TNTH  09020IMCT  S0 PTB  00004                    1600 SR        000000000000 DENSO TEN (THAILAND)190H28U0011011                                                                                                                              *          20190320 IMCT                IMCT                                                                                                                    WMF1903203.TXT
MDEDK3349374201903                D89828070200PV1D20190323000060SPEAKER ASM                   M IMCTM S5MA14 TNTH  09020IMCT  S5 PTB  00005                    2230 SR        000000000000 DENSO TEN (THAILAND)190H26L0006007                                                                                                                              *          20190320 IMCT                IMCT                                                                                                                    WMF1903203.TXT
MDEDK3349375201903                D89828070200PV1D20190325000030SPEAKER ASM                   M IMCTM S5MA14 TNTH  09020IMCT  S5 PTB  00005                    1300 SR        000000000000 DENSO TEN (THAILAND)190K83L0013013                                                                                                                              *          20190320 IMCT                IMCT                                                                                                                    WMF1903203.TXT
MDEDK3349376201903                D89828070200PV1D20190325000030SPEAKER ASM                   M IMCTM S5MA14 TNTH  09020IMCT  S5 PTB  00005                    1600 SR        000000000000 DENSO TEN (THAILAND)190K83L0014014                                                                                                                              *          20190320 IMCT                IMCT                                                                                                                    WMF1903203.TXT
MDEDK3349377201903                D89828070200PV4D20190324000030SPEAKER ASM                   M IMCTM S0FR05 TNTH  09020IMCT  S0 PTB  00005                    0230 SR        000000000000 DENSO TEN (THAILAND)190F44U0011011                                                                                                                              *          20190320 IMCT                IMCT                                                                                                                    WMF1903203.TXT
MDEDK3349378201903                D89828070200PV4D20190324000030SPEAKER ASM                   M IMCTM S0FR05 TNTH  09020IMCT  S0 PTB  00005                    0400 SR        000000000000 DENSO TEN (THAILAND)190J07U0012012                                                                                                                              *          20190320 IMCT                IMCT                                                                                                                    WMF1903203.TXT
MDEDK3349379201903                D89828070200PV4D20190325000030SPEAKER ASM                   M IMCTM S0FR05 TNTH  09020IMCT  S0 PTB  00005                    0830 SR        000000000000 DENSO TEN (THAILAND)190H84U0005005                                                                                                                              *          20190320 IMCT                IMCT                                                                                                                    WMF1903203.TXT
MDEDK3349380201903                D89828070200PV4D20190325000030SPEAKER ASM                   M IMCTM S0FR05 TNTH  09020IMCT  S0 PTB  00005                    1600 SR        000000000000 DENSO TEN (THAILAND)190H28U0011011                                                                                                                              *          20190320 IMCT                IMCT                                                                                                                    WMF1903203.TXT
MDEDK3349381201903                D89828070300PT1D20190323000060SPEAKER ASM                   M IMCTM S5NB082TNTH  09020IMCT  S5 PTB  00015                    2230 SR        000000000000 DENSO TEN (THAILAND)190H26L0006007                                                                                                                              *          20190320 IMCT                IMCT                                                                                                                    WMF1903203.TXT
MDEDK3349382201903                D89828070300PT1D20190325000030SPEAKER ASM                   M IMCTM S5NB082TNTH  09020IMCT  S5 PTB  00015                    1030 SR        000000000000 DENSO TEN (THAILAND)190H67L0006006                                                                                                                              *          20190320 IMCT                IMCT                                                                                                                    WMF1903203.TXT
MDEDK3349383201903                D89828070300PT1D20190325000060SPEAKER ASM                   M IMCTM S5NB082TNTH  09020IMCT  S5 PTB  00015                    1300 SR        000000000000 DENSO TEN (THAILAND)190H67L0007007190K83L0013013                                                                                                                *          20190320 IMCT                IMCT                                                                                                                    WMF1903203.TXT
MDEDK3349384201903                D89828070300PT1D20190325000030SPEAKER ASM                   M IMCTM S5NB082TNTH  09020IMCT  S5 PTB  00015                    1600 SR        000000000000 DENSO TEN (THAILAND)190K83L0014014                                                                                                                              *          20190320 IMCT                IMCT                                                                                                                    WMF1903203.TXT
MDEDK3349385201903                D89828070300PT1D20190325000030SPEAKER ASM                   M IMCTM S5NB082TNTH  09020IMCT  S5 PTB  00015                    2100 SR        000000000000 DENSO TEN (THAILAND)190H82L0006006                                                                                                                              *          20190320 IMCT                IMCT                                                                                                                    WMF1903203.TXT
MDEDK3349386201903                D89828070300PT4D20190324000030SPEAKER ASM                   M IMCTM S9TS02 TNTH  09020IMCT  S9 PTB  00015                    0230 SR        000000000000 DENSO TEN (THAILAND)190F44U0011011                                                                                                                              *          20190320 IMCT                IMCT                                                                                                                    WMF1903203.TXT
MDEDK3349387201903                D89828070300PT4D20190324000030SPEAKER ASM                   M IMCTM S9TS02 TNTH  09020IMCT  S9 PTB  00015                    0400 SR        000000000000 DENSO TEN (THAILAND)190J07U0012012                                                                                                                              *          20190320 IMCT                IMCT                                                                                                                    WMF1903203.TXT
MDEDK3349388201903                D89828070300PT4D20190325000030SPEAKER ASM                   M IMCTM S9TS02 TNTH  09020IMCT  S9 PTB  00015                    0830 SR        000000000000 DENSO TEN (THAILAND)190H84U0005005                                                                                                                              *          20190320 IMCT                IMCT                                                                                                                    WMF1903203.TXT
MDEDK3349389201903                D89828070300PT4D20190325000030SPEAKER ASM                   M IMCTM S9TS02 TNTH  09020IMCT  S9 PTB  00015                    1300 SR        000000000000 DENSO TEN (THAILAND)190H82U0005005                                                                                                                              *          20190320 IMCT                IMCT                                                                                                                    WMF1903203.TXT
MDEDK3349390201903                D89828070300PT4D20190325000030SPEAKER ASM                   M IMCTM S9TS02 TNTH  09020IMCT  S9 PTB  00015                    1600 SR        000000000000 DENSO TEN (THAILAND)190H28U0011011                                                                                                                              *          20190320 IMCT                IMCT                                                                                                                    WMF1903203.TXT
MDEDK3349391201903                D89848582010PT4D20190324000015RADIO;AM/FM CD D              M IMCTM S9CO001TNTH  09020IMCT  S9 PTB  00003                    0230 SR        000000000000 DENSO TEN (THAILAND)190F44U0011011                                                                                                                              *          20190320 IMCT                IMCT                                                                                                                    WMF1903203.TXT
MDEDK3349392201903                D89848582100PT1D20190323000030RADIO;AM/FM CD D              M IMCTM S5NC06 TNTH  09020IMCT  S5 PTB  00003                    2230 SR        000000000000 DENSO TEN (THAILAND)190H26L0006007                                                                                                                              *          20190320 IMCT                IMCT                                                                                                                    WMF1903203.TXT
MDEDK3349393201903                D89848582800PT1D20190325000015RADIO;AM/FM CD D              M IMCTM S5NC06 TNTH  09020IMCT  S5 PTB  00003                    1030 SR        000000000000 DENSO TEN (THAILAND)190H67L0006006                                                                                                                              *          20190320 IMCT                IMCT                                                                                                                    WMF1903203.TXT
MDEDK3349394201903                D89848582800PT1D20190325000015RADIO;AM/FM CD D              M IMCTM S5NC06 TNTH  09020IMCT  S5 PTB  00003                    1300 SR        000000000000 DENSO TEN (THAILAND)190H67L0007007                                                                                                                              *          20190320 IMCT                IMCT                                                                                                                    WMF1903203.TXT
MDEUK3242511201903                D89828070100PT4U20190325000030SPEAKER ASM                   M IMCTM S0FL05 TNTH  09020IMCT  S0 PTB  00004                    1600 SR        000000000000 DENSO TEN (THAILAND)190G26U0013013                                                                                                                              *          20190320 IMCT                IMCT                                                                                                                    WMF1903203.TXT
MDEUK3242512201903                D89828070200PV4U20190325000030SPEAKER ASM                   M IMCTM S0FR05 TNTH  09020IMCT  S0 PTB  00005                    1600 SR        000000000000 DENSO TEN (THAILAND)190G26U0013013                                                                                                                              *          20190320 IMCT                IMCT                                                                                                                    WMF1903203.TXT
MDEUK3242513201903                D89828070300PT4U20190325000030SPEAKER ASM                   M IMCTM S9TS02 TNTH  09020IMCT  S9 PTB  00015                    1600 SR        000000000000 DENSO TEN (THAILAND)190G26U0013013                                                                                                                              *          20190320 IMCT                IMCT                                                                                                                    WMF1903203.TXT
