REC2019032520190325ISUZU                              55     
MDDDK3307294201903                D89821984430PT1D20190329000030RADIO;AM/FM,CD                M IMCTM S5NC06 TNTH  09020IMCT  S5 PTB  00005                    0230 SR        000000000000 DENSO TEN (THAILAND)190MXEL0045045                                                                                                                              *          20190325 IMCT                IMCT                                                                                                                    WMF1903254.TXT
MDDDK3307295201903                D89821984430PT1D20190329000030RADIO;AM/FM,CD                M IMCTM S5NC06 TNTH  09020IMCT  S5 PTB  00005                    2100 SR        000000000000 DENSO TEN (THAILAND)190MNGL0104104                                                                                                                              *          20190325 IMCT                IMCT                                                                                                                    WMF1903254.TXT
MDDDK3307296201903                D89828070100PV1D20190329000060SPEAKER ASM                   M IMCTM S5MB11 TNTH  09020IMCT  S5 PTB  00004                    0230 SR        000000000000 DENSO TEN (THAILAND)190MXEL0045045                                                                                                                              *          20190325 IMCT                IMCT                                                                                                                    WMF1903254.TXT
MDDDK3307297201903                D89828070100PV1D20190329000060SPEAKER ASM                   M IMCTM S5MB11 TNTH  09020IMCT  S5 PTB  00004                    0400 SR        000000000000 DENSO TEN (THAILAND)190MRTL0003003                                                                                                                              *          20190325 IMCT                IMCT                                                                                                                    WMF1903254.TXT
MDDDK3307298201903                D89828070100PV1D20190329000060SPEAKER ASM                   M IMCTM S5MB11 TNTH  09020IMCT  S5 PTB  00004                    1030 SR        000000000000 DENSO TEN (THAILAND)190MXAL0038038                                                                                                                              *          20190325 IMCT                IMCT                                                                                                                    WMF1903254.TXT
MDDDK3307299201903                D89828070100PV1D20190329000060SPEAKER ASM                   M IMCTM S5MB11 TNTH  09020IMCT  S5 PTB  00004                    1300 SR        000000000000 DENSO TEN (THAILAND)190MRTL0004004                                                                                                                              *          20190325 IMCT                IMCT                                                                                                                    WMF1903254.TXT
MDDDK3307300201903                D89828070100PV1D20190329000060SPEAKER ASM                   M IMCTM S5MB11 TNTH  09020IMCT  S5 PTB  00004                    2100 SR        000000000000 DENSO TEN (THAILAND)190MNGL0104104                                                                                                                              *          20190325 IMCT                IMCT                                                                                                                    WMF1903254.TXT
MDDDK3307301201903                D89828070100PV4D20190329000060SPEAKER ASM                   M IMCTM S0FL05 TNTH  09020IMCT  S0 PTB  00004                    1300 SR        000000000000 DENSO TEN (THAILAND)190MRWU0040040                                                                                                                              *          20190325 IMCT                IMCT                                                                                                                    WMF1903254.TXT
MDDDK3307302201903                D89828070200PV1D20190329000060SPEAKER ASM                   M IMCTM S5MA14 TNTH  09020IMCT  S5 PTB  00005                    0400 SR        000000000000 DENSO TEN (THAILAND)190MRTL0003003                                                                                                                              *          20190325 IMCT                IMCT                                                                                                                    WMF1903254.TXT
MDDDK3307303201903                D89828070200PV1D20190329000060SPEAKER ASM                   M IMCTM S5MA14 TNTH  09020IMCT  S5 PTB  00005                    1300 SR        000000000000 DENSO TEN (THAILAND)190MRTL0004004                                                                                                                              *          20190325 IMCT                IMCT                                                                                                                    WMF1903254.TXT
MDDDK3307304201903                D89828070200PV4D20190329000060SPEAKER ASM                   M IMCTM S0FR05 TNTH  09020IMCT  S0 PTB  00005                    1300 SR        000000000000 DENSO TEN (THAILAND)190MRWU0040040                                                                                                                              *          20190325 IMCT                IMCT                                                                                                                    WMF1903254.TXT
MDDDK3307305201903                D89828070300PT1D20190329000060SPEAKER ASM                   M IMCTM S5NB082TNTH  09020IMCT  S5 PTB  00015                    0400 SR        000000000000 DENSO TEN (THAILAND)190MRTL0003003                                                                                                                              *          20190325 IMCT                IMCT                                                                                                                    WMF1903254.TXT
MDDDK3307306201903                D89828070300PT1D20190329000060SPEAKER ASM                   M IMCTM S5NB082TNTH  09020IMCT  S5 PTB  00015                    1300 SR        000000000000 DENSO TEN (THAILAND)190MRTL0004004                                                                                                                              *          20190325 IMCT                IMCT                                                                                                                    WMF1903254.TXT
MDDDK3307307201903                D89828070300PT4D20190329000060SPEAKER ASM                   M IMCTM S9TS02 TNTH  09020IMCT  S9 PTB  00015                    1300 SR        000000000000 DENSO TEN (THAILAND)190MRWU0040040                                                                                                                              *          20190325 IMCT                IMCT                                                                                                                    WMF1903254.TXT
MDDDK3307308201903                D89848581500PT1D20190329000030RADIO;AM/FM CD D              M IMCTM S5NC06 TNTH  09020IMCT  S5 PTB  00003                    0400 SR        000000000000 DENSO TEN (THAILAND)190MRTL0003003                                                                                                                              *          20190325 IMCT                IMCT                                                                                                                    WMF1903254.TXT
MDDDK3307309201903                D89848581500PT1D20190329000030RADIO;AM/FM CD D              M IMCTM S5NC06 TNTH  09020IMCT  S5 PTB  00003                    1300 SR        000000000000 DENSO TEN (THAILAND)190MRTL0004004                                                                                                                              *          20190325 IMCT                IMCT                                                                                                                    WMF1903254.TXT
MDDUK3264377201903                D89828070100PT4U20190328000030SPEAKER ASM                   M IMCTM S0FL05 TNTH  09020IMCT  S0 PTB  00004                    2230 SR        000000000000 DENSO TEN (THAILAND)190MUEU0085085                                                                                                                              *          20190325 IMCT                IMCT                                                                                                                    WMF1903254.TXT
MDDUK3264378201903                D89828070100PT4U20190329000030SPEAKER ASM                   M IMCTM S0FL05 TNTH  09020IMCT  S0 PTB  00004                    0400 SR        000000000000 DENSO TEN (THAILAND)190MUGU0049049                                                                                                                              *          20190325 IMCT                IMCT                                                                                                                    WMF1903254.TXT
MDDUK3264379201903                D89828070100PT4U20190329000030SPEAKER ASM                   M IMCTM S0FL05 TNTH  09020IMCT  S0 PTB  00004                    0830 SR        000000000000 DENSO TEN (THAILAND)190MUGU0050050                                                                                                                              *          20190325 IMCT                IMCT                                                                                                                    WMF1903254.TXT
MDDUK3264380201903                D89828070100PT4U20190329000030SPEAKER ASM                   M IMCTM S0FL05 TNTH  09020IMCT  S0 PTB  00004                    1300 SR        000000000000 DENSO TEN (THAILAND)190MUEU0086086                                                                                                                              *          20190325 IMCT                IMCT                                                                                                                    WMF1903254.TXT
MDDUK3264381201903                D89828070100PT4U20190329000030SPEAKER ASM                   M IMCTM S0FL05 TNTH  09020IMCT  S0 PTB  00004                    2230 SR        000000000000 DENSO TEN (THAILAND)190MUFU0007007                                                                                                                              *          20190325 IMCT                IMCT                                                                                                                    WMF1903254.TXT
MDDUK3264382201903                D89828070200PV4U20190328000030SPEAKER ASM                   M IMCTM S0FR05 TNTH  09020IMCT  S0 PTB  00005                    2230 SR        000000000000 DENSO TEN (THAILAND)190MUEU0085085                                                                                                                              *          20190325 IMCT                IMCT                                                                                                                    WMF1903254.TXT
MDDUK3264383201903                D89828070200PV4U20190329000030SPEAKER ASM                   M IMCTM S0FR05 TNTH  09020IMCT  S0 PTB  00005                    0400 SR        000000000000 DENSO TEN (THAILAND)190MUGU0049049                                                                                                                              *          20190325 IMCT                IMCT                                                                                                                    WMF1903254.TXT
MDDUK3264384201903                D89828070200PV4U20190329000030SPEAKER ASM                   M IMCTM S0FR05 TNTH  09020IMCT  S0 PTB  00005                    0830 SR        000000000000 DENSO TEN (THAILAND)190MUGU0050050                                                                                                                              *          20190325 IMCT                IMCT                                                                                                                    WMF1903254.TXT
MDDUK3264385201903                D89828070200PV4U20190329000030SPEAKER ASM                   M IMCTM S0FR05 TNTH  09020IMCT  S0 PTB  00005                    1300 SR        000000000000 DENSO TEN (THAILAND)190MUEU0086086                                                                                                                              *          20190325 IMCT                IMCT                                                                                                                    WMF1903254.TXT
MDDUK3264386201903                D89828070200PV4U20190329000030SPEAKER ASM                   M IMCTM S0FR05 TNTH  09020IMCT  S0 PTB  00005                    2230 SR        000000000000 DENSO TEN (THAILAND)190MUFU0007007                                                                                                                              *          20190325 IMCT                IMCT                                                                                                                    WMF1903254.TXT
MDDUK3264387201903                D89828070300PT4U20190328000030SPEAKER ASM                   M IMCTM S9TS02 TNTH  09020IMCT  S9 PTB  00015                    2230 SR        000000000000 DENSO TEN (THAILAND)190MUEU0085085                                                                                                                              *          20190325 IMCT                IMCT                                                                                                                    WMF1903254.TXT
MDDUK3264388201903                D89828070300PT4U20190329000030SPEAKER ASM                   M IMCTM S9TS02 TNTH  09020IMCT  S9 PTB  00015                    0400 SR        000000000000 DENSO TEN (THAILAND)190MUGU0049049                                                                                                                              *          20190325 IMCT                IMCT                                                                                                                    WMF1903254.TXT
MDDUK3264389201903                D89828070300PT4U20190329000030SPEAKER ASM                   M IMCTM S9TS02 TNTH  09020IMCT  S9 PTB  00015                    0830 SR        000000000000 DENSO TEN (THAILAND)190MUGU0050050                                                                                                                              *          20190325 IMCT                IMCT                                                                                                                    WMF1903254.TXT
MDDUK3264390201903                D89828070300PT4U20190329000030SPEAKER ASM                   M IMCTM S9TS02 TNTH  09020IMCT  S9 PTB  00015                    1300 SR        000000000000 DENSO TEN (THAILAND)190MUEU0086086                                                                                                                              *          20190325 IMCT                IMCT                                                                                                                    WMF1903254.TXT
MDDUK3264391201903                D89828070300PT4U20190329000030SPEAKER ASM                   M IMCTM S9TS02 TNTH  09020IMCT  S9 PTB  00015                    2230 SR        000000000000 DENSO TEN (THAILAND)190MUFU0007007                                                                                                                              *          20190325 IMCT                IMCT                                                                                                                    WMF1903254.TXT
MDEDK3383292201903                D89828070100PV1D20190328000060SPEAKER ASM                   M IMCTM S5MB11 TNTH  09020IMCT  S5 PTB  00004                    2230 SR        000000000000 DENSO TEN (THAILAND)190J15L0009010                                                                                                                              *          20190325 IMCT                IMCT                                                                                                                    WMF1903254.TXT
MDEDK3383293201903                D89828070100PV1D20190329000060SPEAKER ASM                   M IMCTM S5MB11 TNTH  09020IMCT  S5 PTB  00004                    0400 SR        000000000000 DENSO TEN (THAILAND)17041PL0125126                                                                                                                              *          20190325 IMCT                IMCT                                                                                                                    WMF1903254.TXT
MDEDK3383294201903                D89828070100PV1D20190329000060SPEAKER ASM                   M IMCTM S5MB11 TNTH  09020IMCT  S5 PTB  00004                    0830 SR        000000000000 DENSO TEN (THAILAND)190H63L0003004                                                                                                                              *          20190325 IMCT                IMCT                                                                                                                    WMF1903254.TXT
MDEDK3383295201903                D89828070100PV1D20190329000060SPEAKER ASM                   M IMCTM S5MB11 TNTH  09020IMCT  S5 PTB  00004                    1300 SR        000000000000 DENSO TEN (THAILAND)190H56L0011011190H71L0017017                                                                                                                *          20190325 IMCT                IMCT                                                                                                                    WMF1903254.TXT
MDEDK3383296201903                D89828070100PV1D20190329000090SPEAKER ASM                   M IMCTM S5MB11 TNTH  09020IMCT  S5 PTB  00004                    1600 SR        000000000000 DENSO TEN (THAILAND)190H56L0012013190J94L0084084                                                                                                                *          20190325 IMCT                IMCT                                                                                                                    WMF1903254.TXT
MDEDK3383297201903                D89828070100PV1D20190329000030SPEAKER ASM                   M IMCTM S5MB11 TNTH  09020IMCT  S5 PTB  00004                    2100 SR        000000000000 DENSO TEN (THAILAND)190H28L0012012                                                                                                                              *          20190325 IMCT                IMCT                                                                                                                    WMF1903254.TXT
MDEDK3383298201903                D89828070100PV4D20190329000030SPEAKER ASM                   M IMCTM S0FL05 TNTH  09020IMCT  S0 PTB  00004                    0230 SR        000000000000 DENSO TEN (THAILAND)190J07U0016016                                                                                                                              *          20190325 IMCT                IMCT                                                                                                                    WMF1903254.TXT
MDEDK3383299201903                D89828070100PV4D20190329000030SPEAKER ASM                   M IMCTM S0FL05 TNTH  09020IMCT  S0 PTB  00004                    0400 SR        000000000000 DENSO TEN (THAILAND)190H84U0009009                                                                                                                              *          20190325 IMCT                IMCT                                                                                                                    WMF1903254.TXT
MDEDK3383300201903                D89828070100PV4D20190329000030SPEAKER ASM                   M IMCTM S0FL05 TNTH  09020IMCT  S0 PTB  00004                    1300 SR        000000000000 DENSO TEN (THAILAND)190H82U0007007                                                                                                                              *          20190325 IMCT                IMCT                                                                                                                    WMF1903254.TXT
MDEDK3383301201903                D89828070200PV1D20190328000060SPEAKER ASM                   M IMCTM S5MA14 TNTH  09020IMCT  S5 PTB  00005                    2230 SR        000000000000 DENSO TEN (THAILAND)190J15L0009010                                                                                                                              *          20190325 IMCT                IMCT                                                                                                                    WMF1903254.TXT
MDEDK3383302201903                D89828070200PV1D20190329000030SPEAKER ASM                   M IMCTM S5MA14 TNTH  09020IMCT  S5 PTB  00005                    2100 SR        000000000000 DENSO TEN (THAILAND)190H28L0012012                                                                                                                              *          20190325 IMCT                IMCT                                                                                                                    WMF1903254.TXT
MDEDK3383303201903                D89828070200PV4D20190329000030SPEAKER ASM                   M IMCTM S0FR05 TNTH  09020IMCT  S0 PTB  00005                    0230 SR        000000000000 DENSO TEN (THAILAND)190J07U0016016                                                                                                                              *          20190325 IMCT                IMCT                                                                                                                    WMF1903254.TXT
MDEDK3383304201903                D89828070200PV4D20190329000030SPEAKER ASM                   M IMCTM S0FR05 TNTH  09020IMCT  S0 PTB  00005                    0400 SR        000000000000 DENSO TEN (THAILAND)190H84U0009009                                                                                                                              *          20190325 IMCT                IMCT                                                                                                                    WMF1903254.TXT
MDEDK3383305201903                D89828070300PT1D20190328000060SPEAKER ASM                   M IMCTM S5NB082TNTH  09020IMCT  S5 PTB  00015                    2230 SR        000000000000 DENSO TEN (THAILAND)190J15L0009010                                                                                                                              *          20190325 IMCT                IMCT                                                                                                                    WMF1903254.TXT
MDEDK3383306201903                D89828070300PT1D20190329000060SPEAKER ASM                   M IMCTM S5NB082TNTH  09020IMCT  S5 PTB  00015                    0830 SR        000000000000 DENSO TEN (THAILAND)190H63L0003004                                                                                                                              *          20190325 IMCT                IMCT                                                                                                                    WMF1903254.TXT
MDEDK3383307201903                D89828070300PT1D20190329000060SPEAKER ASM                   M IMCTM S5NB082TNTH  09020IMCT  S5 PTB  00015                    1300 SR        000000000000 DENSO TEN (THAILAND)190H56L0011011190H71L0017017                                                                                                                *          20190325 IMCT                IMCT                                                                                                                    WMF1903254.TXT
MDEDK3383308201903                D89828070300PT1D20190329000060SPEAKER ASM                   M IMCTM S5NB082TNTH  09020IMCT  S5 PTB  00015                    1600 SR        000000000000 DENSO TEN (THAILAND)190H56L0012013                                                                                                                              *          20190325 IMCT                IMCT                                                                                                                    WMF1903254.TXT
MDEDK3383309201903                D89828070300PT1D20190329000030SPEAKER ASM                   M IMCTM S5NB082TNTH  09020IMCT  S5 PTB  00015                    2100 SR        000000000000 DENSO TEN (THAILAND)190H28L0012012                                                                                                                              *          20190325 IMCT                IMCT                                                                                                                    WMF1903254.TXT
MDEDK3383310201903                D89828070300PT4D20190329000030SPEAKER ASM                   M IMCTM S9TS02 TNTH  09020IMCT  S9 PTB  00015                    0230 SR        000000000000 DENSO TEN (THAILAND)190J07U0016016                                                                                                                              *          20190325 IMCT                IMCT                                                                                                                    WMF1903254.TXT
MDEDK3383311201903                D89828070300PT4D20190329000030SPEAKER ASM                   M IMCTM S9TS02 TNTH  09020IMCT  S9 PTB  00015                    0400 SR        000000000000 DENSO TEN (THAILAND)190H84U0009009                                                                                                                              *          20190325 IMCT                IMCT                                                                                                                    WMF1903254.TXT
MDEDK3383312201903                D89828070300PT4D20190329000030SPEAKER ASM                   M IMCTM S9TS02 TNTH  09020IMCT  S9 PTB  00015                    1300 SR        000000000000 DENSO TEN (THAILAND)190H82U0007007                                                                                                                              *          20190325 IMCT                IMCT                                                                                                                    WMF1903254.TXT
MDEUK3251248201903                D89828070100PT4U20190329000030SPEAKER ASM                   M IMCTM S0FL05 TNTH  09020IMCT  S0 PTB  00004                    2100 SR        000000000000 DENSO TEN (THAILAND)190G31U0023023                                                                                                                              *          20190325 IMCT                IMCT                                                                                                                    WMF1903254.TXT
MDEUK3251249201903                D89828070200PV4U20190329000030SPEAKER ASM                   M IMCTM S0FR05 TNTH  09020IMCT  S0 PTB  00005                    2100 SR        000000000000 DENSO TEN (THAILAND)190G31U0023023                                                                                                                              *          20190325 IMCT                IMCT                                                                                                                    WMF1903254.TXT
MDEUK3251250201903                D89828070300PT4U20190329000030SPEAKER ASM                   M IMCTM S9TS02 TNTH  09020IMCT  S9 PTB  00015                    2100 SR        000000000000 DENSO TEN (THAILAND)190G31U0023023                                                                                                                              *          20190325 IMCT                IMCT                                                                                                                    WMF1903254.TXT
