REC2019032820190328ISUZU                              17     
MAKK93115224201903D1               89825451200P3YK20190426000090SPEAKER ASM;ROOF              M IMCTM CM1    TNTH  09020IMKDC KA PTB  00036  K0                0911DES        000000000000 DENSO TEN (THAILAND)                                                                                                                                            *G         20190328 IMCT                IMCT                                                                                                                    WMF1903287.TXT
MAKK93115225201903D1               89828070100P3YK20190422000120SPEAKER ASM                   M IMCTM CM1    TNTH  09020IMKDC KA PTB  00004  K0                0911DES        000000000000 DENSO TEN (THAILAND)                                                                                                                                            *G         20190328 IMCT                IMCT                                                                                                                    WMF1903287.TXT
MAKK93115226201903D1               89828070100P3YK20190423000120SPEAKER ASM                   M IMCTM CM1    TNTH  09020IMKDC KA PTB  00004  K0                0911DES        000000000000 DENSO TEN (THAILAND)                                                                                                                                            *G         20190328 IMCT                IMCT                                                                                                                    WMF1903287.TXT
MAKK93115227201903D1               89828070100P3YK20190424000150SPEAKER ASM                   M IMCTM CM1    TNTH  09020IMKDC KA PTB  00004  K0                0911DES        000000000000 DENSO TEN (THAILAND)                                                                                                                                            *G         20190328 IMCT                IMCT                                                                                                                    WMF1903287.TXT
MAKK93115228201903D1               89828070100P3YK20190425000090SPEAKER ASM                   M IMCTM CM1    TNTH  09020IMKDC KA PTB  00004  K0                0911DES        000000000000 DENSO TEN (THAILAND)                                                                                                                                            *G         20190328 IMCT                IMCT                                                                                                                    WMF1903287.TXT
MAKK93115229201903D1               89828070100P3YK20190426000150SPEAKER ASM                   M IMCTM CM1    TNTH  09020IMKDC KA PTB  00004  K0                0911DES        000000000000 DENSO TEN (THAILAND)                                                                                                                                            *G         20190328 IMCT                IMCT                                                                                                                    WMF1903287.TXT
MAKK93115230201903D1               89828070200P3YK20190422000060SPEAKER ASM                   M IMCTM CM1    TNTH  09020IMKDC KA PTB  00005  K0                0911DES        000000000000 DENSO TEN (THAILAND)                                                                                                                                            *G         20190328 IMCT                IMCT                                                                                                                    WMF1903287.TXT
MAKK93115231201903D1               89828070200P3YK20190423000060SPEAKER ASM                   M IMCTM CM1    TNTH  09020IMKDC KA PTB  00005  K0                0911DES        000000000000 DENSO TEN (THAILAND)                                                                                                                                            *G         20190328 IMCT                IMCT                                                                                                                    WMF1903287.TXT
MAKK93115232201903D1               89828070200P3YK20190424000030SPEAKER ASM                   M IMCTM CM1    TNTH  09020IMKDC KA PTB  00005  K0                0911DES        000000000000 DENSO TEN (THAILAND)                                                                                                                                            *G         20190328 IMCT                IMCT                                                                                                                    WMF1903287.TXT
MAKK93115233201903D1               89828070200P3YK20190425000030SPEAKER ASM                   M IMCTM CM1    TNTH  09020IMKDC KA PTB  00005  K0                0911DES        000000000000 DENSO TEN (THAILAND)                                                                                                                                            *G         20190328 IMCT                IMCT                                                                                                                    WMF1903287.TXT
MAKK93115234201903D1               89828070200P3YK20190426000060SPEAKER ASM                   M IMCTM CM1    TNTH  09020IMKDC KA PTB  00005  K0                0911DES        000000000000 DENSO TEN (THAILAND)                                                                                                                                            *G         20190328 IMCT                IMCT                                                                                                                    WMF1903287.TXT
MAKK93115235201903D1               89828070300P3YK20190422000060SPEAKER ASM                   M IMCTM CM1    TNTH  09020IMKDC KA PTB  00015  K0                0911DES        000000000000 DENSO TEN (THAILAND)                                                                                                                                            *G         20190328 IMCT                IMCT                                                                                                                    WMF1903287.TXT
MAKK93115236201903D1               89828070300P3YK20190423000060SPEAKER ASM                   M IMCTM CM1    TNTH  09020IMKDC KA PTB  00015  K0                0911DES        000000000000 DENSO TEN (THAILAND)                                                                                                                                            *G         20190328 IMCT                IMCT                                                                                                                    WMF1903287.TXT
MAKK93115237201903D1               89828070300P3YK20190424000030SPEAKER ASM                   M IMCTM CM1    TNTH  09020IMKDC KA PTB  00015  K0                0911DES        000000000000 DENSO TEN (THAILAND)                                                                                                                                            *G         20190328 IMCT                IMCT                                                                                                                    WMF1903287.TXT
MAKK93115238201903D1               89828070300P3YK20190425000030SPEAKER ASM                   M IMCTM CM1    TNTH  09020IMKDC KA PTB  00015  K0                0911DES        000000000000 DENSO TEN (THAILAND)                                                                                                                                            *G         20190328 IMCT                IMCT                                                                                                                    WMF1903287.TXT
MAKK93115239201903D1               89828070300P3YK20190426000060SPEAKER ASM                   M IMCTM CM1    TNTH  09020IMKDC KA PTB  00015  K0                0911DES        000000000000 DENSO TEN (THAILAND)                                                                                                                                            *G         20190328 IMCT                IMCT                                                                                                                    WMF1903287.TXT
MAKK93115240201903D1               89831228400P3YK20190426000015RADIO;AM/FM,CD                M IMCTM CM1    TNTH  09020IMKDC KA*  CPB00003  K0                0911DES        000000000000 DENSO TEN (THAILAND)                                                                                                                                            *G         20190328 IMCT                IMCT                                                                                                                    WMF1903287.TXT
