REC2019032120190321ISUZU                              18     
MAKK93101534201903D1               89825451200P3YK20190409000030SPEAKER ASM;ROOF              M IMCTM CM1    TNTH  09020IMKDC KA PTB  00036  K0                0911DES        000000000000 DENSO TEN (THAILAND)                                                                                                                                            *G         20190321 IMCT                IMCT                                                                                                                    WMF1903217.TXT
MAKK93101535201903D1               89825451200P3YK20190418000030SPEAKER ASM;ROOF              M IMCTM CM1    TNTH  09020IMKDC KA PTB  00036  K0                0911DES        000000000000 DENSO TEN (THAILAND)                                                                                                                                            *G         20190321 IMCT                IMCT                                                                                                                    WMF1903217.TXT
MAKK93101536201903D1               89825451200P3YK20190419000030SPEAKER ASM;ROOF              M IMCTM CM1    TNTH  09020IMKDC KA PTB  00036  K0                0911DES        000000000000 DENSO TEN (THAILAND)                                                                                                                                            *G         20190321 IMCT                IMCT                                                                                                                    WMF1903217.TXT
MAKK93101537201903D1               89828070100P3YK20190408000210SPEAKER ASM                   M IMCTM CM1    TNTH  09020IMKDC KA PTB  00004  K0                0911DES        000000000000 DENSO TEN (THAILAND)                                                                                                                                            *G         20190321 IMCT                IMCT                                                                                                                    WMF1903217.TXT
MAKK93101538201903D1               89828070100P3YK20190409000150SPEAKER ASM                   M IMCTM CM1    TNTH  09020IMKDC KA PTB  00004  K0                0911DES        000000000000 DENSO TEN (THAILAND)                                                                                                                                            *G         20190321 IMCT                IMCT                                                                                                                    WMF1903217.TXT
MAKK93101539201903D1               89828070100P3YK20190418000150SPEAKER ASM                   M IMCTM CM1    TNTH  09020IMKDC KA PTB  00004  K0                0911DES        000000000000 DENSO TEN (THAILAND)                                                                                                                                            *G         20190321 IMCT                IMCT                                                                                                                    WMF1903217.TXT
MAKK93101540201903D1               89828070100P3YK20190419000180SPEAKER ASM                   M IMCTM CM1    TNTH  09020IMKDC KA PTB  00004  K0                0911DES        000000000000 DENSO TEN (THAILAND)                                                                                                                                            *G         20190321 IMCT                IMCT                                                                                                                    WMF1903217.TXT
MAKK93101541201903D1               89828070100P3YK20190420000150SPEAKER ASM                   M IMCTM CM1    TNTH  09020IMKDC KA PTB  00004  K0                0911DES        000000000000 DENSO TEN (THAILAND)                                                                                                                                            *G         20190321 IMCT                IMCT                                                                                                                    WMF1903217.TXT
MAKK93101542201903D1               89828070200P3YK20190408000150SPEAKER ASM                   M IMCTM CM1    TNTH  09020IMKDC KA PTB  00005  K0                0911DES        000000000000 DENSO TEN (THAILAND)                                                                                                                                            *G         20190321 IMCT                IMCT                                                                                                                    WMF1903217.TXT
MAKK93101543201903D1               89828070200P3YK20190409000090SPEAKER ASM                   M IMCTM CM1    TNTH  09020IMKDC KA PTB  00005  K0                0911DES        000000000000 DENSO TEN (THAILAND)                                                                                                                                            *G         20190321 IMCT                IMCT                                                                                                                    WMF1903217.TXT
MAKK93101544201903D1               89828070200P3YK20190418000030SPEAKER ASM                   M IMCTM CM1    TNTH  09020IMKDC KA PTB  00005  K0                0911DES        000000000000 DENSO TEN (THAILAND)                                                                                                                                            *G         20190321 IMCT                IMCT                                                                                                                    WMF1903217.TXT
MAKK93101545201903D1               89828070200P3YK20190419000150SPEAKER ASM                   M IMCTM CM1    TNTH  09020IMKDC KA PTB  00005  K0                0911DES        000000000000 DENSO TEN (THAILAND)                                                                                                                                            *G         20190321 IMCT                IMCT                                                                                                                    WMF1903217.TXT
MAKK93101546201903D1               89828070200P3YK20190420000090SPEAKER ASM                   M IMCTM CM1    TNTH  09020IMKDC KA PTB  00005  K0                0911DES        000000000000 DENSO TEN (THAILAND)                                                                                                                                            *G         20190321 IMCT                IMCT                                                                                                                    WMF1903217.TXT
MAKK93101547201903D1               89828070300P3YK20190408000180SPEAKER ASM                   M IMCTM CM1    TNTH  09020IMKDC KA PTB  00015  K0                0911DES        000000000000 DENSO TEN (THAILAND)                                                                                                                                            *G         20190321 IMCT                IMCT                                                                                                                    WMF1903217.TXT
MAKK93101548201903D1               89828070300P3YK20190409000150SPEAKER ASM                   M IMCTM CM1    TNTH  09020IMKDC KA PTB  00015  K0                0911DES        000000000000 DENSO TEN (THAILAND)                                                                                                                                            *G         20190321 IMCT                IMCT                                                                                                                    WMF1903217.TXT
MAKK93101549201903D1               89828070300P3YK20190418000060SPEAKER ASM                   M IMCTM CM1    TNTH  09020IMKDC KA PTB  00015  K0                0911DES        000000000000 DENSO TEN (THAILAND)                                                                                                                                            *G         20190321 IMCT                IMCT                                                                                                                    WMF1903217.TXT
MAKK93101550201903D1               89828070300P3YK20190419000180SPEAKER ASM                   M IMCTM CM1    TNTH  09020IMKDC KA PTB  00015  K0                0911DES        000000000000 DENSO TEN (THAILAND)                                                                                                                                            *G         20190321 IMCT                IMCT                                                                                                                    WMF1903217.TXT
MAKK93101551201903D1               89828070300P3YK20190420000090SPEAKER ASM                   M IMCTM CM1    TNTH  09020IMKDC KA PTB  00015  K0                0911DES        000000000000 DENSO TEN (THAILAND)                                                                                                                                            *G         20190321 IMCT                IMCT                                                                                                                    WMF1903217.TXT
