REC2019030720190307ISUZU                              10     
MDEFK3T08235201903                D89828070100PV4F20190312000026SPEAKER ASM                   M IMCTM S7FL05 TNTH  09020IMCT  S7 PTB  00004                    2100 SR        000000000000 DENSO TEN (THAILAND)190G53R0028   190J96R0025   H190303103    H190303115    000000                                                                              *R         20190307 IMCT                IMCT                                                                                                                    RMF1903075.TXT
MDEFK3T08236201903                D89828070200PV4F20190312000012SPEAKER ASM                   M IMCTM S7FL05 TNTH  09020IMCT  S7 PTB  00005                    0230 SR        000000000000 DENSO TEN (THAILAND)190J19R0006   190H19R0007   D190302910    D190302915    000000                                                                              *R         20190307 IMCT                IMCT                                                                                                                    RMF1903075.TXT
MDEFK3T08237201903                D89828070300PT4F20190312000027SPEAKER ASM                   M IMCTM S7TS02 TNTH  09020IMCT  S7 PTB  00015                    1300 SR        000000000000 DENSO TEN (THAILAND)190H06R0012   190K51R0001   F190303002    F190303015    000000                                                                              *R         20190307 IMCT                IMCT                                                                                                                    RMF1903075.TXT
MDEFK3T08238201903                D89831228300PT4F20190312000001RADIO;AM/FM,CD                M IMCTM S7TS03 TNTH  09020IMCT  S7 CPB  00003                    1300 SR        000000000000 DENSO TEN (THAILAND)190K51R0001   190K51R0001   F190303015    F190303015    000000                                                                              *R         20190307 IMCT                IMCT                                                                                                                    RMF1903075.TXT
MDEFK3T08239201903                D89848582800PT4F20190312000009RADIO;AM/FM CD D              M IMCTM S7TS01 TNTH  09020IMCT  S7 PTB  00003                    1300 SR        000000000000 DENSO TEN (THAILAND)190H06R0011   190H67R0014   F190303001    F190303014    000000                                                                              *R         20190307 IMCT                IMCT                                                                                                                    RMF1903075.TXT
MDEFK3222807201903                D89828070100PV4F20190311000008SPEAKER ASM                   M IMCTM S7FL05 TNTH  09020IMCT  S7 PTB  00004                    2230 SR        000000000000 DENSO TEN (THAILAND)190H11R0021   190H11R0024   D190302901    D190302904    000000                                                                              *R         20190307 IMCT                IMCT                                                                                                                    RMF1903075.TXT
MDEFK3222808201903                D89828070100PV4F20190312000024SPEAKER ASM                   M IMCTM S7FL05 TNTH  09020IMCT  S7 PTB  00004                    0230 SR        000000000000 DENSO TEN (THAILAND)190H11R0025   190H06R0011   D190302905    F190303001    000000                                                                              *R         20190307 IMCT                IMCT                                                                                                                    RMF1903075.TXT
MDEFK3222809201903                D89828070100PV4F20190312000028SPEAKER ASM                   M IMCTM S7FL05 TNTH  09020IMCT  S7 PTB  00004                    1300 SR        000000000000 DENSO TEN (THAILAND)190H06R0012   190K51R0001   F190303002    F190303015    000000                                                                              *R         20190307 IMCT                IMCT                                                                                                                    RMF1903075.TXT
MDEFK3222810201903                D89828070100PV4F20190312000004SPEAKER ASM                   M IMCTM S7FL05 TNTH  09020IMCT  S7 PTB  00004                    1600 SR        000000000000 DENSO TEN (THAILAND)190G53R0026   190G53R0027   H190303101    H190303102    000000                                                                              *R         20190307 IMCT                IMCT                                                                                                                    RMF1903075.TXT
MDEFK3222811201903                D89828070300PT4F20190312000015SPEAKER ASM                   M IMCTM S7TS02 TNTH  09020IMCT  S7 PTB  00015                    0230 SR        000000000000 DENSO TEN (THAILAND)190J19R0006   190H06R0012   D190302910    F190303002    000000                                                                              *R         20190307 IMCT                IMCT                                                                                                                    RMF1903075.TXT
