REC2019032620190326ISUZU                              54     
MDDDK3312268201903                D89821984430PT1D20190330000060RADIO;AM/FM,CD                M IMCTM S5NC06 TNTH  09020IMCT  S5 PTB  00005                    1300 SR        000000000000 DENSO TEN (THAILAND)190MRAL0096096190MXCL0040040                                                                                                                *          20190326 IMCT                IMCT                                                                                                                    WMF1903265.TXT
MDDDK3312269201903                D89821984430PT1D20190330000030RADIO;AM/FM,CD                M IMCTM S5NC06 TNTH  09020IMCT  S5 PTB  00005                    2100 SR        000000000000 DENSO TEN (THAILAND)190MNGL0105105                                                                                                                              *          20190326 IMCT                IMCT                                                                                                                    WMF1903265.TXT
MDDDK3312270201903                D89828070100PV1D20190329000060SPEAKER ASM                   M IMCTM S5MB11 TNTH  09020IMCT  S5 PTB  00004                    2230 SR        000000000000 DENSO TEN (THAILAND)190MRTL0005005                                                                                                                              *          20190326 IMCT                IMCT                                                                                                                    WMF1903265.TXT
MDDDK3312271201903                D89828070100PV1D20190330000060SPEAKER ASM                   M IMCTM S5MB11 TNTH  09020IMCT  S5 PTB  00004                    0400 SR        000000000000 DENSO TEN (THAILAND)190MREL0005005                                                                                                                              *          20190326 IMCT                IMCT                                                                                                                    WMF1903265.TXT
MDDDK3312272201903                D89828070100PV1D20190330000060SPEAKER ASM                   M IMCTM S5MB11 TNTH  09020IMCT  S5 PTB  00004                    0830 SR        000000000000 DENSO TEN (THAILAND)190MRTL0006006                                                                                                                              *          20190326 IMCT                IMCT                                                                                                                    WMF1903265.TXT
MDDDK3312273201903                D89828070100PV1D20190330000120SPEAKER ASM                   M IMCTM S5MB11 TNTH  09020IMCT  S5 PTB  00004                    1300 SR        000000000000 DENSO TEN (THAILAND)190MRAL0096096190MXCL0040040                                                                                                                *          20190326 IMCT                IMCT                                                                                                                    WMF1903265.TXT
MDDDK3312274201903                D89828070100PV1D20190330000060SPEAKER ASM                   M IMCTM S5MB11 TNTH  09020IMCT  S5 PTB  00004                    2100 SR        000000000000 DENSO TEN (THAILAND)190MNGL0105105                                                                                                                              *          20190326 IMCT                IMCT                                                                                                                    WMF1903265.TXT
MDDDK3312275201903                D89828070100PV4D20190330000060SPEAKER ASM                   M IMCTM S0FL05 TNTH  09020IMCT  S0 PTB  00004                    1030 SR        000000000000 DENSO TEN (THAILAND)190MRVU0040040                                                                                                                              *          20190326 IMCT                IMCT                                                                                                                    WMF1903265.TXT
MDDDK3312276201903                D89828070200PV1D20190329000060SPEAKER ASM                   M IMCTM S5MA14 TNTH  09020IMCT  S5 PTB  00005                    2230 SR        000000000000 DENSO TEN (THAILAND)190MRTL0005005                                                                                                                              *          20190326 IMCT                IMCT                                                                                                                    WMF1903265.TXT
MDDDK3312277201903                D89828070200PV1D20190330000060SPEAKER ASM                   M IMCTM S5MA14 TNTH  09020IMCT  S5 PTB  00005                    0400 SR        000000000000 DENSO TEN (THAILAND)190MREL0005005                                                                                                                              *          20190326 IMCT                IMCT                                                                                                                    WMF1903265.TXT
MDDDK3312278201903                D89828070200PV1D20190330000060SPEAKER ASM                   M IMCTM S5MA14 TNTH  09020IMCT  S5 PTB  00005                    0830 SR        000000000000 DENSO TEN (THAILAND)190MRTL0006006                                                                                                                              *          20190326 IMCT                IMCT                                                                                                                    WMF1903265.TXT
MDDDK3312279201903                D89828070200PV4D20190330000060SPEAKER ASM                   M IMCTM S0FR05 TNTH  09020IMCT  S0 PTB  00005                    1030 SR        000000000000 DENSO TEN (THAILAND)190MRVU0040040                                                                                                                              *          20190326 IMCT                IMCT                                                                                                                    WMF1903265.TXT
MDDDK3312280201903                D89828070300PT1D20190329000060SPEAKER ASM                   M IMCTM S5NB082TNTH  09020IMCT  S5 PTB  00015                    2230 SR        000000000000 DENSO TEN (THAILAND)190MRTL0005005                                                                                                                              *          20190326 IMCT                IMCT                                                                                                                    WMF1903265.TXT
MDDDK3312281201903                D89828070300PT1D20190330000060SPEAKER ASM                   M IMCTM S5NB082TNTH  09020IMCT  S5 PTB  00015                    0400 SR        000000000000 DENSO TEN (THAILAND)190MREL0005005                                                                                                                              *          20190326 IMCT                IMCT                                                                                                                    WMF1903265.TXT
MDDDK3312282201903                D89828070300PT1D20190330000060SPEAKER ASM                   M IMCTM S5NB082TNTH  09020IMCT  S5 PTB  00015                    0830 SR        000000000000 DENSO TEN (THAILAND)190MRTL0006006                                                                                                                              *          20190326 IMCT                IMCT                                                                                                                    WMF1903265.TXT
MDDDK3312283201903                D89828070300PT4D20190330000060SPEAKER ASM                   M IMCTM S9TS02 TNTH  09020IMCT  S9 PTB  00015                    1030 SR        000000000000 DENSO TEN (THAILAND)190MRVU0040040                                                                                                                              *          20190326 IMCT                IMCT                                                                                                                    WMF1903265.TXT
MDDDK3312284201903                D89831228400PT1D20190330000030RADIO;AM/FM,CD                M IMCTM S5NC06 TNTH  09020IMCT  S5 CPB  00003                    0400 SR        000000000000 DENSO TEN (THAILAND)190MREL0005005                                                                                                                              *          20190326 IMCT                IMCT                                                                                                                    WMF1903265.TXT
MDDDK3312285201903                D89848581500PT1D20190329000030RADIO;AM/FM CD D              M IMCTM S5NC06 TNTH  09020IMCT  S5 PTB  00003                    2230 SR        000000000000 DENSO TEN (THAILAND)190MRTL0005005                                                                                                                              *          20190326 IMCT                IMCT                                                                                                                    WMF1903265.TXT
MDDDK3312286201903                D89848581500PT1D20190330000030RADIO;AM/FM CD D              M IMCTM S5NC06 TNTH  09020IMCT  S5 PTB  00003                    0830 SR        000000000000 DENSO TEN (THAILAND)190MRTL0006006                                                                                                                              *          20190326 IMCT                IMCT                                                                                                                    WMF1903265.TXT
MDDUK3267191201903                D89828070100PT4U20190330000030SPEAKER ASM                   M IMCTM S0FL05 TNTH  09020IMCT  S0 PTB  00004                    0230 SR        000000000000 DENSO TEN (THAILAND)190MUGU0051051                                                                                                                              *          20190326 IMCT                IMCT                                                                                                                    WMF1903265.TXT
MDDUK3267192201903                D89828070100PT4U20190330000030SPEAKER ASM                   M IMCTM S0FL05 TNTH  09020IMCT  S0 PTB  00004                    0400 SR        000000000000 DENSO TEN (THAILAND)190MUEU0087087                                                                                                                              *          20190326 IMCT                IMCT                                                                                                                    WMF1903265.TXT
MDDUK3267193201903                D89828070100PT4U20190330000030SPEAKER ASM                   M IMCTM S0FL05 TNTH  09020IMCT  S0 PTB  00004                    0830 SR        000000000000 DENSO TEN (THAILAND)190MUGU0052052                                                                                                                              *          20190326 IMCT                IMCT                                                                                                                    WMF1903265.TXT
MDDUK3267194201903                D89828070100PT4U20190330000030SPEAKER ASM                   M IMCTM S0FL05 TNTH  09020IMCT  S0 PTB  00004                    1600 SR        000000000000 DENSO TEN (THAILAND)190MUGU0053053                                                                                                                              *          20190326 IMCT                IMCT                                                                                                                    WMF1903265.TXT
MDDUK3267195201903                D89828070200PV4U20190330000030SPEAKER ASM                   M IMCTM S0FR05 TNTH  09020IMCT  S0 PTB  00005                    0230 SR        000000000000 DENSO TEN (THAILAND)190MUGU0051051                                                                                                                              *          20190326 IMCT                IMCT                                                                                                                    WMF1903265.TXT
MDDUK3267196201903                D89828070200PV4U20190330000030SPEAKER ASM                   M IMCTM S0FR05 TNTH  09020IMCT  S0 PTB  00005                    0400 SR        000000000000 DENSO TEN (THAILAND)190MUEU0087087                                                                                                                              *          20190326 IMCT                IMCT                                                                                                                    WMF1903265.TXT
MDDUK3267197201903                D89828070200PV4U20190330000030SPEAKER ASM                   M IMCTM S0FR05 TNTH  09020IMCT  S0 PTB  00005                    0830 SR        000000000000 DENSO TEN (THAILAND)190MUGU0052052                                                                                                                              *          20190326 IMCT                IMCT                                                                                                                    WMF1903265.TXT
MDDUK3267198201903                D89828070200PV4U20190330000030SPEAKER ASM                   M IMCTM S0FR05 TNTH  09020IMCT  S0 PTB  00005                    1600 SR        000000000000 DENSO TEN (THAILAND)190MUGU0053053                                                                                                                              *          20190326 IMCT                IMCT                                                                                                                    WMF1903265.TXT
MDDUK3267199201903                D89828070300PT4U20190330000030SPEAKER ASM                   M IMCTM S9TS02 TNTH  09020IMCT  S9 PTB  00015                    0230 SR        000000000000 DENSO TEN (THAILAND)190MUGU0051051                                                                                                                              *          20190326 IMCT                IMCT                                                                                                                    WMF1903265.TXT
MDDUK3267200201903                D89828070300PT4U20190330000030SPEAKER ASM                   M IMCTM S9TS02 TNTH  09020IMCT  S9 PTB  00015                    0400 SR        000000000000 DENSO TEN (THAILAND)190MUEU0087087                                                                                                                              *          20190326 IMCT                IMCT                                                                                                                    WMF1903265.TXT
MDDUK3267201201903                D89828070300PT4U20190330000030SPEAKER ASM                   M IMCTM S9TS02 TNTH  09020IMCT  S9 PTB  00015                    0830 SR        000000000000 DENSO TEN (THAILAND)190MUGU0052052                                                                                                                              *          20190326 IMCT                IMCT                                                                                                                    WMF1903265.TXT
MDDUK3267202201903                D89828070300PT4U20190330000030SPEAKER ASM                   M IMCTM S9TS02 TNTH  09020IMCT  S9 PTB  00015                    1600 SR        000000000000 DENSO TEN (THAILAND)190MUGU0053053                                                                                                                              *          20190326 IMCT                IMCT                                                                                                                    WMF1903265.TXT
MDEDK3389904201903                D89828070100PV1D20190329000060SPEAKER ASM                   M IMCTM S5MB11 TNTH  09020IMCT  S5 PTB  00004                    2230 SR        000000000000 DENSO TEN (THAILAND)190H71L0018019                                                                                                                              *          20190326 IMCT                IMCT                                                                                                                    WMF1903265.TXT
MDEDK3389905201903                D89828070100PV1D20190330000030SPEAKER ASM                   M IMCTM S5MB11 TNTH  09020IMCT  S5 PTB  00004                    0230 SR        000000000000 DENSO TEN (THAILAND)190H02L0018018                                                                                                                              *          20190326 IMCT                IMCT                                                                                                                    WMF1903265.TXT
MDEDK3389906201903                D89828070100PV1D20190330000060SPEAKER ASM                   M IMCTM S5MB11 TNTH  09020IMCT  S5 PTB  00004                    0400 SR        000000000000 DENSO TEN (THAILAND)190H49L0018018190H71L0020020                                                                                                                *          20190326 IMCT                IMCT                                                                                                                    WMF1903265.TXT
MDEDK3389907201903                D89828070100PV1D20190330000030SPEAKER ASM                   M IMCTM S5MB11 TNTH  09020IMCT  S5 PTB  00004                    0830 SR        000000000000 DENSO TEN (THAILAND)190H49L0019019                                                                                                                              *          20190326 IMCT                IMCT                                                                                                                    WMF1903265.TXT
MDEDK3389908201903                D89828070100PV1D20190330000030SPEAKER ASM                   M IMCTM S5MB11 TNTH  09020IMCT  S5 PTB  00004                    1030 SR        000000000000 DENSO TEN (THAILAND)190H76L0020020                                                                                                                              *          20190326 IMCT                IMCT                                                                                                                    WMF1903265.TXT
MDEDK3389909201903                D89828070100PV1D20190330000090SPEAKER ASM                   M IMCTM S5MB11 TNTH  09020IMCT  S5 PTB  00004                    1600 SR        000000000000 DENSO TEN (THAILAND)190J91L0023023190K21L0014015                                                                                                                *          20190326 IMCT                IMCT                                                                                                                    WMF1903265.TXT
MDEDK3389910201903                D89828070100PV4D20190330000030SPEAKER ASM                   M IMCTM S0FL05 TNTH  09020IMCT  S0 PTB  00004                    0230 SR        000000000000 DENSO TEN (THAILAND)190J07U0017017                                                                                                                              *          20190326 IMCT                IMCT                                                                                                                    WMF1903265.TXT
MDEDK3389911201903                D89828070100PV4D20190330000030SPEAKER ASM                   M IMCTM S0FL05 TNTH  09020IMCT  S0 PTB  00004                    2100 SR        000000000000 DENSO TEN (THAILAND)190J12U0001001                                                                                                                              *          20190326 IMCT                IMCT                                                                                                                    WMF1903265.TXT
MDEDK3389912201903                D89828070200PV1D20190330000060SPEAKER ASM                   M IMCTM S5MA14 TNTH  09020IMCT  S5 PTB  00005                    1600 SR        000000000000 DENSO TEN (THAILAND)190K21L0014015                                                                                                                              *          20190326 IMCT                IMCT                                                                                                                    WMF1903265.TXT
MDEDK3389913201903                D89828070200PV4D20190330000030SPEAKER ASM                   M IMCTM S0FR05 TNTH  09020IMCT  S0 PTB  00005                    0230 SR        000000000000 DENSO TEN (THAILAND)190J07U0017017                                                                                                                              *          20190326 IMCT                IMCT                                                                                                                    WMF1903265.TXT
MDEDK3389914201903                D89828070200PV4D20190330000030SPEAKER ASM                   M IMCTM S0FR05 TNTH  09020IMCT  S0 PTB  00005                    2100 SR        000000000000 DENSO TEN (THAILAND)190J12U0001001                                                                                                                              *          20190326 IMCT                IMCT                                                                                                                    WMF1903265.TXT
MDEDK3389915201903                D89828070300PT1D20190329000060SPEAKER ASM                   M IMCTM S5NB082TNTH  09020IMCT  S5 PTB  00015                    2230 SR        000000000000 DENSO TEN (THAILAND)190H71L0018019                                                                                                                              *          20190326 IMCT                IMCT                                                                                                                    WMF1903265.TXT
MDEDK3389916201903                D89828070300PT1D20190330000030SPEAKER ASM                   M IMCTM S5NB082TNTH  09020IMCT  S5 PTB  00015                    0400 SR        000000000000 DENSO TEN (THAILAND)190H71L0020020                                                                                                                              *          20190326 IMCT                IMCT                                                                                                                    WMF1903265.TXT
MDEDK3389917201903                D89828070300PT1D20190330000060SPEAKER ASM                   M IMCTM S5NB082TNTH  09020IMCT  S5 PTB  00015                    1600 SR        000000000000 DENSO TEN (THAILAND)190K21L0014015                                                                                                                              *          20190326 IMCT                IMCT                                                                                                                    WMF1903265.TXT
MDEDK3389918201903                D89828070300PT4D20190330000030SPEAKER ASM                   M IMCTM S9TS02 TNTH  09020IMCT  S9 PTB  00015                    0230 SR        000000000000 DENSO TEN (THAILAND)190J07U0017017                                                                                                                              *          20190326 IMCT                IMCT                                                                                                                    WMF1903265.TXT
MDEDK3389919201903                D89828070300PT4D20190330000030SPEAKER ASM                   M IMCTM S9TS02 TNTH  09020IMCT  S9 PTB  00015                    2100 SR        000000000000 DENSO TEN (THAILAND)190J12U0001001                                                                                                                              *          20190326 IMCT                IMCT                                                                                                                    WMF1903265.TXT
MDEDK3389920201903                D89838031200PT1D20190330000030RADIO;ASM DVD                 M IMCTM S5NC06 TNTH  09020IMCT  S5 PTB  00003                    1600 SR        000000000000 DENSO TEN (THAILAND)190K21L0014015                                                                                                                              *          20190326 IMCT                IMCT                                                                                                                    WMF1903265.TXT
MDEUK3253469201903                D89828070100PT4U20190330000060SPEAKER ASM                   M IMCTM S0FL05 TNTH  09020IMCT  S0 PTB  00004                    1300 SR        000000000000 DENSO TEN (THAILAND)190G31U0024024190G76U0014014                                                                                                                *          20190326 IMCT                IMCT                                                                                                                    WMF1903265.TXT
MDEUK3253470201903                D89828070100PT4U20190330000030SPEAKER ASM                   M IMCTM S0FL05 TNTH  09020IMCT  S0 PTB  00004                    2230 SR        000000000000 DENSO TEN (THAILAND)190G32U0047047                                                                                                                              *          20190326 IMCT                IMCT                                                                                                                    WMF1903265.TXT
MDEUK3253471201903                D89828070200PV4U20190330000060SPEAKER ASM                   M IMCTM S0FR05 TNTH  09020IMCT  S0 PTB  00005                    1300 SR        000000000000 DENSO TEN (THAILAND)190G31U0024024190G76U0014014                                                                                                                *          20190326 IMCT                IMCT                                                                                                                    WMF1903265.TXT
MDEUK3253472201903                D89828070200PV4U20190330000030SPEAKER ASM                   M IMCTM S0FR05 TNTH  09020IMCT  S0 PTB  00005                    2230 SR        000000000000 DENSO TEN (THAILAND)190G32U0047047                                                                                                                              *          20190326 IMCT                IMCT                                                                                                                    WMF1903265.TXT
MDEUK3253473201903                D89828070300PT4U20190330000060SPEAKER ASM                   M IMCTM S9TS02 TNTH  09020IMCT  S9 PTB  00015                    1300 SR        000000000000 DENSO TEN (THAILAND)190G31U0024024190G76U0014014                                                                                                                *          20190326 IMCT                IMCT                                                                                                                    WMF1903265.TXT
MDEUK3253474201903                D89828070300PT4U20190330000030SPEAKER ASM                   M IMCTM S9TS02 TNTH  09020IMCT  S9 PTB  00015                    2230 SR        000000000000 DENSO TEN (THAILAND)190G32U0047047                                                                                                                              *          20190326 IMCT                IMCT                                                                                                                    WMF1903265.TXT
