REC2019032120190321ISUZU                              67     
MDDDK3290293201903                D89821984430PT1D20190325000030RADIO;AM/FM,CD                M IMCTM S5NC06 TNTH  09020IMCT  S5 PTB  00005                    2230 SR        000000000000 DENSO TEN (THAILAND)190MNGL0101101                                                                                                                              *          20190321 IMCT                IMCT                                                                                                                    WMF1903214.TXT
MDDDK3290294201903                D89828070100PV1D20190325000060SPEAKER ASM                   M IMCTM S5MB11 TNTH  09020IMCT  S5 PTB  00004                    2230 SR        000000000000 DENSO TEN (THAILAND)190MNGL0101101                                                                                                                              *          20190321 IMCT                IMCT                                                                                                                    WMF1903214.TXT
MDDDK3290295201903                D89828070100PV1D20190326000060SPEAKER ASM                   M IMCTM S5MB11 TNTH  09020IMCT  S5 PTB  00004                    0830 SR        000000000000 DENSO TEN (THAILAND)190MPJL0024024                                                                                                                              *          20190321 IMCT                IMCT                                                                                                                    WMF1903214.TXT
MDDDK3290296201903                D89828070100PV1D20190326000060SPEAKER ASM                   M IMCTM S5MB11 TNTH  09020IMCT  S5 PTB  00004                    1300 SR        000000000000 DENSO TEN (THAILAND)190MPLL0015015                                                                                                                              *          20190321 IMCT                IMCT                                                                                                                    WMF1903214.TXT
MDDDK3290297201903                D89828070100PV1D20190326000060SPEAKER ASM                   M IMCTM S5MB11 TNTH  09020IMCT  S5 PTB  00004                    2100 SR        000000000000 DENSO TEN (THAILAND)190MPGL0148148                                                                                                                              *          20190321 IMCT                IMCT                                                                                                                    WMF1903214.TXT
MDDDK3290298201903                D89828070100PV1D20190326000060SPEAKER ASM                   M IMCTM S5MB11 TNTH  09020IMCT  S5 PTB  00004                    2230 SR        000000000000 DENSO TEN (THAILAND)190MPQL0025025                                                                                                                              *          20190321 IMCT                IMCT                                                                                                                    WMF1903214.TXT
MDDDK3290299201903                D89828070100PV4D20190326000060SPEAKER ASM                   M IMCTM S0FL05 TNTH  09020IMCT  S0 PTB  00004                    2100 SR        000000000000 DENSO TEN (THAILAND)190MRVU0038038                                                                                                                              *          20190321 IMCT                IMCT                                                                                                                    WMF1903214.TXT
MDDDK3290300201903                D89828070200PV4D20190326000060SPEAKER ASM                   M IMCTM S0FR05 TNTH  09020IMCT  S0 PTB  00005                    2100 SR        000000000000 DENSO TEN (THAILAND)190MRVU0038038                                                                                                                              *          20190321 IMCT                IMCT                                                                                                                    WMF1903214.TXT
MDDDK3290301201903                D89828070300PT1D20190326000060SPEAKER ASM                   M IMCTM S5NB082TNTH  09020IMCT  S5 PTB  00015                    0830 SR        000000000000 DENSO TEN (THAILAND)190MPJL0024024                                                                                                                              *          20190321 IMCT                IMCT                                                                                                                    WMF1903214.TXT
MDDDK3290302201903                D89828070300PT1D20190326000060SPEAKER ASM                   M IMCTM S5NB082TNTH  09020IMCT  S5 PTB  00015                    1300 SR        000000000000 DENSO TEN (THAILAND)190MPLL0015015                                                                                                                              *          20190321 IMCT                IMCT                                                                                                                    WMF1903214.TXT
MDDDK3290303201903                D89828070300PT1D20190326000060SPEAKER ASM                   M IMCTM S5NB082TNTH  09020IMCT  S5 PTB  00015                    2100 SR        000000000000 DENSO TEN (THAILAND)190MPGL0148148                                                                                                                              *          20190321 IMCT                IMCT                                                                                                                    WMF1903214.TXT
MDDDK3290304201903                D89828070300PT1D20190326000060SPEAKER ASM                   M IMCTM S5NB082TNTH  09020IMCT  S5 PTB  00015                    2230 SR        000000000000 DENSO TEN (THAILAND)190MPQL0025025                                                                                                                              *          20190321 IMCT                IMCT                                                                                                                    WMF1903214.TXT
MDDDK3290305201903                D89828070300PT4D20190326000060SPEAKER ASM                   M IMCTM S9TS02 TNTH  09020IMCT  S9 PTB  00015                    2100 SR        000000000000 DENSO TEN (THAILAND)190MRVU0038038                                                                                                                              *          20190321 IMCT                IMCT                                                                                                                    WMF1903214.TXT
MDDDK3290306201903                D89831228300PT1D20190326000030RADIO;AM/FM,CD                M IMCTM S5NC06 TNTH  09020IMCT  S5 CPB  00003                    0830 SR        000000000000 DENSO TEN (THAILAND)190MPJL0024024                                                                                                                              *          20190321 IMCT                IMCT                                                                                                                    WMF1903214.TXT
MDDDK3290307201903                D89831228300PT1D20190326000030RADIO;AM/FM,CD                M IMCTM S5NC06 TNTH  09020IMCT  S5 CPB  00003                    2100 SR        000000000000 DENSO TEN (THAILAND)190MPGL0148148                                                                                                                              *          20190321 IMCT                IMCT                                                                                                                    WMF1903214.TXT
MDDDK3290308201903                D89848581600PT1D20190326000030RADIO;AM/FM CD D              M IMCTM S5NC06 TNTH  09020IMCT  S5 PTB  00003                    1300 SR        000000000000 DENSO TEN (THAILAND)190MPLL0015015                                                                                                                              *          20190321 IMCT                IMCT                                                                                                                    WMF1903214.TXT
MDDDK3290309201903                D89848581600PT1D20190326000030RADIO;AM/FM CD D              M IMCTM S5NC06 TNTH  09020IMCT  S5 PTB  00003                    2230 SR        000000000000 DENSO TEN (THAILAND)190MPQL0025025                                                                                                                              *          20190321 IMCT                IMCT                                                                                                                    WMF1903214.TXT
MDDUK3254506201903                D89828070100PT4U20190326000030SPEAKER ASM                   M IMCTM S0FL05 TNTH  09020IMCT  S0 PTB  00004                    0400 SR        000000000000 DENSO TEN (THAILAND)190MUEU0083083                                                                                                                              *          20190321 IMCT                IMCT                                                                                                                    WMF1903214.TXT
MDDUK3254507201903                D89828070100PT4U20190326000030SPEAKER ASM                   M IMCTM S0FL05 TNTH  09020IMCT  S0 PTB  00004                    1300 SR        000000000000 DENSO TEN (THAILAND)190MUGU0045045                                                                                                                              *          20190321 IMCT                IMCT                                                                                                                    WMF1903214.TXT
MDDUK3254508201903                D89828070100PT4U20190326000030SPEAKER ASM                   M IMCTM S0FL05 TNTH  09020IMCT  S0 PTB  00004                    1600 SR        000000000000 DENSO TEN (THAILAND)190MUAU0010010                                                                                                                              *          20190321 IMCT                IMCT                                                                                                                    WMF1903214.TXT
MDDUK3254509201903                D89828070200PV4U20190326000030SPEAKER ASM                   M IMCTM S0FR05 TNTH  09020IMCT  S0 PTB  00005                    0400 SR        000000000000 DENSO TEN (THAILAND)190MUEU0083083                                                                                                                              *          20190321 IMCT                IMCT                                                                                                                    WMF1903214.TXT
MDDUK3254510201903                D89828070200PV4U20190326000030SPEAKER ASM                   M IMCTM S0FR05 TNTH  09020IMCT  S0 PTB  00005                    1300 SR        000000000000 DENSO TEN (THAILAND)190MUGU0045045                                                                                                                              *          20190321 IMCT                IMCT                                                                                                                    WMF1903214.TXT
MDDUK3254511201903                D89828070200PV4U20190326000030SPEAKER ASM                   M IMCTM S0FR05 TNTH  09020IMCT  S0 PTB  00005                    1600 SR        000000000000 DENSO TEN (THAILAND)190MUAU0010010                                                                                                                              *          20190321 IMCT                IMCT                                                                                                                    WMF1903214.TXT
MDDUK3254512201903                D89828070300PT4U20190326000030SPEAKER ASM                   M IMCTM S9TS02 TNTH  09020IMCT  S9 PTB  00015                    0400 SR        000000000000 DENSO TEN (THAILAND)190MUEU0083083                                                                                                                              *          20190321 IMCT                IMCT                                                                                                                    WMF1903214.TXT
MDDUK3254513201903                D89828070300PT4U20190326000030SPEAKER ASM                   M IMCTM S9TS02 TNTH  09020IMCT  S9 PTB  00015                    1300 SR        000000000000 DENSO TEN (THAILAND)190MUGU0045045                                                                                                                              *          20190321 IMCT                IMCT                                                                                                                    WMF1903214.TXT
MDDUK3254514201903                D89828070300PT4U20190326000030SPEAKER ASM                   M IMCTM S9TS02 TNTH  09020IMCT  S9 PTB  00015                    1600 SR        000000000000 DENSO TEN (THAILAND)190MUAU0010010                                                                                                                              *          20190321 IMCT                IMCT                                                                                                                    WMF1903214.TXT
MDDUK3254515201903                D89831228400PT4U20190326000015RADIO;AM/FM,CD                M IMCTM S9CO001TNTH  09020IMCT  S9 CPB  00003                    1600 SR        000000000000 DENSO TEN (THAILAND)190MUAU0010010                                                                                                                              *          20190321 IMCT                IMCT                                                                                                                    WMF1903214.TXT
MDEDK3358614201903                D89828070100PV1D20190325000060SPEAKER ASM                   M IMCTM S5MB11 TNTH  09020IMCT  S5 PTB  00004                    2230 SR        000000000000 DENSO TEN (THAILAND)190H76L0016017                                                                                                                              *          20190321 IMCT                IMCT                                                                                                                    WMF1903214.TXT
MDEDK3358615201903                D89828070100PV1D20190326000060SPEAKER ASM                   M IMCTM S5MB11 TNTH  09020IMCT  S5 PTB  00004                    0230 SR        000000000000 DENSO TEN (THAILAND)190J07L0006007                                                                                                                              *          20190321 IMCT                IMCT                                                                                                                    WMF1903214.TXT
MDEDK3358616201903                D89828070100PV1D20190326000090SPEAKER ASM                   M IMCTM S5MB11 TNTH  09020IMCT  S5 PTB  00004                    0400 SR        000000000000 DENSO TEN (THAILAND)190H43L0016016190J94L0079080                                                                                                                *          20190321 IMCT                IMCT                                                                                                                    WMF1903214.TXT
MDEDK3358617201903                D89828070100PV1D20190326000030SPEAKER ASM                   M IMCTM S5MB11 TNTH  09020IMCT  S5 PTB  00004                    0830 SR        000000000000 DENSO TEN (THAILAND)190H43L0017017                                                                                                                              *          20190321 IMCT                IMCT                                                                                                                    WMF1903214.TXT
MDEDK3358618201903                D89828070100PV1D20190326000060SPEAKER ASM                   M IMCTM S5MB11 TNTH  09020IMCT  S5 PTB  00004                    1300 SR        000000000000 DENSO TEN (THAILAND)190K83L0015016                                                                                                                              *          20190321 IMCT                IMCT                                                                                                                    WMF1903214.TXT
MDEDK3358619201903                D89828070100PV1D20190326000180SPEAKER ASM                   M IMCTM S5MB11 TNTH  09020IMCT  S5 PTB  00004                    1600 SR        000000000000 DENSO TEN (THAILAND)190H02L0017017190H21L0006006190H26L0008009190J94L0081082                                                                                    *          20190321 IMCT                IMCT                                                                                                                    WMF1903214.TXT
MDEDK3358620201903                D89828070100PV4D20190325000030SPEAKER ASM                   M IMCTM S0FL05 TNTH  09020IMCT  S0 PTB  00004                    2230 SR        000000000000 DENSO TEN (THAILAND)190H82U0006006                                                                                                                              *          20190321 IMCT                IMCT                                                                                                                    WMF1903214.TXT
MDEDK3358621201903                D89828070100PV4D20190326000030SPEAKER ASM                   M IMCTM S0FL05 TNTH  09020IMCT  S0 PTB  00004                    0230 SR        000000000000 DENSO TEN (THAILAND)190H84U0006006                                                                                                                              *          20190321 IMCT                IMCT                                                                                                                    WMF1903214.TXT
MDEDK3358622201903                D89828070100PV4D20190326000060SPEAKER ASM                   M IMCTM S0FL05 TNTH  09020IMCT  S0 PTB  00004                    1300 SR        000000000000 DENSO TEN (THAILAND)190J07U0013013190K21U0037037                                                                                                                *          20190321 IMCT                IMCT                                                                                                                    WMF1903214.TXT
MDEDK3358623201903                D89828070100PV4D20190326000030SPEAKER ASM                   M IMCTM S0FL05 TNTH  09020IMCT  S0 PTB  00004                    1600 SR        000000000000 DENSO TEN (THAILAND)190F44U0012012                                                                                                                              *          20190321 IMCT                IMCT                                                                                                                    WMF1903214.TXT
MDEDK3358624201903                D89828070200PV1D20190326000060SPEAKER ASM                   M IMCTM S5MA14 TNTH  09020IMCT  S5 PTB  00005                    0230 SR        000000000000 DENSO TEN (THAILAND)190J07L0006007                                                                                                                              *          20190321 IMCT                IMCT                                                                                                                    WMF1903214.TXT
MDEDK3358625201903                D89828070200PV1D20190326000060SPEAKER ASM                   M IMCTM S5MA14 TNTH  09020IMCT  S5 PTB  00005                    1300 SR        000000000000 DENSO TEN (THAILAND)190K83L0015016                                                                                                                              *          20190321 IMCT                IMCT                                                                                                                    WMF1903214.TXT
MDEDK3358626201903                D89828070200PV1D20190326000090SPEAKER ASM                   M IMCTM S5MA14 TNTH  09020IMCT  S5 PTB  00005                    1600 SR        000000000000 DENSO TEN (THAILAND)190H21L0006006190H26L0008009                                                                                                                *          20190321 IMCT                IMCT                                                                                                                    WMF1903214.TXT
MDEDK3358627201903                D89828070200PV4D20190326000030SPEAKER ASM                   M IMCTM S0FR05 TNTH  09020IMCT  S0 PTB  00005                    0230 SR        000000000000 DENSO TEN (THAILAND)190H84U0006006                                                                                                                              *          20190321 IMCT                IMCT                                                                                                                    WMF1903214.TXT
MDEDK3358628201903                D89828070200PV4D20190326000060SPEAKER ASM                   M IMCTM S0FR05 TNTH  09020IMCT  S0 PTB  00005                    1300 SR        000000000000 DENSO TEN (THAILAND)190J07U0013013190K21U0037037                                                                                                                *          20190321 IMCT                IMCT                                                                                                                    WMF1903214.TXT
MDEDK3358629201903                D89828070200PV4D20190326000030SPEAKER ASM                   M IMCTM S0FR05 TNTH  09020IMCT  S0 PTB  00005                    1600 SR        000000000000 DENSO TEN (THAILAND)190F44U0012012                                                                                                                              *          20190321 IMCT                IMCT                                                                                                                    WMF1903214.TXT
MDEDK3358630201903                D89828070300PT1D20190326000060SPEAKER ASM                   M IMCTM S5NB082TNTH  09020IMCT  S5 PTB  00015                    0230 SR        000000000000 DENSO TEN (THAILAND)190J07L0006007                                                                                                                              *          20190321 IMCT                IMCT                                                                                                                    WMF1903214.TXT
MDEDK3358631201903                D89828070300PT1D20190326000060SPEAKER ASM                   M IMCTM S5NB082TNTH  09020IMCT  S5 PTB  00015                    1300 SR        000000000000 DENSO TEN (THAILAND)190K83L0015016                                                                                                                              *          20190321 IMCT                IMCT                                                                                                                    WMF1903214.TXT
MDEDK3358632201903                D89828070300PT1D20190326000090SPEAKER ASM                   M IMCTM S5NB082TNTH  09020IMCT  S5 PTB  00015                    1600 SR        000000000000 DENSO TEN (THAILAND)190H21L0006006190H26L0008009                                                                                                                *          20190321 IMCT                IMCT                                                                                                                    WMF1903214.TXT
MDEDK3358633201903                D89828070300PT4D20190325000030SPEAKER ASM                   M IMCTM S9TS02 TNTH  09020IMCT  S9 PTB  00015                    2230 SR        000000000000 DENSO TEN (THAILAND)190H82U0006006                                                                                                                              *          20190321 IMCT                IMCT                                                                                                                    WMF1903214.TXT
MDEDK3358634201903                D89828070300PT4D20190326000030SPEAKER ASM                   M IMCTM S9TS02 TNTH  09020IMCT  S9 PTB  00015                    0230 SR        000000000000 DENSO TEN (THAILAND)190H84U0006006                                                                                                                              *          20190321 IMCT                IMCT                                                                                                                    WMF1903214.TXT
MDEDK3358635201903                D89828070300PT4D20190326000060SPEAKER ASM                   M IMCTM S9TS02 TNTH  09020IMCT  S9 PTB  00015                    1300 SR        000000000000 DENSO TEN (THAILAND)190J07U0013013190K21U0037037                                                                                                                *          20190321 IMCT                IMCT                                                                                                                    WMF1903214.TXT
MDEDK3358636201903                D89828070300PT4D20190326000030SPEAKER ASM                   M IMCTM S9TS02 TNTH  09020IMCT  S9 PTB  00015                    1600 SR        000000000000 DENSO TEN (THAILAND)190F44U0012012                                                                                                                              *          20190321 IMCT                IMCT                                                                                                                    WMF1903214.TXT
MDEDK3358637201903                D89838031200PT4D20190326000015RADIO;ASM DVD                 M IMCTM S9CO001TNTH  09020IMCT  S9 PTB  00003                    1300 SR        000000000000 DENSO TEN (THAILAND)190K21U0037037                                                                                                                              *          20190321 IMCT                IMCT                                                                                                                    WMF1903214.TXT
MDEDK3358638201903                D89848582010PT4D20190326000015RADIO;AM/FM CD D              M IMCTM S9CO001TNTH  09020IMCT  S9 PTB  00003                    1600 SR        000000000000 DENSO TEN (THAILAND)190F44U0012012                                                                                                                              *          20190321 IMCT                IMCT                                                                                                                    WMF1903214.TXT
MDEDK3358639201903                D89848582100PT1D20190326000030RADIO;AM/FM CD D              M IMCTM S5NC06 TNTH  09020IMCT  S5 PTB  00003                    1600 SR        000000000000 DENSO TEN (THAILAND)190H26L0008009                                                                                                                              *          20190321 IMCT                IMCT                                                                                                                    WMF1903214.TXT
MDEUK3245069201903                D89752845400PT4U20190326000015RADIO;AM FM,CD D              M IMCTM S9AD002TNTH  09020IMCT  S9 PTB  00003                    0230 SR        000000000000 DENSO TEN (THAILAND)190G24U0010010                                                                                                                              *          20190321 IMCT                IMCT                                                                                                                    WMF1903214.TXT
MDEUK3245070201903                D89752845400PT4U20190326000015RADIO;AM FM,CD D              M IMCTM S9AD002TNTH  09020IMCT  S9 PTB  00003                    0830 SR        000000000000 DENSO TEN (THAILAND)190G24U0011011                                                                                                                              *          20190321 IMCT                IMCT                                                                                                                    WMF1903214.TXT
MDEUK3245071201903                D89828070100PT4U20190326000030SPEAKER ASM                   M IMCTM S0FL05 TNTH  09020IMCT  S0 PTB  00004                    0230 SR        000000000000 DENSO TEN (THAILAND)190G24U0010010                                                                                                                              *          20190321 IMCT                IMCT                                                                                                                    WMF1903214.TXT
MDEUK3245072201903                D89828070100PT4U20190326000030SPEAKER ASM                   M IMCTM S0FL05 TNTH  09020IMCT  S0 PTB  00004                    0830 SR        000000000000 DENSO TEN (THAILAND)190G24U0011011                                                                                                                              *          20190321 IMCT                IMCT                                                                                                                    WMF1903214.TXT
MDEUK3245073201903                D89828070100PT4U20190326000030SPEAKER ASM                   M IMCTM S0FL05 TNTH  09020IMCT  S0 PTB  00004                    1600 SR        000000000000 DENSO TEN (THAILAND)190F59U0008008                                                                                                                              *          20190321 IMCT                IMCT                                                                                                                    WMF1903214.TXT
MDEUK3245074201903                D89828070100PT4U20190326000030SPEAKER ASM                   M IMCTM S0FL05 TNTH  09020IMCT  S0 PTB  00004                    2230 SR        000000000000 DENSO TEN (THAILAND)190G32U0044044                                                                                                                              *          20190321 IMCT                IMCT                                                                                                                    WMF1903214.TXT
MDEUK3245075201903                D89828070200PV4U20190326000030SPEAKER ASM                   M IMCTM S0FR05 TNTH  09020IMCT  S0 PTB  00005                    0230 SR        000000000000 DENSO TEN (THAILAND)190G24U0010010                                                                                                                              *          20190321 IMCT                IMCT                                                                                                                    WMF1903214.TXT
MDEUK3245076201903                D89828070200PV4U20190326000030SPEAKER ASM                   M IMCTM S0FR05 TNTH  09020IMCT  S0 PTB  00005                    0830 SR        000000000000 DENSO TEN (THAILAND)190G24U0011011                                                                                                                              *          20190321 IMCT                IMCT                                                                                                                    WMF1903214.TXT
MDEUK3245077201903                D89828070200PV4U20190326000030SPEAKER ASM                   M IMCTM S0FR05 TNTH  09020IMCT  S0 PTB  00005                    1600 SR        000000000000 DENSO TEN (THAILAND)190F59U0008008                                                                                                                              *          20190321 IMCT                IMCT                                                                                                                    WMF1903214.TXT
MDEUK3245078201903                D89828070200PV4U20190326000030SPEAKER ASM                   M IMCTM S0FR05 TNTH  09020IMCT  S0 PTB  00005                    2230 SR        000000000000 DENSO TEN (THAILAND)190G32U0044044                                                                                                                              *          20190321 IMCT                IMCT                                                                                                                    WMF1903214.TXT
MDEUK3245079201903                D89828070300PT4U20190326000030SPEAKER ASM                   M IMCTM S9TS02 TNTH  09020IMCT  S9 PTB  00015                    0230 SR        000000000000 DENSO TEN (THAILAND)190G24U0010010                                                                                                                              *          20190321 IMCT                IMCT                                                                                                                    WMF1903214.TXT
MDEUK3245080201903                D89828070300PT4U20190326000030SPEAKER ASM                   M IMCTM S9TS02 TNTH  09020IMCT  S9 PTB  00015                    0830 SR        000000000000 DENSO TEN (THAILAND)190G24U0011011                                                                                                                              *          20190321 IMCT                IMCT                                                                                                                    WMF1903214.TXT
MDEUK3245081201903                D89828070300PT4U20190326000030SPEAKER ASM                   M IMCTM S9TS02 TNTH  09020IMCT  S9 PTB  00015                    1600 SR        000000000000 DENSO TEN (THAILAND)190F59U0008008                                                                                                                              *          20190321 IMCT                IMCT                                                                                                                    WMF1903214.TXT
MDEUK3245082201903                D89828070300PT4U20190326000030SPEAKER ASM                   M IMCTM S9TS02 TNTH  09020IMCT  S9 PTB  00015                    2230 SR        000000000000 DENSO TEN (THAILAND)190G32U0044044                                                                                                                              *          20190321 IMCT                IMCT                                                                                                                    WMF1903214.TXT
