REC2019032220190322ISUZU                              15     
MDEBK3T02668201903                D89828070100PT4B20190327000030SPEAKER ASM                   M IMCTM S7FL05 TNTH  09020IMCT  S7 PTB  00004                    0400 SR        000000000000 DENSO TEN (THAILAND)190F62R0015   190F65R0044   Z190306501    Z190306515    000000                                                                              *R         20190322 IMCT                IMCT                                                                                                                    RMF1903226.TXT
MDEBK3T02669201903                D89828070200PV4B20190327000030SPEAKER ASM                   M IMCTM S7FL05 TNTH  09020IMCT  S7 PTB  00005                    0400 SR        000000000000 DENSO TEN (THAILAND)190F62R0015   190F65R0044   Z190306501    Z190306515    000000                                                                              *R         20190322 IMCT                IMCT                                                                                                                    RMF1903226.TXT
MDEBK3T02670201903                D89828070300PT4B20190327000030SPEAKER ASM                   M IMCTM S7TS02 TNTH  09020IMCT  S7 PTB  00015                    0400 SR        000000000000 DENSO TEN (THAILAND)190F62R0015   190F65R0044   Z190306501    Z190306515    000000                                                                              *R         20190322 IMCT                IMCT                                                                                                                    RMF1903226.TXT
MDEBK3T02671201903                D89838432900PT4B20190327000015RADIO;ASM DVD                 M IMCTM S7TS01 TNTH  09020IMCT  S7 PTB  00003                    0400 SR        000000000000 DENSO TEN (THAILAND)190F62R0015   190F65R0044   Z190306501    Z190306515    000000                                                                              *R         20190322 IMCT                IMCT                                                                                                                    RMF1903226.TXT
MDEFK3T24054201903                D89828070100PV4F20190327000030SPEAKER ASM                   M IMCTM S7FL05 TNTH  09020IMCT  S7 PTB  00004                    1600 SR        000000000000 DENSO TEN (THAILAND)190H63R0022   190H55R0022   F190306701    F190306715    000000                                                                              *R         20190322 IMCT                IMCT                                                                                                                    RMF1903226.TXT
MDEFK3T24055201903                D89828070200PV4F20190326000004SPEAKER ASM                   M IMCTM S7FL05 TNTH  09020IMCT  S7 PTB  00005                    2230 SR        000000000000 DENSO TEN (THAILAND)190H95R0025   190J24R0016   D190306403    D190306404    000000                                                                              *R         20190322 IMCT                IMCT                                                                                                                    RMF1903226.TXT
MDEFK3T24056201903                D89828070300PT4F20190327000019SPEAKER ASM                   M IMCTM S7TS02 TNTH  09020IMCT  S7 PTB  00015                    1600 SR        000000000000 DENSO TEN (THAILAND)190H71R0032   190H55R0022   F190306706    F190306715    000000                                                                              *R         20190322 IMCT                IMCT                                                                                                                    RMF1903226.TXT
MDEFK3T24057201903                D89848582800PT4F20190327000002RADIO;AM/FM CD D              M IMCTM S7TS01 TNTH  09020IMCT  S7 PTB  00003                    1600 SR        000000000000 DENSO TEN (THAILAND)190H61R0030   190H55R0022   F190306712    F190306715    000000                                                                              *R         20190322 IMCT                IMCT                                                                                                                    RMF1903226.TXT
MDEFK3270610201903                D89828070100PV4F20190326000032SPEAKER ASM                   M IMCTM S7FL05 TNTH  09020IMCT  S7 PTB  00004                    2230 SR        000000000000 DENSO TEN (THAILAND)190H76R0030   190H55R0020   D190306401    F190306601    000000                                                                              *R         20190322 IMCT                IMCT                                                                                                                    RMF1903226.TXT
MDEFK3270611201903                D89828070100PV4F20190327000024SPEAKER ASM                   M IMCTM S7FL05 TNTH  09020IMCT  S7 PTB  00004                    0830 SR        000000000000 DENSO TEN (THAILAND)190H55R0021   190H63R0019   F190306602    F190306613    000000                                                                              *R         20190322 IMCT                IMCT                                                                                                                    RMF1903226.TXT
MDEFK3270612201903                D89828070100PV4F20190327000004SPEAKER ASM                   M IMCTM S7FL05 TNTH  09020IMCT  S7 PTB  00004                    1030 SR        000000000000 DENSO TEN (THAILAND)190H63R0020   190H63R0021   F190306614    F190306615    000000                                                                              *R         20190322 IMCT                IMCT                                                                                                                    RMF1903226.TXT
MDEFK3270613201903                D89828070300PT4F20190326000015SPEAKER ASM                   M IMCTM S7TS02 TNTH  09020IMCT  S7 PTB  00015                    2230 SR        000000000000 DENSO TEN (THAILAND)190H95R0025   190H56R0031   D190306403    F190306606    000000                                                                              *R         20190322 IMCT                IMCT                                                                                                                    RMF1903226.TXT
MDEFK3270614201903                D89828070300PT4F20190327000015SPEAKER ASM                   M IMCTM S7TS02 TNTH  09020IMCT  S7 PTB  00015                    0830 SR        000000000000 DENSO TEN (THAILAND)190H56R0031   190H63R0019   F190306606    F190306613    000000                                                                              *R         20190322 IMCT                IMCT                                                                                                                    RMF1903226.TXT
MDEFK3270615201903                D89828070300PT4F20190327000015SPEAKER ASM                   M IMCTM S7TS02 TNTH  09020IMCT  S7 PTB  00015                    1030 SR        000000000000 DENSO TEN (THAILAND)190H63R0020   190H71R0032   F190306614    F190306706    000000                                                                              *R         20190322 IMCT                IMCT                                                                                                                    RMF1903226.TXT
MDEFK3270616201903                D89848582800PT4F20190327000006RADIO;AM/FM CD D              M IMCTM S7TS01 TNTH  09020IMCT  S7 PTB  00003                    0830 SR        000000000000 DENSO TEN (THAILAND)190H55R0020   190H61R0029   F190306601    F190306711    000000                                                                              *R         20190322 IMCT                IMCT                                                                                                                    RMF1903226.TXT
