REC2019030720190307ISUZU                              20     
MAKK93057754201903D1               89825451200P3YK20190322000030SPEAKER ASM;ROOF              M IMCTM CM1    TNTH  09020IMKDC KA PTB  00036  K0                0911DES        000000000000 DENSO TEN (THAILAND)                                                                                                                                            *G         20190307 IMCT                IMCT                                                                                                                    WMF1903077.TXT
MAKK93057755201903D1               89828070100P3YK20190318000270SPEAKER ASM                   M IMCTM CM1    TNTH  09020IMKDC KA PTB  00004  K0                0911DES        000000000000 DENSO TEN (THAILAND)                                                                                                                                            *G         20190307 IMCT                IMCT                                                                                                                    WMF1903077.TXT
MAKK93057756201903D1               89828070100P3YK20190319000150SPEAKER ASM                   M IMCTM CM1    TNTH  09020IMKDC KA PTB  00004  K0                0911DES        000000000000 DENSO TEN (THAILAND)                                                                                                                                            *G         20190307 IMCT                IMCT                                                                                                                    WMF1903077.TXT
MAKK93057757201903D1               89828070100P3YK20190320000180SPEAKER ASM                   M IMCTM CM1    TNTH  09020IMKDC KA PTB  00004  K0                0911DES        000000000000 DENSO TEN (THAILAND)                                                                                                                                            *G         20190307 IMCT                IMCT                                                                                                                    WMF1903077.TXT
MAKK93057758201903D1               89828070100P3YK20190321000210SPEAKER ASM                   M IMCTM CM1    TNTH  09020IMKDC KA PTB  00004  K0                0911DES        000000000000 DENSO TEN (THAILAND)                                                                                                                                            *G         20190307 IMCT                IMCT                                                                                                                    WMF1903077.TXT
MAKK93057759201903D1               89828070100P3YK20190322000210SPEAKER ASM                   M IMCTM CM1    TNTH  09020IMKDC KA PTB  00004  K0                0911DES        000000000000 DENSO TEN (THAILAND)                                                                                                                                            *G         20190307 IMCT                IMCT                                                                                                                    WMF1903077.TXT
MAKK93057760201903D1               89828070100P3YK20190323000210SPEAKER ASM                   M IMCTM CM1    TNTH  09020IMKDC KA PTB  00004  K0                0911DES        000000000000 DENSO TEN (THAILAND)                                                                                                                                            *G         20190307 IMCT                IMCT                                                                                                                    WMF1903077.TXT
MAKK93057761201903D1               89828070200P3YK20190318000120SPEAKER ASM                   M IMCTM CM1    TNTH  09020IMKDC KA PTB  00005  K0                0911DES        000000000000 DENSO TEN (THAILAND)                                                                                                                                            *G         20190307 IMCT                IMCT                                                                                                                    WMF1903077.TXT
MAKK93057762201903D1               89828070200P3YK20190319000060SPEAKER ASM                   M IMCTM CM1    TNTH  09020IMKDC KA PTB  00005  K0                0911DES        000000000000 DENSO TEN (THAILAND)                                                                                                                                            *G         20190307 IMCT                IMCT                                                                                                                    WMF1903077.TXT
MAKK93057763201903D1               89828070200P3YK20190320000060SPEAKER ASM                   M IMCTM CM1    TNTH  09020IMKDC KA PTB  00005  K0                0911DES        000000000000 DENSO TEN (THAILAND)                                                                                                                                            *G         20190307 IMCT                IMCT                                                                                                                    WMF1903077.TXT
MAKK93057764201903D1               89828070200P3YK20190321000060SPEAKER ASM                   M IMCTM CM1    TNTH  09020IMKDC KA PTB  00005  K0                0911DES        000000000000 DENSO TEN (THAILAND)                                                                                                                                            *G         20190307 IMCT                IMCT                                                                                                                    WMF1903077.TXT
MAKK93057765201903D1               89828070200P3YK20190322000090SPEAKER ASM                   M IMCTM CM1    TNTH  09020IMKDC KA PTB  00005  K0                0911DES        000000000000 DENSO TEN (THAILAND)                                                                                                                                            *G         20190307 IMCT                IMCT                                                                                                                    WMF1903077.TXT
MAKK93057766201903D1               89828070200P3YK20190323000060SPEAKER ASM                   M IMCTM CM1    TNTH  09020IMKDC KA PTB  00005  K0                0911DES        000000000000 DENSO TEN (THAILAND)                                                                                                                                            *G         20190307 IMCT                IMCT                                                                                                                    WMF1903077.TXT
MAKK93057767201903D1               89828070300P3YK20190318000120SPEAKER ASM                   M IMCTM CM1    TNTH  09020IMKDC KA PTB  00015  K0                0911DES        000000000000 DENSO TEN (THAILAND)                                                                                                                                            *G         20190307 IMCT                IMCT                                                                                                                    WMF1903077.TXT
MAKK93057768201903D1               89828070300P3YK20190319000090SPEAKER ASM                   M IMCTM CM1    TNTH  09020IMKDC KA PTB  00015  K0                0911DES        000000000000 DENSO TEN (THAILAND)                                                                                                                                            *G         20190307 IMCT                IMCT                                                                                                                    WMF1903077.TXT
MAKK93057769201903D1               89828070300P3YK20190320000060SPEAKER ASM                   M IMCTM CM1    TNTH  09020IMKDC KA PTB  00015  K0                0911DES        000000000000 DENSO TEN (THAILAND)                                                                                                                                            *G         20190307 IMCT                IMCT                                                                                                                    WMF1903077.TXT
MAKK93057770201903D1               89828070300P3YK20190321000060SPEAKER ASM                   M IMCTM CM1    TNTH  09020IMKDC KA PTB  00015  K0                0911DES        000000000000 DENSO TEN (THAILAND)                                                                                                                                            *G         20190307 IMCT                IMCT                                                                                                                    WMF1903077.TXT
MAKK93057771201903D1               89828070300P3YK20190322000120SPEAKER ASM                   M IMCTM CM1    TNTH  09020IMKDC KA PTB  00015  K0                0911DES        000000000000 DENSO TEN (THAILAND)                                                                                                                                            *G         20190307 IMCT                IMCT                                                                                                                    WMF1903077.TXT
MAKK93057772201903D1               89828070300P3YK20190323000060SPEAKER ASM                   M IMCTM CM1    TNTH  09020IMKDC KA PTB  00015  K0                0911DES        000000000000 DENSO TEN (THAILAND)                                                                                                                                            *G         20190307 IMCT                IMCT                                                                                                                    WMF1903077.TXT
MAKK93057773201903D1               89834050100P3YK20190322000015RADIO;ASM DVD                 M IMCTM CM1    TNTH  09020IMKDC KA PTB  00003  K0                0911DES        000000000000 DENSO TEN (THAILAND)                                                                                                                                            *G         20190307 IMCT                IMCT                                                                                                                    WMF1903077.TXT
