REC2019032220190322ISUZU                              67     
MDDDK3296232201903                D89821984430PT1D20190326000030RADIO;AM/FM,CD                M IMCTM S5NC06 TNTH  09020IMCT  S5 PTB  00005                    2230 SR        000000000000 DENSO TEN (THAILAND)190MNGL0102102                                                                                                                              *          20190322 IMCT                IMCT                                                                                                                    WMF1903226.TXT
MDDDK3296233201903                D89821984430PT1D20190327000030RADIO;AM/FM,CD                M IMCTM S5NC06 TNTH  09020IMCT  S5 PTB  00005                    1300 SR        000000000000 DENSO TEN (THAILAND)190MXEL0044044                                                                                                                              *          20190322 IMCT                IMCT                                                                                                                    WMF1903226.TXT
MDDDK3296234201903                D89821984430PT1D20190327000030RADIO;AM/FM,CD                M IMCTM S5NC06 TNTH  09020IMCT  S5 PTB  00005                    2230 SR        000000000000 DENSO TEN (THAILAND)190MYBL0027027                                                                                                                              *          20190322 IMCT                IMCT                                                                                                                    WMF1903226.TXT
MDDDK3296235201903                D89828070100PV1D20190326000060SPEAKER ASM                   M IMCTM S5MB11 TNTH  09020IMCT  S5 PTB  00004                    2230 SR        000000000000 DENSO TEN (THAILAND)190MNGL0102102                                                                                                                              *          20190322 IMCT                IMCT                                                                                                                    WMF1903226.TXT
MDDDK3296236201903                D89828070100PV1D20190327000120SPEAKER ASM                   M IMCTM S5MB11 TNTH  09020IMCT  S5 PTB  00004                    0400 SR        000000000000 DENSO TEN (THAILAND)190MPJL0025025190MPLL0016016                                                                                                                *          20190322 IMCT                IMCT                                                                                                                    WMF1903226.TXT
MDDDK3296237201903                D89828070100PV1D20190327000060SPEAKER ASM                   M IMCTM S5MB11 TNTH  09020IMCT  S5 PTB  00004                    1030 SR        000000000000 DENSO TEN (THAILAND)190MREL0002002                                                                                                                              *          20190322 IMCT                IMCT                                                                                                                    WMF1903226.TXT
MDDDK3296238201903                D89828070100PV1D20190327000060SPEAKER ASM                   M IMCTM S5MB11 TNTH  09020IMCT  S5 PTB  00004                    1300 SR        000000000000 DENSO TEN (THAILAND)190MXEL0044044                                                                                                                              *          20190322 IMCT                IMCT                                                                                                                    WMF1903226.TXT
MDDDK3296239201903                D89828070100PV1D20190327000060SPEAKER ASM                   M IMCTM S5MB11 TNTH  09020IMCT  S5 PTB  00004                    1600 SR        000000000000 DENSO TEN (THAILAND)190MPML0006006                                                                                                                              *          20190322 IMCT                IMCT                                                                                                                    WMF1903226.TXT
MDDDK3296240201903                D89828070100PV1D20190327000060SPEAKER ASM                   M IMCTM S5MB11 TNTH  09020IMCT  S5 PTB  00004                    2230 SR        000000000000 DENSO TEN (THAILAND)190MYBL0027027                                                                                                                              *          20190322 IMCT                IMCT                                                                                                                    WMF1903226.TXT
MDDDK3296241201903                D89828070100PV4D20190327000060SPEAKER ASM                   M IMCTM S0FL05 TNTH  09020IMCT  S0 PTB  00004                    0400 SR        000000000000 DENSO TEN (THAILAND)190MRTU0056056                                                                                                                              *          20190322 IMCT                IMCT                                                                                                                    WMF1903226.TXT
MDDDK3296242201903                D89828070100PV4D20190327000060SPEAKER ASM                   M IMCTM S0FL05 TNTH  09020IMCT  S0 PTB  00004                    2230 SR        000000000000 DENSO TEN (THAILAND)190MRWU0039039                                                                                                                              *          20190322 IMCT                IMCT                                                                                                                    WMF1903226.TXT
MDDDK3296243201903                D89828070200PV1D20190327000060SPEAKER ASM                   M IMCTM S5MA14 TNTH  09020IMCT  S5 PTB  00005                    1030 SR        000000000000 DENSO TEN (THAILAND)190MREL0002002                                                                                                                              *          20190322 IMCT                IMCT                                                                                                                    WMF1903226.TXT
MDDDK3296244201903                D89828070200PV4D20190327000060SPEAKER ASM                   M IMCTM S0FR05 TNTH  09020IMCT  S0 PTB  00005                    0400 SR        000000000000 DENSO TEN (THAILAND)190MRTU0056056                                                                                                                              *          20190322 IMCT                IMCT                                                                                                                    WMF1903226.TXT
MDDDK3296245201903                D89828070200PV4D20190327000060SPEAKER ASM                   M IMCTM S0FR05 TNTH  09020IMCT  S0 PTB  00005                    2230 SR        000000000000 DENSO TEN (THAILAND)190MRWU0039039                                                                                                                              *          20190322 IMCT                IMCT                                                                                                                    WMF1903226.TXT
MDDDK3296246201903                D89828070300PT1D20190327000120SPEAKER ASM                   M IMCTM S5NB082TNTH  09020IMCT  S5 PTB  00015                    0400 SR        000000000000 DENSO TEN (THAILAND)190MPJL0025025190MPLL0016016                                                                                                                *          20190322 IMCT                IMCT                                                                                                                    WMF1903226.TXT
MDDDK3296247201903                D89828070300PT1D20190327000060SPEAKER ASM                   M IMCTM S5NB082TNTH  09020IMCT  S5 PTB  00015                    1030 SR        000000000000 DENSO TEN (THAILAND)190MREL0002002                                                                                                                              *          20190322 IMCT                IMCT                                                                                                                    WMF1903226.TXT
MDDDK3296248201903                D89828070300PT1D20190327000060SPEAKER ASM                   M IMCTM S5NB082TNTH  09020IMCT  S5 PTB  00015                    1600 SR        000000000000 DENSO TEN (THAILAND)190MPML0006006                                                                                                                              *          20190322 IMCT                IMCT                                                                                                                    WMF1903226.TXT
MDDDK3296249201903                D89828070300PT4D20190327000060SPEAKER ASM                   M IMCTM S9TS02 TNTH  09020IMCT  S9 PTB  00015                    0400 SR        000000000000 DENSO TEN (THAILAND)190MRTU0056056                                                                                                                              *          20190322 IMCT                IMCT                                                                                                                    WMF1903226.TXT
MDDDK3296250201903                D89828070300PT4D20190327000060SPEAKER ASM                   M IMCTM S9TS02 TNTH  09020IMCT  S9 PTB  00015                    2230 SR        000000000000 DENSO TEN (THAILAND)190MRWU0039039                                                                                                                              *          20190322 IMCT                IMCT                                                                                                                    WMF1903226.TXT
MDDDK3296251201903                D89831228300PT1D20190327000030RADIO;AM/FM,CD                M IMCTM S5NC06 TNTH  09020IMCT  S5 CPB  00003                    0400 SR        000000000000 DENSO TEN (THAILAND)190MPJL0025025                                                                                                                              *          20190322 IMCT                IMCT                                                                                                                    WMF1903226.TXT
MDDDK3296252201903                D89831228400PT1D20190327000030RADIO;AM/FM,CD                M IMCTM S5NC06 TNTH  09020IMCT  S5 CPB  00003                    1030 SR        000000000000 DENSO TEN (THAILAND)190MREL0002002                                                                                                                              *          20190322 IMCT                IMCT                                                                                                                    WMF1903226.TXT
MDDDK3296253201903                D89848581500PT4D20190327000030RADIO;AM/FM CD D              M IMCTM S9CO001TNTH  09020IMCT  S9 PTB  00003                    0400 SR        000000000000 DENSO TEN (THAILAND)190MRTU0056056                                                                                                                              *          20190322 IMCT                IMCT                                                                                                                    WMF1903226.TXT
MDDDK3296254201903                D89848581600PT1D20190327000030RADIO;AM/FM CD D              M IMCTM S5NC06 TNTH  09020IMCT  S5 PTB  00003                    0400 SR        000000000000 DENSO TEN (THAILAND)190MPLL0016016                                                                                                                              *          20190322 IMCT                IMCT                                                                                                                    WMF1903226.TXT
MDDUK3257439201903                D89828070100PT4U20190327000030SPEAKER ASM                   M IMCTM S0FL05 TNTH  09020IMCT  S0 PTB  00004                    0400 SR        000000000000 DENSO TEN (THAILAND)190MUDU0012012                                                                                                                              *          20190322 IMCT                IMCT                                                                                                                    WMF1903226.TXT
MDDUK3257440201903                D89828070100PT4U20190327000030SPEAKER ASM                   M IMCTM S0FL05 TNTH  09020IMCT  S0 PTB  00004                    1030 SR        000000000000 DENSO TEN (THAILAND)190MUGU0046046                                                                                                                              *          20190322 IMCT                IMCT                                                                                                                    WMF1903226.TXT
MDDUK3257441201903                D89828070100PT4U20190327000030SPEAKER ASM                   M IMCTM S0FL05 TNTH  09020IMCT  S0 PTB  00004                    1300 SR        000000000000 DENSO TEN (THAILAND)190MUEU0084084                                                                                                                              *          20190322 IMCT                IMCT                                                                                                                    WMF1903226.TXT
MDDUK3257442201903                D89828070100PT4U20190327000030SPEAKER ASM                   M IMCTM S0FL05 TNTH  09020IMCT  S0 PTB  00004                    1600 SR        000000000000 DENSO TEN (THAILAND)190MUGU0047047                                                                                                                              *          20190322 IMCT                IMCT                                                                                                                    WMF1903226.TXT
MDDUK3257443201903                D89828070200PV4U20190327000030SPEAKER ASM                   M IMCTM S0FR05 TNTH  09020IMCT  S0 PTB  00005                    0400 SR        000000000000 DENSO TEN (THAILAND)190MUDU0012012                                                                                                                              *          20190322 IMCT                IMCT                                                                                                                    WMF1903226.TXT
MDDUK3257444201903                D89828070200PV4U20190327000030SPEAKER ASM                   M IMCTM S0FR05 TNTH  09020IMCT  S0 PTB  00005                    1030 SR        000000000000 DENSO TEN (THAILAND)190MUGU0046046                                                                                                                              *          20190322 IMCT                IMCT                                                                                                                    WMF1903226.TXT
MDDUK3257445201903                D89828070200PV4U20190327000030SPEAKER ASM                   M IMCTM S0FR05 TNTH  09020IMCT  S0 PTB  00005                    1300 SR        000000000000 DENSO TEN (THAILAND)190MUEU0084084                                                                                                                              *          20190322 IMCT                IMCT                                                                                                                    WMF1903226.TXT
MDDUK3257446201903                D89828070200PV4U20190327000030SPEAKER ASM                   M IMCTM S0FR05 TNTH  09020IMCT  S0 PTB  00005                    1600 SR        000000000000 DENSO TEN (THAILAND)190MUGU0047047                                                                                                                              *          20190322 IMCT                IMCT                                                                                                                    WMF1903226.TXT
MDDUK3257447201903                D89828070300PT4U20190327000030SPEAKER ASM                   M IMCTM S9TS02 TNTH  09020IMCT  S9 PTB  00015                    0400 SR        000000000000 DENSO TEN (THAILAND)190MUDU0012012                                                                                                                              *          20190322 IMCT                IMCT                                                                                                                    WMF1903226.TXT
MDDUK3257448201903                D89828070300PT4U20190327000030SPEAKER ASM                   M IMCTM S9TS02 TNTH  09020IMCT  S9 PTB  00015                    1030 SR        000000000000 DENSO TEN (THAILAND)190MUGU0046046                                                                                                                              *          20190322 IMCT                IMCT                                                                                                                    WMF1903226.TXT
MDDUK3257449201903                D89828070300PT4U20190327000030SPEAKER ASM                   M IMCTM S9TS02 TNTH  09020IMCT  S9 PTB  00015                    1300 SR        000000000000 DENSO TEN (THAILAND)190MUEU0084084                                                                                                                              *          20190322 IMCT                IMCT                                                                                                                    WMF1903226.TXT
MDDUK3257450201903                D89828070300PT4U20190327000030SPEAKER ASM                   M IMCTM S9TS02 TNTH  09020IMCT  S9 PTB  00015                    1600 SR        000000000000 DENSO TEN (THAILAND)190MUGU0047047                                                                                                                              *          20190322 IMCT                IMCT                                                                                                                    WMF1903226.TXT
MDEDK3367567201903                D89828070100PV1D20190327000030SPEAKER ASM                   M IMCTM S5MB11 TNTH  09020IMCT  S5 PTB  00004                    0230 SR        000000000000 DENSO TEN (THAILAND)190J15L0008008                                                                                                                              *          20190322 IMCT                IMCT                                                                                                                    WMF1903226.TXT
MDEDK3367568201903                D89828070100PV1D20190327000090SPEAKER ASM                   M IMCTM S5MB11 TNTH  09020IMCT  S5 PTB  00004                    0400 SR        000000000000 DENSO TEN (THAILAND)17041PL0121122190G16L0009009                                                                                                                *          20190322 IMCT                IMCT                                                                                                                    WMF1903226.TXT
MDEDK3367569201903                D89828070100PV1D20190327000030SPEAKER ASM                   M IMCTM S5MB11 TNTH  09020IMCT  S5 PTB  00004                    0830 SR        000000000000 DENSO TEN (THAILAND)190H49L0016016                                                                                                                              *          20190322 IMCT                IMCT                                                                                                                    WMF1903226.TXT
MDEDK3367570201903                D89828070100PV1D20190327000030SPEAKER ASM                   M IMCTM S5MB11 TNTH  09020IMCT  S5 PTB  00004                    1030 SR        000000000000 DENSO TEN (THAILAND)190H49L0017017                                                                                                                              *          20190322 IMCT                IMCT                                                                                                                    WMF1903226.TXT
MDEDK3367571201903                D89828070100PV1D20190327000060SPEAKER ASM                   M IMCTM S5MB11 TNTH  09020IMCT  S5 PTB  00004                    1300 SR        000000000000 DENSO TEN (THAILAND)190H04L0016017                                                                                                                              *          20190322 IMCT                IMCT                                                                                                                    WMF1903226.TXT
MDEDK3367572201903                D89828070100PV1D20190327000150SPEAKER ASM                   M IMCTM S5MB11 TNTH  09020IMCT  S5 PTB  00004                    1600 SR        000000000000 DENSO TEN (THAILAND)190H76L0018019190J07L0008009190J94L0083083                                                                                                  *          20190322 IMCT                IMCT                                                                                                                    WMF1903226.TXT
MDEDK3367573201903                D89828070100PV1D20190327000060SPEAKER ASM                   M IMCTM S5MB11 TNTH  09020IMCT  S5 PTB  00004                    2100 SR        000000000000 DENSO TEN (THAILAND)190H95L0001001190J85L0014014                                                                                                                *          20190322 IMCT                IMCT                                                                                                                    WMF1903226.TXT
MDEDK3367574201903                D89828070100PV1D20190327000030SPEAKER ASM                   M IMCTM S5MB11 TNTH  09020IMCT  S5 PTB  00004                    2230 SR        000000000000 DENSO TEN (THAILAND)190K69L0002002                                                                                                                              *          20190322 IMCT                IMCT                                                                                                                    WMF1903226.TXT
MDEDK3367575201903                D89828070100PV4D20190327000030SPEAKER ASM                   M IMCTM S0FL05 TNTH  09020IMCT  S0 PTB  00004                    0830 SR        000000000000 DENSO TEN (THAILAND)190J07U0014014                                                                                                                              *          20190322 IMCT                IMCT                                                                                                                    WMF1903226.TXT
MDEDK3367576201903                D89828070100PV4D20190327000030SPEAKER ASM                   M IMCTM S0FL05 TNTH  09020IMCT  S0 PTB  00004                    1030 SR        000000000000 DENSO TEN (THAILAND)190H84U0007007                                                                                                                              *          20190322 IMCT                IMCT                                                                                                                    WMF1903226.TXT
MDEDK3367577201903                D89828070100PV4D20190327000030SPEAKER ASM                   M IMCTM S0FL05 TNTH  09020IMCT  S0 PTB  00004                    1600 SR        000000000000 DENSO TEN (THAILAND)190K21U0038038                                                                                                                              *          20190322 IMCT                IMCT                                                                                                                    WMF1903226.TXT
MDEDK3367578201903                D89828070200PV1D20190327000030SPEAKER ASM                   M IMCTM S5MA14 TNTH  09020IMCT  S5 PTB  00005                    0230 SR        000000000000 DENSO TEN (THAILAND)190J15L0008008                                                                                                                              *          20190322 IMCT                IMCT                                                                                                                    WMF1903226.TXT
MDEDK3367579201903                D89828070200PV1D20190327000030SPEAKER ASM                   M IMCTM S5MA14 TNTH  09020IMCT  S5 PTB  00005                    0400 SR        000000000000 DENSO TEN (THAILAND)190G16L0009009                                                                                                                              *          20190322 IMCT                IMCT                                                                                                                    WMF1903226.TXT
MDEDK3367580201903                D89828070200PV1D20190327000060SPEAKER ASM                   M IMCTM S5MA14 TNTH  09020IMCT  S5 PTB  00005                    1600 SR        000000000000 DENSO TEN (THAILAND)190J07L0008009                                                                                                                              *          20190322 IMCT                IMCT                                                                                                                    WMF1903226.TXT
MDEDK3367581201903                D89828070200PV1D20190327000030SPEAKER ASM                   M IMCTM S5MA14 TNTH  09020IMCT  S5 PTB  00005                    2100 SR        000000000000 DENSO TEN (THAILAND)190H95L0001001                                                                                                                              *          20190322 IMCT                IMCT                                                                                                                    WMF1903226.TXT
MDEDK3367582201903                D89828070200PV4D20190327000030SPEAKER ASM                   M IMCTM S0FR05 TNTH  09020IMCT  S0 PTB  00005                    0830 SR        000000000000 DENSO TEN (THAILAND)190J07U0014014                                                                                                                              *          20190322 IMCT                IMCT                                                                                                                    WMF1903226.TXT
MDEDK3367583201903                D89828070200PV4D20190327000030SPEAKER ASM                   M IMCTM S0FR05 TNTH  09020IMCT  S0 PTB  00005                    1030 SR        000000000000 DENSO TEN (THAILAND)190H84U0007007                                                                                                                              *          20190322 IMCT                IMCT                                                                                                                    WMF1903226.TXT
MDEDK3367584201903                D89828070200PV4D20190327000030SPEAKER ASM                   M IMCTM S0FR05 TNTH  09020IMCT  S0 PTB  00005                    1600 SR        000000000000 DENSO TEN (THAILAND)190K21U0038038                                                                                                                              *          20190322 IMCT                IMCT                                                                                                                    WMF1903226.TXT
MDEDK3367585201903                D89828070300PT1D20190327000030SPEAKER ASM                   M IMCTM S5NB082TNTH  09020IMCT  S5 PTB  00015                    0230 SR        000000000000 DENSO TEN (THAILAND)190J15L0008008                                                                                                                              *          20190322 IMCT                IMCT                                                                                                                    WMF1903226.TXT
MDEDK3367586201903                D89828070300PT1D20190327000030SPEAKER ASM                   M IMCTM S5NB082TNTH  09020IMCT  S5 PTB  00015                    0400 SR        000000000000 DENSO TEN (THAILAND)190G16L0009009                                                                                                                              *          20190322 IMCT                IMCT                                                                                                                    WMF1903226.TXT
MDEDK3367587201903                D89828070300PT1D20190327000060SPEAKER ASM                   M IMCTM S5NB082TNTH  09020IMCT  S5 PTB  00015                    1600 SR        000000000000 DENSO TEN (THAILAND)190J07L0008009                                                                                                                              *          20190322 IMCT                IMCT                                                                                                                    WMF1903226.TXT
MDEDK3367588201903                D89828070300PT1D20190327000030SPEAKER ASM                   M IMCTM S5NB082TNTH  09020IMCT  S5 PTB  00015                    2100 SR        000000000000 DENSO TEN (THAILAND)190H95L0001001                                                                                                                              *          20190322 IMCT                IMCT                                                                                                                    WMF1903226.TXT
MDEDK3367589201903                D89828070300PT4D20190327000030SPEAKER ASM                   M IMCTM S9TS02 TNTH  09020IMCT  S9 PTB  00015                    0830 SR        000000000000 DENSO TEN (THAILAND)190J07U0014014                                                                                                                              *          20190322 IMCT                IMCT                                                                                                                    WMF1903226.TXT
MDEDK3367590201903                D89828070300PT4D20190327000030SPEAKER ASM                   M IMCTM S9TS02 TNTH  09020IMCT  S9 PTB  00015                    1030 SR        000000000000 DENSO TEN (THAILAND)190H84U0007007                                                                                                                              *          20190322 IMCT                IMCT                                                                                                                    WMF1903226.TXT
MDEDK3367591201903                D89828070300PT4D20190327000030SPEAKER ASM                   M IMCTM S9TS02 TNTH  09020IMCT  S9 PTB  00015                    1600 SR        000000000000 DENSO TEN (THAILAND)190K21U0038038                                                                                                                              *          20190322 IMCT                IMCT                                                                                                                    WMF1903226.TXT
MDEDK3367592201903                D89838031200PT4D20190327000015RADIO;ASM DVD                 M IMCTM S9CO001TNTH  09020IMCT  S9 PTB  00003                    1600 SR        000000000000 DENSO TEN (THAILAND)190K21U0038038                                                                                                                              *          20190322 IMCT                IMCT                                                                                                                    WMF1903226.TXT
MDEUK3247192201903                D89828070100PT4U20190327000030SPEAKER ASM                   M IMCTM S0FL05 TNTH  09020IMCT  S0 PTB  00004                    1600 SR        000000000000 DENSO TEN (THAILAND)190G31U0021021                                                                                                                              *          20190322 IMCT                IMCT                                                                                                                    WMF1903226.TXT
MDEUK3247193201903                D89828070100PT4U20190327000030SPEAKER ASM                   M IMCTM S0FL05 TNTH  09020IMCT  S0 PTB  00004                    2100 SR        000000000000 DENSO TEN (THAILAND)190G32U0045045                                                                                                                              *          20190322 IMCT                IMCT                                                                                                                    WMF1903226.TXT
MDEUK3247194201903                D89828070200PV4U20190327000030SPEAKER ASM                   M IMCTM S0FR05 TNTH  09020IMCT  S0 PTB  00005                    1600 SR        000000000000 DENSO TEN (THAILAND)190G31U0021021                                                                                                                              *          20190322 IMCT                IMCT                                                                                                                    WMF1903226.TXT
MDEUK3247195201903                D89828070200PV4U20190327000030SPEAKER ASM                   M IMCTM S0FR05 TNTH  09020IMCT  S0 PTB  00005                    2100 SR        000000000000 DENSO TEN (THAILAND)190G32U0045045                                                                                                                              *          20190322 IMCT                IMCT                                                                                                                    WMF1903226.TXT
MDEUK3247196201903                D89828070300PT4U20190327000030SPEAKER ASM                   M IMCTM S9TS02 TNTH  09020IMCT  S9 PTB  00015                    1600 SR        000000000000 DENSO TEN (THAILAND)190G31U0021021                                                                                                                              *          20190322 IMCT                IMCT                                                                                                                    WMF1903226.TXT
MDEUK3247197201903                D89828070300PT4U20190327000030SPEAKER ASM                   M IMCTM S9TS02 TNTH  09020IMCT  S9 PTB  00015                    2100 SR        000000000000 DENSO TEN (THAILAND)190G32U0045045                                                                                                                              *          20190322 IMCT                IMCT                                                                                                                    WMF1903226.TXT
