REC2019031320190313ISUZU                              75     
MDDDK3254583201903                D89821984430PT1D20190318000030RADIO;AM/FM,CD                M IMCTM S5NC06 TNTH  09020IMCT  S5 PTB  00005                    0830 SR        000000000000 DENSO TEN (THAILAND)190MXCL0039039                                                                                                                              *          20190313 IMCT                IMCT                                                                                                                    WMF1903134.TXT
MDDDK3254584201903                D89821984430PT1D20190318000030RADIO;AM/FM,CD                M IMCTM S5NC06 TNTH  09020IMCT  S5 PTB  00005                    1600 SR        000000000000 DENSO TEN (THAILAND)190MNHL0032032                                                                                                                              *          20190313 IMCT                IMCT                                                                                                                    WMF1903134.TXT
MDDDK3254585201903                D89828070100PV1D20190316000060SPEAKER ASM                   M IMCTM S5MB11 TNTH  09020IMCT  S5 PTB  00004                    2230 SR        000000000000 DENSO TEN (THAILAND)190MPGL0138138                                                                                                                              *          20190313 IMCT                IMCT                                                                                                                    WMF1903134.TXT
MDDDK3254586201903                D89828070100PV1D20190317000060SPEAKER ASM                   M IMCTM S5MB11 TNTH  09020IMCT  S5 PTB  00004                    0400 SR        000000000000 DENSO TEN (THAILAND)190MPGL0139139                                                                                                                              *          20190313 IMCT                IMCT                                                                                                                    WMF1903134.TXT
MDDDK3254587201903                D89828070100PV1D20190318000060SPEAKER ASM                   M IMCTM S5MB11 TNTH  09020IMCT  S5 PTB  00004                    0830 SR        000000000000 DENSO TEN (THAILAND)190MXCL0039039                                                                                                                              *          20190313 IMCT                IMCT                                                                                                                    WMF1903134.TXT
MDDDK3254588201903                D89828070100PV1D20190318000060SPEAKER ASM                   M IMCTM S5MB11 TNTH  09020IMCT  S5 PTB  00004                    1300 SR        000000000000 DENSO TEN (THAILAND)190MRHL0001001                                                                                                                              *          20190313 IMCT                IMCT                                                                                                                    WMF1903134.TXT
MDDDK3254589201903                D89828070100PV1D20190318000060SPEAKER ASM                   M IMCTM S5MB11 TNTH  09020IMCT  S5 PTB  00004                    1600 SR        000000000000 DENSO TEN (THAILAND)190MNHL0032032                                                                                                                              *          20190313 IMCT                IMCT                                                                                                                    WMF1903134.TXT
MDDDK3254590201903                D89828070100PV4D20190318000060SPEAKER ASM                   M IMCTM S0FL05 TNTH  09020IMCT  S0 PTB  00004                    1600 SR        000000000000 DENSO TEN (THAILAND)190MRVU0037037                                                                                                                              *          20190313 IMCT                IMCT                                                                                                                    WMF1903134.TXT
MDDDK3254591201903                D89828070200PV1D20190318000060SPEAKER ASM                   M IMCTM S5MA14 TNTH  09020IMCT  S5 PTB  00005                    1300 SR        000000000000 DENSO TEN (THAILAND)190MRHL0001001                                                                                                                              *          20190313 IMCT                IMCT                                                                                                                    WMF1903134.TXT
MDDDK3254592201903                D89828070200PV4D20190318000060SPEAKER ASM                   M IMCTM S0FR05 TNTH  09020IMCT  S0 PTB  00005                    1600 SR        000000000000 DENSO TEN (THAILAND)190MRVU0037037                                                                                                                              *          20190313 IMCT                IMCT                                                                                                                    WMF1903134.TXT
MDDDK3254593201903                D89828070300PT1D20190316000060SPEAKER ASM                   M IMCTM S5NB082TNTH  09020IMCT  S5 PTB  00015                    2230 SR        000000000000 DENSO TEN (THAILAND)190MPGL0138138                                                                                                                              *          20190313 IMCT                IMCT                                                                                                                    WMF1903134.TXT
MDDDK3254594201903                D89828070300PT1D20190317000060SPEAKER ASM                   M IMCTM S5NB082TNTH  09020IMCT  S5 PTB  00015                    0400 SR        000000000000 DENSO TEN (THAILAND)190MPGL0139139                                                                                                                              *          20190313 IMCT                IMCT                                                                                                                    WMF1903134.TXT
MDDDK3254595201903                D89828070300PT1D20190318000060SPEAKER ASM                   M IMCTM S5NB082TNTH  09020IMCT  S5 PTB  00015                    1300 SR        000000000000 DENSO TEN (THAILAND)190MRHL0001001                                                                                                                              *          20190313 IMCT                IMCT                                                                                                                    WMF1903134.TXT
MDDDK3254596201903                D89828070300PT4D20190318000060SPEAKER ASM                   M IMCTM S9TS02 TNTH  09020IMCT  S9 PTB  00015                    1600 SR        000000000000 DENSO TEN (THAILAND)190MRVU0037037                                                                                                                              *          20190313 IMCT                IMCT                                                                                                                    WMF1903134.TXT
MDDDK3254597201903                D89831228300PT1D20190316000030RADIO;AM/FM,CD                M IMCTM S5NC06 TNTH  09020IMCT  S5 CPB  00003                    2230 SR        000000000000 DENSO TEN (THAILAND)190MPGL0138138                                                                                                                              *          20190313 IMCT                IMCT                                                                                                                    WMF1903134.TXT
MDDDK3254598201903                D89831228300PT1D20190317000030RADIO;AM/FM,CD                M IMCTM S5NC06 TNTH  09020IMCT  S5 CPB  00003                    0400 SR        000000000000 DENSO TEN (THAILAND)190MPGL0139139                                                                                                                              *          20190313 IMCT                IMCT                                                                                                                    WMF1903134.TXT
MDDDK3254599201903                D89848581500PT1D20190318000030RADIO;AM/FM CD D              M IMCTM S5NC06 TNTH  09020IMCT  S5 PTB  00003                    1300 SR        000000000000 DENSO TEN (THAILAND)190MRHL0001001                                                                                                                              *          20190313 IMCT                IMCT                                                                                                                    WMF1903134.TXT
MDDUK3233205201903                D89828070100PT4U20190317000030SPEAKER ASM                   M IMCTM S0FL05 TNTH  09020IMCT  S0 PTB  00004                    0230 SR        000000000000 DENSO TEN (THAILAND)190MUDU0010010                                                                                                                              *          20190313 IMCT                IMCT                                                                                                                    WMF1903134.TXT
MDDUK3233206201903                D89828070100PT4U20190317000030SPEAKER ASM                   M IMCTM S0FL05 TNTH  09020IMCT  S0 PTB  00004                    0400 SR        000000000000 DENSO TEN (THAILAND)190MUEU0069069                                                                                                                              *          20190313 IMCT                IMCT                                                                                                                    WMF1903134.TXT
MDDUK3233207201903                D89828070100PT4U20190318000030SPEAKER ASM                   M IMCTM S0FL05 TNTH  09020IMCT  S0 PTB  00004                    1300 SR        000000000000 DENSO TEN (THAILAND)190MUEU0070070                                                                                                                              *          20190313 IMCT                IMCT                                                                                                                    WMF1903134.TXT
MDDUK3233208201903                D89828070100PT4U20190318000030SPEAKER ASM                   M IMCTM S0FL05 TNTH  09020IMCT  S0 PTB  00004                    2230 SR        000000000000 DENSO TEN (THAILAND)190MUHU0007007                                                                                                                              *          20190313 IMCT                IMCT                                                                                                                    WMF1903134.TXT
MDDUK3233209201903                D89828070200PV4U20190317000030SPEAKER ASM                   M IMCTM S0FR05 TNTH  09020IMCT  S0 PTB  00005                    0230 SR        000000000000 DENSO TEN (THAILAND)190MUDU0010010                                                                                                                              *          20190313 IMCT                IMCT                                                                                                                    WMF1903134.TXT
MDDUK3233210201903                D89828070200PV4U20190317000030SPEAKER ASM                   M IMCTM S0FR05 TNTH  09020IMCT  S0 PTB  00005                    0400 SR        000000000000 DENSO TEN (THAILAND)190MUEU0069069                                                                                                                              *          20190313 IMCT                IMCT                                                                                                                    WMF1903134.TXT
MDDUK3233211201903                D89828070200PV4U20190318000030SPEAKER ASM                   M IMCTM S0FR05 TNTH  09020IMCT  S0 PTB  00005                    1300 SR        000000000000 DENSO TEN (THAILAND)190MUEU0070070                                                                                                                              *          20190313 IMCT                IMCT                                                                                                                    WMF1903134.TXT
MDDUK3233212201903                D89828070200PV4U20190318000030SPEAKER ASM                   M IMCTM S0FR05 TNTH  09020IMCT  S0 PTB  00005                    2230 SR        000000000000 DENSO TEN (THAILAND)190MUHU0007007                                                                                                                              *          20190313 IMCT                IMCT                                                                                                                    WMF1903134.TXT
MDDUK3233213201903                D89828070300PT4U20190317000030SPEAKER ASM                   M IMCTM S9TS02 TNTH  09020IMCT  S9 PTB  00015                    0230 SR        000000000000 DENSO TEN (THAILAND)190MUDU0010010                                                                                                                              *          20190313 IMCT                IMCT                                                                                                                    WMF1903134.TXT
MDDUK3233214201903                D89828070300PT4U20190317000030SPEAKER ASM                   M IMCTM S9TS02 TNTH  09020IMCT  S9 PTB  00015                    0400 SR        000000000000 DENSO TEN (THAILAND)190MUEU0069069                                                                                                                              *          20190313 IMCT                IMCT                                                                                                                    WMF1903134.TXT
MDDUK3233215201903                D89828070300PT4U20190318000030SPEAKER ASM                   M IMCTM S9TS02 TNTH  09020IMCT  S9 PTB  00015                    1300 SR        000000000000 DENSO TEN (THAILAND)190MUEU0070070                                                                                                                              *          20190313 IMCT                IMCT                                                                                                                    WMF1903134.TXT
MDDUK3233216201903                D89828070300PT4U20190318000030SPEAKER ASM                   M IMCTM S9TS02 TNTH  09020IMCT  S9 PTB  00015                    2230 SR        000000000000 DENSO TEN (THAILAND)190MUHU0007007                                                                                                                              *          20190313 IMCT                IMCT                                                                                                                    WMF1903134.TXT
MDEDK3293685201903                D89752845200PT1D20190318000015RADIO;AM FM,CD D              M IMCTM S5NC06 TNTH  09020IMCT  S5 PTB  00003                    1030 SR        000000000000 DENSO TEN (THAILAND)190G05L0012012                                                                                                                              *          20190313 IMCT                IMCT                                                                                                                    WMF1903134.TXT
MDEDK3293686201903                D89752845200PT1D20190318000015RADIO;AM FM,CD D              M IMCTM S5NC06 TNTH  09020IMCT  S5 PTB  00003                    1300 SR        000000000000 DENSO TEN (THAILAND)190G05L0013013                                                                                                                              *          20190313 IMCT                IMCT                                                                                                                    WMF1903134.TXT
MDEDK3293687201903                D89828070100PV1D20190316000030SPEAKER ASM                   M IMCTM S5MB11 TNTH  09020IMCT  S5 PTB  00004                    2230 SR        000000000000 DENSO TEN (THAILAND)190H29L0011011                                                                                                                              *          20190313 IMCT                IMCT                                                                                                                    WMF1903134.TXT
MDEDK3293688201903                D89828070100PV1D20190317000060SPEAKER ASM                   M IMCTM S5MB11 TNTH  09020IMCT  S5 PTB  00004                    0230 SR        000000000000 DENSO TEN (THAILAND)190J92L0018018190K81L0002002                                                                                                                *          20190313 IMCT                IMCT                                                                                                                    WMF1903134.TXT
MDEDK3293689201903                D89828070100PV1D20190317000090SPEAKER ASM                   M IMCTM S5MB11 TNTH  09020IMCT  S5 PTB  00004                    0400 SR        000000000000 DENSO TEN (THAILAND)190H17L0005006190J92L0019019                                                                                                                *          20190313 IMCT                IMCT                                                                                                                    WMF1903134.TXT
MDEDK3293690201903                D89828070100PV1D20190318000030SPEAKER ASM                   M IMCTM S5MB11 TNTH  09020IMCT  S5 PTB  00004                    1030 SR        000000000000 DENSO TEN (THAILAND)190G05L0012012                                                                                                                              *          20190313 IMCT                IMCT                                                                                                                    WMF1903134.TXT
MDEDK3293691201903                D89828070100PV1D20190318000060SPEAKER ASM                   M IMCTM S5MB11 TNTH  09020IMCT  S5 PTB  00004                    1300 SR        000000000000 DENSO TEN (THAILAND)17052RL0044044190G05L0013013                                                                                                                *          20190313 IMCT                IMCT                                                                                                                    WMF1903134.TXT
MDEDK3293692201903                D89828070100PV1D20190318000030SPEAKER ASM                   M IMCTM S5MB11 TNTH  09020IMCT  S5 PTB  00004                    1600 SR        000000000000 DENSO TEN (THAILAND)190J94L0077077                                                                                                                              *          20190313 IMCT                IMCT                                                                                                                    WMF1903134.TXT
MDEDK3293693201903                D89828070100PV1D20190318000060SPEAKER ASM                   M IMCTM S5MB11 TNTH  09020IMCT  S5 PTB  00004                    2100 SR        000000000000 DENSO TEN (THAILAND)190H17L0007007190J94L0078078                                                                                                                *          20190313 IMCT                IMCT                                                                                                                    WMF1903134.TXT
MDEDK3293694201903                D89828070100PV4D20190317000030SPEAKER ASM                   M IMCTM S0FL05 TNTH  09020IMCT  S0 PTB  00004                    0230 SR        000000000000 DENSO TEN (THAILAND)190J15U0008008                                                                                                                              *          20190313 IMCT                IMCT                                                                                                                    WMF1903134.TXT
MDEDK3293695201903                D89828070100PV4D20190317000030SPEAKER ASM                   M IMCTM S0FL05 TNTH  09020IMCT  S0 PTB  00004                    0400 SR        000000000000 DENSO TEN (THAILAND)190H22U0001001                                                                                                                              *          20190313 IMCT                IMCT                                                                                                                    WMF1903134.TXT
MDEDK3293696201903                D89828070100PV4D20190318000030SPEAKER ASM                   M IMCTM S0FL05 TNTH  09020IMCT  S0 PTB  00004                    0830 SR        000000000000 DENSO TEN (THAILAND)190K85U0002002                                                                                                                              *          20190313 IMCT                IMCT                                                                                                                    WMF1903134.TXT
MDEDK3293697201903                D89828070100PV4D20190318000030SPEAKER ASM                   M IMCTM S0FL05 TNTH  09020IMCT  S0 PTB  00004                    1300 SR        000000000000 DENSO TEN (THAILAND)190D85U0004004                                                                                                                              *          20190313 IMCT                IMCT                                                                                                                    WMF1903134.TXT
MDEDK3293698201903                D89828070200PV1D20190316000030SPEAKER ASM                   M IMCTM S5MA14 TNTH  09020IMCT  S5 PTB  00005                    2230 SR        000000000000 DENSO TEN (THAILAND)190H29L0011011                                                                                                                              *          20190313 IMCT                IMCT                                                                                                                    WMF1903134.TXT
MDEDK3293699201903                D89828070200PV1D20190317000060SPEAKER ASM                   M IMCTM S5MA14 TNTH  09020IMCT  S5 PTB  00005                    0400 SR        000000000000 DENSO TEN (THAILAND)190H17L0005006                                                                                                                              *          20190313 IMCT                IMCT                                                                                                                    WMF1903134.TXT
MDEDK3293700201903                D89828070200PV1D20190318000030SPEAKER ASM                   M IMCTM S5MA14 TNTH  09020IMCT  S5 PTB  00005                    2100 SR        000000000000 DENSO TEN (THAILAND)190H17L0007007                                                                                                                              *          20190313 IMCT                IMCT                                                                                                                    WMF1903134.TXT
MDEDK3293701201903                D89828070200PV4D20190317000030SPEAKER ASM                   M IMCTM S0FR05 TNTH  09020IMCT  S0 PTB  00005                    0230 SR        000000000000 DENSO TEN (THAILAND)190J15U0008008                                                                                                                              *          20190313 IMCT                IMCT                                                                                                                    WMF1903134.TXT
MDEDK3293702201903                D89828070200PV4D20190317000030SPEAKER ASM                   M IMCTM S0FR05 TNTH  09020IMCT  S0 PTB  00005                    0400 SR        000000000000 DENSO TEN (THAILAND)190H22U0001001                                                                                                                              *          20190313 IMCT                IMCT                                                                                                                    WMF1903134.TXT
MDEDK3293703201903                D89828070200PV4D20190318000030SPEAKER ASM                   M IMCTM S0FR05 TNTH  09020IMCT  S0 PTB  00005                    0830 SR        000000000000 DENSO TEN (THAILAND)190K85U0002002                                                                                                                              *          20190313 IMCT                IMCT                                                                                                                    WMF1903134.TXT
MDEDK3293704201903                D89828070200PV4D20190318000030SPEAKER ASM                   M IMCTM S0FR05 TNTH  09020IMCT  S0 PTB  00005                    1300 SR        000000000000 DENSO TEN (THAILAND)190D85U0004004                                                                                                                              *          20190313 IMCT                IMCT                                                                                                                    WMF1903134.TXT
MDEDK3293705201903                D89828070300PT1D20190316000030SPEAKER ASM                   M IMCTM S5NB082TNTH  09020IMCT  S5 PTB  00015                    2230 SR        000000000000 DENSO TEN (THAILAND)190H29L0011011                                                                                                                              *          20190313 IMCT                IMCT                                                                                                                    WMF1903134.TXT
MDEDK3293706201903                D89828070300PT1D20190317000030SPEAKER ASM                   M IMCTM S5NB082TNTH  09020IMCT  S5 PTB  00015                    0230 SR        000000000000 DENSO TEN (THAILAND)190J92L0018018                                                                                                                              *          20190313 IMCT                IMCT                                                                                                                    WMF1903134.TXT
MDEDK3293707201903                D89828070300PT1D20190317000090SPEAKER ASM                   M IMCTM S5NB082TNTH  09020IMCT  S5 PTB  00015                    0400 SR        000000000000 DENSO TEN (THAILAND)190H17L0005006190J92L0019019                                                                                                                *          20190313 IMCT                IMCT                                                                                                                    WMF1903134.TXT
MDEDK3293708201903                D89828070300PT1D20190318000030SPEAKER ASM                   M IMCTM S5NB082TNTH  09020IMCT  S5 PTB  00015                    1030 SR        000000000000 DENSO TEN (THAILAND)190G05L0012012                                                                                                                              *          20190313 IMCT                IMCT                                                                                                                    WMF1903134.TXT
MDEDK3293709201903                D89828070300PT1D20190318000030SPEAKER ASM                   M IMCTM S5NB082TNTH  09020IMCT  S5 PTB  00015                    1300 SR        000000000000 DENSO TEN (THAILAND)190G05L0013013                                                                                                                              *          20190313 IMCT                IMCT                                                                                                                    WMF1903134.TXT
MDEDK3293710201903                D89828070300PT1D20190318000030SPEAKER ASM                   M IMCTM S5NB082TNTH  09020IMCT  S5 PTB  00015                    2100 SR        000000000000 DENSO TEN (THAILAND)190H17L0007007                                                                                                                              *          20190313 IMCT                IMCT                                                                                                                    WMF1903134.TXT
MDEDK3293711201903                D89828070300PT4D20190317000030SPEAKER ASM                   M IMCTM S9TS02 TNTH  09020IMCT  S9 PTB  00015                    0230 SR        000000000000 DENSO TEN (THAILAND)190J15U0008008                                                                                                                              *          20190313 IMCT                IMCT                                                                                                                    WMF1903134.TXT
MDEDK3293712201903                D89828070300PT4D20190317000030SPEAKER ASM                   M IMCTM S9TS02 TNTH  09020IMCT  S9 PTB  00015                    0400 SR        000000000000 DENSO TEN (THAILAND)190H22U0001001                                                                                                                              *          20190313 IMCT                IMCT                                                                                                                    WMF1903134.TXT
MDEDK3293713201903                D89828070300PT4D20190318000030SPEAKER ASM                   M IMCTM S9TS02 TNTH  09020IMCT  S9 PTB  00015                    0830 SR        000000000000 DENSO TEN (THAILAND)190K85U0002002                                                                                                                              *          20190313 IMCT                IMCT                                                                                                                    WMF1903134.TXT
MDEDK3293714201903                D89828070300PT4D20190318000030SPEAKER ASM                   M IMCTM S9TS02 TNTH  09020IMCT  S9 PTB  00015                    1300 SR        000000000000 DENSO TEN (THAILAND)190D85U0004004                                                                                                                              *          20190313 IMCT                IMCT                                                                                                                    WMF1903134.TXT
MDEDK3293715201903                D89831228800PT4D20190317000015RADIO;AM/FM,CD                M IMCTM S9CO001TNTH  09020IMCT  S9 PTB  00003                    0400 SR        000000000000 DENSO TEN (THAILAND)190H22U0001001                                                                                                                              *          20190313 IMCT                IMCT                                                                                                                    WMF1903134.TXT
MDEDK3293716201903                D89831229010PT4D20190318000015RADIO;AM/FM,CD                M IMCTM S9CO001TNTH  09020IMCT  S9 PTB  00003                    0830 SR        000000000000 DENSO TEN (THAILAND)190K85U0002002                                                                                                                              *          20190313 IMCT                IMCT                                                                                                                    WMF1903134.TXT
MDEDK3293717201903                D89831229200PT1D20190317000015RADIO;AM/FM,CD                M IMCTM S5NC06 TNTH  09020IMCT  S5 PTB  00003                    0230 SR        000000000000 DENSO TEN (THAILAND)190J92L0018018                                                                                                                              *          20190313 IMCT                IMCT                                                                                                                    WMF1903134.TXT
MDEDK3293718201903                D89831229200PT1D20190317000015RADIO;AM/FM,CD                M IMCTM S5NC06 TNTH  09020IMCT  S5 PTB  00003                    0400 SR        000000000000 DENSO TEN (THAILAND)190J92L0019019                                                                                                                              *          20190313 IMCT                IMCT                                                                                                                    WMF1903134.TXT
MDEDK3293719201903                D89848582010PT4D20190318000015RADIO;AM/FM CD D              M IMCTM S9CO001TNTH  09020IMCT  S9 PTB  00003                    1300 SR        000000000000 DENSO TEN (THAILAND)190D85U0004004                                                                                                                              *          20190313 IMCT                IMCT                                                                                                                    WMF1903134.TXT
MDEDK3293720201903                D89848582100PT1D20190317000030RADIO;AM/FM CD D              M IMCTM S5NC06 TNTH  09020IMCT  S5 PTB  00003                    0400 SR        000000000000 DENSO TEN (THAILAND)190H17L0005006                                                                                                                              *          20190313 IMCT                IMCT                                                                                                                    WMF1903134.TXT
MDEDK3293721201903                D89848582100PT1D20190318000015RADIO;AM/FM CD D              M IMCTM S5NC06 TNTH  09020IMCT  S5 PTB  00003                    2100 SR        000000000000 DENSO TEN (THAILAND)190H17L0007007                                                                                                                              *          20190313 IMCT                IMCT                                                                                                                    WMF1903134.TXT
MDEUK3228004201903                D89828070100PT4U20190316000030SPEAKER ASM                   M IMCTM S0FL05 TNTH  09020IMCT  S0 PTB  00004                    2230 SR        000000000000 DENSO TEN (THAILAND)190G32U0035035                                                                                                                              *          20190313 IMCT                IMCT                                                                                                                    WMF1903134.TXT
MDEUK3228005201903                D89828070100PT4U20190318000030SPEAKER ASM                   M IMCTM S0FL05 TNTH  09020IMCT  S0 PTB  00004                    1030 SR        000000000000 DENSO TEN (THAILAND)18043YU0013013                                                                                                                              *          20190313 IMCT                IMCT                                                                                                                    WMF1903134.TXT
MDEUK3228006201903                D89828070100PT4U20190318000030SPEAKER ASM                   M IMCTM S0FL05 TNTH  09020IMCT  S0 PTB  00004                    1600 SR        000000000000 DENSO TEN (THAILAND)190G32U0036036                                                                                                                              *          20190313 IMCT                IMCT                                                                                                                    WMF1903134.TXT
MDEUK3228007201903                D89828070200PV4U20190316000030SPEAKER ASM                   M IMCTM S0FR05 TNTH  09020IMCT  S0 PTB  00005                    2230 SR        000000000000 DENSO TEN (THAILAND)190G32U0035035                                                                                                                              *          20190313 IMCT                IMCT                                                                                                                    WMF1903134.TXT
MDEUK3228008201903                D89828070200PV4U20190318000030SPEAKER ASM                   M IMCTM S0FR05 TNTH  09020IMCT  S0 PTB  00005                    1030 SR        000000000000 DENSO TEN (THAILAND)18043YU0013013                                                                                                                              *          20190313 IMCT                IMCT                                                                                                                    WMF1903134.TXT
MDEUK3228009201903                D89828070200PV4U20190318000030SPEAKER ASM                   M IMCTM S0FR05 TNTH  09020IMCT  S0 PTB  00005                    1600 SR        000000000000 DENSO TEN (THAILAND)190G32U0036036                                                                                                                              *          20190313 IMCT                IMCT                                                                                                                    WMF1903134.TXT
MDEUK3228010201903                D89828070300PT4U20190316000030SPEAKER ASM                   M IMCTM S9TS02 TNTH  09020IMCT  S9 PTB  00015                    2230 SR        000000000000 DENSO TEN (THAILAND)190G32U0035035                                                                                                                              *          20190313 IMCT                IMCT                                                                                                                    WMF1903134.TXT
MDEUK3228011201903                D89828070300PT4U20190318000030SPEAKER ASM                   M IMCTM S9TS02 TNTH  09020IMCT  S9 PTB  00015                    1030 SR        000000000000 DENSO TEN (THAILAND)18043YU0013013                                                                                                                              *          20190313 IMCT                IMCT                                                                                                                    WMF1903134.TXT
MDEUK3228012201903                D89828070300PT4U20190318000030SPEAKER ASM                   M IMCTM S9TS02 TNTH  09020IMCT  S9 PTB  00015                    1600 SR        000000000000 DENSO TEN (THAILAND)190G32U0036036                                                                                                                              *          20190313 IMCT                IMCT                                                                                                                    WMF1903134.TXT
