REC2019042220190422ISUZU                              29     
MGEDK1601902201905                 89839626300PT1D20190401000001PLAYER ASM                    M       ST00000TNTH  09020IMCT  ST*X    000301 DC                0000 SR        000000000000 DENSO TEN (THAILAND)200L17L0001001                                                                                                                                         20190422 IMCT                IMCT                                                                                                                    WMF1904224.TXT
MGEDK1601903201905                 89839626300PT1D20190418000001PLAYER ASM                    M       ST00000TNTH  09020IMCT  ST*X    000301 DC                0000 SR        000000000000 DENSO TEN (THAILAND)200L22L0004004                                                                                                                                         20190422 IMCT                IMCT                                                                                                                    WMF1904224.TXT
MGEDK1604125201905                 89839626300PT1D20190418000009PLAYER ASM                    M       ST00000TNTH  09020IMCT  ST X    000301 DC_SALE           0000 SR        000000000000 DENSO TEN (THAILAND)200L19L0001001200L20L0001001200L21L0001003200L22L0001005                                                                                               20190422 IMCT                IMCT                                                                                                                    WMF1904224.TXT
MGEDK4601009201909                 89839626300PT4D20190610000001PLAYER ASM                    M       ST00000TNTH  09020IMCT  ST PTB  000051 DC                0000 SR        000000000000 DENSO TEN (THAILAND)200L20U0001001                                                                                                                                         20190422 IMCT                IMCT                                                                                                                    WMF1904224.TXT
MGEDK4604089201909                 89839626300PT4D20190610000005PLAYER ASM                    M       ST00000TNTH  09020IMCT  ST PTB  000051 DC_SALE           0000 SR        000000000000 DENSO TEN (THAILAND)200L16U0001001200L22U0001003200L24U0001001                                                                                                             20190422 IMCT                IMCT                                                                                                                    WMF1904224.TXT
MGEDK4607133201909                 89839626300PT1D20190610000006PLAYER ASM                    M       ST00000TNTH  09020IMCT  ST PTB  000051 DC_SALE           0000 SR        000000000000 DENSO TEN (THAILAND)200L17L0002002200L20L0002002200L22L0006008200L25L0001001                                                                                               20190422 IMCT                IMCT                                                                                                                    WMF1904224.TXT
MEEDK4805371000000                 89839626310PT4D20190610000001PLAYER ASM                    M IMCTM ST00000TNTH  13124IMCT  ST*PTB  00005  DC_SALE        PJC1500 SR        000000000000 DENSO TEN (THAILAND)200L16U0001001                                                                                                                              *E         20190422 IMCT                IMCT                                                                                                                    WMF1904224.TXT
MEEDK4805372000000                 89839626310PT4D20190610000001PLAYER ASM                    M IMCTM ST00000TNTH  13124IMCT  ST*PTB  00005  DC             PJC1500 SR        000000000000 DENSO TEN (THAILAND)200L20U0001001                                                                                                                              *E         20190422 IMCT                IMCT                                                                                                                    WMF1904224.TXT
MEEDK4805373000000                 89839626310PT4D20190610000001PLAYER ASM                    M IMCTM ST00000TNTH  13124IMCT  ST*PTB  00005  DC_SALE        PJC1500 SR        000000000000 DENSO TEN (THAILAND)200L22U0001001                                                                                                                              *E         20190422 IMCT                IMCT                                                                                                                    WMF1904224.TXT
MEEDK4805374000000                 89839626310PT4D20190610000001PLAYER ASM                    M IMCTM ST00000TNTH  13124IMCT  ST*PTB  00005  DC_SALE        PJC1500 SR        000000000000 DENSO TEN (THAILAND)200L22U0002002                                                                                                                              *E         20190422 IMCT                IMCT                                                                                                                    WMF1904224.TXT
MEEDK4805375000000                 89839626310PT4D20190610000001PLAYER ASM                    M IMCTM ST00000TNTH  13124IMCT  ST*PTB  00005  DC_SALE        PJC1500 SR        000000000000 DENSO TEN (THAILAND)200L22U0003003                                                                                                                              *E         20190422 IMCT                IMCT                                                                                                                    WMF1904224.TXT
MEEDK4805376000000                 89839626310PT4D20190610000001PLAYER ASM                    M IMCTM ST00000TNTH  13124IMCT  ST*PTB  00005  DC_SALE        PJC1500 SR        000000000000 DENSO TEN (THAILAND)200L24U0001001                                                                                                                              *E         20190422 IMCT                IMCT                                                                                                                    WMF1904224.TXT
MEEDK4805377000000                 89839626310PT1D20190422000001PLAYER ASM                    M IMCTM ST00000TNTH  13124IMCT  ST*PTB  00005  DC             PJC1500 SR        000000000000 DENSO TEN (THAILAND)200L17L0001001                                                                                                                              *E         20190422 IMCT                IMCT                                                                                                                    WMF1904224.TXT
MEEDK4805378000000                 89839626310PT1D20190422000001PLAYER ASM                    M IMCTM ST00000TNTH  13124IMCT  ST*PTB  00005  DC_SALE        PJC1500 SR        000000000000 DENSO TEN (THAILAND)200L19L0001001                                                                                                                              *E         20190422 IMCT                IMCT                                                                                                                    WMF1904224.TXT
MEEDK4805379000000                 89839626310PT1D20190422000001PLAYER ASM                    M IMCTM ST00000TNTH  13124IMCT  ST*PTB  00005  DC_SALE        PJC1500 SR        000000000000 DENSO TEN (THAILAND)200L20L0001001                                                                                                                              *E         20190422 IMCT                IMCT                                                                                                                    WMF1904224.TXT
MEEDK4805380000000                 89839626310PT1D20190422000001PLAYER ASM                    M IMCTM ST00000TNTH  13124IMCT  ST*PTB  00005  DC_SALE        PJC1500 SR        000000000000 DENSO TEN (THAILAND)200L21L0001001                                                                                                                              *E         20190422 IMCT                IMCT                                                                                                                    WMF1904224.TXT
MEEDK4805381000000                 89839626310PT1D20190422000001PLAYER ASM                    M IMCTM ST00000TNTH  13124IMCT  ST*PTB  00005  DC_SALE        PJC1500 SR        000000000000 DENSO TEN (THAILAND)200L21L0002002                                                                                                                              *E         20190422 IMCT                IMCT                                                                                                                    WMF1904224.TXT
MEEDK4805382000000                 89839626310PT1D20190422000001PLAYER ASM                    M IMCTM ST00000TNTH  13124IMCT  ST*PTB  00005  DC_SALE        PJC1500 SR        000000000000 DENSO TEN (THAILAND)200L21L0003003                                                                                                                              *E         20190422 IMCT                IMCT                                                                                                                    WMF1904224.TXT
MEEDK4805383000000                 89839626310PT1D20190422000001PLAYER ASM                    M IMCTM ST00000TNTH  13124IMCT  ST*PTB  00005  DC_SALE        PJC1500 SR        000000000000 DENSO TEN (THAILAND)200L22L0001001                                                                                                                              *E         20190422 IMCT                IMCT                                                                                                                    WMF1904224.TXT
MEEDK4805384000000                 89839626310PT1D20190422000001PLAYER ASM                    M IMCTM ST00000TNTH  13124IMCT  ST*PTB  00005  DC_SALE        PJC1500 SR        000000000000 DENSO TEN (THAILAND)200L22L0002002                                                                                                                              *E         20190422 IMCT                IMCT                                                                                                                    WMF1904224.TXT
MEEDK4805385000000                 89839626310PT1D20190422000001PLAYER ASM                    M IMCTM ST00000TNTH  13124IMCT  ST*PTB  00005  DC_SALE        PJC1500 SR        000000000000 DENSO TEN (THAILAND)200L22L0003003                                                                                                                              *E         20190422 IMCT                IMCT                                                                                                                    WMF1904224.TXT
MEEDK4805386000000                 89839626310PT1D20190422000001PLAYER ASM                    M IMCTM ST00000TNTH  13124IMCT  ST*PTB  00005  DC             PJC1500 SR        000000000000 DENSO TEN (THAILAND)200L22L0004004                                                                                                                              *E         20190422 IMCT                IMCT                                                                                                                    WMF1904224.TXT
MEEDK4805387000000                 89839626310PT1D20190422000001PLAYER ASM                    M IMCTM ST00000TNTH  13124IMCT  ST*PTB  00005  DC_SALE        PJC1500 SR        000000000000 DENSO TEN (THAILAND)200L22L0005005                                                                                                                              *E         20190422 IMCT                IMCT                                                                                                                    WMF1904224.TXT
MEEDK4805388000000                 89839626310PT1D20190610000001PLAYER ASM                    M IMCTM ST00000TNTH  13124IMCT  ST*PTB  00005  DC_SALE        PJC1500 SR        000000000000 DENSO TEN (THAILAND)200L17L0002002                                                                                                                              *E         20190422 IMCT                IMCT                                                                                                                    WMF1904224.TXT
MEEDK4805389000000                 89839626310PT1D20190610000001PLAYER ASM                    M IMCTM ST00000TNTH  13124IMCT  ST*PTB  00005  DC_SALE        PJC1500 SR        000000000000 DENSO TEN (THAILAND)200L20L0002002                                                                                                                              *E         20190422 IMCT                IMCT                                                                                                                    WMF1904224.TXT
MEEDK4805390000000                 89839626310PT1D20190610000001PLAYER ASM                    M IMCTM ST00000TNTH  13124IMCT  ST*PTB  00005  DC_SALE        PJC1500 SR        000000000000 DENSO TEN (THAILAND)200L22L0006006                                                                                                                              *E         20190422 IMCT                IMCT                                                                                                                    WMF1904224.TXT
MEEDK4805391000000                 89839626310PT1D20190610000001PLAYER ASM                    M IMCTM ST00000TNTH  13124IMCT  ST*PTB  00005  DC_SALE        PJC1500 SR        000000000000 DENSO TEN (THAILAND)200L22L0007007                                                                                                                              *E         20190422 IMCT                IMCT                                                                                                                    WMF1904224.TXT
MEEDK4805392000000                 89839626310PT1D20190610000001PLAYER ASM                    M IMCTM ST00000TNTH  13124IMCT  ST*PTB  00005  DC_SALE        PJC1500 SR        000000000000 DENSO TEN (THAILAND)200L22L0008008                                                                                                                              *E         20190422 IMCT                IMCT                                                                                                                    WMF1904224.TXT
MEEDK4805393000000                 89839626310PT1D20190610000001PLAYER ASM                    M IMCTM ST00000TNTH  13124IMCT  ST*PTB  00005  DC_SALE        PJC1500 SR        000000000000 DENSO TEN (THAILAND)200L25L0001001                                                                                                                              *E         20190422 IMCT                IMCT                                                                                                                    WMF1904224.TXT
