REC2019042520190425ISUZU                              29     
MDD6K4285386201904                D89821984430PT5620190430000030RADIO;AM/FM,CD                M IMCTM G9J213 TNTH  09020G/WAY G9 PTB  00005                    1530 GW        0000000000005DENSO TEN (THAILAND)190MYAG0175175                                                                                                                              *          20190425 IMCT                IMCT                                                                                                                    WMF1904252.TXT
MDD6K4285387201904                D89828070100PV5620190429000120SPEAKER ASM                   M IMCTM G9B114 TNTH  09020G/WAY G9 PTB  00004                    2100 GW        0000000000005DENSO TEN (THAILAND)190MPGG0240240190MRDG0066066                                                                                                                *          20190425 IMCT                IMCT                                                                                                                    WMF1904252.TXT
MDD6K4285388201904                D89828070100PV5620190429000060SPEAKER ASM                   M IMCTM G9B114 TNTH  09020G/WAY G9 PTB  00004                    2300 GW        0000000000005DENSO TEN (THAILAND)190MRWG0089089                                                                                                                              *          20190425 IMCT                IMCT                                                                                                                    WMF1904252.TXT
MDD6K4285389201904                D89828070100PV5620190430000060SPEAKER ASM                   M IMCTM G9B114 TNTH  09020G/WAY G9 PTB  00004                    0200 GW        0000000000005DENSO TEN (THAILAND)190MRWG0090090                                                                                                                              *          20190425 IMCT                IMCT                                                                                                                    WMF1904252.TXT
MDD6K4285390201904                D89828070100PV5620190430000120SPEAKER ASM                   M IMCTM G9B114 TNTH  09020G/WAY G9 PTB  00004                    0330 GW        0000000000005DENSO TEN (THAILAND)190MPGG0241241190MRWG0091091                                                                                                                *          20190425 IMCT                IMCT                                                                                                                    WMF1904252.TXT
MDD6K4285391201904                D89828070100PV5620190430000060SPEAKER ASM                   M IMCTM G9B114 TNTH  09020G/WAY G9 PTB  00004                    0900 GW        0000000000005DENSO TEN (THAILAND)190MRTG0142142                                                                                                                              *          20190425 IMCT                IMCT                                                                                                                    WMF1904252.TXT
MDD6K4285392201904                D89828070100PV5620190430000060SPEAKER ASM                   M IMCTM G9B114 TNTH  09020G/WAY G9 PTB  00004                    1100 GW        0000000000005DENSO TEN (THAILAND)190MRVG0091091                                                                                                                              *          20190425 IMCT                IMCT                                                                                                                    WMF1904252.TXT
MDD6K4285393201904                D89828070100PV5620190430000060SPEAKER ASM                   M IMCTM G9B114 TNTH  09020G/WAY G9 PTB  00004                    1400 GW        0000000000005DENSO TEN (THAILAND)190MPSG0005005                                                                                                                              *          20190425 IMCT                IMCT                                                                                                                    WMF1904252.TXT
MDD6K4285394201904                D89828070100PV5620190430000120SPEAKER ASM                   M IMCTM G9B114 TNTH  09020G/WAY G9 PTB  00004                    1530 GW        0000000000005DENSO TEN (THAILAND)190MRHG0070070190MYAG0175175                                                                                                                *          20190425 IMCT                IMCT                                                                                                                    WMF1904252.TXT
MDD6K4285395201904                D89828070200PV5620190429000060SPEAKER ASM                   M IMCTM G6F132 TNTH  09020G/WAY G6 PTB  00005                    2100 GW        0000000000005DENSO TEN (THAILAND)190MRDG0066066                                                                                                                              *          20190425 IMCT                IMCT                                                                                                                    WMF1904252.TXT
MDD6K4285396201904                D89828070200PV5620190429000060SPEAKER ASM                   M IMCTM G6F132 TNTH  09020G/WAY G6 PTB  00005                    2300 GW        0000000000005DENSO TEN (THAILAND)190MRWG0089089                                                                                                                              *          20190425 IMCT                IMCT                                                                                                                    WMF1904252.TXT
MDD6K4285397201904                D89828070200PV5620190430000060SPEAKER ASM                   M IMCTM G6F132 TNTH  09020G/WAY G6 PTB  00005                    0200 GW        0000000000005DENSO TEN (THAILAND)190MRWG0090090                                                                                                                              *          20190425 IMCT                IMCT                                                                                                                    WMF1904252.TXT
MDD6K4285398201904                D89828070200PV5620190430000060SPEAKER ASM                   M IMCTM G6F132 TNTH  09020G/WAY G6 PTB  00005                    0330 GW        0000000000005DENSO TEN (THAILAND)190MRWG0091091                                                                                                                              *          20190425 IMCT                IMCT                                                                                                                    WMF1904252.TXT
MDD6K4285399201904                D89828070200PV5620190430000060SPEAKER ASM                   M IMCTM G6F132 TNTH  09020G/WAY G6 PTB  00005                    0900 GW        0000000000005DENSO TEN (THAILAND)190MRTG0142142                                                                                                                              *          20190425 IMCT                IMCT                                                                                                                    WMF1904252.TXT
MDD6K4285400201904                D89828070200PV5620190430000060SPEAKER ASM                   M IMCTM G6F132 TNTH  09020G/WAY G6 PTB  00005                    1100 GW        0000000000005DENSO TEN (THAILAND)190MRVG0091091                                                                                                                              *          20190425 IMCT                IMCT                                                                                                                    WMF1904252.TXT
MDD6K4285401201904                D89828070200PV5620190430000060SPEAKER ASM                   M IMCTM G6F132 TNTH  09020G/WAY G6 PTB  00005                    1530 GW        0000000000005DENSO TEN (THAILAND)190MRHG0070070                                                                                                                              *          20190425 IMCT                IMCT                                                                                                                    WMF1904252.TXT
MDD6K4285402201904                D89828070300PT5620190429000120SPEAKER ASM                   M IMCTM G9JA33 TNTH  09020G/WAY G9 PTB  00015                    2100 GW        0000000000005DENSO TEN (THAILAND)190MPGG0240240190MRDG0066066                                                                                                                *          20190425 IMCT                IMCT                                                                                                                    WMF1904252.TXT
MDD6K4285403201904                D89828070300PT5620190429000060SPEAKER ASM                   M IMCTM G9JA33 TNTH  09020G/WAY G9 PTB  00015                    2300 GW        0000000000005DENSO TEN (THAILAND)190MRWG0089089                                                                                                                              *          20190425 IMCT                IMCT                                                                                                                    WMF1904252.TXT
MDD6K4285404201904                D89828070300PT5620190430000060SPEAKER ASM                   M IMCTM G9JA33 TNTH  09020G/WAY G9 PTB  00015                    0200 GW        0000000000005DENSO TEN (THAILAND)190MRWG0090090                                                                                                                              *          20190425 IMCT                IMCT                                                                                                                    WMF1904252.TXT
MDD6K4285405201904                D89828070300PT5620190430000120SPEAKER ASM                   M IMCTM G9JA33 TNTH  09020G/WAY G9 PTB  00015                    0330 GW        0000000000005DENSO TEN (THAILAND)190MPGG0241241190MRWG0091091                                                                                                                *          20190425 IMCT                IMCT                                                                                                                    WMF1904252.TXT
MDD6K4285406201904                D89828070300PT5620190430000060SPEAKER ASM                   M IMCTM G9JA33 TNTH  09020G/WAY G9 PTB  00015                    0900 GW        0000000000005DENSO TEN (THAILAND)190MRTG0142142                                                                                                                              *          20190425 IMCT                IMCT                                                                                                                    WMF1904252.TXT
MDD6K4285407201904                D89828070300PT5620190430000060SPEAKER ASM                   M IMCTM G9JA33 TNTH  09020G/WAY G9 PTB  00015                    1100 GW        0000000000005DENSO TEN (THAILAND)190MRVG0091091                                                                                                                              *          20190425 IMCT                IMCT                                                                                                                    WMF1904252.TXT
MDD6K4285408201904                D89828070300PT5620190430000060SPEAKER ASM                   M IMCTM G9JA33 TNTH  09020G/WAY G9 PTB  00015                    1400 GW        0000000000005DENSO TEN (THAILAND)190MPSG0005005                                                                                                                              *          20190425 IMCT                IMCT                                                                                                                    WMF1904252.TXT
MDD6K4285409201904                D89828070300PT5620190430000060SPEAKER ASM                   M IMCTM G9JA33 TNTH  09020G/WAY G9 PTB  00015                    1530 GW        0000000000005DENSO TEN (THAILAND)190MRHG0070070                                                                                                                              *          20190425 IMCT                IMCT                                                                                                                    WMF1904252.TXT
MDD6K4285410201904                D89831228300PT5620190429000030RADIO;AM/FM,CD                M IMCTM G9J213 TNTH  09020G/WAY G9 CPB  00003                    2100 GW        0000000000005DENSO TEN (THAILAND)190MPGG0240240                                                                                                                              *          20190425 IMCT                IMCT                                                                                                                    WMF1904252.TXT
MDD6K4285411201904                D89831228300PT5620190430000030RADIO;AM/FM,CD                M IMCTM G9J213 TNTH  09020G/WAY G9 CPB  00003                    0330 GW        0000000000005DENSO TEN (THAILAND)190MPGG0241241                                                                                                                              *          20190425 IMCT                IMCT                                                                                                                    WMF1904252.TXT
MDD6K4285412201904                D89831228400PT5620190429000030RADIO;AM/FM,CD                M IMCTM G9J213 TNTH  09020G/WAY G9 CPB  00003                    2100 GW        0000000000005DENSO TEN (THAILAND)190MRDG0066066                                                                                                                              *          20190425 IMCT                IMCT                                                                                                                    WMF1904252.TXT
MDD6K4285413201904                D89848581500PT5620190430000030RADIO;AM/FM CD D              M IMCTM G9J213 TNTH  09020G/WAY G9 PTB  00003                    0900 GW        0000000000005DENSO TEN (THAILAND)190MRTG0142142                                                                                                                              *          20190425 IMCT                IMCT                                                                                                                    WMF1904252.TXT
MDD6K4285414201904                D89848581500PT5620190430000030RADIO;AM/FM CD D              M IMCTM G9J213 TNTH  09020G/WAY G9 PTB  00003                    1530 GW        0000000000005DENSO TEN (THAILAND)190MRHG0070070                                                                                                                              *          20190425 IMCT                IMCT                                                                                                                    WMF1904252.TXT
