REC2019040820190408ISUZU                              82     
MDDDK4239484201904                D89821984430PT1D20190419000030RADIO;AM/FM,CD                M IMCTM S5NC06 TNTH  09020IMCT  S5 PTB  00005                    0230 SR        000000000000 DENSO TEN (THAILAND)190MXCL0043043                                                                                                                              *          20190408 IMCT                IMCT                                                                                                                    WMF1904085.TXT
MDDDK4239485201904                D89821984430PT1D20190419000030RADIO;AM/FM,CD                M IMCTM S5NC06 TNTH  09020IMCT  S5 PTB  00005                    0830 SR        000000000000 DENSO TEN (THAILAND)190MNGL0122122                                                                                                                              *          20190408 IMCT                IMCT                                                                                                                    WMF1904085.TXT
MDDDK4239486201904                D89821984430PT1D20190419000030RADIO;AM/FM,CD                M IMCTM S5NC06 TNTH  09020IMCT  S5 PTB  00005                    1030 SR        000000000000 DENSO TEN (THAILAND)190MNGL0123123                                                                                                                              *          20190408 IMCT                IMCT                                                                                                                    WMF1904085.TXT
MDDDK4239487201904                D89821984430PT1D20190419000030RADIO;AM/FM,CD                M IMCTM S5NC06 TNTH  09020IMCT  S5 PTB  00005                    1300 SR        000000000000 DENSO TEN (THAILAND)190MRAL0107107                                                                                                                              *          20190408 IMCT                IMCT                                                                                                                    WMF1904085.TXT
MDDDK4239488201904                D89821984430PT1D20190419000060RADIO;AM/FM,CD                M IMCTM S5NC06 TNTH  09020IMCT  S5 PTB  00005                    1600 SR        000000000000 DENSO TEN (THAILAND)190MNGL0124124190MRBL0041041                                                                                                                *          20190408 IMCT                IMCT                                                                                                                    WMF1904085.TXT
MDDDK4239489201904                D89821984430PT1D20190419000030RADIO;AM/FM,CD                M IMCTM S5NC06 TNTH  09020IMCT  S5 PTB  00005                    2100 SR        000000000000 DENSO TEN (THAILAND)190MRBL0042042                                                                                                                              *          20190408 IMCT                IMCT                                                                                                                    WMF1904085.TXT
MDDDK4239490201904                D89828070100PV1D20190419000060SPEAKER ASM                   M IMCTM S5MB11 TNTH  09020IMCT  S5 PTB  00004                    0230 SR        000000000000 DENSO TEN (THAILAND)190MXCL0043043                                                                                                                              *          20190408 IMCT                IMCT                                                                                                                    WMF1904085.TXT
MDDDK4239491201904                D89828070100PV1D20190419000060SPEAKER ASM                   M IMCTM S5MB11 TNTH  09020IMCT  S5 PTB  00004                    0830 SR        000000000000 DENSO TEN (THAILAND)190MNGL0122122                                                                                                                              *          20190408 IMCT                IMCT                                                                                                                    WMF1904085.TXT
MDDDK4239492201904                D89828070100PV1D20190419000060SPEAKER ASM                   M IMCTM S5MB11 TNTH  09020IMCT  S5 PTB  00004                    1030 SR        000000000000 DENSO TEN (THAILAND)190MNGL0123123                                                                                                                              *          20190408 IMCT                IMCT                                                                                                                    WMF1904085.TXT
MDDDK4239493201904                D89828070100PV1D20190419000060SPEAKER ASM                   M IMCTM S5MB11 TNTH  09020IMCT  S5 PTB  00004                    1300 SR        000000000000 DENSO TEN (THAILAND)190MRAL0107107                                                                                                                              *          20190408 IMCT                IMCT                                                                                                                    WMF1904085.TXT
MDDDK4239494201904                D89828070100PV1D20190419000120SPEAKER ASM                   M IMCTM S5MB11 TNTH  09020IMCT  S5 PTB  00004                    1600 SR        000000000000 DENSO TEN (THAILAND)190MNGL0124124190MRBL0041041                                                                                                                *          20190408 IMCT                IMCT                                                                                                                    WMF1904085.TXT
MDDDK4239495201904                D89828070100PV1D20190419000060SPEAKER ASM                   M IMCTM S5MB11 TNTH  09020IMCT  S5 PTB  00004                    2100 SR        000000000000 DENSO TEN (THAILAND)190MRBL0042042                                                                                                                              *          20190408 IMCT                IMCT                                                                                                                    WMF1904085.TXT
MDDDK4239496201904                D89828070100PV1D20190419000060SPEAKER ASM                   M IMCTM S5MB11 TNTH  09020IMCT  S5 PTB  00004                    2230 SR        000000000000 DENSO TEN (THAILAND)190MXBL0014014                                                                                                                              *          20190408 IMCT                IMCT                                                                                                                    WMF1904085.TXT
MDDUK4221172201904                D89828070100PT4U20190419000030SPEAKER ASM                   M IMCTM S0FL05 TNTH  09020IMCT  S0 PTB  00004                    0400 SR        000000000000 DENSO TEN (THAILAND)190MUEU0109109                                                                                                                              *          20190408 IMCT                IMCT                                                                                                                    WMF1904085.TXT
MDDUK4221173201904                D89828070100PT4U20190419000030SPEAKER ASM                   M IMCTM S0FL05 TNTH  09020IMCT  S0 PTB  00004                    1030 SR        000000000000 DENSO TEN (THAILAND)190MUGU0064064                                                                                                                              *          20190408 IMCT                IMCT                                                                                                                    WMF1904085.TXT
MDDUK4221174201904                D89828070100PT4U20190419000030SPEAKER ASM                   M IMCTM S0FL05 TNTH  09020IMCT  S0 PTB  00004                    1300 SR        000000000000 DENSO TEN (THAILAND)190MUEU0110110                                                                                                                              *          20190408 IMCT                IMCT                                                                                                                    WMF1904085.TXT
MDDUK4221175201904                D89828070100PT4U20190419000030SPEAKER ASM                   M IMCTM S0FL05 TNTH  09020IMCT  S0 PTB  00004                    2100 SR        000000000000 DENSO TEN (THAILAND)190MUGU0065065                                                                                                                              *          20190408 IMCT                IMCT                                                                                                                    WMF1904085.TXT
MDDUK4221176201904                D89828070200PV4U20190419000030SPEAKER ASM                   M IMCTM S0FR05 TNTH  09020IMCT  S0 PTB  00005                    0400 SR        000000000000 DENSO TEN (THAILAND)190MUEU0109109                                                                                                                              *          20190408 IMCT                IMCT                                                                                                                    WMF1904085.TXT
MDDUK4221177201904                D89828070200PV4U20190419000030SPEAKER ASM                   M IMCTM S0FR05 TNTH  09020IMCT  S0 PTB  00005                    1030 SR        000000000000 DENSO TEN (THAILAND)190MUGU0064064                                                                                                                              *          20190408 IMCT                IMCT                                                                                                                    WMF1904085.TXT
MDDUK4221178201904                D89828070200PV4U20190419000030SPEAKER ASM                   M IMCTM S0FR05 TNTH  09020IMCT  S0 PTB  00005                    1300 SR        000000000000 DENSO TEN (THAILAND)190MUEU0110110                                                                                                                              *          20190408 IMCT                IMCT                                                                                                                    WMF1904085.TXT
MDDUK4221179201904                D89828070200PV4U20190419000030SPEAKER ASM                   M IMCTM S0FR05 TNTH  09020IMCT  S0 PTB  00005                    2100 SR        000000000000 DENSO TEN (THAILAND)190MUGU0065065                                                                                                                              *          20190408 IMCT                IMCT                                                                                                                    WMF1904085.TXT
MDDUK4221180201904                D89828070300PT4U20190419000030SPEAKER ASM                   M IMCTM S9TS02 TNTH  09020IMCT  S9 PTB  00015                    0400 SR        000000000000 DENSO TEN (THAILAND)190MUEU0109109                                                                                                                              *          20190408 IMCT                IMCT                                                                                                                    WMF1904085.TXT
MDDUK4221181201904                D89828070300PT4U20190419000030SPEAKER ASM                   M IMCTM S9TS02 TNTH  09020IMCT  S9 PTB  00015                    1030 SR        000000000000 DENSO TEN (THAILAND)190MUGU0064064                                                                                                                              *          20190408 IMCT                IMCT                                                                                                                    WMF1904085.TXT
MDDUK4221182201904                D89828070300PT4U20190419000030SPEAKER ASM                   M IMCTM S9TS02 TNTH  09020IMCT  S9 PTB  00015                    1300 SR        000000000000 DENSO TEN (THAILAND)190MUEU0110110                                                                                                                              *          20190408 IMCT                IMCT                                                                                                                    WMF1904085.TXT
MDDUK4221183201904                D89828070300PT4U20190419000030SPEAKER ASM                   M IMCTM S9TS02 TNTH  09020IMCT  S9 PTB  00015                    2100 SR        000000000000 DENSO TEN (THAILAND)190MUGU0065065                                                                                                                              *          20190408 IMCT                IMCT                                                                                                                    WMF1904085.TXT
MDEDK4249441201904                D89752845100PT1D20190419000030RADIO;AM FM,CD D              M IMCTM S5NC06 TNTH  09020IMCT  S5 PTB  00003                    0400 SR        000000000000 DENSO TEN (THAILAND)190F91L0016017                                                                                                                              *          20190408 IMCT                IMCT                                                                                                                    WMF1904085.TXT
MDEDK4249442201904                D89828070100PV1D20190418000030SPEAKER ASM                   M IMCTM S5MB11 TNTH  09020IMCT  S5 PTB  00004                    2230 SR        000000000000 DENSO TEN (THAILAND)190J14L0003003                                                                                                                              *          20190408 IMCT                IMCT                                                                                                                    WMF1904085.TXT
MDEDK4249443201904                D89828070100PV1D20190419000030SPEAKER ASM                   M IMCTM S5MB11 TNTH  09020IMCT  S5 PTB  00004                    0230 SR        000000000000 DENSO TEN (THAILAND)190J14L0004004                                                                                                                              *          20190408 IMCT                IMCT                                                                                                                    WMF1904085.TXT
MDEDK4249444201904                D89828070100PV1D20190419000180SPEAKER ASM                   M IMCTM S5MB11 TNTH  09020IMCT  S5 PTB  00004                    0400 SR        000000000000 DENSO TEN (THAILAND)190F91L0016017190G21L0031032190H19L0006007                                                                                                  *          20190408 IMCT                IMCT                                                                                                                    WMF1904085.TXT
MDEDK4249445201904                D89828070100PV1D20190419000030SPEAKER ASM                   M IMCTM S5MB11 TNTH  09020IMCT  S5 PTB  00004                    0830 SR        000000000000 DENSO TEN (THAILAND)190H17L0015015                                                                                                                              *          20190408 IMCT                IMCT                                                                                                                    WMF1904085.TXT
MDEDK4249446201904                D89828070100PV1D20190419000030SPEAKER ASM                   M IMCTM S5MB11 TNTH  09020IMCT  S5 PTB  00004                    1030 SR        000000000000 DENSO TEN (THAILAND)190H17L0016016                                                                                                                              *          20190408 IMCT                IMCT                                                                                                                    WMF1904085.TXT
MDEDK4249447201904                D89828070100PV1D20190419000090SPEAKER ASM                   M IMCTM S5MB11 TNTH  09020IMCT  S5 PTB  00004                    1300 SR        000000000000 DENSO TEN (THAILAND)190H66L0002003190J85L0017017                                                                                                                *          20190408 IMCT                IMCT                                                                                                                    WMF1904085.TXT
MDEDK4249448201904                D89828070100PV1D20190419000120SPEAKER ASM                   M IMCTM S5MB11 TNTH  09020IMCT  S5 PTB  00004                    1600 SR        000000000000 DENSO TEN (THAILAND)190H02L0019020190H21L0009009190J14L0005005                                                                                                  *          20190408 IMCT                IMCT                                                                                                                    WMF1904085.TXT
MDEDK4249449201904                D89828070100PV1D20190419000030SPEAKER ASM                   M IMCTM S5MB11 TNTH  09020IMCT  S5 PTB  00004                    2100 SR        000000000000 DENSO TEN (THAILAND)190H04L0020020                                                                                                                              *          20190408 IMCT                IMCT                                                                                                                    WMF1904085.TXT
MDEDK4249450201904                D89828070100PV1D20190419000060SPEAKER ASM                   M IMCTM S5MB11 TNTH  09020IMCT  S5 PTB  00004                    2230 SR        000000000000 DENSO TEN (THAILAND)190H17L0017017190H28L0016016                                                                                                                *          20190408 IMCT                IMCT                                                                                                                    WMF1904085.TXT
MDEDK4249451201904                D89828070100PV4D20190419000030SPEAKER ASM                   M IMCTM S0FL05 TNTH  09020IMCT  S0 PTB  00004                    0400 SR        000000000000 DENSO TEN (THAILAND)190H21U0005005                                                                                                                              *          20190408 IMCT                IMCT                                                                                                                    WMF1904085.TXT
MDEDK4249452201904                D89828070100PV4D20190419000030SPEAKER ASM                   M IMCTM S0FL05 TNTH  09020IMCT  S0 PTB  00004                    0830 SR        000000000000 DENSO TEN (THAILAND)190J28U0005005                                                                                                                              *          20190408 IMCT                IMCT                                                                                                                    WMF1904085.TXT
MDEDK4249453201904                D89828070100PV4D20190419000030SPEAKER ASM                   M IMCTM S0FL05 TNTH  09020IMCT  S0 PTB  00004                    1600 SR        000000000000 DENSO TEN (THAILAND)190J25U0007007                                                                                                                              *          20190408 IMCT                IMCT                                                                                                                    WMF1904085.TXT
MDEDK4249454201904                D89828070100PV4D20190419000030SPEAKER ASM                   M IMCTM S0FL05 TNTH  09020IMCT  S0 PTB  00004                    2230 SR        000000000000 DENSO TEN (THAILAND)190H06U0001001                                                                                                                              *          20190408 IMCT                IMCT                                                                                                                    WMF1904085.TXT
MDEDK4249455201904                D89828070200PV1D20190418000030SPEAKER ASM                   M IMCTM S5MA14 TNTH  09020IMCT  S5 PTB  00005                    2230 SR        000000000000 DENSO TEN (THAILAND)190J14L0003003                                                                                                                              *          20190408 IMCT                IMCT                                                                                                                    WMF1904085.TXT
MDEDK4249456201904                D89828070200PV1D20190419000030SPEAKER ASM                   M IMCTM S5MA14 TNTH  09020IMCT  S5 PTB  00005                    0230 SR        000000000000 DENSO TEN (THAILAND)190J14L0004004                                                                                                                              *          20190408 IMCT                IMCT                                                                                                                    WMF1904085.TXT
MDEDK4249457201904                D89828070200PV1D20190419000120SPEAKER ASM                   M IMCTM S5MA14 TNTH  09020IMCT  S5 PTB  00005                    0400 SR        000000000000 DENSO TEN (THAILAND)190G21L0031032190H19L0006007                                                                                                                *          20190408 IMCT                IMCT                                                                                                                    WMF1904085.TXT
MDEDK4249458201904                D89828070200PV1D20190419000030SPEAKER ASM                   M IMCTM S5MA14 TNTH  09020IMCT  S5 PTB  00005                    0830 SR        000000000000 DENSO TEN (THAILAND)190H17L0015015                                                                                                                              *          20190408 IMCT                IMCT                                                                                                                    WMF1904085.TXT
MDEDK4249459201904                D89828070200PV1D20190419000030SPEAKER ASM                   M IMCTM S5MA14 TNTH  09020IMCT  S5 PTB  00005                    1030 SR        000000000000 DENSO TEN (THAILAND)190H17L0016016                                                                                                                              *          20190408 IMCT                IMCT                                                                                                                    WMF1904085.TXT
MDEDK4249460201904                D89828070200PV1D20190419000060SPEAKER ASM                   M IMCTM S5MA14 TNTH  09020IMCT  S5 PTB  00005                    1600 SR        000000000000 DENSO TEN (THAILAND)190H21L0009009190J14L0005005                                                                                                                *          20190408 IMCT                IMCT                                                                                                                    WMF1904085.TXT
MDEDK4249461201904                D89828070200PV1D20190419000060SPEAKER ASM                   M IMCTM S5MA14 TNTH  09020IMCT  S5 PTB  00005                    2230 SR        000000000000 DENSO TEN (THAILAND)190H17L0017017190H28L0016016                                                                                                                *          20190408 IMCT                IMCT                                                                                                                    WMF1904085.TXT
MDEDK4249462201904                D89828070200PV4D20190419000030SPEAKER ASM                   M IMCTM S0FR05 TNTH  09020IMCT  S0 PTB  00005                    0400 SR        000000000000 DENSO TEN (THAILAND)190H21U0005005                                                                                                                              *          20190408 IMCT                IMCT                                                                                                                    WMF1904085.TXT
MDEDK4249463201904                D89828070200PV4D20190419000030SPEAKER ASM                   M IMCTM S0FR05 TNTH  09020IMCT  S0 PTB  00005                    0830 SR        000000000000 DENSO TEN (THAILAND)190J28U0005005                                                                                                                              *          20190408 IMCT                IMCT                                                                                                                    WMF1904085.TXT
MDEDK4249464201904                D89828070200PV4D20190419000030SPEAKER ASM                   M IMCTM S0FR05 TNTH  09020IMCT  S0 PTB  00005                    1600 SR        000000000000 DENSO TEN (THAILAND)190J25U0007007                                                                                                                              *          20190408 IMCT                IMCT                                                                                                                    WMF1904085.TXT
MDEDK4249465201904                D89828070300PT1D20190418000030SPEAKER ASM                   M IMCTM S5NB082TNTH  09020IMCT  S5 PTB  00015                    2230 SR        000000000000 DENSO TEN (THAILAND)190J14L0003003                                                                                                                              *          20190408 IMCT                IMCT                                                                                                                    WMF1904085.TXT
MDEDK4249466201904                D89828070300PT1D20190419000030SPEAKER ASM                   M IMCTM S5NB082TNTH  09020IMCT  S5 PTB  00015                    0230 SR        000000000000 DENSO TEN (THAILAND)190J14L0004004                                                                                                                              *          20190408 IMCT                IMCT                                                                                                                    WMF1904085.TXT
MDEDK4249467201904                D89828070300PT1D20190419000180SPEAKER ASM                   M IMCTM S5NB082TNTH  09020IMCT  S5 PTB  00015                    0400 SR        000000000000 DENSO TEN (THAILAND)190F91L0016017190G21L0031032190H19L0006007                                                                                                  *          20190408 IMCT                IMCT                                                                                                                    WMF1904085.TXT
MDEDK4249468201904                D89828070300PT1D20190419000030SPEAKER ASM                   M IMCTM S5NB082TNTH  09020IMCT  S5 PTB  00015                    0830 SR        000000000000 DENSO TEN (THAILAND)190H17L0015015                                                                                                                              *          20190408 IMCT                IMCT                                                                                                                    WMF1904085.TXT
MDEDK4249469201904                D89828070300PT1D20190419000030SPEAKER ASM                   M IMCTM S5NB082TNTH  09020IMCT  S5 PTB  00015                    1030 SR        000000000000 DENSO TEN (THAILAND)190H17L0016016                                                                                                                              *          20190408 IMCT                IMCT                                                                                                                    WMF1904085.TXT
MDEDK4249470201904                D89828070300PT1D20190419000060SPEAKER ASM                   M IMCTM S5NB082TNTH  09020IMCT  S5 PTB  00015                    1300 SR        000000000000 DENSO TEN (THAILAND)190H66L0002003                                                                                                                              *          20190408 IMCT                IMCT                                                                                                                    WMF1904085.TXT
MDEDK4249471201904                D89828070300PT1D20190419000060SPEAKER ASM                   M IMCTM S5NB082TNTH  09020IMCT  S5 PTB  00015                    1600 SR        000000000000 DENSO TEN (THAILAND)190H21L0009009190J14L0005005                                                                                                                *          20190408 IMCT                IMCT                                                                                                                    WMF1904085.TXT
MDEDK4249472201904                D89828070300PT1D20190419000060SPEAKER ASM                   M IMCTM S5NB082TNTH  09020IMCT  S5 PTB  00015                    2230 SR        000000000000 DENSO TEN (THAILAND)190H17L0017017190H28L0016016                                                                                                                *          20190408 IMCT                IMCT                                                                                                                    WMF1904085.TXT
MDEDK4249473201904                D89828070300PT4D20190419000030SPEAKER ASM                   M IMCTM S9TS02 TNTH  09020IMCT  S9 PTB  00015                    0400 SR        000000000000 DENSO TEN (THAILAND)190H21U0005005                                                                                                                              *          20190408 IMCT                IMCT                                                                                                                    WMF1904085.TXT
MDEDK4249474201904                D89828070300PT4D20190419000030SPEAKER ASM                   M IMCTM S9TS02 TNTH  09020IMCT  S9 PTB  00015                    0830 SR        000000000000 DENSO TEN (THAILAND)190J28U0005005                                                                                                                              *          20190408 IMCT                IMCT                                                                                                                    WMF1904085.TXT
MDEDK4249475201904                D89828070300PT4D20190419000030SPEAKER ASM                   M IMCTM S9TS02 TNTH  09020IMCT  S9 PTB  00015                    1600 SR        000000000000 DENSO TEN (THAILAND)190J25U0007007                                                                                                                              *          20190408 IMCT                IMCT                                                                                                                    WMF1904085.TXT
MDEDK4249476201904                D89828070300PT4D20190419000030SPEAKER ASM                   M IMCTM S9TS02 TNTH  09020IMCT  S9 PTB  00015                    2230 SR        000000000000 DENSO TEN (THAILAND)190H06U0001001                                                                                                                              *          20190408 IMCT                IMCT                                                                                                                    WMF1904085.TXT
MDEDK4249477201904                D89848582100PT1D20190418000015RADIO;AM/FM CD D              M IMCTM S5NC06 TNTH  09020IMCT  S5 PTB  00003                    2230 SR        000000000000 DENSO TEN (THAILAND)190J14L0003003                                                                                                                              *          20190408 IMCT                IMCT                                                                                                                    WMF1904085.TXT
MDEDK4249478201904                D89848582100PT1D20190419000015RADIO;AM/FM CD D              M IMCTM S5NC06 TNTH  09020IMCT  S5 PTB  00003                    0230 SR        000000000000 DENSO TEN (THAILAND)190J14L0004004                                                                                                                              *          20190408 IMCT                IMCT                                                                                                                    WMF1904085.TXT
MDEDK4249479201904                D89848582100PT1D20190419000015RADIO;AM/FM CD D              M IMCTM S5NC06 TNTH  09020IMCT  S5 PTB  00003                    0830 SR        000000000000 DENSO TEN (THAILAND)190H17L0015015                                                                                                                              *          20190408 IMCT                IMCT                                                                                                                    WMF1904085.TXT
MDEDK4249480201904                D89848582100PT1D20190419000015RADIO;AM/FM CD D              M IMCTM S5NC06 TNTH  09020IMCT  S5 PTB  00003                    1030 SR        000000000000 DENSO TEN (THAILAND)190H17L0016016                                                                                                                              *          20190408 IMCT                IMCT                                                                                                                    WMF1904085.TXT
MDEDK4249481201904                D89848582100PT1D20190419000015RADIO;AM/FM CD D              M IMCTM S5NC06 TNTH  09020IMCT  S5 PTB  00003                    1600 SR        000000000000 DENSO TEN (THAILAND)190J14L0005005                                                                                                                              *          20190408 IMCT                IMCT                                                                                                                    WMF1904085.TXT
MDEDK4249482201904                D89848582100PT1D20190419000015RADIO;AM/FM CD D              M IMCTM S5NC06 TNTH  09020IMCT  S5 PTB  00003                    2230 SR        000000000000 DENSO TEN (THAILAND)190H17L0017017                                                                                                                              *          20190408 IMCT                IMCT                                                                                                                    WMF1904085.TXT
MDEDK4249483201904                D89848582800PT1D20190419000030RADIO;AM/FM CD D              M IMCTM S5NC06 TNTH  09020IMCT  S5 PTB  00003                    1300 SR        000000000000 DENSO TEN (THAILAND)190H66L0002003                                                                                                                              *          20190408 IMCT                IMCT                                                                                                                    WMF1904085.TXT
MDEDK4249484201904                D89848582800PT4D20190419000015RADIO;AM/FM CD D              M IMCTM S9CO001TNTH  09020IMCT  S9 PTB  00003                    2230 SR        000000000000 DENSO TEN (THAILAND)190H06U0001001                                                                                                                              *          20190408 IMCT                IMCT                                                                                                                    WMF1904085.TXT
MDEUK4224590201904                D89752845400PT4U20190419000015RADIO;AM FM,CD D              M IMCTM S9AD002TNTH  09020IMCT  S9 PTB  00003                    1600 SR        000000000000 DENSO TEN (THAILAND)190G29U0013013                                                                                                                              *          20190408 IMCT                IMCT                                                                                                                    WMF1904085.TXT
MDEUK4224591201904                D89828070100PT4U20190419000030SPEAKER ASM                   M IMCTM S0FL05 TNTH  09020IMCT  S0 PTB  00004                    0230 SR        000000000000 DENSO TEN (THAILAND)190G31U0035035                                                                                                                              *          20190408 IMCT                IMCT                                                                                                                    WMF1904085.TXT
MDEUK4224592201904                D89828070100PT4U20190419000030SPEAKER ASM                   M IMCTM S0FL05 TNTH  09020IMCT  S0 PTB  00004                    0400 SR        000000000000 DENSO TEN (THAILAND)190G25U0016016                                                                                                                              *          20190408 IMCT                IMCT                                                                                                                    WMF1904085.TXT
MDEUK4224593201904                D89828070100PT4U20190419000030SPEAKER ASM                   M IMCTM S0FL05 TNTH  09020IMCT  S0 PTB  00004                    1030 SR        000000000000 DENSO TEN (THAILAND)190G31U0036036                                                                                                                              *          20190408 IMCT                IMCT                                                                                                                    WMF1904085.TXT
MDEUK4224594201904                D89828070100PT4U20190419000090SPEAKER ASM                   M IMCTM S0FL05 TNTH  09020IMCT  S0 PTB  00004                    1600 SR        000000000000 DENSO TEN (THAILAND)190G29U0013013190G31U0037037190G32U0070070                                                                                                  *          20190408 IMCT                IMCT                                                                                                                    WMF1904085.TXT
MDEUK4224595201904                D89828070200PV4U20190419000030SPEAKER ASM                   M IMCTM S0FR05 TNTH  09020IMCT  S0 PTB  00005                    0230 SR        000000000000 DENSO TEN (THAILAND)190G31U0035035                                                                                                                              *          20190408 IMCT                IMCT                                                                                                                    WMF1904085.TXT
MDEUK4224596201904                D89828070200PV4U20190419000030SPEAKER ASM                   M IMCTM S0FR05 TNTH  09020IMCT  S0 PTB  00005                    0400 SR        000000000000 DENSO TEN (THAILAND)190G25U0016016                                                                                                                              *          20190408 IMCT                IMCT                                                                                                                    WMF1904085.TXT
MDEUK4224597201904                D89828070200PV4U20190419000030SPEAKER ASM                   M IMCTM S0FR05 TNTH  09020IMCT  S0 PTB  00005                    1030 SR        000000000000 DENSO TEN (THAILAND)190G31U0036036                                                                                                                              *          20190408 IMCT                IMCT                                                                                                                    WMF1904085.TXT
MDEUK4224598201904                D89828070200PV4U20190419000090SPEAKER ASM                   M IMCTM S0FR05 TNTH  09020IMCT  S0 PTB  00005                    1600 SR        000000000000 DENSO TEN (THAILAND)190G29U0013013190G31U0037037190G32U0070070                                                                                                  *          20190408 IMCT                IMCT                                                                                                                    WMF1904085.TXT
MDEUK4224599201904                D89828070300PT4U20190419000030SPEAKER ASM                   M IMCTM S9TS02 TNTH  09020IMCT  S9 PTB  00015                    0230 SR        000000000000 DENSO TEN (THAILAND)190G31U0035035                                                                                                                              *          20190408 IMCT                IMCT                                                                                                                    WMF1904085.TXT
MDEUK4224600201904                D89828070300PT4U20190419000030SPEAKER ASM                   M IMCTM S9TS02 TNTH  09020IMCT  S9 PTB  00015                    0400 SR        000000000000 DENSO TEN (THAILAND)190G25U0016016                                                                                                                              *          20190408 IMCT                IMCT                                                                                                                    WMF1904085.TXT
MDEUK4224601201904                D89828070300PT4U20190419000030SPEAKER ASM                   M IMCTM S9TS02 TNTH  09020IMCT  S9 PTB  00015                    1030 SR        000000000000 DENSO TEN (THAILAND)190G31U0036036                                                                                                                              *          20190408 IMCT                IMCT                                                                                                                    WMF1904085.TXT
MDEUK4224602201904                D89828070300PT4U20190419000090SPEAKER ASM                   M IMCTM S9TS02 TNTH  09020IMCT  S9 PTB  00015                    1600 SR        000000000000 DENSO TEN (THAILAND)190G29U0013013190G31U0037037190G32U0070070                                                                                                  *          20190408 IMCT                IMCT                                                                                                                    WMF1904085.TXT
