REC2019043020190430ISUZU                              70     
MDDDK4309914201905                D89821984430PT1D20190507000030RADIO;AM/FM,CD                M IMCTM S5NC06 TNTH  09020IMCT  S5 PTB  00005                    2230 SR        000000000000 DENSO TEN (THAILAND)190MNGL0142142                                                                                                                              *          20190430 IMCT                IMCT                                                                                                                    WMF1904305.TXT
MDDDK4309915201905                D89821984430PT1D20190508000030RADIO;AM/FM,CD                M IMCTM S5NC06 TNTH  09020IMCT  S5 PTB  00005                    1300 SR        000000000000 DENSO TEN (THAILAND)190MXCL0049049                                                                                                                              *          20190430 IMCT                IMCT                                                                                                                    WMF1904305.TXT
MDDDK4309916201905                D89821984430PT1D20190508000060RADIO;AM/FM,CD                M IMCTM S5NC06 TNTH  09020IMCT  S5 PTB  00005                    1600 SR        000000000000 DENSO TEN (THAILAND)190MXEL0060060190MYAL0159159                                                                                                                *          20190430 IMCT                IMCT                                                                                                                    WMF1904305.TXT
MDDDK4309917201905                D89821984430PT4D20190508000030RADIO;AM/FM,CD                M IMCTM S9CO001TNTH  09020IMCT  S9 PTB  00005                    0400 SR        000000000000 DENSO TEN (THAILAND)190MNGU0008008                                                                                                                              *          20190430 IMCT                IMCT                                                                                                                    WMF1904305.TXT
MDDDK4309918201905                D89828070100PV1D20190507000060SPEAKER ASM                   M IMCTM S5MB11 TNTH  09020IMCT  S5 PTB  00004                    2230 SR        000000000000 DENSO TEN (THAILAND)190MNGL0142142                                                                                                                              *          20190430 IMCT                IMCT                                                                                                                    WMF1904305.TXT
MDDDK4309919201905                D89828070100PV1D20190508000060SPEAKER ASM                   M IMCTM S5MB11 TNTH  09020IMCT  S5 PTB  00004                    0400 SR        000000000000 DENSO TEN (THAILAND)190MXAL0048048                                                                                                                              *          20190430 IMCT                IMCT                                                                                                                    WMF1904305.TXT
MDDDK4309920201905                D89828070100PV1D20190508000060SPEAKER ASM                   M IMCTM S5MB11 TNTH  09020IMCT  S5 PTB  00004                    0830 SR        000000000000 DENSO TEN (THAILAND)190MPGL0151151                                                                                                                              *          20190430 IMCT                IMCT                                                                                                                    WMF1904305.TXT
MDDDK4309921201905                D89828070100PV1D20190508000060SPEAKER ASM                   M IMCTM S5MB11 TNTH  09020IMCT  S5 PTB  00004                    1300 SR        000000000000 DENSO TEN (THAILAND)190MXCL0049049                                                                                                                              *          20190430 IMCT                IMCT                                                                                                                    WMF1904305.TXT
MDDDK4309922201905                D89828070100PV1D20190508000120SPEAKER ASM                   M IMCTM S5MB11 TNTH  09020IMCT  S5 PTB  00004                    1600 SR        000000000000 DENSO TEN (THAILAND)190MXEL0060060190MYAL0159159                                                                                                                *          20190430 IMCT                IMCT                                                                                                                    WMF1904305.TXT
MDDDK4309923201905                D89828070100PV4D20190508000060SPEAKER ASM                   M IMCTM S0FL05 TNTH  09020IMCT  S0 PTB  00004                    0400 SR        000000000000 DENSO TEN (THAILAND)190MNGU0008008                                                                                                                              *          20190430 IMCT                IMCT                                                                                                                    WMF1904305.TXT
MDDDK4309924201905                D89828070300PT1D20190508000060SPEAKER ASM                   M IMCTM S5NB082TNTH  09020IMCT  S5 PTB  00015                    0830 SR        000000000000 DENSO TEN (THAILAND)190MPGL0151151                                                                                                                              *          20190430 IMCT                IMCT                                                                                                                    WMF1904305.TXT
MDDDK4309925201905                D89831228300PT1D20190508000030RADIO;AM/FM,CD                M IMCTM S5NC06 TNTH  09020IMCT  S5 CPB  00003                    0830 SR        000000000000 DENSO TEN (THAILAND)190MPGL0151151                                                                                                                              *          20190430 IMCT                IMCT                                                                                                                    WMF1904305.TXT
MDDUK4251352201905                D89828070100PT4U20190508000030SPEAKER ASM                   M IMCTM S0FL05 TNTH  09020IMCT  S0 PTB  00004                    1300 SR        000000000000 DENSO TEN (THAILAND)190MUGU0081081                                                                                                                              *          20190430 IMCT                IMCT                                                                                                                    WMF1904305.TXT
MDDUK4251353201905                D89828070200PV4U20190508000030SPEAKER ASM                   M IMCTM S0FR05 TNTH  09020IMCT  S0 PTB  00005                    1300 SR        000000000000 DENSO TEN (THAILAND)190MUGU0081081                                                                                                                              *          20190430 IMCT                IMCT                                                                                                                    WMF1904305.TXT
MDDUK4251354201905                D89828070300PT4U20190508000030SPEAKER ASM                   M IMCTM S9TS02 TNTH  09020IMCT  S9 PTB  00015                    1300 SR        000000000000 DENSO TEN (THAILAND)190MUGU0081081                                                                                                                              *          20190430 IMCT                IMCT                                                                                                                    WMF1904305.TXT
MDEDK4360564201905                D89752845100PT4D20190508000015RADIO;AM FM,CD D              M IMCTM S9AD002TNTH  09020IMCT  S9 PTB  00003                    1600 SR        000000000000 DENSO TEN (THAILAND)190G19U0004004                                                                                                                              *          20190430 IMCT                IMCT                                                                                                                    WMF1904305.TXT
MDEDK4360565201905                D89828070100PV1D20190507000060SPEAKER ASM                   M IMCTM S5MB11 TNTH  09020IMCT  S5 PTB  00004                    2230 SR        000000000000 DENSO TEN (THAILAND)190H43L0018018190H56L0014014                                                                                                                *          20190430 IMCT                IMCT                                                                                                                    WMF1904305.TXT
MDEDK4360566201905                D89828070100PV1D20190508000060SPEAKER ASM                   M IMCTM S5MB11 TNTH  09020IMCT  S5 PTB  00004                    0230 SR        000000000000 DENSO TEN (THAILAND)190J08L0005006                                                                                                                              *          20190430 IMCT                IMCT                                                                                                                    WMF1904305.TXT
MDEDK4360567201905                D89828070100PV1D20190508000060SPEAKER ASM                   M IMCTM S5MB11 TNTH  09020IMCT  S5 PTB  00004                    0400 SR        000000000000 DENSO TEN (THAILAND)190H71L0024025                                                                                                                              *          20190430 IMCT                IMCT                                                                                                                    WMF1904305.TXT
MDEDK4360568201905                D89828070100PV1D20190508000030SPEAKER ASM                   M IMCTM S5MB11 TNTH  09020IMCT  S5 PTB  00004                    0830 SR        000000000000 DENSO TEN (THAILAND)190H76L0024024                                                                                                                              *          20190430 IMCT                IMCT                                                                                                                    WMF1904305.TXT
MDEDK4360569201905                D89828070100PV1D20190508000090SPEAKER ASM                   M IMCTM S5MB11 TNTH  09020IMCT  S5 PTB  00004                    1030 SR        000000000000 DENSO TEN (THAILAND)190F98L0007008190H76L0025025                                                                                                                *          20190430 IMCT                IMCT                                                                                                                    WMF1904305.TXT
MDEDK4360570201905                D89828070100PV1D20190508000090SPEAKER ASM                   M IMCTM S5MB11 TNTH  09020IMCT  S5 PTB  00004                    1300 SR        000000000000 DENSO TEN (THAILAND)190H49L0021022190H71L0026026                                                                                                                *          20190430 IMCT                IMCT                                                                                                                    WMF1904305.TXT
MDEDK4360571201905                D89828070100PV1D20190508000150SPEAKER ASM                   M IMCTM S5MB11 TNTH  09020IMCT  S5 PTB  00004                    1600 SR        000000000000 DENSO TEN (THAILAND)190H12L0006007190H71L0027028190J91L0029029                                                                                                  *          20190430 IMCT                IMCT                                                                                                                    WMF1904305.TXT
MDEDK4360572201905                D89828070100PV1D20190508000030SPEAKER ASM                   M IMCTM S5MB11 TNTH  09020IMCT  S5 PTB  00004                    2100 SR        000000000000 DENSO TEN (THAILAND)190G21L0063063                                                                                                                              *          20190430 IMCT                IMCT                                                                                                                    WMF1904305.TXT
MDEDK4360573201905                D89828070100PV1D20190508000060SPEAKER ASM                   M IMCTM S5MB11 TNTH  09020IMCT  S5 PTB  00004                    2230 SR        000000000000 DENSO TEN (THAILAND)190J89L0003003190K85L0004004                                                                                                                *          20190430 IMCT                IMCT                                                                                                                    WMF1904305.TXT
MDEDK4360574201905                D89828070100PV4D20190507000030SPEAKER ASM                   M IMCTM S0FL05 TNTH  09020IMCT  S0 PTB  00004                    2230 SR        000000000000 DENSO TEN (THAILAND)190H19U0005005                                                                                                                              *          20190430 IMCT                IMCT                                                                                                                    WMF1904305.TXT
MDEDK4360575201905                D89828070100PV4D20190508000030SPEAKER ASM                   M IMCTM S0FL05 TNTH  09020IMCT  S0 PTB  00004                    1300 SR        000000000000 DENSO TEN (THAILAND)190H19U0006006                                                                                                                              *          20190430 IMCT                IMCT                                                                                                                    WMF1904305.TXT
MDEDK4360576201905                D89828070100PV4D20190508000030SPEAKER ASM                   M IMCTM S0FL05 TNTH  09020IMCT  S0 PTB  00004                    1600 SR        000000000000 DENSO TEN (THAILAND)190G19U0004004                                                                                                                              *          20190430 IMCT                IMCT                                                                                                                    WMF1904305.TXT
MDEDK4360577201905                D89828070100PV4D20190508000030SPEAKER ASM                   M IMCTM S0FL05 TNTH  09020IMCT  S0 PTB  00004                    2230 SR        000000000000 DENSO TEN (THAILAND)190H17U0019019                                                                                                                              *          20190430 IMCT                IMCT                                                                                                                    WMF1904305.TXT
MDEDK4360578201905                D89828070200PV1D20190508000060SPEAKER ASM                   M IMCTM S5MA14 TNTH  09020IMCT  S5 PTB  00005                    0230 SR        000000000000 DENSO TEN (THAILAND)190J08L0005006                                                                                                                              *          20190430 IMCT                IMCT                                                                                                                    WMF1904305.TXT
MDEDK4360579201905                D89828070200PV1D20190508000060SPEAKER ASM                   M IMCTM S5MA14 TNTH  09020IMCT  S5 PTB  00005                    1030 SR        000000000000 DENSO TEN (THAILAND)190F98L0007008                                                                                                                              *          20190430 IMCT                IMCT                                                                                                                    WMF1904305.TXT
MDEDK4360580201905                D89828070200PV1D20190508000060SPEAKER ASM                   M IMCTM S5MA14 TNTH  09020IMCT  S5 PTB  00005                    1600 SR        000000000000 DENSO TEN (THAILAND)190H12L0006007                                                                                                                              *          20190430 IMCT                IMCT                                                                                                                    WMF1904305.TXT
MDEDK4360581201905                D89828070200PV1D20190508000030SPEAKER ASM                   M IMCTM S5MA14 TNTH  09020IMCT  S5 PTB  00005                    2100 SR        000000000000 DENSO TEN (THAILAND)190G21L0063063                                                                                                                              *          20190430 IMCT                IMCT                                                                                                                    WMF1904305.TXT
MDEDK4360582201905                D89828070200PV1D20190508000030SPEAKER ASM                   M IMCTM S5MA14 TNTH  09020IMCT  S5 PTB  00005                    2230 SR        000000000000 DENSO TEN (THAILAND)190K85L0004004                                                                                                                              *          20190430 IMCT                IMCT                                                                                                                    WMF1904305.TXT
MDEDK4360583201905                D89828070200PV4D20190507000030SPEAKER ASM                   M IMCTM S0FR05 TNTH  09020IMCT  S0 PTB  00005                    2230 SR        000000000000 DENSO TEN (THAILAND)190H19U0005005                                                                                                                              *          20190430 IMCT                IMCT                                                                                                                    WMF1904305.TXT
MDEDK4360584201905                D89828070200PV4D20190508000030SPEAKER ASM                   M IMCTM S0FR05 TNTH  09020IMCT  S0 PTB  00005                    1300 SR        000000000000 DENSO TEN (THAILAND)190H19U0006006                                                                                                                              *          20190430 IMCT                IMCT                                                                                                                    WMF1904305.TXT
MDEDK4360585201905                D89828070200PV4D20190508000030SPEAKER ASM                   M IMCTM S0FR05 TNTH  09020IMCT  S0 PTB  00005                    1600 SR        000000000000 DENSO TEN (THAILAND)190G19U0004004                                                                                                                              *          20190430 IMCT                IMCT                                                                                                                    WMF1904305.TXT
MDEDK4360586201905                D89828070200PV4D20190508000030SPEAKER ASM                   M IMCTM S0FR05 TNTH  09020IMCT  S0 PTB  00005                    2230 SR        000000000000 DENSO TEN (THAILAND)190H17U0019019                                                                                                                              *          20190430 IMCT                IMCT                                                                                                                    WMF1904305.TXT
MDEDK4360587201905                D89828070300PT1D20190507000030SPEAKER ASM                   M IMCTM S5NB082TNTH  09020IMCT  S5 PTB  00015                    2230 SR        000000000000 DENSO TEN (THAILAND)190H56L0014014                                                                                                                              *          20190430 IMCT                IMCT                                                                                                                    WMF1904305.TXT
MDEDK4360588201905                D89828070300PT1D20190508000060SPEAKER ASM                   M IMCTM S5NB082TNTH  09020IMCT  S5 PTB  00015                    0230 SR        000000000000 DENSO TEN (THAILAND)190J08L0005006                                                                                                                              *          20190430 IMCT                IMCT                                                                                                                    WMF1904305.TXT
MDEDK4360589201905                D89828070300PT1D20190508000060SPEAKER ASM                   M IMCTM S5NB082TNTH  09020IMCT  S5 PTB  00015                    0400 SR        000000000000 DENSO TEN (THAILAND)190H71L0024025                                                                                                                              *          20190430 IMCT                IMCT                                                                                                                    WMF1904305.TXT
MDEDK4360590201905                D89828070300PT1D20190508000060SPEAKER ASM                   M IMCTM S5NB082TNTH  09020IMCT  S5 PTB  00015                    1030 SR        000000000000 DENSO TEN (THAILAND)190F98L0007008                                                                                                                              *          20190430 IMCT                IMCT                                                                                                                    WMF1904305.TXT
MDEDK4360591201905                D89828070300PT1D20190508000030SPEAKER ASM                   M IMCTM S5NB082TNTH  09020IMCT  S5 PTB  00015                    1300 SR        000000000000 DENSO TEN (THAILAND)190H71L0026026                                                                                                                              *          20190430 IMCT                IMCT                                                                                                                    WMF1904305.TXT
MDEDK4360592201905                D89828070300PT1D20190508000120SPEAKER ASM                   M IMCTM S5NB082TNTH  09020IMCT  S5 PTB  00015                    1600 SR        000000000000 DENSO TEN (THAILAND)190H12L0006007190H71L0027028                                                                                                                *          20190430 IMCT                IMCT                                                                                                                    WMF1904305.TXT
MDEDK4360593201905                D89828070300PT1D20190508000030SPEAKER ASM                   M IMCTM S5NB082TNTH  09020IMCT  S5 PTB  00015                    2100 SR        000000000000 DENSO TEN (THAILAND)190G21L0063063                                                                                                                              *          20190430 IMCT                IMCT                                                                                                                    WMF1904305.TXT
MDEDK4360594201905                D89828070300PT1D20190508000030SPEAKER ASM                   M IMCTM S5NB082TNTH  09020IMCT  S5 PTB  00015                    2230 SR        000000000000 DENSO TEN (THAILAND)190K85L0004004                                                                                                                              *          20190430 IMCT                IMCT                                                                                                                    WMF1904305.TXT
MDEDK4360595201905                D89828070300PT4D20190507000030SPEAKER ASM                   M IMCTM S9TS02 TNTH  09020IMCT  S9 PTB  00015                    2230 SR        000000000000 DENSO TEN (THAILAND)190H19U0005005                                                                                                                              *          20190430 IMCT                IMCT                                                                                                                    WMF1904305.TXT
MDEDK4360596201905                D89828070300PT4D20190508000030SPEAKER ASM                   M IMCTM S9TS02 TNTH  09020IMCT  S9 PTB  00015                    1300 SR        000000000000 DENSO TEN (THAILAND)190H19U0006006                                                                                                                              *          20190430 IMCT                IMCT                                                                                                                    WMF1904305.TXT
MDEDK4360597201905                D89828070300PT4D20190508000030SPEAKER ASM                   M IMCTM S9TS02 TNTH  09020IMCT  S9 PTB  00015                    1600 SR        000000000000 DENSO TEN (THAILAND)190G19U0004004                                                                                                                              *          20190430 IMCT                IMCT                                                                                                                    WMF1904305.TXT
MDEDK4360598201905                D89828070300PT4D20190508000030SPEAKER ASM                   M IMCTM S9TS02 TNTH  09020IMCT  S9 PTB  00015                    2230 SR        000000000000 DENSO TEN (THAILAND)190H17U0019019                                                                                                                              *          20190430 IMCT                IMCT                                                                                                                    WMF1904305.TXT
MDEDK4360599201905                D89831228800PT1D20190508000030RADIO;AM/FM,CD                M IMCTM S5NC06 TNTH  09020IMCT  S5 PTB  00003                    1600 SR        000000000000 DENSO TEN (THAILAND)190H12L0006007                                                                                                                              *          20190430 IMCT                IMCT                                                                                                                    WMF1904305.TXT
MDEDK4360600201905                D89831229010PT1D20190508000015RADIO;AM/FM,CD                M IMCTM S5NC06 TNTH  09020IMCT  S5 PTB  00003                    2230 SR        000000000000 DENSO TEN (THAILAND)190K85L0004004                                                                                                                              *          20190430 IMCT                IMCT                                                                                                                    WMF1904305.TXT
MDEDK4360601201905                D89848582100PT4D20190508000015RADIO;AM/FM CD D              M IMCTM S9CO001TNTH  09020IMCT  S9 PTB  00003                    2230 SR        000000000000 DENSO TEN (THAILAND)190H17U0019019                                                                                                                              *          20190430 IMCT                IMCT                                                                                                                    WMF1904305.TXT
MDEUK4275406201905                D89752845400PT4U20190508000015RADIO;AM FM,CD D              M IMCTM S9AD002TNTH  09020IMCT  S9 PTB  00003                    0400 SR        000000000000 DENSO TEN (THAILAND)190G29U0015015                                                                                                                              *          20190430 IMCT                IMCT                                                                                                                    WMF1904305.TXT
MDEUK4275407201905                D89752845400PT4U20190508000015RADIO;AM FM,CD D              M IMCTM S9AD002TNTH  09020IMCT  S9 PTB  00003                    1600 SR        000000000000 DENSO TEN (THAILAND)190G24U0014014                                                                                                                              *          20190430 IMCT                IMCT                                                                                                                    WMF1904305.TXT
MDEUK4275408201905                D89828070100PT4U20190508000030SPEAKER ASM                   M IMCTM S0FL05 TNTH  09020IMCT  S0 PTB  00004                    0230 SR        000000000000 DENSO TEN (THAILAND)190G77U0030030                                                                                                                              *          20190430 IMCT                IMCT                                                                                                                    WMF1904305.TXT
MDEUK4275409201905                D89828070100PT4U20190508000030SPEAKER ASM                   M IMCTM S0FL05 TNTH  09020IMCT  S0 PTB  00004                    0400 SR        000000000000 DENSO TEN (THAILAND)190G29U0015015                                                                                                                              *          20190430 IMCT                IMCT                                                                                                                    WMF1904305.TXT
MDEUK4275410201905                D89828070100PT4U20190508000030SPEAKER ASM                   M IMCTM S0FL05 TNTH  09020IMCT  S0 PTB  00004                    1030 SR        000000000000 DENSO TEN (THAILAND)190G32U0093093                                                                                                                              *          20190430 IMCT                IMCT                                                                                                                    WMF1904305.TXT
MDEUK4275411201905                D89828070100PT4U20190508000060SPEAKER ASM                   M IMCTM S0FL05 TNTH  09020IMCT  S0 PTB  00004                    1600 SR        000000000000 DENSO TEN (THAILAND)190G24U0014014190G31U0059059                                                                                                                *          20190430 IMCT                IMCT                                                                                                                    WMF1904305.TXT
MDEUK4275412201905                D89828070100PT4U20190508000030SPEAKER ASM                   M IMCTM S0FL05 TNTH  09020IMCT  S0 PTB  00004                    2100 SR        000000000000 DENSO TEN (THAILAND)190G77U0031031                                                                                                                              *          20190430 IMCT                IMCT                                                                                                                    WMF1904305.TXT
MDEUK4275413201905                D89828070200PV4U20190508000030SPEAKER ASM                   M IMCTM S0FR05 TNTH  09020IMCT  S0 PTB  00005                    0230 SR        000000000000 DENSO TEN (THAILAND)190G77U0030030                                                                                                                              *          20190430 IMCT                IMCT                                                                                                                    WMF1904305.TXT
MDEUK4275414201905                D89828070200PV4U20190508000030SPEAKER ASM                   M IMCTM S0FR05 TNTH  09020IMCT  S0 PTB  00005                    0400 SR        000000000000 DENSO TEN (THAILAND)190G29U0015015                                                                                                                              *          20190430 IMCT                IMCT                                                                                                                    WMF1904305.TXT
MDEUK4275415201905                D89828070200PV4U20190508000030SPEAKER ASM                   M IMCTM S0FR05 TNTH  09020IMCT  S0 PTB  00005                    1030 SR        000000000000 DENSO TEN (THAILAND)190G32U0093093                                                                                                                              *          20190430 IMCT                IMCT                                                                                                                    WMF1904305.TXT
MDEUK4275416201905                D89828070200PV4U20190508000060SPEAKER ASM                   M IMCTM S0FR05 TNTH  09020IMCT  S0 PTB  00005                    1600 SR        000000000000 DENSO TEN (THAILAND)190G24U0014014190G31U0059059                                                                                                                *          20190430 IMCT                IMCT                                                                                                                    WMF1904305.TXT
MDEUK4275417201905                D89828070200PV4U20190508000030SPEAKER ASM                   M IMCTM S0FR05 TNTH  09020IMCT  S0 PTB  00005                    2100 SR        000000000000 DENSO TEN (THAILAND)190G77U0031031                                                                                                                              *          20190430 IMCT                IMCT                                                                                                                    WMF1904305.TXT
MDEUK4275418201905                D89828070300PT4U20190508000030SPEAKER ASM                   M IMCTM S9TS02 TNTH  09020IMCT  S9 PTB  00015                    0230 SR        000000000000 DENSO TEN (THAILAND)190G77U0030030                                                                                                                              *          20190430 IMCT                IMCT                                                                                                                    WMF1904305.TXT
MDEUK4275419201905                D89828070300PT4U20190508000030SPEAKER ASM                   M IMCTM S9TS02 TNTH  09020IMCT  S9 PTB  00015                    0400 SR        000000000000 DENSO TEN (THAILAND)190G29U0015015                                                                                                                              *          20190430 IMCT                IMCT                                                                                                                    WMF1904305.TXT
MDEUK4275420201905                D89828070300PT4U20190508000030SPEAKER ASM                   M IMCTM S9TS02 TNTH  09020IMCT  S9 PTB  00015                    1030 SR        000000000000 DENSO TEN (THAILAND)190G32U0093093                                                                                                                              *          20190430 IMCT                IMCT                                                                                                                    WMF1904305.TXT
MDEUK4275421201905                D89828070300PT4U20190508000060SPEAKER ASM                   M IMCTM S9TS02 TNTH  09020IMCT  S9 PTB  00015                    1600 SR        000000000000 DENSO TEN (THAILAND)190G24U0014014190G31U0059059                                                                                                                *          20190430 IMCT                IMCT                                                                                                                    WMF1904305.TXT
MDEUK4275422201905                D89828070300PT4U20190508000030SPEAKER ASM                   M IMCTM S9TS02 TNTH  09020IMCT  S9 PTB  00015                    2100 SR        000000000000 DENSO TEN (THAILAND)190G77U0031031                                                                                                                              *          20190430 IMCT                IMCT                                                                                                                    WMF1904305.TXT
