REC2019042020190420ISUZU                              16     
MDEBK4T03346201904                D89828070100PT4B20190425000030SPEAKER ASM                   M IMCTM S7FL05 TNTH  09020IMCT  S7 PTB  00004                    1600 SR        000000000000 DENSO TEN (THAILAND)190F58R0001   190F59R0036   Z190405701    Z190405715    000000                                                                              *R         20190420 IMCT                IMCT                                                                                                                    RMF1904204.TXT
MDEBK4T03347201904                D89828070200PV4B20190425000030SPEAKER ASM                   M IMCTM S7FL05 TNTH  09020IMCT  S7 PTB  00005                    1600 SR        000000000000 DENSO TEN (THAILAND)190F58R0001   190F59R0036   Z190405701    Z190405715    000000                                                                              *R         20190420 IMCT                IMCT                                                                                                                    RMF1904204.TXT
MDEBK4T03348201904                D89828070300PT4B20190425000030SPEAKER ASM                   M IMCTM S7TS02 TNTH  09020IMCT  S7 PTB  00015                    1600 SR        000000000000 DENSO TEN (THAILAND)190F58R0001   190F59R0036   Z190405701    Z190405715    000000                                                                              *R         20190420 IMCT                IMCT                                                                                                                    RMF1904204.TXT
MDEFK4T15861201904                D89750126100PT4F20190425000002RADIO;AM/FM CD D              M IMCTM S7TS01 TNTH  09020IMCT  S7 PTB  00003                    0830 SR        000000000000 DENSO TEN (THAILAND)190D09R0032   190D10R0033   D190405512    D190405513    000000                                                                              *R         20190420 IMCT                IMCT                                                                                                                    RMF1904204.TXT
MDEFK4T15862201904                D89828070100PV4F20190425000006SPEAKER ASM                   M IMCTM S7FL05 TNTH  09020IMCT  S7 PTB  00004                    1600 SR        000000000000 DENSO TEN (THAILAND)190J96R0033   190J96R0035   H190405613    H190405615    000000                                                                              *R         20190420 IMCT                IMCT                                                                                                                    RMF1904204.TXT
MDEFK4T15863201904                D89828070200PV4F20190425000002SPEAKER ASM                   M IMCTM S7FL05 TNTH  09020IMCT  S7 PTB  00005                    1030 SR        000000000000 DENSO TEN (THAILAND)190D41R0011   190D41R0011   D190405515    D190405515    000000                                                                              *R         20190420 IMCT                IMCT                                                                                                                    RMF1904204.TXT
MDEFK4T15864201904                D89828070300PT4F20190425000022SPEAKER ASM                   M IMCTM S7TS02 TNTH  09020IMCT  S7 PTB  00015                    0830 SR        000000000000 DENSO TEN (THAILAND)190H19R0017   190D41R0011   D190405505    D190405515    000000                                                                              *R         20190420 IMCT                IMCT                                                                                                                    RMF1904204.TXT
MDEFK4T15865201904                D89838031200PT4F20190424000003RADIO;ASM DVD                 M IMCTM S7TS03 TNTH  09020IMCT  S7 PTB  00003                    2230 SR        000000000000 DENSO TEN (THAILAND)190G57R0008   190G57R0010   D190405405    D190405407    000000                                                                              *R         20190420 IMCT                IMCT                                                                                                                    RMF1904204.TXT
MDEFK4T15866201904                D89848582100PT4F20190424000003RADIO;AM/FM CD D              M IMCTM S7TS01 TNTH  09020IMCT  S7 PTB  00003                    2230 SR        000000000000 DENSO TEN (THAILAND)190H15R0005   190H23R0009   D190405408    D190405507    000000                                                                              *R         20190420 IMCT                IMCT                                                                                                                    RMF1904204.TXT
MDEFK4246789201904                D89828070100PV4F20190424000032SPEAKER ASM                   M IMCTM S7FL05 TNTH  09020IMCT  S7 PTB  00004                    2230 SR        000000000000 DENSO TEN (THAILAND)190G55R0022   190H19R0013   D190405401    D190405501    000000                                                                              *R         20190420 IMCT                IMCT                                                                                                                    RMF1904204.TXT
MDEFK4246790201904                D89828070100PV4F20190425000024SPEAKER ASM                   M IMCTM S7FL05 TNTH  09020IMCT  S7 PTB  00004                    0830 SR        000000000000 DENSO TEN (THAILAND)190H19R0014   190D10R0033   D190405502    D190405513    000000                                                                              *R         20190420 IMCT                IMCT                                                                                                                    RMF1904204.TXT
MDEFK4246791201904                D89828070100PV4F20190425000004SPEAKER ASM                   M IMCTM S7FL05 TNTH  09020IMCT  S7 PTB  00004                    1030 SR        000000000000 DENSO TEN (THAILAND)190D41R0010   190D41R0011   D190405514    D190405515    000000                                                                              *R         20190420 IMCT                IMCT                                                                                                                    RMF1904204.TXT
MDEFK4246792201904                D89828070100PV4F20190425000024SPEAKER ASM                   M IMCTM S7FL05 TNTH  09020IMCT  S7 PTB  00004                    1300 SR        000000000000 DENSO TEN (THAILAND)190J94R0058   190J96R0032   H190405601    H190405612    000000                                                                              *R         20190420 IMCT                IMCT                                                                                                                    RMF1904204.TXT
MDEFK4246793201904                D89828070200PV4F20190424000025SPEAKER ASM                   M IMCTM S7FL05 TNTH  09020IMCT  S7 PTB  00005                    2230 SR        000000000000 DENSO TEN (THAILAND)190G57R0008   190H19R0014   D190405405    D190405502    000000                                                                              *R         20190420 IMCT                IMCT                                                                                                                    RMF1904204.TXT
MDEFK4246794201904                D89828070200PV4F20190425000025SPEAKER ASM                   M IMCTM S7FL05 TNTH  09020IMCT  S7 PTB  00005                    0830 SR        000000000000 DENSO TEN (THAILAND)190H19R0014   190D41R0010   D190405502    D190405514    000000                                                                              *R         20190420 IMCT                IMCT                                                                                                                    RMF1904204.TXT
MDEFK4246795201904                D89828070300PT4F20190424000030SPEAKER ASM                   M IMCTM S7TS02 TNTH  09020IMCT  S7 PTB  00015                    2230 SR        000000000000 DENSO TEN (THAILAND)190G57R0008   190H19R0016   D190405405    D190405504    000000                                                                              *R         20190420 IMCT                IMCT                                                                                                                    RMF1904204.TXT
