REC2019040920190409ISUZU                              67     
MDDDK4243857201904                D89821984430PT1D20190420000030RADIO;AM/FM,CD                M IMCTM S5NC06 TNTH  09020IMCT  S5 PTB  00005                    0830 SR        000000000000 DENSO TEN (THAILAND)190MNGL0125125                                                                                                                              *          20190409 IMCT                IMCT                                                                                                                    WMF1904094.TXT
MDDDK4243858201904                D89821984430PT1D20190420000030RADIO;AM/FM,CD                M IMCTM S5NC06 TNTH  09020IMCT  S5 PTB  00005                    1600 SR        000000000000 DENSO TEN (THAILAND)190MNGL0126126                                                                                                                              *          20190409 IMCT                IMCT                                                                                                                    WMF1904094.TXT
MDDDK4243859201904                D89821984430PT1D20190420000030RADIO;AM/FM,CD                M IMCTM S5NC06 TNTH  09020IMCT  S5 PTB  00005                    2100 SR        000000000000 DENSO TEN (THAILAND)190MXEL0053053                                                                                                                              *          20190409 IMCT                IMCT                                                                                                                    WMF1904094.TXT
MDDDK4243860201904                D89828070100PV1D20190420000060SPEAKER ASM                   M IMCTM S5MB11 TNTH  09020IMCT  S5 PTB  00004                    0400 SR        000000000000 DENSO TEN (THAILAND)190MPKL0038038                                                                                                                              *          20190409 IMCT                IMCT                                                                                                                    WMF1904094.TXT
MDDDK4243861201904                D89828070100PV1D20190420000060SPEAKER ASM                   M IMCTM S5MB11 TNTH  09020IMCT  S5 PTB  00004                    0830 SR        000000000000 DENSO TEN (THAILAND)190MNGL0125125                                                                                                                              *          20190409 IMCT                IMCT                                                                                                                    WMF1904094.TXT
MDDDK4243862201904                D89828070100PV1D20190420000120SPEAKER ASM                   M IMCTM S5MB11 TNTH  09020IMCT  S5 PTB  00004                    1300 SR        000000000000 DENSO TEN (THAILAND)190MRVL0004004190MXAL0043043                                                                                                                *          20190409 IMCT                IMCT                                                                                                                    WMF1904094.TXT
MDDDK4243863201904                D89828070100PV1D20190420000060SPEAKER ASM                   M IMCTM S5MB11 TNTH  09020IMCT  S5 PTB  00004                    1600 SR        000000000000 DENSO TEN (THAILAND)190MNGL0126126                                                                                                                              *          20190409 IMCT                IMCT                                                                                                                    WMF1904094.TXT
MDDDK4243864201904                D89828070100PV1D20190420000060SPEAKER ASM                   M IMCTM S5MB11 TNTH  09020IMCT  S5 PTB  00004                    2100 SR        000000000000 DENSO TEN (THAILAND)190MXEL0053053                                                                                                                              *          20190409 IMCT                IMCT                                                                                                                    WMF1904094.TXT
MDDDK4243865201904                D89828070200PV1D20190420000060SPEAKER ASM                   M IMCTM S5MA14 TNTH  09020IMCT  S5 PTB  00005                    1300 SR        000000000000 DENSO TEN (THAILAND)190MRVL0004004                                                                                                                              *          20190409 IMCT                IMCT                                                                                                                    WMF1904094.TXT
MDDDK4243866201904                D89828070300PT1D20190420000060SPEAKER ASM                   M IMCTM S5NB082TNTH  09020IMCT  S5 PTB  00015                    0400 SR        000000000000 DENSO TEN (THAILAND)190MPKL0038038                                                                                                                              *          20190409 IMCT                IMCT                                                                                                                    WMF1904094.TXT
MDDDK4243867201904                D89828070300PT1D20190420000060SPEAKER ASM                   M IMCTM S5NB082TNTH  09020IMCT  S5 PTB  00015                    1300 SR        000000000000 DENSO TEN (THAILAND)190MRVL0004004                                                                                                                              *          20190409 IMCT                IMCT                                                                                                                    WMF1904094.TXT
MDDDK4243868201904                D89848581600PT1D20190420000030RADIO;AM/FM CD D              M IMCTM S5NC06 TNTH  09020IMCT  S5 PTB  00003                    0400 SR        000000000000 DENSO TEN (THAILAND)190MPKL0038038                                                                                                                              *          20190409 IMCT                IMCT                                                                                                                    WMF1904094.TXT
MDDUK4224256201904                D89828070100PT4U20190420000030SPEAKER ASM                   M IMCTM S0FL05 TNTH  09020IMCT  S0 PTB  00004                    0400 SR        000000000000 DENSO TEN (THAILAND)190MUGU0066066                                                                                                                              *          20190409 IMCT                IMCT                                                                                                                    WMF1904094.TXT
MDDUK4224257201904                D89828070100PT4U20190420000030SPEAKER ASM                   M IMCTM S0FL05 TNTH  09020IMCT  S0 PTB  00004                    0830 SR        000000000000 DENSO TEN (THAILAND)190MUGU0067067                                                                                                                              *          20190409 IMCT                IMCT                                                                                                                    WMF1904094.TXT
MDDUK4224258201904                D89828070100PT4U20190420000030SPEAKER ASM                   M IMCTM S0FL05 TNTH  09020IMCT  S0 PTB  00004                    1600 SR        000000000000 DENSO TEN (THAILAND)190MUEU0111111                                                                                                                              *          20190409 IMCT                IMCT                                                                                                                    WMF1904094.TXT
MDDUK4224259201904                D89828070100PT4U20190420000030SPEAKER ASM                   M IMCTM S0FL05 TNTH  09020IMCT  S0 PTB  00004                    2100 SR        000000000000 DENSO TEN (THAILAND)190MUGU0068068                                                                                                                              *          20190409 IMCT                IMCT                                                                                                                    WMF1904094.TXT
MDDUK4224260201904                D89828070200PV4U20190420000030SPEAKER ASM                   M IMCTM S0FR05 TNTH  09020IMCT  S0 PTB  00005                    0400 SR        000000000000 DENSO TEN (THAILAND)190MUGU0066066                                                                                                                              *          20190409 IMCT                IMCT                                                                                                                    WMF1904094.TXT
MDDUK4224261201904                D89828070200PV4U20190420000030SPEAKER ASM                   M IMCTM S0FR05 TNTH  09020IMCT  S0 PTB  00005                    0830 SR        000000000000 DENSO TEN (THAILAND)190MUGU0067067                                                                                                                              *          20190409 IMCT                IMCT                                                                                                                    WMF1904094.TXT
MDDUK4224262201904                D89828070200PV4U20190420000030SPEAKER ASM                   M IMCTM S0FR05 TNTH  09020IMCT  S0 PTB  00005                    1600 SR        000000000000 DENSO TEN (THAILAND)190MUEU0111111                                                                                                                              *          20190409 IMCT                IMCT                                                                                                                    WMF1904094.TXT
MDDUK4224263201904                D89828070200PV4U20190420000030SPEAKER ASM                   M IMCTM S0FR05 TNTH  09020IMCT  S0 PTB  00005                    2100 SR        000000000000 DENSO TEN (THAILAND)190MUGU0068068                                                                                                                              *          20190409 IMCT                IMCT                                                                                                                    WMF1904094.TXT
MDDUK4224264201904                D89828070300PT4U20190420000030SPEAKER ASM                   M IMCTM S9TS02 TNTH  09020IMCT  S9 PTB  00015                    0400 SR        000000000000 DENSO TEN (THAILAND)190MUGU0066066                                                                                                                              *          20190409 IMCT                IMCT                                                                                                                    WMF1904094.TXT
MDDUK4224265201904                D89828070300PT4U20190420000030SPEAKER ASM                   M IMCTM S9TS02 TNTH  09020IMCT  S9 PTB  00015                    0830 SR        000000000000 DENSO TEN (THAILAND)190MUGU0067067                                                                                                                              *          20190409 IMCT                IMCT                                                                                                                    WMF1904094.TXT
MDDUK4224266201904                D89828070300PT4U20190420000030SPEAKER ASM                   M IMCTM S9TS02 TNTH  09020IMCT  S9 PTB  00015                    1600 SR        000000000000 DENSO TEN (THAILAND)190MUEU0111111                                                                                                                              *          20190409 IMCT                IMCT                                                                                                                    WMF1904094.TXT
MDDUK4224267201904                D89828070300PT4U20190420000030SPEAKER ASM                   M IMCTM S9TS02 TNTH  09020IMCT  S9 PTB  00015                    2100 SR        000000000000 DENSO TEN (THAILAND)190MUGU0068068                                                                                                                              *          20190409 IMCT                IMCT                                                                                                                    WMF1904094.TXT
MDEDK4257882201904                D89752845100PT1D20190420000015RADIO;AM FM,CD D              M IMCTM S5NC06 TNTH  09020IMCT  S5 PTB  00003                    0230 SR        000000000000 DENSO TEN (THAILAND)190F95L0012012                                                                                                                              *          20190409 IMCT                IMCT                                                                                                                    WMF1904094.TXT
MDEDK4257883201904                D89752845100PT1D20190420000030RADIO;AM FM,CD D              M IMCTM S5NC06 TNTH  09020IMCT  S5 PTB  00003                    0400 SR        000000000000 DENSO TEN (THAILAND)190F91L0018019                                                                                                                              *          20190409 IMCT                IMCT                                                                                                                    WMF1904094.TXT
MDEDK4257884201904                D89828070100PV1D20190420000060SPEAKER ASM                   M IMCTM S5MB11 TNTH  09020IMCT  S5 PTB  00004                    0230 SR        000000000000 DENSO TEN (THAILAND)190F95L0012012190H55L0001001                                                                                                                *          20190409 IMCT                IMCT                                                                                                                    WMF1904094.TXT
MDEDK4257885201904                D89828070100PV1D20190420000150SPEAKER ASM                   M IMCTM S5MB11 TNTH  09020IMCT  S5 PTB  00004                    0400 SR        000000000000 DENSO TEN (THAILAND)190F91L0018019190H11L0019019190H26L0010011                                                                                                  *          20190409 IMCT                IMCT                                                                                                                    WMF1904094.TXT
MDEDK4257886201904                D89828070100PV1D20190420000030SPEAKER ASM                   M IMCTM S5MB11 TNTH  09020IMCT  S5 PTB  00004                    0830 SR        000000000000 DENSO TEN (THAILAND)190H11L0020020                                                                                                                              *          20190409 IMCT                IMCT                                                                                                                    WMF1904094.TXT
MDEDK4257887201904                D89828070100PV1D20190420000060SPEAKER ASM                   M IMCTM S5MB11 TNTH  09020IMCT  S5 PTB  00004                    1030 SR        000000000000 DENSO TEN (THAILAND)190H29L0014015                                                                                                                              *          20190409 IMCT                IMCT                                                                                                                    WMF1904094.TXT
MDEDK4257888201904                D89828070100PV1D20190420000060SPEAKER ASM                   M IMCTM S5MB11 TNTH  09020IMCT  S5 PTB  00004                    1300 SR        000000000000 DENSO TEN (THAILAND)190H54L0002003                                                                                                                              *          20190409 IMCT                IMCT                                                                                                                    WMF1904094.TXT
MDEDK4257889201904                D89828070100PV1D20190420000030SPEAKER ASM                   M IMCTM S5MB11 TNTH  09020IMCT  S5 PTB  00004                    1600 SR        000000000000 DENSO TEN (THAILAND)190H11L0021021                                                                                                                              *          20190409 IMCT                IMCT                                                                                                                    WMF1904094.TXT
MDEDK4257890201904                D89828070100PV1D20190420000030SPEAKER ASM                   M IMCTM S5MB11 TNTH  09020IMCT  S5 PTB  00004                    2100 SR        000000000000 DENSO TEN (THAILAND)190H04L0021021                                                                                                                              *          20190409 IMCT                IMCT                                                                                                                    WMF1904094.TXT
MDEDK4257891201904                D89828070100PV1D20190420000030SPEAKER ASM                   M IMCTM S5MB11 TNTH  09020IMCT  S5 PTB  00004                    2230 SR        000000000000 DENSO TEN (THAILAND)190H21L0010010                                                                                                                              *          20190409 IMCT                IMCT                                                                                                                    WMF1904094.TXT
MDEDK4257892201904                D89828070100PV4D20190420000030SPEAKER ASM                   M IMCTM S0FL05 TNTH  09020IMCT  S0 PTB  00004                    0400 SR        000000000000 DENSO TEN (THAILAND)190J24U0003003                                                                                                                              *          20190409 IMCT                IMCT                                                                                                                    WMF1904094.TXT
MDEDK4257893201904                D89828070100PV4D20190420000030SPEAKER ASM                   M IMCTM S0FL05 TNTH  09020IMCT  S0 PTB  00004                    1300 SR        000000000000 DENSO TEN (THAILAND)190J22U0001001                                                                                                                              *          20190409 IMCT                IMCT                                                                                                                    WMF1904094.TXT
MDEDK4257894201904                D89828070200PV1D20190420000030SPEAKER ASM                   M IMCTM S5MA14 TNTH  09020IMCT  S5 PTB  00005                    0230 SR        000000000000 DENSO TEN (THAILAND)190F95L0012012                                                                                                                              *          20190409 IMCT                IMCT                                                                                                                    WMF1904094.TXT
MDEDK4257895201904                D89828070200PV1D20190420000060SPEAKER ASM                   M IMCTM S5MA14 TNTH  09020IMCT  S5 PTB  00005                    0400 SR        000000000000 DENSO TEN (THAILAND)190H26L0010011                                                                                                                              *          20190409 IMCT                IMCT                                                                                                                    WMF1904094.TXT
MDEDK4257896201904                D89828070200PV1D20190420000060SPEAKER ASM                   M IMCTM S5MA14 TNTH  09020IMCT  S5 PTB  00005                    1030 SR        000000000000 DENSO TEN (THAILAND)190H29L0014015                                                                                                                              *          20190409 IMCT                IMCT                                                                                                                    WMF1904094.TXT
MDEDK4257897201904                D89828070200PV1D20190420000030SPEAKER ASM                   M IMCTM S5MA14 TNTH  09020IMCT  S5 PTB  00005                    2230 SR        000000000000 DENSO TEN (THAILAND)190H21L0010010                                                                                                                              *          20190409 IMCT                IMCT                                                                                                                    WMF1904094.TXT
MDEDK4257898201904                D89828070200PV4D20190420000030SPEAKER ASM                   M IMCTM S0FR05 TNTH  09020IMCT  S0 PTB  00005                    0400 SR        000000000000 DENSO TEN (THAILAND)190J24U0003003                                                                                                                              *          20190409 IMCT                IMCT                                                                                                                    WMF1904094.TXT
MDEDK4257899201904                D89828070200PV4D20190420000030SPEAKER ASM                   M IMCTM S0FR05 TNTH  09020IMCT  S0 PTB  00005                    1300 SR        000000000000 DENSO TEN (THAILAND)190J22U0001001                                                                                                                              *          20190409 IMCT                IMCT                                                                                                                    WMF1904094.TXT
MDEDK4257900201904                D89828070300PT1D20190420000060SPEAKER ASM                   M IMCTM S5NB082TNTH  09020IMCT  S5 PTB  00015                    0230 SR        000000000000 DENSO TEN (THAILAND)190F95L0012012190H55L0001001                                                                                                                *          20190409 IMCT                IMCT                                                                                                                    WMF1904094.TXT
MDEDK4257901201904                D89828070300PT1D20190420000120SPEAKER ASM                   M IMCTM S5NB082TNTH  09020IMCT  S5 PTB  00015                    0400 SR        000000000000 DENSO TEN (THAILAND)190F91L0018019190H26L0010011                                                                                                                *          20190409 IMCT                IMCT                                                                                                                    WMF1904094.TXT
MDEDK4257902201904                D89828070300PT1D20190420000060SPEAKER ASM                   M IMCTM S5NB082TNTH  09020IMCT  S5 PTB  00015                    1030 SR        000000000000 DENSO TEN (THAILAND)190H29L0014015                                                                                                                              *          20190409 IMCT                IMCT                                                                                                                    WMF1904094.TXT
MDEDK4257903201904                D89828070300PT1D20190420000030SPEAKER ASM                   M IMCTM S5NB082TNTH  09020IMCT  S5 PTB  00015                    2230 SR        000000000000 DENSO TEN (THAILAND)190H21L0010010                                                                                                                              *          20190409 IMCT                IMCT                                                                                                                    WMF1904094.TXT
MDEDK4257904201904                D89828070300PT4D20190420000030SPEAKER ASM                   M IMCTM S9TS02 TNTH  09020IMCT  S9 PTB  00015                    0400 SR        000000000000 DENSO TEN (THAILAND)190J24U0003003                                                                                                                              *          20190409 IMCT                IMCT                                                                                                                    WMF1904094.TXT
MDEDK4257905201904                D89828070300PT4D20190420000030SPEAKER ASM                   M IMCTM S9TS02 TNTH  09020IMCT  S9 PTB  00015                    1300 SR        000000000000 DENSO TEN (THAILAND)190J22U0001001                                                                                                                              *          20190409 IMCT                IMCT                                                                                                                    WMF1904094.TXT
MDEDK4257906201904                D89848582100PT1D20190420000030RADIO;AM/FM CD D              M IMCTM S5NC06 TNTH  09020IMCT  S5 PTB  00003                    0400 SR        000000000000 DENSO TEN (THAILAND)190H26L0010011                                                                                                                              *          20190409 IMCT                IMCT                                                                                                                    WMF1904094.TXT
MDEDK4257907201904                D89848582100PT4D20190420000015RADIO;AM/FM CD D              M IMCTM S9CO001TNTH  09020IMCT  S9 PTB  00003                    1300 SR        000000000000 DENSO TEN (THAILAND)190J22U0001001                                                                                                                              *          20190409 IMCT                IMCT                                                                                                                    WMF1904094.TXT
MDEDK4257908201904                D89848582800PT1D20190420000015RADIO;AM/FM CD D              M IMCTM S5NC06 TNTH  09020IMCT  S5 PTB  00003                    0230 SR        000000000000 DENSO TEN (THAILAND)190H55L0001001                                                                                                                              *          20190409 IMCT                IMCT                                                                                                                    WMF1904094.TXT
MDEUK4228255201904                D89752845400PT4U20190420000015RADIO;AM FM,CD D              M IMCTM S9AD002TNTH  09020IMCT  S9 PTB  00003                    1030 SR        000000000000 DENSO TEN (THAILAND)190G29U0014014                                                                                                                              *          20190409 IMCT                IMCT                                                                                                                    WMF1904094.TXT
MDEUK4228256201904                D89828070100PT4U20190420000030SPEAKER ASM                   M IMCTM S0FL05 TNTH  09020IMCT  S0 PTB  00004                    0230 SR        000000000000 DENSO TEN (THAILAND)18043YU0016016                                                                                                                              *          20190409 IMCT                IMCT                                                                                                                    WMF1904094.TXT
MDEUK4228257201904                D89828070100PT4U20190420000030SPEAKER ASM                   M IMCTM S0FL05 TNTH  09020IMCT  S0 PTB  00004                    0400 SR        000000000000 DENSO TEN (THAILAND)190G32U0071071                                                                                                                              *          20190409 IMCT                IMCT                                                                                                                    WMF1904094.TXT
MDEUK4228258201904                D89828070100PT4U20190420000030SPEAKER ASM                   M IMCTM S0FL05 TNTH  09020IMCT  S0 PTB  00004                    1030 SR        000000000000 DENSO TEN (THAILAND)190G29U0014014                                                                                                                              *          20190409 IMCT                IMCT                                                                                                                    WMF1904094.TXT
MDEUK4228259201904                D89828070100PT4U20190420000030SPEAKER ASM                   M IMCTM S0FL05 TNTH  09020IMCT  S0 PTB  00004                    1300 SR        000000000000 DENSO TEN (THAILAND)18043YU0017017                                                                                                                              *          20190409 IMCT                IMCT                                                                                                                    WMF1904094.TXT
MDEUK4228260201904                D89828070100PT4U20190420000030SPEAKER ASM                   M IMCTM S0FL05 TNTH  09020IMCT  S0 PTB  00004                    2230 SR        000000000000 DENSO TEN (THAILAND)190G31U0038038                                                                                                                              *          20190409 IMCT                IMCT                                                                                                                    WMF1904094.TXT
MDEUK4228261201904                D89828070200PV4U20190420000030SPEAKER ASM                   M IMCTM S0FR05 TNTH  09020IMCT  S0 PTB  00005                    0230 SR        000000000000 DENSO TEN (THAILAND)18043YU0016016                                                                                                                              *          20190409 IMCT                IMCT                                                                                                                    WMF1904094.TXT
MDEUK4228262201904                D89828070200PV4U20190420000030SPEAKER ASM                   M IMCTM S0FR05 TNTH  09020IMCT  S0 PTB  00005                    0400 SR        000000000000 DENSO TEN (THAILAND)190G32U0071071                                                                                                                              *          20190409 IMCT                IMCT                                                                                                                    WMF1904094.TXT
MDEUK4228263201904                D89828070200PV4U20190420000030SPEAKER ASM                   M IMCTM S0FR05 TNTH  09020IMCT  S0 PTB  00005                    1030 SR        000000000000 DENSO TEN (THAILAND)190G29U0014014                                                                                                                              *          20190409 IMCT                IMCT                                                                                                                    WMF1904094.TXT
MDEUK4228264201904                D89828070200PV4U20190420000030SPEAKER ASM                   M IMCTM S0FR05 TNTH  09020IMCT  S0 PTB  00005                    1300 SR        000000000000 DENSO TEN (THAILAND)18043YU0017017                                                                                                                              *          20190409 IMCT                IMCT                                                                                                                    WMF1904094.TXT
MDEUK4228265201904                D89828070200PV4U20190420000030SPEAKER ASM                   M IMCTM S0FR05 TNTH  09020IMCT  S0 PTB  00005                    2230 SR        000000000000 DENSO TEN (THAILAND)190G31U0038038                                                                                                                              *          20190409 IMCT                IMCT                                                                                                                    WMF1904094.TXT
MDEUK4228266201904                D89828070300PT4U20190420000030SPEAKER ASM                   M IMCTM S9TS02 TNTH  09020IMCT  S9 PTB  00015                    0230 SR        000000000000 DENSO TEN (THAILAND)18043YU0016016                                                                                                                              *          20190409 IMCT                IMCT                                                                                                                    WMF1904094.TXT
MDEUK4228267201904                D89828070300PT4U20190420000030SPEAKER ASM                   M IMCTM S9TS02 TNTH  09020IMCT  S9 PTB  00015                    0400 SR        000000000000 DENSO TEN (THAILAND)190G32U0071071                                                                                                                              *          20190409 IMCT                IMCT                                                                                                                    WMF1904094.TXT
MDEUK4228268201904                D89828070300PT4U20190420000030SPEAKER ASM                   M IMCTM S9TS02 TNTH  09020IMCT  S9 PTB  00015                    1030 SR        000000000000 DENSO TEN (THAILAND)190G29U0014014                                                                                                                              *          20190409 IMCT                IMCT                                                                                                                    WMF1904094.TXT
MDEUK4228269201904                D89828070300PT4U20190420000030SPEAKER ASM                   M IMCTM S9TS02 TNTH  09020IMCT  S9 PTB  00015                    1300 SR        000000000000 DENSO TEN (THAILAND)18043YU0017017                                                                                                                              *          20190409 IMCT                IMCT                                                                                                                    WMF1904094.TXT
MDEUK4228270201904                D89828070300PT4U20190420000030SPEAKER ASM                   M IMCTM S9TS02 TNTH  09020IMCT  S9 PTB  00015                    2230 SR        000000000000 DENSO TEN (THAILAND)190G31U0038038                                                                                                                              *          20190409 IMCT                IMCT                                                                                                                    WMF1904094.TXT
