REC2019052520190525ISUZU                              65     
MDDDK5319070201905                D89821984430PT1D20190530000060RADIO;AM/FM,CD                M IMCTM S5NC06 TNTH  09020IMCT  S5 PTB  00005                    0400 SR        000000000000 DENSO TEN (THAILAND)190MNGL0167168                                                                                                                              *          20190525 IMCT                IMCT                                                                                                                    WMF1905253.TXT
MDDDK5319071201905                D89828070100PV1D20190530000180SPEAKER ASM                   M IMCTM S5MB11 TNTH  09020IMCT  S5 PTB  00004                    0400 SR        000000000000 DENSO TEN (THAILAND)190MNGL0167168190MPGL0161161                                                                                                                *          20190525 IMCT                IMCT                                                                                                                    WMF1905253.TXT
MDDDK5319072201905                D89828070100PV1D20190530000060SPEAKER ASM                   M IMCTM S5MB11 TNTH  09020IMCT  S5 PTB  00004                    0830 SR        000000000000 DENSO TEN (THAILAND)190MRTL0027027                                                                                                                              *          20190525 IMCT                IMCT                                                                                                                    WMF1905253.TXT
MDDDK5319073201905                D89828070100PV1D20190530000060SPEAKER ASM                   M IMCTM S5MB11 TNTH  09020IMCT  S5 PTB  00004                    1030 SR        000000000000 DENSO TEN (THAILAND)190MPGL0162162                                                                                                                              *          20190525 IMCT                IMCT                                                                                                                    WMF1905253.TXT
MDDDK5319074201905                D89828070100PV1D20190530000120SPEAKER ASM                   M IMCTM S5MB11 TNTH  09020IMCT  S5 PTB  00004                    1600 SR        000000000000 DENSO TEN (THAILAND)190MRTL0028028190MXAL0058058                                                                                                                *          20190525 IMCT                IMCT                                                                                                                    WMF1905253.TXT
MDDDK5319075201905                D89828070100PV1D20190530000060SPEAKER ASM                   M IMCTM S5MB11 TNTH  09020IMCT  S5 PTB  00004                    2100 SR        000000000000 DENSO TEN (THAILAND)190MPFL0066066                                                                                                                              *          20190525 IMCT                IMCT                                                                                                                    WMF1905253.TXT
MDDDK5319076201905                D89828070100PV4D20190530000060SPEAKER ASM                   M IMCTM S0FL05 TNTH  09020IMCT  S0 PTB  00004                    0830 SR        000000000000 DENSO TEN (THAILAND)190MRVU0046046                                                                                                                              *          20190525 IMCT                IMCT                                                                                                                    WMF1905253.TXT
MDDDK5319077201905                D89828070100PV4D20190530000060SPEAKER ASM                   M IMCTM S0FL05 TNTH  09020IMCT  S0 PTB  00004                    2230 SR        000000000000 DENSO TEN (THAILAND)190MRSU0039039                                                                                                                              *          20190525 IMCT                IMCT                                                                                                                    WMF1905253.TXT
MDDDK5319078201905                D89828070200PV1D20190530000060SPEAKER ASM                   M IMCTM S5MA14 TNTH  09020IMCT  S5 PTB  00005                    0830 SR        000000000000 DENSO TEN (THAILAND)190MRTL0027027                                                                                                                              *          20190525 IMCT                IMCT                                                                                                                    WMF1905253.TXT
MDDDK5319079201905                D89828070200PV1D20190530000060SPEAKER ASM                   M IMCTM S5MA14 TNTH  09020IMCT  S5 PTB  00005                    1600 SR        000000000000 DENSO TEN (THAILAND)190MRTL0028028                                                                                                                              *          20190525 IMCT                IMCT                                                                                                                    WMF1905253.TXT
MDDDK5319080201905                D89828070200PV4D20190530000060SPEAKER ASM                   M IMCTM S0FR05 TNTH  09020IMCT  S0 PTB  00005                    0830 SR        000000000000 DENSO TEN (THAILAND)190MRVU0046046                                                                                                                              *          20190525 IMCT                IMCT                                                                                                                    WMF1905253.TXT
MDDDK5319081201905                D89828070200PV4D20190530000060SPEAKER ASM                   M IMCTM S0FR05 TNTH  09020IMCT  S0 PTB  00005                    2230 SR        000000000000 DENSO TEN (THAILAND)190MRSU0039039                                                                                                                              *          20190525 IMCT                IMCT                                                                                                                    WMF1905253.TXT
MDDDK5319082201905                D89828070300PT1D20190530000060SPEAKER ASM                   M IMCTM S5NB082TNTH  09020IMCT  S5 PTB  00015                    0400 SR        000000000000 DENSO TEN (THAILAND)190MPGL0161161                                                                                                                              *          20190525 IMCT                IMCT                                                                                                                    WMF1905253.TXT
MDDDK5319083201905                D89828070300PT1D20190530000060SPEAKER ASM                   M IMCTM S5NB082TNTH  09020IMCT  S5 PTB  00015                    0830 SR        000000000000 DENSO TEN (THAILAND)190MRTL0027027                                                                                                                              *          20190525 IMCT                IMCT                                                                                                                    WMF1905253.TXT
MDDDK5319084201905                D89828070300PT1D20190530000060SPEAKER ASM                   M IMCTM S5NB082TNTH  09020IMCT  S5 PTB  00015                    1030 SR        000000000000 DENSO TEN (THAILAND)190MPGL0162162                                                                                                                              *          20190525 IMCT                IMCT                                                                                                                    WMF1905253.TXT
MDDDK5319085201905                D89828070300PT1D20190530000060SPEAKER ASM                   M IMCTM S5NB082TNTH  09020IMCT  S5 PTB  00015                    1600 SR        000000000000 DENSO TEN (THAILAND)190MRTL0028028                                                                                                                              *          20190525 IMCT                IMCT                                                                                                                    WMF1905253.TXT
MDDDK5319086201905                D89828070300PT1D20190530000060SPEAKER ASM                   M IMCTM S5NB082TNTH  09020IMCT  S5 PTB  00015                    2100 SR        000000000000 DENSO TEN (THAILAND)190MPFL0066066                                                                                                                              *          20190525 IMCT                IMCT                                                                                                                    WMF1905253.TXT
MDDDK5319087201905                D89828070300PT4D20190530000060SPEAKER ASM                   M IMCTM S9TS02 TNTH  09020IMCT  S9 PTB  00015                    0830 SR        000000000000 DENSO TEN (THAILAND)190MRVU0046046                                                                                                                              *          20190525 IMCT                IMCT                                                                                                                    WMF1905253.TXT
MDDDK5319088201905                D89828070300PT4D20190530000060SPEAKER ASM                   M IMCTM S9TS02 TNTH  09020IMCT  S9 PTB  00015                    2230 SR        000000000000 DENSO TEN (THAILAND)190MRSU0039039                                                                                                                              *          20190525 IMCT                IMCT                                                                                                                    WMF1905253.TXT
MDDDK5319089201905                D89831228300PT1D20190530000030RADIO;AM/FM,CD                M IMCTM S5NC06 TNTH  09020IMCT  S5 CPB  00003                    0400 SR        000000000000 DENSO TEN (THAILAND)190MPGL0161161                                                                                                                              *          20190525 IMCT                IMCT                                                                                                                    WMF1905253.TXT
MDDDK5319090201905                D89831228300PT1D20190530000030RADIO;AM/FM,CD                M IMCTM S5NC06 TNTH  09020IMCT  S5 CPB  00003                    1030 SR        000000000000 DENSO TEN (THAILAND)190MPGL0162162                                                                                                                              *          20190525 IMCT                IMCT                                                                                                                    WMF1905253.TXT
MDDDK5319091201905                D89831228300PT1D20190530000030RADIO;AM/FM,CD                M IMCTM S5NC06 TNTH  09020IMCT  S5 CPB  00003                    2100 SR        000000000000 DENSO TEN (THAILAND)190MPFL0066066                                                                                                                              *          20190525 IMCT                IMCT                                                                                                                    WMF1905253.TXT
MDDDK5319092201905                D89848581500PT1D20190530000030RADIO;AM/FM CD D              M IMCTM S5NC06 TNTH  09020IMCT  S5 PTB  00003                    0830 SR        000000000000 DENSO TEN (THAILAND)190MRTL0027027                                                                                                                              *          20190525 IMCT                IMCT                                                                                                                    WMF1905253.TXT
MDDDK5319093201905                D89848581500PT1D20190530000030RADIO;AM/FM CD D              M IMCTM S5NC06 TNTH  09020IMCT  S5 PTB  00003                    1600 SR        000000000000 DENSO TEN (THAILAND)190MRTL0028028                                                                                                                              *          20190525 IMCT                IMCT                                                                                                                    WMF1905253.TXT
MDDUK5241949201905                D89828070100PT4U20190530000030SPEAKER ASM                   M IMCTM S0FL05 TNTH  09020IMCT  S0 PTB  00004                    0400 SR        000000000000 DENSO TEN (THAILAND)190MUGU0105105                                                                                                                              *          20190525 IMCT                IMCT                                                                                                                    WMF1905253.TXT
MDDUK5241950201905                D89828070100PT4U20190530000030SPEAKER ASM                   M IMCTM S0FL05 TNTH  09020IMCT  S0 PTB  00004                    1300 SR        000000000000 DENSO TEN (THAILAND)190MUEU0155155                                                                                                                              *          20190525 IMCT                IMCT                                                                                                                    WMF1905253.TXT
MDDUK5241951201905                D89828070100PT4U20190530000030SPEAKER ASM                   M IMCTM S0FL05 TNTH  09020IMCT  S0 PTB  00004                    1600 SR        000000000000 DENSO TEN (THAILAND)190MUAU0018018                                                                                                                              *          20190525 IMCT                IMCT                                                                                                                    WMF1905253.TXT
MDDUK5241952201905                D89828070100PT4U20190530000030SPEAKER ASM                   M IMCTM S0FL05 TNTH  09020IMCT  S0 PTB  00004                    2100 SR        000000000000 DENSO TEN (THAILAND)190MUGU0106106                                                                                                                              *          20190525 IMCT                IMCT                                                                                                                    WMF1905253.TXT
MDDUK5241953201905                D89828070200PV4U20190530000030SPEAKER ASM                   M IMCTM S0FR05 TNTH  09020IMCT  S0 PTB  00005                    0400 SR        000000000000 DENSO TEN (THAILAND)190MUGU0105105                                                                                                                              *          20190525 IMCT                IMCT                                                                                                                    WMF1905253.TXT
MDDUK5241954201905                D89828070200PV4U20190530000030SPEAKER ASM                   M IMCTM S0FR05 TNTH  09020IMCT  S0 PTB  00005                    1300 SR        000000000000 DENSO TEN (THAILAND)190MUEU0155155                                                                                                                              *          20190525 IMCT                IMCT                                                                                                                    WMF1905253.TXT
MDDUK5241955201905                D89828070200PV4U20190530000030SPEAKER ASM                   M IMCTM S0FR05 TNTH  09020IMCT  S0 PTB  00005                    1600 SR        000000000000 DENSO TEN (THAILAND)190MUAU0018018                                                                                                                              *          20190525 IMCT                IMCT                                                                                                                    WMF1905253.TXT
MDDUK5241956201905                D89828070200PV4U20190530000030SPEAKER ASM                   M IMCTM S0FR05 TNTH  09020IMCT  S0 PTB  00005                    2100 SR        000000000000 DENSO TEN (THAILAND)190MUGU0106106                                                                                                                              *          20190525 IMCT                IMCT                                                                                                                    WMF1905253.TXT
MDDUK5241957201905                D89828070300PT4U20190530000030SPEAKER ASM                   M IMCTM S9TS02 TNTH  09020IMCT  S9 PTB  00015                    0400 SR        000000000000 DENSO TEN (THAILAND)190MUGU0105105                                                                                                                              *          20190525 IMCT                IMCT                                                                                                                    WMF1905253.TXT
MDDUK5241958201905                D89828070300PT4U20190530000030SPEAKER ASM                   M IMCTM S9TS02 TNTH  09020IMCT  S9 PTB  00015                    1300 SR        000000000000 DENSO TEN (THAILAND)190MUEU0155155                                                                                                                              *          20190525 IMCT                IMCT                                                                                                                    WMF1905253.TXT
MDDUK5241959201905                D89828070300PT4U20190530000030SPEAKER ASM                   M IMCTM S9TS02 TNTH  09020IMCT  S9 PTB  00015                    1600 SR        000000000000 DENSO TEN (THAILAND)190MUAU0018018                                                                                                                              *          20190525 IMCT                IMCT                                                                                                                    WMF1905253.TXT
MDDUK5241960201905                D89828070300PT4U20190530000030SPEAKER ASM                   M IMCTM S9TS02 TNTH  09020IMCT  S9 PTB  00015                    2100 SR        000000000000 DENSO TEN (THAILAND)190MUGU0106106                                                                                                                              *          20190525 IMCT                IMCT                                                                                                                    WMF1905253.TXT
MDDUK5241961201905                D89831228400PT4U20190530000015RADIO;AM/FM,CD                M IMCTM S9CO001TNTH  09020IMCT  S9 CPB  00003                    1600 SR        000000000000 DENSO TEN (THAILAND)190MUAU0018018                                                                                                                              *          20190525 IMCT                IMCT                                                                                                                    WMF1905253.TXT
MDEDK5383187201905                D89828070100PV1D20190529000030SPEAKER ASM                   M IMCTM S5MB11 TNTH  09020IMCT  S5 PTB  00004                    2230 SR        000000000000 DENSO TEN (THAILAND)190J85L0027027                                                                                                                              *          20190525 IMCT                IMCT                                                                                                                    WMF1905253.TXT
MDEDK5383188201905                D89828070100PV1D20190530000060SPEAKER ASM                   M IMCTM S5MB11 TNTH  09020IMCT  S5 PTB  00004                    0230 SR        000000000000 DENSO TEN (THAILAND)190J34L0011012                                                                                                                              *          20190525 IMCT                IMCT                                                                                                                    WMF1905253.TXT
MDEDK5383189201905                D89828070100PV1D20190530000060SPEAKER ASM                   M IMCTM S5MB11 TNTH  09020IMCT  S5 PTB  00004                    0400 SR        000000000000 DENSO TEN (THAILAND)190J34L0013014                                                                                                                              *          20190525 IMCT                IMCT                                                                                                                    WMF1905253.TXT
MDEDK5383190201905                D89828070100PV1D20190530000060SPEAKER ASM                   M IMCTM S5MB11 TNTH  09020IMCT  S5 PTB  00004                    1030 SR        000000000000 DENSO TEN (THAILAND)190J34L0015016                                                                                                                              *          20190525 IMCT                IMCT                                                                                                                    WMF1905253.TXT
MDEDK5383191201905                D89828070100PV1D20190530000120SPEAKER ASM                   M IMCTM S5MB11 TNTH  09020IMCT  S5 PTB  00004                    1300 SR        000000000000 DENSO TEN (THAILAND)190J34L0017018190J81L0092093                                                                                                                *          20190525 IMCT                IMCT                                                                                                                    WMF1905253.TXT
MDEDK5383192201905                D89828070100PV1D20190530000120SPEAKER ASM                   M IMCTM S5MB11 TNTH  09020IMCT  S5 PTB  00004                    1600 SR        000000000000 DENSO TEN (THAILAND)190H71L0029030190J81L0094094190J94L0114114                                                                                                  *          20190525 IMCT                IMCT                                                                                                                    WMF1905253.TXT
MDEDK5383193201905                D89828070100PV1D20190530000030SPEAKER ASM                   M IMCTM S5MB11 TNTH  09020IMCT  S5 PTB  00004                    2100 SR        000000000000 DENSO TEN (THAILAND)190J34L0019019                                                                                                                              *          20190525 IMCT                IMCT                                                                                                                    WMF1905253.TXT
MDEDK5383194201905                D89828070100PV1D20190530000030SPEAKER ASM                   M IMCTM S5MB11 TNTH  09020IMCT  S5 PTB  00004                    2230 SR        000000000000 DENSO TEN (THAILAND)190J81L0095095                                                                                                                              *          20190525 IMCT                IMCT                                                                                                                    WMF1905253.TXT
MDEDK5383195201905                D89828070100PV4D20190530000030SPEAKER ASM                   M IMCTM S0FL05 TNTH  09020IMCT  S0 PTB  00004                    0230 SR        000000000000 DENSO TEN (THAILAND)190H15U0001001                                                                                                                              *          20190525 IMCT                IMCT                                                                                                                    WMF1905253.TXT
MDEDK5383196201905                D89828070100PV4D20190530000060SPEAKER ASM                   M IMCTM S0FL05 TNTH  09020IMCT  S0 PTB  00004                    0400 SR        000000000000 DENSO TEN (THAILAND)190J28U0009009190K19U0024024                                                                                                                *          20190525 IMCT                IMCT                                                                                                                    WMF1905253.TXT
MDEDK5383197201905                D89828070100PV4D20190530000030SPEAKER ASM                   M IMCTM S0FL05 TNTH  09020IMCT  S0 PTB  00004                    1030 SR        000000000000 DENSO TEN (THAILAND)190J15U0014014                                                                                                                              *          20190525 IMCT                IMCT                                                                                                                    WMF1905253.TXT
MDEDK5383198201905                D89828070100PV4D20190530000030SPEAKER ASM                   M IMCTM S0FL05 TNTH  09020IMCT  S0 PTB  00004                    1300 SR        000000000000 DENSO TEN (THAILAND)190K19U0025025                                                                                                                              *          20190525 IMCT                IMCT                                                                                                                    WMF1905253.TXT
MDEDK5383199201905                D89828070100PV4D20190530000060SPEAKER ASM                   M IMCTM S0FL05 TNTH  09020IMCT  S0 PTB  00004                    1600 SR        000000000000 DENSO TEN (THAILAND)190J18U0002002190K19U0026026                                                                                                                *          20190525 IMCT                IMCT                                                                                                                    WMF1905253.TXT
MDEDK5383200201905                D89828070200PV4D20190530000030SPEAKER ASM                   M IMCTM S0FR05 TNTH  09020IMCT  S0 PTB  00005                    0230 SR        000000000000 DENSO TEN (THAILAND)190H15U0001001                                                                                                                              *          20190525 IMCT                IMCT                                                                                                                    WMF1905253.TXT
MDEDK5383201201905                D89828070200PV4D20190530000060SPEAKER ASM                   M IMCTM S0FR05 TNTH  09020IMCT  S0 PTB  00005                    0400 SR        000000000000 DENSO TEN (THAILAND)190J28U0009009190K19U0024024                                                                                                                *          20190525 IMCT                IMCT                                                                                                                    WMF1905253.TXT
MDEDK5383202201905                D89828070200PV4D20190530000030SPEAKER ASM                   M IMCTM S0FR05 TNTH  09020IMCT  S0 PTB  00005                    1030 SR        000000000000 DENSO TEN (THAILAND)190J15U0014014                                                                                                                              *          20190525 IMCT                IMCT                                                                                                                    WMF1905253.TXT
MDEDK5383203201905                D89828070200PV4D20190530000030SPEAKER ASM                   M IMCTM S0FR05 TNTH  09020IMCT  S0 PTB  00005                    1300 SR        000000000000 DENSO TEN (THAILAND)190K19U0025025                                                                                                                              *          20190525 IMCT                IMCT                                                                                                                    WMF1905253.TXT
MDEDK5383204201905                D89828070200PV4D20190530000060SPEAKER ASM                   M IMCTM S0FR05 TNTH  09020IMCT  S0 PTB  00005                    1600 SR        000000000000 DENSO TEN (THAILAND)190J18U0002002190K19U0026026                                                                                                                *          20190525 IMCT                IMCT                                                                                                                    WMF1905253.TXT
MDEDK5383205201905                D89828070300PT1D20190530000060SPEAKER ASM                   M IMCTM S5NB082TNTH  09020IMCT  S5 PTB  00015                    1600 SR        000000000000 DENSO TEN (THAILAND)190H71L0029030                                                                                                                              *          20190525 IMCT                IMCT                                                                                                                    WMF1905253.TXT
MDEDK5383206201905                D89828070300PT4D20190530000030SPEAKER ASM                   M IMCTM S9TS02 TNTH  09020IMCT  S9 PTB  00015                    0230 SR        000000000000 DENSO TEN (THAILAND)190H15U0001001                                                                                                                              *          20190525 IMCT                IMCT                                                                                                                    WMF1905253.TXT
MDEDK5383207201905                D89828070300PT4D20190530000060SPEAKER ASM                   M IMCTM S9TS02 TNTH  09020IMCT  S9 PTB  00015                    0400 SR        000000000000 DENSO TEN (THAILAND)190J28U0009009190K19U0024024                                                                                                                *          20190525 IMCT                IMCT                                                                                                                    WMF1905253.TXT
MDEDK5383208201905                D89828070300PT4D20190530000030SPEAKER ASM                   M IMCTM S9TS02 TNTH  09020IMCT  S9 PTB  00015                    1030 SR        000000000000 DENSO TEN (THAILAND)190J15U0014014                                                                                                                              *          20190525 IMCT                IMCT                                                                                                                    WMF1905253.TXT
MDEDK5383209201905                D89828070300PT4D20190530000030SPEAKER ASM                   M IMCTM S9TS02 TNTH  09020IMCT  S9 PTB  00015                    1300 SR        000000000000 DENSO TEN (THAILAND)190K19U0025025                                                                                                                              *          20190525 IMCT                IMCT                                                                                                                    WMF1905253.TXT
MDEDK5383210201905                D89828070300PT4D20190530000060SPEAKER ASM                   M IMCTM S9TS02 TNTH  09020IMCT  S9 PTB  00015                    1600 SR        000000000000 DENSO TEN (THAILAND)190J18U0002002190K19U0026026                                                                                                                *          20190525 IMCT                IMCT                                                                                                                    WMF1905253.TXT
MDEDK5383211201905                D89838031200PT4D20190530000015RADIO;ASM DVD                 M IMCTM S9CO001TNTH  09020IMCT  S9 PTB  00003                    0400 SR        000000000000 DENSO TEN (THAILAND)190K19U0024024                                                                                                                              *          20190525 IMCT                IMCT                                                                                                                    WMF1905253.TXT
MDEDK5383212201905                D89838031200PT4D20190530000015RADIO;ASM DVD                 M IMCTM S9CO001TNTH  09020IMCT  S9 PTB  00003                    1300 SR        000000000000 DENSO TEN (THAILAND)190K19U0025025                                                                                                                              *          20190525 IMCT                IMCT                                                                                                                    WMF1905253.TXT
MDEDK5383213201905                D89838031200PT4D20190530000015RADIO;ASM DVD                 M IMCTM S9CO001TNTH  09020IMCT  S9 PTB  00003                    1600 SR        000000000000 DENSO TEN (THAILAND)190K19U0026026                                                                                                                              *          20190525 IMCT                IMCT                                                                                                                    WMF1905253.TXT
MDEDK5383214201905                D89848582100PT4D20190530000015RADIO;AM/FM CD D              M IMCTM S9CO001TNTH  09020IMCT  S9 PTB  00003                    0230 SR        000000000000 DENSO TEN (THAILAND)190H15U0001001                                                                                                                              *          20190525 IMCT                IMCT                                                                                                                    WMF1905253.TXT
