REC2019052220190522ISUZU                              54     
MDDDK5299520201905                D89821984430PT1D20190525000030RADIO;AM/FM,CD                M IMCTM S5NC06 TNTH  09020IMCT  S5 PTB  00005                    2230 SR        000000000000 DENSO TEN (THAILAND)190MNHL0042042                                                                                                                              *          20190522 IMCT                IMCT                                                                                                                    WMF1905224.TXT
MDDDK5299521201905                D89821984430PT1D20190526000060RADIO;AM/FM,CD                M IMCTM S5NC06 TNTH  09020IMCT  S5 PTB  00005                    0400 SR        000000000000 DENSO TEN (THAILAND)190MXEL0072072190MYAL0176176                                                                                                                *          20190522 IMCT                IMCT                                                                                                                    WMF1905224.TXT
MDDDK5299522201905                D89821984430PT1D20190527000030RADIO;AM/FM,CD                M IMCTM S5NC06 TNTH  09020IMCT  S5 PTB  00005                    1030 SR        000000000000 DENSO TEN (THAILAND)190MRAL0113113                                                                                                                              *          20190522 IMCT                IMCT                                                                                                                    WMF1905224.TXT
MDDDK5299523201905                D89821984430PT1D20190527000060RADIO;AM/FM,CD                M IMCTM S5NC06 TNTH  09020IMCT  S5 PTB  00005                    1300 SR        000000000000 DENSO TEN (THAILAND)190MNGL0164164190MRAL0114114                                                                                                                *          20190522 IMCT                IMCT                                                                                                                    WMF1905224.TXT
MDDDK5299524201905                D89828070100PV1D20190525000060SPEAKER ASM                   M IMCTM S5MB11 TNTH  09020IMCT  S5 PTB  00004                    2230 SR        000000000000 DENSO TEN (THAILAND)190MNHL0042042                                                                                                                              *          20190522 IMCT                IMCT                                                                                                                    WMF1905224.TXT
MDDDK5299525201905                D89828070100PV1D20190526000120SPEAKER ASM                   M IMCTM S5MB11 TNTH  09020IMCT  S5 PTB  00004                    0400 SR        000000000000 DENSO TEN (THAILAND)190MXEL0072072190MYAL0176176                                                                                                                *          20190522 IMCT                IMCT                                                                                                                    WMF1905224.TXT
MDDDK5299526201905                D89828070100PV1D20190527000060SPEAKER ASM                   M IMCTM S5MB11 TNTH  09020IMCT  S5 PTB  00004                    1030 SR        000000000000 DENSO TEN (THAILAND)190MRAL0113113                                                                                                                              *          20190522 IMCT                IMCT                                                                                                                    WMF1905224.TXT
MDDDK5299527201905                D89828070100PV1D20190527000120SPEAKER ASM                   M IMCTM S5MB11 TNTH  09020IMCT  S5 PTB  00004                    1300 SR        000000000000 DENSO TEN (THAILAND)190MNGL0164164190MRAL0114114                                                                                                                *          20190522 IMCT                IMCT                                                                                                                    WMF1905224.TXT
MDDDK5299528201905                D89828070100PV1D20190527000060SPEAKER ASM                   M IMCTM S5MB11 TNTH  09020IMCT  S5 PTB  00004                    2100 SR        000000000000 DENSO TEN (THAILAND)190MPKL0049049                                                                                                                              *          20190522 IMCT                IMCT                                                                                                                    WMF1905224.TXT
MDDDK5299529201905                D89828070300PT1D20190527000060SPEAKER ASM                   M IMCTM S5NB082TNTH  09020IMCT  S5 PTB  00015                    2100 SR        000000000000 DENSO TEN (THAILAND)190MPKL0049049                                                                                                                              *          20190522 IMCT                IMCT                                                                                                                    WMF1905224.TXT
MDDDK5299530201905                D89848581600PT1D20190527000030RADIO;AM/FM CD D              M IMCTM S5NC06 TNTH  09020IMCT  S5 PTB  00003                    2100 SR        000000000000 DENSO TEN (THAILAND)190MPKL0049049                                                                                                                              *          20190522 IMCT                IMCT                                                                                                                    WMF1905224.TXT
MDDUK5234038201905                D89828070100PT4U20190526000030SPEAKER ASM                   M IMCTM S0FL05 TNTH  09020IMCT  S0 PTB  00004                    0400 SR        000000000000 DENSO TEN (THAILAND)190MUEU0148148                                                                                                                              *          20190522 IMCT                IMCT                                                                                                                    WMF1905224.TXT
MDDUK5234039201905                D89828070100PT4U20190527000030SPEAKER ASM                   M IMCTM S0FL05 TNTH  09020IMCT  S0 PTB  00004                    0830 SR        000000000000 DENSO TEN (THAILAND)190MUGU0103103                                                                                                                              *          20190522 IMCT                IMCT                                                                                                                    WMF1905224.TXT
MDDUK5234040201905                D89828070100PT4U20190527000030SPEAKER ASM                   M IMCTM S0FL05 TNTH  09020IMCT  S0 PTB  00004                    2100 SR        000000000000 DENSO TEN (THAILAND)190MUEU0149149                                                                                                                              *          20190522 IMCT                IMCT                                                                                                                    WMF1905224.TXT
MDDUK5234041201905                D89828070200PV4U20190526000030SPEAKER ASM                   M IMCTM S0FR05 TNTH  09020IMCT  S0 PTB  00005                    0400 SR        000000000000 DENSO TEN (THAILAND)190MUEU0148148                                                                                                                              *          20190522 IMCT                IMCT                                                                                                                    WMF1905224.TXT
MDDUK5234042201905                D89828070200PV4U20190527000030SPEAKER ASM                   M IMCTM S0FR05 TNTH  09020IMCT  S0 PTB  00005                    0830 SR        000000000000 DENSO TEN (THAILAND)190MUGU0103103                                                                                                                              *          20190522 IMCT                IMCT                                                                                                                    WMF1905224.TXT
MDDUK5234043201905                D89828070200PV4U20190527000030SPEAKER ASM                   M IMCTM S0FR05 TNTH  09020IMCT  S0 PTB  00005                    2100 SR        000000000000 DENSO TEN (THAILAND)190MUEU0149149                                                                                                                              *          20190522 IMCT                IMCT                                                                                                                    WMF1905224.TXT
MDDUK5234044201905                D89828070300PT4U20190526000030SPEAKER ASM                   M IMCTM S9TS02 TNTH  09020IMCT  S9 PTB  00015                    0400 SR        000000000000 DENSO TEN (THAILAND)190MUEU0148148                                                                                                                              *          20190522 IMCT                IMCT                                                                                                                    WMF1905224.TXT
MDDUK5234045201905                D89828070300PT4U20190527000030SPEAKER ASM                   M IMCTM S9TS02 TNTH  09020IMCT  S9 PTB  00015                    0830 SR        000000000000 DENSO TEN (THAILAND)190MUGU0103103                                                                                                                              *          20190522 IMCT                IMCT                                                                                                                    WMF1905224.TXT
MDDUK5234046201905                D89828070300PT4U20190527000030SPEAKER ASM                   M IMCTM S9TS02 TNTH  09020IMCT  S9 PTB  00015                    2100 SR        000000000000 DENSO TEN (THAILAND)190MUEU0149149                                                                                                                              *          20190522 IMCT                IMCT                                                                                                                    WMF1905224.TXT
MDEDK5350457201905                D89752845100PT1D20190527000015RADIO;AM FM,CD D              M IMCTM S5NC06 TNTH  09020IMCT  S5 PTB  00003                    0830 SR        000000000000 DENSO TEN (THAILAND)190F91L0027027                                                                                                                              *          20190522 IMCT                IMCT                                                                                                                    WMF1905224.TXT
MDEDK5350458201905                D89752845200PT1D20190526000030RADIO;AM FM,CD D              M IMCTM S5NC06 TNTH  09020IMCT  S5 PTB  00003                    0230 SR        000000000000 DENSO TEN (THAILAND)190F94L0014015                                                                                                                              *          20190522 IMCT                IMCT                                                                                                                    WMF1905224.TXT
MDEDK5350459201905                D89828070100PV1D20190525000060SPEAKER ASM                   M IMCTM S5MB11 TNTH  09020IMCT  S5 PTB  00004                    2230 SR        000000000000 DENSO TEN (THAILAND)190J94L0100101                                                                                                                              *          20190522 IMCT                IMCT                                                                                                                    WMF1905224.TXT
MDEDK5350460201905                D89828070100PV1D20190526000060SPEAKER ASM                   M IMCTM S5MB11 TNTH  09020IMCT  S5 PTB  00004                    0230 SR        000000000000 DENSO TEN (THAILAND)190F94L0014015                                                                                                                              *          20190522 IMCT                IMCT                                                                                                                    WMF1905224.TXT
MDEDK5350461201905                D89828070100PV1D20190527000090SPEAKER ASM                   M IMCTM S5MB11 TNTH  09020IMCT  S5 PTB  00004                    0830 SR        000000000000 DENSO TEN (THAILAND)190F91L0027027190H18L0001001190H43L0019019                                                                                                  *          20190522 IMCT                IMCT                                                                                                                    WMF1905224.TXT
MDEDK5350462201905                D89828070100PV1D20190527000060SPEAKER ASM                   M IMCTM S5MB11 TNTH  09020IMCT  S5 PTB  00004                    1300 SR        000000000000 DENSO TEN (THAILAND)190J94L0102103                                                                                                                              *          20190522 IMCT                IMCT                                                                                                                    WMF1905224.TXT
MDEDK5350463201905                D89828070100PV1D20190527000090SPEAKER ASM                   M IMCTM S5MB11 TNTH  09020IMCT  S5 PTB  00004                    1600 SR        000000000000 DENSO TEN (THAILAND)190H55L0002002190J19L0001001190J81L0084084                                                                                                  *          20190522 IMCT                IMCT                                                                                                                    WMF1905224.TXT
MDEDK5350464201905                D89828070100PV1D20190527000030SPEAKER ASM                   M IMCTM S5MB11 TNTH  09020IMCT  S5 PTB  00004                    2100 SR        000000000000 DENSO TEN (THAILAND)190J81L0085085                                                                                                                              *          20190522 IMCT                IMCT                                                                                                                    WMF1905224.TXT
MDEDK5350465201905                D89828070100PV1D20190527000030SPEAKER ASM                   M IMCTM S5MB11 TNTH  09020IMCT  S5 PTB  00004                    2230 SR        000000000000 DENSO TEN (THAILAND)190J85L0025025                                                                                                                              *          20190522 IMCT                IMCT                                                                                                                    WMF1905224.TXT
MDEDK5350466201905                D89828070100PV4D20190526000030SPEAKER ASM                   M IMCTM S0FL05 TNTH  09020IMCT  S0 PTB  00004                    0230 SR        000000000000 DENSO TEN (THAILAND)190K21U0047047                                                                                                                              *          20190522 IMCT                IMCT                                                                                                                    WMF1905224.TXT
MDEDK5350467201905                D89828070100PV4D20190527000030SPEAKER ASM                   M IMCTM S0FL05 TNTH  09020IMCT  S0 PTB  00004                    0830 SR        000000000000 DENSO TEN (THAILAND)190J28U0006006                                                                                                                              *          20190522 IMCT                IMCT                                                                                                                    WMF1905224.TXT
MDEDK5350468201905                D89828070100PV4D20190527000060SPEAKER ASM                   M IMCTM S0FL05 TNTH  09020IMCT  S0 PTB  00004                    1300 SR        000000000000 DENSO TEN (THAILAND)190K21U0048049                                                                                                                              *          20190522 IMCT                IMCT                                                                                                                    WMF1905224.TXT
MDEDK5350469201905                D89828070100PV4D20190527000060SPEAKER ASM                   M IMCTM S0FL05 TNTH  09020IMCT  S0 PTB  00004                    1600 SR        000000000000 DENSO TEN (THAILAND)190G21U0014014190K21U0050050                                                                                                                *          20190522 IMCT                IMCT                                                                                                                    WMF1905224.TXT
MDEDK5350470201905                D89828070200PV1D20190527000030SPEAKER ASM                   M IMCTM S5MA14 TNTH  09020IMCT  S5 PTB  00005                    0830 SR        000000000000 DENSO TEN (THAILAND)190H18L0001001                                                                                                                              *          20190522 IMCT                IMCT                                                                                                                    WMF1905224.TXT
MDEDK5350471201905                D89828070200PV1D20190527000030SPEAKER ASM                   M IMCTM S5MA14 TNTH  09020IMCT  S5 PTB  00005                    1600 SR        000000000000 DENSO TEN (THAILAND)190J19L0001001                                                                                                                              *          20190522 IMCT                IMCT                                                                                                                    WMF1905224.TXT
MDEDK5350472201905                D89828070200PV4D20190526000030SPEAKER ASM                   M IMCTM S0FR05 TNTH  09020IMCT  S0 PTB  00005                    0230 SR        000000000000 DENSO TEN (THAILAND)190K21U0047047                                                                                                                              *          20190522 IMCT                IMCT                                                                                                                    WMF1905224.TXT
MDEDK5350473201905                D89828070200PV4D20190527000030SPEAKER ASM                   M IMCTM S0FR05 TNTH  09020IMCT  S0 PTB  00005                    0830 SR        000000000000 DENSO TEN (THAILAND)190J28U0006006                                                                                                                              *          20190522 IMCT                IMCT                                                                                                                    WMF1905224.TXT
MDEDK5350474201905                D89828070200PV4D20190527000060SPEAKER ASM                   M IMCTM S0FR05 TNTH  09020IMCT  S0 PTB  00005                    1300 SR        000000000000 DENSO TEN (THAILAND)190K21U0048049                                                                                                                              *          20190522 IMCT                IMCT                                                                                                                    WMF1905224.TXT
MDEDK5350475201905                D89828070200PV4D20190527000060SPEAKER ASM                   M IMCTM S0FR05 TNTH  09020IMCT  S0 PTB  00005                    1600 SR        000000000000 DENSO TEN (THAILAND)190G21U0014014190K21U0050050                                                                                                                *          20190522 IMCT                IMCT                                                                                                                    WMF1905224.TXT
MDEDK5350476201905                D89828070300PT1D20190526000060SPEAKER ASM                   M IMCTM S5NB082TNTH  09020IMCT  S5 PTB  00015                    0230 SR        000000000000 DENSO TEN (THAILAND)190F94L0014015                                                                                                                              *          20190522 IMCT                IMCT                                                                                                                    WMF1905224.TXT
MDEDK5350477201905                D89828070300PT1D20190527000060SPEAKER ASM                   M IMCTM S5NB082TNTH  09020IMCT  S5 PTB  00015                    0830 SR        000000000000 DENSO TEN (THAILAND)190F91L0027027190H18L0001001                                                                                                                *          20190522 IMCT                IMCT                                                                                                                    WMF1905224.TXT
MDEDK5350478201905                D89828070300PT1D20190527000060SPEAKER ASM                   M IMCTM S5NB082TNTH  09020IMCT  S5 PTB  00015                    1600 SR        000000000000 DENSO TEN (THAILAND)190H55L0002002190J19L0001001                                                                                                                *          20190522 IMCT                IMCT                                                                                                                    WMF1905224.TXT
MDEDK5350479201905                D89828070300PT4D20190526000030SPEAKER ASM                   M IMCTM S9TS02 TNTH  09020IMCT  S9 PTB  00015                    0230 SR        000000000000 DENSO TEN (THAILAND)190K21U0047047                                                                                                                              *          20190522 IMCT                IMCT                                                                                                                    WMF1905224.TXT
MDEDK5350480201905                D89828070300PT4D20190527000030SPEAKER ASM                   M IMCTM S9TS02 TNTH  09020IMCT  S9 PTB  00015                    0830 SR        000000000000 DENSO TEN (THAILAND)190J28U0006006                                                                                                                              *          20190522 IMCT                IMCT                                                                                                                    WMF1905224.TXT
MDEDK5350481201905                D89828070300PT4D20190527000060SPEAKER ASM                   M IMCTM S9TS02 TNTH  09020IMCT  S9 PTB  00015                    1300 SR        000000000000 DENSO TEN (THAILAND)190K21U0048049                                                                                                                              *          20190522 IMCT                IMCT                                                                                                                    WMF1905224.TXT
MDEDK5350482201905                D89828070300PT4D20190527000060SPEAKER ASM                   M IMCTM S9TS02 TNTH  09020IMCT  S9 PTB  00015                    1600 SR        000000000000 DENSO TEN (THAILAND)190G21U0014014190K21U0050050                                                                                                                *          20190522 IMCT                IMCT                                                                                                                    WMF1905224.TXT
MDEDK5350483201905                D89838031200PT4D20190526000015RADIO;ASM DVD                 M IMCTM S9CO001TNTH  09020IMCT  S9 PTB  00003                    0230 SR        000000000000 DENSO TEN (THAILAND)190K21U0047047                                                                                                                              *          20190522 IMCT                IMCT                                                                                                                    WMF1905224.TXT
MDEDK5350484201905                D89838031200PT4D20190527000030RADIO;ASM DVD                 M IMCTM S9CO001TNTH  09020IMCT  S9 PTB  00003                    1300 SR        000000000000 DENSO TEN (THAILAND)190K21U0048049                                                                                                                              *          20190522 IMCT                IMCT                                                                                                                    WMF1905224.TXT
MDEDK5350485201905                D89838031200PT4D20190527000015RADIO;ASM DVD                 M IMCTM S9CO001TNTH  09020IMCT  S9 PTB  00003                    1600 SR        000000000000 DENSO TEN (THAILAND)190K21U0050050                                                                                                                              *          20190522 IMCT                IMCT                                                                                                                    WMF1905224.TXT
MDEDK5350486201905                D89848582100PT1D20190527000015RADIO;AM/FM CD D              M IMCTM S5NC06 TNTH  09020IMCT  S5 PTB  00003                    0830 SR        000000000000 DENSO TEN (THAILAND)190H18L0001001                                                                                                                              *          20190522 IMCT                IMCT                                                                                                                    WMF1905224.TXT
MDEDK5350487201905                D89848582800PT1D20190527000015RADIO;AM/FM CD D              M IMCTM S5NC06 TNTH  09020IMCT  S5 PTB  00003                    1600 SR        000000000000 DENSO TEN (THAILAND)190H55L0002002                                                                                                                              *          20190522 IMCT                IMCT                                                                                                                    WMF1905224.TXT
MDEUK5226248201905                D89828070100PT4U20190526000030SPEAKER ASM                   M IMCTM S0FL05 TNTH  09020IMCT  S0 PTB  00004                    0230 SR        000000000000 DENSO TEN (THAILAND)190G31U0067067                                                                                                                              *          20190522 IMCT                IMCT                                                                                                                    WMF1905224.TXT
MDEUK5226249201905                D89828070200PV4U20190526000030SPEAKER ASM                   M IMCTM S0FR05 TNTH  09020IMCT  S0 PTB  00005                    0230 SR        000000000000 DENSO TEN (THAILAND)190G31U0067067                                                                                                                              *          20190522 IMCT                IMCT                                                                                                                    WMF1905224.TXT
MDEUK5226250201905                D89828070300PT4U20190526000030SPEAKER ASM                   M IMCTM S9TS02 TNTH  09020IMCT  S9 PTB  00015                    0230 SR        000000000000 DENSO TEN (THAILAND)190G31U0067067                                                                                                                              *          20190522 IMCT                IMCT                                                                                                                    WMF1905224.TXT
