REC2019051420190514ISUZU                              59     
MDDDK5252383201905                D89821984430PT1D20190517000030RADIO;AM/FM,CD                M IMCTM S5NC06 TNTH  09020IMCT  S5 PTB  00005                    2230 SR        000000000000 DENSO TEN (THAILAND)190MNGL0152152                                                                                                                              *          20190514 IMCT                IMCT                                                                                                                    WMF1905146.TXT
MDDDK5252384201905                D89821984430PT1D20190518000060RADIO;AM/FM,CD                M IMCTM S5NC06 TNTH  09020IMCT  S5 PTB  00005                    0400 SR        000000000000 DENSO TEN (THAILAND)190MXCL0053053190MYAL0168168                                                                                                                *          20190514 IMCT                IMCT                                                                                                                    WMF1905146.TXT
MDDDK5252385201905                D89821984430PT1D20190518000060RADIO;AM/FM,CD                M IMCTM S5NC06 TNTH  09020IMCT  S5 PTB  00005                    0830 SR        000000000000 DENSO TEN (THAILAND)190MNGL0153153190MYAL0169169                                                                                                                *          20190514 IMCT                IMCT                                                                                                                    WMF1905146.TXT
MDDDK5252386201905                D89828070100PV1D20190517000060SPEAKER ASM                   M IMCTM S5MB11 TNTH  09020IMCT  S5 PTB  00004                    2230 SR        000000000000 DENSO TEN (THAILAND)190MNGL0152152                                                                                                                              *          20190514 IMCT                IMCT                                                                                                                    WMF1905146.TXT
MDDDK5252387201905                D89828070100PV1D20190518000120SPEAKER ASM                   M IMCTM S5MB11 TNTH  09020IMCT  S5 PTB  00004                    0400 SR        000000000000 DENSO TEN (THAILAND)190MXCL0053053190MYAL0168168                                                                                                                *          20190514 IMCT                IMCT                                                                                                                    WMF1905146.TXT
MDDDK5252388201905                D89828070100PV1D20190518000120SPEAKER ASM                   M IMCTM S5MB11 TNTH  09020IMCT  S5 PTB  00004                    0830 SR        000000000000 DENSO TEN (THAILAND)190MNGL0153153190MYAL0169169                                                                                                                *          20190514 IMCT                IMCT                                                                                                                    WMF1905146.TXT
MDDDK5252389201905                D89828070100PV1D20190518000060SPEAKER ASM                   M IMCTM S5MB11 TNTH  09020IMCT  S5 PTB  00004                    1300 SR        000000000000 DENSO TEN (THAILAND)190MPGL0157157                                                                                                                              *          20190514 IMCT                IMCT                                                                                                                    WMF1905146.TXT
MDDDK5252390201905                D89828070100PV1D20190518000060SPEAKER ASM                   M IMCTM S5MB11 TNTH  09020IMCT  S5 PTB  00004                    1600 SR        000000000000 DENSO TEN (THAILAND)190MXAL0052052                                                                                                                              *          20190514 IMCT                IMCT                                                                                                                    WMF1905146.TXT
MDDDK5252391201905                D89828070100PV1D20190518000060SPEAKER ASM                   M IMCTM S5MB11 TNTH  09020IMCT  S5 PTB  00004                    2230 SR        000000000000 DENSO TEN (THAILAND)190MPEL0009009                                                                                                                              *          20190514 IMCT                IMCT                                                                                                                    WMF1905146.TXT
MDDDK5252392201905                D89828070100PV4D20190518000060SPEAKER ASM                   M IMCTM S0FL05 TNTH  09020IMCT  S0 PTB  00004                    1030 SR        000000000000 DENSO TEN (THAILAND)190MREU0049049                                                                                                                              *          20190514 IMCT                IMCT                                                                                                                    WMF1905146.TXT
MDDDK5252393201905                D89828070200PV4D20190518000060SPEAKER ASM                   M IMCTM S0FR05 TNTH  09020IMCT  S0 PTB  00005                    1030 SR        000000000000 DENSO TEN (THAILAND)190MREU0049049                                                                                                                              *          20190514 IMCT                IMCT                                                                                                                    WMF1905146.TXT
MDDDK5252394201905                D89828070300PT1D20190518000060SPEAKER ASM                   M IMCTM S5NB082TNTH  09020IMCT  S5 PTB  00015                    1300 SR        000000000000 DENSO TEN (THAILAND)190MPGL0157157                                                                                                                              *          20190514 IMCT                IMCT                                                                                                                    WMF1905146.TXT
MDDDK5252395201905                D89828070300PT1D20190518000060SPEAKER ASM                   M IMCTM S5NB082TNTH  09020IMCT  S5 PTB  00015                    2230 SR        000000000000 DENSO TEN (THAILAND)190MPEL0009009                                                                                                                              *          20190514 IMCT                IMCT                                                                                                                    WMF1905146.TXT
MDDDK5252396201905                D89828070300PT4D20190518000060SPEAKER ASM                   M IMCTM S9TS02 TNTH  09020IMCT  S9 PTB  00015                    1030 SR        000000000000 DENSO TEN (THAILAND)190MREU0049049                                                                                                                              *          20190514 IMCT                IMCT                                                                                                                    WMF1905146.TXT
MDDDK5252397201905                D89831228300PT1D20190518000030RADIO;AM/FM,CD                M IMCTM S5NC06 TNTH  09020IMCT  S5 CPB  00003                    1300 SR        000000000000 DENSO TEN (THAILAND)190MPGL0157157                                                                                                                              *          20190514 IMCT                IMCT                                                                                                                    WMF1905146.TXT
MDDDK5252398201905                D89831228300PT1D20190518000030RADIO;AM/FM,CD                M IMCTM S5NC06 TNTH  09020IMCT  S5 CPB  00003                    2230 SR        000000000000 DENSO TEN (THAILAND)190MPEL0009009                                                                                                                              *          20190514 IMCT                IMCT                                                                                                                    WMF1905146.TXT
MDDDK5252399201905                D89831228400PT4D20190518000030RADIO;AM/FM,CD                M IMCTM S9CO001TNTH  09020IMCT  S9 CPB  00003                    1030 SR        000000000000 DENSO TEN (THAILAND)190MREU0049049                                                                                                                              *          20190514 IMCT                IMCT                                                                                                                    WMF1905146.TXT
MDDUK5216137201905                D89828070100PT4U20190518000030SPEAKER ASM                   M IMCTM S0FL05 TNTH  09020IMCT  S0 PTB  00004                    0830 SR        000000000000 DENSO TEN (THAILAND)190MUGU0090090                                                                                                                              *          20190514 IMCT                IMCT                                                                                                                    WMF1905146.TXT
MDDUK5216138201905                D89828070100PT4U20190518000030SPEAKER ASM                   M IMCTM S0FL05 TNTH  09020IMCT  S0 PTB  00004                    1600 SR        000000000000 DENSO TEN (THAILAND)190MUEU0140140                                                                                                                              *          20190514 IMCT                IMCT                                                                                                                    WMF1905146.TXT
MDDUK5216139201905                D89828070200PV4U20190518000030SPEAKER ASM                   M IMCTM S0FR05 TNTH  09020IMCT  S0 PTB  00005                    0830 SR        000000000000 DENSO TEN (THAILAND)190MUGU0090090                                                                                                                              *          20190514 IMCT                IMCT                                                                                                                    WMF1905146.TXT
MDDUK5216140201905                D89828070200PV4U20190518000030SPEAKER ASM                   M IMCTM S0FR05 TNTH  09020IMCT  S0 PTB  00005                    1600 SR        000000000000 DENSO TEN (THAILAND)190MUEU0140140                                                                                                                              *          20190514 IMCT                IMCT                                                                                                                    WMF1905146.TXT
MDDUK5216141201905                D89828070300PT4U20190518000030SPEAKER ASM                   M IMCTM S9TS02 TNTH  09020IMCT  S9 PTB  00015                    0830 SR        000000000000 DENSO TEN (THAILAND)190MUGU0090090                                                                                                                              *          20190514 IMCT                IMCT                                                                                                                    WMF1905146.TXT
MDDUK5216142201905                D89828070300PT4U20190518000030SPEAKER ASM                   M IMCTM S9TS02 TNTH  09020IMCT  S9 PTB  00015                    1600 SR        000000000000 DENSO TEN (THAILAND)190MUEU0140140                                                                                                                              *          20190514 IMCT                IMCT                                                                                                                    WMF1905146.TXT
MDEDK5286855201905                D89828070100PV1D20190517000060SPEAKER ASM                   M IMCTM S5MB11 TNTH  09020IMCT  S5 PTB  00004                    2230 SR        000000000000 DENSO TEN (THAILAND)190H38L0008009                                                                                                                              *          20190514 IMCT                IMCT                                                                                                                    WMF1905146.TXT
MDEDK5286856201905                D89828070100PV1D20190518000060SPEAKER ASM                   M IMCTM S5MB11 TNTH  09020IMCT  S5 PTB  00004                    0230 SR        000000000000 DENSO TEN (THAILAND)190H28L0027028                                                                                                                              *          20190514 IMCT                IMCT                                                                                                                    WMF1905146.TXT
MDEDK5286857201905                D89828070100PV1D20190518000030SPEAKER ASM                   M IMCTM S5MB11 TNTH  09020IMCT  S5 PTB  00004                    1030 SR        000000000000 DENSO TEN (THAILAND)190H11L0027027                                                                                                                              *          20190514 IMCT                IMCT                                                                                                                    WMF1905146.TXT
MDEDK5286858201905                D89828070100PV1D20190518000120SPEAKER ASM                   M IMCTM S5MB11 TNTH  09020IMCT  S5 PTB  00004                    1300 SR        000000000000 DENSO TEN (THAILAND)190H11L0028028190J81L0082083190J90L0009009                                                                                                  *          20190514 IMCT                IMCT                                                                                                                    WMF1905146.TXT
MDEDK5286859201905                D89828070100PV1D20190518000060SPEAKER ASM                   M IMCTM S5MB11 TNTH  09020IMCT  S5 PTB  00004                    1600 SR        000000000000 DENSO TEN (THAILAND)190K19L0004005                                                                                                                              *          20190514 IMCT                IMCT                                                                                                                    WMF1905146.TXT
MDEDK5286860201905                D89828070100PV1D20190518000030SPEAKER ASM                   M IMCTM S5MB11 TNTH  09020IMCT  S5 PTB  00004                    2100 SR        000000000000 DENSO TEN (THAILAND)190J73L0003003                                                                                                                              *          20190514 IMCT                IMCT                                                                                                                    WMF1905146.TXT
MDEDK5286861201905                D89828070100PV4D20190517000030SPEAKER ASM                   M IMCTM S0FL05 TNTH  09020IMCT  S0 PTB  00004                    2230 SR        000000000000 DENSO TEN (THAILAND)190H29U0013013                                                                                                                              *          20190514 IMCT                IMCT                                                                                                                    WMF1905146.TXT
MDEDK5286862201905                D89828070100PV4D20190518000030SPEAKER ASM                   M IMCTM S0FL05 TNTH  09020IMCT  S0 PTB  00004                    0230 SR        000000000000 DENSO TEN (THAILAND)190K21U0039039                                                                                                                              *          20190514 IMCT                IMCT                                                                                                                    WMF1905146.TXT
MDEDK5286863201905                D89828070100PV4D20190518000060SPEAKER ASM                   M IMCTM S0FL05 TNTH  09020IMCT  S0 PTB  00004                    0400 SR        000000000000 DENSO TEN (THAILAND)190J94U0024024190K21U0040040                                                                                                                *          20190514 IMCT                IMCT                                                                                                                    WMF1905146.TXT
MDEDK5286864201905                D89828070100PV4D20190518000030SPEAKER ASM                   M IMCTM S0FL05 TNTH  09020IMCT  S0 PTB  00004                    1300 SR        000000000000 DENSO TEN (THAILAND)190K21U0041041                                                                                                                              *          20190514 IMCT                IMCT                                                                                                                    WMF1905146.TXT
MDEDK5286865201905                D89828070100PV4D20190518000030SPEAKER ASM                   M IMCTM S0FL05 TNTH  09020IMCT  S0 PTB  00004                    1600 SR        000000000000 DENSO TEN (THAILAND)190K21U0042042                                                                                                                              *          20190514 IMCT                IMCT                                                                                                                    WMF1905146.TXT
MDEDK5286866201905                D89828070100PV4D20190518000030SPEAKER ASM                   M IMCTM S0FL05 TNTH  09020IMCT  S0 PTB  00004                    2100 SR        000000000000 DENSO TEN (THAILAND)190K21U0043043                                                                                                                              *          20190514 IMCT                IMCT                                                                                                                    WMF1905146.TXT
MDEDK5286867201905                D89828070200PV1D20190518000060SPEAKER ASM                   M IMCTM S5MA14 TNTH  09020IMCT  S5 PTB  00005                    0230 SR        000000000000 DENSO TEN (THAILAND)190H28L0027028                                                                                                                              *          20190514 IMCT                IMCT                                                                                                                    WMF1905146.TXT
MDEDK5286868201905                D89828070200PV1D20190518000060SPEAKER ASM                   M IMCTM S5MA14 TNTH  09020IMCT  S5 PTB  00005                    1600 SR        000000000000 DENSO TEN (THAILAND)190K19L0004005                                                                                                                              *          20190514 IMCT                IMCT                                                                                                                    WMF1905146.TXT
MDEDK5286869201905                D89828070200PV4D20190517000030SPEAKER ASM                   M IMCTM S0FR05 TNTH  09020IMCT  S0 PTB  00005                    2230 SR        000000000000 DENSO TEN (THAILAND)190H29U0013013                                                                                                                              *          20190514 IMCT                IMCT                                                                                                                    WMF1905146.TXT
MDEDK5286870201905                D89828070200PV4D20190518000030SPEAKER ASM                   M IMCTM S0FR05 TNTH  09020IMCT  S0 PTB  00005                    0230 SR        000000000000 DENSO TEN (THAILAND)190K21U0039039                                                                                                                              *          20190514 IMCT                IMCT                                                                                                                    WMF1905146.TXT
MDEDK5286871201905                D89828070200PV4D20190518000030SPEAKER ASM                   M IMCTM S0FR05 TNTH  09020IMCT  S0 PTB  00005                    0400 SR        000000000000 DENSO TEN (THAILAND)190K21U0040040                                                                                                                              *          20190514 IMCT                IMCT                                                                                                                    WMF1905146.TXT
MDEDK5286872201905                D89828070200PV4D20190518000030SPEAKER ASM                   M IMCTM S0FR05 TNTH  09020IMCT  S0 PTB  00005                    1300 SR        000000000000 DENSO TEN (THAILAND)190K21U0041041                                                                                                                              *          20190514 IMCT                IMCT                                                                                                                    WMF1905146.TXT
MDEDK5286873201905                D89828070200PV4D20190518000030SPEAKER ASM                   M IMCTM S0FR05 TNTH  09020IMCT  S0 PTB  00005                    1600 SR        000000000000 DENSO TEN (THAILAND)190K21U0042042                                                                                                                              *          20190514 IMCT                IMCT                                                                                                                    WMF1905146.TXT
MDEDK5286874201905                D89828070200PV4D20190518000030SPEAKER ASM                   M IMCTM S0FR05 TNTH  09020IMCT  S0 PTB  00005                    2100 SR        000000000000 DENSO TEN (THAILAND)190K21U0043043                                                                                                                              *          20190514 IMCT                IMCT                                                                                                                    WMF1905146.TXT
MDEDK5286875201905                D89828070300PT1D20190518000060SPEAKER ASM                   M IMCTM S5NB082TNTH  09020IMCT  S5 PTB  00015                    0230 SR        000000000000 DENSO TEN (THAILAND)190H28L0027028                                                                                                                              *          20190514 IMCT                IMCT                                                                                                                    WMF1905146.TXT
MDEDK5286876201905                D89828070300PT1D20190518000060SPEAKER ASM                   M IMCTM S5NB082TNTH  09020IMCT  S5 PTB  00015                    1600 SR        000000000000 DENSO TEN (THAILAND)190K19L0004005                                                                                                                              *          20190514 IMCT                IMCT                                                                                                                    WMF1905146.TXT
MDEDK5286877201905                D89828070300PT1D20190518000030SPEAKER ASM                   M IMCTM S5NB082TNTH  09020IMCT  S5 PTB  00015                    2100 SR        000000000000 DENSO TEN (THAILAND)190J73L0003003                                                                                                                              *          20190514 IMCT                IMCT                                                                                                                    WMF1905146.TXT
MDEDK5286878201905                D89828070300PT4D20190517000030SPEAKER ASM                   M IMCTM S9TS02 TNTH  09020IMCT  S9 PTB  00015                    2230 SR        000000000000 DENSO TEN (THAILAND)190H29U0013013                                                                                                                              *          20190514 IMCT                IMCT                                                                                                                    WMF1905146.TXT
MDEDK5286879201905                D89828070300PT4D20190518000030SPEAKER ASM                   M IMCTM S9TS02 TNTH  09020IMCT  S9 PTB  00015                    0230 SR        000000000000 DENSO TEN (THAILAND)190K21U0039039                                                                                                                              *          20190514 IMCT                IMCT                                                                                                                    WMF1905146.TXT
MDEDK5286880201905                D89828070300PT4D20190518000030SPEAKER ASM                   M IMCTM S9TS02 TNTH  09020IMCT  S9 PTB  00015                    0400 SR        000000000000 DENSO TEN (THAILAND)190K21U0040040                                                                                                                              *          20190514 IMCT                IMCT                                                                                                                    WMF1905146.TXT
MDEDK5286881201905                D89828070300PT4D20190518000030SPEAKER ASM                   M IMCTM S9TS02 TNTH  09020IMCT  S9 PTB  00015                    1300 SR        000000000000 DENSO TEN (THAILAND)190K21U0041041                                                                                                                              *          20190514 IMCT                IMCT                                                                                                                    WMF1905146.TXT
MDEDK5286882201905                D89828070300PT4D20190518000030SPEAKER ASM                   M IMCTM S9TS02 TNTH  09020IMCT  S9 PTB  00015                    1600 SR        000000000000 DENSO TEN (THAILAND)190K21U0042042                                                                                                                              *          20190514 IMCT                IMCT                                                                                                                    WMF1905146.TXT
MDEDK5286883201905                D89828070300PT4D20190518000030SPEAKER ASM                   M IMCTM S9TS02 TNTH  09020IMCT  S9 PTB  00015                    2100 SR        000000000000 DENSO TEN (THAILAND)190K21U0043043                                                                                                                              *          20190514 IMCT                IMCT                                                                                                                    WMF1905146.TXT
MDEDK5286884201905                D89831229200PT1D20190518000015RADIO;AM/FM,CD                M IMCTM S5NC06 TNTH  09020IMCT  S5 PTB  00003                    2100 SR        000000000000 DENSO TEN (THAILAND)190J73L0003003                                                                                                                              *          20190514 IMCT                IMCT                                                                                                                    WMF1905146.TXT
MDEDK5286885201905                D89838031200PT1D20190518000030RADIO;ASM DVD                 M IMCTM S5NC06 TNTH  09020IMCT  S5 PTB  00003                    1600 SR        000000000000 DENSO TEN (THAILAND)190K19L0004005                                                                                                                              *          20190514 IMCT                IMCT                                                                                                                    WMF1905146.TXT
MDEDK5286886201905                D89838031200PT4D20190518000015RADIO;ASM DVD                 M IMCTM S9CO001TNTH  09020IMCT  S9 PTB  00003                    0230 SR        000000000000 DENSO TEN (THAILAND)190K21U0039039                                                                                                                              *          20190514 IMCT                IMCT                                                                                                                    WMF1905146.TXT
MDEDK5286887201905                D89838031200PT4D20190518000015RADIO;ASM DVD                 M IMCTM S9CO001TNTH  09020IMCT  S9 PTB  00003                    0400 SR        000000000000 DENSO TEN (THAILAND)190K21U0040040                                                                                                                              *          20190514 IMCT                IMCT                                                                                                                    WMF1905146.TXT
MDEDK5286888201905                D89838031200PT4D20190518000015RADIO;ASM DVD                 M IMCTM S9CO001TNTH  09020IMCT  S9 PTB  00003                    1300 SR        000000000000 DENSO TEN (THAILAND)190K21U0041041                                                                                                                              *          20190514 IMCT                IMCT                                                                                                                    WMF1905146.TXT
MDEDK5286889201905                D89838031200PT4D20190518000015RADIO;ASM DVD                 M IMCTM S9CO001TNTH  09020IMCT  S9 PTB  00003                    1600 SR        000000000000 DENSO TEN (THAILAND)190K21U0042042                                                                                                                              *          20190514 IMCT                IMCT                                                                                                                    WMF1905146.TXT
MDEDK5286890201905                D89838031200PT4D20190518000015RADIO;ASM DVD                 M IMCTM S9CO001TNTH  09020IMCT  S9 PTB  00003                    2100 SR        000000000000 DENSO TEN (THAILAND)190K21U0043043                                                                                                                              *          20190514 IMCT                IMCT                                                                                                                    WMF1905146.TXT
