REC2019051620190516ISUZU                              5      
MDEFK5T12264201905                D89828070100PV4F20190521000024SPEAKER ASM                   M IMCTM S7FL05 TNTH  09020IMCT  S7 PTB  00004                    2100 SR        000000000000 DENSO TEN (THAILAND)17041PR0076   190D08R0032   D190504304    D190504315    000000                                                                              *R         20190516 IMCT                IMCT                                                                                                                    RMF1905168.TXT
MDEFK5T12265201905                D89828070300PT4F20190521000030SPEAKER ASM                   M IMCTM S7TS02 TNTH  09020IMCT  S7 PTB  00015                    0830 SR        000000000000 DENSO TEN (THAILAND)190H63R0032   190H72R0017   F190504201    F190504215    000000                                                                              *R         20190516 IMCT                IMCT                                                                                                                    RMF1905168.TXT
MDEFK5T12266201905                D89848582800PT4F20190521000005RADIO;AM/FM CD D              M IMCTM S7TS01 TNTH  09020IMCT  S7 PTB  00003                    0830 SR        000000000000 DENSO TEN (THAILAND)190H65R0023   190H65R0027   F190504206    F190504210    000000                                                                              *R         20190516 IMCT                IMCT                                                                                                                    RMF1905168.TXT
MDEFK5231358201905                D89828070100PV4F20190521000032SPEAKER ASM                   M IMCTM S7FL05 TNTH  09020IMCT  S7 PTB  00004                    0830 SR        000000000000 DENSO TEN (THAILAND)190H63R0032   17041PR0073   F190504201    D190504301    000000                                                                              *R         20190516 IMCT                IMCT                                                                                                                    RMF1905168.TXT
MDEFK5231359201905                D89828070100PV4F20190521000004SPEAKER ASM                   M IMCTM S7FL05 TNTH  09020IMCT  S7 PTB  00004                    1600 SR        000000000000 DENSO TEN (THAILAND)17041PR0074   17041PR0075   D190504302    D190504303    000000                                                                              *R         20190516 IMCT                IMCT                                                                                                                    RMF1905168.TXT
