REC2019052720190527ISUZU                              24     
MDD6K5301226201905                D89821984430PT5620190530000030RADIO;AM/FM,CD                M IMCTM G9J213 TNTH  09020G/WAY G9 PTB  00005                    2100 GW        0000000000005DENSO TEN (THAILAND)190MYAG0211211                                                                                                                              *          20190527 IMCT                IMCT                                                                                                                    WMF1905272.TXT
MDD6K5301227201905                D89821984430PT5620190531000030RADIO;AM/FM,CD                M IMCTM G9J213 TNTH  09020G/WAY G9 PTB  00005                    0200 GW        0000000000005DENSO TEN (THAILAND)190MYAG0212212                                                                                                                              *          20190527 IMCT                IMCT                                                                                                                    WMF1905272.TXT
MDD6K5301228201905                D89828070100PV5620190530000120SPEAKER ASM                   M IMCTM G9B114 TNTH  09020G/WAY G9 PTB  00004                    2100 GW        0000000000005DENSO TEN (THAILAND)190MREG0097097190MYAG0211211                                                                                                                *          20190527 IMCT                IMCT                                                                                                                    WMF1905272.TXT
MDD6K5301229201905                D89828070100PV5620190530000060SPEAKER ASM                   M IMCTM G9B114 TNTH  09020G/WAY G9 PTB  00004                    2300 GW        0000000000005DENSO TEN (THAILAND)190MRYG0016016                                                                                                                              *          20190527 IMCT                IMCT                                                                                                                    WMF1905272.TXT
MDD6K5301230201905                D89828070100PV5620190531000060SPEAKER ASM                   M IMCTM G9B114 TNTH  09020G/WAY G9 PTB  00004                    0200 GW        0000000000005DENSO TEN (THAILAND)190MYAG0212212                                                                                                                              *          20190527 IMCT                IMCT                                                                                                                    WMF1905272.TXT
MDD6K5301231201905                D89828070100PV5620190531000060SPEAKER ASM                   M IMCTM G9B114 TNTH  09020G/WAY G9 PTB  00004                    0330 GW        0000000000005DENSO TEN (THAILAND)190MRXG0014014                                                                                                                              *          20190527 IMCT                IMCT                                                                                                                    WMF1905272.TXT
MDD6K5301232201905                D89828070100PV5620190531000120SPEAKER ASM                   M IMCTM G9B114 TNTH  09020G/WAY G9 PTB  00004                    0900 GW        0000000000005DENSO TEN (THAILAND)190MPGG0280280190MRJG0044044                                                                                                                *          20190527 IMCT                IMCT                                                                                                                    WMF1905272.TXT
MDD6K5301233201905                D89828070100PV5620190531000060SPEAKER ASM                   M IMCTM G9B114 TNTH  09020G/WAY G9 PTB  00004                    1100 GW        0000000000005DENSO TEN (THAILAND)190MRXG0015015                                                                                                                              *          20190527 IMCT                IMCT                                                                                                                    WMF1905272.TXT
MDD6K5301234201905                D89828070100PV5620190531000060SPEAKER ASM                   M IMCTM G9B114 TNTH  09020G/WAY G9 PTB  00004                    1400 GW        0000000000005DENSO TEN (THAILAND)190MRXG0016016                                                                                                                              *          20190527 IMCT                IMCT                                                                                                                    WMF1905272.TXT
MDD6K5301235201905                D89828070200PV5620190530000060SPEAKER ASM                   M IMCTM G6F132 TNTH  09020G/WAY G6 PTB  00005                    2100 GW        0000000000005DENSO TEN (THAILAND)190MREG0097097                                                                                                                              *          20190527 IMCT                IMCT                                                                                                                    WMF1905272.TXT
MDD6K5301236201905                D89828070200PV5620190530000060SPEAKER ASM                   M IMCTM G6F132 TNTH  09020G/WAY G6 PTB  00005                    2300 GW        0000000000005DENSO TEN (THAILAND)190MRYG0016016                                                                                                                              *          20190527 IMCT                IMCT                                                                                                                    WMF1905272.TXT
MDD6K5301237201905                D89828070200PV5620190531000060SPEAKER ASM                   M IMCTM G6F132 TNTH  09020G/WAY G6 PTB  00005                    0330 GW        0000000000005DENSO TEN (THAILAND)190MRXG0014014                                                                                                                              *          20190527 IMCT                IMCT                                                                                                                    WMF1905272.TXT
MDD6K5301238201905                D89828070200PV5620190531000060SPEAKER ASM                   M IMCTM G6F132 TNTH  09020G/WAY G6 PTB  00005                    0900 GW        0000000000005DENSO TEN (THAILAND)190MRJG0044044                                                                                                                              *          20190527 IMCT                IMCT                                                                                                                    WMF1905272.TXT
MDD6K5301239201905                D89828070200PV5620190531000060SPEAKER ASM                   M IMCTM G6F132 TNTH  09020G/WAY G6 PTB  00005                    1100 GW        0000000000005DENSO TEN (THAILAND)190MRXG0015015                                                                                                                              *          20190527 IMCT                IMCT                                                                                                                    WMF1905272.TXT
MDD6K5301240201905                D89828070200PV5620190531000060SPEAKER ASM                   M IMCTM G6F132 TNTH  09020G/WAY G6 PTB  00005                    1400 GW        0000000000005DENSO TEN (THAILAND)190MRXG0016016                                                                                                                              *          20190527 IMCT                IMCT                                                                                                                    WMF1905272.TXT
MDD6K5301241201905                D89828070300PT5620190530000060SPEAKER ASM                   M IMCTM G9JA33 TNTH  09020G/WAY G9 PTB  00015                    2100 GW        0000000000005DENSO TEN (THAILAND)190MREG0097097                                                                                                                              *          20190527 IMCT                IMCT                                                                                                                    WMF1905272.TXT
MDD6K5301242201905                D89828070300PT5620190530000060SPEAKER ASM                   M IMCTM G9JA33 TNTH  09020G/WAY G9 PTB  00015                    2300 GW        0000000000005DENSO TEN (THAILAND)190MRYG0016016                                                                                                                              *          20190527 IMCT                IMCT                                                                                                                    WMF1905272.TXT
MDD6K5301243201905                D89828070300PT5620190531000060SPEAKER ASM                   M IMCTM G9JA33 TNTH  09020G/WAY G9 PTB  00015                    0330 GW        0000000000005DENSO TEN (THAILAND)190MRXG0014014                                                                                                                              *          20190527 IMCT                IMCT                                                                                                                    WMF1905272.TXT
MDD6K5301244201905                D89828070300PT5620190531000120SPEAKER ASM                   M IMCTM G9JA33 TNTH  09020G/WAY G9 PTB  00015                    0900 GW        0000000000005DENSO TEN (THAILAND)190MPGG0280280190MRJG0044044                                                                                                                *          20190527 IMCT                IMCT                                                                                                                    WMF1905272.TXT
MDD6K5301245201905                D89828070300PT5620190531000060SPEAKER ASM                   M IMCTM G9JA33 TNTH  09020G/WAY G9 PTB  00015                    1100 GW        0000000000005DENSO TEN (THAILAND)190MRXG0015015                                                                                                                              *          20190527 IMCT                IMCT                                                                                                                    WMF1905272.TXT
MDD6K5301246201905                D89828070300PT5620190531000060SPEAKER ASM                   M IMCTM G9JA33 TNTH  09020G/WAY G9 PTB  00015                    1400 GW        0000000000005DENSO TEN (THAILAND)190MRXG0016016                                                                                                                              *          20190527 IMCT                IMCT                                                                                                                    WMF1905272.TXT
MDD6K5301247201905                D89831228300PT5620190531000030RADIO;AM/FM,CD                M IMCTM G9J213 TNTH  09020G/WAY G9 CPB  00003                    0900 GW        0000000000005DENSO TEN (THAILAND)190MPGG0280280                                                                                                                              *          20190527 IMCT                IMCT                                                                                                                    WMF1905272.TXT
MDD6K5301248201905                D89831228400PT5620190530000030RADIO;AM/FM,CD                M IMCTM G9J213 TNTH  09020G/WAY G9 CPB  00003                    2100 GW        0000000000005DENSO TEN (THAILAND)190MREG0097097                                                                                                                              *          20190527 IMCT                IMCT                                                                                                                    WMF1905272.TXT
MDD6K5301249201905                D89848581500PT5620190531000030RADIO;AM/FM CD D              M IMCTM G9J213 TNTH  09020G/WAY G9 PTB  00003                    0900 GW        0000000000005DENSO TEN (THAILAND)190MRJG0044044                                                                                                                              *          20190527 IMCT                IMCT                                                                                                                    WMF1905272.TXT
