REC2019051520190515ISUZU                              45     
MDDDK5258269201905                D89821984430PT1D20190520000030RADIO;AM/FM,CD                M IMCTM S5NC06 TNTH  09020IMCT  S5 PTB  00005                    0830 SR        000000000000 DENSO TEN (THAILAND)190MXEL0067067                                                                                                                              *          20190515 IMCT                IMCT                                                                                                                    WMF1905154.TXT
MDDDK5258270201905                D89821984430PT1D20190520000030RADIO;AM/FM,CD                M IMCTM S5NC06 TNTH  09020IMCT  S5 PTB  00005                    2100 SR        000000000000 DENSO TEN (THAILAND)190MRAL0109109                                                                                                                              *          20190515 IMCT                IMCT                                                                                                                    WMF1905154.TXT
MDDDK5258271201905                D89821984430PT1D20190520000030RADIO;AM/FM,CD                M IMCTM S5NC06 TNTH  09020IMCT  S5 PTB  00005                    2230 SR        000000000000 DENSO TEN (THAILAND)190MYAL0170170                                                                                                                              *          20190515 IMCT                IMCT                                                                                                                    WMF1905154.TXT
MDDDK5258272201905                D89828070100PV1D20190518000060SPEAKER ASM                   M IMCTM S5MB11 TNTH  09020IMCT  S5 PTB  00004                    2230 SR        000000000000 DENSO TEN (THAILAND)190MRTL0022022                                                                                                                              *          20190515 IMCT                IMCT                                                                                                                    WMF1905154.TXT
MDDDK5258273201905                D89828070100PV1D20190519000060SPEAKER ASM                   M IMCTM S5MB11 TNTH  09020IMCT  S5 PTB  00004                    0400 SR        000000000000 DENSO TEN (THAILAND)190MPJL0031031                                                                                                                              *          20190515 IMCT                IMCT                                                                                                                    WMF1905154.TXT
MDDDK5258274201905                D89828070100PV1D20190520000060SPEAKER ASM                   M IMCTM S5MB11 TNTH  09020IMCT  S5 PTB  00004                    0830 SR        000000000000 DENSO TEN (THAILAND)190MXEL0067067                                                                                                                              *          20190515 IMCT                IMCT                                                                                                                    WMF1905154.TXT
MDDDK5258275201905                D89828070100PV1D20190520000060SPEAKER ASM                   M IMCTM S5MB11 TNTH  09020IMCT  S5 PTB  00004                    1030 SR        000000000000 DENSO TEN (THAILAND)190MXBL0020020                                                                                                                              *          20190515 IMCT                IMCT                                                                                                                    WMF1905154.TXT
MDDDK5258276201905                D89828070100PV1D20190520000120SPEAKER ASM                   M IMCTM S5MB11 TNTH  09020IMCT  S5 PTB  00004                    1300 SR        000000000000 DENSO TEN (THAILAND)190MPTL0008008190MREL0008008                                                                                                                *          20190515 IMCT                IMCT                                                                                                                    WMF1905154.TXT
MDDDK5258277201905                D89828070100PV1D20190520000060SPEAKER ASM                   M IMCTM S5MB11 TNTH  09020IMCT  S5 PTB  00004                    2100 SR        000000000000 DENSO TEN (THAILAND)190MRAL0109109                                                                                                                              *          20190515 IMCT                IMCT                                                                                                                    WMF1905154.TXT
MDDDK5258278201905                D89828070100PV1D20190520000060SPEAKER ASM                   M IMCTM S5MB11 TNTH  09020IMCT  S5 PTB  00004                    2230 SR        000000000000 DENSO TEN (THAILAND)190MYAL0170170                                                                                                                              *          20190515 IMCT                IMCT                                                                                                                    WMF1905154.TXT
MDDDK5258279201905                D89828070100PV4D20190520000060SPEAKER ASM                   M IMCTM S0FL05 TNTH  09020IMCT  S0 PTB  00004                    1300 SR        000000000000 DENSO TEN (THAILAND)190MRSU0037037                                                                                                                              *          20190515 IMCT                IMCT                                                                                                                    WMF1905154.TXT
MDDDK5258280201905                D89828070200PV1D20190518000060SPEAKER ASM                   M IMCTM S5MA14 TNTH  09020IMCT  S5 PTB  00005                    2230 SR        000000000000 DENSO TEN (THAILAND)190MRTL0022022                                                                                                                              *          20190515 IMCT                IMCT                                                                                                                    WMF1905154.TXT
MDDDK5258281201905                D89828070200PV1D20190520000060SPEAKER ASM                   M IMCTM S5MA14 TNTH  09020IMCT  S5 PTB  00005                    1300 SR        000000000000 DENSO TEN (THAILAND)190MREL0008008                                                                                                                              *          20190515 IMCT                IMCT                                                                                                                    WMF1905154.TXT
MDDDK5258282201905                D89828070200PV4D20190520000060SPEAKER ASM                   M IMCTM S0FR05 TNTH  09020IMCT  S0 PTB  00005                    1300 SR        000000000000 DENSO TEN (THAILAND)190MRSU0037037                                                                                                                              *          20190515 IMCT                IMCT                                                                                                                    WMF1905154.TXT
MDDDK5258283201905                D89828070300PT1D20190518000060SPEAKER ASM                   M IMCTM S5NB082TNTH  09020IMCT  S5 PTB  00015                    2230 SR        000000000000 DENSO TEN (THAILAND)190MRTL0022022                                                                                                                              *          20190515 IMCT                IMCT                                                                                                                    WMF1905154.TXT
MDDDK5258284201905                D89828070300PT1D20190519000060SPEAKER ASM                   M IMCTM S5NB082TNTH  09020IMCT  S5 PTB  00015                    0400 SR        000000000000 DENSO TEN (THAILAND)190MPJL0031031                                                                                                                              *          20190515 IMCT                IMCT                                                                                                                    WMF1905154.TXT
MDDDK5258285201905                D89828070300PT1D20190520000120SPEAKER ASM                   M IMCTM S5NB082TNTH  09020IMCT  S5 PTB  00015                    1300 SR        000000000000 DENSO TEN (THAILAND)190MPTL0008008190MREL0008008                                                                                                                *          20190515 IMCT                IMCT                                                                                                                    WMF1905154.TXT
MDDDK5258286201905                D89828070300PT4D20190520000060SPEAKER ASM                   M IMCTM S9TS02 TNTH  09020IMCT  S9 PTB  00015                    1300 SR        000000000000 DENSO TEN (THAILAND)190MRSU0037037                                                                                                                              *          20190515 IMCT                IMCT                                                                                                                    WMF1905154.TXT
MDDDK5258287201905                D89831228300PT1D20190519000030RADIO;AM/FM,CD                M IMCTM S5NC06 TNTH  09020IMCT  S5 CPB  00003                    0400 SR        000000000000 DENSO TEN (THAILAND)190MPJL0031031                                                                                                                              *          20190515 IMCT                IMCT                                                                                                                    WMF1905154.TXT
MDDDK5258288201905                D89831228400PT1D20190520000030RADIO;AM/FM,CD                M IMCTM S5NC06 TNTH  09020IMCT  S5 CPB  00003                    1300 SR        000000000000 DENSO TEN (THAILAND)190MREL0008008                                                                                                                              *          20190515 IMCT                IMCT                                                                                                                    WMF1905154.TXT
MDDDK5258289201905                D89848581500PT1D20190518000030RADIO;AM/FM CD D              M IMCTM S5NC06 TNTH  09020IMCT  S5 PTB  00003                    2230 SR        000000000000 DENSO TEN (THAILAND)190MRTL0022022                                                                                                                              *          20190515 IMCT                IMCT                                                                                                                    WMF1905154.TXT
MDDUK5218336201905                D89828070100PT4U20190519000030SPEAKER ASM                   M IMCTM S0FL05 TNTH  09020IMCT  S0 PTB  00004                    0230 SR        000000000000 DENSO TEN (THAILAND)190MUGU0091091                                                                                                                              *          20190515 IMCT                IMCT                                                                                                                    WMF1905154.TXT
MDDUK5218337201905                D89828070100PT4U20190520000030SPEAKER ASM                   M IMCTM S0FL05 TNTH  09020IMCT  S0 PTB  00004                    1300 SR        000000000000 DENSO TEN (THAILAND)190MUGU0092092                                                                                                                              *          20190515 IMCT                IMCT                                                                                                                    WMF1905154.TXT
MDDUK5218338201905                D89828070100PT4U20190520000030SPEAKER ASM                   M IMCTM S0FL05 TNTH  09020IMCT  S0 PTB  00004                    1600 SR        000000000000 DENSO TEN (THAILAND)190MUEU0141141                                                                                                                              *          20190515 IMCT                IMCT                                                                                                                    WMF1905154.TXT
MDDUK5218339201905                D89828070200PV4U20190519000030SPEAKER ASM                   M IMCTM S0FR05 TNTH  09020IMCT  S0 PTB  00005                    0230 SR        000000000000 DENSO TEN (THAILAND)190MUGU0091091                                                                                                                              *          20190515 IMCT                IMCT                                                                                                                    WMF1905154.TXT
MDDUK5218340201905                D89828070200PV4U20190520000030SPEAKER ASM                   M IMCTM S0FR05 TNTH  09020IMCT  S0 PTB  00005                    1300 SR        000000000000 DENSO TEN (THAILAND)190MUGU0092092                                                                                                                              *          20190515 IMCT                IMCT                                                                                                                    WMF1905154.TXT
MDDUK5218341201905                D89828070200PV4U20190520000030SPEAKER ASM                   M IMCTM S0FR05 TNTH  09020IMCT  S0 PTB  00005                    1600 SR        000000000000 DENSO TEN (THAILAND)190MUEU0141141                                                                                                                              *          20190515 IMCT                IMCT                                                                                                                    WMF1905154.TXT
MDDUK5218342201905                D89828070300PT4U20190519000030SPEAKER ASM                   M IMCTM S9TS02 TNTH  09020IMCT  S9 PTB  00015                    0230 SR        000000000000 DENSO TEN (THAILAND)190MUGU0091091                                                                                                                              *          20190515 IMCT                IMCT                                                                                                                    WMF1905154.TXT
MDDUK5218343201905                D89828070300PT4U20190520000030SPEAKER ASM                   M IMCTM S9TS02 TNTH  09020IMCT  S9 PTB  00015                    1300 SR        000000000000 DENSO TEN (THAILAND)190MUGU0092092                                                                                                                              *          20190515 IMCT                IMCT                                                                                                                    WMF1905154.TXT
MDDUK5218344201905                D89828070300PT4U20190520000030SPEAKER ASM                   M IMCTM S9TS02 TNTH  09020IMCT  S9 PTB  00015                    1600 SR        000000000000 DENSO TEN (THAILAND)190MUEU0141141                                                                                                                              *          20190515 IMCT                IMCT                                                                                                                    WMF1905154.TXT
MDEDK5295386201905                D89828070100PV1D20190518000060SPEAKER ASM                   M IMCTM S5MB11 TNTH  09020IMCT  S5 PTB  00004                    2230 SR        000000000000 DENSO TEN (THAILAND)190H02L0025026                                                                                                                              *          20190515 IMCT                IMCT                                                                                                                    WMF1905154.TXT
MDEDK5295387201905                D89828070100PV1D20190519000060SPEAKER ASM                   M IMCTM S5MB11 TNTH  09020IMCT  S5 PTB  00004                    0230 SR        000000000000 DENSO TEN (THAILAND)190H02L0027028                                                                                                                              *          20190515 IMCT                IMCT                                                                                                                    WMF1905154.TXT
MDEDK5295388201905                D89828070100PV1D20190519000060SPEAKER ASM                   M IMCTM S5MB11 TNTH  09020IMCT  S5 PTB  00004                    0400 SR        000000000000 DENSO TEN (THAILAND)190H04L0027028                                                                                                                              *          20190515 IMCT                IMCT                                                                                                                    WMF1905154.TXT
MDEDK5295389201905                D89828070100PV1D20190520000030SPEAKER ASM                   M IMCTM S5MB11 TNTH  09020IMCT  S5 PTB  00004                    0830 SR        000000000000 DENSO TEN (THAILAND)190H04L0029029                                                                                                                              *          20190515 IMCT                IMCT                                                                                                                    WMF1905154.TXT
MDEDK5295390201905                D89828070100PV1D20190520000030SPEAKER ASM                   M IMCTM S5MB11 TNTH  09020IMCT  S5 PTB  00004                    1030 SR        000000000000 DENSO TEN (THAILAND)190H04L0030030                                                                                                                              *          20190515 IMCT                IMCT                                                                                                                    WMF1905154.TXT
MDEDK5295391201905                D89828070100PV1D20190520000060SPEAKER ASM                   M IMCTM S5MB11 TNTH  09020IMCT  S5 PTB  00004                    1300 SR        000000000000 DENSO TEN (THAILAND)190H04L0031032                                                                                                                              *          20190515 IMCT                IMCT                                                                                                                    WMF1905154.TXT
MDEDK5295392201905                D89828070100PV1D20190520000060SPEAKER ASM                   M IMCTM S5MB11 TNTH  09020IMCT  S5 PTB  00004                    1600 SR        000000000000 DENSO TEN (THAILAND)190H02L0029030                                                                                                                              *          20190515 IMCT                IMCT                                                                                                                    WMF1905154.TXT
MDEDK5295393201905                D89828070100PV4D20190518000030SPEAKER ASM                   M IMCTM S0FL05 TNTH  09020IMCT  S0 PTB  00004                    2230 SR        000000000000 DENSO TEN (THAILAND)190H11U0001001                                                                                                                              *          20190515 IMCT                IMCT                                                                                                                    WMF1905154.TXT
MDEDK5295394201905                D89828070100PV4D20190519000030SPEAKER ASM                   M IMCTM S0FL05 TNTH  09020IMCT  S0 PTB  00004                    0230 SR        000000000000 DENSO TEN (THAILAND)190H11U0002002                                                                                                                              *          20190515 IMCT                IMCT                                                                                                                    WMF1905154.TXT
MDEDK5295395201905                D89828070100PV4D20190519000060SPEAKER ASM                   M IMCTM S0FL05 TNTH  09020IMCT  S0 PTB  00004                    0400 SR        000000000000 DENSO TEN (THAILAND)190H11U0003004                                                                                                                              *          20190515 IMCT                IMCT                                                                                                                    WMF1905154.TXT
MDEDK5295396201905                D89828070100PV4D20190520000030SPEAKER ASM                   M IMCTM S0FL05 TNTH  09020IMCT  S0 PTB  00004                    1030 SR        000000000000 DENSO TEN (THAILAND)190H11U0005005                                                                                                                              *          20190515 IMCT                IMCT                                                                                                                    WMF1905154.TXT
MDEDK5295397201905                D89828070100PV4D20190520000030SPEAKER ASM                   M IMCTM S0FL05 TNTH  09020IMCT  S0 PTB  00004                    2100 SR        000000000000 DENSO TEN (THAILAND)190H11U0006006                                                                                                                              *          20190515 IMCT                IMCT                                                                                                                    WMF1905154.TXT
MDEUK5220221201905                D89828070100PT4U20190520000030SPEAKER ASM                   M IMCTM S0FL05 TNTH  09020IMCT  S0 PTB  00004                    0830 SR        000000000000 DENSO TEN (THAILAND)190G25U0026026                                                                                                                              *          20190515 IMCT                IMCT                                                                                                                    WMF1905154.TXT
MDEUK5220222201905                D89828070200PV4U20190520000030SPEAKER ASM                   M IMCTM S0FR05 TNTH  09020IMCT  S0 PTB  00005                    0830 SR        000000000000 DENSO TEN (THAILAND)190G25U0026026                                                                                                                              *          20190515 IMCT                IMCT                                                                                                                    WMF1905154.TXT
MDEUK5220223201905                D89828070300PT4U20190520000030SPEAKER ASM                   M IMCTM S9TS02 TNTH  09020IMCT  S9 PTB  00015                    0830 SR        000000000000 DENSO TEN (THAILAND)190G25U0026026                                                                                                                              *          20190515 IMCT                IMCT                                                                                                                    WMF1905154.TXT
