REC2019050720190507ISUZU                              68     
MDDDK5213070201905                D89821984430PT1D20190511000030RADIO;AM/FM,CD                M IMCTM S5NC06 TNTH  09020IMCT  S5 PTB  00005                    0830 SR        000000000000 DENSO TEN (THAILAND)190MNGL0144144                                                                                                                              *          20190507 IMCT                IMCT                                                                                                                    WMF1905074.TXT
MDDDK5213071201905                D89821984430PT1D20190511000030RADIO;AM/FM,CD                M IMCTM S5NC06 TNTH  09020IMCT  S5 PTB  00005                    1300 SR        000000000000 DENSO TEN (THAILAND)190MNGL0145145                                                                                                                              *          20190507 IMCT                IMCT                                                                                                                    WMF1905074.TXT
MDDDK5213072201905                D89828070100PV1D20190511000060SPEAKER ASM                   M IMCTM S5MB11 TNTH  09020IMCT  S5 PTB  00004                    0830 SR        000000000000 DENSO TEN (THAILAND)190MNGL0144144                                                                                                                              *          20190507 IMCT                IMCT                                                                                                                    WMF1905074.TXT
MDDDK5213073201905                D89828070100PV1D20190511000120SPEAKER ASM                   M IMCTM S5MB11 TNTH  09020IMCT  S5 PTB  00004                    1300 SR        000000000000 DENSO TEN (THAILAND)190MNGL0145145190MPGL0152152                                                                                                                *          20190507 IMCT                IMCT                                                                                                                    WMF1905074.TXT
MDDDK5213074201905                D89828070100PV1D20190511000060SPEAKER ASM                   M IMCTM S5MB11 TNTH  09020IMCT  S5 PTB  00004                    2100 SR        000000000000 DENSO TEN (THAILAND)190MXBL0018018                                                                                                                              *          20190507 IMCT                IMCT                                                                                                                    WMF1905074.TXT
MDDDK5213075201905                D89828070300PT1D20190511000060SPEAKER ASM                   M IMCTM S5NB082TNTH  09020IMCT  S5 PTB  00015                    1300 SR        000000000000 DENSO TEN (THAILAND)190MPGL0152152                                                                                                                              *          20190507 IMCT                IMCT                                                                                                                    WMF1905074.TXT
MDDDK5213076201905                D89831228300PT1D20190511000030RADIO;AM/FM,CD                M IMCTM S5NC06 TNTH  09020IMCT  S5 CPB  00003                    1300 SR        000000000000 DENSO TEN (THAILAND)190MPGL0152152                                                                                                                              *          20190507 IMCT                IMCT                                                                                                                    WMF1905074.TXT
MDEDK5227983201905                D89752845100PT1D20190511000030RADIO;AM FM,CD D              M IMCTM S5NC06 TNTH  09020IMCT  S5 PTB  00003                    0400 SR        000000000000 DENSO TEN (THAILAND)190F93L0037038                                                                                                                              *          20190507 IMCT                IMCT                                                                                                                    WMF1905074.TXT
MDEDK5227984201905                D89752845100PT1D20190511000030RADIO;AM FM,CD D              M IMCTM S5NC06 TNTH  09020IMCT  S5 PTB  00003                    1300 SR        000000000000 DENSO TEN (THAILAND)190G19L0053054                                                                                                                              *          20190507 IMCT                IMCT                                                                                                                    WMF1905074.TXT
MDEDK5227985201905                D89752845100PT1D20190511000030RADIO;AM FM,CD D              M IMCTM S5NC06 TNTH  09020IMCT  S5 PTB  00003                    1600 SR        000000000000 DENSO TEN (THAILAND)190G19L0055056                                                                                                                              *          20190507 IMCT                IMCT                                                                                                                    WMF1905074.TXT
MDEDK5227986201905                D89752845100PT4D20190511000015RADIO;AM FM,CD D              M IMCTM S9AD002TNTH  09020IMCT  S9 PTB  00003                    2230 SR        000000000000 DENSO TEN (THAILAND)190G19U0005005                                                                                                                              *          20190507 IMCT                IMCT                                                                                                                    WMF1905074.TXT
MDEDK5227987201905                D89828070100PV1D20190510000090SPEAKER ASM                   M IMCTM S5MB11 TNTH  09020IMCT  S5 PTB  00004                    2230 SR        000000000000 DENSO TEN (THAILAND)190H77L0005005190J32L0004004190K83L0020020                                                                                                  *          20190507 IMCT                IMCT                                                                                                                    WMF1905074.TXT
MDEDK5227988201905                D89828070100PV1D20190511000090SPEAKER ASM                   M IMCTM S5MB11 TNTH  09020IMCT  S5 PTB  00004                    0230 SR        000000000000 DENSO TEN (THAILAND)190J94L0090091190K09L0002002                                                                                                                *          20190507 IMCT                IMCT                                                                                                                    WMF1905074.TXT
MDEDK5227989201905                D89828070100PV1D20190511000120SPEAKER ASM                   M IMCTM S5MB11 TNTH  09020IMCT  S5 PTB  00004                    0400 SR        000000000000 DENSO TEN (THAILAND)190F93L0037038190K53L0002003                                                                                                                *          20190507 IMCT                IMCT                                                                                                                    WMF1905074.TXT
MDEDK5227990201905                D89828070100PV1D20190511000060SPEAKER ASM                   M IMCTM S5MB11 TNTH  09020IMCT  S5 PTB  00004                    0830 SR        000000000000 DENSO TEN (THAILAND)190H17L0027027190J08L0007007                                                                                                                *          20190507 IMCT                IMCT                                                                                                                    WMF1905074.TXT
MDEDK5227991201905                D89828070100PV1D20190511000030SPEAKER ASM                   M IMCTM S5MB11 TNTH  09020IMCT  S5 PTB  00004                    1030 SR        000000000000 DENSO TEN (THAILAND)190H26L0014014                                                                                                                              *          20190507 IMCT                IMCT                                                                                                                    WMF1905074.TXT
MDEDK5227992201905                D89828070100PV1D20190511000090SPEAKER ASM                   M IMCTM S5MB11 TNTH  09020IMCT  S5 PTB  00004                    1300 SR        000000000000 DENSO TEN (THAILAND)190G19L0053054190H26L0015015                                                                                                                *          20190507 IMCT                IMCT                                                                                                                    WMF1905074.TXT
MDEDK5227993201905                D89828070100PV1D20190511000060SPEAKER ASM                   M IMCTM S5MB11 TNTH  09020IMCT  S5 PTB  00004                    1600 SR        000000000000 DENSO TEN (THAILAND)190G19L0055056                                                                                                                              *          20190507 IMCT                IMCT                                                                                                                    WMF1905074.TXT
MDEDK5227994201905                D89828070100PV1D20190511000060SPEAKER ASM                   M IMCTM S5MB11 TNTH  09020IMCT  S5 PTB  00004                    2230 SR        000000000000 DENSO TEN (THAILAND)190K69L0003003190K82L0001001                                                                                                                *          20190507 IMCT                IMCT                                                                                                                    WMF1905074.TXT
MDEDK5227995201905                D89828070100PV4D20190511000030SPEAKER ASM                   M IMCTM S0FL05 TNTH  09020IMCT  S0 PTB  00004                    0230 SR        000000000000 DENSO TEN (THAILAND)190K83U0002002                                                                                                                              *          20190507 IMCT                IMCT                                                                                                                    WMF1905074.TXT
MDEDK5227996201905                D89828070100PV4D20190511000030SPEAKER ASM                   M IMCTM S0FL05 TNTH  09020IMCT  S0 PTB  00004                    0400 SR        000000000000 DENSO TEN (THAILAND)190H17U0024024                                                                                                                              *          20190507 IMCT                IMCT                                                                                                                    WMF1905074.TXT
MDEDK5227997201905                D89828070100PV4D20190511000030SPEAKER ASM                   M IMCTM S0FL05 TNTH  09020IMCT  S0 PTB  00004                    1030 SR        000000000000 DENSO TEN (THAILAND)190H19U0008008                                                                                                                              *          20190507 IMCT                IMCT                                                                                                                    WMF1905074.TXT
MDEDK5227998201905                D89828070100PV4D20190511000030SPEAKER ASM                   M IMCTM S0FL05 TNTH  09020IMCT  S0 PTB  00004                    1600 SR        000000000000 DENSO TEN (THAILAND)190H19U0009009                                                                                                                              *          20190507 IMCT                IMCT                                                                                                                    WMF1905074.TXT
MDEDK5227999201905                D89828070100PV4D20190511000030SPEAKER ASM                   M IMCTM S0FL05 TNTH  09020IMCT  S0 PTB  00004                    2230 SR        000000000000 DENSO TEN (THAILAND)190G19U0005005                                                                                                                              *          20190507 IMCT                IMCT                                                                                                                    WMF1905074.TXT
MDEDK5228000201905                D89828070200PV1D20190510000030SPEAKER ASM                   M IMCTM S5MA14 TNTH  09020IMCT  S5 PTB  00005                    2230 SR        000000000000 DENSO TEN (THAILAND)190K83L0020020                                                                                                                              *          20190507 IMCT                IMCT                                                                                                                    WMF1905074.TXT
MDEDK5228001201905                D89828070200PV1D20190511000060SPEAKER ASM                   M IMCTM S5MA14 TNTH  09020IMCT  S5 PTB  00005                    0830 SR        000000000000 DENSO TEN (THAILAND)190H17L0027027190J08L0007007                                                                                                                *          20190507 IMCT                IMCT                                                                                                                    WMF1905074.TXT
MDEDK5228002201905                D89828070200PV1D20190511000030SPEAKER ASM                   M IMCTM S5MA14 TNTH  09020IMCT  S5 PTB  00005                    1030 SR        000000000000 DENSO TEN (THAILAND)190H26L0014014                                                                                                                              *          20190507 IMCT                IMCT                                                                                                                    WMF1905074.TXT
MDEDK5228003201905                D89828070200PV1D20190511000090SPEAKER ASM                   M IMCTM S5MA14 TNTH  09020IMCT  S5 PTB  00005                    1300 SR        000000000000 DENSO TEN (THAILAND)190G19L0053054190H26L0015015                                                                                                                *          20190507 IMCT                IMCT                                                                                                                    WMF1905074.TXT
MDEDK5228004201905                D89828070200PV1D20190511000060SPEAKER ASM                   M IMCTM S5MA14 TNTH  09020IMCT  S5 PTB  00005                    1600 SR        000000000000 DENSO TEN (THAILAND)190G19L0055056                                                                                                                              *          20190507 IMCT                IMCT                                                                                                                    WMF1905074.TXT
MDEDK5228005201905                D89828070200PV4D20190511000030SPEAKER ASM                   M IMCTM S0FR05 TNTH  09020IMCT  S0 PTB  00005                    0230 SR        000000000000 DENSO TEN (THAILAND)190K83U0002002                                                                                                                              *          20190507 IMCT                IMCT                                                                                                                    WMF1905074.TXT
MDEDK5228006201905                D89828070200PV4D20190511000030SPEAKER ASM                   M IMCTM S0FR05 TNTH  09020IMCT  S0 PTB  00005                    0400 SR        000000000000 DENSO TEN (THAILAND)190H17U0024024                                                                                                                              *          20190507 IMCT                IMCT                                                                                                                    WMF1905074.TXT
MDEDK5228007201905                D89828070200PV4D20190511000030SPEAKER ASM                   M IMCTM S0FR05 TNTH  09020IMCT  S0 PTB  00005                    1030 SR        000000000000 DENSO TEN (THAILAND)190H19U0008008                                                                                                                              *          20190507 IMCT                IMCT                                                                                                                    WMF1905074.TXT
MDEDK5228008201905                D89828070200PV4D20190511000030SPEAKER ASM                   M IMCTM S0FR05 TNTH  09020IMCT  S0 PTB  00005                    1600 SR        000000000000 DENSO TEN (THAILAND)190H19U0009009                                                                                                                              *          20190507 IMCT                IMCT                                                                                                                    WMF1905074.TXT
MDEDK5228009201905                D89828070200PV4D20190511000030SPEAKER ASM                   M IMCTM S0FR05 TNTH  09020IMCT  S0 PTB  00005                    2230 SR        000000000000 DENSO TEN (THAILAND)190G19U0005005                                                                                                                              *          20190507 IMCT                IMCT                                                                                                                    WMF1905074.TXT
MDEDK5228010201905                D89828070300PT1D20190510000060SPEAKER ASM                   M IMCTM S5NB082TNTH  09020IMCT  S5 PTB  00015                    2230 SR        000000000000 DENSO TEN (THAILAND)190J32L0004004190K83L0020020                                                                                                                *          20190507 IMCT                IMCT                                                                                                                    WMF1905074.TXT
MDEDK5228011201905                D89828070300PT1D20190511000060SPEAKER ASM                   M IMCTM S5NB082TNTH  09020IMCT  S5 PTB  00015                    0400 SR        000000000000 DENSO TEN (THAILAND)190F93L0037038                                                                                                                              *          20190507 IMCT                IMCT                                                                                                                    WMF1905074.TXT
MDEDK5228012201905                D89828070300PT1D20190511000060SPEAKER ASM                   M IMCTM S5NB082TNTH  09020IMCT  S5 PTB  00015                    0830 SR        000000000000 DENSO TEN (THAILAND)190H17L0027027190J08L0007007                                                                                                                *          20190507 IMCT                IMCT                                                                                                                    WMF1905074.TXT
MDEDK5228013201905                D89828070300PT1D20190511000030SPEAKER ASM                   M IMCTM S5NB082TNTH  09020IMCT  S5 PTB  00015                    1030 SR        000000000000 DENSO TEN (THAILAND)190H26L0014014                                                                                                                              *          20190507 IMCT                IMCT                                                                                                                    WMF1905074.TXT
MDEDK5228014201905                D89828070300PT1D20190511000090SPEAKER ASM                   M IMCTM S5NB082TNTH  09020IMCT  S5 PTB  00015                    1300 SR        000000000000 DENSO TEN (THAILAND)190G19L0053054190H26L0015015                                                                                                                *          20190507 IMCT                IMCT                                                                                                                    WMF1905074.TXT
MDEDK5228015201905                D89828070300PT1D20190511000060SPEAKER ASM                   M IMCTM S5NB082TNTH  09020IMCT  S5 PTB  00015                    1600 SR        000000000000 DENSO TEN (THAILAND)190G19L0055056                                                                                                                              *          20190507 IMCT                IMCT                                                                                                                    WMF1905074.TXT
MDEDK5228016201905                D89828070300PT4D20190511000030SPEAKER ASM                   M IMCTM S9TS02 TNTH  09020IMCT  S9 PTB  00015                    0230 SR        000000000000 DENSO TEN (THAILAND)190K83U0002002                                                                                                                              *          20190507 IMCT                IMCT                                                                                                                    WMF1905074.TXT
MDEDK5228017201905                D89828070300PT4D20190511000030SPEAKER ASM                   M IMCTM S9TS02 TNTH  09020IMCT  S9 PTB  00015                    0400 SR        000000000000 DENSO TEN (THAILAND)190H17U0024024                                                                                                                              *          20190507 IMCT                IMCT                                                                                                                    WMF1905074.TXT
MDEDK5228018201905                D89828070300PT4D20190511000030SPEAKER ASM                   M IMCTM S9TS02 TNTH  09020IMCT  S9 PTB  00015                    1030 SR        000000000000 DENSO TEN (THAILAND)190H19U0008008                                                                                                                              *          20190507 IMCT                IMCT                                                                                                                    WMF1905074.TXT
MDEDK5228019201905                D89828070300PT4D20190511000030SPEAKER ASM                   M IMCTM S9TS02 TNTH  09020IMCT  S9 PTB  00015                    1600 SR        000000000000 DENSO TEN (THAILAND)190H19U0009009                                                                                                                              *          20190507 IMCT                IMCT                                                                                                                    WMF1905074.TXT
MDEDK5228020201905                D89828070300PT4D20190511000030SPEAKER ASM                   M IMCTM S9TS02 TNTH  09020IMCT  S9 PTB  00015                    2230 SR        000000000000 DENSO TEN (THAILAND)190G19U0005005                                                                                                                              *          20190507 IMCT                IMCT                                                                                                                    WMF1905074.TXT
MDEDK5228021201905                D89848582100PT1D20190511000015RADIO;AM/FM CD D              M IMCTM S5NC06 TNTH  09020IMCT  S5 PTB  00003                    0830 SR        000000000000 DENSO TEN (THAILAND)190H17L0027027                                                                                                                              *          20190507 IMCT                IMCT                                                                                                                    WMF1905074.TXT
MDEDK5228022201905                D89848582100PT1D20190511000015RADIO;AM/FM CD D              M IMCTM S5NC06 TNTH  09020IMCT  S5 PTB  00003                    1030 SR        000000000000 DENSO TEN (THAILAND)190H26L0014014                                                                                                                              *          20190507 IMCT                IMCT                                                                                                                    WMF1905074.TXT
MDEDK5228023201905                D89848582100PT1D20190511000015RADIO;AM/FM CD D              M IMCTM S5NC06 TNTH  09020IMCT  S5 PTB  00003                    1300 SR        000000000000 DENSO TEN (THAILAND)190H26L0015015                                                                                                                              *          20190507 IMCT                IMCT                                                                                                                    WMF1905074.TXT
MDEDK5228024201905                D89848582100PT4D20190511000015RADIO;AM/FM CD D              M IMCTM S9CO001TNTH  09020IMCT  S9 PTB  00003                    0400 SR        000000000000 DENSO TEN (THAILAND)190H17U0024024                                                                                                                              *          20190507 IMCT                IMCT                                                                                                                    WMF1905074.TXT
MDEUK5211985201905                D89828070100PT4U20190510000030SPEAKER ASM                   M IMCTM S0FL05 TNTH  09020IMCT  S0 PTB  00004                    2230 SR        000000000000 DENSO TEN (THAILAND)190G32U0096096                                                                                                                              *          20190507 IMCT                IMCT                                                                                                                    WMF1905074.TXT
MDEUK5211986201905                D89828070100PT4U20190511000030SPEAKER ASM                   M IMCTM S0FL05 TNTH  09020IMCT  S0 PTB  00004                    0230 SR        000000000000 DENSO TEN (THAILAND)190F62U0003003                                                                                                                              *          20190507 IMCT                IMCT                                                                                                                    WMF1905074.TXT
MDEUK5211987201905                D89828070100PT4U20190511000030SPEAKER ASM                   M IMCTM S0FL05 TNTH  09020IMCT  S0 PTB  00004                    0830 SR        000000000000 DENSO TEN (THAILAND)190G26U0022022                                                                                                                              *          20190507 IMCT                IMCT                                                                                                                    WMF1905074.TXT
MDEUK5211988201905                D89828070100PT4U20190511000060SPEAKER ASM                   M IMCTM S0FL05 TNTH  09020IMCT  S0 PTB  00004                    1300 SR        000000000000 DENSO TEN (THAILAND)190G25U0025025190G32U0097097                                                                                                                *          20190507 IMCT                IMCT                                                                                                                    WMF1905074.TXT
MDEUK5211989201905                D89828070100PT4U20190511000030SPEAKER ASM                   M IMCTM S0FL05 TNTH  09020IMCT  S0 PTB  00004                    1600 SR        000000000000 DENSO TEN (THAILAND)190G77U0036036                                                                                                                              *          20190507 IMCT                IMCT                                                                                                                    WMF1905074.TXT
MDEUK5211990201905                D89828070100PT4U20190511000030SPEAKER ASM                   M IMCTM S0FL05 TNTH  09020IMCT  S0 PTB  00004                    2100 SR        000000000000 DENSO TEN (THAILAND)190G31U0062062                                                                                                                              *          20190507 IMCT                IMCT                                                                                                                    WMF1905074.TXT
MDEUK5211991201905                D89828070200PV4U20190510000030SPEAKER ASM                   M IMCTM S0FR05 TNTH  09020IMCT  S0 PTB  00005                    2230 SR        000000000000 DENSO TEN (THAILAND)190G32U0096096                                                                                                                              *          20190507 IMCT                IMCT                                                                                                                    WMF1905074.TXT
MDEUK5211992201905                D89828070200PV4U20190511000030SPEAKER ASM                   M IMCTM S0FR05 TNTH  09020IMCT  S0 PTB  00005                    0230 SR        000000000000 DENSO TEN (THAILAND)190F62U0003003                                                                                                                              *          20190507 IMCT                IMCT                                                                                                                    WMF1905074.TXT
MDEUK5211993201905                D89828070200PV4U20190511000030SPEAKER ASM                   M IMCTM S0FR05 TNTH  09020IMCT  S0 PTB  00005                    0830 SR        000000000000 DENSO TEN (THAILAND)190G26U0022022                                                                                                                              *          20190507 IMCT                IMCT                                                                                                                    WMF1905074.TXT
MDEUK5211994201905                D89828070200PV4U20190511000060SPEAKER ASM                   M IMCTM S0FR05 TNTH  09020IMCT  S0 PTB  00005                    1300 SR        000000000000 DENSO TEN (THAILAND)190G25U0025025190G32U0097097                                                                                                                *          20190507 IMCT                IMCT                                                                                                                    WMF1905074.TXT
MDEUK5211995201905                D89828070200PV4U20190511000030SPEAKER ASM                   M IMCTM S0FR05 TNTH  09020IMCT  S0 PTB  00005                    1600 SR        000000000000 DENSO TEN (THAILAND)190G77U0036036                                                                                                                              *          20190507 IMCT                IMCT                                                                                                                    WMF1905074.TXT
MDEUK5211996201905                D89828070200PV4U20190511000030SPEAKER ASM                   M IMCTM S0FR05 TNTH  09020IMCT  S0 PTB  00005                    2100 SR        000000000000 DENSO TEN (THAILAND)190G31U0062062                                                                                                                              *          20190507 IMCT                IMCT                                                                                                                    WMF1905074.TXT
MDEUK5211997201905                D89828070300PT4U20190510000030SPEAKER ASM                   M IMCTM S9TS02 TNTH  09020IMCT  S9 PTB  00015                    2230 SR        000000000000 DENSO TEN (THAILAND)190G32U0096096                                                                                                                              *          20190507 IMCT                IMCT                                                                                                                    WMF1905074.TXT
MDEUK5211998201905                D89828070300PT4U20190511000030SPEAKER ASM                   M IMCTM S9TS02 TNTH  09020IMCT  S9 PTB  00015                    0230 SR        000000000000 DENSO TEN (THAILAND)190F62U0003003                                                                                                                              *          20190507 IMCT                IMCT                                                                                                                    WMF1905074.TXT
MDEUK5211999201905                D89828070300PT4U20190511000030SPEAKER ASM                   M IMCTM S9TS02 TNTH  09020IMCT  S9 PTB  00015                    0830 SR        000000000000 DENSO TEN (THAILAND)190G26U0022022                                                                                                                              *          20190507 IMCT                IMCT                                                                                                                    WMF1905074.TXT
MDEUK5212000201905                D89828070300PT4U20190511000060SPEAKER ASM                   M IMCTM S9TS02 TNTH  09020IMCT  S9 PTB  00015                    1300 SR        000000000000 DENSO TEN (THAILAND)190G25U0025025190G32U0097097                                                                                                                *          20190507 IMCT                IMCT                                                                                                                    WMF1905074.TXT
MDEUK5212001201905                D89828070300PT4U20190511000030SPEAKER ASM                   M IMCTM S9TS02 TNTH  09020IMCT  S9 PTB  00015                    1600 SR        000000000000 DENSO TEN (THAILAND)190G77U0036036                                                                                                                              *          20190507 IMCT                IMCT                                                                                                                    WMF1905074.TXT
MDEUK5212002201905                D89828070300PT4U20190511000030SPEAKER ASM                   M IMCTM S9TS02 TNTH  09020IMCT  S9 PTB  00015                    2100 SR        000000000000 DENSO TEN (THAILAND)190G31U0062062                                                                                                                              *          20190507 IMCT                IMCT                                                                                                                    WMF1905074.TXT
MDEUK5212003201905                D89838432900PT4U20190511000015RADIO;ASM DVD                 M IMCTM S9TS01 TNTH  09020IMCT  S9 PTB  00003                    0230 SR        000000000000 DENSO TEN (THAILAND)190F62U0003003                                                                                                                              *          20190507 IMCT                IMCT                                                                                                                    WMF1905074.TXT
