REC2019051320190513ISUZU                              61     
MDDDK5246109201905                D89821984430PT1D20190517000030RADIO;AM/FM,CD                M IMCTM S5NC06 TNTH  09020IMCT  S5 PTB  00005                    0400 SR        000000000000 DENSO TEN (THAILAND)190MXCL0052052                                                                                                                              *          20190513 IMCT                IMCT                                                                                                                    WMF1905133.TXT
MDDDK5246110201905                D89821984430PT1D20190517000030RADIO;AM/FM,CD                M IMCTM S5NC06 TNTH  09020IMCT  S5 PTB  00005                    1030 SR        000000000000 DENSO TEN (THAILAND)190MNGL0151151                                                                                                                              *          20190513 IMCT                IMCT                                                                                                                    WMF1905133.TXT
MDDDK5246111201905                D89821984430PT1D20190517000060RADIO;AM/FM,CD                M IMCTM S5NC06 TNTH  09020IMCT  S5 PTB  00005                    1600 SR        000000000000 DENSO TEN (THAILAND)190MXEL0066066190MYAL0167167                                                                                                                *          20190513 IMCT                IMCT                                                                                                                    WMF1905133.TXT
MDDDK5246112201905                D89828070100PV1D20190517000180SPEAKER ASM                   M IMCTM S5MB11 TNTH  09020IMCT  S5 PTB  00004                    0400 SR        000000000000 DENSO TEN (THAILAND)190MPKL0045045190MRVL0007007190MXCL0052052                                                                                                  *          20190513 IMCT                IMCT                                                                                                                    WMF1905133.TXT
MDDDK5246113201905                D89828070100PV1D20190517000120SPEAKER ASM                   M IMCTM S5MB11 TNTH  09020IMCT  S5 PTB  00004                    1030 SR        000000000000 DENSO TEN (THAILAND)190MNGL0151151190MPKL0046046                                                                                                                *          20190513 IMCT                IMCT                                                                                                                    WMF1905133.TXT
MDDDK5246114201905                D89828070100PV1D20190517000060SPEAKER ASM                   M IMCTM S5MB11 TNTH  09020IMCT  S5 PTB  00004                    1300 SR        000000000000 DENSO TEN (THAILAND)190MXAL0051051                                                                                                                              *          20190513 IMCT                IMCT                                                                                                                    WMF1905133.TXT
MDDDK5246115201905                D89828070100PV1D20190517000180SPEAKER ASM                   M IMCTM S5MB11 TNTH  09020IMCT  S5 PTB  00004                    1600 SR        000000000000 DENSO TEN (THAILAND)190MPFL0063063190MXEL0066066190MYAL0167167                                                                                                  *          20190513 IMCT                IMCT                                                                                                                    WMF1905133.TXT
MDDDK5246116201905                D89828070100PV4D20190517000060SPEAKER ASM                   M IMCTM S0FL05 TNTH  09020IMCT  S0 PTB  00004                    1600 SR        000000000000 DENSO TEN (THAILAND)190MRHU0024024                                                                                                                              *          20190513 IMCT                IMCT                                                                                                                    WMF1905133.TXT
MDDDK5246117201905                D89828070200PV1D20190517000060SPEAKER ASM                   M IMCTM S5MA14 TNTH  09020IMCT  S5 PTB  00005                    0400 SR        000000000000 DENSO TEN (THAILAND)190MRVL0007007                                                                                                                              *          20190513 IMCT                IMCT                                                                                                                    WMF1905133.TXT
MDDDK5246118201905                D89828070200PV4D20190517000060SPEAKER ASM                   M IMCTM S0FR05 TNTH  09020IMCT  S0 PTB  00005                    1600 SR        000000000000 DENSO TEN (THAILAND)190MRHU0024024                                                                                                                              *          20190513 IMCT                IMCT                                                                                                                    WMF1905133.TXT
MDDDK5246119201905                D89828070300PT1D20190517000120SPEAKER ASM                   M IMCTM S5NB082TNTH  09020IMCT  S5 PTB  00015                    0400 SR        000000000000 DENSO TEN (THAILAND)190MPKL0045045190MRVL0007007                                                                                                                *          20190513 IMCT                IMCT                                                                                                                    WMF1905133.TXT
MDDDK5246120201905                D89828070300PT1D20190517000060SPEAKER ASM                   M IMCTM S5NB082TNTH  09020IMCT  S5 PTB  00015                    1030 SR        000000000000 DENSO TEN (THAILAND)190MPKL0046046                                                                                                                              *          20190513 IMCT                IMCT                                                                                                                    WMF1905133.TXT
MDDDK5246121201905                D89828070300PT1D20190517000060SPEAKER ASM                   M IMCTM S5NB082TNTH  09020IMCT  S5 PTB  00015                    1600 SR        000000000000 DENSO TEN (THAILAND)190MPFL0063063                                                                                                                              *          20190513 IMCT                IMCT                                                                                                                    WMF1905133.TXT
MDDDK5246122201905                D89828070300PT4D20190517000060SPEAKER ASM                   M IMCTM S9TS02 TNTH  09020IMCT  S9 PTB  00015                    1600 SR        000000000000 DENSO TEN (THAILAND)190MRHU0024024                                                                                                                              *          20190513 IMCT                IMCT                                                                                                                    WMF1905133.TXT
MDDDK5246123201905                D89831228300PT1D20190517000030RADIO;AM/FM,CD                M IMCTM S5NC06 TNTH  09020IMCT  S5 CPB  00003                    1600 SR        000000000000 DENSO TEN (THAILAND)190MPFL0063063                                                                                                                              *          20190513 IMCT                IMCT                                                                                                                    WMF1905133.TXT
MDDDK5246124201905                D89848581500PT4D20190517000030RADIO;AM/FM CD D              M IMCTM S9CO001TNTH  09020IMCT  S9 PTB  00003                    1600 SR        000000000000 DENSO TEN (THAILAND)190MRHU0024024                                                                                                                              *          20190513 IMCT                IMCT                                                                                                                    WMF1905133.TXT
MDDDK5246125201905                D89848581600PT1D20190517000030RADIO;AM/FM CD D              M IMCTM S5NC06 TNTH  09020IMCT  S5 PTB  00003                    0400 SR        000000000000 DENSO TEN (THAILAND)190MPKL0045045                                                                                                                              *          20190513 IMCT                IMCT                                                                                                                    WMF1905133.TXT
MDDDK5246126201905                D89848581600PT1D20190517000030RADIO;AM/FM CD D              M IMCTM S5NC06 TNTH  09020IMCT  S5 PTB  00003                    1030 SR        000000000000 DENSO TEN (THAILAND)190MPKL0046046                                                                                                                              *          20190513 IMCT                IMCT                                                                                                                    WMF1905133.TXT
MDDUK5214197201905                D89828070100PT4U20190517000030SPEAKER ASM                   M IMCTM S0FL05 TNTH  09020IMCT  S0 PTB  00004                    0230 SR        000000000000 DENSO TEN (THAILAND)190MUGU0088088                                                                                                                              *          20190513 IMCT                IMCT                                                                                                                    WMF1905133.TXT
MDDUK5214198201905                D89828070100PT4U20190517000030SPEAKER ASM                   M IMCTM S0FL05 TNTH  09020IMCT  S0 PTB  00004                    0830 SR        000000000000 DENSO TEN (THAILAND)190MUEU0138138                                                                                                                              *          20190513 IMCT                IMCT                                                                                                                    WMF1905133.TXT
MDDUK5214199201905                D89828070100PT4U20190517000030SPEAKER ASM                   M IMCTM S0FL05 TNTH  09020IMCT  S0 PTB  00004                    1600 SR        000000000000 DENSO TEN (THAILAND)190MUEU0139139                                                                                                                              *          20190513 IMCT                IMCT                                                                                                                    WMF1905133.TXT
MDDUK5214200201905                D89828070100PT4U20190517000030SPEAKER ASM                   M IMCTM S0FL05 TNTH  09020IMCT  S0 PTB  00004                    2230 SR        000000000000 DENSO TEN (THAILAND)190MUGU0089089                                                                                                                              *          20190513 IMCT                IMCT                                                                                                                    WMF1905133.TXT
MDDUK5214201201905                D89828070200PV4U20190517000030SPEAKER ASM                   M IMCTM S0FR05 TNTH  09020IMCT  S0 PTB  00005                    0230 SR        000000000000 DENSO TEN (THAILAND)190MUGU0088088                                                                                                                              *          20190513 IMCT                IMCT                                                                                                                    WMF1905133.TXT
MDDUK5214202201905                D89828070200PV4U20190517000030SPEAKER ASM                   M IMCTM S0FR05 TNTH  09020IMCT  S0 PTB  00005                    0830 SR        000000000000 DENSO TEN (THAILAND)190MUEU0138138                                                                                                                              *          20190513 IMCT                IMCT                                                                                                                    WMF1905133.TXT
MDDUK5214203201905                D89828070200PV4U20190517000030SPEAKER ASM                   M IMCTM S0FR05 TNTH  09020IMCT  S0 PTB  00005                    1600 SR        000000000000 DENSO TEN (THAILAND)190MUEU0139139                                                                                                                              *          20190513 IMCT                IMCT                                                                                                                    WMF1905133.TXT
MDDUK5214204201905                D89828070200PV4U20190517000030SPEAKER ASM                   M IMCTM S0FR05 TNTH  09020IMCT  S0 PTB  00005                    2230 SR        000000000000 DENSO TEN (THAILAND)190MUGU0089089                                                                                                                              *          20190513 IMCT                IMCT                                                                                                                    WMF1905133.TXT
MDDUK5214205201905                D89828070300PT4U20190517000030SPEAKER ASM                   M IMCTM S9TS02 TNTH  09020IMCT  S9 PTB  00015                    0230 SR        000000000000 DENSO TEN (THAILAND)190MUGU0088088                                                                                                                              *          20190513 IMCT                IMCT                                                                                                                    WMF1905133.TXT
MDDUK5214206201905                D89828070300PT4U20190517000030SPEAKER ASM                   M IMCTM S9TS02 TNTH  09020IMCT  S9 PTB  00015                    0830 SR        000000000000 DENSO TEN (THAILAND)190MUEU0138138                                                                                                                              *          20190513 IMCT                IMCT                                                                                                                    WMF1905133.TXT
MDDUK5214207201905                D89828070300PT4U20190517000030SPEAKER ASM                   M IMCTM S9TS02 TNTH  09020IMCT  S9 PTB  00015                    1600 SR        000000000000 DENSO TEN (THAILAND)190MUEU0139139                                                                                                                              *          20190513 IMCT                IMCT                                                                                                                    WMF1905133.TXT
MDDUK5214208201905                D89828070300PT4U20190517000030SPEAKER ASM                   M IMCTM S9TS02 TNTH  09020IMCT  S9 PTB  00015                    2230 SR        000000000000 DENSO TEN (THAILAND)190MUGU0089089                                                                                                                              *          20190513 IMCT                IMCT                                                                                                                    WMF1905133.TXT
MDEDK5277473201905                D89828070100PV1D20190517000060SPEAKER ASM                   M IMCTM S5MB11 TNTH  09020IMCT  S5 PTB  00004                    0230 SR        000000000000 DENSO TEN (THAILAND)190K12L0049050                                                                                                                              *          20190513 IMCT                IMCT                                                                                                                    WMF1905133.TXT
MDEDK5277474201905                D89828070100PV1D20190517000030SPEAKER ASM                   M IMCTM S5MB11 TNTH  09020IMCT  S5 PTB  00004                    0400 SR        000000000000 DENSO TEN (THAILAND)190J90L0008008                                                                                                                              *          20190513 IMCT                IMCT                                                                                                                    WMF1905133.TXT
MDEDK5277475201905                D89828070100PV1D20190517000090SPEAKER ASM                   M IMCTM S5MB11 TNTH  09020IMCT  S5 PTB  00004                    0830 SR        000000000000 DENSO TEN (THAILAND)190J73L0002002190K12L0051052                                                                                                                *          20190513 IMCT                IMCT                                                                                                                    WMF1905133.TXT
MDEDK5277476201905                D89828070100PV1D20190517000030SPEAKER ASM                   M IMCTM S5MB11 TNTH  09020IMCT  S5 PTB  00004                    1300 SR        000000000000 DENSO TEN (THAILAND)190H29L0026026                                                                                                                              *          20190513 IMCT                IMCT                                                                                                                    WMF1905133.TXT
MDEDK5277477201905                D89828070100PV1D20190517000090SPEAKER ASM                   M IMCTM S5MB11 TNTH  09020IMCT  S5 PTB  00004                    1600 SR        000000000000 DENSO TEN (THAILAND)190H29L0027027190K12L0053054                                                                                                                *          20190513 IMCT                IMCT                                                                                                                    WMF1905133.TXT
MDEDK5277478201905                D89828070100PV1D20190517000030SPEAKER ASM                   M IMCTM S5MB11 TNTH  09020IMCT  S5 PTB  00004                    2100 SR        000000000000 DENSO TEN (THAILAND)190J81L0080080                                                                                                                              *          20190513 IMCT                IMCT                                                                                                                    WMF1905133.TXT
MDEDK5277479201905                D89828070100PV1D20190517000030SPEAKER ASM                   M IMCTM S5MB11 TNTH  09020IMCT  S5 PTB  00004                    2230 SR        000000000000 DENSO TEN (THAILAND)190J81L0081081                                                                                                                              *          20190513 IMCT                IMCT                                                                                                                    WMF1905133.TXT
MDEDK5277480201905                D89828070100PV4D20190517000090SPEAKER ASM                   M IMCTM S0FL05 TNTH  09020IMCT  S0 PTB  00004                    0400 SR        000000000000 DENSO TEN (THAILAND)190H21U0016016190H29U0012012190J94U0023023                                                                                                  *          20190513 IMCT                IMCT                                                                                                                    WMF1905133.TXT
MDEDK5277481201905                D89828070100PV4D20190517000060SPEAKER ASM                   M IMCTM S0FL05 TNTH  09020IMCT  S0 PTB  00004                    1030 SR        000000000000 DENSO TEN (THAILAND)190H19U0010010190H28U0019019                                                                                                                *          20190513 IMCT                IMCT                                                                                                                    WMF1905133.TXT
MDEDK5277482201905                D89828070100PV4D20190517000060SPEAKER ASM                   M IMCTM S0FL05 TNTH  09020IMCT  S0 PTB  00004                    1600 SR        000000000000 DENSO TEN (THAILAND)190H12U0008008190H26U0012012                                                                                                                *          20190513 IMCT                IMCT                                                                                                                    WMF1905133.TXT
MDEDK5277483201905                D89828070200PV1D20190517000030SPEAKER ASM                   M IMCTM S5MA14 TNTH  09020IMCT  S5 PTB  00005                    1300 SR        000000000000 DENSO TEN (THAILAND)190H29L0026026                                                                                                                              *          20190513 IMCT                IMCT                                                                                                                    WMF1905133.TXT
MDEDK5277484201905                D89828070200PV1D20190517000030SPEAKER ASM                   M IMCTM S5MA14 TNTH  09020IMCT  S5 PTB  00005                    1600 SR        000000000000 DENSO TEN (THAILAND)190H29L0027027                                                                                                                              *          20190513 IMCT                IMCT                                                                                                                    WMF1905133.TXT
MDEDK5277485201905                D89828070200PV4D20190517000060SPEAKER ASM                   M IMCTM S0FR05 TNTH  09020IMCT  S0 PTB  00005                    0400 SR        000000000000 DENSO TEN (THAILAND)190H21U0016016190H29U0012012                                                                                                                *          20190513 IMCT                IMCT                                                                                                                    WMF1905133.TXT
MDEDK5277486201905                D89828070200PV4D20190517000060SPEAKER ASM                   M IMCTM S0FR05 TNTH  09020IMCT  S0 PTB  00005                    1030 SR        000000000000 DENSO TEN (THAILAND)190H19U0010010190H28U0019019                                                                                                                *          20190513 IMCT                IMCT                                                                                                                    WMF1905133.TXT
MDEDK5277487201905                D89828070200PV4D20190517000060SPEAKER ASM                   M IMCTM S0FR05 TNTH  09020IMCT  S0 PTB  00005                    1600 SR        000000000000 DENSO TEN (THAILAND)190H12U0008008190H26U0012012                                                                                                                *          20190513 IMCT                IMCT                                                                                                                    WMF1905133.TXT
MDEDK5277488201905                D89828070300PT1D20190517000030SPEAKER ASM                   M IMCTM S5NB082TNTH  09020IMCT  S5 PTB  00015                    0830 SR        000000000000 DENSO TEN (THAILAND)190J73L0002002                                                                                                                              *          20190513 IMCT                IMCT                                                                                                                    WMF1905133.TXT
MDEDK5277489201905                D89828070300PT1D20190517000030SPEAKER ASM                   M IMCTM S5NB082TNTH  09020IMCT  S5 PTB  00015                    1300 SR        000000000000 DENSO TEN (THAILAND)190H29L0026026                                                                                                                              *          20190513 IMCT                IMCT                                                                                                                    WMF1905133.TXT
MDEDK5277490201905                D89828070300PT1D20190517000030SPEAKER ASM                   M IMCTM S5NB082TNTH  09020IMCT  S5 PTB  00015                    1600 SR        000000000000 DENSO TEN (THAILAND)190H29L0027027                                                                                                                              *          20190513 IMCT                IMCT                                                                                                                    WMF1905133.TXT
MDEDK5277491201905                D89828070300PT4D20190517000060SPEAKER ASM                   M IMCTM S9TS02 TNTH  09020IMCT  S9 PTB  00015                    0400 SR        000000000000 DENSO TEN (THAILAND)190H21U0016016190H29U0012012                                                                                                                *          20190513 IMCT                IMCT                                                                                                                    WMF1905133.TXT
MDEDK5277492201905                D89828070300PT4D20190517000060SPEAKER ASM                   M IMCTM S9TS02 TNTH  09020IMCT  S9 PTB  00015                    1030 SR        000000000000 DENSO TEN (THAILAND)190H19U0010010190H28U0019019                                                                                                                *          20190513 IMCT                IMCT                                                                                                                    WMF1905133.TXT
MDEDK5277493201905                D89828070300PT4D20190517000060SPEAKER ASM                   M IMCTM S9TS02 TNTH  09020IMCT  S9 PTB  00015                    1600 SR        000000000000 DENSO TEN (THAILAND)190H12U0008008190H26U0012012                                                                                                                *          20190513 IMCT                IMCT                                                                                                                    WMF1905133.TXT
MDEDK5277494201905                D89831228800PT4D20190517000015RADIO;AM/FM,CD                M IMCTM S9CO001TNTH  09020IMCT  S9 PTB  00003                    1600 SR        000000000000 DENSO TEN (THAILAND)190H12U0008008                                                                                                                              *          20190513 IMCT                IMCT                                                                                                                    WMF1905133.TXT
MDEDK5277495201905                D89831229200PT1D20190517000015RADIO;AM/FM,CD                M IMCTM S5NC06 TNTH  09020IMCT  S5 PTB  00003                    0830 SR        000000000000 DENSO TEN (THAILAND)190J73L0002002                                                                                                                              *          20190513 IMCT                IMCT                                                                                                                    WMF1905133.TXT
MDEDK5277496201905                D89848582100PT4D20190517000015RADIO;AM/FM CD D              M IMCTM S9CO001TNTH  09020IMCT  S9 PTB  00003                    1600 SR        000000000000 DENSO TEN (THAILAND)190H26U0012012                                                                                                                              *          20190513 IMCT                IMCT                                                                                                                    WMF1905133.TXT
MDEUK5219016201905                D89828070100PT4U20190517000030SPEAKER ASM                   M IMCTM S0FL05 TNTH  09020IMCT  S0 PTB  00004                    0400 SR        000000000000 DENSO TEN (THAILAND)190F64U0005005                                                                                                                              *          20190513 IMCT                IMCT                                                                                                                    WMF1905133.TXT
MDEUK5219017201905                D89828070100PT4U20190517000030SPEAKER ASM                   M IMCTM S0FL05 TNTH  09020IMCT  S0 PTB  00004                    1300 SR        000000000000 DENSO TEN (THAILAND)190F59U0012012                                                                                                                              *          20190513 IMCT                IMCT                                                                                                                    WMF1905133.TXT
MDEUK5219018201905                D89828070200PV4U20190517000030SPEAKER ASM                   M IMCTM S0FR05 TNTH  09020IMCT  S0 PTB  00005                    0400 SR        000000000000 DENSO TEN (THAILAND)190F64U0005005                                                                                                                              *          20190513 IMCT                IMCT                                                                                                                    WMF1905133.TXT
MDEUK5219019201905                D89828070200PV4U20190517000030SPEAKER ASM                   M IMCTM S0FR05 TNTH  09020IMCT  S0 PTB  00005                    1300 SR        000000000000 DENSO TEN (THAILAND)190F59U0012012                                                                                                                              *          20190513 IMCT                IMCT                                                                                                                    WMF1905133.TXT
MDEUK5219020201905                D89828070300PT4U20190517000030SPEAKER ASM                   M IMCTM S9TS02 TNTH  09020IMCT  S9 PTB  00015                    0400 SR        000000000000 DENSO TEN (THAILAND)190F64U0005005                                                                                                                              *          20190513 IMCT                IMCT                                                                                                                    WMF1905133.TXT
MDEUK5219021201905                D89828070300PT4U20190517000030SPEAKER ASM                   M IMCTM S9TS02 TNTH  09020IMCT  S9 PTB  00015                    1300 SR        000000000000 DENSO TEN (THAILAND)190F59U0012012                                                                                                                              *          20190513 IMCT                IMCT                                                                                                                    WMF1905133.TXT
MDEUK5219022201905                D89838432900PT4U20190517000015RADIO;ASM DVD                 M IMCTM S9TS01 TNTH  09020IMCT  S9 PTB  00003                    0400 SR        000000000000 DENSO TEN (THAILAND)190F64U0005005                                                                                                                              *          20190513 IMCT                IMCT                                                                                                                    WMF1905133.TXT
