REC2019051020190510ISUZU                              10     
MDEBK5T00710201905                D89828070100PT4B20190515000030SPEAKER ASM                   M IMCTM S7FL05 TNTH  09020IMCT  S7 PTB  00004                    0830 SR        000000000000 DENSO TEN (THAILAND)190G83R0022   190K91R0005   Y190503201    Y190503215    000000                                                                              *R         20190510 IMCT                IMCT                                                                                                                    RMF1905105.TXT
MDEBK5T00711201905                D89828070200PV4B20190515000030SPEAKER ASM                   M IMCTM S7FL05 TNTH  09020IMCT  S7 PTB  00005                    0830 SR        000000000000 DENSO TEN (THAILAND)190G83R0022   190K91R0005   Y190503201    Y190503215    000000                                                                              *R         20190510 IMCT                IMCT                                                                                                                    RMF1905105.TXT
MDEBK5T00712201905                D89828070300PT4B20190515000030SPEAKER ASM                   M IMCTM S7TS02 TNTH  09020IMCT  S7 PTB  00015                    0830 SR        000000000000 DENSO TEN (THAILAND)190G83R0022   190K91R0005   Y190503201    Y190503215    000000                                                                              *R         20190510 IMCT                IMCT                                                                                                                    RMF1905105.TXT
MDEBK5T00713201905                D89848584410PT4B20190515000002RADIO;AM/FM CD D              M IMCTM S7TS01 TNTH  09020IMCT  S7 PTB  00003                    0830 SR        000000000000 DENSO TEN (THAILAND)190K91R0004   190K91R0005   Y190503214    Y190503215    000000                                                                              *R         20190510 IMCT                IMCT                                                                                                                    RMF1905105.TXT
MDEFK5T06688201905                D89828070100PV4F20190515000002SPEAKER ASM                   M IMCTM S7FL05 TNTH  09020IMCT  S7 PTB  00004                    0230 SR        000000000000 DENSO TEN (THAILAND)190H86R0033   190H86R0033   D190503115    D190503115    000000                                                                              *R         20190510 IMCT                IMCT                                                                                                                    RMF1905105.TXT
MDEFK5T06689201905                D89828070200PV4F20190515000002SPEAKER ASM                   M IMCTM S7FL05 TNTH  09020IMCT  S7 PTB  00005                    0230 SR        000000000000 DENSO TEN (THAILAND)190H86R0033   190H86R0033   D190503115    D190503115    000000                                                                              *R         20190510 IMCT                IMCT                                                                                                                    RMF1905105.TXT
MDEFK5T06690201905                D89828070300PT4F20190514000012SPEAKER ASM                   M IMCTM S7TS02 TNTH  09020IMCT  S7 PTB  00015                    2230 SR        000000000000 DENSO TEN (THAILAND)190H21R0021   190H86R0033   D190503101    D190503115    000000                                                                              *R         20190510 IMCT                IMCT                                                                                                                    RMF1905105.TXT
MDEFK5T06691201905                D89848582100PT4F20190515000001RADIO;AM/FM CD D              M IMCTM S7TS01 TNTH  09020IMCT  S7 PTB  00003                    0230 SR        000000000000 DENSO TEN (THAILAND)190H86R0033   190H86R0033   D190503115    D190503115    000000                                                                              *R         20190510 IMCT                IMCT                                                                                                                    RMF1905105.TXT
MDEFK5219612201905                D89828070100PV4F20190514000028SPEAKER ASM                   M IMCTM S7FL05 TNTH  09020IMCT  S7 PTB  00004                    2230 SR        000000000000 DENSO TEN (THAILAND)190H21R0021   190H78R0041   D190503101    D190503114    000000                                                                              *R         20190510 IMCT                IMCT                                                                                                                    RMF1905105.TXT
MDEFK5219613201905                D89828070200PV4F20190514000010SPEAKER ASM                   M IMCTM S7FL05 TNTH  09020IMCT  S7 PTB  00005                    2230 SR        000000000000 DENSO TEN (THAILAND)190H21R0021   190H21R0025   D190503101    D190503105    000000                                                                              *R         20190510 IMCT                IMCT                                                                                                                    RMF1905105.TXT
