REC2019051120190511ISUZU                              12     
MDEFK5T07910201905                D89828070100PV4F20190516000026SPEAKER ASM                   M IMCTM S7FL05 TNTH  09020IMCT  S7 PTB  00004                    2100 SR        000000000000 DENSO TEN (THAILAND)190H38R0025   190K64R0003   C190503503    C190503515    000000                                                                              *R         20190511 IMCT                IMCT                                                                                                                    RMF1905113.TXT
MDEFK5T07911201905                D89828070200PV4F20190516000011SPEAKER ASM                   M IMCTM S7FL05 TNTH  09020IMCT  S7 PTB  00005                    2100 SR        000000000000 DENSO TEN (THAILAND)190K64R0001   190K64R0003   C190503509    C190503515    000000                                                                              *R         20190511 IMCT                IMCT                                                                                                                    RMF1905113.TXT
MDEFK5T07912201905                D89828070300PT4F20190516000003SPEAKER ASM                   M IMCTM S7TS02 TNTH  09020IMCT  S7 PTB  00015                    2100 SR        000000000000 DENSO TEN (THAILAND)190K45R0003   190K64R0003   C190503514    C190503515    000000                                                                              *R         20190511 IMCT                IMCT                                                                                                                    RMF1905113.TXT
MDEFK5T07913201905                D89831228400PT4F20190516000002RADIO;AM/FM,CD                M IMCTM S7TS03 TNTH  09020IMCT  S7 CPB  00003                    1600 SR        000000000000 DENSO TEN (THAILAND)190G62R0015   190G62R0016   C190503501    C190503502    000000                                                                              *R         20190511 IMCT                IMCT                                                                                                                    RMF1905113.TXT
MDEFK5T07914201905                D89831229010PT4F20190516000006RADIO;AM/FM,CD                M IMCTM S7TS01 TNTH  09020IMCT  S7 PTB  00003                    2100 SR        000000000000 DENSO TEN (THAILAND)190K64R0001   190K64R0003   C190503509    C190503515    000000                                                                              *R         20190511 IMCT                IMCT                                                                                                                    RMF1905113.TXT
MDEFK5221813201905                D89828070100PV4F20190515000032SPEAKER ASM                   M IMCTM S7FL05 TNTH  09020IMCT  S7 PTB  00004                    2230 SR        000000000000 DENSO TEN (THAILAND)190H19R0027   190H53R0036   D190503301    F190503401    000000                                                                              *R         20190511 IMCT                IMCT                                                                                                                    RMF1905113.TXT
MDEFK5221814201905                D89828070100PV4F20190516000028SPEAKER ASM                   M IMCTM S7FL05 TNTH  09020IMCT  S7 PTB  00004                    0830 SR        000000000000 DENSO TEN (THAILAND)190H53R0037   190H63R0026   F190503402    F190503415    000000                                                                              *R         20190511 IMCT                IMCT                                                                                                                    RMF1905113.TXT
MDEFK5221815201905                D89828070100PV4F20190516000004SPEAKER ASM                   M IMCTM S7FL05 TNTH  09020IMCT  S7 PTB  00004                    1600 SR        000000000000 DENSO TEN (THAILAND)190G62R0015   190G62R0016   C190503501    C190503502    000000                                                                              *R         20190511 IMCT                IMCT                                                                                                                    RMF1905113.TXT
MDEFK5221816201905                D89828070200PV4F20190515000030SPEAKER ASM                   M IMCTM S7FL05 TNTH  09020IMCT  S7 PTB  00005                    2230 SR        000000000000 DENSO TEN (THAILAND)190H19R0027   190H96R0013   D190503301    D190503315    000000                                                                              *R         20190511 IMCT                IMCT                                                                                                                    RMF1905113.TXT
MDEFK5221817201905                D89828070200PV4F20190516000005SPEAKER ASM                   M IMCTM S7FL05 TNTH  09020IMCT  S7 PTB  00005                    1600 SR        000000000000 DENSO TEN (THAILAND)190G62R0015   190K64R0001   C190503501    C190503509    000000                                                                              *R         20190511 IMCT                IMCT                                                                                                                    RMF1905113.TXT
MDEFK5221818201905                D89828070300PT4F20190515000030SPEAKER ASM                   M IMCTM S7TS02 TNTH  09020IMCT  S7 PTB  00015                    2230 SR        000000000000 DENSO TEN (THAILAND)190H19R0027   190H96R0013   D190503301    D190503315    000000                                                                              *R         20190511 IMCT                IMCT                                                                                                                    RMF1905113.TXT
MDEFK5221819201905                D89828070300PT4F20190516000015SPEAKER ASM                   M IMCTM S7TS02 TNTH  09020IMCT  S7 PTB  00015                    0830 SR        000000000000 DENSO TEN (THAILAND)190H63R0026   190K45R0003   F190503415    C190503514    000000                                                                              *R         20190511 IMCT                IMCT                                                                                                                    RMF1905113.TXT
