REC2019052720190527ISUZU                              42     
MDDDK5324705201905                D89821984430PT1D20190531000030RADIO;AM/FM,CD                M IMCTM S5NC06 TNTH  09020IMCT  S5 PTB  00005                    0830 SR        000000000000 DENSO TEN (THAILAND)190MNGL0169169                                                                                                                              *          20190527 IMCT                IMCT                                                                                                                    WMF1905275.TXT
MDDDK5324706201905                D89821984430PT1D20190531000030RADIO;AM/FM,CD                M IMCTM S5NC06 TNTH  09020IMCT  S5 PTB  00005                    1300 SR        000000000000 DENSO TEN (THAILAND)190MYAL0179179                                                                                                                              *          20190527 IMCT                IMCT                                                                                                                    WMF1905275.TXT
MDDDK5324707201905                D89821984430PT1D20190531000030RADIO;AM/FM,CD                M IMCTM S5NC06 TNTH  09020IMCT  S5 PTB  00005                    2230 SR        000000000000 DENSO TEN (THAILAND)190MNGL0170170                                                                                                                              *          20190527 IMCT                IMCT                                                                                                                    WMF1905275.TXT
MDDDK5324708201905                D89821984430PT4D20190531000030RADIO;AM/FM,CD                M IMCTM S9CO001TNTH  09020IMCT  S9 PTB  00005                    1300 SR        000000000000 DENSO TEN (THAILAND)190MNGU0010010                                                                                                                              *          20190527 IMCT                IMCT                                                                                                                    WMF1905275.TXT
MDDDK5324709201905                D89828070100PV1D20190531000120SPEAKER ASM                   M IMCTM S5MB11 TNTH  09020IMCT  S5 PTB  00004                    0230 SR        000000000000 DENSO TEN (THAILAND)190MRTL0029029190MXAL0059059                                                                                                                *          20190527 IMCT                IMCT                                                                                                                    WMF1905275.TXT
MDDDK5324710201905                D89828070100PV1D20190531000060SPEAKER ASM                   M IMCTM S5MB11 TNTH  09020IMCT  S5 PTB  00004                    0830 SR        000000000000 DENSO TEN (THAILAND)190MNGL0169169                                                                                                                              *          20190527 IMCT                IMCT                                                                                                                    WMF1905275.TXT
MDDDK5324711201905                D89828070100PV1D20190531000120SPEAKER ASM                   M IMCTM S5MB11 TNTH  09020IMCT  S5 PTB  00004                    1300 SR        000000000000 DENSO TEN (THAILAND)190MPCL0055055190MYAL0179179                                                                                                                *          20190527 IMCT                IMCT                                                                                                                    WMF1905275.TXT
MDDDK5324712201905                D89828070100PV1D20190531000060SPEAKER ASM                   M IMCTM S5MB11 TNTH  09020IMCT  S5 PTB  00004                    1600 SR        000000000000 DENSO TEN (THAILAND)190MXAL0060060                                                                                                                              *          20190527 IMCT                IMCT                                                                                                                    WMF1905275.TXT
MDDDK5324713201905                D89828070100PV1D20190531000060SPEAKER ASM                   M IMCTM S5MB11 TNTH  09020IMCT  S5 PTB  00004                    2230 SR        000000000000 DENSO TEN (THAILAND)190MNGL0170170                                                                                                                              *          20190527 IMCT                IMCT                                                                                                                    WMF1905275.TXT
MDDDK5324714201905                D89828070100PV4D20190531000060SPEAKER ASM                   M IMCTM S0FL05 TNTH  09020IMCT  S0 PTB  00004                    1300 SR        000000000000 DENSO TEN (THAILAND)190MNGU0010010                                                                                                                              *          20190527 IMCT                IMCT                                                                                                                    WMF1905275.TXT
MDDDK5324715201905                D89828070200PV1D20190531000060SPEAKER ASM                   M IMCTM S5MA14 TNTH  09020IMCT  S5 PTB  00005                    0230 SR        000000000000 DENSO TEN (THAILAND)190MRTL0029029                                                                                                                              *          20190527 IMCT                IMCT                                                                                                                    WMF1905275.TXT
MDDDK5324716201905                D89828070300PT1D20190531000060SPEAKER ASM                   M IMCTM S5NB082TNTH  09020IMCT  S5 PTB  00015                    0230 SR        000000000000 DENSO TEN (THAILAND)190MRTL0029029                                                                                                                              *          20190527 IMCT                IMCT                                                                                                                    WMF1905275.TXT
MDDDK5324717201905                D89828070300PT1D20190531000060SPEAKER ASM                   M IMCTM S5NB082TNTH  09020IMCT  S5 PTB  00015                    1300 SR        000000000000 DENSO TEN (THAILAND)190MPCL0055055                                                                                                                              *          20190527 IMCT                IMCT                                                                                                                    WMF1905275.TXT
MDDDK5324718201905                D89831228300PT1D20190531000030RADIO;AM/FM,CD                M IMCTM S5NC06 TNTH  09020IMCT  S5 CPB  00003                    1300 SR        000000000000 DENSO TEN (THAILAND)190MPCL0055055                                                                                                                              *          20190527 IMCT                IMCT                                                                                                                    WMF1905275.TXT
MDDDK5324719201905                D89848581500PT1D20190531000030RADIO;AM/FM CD D              M IMCTM S5NC06 TNTH  09020IMCT  S5 PTB  00003                    0230 SR        000000000000 DENSO TEN (THAILAND)190MRTL0029029                                                                                                                              *          20190527 IMCT                IMCT                                                                                                                    WMF1905275.TXT
MDDUK5243773201905                D89828070100PT4U20190531000030SPEAKER ASM                   M IMCTM S0FL05 TNTH  09020IMCT  S0 PTB  00004                    0400 SR        000000000000 DENSO TEN (THAILAND)190MUGU0107107                                                                                                                              *          20190527 IMCT                IMCT                                                                                                                    WMF1905275.TXT
MDDUK5243774201905                D89828070100PT4U20190531000030SPEAKER ASM                   M IMCTM S0FL05 TNTH  09020IMCT  S0 PTB  00004                    2100 SR        000000000000 DENSO TEN (THAILAND)190MUEU0156156                                                                                                                              *          20190527 IMCT                IMCT                                                                                                                    WMF1905275.TXT
MDDUK5243775201905                D89828070200PV4U20190531000030SPEAKER ASM                   M IMCTM S0FR05 TNTH  09020IMCT  S0 PTB  00005                    0400 SR        000000000000 DENSO TEN (THAILAND)190MUGU0107107                                                                                                                              *          20190527 IMCT                IMCT                                                                                                                    WMF1905275.TXT
MDDUK5243776201905                D89828070200PV4U20190531000030SPEAKER ASM                   M IMCTM S0FR05 TNTH  09020IMCT  S0 PTB  00005                    2100 SR        000000000000 DENSO TEN (THAILAND)190MUEU0156156                                                                                                                              *          20190527 IMCT                IMCT                                                                                                                    WMF1905275.TXT
MDDUK5243777201905                D89828070300PT4U20190531000030SPEAKER ASM                   M IMCTM S9TS02 TNTH  09020IMCT  S9 PTB  00015                    0400 SR        000000000000 DENSO TEN (THAILAND)190MUGU0107107                                                                                                                              *          20190527 IMCT                IMCT                                                                                                                    WMF1905275.TXT
MDDUK5243778201905                D89828070300PT4U20190531000030SPEAKER ASM                   M IMCTM S9TS02 TNTH  09020IMCT  S9 PTB  00015                    2100 SR        000000000000 DENSO TEN (THAILAND)190MUEU0156156                                                                                                                              *          20190527 IMCT                IMCT                                                                                                                    WMF1905275.TXT
MDEDK5391619201905                D89828070100PV1D20190530000090SPEAKER ASM                   M IMCTM S5MB11 TNTH  09020IMCT  S5 PTB  00004                    2230 SR        000000000000 DENSO TEN (THAILAND)190J34L0020021190J81L0096096                                                                                                                *          20190527 IMCT                IMCT                                                                                                                    WMF1905275.TXT
MDEDK5391620201905                D89828070100PV1D20190531000090SPEAKER ASM                   M IMCTM S5MB11 TNTH  09020IMCT  S5 PTB  00004                    0400 SR        000000000000 DENSO TEN (THAILAND)190J34L0022023190J81L0097097                                                                                                                *          20190527 IMCT                IMCT                                                                                                                    WMF1905275.TXT
MDEDK5391621201905                D89828070100PV1D20190531000060SPEAKER ASM                   M IMCTM S5MB11 TNTH  09020IMCT  S5 PTB  00004                    1030 SR        000000000000 DENSO TEN (THAILAND)190J94L0115116                                                                                                                              *          20190527 IMCT                IMCT                                                                                                                    WMF1905275.TXT
MDEDK5391622201905                D89828070100PV1D20190531000090SPEAKER ASM                   M IMCTM S5MB11 TNTH  09020IMCT  S5 PTB  00004                    1300 SR        000000000000 DENSO TEN (THAILAND)190J34L0024025190J81L0098098                                                                                                                *          20190527 IMCT                IMCT                                                                                                                    WMF1905275.TXT
MDEDK5391623201905                D89828070100PV1D20190531000030SPEAKER ASM                   M IMCTM S5MB11 TNTH  09020IMCT  S5 PTB  00004                    2100 SR        000000000000 DENSO TEN (THAILAND)190K12L0060060                                                                                                                              *          20190527 IMCT                IMCT                                                                                                                    WMF1905275.TXT
MDEDK5391624201905                D89828070100PV1D20190531000030SPEAKER ASM                   M IMCTM S5MB11 TNTH  09020IMCT  S5 PTB  00004                    2230 SR        000000000000 DENSO TEN (THAILAND)190K12L0061061                                                                                                                              *          20190527 IMCT                IMCT                                                                                                                    WMF1905275.TXT
MDEDK5391625201905                D89828070100PV4D20190531000030SPEAKER ASM                   M IMCTM S0FL05 TNTH  09020IMCT  S0 PTB  00004                    0400 SR        000000000000 DENSO TEN (THAILAND)190J15U0015015                                                                                                                              *          20190527 IMCT                IMCT                                                                                                                    WMF1905275.TXT
MDEDK5391626201905                D89828070100PV4D20190531000030SPEAKER ASM                   M IMCTM S0FL05 TNTH  09020IMCT  S0 PTB  00004                    1030 SR        000000000000 DENSO TEN (THAILAND)190K39U0007007                                                                                                                              *          20190527 IMCT                IMCT                                                                                                                    WMF1905275.TXT
MDEDK5391627201905                D89828070100PV4D20190531000030SPEAKER ASM                   M IMCTM S0FL05 TNTH  09020IMCT  S0 PTB  00004                    2230 SR        000000000000 DENSO TEN (THAILAND)190J28U0010010                                                                                                                              *          20190527 IMCT                IMCT                                                                                                                    WMF1905275.TXT
MDEDK5391628201905                D89828070200PV4D20190531000030SPEAKER ASM                   M IMCTM S0FR05 TNTH  09020IMCT  S0 PTB  00005                    0400 SR        000000000000 DENSO TEN (THAILAND)190J15U0015015                                                                                                                              *          20190527 IMCT                IMCT                                                                                                                    WMF1905275.TXT
MDEDK5391629201905                D89828070200PV4D20190531000030SPEAKER ASM                   M IMCTM S0FR05 TNTH  09020IMCT  S0 PTB  00005                    1030 SR        000000000000 DENSO TEN (THAILAND)190K39U0007007                                                                                                                              *          20190527 IMCT                IMCT                                                                                                                    WMF1905275.TXT
MDEDK5391630201905                D89828070200PV4D20190531000030SPEAKER ASM                   M IMCTM S0FR05 TNTH  09020IMCT  S0 PTB  00005                    2230 SR        000000000000 DENSO TEN (THAILAND)190J28U0010010                                                                                                                              *          20190527 IMCT                IMCT                                                                                                                    WMF1905275.TXT
MDEDK5391631201905                D89828070300PT4D20190531000030SPEAKER ASM                   M IMCTM S9TS02 TNTH  09020IMCT  S9 PTB  00015                    0400 SR        000000000000 DENSO TEN (THAILAND)190J15U0015015                                                                                                                              *          20190527 IMCT                IMCT                                                                                                                    WMF1905275.TXT
MDEDK5391632201905                D89828070300PT4D20190531000030SPEAKER ASM                   M IMCTM S9TS02 TNTH  09020IMCT  S9 PTB  00015                    1030 SR        000000000000 DENSO TEN (THAILAND)190K39U0007007                                                                                                                              *          20190527 IMCT                IMCT                                                                                                                    WMF1905275.TXT
MDEDK5391633201905                D89828070300PT4D20190531000030SPEAKER ASM                   M IMCTM S9TS02 TNTH  09020IMCT  S9 PTB  00015                    2230 SR        000000000000 DENSO TEN (THAILAND)190J28U0010010                                                                                                                              *          20190527 IMCT                IMCT                                                                                                                    WMF1905275.TXT
MDEUK5230882201905                D89828070100PT4U20190531000030SPEAKER ASM                   M IMCTM S0FL05 TNTH  09020IMCT  S0 PTB  00004                    0230 SR        000000000000 DENSO TEN (THAILAND)190G32U0100100                                                                                                                              *          20190527 IMCT                IMCT                                                                                                                    WMF1905275.TXT
MDEUK5230883201905                D89828070100PT4U20190531000030SPEAKER ASM                   M IMCTM S0FL05 TNTH  09020IMCT  S0 PTB  00004                    1300 SR        000000000000 DENSO TEN (THAILAND)190G31U0069069                                                                                                                              *          20190527 IMCT                IMCT                                                                                                                    WMF1905275.TXT
MDEUK5230884201905                D89828070200PV4U20190531000030SPEAKER ASM                   M IMCTM S0FR05 TNTH  09020IMCT  S0 PTB  00005                    0230 SR        000000000000 DENSO TEN (THAILAND)190G32U0100100                                                                                                                              *          20190527 IMCT                IMCT                                                                                                                    WMF1905275.TXT
MDEUK5230885201905                D89828070200PV4U20190531000030SPEAKER ASM                   M IMCTM S0FR05 TNTH  09020IMCT  S0 PTB  00005                    1300 SR        000000000000 DENSO TEN (THAILAND)190G31U0069069                                                                                                                              *          20190527 IMCT                IMCT                                                                                                                    WMF1905275.TXT
MDEUK5230886201905                D89828070300PT4U20190531000030SPEAKER ASM                   M IMCTM S9TS02 TNTH  09020IMCT  S9 PTB  00015                    0230 SR        000000000000 DENSO TEN (THAILAND)190G32U0100100                                                                                                                              *          20190527 IMCT                IMCT                                                                                                                    WMF1905275.TXT
MDEUK5230887201905                D89828070300PT4U20190531000030SPEAKER ASM                   M IMCTM S9TS02 TNTH  09020IMCT  S9 PTB  00015                    1300 SR        000000000000 DENSO TEN (THAILAND)190G31U0069069                                                                                                                              *          20190527 IMCT                IMCT                                                                                                                    WMF1905275.TXT
