REC2019051420190514ISUZU                              10     
MDEBK5T01640201905                D89828070100PT4B20190517000030SPEAKER ASM                   M IMCTM S7FL05 TNTH  09020IMCT  S7 PTB  00004                    2230 SR        000000000000 DENSO TEN (THAILAND)18043YR0021   190G82R0013   Y190503701    Y190503715    000000                                                                              *R         20190514 IMCT                IMCT                                                                                                                    RMF1905146.TXT
MDEBK5T01641201905                D89828070200PV4B20190517000030SPEAKER ASM                   M IMCTM S7FL05 TNTH  09020IMCT  S7 PTB  00005                    2230 SR        000000000000 DENSO TEN (THAILAND)18043YR0021   190G82R0013   Y190503701    Y190503715    000000                                                                              *R         20190514 IMCT                IMCT                                                                                                                    RMF1905146.TXT
MDEBK5T01642201905                D89828070300PT4B20190517000030SPEAKER ASM                   M IMCTM S7TS02 TNTH  09020IMCT  S7 PTB  00015                    2230 SR        000000000000 DENSO TEN (THAILAND)18043YR0021   190G82R0013   Y190503701    Y190503715    000000                                                                              *R         20190514 IMCT                IMCT                                                                                                                    RMF1905146.TXT
MDEFK5T10015201905                D89828070100PV4F20190518000028SPEAKER ASM                   M IMCTM S7FL05 TNTH  09020IMCT  S7 PTB  00004                    1600 SR        000000000000 DENSO TEN (THAILAND)190G64R0024   190K05R0041   D190503902    D190503915    000000                                                                              *R         20190514 IMCT                IMCT                                                                                                                    RMF1905146.TXT
MDEFK5T10016201905                D89828070200PV4F20190518000030SPEAKER ASM                   M IMCTM S7FL05 TNTH  09020IMCT  S7 PTB  00005                    1600 SR        000000000000 DENSO TEN (THAILAND)190G63R0022   190K05R0041   D190503901    D190503915    000000                                                                              *R         20190514 IMCT                IMCT                                                                                                                    RMF1905146.TXT
MDEFK5T10017201905                D89828070300PT4F20190518000030SPEAKER ASM                   M IMCTM S7TS02 TNTH  09020IMCT  S7 PTB  00015                    1600 SR        000000000000 DENSO TEN (THAILAND)190G63R0022   190K05R0041   D190503901    D190503915    000000                                                                              *R         20190514 IMCT                IMCT                                                                                                                    RMF1905146.TXT
MDEFK5T10018201905                D89838031200PT4F20190518000010RADIO;ASM DVD                 M IMCTM S7TS03 TNTH  09020IMCT  S7 PTB  00003                    1600 SR        000000000000 DENSO TEN (THAILAND)190K04R0033   190K05R0041   D190503906    D190503915    000000                                                                              *R         20190514 IMCT                IMCT                                                                                                                    RMF1905146.TXT
MDEFK5T10019201905                D89848582010PT4F20190518000002RADIO;AM/FM CD D              M IMCTM S7TS01 TNTH  09020IMCT  S7 PTB  00003                    1600 SR        000000000000 DENSO TEN (THAILAND)190K48R0033   190K48R0034   D190503904    D190503905    000000                                                                              *R         20190514 IMCT                IMCT                                                                                                                    RMF1905146.TXT
MDEFK5225984201905                D89828070100PV4F20190518000020SPEAKER ASM                   M IMCTM S7FL05 TNTH  09020IMCT  S7 PTB  00004                    0830 SR        000000000000 DENSO TEN (THAILAND)190H02R0025   190K08R0040   S190503801    S190503810    000000                                                                              *R         20190514 IMCT                IMCT                                                                                                                    RMF1905146.TXT
MDEFK5225985201905                D89828070100PV4F20190518000012SPEAKER ASM                   M IMCTM S7FL05 TNTH  09020IMCT  S7 PTB  00004                    1030 SR        000000000000 DENSO TEN (THAILAND)190K08R0041   190G63R0022   S190503811    D190503901    000000                                                                              *R         20190514 IMCT                IMCT                                                                                                                    RMF1905146.TXT
