REC2019050820190508ISUZU                              10     
MDEFK5T04718201905                D89828070100PV4F20190513000030SPEAKER ASM                   M IMCTM S7FL05 TNTH  09020IMCT  S7 PTB  00004                    1600 SR        000000000000 DENSO TEN (THAILAND)190D88R0028   170L33R0020   R190502801    R190502815    000000                                                                              *R         20190508 IMCT                IMCT                                                                                                                    RMF1905086.TXT
MDEFK5T04719201905                D89828070200PV4F20190511000025SPEAKER ASM                   M IMCTM S7FL05 TNTH  09020IMCT  S7 PTB  00005                    2230 SR        000000000000 DENSO TEN (THAILAND)190H86R0023   17054RR0102   D190502603    D190502615    000000                                                                              *R         20190508 IMCT                IMCT                                                                                                                    RMF1905086.TXT
MDEFK5T04720201905                D89828070300PT4F20190511000015SPEAKER ASM                   M IMCTM S7TS02 TNTH  09020IMCT  S7 PTB  00015                    2230 SR        000000000000 DENSO TEN (THAILAND)190H86R0026   17054RR0102   D190502608    D190502615    000000                                                                              *R         20190508 IMCT                IMCT                                                                                                                    RMF1905086.TXT
MDEFK5T04721201905                D89848582100PT4F20190511000006RADIO;AM/FM CD D              M IMCTM S7TS01 TNTH  09020IMCT  S7 PTB  00003                    2230 SR        000000000000 DENSO TEN (THAILAND)190H86R0024   190H86R0029   D190502604    D190502611    000000                                                                              *R         20190508 IMCT                IMCT                                                                                                                    RMF1905086.TXT
MDEFK5214057201905                D89828070100PV4F20190511000004SPEAKER ASM                   M IMCTM S7FL05 TNTH  09020IMCT  S7 PTB  00004                    2100 SR        000000000000 DENSO TEN (THAILAND)190H86R0021   190H86R0022   D190502601    D190502602    000000                                                                              *R         20190508 IMCT                IMCT                                                                                                                    RMF1905086.TXT
MDEFK5214058201905                D89828070100PV4F20190511000028SPEAKER ASM                   M IMCTM S7FL05 TNTH  09020IMCT  S7 PTB  00004                    2230 SR        000000000000 DENSO TEN (THAILAND)190H86R0023   190H32R0044   D190502603    R190502701    000000                                                                              *R         20190508 IMCT                IMCT                                                                                                                    RMF1905086.TXT
MDEFK5214059201905                D89828070100PV4F20190513000028SPEAKER ASM                   M IMCTM S7FL05 TNTH  09020IMCT  S7 PTB  00004                    0830 SR        000000000000 DENSO TEN (THAILAND)190H32R0045   190G59R0009   R190502702    R190502715    000000                                                                              *R         20190508 IMCT                IMCT                                                                                                                    RMF1905086.TXT
MDEFK5214060201905                D89828070200PV4F20190511000005SPEAKER ASM                   M IMCTM S7FL05 TNTH  09020IMCT  S7 PTB  00005                    2100 SR        000000000000 DENSO TEN (THAILAND)190H86R0021   190H86R0023   D190502601    D190502603    000000                                                                              *R         20190508 IMCT                IMCT                                                                                                                    RMF1905086.TXT
MDEFK5214061201905                D89828070300PT4F20190511000015SPEAKER ASM                   M IMCTM S7TS02 TNTH  09020IMCT  S7 PTB  00015                    2100 SR        000000000000 DENSO TEN (THAILAND)190H86R0021   190H86R0026   D190502601    D190502608    000000                                                                              *R         20190508 IMCT                IMCT                                                                                                                    RMF1905086.TXT
MDEFK5214062201905                D89848582100PT4F20190511000003RADIO;AM/FM CD D              M IMCTM S7TS01 TNTH  09020IMCT  S7 PTB  00003                    2100 SR        000000000000 DENSO TEN (THAILAND)190H86R0021   190H86R0023   D190502601    D190502603    000000                                                                              *R         20190508 IMCT                IMCT                                                                                                                    RMF1905086.TXT
