REC2019050820190508ISUZU                              64     
MDDDK5218525201905                D89821984430PT1D20190512000030RADIO;AM/FM,CD                M IMCTM S5NC06 TNTH  09020IMCT  S5 PTB  00005                    0400 SR        000000000000 DENSO TEN (THAILAND)190MYBL0034034                                                                                                                              *          20190508 IMCT                IMCT                                                                                                                    WMF1905086.TXT
MDDDK5218526201905                D89821984430PT1D20190513000030RADIO;AM/FM,CD                M IMCTM S5NC06 TNTH  09020IMCT  S5 PTB  00005                    1300 SR        000000000000 DENSO TEN (THAILAND)190MXEL0063063                                                                                                                              *          20190508 IMCT                IMCT                                                                                                                    WMF1905086.TXT
MDDDK5218527201905                D89821984430PT1D20190513000030RADIO;AM/FM,CD                M IMCTM S5NC06 TNTH  09020IMCT  S5 PTB  00005                    1600 SR        000000000000 DENSO TEN (THAILAND)190MNGL0146146                                                                                                                              *          20190508 IMCT                IMCT                                                                                                                    WMF1905086.TXT
MDDDK5218528201905                D89821984430PT1D20190513000030RADIO;AM/FM,CD                M IMCTM S5NC06 TNTH  09020IMCT  S5 PTB  00005                    2100 SR        000000000000 DENSO TEN (THAILAND)190MRAL0108108                                                                                                                              *          20190508 IMCT                IMCT                                                                                                                    WMF1905086.TXT
MDDDK5218529201905                D89828070100PV1D20190511000120SPEAKER ASM                   M IMCTM S5MB11 TNTH  09020IMCT  S5 PTB  00004                    2230 SR        000000000000 DENSO TEN (THAILAND)190MPGL0153153190MRML0001001                                                                                                                *          20190508 IMCT                IMCT                                                                                                                    WMF1905086.TXT
MDDDK5218530201905                D89828070100PV1D20190512000060SPEAKER ASM                   M IMCTM S5MB11 TNTH  09020IMCT  S5 PTB  00004                    0400 SR        000000000000 DENSO TEN (THAILAND)190MYBL0034034                                                                                                                              *          20190508 IMCT                IMCT                                                                                                                    WMF1905086.TXT
MDDDK5218531201905                D89828070100PV1D20190513000060SPEAKER ASM                   M IMCTM S5MB11 TNTH  09020IMCT  S5 PTB  00004                    1030 SR        000000000000 DENSO TEN (THAILAND)190MPGL0154154                                                                                                                              *          20190508 IMCT                IMCT                                                                                                                    WMF1905086.TXT
MDDDK5218532201905                D89828070100PV1D20190513000120SPEAKER ASM                   M IMCTM S5MB11 TNTH  09020IMCT  S5 PTB  00004                    1300 SR        000000000000 DENSO TEN (THAILAND)190MPGL0155155190MXEL0063063                                                                                                                *          20190508 IMCT                IMCT                                                                                                                    WMF1905086.TXT
MDDDK5218533201905                D89828070100PV1D20190513000060SPEAKER ASM                   M IMCTM S5MB11 TNTH  09020IMCT  S5 PTB  00004                    1600 SR        000000000000 DENSO TEN (THAILAND)190MNGL0146146                                                                                                                              *          20190508 IMCT                IMCT                                                                                                                    WMF1905086.TXT
MDDDK5218534201905                D89828070100PV1D20190513000060SPEAKER ASM                   M IMCTM S5MB11 TNTH  09020IMCT  S5 PTB  00004                    2100 SR        000000000000 DENSO TEN (THAILAND)190MRAL0108108                                                                                                                              *          20190508 IMCT                IMCT                                                                                                                    WMF1905086.TXT
MDDDK5218535201905                D89828070100PV4D20190513000060SPEAKER ASM                   M IMCTM S0FL05 TNTH  09020IMCT  S0 PTB  00004                    1300 SR        000000000000 DENSO TEN (THAILAND)190MRSU0036036                                                                                                                              *          20190508 IMCT                IMCT                                                                                                                    WMF1905086.TXT
MDDDK5218536201905                D89828070200PV1D20190511000060SPEAKER ASM                   M IMCTM S5MA14 TNTH  09020IMCT  S5 PTB  00005                    2230 SR        000000000000 DENSO TEN (THAILAND)190MRML0001001                                                                                                                              *          20190508 IMCT                IMCT                                                                                                                    WMF1905086.TXT
MDDDK5218537201905                D89828070200PV4D20190513000060SPEAKER ASM                   M IMCTM S0FR05 TNTH  09020IMCT  S0 PTB  00005                    1300 SR        000000000000 DENSO TEN (THAILAND)190MRSU0036036                                                                                                                              *          20190508 IMCT                IMCT                                                                                                                    WMF1905086.TXT
MDDDK5218538201905                D89828070300PT1D20190511000120SPEAKER ASM                   M IMCTM S5NB082TNTH  09020IMCT  S5 PTB  00015                    2230 SR        000000000000 DENSO TEN (THAILAND)190MPGL0153153190MRML0001001                                                                                                                *          20190508 IMCT                IMCT                                                                                                                    WMF1905086.TXT
MDDDK5218539201905                D89828070300PT1D20190513000060SPEAKER ASM                   M IMCTM S5NB082TNTH  09020IMCT  S5 PTB  00015                    1030 SR        000000000000 DENSO TEN (THAILAND)190MPGL0154154                                                                                                                              *          20190508 IMCT                IMCT                                                                                                                    WMF1905086.TXT
MDDDK5218540201905                D89828070300PT1D20190513000060SPEAKER ASM                   M IMCTM S5NB082TNTH  09020IMCT  S5 PTB  00015                    1300 SR        000000000000 DENSO TEN (THAILAND)190MPGL0155155                                                                                                                              *          20190508 IMCT                IMCT                                                                                                                    WMF1905086.TXT
MDDDK5218541201905                D89828070300PT4D20190513000060SPEAKER ASM                   M IMCTM S9TS02 TNTH  09020IMCT  S9 PTB  00015                    1300 SR        000000000000 DENSO TEN (THAILAND)190MRSU0036036                                                                                                                              *          20190508 IMCT                IMCT                                                                                                                    WMF1905086.TXT
MDDDK5218542201905                D89831228300PT1D20190511000030RADIO;AM/FM,CD                M IMCTM S5NC06 TNTH  09020IMCT  S5 CPB  00003                    2230 SR        000000000000 DENSO TEN (THAILAND)190MPGL0153153                                                                                                                              *          20190508 IMCT                IMCT                                                                                                                    WMF1905086.TXT
MDDDK5218543201905                D89831228300PT1D20190513000030RADIO;AM/FM,CD                M IMCTM S5NC06 TNTH  09020IMCT  S5 CPB  00003                    1030 SR        000000000000 DENSO TEN (THAILAND)190MPGL0154154                                                                                                                              *          20190508 IMCT                IMCT                                                                                                                    WMF1905086.TXT
MDDDK5218544201905                D89831228300PT1D20190513000030RADIO;AM/FM,CD                M IMCTM S5NC06 TNTH  09020IMCT  S5 CPB  00003                    1300 SR        000000000000 DENSO TEN (THAILAND)190MPGL0155155                                                                                                                              *          20190508 IMCT                IMCT                                                                                                                    WMF1905086.TXT
MDDUK5204225201905                D89828070100PT4U20190511000030SPEAKER ASM                   M IMCTM S0FL05 TNTH  09020IMCT  S0 PTB  00004                    2230 SR        000000000000 DENSO TEN (THAILAND)190MUGU0083083                                                                                                                              *          20190508 IMCT                IMCT                                                                                                                    WMF1905086.TXT
MDDUK5204226201905                D89828070100PT4U20190513000030SPEAKER ASM                   M IMCTM S0FL05 TNTH  09020IMCT  S0 PTB  00004                    1030 SR        000000000000 DENSO TEN (THAILAND)190MUEU0132132                                                                                                                              *          20190508 IMCT                IMCT                                                                                                                    WMF1905086.TXT
MDDUK5204227201905                D89828070100PT4U20190513000030SPEAKER ASM                   M IMCTM S0FL05 TNTH  09020IMCT  S0 PTB  00004                    1600 SR        000000000000 DENSO TEN (THAILAND)190MUGU0084084                                                                                                                              *          20190508 IMCT                IMCT                                                                                                                    WMF1905086.TXT
MDDUK5204228201905                D89828070200PV4U20190511000030SPEAKER ASM                   M IMCTM S0FR05 TNTH  09020IMCT  S0 PTB  00005                    2230 SR        000000000000 DENSO TEN (THAILAND)190MUGU0083083                                                                                                                              *          20190508 IMCT                IMCT                                                                                                                    WMF1905086.TXT
MDDUK5204229201905                D89828070200PV4U20190513000030SPEAKER ASM                   M IMCTM S0FR05 TNTH  09020IMCT  S0 PTB  00005                    1030 SR        000000000000 DENSO TEN (THAILAND)190MUEU0132132                                                                                                                              *          20190508 IMCT                IMCT                                                                                                                    WMF1905086.TXT
MDDUK5204230201905                D89828070200PV4U20190513000030SPEAKER ASM                   M IMCTM S0FR05 TNTH  09020IMCT  S0 PTB  00005                    1600 SR        000000000000 DENSO TEN (THAILAND)190MUGU0084084                                                                                                                              *          20190508 IMCT                IMCT                                                                                                                    WMF1905086.TXT
MDDUK5204231201905                D89828070300PT4U20190511000030SPEAKER ASM                   M IMCTM S9TS02 TNTH  09020IMCT  S9 PTB  00015                    2230 SR        000000000000 DENSO TEN (THAILAND)190MUGU0083083                                                                                                                              *          20190508 IMCT                IMCT                                                                                                                    WMF1905086.TXT
MDDUK5204232201905                D89828070300PT4U20190513000030SPEAKER ASM                   M IMCTM S9TS02 TNTH  09020IMCT  S9 PTB  00015                    1030 SR        000000000000 DENSO TEN (THAILAND)190MUEU0132132                                                                                                                              *          20190508 IMCT                IMCT                                                                                                                    WMF1905086.TXT
MDDUK5204233201905                D89828070300PT4U20190513000030SPEAKER ASM                   M IMCTM S9TS02 TNTH  09020IMCT  S9 PTB  00015                    1600 SR        000000000000 DENSO TEN (THAILAND)190MUGU0084084                                                                                                                              *          20190508 IMCT                IMCT                                                                                                                    WMF1905086.TXT
MDEDK5237085201905                D89828070100PV1D20190512000060SPEAKER ASM                   M IMCTM S5MB11 TNTH  09020IMCT  S5 PTB  00004                    0230 SR        000000000000 DENSO TEN (THAILAND)190H53L0005005190J81L0067067                                                                                                                *          20190508 IMCT                IMCT                                                                                                                    WMF1905086.TXT
MDEDK5237086201905                D89828070100PV1D20190512000060SPEAKER ASM                   M IMCTM S5MB11 TNTH  09020IMCT  S5 PTB  00004                    0400 SR        000000000000 DENSO TEN (THAILAND)190H17L0028028190J81L0068068                                                                                                                *          20190508 IMCT                IMCT                                                                                                                    WMF1905086.TXT
MDEDK5237087201905                D89828070100PV1D20190513000090SPEAKER ASM                   M IMCTM S5MB11 TNTH  09020IMCT  S5 PTB  00004                    0830 SR        000000000000 DENSO TEN (THAILAND)17052RL0048048190H17L0029029190J81L0069069                                                                                                  *          20190508 IMCT                IMCT                                                                                                                    WMF1905086.TXT
MDEDK5237088201905                D89828070100PV1D20190513000060SPEAKER ASM                   M IMCTM S5MB11 TNTH  09020IMCT  S5 PTB  00004                    1300 SR        000000000000 DENSO TEN (THAILAND)190H28L0021021190J90L0004004                                                                                                                *          20190508 IMCT                IMCT                                                                                                                    WMF1905086.TXT
MDEDK5237089201905                D89828070100PV1D20190513000030SPEAKER ASM                   M IMCTM S5MB11 TNTH  09020IMCT  S5 PTB  00004                    1600 SR        000000000000 DENSO TEN (THAILAND)190H28L0022022                                                                                                                              *          20190508 IMCT                IMCT                                                                                                                    WMF1905086.TXT
MDEDK5237090201905                D89828070100PV1D20190513000060SPEAKER ASM                   M IMCTM S5MB11 TNTH  09020IMCT  S5 PTB  00004                    2230 SR        000000000000 DENSO TEN (THAILAND)190H17L0030031                                                                                                                              *          20190508 IMCT                IMCT                                                                                                                    WMF1905086.TXT
MDEDK5237091201905                D89828070100PV4D20190512000030SPEAKER ASM                   M IMCTM S0FL05 TNTH  09020IMCT  S0 PTB  00004                    0230 SR        000000000000 DENSO TEN (THAILAND)190H26U0008008                                                                                                                              *          20190508 IMCT                IMCT                                                                                                                    WMF1905086.TXT
MDEDK5237092201905                D89828070100PV4D20190512000030SPEAKER ASM                   M IMCTM S0FL05 TNTH  09020IMCT  S0 PTB  00004                    0400 SR        000000000000 DENSO TEN (THAILAND)190J94U0014014                                                                                                                              *          20190508 IMCT                IMCT                                                                                                                    WMF1905086.TXT
MDEDK5237093201905                D89828070100PV4D20190513000030SPEAKER ASM                   M IMCTM S0FL05 TNTH  09020IMCT  S0 PTB  00004                    0830 SR        000000000000 DENSO TEN (THAILAND)190H28U0015015                                                                                                                              *          20190508 IMCT                IMCT                                                                                                                    WMF1905086.TXT
MDEDK5237094201905                D89828070100PV4D20190513000030SPEAKER ASM                   M IMCTM S0FL05 TNTH  09020IMCT  S0 PTB  00004                    1600 SR        000000000000 DENSO TEN (THAILAND)190J94U0015015                                                                                                                              *          20190508 IMCT                IMCT                                                                                                                    WMF1905086.TXT
MDEDK5237095201905                D89828070100PV4D20190513000030SPEAKER ASM                   M IMCTM S0FL05 TNTH  09020IMCT  S0 PTB  00004                    2100 SR        000000000000 DENSO TEN (THAILAND)190H21U0012012                                                                                                                              *          20190508 IMCT                IMCT                                                                                                                    WMF1905086.TXT
MDEDK5237096201905                D89828070200PV1D20190512000030SPEAKER ASM                   M IMCTM S5MA14 TNTH  09020IMCT  S5 PTB  00005                    0400 SR        000000000000 DENSO TEN (THAILAND)190H17L0028028                                                                                                                              *          20190508 IMCT                IMCT                                                                                                                    WMF1905086.TXT
MDEDK5237097201905                D89828070200PV1D20190513000030SPEAKER ASM                   M IMCTM S5MA14 TNTH  09020IMCT  S5 PTB  00005                    0830 SR        000000000000 DENSO TEN (THAILAND)190H17L0029029                                                                                                                              *          20190508 IMCT                IMCT                                                                                                                    WMF1905086.TXT
MDEDK5237098201905                D89828070200PV1D20190513000030SPEAKER ASM                   M IMCTM S5MA14 TNTH  09020IMCT  S5 PTB  00005                    1300 SR        000000000000 DENSO TEN (THAILAND)190H28L0021021                                                                                                                              *          20190508 IMCT                IMCT                                                                                                                    WMF1905086.TXT
MDEDK5237099201905                D89828070200PV1D20190513000030SPEAKER ASM                   M IMCTM S5MA14 TNTH  09020IMCT  S5 PTB  00005                    1600 SR        000000000000 DENSO TEN (THAILAND)190H28L0022022                                                                                                                              *          20190508 IMCT                IMCT                                                                                                                    WMF1905086.TXT
MDEDK5237100201905                D89828070200PV1D20190513000060SPEAKER ASM                   M IMCTM S5MA14 TNTH  09020IMCT  S5 PTB  00005                    2230 SR        000000000000 DENSO TEN (THAILAND)190H17L0030031                                                                                                                              *          20190508 IMCT                IMCT                                                                                                                    WMF1905086.TXT
MDEDK5237101201905                D89828070200PV4D20190512000030SPEAKER ASM                   M IMCTM S0FR05 TNTH  09020IMCT  S0 PTB  00005                    0230 SR        000000000000 DENSO TEN (THAILAND)190H26U0008008                                                                                                                              *          20190508 IMCT                IMCT                                                                                                                    WMF1905086.TXT
MDEDK5237102201905                D89828070200PV4D20190513000030SPEAKER ASM                   M IMCTM S0FR05 TNTH  09020IMCT  S0 PTB  00005                    0830 SR        000000000000 DENSO TEN (THAILAND)190H28U0015015                                                                                                                              *          20190508 IMCT                IMCT                                                                                                                    WMF1905086.TXT
MDEDK5237103201905                D89828070200PV4D20190513000030SPEAKER ASM                   M IMCTM S0FR05 TNTH  09020IMCT  S0 PTB  00005                    2100 SR        000000000000 DENSO TEN (THAILAND)190H21U0012012                                                                                                                              *          20190508 IMCT                IMCT                                                                                                                    WMF1905086.TXT
MDEDK5237104201905                D89828070300PT1D20190512000030SPEAKER ASM                   M IMCTM S5NB082TNTH  09020IMCT  S5 PTB  00015                    0400 SR        000000000000 DENSO TEN (THAILAND)190H17L0028028                                                                                                                              *          20190508 IMCT                IMCT                                                                                                                    WMF1905086.TXT
MDEDK5237105201905                D89828070300PT1D20190513000030SPEAKER ASM                   M IMCTM S5NB082TNTH  09020IMCT  S5 PTB  00015                    0830 SR        000000000000 DENSO TEN (THAILAND)190H17L0029029                                                                                                                              *          20190508 IMCT                IMCT                                                                                                                    WMF1905086.TXT
MDEDK5237106201905                D89828070300PT1D20190513000030SPEAKER ASM                   M IMCTM S5NB082TNTH  09020IMCT  S5 PTB  00015                    1300 SR        000000000000 DENSO TEN (THAILAND)190H28L0021021                                                                                                                              *          20190508 IMCT                IMCT                                                                                                                    WMF1905086.TXT
MDEDK5237107201905                D89828070300PT1D20190513000030SPEAKER ASM                   M IMCTM S5NB082TNTH  09020IMCT  S5 PTB  00015                    1600 SR        000000000000 DENSO TEN (THAILAND)190H28L0022022                                                                                                                              *          20190508 IMCT                IMCT                                                                                                                    WMF1905086.TXT
MDEDK5237108201905                D89828070300PT1D20190513000060SPEAKER ASM                   M IMCTM S5NB082TNTH  09020IMCT  S5 PTB  00015                    2230 SR        000000000000 DENSO TEN (THAILAND)190H17L0030031                                                                                                                              *          20190508 IMCT                IMCT                                                                                                                    WMF1905086.TXT
MDEDK5237109201905                D89828070300PT4D20190512000030SPEAKER ASM                   M IMCTM S9TS02 TNTH  09020IMCT  S9 PTB  00015                    0230 SR        000000000000 DENSO TEN (THAILAND)190H26U0008008                                                                                                                              *          20190508 IMCT                IMCT                                                                                                                    WMF1905086.TXT
MDEDK5237110201905                D89828070300PT4D20190513000030SPEAKER ASM                   M IMCTM S9TS02 TNTH  09020IMCT  S9 PTB  00015                    0830 SR        000000000000 DENSO TEN (THAILAND)190H28U0015015                                                                                                                              *          20190508 IMCT                IMCT                                                                                                                    WMF1905086.TXT
MDEDK5237111201905                D89828070300PT4D20190513000030SPEAKER ASM                   M IMCTM S9TS02 TNTH  09020IMCT  S9 PTB  00015                    2100 SR        000000000000 DENSO TEN (THAILAND)190H21U0012012                                                                                                                              *          20190508 IMCT                IMCT                                                                                                                    WMF1905086.TXT
MDEDK5237112201905                D89848582100PT1D20190512000015RADIO;AM/FM CD D              M IMCTM S5NC06 TNTH  09020IMCT  S5 PTB  00003                    0400 SR        000000000000 DENSO TEN (THAILAND)190H17L0028028                                                                                                                              *          20190508 IMCT                IMCT                                                                                                                    WMF1905086.TXT
MDEDK5237113201905                D89848582100PT1D20190513000015RADIO;AM/FM CD D              M IMCTM S5NC06 TNTH  09020IMCT  S5 PTB  00003                    0830 SR        000000000000 DENSO TEN (THAILAND)190H17L0029029                                                                                                                              *          20190508 IMCT                IMCT                                                                                                                    WMF1905086.TXT
MDEDK5237114201905                D89848582100PT1D20190513000030RADIO;AM/FM CD D              M IMCTM S5NC06 TNTH  09020IMCT  S5 PTB  00003                    2230 SR        000000000000 DENSO TEN (THAILAND)190H17L0030031                                                                                                                              *          20190508 IMCT                IMCT                                                                                                                    WMF1905086.TXT
MDEDK5237115201905                D89848582100PT4D20190512000015RADIO;AM/FM CD D              M IMCTM S9CO001TNTH  09020IMCT  S9 PTB  00003                    0230 SR        000000000000 DENSO TEN (THAILAND)190H26U0008008                                                                                                                              *          20190508 IMCT                IMCT                                                                                                                    WMF1905086.TXT
MDEUK5213492201905                D89752845400PT4U20190512000015RADIO;AM FM,CD D              M IMCTM S9AD002TNTH  09020IMCT  S9 PTB  00003                    0400 SR        000000000000 DENSO TEN (THAILAND)190G29U0018018                                                                                                                              *          20190508 IMCT                IMCT                                                                                                                    WMF1905086.TXT
MDEUK5213493201905                D89828070100PT4U20190512000030SPEAKER ASM                   M IMCTM S0FL05 TNTH  09020IMCT  S0 PTB  00004                    0400 SR        000000000000 DENSO TEN (THAILAND)190G29U0018018                                                                                                                              *          20190508 IMCT                IMCT                                                                                                                    WMF1905086.TXT
MDEUK5213494201905                D89828070200PV4U20190512000030SPEAKER ASM                   M IMCTM S0FR05 TNTH  09020IMCT  S0 PTB  00005                    0400 SR        000000000000 DENSO TEN (THAILAND)190G29U0018018                                                                                                                              *          20190508 IMCT                IMCT                                                                                                                    WMF1905086.TXT
MDEUK5213495201905                D89828070300PT4U20190512000030SPEAKER ASM                   M IMCTM S9TS02 TNTH  09020IMCT  S9 PTB  00015                    0400 SR        000000000000 DENSO TEN (THAILAND)190G29U0018018                                                                                                                              *          20190508 IMCT                IMCT                                                                                                                    WMF1905086.TXT
