REC2019061420190614ISUZU                              36     
MAKK96076213201906N3               89825451200P3YK20190625000030SPEAKER ASM;ROOF              M IMCTM CM1    TNTH  09020IMKDC KA PTB  00036  K0                0231NES        000000000000 DENSO TEN (THAILAND)                                                                                                                                            *G         20190614 IMCT                IMCT                                                                                                                    WMF1906141.TXT
MAKK96076214201906N3               89825451200P3YK20190627000030SPEAKER ASM;ROOF              M IMCTM CM1    TNTH  09020IMKDC KA PTB  00036  K0                0231NES        000000000000 DENSO TEN (THAILAND)                                                                                                                                            *G         20190614 IMCT                IMCT                                                                                                                    WMF1906141.TXT
MAKK96076215201906D3               89825451200P3YK20190627000030SPEAKER ASM;ROOF              M IMCTM CM1    TNTH  09020IMKDC KA PTB  00036  K0                1431DES        000000000000 DENSO TEN (THAILAND)                                                                                                                                            *G         20190614 IMCT                IMCT                                                                                                                    WMF1906141.TXT
MAKK96076216201906N3               89825451200P3YK20190628000030SPEAKER ASM;ROOF              M IMCTM CM1    TNTH  09020IMKDC KA PTB  00036  K0                0231NES        000000000000 DENSO TEN (THAILAND)                                                                                                                                            *G         20190614 IMCT                IMCT                                                                                                                    WMF1906141.TXT
MAKK96076217201906D3               89825451200P3YK20190628000030SPEAKER ASM;ROOF              M IMCTM CM1    TNTH  09020IMKDC KA PTB  00036  K0                1431DES        000000000000 DENSO TEN (THAILAND)                                                                                                                                            *G         20190614 IMCT                IMCT                                                                                                                    WMF1906141.TXT
MAKK96076218201906D3               89828070100P3YK20190624000090SPEAKER ASM                   M IMCTM CM1    TNTH  09020IMKDC KA PTB  00004  K0                1431DES        000000000000 DENSO TEN (THAILAND)                                                                                                                                            *G         20190614 IMCT                IMCT                                                                                                                    WMF1906141.TXT
MAKK96076219201906N3               89828070100P3YK20190625000090SPEAKER ASM                   M IMCTM CM1    TNTH  09020IMKDC KA PTB  00004  K0                0231NES        000000000000 DENSO TEN (THAILAND)                                                                                                                                            *G         20190614 IMCT                IMCT                                                                                                                    WMF1906141.TXT
MAKK96076220201906D3               89828070100P3YK20190625000030SPEAKER ASM                   M IMCTM CM1    TNTH  09020IMKDC KA PTB  00004  K0                1431DES        000000000000 DENSO TEN (THAILAND)                                                                                                                                            *G         20190614 IMCT                IMCT                                                                                                                    WMF1906141.TXT
MAKK96076221201906N3               89828070100P3YK20190626000060SPEAKER ASM                   M IMCTM CM1    TNTH  09020IMKDC KA PTB  00004  K0                0231NES        000000000000 DENSO TEN (THAILAND)                                                                                                                                            *G         20190614 IMCT                IMCT                                                                                                                    WMF1906141.TXT
MAKK96076222201906D3               89828070100P3YK20190626000060SPEAKER ASM                   M IMCTM CM1    TNTH  09020IMKDC KA PTB  00004  K0                1431DES        000000000000 DENSO TEN (THAILAND)                                                                                                                                            *G         20190614 IMCT                IMCT                                                                                                                    WMF1906141.TXT
MAKK96076223201906N3               89828070100P3YK20190627000090SPEAKER ASM                   M IMCTM CM1    TNTH  09020IMKDC KA PTB  00004  K0                0231NES        000000000000 DENSO TEN (THAILAND)                                                                                                                                            *G         20190614 IMCT                IMCT                                                                                                                    WMF1906141.TXT
MAKK96076224201906D3               89828070100P3YK20190627000060SPEAKER ASM                   M IMCTM CM1    TNTH  09020IMKDC KA PTB  00004  K0                1431DES        000000000000 DENSO TEN (THAILAND)                                                                                                                                            *G         20190614 IMCT                IMCT                                                                                                                    WMF1906141.TXT
MAKK96076225201906N3               89828070100P3YK20190628000060SPEAKER ASM                   M IMCTM CM1    TNTH  09020IMKDC KA PTB  00004  K0                0231NES        000000000000 DENSO TEN (THAILAND)                                                                                                                                            *G         20190614 IMCT                IMCT                                                                                                                    WMF1906141.TXT
MAKK96076226201906D3               89828070100P3YK20190628000060SPEAKER ASM                   M IMCTM CM1    TNTH  09020IMKDC KA PTB  00004  K0                1431DES        000000000000 DENSO TEN (THAILAND)                                                                                                                                            *G         20190614 IMCT                IMCT                                                                                                                    WMF1906141.TXT
MAKK96076227201906N3               89828070100P3YK20190629000150SPEAKER ASM                   M IMCTM CM1    TNTH  09020IMKDC KA PTB  00004  K0                0231NES        000000000000 DENSO TEN (THAILAND)                                                                                                                                            *G         20190614 IMCT                IMCT                                                                                                                    WMF1906141.TXT
MAKK96076228201906D3               89828070200P3YK20190624000030SPEAKER ASM                   M IMCTM CM1    TNTH  09020IMKDC KA PTB  00005  K0                1431DES        000000000000 DENSO TEN (THAILAND)                                                                                                                                            *G         20190614 IMCT                IMCT                                                                                                                    WMF1906141.TXT
MAKK96076229201906N3               89828070200P3YK20190625000060SPEAKER ASM                   M IMCTM CM1    TNTH  09020IMKDC KA PTB  00005  K0                0231NES        000000000000 DENSO TEN (THAILAND)                                                                                                                                            *G         20190614 IMCT                IMCT                                                                                                                    WMF1906141.TXT
MAKK96076230201906D3               89828070200P3YK20190625000030SPEAKER ASM                   M IMCTM CM1    TNTH  09020IMKDC KA PTB  00005  K0                1431DES        000000000000 DENSO TEN (THAILAND)                                                                                                                                            *G         20190614 IMCT                IMCT                                                                                                                    WMF1906141.TXT
MAKK96076231201906N3               89828070200P3YK20190626000030SPEAKER ASM                   M IMCTM CM1    TNTH  09020IMKDC KA PTB  00005  K0                0231NES        000000000000 DENSO TEN (THAILAND)                                                                                                                                            *G         20190614 IMCT                IMCT                                                                                                                    WMF1906141.TXT
MAKK96076232201906N3               89828070200P3YK20190627000090SPEAKER ASM                   M IMCTM CM1    TNTH  09020IMKDC KA PTB  00005  K0                0231NES        000000000000 DENSO TEN (THAILAND)                                                                                                                                            *G         20190614 IMCT                IMCT                                                                                                                    WMF1906141.TXT
MAKK96076233201906D3               89828070200P3YK20190627000030SPEAKER ASM                   M IMCTM CM1    TNTH  09020IMKDC KA PTB  00005  K0                1431DES        000000000000 DENSO TEN (THAILAND)                                                                                                                                            *G         20190614 IMCT                IMCT                                                                                                                    WMF1906141.TXT
MAKK96076234201906N3               89828070200P3YK20190628000030SPEAKER ASM                   M IMCTM CM1    TNTH  09020IMKDC KA PTB  00005  K0                0231NES        000000000000 DENSO TEN (THAILAND)                                                                                                                                            *G         20190614 IMCT                IMCT                                                                                                                    WMF1906141.TXT
MAKK96076235201906D3               89828070200P3YK20190628000030SPEAKER ASM                   M IMCTM CM1    TNTH  09020IMKDC KA PTB  00005  K0                1431DES        000000000000 DENSO TEN (THAILAND)                                                                                                                                            *G         20190614 IMCT                IMCT                                                                                                                    WMF1906141.TXT
MAKK96076236201906N3               89828070200P3YK20190629000060SPEAKER ASM                   M IMCTM CM1    TNTH  09020IMKDC KA PTB  00005  K0                0231NES        000000000000 DENSO TEN (THAILAND)                                                                                                                                            *G         20190614 IMCT                IMCT                                                                                                                    WMF1906141.TXT
MAKK96076237201906D3               89828070300P3YK20190624000060SPEAKER ASM                   M IMCTM CM1    TNTH  09020IMKDC KA PTB  00015  K0                1431DES        000000000000 DENSO TEN (THAILAND)                                                                                                                                            *G         20190614 IMCT                IMCT                                                                                                                    WMF1906141.TXT
MAKK96076238201906N3               89828070300P3YK20190625000060SPEAKER ASM                   M IMCTM CM1    TNTH  09020IMKDC KA PTB  00015  K0                0231NES        000000000000 DENSO TEN (THAILAND)                                                                                                                                            *G         20190614 IMCT                IMCT                                                                                                                    WMF1906141.TXT
MAKK96076239201906D3               89828070300P3YK20190625000030SPEAKER ASM                   M IMCTM CM1    TNTH  09020IMKDC KA PTB  00015  K0                1431DES        000000000000 DENSO TEN (THAILAND)                                                                                                                                            *G         20190614 IMCT                IMCT                                                                                                                    WMF1906141.TXT
MAKK96076240201906N3               89828070300P3YK20190626000030SPEAKER ASM                   M IMCTM CM1    TNTH  09020IMKDC KA PTB  00015  K0                0231NES        000000000000 DENSO TEN (THAILAND)                                                                                                                                            *G         20190614 IMCT                IMCT                                                                                                                    WMF1906141.TXT
MAKK96076241201906D3               89828070300P3YK20190626000030SPEAKER ASM                   M IMCTM CM1    TNTH  09020IMKDC KA PTB  00015  K0                1431DES        000000000000 DENSO TEN (THAILAND)                                                                                                                                            *G         20190614 IMCT                IMCT                                                                                                                    WMF1906141.TXT
MAKK96076242201906N3               89828070300P3YK20190627000090SPEAKER ASM                   M IMCTM CM1    TNTH  09020IMKDC KA PTB  00015  K0                0231NES        000000000000 DENSO TEN (THAILAND)                                                                                                                                            *G         20190614 IMCT                IMCT                                                                                                                    WMF1906141.TXT
MAKK96076243201906D3               89828070300P3YK20190627000030SPEAKER ASM                   M IMCTM CM1    TNTH  09020IMKDC KA PTB  00015  K0                1431DES        000000000000 DENSO TEN (THAILAND)                                                                                                                                            *G         20190614 IMCT                IMCT                                                                                                                    WMF1906141.TXT
MAKK96076244201906N3               89828070300P3YK20190628000060SPEAKER ASM                   M IMCTM CM1    TNTH  09020IMKDC KA PTB  00015  K0                0231NES        000000000000 DENSO TEN (THAILAND)                                                                                                                                            *G         20190614 IMCT                IMCT                                                                                                                    WMF1906141.TXT
MAKK96076245201906D3               89828070300P3YK20190628000060SPEAKER ASM                   M IMCTM CM1    TNTH  09020IMKDC KA PTB  00015  K0                1431DES        000000000000 DENSO TEN (THAILAND)                                                                                                                                            *G         20190614 IMCT                IMCT                                                                                                                    WMF1906141.TXT
MAKK96076246201906N3               89828070300P3YK20190629000060SPEAKER ASM                   M IMCTM CM1    TNTH  09020IMKDC KA PTB  00015  K0                0231NES        000000000000 DENSO TEN (THAILAND)                                                                                                                                            *G         20190614 IMCT                IMCT                                                                                                                    WMF1906141.TXT
MAKK96076247201906D3               89831228410P3YK20190625000015RADIO;AM/FM,CD                M IMCTM CM1    TNTH  09020IMKDC KA   CPB00003  K0                1431DES        000000000000 DENSO TEN (THAILAND)                                                                                                                                            *G         20190614 IMCT                IMCT                                                                                                                    WMF1906141.TXT
MAKK96076248201906D3               89831228410P3YK20190627000015RADIO;AM/FM,CD                M IMCTM CM1    TNTH  09020IMKDC KA   CPB00003  K0                1431DES        000000000000 DENSO TEN (THAILAND)                                                                                                                                            *G         20190614 IMCT                IMCT                                                                                                                    WMF1906141.TXT
