REC2019060620190606ISUZU                              9      
MACK96001535201906          IMKDC  89828070100P3YK20190619000018SPEAKER ASM                   M IMCTM IMKDC  TNTH  09020IMKDC KI PTB  00004    K295C1790   001 0000 ES        000000000000 DENSO TEN (THAILAND)                                                                                                                                            *G         20190606 IMCT                IMCT                                                                                                                    WMF1906066.TXT
MACK96001536201906          IMKDC  89828070100P3YK20190621000018SPEAKER ASM                   M IMCTM IMKDC  TNTH  09020IMKDC KI PTB  00004    K295C2060   001 0000 ES        000000000000 DENSO TEN (THAILAND)                                                                                                                                            *G         20190606 IMCT                IMCT                                                                                                                    WMF1906066.TXT
MACK96001537201906          IMKDC  89828070100P3YK20190621000014SPEAKER ASM                   M IMCTM IMKDC  TNTH  09020IMKDC KI PTB  00004    K295C2660   001 0000 ES        000000000000 DENSO TEN (THAILAND)                                                                                                                                            *G         20190606 IMCT                IMCT                                                                                                                    WMF1906066.TXT
MACK96001538201906          IMKDC  89828070200P3YK20190619000018SPEAKER ASM                   M IMCTM IMKDC  TNTH  09020IMKDC KI PTB  00005    K295C1790   001 0000 ES        000000000000 DENSO TEN (THAILAND)                                                                                                                                            *G         20190606 IMCT                IMCT                                                                                                                    WMF1906066.TXT
MACK96001539201906          IMKDC  89828070200P3YK20190621000018SPEAKER ASM                   M IMCTM IMKDC  TNTH  09020IMKDC KI PTB  00005    K295C2060   001 0000 ES        000000000000 DENSO TEN (THAILAND)                                                                                                                                            *G         20190606 IMCT                IMCT                                                                                                                    WMF1906066.TXT
MACK96001540201906          IMKDC  89828070200P3YK20190621000014SPEAKER ASM                   M IMCTM IMKDC  TNTH  09020IMKDC KI PTB  00005    K295C2660   001 0000 ES        000000000000 DENSO TEN (THAILAND)                                                                                                                                            *G         20190606 IMCT                IMCT                                                                                                                    WMF1906066.TXT
MACK96001541201906          IMKDC  89828070300P3YK20190619000018SPEAKER ASM                   M IMCTM IMKDC  TNTH  09020IMKDC KI PTB  00015    K295C1790   001 0000 ES        000000000000 DENSO TEN (THAILAND)                                                                                                                                            *G         20190606 IMCT                IMCT                                                                                                                    WMF1906066.TXT
MACK96001542201906          IMKDC  89828070300P3YK20190621000018SPEAKER ASM                   M IMCTM IMKDC  TNTH  09020IMKDC KI PTB  00015    K295C2060   001 0000 ES        000000000000 DENSO TEN (THAILAND)                                                                                                                                            *G         20190606 IMCT                IMCT                                                                                                                    WMF1906066.TXT
MACK96001543201906          IMKDC  89828070300P3YK20190621000014SPEAKER ASM                   M IMCTM IMKDC  TNTH  09020IMKDC KI PTB  00015    K295C2660   001 0000 ES        000000000000 DENSO TEN (THAILAND)                                                                                                                                            *G         20190606 IMCT                IMCT                                                                                                                    WMF1906066.TXT
