REC2019052820190528ISUZU                              6      
MDD6K5302838201906                D89828070100PV5620190531000120SPEAKER ASM                   M IMCTM G9B114 TNTH  09020G/WAY G9 PTB  00004                    2100 GW        0000000000005DENSO TEN (THAILAND)190MPVG0001001190MRYG0017017                                                                                                                *          20190528 IMCT                IMCT                                                                                                                    WMF1905282.TXT
MDD6K5302839201906                D89828070100PV5620190531000060SPEAKER ASM                   M IMCTM G9B114 TNTH  09020G/WAY G9 PTB  00004                    2300 GW        0000000000005DENSO TEN (THAILAND)190MRYG0018018                                                                                                                              *          20190528 IMCT                IMCT                                                                                                                    WMF1905282.TXT
MDD6K5302840201906                D89828070200PV5620190531000060SPEAKER ASM                   M IMCTM G6F132 TNTH  09020G/WAY G6 PTB  00005                    2100 GW        0000000000005DENSO TEN (THAILAND)190MRYG0017017                                                                                                                              *          20190528 IMCT                IMCT                                                                                                                    WMF1905282.TXT
MDD6K5302841201906                D89828070200PV5620190531000060SPEAKER ASM                   M IMCTM G6F132 TNTH  09020G/WAY G6 PTB  00005                    2300 GW        0000000000005DENSO TEN (THAILAND)190MRYG0018018                                                                                                                              *          20190528 IMCT                IMCT                                                                                                                    WMF1905282.TXT
MDD6K5302842201906                D89828070300PT5620190531000120SPEAKER ASM                   M IMCTM G9JA33 TNTH  09020G/WAY G9 PTB  00015                    2100 GW        0000000000005DENSO TEN (THAILAND)190MPVG0001001190MRYG0017017                                                                                                                *          20190528 IMCT                IMCT                                                                                                                    WMF1905282.TXT
MDD6K5302843201906                D89828070300PT5620190531000060SPEAKER ASM                   M IMCTM G9JA33 TNTH  09020G/WAY G9 PTB  00015                    2300 GW        0000000000005DENSO TEN (THAILAND)190MRYG0018018                                                                                                                              *          20190528 IMCT                IMCT                                                                                                                    WMF1905282.TXT
