REC2019060120190601ISUZU                              8      
MDEFK6T00898201906                D89828070100PV4F20190606000028SPEAKER ASM                   M IMCTM S7FL05 TNTH  09020IMCT  S7 PTB  00004                    1600 SR        000000000000 DENSO TEN (THAILAND)190J34R0043   190G72R0023   D190601402    D190601415    000000                                                                              *R         20190601 IMCT                IMCT                                                                                                                    RMF1906012.TXT
MDEFK6T00899201906                D89828070200PV4F20190606000007SPEAKER ASM                   M IMCTM S7FL05 TNTH  09020IMCT  S7 PTB  00005                    1600 SR        000000000000 DENSO TEN (THAILAND)190G72R0020   190G72R0023   D190601412    D190601415    000000                                                                              *R         20190601 IMCT                IMCT                                                                                                                    RMF1906012.TXT
MDEFK6T00900201906                D89828070300PT4F20190606000007SPEAKER ASM                   M IMCTM S7TS02 TNTH  09020IMCT  S7 PTB  00015                    1600 SR        000000000000 DENSO TEN (THAILAND)190G72R0020   190G72R0023   D190601412    D190601415    000000                                                                              *R         20190601 IMCT                IMCT                                                                                                                    RMF1906012.TXT
MDEFK6T00901201906                D89831228400PT4F20190606000006RADIO;AM/FM,CD                M IMCTM S7TS03 TNTH  09020IMCT  S7 CPB  00003                    0400 SR        000000000000 DENSO TEN (THAILAND)190G62R0017   190G62R0022   C190601306    C190601311    000000                                                                              *R         20190601 IMCT                IMCT                                                                                                                    RMF1906012.TXT
MDEFK6200363201906                D89828070100PV4F20190606000008SPEAKER ASM                   M IMCTM S7FL05 TNTH  09020IMCT  S7 PTB  00004                    0230 SR        000000000000 DENSO TEN (THAILAND)17053RR0021   17053RR0024   C190601301    C190601304    000000                                                                              *R         20190601 IMCT                IMCT                                                                                                                    RMF1906012.TXT
MDEFK6200364201906                D89828070100PV4F20190606000024SPEAKER ASM                   M IMCTM S7FL05 TNTH  09020IMCT  S7 PTB  00004                    0400 SR        000000000000 DENSO TEN (THAILAND)17053RR0025   190J33R0013   C190601305    D190601401    000000                                                                              *R         20190601 IMCT                IMCT                                                                                                                    RMF1906012.TXT
MDEFK6200365201906                D89828070200PV4F20190606000015SPEAKER ASM                   M IMCTM S7FL05 TNTH  09020IMCT  S7 PTB  00005                    0400 SR        000000000000 DENSO TEN (THAILAND)190G62R0017   190G72R0020   C190601306    D190601412    000000                                                                              *R         20190601 IMCT                IMCT                                                                                                                    RMF1906012.TXT
MDEFK6200366201906                D89828070300PT4F20190606000015SPEAKER ASM                   M IMCTM S7TS02 TNTH  09020IMCT  S7 PTB  00015                    0400 SR        000000000000 DENSO TEN (THAILAND)190G62R0017   190G72R0020   C190601306    D190601412    000000                                                                              *R         20190601 IMCT                IMCT                                                                                                                    RMF1906012.TXT
