REC2019062420190624ISUZU                              55     
MDDDK6365891201906                D89821984430PT1D20190627000060RADIO;AM/FM,CD                M IMCTM S5NC06 TNTH  09020IMCT  S5 PTB  00005                    2230 SR        000000000000 DENSO TEN (THAILAND)190MRAL0149149190MXCL0071071                                                                                                                *          20190624 IMCT                IMCT                                                                                                                    WMF1906242.TXT
MDDDK6365892201906                D89821984430PT1D20190628000030RADIO;AM/FM,CD                M IMCTM S5NC06 TNTH  09020IMCT  S5 PTB  00005                    0400 SR        000000000000 DENSO TEN (THAILAND)190MYAL0219219                                                                                                                              *          20190624 IMCT                IMCT                                                                                                                    WMF1906242.TXT
MDDDK6365893201906                D89821984430PT1D20190628000030RADIO;AM/FM,CD                M IMCTM S5NC06 TNTH  09020IMCT  S5 PTB  00005                    1600 SR        000000000000 DENSO TEN (THAILAND)190MYAL0220220                                                                                                                              *          20190624 IMCT                IMCT                                                                                                                    WMF1906242.TXT
MDDDK6365894201906                D89821984430PT1D20190628000030RADIO;AM/FM,CD                M IMCTM S5NC06 TNTH  09020IMCT  S5 PTB  00005                    2100 SR        000000000000 DENSO TEN (THAILAND)190MXEL0084084                                                                                                                              *          20190624 IMCT                IMCT                                                                                                                    WMF1906242.TXT
MDDDK6365895201906                D89828070100PV1D20190627000120SPEAKER ASM                   M IMCTM S5MB11 TNTH  09020IMCT  S5 PTB  00004                    2230 SR        000000000000 DENSO TEN (THAILAND)190MRAL0149149190MXCL0071071                                                                                                                *          20190624 IMCT                IMCT                                                                                                                    WMF1906242.TXT
MDDDK6365896201906                D89828070100PV1D20190628000060SPEAKER ASM                   M IMCTM S5MB11 TNTH  09020IMCT  S5 PTB  00004                    0230 SR        000000000000 DENSO TEN (THAILAND)190MRTL0044044                                                                                                                              *          20190624 IMCT                IMCT                                                                                                                    WMF1906242.TXT
MDDDK6365897201906                D89828070100PV1D20190628000120SPEAKER ASM                   M IMCTM S5MB11 TNTH  09020IMCT  S5 PTB  00004                    0400 SR        000000000000 DENSO TEN (THAILAND)190MPQL0034034190MYAL0219219                                                                                                                *          20190624 IMCT                IMCT                                                                                                                    WMF1906242.TXT
MDDDK6365898201906                D89828070100PV1D20190628000060SPEAKER ASM                   M IMCTM S5MB11 TNTH  09020IMCT  S5 PTB  00004                    0830 SR        000000000000 DENSO TEN (THAILAND)190MPGL0201201                                                                                                                              *          20190624 IMCT                IMCT                                                                                                                    WMF1906242.TXT
MDDDK6365899201906                D89828070100PV1D20190628000060SPEAKER ASM                   M IMCTM S5MB11 TNTH  09020IMCT  S5 PTB  00004                    1300 SR        000000000000 DENSO TEN (THAILAND)190MXBL0023023                                                                                                                              *          20190624 IMCT                IMCT                                                                                                                    WMF1906242.TXT
MDDDK6365900201906                D89828070100PV1D20190628000120SPEAKER ASM                   M IMCTM S5MB11 TNTH  09020IMCT  S5 PTB  00004                    1600 SR        000000000000 DENSO TEN (THAILAND)190MRVL0020020190MYAL0220220                                                                                                                *          20190624 IMCT                IMCT                                                                                                                    WMF1906242.TXT
MDDDK6365901201906                D89828070100PV1D20190628000060SPEAKER ASM                   M IMCTM S5MB11 TNTH  09020IMCT  S5 PTB  00004                    2100 SR        000000000000 DENSO TEN (THAILAND)190MXEL0084084                                                                                                                              *          20190624 IMCT                IMCT                                                                                                                    WMF1906242.TXT
MDDDK6365902201906                D89828070100PV4D20190628000060SPEAKER ASM                   M IMCTM S0FL05 TNTH  09020IMCT  S0 PTB  00004                    0230 SR        000000000000 DENSO TEN (THAILAND)190MRWU0058058                                                                                                                              *          20190624 IMCT                IMCT                                                                                                                    WMF1906242.TXT
MDDDK6365903201906                D89828070200PV1D20190628000060SPEAKER ASM                   M IMCTM S5MA14 TNTH  09020IMCT  S5 PTB  00005                    0230 SR        000000000000 DENSO TEN (THAILAND)190MRTL0044044                                                                                                                              *          20190624 IMCT                IMCT                                                                                                                    WMF1906242.TXT
MDDDK6365904201906                D89828070200PV1D20190628000060SPEAKER ASM                   M IMCTM S5MA14 TNTH  09020IMCT  S5 PTB  00005                    1600 SR        000000000000 DENSO TEN (THAILAND)190MRVL0020020                                                                                                                              *          20190624 IMCT                IMCT                                                                                                                    WMF1906242.TXT
MDDDK6365905201906                D89828070200PV4D20190628000060SPEAKER ASM                   M IMCTM S0FR05 TNTH  09020IMCT  S0 PTB  00005                    0230 SR        000000000000 DENSO TEN (THAILAND)190MRWU0058058                                                                                                                              *          20190624 IMCT                IMCT                                                                                                                    WMF1906242.TXT
MDDDK6365906201906                D89828070300PT1D20190628000060SPEAKER ASM                   M IMCTM S5NB082TNTH  09020IMCT  S5 PTB  00015                    0230 SR        000000000000 DENSO TEN (THAILAND)190MRTL0044044                                                                                                                              *          20190624 IMCT                IMCT                                                                                                                    WMF1906242.TXT
MDDDK6365907201906                D89828070300PT1D20190628000060SPEAKER ASM                   M IMCTM S5NB082TNTH  09020IMCT  S5 PTB  00015                    0400 SR        000000000000 DENSO TEN (THAILAND)190MPQL0034034                                                                                                                              *          20190624 IMCT                IMCT                                                                                                                    WMF1906242.TXT
MDDDK6365908201906                D89828070300PT1D20190628000060SPEAKER ASM                   M IMCTM S5NB082TNTH  09020IMCT  S5 PTB  00015                    0830 SR        000000000000 DENSO TEN (THAILAND)190MPGL0201201                                                                                                                              *          20190624 IMCT                IMCT                                                                                                                    WMF1906242.TXT
MDDDK6365909201906                D89828070300PT1D20190628000060SPEAKER ASM                   M IMCTM S5NB082TNTH  09020IMCT  S5 PTB  00015                    1600 SR        000000000000 DENSO TEN (THAILAND)190MRVL0020020                                                                                                                              *          20190624 IMCT                IMCT                                                                                                                    WMF1906242.TXT
MDDDK6365910201906                D89828070300PT4D20190628000060SPEAKER ASM                   M IMCTM S9TS02 TNTH  09020IMCT  S9 PTB  00015                    0230 SR        000000000000 DENSO TEN (THAILAND)190MRWU0058058                                                                                                                              *          20190624 IMCT                IMCT                                                                                                                    WMF1906242.TXT
MDDDK6365911201906                D89831228310PT1D20190628000030RADIO;AM/FM,CD                M IMCTM S55000 TNTH  09020IMCT  S5 CPB  00003                    0830 SR        000000000000 DENSO TEN (THAILAND)190MPGL0201201                                                                                                                              *          20190624 IMCT                IMCT                                                                                                                    WMF1906242.TXT
MDDDK6365912201906                D89848581500PT1D20190628000030RADIO;AM/FM CD D              M IMCTM S5NC06 TNTH  09020IMCT  S5 PTB  00003                    0230 SR        000000000000 DENSO TEN (THAILAND)190MRTL0044044                                                                                                                              *          20190624 IMCT                IMCT                                                                                                                    WMF1906242.TXT
MDDDK6365913201906                D89848581600PT1D20190628000030RADIO;AM/FM CD D              M IMCTM S5NC06 TNTH  09020IMCT  S5 PTB  00003                    0400 SR        000000000000 DENSO TEN (THAILAND)190MPQL0034034                                                                                                                              *          20190624 IMCT                IMCT                                                                                                                    WMF1906242.TXT
MDDUK6241269201906                D89828070100PT4U20190628000030SPEAKER ASM                   M IMCTM S0FL05 TNTH  09020IMCT  S0 PTB  00004                    1030 SR        000000000000 DENSO TEN (THAILAND)190MUEU0181181                                                                                                                              *          20190624 IMCT                IMCT                                                                                                                    WMF1906242.TXT
MDDUK6241270201906                D89828070100PT4U20190628000030SPEAKER ASM                   M IMCTM S0FL05 TNTH  09020IMCT  S0 PTB  00004                    1600 SR        000000000000 DENSO TEN (THAILAND)190MUEU0182182                                                                                                                              *          20190624 IMCT                IMCT                                                                                                                    WMF1906242.TXT
MDDUK6241271201906                D89828070200PV4U20190628000030SPEAKER ASM                   M IMCTM S0FR05 TNTH  09020IMCT  S0 PTB  00005                    1030 SR        000000000000 DENSO TEN (THAILAND)190MUEU0181181                                                                                                                              *          20190624 IMCT                IMCT                                                                                                                    WMF1906242.TXT
MDDUK6241272201906                D89828070200PV4U20190628000030SPEAKER ASM                   M IMCTM S0FR05 TNTH  09020IMCT  S0 PTB  00005                    1600 SR        000000000000 DENSO TEN (THAILAND)190MUEU0182182                                                                                                                              *          20190624 IMCT                IMCT                                                                                                                    WMF1906242.TXT
MDDUK6241273201906                D89828070300PT4U20190628000030SPEAKER ASM                   M IMCTM S9TS02 TNTH  09020IMCT  S9 PTB  00015                    1030 SR        000000000000 DENSO TEN (THAILAND)190MUEU0181181                                                                                                                              *          20190624 IMCT                IMCT                                                                                                                    WMF1906242.TXT
MDDUK6241274201906                D89828070300PT4U20190628000030SPEAKER ASM                   M IMCTM S9TS02 TNTH  09020IMCT  S9 PTB  00015                    1600 SR        000000000000 DENSO TEN (THAILAND)190MUEU0182182                                                                                                                              *          20190624 IMCT                IMCT                                                                                                                    WMF1906242.TXT
MDEDK6307029201906                D89828070100PV1D20190628000030SPEAKER ASM                   M IMCTM S5MB11 TNTH  09020IMCT  S5 PTB  00004                    0400 SR        000000000000 DENSO TEN (THAILAND)190J85L0029029                                                                                                                              *          20190624 IMCT                IMCT                                                                                                                    WMF1906242.TXT
MDEDK6307030201906                D89828070100PV1D20190628000030SPEAKER ASM                   M IMCTM S5MB11 TNTH  09020IMCT  S5 PTB  00004                    1030 SR        000000000000 DENSO TEN (THAILAND)190J81L0112112                                                                                                                              *          20190624 IMCT                IMCT                                                                                                                    WMF1906242.TXT
MDEDK6307031201906                D89828070100PV1D20190628000120SPEAKER ASM                   M IMCTM S5MB11 TNTH  09020IMCT  S5 PTB  00004                    1300 SR        000000000000 DENSO TEN (THAILAND)190J31L0018018190J81L0113113190J94L0135136                                                                                                  *          20190624 IMCT                IMCT                                                                                                                    WMF1906242.TXT
MDEDK6307032201906                D89828070100PV4D20190627000030SPEAKER ASM                   M IMCTM S0FL05 TNTH  09020IMCT  S0 PTB  00004                    2230 SR        000000000000 DENSO TEN (THAILAND)190J32U0012012                                                                                                                              *          20190624 IMCT                IMCT                                                                                                                    WMF1906242.TXT
MDEDK6307033201906                D89828070100PV4D20190628000030SPEAKER ASM                   M IMCTM S0FL05 TNTH  09020IMCT  S0 PTB  00004                    0830 SR        000000000000 DENSO TEN (THAILAND)190G21U0022022                                                                                                                              *          20190624 IMCT                IMCT                                                                                                                    WMF1906242.TXT
MDEDK6307034201906                D89828070100PV4D20190628000030SPEAKER ASM                   M IMCTM S0FL05 TNTH  09020IMCT  S0 PTB  00004                    1300 SR        000000000000 DENSO TEN (THAILAND)190K21U0072072                                                                                                                              *          20190624 IMCT                IMCT                                                                                                                    WMF1906242.TXT
MDEDK6307035201906                D89828070100PV4D20190628000030SPEAKER ASM                   M IMCTM S0FL05 TNTH  09020IMCT  S0 PTB  00004                    1600 SR        000000000000 DENSO TEN (THAILAND)190L38U0002002                                                                                                                              *          20190624 IMCT                IMCT                                                                                                                    WMF1906242.TXT
MDEDK6307036201906                D89828070100PV4D20190628000030SPEAKER ASM                   M IMCTM S0FL05 TNTH  09020IMCT  S0 PTB  00004                    2100 SR        000000000000 DENSO TEN (THAILAND)190K21U0073073                                                                                                                              *          20190624 IMCT                IMCT                                                                                                                    WMF1906242.TXT
MDEDK6307037201906                D89828070200PV4D20190628000030SPEAKER ASM                   M IMCTM S0FR05 TNTH  09020IMCT  S0 PTB  00005                    0830 SR        000000000000 DENSO TEN (THAILAND)190G21U0022022                                                                                                                              *          20190624 IMCT                IMCT                                                                                                                    WMF1906242.TXT
MDEDK6307038201906                D89828070200PV4D20190628000030SPEAKER ASM                   M IMCTM S0FR05 TNTH  09020IMCT  S0 PTB  00005                    1300 SR        000000000000 DENSO TEN (THAILAND)190K21U0072072                                                                                                                              *          20190624 IMCT                IMCT                                                                                                                    WMF1906242.TXT
MDEDK6307039201906                D89828070200PV4D20190628000030SPEAKER ASM                   M IMCTM S0FR05 TNTH  09020IMCT  S0 PTB  00005                    2100 SR        000000000000 DENSO TEN (THAILAND)190K21U0073073                                                                                                                              *          20190624 IMCT                IMCT                                                                                                                    WMF1906242.TXT
MDEDK6307040201906                D89828070300PT4D20190627000030SPEAKER ASM                   M IMCTM S9TS02 TNTH  09020IMCT  S9 PTB  00015                    2230 SR        000000000000 DENSO TEN (THAILAND)190J32U0012012                                                                                                                              *          20190624 IMCT                IMCT                                                                                                                    WMF1906242.TXT
MDEDK6307041201906                D89828070300PT4D20190628000030SPEAKER ASM                   M IMCTM S9TS02 TNTH  09020IMCT  S9 PTB  00015                    0830 SR        000000000000 DENSO TEN (THAILAND)190G21U0022022                                                                                                                              *          20190624 IMCT                IMCT                                                                                                                    WMF1906242.TXT
MDEDK6307042201906                D89828070300PT4D20190628000030SPEAKER ASM                   M IMCTM S9TS02 TNTH  09020IMCT  S9 PTB  00015                    1300 SR        000000000000 DENSO TEN (THAILAND)190K21U0072072                                                                                                                              *          20190624 IMCT                IMCT                                                                                                                    WMF1906242.TXT
MDEDK6307043201906                D89828070300PT4D20190628000030SPEAKER ASM                   M IMCTM S9TS02 TNTH  09020IMCT  S9 PTB  00015                    2100 SR        000000000000 DENSO TEN (THAILAND)190K21U0073073                                                                                                                              *          20190624 IMCT                IMCT                                                                                                                    WMF1906242.TXT
MDEDK6307044201906                D89838031200PT4D20190628000015RADIO;ASM DVD                 M IMCTM S9CO001TNTH  09020IMCT  S9 PTB  00003                    1300 SR        000000000000 DENSO TEN (THAILAND)190K21U0072072                                                                                                                              *          20190624 IMCT                IMCT                                                                                                                    WMF1906242.TXT
MDEDK6307045201906                D89838031200PT4D20190628000015RADIO;ASM DVD                 M IMCTM S9CO001TNTH  09020IMCT  S9 PTB  00003                    2100 SR        000000000000 DENSO TEN (THAILAND)190K21U0073073                                                                                                                              *          20190624 IMCT                IMCT                                                                                                                    WMF1906242.TXT
MDEUK6238788201906                D89828070100PT4U20190628000030SPEAKER ASM                   M IMCTM S0FL05 TNTH  09020IMCT  S0 PTB  00004                    0230 SR        000000000000 DENSO TEN (THAILAND)190G32U0123123                                                                                                                              *          20190624 IMCT                IMCT                                                                                                                    WMF1906242.TXT
MDEUK6238789201906                D89828070100PT4U20190628000030SPEAKER ASM                   M IMCTM S0FL05 TNTH  09020IMCT  S0 PTB  00004                    0400 SR        000000000000 DENSO TEN (THAILAND)190G32U0124124                                                                                                                              *          20190624 IMCT                IMCT                                                                                                                    WMF1906242.TXT
MDEUK6238790201906                D89828070100PT4U20190628000030SPEAKER ASM                   M IMCTM S0FL05 TNTH  09020IMCT  S0 PTB  00004                    2230 SR        000000000000 DENSO TEN (THAILAND)190G25U0035035                                                                                                                              *          20190624 IMCT                IMCT                                                                                                                    WMF1906242.TXT
MDEUK6238791201906                D89828070200PV4U20190628000030SPEAKER ASM                   M IMCTM S0FR05 TNTH  09020IMCT  S0 PTB  00005                    0230 SR        000000000000 DENSO TEN (THAILAND)190G32U0123123                                                                                                                              *          20190624 IMCT                IMCT                                                                                                                    WMF1906242.TXT
MDEUK6238792201906                D89828070200PV4U20190628000030SPEAKER ASM                   M IMCTM S0FR05 TNTH  09020IMCT  S0 PTB  00005                    0400 SR        000000000000 DENSO TEN (THAILAND)190G32U0124124                                                                                                                              *          20190624 IMCT                IMCT                                                                                                                    WMF1906242.TXT
MDEUK6238793201906                D89828070200PV4U20190628000030SPEAKER ASM                   M IMCTM S0FR05 TNTH  09020IMCT  S0 PTB  00005                    2230 SR        000000000000 DENSO TEN (THAILAND)190G25U0035035                                                                                                                              *          20190624 IMCT                IMCT                                                                                                                    WMF1906242.TXT
MDEUK6238794201906                D89828070300PT4U20190628000030SPEAKER ASM                   M IMCTM S9TS02 TNTH  09020IMCT  S9 PTB  00015                    0230 SR        000000000000 DENSO TEN (THAILAND)190G32U0123123                                                                                                                              *          20190624 IMCT                IMCT                                                                                                                    WMF1906242.TXT
MDEUK6238795201906                D89828070300PT4U20190628000030SPEAKER ASM                   M IMCTM S9TS02 TNTH  09020IMCT  S9 PTB  00015                    0400 SR        000000000000 DENSO TEN (THAILAND)190G32U0124124                                                                                                                              *          20190624 IMCT                IMCT                                                                                                                    WMF1906242.TXT
MDEUK6238796201906                D89828070300PT4U20190628000030SPEAKER ASM                   M IMCTM S9TS02 TNTH  09020IMCT  S9 PTB  00015                    2230 SR        000000000000 DENSO TEN (THAILAND)190G25U0035035                                                                                                                              *          20190624 IMCT                IMCT                                                                                                                    WMF1906242.TXT
