REC2019061820190618ISUZU                              4      
MDEFK6T15765201906                D89828070100PV4F20190622000030SPEAKER ASM                   M IMCTM S7FL05 TNTH  09020IMCT  S7 PTB  00004                    1600 SR        000000000000 DENSO TEN (THAILAND)18086ZR0017   18087ZR0020   D190604101    D190604115    000000                                                                              *R         20190618 IMCT                IMCT                                                                                                                    RMF1906184.TXT
MDEFK6T15766201906                D89828070200PV4F20190622000020SPEAKER ASM                   M IMCTM S7FL05 TNTH  09020IMCT  S7 PTB  00005                    1600 SR        000000000000 DENSO TEN (THAILAND)18086ZR0017   18087ZR0020   D190604101    D190604115    000000                                                                              *R         20190618 IMCT                IMCT                                                                                                                    RMF1906184.TXT
MDEFK6T15767201906                D89828070300PT4F20190622000020SPEAKER ASM                   M IMCTM S7TS02 TNTH  09020IMCT  S7 PTB  00015                    1600 SR        000000000000 DENSO TEN (THAILAND)18086ZR0017   18087ZR0020   D190604101    D190604115    000000                                                                              *R         20190618 IMCT                IMCT                                                                                                                    RMF1906184.TXT
MDEFK6T15768201906                D89848582100PT4F20190622000003RADIO;AM/FM CD D              M IMCTM S7TS01 TNTH  09020IMCT  S7 PTB  00003                    1600 SR        000000000000 DENSO TEN (THAILAND)190H27R0013   190H27R0015   D190604103    D190604105    000000                                                                              *R         20190618 IMCT                IMCT                                                                                                                    RMF1906184.TXT
