REC2019061220190612ISUZU                              5      
MDEFK6T11314201906                D89828070100PV4F20190616000022SPEAKER ASM                   M IMCTM S7FL05 TNTH  09020IMCT  S7 PTB  00004                    0400 SR        000000000000 DENSO TEN (THAILAND)190D08R0042   190K79R0017   D190603505    D190603515    000000                                                                              *R         20190612 IMCT                IMCT                                                                                                                    RMF1906124.TXT
MDEFK6T11315201906                D89828070200PV4F20190616000002SPEAKER ASM                   M IMCTM S7FL05 TNTH  09020IMCT  S7 PTB  00005                    0400 SR        000000000000 DENSO TEN (THAILAND)190K19R0048   190K19R0048   D190603512    D190603512    000000                                                                              *R         20190612 IMCT                IMCT                                                                                                                    RMF1906124.TXT
MDEFK6T11316201906                D89828070300PT4F20190616000002SPEAKER ASM                   M IMCTM S7TS02 TNTH  09020IMCT  S7 PTB  00015                    0400 SR        000000000000 DENSO TEN (THAILAND)190K19R0048   190K19R0048   D190603512    D190603512    000000                                                                              *R         20190612 IMCT                IMCT                                                                                                                    RMF1906124.TXT
MDEFK6T11317201906                D89838031200PT4F20190616000001RADIO;ASM DVD                 M IMCTM S7TS03 TNTH  09020IMCT  S7 PTB  00003                    0400 SR        000000000000 DENSO TEN (THAILAND)190K19R0048   190K19R0048   D190603512    D190603512    000000                                                                              *R         20190612 IMCT                IMCT                                                                                                                    RMF1906124.TXT
MDEFK6227581201906                D89828070100PV4F20190616000008SPEAKER ASM                   M IMCTM S7FL05 TNTH  09020IMCT  S7 PTB  00004                    0230 SR        000000000000 DENSO TEN (THAILAND)190D08R0038   190D08R0041   D190603501    D190603504    000000                                                                              *R         20190612 IMCT                IMCT                                                                                                                    RMF1906124.TXT
