REC2019071820190718ISUZU                              26     
MAKK97093083201907D3               89825451200P3YK20190730000030SPEAKER ASM;ROOF              M IMCTM CM1    TNTH  09020IMKDC KA PTB  00036  K0                1431DES        000000000000 DENSO TEN (THAILAND)                                                                                                                                            *G         20190718 IMCT                IMCT                                                                                                                    WMF1907188.TXT
MAKK97093084201907N3               89825451200P3YK20190801000030SPEAKER ASM;ROOF              M IMCTM CM1    TNTH  09020IMKDC KA PTB  00036  K0                0231NES        000000000000 DENSO TEN (THAILAND)                                                                                                                                            *G         20190718 IMCT                IMCT                                                                                                                    WMF1907188.TXT
MAKK97093085201907D3               89825451200P3YK20190802000030SPEAKER ASM;ROOF              M IMCTM CM1    TNTH  09020IMKDC KA PTB  00036  K0                1431DES        000000000000 DENSO TEN (THAILAND)                                                                                                                                            *G         20190718 IMCT                IMCT                                                                                                                    WMF1907188.TXT
MAKK97093086201907D3               89828070100P3YK20190730000090SPEAKER ASM                   M IMCTM CM1    TNTH  09020IMKDC KA PTB  00004  K0                1431DES        000000000000 DENSO TEN (THAILAND)                                                                                                                                            *G         20190718 IMCT                IMCT                                                                                                                    WMF1907188.TXT
MAKK97093087201907N3               89828070100P3YK20190731000090SPEAKER ASM                   M IMCTM CM1    TNTH  09020IMKDC KA PTB  00004  K0                0231NES        000000000000 DENSO TEN (THAILAND)                                                                                                                                            *G         20190718 IMCT                IMCT                                                                                                                    WMF1907188.TXT
MAKK97093088201907D3               89828070100P3YK20190731000060SPEAKER ASM                   M IMCTM CM1    TNTH  09020IMKDC KA PTB  00004  K0                1431DES        000000000000 DENSO TEN (THAILAND)                                                                                                                                            *G         20190718 IMCT                IMCT                                                                                                                    WMF1907188.TXT
MAKK97093089201907N3               89828070100P3YK20190801000060SPEAKER ASM                   M IMCTM CM1    TNTH  09020IMKDC KA PTB  00004  K0                0231NES        000000000000 DENSO TEN (THAILAND)                                                                                                                                            *G         20190718 IMCT                IMCT                                                                                                                    WMF1907188.TXT
MAKK97093090201907D3               89828070100P3YK20190801000060SPEAKER ASM                   M IMCTM CM1    TNTH  09020IMKDC KA PTB  00004  K0                1431DES        000000000000 DENSO TEN (THAILAND)                                                                                                                                            *G         20190718 IMCT                IMCT                                                                                                                    WMF1907188.TXT
MAKK97093091201907N3               89828070100P3YK20190802000090SPEAKER ASM                   M IMCTM CM1    TNTH  09020IMKDC KA PTB  00004  K0                0231NES        000000000000 DENSO TEN (THAILAND)                                                                                                                                            *G         20190718 IMCT                IMCT                                                                                                                    WMF1907188.TXT
MAKK97093092201907D3               89828070100P3YK20190802000090SPEAKER ASM                   M IMCTM CM1    TNTH  09020IMKDC KA PTB  00004  K0                1431DES        000000000000 DENSO TEN (THAILAND)                                                                                                                                            *G         20190718 IMCT                IMCT                                                                                                                    WMF1907188.TXT
MAKK97093093201907N3               89828070100P3YK20190803000090SPEAKER ASM                   M IMCTM CM1    TNTH  09020IMKDC KA PTB  00004  K0                0231NES        000000000000 DENSO TEN (THAILAND)                                                                                                                                            *G         20190718 IMCT                IMCT                                                                                                                    WMF1907188.TXT
MAKK97093094201907D3               89828070200P3YK20190730000060SPEAKER ASM                   M IMCTM CM1    TNTH  09020IMKDC KA PTB  00005  K0                1431DES        000000000000 DENSO TEN (THAILAND)                                                                                                                                            *G         20190718 IMCT                IMCT                                                                                                                    WMF1907188.TXT
MAKK97093095201907N3               89828070200P3YK20190731000030SPEAKER ASM                   M IMCTM CM1    TNTH  09020IMKDC KA PTB  00005  K0                0231NES        000000000000 DENSO TEN (THAILAND)                                                                                                                                            *G         20190718 IMCT                IMCT                                                                                                                    WMF1907188.TXT
MAKK97093096201907D3               89828070200P3YK20190731000030SPEAKER ASM                   M IMCTM CM1    TNTH  09020IMKDC KA PTB  00005  K0                1431DES        000000000000 DENSO TEN (THAILAND)                                                                                                                                            *G         20190718 IMCT                IMCT                                                                                                                    WMF1907188.TXT
MAKK97093097201907N3               89828070200P3YK20190801000030SPEAKER ASM                   M IMCTM CM1    TNTH  09020IMKDC KA PTB  00005  K0                0231NES        000000000000 DENSO TEN (THAILAND)                                                                                                                                            *G         20190718 IMCT                IMCT                                                                                                                    WMF1907188.TXT
MAKK97093098201907N3               89828070200P3YK20190802000060SPEAKER ASM                   M IMCTM CM1    TNTH  09020IMKDC KA PTB  00005  K0                0231NES        000000000000 DENSO TEN (THAILAND)                                                                                                                                            *G         20190718 IMCT                IMCT                                                                                                                    WMF1907188.TXT
MAKK97093099201907D3               89828070200P3YK20190802000030SPEAKER ASM                   M IMCTM CM1    TNTH  09020IMKDC KA PTB  00005  K0                1431DES        000000000000 DENSO TEN (THAILAND)                                                                                                                                            *G         20190718 IMCT                IMCT                                                                                                                    WMF1907188.TXT
MAKK97093100201907N3               89828070200P3YK20190803000030SPEAKER ASM                   M IMCTM CM1    TNTH  09020IMKDC KA PTB  00005  K0                0231NES        000000000000 DENSO TEN (THAILAND)                                                                                                                                            *G         20190718 IMCT                IMCT                                                                                                                    WMF1907188.TXT
MAKK97093101201907D3               89828070300P3YK20190730000060SPEAKER ASM                   M IMCTM CM1    TNTH  09020IMKDC KA PTB  00015  K0                1431DES        000000000000 DENSO TEN (THAILAND)                                                                                                                                            *G         20190718 IMCT                IMCT                                                                                                                    WMF1907188.TXT
MAKK97093102201907N3               89828070300P3YK20190731000030SPEAKER ASM                   M IMCTM CM1    TNTH  09020IMKDC KA PTB  00015  K0                0231NES        000000000000 DENSO TEN (THAILAND)                                                                                                                                            *G         20190718 IMCT                IMCT                                                                                                                    WMF1907188.TXT
MAKK97093103201907D3               89828070300P3YK20190731000030SPEAKER ASM                   M IMCTM CM1    TNTH  09020IMKDC KA PTB  00015  K0                1431DES        000000000000 DENSO TEN (THAILAND)                                                                                                                                            *G         20190718 IMCT                IMCT                                                                                                                    WMF1907188.TXT
MAKK97093104201907N3               89828070300P3YK20190801000030SPEAKER ASM                   M IMCTM CM1    TNTH  09020IMKDC KA PTB  00015  K0                0231NES        000000000000 DENSO TEN (THAILAND)                                                                                                                                            *G         20190718 IMCT                IMCT                                                                                                                    WMF1907188.TXT
MAKK97093105201907N3               89828070300P3YK20190802000060SPEAKER ASM                   M IMCTM CM1    TNTH  09020IMKDC KA PTB  00015  K0                0231NES        000000000000 DENSO TEN (THAILAND)                                                                                                                                            *G         20190718 IMCT                IMCT                                                                                                                    WMF1907188.TXT
MAKK97093106201907D3               89828070300P3YK20190802000030SPEAKER ASM                   M IMCTM CM1    TNTH  09020IMKDC KA PTB  00015  K0                1431DES        000000000000 DENSO TEN (THAILAND)                                                                                                                                            *G         20190718 IMCT                IMCT                                                                                                                    WMF1907188.TXT
MAKK97093107201907N3               89828070300P3YK20190803000060SPEAKER ASM                   M IMCTM CM1    TNTH  09020IMKDC KA PTB  00015  K0                0231NES        000000000000 DENSO TEN (THAILAND)                                                                                                                                            *G         20190718 IMCT                IMCT                                                                                                                    WMF1907188.TXT
MAKK97093108201907D3               89831228410P3YK20190731000015RADIO;AM/FM,CD                M IMCTM CM1    TNTH  09020IMKDC KA   CPB00003  K0                1431DES        000000000000 DENSO TEN (THAILAND)                                                                                                                                            *G         20190718 IMCT                IMCT                                                                                                                    WMF1907188.TXT
