REC2019072620190726ISUZU                              13     
MDEBK7T01569201908                D89750293000PT4B20190801000003RADIO;AM/FM CD D              M IMCTM S7TS01 TNTH  09020IMCT  S7 PTB  00003                    1600 SR        000000000000 DENSO TEN (THAILAND)190F83R0001   190F83R0003   Y190800401    Y190800403    000000                                                                              *R         20190726 IMCT                IMCT                                                                                                                    RMF1907267.TXT
MDEBK7T01570201908                D89828070100PT4B20190801000030SPEAKER ASM                   M IMCTM S7FL05 TNTH  09020IMCT  S7 PTB  00004                    1600 SR        000000000000 DENSO TEN (THAILAND)190F83R0001   190L44R0020   Y190800401    Y190800415    000000                                                                              *R         20190726 IMCT                IMCT                                                                                                                    RMF1907267.TXT
MDEBK7T01571201908                D89828070200PV4B20190801000030SPEAKER ASM                   M IMCTM S7FL05 TNTH  09020IMCT  S7 PTB  00005                    1600 SR        000000000000 DENSO TEN (THAILAND)190F83R0001   190L44R0020   Y190800401    Y190800415    000000                                                                              *R         20190726 IMCT                IMCT                                                                                                                    RMF1907267.TXT
MDEBK7T01572201908                D89828070300PT4B20190801000030SPEAKER ASM                   M IMCTM S7TS02 TNTH  09020IMCT  S7 PTB  00015                    1600 SR        000000000000 DENSO TEN (THAILAND)190F83R0001   190L44R0020   Y190800401    Y190800415    000000                                                                              *R         20190726 IMCT                IMCT                                                                                                                    RMF1907267.TXT
MDEFK7T18302201908                D89828070100PV4F20190801000012SPEAKER ASM                   M IMCTM S7FL05 TNTH  09020IMCT  S7 PTB  00004                    1030 SR        000000000000 DENSO TEN (THAILAND)190G74R0039   190G74R0043   D190800310    D190800315    000000                                                                              *R         20190726 IMCT                IMCT                                                                                                                    RMF1907267.TXT
MDEFK7T18303201908                D89828070200PV4F20190801000010SPEAKER ASM                   M IMCTM S7FL05 TNTH  09020IMCT  S7 PTB  00005                    1030 SR        000000000000 DENSO TEN (THAILAND)190G71R0005   190G74R0043   D190800311    D190800315    000000                                                                              *R         20190726 IMCT                IMCT                                                                                                                    RMF1907267.TXT
MDEFK7T18304201908                D89828070300PT4F20190801000009SPEAKER ASM                   M IMCTM S7TS02 TNTH  09020IMCT  S7 PTB  00015                    1030 SR        000000000000 DENSO TEN (THAILAND)190G71R0005   190G74R0043   D190800311    D190800315    000000                                                                              *R         20190726 IMCT                IMCT                                                                                                                    RMF1907267.TXT
MDEFK7T18305201908                D89831228410PT4F20190801000002RADIO;AM/FM,CD                M IMCTM S7U137 TNTH  09020IMCT  S7 CPB  00003                    0830 SR        000000000000 DENSO TEN (THAILAND)190L41R0002   190L41R0003   D190800302    D190800303    000000                                                                              *R         20190726 IMCT                IMCT                                                                                                                    RMF1907267.TXT
MDEFK7239237201908                D89828070100PV4F20190731000032SPEAKER ASM                   M IMCTM S7FL05 TNTH  09020IMCT  S7 PTB  00004                    2230 SR        000000000000 DENSO TEN (THAILAND)190D35R0014   190G63R0031   F190800201    D190800301    000000                                                                              *R         20190726 IMCT                IMCT                                                                                                                    RMF1907267.TXT
MDEFK7239238201908                D89828070100PV4F20190801000016SPEAKER ASM                   M IMCTM S7FL05 TNTH  09020IMCT  S7 PTB  00004                    0830 SR        000000000000 DENSO TEN (THAILAND)190L41R0002   190G71R0004   D190800302    D190800309    000000                                                                              *R         20190726 IMCT                IMCT                                                                                                                    RMF1907267.TXT
MDEFK7239239201908                D89828070200PV4F20190801000020SPEAKER ASM                   M IMCTM S7FL05 TNTH  09020IMCT  S7 PTB  00005                    0830 SR        000000000000 DENSO TEN (THAILAND)190G63R0031   190G74R0039   D190800301    D190800310    000000                                                                              *R         20190726 IMCT                IMCT                                                                                                                    RMF1907267.TXT
MDEFK7239240201908                D89828070300PT4F20190731000030SPEAKER ASM                   M IMCTM S7TS02 TNTH  09020IMCT  S7 PTB  00015                    2230 SR        000000000000 DENSO TEN (THAILAND)190D35R0014   190L41R0003   F190800201    D190800303    000000                                                                              *R         20190726 IMCT                IMCT                                                                                                                    RMF1907267.TXT
MDEFK7239241201908                D89828070300PT4F20190801000015SPEAKER ASM                   M IMCTM S7TS02 TNTH  09020IMCT  S7 PTB  00015                    0830 SR        000000000000 DENSO TEN (THAILAND)190G74R0037   190G71R0005   D190800304    D190800311    000000                                                                              *R         20190726 IMCT                IMCT                                                                                                                    RMF1907267.TXT
