REC2019072720190727ISUZU                              6      
MDEBK7T02326201908                D89828070100PT4B20190802000030SPEAKER ASM                   M IMCTM S7FL05 TNTH  09020IMCT  S7 PTB  00004                    1300 SR        000000000000 DENSO TEN (THAILAND)190L42R0006   190L42R0015   Y190800601    Y190800615    000000                                                                              *R         20190727 IMCT                IMCT                                                                                                                    RMF1907272.TXT
MDEBK7T02327201908                D89828070200PV4B20190802000030SPEAKER ASM                   M IMCTM S7FL05 TNTH  09020IMCT  S7 PTB  00005                    1300 SR        000000000000 DENSO TEN (THAILAND)190L42R0006   190L42R0015   Y190800601    Y190800615    000000                                                                              *R         20190727 IMCT                IMCT                                                                                                                    RMF1907272.TXT
MDEBK7T02328201908                D89828070300PT4B20190802000030SPEAKER ASM                   M IMCTM S7TS02 TNTH  09020IMCT  S7 PTB  00015                    1300 SR        000000000000 DENSO TEN (THAILAND)190L42R0006   190L42R0015   Y190800601    Y190800615    000000                                                                              *R         20190727 IMCT                IMCT                                                                                                                    RMF1907272.TXT
MDEFK7T19105201908                D89828070100PV4F20190802000030SPEAKER ASM                   M IMCTM S7FL05 TNTH  09020IMCT  S7 PTB  00004                    0230 SR        000000000000 DENSO TEN (THAILAND)190G63R0032   190G64R0050   D190800501    D190800515    000000                                                                              *R         20190727 IMCT                IMCT                                                                                                                    RMF1907272.TXT
MDEFK7T19106201908                D89828070200PV4F20190802000030SPEAKER ASM                   M IMCTM S7FL05 TNTH  09020IMCT  S7 PTB  00005                    0230 SR        000000000000 DENSO TEN (THAILAND)190G63R0032   190G64R0050   D190800501    D190800515    000000                                                                              *R         20190727 IMCT                IMCT                                                                                                                    RMF1907272.TXT
MDEFK7T19107201908                D89828070300PT4F20190802000030SPEAKER ASM                   M IMCTM S7TS02 TNTH  09020IMCT  S7 PTB  00015                    0230 SR        000000000000 DENSO TEN (THAILAND)190G63R0032   190G64R0050   D190800501    D190800515    000000                                                                              *R         20190727 IMCT                IMCT                                                                                                                    RMF1907272.TXT
