REC2019072520190725ISUZU                              5      
MGEDK5602704201908                 89839626300PT1D20190709000001PLAYER ASM                    M       ST00000TNTH  09020IMCT  ST PTB  000051 DC_SALE           0000 SR        000000000000 DENSO TEN (THAILAND)200L24L0001001                                                                                                                                         20190725 IMCT                IMCT                                                                                                                    WMF1907251.TXT
MGEDK5605764201908                 89839626300PT4D20190709000002PLAYER ASM                    M       ST00000TNTH  09020IMCT  ST PTB  000051 DC_SALE           0000 SR        000000000000 DENSO TEN (THAILAND)200L19U0001001200L21U0001001                                                                                                                           20190725 IMCT                IMCT                                                                                                                    WMF1907251.TXT
MEEDK7820278000000                 89839626310PT4D20190725000001PLAYER ASM                    M IMCTM ST00000TNTH  15033IMCT  ST PTB  00005  DC_SALE        PJC0830 SR        000000000000 DENSO TEN (THAILAND)200L19U0001001                                                                                                                              *E         20190725 IMCT                IMCT                                                                                                                    WMF1907251.TXT
MEEDK7820279000000                 89839626310PT4D20190725000001PLAYER ASM                    M IMCTM ST00000TNTH  15033IMCT  ST PTB  00005  DC_SALE        PJC0830 SR        000000000000 DENSO TEN (THAILAND)200L21U0001001                                                                                                                              *E         20190725 IMCT                IMCT                                                                                                                    WMF1907251.TXT
MEEDK7820280000000                 89839626310PT1D20190725000001PLAYER ASM                    M IMCTM ST00000TNTH  15033IMCT  ST PTB  00005  DC_SALE        PJC0830 SR        000000000000 DENSO TEN (THAILAND)200L24L0001001                                                                                                                              *E         20190725 IMCT                IMCT                                                                                                                    WMF1907251.TXT
