REC2019070620190706ISUZU                              4      
MDEFK7T05871201907                D89828070100PV4F20190711000018SPEAKER ASM                   M IMCTM S7FL05 TNTH  09020IMCT  S7 PTB  00004                    1030 SR        000000000000 DENSO TEN (THAILAND)190K41R0017   190K41R0019   R190702207    R190702215    000000                                                                              *R         20190706 IMCT                IMCT                                                                                                                    RMF1907062.TXT
MDEFK7T05872201907                D89828070300PT4F20190711000010SPEAKER ASM                   M IMCTM S7TS02 TNTH  09020IMCT  S7 PTB  00015                    0830 SR        000000000000 DENSO TEN (THAILAND)190J92R0062   190J92R0066   R190702201    R190702205    000000                                                                              *R         20190706 IMCT                IMCT                                                                                                                    RMF1907062.TXT
MDEFK7T05873201907                D89831229210PT4F20190711000005RADIO;AM/FM,CD                M IMCTM S7U137 TNTH  09020IMCT  S7 PTB  00003                    0830 SR        000000000000 DENSO TEN (THAILAND)190J92R0062   190J92R0066   R190702201    R190702205    000000                                                                              *R         20190706 IMCT                IMCT                                                                                                                    RMF1907062.TXT
MDEFK7213158201907                D89828070100PV4F20190711000012SPEAKER ASM                   M IMCTM S7FL05 TNTH  09020IMCT  S7 PTB  00004                    0830 SR        000000000000 DENSO TEN (THAILAND)190J92R0062   190J81R0034   R190702201    R190702206    000000                                                                              *R         20190706 IMCT                IMCT                                                                                                                    RMF1907062.TXT
