REC2019071020190710ISUZU                              4      
MDEFK7T08604201907                D89828070100PV4F20190714000022SPEAKER ASM                   M IMCTM S7FL05 TNTH  09020IMCT  S7 PTB  00004                    0400 SR        000000000000 DENSO TEN (THAILAND)190K13R0074   190G74R0036   D190702705    D190702715    000000                                                                              *R         20190710 IMCT                IMCT                                                                                                                    RMF1907104.TXT
MDEFK7T08605201907                D89828070200PV4F20190714000016SPEAKER ASM                   M IMCTM S7FL05 TNTH  09020IMCT  S7 PTB  00005                    0400 SR        000000000000 DENSO TEN (THAILAND)190G71R0002   190G74R0036   D190702708    D190702715    000000                                                                              *R         20190710 IMCT                IMCT                                                                                                                    RMF1907104.TXT
MDEFK7T08606201907                D89828070300PT4F20190714000016SPEAKER ASM                   M IMCTM S7TS02 TNTH  09020IMCT  S7 PTB  00015                    0400 SR        000000000000 DENSO TEN (THAILAND)190G71R0002   190G74R0036   D190702708    D190702715    000000                                                                              *R         20190710 IMCT                IMCT                                                                                                                    RMF1907104.TXT
MDEFK7219843201907                D89828070100PV4F20190714000008SPEAKER ASM                   M IMCTM S7FL05 TNTH  09020IMCT  S7 PTB  00004                    0230 SR        000000000000 DENSO TEN (THAILAND)190K13R0070   190K13R0073   D190702701    D190702704    000000                                                                              *R         20190710 IMCT                IMCT                                                                                                                    RMF1907104.TXT
