REC2019071120190711ISUZU                              30     
MAKK97072646201907N3               89825451200P3YK20190723000030SPEAKER ASM;ROOF              M IMCTM CM1    TNTH  09020IMKDC KA PTB  00036  K0                0231NES        000000000000 DENSO TEN (THAILAND)                                                                                                                                            *G         20190711 IMCT                IMCT                                                                                                                    WMF1907117.TXT
MAKK97072647201907N3               89825451200P3YK20190725000030SPEAKER ASM;ROOF              M IMCTM CM1    TNTH  09020IMKDC KA PTB  00036  K0                0231NES        000000000000 DENSO TEN (THAILAND)                                                                                                                                            *G         20190711 IMCT                IMCT                                                                                                                    WMF1907117.TXT
MAKK97072648201907D3               89828070100P3YK20190722000120SPEAKER ASM                   M IMCTM CM1    TNTH  09020IMKDC KA PTB  00004  K0                1431DES        000000000000 DENSO TEN (THAILAND)                                                                                                                                            *G         20190711 IMCT                IMCT                                                                                                                    WMF1907117.TXT
MAKK97072649201907N3               89828070100P3YK20190723000090SPEAKER ASM                   M IMCTM CM1    TNTH  09020IMKDC KA PTB  00004  K0                0231NES        000000000000 DENSO TEN (THAILAND)                                                                                                                                            *G         20190711 IMCT                IMCT                                                                                                                    WMF1907117.TXT
MAKK97072650201907D3               89828070100P3YK20190723000090SPEAKER ASM                   M IMCTM CM1    TNTH  09020IMKDC KA PTB  00004  K0                1431DES        000000000000 DENSO TEN (THAILAND)                                                                                                                                            *G         20190711 IMCT                IMCT                                                                                                                    WMF1907117.TXT
MAKK97072651201907N3               89828070100P3YK20190724000030SPEAKER ASM                   M IMCTM CM1    TNTH  09020IMKDC KA PTB  00004  K0                0231NES        000000000000 DENSO TEN (THAILAND)                                                                                                                                            *G         20190711 IMCT                IMCT                                                                                                                    WMF1907117.TXT
MAKK97072652201907D3               89828070100P3YK20190724000120SPEAKER ASM                   M IMCTM CM1    TNTH  09020IMKDC KA PTB  00004  K0                1431DES        000000000000 DENSO TEN (THAILAND)                                                                                                                                            *G         20190711 IMCT                IMCT                                                                                                                    WMF1907117.TXT
MAKK97072653201907N3               89828070100P3YK20190725000090SPEAKER ASM                   M IMCTM CM1    TNTH  09020IMKDC KA PTB  00004  K0                0231NES        000000000000 DENSO TEN (THAILAND)                                                                                                                                            *G         20190711 IMCT                IMCT                                                                                                                    WMF1907117.TXT
MAKK97072654201907D3               89828070100P3YK20190725000120SPEAKER ASM                   M IMCTM CM1    TNTH  09020IMKDC KA PTB  00004  K0                1431DES        000000000000 DENSO TEN (THAILAND)                                                                                                                                            *G         20190711 IMCT                IMCT                                                                                                                    WMF1907117.TXT
MAKK97072655201907N3               89828070100P3YK20190726000150SPEAKER ASM                   M IMCTM CM1    TNTH  09020IMKDC KA PTB  00004  K0                0231NES        000000000000 DENSO TEN (THAILAND)                                                                                                                                            *G         20190711 IMCT                IMCT                                                                                                                    WMF1907117.TXT
MAKK97072656201907D3               89828070100P3YK20190726000090SPEAKER ASM                   M IMCTM CM1    TNTH  09020IMKDC KA PTB  00004  K0                1431DES        000000000000 DENSO TEN (THAILAND)                                                                                                                                            *G         20190711 IMCT                IMCT                                                                                                                    WMF1907117.TXT
MAKK97072657201907N3               89828070100P3YK20190727000090SPEAKER ASM                   M IMCTM CM1    TNTH  09020IMKDC KA PTB  00004  K0                0231NES        000000000000 DENSO TEN (THAILAND)                                                                                                                                            *G         20190711 IMCT                IMCT                                                                                                                    WMF1907117.TXT
MAKK97072658201907N3               89828070200P3YK20190723000030SPEAKER ASM                   M IMCTM CM1    TNTH  09020IMKDC KA PTB  00005  K0                0231NES        000000000000 DENSO TEN (THAILAND)                                                                                                                                            *G         20190711 IMCT                IMCT                                                                                                                    WMF1907117.TXT
MAKK97072659201907D3               89828070200P3YK20190723000030SPEAKER ASM                   M IMCTM CM1    TNTH  09020IMKDC KA PTB  00005  K0                1431DES        000000000000 DENSO TEN (THAILAND)                                                                                                                                            *G         20190711 IMCT                IMCT                                                                                                                    WMF1907117.TXT
MAKK97072660201907D3               89828070200P3YK20190724000060SPEAKER ASM                   M IMCTM CM1    TNTH  09020IMKDC KA PTB  00005  K0                1431DES        000000000000 DENSO TEN (THAILAND)                                                                                                                                            *G         20190711 IMCT                IMCT                                                                                                                    WMF1907117.TXT
MAKK97072661201907N3               89828070200P3YK20190725000060SPEAKER ASM                   M IMCTM CM1    TNTH  09020IMKDC KA PTB  00005  K0                0231NES        000000000000 DENSO TEN (THAILAND)                                                                                                                                            *G         20190711 IMCT                IMCT                                                                                                                    WMF1907117.TXT
MAKK97072662201907N3               89828070200P3YK20190726000060SPEAKER ASM                   M IMCTM CM1    TNTH  09020IMKDC KA PTB  00005  K0                0231NES        000000000000 DENSO TEN (THAILAND)                                                                                                                                            *G         20190711 IMCT                IMCT                                                                                                                    WMF1907117.TXT
MAKK97072663201907D3               89828070200P3YK20190726000030SPEAKER ASM                   M IMCTM CM1    TNTH  09020IMKDC KA PTB  00005  K0                1431DES        000000000000 DENSO TEN (THAILAND)                                                                                                                                            *G         20190711 IMCT                IMCT                                                                                                                    WMF1907117.TXT
MAKK97072664201907N3               89828070200P3YK20190727000060SPEAKER ASM                   M IMCTM CM1    TNTH  09020IMKDC KA PTB  00005  K0                0231NES        000000000000 DENSO TEN (THAILAND)                                                                                                                                            *G         20190711 IMCT                IMCT                                                                                                                    WMF1907117.TXT
MAKK97072665201907D3               89828070300P3YK20190722000030SPEAKER ASM                   M IMCTM CM1    TNTH  09020IMKDC KA PTB  00015  K0                1431DES        000000000000 DENSO TEN (THAILAND)                                                                                                                                            *G         20190711 IMCT                IMCT                                                                                                                    WMF1907117.TXT
MAKK97072666201907N3               89828070300P3YK20190723000060SPEAKER ASM                   M IMCTM CM1    TNTH  09020IMKDC KA PTB  00015  K0                0231NES        000000000000 DENSO TEN (THAILAND)                                                                                                                                            *G         20190711 IMCT                IMCT                                                                                                                    WMF1907117.TXT
MAKK97072667201907D3               89828070300P3YK20190723000030SPEAKER ASM                   M IMCTM CM1    TNTH  09020IMKDC KA PTB  00015  K0                1431DES        000000000000 DENSO TEN (THAILAND)                                                                                                                                            *G         20190711 IMCT                IMCT                                                                                                                    WMF1907117.TXT
MAKK97072668201907D3               89828070300P3YK20190724000090SPEAKER ASM                   M IMCTM CM1    TNTH  09020IMKDC KA PTB  00015  K0                1431DES        000000000000 DENSO TEN (THAILAND)                                                                                                                                            *G         20190711 IMCT                IMCT                                                                                                                    WMF1907117.TXT
MAKK97072669201907N3               89828070300P3YK20190725000060SPEAKER ASM                   M IMCTM CM1    TNTH  09020IMKDC KA PTB  00015  K0                0231NES        000000000000 DENSO TEN (THAILAND)                                                                                                                                            *G         20190711 IMCT                IMCT                                                                                                                    WMF1907117.TXT
MAKK97072670201907N3               89828070300P3YK20190726000060SPEAKER ASM                   M IMCTM CM1    TNTH  09020IMKDC KA PTB  00015  K0                0231NES        000000000000 DENSO TEN (THAILAND)                                                                                                                                            *G         20190711 IMCT                IMCT                                                                                                                    WMF1907117.TXT
MAKK97072671201907D3               89828070300P3YK20190726000030SPEAKER ASM                   M IMCTM CM1    TNTH  09020IMKDC KA PTB  00015  K0                1431DES        000000000000 DENSO TEN (THAILAND)                                                                                                                                            *G         20190711 IMCT                IMCT                                                                                                                    WMF1907117.TXT
MAKK97072672201907N3               89828070300P3YK20190727000060SPEAKER ASM                   M IMCTM CM1    TNTH  09020IMKDC KA PTB  00015  K0                0231NES        000000000000 DENSO TEN (THAILAND)                                                                                                                                            *G         20190711 IMCT                IMCT                                                                                                                    WMF1907117.TXT
MAKK97072673201907D3               89831228410P3YK20190723000015RADIO;AM/FM,CD                M IMCTM CM1    TNTH  09020IMKDC KA   CPB00003  K0                1431DES        000000000000 DENSO TEN (THAILAND)                                                                                                                                            *G         20190711 IMCT                IMCT                                                                                                                    WMF1907117.TXT
MAKK97072674201907N3               89831228410P3YK20190724000015RADIO;AM/FM,CD                M IMCTM CM1    TNTH  09020IMKDC KA   CPB00003  K0                0231NES        000000000000 DENSO TEN (THAILAND)                                                                                                                                            *G         20190711 IMCT                IMCT                                                                                                                    WMF1907117.TXT
MAKK97072675201907D3               89831228410P3YK20190726000015RADIO;AM/FM,CD                M IMCTM CM1    TNTH  09020IMKDC KA   CPB00003  K0                1431DES        000000000000 DENSO TEN (THAILAND)                                                                                                                                            *G         20190711 IMCT                IMCT                                                                                                                    WMF1907117.TXT
