REC2019072220190722ISUZU                              4      
MDEFK7T14971201907                D89750126100PT4F20190726000015RADIO;AM/FM CD D              M IMCTM S7TS01 TNTH  09020IMCT  S7 PTB  00003                    1300 SR        000000000000 DENSO TEN (THAILAND)190D09R0050   190D12R0036   D190703601    D190703615    000000                                                                              *R         20190722 IMCT                IMCT                                                                                                                    RMF1907224.TXT
MDEFK7T14972201907                D89828070100PV4F20190726000030SPEAKER ASM                   M IMCTM S7FL05 TNTH  09020IMCT  S7 PTB  00004                    1300 SR        000000000000 DENSO TEN (THAILAND)190D09R0050   190D12R0036   D190703601    D190703615    000000                                                                              *R         20190722 IMCT                IMCT                                                                                                                    RMF1907224.TXT
MDEFK7T14973201907                D89828070200PV4F20190726000030SPEAKER ASM                   M IMCTM S7FL05 TNTH  09020IMCT  S7 PTB  00005                    1300 SR        000000000000 DENSO TEN (THAILAND)190D09R0050   190D12R0036   D190703601    D190703615    000000                                                                              *R         20190722 IMCT                IMCT                                                                                                                    RMF1907224.TXT
MDEFK7T14974201907                D89828070300PT4F20190726000030SPEAKER ASM                   M IMCTM S7TS02 TNTH  09020IMCT  S7 PTB  00015                    1300 SR        000000000000 DENSO TEN (THAILAND)190D09R0050   190D12R0036   D190703601    D190703615    000000                                                                              *R         20190722 IMCT                IMCT                                                                                                                    RMF1907224.TXT
