REC2019083120190831ISUZU                              62     
MDDDK8381273201909                D89821984430PT1D20190905000030RADIO;AM/FM,CD                M IMCTM S5NC06 TNTH  09020IMCT  S5 PTB  00005                    0400 SR        000000000000 DENSO TEN (THAILAND)190MRAL0239239                                                                                                                              *          20190831 IMCT                IMCT                                                                                                                    WMF1908312.TXT
MDDDK8381274201909                D89821984430PT1D20190905000030RADIO;AM/FM,CD                M IMCTM S5NC06 TNTH  09020IMCT  S5 PTB  00005                    0830 SR        000000000000 DENSO TEN (THAILAND)190MRBL0080080                                                                                                                              *          20190831 IMCT                IMCT                                                                                                                    WMF1908312.TXT
MDDDK8381275201909                D89821984430PT1D20190905000060RADIO;AM/FM,CD                M IMCTM S5NC06 TNTH  09020IMCT  S5 PTB  00005                    1300 SR        000000000000 DENSO TEN (THAILAND)190MNGL0251251190MRAL0240240                                                                                                                *          20190831 IMCT                IMCT                                                                                                                    WMF1908312.TXT
MDDDK8381276201909                D89828070100PV1D20190904000060SPEAKER ASM                   M IMCTM S5MB11 TNTH  09020IMCT  S5 PTB  00004                    2230 SR        000000000000 DENSO TEN (THAILAND)190MPGL0293293                                                                                                                              *          20190831 IMCT                IMCT                                                                                                                    WMF1908312.TXT
MDDDK8381277201909                D89828070100PV1D20190905000060SPEAKER ASM                   M IMCTM S5MB11 TNTH  09020IMCT  S5 PTB  00004                    0230 SR        000000000000 DENSO TEN (THAILAND)190MXAL0090090                                                                                                                              *          20190831 IMCT                IMCT                                                                                                                    WMF1908312.TXT
MDDDK8381278201909                D89828070100PV1D20190905000060SPEAKER ASM                   M IMCTM S5MB11 TNTH  09020IMCT  S5 PTB  00004                    0400 SR        000000000000 DENSO TEN (THAILAND)190MRAL0239239                                                                                                                              *          20190831 IMCT                IMCT                                                                                                                    WMF1908312.TXT
MDDDK8381279201909                D89828070100PV1D20190905000120SPEAKER ASM                   M IMCTM S5MB11 TNTH  09020IMCT  S5 PTB  00004                    0830 SR        000000000000 DENSO TEN (THAILAND)190MRBL0080080190MRDL0017017                                                                                                                *          20190831 IMCT                IMCT                                                                                                                    WMF1908312.TXT
MDDDK8381280201909                D89828070100PV1D20190905000120SPEAKER ASM                   M IMCTM S5MB11 TNTH  09020IMCT  S5 PTB  00004                    1300 SR        000000000000 DENSO TEN (THAILAND)190MNGL0251251190MRAL0240240                                                                                                                *          20190831 IMCT                IMCT                                                                                                                    WMF1908312.TXT
MDDDK8381281201909                D89828070100PV1D20190905000060SPEAKER ASM                   M IMCTM S5MB11 TNTH  09020IMCT  S5 PTB  00004                    2100 SR        000000000000 DENSO TEN (THAILAND)190MRXL0006006                                                                                                                              *          20190831 IMCT                IMCT                                                                                                                    WMF1908312.TXT
MDDDK8381282201909                D89828070100PV1D20190905000060SPEAKER ASM                   M IMCTM S5MB11 TNTH  09020IMCT  S5 PTB  00004                    2230 SR        000000000000 DENSO TEN (THAILAND)190MPFL0099099                                                                                                                              *          20190831 IMCT                IMCT                                                                                                                    WMF1908312.TXT
MDDDK8381283201909                D89828070100PV4D20190905000060SPEAKER ASM                   M IMCTM S0FL05 TNTH  09020IMCT  S0 PTB  00004                    1600 SR        000000000000 DENSO TEN (THAILAND)190MRVU0054054                                                                                                                              *          20190831 IMCT                IMCT                                                                                                                    WMF1908312.TXT
MDDDK8381284201909                D89828070200PV1D20190905000060SPEAKER ASM                   M IMCTM S5MA14 TNTH  09020IMCT  S5 PTB  00005                    0830 SR        000000000000 DENSO TEN (THAILAND)190MRDL0017017                                                                                                                              *          20190831 IMCT                IMCT                                                                                                                    WMF1908312.TXT
MDDDK8381285201909                D89828070200PV1D20190905000060SPEAKER ASM                   M IMCTM S5MA14 TNTH  09020IMCT  S5 PTB  00005                    2100 SR        000000000000 DENSO TEN (THAILAND)190MRXL0006006                                                                                                                              *          20190831 IMCT                IMCT                                                                                                                    WMF1908312.TXT
MDDDK8381286201909                D89828070200PV4D20190905000060SPEAKER ASM                   M IMCTM S0FR05 TNTH  09020IMCT  S0 PTB  00005                    1600 SR        000000000000 DENSO TEN (THAILAND)190MRVU0054054                                                                                                                              *          20190831 IMCT                IMCT                                                                                                                    WMF1908312.TXT
MDDDK8381287201909                D89828070300PT1D20190904000060SPEAKER ASM                   M IMCTM S5NB082TNTH  09020IMCT  S5 PTB  00015                    2230 SR        000000000000 DENSO TEN (THAILAND)190MPGL0293293                                                                                                                              *          20190831 IMCT                IMCT                                                                                                                    WMF1908312.TXT
MDDDK8381288201909                D89828070300PT1D20190905000060SPEAKER ASM                   M IMCTM S5NB082TNTH  09020IMCT  S5 PTB  00015                    0830 SR        000000000000 DENSO TEN (THAILAND)190MRDL0017017                                                                                                                              *          20190831 IMCT                IMCT                                                                                                                    WMF1908312.TXT
MDDDK8381289201909                D89828070300PT1D20190905000060SPEAKER ASM                   M IMCTM S5NB082TNTH  09020IMCT  S5 PTB  00015                    2100 SR        000000000000 DENSO TEN (THAILAND)190MRXL0006006                                                                                                                              *          20190831 IMCT                IMCT                                                                                                                    WMF1908312.TXT
MDDDK8381290201909                D89828070300PT1D20190905000060SPEAKER ASM                   M IMCTM S5NB082TNTH  09020IMCT  S5 PTB  00015                    2230 SR        000000000000 DENSO TEN (THAILAND)190MPFL0099099                                                                                                                              *          20190831 IMCT                IMCT                                                                                                                    WMF1908312.TXT
MDDDK8381291201909                D89828070300PT4D20190905000060SPEAKER ASM                   M IMCTM S9TS02 TNTH  09020IMCT  S9 PTB  00015                    1600 SR        000000000000 DENSO TEN (THAILAND)190MRVU0054054                                                                                                                              *          20190831 IMCT                IMCT                                                                                                                    WMF1908312.TXT
MDDDK8381292201909                D89831228310PT1D20190904000030RADIO;AM/FM,CD                M IMCTM S55000 TNTH  09020IMCT  S5 CPB  00003                    2230 SR        000000000000 DENSO TEN (THAILAND)190MPGL0293293                                                                                                                              *          20190831 IMCT                IMCT                                                                                                                    WMF1908312.TXT
MDDDK8381293201909                D89831228310PT1D20190905000030RADIO;AM/FM,CD                M IMCTM S55000 TNTH  09020IMCT  S5 CPB  00003                    2230 SR        000000000000 DENSO TEN (THAILAND)190MPFL0099099                                                                                                                              *          20190831 IMCT                IMCT                                                                                                                    WMF1908312.TXT
MDDDK8381294201909                D89831228410PT1D20190905000030RADIO;AM/FM,CD                M IMCTM S55000 TNTH  09020IMCT  S5 CPB  00003                    0830 SR        000000000000 DENSO TEN (THAILAND)190MRDL0017017                                                                                                                              *          20190831 IMCT                IMCT                                                                                                                    WMF1908312.TXT
MDDUK8424722201909                D89828070100PT4U20190905000030SPEAKER ASM                   M IMCTM S0FL05 TNTH  09020IMCT  S0 PTB  00004                    0400 SR        000000000000 DENSO TEN (THAILAND)190MUGU0145145                                                                                                                              *          20190831 IMCT                IMCT                                                                                                                    WMF1908312.TXT
MDDUK8424723201909                D89828070200PV4U20190905000030SPEAKER ASM                   M IMCTM S0FR05 TNTH  09020IMCT  S0 PTB  00005                    0400 SR        000000000000 DENSO TEN (THAILAND)190MUGU0145145                                                                                                                              *          20190831 IMCT                IMCT                                                                                                                    WMF1908312.TXT
MDDUK8424724201909                D89828070300PT4U20190905000030SPEAKER ASM                   M IMCTM S9TS02 TNTH  09020IMCT  S9 PTB  00015                    0400 SR        000000000000 DENSO TEN (THAILAND)190MUGU0145145                                                                                                                              *          20190831 IMCT                IMCT                                                                                                                    WMF1908312.TXT
MDEDK8357702201909                D89828070100PV1D20190904000030SPEAKER ASM                   M IMCTM S5MB11 TNTH  09020IMCT  S5 PTB  00004                    2230 SR        000000000000 DENSO TEN (THAILAND)190J92L0038038                                                                                                                              *          20190831 IMCT                IMCT                                                                                                                    WMF1908312.TXT
MDEDK8357703201909                D89828070100PV1D20190905000030SPEAKER ASM                   M IMCTM S5MB11 TNTH  09020IMCT  S5 PTB  00004                    0230 SR        000000000000 DENSO TEN (THAILAND)190F86L0139139                                                                                                                              *          20190831 IMCT                IMCT                                                                                                                    WMF1908312.TXT
MDEDK8357704201909                D89828070100PV1D20190905000060SPEAKER ASM                   M IMCTM S5MB11 TNTH  09020IMCT  S5 PTB  00004                    0400 SR        000000000000 DENSO TEN (THAILAND)190F86L0140140190J81L0153153                                                                                                                *          20190831 IMCT                IMCT                                                                                                                    WMF1908312.TXT
MDEDK8357705201909                D89828070100PV1D20190905000030SPEAKER ASM                   M IMCTM S5MB11 TNTH  09020IMCT  S5 PTB  00004                    1030 SR        000000000000 DENSO TEN (THAILAND)190J85L0046046                                                                                                                              *          20190831 IMCT                IMCT                                                                                                                    WMF1908312.TXT
MDEDK8357706201909                D89828070100PV1D20190905000060SPEAKER ASM                   M IMCTM S5MB11 TNTH  09020IMCT  S5 PTB  00004                    1300 SR        000000000000 DENSO TEN (THAILAND)190J94L0179180                                                                                                                              *          20190831 IMCT                IMCT                                                                                                                    WMF1908312.TXT
MDEDK8357707201909                D89828070100PV1D20190905000090SPEAKER ASM                   M IMCTM S5MB11 TNTH  09020IMCT  S5 PTB  00004                    1600 SR        000000000000 DENSO TEN (THAILAND)190J91L0049049190K12L0081082                                                                                                                *          20190831 IMCT                IMCT                                                                                                                    WMF1908312.TXT
MDEDK8357708201909                D89828070100PV4D20190905000030SPEAKER ASM                   M IMCTM S0FL05 TNTH  09020IMCT  S0 PTB  00004                    0230 SR        000000000000 DENSO TEN (THAILAND)190K16U0015015                                                                                                                              *          20190831 IMCT                IMCT                                                                                                                    WMF1908312.TXT
MDEDK8357709201909                D89828070100PV4D20190905000030SPEAKER ASM                   M IMCTM S0FL05 TNTH  09020IMCT  S0 PTB  00004                    0830 SR        000000000000 DENSO TEN (THAILAND)190K22U0013013                                                                                                                              *          20190831 IMCT                IMCT                                                                                                                    WMF1908312.TXT
MDEDK8357710201909                D89828070100PV4D20190905000030SPEAKER ASM                   M IMCTM S0FL05 TNTH  09020IMCT  S0 PTB  00004                    1030 SR        000000000000 DENSO TEN (THAILAND)190K21U0103103                                                                                                                              *          20190831 IMCT                IMCT                                                                                                                    WMF1908312.TXT
MDEDK8357711201909                D89828070100PV4D20190905000030SPEAKER ASM                   M IMCTM S0FL05 TNTH  09020IMCT  S0 PTB  00004                    1300 SR        000000000000 DENSO TEN (THAILAND)190F41U0002002                                                                                                                              *          20190831 IMCT                IMCT                                                                                                                    WMF1908312.TXT
MDEDK8357712201909                D89828070200PV4D20190905000030SPEAKER ASM                   M IMCTM S0FR05 TNTH  09020IMCT  S0 PTB  00005                    0230 SR        000000000000 DENSO TEN (THAILAND)190K16U0015015                                                                                                                              *          20190831 IMCT                IMCT                                                                                                                    WMF1908312.TXT
MDEDK8357713201909                D89828070200PV4D20190905000030SPEAKER ASM                   M IMCTM S0FR05 TNTH  09020IMCT  S0 PTB  00005                    0830 SR        000000000000 DENSO TEN (THAILAND)190K22U0013013                                                                                                                              *          20190831 IMCT                IMCT                                                                                                                    WMF1908312.TXT
MDEDK8357714201909                D89828070200PV4D20190905000030SPEAKER ASM                   M IMCTM S0FR05 TNTH  09020IMCT  S0 PTB  00005                    1030 SR        000000000000 DENSO TEN (THAILAND)190K21U0103103                                                                                                                              *          20190831 IMCT                IMCT                                                                                                                    WMF1908312.TXT
MDEDK8357715201909                D89828070200PV4D20190905000030SPEAKER ASM                   M IMCTM S0FR05 TNTH  09020IMCT  S0 PTB  00005                    1300 SR        000000000000 DENSO TEN (THAILAND)190F41U0002002                                                                                                                              *          20190831 IMCT                IMCT                                                                                                                    WMF1908312.TXT
MDEDK8357716201909                D89828070300PT1D20190904000030SPEAKER ASM                   M IMCTM S5NB082TNTH  09020IMCT  S5 PTB  00015                    2230 SR        000000000000 DENSO TEN (THAILAND)190J92L0038038                                                                                                                              *          20190831 IMCT                IMCT                                                                                                                    WMF1908312.TXT
MDEDK8357717201909                D89828070300PT4D20190905000030SPEAKER ASM                   M IMCTM S9TS02 TNTH  09020IMCT  S9 PTB  00015                    0230 SR        000000000000 DENSO TEN (THAILAND)190K16U0015015                                                                                                                              *          20190831 IMCT                IMCT                                                                                                                    WMF1908312.TXT
MDEDK8357718201909                D89828070300PT4D20190905000030SPEAKER ASM                   M IMCTM S9TS02 TNTH  09020IMCT  S9 PTB  00015                    0830 SR        000000000000 DENSO TEN (THAILAND)190K22U0013013                                                                                                                              *          20190831 IMCT                IMCT                                                                                                                    WMF1908312.TXT
MDEDK8357719201909                D89828070300PT4D20190905000030SPEAKER ASM                   M IMCTM S9TS02 TNTH  09020IMCT  S9 PTB  00015                    1030 SR        000000000000 DENSO TEN (THAILAND)190K21U0103103                                                                                                                              *          20190831 IMCT                IMCT                                                                                                                    WMF1908312.TXT
MDEDK8357720201909                D89828070300PT4D20190905000030SPEAKER ASM                   M IMCTM S9TS02 TNTH  09020IMCT  S9 PTB  00015                    1300 SR        000000000000 DENSO TEN (THAILAND)190F41U0002002                                                                                                                              *          20190831 IMCT                IMCT                                                                                                                    WMF1908312.TXT
MDEDK8357721201909                D89831229020PT4D20190905000015RADIO;AM/FM,CD                M IMCTM S9CO001TNTH  09020IMCT  S9 PTB  00003                    1300 SR        000000000000 DENSO TEN (THAILAND)190F41U0002002                                                                                                                              *          20190831 IMCT                IMCT                                                                                                                    WMF1908312.TXT
MDEDK8357722201909                D89831229210PT1D20190904000015RADIO;AM/FM,CD                M IMCTM S55000 TNTH  09020IMCT  S5 PTB  00003                    2230 SR        000000000000 DENSO TEN (THAILAND)190J92L0038038                                                                                                                              *          20190831 IMCT                IMCT                                                                                                                    WMF1908312.TXT
MDEDK8357723201909                D89838031200PT4D20190905000015RADIO;ASM DVD                 M IMCTM S9CO001TNTH  09020IMCT  S9 PTB  00003                    0230 SR        000000000000 DENSO TEN (THAILAND)190K16U0015015                                                                                                                              *          20190831 IMCT                IMCT                                                                                                                    WMF1908312.TXT
MDEDK8357724201909                D89838031200PT4D20190905000015RADIO;ASM DVD                 M IMCTM S9CO001TNTH  09020IMCT  S9 PTB  00003                    0830 SR        000000000000 DENSO TEN (THAILAND)190K22U0013013                                                                                                                              *          20190831 IMCT                IMCT                                                                                                                    WMF1908312.TXT
MDEDK8357725201909                D89838031200PT4D20190905000015RADIO;ASM DVD                 M IMCTM S9CO001TNTH  09020IMCT  S9 PTB  00003                    1030 SR        000000000000 DENSO TEN (THAILAND)190K21U0103103                                                                                                                              *          20190831 IMCT                IMCT                                                                                                                    WMF1908312.TXT
MDEUK8244236201909                D89752845400PT4U20190905000015RADIO;AM FM,CD D              M IMCTM S9AD002TNTH  09020IMCT  S9 PTB  00003                    0230 SR        000000000000 DENSO TEN (THAILAND)190G24U0024024                                                                                                                              *          20190831 IMCT                IMCT                                                                                                                    WMF1908312.TXT
MDEUK8244237201909                D89828070100PT4U20190904000030SPEAKER ASM                   M IMCTM S0FL05 TNTH  09020IMCT  S0 PTB  00004                    2230 SR        000000000000 DENSO TEN (THAILAND)190G31U0105105                                                                                                                              *          20190831 IMCT                IMCT                                                                                                                    WMF1908312.TXT
MDEUK8244238201909                D89828070100PT4U20190905000030SPEAKER ASM                   M IMCTM S0FL05 TNTH  09020IMCT  S0 PTB  00004                    0230 SR        000000000000 DENSO TEN (THAILAND)190G24U0024024                                                                                                                              *          20190831 IMCT                IMCT                                                                                                                    WMF1908312.TXT
MDEUK8244239201909                D89828070100PT4U20190905000030SPEAKER ASM                   M IMCTM S0FL05 TNTH  09020IMCT  S0 PTB  00004                    1300 SR        000000000000 DENSO TEN (THAILAND)190L42U0008008                                                                                                                              *          20190831 IMCT                IMCT                                                                                                                    WMF1908312.TXT
MDEUK8244240201909                D89828070100PT4U20190905000030SPEAKER ASM                   M IMCTM S0FL05 TNTH  09020IMCT  S0 PTB  00004                    1600 SR        000000000000 DENSO TEN (THAILAND)190G32U0169169                                                                                                                              *          20190831 IMCT                IMCT                                                                                                                    WMF1908312.TXT
MDEUK8244241201909                D89828070200PV4U20190904000030SPEAKER ASM                   M IMCTM S0FR05 TNTH  09020IMCT  S0 PTB  00005                    2230 SR        000000000000 DENSO TEN (THAILAND)190G31U0105105                                                                                                                              *          20190831 IMCT                IMCT                                                                                                                    WMF1908312.TXT
MDEUK8244242201909                D89828070200PV4U20190905000030SPEAKER ASM                   M IMCTM S0FR05 TNTH  09020IMCT  S0 PTB  00005                    0230 SR        000000000000 DENSO TEN (THAILAND)190G24U0024024                                                                                                                              *          20190831 IMCT                IMCT                                                                                                                    WMF1908312.TXT
MDEUK8244243201909                D89828070200PV4U20190905000030SPEAKER ASM                   M IMCTM S0FR05 TNTH  09020IMCT  S0 PTB  00005                    1300 SR        000000000000 DENSO TEN (THAILAND)190L42U0008008                                                                                                                              *          20190831 IMCT                IMCT                                                                                                                    WMF1908312.TXT
MDEUK8244244201909                D89828070200PV4U20190905000030SPEAKER ASM                   M IMCTM S0FR05 TNTH  09020IMCT  S0 PTB  00005                    1600 SR        000000000000 DENSO TEN (THAILAND)190G32U0169169                                                                                                                              *          20190831 IMCT                IMCT                                                                                                                    WMF1908312.TXT
MDEUK8244245201909                D89828070300PT4U20190904000030SPEAKER ASM                   M IMCTM S9TS02 TNTH  09020IMCT  S9 PTB  00015                    2230 SR        000000000000 DENSO TEN (THAILAND)190G31U0105105                                                                                                                              *          20190831 IMCT                IMCT                                                                                                                    WMF1908312.TXT
MDEUK8244246201909                D89828070300PT4U20190905000030SPEAKER ASM                   M IMCTM S9TS02 TNTH  09020IMCT  S9 PTB  00015                    0230 SR        000000000000 DENSO TEN (THAILAND)190G24U0024024                                                                                                                              *          20190831 IMCT                IMCT                                                                                                                    WMF1908312.TXT
MDEUK8244247201909                D89828070300PT4U20190905000030SPEAKER ASM                   M IMCTM S9TS02 TNTH  09020IMCT  S9 PTB  00015                    1300 SR        000000000000 DENSO TEN (THAILAND)190L42U0008008                                                                                                                              *          20190831 IMCT                IMCT                                                                                                                    WMF1908312.TXT
MDEUK8244248201909                D89828070300PT4U20190905000030SPEAKER ASM                   M IMCTM S9TS02 TNTH  09020IMCT  S9 PTB  00015                    1600 SR        000000000000 DENSO TEN (THAILAND)190G32U0169169                                                                                                                              *          20190831 IMCT                IMCT                                                                                                                    WMF1908312.TXT
