REC2019080720190807ISUZU                              35     
MAKK98055886201908D3               89825451200P3YK20190819000030SPEAKER ASM;ROOF              M IMCTM CM1    TNTH  09020IMKDC KA PTB  00036  K0                1431DES        000000000000 DENSO TEN (THAILAND)                                                                                                                                            *G         20190807 IMCT                IMCT                                                                                                                    WMF1908075.TXT
MAKK98055887201908N3               89825451200P3YK20190821000030SPEAKER ASM;ROOF              M IMCTM CM1    TNTH  09020IMKDC KA PTB  00036  K0                0231NES        000000000000 DENSO TEN (THAILAND)                                                                                                                                            *G         20190807 IMCT                IMCT                                                                                                                    WMF1908075.TXT
MAKK98055888201908D3               89825451200P3YK20190822000030SPEAKER ASM;ROOF              M IMCTM CM1    TNTH  09020IMKDC KA PTB  00036  K0                1431DES        000000000000 DENSO TEN (THAILAND)                                                                                                                                            *G         20190807 IMCT                IMCT                                                                                                                    WMF1908075.TXT
MAKK98055889201908N3               89825451200P3YK20190823000030SPEAKER ASM;ROOF              M IMCTM CM1    TNTH  09020IMKDC KA PTB  00036  K0                0231NES        000000000000 DENSO TEN (THAILAND)                                                                                                                                            *G         20190807 IMCT                IMCT                                                                                                                    WMF1908075.TXT
MAKK98055890201908D3               89825451200P3YK20190823000030SPEAKER ASM;ROOF              M IMCTM CM1    TNTH  09020IMKDC KA PTB  00036  K0                1431DES        000000000000 DENSO TEN (THAILAND)                                                                                                                                            *G         20190807 IMCT                IMCT                                                                                                                    WMF1908075.TXT
MAKK98055891201908D3               89828070100P3YK20190819000090SPEAKER ASM                   M IMCTM CM1    TNTH  09020IMKDC KA PTB  00004  K0                1431DES        000000000000 DENSO TEN (THAILAND)                                                                                                                                            *G         20190807 IMCT                IMCT                                                                                                                    WMF1908075.TXT
MAKK98055892201908N3               89828070100P3YK20190820000120SPEAKER ASM                   M IMCTM CM1    TNTH  09020IMKDC KA PTB  00004  K0                0231NES        000000000000 DENSO TEN (THAILAND)                                                                                                                                            *G         20190807 IMCT                IMCT                                                                                                                    WMF1908075.TXT
MAKK98055893201908D3               89828070100P3YK20190820000090SPEAKER ASM                   M IMCTM CM1    TNTH  09020IMKDC KA PTB  00004  K0                1431DES        000000000000 DENSO TEN (THAILAND)                                                                                                                                            *G         20190807 IMCT                IMCT                                                                                                                    WMF1908075.TXT
MAKK98055894201908N3               89828070100P3YK20190821000090SPEAKER ASM                   M IMCTM CM1    TNTH  09020IMKDC KA PTB  00004  K0                0231NES        000000000000 DENSO TEN (THAILAND)                                                                                                                                            *G         20190807 IMCT                IMCT                                                                                                                    WMF1908075.TXT
MAKK98055895201908D3               89828070100P3YK20190821000090SPEAKER ASM                   M IMCTM CM1    TNTH  09020IMKDC KA PTB  00004  K0                1431DES        000000000000 DENSO TEN (THAILAND)                                                                                                                                            *G         20190807 IMCT                IMCT                                                                                                                    WMF1908075.TXT
MAKK98055896201908N3               89828070100P3YK20190822000150SPEAKER ASM                   M IMCTM CM1    TNTH  09020IMKDC KA PTB  00004  K0                0231NES        000000000000 DENSO TEN (THAILAND)                                                                                                                                            *G         20190807 IMCT                IMCT                                                                                                                    WMF1908075.TXT
MAKK98055897201908D3               89828070100P3YK20190822000090SPEAKER ASM                   M IMCTM CM1    TNTH  09020IMKDC KA PTB  00004  K0                1431DES        000000000000 DENSO TEN (THAILAND)                                                                                                                                            *G         20190807 IMCT                IMCT                                                                                                                    WMF1908075.TXT
MAKK98055898201908N3               89828070100P3YK20190823000060SPEAKER ASM                   M IMCTM CM1    TNTH  09020IMKDC KA PTB  00004  K0                0231NES        000000000000 DENSO TEN (THAILAND)                                                                                                                                            *G         20190807 IMCT                IMCT                                                                                                                    WMF1908075.TXT
MAKK98055899201908D3               89828070100P3YK20190823000060SPEAKER ASM                   M IMCTM CM1    TNTH  09020IMKDC KA PTB  00004  K0                1431DES        000000000000 DENSO TEN (THAILAND)                                                                                                                                            *G         20190807 IMCT                IMCT                                                                                                                    WMF1908075.TXT
MAKK98055900201908D3               89828070200P3YK20190819000060SPEAKER ASM                   M IMCTM CM1    TNTH  09020IMKDC KA PTB  00005  K0                1431DES        000000000000 DENSO TEN (THAILAND)                                                                                                                                            *G         20190807 IMCT                IMCT                                                                                                                    WMF1908075.TXT
MAKK98055901201908N3               89828070200P3YK20190820000030SPEAKER ASM                   M IMCTM CM1    TNTH  09020IMKDC KA PTB  00005  K0                0231NES        000000000000 DENSO TEN (THAILAND)                                                                                                                                            *G         20190807 IMCT                IMCT                                                                                                                    WMF1908075.TXT
MAKK98055902201908N3               89828070200P3YK20190821000030SPEAKER ASM                   M IMCTM CM1    TNTH  09020IMKDC KA PTB  00005  K0                0231NES        000000000000 DENSO TEN (THAILAND)                                                                                                                                            *G         20190807 IMCT                IMCT                                                                                                                    WMF1908075.TXT
MAKK98055903201908D3               89828070200P3YK20190821000030SPEAKER ASM                   M IMCTM CM1    TNTH  09020IMKDC KA PTB  00005  K0                1431DES        000000000000 DENSO TEN (THAILAND)                                                                                                                                            *G         20190807 IMCT                IMCT                                                                                                                    WMF1908075.TXT
MAKK98055904201908N3               89828070200P3YK20190822000120SPEAKER ASM                   M IMCTM CM1    TNTH  09020IMKDC KA PTB  00005  K0                0231NES        000000000000 DENSO TEN (THAILAND)                                                                                                                                            *G         20190807 IMCT                IMCT                                                                                                                    WMF1908075.TXT
MAKK98055905201908D3               89828070200P3YK20190822000030SPEAKER ASM                   M IMCTM CM1    TNTH  09020IMKDC KA PTB  00005  K0                1431DES        000000000000 DENSO TEN (THAILAND)                                                                                                                                            *G         20190807 IMCT                IMCT                                                                                                                    WMF1908075.TXT
MAKK98055906201908N3               89828070200P3YK20190823000030SPEAKER ASM                   M IMCTM CM1    TNTH  09020IMKDC KA PTB  00005  K0                0231NES        000000000000 DENSO TEN (THAILAND)                                                                                                                                            *G         20190807 IMCT                IMCT                                                                                                                    WMF1908075.TXT
MAKK98055907201908D3               89828070200P3YK20190823000030SPEAKER ASM                   M IMCTM CM1    TNTH  09020IMKDC KA PTB  00005  K0                1431DES        000000000000 DENSO TEN (THAILAND)                                                                                                                                            *G         20190807 IMCT                IMCT                                                                                                                    WMF1908075.TXT
MAKK98055908201908D3               89828070300P3YK20190819000060SPEAKER ASM                   M IMCTM CM1    TNTH  09020IMKDC KA PTB  00015  K0                1431DES        000000000000 DENSO TEN (THAILAND)                                                                                                                                            *G         20190807 IMCT                IMCT                                                                                                                    WMF1908075.TXT
MAKK98055909201908N3               89828070300P3YK20190820000060SPEAKER ASM                   M IMCTM CM1    TNTH  09020IMKDC KA PTB  00015  K0                0231NES        000000000000 DENSO TEN (THAILAND)                                                                                                                                            *G         20190807 IMCT                IMCT                                                                                                                    WMF1908075.TXT
MAKK98055910201908D3               89828070300P3YK20190820000030SPEAKER ASM                   M IMCTM CM1    TNTH  09020IMKDC KA PTB  00015  K0                1431DES        000000000000 DENSO TEN (THAILAND)                                                                                                                                            *G         20190807 IMCT                IMCT                                                                                                                    WMF1908075.TXT
MAKK98055911201908N3               89828070300P3YK20190821000030SPEAKER ASM                   M IMCTM CM1    TNTH  09020IMKDC KA PTB  00015  K0                0231NES        000000000000 DENSO TEN (THAILAND)                                                                                                                                            *G         20190807 IMCT                IMCT                                                                                                                    WMF1908075.TXT
MAKK98055912201908D3               89828070300P3YK20190821000030SPEAKER ASM                   M IMCTM CM1    TNTH  09020IMKDC KA PTB  00015  K0                1431DES        000000000000 DENSO TEN (THAILAND)                                                                                                                                            *G         20190807 IMCT                IMCT                                                                                                                    WMF1908075.TXT
MAKK98055913201908N3               89828070300P3YK20190822000120SPEAKER ASM                   M IMCTM CM1    TNTH  09020IMKDC KA PTB  00015  K0                0231NES        000000000000 DENSO TEN (THAILAND)                                                                                                                                            *G         20190807 IMCT                IMCT                                                                                                                    WMF1908075.TXT
MAKK98055914201908D3               89828070300P3YK20190822000030SPEAKER ASM                   M IMCTM CM1    TNTH  09020IMKDC KA PTB  00015  K0                1431DES        000000000000 DENSO TEN (THAILAND)                                                                                                                                            *G         20190807 IMCT                IMCT                                                                                                                    WMF1908075.TXT
MAKK98055915201908N3               89828070300P3YK20190823000060SPEAKER ASM                   M IMCTM CM1    TNTH  09020IMKDC KA PTB  00015  K0                0231NES        000000000000 DENSO TEN (THAILAND)                                                                                                                                            *G         20190807 IMCT                IMCT                                                                                                                    WMF1908075.TXT
MAKK98055916201908D3               89828070300P3YK20190823000030SPEAKER ASM                   M IMCTM CM1    TNTH  09020IMKDC KA PTB  00015  K0                1431DES        000000000000 DENSO TEN (THAILAND)                                                                                                                                            *G         20190807 IMCT                IMCT                                                                                                                    WMF1908075.TXT
MAKK98055917201908D3               89831228410P3YK20190819000015RADIO;AM/FM,CD                M IMCTM CM1    TNTH  09020IMKDC KA   CPB00003  K0                1431DES        000000000000 DENSO TEN (THAILAND)                                                                                                                                            *G         20190807 IMCT                IMCT                                                                                                                    WMF1908075.TXT
MAKK98055918201908D3               89831228410P3YK20190822000015RADIO;AM/FM,CD                M IMCTM CM1    TNTH  09020IMKDC KA   CPB00003  K0                1431DES        000000000000 DENSO TEN (THAILAND)                                                                                                                                            *G         20190807 IMCT                IMCT                                                                                                                    WMF1908075.TXT
MAKK98061716201908D3               89828070100P3YK20190820000030SPEAKER ASM                   M IMCTM PK3    TNTH  09020IMKDC KA PTB  00004  K0                1431DES        000000000000 DENSO TEN (THAILAND)                                                                                                                                            *G         20190807 IMCT                IMCT                                                                                                                    WMF1908075.TXT
MAKK98061717201908D3               89828070200P3YK20190820000030SPEAKER ASM                   M IMCTM PK3    TNTH  09020IMKDC KA PTB  00005  K0                1431DES        000000000000 DENSO TEN (THAILAND)                                                                                                                                            *G         20190807 IMCT                IMCT                                                                                                                    WMF1908075.TXT
