REC2019081520190815ISUZU                              45     
MAKK98081618201908D3               89825451200P3YK20190826000030SPEAKER ASM;ROOF              M IMCTM CM1    TNTH  09020IMKDC KA PTB  00036  K0                1431DES        000000000000 DENSO TEN (THAILAND)                                                                                                                                            *G         20190815 IMCT                IMCT                                                                                                                    WMF1908152.TXT
MAKK98081619201908N3               89825451200P3YK20190827000030SPEAKER ASM;ROOF              M IMCTM CM1    TNTH  09020IMKDC KA PTB  00036  K0                0231NES        000000000000 DENSO TEN (THAILAND)                                                                                                                                            *G         20190815 IMCT                IMCT                                                                                                                    WMF1908152.TXT
MAKK98081620201908D3               89825451200P3YK20190828000030SPEAKER ASM;ROOF              M IMCTM CM1    TNTH  09020IMKDC KA PTB  00036  K0                1431DES        000000000000 DENSO TEN (THAILAND)                                                                                                                                            *G         20190815 IMCT                IMCT                                                                                                                    WMF1908152.TXT
MAKK98081621201908N3               89825451200P3YK20190830000060SPEAKER ASM;ROOF              M IMCTM CM1    TNTH  09020IMKDC KA PTB  00036  K0                0231NES        000000000000 DENSO TEN (THAILAND)                                                                                                                                            *G         20190815 IMCT                IMCT                                                                                                                    WMF1908152.TXT
MAKK98081622201908D3               89828070100P3YK20190826000090SPEAKER ASM                   M IMCTM CM1    TNTH  09020IMKDC KA PTB  00004  K0                1431DES        000000000000 DENSO TEN (THAILAND)                                                                                                                                            *G         20190815 IMCT                IMCT                                                                                                                    WMF1908152.TXT
MAKK98081623201908N3               89828070100P3YK20190827000090SPEAKER ASM                   M IMCTM CM1    TNTH  09020IMKDC KA PTB  00004  K0                0231NES        000000000000 DENSO TEN (THAILAND)                                                                                                                                            *G         20190815 IMCT                IMCT                                                                                                                    WMF1908152.TXT
MAKK98081624201908D3               89828070100P3YK20190827000060SPEAKER ASM                   M IMCTM CM1    TNTH  09020IMKDC KA PTB  00004  K0                1431DES        000000000000 DENSO TEN (THAILAND)                                                                                                                                            *G         20190815 IMCT                IMCT                                                                                                                    WMF1908152.TXT
MAKK98081625201908N3               89828070100P3YK20190828000120SPEAKER ASM                   M IMCTM CM1    TNTH  09020IMKDC KA PTB  00004  K0                0231NES        000000000000 DENSO TEN (THAILAND)                                                                                                                                            *G         20190815 IMCT                IMCT                                                                                                                    WMF1908152.TXT
MAKK98081626201908D3               89828070100P3YK20190828000090SPEAKER ASM                   M IMCTM CM1    TNTH  09020IMKDC KA PTB  00004  K0                1431DES        000000000000 DENSO TEN (THAILAND)                                                                                                                                            *G         20190815 IMCT                IMCT                                                                                                                    WMF1908152.TXT
MAKK98081627201908N3               89828070100P3YK20190829000120SPEAKER ASM                   M IMCTM CM1    TNTH  09020IMKDC KA PTB  00004  K0                0231NES        000000000000 DENSO TEN (THAILAND)                                                                                                                                            *G         20190815 IMCT                IMCT                                                                                                                    WMF1908152.TXT
MAKK98081628201908D3               89828070100P3YK20190829000090SPEAKER ASM                   M IMCTM CM1    TNTH  09020IMKDC KA PTB  00004  K0                1431DES        000000000000 DENSO TEN (THAILAND)                                                                                                                                            *G         20190815 IMCT                IMCT                                                                                                                    WMF1908152.TXT
MAKK98081629201908N3               89828070100P3YK20190830000060SPEAKER ASM                   M IMCTM CM1    TNTH  09020IMKDC KA PTB  00004  K0                0231NES        000000000000 DENSO TEN (THAILAND)                                                                                                                                            *G         20190815 IMCT                IMCT                                                                                                                    WMF1908152.TXT
MAKK98081630201908D3               89828070100P3YK20190830000090SPEAKER ASM                   M IMCTM CM1    TNTH  09020IMKDC KA PTB  00004  K0                1431DES        000000000000 DENSO TEN (THAILAND)                                                                                                                                            *G         20190815 IMCT                IMCT                                                                                                                    WMF1908152.TXT
MAKK98081631201908N3               89828070100P3YK20190831000120SPEAKER ASM                   M IMCTM CM1    TNTH  09020IMKDC KA PTB  00004  K0                0231NES        000000000000 DENSO TEN (THAILAND)                                                                                                                                            *G         20190815 IMCT                IMCT                                                                                                                    WMF1908152.TXT
MAKK98081632201908D3               89828070100P3YK20190831000120SPEAKER ASM                   M IMCTM CM1    TNTH  09020IMKDC KA PTB  00004  K0                1431DES        000000000000 DENSO TEN (THAILAND)                                                                                                                                            *G         20190815 IMCT                IMCT                                                                                                                    WMF1908152.TXT
MAKK98081633201908N3               89828070100P3YK20190901000060SPEAKER ASM                   M IMCTM CM1    TNTH  09020IMKDC KA PTB  00004  K0                0231NES        000000000000 DENSO TEN (THAILAND)                                                                                                                                            *G         20190815 IMCT                IMCT                                                                                                                    WMF1908152.TXT
MAKK98081634201908D3               89828070200P3YK20190826000030SPEAKER ASM                   M IMCTM CM1    TNTH  09020IMKDC KA PTB  00005  K0                1431DES        000000000000 DENSO TEN (THAILAND)                                                                                                                                            *G         20190815 IMCT                IMCT                                                                                                                    WMF1908152.TXT
MAKK98081635201908N3               89828070200P3YK20190827000030SPEAKER ASM                   M IMCTM CM1    TNTH  09020IMKDC KA PTB  00005  K0                0231NES        000000000000 DENSO TEN (THAILAND)                                                                                                                                            *G         20190815 IMCT                IMCT                                                                                                                    WMF1908152.TXT
MAKK98081636201908D3               89828070200P3YK20190827000030SPEAKER ASM                   M IMCTM CM1    TNTH  09020IMKDC KA PTB  00005  K0                1431DES        000000000000 DENSO TEN (THAILAND)                                                                                                                                            *G         20190815 IMCT                IMCT                                                                                                                    WMF1908152.TXT
MAKK98081637201908N3               89828070200P3YK20190828000060SPEAKER ASM                   M IMCTM CM1    TNTH  09020IMKDC KA PTB  00005  K0                0231NES        000000000000 DENSO TEN (THAILAND)                                                                                                                                            *G         20190815 IMCT                IMCT                                                                                                                    WMF1908152.TXT
MAKK98081638201908D3               89828070200P3YK20190828000030SPEAKER ASM                   M IMCTM CM1    TNTH  09020IMKDC KA PTB  00005  K0                1431DES        000000000000 DENSO TEN (THAILAND)                                                                                                                                            *G         20190815 IMCT                IMCT                                                                                                                    WMF1908152.TXT
MAKK98081639201908N3               89828070200P3YK20190829000090SPEAKER ASM                   M IMCTM CM1    TNTH  09020IMKDC KA PTB  00005  K0                0231NES        000000000000 DENSO TEN (THAILAND)                                                                                                                                            *G         20190815 IMCT                IMCT                                                                                                                    WMF1908152.TXT
MAKK98081640201908D3               89828070200P3YK20190829000060SPEAKER ASM                   M IMCTM CM1    TNTH  09020IMKDC KA PTB  00005  K0                1431DES        000000000000 DENSO TEN (THAILAND)                                                                                                                                            *G         20190815 IMCT                IMCT                                                                                                                    WMF1908152.TXT
MAKK98081641201908N3               89828070200P3YK20190830000030SPEAKER ASM                   M IMCTM CM1    TNTH  09020IMKDC KA PTB  00005  K0                0231NES        000000000000 DENSO TEN (THAILAND)                                                                                                                                            *G         20190815 IMCT                IMCT                                                                                                                    WMF1908152.TXT
MAKK98081642201908N3               89828070200P3YK20190831000030SPEAKER ASM                   M IMCTM CM1    TNTH  09020IMKDC KA PTB  00005  K0                0231NES        000000000000 DENSO TEN (THAILAND)                                                                                                                                            *G         20190815 IMCT                IMCT                                                                                                                    WMF1908152.TXT
MAKK98081643201908D3               89828070200P3YK20190831000060SPEAKER ASM                   M IMCTM CM1    TNTH  09020IMKDC KA PTB  00005  K0                1431DES        000000000000 DENSO TEN (THAILAND)                                                                                                                                            *G         20190815 IMCT                IMCT                                                                                                                    WMF1908152.TXT
MAKK98081644201908N3               89828070200P3YK20190901000030SPEAKER ASM                   M IMCTM CM1    TNTH  09020IMKDC KA PTB  00005  K0                0231NES        000000000000 DENSO TEN (THAILAND)                                                                                                                                            *G         20190815 IMCT                IMCT                                                                                                                    WMF1908152.TXT
MAKK98081645201908D3               89828070300P3YK20190826000060SPEAKER ASM                   M IMCTM CM1    TNTH  09020IMKDC KA PTB  00015  K0                1431DES        000000000000 DENSO TEN (THAILAND)                                                                                                                                            *G         20190815 IMCT                IMCT                                                                                                                    WMF1908152.TXT
MAKK98081646201908N3               89828070300P3YK20190827000030SPEAKER ASM                   M IMCTM CM1    TNTH  09020IMKDC KA PTB  00015  K0                0231NES        000000000000 DENSO TEN (THAILAND)                                                                                                                                            *G         20190815 IMCT                IMCT                                                                                                                    WMF1908152.TXT
MAKK98081647201908D3               89828070300P3YK20190827000030SPEAKER ASM                   M IMCTM CM1    TNTH  09020IMKDC KA PTB  00015  K0                1431DES        000000000000 DENSO TEN (THAILAND)                                                                                                                                            *G         20190815 IMCT                IMCT                                                                                                                    WMF1908152.TXT
MAKK98081648201908N3               89828070300P3YK20190828000090SPEAKER ASM                   M IMCTM CM1    TNTH  09020IMKDC KA PTB  00015  K0                0231NES        000000000000 DENSO TEN (THAILAND)                                                                                                                                            *G         20190815 IMCT                IMCT                                                                                                                    WMF1908152.TXT
MAKK98081649201908D3               89828070300P3YK20190828000030SPEAKER ASM                   M IMCTM CM1    TNTH  09020IMKDC KA PTB  00015  K0                1431DES        000000000000 DENSO TEN (THAILAND)                                                                                                                                            *G         20190815 IMCT                IMCT                                                                                                                    WMF1908152.TXT
MAKK98081650201908N3               89828070300P3YK20190829000090SPEAKER ASM                   M IMCTM CM1    TNTH  09020IMKDC KA PTB  00015  K0                0231NES        000000000000 DENSO TEN (THAILAND)                                                                                                                                            *G         20190815 IMCT                IMCT                                                                                                                    WMF1908152.TXT
MAKK98081651201908D3               89828070300P3YK20190829000060SPEAKER ASM                   M IMCTM CM1    TNTH  09020IMKDC KA PTB  00015  K0                1431DES        000000000000 DENSO TEN (THAILAND)                                                                                                                                            *G         20190815 IMCT                IMCT                                                                                                                    WMF1908152.TXT
MAKK98081652201908N3               89828070300P3YK20190830000090SPEAKER ASM                   M IMCTM CM1    TNTH  09020IMKDC KA PTB  00015  K0                0231NES        000000000000 DENSO TEN (THAILAND)                                                                                                                                            *G         20190815 IMCT                IMCT                                                                                                                    WMF1908152.TXT
MAKK98081653201908N3               89828070300P3YK20190831000030SPEAKER ASM                   M IMCTM CM1    TNTH  09020IMKDC KA PTB  00015  K0                0231NES        000000000000 DENSO TEN (THAILAND)                                                                                                                                            *G         20190815 IMCT                IMCT                                                                                                                    WMF1908152.TXT
MAKK98081654201908D3               89828070300P3YK20190831000060SPEAKER ASM                   M IMCTM CM1    TNTH  09020IMKDC KA PTB  00015  K0                1431DES        000000000000 DENSO TEN (THAILAND)                                                                                                                                            *G         20190815 IMCT                IMCT                                                                                                                    WMF1908152.TXT
MAKK98081655201908N3               89828070300P3YK20190901000030SPEAKER ASM                   M IMCTM CM1    TNTH  09020IMKDC KA PTB  00015  K0                0231NES        000000000000 DENSO TEN (THAILAND)                                                                                                                                            *G         20190815 IMCT                IMCT                                                                                                                    WMF1908152.TXT
MAKK98081656201908D3               89831228410P3YK20190826000015RADIO;AM/FM,CD                M IMCTM CM1    TNTH  09020IMKDC KA   CPB00003  K0                1431DES        000000000000 DENSO TEN (THAILAND)                                                                                                                                            *G         20190815 IMCT                IMCT                                                                                                                    WMF1908152.TXT
MAKK98081657201908N3               89831228410P3YK20190827000015RADIO;AM/FM,CD                M IMCTM CM1    TNTH  09020IMKDC KA   CPB00003  K0                0231NES        000000000000 DENSO TEN (THAILAND)                                                                                                                                            *G         20190815 IMCT                IMCT                                                                                                                    WMF1908152.TXT
MAKK98081658201908D3               89831228410P3YK20190831000015RADIO;AM/FM,CD                M IMCTM CM1    TNTH  09020IMKDC KA   CPB00003  K0                1431DES        000000000000 DENSO TEN (THAILAND)                                                                                                                                            *G         20190815 IMCT                IMCT                                                                                                                    WMF1908152.TXT
MAKK98081659201908D3               89834050110P3YK20190827000015RADIO;AM/FM,CD                M IMCTM CM1    TNTH  09020IMKDC KA PTB  00003  K0                1431DES        000000000000 DENSO TEN (THAILAND)                                                                                                                                            *G         20190815 IMCT                IMCT                                                                                                                    WMF1908152.TXT
MAKK98081660201908N3               89834050110P3YK20190829000015RADIO;AM/FM,CD                M IMCTM CM1    TNTH  09020IMKDC KA PTB  00003  K0                0231NES        000000000000 DENSO TEN (THAILAND)                                                                                                                                            *G         20190815 IMCT                IMCT                                                                                                                    WMF1908152.TXT
MAKK98088851201908D3               89828070100P3YK20190827000030SPEAKER ASM                   M IMCTM PK3    TNTH  09020IMKDC KA PTB  00004  K0                1431DES        000000000000 DENSO TEN (THAILAND)                                                                                                                                            *G         20190815 IMCT                IMCT                                                                                                                    WMF1908152.TXT
MAKK98088852201908D3               89828070200P3YK20190827000030SPEAKER ASM                   M IMCTM PK3    TNTH  09020IMKDC KA PTB  00005  K0                1431DES        000000000000 DENSO TEN (THAILAND)                                                                                                                                            *G         20190815 IMCT                IMCT                                                                                                                    WMF1908152.TXT
