REC2019080120190801ISUZU                              5      
MDEBK8T00504201908                D89828070100PT4B20190806000030SPEAKER ASM                   M IMCTM S7FL05 TNTH  09020IMCT  S7 PTB  00004                    0400 SR        000000000000 DENSO TEN (THAILAND)190F54R0054   190G83R0048   Y190801101    Y190801115    000000                                                                              *R         20190801 IMCT                IMCT                                                                                                                    RMF1908016.TXT
MDEBK8T00505201908                D89828070200PV4B20190806000030SPEAKER ASM                   M IMCTM S7FL05 TNTH  09020IMCT  S7 PTB  00005                    0400 SR        000000000000 DENSO TEN (THAILAND)190F54R0054   190G83R0048   Y190801101    Y190801115    000000                                                                              *R         20190801 IMCT                IMCT                                                                                                                    RMF1908016.TXT
MDEBK8T00506201908                D89828070300PT4B20190806000030SPEAKER ASM                   M IMCTM S7TS02 TNTH  09020IMCT  S7 PTB  00015                    0400 SR        000000000000 DENSO TEN (THAILAND)190F54R0054   190G83R0048   Y190801101    Y190801115    000000                                                                              *R         20190801 IMCT                IMCT                                                                                                                    RMF1908016.TXT
MDEBK8T00507201908                D89848584410PT4B20190806000010RADIO;AM/FM CD D              M IMCTM S7TS01 TNTH  09020IMCT  S7 PTB  00003                    0400 SR        000000000000 DENSO TEN (THAILAND)190F54R0054   190F54R0062   Y190801101    Y190801114    000000                                                                              *R         20190801 IMCT                IMCT                                                                                                                    RMF1908016.TXT
MDEFK8T00575201908                D89828070100PV4F20190806000030SPEAKER ASM                   M IMCTM S7FL05 TNTH  09020IMCT  S7 PTB  00004                    1300 SR        000000000000 DENSO TEN (THAILAND)190K58R0020   190J81R0039   R190801201    R190801215    000000                                                                              *R         20190801 IMCT                IMCT                                                                                                                    RMF1908016.TXT
