REC2019082920190829ISUZU                              54     
MDDDK8369229201909                D89821984430PT1D20190903000060RADIO;AM/FM,CD                M IMCTM S5NC06 TNTH  09020IMCT  S5 PTB  00005                    0830 SR        000000000000 DENSO TEN (THAILAND)190MRAL0233234                                                                                                                              *          20190829 IMCT                IMCT                                                                                                                    WMF1908293.TXT
MDDDK8369230201909                D89821984430PT1D20190903000060RADIO;AM/FM,CD                M IMCTM S5NC06 TNTH  09020IMCT  S5 PTB  00005                    1300 SR        000000000000 DENSO TEN (THAILAND)190MRAL0235236                                                                                                                              *          20190829 IMCT                IMCT                                                                                                                    WMF1908293.TXT
MDDDK8369231201909                D89828070100PV1D20190902000060SPEAKER ASM                   M IMCTM S5MB11 TNTH  09020IMCT  S5 PTB  00004                    2230 SR        000000000000 DENSO TEN (THAILAND)190MXAL0089089                                                                                                                              *          20190829 IMCT                IMCT                                                                                                                    WMF1908293.TXT
MDDDK8369232201909                D89828070100PV1D20190903000060SPEAKER ASM                   M IMCTM S5MB11 TNTH  09020IMCT  S5 PTB  00004                    0400 SR        000000000000 DENSO TEN (THAILAND)190MRGL0006006                                                                                                                              *          20190829 IMCT                IMCT                                                                                                                    WMF1908293.TXT
MDDDK8369233201909                D89828070100PV1D20190903000120SPEAKER ASM                   M IMCTM S5MB11 TNTH  09020IMCT  S5 PTB  00004                    0830 SR        000000000000 DENSO TEN (THAILAND)190MRAL0233234                                                                                                                              *          20190829 IMCT                IMCT                                                                                                                    WMF1908293.TXT
MDDDK8369234201909                D89828070100PV1D20190903000060SPEAKER ASM                   M IMCTM S5MB11 TNTH  09020IMCT  S5 PTB  00004                    1030 SR        000000000000 DENSO TEN (THAILAND)190MPCL0092092                                                                                                                              *          20190829 IMCT                IMCT                                                                                                                    WMF1908293.TXT
MDDDK8369235201909                D89828070100PV1D20190903000180SPEAKER ASM                   M IMCTM S5MB11 TNTH  09020IMCT  S5 PTB  00004                    1300 SR        000000000000 DENSO TEN (THAILAND)190MPGL0292292190MRAL0235236                                                                                                                *          20190829 IMCT                IMCT                                                                                                                    WMF1908293.TXT
MDDDK8369236201909                D89828070100PV1D20190903000060SPEAKER ASM                   M IMCTM S5MB11 TNTH  09020IMCT  S5 PTB  00004                    1600 SR        000000000000 DENSO TEN (THAILAND)190MRTL0069069                                                                                                                              *          20190829 IMCT                IMCT                                                                                                                    WMF1908293.TXT
MDDDK8369237201909                D89828070100PV4D20190903000060SPEAKER ASM                   M IMCTM S0FL05 TNTH  09020IMCT  S0 PTB  00004                    1030 SR        000000000000 DENSO TEN (THAILAND)190MRHU0027027                                                                                                                              *          20190829 IMCT                IMCT                                                                                                                    WMF1908293.TXT
MDDDK8369238201909                D89828070200PV1D20190903000060SPEAKER ASM                   M IMCTM S5MA14 TNTH  09020IMCT  S5 PTB  00005                    0400 SR        000000000000 DENSO TEN (THAILAND)190MRGL0006006                                                                                                                              *          20190829 IMCT                IMCT                                                                                                                    WMF1908293.TXT
MDDDK8369239201909                D89828070200PV1D20190903000060SPEAKER ASM                   M IMCTM S5MA14 TNTH  09020IMCT  S5 PTB  00005                    1600 SR        000000000000 DENSO TEN (THAILAND)190MRTL0069069                                                                                                                              *          20190829 IMCT                IMCT                                                                                                                    WMF1908293.TXT
MDDDK8369240201909                D89828070200PV4D20190903000060SPEAKER ASM                   M IMCTM S0FR05 TNTH  09020IMCT  S0 PTB  00005                    1030 SR        000000000000 DENSO TEN (THAILAND)190MRHU0027027                                                                                                                              *          20190829 IMCT                IMCT                                                                                                                    WMF1908293.TXT
MDDDK8369241201909                D89828070300PT1D20190903000060SPEAKER ASM                   M IMCTM S5NB082TNTH  09020IMCT  S5 PTB  00015                    0400 SR        000000000000 DENSO TEN (THAILAND)190MRGL0006006                                                                                                                              *          20190829 IMCT                IMCT                                                                                                                    WMF1908293.TXT
MDDDK8369242201909                D89828070300PT1D20190903000060SPEAKER ASM                   M IMCTM S5NB082TNTH  09020IMCT  S5 PTB  00015                    1030 SR        000000000000 DENSO TEN (THAILAND)190MPCL0092092                                                                                                                              *          20190829 IMCT                IMCT                                                                                                                    WMF1908293.TXT
MDDDK8369243201909                D89828070300PT1D20190903000060SPEAKER ASM                   M IMCTM S5NB082TNTH  09020IMCT  S5 PTB  00015                    1300 SR        000000000000 DENSO TEN (THAILAND)190MPGL0292292                                                                                                                              *          20190829 IMCT                IMCT                                                                                                                    WMF1908293.TXT
MDDDK8369244201909                D89828070300PT1D20190903000060SPEAKER ASM                   M IMCTM S5NB082TNTH  09020IMCT  S5 PTB  00015                    1600 SR        000000000000 DENSO TEN (THAILAND)190MRTL0069069                                                                                                                              *          20190829 IMCT                IMCT                                                                                                                    WMF1908293.TXT
MDDDK8369245201909                D89828070300PT4D20190903000060SPEAKER ASM                   M IMCTM S9TS02 TNTH  09020IMCT  S9 PTB  00015                    1030 SR        000000000000 DENSO TEN (THAILAND)190MRHU0027027                                                                                                                              *          20190829 IMCT                IMCT                                                                                                                    WMF1908293.TXT
MDDDK8369246201909                D89831228310PT1D20190903000030RADIO;AM/FM,CD                M IMCTM S55000 TNTH  09020IMCT  S5 CPB  00003                    1030 SR        000000000000 DENSO TEN (THAILAND)190MPCL0092092                                                                                                                              *          20190829 IMCT                IMCT                                                                                                                    WMF1908293.TXT
MDDDK8369247201909                D89831228310PT1D20190903000030RADIO;AM/FM,CD                M IMCTM S55000 TNTH  09020IMCT  S5 CPB  00003                    1300 SR        000000000000 DENSO TEN (THAILAND)190MPGL0292292                                                                                                                              *          20190829 IMCT                IMCT                                                                                                                    WMF1908293.TXT
MDDDK8369248201909                D89831228410PT1D20190903000030RADIO;AM/FM,CD                M IMCTM S55000 TNTH  09020IMCT  S5 CPB  00003                    0400 SR        000000000000 DENSO TEN (THAILAND)190MRGL0006006                                                                                                                              *          20190829 IMCT                IMCT                                                                                                                    WMF1908293.TXT
MDDDK8369249201909                D89848581500PT1D20190903000030RADIO;AM/FM CD D              M IMCTM S5NC06 TNTH  09020IMCT  S5 PTB  00003                    1600 SR        000000000000 DENSO TEN (THAILAND)190MRTL0069069                                                                                                                              *          20190829 IMCT                IMCT                                                                                                                    WMF1908293.TXT
MDDDK8369250201909                D89848581500PT4D20190903000030RADIO;AM/FM CD D              M IMCTM S9CO001TNTH  09020IMCT  S9 PTB  00003                    1030 SR        000000000000 DENSO TEN (THAILAND)190MRHU0027027                                                                                                                              *          20190829 IMCT                IMCT                                                                                                                    WMF1908293.TXT
MDDUK8422760201909                D89828070100PT4U20190903000030SPEAKER ASM                   M IMCTM S0FL05 TNTH  09020IMCT  S0 PTB  00004                    2100 SR        000000000000 DENSO TEN (THAILAND)190MUGU0144144                                                                                                                              *          20190829 IMCT                IMCT                                                                                                                    WMF1908293.TXT
MDDUK8422761201909                D89828070200PV4U20190903000030SPEAKER ASM                   M IMCTM S0FR05 TNTH  09020IMCT  S0 PTB  00005                    2100 SR        000000000000 DENSO TEN (THAILAND)190MUGU0144144                                                                                                                              *          20190829 IMCT                IMCT                                                                                                                    WMF1908293.TXT
MDDUK8422762201909                D89828070300PT4U20190903000030SPEAKER ASM                   M IMCTM S9TS02 TNTH  09020IMCT  S9 PTB  00015                    2100 SR        000000000000 DENSO TEN (THAILAND)190MUGU0144144                                                                                                                              *          20190829 IMCT                IMCT                                                                                                                    WMF1908293.TXT
MDEDK8343145201909                D89828070100PV1D20190902000030SPEAKER ASM                   M IMCTM S5MB11 TNTH  09020IMCT  S5 PTB  00004                    2230 SR        000000000000 DENSO TEN (THAILAND)190J94L0175175                                                                                                                              *          20190829 IMCT                IMCT                                                                                                                    WMF1908293.TXT
MDEDK8343146201909                D89828070100PV1D20190903000090SPEAKER ASM                   M IMCTM S5MB11 TNTH  09020IMCT  S5 PTB  00004                    0230 SR        000000000000 DENSO TEN (THAILAND)190J94L0176176190K07L0007008                                                                                                                *          20190829 IMCT                IMCT                                                                                                                    WMF1908293.TXT
MDEDK8343147201909                D89828070100PV1D20190903000060SPEAKER ASM                   M IMCTM S5MB11 TNTH  09020IMCT  S5 PTB  00004                    0400 SR        000000000000 DENSO TEN (THAILAND)190J85L0044044190J96L0010010                                                                                                                *          20190829 IMCT                IMCT                                                                                                                    WMF1908293.TXT
MDEDK8343148201909                D89828070100PV1D20190903000060SPEAKER ASM                   M IMCTM S5MB11 TNTH  09020IMCT  S5 PTB  00004                    2100 SR        000000000000 DENSO TEN (THAILAND)190K12L0078079                                                                                                                              *          20190829 IMCT                IMCT                                                                                                                    WMF1908293.TXT
MDEDK8343149201909                D89828070100PV1D20190903000060SPEAKER ASM                   M IMCTM S5MB11 TNTH  09020IMCT  S5 PTB  00004                    2230 SR        000000000000 DENSO TEN (THAILAND)190J81L0150151                                                                                                                              *          20190829 IMCT                IMCT                                                                                                                    WMF1908293.TXT
MDEDK8343150201909                D89828070100PV4D20190903000030SPEAKER ASM                   M IMCTM S0FL05 TNTH  09020IMCT  S0 PTB  00004                    0230 SR        000000000000 DENSO TEN (THAILAND)190K21U0099099                                                                                                                              *          20190829 IMCT                IMCT                                                                                                                    WMF1908293.TXT
MDEDK8343151201909                D89828070100PV4D20190903000030SPEAKER ASM                   M IMCTM S0FL05 TNTH  09020IMCT  S0 PTB  00004                    0400 SR        000000000000 DENSO TEN (THAILAND)190J92U0003003                                                                                                                              *          20190829 IMCT                IMCT                                                                                                                    WMF1908293.TXT
MDEDK8343152201909                D89828070100PV4D20190903000030SPEAKER ASM                   M IMCTM S0FL05 TNTH  09020IMCT  S0 PTB  00004                    0830 SR        000000000000 DENSO TEN (THAILAND)190K21U0100100                                                                                                                              *          20190829 IMCT                IMCT                                                                                                                    WMF1908293.TXT
MDEDK8343153201909                D89828070100PV4D20190903000060SPEAKER ASM                   M IMCTM S0FL05 TNTH  09020IMCT  S0 PTB  00004                    1600 SR        000000000000 DENSO TEN (THAILAND)190K19U0036036190K83U0015015                                                                                                                *          20190829 IMCT                IMCT                                                                                                                    WMF1908293.TXT
MDEDK8343154201909                D89828070200PV4D20190903000030SPEAKER ASM                   M IMCTM S0FR05 TNTH  09020IMCT  S0 PTB  00005                    0230 SR        000000000000 DENSO TEN (THAILAND)190K21U0099099                                                                                                                              *          20190829 IMCT                IMCT                                                                                                                    WMF1908293.TXT
MDEDK8343155201909                D89828070200PV4D20190903000030SPEAKER ASM                   M IMCTM S0FR05 TNTH  09020IMCT  S0 PTB  00005                    0830 SR        000000000000 DENSO TEN (THAILAND)190K21U0100100                                                                                                                              *          20190829 IMCT                IMCT                                                                                                                    WMF1908293.TXT
MDEDK8343156201909                D89828070200PV4D20190903000060SPEAKER ASM                   M IMCTM S0FR05 TNTH  09020IMCT  S0 PTB  00005                    1600 SR        000000000000 DENSO TEN (THAILAND)190K19U0036036190K83U0015015                                                                                                                *          20190829 IMCT                IMCT                                                                                                                    WMF1908293.TXT
MDEDK8343157201909                D89828070300PT4D20190903000030SPEAKER ASM                   M IMCTM S9TS02 TNTH  09020IMCT  S9 PTB  00015                    0230 SR        000000000000 DENSO TEN (THAILAND)190K21U0099099                                                                                                                              *          20190829 IMCT                IMCT                                                                                                                    WMF1908293.TXT
MDEDK8343158201909                D89828070300PT4D20190903000030SPEAKER ASM                   M IMCTM S9TS02 TNTH  09020IMCT  S9 PTB  00015                    0400 SR        000000000000 DENSO TEN (THAILAND)190J92U0003003                                                                                                                              *          20190829 IMCT                IMCT                                                                                                                    WMF1908293.TXT
MDEDK8343159201909                D89828070300PT4D20190903000030SPEAKER ASM                   M IMCTM S9TS02 TNTH  09020IMCT  S9 PTB  00015                    0830 SR        000000000000 DENSO TEN (THAILAND)190K21U0100100                                                                                                                              *          20190829 IMCT                IMCT                                                                                                                    WMF1908293.TXT
MDEDK8343160201909                D89828070300PT4D20190903000060SPEAKER ASM                   M IMCTM S9TS02 TNTH  09020IMCT  S9 PTB  00015                    1600 SR        000000000000 DENSO TEN (THAILAND)190K19U0036036190K83U0015015                                                                                                                *          20190829 IMCT                IMCT                                                                                                                    WMF1908293.TXT
MDEDK8343161201909                D89831229210PT4D20190903000015RADIO;AM/FM,CD                M IMCTM S9CO001TNTH  09020IMCT  S9 PTB  00003                    0400 SR        000000000000 DENSO TEN (THAILAND)190J92U0003003                                                                                                                              *          20190829 IMCT                IMCT                                                                                                                    WMF1908293.TXT
MDEDK8343162201909                D89838031200PT4D20190903000015RADIO;ASM DVD                 M IMCTM S9CO001TNTH  09020IMCT  S9 PTB  00003                    0230 SR        000000000000 DENSO TEN (THAILAND)190K21U0099099                                                                                                                              *          20190829 IMCT                IMCT                                                                                                                    WMF1908293.TXT
MDEDK8343163201909                D89838031200PT4D20190903000015RADIO;ASM DVD                 M IMCTM S9CO001TNTH  09020IMCT  S9 PTB  00003                    0830 SR        000000000000 DENSO TEN (THAILAND)190K21U0100100                                                                                                                              *          20190829 IMCT                IMCT                                                                                                                    WMF1908293.TXT
MDEDK8343164201909                D89838031200PT4D20190903000015RADIO;ASM DVD                 M IMCTM S9CO001TNTH  09020IMCT  S9 PTB  00003                    1600 SR        000000000000 DENSO TEN (THAILAND)190K19U0036036                                                                                                                              *          20190829 IMCT                IMCT                                                                                                                    WMF1908293.TXT
MDEUK8238463201909                D89828070100PT4U20190902000030SPEAKER ASM                   M IMCTM S0FL05 TNTH  09020IMCT  S0 PTB  00004                    2230 SR        000000000000 DENSO TEN (THAILAND)190F59U0018018                                                                                                                              *          20190829 IMCT                IMCT                                                                                                                    WMF1908293.TXT
MDEUK8238464201909                D89828070100PT4U20190903000030SPEAKER ASM                   M IMCTM S0FL05 TNTH  09020IMCT  S0 PTB  00004                    0230 SR        000000000000 DENSO TEN (THAILAND)190G32U0167167                                                                                                                              *          20190829 IMCT                IMCT                                                                                                                    WMF1908293.TXT
MDEUK8238465201909                D89828070100PT4U20190903000030SPEAKER ASM                   M IMCTM S0FL05 TNTH  09020IMCT  S0 PTB  00004                    1300 SR        000000000000 DENSO TEN (THAILAND)190G31U0103103                                                                                                                              *          20190829 IMCT                IMCT                                                                                                                    WMF1908293.TXT
MDEUK8238466201909                D89828070200PV4U20190902000030SPEAKER ASM                   M IMCTM S0FR05 TNTH  09020IMCT  S0 PTB  00005                    2230 SR        000000000000 DENSO TEN (THAILAND)190F59U0018018                                                                                                                              *          20190829 IMCT                IMCT                                                                                                                    WMF1908293.TXT
MDEUK8238467201909                D89828070200PV4U20190903000030SPEAKER ASM                   M IMCTM S0FR05 TNTH  09020IMCT  S0 PTB  00005                    0230 SR        000000000000 DENSO TEN (THAILAND)190G32U0167167                                                                                                                              *          20190829 IMCT                IMCT                                                                                                                    WMF1908293.TXT
MDEUK8238468201909                D89828070200PV4U20190903000030SPEAKER ASM                   M IMCTM S0FR05 TNTH  09020IMCT  S0 PTB  00005                    1300 SR        000000000000 DENSO TEN (THAILAND)190G31U0103103                                                                                                                              *          20190829 IMCT                IMCT                                                                                                                    WMF1908293.TXT
MDEUK8238469201909                D89828070300PT4U20190902000030SPEAKER ASM                   M IMCTM S9TS02 TNTH  09020IMCT  S9 PTB  00015                    2230 SR        000000000000 DENSO TEN (THAILAND)190F59U0018018                                                                                                                              *          20190829 IMCT                IMCT                                                                                                                    WMF1908293.TXT
MDEUK8238470201909                D89828070300PT4U20190903000030SPEAKER ASM                   M IMCTM S9TS02 TNTH  09020IMCT  S9 PTB  00015                    0230 SR        000000000000 DENSO TEN (THAILAND)190G32U0167167                                                                                                                              *          20190829 IMCT                IMCT                                                                                                                    WMF1908293.TXT
MDEUK8238471201909                D89828070300PT4U20190903000030SPEAKER ASM                   M IMCTM S9TS02 TNTH  09020IMCT  S9 PTB  00015                    1300 SR        000000000000 DENSO TEN (THAILAND)190G31U0103103                                                                                                                              *          20190829 IMCT                IMCT                                                                                                                    WMF1908293.TXT
