REC2019080220190802ISUZU                              9      
MDEFK8T01619201908                D89828070100PV4F20190807000022SPEAKER ASM                   M IMCTM S7FL05 TNTH  09020IMCT  S7 PTB  00004                    1600 SR        000000000000 DENSO TEN (THAILAND)190K08R0075   190K68R0026   S190801505    S190801515    000000                                                                              *R         20190802 IMCT                IMCT                                                                                                                    RMF1908028.TXT
MDEFK8T01620201908                D89828070200PV4F20190807000002SPEAKER ASM                   M IMCTM S7FL05 TNTH  09020IMCT  S7 PTB  00005                    0400 SR        000000000000 DENSO TEN (THAILAND)190G63R0042   190G63R0042   D190801415    D190801415    000000                                                                              *R         20190802 IMCT                IMCT                                                                                                                    RMF1908028.TXT
MDEFK8T01621201908                D89828070300PT4F20190806000022SPEAKER ASM                   M IMCTM S7TS02 TNTH  09020IMCT  S7 PTB  00015                    2100 SR        000000000000 DENSO TEN (THAILAND)190D81R0014   190G63R0042   D190801301    D190801415    000000                                                                              *R         20190802 IMCT                IMCT                                                                                                                    RMF1908028.TXT
MDEFK8T01622201908                D89848581900PT4F20190806000003RADIO;AM/FM CD D              M IMCTM S7TS01 TNTH  09020IMCT  S7 PTB  00003                    2100 SR        000000000000 DENSO TEN (THAILAND)190D81R0014   190D81R0016   D190801301    D190801303    000000                                                                              *R         20190802 IMCT                IMCT                                                                                                                    RMF1908028.TXT
MDEFK8T01623201908                D89848582010PT4F20190806000006RADIO;AM/FM CD D              M IMCTM S7TS01 TNTH  09020IMCT  S7 PTB  00003                    2100 SR        000000000000 DENSO TEN (THAILAND)190F44R0047   190F44R0052   D190801304    D190801309    000000                                                                              *R         20190802 IMCT                IMCT                                                                                                                    RMF1908028.TXT
MDEFK8203044201908                D89828070100PV4F20190806000032SPEAKER ASM                   M IMCTM S7FL05 TNTH  09020IMCT  S7 PTB  00004                    2100 SR        000000000000 DENSO TEN (THAILAND)190D81R0014   190F84R0029   D190801301    D190801401    000000                                                                              *R         20190802 IMCT                IMCT                                                                                                                    RMF1908028.TXT
MDEFK8203045201908                D89828070100PV4F20190807000028SPEAKER ASM                   M IMCTM S7FL05 TNTH  09020IMCT  S7 PTB  00004                    0400 SR        000000000000 DENSO TEN (THAILAND)190F84R0030   190G63R0042   D190801402    D190801415    000000                                                                              *R         20190802 IMCT                IMCT                                                                                                                    RMF1908028.TXT
MDEFK8203046201908                D89828070100PV4F20190807000008SPEAKER ASM                   M IMCTM S7FL05 TNTH  09020IMCT  S7 PTB  00004                    1300 SR        000000000000 DENSO TEN (THAILAND)190K08R0071   190K08R0074   S190801501    S190801504    000000                                                                              *R         20190802 IMCT                IMCT                                                                                                                    RMF1908028.TXT
MDEFK8203047201908                D89828070200PV4F20190806000020SPEAKER ASM                   M IMCTM S7FL05 TNTH  09020IMCT  S7 PTB  00005                    2100 SR        000000000000 DENSO TEN (THAILAND)190D81R0014   190G63R0041   D190801301    D190801414    000000                                                                              *R         20190802 IMCT                IMCT                                                                                                                    RMF1908028.TXT
