REC2019082220190822ISUZU                              26     
MAKK98102623201908D3               89825451200P3YK20190903000060SPEAKER ASM;ROOF              M IMCTM CM1    TNTH  09020IMKDC KA PTB  00036  K0                1431DES        000000000000 DENSO TEN (THAILAND)                                                                                                                                            *G         20190822 IMCT                IMCT                                                                                                                    WMF1908228.TXT
MAKK98102624201908D3               89825451200P3YK20190905000030SPEAKER ASM;ROOF              M IMCTM CM1    TNTH  09020IMKDC KA PTB  00036  K0                1431DES        000000000000 DENSO TEN (THAILAND)                                                                                                                                            *G         20190822 IMCT                IMCT                                                                                                                    WMF1908228.TXT
MAKK98102625201908D3               89828070100P3YK20190902000060SPEAKER ASM                   M IMCTM CM1    TNTH  09020IMKDC KA PTB  00004  K0                1431DES        000000000000 DENSO TEN (THAILAND)                                                                                                                                            *G         20190822 IMCT                IMCT                                                                                                                    WMF1908228.TXT
MAKK98102626201908N3               89828070100P3YK20190903000120SPEAKER ASM                   M IMCTM CM1    TNTH  09020IMKDC KA PTB  00004  K0                0231NES        000000000000 DENSO TEN (THAILAND)                                                                                                                                            *G         20190822 IMCT                IMCT                                                                                                                    WMF1908228.TXT
MAKK98102627201908D3               89828070100P3YK20190903000060SPEAKER ASM                   M IMCTM CM1    TNTH  09020IMKDC KA PTB  00004  K0                1431DES        000000000000 DENSO TEN (THAILAND)                                                                                                                                            *G         20190822 IMCT                IMCT                                                                                                                    WMF1908228.TXT
MAKK98102628201908N3               89828070100P3YK20190904000120SPEAKER ASM                   M IMCTM CM1    TNTH  09020IMKDC KA PTB  00004  K0                0231NES        000000000000 DENSO TEN (THAILAND)                                                                                                                                            *G         20190822 IMCT                IMCT                                                                                                                    WMF1908228.TXT
MAKK98102629201908D3               89828070100P3YK20190904000090SPEAKER ASM                   M IMCTM CM1    TNTH  09020IMKDC KA PTB  00004  K0                1431DES        000000000000 DENSO TEN (THAILAND)                                                                                                                                            *G         20190822 IMCT                IMCT                                                                                                                    WMF1908228.TXT
MAKK98102630201908N3               89828070100P3YK20190905000030SPEAKER ASM                   M IMCTM CM1    TNTH  09020IMKDC KA PTB  00004  K0                0231NES        000000000000 DENSO TEN (THAILAND)                                                                                                                                            *G         20190822 IMCT                IMCT                                                                                                                    WMF1908228.TXT
MAKK98102631201908D3               89828070100P3YK20190905000030SPEAKER ASM                   M IMCTM CM1    TNTH  09020IMKDC KA PTB  00004  K0                1431DES        000000000000 DENSO TEN (THAILAND)                                                                                                                                            *G         20190822 IMCT                IMCT                                                                                                                    WMF1908228.TXT
MAKK98102632201908N3               89828070100P3YK20190906000090SPEAKER ASM                   M IMCTM CM1    TNTH  09020IMKDC KA PTB  00004  K0                0231NES        000000000000 DENSO TEN (THAILAND)                                                                                                                                            *G         20190822 IMCT                IMCT                                                                                                                    WMF1908228.TXT
MAKK98102633201908N3               89828070200P3YK20190903000060SPEAKER ASM                   M IMCTM CM1    TNTH  09020IMKDC KA PTB  00005  K0                0231NES        000000000000 DENSO TEN (THAILAND)                                                                                                                                            *G         20190822 IMCT                IMCT                                                                                                                    WMF1908228.TXT
MAKK98102634201908D3               89828070200P3YK20190903000030SPEAKER ASM                   M IMCTM CM1    TNTH  09020IMKDC KA PTB  00005  K0                1431DES        000000000000 DENSO TEN (THAILAND)                                                                                                                                            *G         20190822 IMCT                IMCT                                                                                                                    WMF1908228.TXT
MAKK98102635201908N3               89828070200P3YK20190904000060SPEAKER ASM                   M IMCTM CM1    TNTH  09020IMKDC KA PTB  00005  K0                0231NES        000000000000 DENSO TEN (THAILAND)                                                                                                                                            *G         20190822 IMCT                IMCT                                                                                                                    WMF1908228.TXT
MAKK98102636201908D3               89828070200P3YK20190905000030SPEAKER ASM                   M IMCTM CM1    TNTH  09020IMKDC KA PTB  00005  K0                1431DES        000000000000 DENSO TEN (THAILAND)                                                                                                                                            *G         20190822 IMCT                IMCT                                                                                                                    WMF1908228.TXT
MAKK98102637201908N3               89828070200P3YK20190906000030SPEAKER ASM                   M IMCTM CM1    TNTH  09020IMKDC KA PTB  00005  K0                0231NES        000000000000 DENSO TEN (THAILAND)                                                                                                                                            *G         20190822 IMCT                IMCT                                                                                                                    WMF1908228.TXT
MAKK98102638201908D3               89828070300P3YK20190902000030SPEAKER ASM                   M IMCTM CM1    TNTH  09020IMKDC KA PTB  00015  K0                1431DES        000000000000 DENSO TEN (THAILAND)                                                                                                                                            *G         20190822 IMCT                IMCT                                                                                                                    WMF1908228.TXT
MAKK98102639201908N3               89828070300P3YK20190903000090SPEAKER ASM                   M IMCTM CM1    TNTH  09020IMKDC KA PTB  00015  K0                0231NES        000000000000 DENSO TEN (THAILAND)                                                                                                                                            *G         20190822 IMCT                IMCT                                                                                                                    WMF1908228.TXT
MAKK98102640201908D3               89828070300P3YK20190903000030SPEAKER ASM                   M IMCTM CM1    TNTH  09020IMKDC KA PTB  00015  K0                1431DES        000000000000 DENSO TEN (THAILAND)                                                                                                                                            *G         20190822 IMCT                IMCT                                                                                                                    WMF1908228.TXT
MAKK98102641201908N3               89828070300P3YK20190904000060SPEAKER ASM                   M IMCTM CM1    TNTH  09020IMKDC KA PTB  00015  K0                0231NES        000000000000 DENSO TEN (THAILAND)                                                                                                                                            *G         20190822 IMCT                IMCT                                                                                                                    WMF1908228.TXT
MAKK98102642201908D3               89828070300P3YK20190904000030SPEAKER ASM                   M IMCTM CM1    TNTH  09020IMKDC KA PTB  00015  K0                1431DES        000000000000 DENSO TEN (THAILAND)                                                                                                                                            *G         20190822 IMCT                IMCT                                                                                                                    WMF1908228.TXT
MAKK98102643201908N3               89828070300P3YK20190905000030SPEAKER ASM                   M IMCTM CM1    TNTH  09020IMKDC KA PTB  00015  K0                0231NES        000000000000 DENSO TEN (THAILAND)                                                                                                                                            *G         20190822 IMCT                IMCT                                                                                                                    WMF1908228.TXT
MAKK98102644201908D3               89828070300P3YK20190905000030SPEAKER ASM                   M IMCTM CM1    TNTH  09020IMKDC KA PTB  00015  K0                1431DES        000000000000 DENSO TEN (THAILAND)                                                                                                                                            *G         20190822 IMCT                IMCT                                                                                                                    WMF1908228.TXT
MAKK98102645201908N3               89828070300P3YK20190906000030SPEAKER ASM                   M IMCTM CM1    TNTH  09020IMKDC KA PTB  00015  K0                0231NES        000000000000 DENSO TEN (THAILAND)                                                                                                                                            *G         20190822 IMCT                IMCT                                                                                                                    WMF1908228.TXT
MAKK98102646201908N3               89831228410P3YK20190906000015RADIO;AM/FM,CD                M IMCTM CM1    TNTH  09020IMKDC KA   CPB00003  K0                0231NES        000000000000 DENSO TEN (THAILAND)                                                                                                                                            *G         20190822 IMCT                IMCT                                                                                                                    WMF1908228.TXT
MAKK98107478201908D3               89828070100P3YK20190902000030SPEAKER ASM                   M IMCTM PK3    TNTH  09020IMKDC KA PTB  00004  K0                1431DES        000000000000 DENSO TEN (THAILAND)                                                                                                                                            *G         20190822 IMCT                IMCT                                                                                                                    WMF1908228.TXT
MAKK98107479201908D3               89828070200P3YK20190902000030SPEAKER ASM                   M IMCTM PK3    TNTH  09020IMKDC KA PTB  00005  K0                1431DES        000000000000 DENSO TEN (THAILAND)                                                                                                                                            *G         20190822 IMCT                IMCT                                                                                                                    WMF1908228.TXT
