REC2019082620190826ISUZU                              4      
MDEFK8T17034201908                D89750126100PT4F20190830000001RADIO;AM/FM CD D              M IMCTM S7TS01 TNTH  09020IMCT  S7 PTB  00003                    0830 SR        000000000000 DENSO TEN (THAILAND)190D12R0052   190D12R0052   D190804501    D190804501    000000                                                                              *R         20190826 IMCT                IMCT                                                                                                                    RMF1908264.TXT
MDEFK8T17035201908                D89828070100PV4F20190830000030SPEAKER ASM                   M IMCTM S7FL05 TNTH  09020IMCT  S7 PTB  00004                    0830 SR        000000000000 DENSO TEN (THAILAND)190D12R0052   190L81R0015   D190804501    D190804515    000000                                                                              *R         20190826 IMCT                IMCT                                                                                                                    RMF1908264.TXT
MDEFK8T17036201908                D89828070200PV4F20190830000030SPEAKER ASM                   M IMCTM S7FL05 TNTH  09020IMCT  S7 PTB  00005                    0830 SR        000000000000 DENSO TEN (THAILAND)190D12R0052   190L81R0015   D190804501    D190804515    000000                                                                              *R         20190826 IMCT                IMCT                                                                                                                    RMF1908264.TXT
MDEFK8T17037201908                D89828070300PT4F20190830000030SPEAKER ASM                   M IMCTM S7TS02 TNTH  09020IMCT  S7 PTB  00015                    0830 SR        000000000000 DENSO TEN (THAILAND)190D12R0052   190L81R0015   D190804501    D190804515    000000                                                                              *R         20190826 IMCT                IMCT                                                                                                                    RMF1908264.TXT
