REC2019080120190801ISUZU                              26     
MAKK97134556201908N3               89825451200P3YK20190817000030SPEAKER ASM;ROOF              M IMCTM CM1    TNTH  09020IMKDC KA PTB  00036  K0                0231NES        000000000000 DENSO TEN (THAILAND)                                                                                                                                            *G         20190801 IMCT                IMCT                                                                                                                    WMF1908014.TXT
MAKK97134557201908D3               89825451200P3YK20190817000030SPEAKER ASM;ROOF              M IMCTM CM1    TNTH  09020IMKDC KA PTB  00036  K0                1431DES        000000000000 DENSO TEN (THAILAND)                                                                                                                                            *G         20190801 IMCT                IMCT                                                                                                                    WMF1908014.TXT
MAKK97134558201908D3               89828070100P3YK20190814000060SPEAKER ASM                   M IMCTM CM1    TNTH  09020IMKDC KA PTB  00004  K0                1431DES        000000000000 DENSO TEN (THAILAND)                                                                                                                                            *G         20190801 IMCT                IMCT                                                                                                                    WMF1908014.TXT
MAKK97134559201908N3               89828070100P3YK20190815000090SPEAKER ASM                   M IMCTM CM1    TNTH  09020IMKDC KA PTB  00004  K0                0231NES        000000000000 DENSO TEN (THAILAND)                                                                                                                                            *G         20190801 IMCT                IMCT                                                                                                                    WMF1908014.TXT
MAKK97134560201908D3               89828070100P3YK20190815000090SPEAKER ASM                   M IMCTM CM1    TNTH  09020IMKDC KA PTB  00004  K0                1431DES        000000000000 DENSO TEN (THAILAND)                                                                                                                                            *G         20190801 IMCT                IMCT                                                                                                                    WMF1908014.TXT
MAKK97134561201908N3               89828070100P3YK20190816000030SPEAKER ASM                   M IMCTM CM1    TNTH  09020IMKDC KA PTB  00004  K0                0231NES        000000000000 DENSO TEN (THAILAND)                                                                                                                                            *G         20190801 IMCT                IMCT                                                                                                                    WMF1908014.TXT
MAKK97134562201908D3               89828070100P3YK20190816000060SPEAKER ASM                   M IMCTM CM1    TNTH  09020IMKDC KA PTB  00004  K0                1431DES        000000000000 DENSO TEN (THAILAND)                                                                                                                                            *G         20190801 IMCT                IMCT                                                                                                                    WMF1908014.TXT
MAKK97134563201908N3               89828070100P3YK20190817000120SPEAKER ASM                   M IMCTM CM1    TNTH  09020IMKDC KA PTB  00004  K0                0231NES        000000000000 DENSO TEN (THAILAND)                                                                                                                                            *G         20190801 IMCT                IMCT                                                                                                                    WMF1908014.TXT
MAKK97134564201908D3               89828070100P3YK20190817000090SPEAKER ASM                   M IMCTM CM1    TNTH  09020IMKDC KA PTB  00004  K0                1431DES        000000000000 DENSO TEN (THAILAND)                                                                                                                                            *G         20190801 IMCT                IMCT                                                                                                                    WMF1908014.TXT
MAKK97134565201908N3               89828070100P3YK20190818000090SPEAKER ASM                   M IMCTM CM1    TNTH  09020IMKDC KA PTB  00004  K0                0231NES        000000000000 DENSO TEN (THAILAND)                                                                                                                                            *G         20190801 IMCT                IMCT                                                                                                                    WMF1908014.TXT
MAKK97134566201908D3               89828070200P3YK20190814000030SPEAKER ASM                   M IMCTM CM1    TNTH  09020IMKDC KA PTB  00005  K0                1431DES        000000000000 DENSO TEN (THAILAND)                                                                                                                                            *G         20190801 IMCT                IMCT                                                                                                                    WMF1908014.TXT
MAKK97134567201908N3               89828070200P3YK20190815000030SPEAKER ASM                   M IMCTM CM1    TNTH  09020IMKDC KA PTB  00005  K0                0231NES        000000000000 DENSO TEN (THAILAND)                                                                                                                                            *G         20190801 IMCT                IMCT                                                                                                                    WMF1908014.TXT
MAKK97134568201908D3               89828070200P3YK20190815000030SPEAKER ASM                   M IMCTM CM1    TNTH  09020IMKDC KA PTB  00005  K0                1431DES        000000000000 DENSO TEN (THAILAND)                                                                                                                                            *G         20190801 IMCT                IMCT                                                                                                                    WMF1908014.TXT
MAKK97134569201908N3               89828070200P3YK20190817000060SPEAKER ASM                   M IMCTM CM1    TNTH  09020IMKDC KA PTB  00005  K0                0231NES        000000000000 DENSO TEN (THAILAND)                                                                                                                                            *G         20190801 IMCT                IMCT                                                                                                                    WMF1908014.TXT
MAKK97134570201908D3               89828070200P3YK20190817000060SPEAKER ASM                   M IMCTM CM1    TNTH  09020IMKDC KA PTB  00005  K0                1431DES        000000000000 DENSO TEN (THAILAND)                                                                                                                                            *G         20190801 IMCT                IMCT                                                                                                                    WMF1908014.TXT
MAKK97134571201908N3               89828070200P3YK20190818000030SPEAKER ASM                   M IMCTM CM1    TNTH  09020IMKDC KA PTB  00005  K0                0231NES        000000000000 DENSO TEN (THAILAND)                                                                                                                                            *G         20190801 IMCT                IMCT                                                                                                                    WMF1908014.TXT
MAKK97134572201908D3               89828070300P3YK20190814000030SPEAKER ASM                   M IMCTM CM1    TNTH  09020IMKDC KA PTB  00015  K0                1431DES        000000000000 DENSO TEN (THAILAND)                                                                                                                                            *G         20190801 IMCT                IMCT                                                                                                                    WMF1908014.TXT
MAKK97134573201908N3               89828070300P3YK20190815000030SPEAKER ASM                   M IMCTM CM1    TNTH  09020IMKDC KA PTB  00015  K0                0231NES        000000000000 DENSO TEN (THAILAND)                                                                                                                                            *G         20190801 IMCT                IMCT                                                                                                                    WMF1908014.TXT
MAKK97134574201908D3               89828070300P3YK20190815000030SPEAKER ASM                   M IMCTM CM1    TNTH  09020IMKDC KA PTB  00015  K0                1431DES        000000000000 DENSO TEN (THAILAND)                                                                                                                                            *G         20190801 IMCT                IMCT                                                                                                                    WMF1908014.TXT
MAKK97134575201908N3               89828070300P3YK20190817000150SPEAKER ASM                   M IMCTM CM1    TNTH  09020IMKDC KA PTB  00015  K0                0231NES        000000000000 DENSO TEN (THAILAND)                                                                                                                                            *G         20190801 IMCT                IMCT                                                                                                                    WMF1908014.TXT
MAKK97134576201908D3               89828070300P3YK20190817000060SPEAKER ASM                   M IMCTM CM1    TNTH  09020IMKDC KA PTB  00015  K0                1431DES        000000000000 DENSO TEN (THAILAND)                                                                                                                                            *G         20190801 IMCT                IMCT                                                                                                                    WMF1908014.TXT
MAKK97134577201908N3               89828070300P3YK20190818000030SPEAKER ASM                   M IMCTM CM1    TNTH  09020IMKDC KA PTB  00015  K0                0231NES        000000000000 DENSO TEN (THAILAND)                                                                                                                                            *G         20190801 IMCT                IMCT                                                                                                                    WMF1908014.TXT
MAKK97134578201908D3               89831228410P3YK20190814000015RADIO;AM/FM,CD                M IMCTM CM1    TNTH  09020IMKDC KA   CPB00003  K0                1431DES        000000000000 DENSO TEN (THAILAND)                                                                                                                                            *G         20190801 IMCT                IMCT                                                                                                                    WMF1908014.TXT
MAKK97134579201908D3               89831228410P3YK20190816000015RADIO;AM/FM,CD                M IMCTM CM1    TNTH  09020IMKDC KA   CPB00003  K0                1431DES        000000000000 DENSO TEN (THAILAND)                                                                                                                                            *G         20190801 IMCT                IMCT                                                                                                                    WMF1908014.TXT
MAKK97139395201908D3               89828070100P3YK20190814000030SPEAKER ASM                   M IMCTM PK3    TNTH  09020IMKDC KA PTB  00004  K0                1431DES        000000000000 DENSO TEN (THAILAND)                                                                                                                                            *G         20190801 IMCT                IMCT                                                                                                                    WMF1908014.TXT
MAKK97139396201908D3               89828070200P3YK20190814000030SPEAKER ASM                   M IMCTM PK3    TNTH  09020IMKDC KA PTB  00005  K0                1431DES        000000000000 DENSO TEN (THAILAND)                                                                                                                                            *G         20190801 IMCT                IMCT                                                                                                                    WMF1908014.TXT
