REC2019083020190830ISUZU                              61     
MDDDK8375602201909                D89821984430PT1D20190903000030RADIO;AM/FM,CD                M IMCTM S5NC06 TNTH  09020IMCT  S5 PTB  00005                    2230 SR        000000000000 DENSO TEN (THAILAND)190MRBL0079079                                                                                                                              *          20190830 IMCT                IMCT                                                                                                                    WMF190830A.TXT
MDDDK8375603201909                D89821984430PT1D20190904000060RADIO;AM/FM,CD                M IMCTM S5NC06 TNTH  09020IMCT  S5 PTB  00005                    0400 SR        000000000000 DENSO TEN (THAILAND)190MRAL0237238                                                                                                                              *          20190830 IMCT                IMCT                                                                                                                    WMF190830A.TXT
MDDDK8375604201909                D89821984430PT1D20190904000030RADIO;AM/FM,CD                M IMCTM S5NC06 TNTH  09020IMCT  S5 PTB  00005                    1030 SR        000000000000 DENSO TEN (THAILAND)190MNGL0250250                                                                                                                              *          20190830 IMCT                IMCT                                                                                                                    WMF190830A.TXT
MDDDK8375605201909                D89821984430PT1D20190904000030RADIO;AM/FM,CD                M IMCTM S5NC06 TNTH  09020IMCT  S5 PTB  00005                    2230 SR        000000000000 DENSO TEN (THAILAND)190MYAL0319319                                                                                                                              *          20190830 IMCT                IMCT                                                                                                                    WMF190830A.TXT
MDDDK8375606201909                D89828070100PV1D20190903000060SPEAKER ASM                   M IMCTM S5MB11 TNTH  09020IMCT  S5 PTB  00004                    2230 SR        000000000000 DENSO TEN (THAILAND)190MRBL0079079                                                                                                                              *          20190830 IMCT                IMCT                                                                                                                    WMF190830A.TXT
MDDDK8375607201909                D89828070100PV1D20190904000120SPEAKER ASM                   M IMCTM S5MB11 TNTH  09020IMCT  S5 PTB  00004                    0400 SR        000000000000 DENSO TEN (THAILAND)190MRAL0237238                                                                                                                              *          20190830 IMCT                IMCT                                                                                                                    WMF190830A.TXT
MDDDK8375608201909                D89828070100PV1D20190904000060SPEAKER ASM                   M IMCTM S5MB11 TNTH  09020IMCT  S5 PTB  00004                    0830 SR        000000000000 DENSO TEN (THAILAND)190MPFL0098098                                                                                                                              *          20190830 IMCT                IMCT                                                                                                                    WMF190830A.TXT
MDDDK8375609201909                D89828070100PV1D20190904000060SPEAKER ASM                   M IMCTM S5MB11 TNTH  09020IMCT  S5 PTB  00004                    1030 SR        000000000000 DENSO TEN (THAILAND)190MNGL0250250                                                                                                                              *          20190830 IMCT                IMCT                                                                                                                    WMF190830A.TXT
MDDDK8375610201909                D89828070100PV1D20190904000120SPEAKER ASM                   M IMCTM S5MB11 TNTH  09020IMCT  S5 PTB  00004                    1300 SR        000000000000 DENSO TEN (THAILAND)190MPCL0093093190MRVL0036036                                                                                                                *          20190830 IMCT                IMCT                                                                                                                    WMF190830A.TXT
MDDDK8375611201909                D89828070100PV1D20190904000060SPEAKER ASM                   M IMCTM S5MB11 TNTH  09020IMCT  S5 PTB  00004                    2230 SR        000000000000 DENSO TEN (THAILAND)190MYAL0319319                                                                                                                              *          20190830 IMCT                IMCT                                                                                                                    WMF190830A.TXT
MDDDK8375612201909                D89828070100PV4D20190904000060SPEAKER ASM                   M IMCTM S0FL05 TNTH  09020IMCT  S0 PTB  00004                    1300 SR        000000000000 DENSO TEN (THAILAND)190MRTU0085085                                                                                                                              *          20190830 IMCT                IMCT                                                                                                                    WMF190830A.TXT
MDDDK8375613201909                D89828070200PV1D20190904000060SPEAKER ASM                   M IMCTM S5MA14 TNTH  09020IMCT  S5 PTB  00005                    1300 SR        000000000000 DENSO TEN (THAILAND)190MRVL0036036                                                                                                                              *          20190830 IMCT                IMCT                                                                                                                    WMF190830A.TXT
MDDDK8375614201909                D89828070200PV4D20190904000060SPEAKER ASM                   M IMCTM S0FR05 TNTH  09020IMCT  S0 PTB  00005                    1300 SR        000000000000 DENSO TEN (THAILAND)190MRTU0085085                                                                                                                              *          20190830 IMCT                IMCT                                                                                                                    WMF190830A.TXT
MDDDK8375615201909                D89828070300PT1D20190904000060SPEAKER ASM                   M IMCTM S5NB082TNTH  09020IMCT  S5 PTB  00015                    0830 SR        000000000000 DENSO TEN (THAILAND)190MPFL0098098                                                                                                                              *          20190830 IMCT                IMCT                                                                                                                    WMF190830A.TXT
MDDDK8375616201909                D89828070300PT1D20190904000120SPEAKER ASM                   M IMCTM S5NB082TNTH  09020IMCT  S5 PTB  00015                    1300 SR        000000000000 DENSO TEN (THAILAND)190MPCL0093093190MRVL0036036                                                                                                                *          20190830 IMCT                IMCT                                                                                                                    WMF190830A.TXT
MDDDK8375617201909                D89828070300PT4D20190904000060SPEAKER ASM                   M IMCTM S9TS02 TNTH  09020IMCT  S9 PTB  00015                    1300 SR        000000000000 DENSO TEN (THAILAND)190MRTU0085085                                                                                                                              *          20190830 IMCT                IMCT                                                                                                                    WMF190830A.TXT
MDDDK8375618201909                D89831228310PT1D20190904000030RADIO;AM/FM,CD                M IMCTM S55000 TNTH  09020IMCT  S5 CPB  00003                    0830 SR        000000000000 DENSO TEN (THAILAND)190MPFL0098098                                                                                                                              *          20190830 IMCT                IMCT                                                                                                                    WMF190830A.TXT
MDDDK8375619201909                D89831228310PT1D20190904000030RADIO;AM/FM,CD                M IMCTM S55000 TNTH  09020IMCT  S5 CPB  00003                    1300 SR        000000000000 DENSO TEN (THAILAND)190MPCL0093093                                                                                                                              *          20190830 IMCT                IMCT                                                                                                                    WMF190830A.TXT
MDDDK8375620201909                D89848581500PT4D20190904000030RADIO;AM/FM CD D              M IMCTM S9CO001TNTH  09020IMCT  S9 PTB  00003                    1300 SR        000000000000 DENSO TEN (THAILAND)190MRTU0085085                                                                                                                              *          20190830 IMCT                IMCT                                                                                                                    WMF190830A.TXT
MDDUK8423804201909                D89828070100PT4U20190904000030SPEAKER ASM                   M IMCTM S0FL05 TNTH  09020IMCT  S0 PTB  00004                    1600 SR        000000000000 DENSO TEN (THAILAND)190MUEU0222222                                                                                                                              *          20190830 IMCT                IMCT                                                                                                                    WMF190830A.TXT
MDDUK8423805201909                D89828070200PV4U20190904000030SPEAKER ASM                   M IMCTM S0FR05 TNTH  09020IMCT  S0 PTB  00005                    1600 SR        000000000000 DENSO TEN (THAILAND)190MUEU0222222                                                                                                                              *          20190830 IMCT                IMCT                                                                                                                    WMF190830A.TXT
MDDUK8423806201909                D89828070300PT4U20190904000030SPEAKER ASM                   M IMCTM S9TS02 TNTH  09020IMCT  S9 PTB  00015                    1600 SR        000000000000 DENSO TEN (THAILAND)190MUEU0222222                                                                                                                              *          20190830 IMCT                IMCT                                                                                                                    WMF190830A.TXT
MDEDK8350739201909                D89828070100PV1D20190903000030SPEAKER ASM                   M IMCTM S5MB11 TNTH  09020IMCT  S5 PTB  00004                    2230 SR        000000000000 DENSO TEN (THAILAND)190J85L0045045                                                                                                                              *          20190830 IMCT                IMCT                                                                                                                    WMF190830A.TXT
MDEDK8350740201909                D89828070100PV1D20190904000090SPEAKER ASM                   M IMCTM S5MB11 TNTH  09020IMCT  S5 PTB  00004                    0230 SR        000000000000 DENSO TEN (THAILAND)190J81L0152152190K21L0021022                                                                                                                *          20190830 IMCT                IMCT                                                                                                                    WMF190830A.TXT
MDEDK8350741201909                D89828070100PV1D20190904000030SPEAKER ASM                   M IMCTM S5MB11 TNTH  09020IMCT  S5 PTB  00004                    0830 SR        000000000000 DENSO TEN (THAILAND)190J94L0177177                                                                                                                              *          20190830 IMCT                IMCT                                                                                                                    WMF190830A.TXT
MDEDK8350742201909                D89828070100PV1D20190904000030SPEAKER ASM                   M IMCTM S5MB11 TNTH  09020IMCT  S5 PTB  00004                    1030 SR        000000000000 DENSO TEN (THAILAND)190J94L0178178                                                                                                                              *          20190830 IMCT                IMCT                                                                                                                    WMF190830A.TXT
MDEDK8350743201909                D89828070100PV1D20190904000060SPEAKER ASM                   M IMCTM S5MB11 TNTH  09020IMCT  S5 PTB  00004                    1300 SR        000000000000 DENSO TEN (THAILAND)190K07L0009009190K12L0080080                                                                                                                *          20190830 IMCT                IMCT                                                                                                                    WMF190830A.TXT
MDEDK8350744201909                D89828070100PV1D20190904000060SPEAKER ASM                   M IMCTM S5MB11 TNTH  09020IMCT  S5 PTB  00004                    1600 SR        000000000000 DENSO TEN (THAILAND)190J89L0006007                                                                                                                              *          20190830 IMCT                IMCT                                                                                                                    WMF190830A.TXT
MDEDK8350745201909                D89828070100PV1D20190904000060SPEAKER ASM                   M IMCTM S5MB11 TNTH  09020IMCT  S5 PTB  00004                    2100 SR        000000000000 DENSO TEN (THAILAND)190F86L0137138                                                                                                                              *          20190830 IMCT                IMCT                                                                                                                    WMF190830A.TXT
MDEDK8350746201909                D89828070100PV4D20190904000060SPEAKER ASM                   M IMCTM S0FL05 TNTH  09020IMCT  S0 PTB  00004                    0230 SR        000000000000 DENSO TEN (THAILAND)190J91U0003003190K21U0101101                                                                                                                *          20190830 IMCT                IMCT                                                                                                                    WMF190830A.TXT
MDEDK8350747201909                D89828070100PV4D20190904000030SPEAKER ASM                   M IMCTM S0FL05 TNTH  09020IMCT  S0 PTB  00004                    0400 SR        000000000000 DENSO TEN (THAILAND)190K21U0102102                                                                                                                              *          20190830 IMCT                IMCT                                                                                                                    WMF190830A.TXT
MDEDK8350748201909                D89828070100PV4D20190904000030SPEAKER ASM                   M IMCTM S0FL05 TNTH  09020IMCT  S0 PTB  00004                    1300 SR        000000000000 DENSO TEN (THAILAND)190K19U0037037                                                                                                                              *          20190830 IMCT                IMCT                                                                                                                    WMF190830A.TXT
MDEDK8350749201909                D89828070100PV4D20190904000030SPEAKER ASM                   M IMCTM S0FL05 TNTH  09020IMCT  S0 PTB  00004                    2100 SR        000000000000 DENSO TEN (THAILAND)190K22U0012012                                                                                                                              *          20190830 IMCT                IMCT                                                                                                                    WMF190830A.TXT
MDEDK8350750201909                D89828070200PV1D20190904000060SPEAKER ASM                   M IMCTM S5MA14 TNTH  09020IMCT  S5 PTB  00005                    0230 SR        000000000000 DENSO TEN (THAILAND)190K21L0021022                                                                                                                              *          20190830 IMCT                IMCT                                                                                                                    WMF190830A.TXT
MDEDK8350751201909                D89828070200PV4D20190904000030SPEAKER ASM                   M IMCTM S0FR05 TNTH  09020IMCT  S0 PTB  00005                    0230 SR        000000000000 DENSO TEN (THAILAND)190K21U0101101                                                                                                                              *          20190830 IMCT                IMCT                                                                                                                    WMF190830A.TXT
MDEDK8350752201909                D89828070200PV4D20190904000030SPEAKER ASM                   M IMCTM S0FR05 TNTH  09020IMCT  S0 PTB  00005                    0400 SR        000000000000 DENSO TEN (THAILAND)190K21U0102102                                                                                                                              *          20190830 IMCT                IMCT                                                                                                                    WMF190830A.TXT
MDEDK8350753201909                D89828070200PV4D20190904000030SPEAKER ASM                   M IMCTM S0FR05 TNTH  09020IMCT  S0 PTB  00005                    1300 SR        000000000000 DENSO TEN (THAILAND)190K19U0037037                                                                                                                              *          20190830 IMCT                IMCT                                                                                                                    WMF190830A.TXT
MDEDK8350754201909                D89828070200PV4D20190904000030SPEAKER ASM                   M IMCTM S0FR05 TNTH  09020IMCT  S0 PTB  00005                    2100 SR        000000000000 DENSO TEN (THAILAND)190K22U0012012                                                                                                                              *          20190830 IMCT                IMCT                                                                                                                    WMF190830A.TXT
MDEDK8350755201909                D89828070300PT1D20190904000060SPEAKER ASM                   M IMCTM S5NB082TNTH  09020IMCT  S5 PTB  00015                    0230 SR        000000000000 DENSO TEN (THAILAND)190K21L0021022                                                                                                                              *          20190830 IMCT                IMCT                                                                                                                    WMF190830A.TXT
MDEDK8350756201909                D89828070300PT4D20190904000030SPEAKER ASM                   M IMCTM S9TS02 TNTH  09020IMCT  S9 PTB  00015                    0230 SR        000000000000 DENSO TEN (THAILAND)190K21U0101101                                                                                                                              *          20190830 IMCT                IMCT                                                                                                                    WMF190830A.TXT
MDEDK8350757201909                D89828070300PT4D20190904000030SPEAKER ASM                   M IMCTM S9TS02 TNTH  09020IMCT  S9 PTB  00015                    0400 SR        000000000000 DENSO TEN (THAILAND)190K21U0102102                                                                                                                              *          20190830 IMCT                IMCT                                                                                                                    WMF190830A.TXT
MDEDK8350758201909                D89828070300PT4D20190904000030SPEAKER ASM                   M IMCTM S9TS02 TNTH  09020IMCT  S9 PTB  00015                    1300 SR        000000000000 DENSO TEN (THAILAND)190K19U0037037                                                                                                                              *          20190830 IMCT                IMCT                                                                                                                    WMF190830A.TXT
MDEDK8350759201909                D89828070300PT4D20190904000030SPEAKER ASM                   M IMCTM S9TS02 TNTH  09020IMCT  S9 PTB  00015                    2100 SR        000000000000 DENSO TEN (THAILAND)190K22U0012012                                                                                                                              *          20190830 IMCT                IMCT                                                                                                                    WMF190830A.TXT
MDEDK8350760201909                D89838031200PT1D20190904000030RADIO;ASM DVD                 M IMCTM S5NC06 TNTH  09020IMCT  S5 PTB  00003                    0230 SR        000000000000 DENSO TEN (THAILAND)190K21L0021022                                                                                                                              *          20190830 IMCT                IMCT                                                                                                                    WMF190830A.TXT
MDEDK8350761201909                D89838031200PT4D20190904000015RADIO;ASM DVD                 M IMCTM S9CO001TNTH  09020IMCT  S9 PTB  00003                    0230 SR        000000000000 DENSO TEN (THAILAND)190K21U0101101                                                                                                                              *          20190830 IMCT                IMCT                                                                                                                    WMF190830A.TXT
MDEDK8350762201909                D89838031200PT4D20190904000015RADIO;ASM DVD                 M IMCTM S9CO001TNTH  09020IMCT  S9 PTB  00003                    0400 SR        000000000000 DENSO TEN (THAILAND)190K21U0102102                                                                                                                              *          20190830 IMCT                IMCT                                                                                                                    WMF190830A.TXT
MDEDK8350763201909                D89838031200PT4D20190904000015RADIO;ASM DVD                 M IMCTM S9CO001TNTH  09020IMCT  S9 PTB  00003                    1300 SR        000000000000 DENSO TEN (THAILAND)190K19U0037037                                                                                                                              *          20190830 IMCT                IMCT                                                                                                                    WMF190830A.TXT
MDEDK8350764201909                D89838031200PT4D20190904000015RADIO;ASM DVD                 M IMCTM S9CO001TNTH  09020IMCT  S9 PTB  00003                    2100 SR        000000000000 DENSO TEN (THAILAND)190K22U0012012                                                                                                                              *          20190830 IMCT                IMCT                                                                                                                    WMF190830A.TXT
MDEUK8241367201909                D89752845400PT4U20190904000015RADIO;AM FM,CD D              M IMCTM S9AD002TNTH  09020IMCT  S9 PTB  00003                    0400 SR        000000000000 DENSO TEN (THAILAND)190G24U0023023                                                                                                                              *          20190830 IMCT                IMCT                                                                                                                    WMF190830A.TXT
MDEUK8241368201909                D89828070100PT4U20190903000030SPEAKER ASM                   M IMCTM S0FL05 TNTH  09020IMCT  S0 PTB  00004                    2230 SR        000000000000 DENSO TEN (THAILAND)190G26U0039039                                                                                                                              *          20190830 IMCT                IMCT                                                                                                                    WMF190830A.TXT
MDEUK8241369201909                D89828070100PT4U20190904000030SPEAKER ASM                   M IMCTM S0FL05 TNTH  09020IMCT  S0 PTB  00004                    0400 SR        000000000000 DENSO TEN (THAILAND)190G24U0023023                                                                                                                              *          20190830 IMCT                IMCT                                                                                                                    WMF190830A.TXT
MDEUK8241370201909                D89828070100PT4U20190904000030SPEAKER ASM                   M IMCTM S0FL05 TNTH  09020IMCT  S0 PTB  00004                    0830 SR        000000000000 DENSO TEN (THAILAND)190G32U0168168                                                                                                                              *          20190830 IMCT                IMCT                                                                                                                    WMF190830A.TXT
MDEUK8241371201909                D89828070100PT4U20190904000030SPEAKER ASM                   M IMCTM S0FL05 TNTH  09020IMCT  S0 PTB  00004                    1300 SR        000000000000 DENSO TEN (THAILAND)190G31U0104104                                                                                                                              *          20190830 IMCT                IMCT                                                                                                                    WMF190830A.TXT
MDEUK8241372201909                D89828070200PV4U20190903000030SPEAKER ASM                   M IMCTM S0FR05 TNTH  09020IMCT  S0 PTB  00005                    2230 SR        000000000000 DENSO TEN (THAILAND)190G26U0039039                                                                                                                              *          20190830 IMCT                IMCT                                                                                                                    WMF190830A.TXT
MDEUK8241373201909                D89828070200PV4U20190904000030SPEAKER ASM                   M IMCTM S0FR05 TNTH  09020IMCT  S0 PTB  00005                    0400 SR        000000000000 DENSO TEN (THAILAND)190G24U0023023                                                                                                                              *          20190830 IMCT                IMCT                                                                                                                    WMF190830A.TXT
MDEUK8241374201909                D89828070200PV4U20190904000030SPEAKER ASM                   M IMCTM S0FR05 TNTH  09020IMCT  S0 PTB  00005                    0830 SR        000000000000 DENSO TEN (THAILAND)190G32U0168168                                                                                                                              *          20190830 IMCT                IMCT                                                                                                                    WMF190830A.TXT
MDEUK8241375201909                D89828070200PV4U20190904000030SPEAKER ASM                   M IMCTM S0FR05 TNTH  09020IMCT  S0 PTB  00005                    1300 SR        000000000000 DENSO TEN (THAILAND)190G31U0104104                                                                                                                              *          20190830 IMCT                IMCT                                                                                                                    WMF190830A.TXT
MDEUK8241376201909                D89828070300PT4U20190903000030SPEAKER ASM                   M IMCTM S9TS02 TNTH  09020IMCT  S9 PTB  00015                    2230 SR        000000000000 DENSO TEN (THAILAND)190G26U0039039                                                                                                                              *          20190830 IMCT                IMCT                                                                                                                    WMF190830A.TXT
MDEUK8241377201909                D89828070300PT4U20190904000030SPEAKER ASM                   M IMCTM S9TS02 TNTH  09020IMCT  S9 PTB  00015                    0400 SR        000000000000 DENSO TEN (THAILAND)190G24U0023023                                                                                                                              *          20190830 IMCT                IMCT                                                                                                                    WMF190830A.TXT
MDEUK8241378201909                D89828070300PT4U20190904000030SPEAKER ASM                   M IMCTM S9TS02 TNTH  09020IMCT  S9 PTB  00015                    0830 SR        000000000000 DENSO TEN (THAILAND)190G32U0168168                                                                                                                              *          20190830 IMCT                IMCT                                                                                                                    WMF190830A.TXT
MDEUK8241379201909                D89828070300PT4U20190904000030SPEAKER ASM                   M IMCTM S9TS02 TNTH  09020IMCT  S9 PTB  00015                    1300 SR        000000000000 DENSO TEN (THAILAND)190G31U0104104                                                                                                                              *          20190830 IMCT                IMCT                                                                                                                    WMF190830A.TXT
