REC2019082920190829ISUZU                              25     
MAKK98121264201908D3               89825451200P3YK20190909000030SPEAKER ASM;ROOF              M IMCTM CM1    TNTH  09020IMKDC KA PTB  00036  K0                1431DES        000000000000 DENSO TEN (THAILAND)                                                                                                                                            *G         20190829 IMCT                IMCT                                                                                                                    WMF1908297.TXT
MAKK98121265201908N3               89825451200P3YK20190910000030SPEAKER ASM;ROOF              M IMCTM CM1    TNTH  09020IMKDC KA PTB  00036  K0                0231NES        000000000000 DENSO TEN (THAILAND)                                                                                                                                            *G         20190829 IMCT                IMCT                                                                                                                    WMF1908297.TXT
MAKK98121266201908D3               89825451200P3YK20190910000030SPEAKER ASM;ROOF              M IMCTM CM1    TNTH  09020IMKDC KA PTB  00036  K0                1431DES        000000000000 DENSO TEN (THAILAND)                                                                                                                                            *G         20190829 IMCT                IMCT                                                                                                                    WMF1908297.TXT
MAKK98121267201908D3               89825451200P3YK20190911000030SPEAKER ASM;ROOF              M IMCTM CM1    TNTH  09020IMKDC KA PTB  00036  K0                1431DES        000000000000 DENSO TEN (THAILAND)                                                                                                                                            *G         20190829 IMCT                IMCT                                                                                                                    WMF1908297.TXT
MAKK98121268201908N3               89825451200P3YK20190912000030SPEAKER ASM;ROOF              M IMCTM CM1    TNTH  09020IMKDC KA PTB  00036  K0                0231NES        000000000000 DENSO TEN (THAILAND)                                                                                                                                            *G         20190829 IMCT                IMCT                                                                                                                    WMF1908297.TXT
MAKK98121269201908D3               89828070100P3YK20190909000030SPEAKER ASM                   M IMCTM CM1    TNTH  09020IMKDC KA PTB  00004  K0                1431DES        000000000000 DENSO TEN (THAILAND)                                                                                                                                            *G         20190829 IMCT                IMCT                                                                                                                    WMF1908297.TXT
MAKK98121270201908N3               89828070100P3YK20190910000120SPEAKER ASM                   M IMCTM CM1    TNTH  09020IMKDC KA PTB  00004  K0                0231NES        000000000000 DENSO TEN (THAILAND)                                                                                                                                            *G         20190829 IMCT                IMCT                                                                                                                    WMF1908297.TXT
MAKK98121271201908D3               89828070100P3YK20190910000030SPEAKER ASM                   M IMCTM CM1    TNTH  09020IMKDC KA PTB  00004  K0                1431DES        000000000000 DENSO TEN (THAILAND)                                                                                                                                            *G         20190829 IMCT                IMCT                                                                                                                    WMF1908297.TXT
MAKK98121272201908N3               89828070100P3YK20190911000090SPEAKER ASM                   M IMCTM CM1    TNTH  09020IMKDC KA PTB  00004  K0                0231NES        000000000000 DENSO TEN (THAILAND)                                                                                                                                            *G         20190829 IMCT                IMCT                                                                                                                    WMF1908297.TXT
MAKK98121273201908D3               89828070100P3YK20190911000090SPEAKER ASM                   M IMCTM CM1    TNTH  09020IMKDC KA PTB  00004  K0                1431DES        000000000000 DENSO TEN (THAILAND)                                                                                                                                            *G         20190829 IMCT                IMCT                                                                                                                    WMF1908297.TXT
MAKK98121274201908N3               89828070100P3YK20190912000090SPEAKER ASM                   M IMCTM CM1    TNTH  09020IMKDC KA PTB  00004  K0                0231NES        000000000000 DENSO TEN (THAILAND)                                                                                                                                            *G         20190829 IMCT                IMCT                                                                                                                    WMF1908297.TXT
MAKK98121275201908D3               89828070100P3YK20190912000120SPEAKER ASM                   M IMCTM CM1    TNTH  09020IMKDC KA PTB  00004  K0                1431DES        000000000000 DENSO TEN (THAILAND)                                                                                                                                            *G         20190829 IMCT                IMCT                                                                                                                    WMF1908297.TXT
MAKK98121276201908N3               89828070100P3YK20190913000120SPEAKER ASM                   M IMCTM CM1    TNTH  09020IMKDC KA PTB  00004  K0                0231NES        000000000000 DENSO TEN (THAILAND)                                                                                                                                            *G         20190829 IMCT                IMCT                                                                                                                    WMF1908297.TXT
MAKK98121277201908N3               89828070200P3YK20190910000030SPEAKER ASM                   M IMCTM CM1    TNTH  09020IMKDC KA PTB  00005  K0                0231NES        000000000000 DENSO TEN (THAILAND)                                                                                                                                            *G         20190829 IMCT                IMCT                                                                                                                    WMF1908297.TXT
MAKK98121278201908D3               89828070200P3YK20190911000060SPEAKER ASM                   M IMCTM CM1    TNTH  09020IMKDC KA PTB  00005  K0                1431DES        000000000000 DENSO TEN (THAILAND)                                                                                                                                            *G         20190829 IMCT                IMCT                                                                                                                    WMF1908297.TXT
MAKK98121279201908N3               89828070200P3YK20190912000030SPEAKER ASM                   M IMCTM CM1    TNTH  09020IMKDC KA PTB  00005  K0                0231NES        000000000000 DENSO TEN (THAILAND)                                                                                                                                            *G         20190829 IMCT                IMCT                                                                                                                    WMF1908297.TXT
MAKK98121280201908D3               89828070200P3YK20190912000060SPEAKER ASM                   M IMCTM CM1    TNTH  09020IMKDC KA PTB  00005  K0                1431DES        000000000000 DENSO TEN (THAILAND)                                                                                                                                            *G         20190829 IMCT                IMCT                                                                                                                    WMF1908297.TXT
MAKK98121281201908N3               89828070300P3YK20190910000090SPEAKER ASM                   M IMCTM CM1    TNTH  09020IMKDC KA PTB  00015  K0                0231NES        000000000000 DENSO TEN (THAILAND)                                                                                                                                            *G         20190829 IMCT                IMCT                                                                                                                    WMF1908297.TXT
MAKK98121282201908N3               89828070300P3YK20190911000030SPEAKER ASM                   M IMCTM CM1    TNTH  09020IMKDC KA PTB  00015  K0                0231NES        000000000000 DENSO TEN (THAILAND)                                                                                                                                            *G         20190829 IMCT                IMCT                                                                                                                    WMF1908297.TXT
MAKK98121283201908D3               89828070300P3YK20190911000060SPEAKER ASM                   M IMCTM CM1    TNTH  09020IMKDC KA PTB  00015  K0                1431DES        000000000000 DENSO TEN (THAILAND)                                                                                                                                            *G         20190829 IMCT                IMCT                                                                                                                    WMF1908297.TXT
MAKK98121284201908N3               89828070300P3YK20190912000090SPEAKER ASM                   M IMCTM CM1    TNTH  09020IMKDC KA PTB  00015  K0                0231NES        000000000000 DENSO TEN (THAILAND)                                                                                                                                            *G         20190829 IMCT                IMCT                                                                                                                    WMF1908297.TXT
MAKK98121285201908D3               89828070300P3YK20190912000060SPEAKER ASM                   M IMCTM CM1    TNTH  09020IMKDC KA PTB  00015  K0                1431DES        000000000000 DENSO TEN (THAILAND)                                                                                                                                            *G         20190829 IMCT                IMCT                                                                                                                    WMF1908297.TXT
MAKK98121286201908N3               89828070300P3YK20190913000030SPEAKER ASM                   M IMCTM CM1    TNTH  09020IMKDC KA PTB  00015  K0                0231NES        000000000000 DENSO TEN (THAILAND)                                                                                                                                            *G         20190829 IMCT                IMCT                                                                                                                    WMF1908297.TXT
MAKK98126081201908D3               89828070100P3YK20190909000030SPEAKER ASM                   M IMCTM PK3    TNTH  09020IMKDC KA PTB  00004  K0                1431DES        000000000000 DENSO TEN (THAILAND)                                                                                                                                            *G         20190829 IMCT                IMCT                                                                                                                    WMF1908297.TXT
MAKK98126082201908D3               89828070200P3YK20190909000030SPEAKER ASM                   M IMCTM PK3    TNTH  09020IMKDC KA PTB  00005  K0                1431DES        000000000000 DENSO TEN (THAILAND)                                                                                                                                            *G         20190829 IMCT                IMCT                                                                                                                    WMF1908297.TXT
