REC2019092720190927ISUZU                              14     
MDEFK9T18318201910                D89828070100PV4F20191007000030SPEAKER ASM                   M IMCTM S7FL05 TNTH  09020IMCT  S7 PTB  00004                    1300 SR        000000000000 DENSO TEN (THAILAND)190J81R0048   190G59R0038   R191000901    R191000915    000000                                                                              *R         20190927 IMCT                IMCT                                                                                                                    RMF190927A.TXT
MDEFK9T18319201910                D89828070200PV4F20191003000020SPEAKER ASM                   M IMCTM S7FL05 TNTH  09020IMCT  S7 PTB  00005                    0400 SR        000000000000 DENSO TEN (THAILAND)190G64R0065   190K05R0058   D191000806    D191000815    000000                                                                              *R         20190927 IMCT                IMCT                                                                                                                    RMF190927A.TXT
MDEFK9T18320201910                D89828070300PT4F20191007000014SPEAKER ASM                   M IMCTM S7TS02 TNTH  09020IMCT  S7 PTB  00015                    1300 SR        000000000000 DENSO TEN (THAILAND)190J92R0082   190J92R0088   R191000907    R191000913    000000                                                                              *R         20190927 IMCT                IMCT                                                                                                                    RMF190927A.TXT
MDEFK9T18321201910                D89831229210PT4F20191007000007RADIO;AM/FM,CD                M IMCTM S7U137 TNTH  09020IMCT  S7 PTB  00003                    1300 SR        000000000000 DENSO TEN (THAILAND)190J92R0082   190J92R0088   R191000907    R191000913    000000                                                                              *R         20190927 IMCT                IMCT                                                                                                                    RMF190927A.TXT
MDEFK9T18322201910                D89838031200PT4F20191003000007RADIO;ASM DVD                 M IMCTM S7TS03 TNTH  09020IMCT  S7 PTB  00003                    0400 SR        000000000000 DENSO TEN (THAILAND)190K01R0011   190K05R0058   D191000807    D191000815    000000                                                                              *R         20190927 IMCT                IMCT                                                                                                                    RMF190927A.TXT
MDEFK9T18323201910                D89848582010PT4F20191002000005RADIO;AM/FM CD D              M IMCTM S7TS01 TNTH  09020IMCT  S7 PTB  00003                    2100 SR        000000000000 DENSO TEN (THAILAND)190F45R0058   190F45R0062   D191000711    D191000715    000000                                                                              *R         20190927 IMCT                IMCT                                                                                                                    RMF190927A.TXT
MDEFK9442480201910                D89828070100PV4F20191002000032SPEAKER ASM                   M IMCTM S7FL05 TNTH  09020IMCT  S7 PTB  00004                    2100 SR        000000000000 DENSO TEN (THAILAND)18086ZR0022   190G64R0060   D191000701    D191000801    000000                                                                              *R         20190927 IMCT                IMCT                                                                                                                    RMF190927A.TXT
MDEFK9442481201910                D89828070100PV4F20191003000004SPEAKER ASM                   M IMCTM S7FL05 TNTH  09020IMCT  S7 PTB  00004                    0230 SR        000000000000 DENSO TEN (THAILAND)190G64R0061   190G64R0062   D191000802    D191000803    000000                                                                              *R         20190927 IMCT                IMCT                                                                                                                    RMF190927A.TXT
MDEFK9442482201910                D89828070100PV4F20191003000024SPEAKER ASM                   M IMCTM S7FL05 TNTH  09020IMCT  S7 PTB  00004                    0400 SR        000000000000 DENSO TEN (THAILAND)190G64R0063   190K05R0058   D191000804    D191000815    000000                                                                              *R         20190927 IMCT                IMCT                                                                                                                    RMF190927A.TXT
MDEFK9442483201910                D89828070200PV4F20191002000030SPEAKER ASM                   M IMCTM S7FL05 TNTH  09020IMCT  S7 PTB  00005                    2100 SR        000000000000 DENSO TEN (THAILAND)18086ZR0022   190F45R0062   D191000701    D191000715    000000                                                                              *R         20190927 IMCT                IMCT                                                                                                                    RMF190927A.TXT
MDEFK9442484201910                D89828070200PV4F20191003000010SPEAKER ASM                   M IMCTM S7FL05 TNTH  09020IMCT  S7 PTB  00005                    0230 SR        000000000000 DENSO TEN (THAILAND)190G64R0060   190G64R0064   D191000801    D191000805    000000                                                                              *R         20190927 IMCT                IMCT                                                                                                                    RMF190927A.TXT
MDEFK9442485201910                D89828070300PT4F20191002000030SPEAKER ASM                   M IMCTM S7TS02 TNTH  09020IMCT  S7 PTB  00015                    2100 SR        000000000000 DENSO TEN (THAILAND)18086ZR0022   190F45R0062   D191000701    D191000715    000000                                                                              *R         20190927 IMCT                IMCT                                                                                                                    RMF190927A.TXT
MDEFK9442486201910                D89828070300PT4F20191003000015SPEAKER ASM                   M IMCTM S7TS02 TNTH  09020IMCT  S7 PTB  00015                    0230 SR        000000000000 DENSO TEN (THAILAND)190G64R0060   190K01R0012   D191000801    D191000808    000000                                                                              *R         20190927 IMCT                IMCT                                                                                                                    RMF190927A.TXT
MDEFK9442487201910                D89828070300PT4F20191003000015SPEAKER ASM                   M IMCTM S7TS02 TNTH  09020IMCT  S7 PTB  00015                    0400 SR        000000000000 DENSO TEN (THAILAND)190K01R0012   190K05R0058   D191000808    D191000815    000000                                                                              *R         20190927 IMCT                IMCT                                                                                                                    RMF190927A.TXT
