REC2019091220190912ISUZU                              4      
MDEBK9T00693201909                D89828070100PT4B20190918000030SPEAKER ASM                   M IMCTM S7FL05 TNTH  09020IMCT  S7 PTB  00004                    0400 SR        000000000000 DENSO TEN (THAILAND)190F63R0059   190F64R0064   Z190902901    Z190902915    000000                                                                              *R         20190912 IMCT                IMCT                                                                                                                    RMF1909125.TXT
MDEBK9T00694201909                D89828070200PV4B20190918000030SPEAKER ASM                   M IMCTM S7FL05 TNTH  09020IMCT  S7 PTB  00005                    0400 SR        000000000000 DENSO TEN (THAILAND)190F63R0059   190F64R0064   Z190902901    Z190902915    000000                                                                              *R         20190912 IMCT                IMCT                                                                                                                    RMF1909125.TXT
MDEBK9T00695201909                D89828070300PT4B20190918000030SPEAKER ASM                   M IMCTM S7TS02 TNTH  09020IMCT  S7 PTB  00015                    0400 SR        000000000000 DENSO TEN (THAILAND)190F63R0059   190F64R0064   Z190902901    Z190902915    000000                                                                              *R         20190912 IMCT                IMCT                                                                                                                    RMF1909125.TXT
MDEBK9T00696201909                D89838432900PT4B20190918000010RADIO;ASM DVD                 M IMCTM S7TS01 TNTH  09020IMCT  S7 PTB  00003                    0400 SR        000000000000 DENSO TEN (THAILAND)190F64R0060   190F64R0064   Z190902906    Z190902915    000000                                                                              *R         20190912 IMCT                IMCT                                                                                                                    RMF1909125.TXT
