REC2019090220190902ISUZU                              5      
MDEFK9T00767201909                D89828070100PV4F20190906000028SPEAKER ASM                   M IMCTM S7FL05 TNTH  09020IMCT  S7 PTB  00004                    1300 SR        000000000000 DENSO TEN (THAILAND)190G63R0045   190G64R0059   D190901402    D190901415    000000                                                                              *R         20190902 IMCT                IMCT                                                                                                                    RMF1909025.TXT
MDEFK9T00768201909                D89828070200PV4F20190906000030SPEAKER ASM                   M IMCTM S7FL05 TNTH  09020IMCT  S7 PTB  00005                    1300 SR        000000000000 DENSO TEN (THAILAND)190G63R0044   190G64R0059   D190901401    D190901415    000000                                                                              *R         20190902 IMCT                IMCT                                                                                                                    RMF1909025.TXT
MDEFK9T00769201909                D89828070300PT4F20190906000030SPEAKER ASM                   M IMCTM S7TS02 TNTH  09020IMCT  S7 PTB  00015                    1300 SR        000000000000 DENSO TEN (THAILAND)190G63R0044   190G64R0059   D190901401    D190901415    000000                                                                              *R         20190902 IMCT                IMCT                                                                                                                    RMF1909025.TXT
MDEFK9400292201909                D89828070100PV4F20190906000024SPEAKER ASM                   M IMCTM S7FL05 TNTH  09020IMCT  S7 PTB  00004                    0400 SR        000000000000 DENSO TEN (THAILAND)190J82R0052   190G59R0028   R190901301    R190901312    000000                                                                              *R         20190902 IMCT                IMCT                                                                                                                    RMF1909025.TXT
MDEFK9400293201909                D89828070100PV4F20190906000008SPEAKER ASM                   M IMCTM S7FL05 TNTH  09020IMCT  S7 PTB  00004                    0830 SR        000000000000 DENSO TEN (THAILAND)190G59R0029   190G63R0044   R190901313    D190901401    000000                                                                              *R         20190902 IMCT                IMCT                                                                                                                    RMF1909025.TXT
