REC2019091720190917ISUZU                              5      
MDEFK9T11200201909                D89828070100PV4F20190921000028SPEAKER ASM                   M IMCTM S7FL05 TNTH  09020IMCT  S7 PTB  00004                    1600 SR        000000000000 DENSO TEN (THAILAND)190J80R0027   190K21R0043   D190903502    D190903515    000000                                                                              *R         20190917 IMCT                IMCT                                                                                                                    RMF1909175.TXT
MDEFK9T11201201909                D89828070200PV4F20190921000030SPEAKER ASM                   M IMCTM S7FL05 TNTH  09020IMCT  S7 PTB  00005                    1600 SR        000000000000 DENSO TEN (THAILAND)190J80R0026   190K21R0043   D190903501    D190903515    000000                                                                              *R         20190917 IMCT                IMCT                                                                                                                    RMF1909175.TXT
MDEFK9T11202201909                D89828070300PT4F20190921000030SPEAKER ASM                   M IMCTM S7TS02 TNTH  09020IMCT  S7 PTB  00015                    1600 SR        000000000000 DENSO TEN (THAILAND)190J80R0026   190K21R0043   D190903501    D190903515    000000                                                                              *R         20190917 IMCT                IMCT                                                                                                                    RMF1909175.TXT
MDEFK9T11203201909                D89838031200PT4F20190921000015RADIO;ASM DVD                 M IMCTM S7TS03 TNTH  09020IMCT  S7 PTB  00003                    1600 SR        000000000000 DENSO TEN (THAILAND)190J80R0026   190K21R0043   D190903501    D190903515    000000                                                                              *R         20190917 IMCT                IMCT                                                                                                                    RMF1909175.TXT
MDEFK9425391201909                D89828070100PV4F20190921000032SPEAKER ASM                   M IMCTM S7FL05 TNTH  09020IMCT  S7 PTB  00004                    0400 SR        000000000000 DENSO TEN (THAILAND)190J81R0044   190J80R0026   R190903401    D190903501    000000                                                                              *R         20190917 IMCT                IMCT                                                                                                                    RMF1909175.TXT
