REC2019091920190919ISUZU                              27     
MAKK99097522201909D3               89825451200P3YK20191001000030SPEAKER ASM;ROOF              M IMCTM CM1    TNTH  09020IMKDC KA PTB  00036  K0                1431DES        000000000000 DENSO TEN (THAILAND)                                                                                                                                            *G         20190919 IMCT                IMCT                                                                                                                    WMF1909196.TXT
MAKK99097523201909D3               89828070100P3YK20190930000060SPEAKER ASM                   M IMCTM CM1    TNTH  09020IMKDC KA PTB  00004  K0                1431DES        000000000000 DENSO TEN (THAILAND)                                                                                                                                            *G         20190919 IMCT                IMCT                                                                                                                    WMF1909196.TXT
MAKK99097524201909N3               89828070100P3YK20191001000060SPEAKER ASM                   M IMCTM CM1    TNTH  09020IMKDC KA PTB  00004  K0                0231NES        000000000000 DENSO TEN (THAILAND)                                                                                                                                            *G         20190919 IMCT                IMCT                                                                                                                    WMF1909196.TXT
MAKK99097525201909D3               89828070100P3YK20191001000030SPEAKER ASM                   M IMCTM CM1    TNTH  09020IMKDC KA PTB  00004  K0                1431DES        000000000000 DENSO TEN (THAILAND)                                                                                                                                            *G         20190919 IMCT                IMCT                                                                                                                    WMF1909196.TXT
MAKK99097526201909N3               89828070100P3YK20191002000060SPEAKER ASM                   M IMCTM CM1    TNTH  09020IMKDC KA PTB  00004  K0                0231NES        000000000000 DENSO TEN (THAILAND)                                                                                                                                            *G         20190919 IMCT                IMCT                                                                                                                    WMF1909196.TXT
MAKK99097527201909D3               89828070100P3YK20191002000090SPEAKER ASM                   M IMCTM CM1    TNTH  09020IMKDC KA PTB  00004  K0                1431DES        000000000000 DENSO TEN (THAILAND)                                                                                                                                            *G         20190919 IMCT                IMCT                                                                                                                    WMF1909196.TXT
MAKK99097528201909N3               89828070100P3YK20191003000060SPEAKER ASM                   M IMCTM CM1    TNTH  09020IMKDC KA PTB  00004  K0                0231NES        000000000000 DENSO TEN (THAILAND)                                                                                                                                            *G         20190919 IMCT                IMCT                                                                                                                    WMF1909196.TXT
MAKK99097529201909D3               89828070100P3YK20191003000090SPEAKER ASM                   M IMCTM CM1    TNTH  09020IMKDC KA PTB  00004  K0                1431DES        000000000000 DENSO TEN (THAILAND)                                                                                                                                            *G         20190919 IMCT                IMCT                                                                                                                    WMF1909196.TXT
MAKK99097530201909N3               89828070100P3YK20191004000030SPEAKER ASM                   M IMCTM CM1    TNTH  09020IMKDC KA PTB  00004  K0                0231NES        000000000000 DENSO TEN (THAILAND)                                                                                                                                            *G         20190919 IMCT                IMCT                                                                                                                    WMF1909196.TXT
MAKK99097531201909D3               89828070100P3YK20191004000090SPEAKER ASM                   M IMCTM CM1    TNTH  09020IMKDC KA PTB  00004  K0                1431DES        000000000000 DENSO TEN (THAILAND)                                                                                                                                            *G         20190919 IMCT                IMCT                                                                                                                    WMF1909196.TXT
MAKK99097532201909N3               89828070100P3YK20191005000090SPEAKER ASM                   M IMCTM CM1    TNTH  09020IMKDC KA PTB  00004  K0                0231NES        000000000000 DENSO TEN (THAILAND)                                                                                                                                            *G         20190919 IMCT                IMCT                                                                                                                    WMF1909196.TXT
MAKK99097533201909D3               89828070200P3YK20190930000030SPEAKER ASM                   M IMCTM CM1    TNTH  09020IMKDC KA PTB  00005  K0                1431DES        000000000000 DENSO TEN (THAILAND)                                                                                                                                            *G         20190919 IMCT                IMCT                                                                                                                    WMF1909196.TXT
MAKK99097534201909D3               89828070200P3YK20191001000030SPEAKER ASM                   M IMCTM CM1    TNTH  09020IMKDC KA PTB  00005  K0                1431DES        000000000000 DENSO TEN (THAILAND)                                                                                                                                            *G         20190919 IMCT                IMCT                                                                                                                    WMF1909196.TXT
MAKK99097535201909D3               89828070300P3YK20190930000030SPEAKER ASM                   M IMCTM CM1    TNTH  09020IMKDC KA PTB  00015  K0                1431DES        000000000000 DENSO TEN (THAILAND)                                                                                                                                            *G         20190919 IMCT                IMCT                                                                                                                    WMF1909196.TXT
MAKK99097536201909N3               89828070300P3YK20191001000060SPEAKER ASM                   M IMCTM CM1    TNTH  09020IMKDC KA PTB  00015  K0                0231NES        000000000000 DENSO TEN (THAILAND)                                                                                                                                            *G         20190919 IMCT                IMCT                                                                                                                    WMF1909196.TXT
MAKK99097537201909D3               89828070300P3YK20191001000030SPEAKER ASM                   M IMCTM CM1    TNTH  09020IMKDC KA PTB  00015  K0                1431DES        000000000000 DENSO TEN (THAILAND)                                                                                                                                            *G         20190919 IMCT                IMCT                                                                                                                    WMF1909196.TXT
MAKK99097538201909N3               89828070300P3YK20191002000030SPEAKER ASM                   M IMCTM CM1    TNTH  09020IMKDC KA PTB  00015  K0                0231NES        000000000000 DENSO TEN (THAILAND)                                                                                                                                            *G         20190919 IMCT                IMCT                                                                                                                    WMF1909196.TXT
MAKK99097539201909D3               89828070300P3YK20191002000030SPEAKER ASM                   M IMCTM CM1    TNTH  09020IMKDC KA PTB  00015  K0                1431DES        000000000000 DENSO TEN (THAILAND)                                                                                                                                            *G         20190919 IMCT                IMCT                                                                                                                    WMF1909196.TXT
MAKK99097540201909D3               89828070300P3YK20191003000030SPEAKER ASM                   M IMCTM CM1    TNTH  09020IMKDC KA PTB  00015  K0                1431DES        000000000000 DENSO TEN (THAILAND)                                                                                                                                            *G         20190919 IMCT                IMCT                                                                                                                    WMF1909196.TXT
MAKK99097541201909N3               89828070300P3YK20191004000060SPEAKER ASM                   M IMCTM CM1    TNTH  09020IMKDC KA PTB  00015  K0                0231NES        000000000000 DENSO TEN (THAILAND)                                                                                                                                            *G         20190919 IMCT                IMCT                                                                                                                    WMF1909196.TXT
MAKK99097542201909D3               89828070300P3YK20191004000030SPEAKER ASM                   M IMCTM CM1    TNTH  09020IMKDC KA PTB  00015  K0                1431DES        000000000000 DENSO TEN (THAILAND)                                                                                                                                            *G         20190919 IMCT                IMCT                                                                                                                    WMF1909196.TXT
MAKK99097543201909N3               89828070300P3YK20191005000030SPEAKER ASM                   M IMCTM CM1    TNTH  09020IMKDC KA PTB  00015  K0                0231NES        000000000000 DENSO TEN (THAILAND)                                                                                                                                            *G         20190919 IMCT                IMCT                                                                                                                    WMF1909196.TXT
MAKK99097544201909D3               89831228410P3YK20190930000015RADIO;AM/FM,CD                M IMCTM CM1    TNTH  09020IMKDC KA   CPB00003  K0                1431DES        000000000000 DENSO TEN (THAILAND)                                                                                                                                            *G         20190919 IMCT                IMCT                                                                                                                    WMF1909196.TXT
MAKK99097545201909N3               89831228410P3YK20191002000015RADIO;AM/FM,CD                M IMCTM CM1    TNTH  09020IMKDC KA   CPB00003  K0                0231NES        000000000000 DENSO TEN (THAILAND)                                                                                                                                            *G         20190919 IMCT                IMCT                                                                                                                    WMF1909196.TXT
MAKK99097546201909N3               89831228410P3YK20191003000015RADIO;AM/FM,CD                M IMCTM CM1    TNTH  09020IMKDC KA   CPB00003  K0                0231NES        000000000000 DENSO TEN (THAILAND)                                                                                                                                            *G         20190919 IMCT                IMCT                                                                                                                    WMF1909196.TXT
MAKK99102776201909D3               89828070100P3YK20191001000030SPEAKER ASM                   M IMCTM PK3    TNTH  09020IMKDC KA PTB  00004  K0                1431DES        000000000000 DENSO TEN (THAILAND)                                                                                                                                            *G         20190919 IMCT                IMCT                                                                                                                    WMF1909196.TXT
MAKK99102777201909D3               89828070200P3YK20191001000030SPEAKER ASM                   M IMCTM PK3    TNTH  09020IMKDC KA PTB  00005  K0                1431DES        000000000000 DENSO TEN (THAILAND)                                                                                                                                            *G         20190919 IMCT                IMCT                                                                                                                    WMF1909196.TXT
