REC2019091220190912ISUZU                              25     
MAKK99077785201909N3               89825451200P3YK20190924000030SPEAKER ASM;ROOF              M IMCTM CM1    TNTH  09020IMKDC KA PTB  00036  K0                0231NES        000000000000 DENSO TEN (THAILAND)                                                                                                                                            *G         20190912 IMCT                IMCT                                                                                                                    WMF1909126.TXT
MAKK99077786201909D3               89825451200P3YK20190924000030SPEAKER ASM;ROOF              M IMCTM CM1    TNTH  09020IMKDC KA PTB  00036  K0                1431DES        000000000000 DENSO TEN (THAILAND)                                                                                                                                            *G         20190912 IMCT                IMCT                                                                                                                    WMF1909126.TXT
MAKK99077787201909N3               89825451200P3YK20190925000030SPEAKER ASM;ROOF              M IMCTM CM1    TNTH  09020IMKDC KA PTB  00036  K0                0231NES        000000000000 DENSO TEN (THAILAND)                                                                                                                                            *G         20190912 IMCT                IMCT                                                                                                                    WMF1909126.TXT
MAKK99077788201909D3               89825451200P3YK20190925000030SPEAKER ASM;ROOF              M IMCTM CM1    TNTH  09020IMKDC KA PTB  00036  K0                1431DES        000000000000 DENSO TEN (THAILAND)                                                                                                                                            *G         20190912 IMCT                IMCT                                                                                                                    WMF1909126.TXT
MAKK99077789201909D3               89828070100P3YK20190923000090SPEAKER ASM                   M IMCTM CM1    TNTH  09020IMKDC KA PTB  00004  K0                1431DES        000000000000 DENSO TEN (THAILAND)                                                                                                                                            *G         20190912 IMCT                IMCT                                                                                                                    WMF1909126.TXT
MAKK99077790201909N3               89828070100P3YK20190924000090SPEAKER ASM                   M IMCTM CM1    TNTH  09020IMKDC KA PTB  00004  K0                0231NES        000000000000 DENSO TEN (THAILAND)                                                                                                                                            *G         20190912 IMCT                IMCT                                                                                                                    WMF1909126.TXT
MAKK99077791201909D3               89828070100P3YK20190924000150SPEAKER ASM                   M IMCTM CM1    TNTH  09020IMKDC KA PTB  00004  K0                1431DES        000000000000 DENSO TEN (THAILAND)                                                                                                                                            *G         20190912 IMCT                IMCT                                                                                                                    WMF1909126.TXT
MAKK99077792201909N3               89828070100P3YK20190925000090SPEAKER ASM                   M IMCTM CM1    TNTH  09020IMKDC KA PTB  00004  K0                0231NES        000000000000 DENSO TEN (THAILAND)                                                                                                                                            *G         20190912 IMCT                IMCT                                                                                                                    WMF1909126.TXT
MAKK99077793201909D3               89828070100P3YK20190925000120SPEAKER ASM                   M IMCTM CM1    TNTH  09020IMKDC KA PTB  00004  K0                1431DES        000000000000 DENSO TEN (THAILAND)                                                                                                                                            *G         20190912 IMCT                IMCT                                                                                                                    WMF1909126.TXT
MAKK99077794201909N3               89828070100P3YK20190926000090SPEAKER ASM                   M IMCTM CM1    TNTH  09020IMKDC KA PTB  00004  K0                0231NES        000000000000 DENSO TEN (THAILAND)                                                                                                                                            *G         20190912 IMCT                IMCT                                                                                                                    WMF1909126.TXT
MAKK99077795201909D3               89828070100P3YK20190926000090SPEAKER ASM                   M IMCTM CM1    TNTH  09020IMKDC KA PTB  00004  K0                1431DES        000000000000 DENSO TEN (THAILAND)                                                                                                                                            *G         20190912 IMCT                IMCT                                                                                                                    WMF1909126.TXT
MAKK99077796201909N3               89828070100P3YK20190927000090SPEAKER ASM                   M IMCTM CM1    TNTH  09020IMKDC KA PTB  00004  K0                0231NES        000000000000 DENSO TEN (THAILAND)                                                                                                                                            *G         20190912 IMCT                IMCT                                                                                                                    WMF1909126.TXT
MAKK99077797201909D3               89828070200P3YK20190923000030SPEAKER ASM                   M IMCTM CM1    TNTH  09020IMKDC KA PTB  00005  K0                1431DES        000000000000 DENSO TEN (THAILAND)                                                                                                                                            *G         20190912 IMCT                IMCT                                                                                                                    WMF1909126.TXT
MAKK99077798201909N3               89828070200P3YK20190924000030SPEAKER ASM                   M IMCTM CM1    TNTH  09020IMKDC KA PTB  00005  K0                0231NES        000000000000 DENSO TEN (THAILAND)                                                                                                                                            *G         20190912 IMCT                IMCT                                                                                                                    WMF1909126.TXT
MAKK99077799201909D3               89828070200P3YK20190924000030SPEAKER ASM                   M IMCTM CM1    TNTH  09020IMKDC KA PTB  00005  K0                1431DES        000000000000 DENSO TEN (THAILAND)                                                                                                                                            *G         20190912 IMCT                IMCT                                                                                                                    WMF1909126.TXT
MAKK99077800201909N3               89828070200P3YK20190925000060SPEAKER ASM                   M IMCTM CM1    TNTH  09020IMKDC KA PTB  00005  K0                0231NES        000000000000 DENSO TEN (THAILAND)                                                                                                                                            *G         20190912 IMCT                IMCT                                                                                                                    WMF1909126.TXT
MAKK99077801201909D3               89828070200P3YK20190925000060SPEAKER ASM                   M IMCTM CM1    TNTH  09020IMKDC KA PTB  00005  K0                1431DES        000000000000 DENSO TEN (THAILAND)                                                                                                                                            *G         20190912 IMCT                IMCT                                                                                                                    WMF1909126.TXT
MAKK99077802201909N3               89828070200P3YK20190926000030SPEAKER ASM                   M IMCTM CM1    TNTH  09020IMKDC KA PTB  00005  K0                0231NES        000000000000 DENSO TEN (THAILAND)                                                                                                                                            *G         20190912 IMCT                IMCT                                                                                                                    WMF1909126.TXT
MAKK99077803201909D3               89828070300P3YK20190923000060SPEAKER ASM                   M IMCTM CM1    TNTH  09020IMKDC KA PTB  00015  K0                1431DES        000000000000 DENSO TEN (THAILAND)                                                                                                                                            *G         20190912 IMCT                IMCT                                                                                                                    WMF1909126.TXT
MAKK99077804201909N3               89828070300P3YK20190924000060SPEAKER ASM                   M IMCTM CM1    TNTH  09020IMKDC KA PTB  00015  K0                0231NES        000000000000 DENSO TEN (THAILAND)                                                                                                                                            *G         20190912 IMCT                IMCT                                                                                                                    WMF1909126.TXT
MAKK99077805201909D3               89828070300P3YK20190924000030SPEAKER ASM                   M IMCTM CM1    TNTH  09020IMKDC KA PTB  00015  K0                1431DES        000000000000 DENSO TEN (THAILAND)                                                                                                                                            *G         20190912 IMCT                IMCT                                                                                                                    WMF1909126.TXT
MAKK99077806201909N3               89828070300P3YK20190925000060SPEAKER ASM                   M IMCTM CM1    TNTH  09020IMKDC KA PTB  00015  K0                0231NES        000000000000 DENSO TEN (THAILAND)                                                                                                                                            *G         20190912 IMCT                IMCT                                                                                                                    WMF1909126.TXT
MAKK99077807201909D3               89828070300P3YK20190925000060SPEAKER ASM                   M IMCTM CM1    TNTH  09020IMKDC KA PTB  00015  K0                1431DES        000000000000 DENSO TEN (THAILAND)                                                                                                                                            *G         20190912 IMCT                IMCT                                                                                                                    WMF1909126.TXT
MAKK99077808201909N3               89828070300P3YK20190926000030SPEAKER ASM                   M IMCTM CM1    TNTH  09020IMKDC KA PTB  00015  K0                0231NES        000000000000 DENSO TEN (THAILAND)                                                                                                                                            *G         20190912 IMCT                IMCT                                                                                                                    WMF1909126.TXT
MAKK99077809201909N3               89831228410P3YK20190925000015RADIO;AM/FM,CD                M IMCTM CM1    TNTH  09020IMKDC KA   CPB00003  K0                0231NES        000000000000 DENSO TEN (THAILAND)                                                                                                                                            *G         20190912 IMCT                IMCT                                                                                                                    WMF1909126.TXT
