REC2019090520190905ISUZU                              33     
MAKK99058076201909D3               89825451200P3YK20190916000060SPEAKER ASM;ROOF              M IMCTM CM1    TNTH  09020IMKDC KA PTB  00036  K0                1431DES        000000000000 DENSO TEN (THAILAND)                                                                                                                                            *G         20190905 IMCT                IMCT                                                                                                                    WMF1909055.TXT
MAKK99058077201909D3               89825451200P3YK20190917000030SPEAKER ASM;ROOF              M IMCTM CM1    TNTH  09020IMKDC KA PTB  00036  K0                1431DES        000000000000 DENSO TEN (THAILAND)                                                                                                                                            *G         20190905 IMCT                IMCT                                                                                                                    WMF1909055.TXT
MAKK99058078201909N3               89825451200P3YK20190919000030SPEAKER ASM;ROOF              M IMCTM CM1    TNTH  09020IMKDC KA PTB  00036  K0                0231NES        000000000000 DENSO TEN (THAILAND)                                                                                                                                            *G         20190905 IMCT                IMCT                                                                                                                    WMF1909055.TXT
MAKK99058079201909D3               89828070100P3YK20190916000030SPEAKER ASM                   M IMCTM CM1    TNTH  09020IMKDC KA PTB  00004  K0                1431DES        000000000000 DENSO TEN (THAILAND)                                                                                                                                            *G         20190905 IMCT                IMCT                                                                                                                    WMF1909055.TXT
MAKK99058080201909N3               89828070100P3YK20190917000090SPEAKER ASM                   M IMCTM CM1    TNTH  09020IMKDC KA PTB  00004  K0                0231NES        000000000000 DENSO TEN (THAILAND)                                                                                                                                            *G         20190905 IMCT                IMCT                                                                                                                    WMF1909055.TXT
MAKK99058081201909D3               89828070100P3YK20190917000060SPEAKER ASM                   M IMCTM CM1    TNTH  09020IMKDC KA PTB  00004  K0                1431DES        000000000000 DENSO TEN (THAILAND)                                                                                                                                            *G         20190905 IMCT                IMCT                                                                                                                    WMF1909055.TXT
MAKK99058082201909N3               89828070100P3YK20190918000120SPEAKER ASM                   M IMCTM CM1    TNTH  09020IMKDC KA PTB  00004  K0                0231NES        000000000000 DENSO TEN (THAILAND)                                                                                                                                            *G         20190905 IMCT                IMCT                                                                                                                    WMF1909055.TXT
MAKK99058083201909D3               89828070100P3YK20190918000060SPEAKER ASM                   M IMCTM CM1    TNTH  09020IMKDC KA PTB  00004  K0                1431DES        000000000000 DENSO TEN (THAILAND)                                                                                                                                            *G         20190905 IMCT                IMCT                                                                                                                    WMF1909055.TXT
MAKK99058084201909N3               89828070100P3YK20190919000090SPEAKER ASM                   M IMCTM CM1    TNTH  09020IMKDC KA PTB  00004  K0                0231NES        000000000000 DENSO TEN (THAILAND)                                                                                                                                            *G         20190905 IMCT                IMCT                                                                                                                    WMF1909055.TXT
MAKK99058085201909D3               89828070100P3YK20190919000090SPEAKER ASM                   M IMCTM CM1    TNTH  09020IMKDC KA PTB  00004  K0                1431DES        000000000000 DENSO TEN (THAILAND)                                                                                                                                            *G         20190905 IMCT                IMCT                                                                                                                    WMF1909055.TXT
MAKK99058086201909N3               89828070100P3YK20190920000030SPEAKER ASM                   M IMCTM CM1    TNTH  09020IMKDC KA PTB  00004  K0                0231NES        000000000000 DENSO TEN (THAILAND)                                                                                                                                            *G         20190905 IMCT                IMCT                                                                                                                    WMF1909055.TXT
MAKK99058087201909D3               89828070100P3YK20190920000090SPEAKER ASM                   M IMCTM CM1    TNTH  09020IMKDC KA PTB  00004  K0                1431DES        000000000000 DENSO TEN (THAILAND)                                                                                                                                            *G         20190905 IMCT                IMCT                                                                                                                    WMF1909055.TXT
MAKK99058088201909N3               89828070100P3YK20190921000060SPEAKER ASM                   M IMCTM CM1    TNTH  09020IMKDC KA PTB  00004  K0                0231NES        000000000000 DENSO TEN (THAILAND)                                                                                                                                            *G         20190905 IMCT                IMCT                                                                                                                    WMF1909055.TXT
MAKK99058089201909D3               89828070200P3YK20190916000030SPEAKER ASM                   M IMCTM CM1    TNTH  09020IMKDC KA PTB  00005  K0                1431DES        000000000000 DENSO TEN (THAILAND)                                                                                                                                            *G         20190905 IMCT                IMCT                                                                                                                    WMF1909055.TXT
MAKK99058090201909N3               89828070200P3YK20190917000060SPEAKER ASM                   M IMCTM CM1    TNTH  09020IMKDC KA PTB  00005  K0                0231NES        000000000000 DENSO TEN (THAILAND)                                                                                                                                            *G         20190905 IMCT                IMCT                                                                                                                    WMF1909055.TXT
MAKK99058091201909N3               89828070200P3YK20190918000030SPEAKER ASM                   M IMCTM CM1    TNTH  09020IMKDC KA PTB  00005  K0                0231NES        000000000000 DENSO TEN (THAILAND)                                                                                                                                            *G         20190905 IMCT                IMCT                                                                                                                    WMF1909055.TXT
MAKK99058092201909N3               89828070200P3YK20190919000060SPEAKER ASM                   M IMCTM CM1    TNTH  09020IMKDC KA PTB  00005  K0                0231NES        000000000000 DENSO TEN (THAILAND)                                                                                                                                            *G         20190905 IMCT                IMCT                                                                                                                    WMF1909055.TXT
MAKK99058093201909D3               89828070200P3YK20190919000030SPEAKER ASM                   M IMCTM CM1    TNTH  09020IMKDC KA PTB  00005  K0                1431DES        000000000000 DENSO TEN (THAILAND)                                                                                                                                            *G         20190905 IMCT                IMCT                                                                                                                    WMF1909055.TXT
MAKK99058094201909N3               89828070200P3YK20190920000030SPEAKER ASM                   M IMCTM CM1    TNTH  09020IMKDC KA PTB  00005  K0                0231NES        000000000000 DENSO TEN (THAILAND)                                                                                                                                            *G         20190905 IMCT                IMCT                                                                                                                    WMF1909055.TXT
MAKK99058095201909D3               89828070200P3YK20190920000030SPEAKER ASM                   M IMCTM CM1    TNTH  09020IMKDC KA PTB  00005  K0                1431DES        000000000000 DENSO TEN (THAILAND)                                                                                                                                            *G         20190905 IMCT                IMCT                                                                                                                    WMF1909055.TXT
MAKK99058096201909N3               89828070200P3YK20190921000030SPEAKER ASM                   M IMCTM CM1    TNTH  09020IMKDC KA PTB  00005  K0                0231NES        000000000000 DENSO TEN (THAILAND)                                                                                                                                            *G         20190905 IMCT                IMCT                                                                                                                    WMF1909055.TXT
MAKK99058097201909D3               89828070300P3YK20190916000030SPEAKER ASM                   M IMCTM CM1    TNTH  09020IMKDC KA PTB  00015  K0                1431DES        000000000000 DENSO TEN (THAILAND)                                                                                                                                            *G         20190905 IMCT                IMCT                                                                                                                    WMF1909055.TXT
MAKK99058098201909N3               89828070300P3YK20190917000060SPEAKER ASM                   M IMCTM CM1    TNTH  09020IMKDC KA PTB  00015  K0                0231NES        000000000000 DENSO TEN (THAILAND)                                                                                                                                            *G         20190905 IMCT                IMCT                                                                                                                    WMF1909055.TXT
MAKK99058099201909D3               89828070300P3YK20190917000030SPEAKER ASM                   M IMCTM CM1    TNTH  09020IMKDC KA PTB  00015  K0                1431DES        000000000000 DENSO TEN (THAILAND)                                                                                                                                            *G         20190905 IMCT                IMCT                                                                                                                    WMF1909055.TXT
MAKK99058100201909N3               89828070300P3YK20190918000030SPEAKER ASM                   M IMCTM CM1    TNTH  09020IMKDC KA PTB  00015  K0                0231NES        000000000000 DENSO TEN (THAILAND)                                                                                                                                            *G         20190905 IMCT                IMCT                                                                                                                    WMF1909055.TXT
MAKK99058101201909D3               89828070300P3YK20190918000030SPEAKER ASM                   M IMCTM CM1    TNTH  09020IMKDC KA PTB  00015  K0                1431DES        000000000000 DENSO TEN (THAILAND)                                                                                                                                            *G         20190905 IMCT                IMCT                                                                                                                    WMF1909055.TXT
MAKK99058102201909N3               89828070300P3YK20190919000060SPEAKER ASM                   M IMCTM CM1    TNTH  09020IMKDC KA PTB  00015  K0                0231NES        000000000000 DENSO TEN (THAILAND)                                                                                                                                            *G         20190905 IMCT                IMCT                                                                                                                    WMF1909055.TXT
MAKK99058103201909D3               89828070300P3YK20190919000030SPEAKER ASM                   M IMCTM CM1    TNTH  09020IMKDC KA PTB  00015  K0                1431DES        000000000000 DENSO TEN (THAILAND)                                                                                                                                            *G         20190905 IMCT                IMCT                                                                                                                    WMF1909055.TXT
MAKK99058104201909N3               89828070300P3YK20190920000060SPEAKER ASM                   M IMCTM CM1    TNTH  09020IMKDC KA PTB  00015  K0                0231NES        000000000000 DENSO TEN (THAILAND)                                                                                                                                            *G         20190905 IMCT                IMCT                                                                                                                    WMF1909055.TXT
MAKK99058105201909D3               89828070300P3YK20190920000030SPEAKER ASM                   M IMCTM CM1    TNTH  09020IMKDC KA PTB  00015  K0                1431DES        000000000000 DENSO TEN (THAILAND)                                                                                                                                            *G         20190905 IMCT                IMCT                                                                                                                    WMF1909055.TXT
MAKK99058106201909N3               89828070300P3YK20190921000030SPEAKER ASM                   M IMCTM CM1    TNTH  09020IMKDC KA PTB  00015  K0                0231NES        000000000000 DENSO TEN (THAILAND)                                                                                                                                            *G         20190905 IMCT                IMCT                                                                                                                    WMF1909055.TXT
MAKK99064072201909D3               89828070100P3YK20190917000030SPEAKER ASM                   M IMCTM PK3    TNTH  09020IMKDC KA PTB  00004  K0                1431DES        000000000000 DENSO TEN (THAILAND)                                                                                                                                            *G         20190905 IMCT                IMCT                                                                                                                    WMF1909055.TXT
MAKK99064073201909D3               89828070200P3YK20190917000030SPEAKER ASM                   M IMCTM PK3    TNTH  09020IMKDC KA PTB  00005  K0                1431DES        000000000000 DENSO TEN (THAILAND)                                                                                                                                            *G         20190905 IMCT                IMCT                                                                                                                    WMF1909055.TXT
