REC2019091920190919ISUZU                              3      
MDEFK9T12781201909                D89828070100PV4F20190924000030SPEAKER ASM                   M IMCTM S7FL05 TNTH  09020IMCT  S7 PTB  00004                    1600 SR        000000000000 DENSO TEN (THAILAND)190L49R0001   190L51R0010   D190903801    D190903815    000000                                                                              *R         20190919 IMCT                IMCT                                                                                                                    RMF1909195.TXT
MDEFK9T12782201909                D89828070200PV4F20190924000030SPEAKER ASM                   M IMCTM S7FL05 TNTH  09020IMCT  S7 PTB  00005                    1600 SR        000000000000 DENSO TEN (THAILAND)190L49R0001   190L51R0010   D190903801    D190903815    000000                                                                              *R         20190919 IMCT                IMCT                                                                                                                    RMF1909195.TXT
MDEFK9T12783201909                D89828070300PT4F20190924000030SPEAKER ASM                   M IMCTM S7TS02 TNTH  09020IMCT  S7 PTB  00015                    1600 SR        000000000000 DENSO TEN (THAILAND)190L49R0001   190L51R0010   D190903801    D190903815    000000                                                                              *R         20190919 IMCT                IMCT                                                                                                                    RMF1909195.TXT
