REC2019092620190926ISUZU                              31     
MAKK99120768201909D3               89825451200P3YK20191007000030SPEAKER ASM;ROOF              M IMCTM CM1    TNTH  09020IMKDC KA PTB  00036  K0                1431DES        000000000000 DENSO TEN (THAILAND)                                                                                                                                            *G         20190926 IMCT                IMCT                                                                                                                    WMF1909269.TXT
MAKK99120769201909D3               89825451200P3YK20191008000060SPEAKER ASM;ROOF              M IMCTM CM1    TNTH  09020IMKDC KA PTB  00036  K0                1431DES        000000000000 DENSO TEN (THAILAND)                                                                                                                                            *G         20190926 IMCT                IMCT                                                                                                                    WMF1909269.TXT
MAKK99120770201909D3               89825451200P3YK20191009000030SPEAKER ASM;ROOF              M IMCTM CM1    TNTH  09020IMKDC KA PTB  00036  K0                1431DES        000000000000 DENSO TEN (THAILAND)                                                                                                                                            *G         20190926 IMCT                IMCT                                                                                                                    WMF1909269.TXT
MAKK99120771201909D3               89828070100P3YK20191007000060SPEAKER ASM                   M IMCTM CM1    TNTH  09020IMKDC KA PTB  00004  K0                1431DES        000000000000 DENSO TEN (THAILAND)                                                                                                                                            *G         20190926 IMCT                IMCT                                                                                                                    WMF1909269.TXT
MAKK99120772201909N3               89828070100P3YK20191008000090SPEAKER ASM                   M IMCTM CM1    TNTH  09020IMKDC KA PTB  00004  K0                0231NES        000000000000 DENSO TEN (THAILAND)                                                                                                                                            *G         20190926 IMCT                IMCT                                                                                                                    WMF1909269.TXT
MAKK99120773201909N3               89828070100P3YK20191009000090SPEAKER ASM                   M IMCTM CM1    TNTH  09020IMKDC KA PTB  00004  K0                0231NES        000000000000 DENSO TEN (THAILAND)                                                                                                                                            *G         20190926 IMCT                IMCT                                                                                                                    WMF1909269.TXT
MAKK99120774201909D3               89828070100P3YK20191009000030SPEAKER ASM                   M IMCTM CM1    TNTH  09020IMKDC KA PTB  00004  K0                1431DES        000000000000 DENSO TEN (THAILAND)                                                                                                                                            *G         20190926 IMCT                IMCT                                                                                                                    WMF1909269.TXT
MAKK99120775201909N3               89828070100P3YK20191010000090SPEAKER ASM                   M IMCTM CM1    TNTH  09020IMKDC KA PTB  00004  K0                0231NES        000000000000 DENSO TEN (THAILAND)                                                                                                                                            *G         20190926 IMCT                IMCT                                                                                                                    WMF1909269.TXT
MAKK99120776201909D3               89828070100P3YK20191010000060SPEAKER ASM                   M IMCTM CM1    TNTH  09020IMKDC KA PTB  00004  K0                1431DES        000000000000 DENSO TEN (THAILAND)                                                                                                                                            *G         20190926 IMCT                IMCT                                                                                                                    WMF1909269.TXT
MAKK99120777201909D3               89828070100P3YK20191011000090SPEAKER ASM                   M IMCTM CM1    TNTH  09020IMKDC KA PTB  00004  K0                1431DES        000000000000 DENSO TEN (THAILAND)                                                                                                                                            *G         20190926 IMCT                IMCT                                                                                                                    WMF1909269.TXT
MAKK99120778201909N3               89828070100P3YK20191012000090SPEAKER ASM                   M IMCTM CM1    TNTH  09020IMKDC KA PTB  00004  K0                0231NES        000000000000 DENSO TEN (THAILAND)                                                                                                                                            *G         20190926 IMCT                IMCT                                                                                                                    WMF1909269.TXT
MAKK99120779201909D3               89828070100P3YK20191012000090SPEAKER ASM                   M IMCTM CM1    TNTH  09020IMKDC KA PTB  00004  K0                1431DES        000000000000 DENSO TEN (THAILAND)                                                                                                                                            *G         20190926 IMCT                IMCT                                                                                                                    WMF1909269.TXT
MAKK99120780201909N3               89828070100P3YK20191013000030SPEAKER ASM                   M IMCTM CM1    TNTH  09020IMKDC KA PTB  00004  K0                0231NES        000000000000 DENSO TEN (THAILAND)                                                                                                                                            *G         20190926 IMCT                IMCT                                                                                                                    WMF1909269.TXT
MAKK99120781201909N3               89828070200P3YK20191010000060SPEAKER ASM                   M IMCTM CM1    TNTH  09020IMKDC KA PTB  00005  K0                0231NES        000000000000 DENSO TEN (THAILAND)                                                                                                                                            *G         20190926 IMCT                IMCT                                                                                                                    WMF1909269.TXT
MAKK99120782201909D3               89828070200P3YK20191010000030SPEAKER ASM                   M IMCTM CM1    TNTH  09020IMKDC KA PTB  00005  K0                1431DES        000000000000 DENSO TEN (THAILAND)                                                                                                                                            *G         20190926 IMCT                IMCT                                                                                                                    WMF1909269.TXT
MAKK99120783201909N3               89828070200P3YK20191012000030SPEAKER ASM                   M IMCTM CM1    TNTH  09020IMKDC KA PTB  00005  K0                0231NES        000000000000 DENSO TEN (THAILAND)                                                                                                                                            *G         20190926 IMCT                IMCT                                                                                                                    WMF1909269.TXT
MAKK99120784201909D3               89828070200P3YK20191012000030SPEAKER ASM                   M IMCTM CM1    TNTH  09020IMKDC KA PTB  00005  K0                1431DES        000000000000 DENSO TEN (THAILAND)                                                                                                                                            *G         20190926 IMCT                IMCT                                                                                                                    WMF1909269.TXT
MAKK99120785201909N3               89828070200P3YK20191013000030SPEAKER ASM                   M IMCTM CM1    TNTH  09020IMKDC KA PTB  00005  K0                0231NES        000000000000 DENSO TEN (THAILAND)                                                                                                                                            *G         20190926 IMCT                IMCT                                                                                                                    WMF1909269.TXT
MAKK99120786201909D3               89828070300P3YK20191007000030SPEAKER ASM                   M IMCTM CM1    TNTH  09020IMKDC KA PTB  00015  K0                1431DES        000000000000 DENSO TEN (THAILAND)                                                                                                                                            *G         20190926 IMCT                IMCT                                                                                                                    WMF1909269.TXT
MAKK99120787201909N3               89828070300P3YK20191008000030SPEAKER ASM                   M IMCTM CM1    TNTH  09020IMKDC KA PTB  00015  K0                0231NES        000000000000 DENSO TEN (THAILAND)                                                                                                                                            *G         20190926 IMCT                IMCT                                                                                                                    WMF1909269.TXT
MAKK99120788201909D3               89828070300P3YK20191009000030SPEAKER ASM                   M IMCTM CM1    TNTH  09020IMKDC KA PTB  00015  K0                1431DES        000000000000 DENSO TEN (THAILAND)                                                                                                                                            *G         20190926 IMCT                IMCT                                                                                                                    WMF1909269.TXT
MAKK99120789201909N3               89828070300P3YK20191010000060SPEAKER ASM                   M IMCTM CM1    TNTH  09020IMKDC KA PTB  00015  K0                0231NES        000000000000 DENSO TEN (THAILAND)                                                                                                                                            *G         20190926 IMCT                IMCT                                                                                                                    WMF1909269.TXT
MAKK99120790201909D3               89828070300P3YK20191010000060SPEAKER ASM                   M IMCTM CM1    TNTH  09020IMKDC KA PTB  00015  K0                1431DES        000000000000 DENSO TEN (THAILAND)                                                                                                                                            *G         20190926 IMCT                IMCT                                                                                                                    WMF1909269.TXT
MAKK99120791201909N3               89828070300P3YK20191011000030SPEAKER ASM                   M IMCTM CM1    TNTH  09020IMKDC KA PTB  00015  K0                0231NES        000000000000 DENSO TEN (THAILAND)                                                                                                                                            *G         20190926 IMCT                IMCT                                                                                                                    WMF1909269.TXT
MAKK99120792201909D3               89828070300P3YK20191011000060SPEAKER ASM                   M IMCTM CM1    TNTH  09020IMKDC KA PTB  00015  K0                1431DES        000000000000 DENSO TEN (THAILAND)                                                                                                                                            *G         20190926 IMCT                IMCT                                                                                                                    WMF1909269.TXT
MAKK99120793201909N3               89828070300P3YK20191012000060SPEAKER ASM                   M IMCTM CM1    TNTH  09020IMKDC KA PTB  00015  K0                0231NES        000000000000 DENSO TEN (THAILAND)                                                                                                                                            *G         20190926 IMCT                IMCT                                                                                                                    WMF1909269.TXT
MAKK99120794201909D3               89828070300P3YK20191012000030SPEAKER ASM                   M IMCTM CM1    TNTH  09020IMKDC KA PTB  00015  K0                1431DES        000000000000 DENSO TEN (THAILAND)                                                                                                                                            *G         20190926 IMCT                IMCT                                                                                                                    WMF1909269.TXT
MAKK99120795201909N3               89828070300P3YK20191013000030SPEAKER ASM                   M IMCTM CM1    TNTH  09020IMKDC KA PTB  00015  K0                0231NES        000000000000 DENSO TEN (THAILAND)                                                                                                                                            *G         20190926 IMCT                IMCT                                                                                                                    WMF1909269.TXT
MAKK99120796201909N3               89831228410P3YK20191011000015RADIO;AM/FM,CD                M IMCTM CM1    TNTH  09020IMKDC KA   CPB00003  K0                0231NES        000000000000 DENSO TEN (THAILAND)                                                                                                                                            *G         20190926 IMCT                IMCT                                                                                                                    WMF1909269.TXT
MAKK99126950201909D3               89828070100P3YK20191008000030SPEAKER ASM                   M IMCTM PK3    TNTH  09020IMKDC KA PTB  00004  K0                1431DES        000000000000 DENSO TEN (THAILAND)                                                                                                                                            *G         20190926 IMCT                IMCT                                                                                                                    WMF1909269.TXT
MAKK99126951201909D3               89828070200P3YK20191008000030SPEAKER ASM                   M IMCTM PK3    TNTH  09020IMKDC KA PTB  00005  K0                1431DES        000000000000 DENSO TEN (THAILAND)                                                                                                                                            *G         20190926 IMCT                IMCT                                                                                                                    WMF1909269.TXT
