REC2019090520190905ISUZU                              4      
MDEFK9T04366201909                D89750126100PT4F20190911000002RADIO;AM/FM CD D              M IMCTM S7TS01 TNTH  09020IMCT  S7 PTB  00003                    0830 SR        000000000000 DENSO TEN (THAILAND)190D12R0059   190D12R0060   D190902001    D190902002    000000                                                                              *R         20190905 IMCT                IMCT                                                                                                                    RMF1909058.TXT
MDEFK9T04367201909                D89828070100PV4F20190911000030SPEAKER ASM                   M IMCTM S7FL05 TNTH  09020IMCT  S7 PTB  00004                    0830 SR        000000000000 DENSO TEN (THAILAND)190D12R0059   190L38R0030   D190902001    D190902015    000000                                                                              *R         20190905 IMCT                IMCT                                                                                                                    RMF1909058.TXT
MDEFK9T04368201909                D89828070200PV4F20190911000004SPEAKER ASM                   M IMCTM S7FL05 TNTH  09020IMCT  S7 PTB  00005                    0830 SR        000000000000 DENSO TEN (THAILAND)190D12R0059   190D12R0060   D190902001    D190902002    000000                                                                              *R         20190905 IMCT                IMCT                                                                                                                    RMF1909058.TXT
MDEFK9T04369201909                D89828070300PT4F20190911000004SPEAKER ASM                   M IMCTM S7TS02 TNTH  09020IMCT  S7 PTB  00015                    0830 SR        000000000000 DENSO TEN (THAILAND)190D12R0059   190D12R0060   D190902001    D190902002    000000                                                                              *R         20190905 IMCT                IMCT                                                                                                                    RMF1909058.TXT
