REC2019092520190925ISUZU                              6      
MDEFK9T16072201910                D89828070100PV4F20191001000012SPEAKER ASM                   M IMCTM S7FL05 TNTH  09020IMCT  S7 PTB  00004                    1030 SR        000000000000 DENSO TEN (THAILAND)190J94R0097   190J96R0050   H191000310    H191000315    000000                                                                              *R         20190925 IMCT                IMCT                                                                                                                    RMF1909255.TXT
MDEFK9T16073201910                D89828070200PV4F20190930000012SPEAKER ASM                   M IMCTM S7FL05 TNTH  09020IMCT  S7 PTB  00005                    2230 SR        000000000000 DENSO TEN (THAILAND)190K44R0040   190K44R0045   C191000203    C191000208    000000                                                                              *R         20190925 IMCT                IMCT                                                                                                                    RMF1909255.TXT
MDEFK9T16074201910                D89828070300PT4F20190930000012SPEAKER ASM                   M IMCTM S7TS02 TNTH  09020IMCT  S7 PTB  00015                    2230 SR        000000000000 DENSO TEN (THAILAND)190K44R0040   190K44R0045   C191000203    C191000208    000000                                                                              *R         20190925 IMCT                IMCT                                                                                                                    RMF1909255.TXT
MDEFK9T16075201910                D89831229020PT4F20190930000006RADIO;AM/FM,CD                M IMCTM S7U137 TNTH  09020IMCT  S7 PTB  00003                    2230 SR        000000000000 DENSO TEN (THAILAND)190K44R0040   190K44R0045   C191000203    C191000208    000000                                                                              *R         20190925 IMCT                IMCT                                                                                                                    RMF1909255.TXT
MDEFK9436445201910                D89828070100PV4F20190930000032SPEAKER ASM                   M IMCTM S7FL05 TNTH  09020IMCT  S7 PTB  00004                    2230 SR        000000000000 DENSO TEN (THAILAND)190D94R0004   190D93R0044   C191000201    H191000301    000000                                                                              *R         20190925 IMCT                IMCT                                                                                                                    RMF1909255.TXT
MDEFK9436446201910                D89828070100PV4F20191001000016SPEAKER ASM                   M IMCTM S7FL05 TNTH  09020IMCT  S7 PTB  00004                    0830 SR        000000000000 DENSO TEN (THAILAND)190D93R0045   190J94R0096   H191000302    H191000309    000000                                                                              *R         20190925 IMCT                IMCT                                                                                                                    RMF1909255.TXT
