REC2019092120190921ISUZU                              9      
MDEFK9T13638201909                D89828070100PV4F20190926000028SPEAKER ASM                   M IMCTM S7FL05 TNTH  09020IMCT  S7 PTB  00004                    1600 SR        000000000000 DENSO TEN (THAILAND)190L47R0007   190L53R0007   D190904002    D190904015    000000                                                                              *R         20190921 IMCT                IMCT                                                                                                                    RMF1909215.TXT
MDEFK9T13639201909                D89828070200PV4F20190926000030SPEAKER ASM                   M IMCTM S7FL05 TNTH  09020IMCT  S7 PTB  00005                    1600 SR        000000000000 DENSO TEN (THAILAND)190L47R0006   190L53R0007   D190904001    D190904015    000000                                                                              *R         20190921 IMCT                IMCT                                                                                                                    RMF1909215.TXT
MDEFK9T13640201909                D89828070300PT4F20190926000030SPEAKER ASM                   M IMCTM S7TS02 TNTH  09020IMCT  S7 PTB  00015                    1600 SR        000000000000 DENSO TEN (THAILAND)190L47R0006   190L53R0007   D190904001    D190904015    000000                                                                              *R         20190921 IMCT                IMCT                                                                                                                    RMF1909215.TXT
MDEFK9430437201909                D89828070100PV4F20190926000008SPEAKER ASM                   M IMCTM S7FL05 TNTH  09020IMCT  S7 PTB  00004                    0230 SR        000000000000 DENSO TEN (THAILAND)190L47R0001   190L47R0004   D190903901    D190903904    000000                                                                              *R         20190921 IMCT                IMCT                                                                                                                    RMF1909215.TXT
MDEFK9430438201909                D89828070100PV4F20190926000024SPEAKER ASM                   M IMCTM S7FL05 TNTH  09020IMCT  S7 PTB  00004                    0400 SR        000000000000 DENSO TEN (THAILAND)190L47R0005   190L47R0006   D190903905    D190904001    000000                                                                              *R         20190921 IMCT                IMCT                                                                                                                    RMF1909215.TXT
MDEFK9430439201909                D89828070200PV4F20190926000010SPEAKER ASM                   M IMCTM S7FL05 TNTH  09020IMCT  S7 PTB  00005                    0230 SR        000000000000 DENSO TEN (THAILAND)190L47R0001   190L47R0005   D190903901    D190903905    000000                                                                              *R         20190921 IMCT                IMCT                                                                                                                    RMF1909215.TXT
MDEFK9430440201909                D89828070200PV4F20190926000020SPEAKER ASM                   M IMCTM S7FL05 TNTH  09020IMCT  S7 PTB  00005                    0400 SR        000000000000 DENSO TEN (THAILAND)190L48R0001   190L49R0010   D190903906    D190903915    000000                                                                              *R         20190921 IMCT                IMCT                                                                                                                    RMF1909215.TXT
MDEFK9430441201909                D89828070300PT4F20190926000015SPEAKER ASM                   M IMCTM S7TS02 TNTH  09020IMCT  S7 PTB  00015                    0230 SR        000000000000 DENSO TEN (THAILAND)190L47R0001   190L48R0003   D190903901    D190903908    000000                                                                              *R         20190921 IMCT                IMCT                                                                                                                    RMF1909215.TXT
MDEFK9430442201909                D89828070300PT4F20190926000015SPEAKER ASM                   M IMCTM S7TS02 TNTH  09020IMCT  S7 PTB  00015                    0400 SR        000000000000 DENSO TEN (THAILAND)190L48R0003   190L49R0010   D190903908    D190903915    000000                                                                              *R         20190921 IMCT                IMCT                                                                                                                    RMF1909215.TXT
