REC2019101520191015ISUZU                              16     
MDEDKO305322201910                D89828070100PV1D20191018000090SPEAKER ASM                   M IMCTM S5MB11 TNTH  09020IMCT  S5 PTB  00004                    2230 SR        000000000000 DENSO TEN (THAILAND)190J94L0234235190K21L0059059                                                                                                                *          20191015 IMCT                IMCT                                                                                                                    WMF1910154.TXT
MDEDKO305323201910                D89828070100PV1D20191019000090SPEAKER ASM                   M IMCTM S5MB11 TNTH  09020IMCT  S5 PTB  00004                    0230 SR        000000000000 DENSO TEN (THAILAND)190J94L0236236190K08L0025026                                                                                                                *          20191015 IMCT                IMCT                                                                                                                    WMF1910154.TXT
MDEDKO305324201910                D89828070100PV1D20191019000120SPEAKER ASM                   M IMCTM S5MB11 TNTH  09020IMCT  S5 PTB  00004                    0400 SR        000000000000 DENSO TEN (THAILAND)190J94L0237238190K08L0027028                                                                                                                *          20191015 IMCT                IMCT                                                                                                                    WMF1910154.TXT
MDEDKO305325201910                D89828070100PV1D20191021000030SPEAKER ASM                   M IMCTM S5MB11 TNTH  09020IMCT  S5 PTB  00004                    0830 SR        000000000000 DENSO TEN (THAILAND)190J94L0239239                                                                                                                              *          20191015 IMCT                IMCT                                                                                                                    WMF1910154.TXT
MDEDKO305326201910                D89828070100PV4D20191019000030SPEAKER ASM                   M IMCTM S0FL05 TNTH  09020IMCT  S0 PTB  00004                    0230 SR        000000000000 DENSO TEN (THAILAND)190J92U0005005                                                                                                                              *          20191015 IMCT                IMCT                                                                                                                    WMF1910154.TXT
MDEDKO305327201910                D89828070200PV1D20191018000030SPEAKER ASM                   M IMCTM S5MA14 TNTH  09020IMCT  S5 PTB  00005                    2230 SR        000000000000 DENSO TEN (THAILAND)190K21L0059059                                                                                                                              *          20191015 IMCT                IMCT                                                                                                                    WMF1910154.TXT
MDEDKO305328201910                D89828070300PT1D20191018000030SPEAKER ASM                   M IMCTM S5NB012TNTH  09020IMCT  S5 PTB  00015                    2230 SR        000000000000 DENSO TEN (THAILAND)190K21L0059059                                                                                                                              *          20191015 IMCT                IMCT                                                                                                                    WMF1910154.TXT
MDEDKO305329201910                D89828070300PT4D20191019000030SPEAKER ASM                   M IMCTM S9TS02 TNTH  09020IMCT  S9 PTB  00015                    0230 SR        000000000000 DENSO TEN (THAILAND)190J92U0005005                                                                                                                              *          20191015 IMCT                IMCT                                                                                                                    WMF1910154.TXT
MDEDKO305330201910                D89831229210PT4D20191019000015RADIO;AM/FM,CD                M IMCTM S9CO001TNTH  09020IMCT  S9 PTB  00003                    0230 SR        000000000000 DENSO TEN (THAILAND)190J92U0005005                                                                                                                              *          20191015 IMCT                IMCT                                                                                                                    WMF1910154.TXT
MDEDKO305331201910                D89838031200PT1D20191018000015RADIO;ASM DVD                 M IMCTM S5ND041TNTH  09020IMCT  S5 PTB  00003                    2230 SR        000000000000 DENSO TEN (THAILAND)190K21L0059059                                                                                                                              *          20191015 IMCT                IMCT                                                                                                                    WMF1910154.TXT
MDEUKO228048201910                D89828070100PT4U20191019000030SPEAKER ASM                   M IMCTM S0FL05 TNTH  09020IMCT  S0 PTB  00004                    0230 SR        000000000000 DENSO TEN (THAILAND)190G36U0026026                                                                                                                              *          20191015 IMCT                IMCT                                                                                                                    WMF1910154.TXT
MDEUKO228049201910                D89828070100PT4U20191019000030SPEAKER ASM                   M IMCTM S0FL05 TNTH  09020IMCT  S0 PTB  00004                    0400 SR        000000000000 DENSO TEN (THAILAND)190G36U0027027                                                                                                                              *          20191015 IMCT                IMCT                                                                                                                    WMF1910154.TXT
MDEUKO228050201910                D89828070200PV4U20191019000030SPEAKER ASM                   M IMCTM S0FR05 TNTH  09020IMCT  S0 PTB  00005                    0230 SR        000000000000 DENSO TEN (THAILAND)190G36U0026026                                                                                                                              *          20191015 IMCT                IMCT                                                                                                                    WMF1910154.TXT
MDEUKO228051201910                D89828070200PV4U20191019000030SPEAKER ASM                   M IMCTM S0FR05 TNTH  09020IMCT  S0 PTB  00005                    0400 SR        000000000000 DENSO TEN (THAILAND)190G36U0027027                                                                                                                              *          20191015 IMCT                IMCT                                                                                                                    WMF1910154.TXT
MDEUKO228052201910                D89828070300PT4U20191019000030SPEAKER ASM                   M IMCTM S9TS02 TNTH  09020IMCT  S9 PTB  00015                    0230 SR        000000000000 DENSO TEN (THAILAND)190G36U0026026                                                                                                                              *          20191015 IMCT                IMCT                                                                                                                    WMF1910154.TXT
MDEUKO228053201910                D89828070300PT4U20191019000030SPEAKER ASM                   M IMCTM S9TS02 TNTH  09020IMCT  S9 PTB  00015                    0400 SR        000000000000 DENSO TEN (THAILAND)190G36U0027027                                                                                                                              *          20191015 IMCT                IMCT                                                                                                                    WMF1910154.TXT
