REC2019101420191014ISUZU                              6      
MDEBKOT04513201910                D89828070100PT4B20191017000030SPEAKER ASM                   M IMCTM S7FL05 TNTH  09020IMCT  S7 PTB  00004                    2230 SR        000000000000 DENSO TEN (THAILAND)190F59R0047   190F61R0057   Z191003801    Z191003815    000000                                                                              *R         20191014 IMCT                IMCT                                                                                                                    RMF1910143.TXT
MDEBKOT04514201910                D89828070200PV4B20191017000030SPEAKER ASM                   M IMCTM S7FL05 TNTH  09020IMCT  S7 PTB  00005                    2230 SR        000000000000 DENSO TEN (THAILAND)190F59R0047   190F61R0057   Z191003801    Z191003815    000000                                                                              *R         20191014 IMCT                IMCT                                                                                                                    RMF1910143.TXT
MDEBKOT04515201910                D89828070300PT4B20191017000030SPEAKER ASM                   M IMCTM S7TS02 TNTH  09020IMCT  S7 PTB  00015                    2230 SR        000000000000 DENSO TEN (THAILAND)190F59R0047   190F61R0057   Z191003801    Z191003815    000000                                                                              *R         20191014 IMCT                IMCT                                                                                                                    RMF1910143.TXT
MDEBKOT04516201910                D89838432900PT4B20191017000010RADIO;ASM DVD                 M IMCTM S7TS01 TNTH  09020IMCT  S7 PTB  00003                    2230 SR        000000000000 DENSO TEN (THAILAND)190F61R0048   190F61R0057   Z191003806    Z191003815    000000                                                                              *R         20191014 IMCT                IMCT                                                                                                                    RMF1910143.TXT
MDEFKOT10200201910                D89828070100PV4F20191018000010SPEAKER ASM                   M IMCTM S7FL05 TNTH  09020IMCT  S7 PTB  00004                    1030 SR        000000000000 DENSO TEN (THAILAND)190D89R0062   190D89R0066   R191003911    R191003915    000000                                                                              *R         20191014 IMCT                IMCT                                                                                                                    RMF1910143.TXT
MDEFKO227499201910                D89828070100PV4F20191018000020SPEAKER ASM                   M IMCTM S7FL05 TNTH  09020IMCT  S7 PTB  00004                    0830 SR        000000000000 DENSO TEN (THAILAND)190D28R0026   190D89R0061   R191003901    R191003910    000000                                                                              *R         20191014 IMCT                IMCT                                                                                                                    RMF1910143.TXT
