REC2019103120191031ISUZU                              31     
MAKK9O105614201910N3               89825451200P3YK20191114000030SPEAKER ASM;ROOF              M IMCTM CM1    TNTH  09020IMKDC KA PTB  00036  K0                0231NES        000000000000 DENSO TEN (THAILAND)                                                                                                                                            *G         20191031 IMCT                IMCT                                                                                                                    WMF1910317.TXT
MAKK9O105615201910N3               89825451200P3YK20191116000030SPEAKER ASM;ROOF              M IMCTM CM1    TNTH  09020IMKDC KA PTB  00036  K0                0231NES        000000000000 DENSO TEN (THAILAND)                                                                                                                                            *G         20191031 IMCT                IMCT                                                                                                                    WMF1910317.TXT
MAKK9O105616201910D3               89828070100P3YK20191111000120SPEAKER ASM                   M IMCTM CM1    TNTH  09020IMKDC KA PTB  00004  K0                1431DES        000000000000 DENSO TEN (THAILAND)                                                                                                                                            *G         20191031 IMCT                IMCT                                                                                                                    WMF1910317.TXT
MAKK9O105617201910N3               89828070100P3YK20191112000120SPEAKER ASM                   M IMCTM CM1    TNTH  09020IMKDC KA PTB  00004  K0                0231NES        000000000000 DENSO TEN (THAILAND)                                                                                                                                            *G         20191031 IMCT                IMCT                                                                                                                    WMF1910317.TXT
MAKK9O105618201910D3               89828070100P3YK20191112000150SPEAKER ASM                   M IMCTM CM1    TNTH  09020IMKDC KA PTB  00004  K0                1431DES        000000000000 DENSO TEN (THAILAND)                                                                                                                                            *G         20191031 IMCT                IMCT                                                                                                                    WMF1910317.TXT
MAKK9O105619201910N3               89828070100P3YK20191113000150SPEAKER ASM                   M IMCTM CM1    TNTH  09020IMKDC KA PTB  00004  K0                0231NES        000000000000 DENSO TEN (THAILAND)                                                                                                                                            *G         20191031 IMCT                IMCT                                                                                                                    WMF1910317.TXT
MAKK9O105620201910D3               89828070100P3YK20191113000120SPEAKER ASM                   M IMCTM CM1    TNTH  09020IMKDC KA PTB  00004  K0                1431DES        000000000000 DENSO TEN (THAILAND)                                                                                                                                            *G         20191031 IMCT                IMCT                                                                                                                    WMF1910317.TXT
MAKK9O105621201910N3               89828070100P3YK20191114000090SPEAKER ASM                   M IMCTM CM1    TNTH  09020IMKDC KA PTB  00004  K0                0231NES        000000000000 DENSO TEN (THAILAND)                                                                                                                                            *G         20191031 IMCT                IMCT                                                                                                                    WMF1910317.TXT
MAKK9O105622201910D3               89828070100P3YK20191114000180SPEAKER ASM                   M IMCTM CM1    TNTH  09020IMKDC KA PTB  00004  K0                1431DES        000000000000 DENSO TEN (THAILAND)                                                                                                                                            *G         20191031 IMCT                IMCT                                                                                                                    WMF1910317.TXT
MAKK9O105623201910N3               89828070100P3YK20191115000120SPEAKER ASM                   M IMCTM CM1    TNTH  09020IMKDC KA PTB  00004  K0                0231NES        000000000000 DENSO TEN (THAILAND)                                                                                                                                            *G         20191031 IMCT                IMCT                                                                                                                    WMF1910317.TXT
MAKK9O105624201910D3               89828070100P3YK20191115000120SPEAKER ASM                   M IMCTM CM1    TNTH  09020IMKDC KA PTB  00004  K0                1431DES        000000000000 DENSO TEN (THAILAND)                                                                                                                                            *G         20191031 IMCT                IMCT                                                                                                                    WMF1910317.TXT
MAKK9O105625201910N3               89828070100P3YK20191116000150SPEAKER ASM                   M IMCTM CM1    TNTH  09020IMKDC KA PTB  00004  K0                0231NES        000000000000 DENSO TEN (THAILAND)                                                                                                                                            *G         20191031 IMCT                IMCT                                                                                                                    WMF1910317.TXT
MAKK9O105626201910D3               89828070200P3YK20191111000030SPEAKER ASM                   M IMCTM CM1    TNTH  09020IMKDC KA PTB  00005  K0                1431DES        000000000000 DENSO TEN (THAILAND)                                                                                                                                            *G         20191031 IMCT                IMCT                                                                                                                    WMF1910317.TXT
MAKK9O105627201910N3               89828070200P3YK20191112000060SPEAKER ASM                   M IMCTM CM1    TNTH  09020IMKDC KA PTB  00005  K0                0231NES        000000000000 DENSO TEN (THAILAND)                                                                                                                                            *G         20191031 IMCT                IMCT                                                                                                                    WMF1910317.TXT
MAKK9O105628201910D3               89828070200P3YK20191112000030SPEAKER ASM                   M IMCTM CM1    TNTH  09020IMKDC KA PTB  00005  K0                1431DES        000000000000 DENSO TEN (THAILAND)                                                                                                                                            *G         20191031 IMCT                IMCT                                                                                                                    WMF1910317.TXT
MAKK9O105629201910N3               89828070200P3YK20191113000030SPEAKER ASM                   M IMCTM CM1    TNTH  09020IMKDC KA PTB  00005  K0                0231NES        000000000000 DENSO TEN (THAILAND)                                                                                                                                            *G         20191031 IMCT                IMCT                                                                                                                    WMF1910317.TXT
MAKK9O105630201910D3               89828070200P3YK20191113000030SPEAKER ASM                   M IMCTM CM1    TNTH  09020IMKDC KA PTB  00005  K0                1431DES        000000000000 DENSO TEN (THAILAND)                                                                                                                                            *G         20191031 IMCT                IMCT                                                                                                                    WMF1910317.TXT
MAKK9O105631201910N3               89828070200P3YK20191114000030SPEAKER ASM                   M IMCTM CM1    TNTH  09020IMKDC KA PTB  00005  K0                0231NES        000000000000 DENSO TEN (THAILAND)                                                                                                                                            *G         20191031 IMCT                IMCT                                                                                                                    WMF1910317.TXT
MAKK9O105632201910N3               89828070200P3YK20191115000030SPEAKER ASM                   M IMCTM CM1    TNTH  09020IMKDC KA PTB  00005  K0                0231NES        000000000000 DENSO TEN (THAILAND)                                                                                                                                            *G         20191031 IMCT                IMCT                                                                                                                    WMF1910317.TXT
MAKK9O105633201910D3               89828070200P3YK20191115000030SPEAKER ASM                   M IMCTM CM1    TNTH  09020IMKDC KA PTB  00005  K0                1431DES        000000000000 DENSO TEN (THAILAND)                                                                                                                                            *G         20191031 IMCT                IMCT                                                                                                                    WMF1910317.TXT
MAKK9O105634201910N3               89828070200P3YK20191116000030SPEAKER ASM                   M IMCTM CM1    TNTH  09020IMKDC KA PTB  00005  K0                0231NES        000000000000 DENSO TEN (THAILAND)                                                                                                                                            *G         20191031 IMCT                IMCT                                                                                                                    WMF1910317.TXT
MAKK9O105635201910D3               89828070300P3YK20191111000030SPEAKER ASM                   M IMCTM CM1    TNTH  09020IMKDC KA PTB  00015  K0                1431DES        000000000000 DENSO TEN (THAILAND)                                                                                                                                            *G         20191031 IMCT                IMCT                                                                                                                    WMF1910317.TXT
MAKK9O105636201910N3               89828070300P3YK20191112000060SPEAKER ASM                   M IMCTM CM1    TNTH  09020IMKDC KA PTB  00015  K0                0231NES        000000000000 DENSO TEN (THAILAND)                                                                                                                                            *G         20191031 IMCT                IMCT                                                                                                                    WMF1910317.TXT
MAKK9O105637201910D3               89828070300P3YK20191112000030SPEAKER ASM                   M IMCTM CM1    TNTH  09020IMKDC KA PTB  00015  K0                1431DES        000000000000 DENSO TEN (THAILAND)                                                                                                                                            *G         20191031 IMCT                IMCT                                                                                                                    WMF1910317.TXT
MAKK9O105638201910N3               89828070300P3YK20191113000060SPEAKER ASM                   M IMCTM CM1    TNTH  09020IMKDC KA PTB  00015  K0                0231NES        000000000000 DENSO TEN (THAILAND)                                                                                                                                            *G         20191031 IMCT                IMCT                                                                                                                    WMF1910317.TXT
MAKK9O105639201910D3               89828070300P3YK20191113000030SPEAKER ASM                   M IMCTM CM1    TNTH  09020IMKDC KA PTB  00015  K0                1431DES        000000000000 DENSO TEN (THAILAND)                                                                                                                                            *G         20191031 IMCT                IMCT                                                                                                                    WMF1910317.TXT
MAKK9O105640201910N3               89828070300P3YK20191114000030SPEAKER ASM                   M IMCTM CM1    TNTH  09020IMKDC KA PTB  00015  K0                0231NES        000000000000 DENSO TEN (THAILAND)                                                                                                                                            *G         20191031 IMCT                IMCT                                                                                                                    WMF1910317.TXT
MAKK9O105641201910N3               89828070300P3YK20191115000030SPEAKER ASM                   M IMCTM CM1    TNTH  09020IMKDC KA PTB  00015  K0                0231NES        000000000000 DENSO TEN (THAILAND)                                                                                                                                            *G         20191031 IMCT                IMCT                                                                                                                    WMF1910317.TXT
MAKK9O105642201910D3               89828070300P3YK20191115000030SPEAKER ASM                   M IMCTM CM1    TNTH  09020IMKDC KA PTB  00015  K0                1431DES        000000000000 DENSO TEN (THAILAND)                                                                                                                                            *G         20191031 IMCT                IMCT                                                                                                                    WMF1910317.TXT
MAKK9O105643201910N3               89828070300P3YK20191116000030SPEAKER ASM                   M IMCTM CM1    TNTH  09020IMKDC KA PTB  00015  K0                0231NES        000000000000 DENSO TEN (THAILAND)                                                                                                                                            *G         20191031 IMCT                IMCT                                                                                                                    WMF1910317.TXT
MAKK9O105644201910D3               89831228410P3YK20191113000015RADIO;AM/FM,CD                M IMCTM CM1    TNTH  09020IMKDC KA   CPB00003  K0                1431DES        000000000000 DENSO TEN (THAILAND)                                                                                                                                            *G         20191031 IMCT                IMCT                                                                                                                    WMF1910317.TXT
