REC2019093020190930ISUZU                              44     
MDDDK9318930201910                D89821984430PT1D20191008000030RADIO;AM/FM,CD                M IMCTM S5NC06 TNTH  09020IMCT  S5 PTB  00005                    0830 SR        000000000000 DENSO TEN (THAILAND)190MNGL0262262                                                                                                                              *          20190930 IMCT                IMCT                                                                                                                    WMF1909305.TXT
MDDDK9318931201910                D89821984430PT1D20191008000030RADIO;AM/FM,CD                M IMCTM S5NC06 TNTH  09020IMCT  S5 PTB  00005                    1300 SR        000000000000 DENSO TEN (THAILAND)190MRAL0255255                                                                                                                              *          20190930 IMCT                IMCT                                                                                                                    WMF1909305.TXT
MDDDK9318932201910                D89821984430PT4D20191008000030RADIO;AM/FM,CD                M IMCTM S9CO001TNTH  09020IMCT  S9 PTB  00005                    1300 SR        000000000000 DENSO TEN (THAILAND)190MNGU0030030                                                                                                                              *          20190930 IMCT                IMCT                                                                                                                    WMF1909305.TXT
MDDDK9318933201910                D89828070100PV1D20191008000060SPEAKER ASM                   M IMCTM S5MB11 TNTH  09020IMCT  S5 PTB  00004                    0230 SR        000000000000 DENSO TEN (THAILAND)190MXBL0039039                                                                                                                              *          20190930 IMCT                IMCT                                                                                                                    WMF1909305.TXT
MDDDK9318934201910                D89828070100PV1D20191008000060SPEAKER ASM                   M IMCTM S5MB11 TNTH  09020IMCT  S5 PTB  00004                    0830 SR        000000000000 DENSO TEN (THAILAND)190MNGL0262262                                                                                                                              *          20190930 IMCT                IMCT                                                                                                                    WMF1909305.TXT
MDDDK9318935201910                D89828070100PV1D20191008000060SPEAKER ASM                   M IMCTM S5MB11 TNTH  09020IMCT  S5 PTB  00004                    1300 SR        000000000000 DENSO TEN (THAILAND)190MRAL0255255                                                                                                                              *          20190930 IMCT                IMCT                                                                                                                    WMF1909305.TXT
MDDDK9318936201910                D89828070100PV4D20191008000060SPEAKER ASM                   M IMCTM S0FL05 TNTH  09020IMCT  S0 PTB  00004                    1300 SR        000000000000 DENSO TEN (THAILAND)190MNGU0030030                                                                                                                              *          20190930 IMCT                IMCT                                                                                                                    WMF1909305.TXT
MDDUK9222390201910                D89828070100PT4U20191008000030SPEAKER ASM                   M IMCTM S0FL05 TNTH  09020IMCT  S0 PTB  00004                    1300 SR        000000000000 DENSO TEN (THAILAND)190MUGU0152152                                                                                                                              *          20190930 IMCT                IMCT                                                                                                                    WMF1909305.TXT
MDDUK9222391201910                D89828070200PV4U20191008000030SPEAKER ASM                   M IMCTM S0FR05 TNTH  09020IMCT  S0 PTB  00005                    1300 SR        000000000000 DENSO TEN (THAILAND)190MUGU0152152                                                                                                                              *          20190930 IMCT                IMCT                                                                                                                    WMF1909305.TXT
MDDUK9222392201910                D89828070300PT4U20191008000030SPEAKER ASM                   M IMCTM S9TS02 TNTH  09020IMCT  S9 PTB  00015                    1300 SR        000000000000 DENSO TEN (THAILAND)190MUGU0152152                                                                                                                              *          20190930 IMCT                IMCT                                                                                                                    WMF1909305.TXT
MDEDK9365897201910                D89752845100PT1D20191008000015RADIO;AM FM,CD D              M IMCTM S5NC06 TNTH  09020IMCT  S5 PTB  00003                    1300 SR        000000000000 DENSO TEN (THAILAND)190G02L0009009                                                                                                                              *          20190930 IMCT                IMCT                                                                                                                    WMF1909305.TXT
MDEDK9365898201910                D89828070100PV1D20191007000120SPEAKER ASM                   M IMCTM S5MB11 TNTH  09020IMCT  S5 PTB  00004                    2230 SR        000000000000 DENSO TEN (THAILAND)190J81L0169170190J85L0054054190K21L0042042                                                                                                  *          20190930 IMCT                IMCT                                                                                                                    WMF1909305.TXT
MDEDK9365899201910                D89828070100PV1D20191008000060SPEAKER ASM                   M IMCTM S5MB11 TNTH  09020IMCT  S5 PTB  00004                    0230 SR        000000000000 DENSO TEN (THAILAND)190G22L0015016                                                                                                                              *          20190930 IMCT                IMCT                                                                                                                    WMF1909305.TXT
MDEDK9365900201910                D89828070100PV1D20191008000060SPEAKER ASM                   M IMCTM S5MB11 TNTH  09020IMCT  S5 PTB  00004                    0400 SR        000000000000 DENSO TEN (THAILAND)190F84L0052052190K09L0005005                                                                                                                *          20190930 IMCT                IMCT                                                                                                                    WMF1909305.TXT
MDEDK9365901201910                D89828070100PV1D20191008000030SPEAKER ASM                   M IMCTM S5MB11 TNTH  09020IMCT  S5 PTB  00004                    0830 SR        000000000000 DENSO TEN (THAILAND)190L38L0009009                                                                                                                              *          20190930 IMCT                IMCT                                                                                                                    WMF1909305.TXT
MDEDK9365902201910                D89828070100PV1D20191008000030SPEAKER ASM                   M IMCTM S5MB11 TNTH  09020IMCT  S5 PTB  00004                    1030 SR        000000000000 DENSO TEN (THAILAND)190K19L0010010                                                                                                                              *          20190930 IMCT                IMCT                                                                                                                    WMF1909305.TXT
MDEDK9365903201910                D89828070100PV1D20191008000150SPEAKER ASM                   M IMCTM S5MB11 TNTH  09020IMCT  S5 PTB  00004                    1300 SR        000000000000 DENSO TEN (THAILAND)190G02L0009009190J85L0055055190J94L0198199190K19L0011011                                                                                    *          20190930 IMCT                IMCT                                                                                                                    WMF1909305.TXT
MDEDK9365904201910                D89828070100PV1D20191008000060SPEAKER ASM                   M IMCTM S5MB11 TNTH  09020IMCT  S5 PTB  00004                    1600 SR        000000000000 DENSO TEN (THAILAND)190J81L0171171190K09L0006006                                                                                                                *          20190930 IMCT                IMCT                                                                                                                    WMF1909305.TXT
MDEDK9365905201910                D89828070100PV1D20191008000060SPEAKER ASM                   M IMCTM S5MB11 TNTH  09020IMCT  S5 PTB  00004                    2100 SR        000000000000 DENSO TEN (THAILAND)190G22L0017018                                                                                                                              *          20190930 IMCT                IMCT                                                                                                                    WMF1909305.TXT
MDEDK9365906201910                D89828070100PV4D20191008000030SPEAKER ASM                   M IMCTM S0FL05 TNTH  09020IMCT  S0 PTB  00004                    2100 SR        000000000000 DENSO TEN (THAILAND)190D39U0003003                                                                                                                              *          20190930 IMCT                IMCT                                                                                                                    WMF1909305.TXT
MDEDK9365907201910                D89828070200PV1D20191007000030SPEAKER ASM                   M IMCTM S5MA14 TNTH  09020IMCT  S5 PTB  00005                    2230 SR        000000000000 DENSO TEN (THAILAND)190K21L0042042                                                                                                                              *          20190930 IMCT                IMCT                                                                                                                    WMF1909305.TXT
MDEDK9365908201910                D89828070200PV1D20191008000060SPEAKER ASM                   M IMCTM S5MA14 TNTH  09020IMCT  S5 PTB  00005                    0230 SR        000000000000 DENSO TEN (THAILAND)190G22L0015016                                                                                                                              *          20190930 IMCT                IMCT                                                                                                                    WMF1909305.TXT
MDEDK9365909201910                D89828070200PV1D20191008000030SPEAKER ASM                   M IMCTM S5MA14 TNTH  09020IMCT  S5 PTB  00005                    1030 SR        000000000000 DENSO TEN (THAILAND)190K19L0010010                                                                                                                              *          20190930 IMCT                IMCT                                                                                                                    WMF1909305.TXT
MDEDK9365910201910                D89828070200PV1D20191008000030SPEAKER ASM                   M IMCTM S5MA14 TNTH  09020IMCT  S5 PTB  00005                    1300 SR        000000000000 DENSO TEN (THAILAND)190K19L0011011                                                                                                                              *          20190930 IMCT                IMCT                                                                                                                    WMF1909305.TXT
MDEDK9365911201910                D89828070200PV1D20191008000060SPEAKER ASM                   M IMCTM S5MA14 TNTH  09020IMCT  S5 PTB  00005                    2100 SR        000000000000 DENSO TEN (THAILAND)190G22L0017018                                                                                                                              *          20190930 IMCT                IMCT                                                                                                                    WMF1909305.TXT
MDEDK9365912201910                D89828070200PV4D20191008000030SPEAKER ASM                   M IMCTM S0FR05 TNTH  09020IMCT  S0 PTB  00005                    2100 SR        000000000000 DENSO TEN (THAILAND)190D39U0003003                                                                                                                              *          20190930 IMCT                IMCT                                                                                                                    WMF1909305.TXT
MDEDK9365913201910                D89828070300PT1D20191007000030SPEAKER ASM                   M IMCTM S5NB082TNTH  09020IMCT  S5 PTB  00015                    2230 SR        000000000000 DENSO TEN (THAILAND)190K21L0042042                                                                                                                              *          20190930 IMCT                IMCT                                                                                                                    WMF1909305.TXT
MDEDK9365914201910                D89828070300PT1D20191008000060SPEAKER ASM                   M IMCTM S5NB082TNTH  09020IMCT  S5 PTB  00015                    0230 SR        000000000000 DENSO TEN (THAILAND)190G22L0015016                                                                                                                              *          20190930 IMCT                IMCT                                                                                                                    WMF1909305.TXT
MDEDK9365915201910                D89828070300PT1D20191008000030SPEAKER ASM                   M IMCTM S5NB082TNTH  09020IMCT  S5 PTB  00015                    1030 SR        000000000000 DENSO TEN (THAILAND)190K19L0010010                                                                                                                              *          20190930 IMCT                IMCT                                                                                                                    WMF1909305.TXT
MDEDK9365916201910                D89828070300PT1D20191008000060SPEAKER ASM                   M IMCTM S5NB082TNTH  09020IMCT  S5 PTB  00015                    1300 SR        000000000000 DENSO TEN (THAILAND)190G02L0009009190K19L0011011                                                                                                                *          20190930 IMCT                IMCT                                                                                                                    WMF1909305.TXT
MDEDK9365917201910                D89828070300PT1D20191008000060SPEAKER ASM                   M IMCTM S5NB082TNTH  09020IMCT  S5 PTB  00015                    2100 SR        000000000000 DENSO TEN (THAILAND)190G22L0017018                                                                                                                              *          20190930 IMCT                IMCT                                                                                                                    WMF1909305.TXT
MDEDK9365918201910                D89828070300PT4D20191008000030SPEAKER ASM                   M IMCTM S9TS02 TNTH  09020IMCT  S9 PTB  00015                    2100 SR        000000000000 DENSO TEN (THAILAND)190D39U0003003                                                                                                                              *          20190930 IMCT                IMCT                                                                                                                    WMF1909305.TXT
MDEDK9365919201910                D89838031200PT1D20191007000015RADIO;ASM DVD                 M IMCTM S5NC06 TNTH  09020IMCT  S5 PTB  00003                    2230 SR        000000000000 DENSO TEN (THAILAND)190K21L0042042                                                                                                                              *          20190930 IMCT                IMCT                                                                                                                    WMF1909305.TXT
MDEDK9365920201910                D89838031200PT1D20191008000015RADIO;ASM DVD                 M IMCTM S5NC06 TNTH  09020IMCT  S5 PTB  00003                    1030 SR        000000000000 DENSO TEN (THAILAND)190K19L0010010                                                                                                                              *          20190930 IMCT                IMCT                                                                                                                    WMF1909305.TXT
MDEDK9365921201910                D89838031200PT1D20191008000015RADIO;ASM DVD                 M IMCTM S5NC06 TNTH  09020IMCT  S5 PTB  00003                    1300 SR        000000000000 DENSO TEN (THAILAND)190K19L0011011                                                                                                                              *          20190930 IMCT                IMCT                                                                                                                    WMF1909305.TXT
MDEUK9260102201910                D89828070100PT4U20191007000030SPEAKER ASM                   M IMCTM S0FL05 TNTH  09020IMCT  S0 PTB  00004                    2230 SR        000000000000 DENSO TEN (THAILAND)190G76U0028028                                                                                                                              *          20190930 IMCT                IMCT                                                                                                                    WMF1909305.TXT
MDEUK9260103201910                D89828070100PT4U20191008000030SPEAKER ASM                   M IMCTM S0FL05 TNTH  09020IMCT  S0 PTB  00004                    0230 SR        000000000000 DENSO TEN (THAILAND)190G32U0198198                                                                                                                              *          20190930 IMCT                IMCT                                                                                                                    WMF1909305.TXT
MDEUK9260104201910                D89828070100PT4U20191008000030SPEAKER ASM                   M IMCTM S0FL05 TNTH  09020IMCT  S0 PTB  00004                    1030 SR        000000000000 DENSO TEN (THAILAND)190G31U0124124                                                                                                                              *          20190930 IMCT                IMCT                                                                                                                    WMF1909305.TXT
MDEUK9260105201910                D89828070200PV4U20191007000030SPEAKER ASM                   M IMCTM S0FR05 TNTH  09020IMCT  S0 PTB  00005                    2230 SR        000000000000 DENSO TEN (THAILAND)190G76U0028028                                                                                                                              *          20190930 IMCT                IMCT                                                                                                                    WMF1909305.TXT
MDEUK9260106201910                D89828070200PV4U20191008000030SPEAKER ASM                   M IMCTM S0FR05 TNTH  09020IMCT  S0 PTB  00005                    0230 SR        000000000000 DENSO TEN (THAILAND)190G32U0198198                                                                                                                              *          20190930 IMCT                IMCT                                                                                                                    WMF1909305.TXT
MDEUK9260107201910                D89828070200PV4U20191008000030SPEAKER ASM                   M IMCTM S0FR05 TNTH  09020IMCT  S0 PTB  00005                    1030 SR        000000000000 DENSO TEN (THAILAND)190G31U0124124                                                                                                                              *          20190930 IMCT                IMCT                                                                                                                    WMF1909305.TXT
MDEUK9260108201910                D89828070300PT4U20191007000030SPEAKER ASM                   M IMCTM S9TS02 TNTH  09020IMCT  S9 PTB  00015                    2230 SR        000000000000 DENSO TEN (THAILAND)190G76U0028028                                                                                                                              *          20190930 IMCT                IMCT                                                                                                                    WMF1909305.TXT
MDEUK9260109201910                D89828070300PT4U20191008000030SPEAKER ASM                   M IMCTM S9TS02 TNTH  09020IMCT  S9 PTB  00015                    0230 SR        000000000000 DENSO TEN (THAILAND)190G32U0198198                                                                                                                              *          20190930 IMCT                IMCT                                                                                                                    WMF1909305.TXT
MDEUK9260110201910                D89828070300PT4U20191008000030SPEAKER ASM                   M IMCTM S9TS02 TNTH  09020IMCT  S9 PTB  00015                    1030 SR        000000000000 DENSO TEN (THAILAND)190G31U0124124                                                                                                                              *          20190930 IMCT                IMCT                                                                                                                    WMF1909305.TXT
