REC2019101120191011ISUZU                              33     
MAKK9O054865201910N3               89825451200P3YK20191102000030SPEAKER ASM;ROOF              M IMCTM CM1    TNTH  09020IMKDC KA PTB  00036  K0                0231NES        000000000000 DENSO TEN (THAILAND)                                                                                                                                            *G         20191011 IMCT                IMCT                                                                                                                    WMF191011B.TXT
MAKK9O054866201910D3               89828070100P3YK20191028000060SPEAKER ASM                   M IMCTM CM1    TNTH  09020IMKDC KA PTB  00004  K0                1431DES        000000000000 DENSO TEN (THAILAND)                                                                                                                                            *G         20191011 IMCT                IMCT                                                                                                                    WMF191011B.TXT
MAKK9O054867201910N3               89828070100P3YK20191029000060SPEAKER ASM                   M IMCTM CM1    TNTH  09020IMKDC KA PTB  00004  K0                0231NES        000000000000 DENSO TEN (THAILAND)                                                                                                                                            *G         20191011 IMCT                IMCT                                                                                                                    WMF191011B.TXT
MAKK9O054868201910D3               89828070100P3YK20191029000090SPEAKER ASM                   M IMCTM CM1    TNTH  09020IMKDC KA PTB  00004  K0                1431DES        000000000000 DENSO TEN (THAILAND)                                                                                                                                            *G         20191011 IMCT                IMCT                                                                                                                    WMF191011B.TXT
MAKK9O054869201910N3               89828070100P3YK20191030000060SPEAKER ASM                   M IMCTM CM1    TNTH  09020IMKDC KA PTB  00004  K0                0231NES        000000000000 DENSO TEN (THAILAND)                                                                                                                                            *G         20191011 IMCT                IMCT                                                                                                                    WMF191011B.TXT
MAKK9O054870201910D3               89828070100P3YK20191030000060SPEAKER ASM                   M IMCTM CM1    TNTH  09020IMKDC KA PTB  00004  K0                1431DES        000000000000 DENSO TEN (THAILAND)                                                                                                                                            *G         20191011 IMCT                IMCT                                                                                                                    WMF191011B.TXT
MAKK9O054871201910N3               89828070100P3YK20191031000030SPEAKER ASM                   M IMCTM CM1    TNTH  09020IMKDC KA PTB  00004  K0                0231NES        000000000000 DENSO TEN (THAILAND)                                                                                                                                            *G         20191011 IMCT                IMCT                                                                                                                    WMF191011B.TXT
MAKK9O054872201910D3               89828070100P3YK20191031000090SPEAKER ASM                   M IMCTM CM1    TNTH  09020IMKDC KA PTB  00004  K0                1431DES        000000000000 DENSO TEN (THAILAND)                                                                                                                                            *G         20191011 IMCT                IMCT                                                                                                                    WMF191011B.TXT
MAKK9O054873201910N3               89828070100P3YK20191101000150SPEAKER ASM                   M IMCTM CM1    TNTH  09020IMKDC KA PTB  00004  K0                0231NES        000000000000 DENSO TEN (THAILAND)                                                                                                                                            *G         20191011 IMCT                IMCT                                                                                                                    WMF191011B.TXT
MAKK9O054874201910D3               89828070100P3YK20191101000180SPEAKER ASM                   M IMCTM CM1    TNTH  09020IMKDC KA PTB  00004  K0                1431DES        000000000000 DENSO TEN (THAILAND)                                                                                                                                            *G         20191011 IMCT                IMCT                                                                                                                    WMF191011B.TXT
MAKK9O054875201910N3               89828070100P3YK20191102000120SPEAKER ASM                   M IMCTM CM1    TNTH  09020IMKDC KA PTB  00004  K0                0231NES        000000000000 DENSO TEN (THAILAND)                                                                                                                                            *G         20191011 IMCT                IMCT                                                                                                                    WMF191011B.TXT
MAKK9O054876201910N3               89828070200P3YK20191029000030SPEAKER ASM                   M IMCTM CM1    TNTH  09020IMKDC KA PTB  00005  K0                0231NES        000000000000 DENSO TEN (THAILAND)                                                                                                                                            *G         20191011 IMCT                IMCT                                                                                                                    WMF191011B.TXT
MAKK9O054877201910D3               89828070200P3YK20191029000030SPEAKER ASM                   M IMCTM CM1    TNTH  09020IMKDC KA PTB  00005  K0                1431DES        000000000000 DENSO TEN (THAILAND)                                                                                                                                            *G         20191011 IMCT                IMCT                                                                                                                    WMF191011B.TXT
MAKK9O054878201910N3               89828070200P3YK20191030000030SPEAKER ASM                   M IMCTM CM1    TNTH  09020IMKDC KA PTB  00005  K0                0231NES        000000000000 DENSO TEN (THAILAND)                                                                                                                                            *G         20191011 IMCT                IMCT                                                                                                                    WMF191011B.TXT
MAKK9O054879201910D3               89828070200P3YK20191030000030SPEAKER ASM                   M IMCTM CM1    TNTH  09020IMKDC KA PTB  00005  K0                1431DES        000000000000 DENSO TEN (THAILAND)                                                                                                                                            *G         20191011 IMCT                IMCT                                                                                                                    WMF191011B.TXT
MAKK9O054880201910N3               89828070200P3YK20191031000030SPEAKER ASM                   M IMCTM CM1    TNTH  09020IMKDC KA PTB  00005  K0                0231NES        000000000000 DENSO TEN (THAILAND)                                                                                                                                            *G         20191011 IMCT                IMCT                                                                                                                    WMF191011B.TXT
MAKK9O054881201910D3               89828070200P3YK20191031000060SPEAKER ASM                   M IMCTM CM1    TNTH  09020IMKDC KA PTB  00005  K0                1431DES        000000000000 DENSO TEN (THAILAND)                                                                                                                                            *G         20191011 IMCT                IMCT                                                                                                                    WMF191011B.TXT
MAKK9O054882201910N3               89828070200P3YK20191101000060SPEAKER ASM                   M IMCTM CM1    TNTH  09020IMKDC KA PTB  00005  K0                0231NES        000000000000 DENSO TEN (THAILAND)                                                                                                                                            *G         20191011 IMCT                IMCT                                                                                                                    WMF191011B.TXT
MAKK9O054883201910D3               89828070200P3YK20191101000060SPEAKER ASM                   M IMCTM CM1    TNTH  09020IMKDC KA PTB  00005  K0                1431DES        000000000000 DENSO TEN (THAILAND)                                                                                                                                            *G         20191011 IMCT                IMCT                                                                                                                    WMF191011B.TXT
MAKK9O054884201910N3               89828070200P3YK20191102000060SPEAKER ASM                   M IMCTM CM1    TNTH  09020IMKDC KA PTB  00005  K0                0231NES        000000000000 DENSO TEN (THAILAND)                                                                                                                                            *G         20191011 IMCT                IMCT                                                                                                                    WMF191011B.TXT
MAKK9O054885201910D3               89828070300P3YK20191028000030SPEAKER ASM                   M IMCTM CM1    TNTH  09020IMKDC KA PTB  00015  K0                1431DES        000000000000 DENSO TEN (THAILAND)                                                                                                                                            *G         20191011 IMCT                IMCT                                                                                                                    WMF191011B.TXT
MAKK9O054886201910N3               89828070300P3YK20191029000030SPEAKER ASM                   M IMCTM CM1    TNTH  09020IMKDC KA PTB  00015  K0                0231NES        000000000000 DENSO TEN (THAILAND)                                                                                                                                            *G         20191011 IMCT                IMCT                                                                                                                    WMF191011B.TXT
MAKK9O054887201910D3               89828070300P3YK20191029000060SPEAKER ASM                   M IMCTM CM1    TNTH  09020IMKDC KA PTB  00015  K0                1431DES        000000000000 DENSO TEN (THAILAND)                                                                                                                                            *G         20191011 IMCT                IMCT                                                                                                                    WMF191011B.TXT
MAKK9O054888201910N3               89828070300P3YK20191030000030SPEAKER ASM                   M IMCTM CM1    TNTH  09020IMKDC KA PTB  00015  K0                0231NES        000000000000 DENSO TEN (THAILAND)                                                                                                                                            *G         20191011 IMCT                IMCT                                                                                                                    WMF191011B.TXT
MAKK9O054889201910D3               89828070300P3YK20191030000030SPEAKER ASM                   M IMCTM CM1    TNTH  09020IMKDC KA PTB  00015  K0                1431DES        000000000000 DENSO TEN (THAILAND)                                                                                                                                            *G         20191011 IMCT                IMCT                                                                                                                    WMF191011B.TXT
MAKK9O054890201910N3               89828070300P3YK20191031000030SPEAKER ASM                   M IMCTM CM1    TNTH  09020IMKDC KA PTB  00015  K0                0231NES        000000000000 DENSO TEN (THAILAND)                                                                                                                                            *G         20191011 IMCT                IMCT                                                                                                                    WMF191011B.TXT
MAKK9O054891201910D3               89828070300P3YK20191031000060SPEAKER ASM                   M IMCTM CM1    TNTH  09020IMKDC KA PTB  00015  K0                1431DES        000000000000 DENSO TEN (THAILAND)                                                                                                                                            *G         20191011 IMCT                IMCT                                                                                                                    WMF191011B.TXT
MAKK9O054892201910N3               89828070300P3YK20191101000090SPEAKER ASM                   M IMCTM CM1    TNTH  09020IMKDC KA PTB  00015  K0                0231NES        000000000000 DENSO TEN (THAILAND)                                                                                                                                            *G         20191011 IMCT                IMCT                                                                                                                    WMF191011B.TXT
MAKK9O054893201910D3               89828070300P3YK20191101000060SPEAKER ASM                   M IMCTM CM1    TNTH  09020IMKDC KA PTB  00015  K0                1431DES        000000000000 DENSO TEN (THAILAND)                                                                                                                                            *G         20191011 IMCT                IMCT                                                                                                                    WMF191011B.TXT
MAKK9O054894201910N3               89828070300P3YK20191102000060SPEAKER ASM                   M IMCTM CM1    TNTH  09020IMKDC KA PTB  00015  K0                0231NES        000000000000 DENSO TEN (THAILAND)                                                                                                                                            *G         20191011 IMCT                IMCT                                                                                                                    WMF191011B.TXT
MAKK9O054895201910N3               89831228410P3YK20191029000015RADIO;AM/FM,CD                M IMCTM CM1    TNTH  09020IMKDC KA   CPB00003  K0                0231NES        000000000000 DENSO TEN (THAILAND)                                                                                                                                            *G         20191011 IMCT                IMCT                                                                                                                    WMF191011B.TXT
MAKK9O054896201910D3               89831228410P3YK20191030000015RADIO;AM/FM,CD                M IMCTM CM1    TNTH  09020IMKDC KA   CPB00003  K0                1431DES        000000000000 DENSO TEN (THAILAND)                                                                                                                                            *G         20191011 IMCT                IMCT                                                                                                                    WMF191011B.TXT
MAKK9O054897201910N3               89831228410P3YK20191031000015RADIO;AM/FM,CD                M IMCTM CM1    TNTH  09020IMKDC KA   CPB00003  K0                0231NES        000000000000 DENSO TEN (THAILAND)                                                                                                                                            *G         20191011 IMCT                IMCT                                                                                                                    WMF191011B.TXT
