REC2019100320191003ISUZU                              39     
MAKK99147451201910D3               89825451200P3YK20191014000030SPEAKER ASM;ROOF              M IMCTM CM1    TNTH  09020IMKDC KA PTB  00036  K0                1431DES        000000000000 DENSO TEN (THAILAND)                                                                                                                                            *G         20191003 IMCT                IMCT                                                                                                                    WMF1910035.TXT
MAKK99147452201910D3               89825451200P3YK20191016000030SPEAKER ASM;ROOF              M IMCTM CM1    TNTH  09020IMKDC KA PTB  00036  K0                1431DES        000000000000 DENSO TEN (THAILAND)                                                                                                                                            *G         20191003 IMCT                IMCT                                                                                                                    WMF1910035.TXT
MAKK99147453201910D3               89825451200P3YK20191021000030SPEAKER ASM;ROOF              M IMCTM CM1    TNTH  09020IMKDC KA PTB  00036  K0                1431DES        000000000000 DENSO TEN (THAILAND)                                                                                                                                            *G         20191003 IMCT                IMCT                                                                                                                    WMF1910035.TXT
MAKK99147454201910D3               89828070100P3YK20191014000030SPEAKER ASM                   M IMCTM CM1    TNTH  09020IMKDC KA PTB  00004  K0                1431DES        000000000000 DENSO TEN (THAILAND)                                                                                                                                            *G         20191003 IMCT                IMCT                                                                                                                    WMF1910035.TXT
MAKK99147455201910N3               89828070100P3YK20191015000090SPEAKER ASM                   M IMCTM CM1    TNTH  09020IMKDC KA PTB  00004  K0                0231NES        000000000000 DENSO TEN (THAILAND)                                                                                                                                            *G         20191003 IMCT                IMCT                                                                                                                    WMF1910035.TXT
MAKK99147456201910D3               89828070100P3YK20191015000060SPEAKER ASM                   M IMCTM CM1    TNTH  09020IMKDC KA PTB  00004  K0                1431DES        000000000000 DENSO TEN (THAILAND)                                                                                                                                            *G         20191003 IMCT                IMCT                                                                                                                    WMF1910035.TXT
MAKK99147457201910N3               89828070100P3YK20191016000030SPEAKER ASM                   M IMCTM CM1    TNTH  09020IMKDC KA PTB  00004  K0                0231NES        000000000000 DENSO TEN (THAILAND)                                                                                                                                            *G         20191003 IMCT                IMCT                                                                                                                    WMF1910035.TXT
MAKK99147458201910D3               89828070100P3YK20191016000060SPEAKER ASM                   M IMCTM CM1    TNTH  09020IMKDC KA PTB  00004  K0                1431DES        000000000000 DENSO TEN (THAILAND)                                                                                                                                            *G         20191003 IMCT                IMCT                                                                                                                    WMF1910035.TXT
MAKK99147459201910N3               89828070100P3YK20191017000030SPEAKER ASM                   M IMCTM CM1    TNTH  09020IMKDC KA PTB  00004  K0                0231NES        000000000000 DENSO TEN (THAILAND)                                                                                                                                            *G         20191003 IMCT                IMCT                                                                                                                    WMF1910035.TXT
MAKK99147460201910D3               89828070100P3YK20191017000090SPEAKER ASM                   M IMCTM CM1    TNTH  09020IMKDC KA PTB  00004  K0                1431DES        000000000000 DENSO TEN (THAILAND)                                                                                                                                            *G         20191003 IMCT                IMCT                                                                                                                    WMF1910035.TXT
MAKK99147461201910N3               89828070100P3YK20191018000060SPEAKER ASM                   M IMCTM CM1    TNTH  09020IMKDC KA PTB  00004  K0                0231NES        000000000000 DENSO TEN (THAILAND)                                                                                                                                            *G         20191003 IMCT                IMCT                                                                                                                    WMF1910035.TXT
MAKK99147462201910D3               89828070100P3YK20191018000120SPEAKER ASM                   M IMCTM CM1    TNTH  09020IMKDC KA PTB  00004  K0                1431DES        000000000000 DENSO TEN (THAILAND)                                                                                                                                            *G         20191003 IMCT                IMCT                                                                                                                    WMF1910035.TXT
MAKK99147463201910N3               89828070100P3YK20191019000060SPEAKER ASM                   M IMCTM CM1    TNTH  09020IMKDC KA PTB  00004  K0                0231NES        000000000000 DENSO TEN (THAILAND)                                                                                                                                            *G         20191003 IMCT                IMCT                                                                                                                    WMF1910035.TXT
MAKK99147464201910D3               89828070100P3YK20191021000090SPEAKER ASM                   M IMCTM CM1    TNTH  09020IMKDC KA PTB  00004  K0                1431DES        000000000000 DENSO TEN (THAILAND)                                                                                                                                            *G         20191003 IMCT                IMCT                                                                                                                    WMF1910035.TXT
MAKK99147465201910N3               89828070100P3YK20191022000060SPEAKER ASM                   M IMCTM CM1    TNTH  09020IMKDC KA PTB  00004  K0                0231NES        000000000000 DENSO TEN (THAILAND)                                                                                                                                            *G         20191003 IMCT                IMCT                                                                                                                    WMF1910035.TXT
MAKK99147466201910D3               89828070100P3YK20191022000090SPEAKER ASM                   M IMCTM CM1    TNTH  09020IMKDC KA PTB  00004  K0                1431DES        000000000000 DENSO TEN (THAILAND)                                                                                                                                            *G         20191003 IMCT                IMCT                                                                                                                    WMF1910035.TXT
MAKK99147467201910N3               89828070100P3YK20191023000090SPEAKER ASM                   M IMCTM CM1    TNTH  09020IMKDC KA PTB  00004  K0                0231NES        000000000000 DENSO TEN (THAILAND)                                                                                                                                            *G         20191003 IMCT                IMCT                                                                                                                    WMF1910035.TXT
MAKK99147468201910N3               89828070200P3YK20191016000030SPEAKER ASM                   M IMCTM CM1    TNTH  09020IMKDC KA PTB  00005  K0                0231NES        000000000000 DENSO TEN (THAILAND)                                                                                                                                            *G         20191003 IMCT                IMCT                                                                                                                    WMF1910035.TXT
MAKK99147469201910D3               89828070200P3YK20191016000030SPEAKER ASM                   M IMCTM CM1    TNTH  09020IMKDC KA PTB  00005  K0                1431DES        000000000000 DENSO TEN (THAILAND)                                                                                                                                            *G         20191003 IMCT                IMCT                                                                                                                    WMF1910035.TXT
MAKK99147470201910N3               89828070200P3YK20191018000030SPEAKER ASM                   M IMCTM CM1    TNTH  09020IMKDC KA PTB  00005  K0                0231NES        000000000000 DENSO TEN (THAILAND)                                                                                                                                            *G         20191003 IMCT                IMCT                                                                                                                    WMF1910035.TXT
MAKK99147471201910N3               89828070200P3YK20191019000030SPEAKER ASM                   M IMCTM CM1    TNTH  09020IMKDC KA PTB  00005  K0                0231NES        000000000000 DENSO TEN (THAILAND)                                                                                                                                            *G         20191003 IMCT                IMCT                                                                                                                    WMF1910035.TXT
MAKK99147472201910D3               89828070200P3YK20191021000030SPEAKER ASM                   M IMCTM CM1    TNTH  09020IMKDC KA PTB  00005  K0                1431DES        000000000000 DENSO TEN (THAILAND)                                                                                                                                            *G         20191003 IMCT                IMCT                                                                                                                    WMF1910035.TXT
MAKK99147473201910N3               89828070200P3YK20191022000030SPEAKER ASM                   M IMCTM CM1    TNTH  09020IMKDC KA PTB  00005  K0                0231NES        000000000000 DENSO TEN (THAILAND)                                                                                                                                            *G         20191003 IMCT                IMCT                                                                                                                    WMF1910035.TXT
MAKK99147474201910D3               89828070200P3YK20191022000030SPEAKER ASM                   M IMCTM CM1    TNTH  09020IMKDC KA PTB  00005  K0                1431DES        000000000000 DENSO TEN (THAILAND)                                                                                                                                            *G         20191003 IMCT                IMCT                                                                                                                    WMF1910035.TXT
MAKK99147475201910N3               89828070200P3YK20191023000030SPEAKER ASM                   M IMCTM CM1    TNTH  09020IMKDC KA PTB  00005  K0                0231NES        000000000000 DENSO TEN (THAILAND)                                                                                                                                            *G         20191003 IMCT                IMCT                                                                                                                    WMF1910035.TXT
MAKK99147476201910N3               89828070300P3YK20191015000030SPEAKER ASM                   M IMCTM CM1    TNTH  09020IMKDC KA PTB  00015  K0                0231NES        000000000000 DENSO TEN (THAILAND)                                                                                                                                            *G         20191003 IMCT                IMCT                                                                                                                    WMF1910035.TXT
MAKK99147477201910D3               89828070300P3YK20191015000030SPEAKER ASM                   M IMCTM CM1    TNTH  09020IMKDC KA PTB  00015  K0                1431DES        000000000000 DENSO TEN (THAILAND)                                                                                                                                            *G         20191003 IMCT                IMCT                                                                                                                    WMF1910035.TXT
MAKK99147478201910N3               89828070300P3YK20191016000030SPEAKER ASM                   M IMCTM CM1    TNTH  09020IMKDC KA PTB  00015  K0                0231NES        000000000000 DENSO TEN (THAILAND)                                                                                                                                            *G         20191003 IMCT                IMCT                                                                                                                    WMF1910035.TXT
MAKK99147479201910D3               89828070300P3YK20191016000030SPEAKER ASM                   M IMCTM CM1    TNTH  09020IMKDC KA PTB  00015  K0                1431DES        000000000000 DENSO TEN (THAILAND)                                                                                                                                            *G         20191003 IMCT                IMCT                                                                                                                    WMF1910035.TXT
MAKK99147480201910D3               89828070300P3YK20191017000030SPEAKER ASM                   M IMCTM CM1    TNTH  09020IMKDC KA PTB  00015  K0                1431DES        000000000000 DENSO TEN (THAILAND)                                                                                                                                            *G         20191003 IMCT                IMCT                                                                                                                    WMF1910035.TXT
MAKK99147481201910N3               89828070300P3YK20191018000030SPEAKER ASM                   M IMCTM CM1    TNTH  09020IMKDC KA PTB  00015  K0                0231NES        000000000000 DENSO TEN (THAILAND)                                                                                                                                            *G         20191003 IMCT                IMCT                                                                                                                    WMF1910035.TXT
MAKK99147482201910D3               89828070300P3YK20191018000030SPEAKER ASM                   M IMCTM CM1    TNTH  09020IMKDC KA PTB  00015  K0                1431DES        000000000000 DENSO TEN (THAILAND)                                                                                                                                            *G         20191003 IMCT                IMCT                                                                                                                    WMF1910035.TXT
MAKK99147483201910N3               89828070300P3YK20191019000030SPEAKER ASM                   M IMCTM CM1    TNTH  09020IMKDC KA PTB  00015  K0                0231NES        000000000000 DENSO TEN (THAILAND)                                                                                                                                            *G         20191003 IMCT                IMCT                                                                                                                    WMF1910035.TXT
MAKK99147484201910D3               89828070300P3YK20191021000060SPEAKER ASM                   M IMCTM CM1    TNTH  09020IMKDC KA PTB  00015  K0                1431DES        000000000000 DENSO TEN (THAILAND)                                                                                                                                            *G         20191003 IMCT                IMCT                                                                                                                    WMF1910035.TXT
MAKK99147485201910N3               89828070300P3YK20191022000030SPEAKER ASM                   M IMCTM CM1    TNTH  09020IMKDC KA PTB  00015  K0                0231NES        000000000000 DENSO TEN (THAILAND)                                                                                                                                            *G         20191003 IMCT                IMCT                                                                                                                    WMF1910035.TXT
MAKK99147486201910D3               89828070300P3YK20191022000060SPEAKER ASM                   M IMCTM CM1    TNTH  09020IMKDC KA PTB  00015  K0                1431DES        000000000000 DENSO TEN (THAILAND)                                                                                                                                            *G         20191003 IMCT                IMCT                                                                                                                    WMF1910035.TXT
MAKK99147487201910N3               89828070300P3YK20191023000030SPEAKER ASM                   M IMCTM CM1    TNTH  09020IMKDC KA PTB  00015  K0                0231NES        000000000000 DENSO TEN (THAILAND)                                                                                                                                            *G         20191003 IMCT                IMCT                                                                                                                    WMF1910035.TXT
MAKK99147488201910N3               89831228410P3YK20191016000015RADIO;AM/FM,CD                M IMCTM CM1    TNTH  09020IMKDC KA   CPB00003  K0                0231NES        000000000000 DENSO TEN (THAILAND)                                                                                                                                            *G         20191003 IMCT                IMCT                                                                                                                    WMF1910035.TXT
MAKK99154703201910D3               89828070100P3YK20191015000030SPEAKER ASM                   M IMCTM PK3    TNTH  09020IMKDC KA PTB  00004  K0                1431DES        000000000000 DENSO TEN (THAILAND)                                                                                                                                            *G         20191003 IMCT                IMCT                                                                                                                    WMF1910035.TXT
