REC2019112520191125ISUZU                              10     
MDEFKNT16518201911                D89828070100PV4F20191129000028SPEAKER ASM                   M IMCTM S7FL05 TNTH  09020IMCT  S7 PTB  00004                    1300 SR        000000000000 DENSO TEN (THAILAND)190F11R0040   190G64R0082   D191200102    D191200115    000000                                                                              *R         20191125 IMCT                IMCT                                                                                                                    RMF1911255.TXT
MDEFKNT16519201911                D89828070200PV4F20191129000025SPEAKER ASM                   M IMCTM S7FL05 TNTH  09020IMCT  S7 PTB  00005                    1300 SR        000000000000 DENSO TEN (THAILAND)190G64R0073   190G64R0082   D191200103    D191200115    000000                                                                              *R         20191125 IMCT                IMCT                                                                                                                    RMF1911255.TXT
MDEFKNT16520201911                D89828070300PT4F20191129000015SPEAKER ASM                   M IMCTM S7TS02 TNTH  09020IMCT  S7 PTB  00015                    1300 SR        000000000000 DENSO TEN (THAILAND)190G64R0075   190G64R0082   D191200108    D191200115    000000                                                                              *R         20191125 IMCT                IMCT                                                                                                                    RMF1911255.TXT
MDEFKNT16521201911                D89831229020PT4F20191128000008RADIO;AM/FM,CD                M IMCTM S7U137 TNTH  09020IMCT  S7 PTB  00003                    2230 SR        000000000000 DENSO TEN (THAILAND)190D48R0063   190D48R0070   D191105006    D191105015    000000                                                                              *R         20191125 IMCT                IMCT                                                                                                                    RMF1911255.TXT
MDEFKNT16522201911                D89848582010PT4F20191129000002RADIO;AM/FM CD D              M IMCTM S7TS01 TNTH  09020IMCT  S7 PTB  00003                    1030 SR        000000000000 DENSO TEN (THAILAND)190F11R0039   190F11R0040   D191200101    D191200102    000000                                                                              *R         20191125 IMCT                IMCT                                                                                                                    RMF1911255.TXT
MDEFKN242865201911                D89828070100PV4F20191128000032SPEAKER ASM                   M IMCTM S7FL05 TNTH  09020IMCT  S7 PTB  00004                    2230 SR        000000000000 DENSO TEN (THAILAND)190L47R0011   190F11R0039   D191105001    D191200101    000000                                                                              *R         20191125 IMCT                IMCT                                                                                                                    RMF1911255.TXT
MDEFKN242866201911                D89828070200PV4F20191128000030SPEAKER ASM                   M IMCTM S7FL05 TNTH  09020IMCT  S7 PTB  00005                    2230 SR        000000000000 DENSO TEN (THAILAND)190L47R0011   190D48R0070   D191105001    D191105015    000000                                                                              *R         20191125 IMCT                IMCT                                                                                                                    RMF1911255.TXT
MDEFKN242867201911                D89828070200PV4F20191129000005SPEAKER ASM                   M IMCTM S7FL05 TNTH  09020IMCT  S7 PTB  00005                    1030 SR        000000000000 DENSO TEN (THAILAND)190F11R0039   190G64R0073   D191200101    D191200103    000000                                                                              *R         20191125 IMCT                IMCT                                                                                                                    RMF1911255.TXT
MDEFKN242868201911                D89828070300PT4F20191128000030SPEAKER ASM                   M IMCTM S7TS02 TNTH  09020IMCT  S7 PTB  00015                    2230 SR        000000000000 DENSO TEN (THAILAND)190L47R0011   190D48R0070   D191105001    D191105015    000000                                                                              *R         20191125 IMCT                IMCT                                                                                                                    RMF1911255.TXT
MDEFKN242869201911                D89828070300PT4F20191129000015SPEAKER ASM                   M IMCTM S7TS02 TNTH  09020IMCT  S7 PTB  00015                    1030 SR        000000000000 DENSO TEN (THAILAND)190F11R0039   190G64R0075   D191200101    D191200108    000000                                                                              *R         20191125 IMCT                IMCT                                                                                                                    RMF1911255.TXT
