REC2019112820191128ISUZU                              40     
MAKK9N154864201911N3               89825451200P3YK20191211000030SPEAKER ASM;ROOF              M IMCTM CM1    TNTH  09020IMKDC KA PTB  00036  K0                0231NES        000000000000 DENSO TEN (THAILAND)                                                                                                                                            *G         20191128 IMCT                IMCT                                                                                                                    WMF1911289.TXT
MAKK9N154865201911N3               89825451200P3YK20191212000030SPEAKER ASM;ROOF              M IMCTM CM1    TNTH  09020IMKDC KA PTB  00036  K0                0231NES        000000000000 DENSO TEN (THAILAND)                                                                                                                                            *G         20191128 IMCT                IMCT                                                                                                                    WMF1911289.TXT
MAKK9N154866201911D3               89825451200P3YK20191212000030SPEAKER ASM;ROOF              M IMCTM CM1    TNTH  09020IMKDC KA PTB  00036  K0                1431DES        000000000000 DENSO TEN (THAILAND)                                                                                                                                            *G         20191128 IMCT                IMCT                                                                                                                    WMF1911289.TXT
MAKK9N154867201911D3               89825451200P3YK20191213000030SPEAKER ASM;ROOF              M IMCTM CM1    TNTH  09020IMKDC KA PTB  00036  K0                1431DES        000000000000 DENSO TEN (THAILAND)                                                                                                                                            *G         20191128 IMCT                IMCT                                                                                                                    WMF1911289.TXT
MAKK9N154868201911N3               89825451200P3YK20191215000090SPEAKER ASM;ROOF              M IMCTM CM1    TNTH  09020IMKDC KA PTB  00036  K0                0231NES        000000000000 DENSO TEN (THAILAND)                                                                                                                                            *G         20191128 IMCT                IMCT                                                                                                                    WMF1911289.TXT
MAKK9N154869201911D3               89828070100P3YK20191209000120SPEAKER ASM                   M IMCTM CM1    TNTH  09020IMKDC KA PTB  00004  K0                1431DES        000000000000 DENSO TEN (THAILAND)                                                                                                                                            *G         20191128 IMCT                IMCT                                                                                                                    WMF1911289.TXT
MAKK9N154870201911N3               89828070100P3YK20191210000150SPEAKER ASM                   M IMCTM CM1    TNTH  09020IMKDC KA PTB  00004  K0                0231NES        000000000000 DENSO TEN (THAILAND)                                                                                                                                            *G         20191128 IMCT                IMCT                                                                                                                    WMF1911289.TXT
MAKK9N154871201911D3               89828070100P3YK20191210000120SPEAKER ASM                   M IMCTM CM1    TNTH  09020IMKDC KA PTB  00004  K0                1431DES        000000000000 DENSO TEN (THAILAND)                                                                                                                                            *G         20191128 IMCT                IMCT                                                                                                                    WMF1911289.TXT
MAKK9N154872201911N3               89828070100P3YK20191211000090SPEAKER ASM                   M IMCTM CM1    TNTH  09020IMKDC KA PTB  00004  K0                0231NES        000000000000 DENSO TEN (THAILAND)                                                                                                                                            *G         20191128 IMCT                IMCT                                                                                                                    WMF1911289.TXT
MAKK9N154873201911D3               89828070100P3YK20191211000150SPEAKER ASM                   M IMCTM CM1    TNTH  09020IMKDC KA PTB  00004  K0                1431DES        000000000000 DENSO TEN (THAILAND)                                                                                                                                            *G         20191128 IMCT                IMCT                                                                                                                    WMF1911289.TXT
MAKK9N154874201911N3               89828070100P3YK20191212000150SPEAKER ASM                   M IMCTM CM1    TNTH  09020IMKDC KA PTB  00004  K0                0231NES        000000000000 DENSO TEN (THAILAND)                                                                                                                                            *G         20191128 IMCT                IMCT                                                                                                                    WMF1911289.TXT
MAKK9N154875201911D3               89828070100P3YK20191212000150SPEAKER ASM                   M IMCTM CM1    TNTH  09020IMKDC KA PTB  00004  K0                1431DES        000000000000 DENSO TEN (THAILAND)                                                                                                                                            *G         20191128 IMCT                IMCT                                                                                                                    WMF1911289.TXT
MAKK9N154876201911N3               89828070100P3YK20191213000150SPEAKER ASM                   M IMCTM CM1    TNTH  09020IMKDC KA PTB  00004  K0                0231NES        000000000000 DENSO TEN (THAILAND)                                                                                                                                            *G         20191128 IMCT                IMCT                                                                                                                    WMF1911289.TXT
MAKK9N154877201911D3               89828070100P3YK20191213000090SPEAKER ASM                   M IMCTM CM1    TNTH  09020IMKDC KA PTB  00004  K0                1431DES        000000000000 DENSO TEN (THAILAND)                                                                                                                                            *G         20191128 IMCT                IMCT                                                                                                                    WMF1911289.TXT
MAKK9N154878201911N3               89828070100P3YK20191214000150SPEAKER ASM                   M IMCTM CM1    TNTH  09020IMKDC KA PTB  00004  K0                0231NES        000000000000 DENSO TEN (THAILAND)                                                                                                                                            *G         20191128 IMCT                IMCT                                                                                                                    WMF1911289.TXT
MAKK9N154879201911D3               89828070100P3YK20191214000150SPEAKER ASM                   M IMCTM CM1    TNTH  09020IMKDC KA PTB  00004  K0                1431DES        000000000000 DENSO TEN (THAILAND)                                                                                                                                            *G         20191128 IMCT                IMCT                                                                                                                    WMF1911289.TXT
MAKK9N154880201911N3               89828070100P3YK20191215000180SPEAKER ASM                   M IMCTM CM1    TNTH  09020IMKDC KA PTB  00004  K0                0231NES        000000000000 DENSO TEN (THAILAND)                                                                                                                                            *G         20191128 IMCT                IMCT                                                                                                                    WMF1911289.TXT
MAKK9N154881201911D3               89828070200P3YK20191209000030SPEAKER ASM                   M IMCTM CM1    TNTH  09020IMKDC KA PTB  00005  K0                1431DES        000000000000 DENSO TEN (THAILAND)                                                                                                                                            *G         20191128 IMCT                IMCT                                                                                                                    WMF1911289.TXT
MAKK9N154882201911N3               89828070200P3YK20191210000060SPEAKER ASM                   M IMCTM CM1    TNTH  09020IMKDC KA PTB  00005  K0                0231NES        000000000000 DENSO TEN (THAILAND)                                                                                                                                            *G         20191128 IMCT                IMCT                                                                                                                    WMF1911289.TXT
MAKK9N154883201911D3               89828070200P3YK20191210000030SPEAKER ASM                   M IMCTM CM1    TNTH  09020IMKDC KA PTB  00005  K0                1431DES        000000000000 DENSO TEN (THAILAND)                                                                                                                                            *G         20191128 IMCT                IMCT                                                                                                                    WMF1911289.TXT
MAKK9N154884201911N3               89828070200P3YK20191211000060SPEAKER ASM                   M IMCTM CM1    TNTH  09020IMKDC KA PTB  00005  K0                0231NES        000000000000 DENSO TEN (THAILAND)                                                                                                                                            *G         20191128 IMCT                IMCT                                                                                                                    WMF1911289.TXT
MAKK9N154885201911N3               89828070200P3YK20191212000060SPEAKER ASM                   M IMCTM CM1    TNTH  09020IMKDC KA PTB  00005  K0                0231NES        000000000000 DENSO TEN (THAILAND)                                                                                                                                            *G         20191128 IMCT                IMCT                                                                                                                    WMF1911289.TXT
MAKK9N154886201911D3               89828070200P3YK20191212000090SPEAKER ASM                   M IMCTM CM1    TNTH  09020IMKDC KA PTB  00005  K0                1431DES        000000000000 DENSO TEN (THAILAND)                                                                                                                                            *G         20191128 IMCT                IMCT                                                                                                                    WMF1911289.TXT
MAKK9N154887201911N3               89828070200P3YK20191213000090SPEAKER ASM                   M IMCTM CM1    TNTH  09020IMKDC KA PTB  00005  K0                0231NES        000000000000 DENSO TEN (THAILAND)                                                                                                                                            *G         20191128 IMCT                IMCT                                                                                                                    WMF1911289.TXT
MAKK9N154888201911D3               89828070200P3YK20191213000030SPEAKER ASM                   M IMCTM CM1    TNTH  09020IMKDC KA PTB  00005  K0                1431DES        000000000000 DENSO TEN (THAILAND)                                                                                                                                            *G         20191128 IMCT                IMCT                                                                                                                    WMF1911289.TXT
MAKK9N154889201911N3               89828070200P3YK20191214000060SPEAKER ASM                   M IMCTM CM1    TNTH  09020IMKDC KA PTB  00005  K0                0231NES        000000000000 DENSO TEN (THAILAND)                                                                                                                                            *G         20191128 IMCT                IMCT                                                                                                                    WMF1911289.TXT
MAKK9N154890201911N3               89828070200P3YK20191215000090SPEAKER ASM                   M IMCTM CM1    TNTH  09020IMKDC KA PTB  00005  K0                0231NES        000000000000 DENSO TEN (THAILAND)                                                                                                                                            *G         20191128 IMCT                IMCT                                                                                                                    WMF1911289.TXT
MAKK9N154891201911D3               89828070300P3YK20191209000030SPEAKER ASM                   M IMCTM CM1    TNTH  09020IMKDC KA PTB  00015  K0                1431DES        000000000000 DENSO TEN (THAILAND)                                                                                                                                            *G         20191128 IMCT                IMCT                                                                                                                    WMF1911289.TXT
MAKK9N154892201911N3               89828070300P3YK20191210000060SPEAKER ASM                   M IMCTM CM1    TNTH  09020IMKDC KA PTB  00015  K0                0231NES        000000000000 DENSO TEN (THAILAND)                                                                                                                                            *G         20191128 IMCT                IMCT                                                                                                                    WMF1911289.TXT
MAKK9N154893201911D3               89828070300P3YK20191210000030SPEAKER ASM                   M IMCTM CM1    TNTH  09020IMKDC KA PTB  00015  K0                1431DES        000000000000 DENSO TEN (THAILAND)                                                                                                                                            *G         20191128 IMCT                IMCT                                                                                                                    WMF1911289.TXT
MAKK9N154894201911N3               89828070300P3YK20191211000090SPEAKER ASM                   M IMCTM CM1    TNTH  09020IMKDC KA PTB  00015  K0                0231NES        000000000000 DENSO TEN (THAILAND)                                                                                                                                            *G         20191128 IMCT                IMCT                                                                                                                    WMF1911289.TXT
MAKK9N154895201911D3               89828070300P3YK20191211000030SPEAKER ASM                   M IMCTM CM1    TNTH  09020IMKDC KA PTB  00015  K0                1431DES        000000000000 DENSO TEN (THAILAND)                                                                                                                                            *G         20191128 IMCT                IMCT                                                                                                                    WMF1911289.TXT
MAKK9N154896201911N3               89828070300P3YK20191212000060SPEAKER ASM                   M IMCTM CM1    TNTH  09020IMKDC KA PTB  00015  K0                0231NES        000000000000 DENSO TEN (THAILAND)                                                                                                                                            *G         20191128 IMCT                IMCT                                                                                                                    WMF1911289.TXT
MAKK9N154897201911D3               89828070300P3YK20191212000090SPEAKER ASM                   M IMCTM CM1    TNTH  09020IMKDC KA PTB  00015  K0                1431DES        000000000000 DENSO TEN (THAILAND)                                                                                                                                            *G         20191128 IMCT                IMCT                                                                                                                    WMF1911289.TXT
MAKK9N154898201911N3               89828070300P3YK20191213000120SPEAKER ASM                   M IMCTM CM1    TNTH  09020IMKDC KA PTB  00015  K0                0231NES        000000000000 DENSO TEN (THAILAND)                                                                                                                                            *G         20191128 IMCT                IMCT                                                                                                                    WMF1911289.TXT
MAKK9N154899201911D3               89828070300P3YK20191213000030SPEAKER ASM                   M IMCTM CM1    TNTH  09020IMKDC KA PTB  00015  K0                1431DES        000000000000 DENSO TEN (THAILAND)                                                                                                                                            *G         20191128 IMCT                IMCT                                                                                                                    WMF1911289.TXT
MAKK9N154900201911N3               89828070300P3YK20191214000120SPEAKER ASM                   M IMCTM CM1    TNTH  09020IMKDC KA PTB  00015  K0                0231NES        000000000000 DENSO TEN (THAILAND)                                                                                                                                            *G         20191128 IMCT                IMCT                                                                                                                    WMF1911289.TXT
MAKK9N154901201911N3               89828070300P3YK20191215000090SPEAKER ASM                   M IMCTM CM1    TNTH  09020IMKDC KA PTB  00015  K0                0231NES        000000000000 DENSO TEN (THAILAND)                                                                                                                                            *G         20191128 IMCT                IMCT                                                                                                                    WMF1911289.TXT
MAKK9N163094201911D3               89828070100P3YK20191210000030SPEAKER ASM                   M IMCTM PK3    TNTH  09020IMKDC KA PTB  00004  K0                1431DES        000000000000 DENSO TEN (THAILAND)                                                                                                                                            *G         20191128 IMCT                IMCT                                                                                                                    WMF1911289.TXT
MAKK9N163095201911D3               89828070200P3YK20191210000030SPEAKER ASM                   M IMCTM PK3    TNTH  09020IMKDC KA PTB  00005  K0                1431DES        000000000000 DENSO TEN (THAILAND)                                                                                                                                            *G         20191128 IMCT                IMCT                                                                                                                    WMF1911289.TXT
