REC2019112120191121ISUZU                              32     
MAKK9N127065201911N3               89825451200P3YK20191203000030SPEAKER ASM;ROOF              M IMCTM CM1    TNTH  09020IMKDC KA PTB  00036  K0                0231NES        000000000000 DENSO TEN (THAILAND)                                                                                                                                            *G         20191121 IMCT                IMCT                                                                                                                    WMF1911217.TXT
MAKK9N127066201911N3               89825451200P3YK20191204000030SPEAKER ASM;ROOF              M IMCTM CM1    TNTH  09020IMKDC KA PTB  00036  K0                0231NES        000000000000 DENSO TEN (THAILAND)                                                                                                                                            *G         20191121 IMCT                IMCT                                                                                                                    WMF1911217.TXT
MAKK9N127067201911N3               89825451200P3YK20191205000030SPEAKER ASM;ROOF              M IMCTM CM1    TNTH  09020IMKDC KA PTB  00036  K0                0231NES        000000000000 DENSO TEN (THAILAND)                                                                                                                                            *G         20191121 IMCT                IMCT                                                                                                                    WMF1911217.TXT
MAKK9N127068201911N3               89825451200P3YK20191208000120SPEAKER ASM;ROOF              M IMCTM CM1    TNTH  09020IMKDC KA PTB  00036  K0                0231NES        000000000000 DENSO TEN (THAILAND)                                                                                                                                            *G         20191121 IMCT                IMCT                                                                                                                    WMF1911217.TXT
MAKK9N127069201911D3               89828070100P3YK20191202000030SPEAKER ASM                   M IMCTM CM1    TNTH  09020IMKDC KA PTB  00004  K0                1431DES        000000000000 DENSO TEN (THAILAND)                                                                                                                                            *G         20191121 IMCT                IMCT                                                                                                                    WMF1911217.TXT
MAKK9N127070201911N3               89828070100P3YK20191203000090SPEAKER ASM                   M IMCTM CM1    TNTH  09020IMKDC KA PTB  00004  K0                0231NES        000000000000 DENSO TEN (THAILAND)                                                                                                                                            *G         20191121 IMCT                IMCT                                                                                                                    WMF1911217.TXT
MAKK9N127071201911D3               89828070100P3YK20191203000090SPEAKER ASM                   M IMCTM CM1    TNTH  09020IMKDC KA PTB  00004  K0                1431DES        000000000000 DENSO TEN (THAILAND)                                                                                                                                            *G         20191121 IMCT                IMCT                                                                                                                    WMF1911217.TXT
MAKK9N127072201911N3               89828070100P3YK20191204000090SPEAKER ASM                   M IMCTM CM1    TNTH  09020IMKDC KA PTB  00004  K0                0231NES        000000000000 DENSO TEN (THAILAND)                                                                                                                                            *G         20191121 IMCT                IMCT                                                                                                                    WMF1911217.TXT
MAKK9N127073201911D3               89828070100P3YK20191204000090SPEAKER ASM                   M IMCTM CM1    TNTH  09020IMKDC KA PTB  00004  K0                1431DES        000000000000 DENSO TEN (THAILAND)                                                                                                                                            *G         20191121 IMCT                IMCT                                                                                                                    WMF1911217.TXT
MAKK9N127074201911N3               89828070100P3YK20191205000060SPEAKER ASM                   M IMCTM CM1    TNTH  09020IMKDC KA PTB  00004  K0                0231NES        000000000000 DENSO TEN (THAILAND)                                                                                                                                            *G         20191121 IMCT                IMCT                                                                                                                    WMF1911217.TXT
MAKK9N127075201911D3               89828070100P3YK20191206000150SPEAKER ASM                   M IMCTM CM1    TNTH  09020IMKDC KA PTB  00004  K0                1431DES        000000000000 DENSO TEN (THAILAND)                                                                                                                                            *G         20191121 IMCT                IMCT                                                                                                                    WMF1911217.TXT
MAKK9N127076201911N3               89828070100P3YK20191207000180SPEAKER ASM                   M IMCTM CM1    TNTH  09020IMKDC KA PTB  00004  K0                0231NES        000000000000 DENSO TEN (THAILAND)                                                                                                                                            *G         20191121 IMCT                IMCT                                                                                                                    WMF1911217.TXT
MAKK9N127077201911D3               89828070100P3YK20191207000120SPEAKER ASM                   M IMCTM CM1    TNTH  09020IMKDC KA PTB  00004  K0                1431DES        000000000000 DENSO TEN (THAILAND)                                                                                                                                            *G         20191121 IMCT                IMCT                                                                                                                    WMF1911217.TXT
MAKK9N127078201911N3               89828070100P3YK20191208000090SPEAKER ASM                   M IMCTM CM1    TNTH  09020IMKDC KA PTB  00004  K0                0231NES        000000000000 DENSO TEN (THAILAND)                                                                                                                                            *G         20191121 IMCT                IMCT                                                                                                                    WMF1911217.TXT
MAKK9N127079201911D3               89828070200P3YK20191202000030SPEAKER ASM                   M IMCTM CM1    TNTH  09020IMKDC KA PTB  00005  K0                1431DES        000000000000 DENSO TEN (THAILAND)                                                                                                                                            *G         20191121 IMCT                IMCT                                                                                                                    WMF1911217.TXT
MAKK9N127080201911N3               89828070200P3YK20191203000030SPEAKER ASM                   M IMCTM CM1    TNTH  09020IMKDC KA PTB  00005  K0                0231NES        000000000000 DENSO TEN (THAILAND)                                                                                                                                            *G         20191121 IMCT                IMCT                                                                                                                    WMF1911217.TXT
MAKK9N127081201911N3               89828070200P3YK20191204000030SPEAKER ASM                   M IMCTM CM1    TNTH  09020IMKDC KA PTB  00005  K0                0231NES        000000000000 DENSO TEN (THAILAND)                                                                                                                                            *G         20191121 IMCT                IMCT                                                                                                                    WMF1911217.TXT
MAKK9N127082201911D3               89828070200P3YK20191204000060SPEAKER ASM                   M IMCTM CM1    TNTH  09020IMKDC KA PTB  00005  K0                1431DES        000000000000 DENSO TEN (THAILAND)                                                                                                                                            *G         20191121 IMCT                IMCT                                                                                                                    WMF1911217.TXT
MAKK9N127083201911N3               89828070200P3YK20191205000030SPEAKER ASM                   M IMCTM CM1    TNTH  09020IMKDC KA PTB  00005  K0                0231NES        000000000000 DENSO TEN (THAILAND)                                                                                                                                            *G         20191121 IMCT                IMCT                                                                                                                    WMF1911217.TXT
MAKK9N127084201911D3               89828070200P3YK20191206000090SPEAKER ASM                   M IMCTM CM1    TNTH  09020IMKDC KA PTB  00005  K0                1431DES        000000000000 DENSO TEN (THAILAND)                                                                                                                                            *G         20191121 IMCT                IMCT                                                                                                                    WMF1911217.TXT
MAKK9N127085201911N3               89828070200P3YK20191207000030SPEAKER ASM                   M IMCTM CM1    TNTH  09020IMKDC KA PTB  00005  K0                0231NES        000000000000 DENSO TEN (THAILAND)                                                                                                                                            *G         20191121 IMCT                IMCT                                                                                                                    WMF1911217.TXT
MAKK9N127086201911D3               89828070200P3YK20191207000060SPEAKER ASM                   M IMCTM CM1    TNTH  09020IMKDC KA PTB  00005  K0                1431DES        000000000000 DENSO TEN (THAILAND)                                                                                                                                            *G         20191121 IMCT                IMCT                                                                                                                    WMF1911217.TXT
MAKK9N127087201911N3               89828070200P3YK20191208000060SPEAKER ASM                   M IMCTM CM1    TNTH  09020IMKDC KA PTB  00005  K0                0231NES        000000000000 DENSO TEN (THAILAND)                                                                                                                                            *G         20191121 IMCT                IMCT                                                                                                                    WMF1911217.TXT
MAKK9N127088201911D3               89828070300P3YK20191202000030SPEAKER ASM                   M IMCTM CM1    TNTH  09020IMKDC KA PTB  00015  K0                1431DES        000000000000 DENSO TEN (THAILAND)                                                                                                                                            *G         20191121 IMCT                IMCT                                                                                                                    WMF1911217.TXT
MAKK9N127089201911N3               89828070300P3YK20191203000030SPEAKER ASM                   M IMCTM CM1    TNTH  09020IMKDC KA PTB  00015  K0                0231NES        000000000000 DENSO TEN (THAILAND)                                                                                                                                            *G         20191121 IMCT                IMCT                                                                                                                    WMF1911217.TXT
MAKK9N127090201911N3               89828070300P3YK20191204000060SPEAKER ASM                   M IMCTM CM1    TNTH  09020IMKDC KA PTB  00015  K0                0231NES        000000000000 DENSO TEN (THAILAND)                                                                                                                                            *G         20191121 IMCT                IMCT                                                                                                                    WMF1911217.TXT
MAKK9N127091201911D3               89828070300P3YK20191204000060SPEAKER ASM                   M IMCTM CM1    TNTH  09020IMKDC KA PTB  00015  K0                1431DES        000000000000 DENSO TEN (THAILAND)                                                                                                                                            *G         20191121 IMCT                IMCT                                                                                                                    WMF1911217.TXT
MAKK9N127092201911N3               89828070300P3YK20191205000030SPEAKER ASM                   M IMCTM CM1    TNTH  09020IMKDC KA PTB  00015  K0                0231NES        000000000000 DENSO TEN (THAILAND)                                                                                                                                            *G         20191121 IMCT                IMCT                                                                                                                    WMF1911217.TXT
MAKK9N127093201911D3               89828070300P3YK20191206000090SPEAKER ASM                   M IMCTM CM1    TNTH  09020IMKDC KA PTB  00015  K0                1431DES        000000000000 DENSO TEN (THAILAND)                                                                                                                                            *G         20191121 IMCT                IMCT                                                                                                                    WMF1911217.TXT
MAKK9N127094201911N3               89828070300P3YK20191207000030SPEAKER ASM                   M IMCTM CM1    TNTH  09020IMKDC KA PTB  00015  K0                0231NES        000000000000 DENSO TEN (THAILAND)                                                                                                                                            *G         20191121 IMCT                IMCT                                                                                                                    WMF1911217.TXT
MAKK9N127095201911D3               89828070300P3YK20191207000090SPEAKER ASM                   M IMCTM CM1    TNTH  09020IMKDC KA PTB  00015  K0                1431DES        000000000000 DENSO TEN (THAILAND)                                                                                                                                            *G         20191121 IMCT                IMCT                                                                                                                    WMF1911217.TXT
MAKK9N127096201911N3               89828070300P3YK20191208000090SPEAKER ASM                   M IMCTM CM1    TNTH  09020IMKDC KA PTB  00015  K0                0231NES        000000000000 DENSO TEN (THAILAND)                                                                                                                                            *G         20191121 IMCT                IMCT                                                                                                                    WMF1911217.TXT
