REC2019111520191115ISUZU                              3      
MDEFKNT12415201911                D89828070100PV4F20191121000012SPEAKER ASM                   M IMCTM S7FL05 TNTH  09020IMCT  S7 PTB  00004                    1030 SR        000000000000 DENSO TEN (THAILAND)190K08R0091   190K71R0077   S191104410    S191104415    000000                                                                              *R         20191115 IMCT                IMCT                                                                                                                    RMF1911158.TXT
MDEFKN235645201911                D89828070100PV4F20191121000032SPEAKER ASM                   M IMCTM S7FL05 TNTH  09020IMCT  S7 PTB  00004                    0230 SR        000000000000 DENSO TEN (THAILAND)190J85R0089   190K68R0039   R191104301    S191104401    000000                                                                              *R         20191115 IMCT                IMCT                                                                                                                    RMF1911158.TXT
MDEFKN235646201911                D89828070100PV4F20191121000016SPEAKER ASM                   M IMCTM S7FL05 TNTH  09020IMCT  S7 PTB  00004                    0830 SR        000000000000 DENSO TEN (THAILAND)190K68R0040   190K68R0047   S191104402    S191104409    000000                                                                              *R         20191115 IMCT                IMCT                                                                                                                    RMF1911158.TXT
