REC2019111820191118ISUZU                              5      
MDEFKNT13296201911                D89828070100PV4F20191121000026SPEAKER ASM                   M IMCTM S7FL05 TNTH  09020IMCT  S7 PTB  00004                    2230 SR        000000000000 DENSO TEN (THAILAND)190J75R0018   190L52R0010   D191104503    D191104515    000000                                                                              *R         20191118 IMCT                IMCT                                                                                                                    RMF1911187.TXT
MDEFKNT13297201911                D89828070200PV4F20191121000010SPEAKER ASM                   M IMCTM S7FL05 TNTH  09020IMCT  S7 PTB  00005                    2230 SR        000000000000 DENSO TEN (THAILAND)190J78R0019   190J78R0021   D191104506    D191104510    000000                                                                              *R         20191118 IMCT                IMCT                                                                                                                    RMF1911187.TXT
MDEFKNT13298201911                D89828070300PT4F20191121000010SPEAKER ASM                   M IMCTM S7TS02 TNTH  09020IMCT  S7 PTB  00015                    2230 SR        000000000000 DENSO TEN (THAILAND)190J78R0019   190J78R0021   D191104506    D191104510    000000                                                                              *R         20191118 IMCT                IMCT                                                                                                                    RMF1911187.TXT
MDEFKNT13299201911                D89838031200PT4F20191121000005RADIO;ASM DVD                 M IMCTM S7TS03 TNTH  09020IMCT  S7 PTB  00003                    2230 SR        000000000000 DENSO TEN (THAILAND)190J78R0019   190J78R0021   D191104506    D191104510    000000                                                                              *R         20191118 IMCT                IMCT                                                                                                                    RMF1911187.TXT
MDEFKN237274201911                D89828070100PV4F20191121000004SPEAKER ASM                   M IMCTM S7FL05 TNTH  09020IMCT  S7 PTB  00004                    2100 SR        000000000000 DENSO TEN (THAILAND)190J75R0016   190J75R0017   D191104501    D191104502    000000                                                                              *R         20191118 IMCT                IMCT                                                                                                                    RMF1911187.TXT
