REC2019110720191107ISUZU                              30     
MAKK9N078175201911N3               89825451200P3YK20191119000030SPEAKER ASM;ROOF              M IMCTM CM1    TNTH  09020IMKDC KA PTB  00036  K0                0231NES        000000000000 DENSO TEN (THAILAND)                                                                                                                                            *G         20191107 IMCT                IMCT                                                                                                                    WMF1911072.TXT
MAKK9N078176201911N3               89825451200P3YK20191123000030SPEAKER ASM;ROOF              M IMCTM CM1    TNTH  09020IMKDC KA PTB  00036  K0                0231NES        000000000000 DENSO TEN (THAILAND)                                                                                                                                            *G         20191107 IMCT                IMCT                                                                                                                    WMF1911072.TXT
MAKK9N078177201911D3               89828070100P3YK20191118000090SPEAKER ASM                   M IMCTM CM1    TNTH  09020IMKDC KA PTB  00004  K0                1431DES        000000000000 DENSO TEN (THAILAND)                                                                                                                                            *G         20191107 IMCT                IMCT                                                                                                                    WMF1911072.TXT
MAKK9N078178201911N3               89828070100P3YK20191119000060SPEAKER ASM                   M IMCTM CM1    TNTH  09020IMKDC KA PTB  00004  K0                0231NES        000000000000 DENSO TEN (THAILAND)                                                                                                                                            *G         20191107 IMCT                IMCT                                                                                                                    WMF1911072.TXT
MAKK9N078179201911D3               89828070100P3YK20191119000120SPEAKER ASM                   M IMCTM CM1    TNTH  09020IMKDC KA PTB  00004  K0                1431DES        000000000000 DENSO TEN (THAILAND)                                                                                                                                            *G         20191107 IMCT                IMCT                                                                                                                    WMF1911072.TXT
MAKK9N078180201911N3               89828070100P3YK20191120000120SPEAKER ASM                   M IMCTM CM1    TNTH  09020IMKDC KA PTB  00004  K0                0231NES        000000000000 DENSO TEN (THAILAND)                                                                                                                                            *G         20191107 IMCT                IMCT                                                                                                                    WMF1911072.TXT
MAKK9N078181201911D3               89828070100P3YK20191120000120SPEAKER ASM                   M IMCTM CM1    TNTH  09020IMKDC KA PTB  00004  K0                1431DES        000000000000 DENSO TEN (THAILAND)                                                                                                                                            *G         20191107 IMCT                IMCT                                                                                                                    WMF1911072.TXT
MAKK9N078182201911N3               89828070100P3YK20191121000120SPEAKER ASM                   M IMCTM CM1    TNTH  09020IMKDC KA PTB  00004  K0                0231NES        000000000000 DENSO TEN (THAILAND)                                                                                                                                            *G         20191107 IMCT                IMCT                                                                                                                    WMF1911072.TXT
MAKK9N078183201911D3               89828070100P3YK20191121000060SPEAKER ASM                   M IMCTM CM1    TNTH  09020IMKDC KA PTB  00004  K0                1431DES        000000000000 DENSO TEN (THAILAND)                                                                                                                                            *G         20191107 IMCT                IMCT                                                                                                                    WMF1911072.TXT
MAKK9N078184201911N3               89828070100P3YK20191122000060SPEAKER ASM                   M IMCTM CM1    TNTH  09020IMKDC KA PTB  00004  K0                0231NES        000000000000 DENSO TEN (THAILAND)                                                                                                                                            *G         20191107 IMCT                IMCT                                                                                                                    WMF1911072.TXT
MAKK9N078185201911D3               89828070100P3YK20191122000120SPEAKER ASM                   M IMCTM CM1    TNTH  09020IMKDC KA PTB  00004  K0                1431DES        000000000000 DENSO TEN (THAILAND)                                                                                                                                            *G         20191107 IMCT                IMCT                                                                                                                    WMF1911072.TXT
MAKK9N078186201911N3               89828070100P3YK20191123000090SPEAKER ASM                   M IMCTM CM1    TNTH  09020IMKDC KA PTB  00004  K0                0231NES        000000000000 DENSO TEN (THAILAND)                                                                                                                                            *G         20191107 IMCT                IMCT                                                                                                                    WMF1911072.TXT
MAKK9N078187201911D3               89828070100P3YK20191123000120SPEAKER ASM                   M IMCTM CM1    TNTH  09020IMKDC KA PTB  00004  K0                1431DES        000000000000 DENSO TEN (THAILAND)                                                                                                                                            *G         20191107 IMCT                IMCT                                                                                                                    WMF1911072.TXT
MAKK9N078188201911N3               89828070100P3YK20191124000120SPEAKER ASM                   M IMCTM CM1    TNTH  09020IMKDC KA PTB  00004  K0                0231NES        000000000000 DENSO TEN (THAILAND)                                                                                                                                            *G         20191107 IMCT                IMCT                                                                                                                    WMF1911072.TXT
MAKK9N078189201911D3               89828070200P3YK20191118000030SPEAKER ASM                   M IMCTM CM1    TNTH  09020IMKDC KA PTB  00005  K0                1431DES        000000000000 DENSO TEN (THAILAND)                                                                                                                                            *G         20191107 IMCT                IMCT                                                                                                                    WMF1911072.TXT
MAKK9N078190201911D3               89828070200P3YK20191120000030SPEAKER ASM                   M IMCTM CM1    TNTH  09020IMKDC KA PTB  00005  K0                1431DES        000000000000 DENSO TEN (THAILAND)                                                                                                                                            *G         20191107 IMCT                IMCT                                                                                                                    WMF1911072.TXT
MAKK9N078191201911N3               89828070200P3YK20191121000060SPEAKER ASM                   M IMCTM CM1    TNTH  09020IMKDC KA PTB  00005  K0                0231NES        000000000000 DENSO TEN (THAILAND)                                                                                                                                            *G         20191107 IMCT                IMCT                                                                                                                    WMF1911072.TXT
MAKK9N078192201911D3               89828070200P3YK20191122000030SPEAKER ASM                   M IMCTM CM1    TNTH  09020IMKDC KA PTB  00005  K0                1431DES        000000000000 DENSO TEN (THAILAND)                                                                                                                                            *G         20191107 IMCT                IMCT                                                                                                                    WMF1911072.TXT
MAKK9N078193201911N3               89828070200P3YK20191123000060SPEAKER ASM                   M IMCTM CM1    TNTH  09020IMKDC KA PTB  00005  K0                0231NES        000000000000 DENSO TEN (THAILAND)                                                                                                                                            *G         20191107 IMCT                IMCT                                                                                                                    WMF1911072.TXT
MAKK9N078194201911D3               89828070300P3YK20191118000030SPEAKER ASM                   M IMCTM CM1    TNTH  09020IMKDC KA PTB  00015  K0                1431DES        000000000000 DENSO TEN (THAILAND)                                                                                                                                            *G         20191107 IMCT                IMCT                                                                                                                    WMF1911072.TXT
MAKK9N078195201911N3               89828070300P3YK20191120000030SPEAKER ASM                   M IMCTM CM1    TNTH  09020IMKDC KA PTB  00015  K0                0231NES        000000000000 DENSO TEN (THAILAND)                                                                                                                                            *G         20191107 IMCT                IMCT                                                                                                                    WMF1911072.TXT
MAKK9N078196201911D3               89828070300P3YK20191120000030SPEAKER ASM                   M IMCTM CM1    TNTH  09020IMKDC KA PTB  00015  K0                1431DES        000000000000 DENSO TEN (THAILAND)                                                                                                                                            *G         20191107 IMCT                IMCT                                                                                                                    WMF1911072.TXT
MAKK9N078197201911N3               89828070300P3YK20191121000090SPEAKER ASM                   M IMCTM CM1    TNTH  09020IMKDC KA PTB  00015  K0                0231NES        000000000000 DENSO TEN (THAILAND)                                                                                                                                            *G         20191107 IMCT                IMCT                                                                                                                    WMF1911072.TXT
MAKK9N078198201911N3               89828070300P3YK20191122000030SPEAKER ASM                   M IMCTM CM1    TNTH  09020IMKDC KA PTB  00015  K0                0231NES        000000000000 DENSO TEN (THAILAND)                                                                                                                                            *G         20191107 IMCT                IMCT                                                                                                                    WMF1911072.TXT
MAKK9N078199201911D3               89828070300P3YK20191122000030SPEAKER ASM                   M IMCTM CM1    TNTH  09020IMKDC KA PTB  00015  K0                1431DES        000000000000 DENSO TEN (THAILAND)                                                                                                                                            *G         20191107 IMCT                IMCT                                                                                                                    WMF1911072.TXT
MAKK9N078200201911N3               89828070300P3YK20191123000060SPEAKER ASM                   M IMCTM CM1    TNTH  09020IMKDC KA PTB  00015  K0                0231NES        000000000000 DENSO TEN (THAILAND)                                                                                                                                            *G         20191107 IMCT                IMCT                                                                                                                    WMF1911072.TXT
MAKK9N078201201911N3               89828070300P3YK20191124000030SPEAKER ASM                   M IMCTM CM1    TNTH  09020IMKDC KA PTB  00015  K0                0231NES        000000000000 DENSO TEN (THAILAND)                                                                                                                                            *G         20191107 IMCT                IMCT                                                                                                                    WMF1911072.TXT
MAKK9N078202201911D3               89831228410P3YK20191118000015RADIO;AM/FM,CD                M IMCTM CM1    TNTH  09020IMKDC KA   CPB00003  K0                1431DES        000000000000 DENSO TEN (THAILAND)                                                                                                                                            *G         20191107 IMCT                IMCT                                                                                                                    WMF1911072.TXT
MAKK9N085714201911D3               89828070100P3YK20191119000030SPEAKER ASM                   M IMCTM PK3    TNTH  09020IMKDC KA PTB  00004  K0                1431DES        000000000000 DENSO TEN (THAILAND)                                                                                                                                            *G         20191107 IMCT                IMCT                                                                                                                    WMF1911072.TXT
MAKK9N085715201911D3               89828070200P3YK20191119000030SPEAKER ASM                   M IMCTM PK3    TNTH  09020IMKDC KA PTB  00005  K0                1431DES        000000000000 DENSO TEN (THAILAND)                                                                                                                                            *G         20191107 IMCT                IMCT                                                                                                                    WMF1911072.TXT
