REC2019101720191017ISUZU                              36     
MAKK9O080354201910N3               89825451200P3YK20191106000030SPEAKER ASM;ROOF              M IMCTM CM1    TNTH  09020IMKDC KA PTB  00036  K0                0231NES        000000000000 DENSO TEN (THAILAND)                                                                                                                                            *G         20191017 IMCT                IMCT                                                                                                                    WMF1910173.TXT
MAKK9O080355201910D3               89828070100P3YK20191104000150SPEAKER ASM                   M IMCTM CM1    TNTH  09020IMKDC KA PTB  00004  K0                1431DES        000000000000 DENSO TEN (THAILAND)                                                                                                                                            *G         20191017 IMCT                IMCT                                                                                                                    WMF1910173.TXT
MAKK9O080356201910N3               89828070100P3YK20191105000120SPEAKER ASM                   M IMCTM CM1    TNTH  09020IMKDC KA PTB  00004  K0                0231NES        000000000000 DENSO TEN (THAILAND)                                                                                                                                            *G         20191017 IMCT                IMCT                                                                                                                    WMF1910173.TXT
MAKK9O080357201910D3               89828070100P3YK20191105000090SPEAKER ASM                   M IMCTM CM1    TNTH  09020IMKDC KA PTB  00004  K0                1431DES        000000000000 DENSO TEN (THAILAND)                                                                                                                                            *G         20191017 IMCT                IMCT                                                                                                                    WMF1910173.TXT
MAKK9O080358201910N3               89828070100P3YK20191106000120SPEAKER ASM                   M IMCTM CM1    TNTH  09020IMKDC KA PTB  00004  K0                0231NES        000000000000 DENSO TEN (THAILAND)                                                                                                                                            *G         20191017 IMCT                IMCT                                                                                                                    WMF1910173.TXT
MAKK9O080359201910D3               89828070100P3YK20191106000090SPEAKER ASM                   M IMCTM CM1    TNTH  09020IMKDC KA PTB  00004  K0                1431DES        000000000000 DENSO TEN (THAILAND)                                                                                                                                            *G         20191017 IMCT                IMCT                                                                                                                    WMF1910173.TXT
MAKK9O080360201910N3               89828070100P3YK20191107000120SPEAKER ASM                   M IMCTM CM1    TNTH  09020IMKDC KA PTB  00004  K0                0231NES        000000000000 DENSO TEN (THAILAND)                                                                                                                                            *G         20191017 IMCT                IMCT                                                                                                                    WMF1910173.TXT
MAKK9O080361201910D3               89828070100P3YK20191107000150SPEAKER ASM                   M IMCTM CM1    TNTH  09020IMKDC KA PTB  00004  K0                1431DES        000000000000 DENSO TEN (THAILAND)                                                                                                                                            *G         20191017 IMCT                IMCT                                                                                                                    WMF1910173.TXT
MAKK9O080362201910N3               89828070100P3YK20191108000090SPEAKER ASM                   M IMCTM CM1    TNTH  09020IMKDC KA PTB  00004  K0                0231NES        000000000000 DENSO TEN (THAILAND)                                                                                                                                            *G         20191017 IMCT                IMCT                                                                                                                    WMF1910173.TXT
MAKK9O080363201910D3               89828070100P3YK20191108000150SPEAKER ASM                   M IMCTM CM1    TNTH  09020IMKDC KA PTB  00004  K0                1431DES        000000000000 DENSO TEN (THAILAND)                                                                                                                                            *G         20191017 IMCT                IMCT                                                                                                                    WMF1910173.TXT
MAKK9O080364201910N3               89828070100P3YK20191109000150SPEAKER ASM                   M IMCTM CM1    TNTH  09020IMKDC KA PTB  00004  K0                0231NES        000000000000 DENSO TEN (THAILAND)                                                                                                                                            *G         20191017 IMCT                IMCT                                                                                                                    WMF1910173.TXT
MAKK9O080365201910D3               89828070100P3YK20191109000150SPEAKER ASM                   M IMCTM CM1    TNTH  09020IMKDC KA PTB  00004  K0                1431DES        000000000000 DENSO TEN (THAILAND)                                                                                                                                            *G         20191017 IMCT                IMCT                                                                                                                    WMF1910173.TXT
MAKK9O080366201910N3               89828070100P3YK20191110000120SPEAKER ASM                   M IMCTM CM1    TNTH  09020IMKDC KA PTB  00004  K0                0231NES        000000000000 DENSO TEN (THAILAND)                                                                                                                                            *G         20191017 IMCT                IMCT                                                                                                                    WMF1910173.TXT
MAKK9O080367201910D3               89828070200P3YK20191104000030SPEAKER ASM                   M IMCTM CM1    TNTH  09020IMKDC KA PTB  00005  K0                1431DES        000000000000 DENSO TEN (THAILAND)                                                                                                                                            *G         20191017 IMCT                IMCT                                                                                                                    WMF1910173.TXT
MAKK9O080368201910D3               89828070200P3YK20191105000030SPEAKER ASM                   M IMCTM CM1    TNTH  09020IMKDC KA PTB  00005  K0                1431DES        000000000000 DENSO TEN (THAILAND)                                                                                                                                            *G         20191017 IMCT                IMCT                                                                                                                    WMF1910173.TXT
MAKK9O080369201910N3               89828070200P3YK20191106000060SPEAKER ASM                   M IMCTM CM1    TNTH  09020IMKDC KA PTB  00005  K0                0231NES        000000000000 DENSO TEN (THAILAND)                                                                                                                                            *G         20191017 IMCT                IMCT                                                                                                                    WMF1910173.TXT
MAKK9O080370201910N3               89828070200P3YK20191107000030SPEAKER ASM                   M IMCTM CM1    TNTH  09020IMKDC KA PTB  00005  K0                0231NES        000000000000 DENSO TEN (THAILAND)                                                                                                                                            *G         20191017 IMCT                IMCT                                                                                                                    WMF1910173.TXT
MAKK9O080371201910D3               89828070200P3YK20191107000060SPEAKER ASM                   M IMCTM CM1    TNTH  09020IMKDC KA PTB  00005  K0                1431DES        000000000000 DENSO TEN (THAILAND)                                                                                                                                            *G         20191017 IMCT                IMCT                                                                                                                    WMF1910173.TXT
MAKK9O080372201910N3               89828070200P3YK20191108000030SPEAKER ASM                   M IMCTM CM1    TNTH  09020IMKDC KA PTB  00005  K0                0231NES        000000000000 DENSO TEN (THAILAND)                                                                                                                                            *G         20191017 IMCT                IMCT                                                                                                                    WMF1910173.TXT
MAKK9O080373201910D3               89828070200P3YK20191108000060SPEAKER ASM                   M IMCTM CM1    TNTH  09020IMKDC KA PTB  00005  K0                1431DES        000000000000 DENSO TEN (THAILAND)                                                                                                                                            *G         20191017 IMCT                IMCT                                                                                                                    WMF1910173.TXT
MAKK9O080374201910N3               89828070200P3YK20191109000030SPEAKER ASM                   M IMCTM CM1    TNTH  09020IMKDC KA PTB  00005  K0                0231NES        000000000000 DENSO TEN (THAILAND)                                                                                                                                            *G         20191017 IMCT                IMCT                                                                                                                    WMF1910173.TXT
MAKK9O080375201910D3               89828070200P3YK20191109000030SPEAKER ASM                   M IMCTM CM1    TNTH  09020IMKDC KA PTB  00005  K0                1431DES        000000000000 DENSO TEN (THAILAND)                                                                                                                                            *G         20191017 IMCT                IMCT                                                                                                                    WMF1910173.TXT
MAKK9O080376201910D3               89828070300P3YK20191104000030SPEAKER ASM                   M IMCTM CM1    TNTH  09020IMKDC KA PTB  00015  K0                1431DES        000000000000 DENSO TEN (THAILAND)                                                                                                                                            *G         20191017 IMCT                IMCT                                                                                                                    WMF1910173.TXT
MAKK9O080377201910D3               89828070300P3YK20191105000030SPEAKER ASM                   M IMCTM CM1    TNTH  09020IMKDC KA PTB  00015  K0                1431DES        000000000000 DENSO TEN (THAILAND)                                                                                                                                            *G         20191017 IMCT                IMCT                                                                                                                    WMF1910173.TXT
MAKK9O080378201910N3               89828070300P3YK20191106000060SPEAKER ASM                   M IMCTM CM1    TNTH  09020IMKDC KA PTB  00015  K0                0231NES        000000000000 DENSO TEN (THAILAND)                                                                                                                                            *G         20191017 IMCT                IMCT                                                                                                                    WMF1910173.TXT
MAKK9O080379201910N3               89828070300P3YK20191107000060SPEAKER ASM                   M IMCTM CM1    TNTH  09020IMKDC KA PTB  00015  K0                0231NES        000000000000 DENSO TEN (THAILAND)                                                                                                                                            *G         20191017 IMCT                IMCT                                                                                                                    WMF1910173.TXT
MAKK9O080380201910D3               89828070300P3YK20191107000060SPEAKER ASM                   M IMCTM CM1    TNTH  09020IMKDC KA PTB  00015  K0                1431DES        000000000000 DENSO TEN (THAILAND)                                                                                                                                            *G         20191017 IMCT                IMCT                                                                                                                    WMF1910173.TXT
MAKK9O080381201910N3               89828070300P3YK20191108000060SPEAKER ASM                   M IMCTM CM1    TNTH  09020IMKDC KA PTB  00015  K0                0231NES        000000000000 DENSO TEN (THAILAND)                                                                                                                                            *G         20191017 IMCT                IMCT                                                                                                                    WMF1910173.TXT
MAKK9O080382201910D3               89828070300P3YK20191108000060SPEAKER ASM                   M IMCTM CM1    TNTH  09020IMKDC KA PTB  00015  K0                1431DES        000000000000 DENSO TEN (THAILAND)                                                                                                                                            *G         20191017 IMCT                IMCT                                                                                                                    WMF1910173.TXT
MAKK9O080383201910N3               89828070300P3YK20191109000030SPEAKER ASM                   M IMCTM CM1    TNTH  09020IMKDC KA PTB  00015  K0                0231NES        000000000000 DENSO TEN (THAILAND)                                                                                                                                            *G         20191017 IMCT                IMCT                                                                                                                    WMF1910173.TXT
MAKK9O080384201910D3               89828070300P3YK20191109000060SPEAKER ASM                   M IMCTM CM1    TNTH  09020IMKDC KA PTB  00015  K0                1431DES        000000000000 DENSO TEN (THAILAND)                                                                                                                                            *G         20191017 IMCT                IMCT                                                                                                                    WMF1910173.TXT
MAKK9O080385201910N3               89828070300P3YK20191110000030SPEAKER ASM                   M IMCTM CM1    TNTH  09020IMKDC KA PTB  00015  K0                0231NES        000000000000 DENSO TEN (THAILAND)                                                                                                                                            *G         20191017 IMCT                IMCT                                                                                                                    WMF1910173.TXT
MAKK9O080386201910N3               89831228410P3YK20191106000015RADIO;AM/FM,CD                M IMCTM CM1    TNTH  09020IMKDC KA   CPB00003  K0                0231NES        000000000000 DENSO TEN (THAILAND)                                                                                                                                            *G         20191017 IMCT                IMCT                                                                                                                    WMF1910173.TXT
MAKK9O080387201910D3               89831228410P3YK20191106000015RADIO;AM/FM,CD                M IMCTM CM1    TNTH  09020IMKDC KA   CPB00003  K0                1431DES        000000000000 DENSO TEN (THAILAND)                                                                                                                                            *G         20191017 IMCT                IMCT                                                                                                                    WMF1910173.TXT
MAKK9O087843201910D3               89828070100P3YK20191105000030SPEAKER ASM                   M IMCTM PK3    TNTH  09020IMKDC KA PTB  00004  K0                1431DES        000000000000 DENSO TEN (THAILAND)                                                                                                                                            *G         20191017 IMCT                IMCT                                                                                                                    WMF1910173.TXT
MAKK9O087844201910D3               89828070200P3YK20191105000030SPEAKER ASM                   M IMCTM PK3    TNTH  09020IMKDC KA PTB  00005  K0                1431DES        000000000000 DENSO TEN (THAILAND)                                                                                                                                            *G         20191017 IMCT                IMCT                                                                                                                    WMF1910173.TXT
