REC2019110620191106ISUZU                              4      
MECKKN800591000000          IMKDC  89825451200P3YK20191118000002SPEAKER ASM;ROOF              M IMCTM IMKDC  TNTH  09020IMKDC KI*PTB  00036    K293K7800   001 0000 ES        000000000000 DENSO TEN (THAILAND)                                                                                                                                            *G         20191106 IMCT                IMCT                                                                                                                    WMF1911065.TXT
MECKKN800592000000          IMKDC  89828070100P3YK20191118000002SPEAKER ASM                   M IMCTM IMKDC  TNTH  09020IMKDC KI*PTB  00004    K293K7800   001 0000 ES        000000000000 DENSO TEN (THAILAND)                                                                                                                                            *G         20191106 IMCT                IMCT                                                                                                                    WMF1911065.TXT
MECKKN800593000000          IMKDC  89828070200P3YK20191118000002SPEAKER ASM                   M IMCTM IMKDC  TNTH  09020IMKDC KI*PTB  00005    K293K7800   001 0000 ES        000000000000 DENSO TEN (THAILAND)                                                                                                                                            *G         20191106 IMCT                IMCT                                                                                                                    WMF1911065.TXT
MECKKN800594000000          IMKDC  89828070300P3YK20191118000002SPEAKER ASM                   M IMCTM IMKDC  TNTH  09020IMKDC KI*PTB  00015    K293K7800   001 0000 ES        000000000000 DENSO TEN (THAILAND)                                                                                                                                            *G         20191106 IMCT                IMCT                                                                                                                    WMF1911065.TXT
