REC2019111420191114ISUZU                              36     
MAKK9N103172201911N3               89825451200P3YK20191126000030SPEAKER ASM;ROOF              M IMCTM CM1    TNTH  09020IMKDC KA PTB  00036  K0                0231NES        000000000000 DENSO TEN (THAILAND)                                                                                                                                            *G         20191114 IMCT                IMCT                                                                                                                    WMF1911147.TXT
MAKK9N103173201911N3               89825451200P3YK20191127000030SPEAKER ASM;ROOF              M IMCTM CM1    TNTH  09020IMKDC KA PTB  00036  K0                0231NES        000000000000 DENSO TEN (THAILAND)                                                                                                                                            *G         20191114 IMCT                IMCT                                                                                                                    WMF1911147.TXT
MAKK9N103174201911N3               89825451200P3YK20191128000030SPEAKER ASM;ROOF              M IMCTM CM1    TNTH  09020IMKDC KA PTB  00036  K0                0231NES        000000000000 DENSO TEN (THAILAND)                                                                                                                                            *G         20191114 IMCT                IMCT                                                                                                                    WMF1911147.TXT
MAKK9N103175201911N3               89825451200P3YK20191130000030SPEAKER ASM;ROOF              M IMCTM CM1    TNTH  09020IMKDC KA PTB  00036  K0                0231NES        000000000000 DENSO TEN (THAILAND)                                                                                                                                            *G         20191114 IMCT                IMCT                                                                                                                    WMF1911147.TXT
MAKK9N103176201911D3               89828070100P3YK20191125000120SPEAKER ASM                   M IMCTM CM1    TNTH  09020IMKDC KA PTB  00004  K0                1431DES        000000000000 DENSO TEN (THAILAND)                                                                                                                                            *G         20191114 IMCT                IMCT                                                                                                                    WMF1911147.TXT
MAKK9N103177201911N3               89828070100P3YK20191126000150SPEAKER ASM                   M IMCTM CM1    TNTH  09020IMKDC KA PTB  00004  K0                0231NES        000000000000 DENSO TEN (THAILAND)                                                                                                                                            *G         20191114 IMCT                IMCT                                                                                                                    WMF1911147.TXT
MAKK9N103178201911D3               89828070100P3YK20191126000180SPEAKER ASM                   M IMCTM CM1    TNTH  09020IMKDC KA PTB  00004  K0                1431DES        000000000000 DENSO TEN (THAILAND)                                                                                                                                            *G         20191114 IMCT                IMCT                                                                                                                    WMF1911147.TXT
MAKK9N103179201911N3               89828070100P3YK20191127000150SPEAKER ASM                   M IMCTM CM1    TNTH  09020IMKDC KA PTB  00004  K0                0231NES        000000000000 DENSO TEN (THAILAND)                                                                                                                                            *G         20191114 IMCT                IMCT                                                                                                                    WMF1911147.TXT
MAKK9N103180201911D3               89828070100P3YK20191127000150SPEAKER ASM                   M IMCTM CM1    TNTH  09020IMKDC KA PTB  00004  K0                1431DES        000000000000 DENSO TEN (THAILAND)                                                                                                                                            *G         20191114 IMCT                IMCT                                                                                                                    WMF1911147.TXT
MAKK9N103181201911N3               89828070100P3YK20191128000120SPEAKER ASM                   M IMCTM CM1    TNTH  09020IMKDC KA PTB  00004  K0                0231NES        000000000000 DENSO TEN (THAILAND)                                                                                                                                            *G         20191114 IMCT                IMCT                                                                                                                    WMF1911147.TXT
MAKK9N103182201911D3               89828070100P3YK20191128000150SPEAKER ASM                   M IMCTM CM1    TNTH  09020IMKDC KA PTB  00004  K0                1431DES        000000000000 DENSO TEN (THAILAND)                                                                                                                                            *G         20191114 IMCT                IMCT                                                                                                                    WMF1911147.TXT
MAKK9N103183201911N3               89828070100P3YK20191129000120SPEAKER ASM                   M IMCTM CM1    TNTH  09020IMKDC KA PTB  00004  K0                0231NES        000000000000 DENSO TEN (THAILAND)                                                                                                                                            *G         20191114 IMCT                IMCT                                                                                                                    WMF1911147.TXT
MAKK9N103184201911D3               89828070100P3YK20191129000180SPEAKER ASM                   M IMCTM CM1    TNTH  09020IMKDC KA PTB  00004  K0                1431DES        000000000000 DENSO TEN (THAILAND)                                                                                                                                            *G         20191114 IMCT                IMCT                                                                                                                    WMF1911147.TXT
MAKK9N103185201911N3               89828070100P3YK20191130000120SPEAKER ASM                   M IMCTM CM1    TNTH  09020IMKDC KA PTB  00004  K0                0231NES        000000000000 DENSO TEN (THAILAND)                                                                                                                                            *G         20191114 IMCT                IMCT                                                                                                                    WMF1911147.TXT
MAKK9N103186201911D3               89828070200P3YK20191125000030SPEAKER ASM                   M IMCTM CM1    TNTH  09020IMKDC KA PTB  00005  K0                1431DES        000000000000 DENSO TEN (THAILAND)                                                                                                                                            *G         20191114 IMCT                IMCT                                                                                                                    WMF1911147.TXT
MAKK9N103187201911N3               89828070200P3YK20191126000060SPEAKER ASM                   M IMCTM CM1    TNTH  09020IMKDC KA PTB  00005  K0                0231NES        000000000000 DENSO TEN (THAILAND)                                                                                                                                            *G         20191114 IMCT                IMCT                                                                                                                    WMF1911147.TXT
MAKK9N103188201911D3               89828070200P3YK20191126000060SPEAKER ASM                   M IMCTM CM1    TNTH  09020IMKDC KA PTB  00005  K0                1431DES        000000000000 DENSO TEN (THAILAND)                                                                                                                                            *G         20191114 IMCT                IMCT                                                                                                                    WMF1911147.TXT
MAKK9N103189201911N3               89828070200P3YK20191127000060SPEAKER ASM                   M IMCTM CM1    TNTH  09020IMKDC KA PTB  00005  K0                0231NES        000000000000 DENSO TEN (THAILAND)                                                                                                                                            *G         20191114 IMCT                IMCT                                                                                                                    WMF1911147.TXT
MAKK9N103190201911D3               89828070200P3YK20191127000060SPEAKER ASM                   M IMCTM CM1    TNTH  09020IMKDC KA PTB  00005  K0                1431DES        000000000000 DENSO TEN (THAILAND)                                                                                                                                            *G         20191114 IMCT                IMCT                                                                                                                    WMF1911147.TXT
MAKK9N103191201911N3               89828070200P3YK20191128000030SPEAKER ASM                   M IMCTM CM1    TNTH  09020IMKDC KA PTB  00005  K0                0231NES        000000000000 DENSO TEN (THAILAND)                                                                                                                                            *G         20191114 IMCT                IMCT                                                                                                                    WMF1911147.TXT
MAKK9N103192201911D3               89828070200P3YK20191128000060SPEAKER ASM                   M IMCTM CM1    TNTH  09020IMKDC KA PTB  00005  K0                1431DES        000000000000 DENSO TEN (THAILAND)                                                                                                                                            *G         20191114 IMCT                IMCT                                                                                                                    WMF1911147.TXT
MAKK9N103193201911N3               89828070200P3YK20191129000060SPEAKER ASM                   M IMCTM CM1    TNTH  09020IMKDC KA PTB  00005  K0                0231NES        000000000000 DENSO TEN (THAILAND)                                                                                                                                            *G         20191114 IMCT                IMCT                                                                                                                    WMF1911147.TXT
MAKK9N103194201911D3               89828070200P3YK20191129000060SPEAKER ASM                   M IMCTM CM1    TNTH  09020IMKDC KA PTB  00005  K0                1431DES        000000000000 DENSO TEN (THAILAND)                                                                                                                                            *G         20191114 IMCT                IMCT                                                                                                                    WMF1911147.TXT
MAKK9N103195201911D3               89828070300P3YK20191125000030SPEAKER ASM                   M IMCTM CM1    TNTH  09020IMKDC KA PTB  00015  K0                1431DES        000000000000 DENSO TEN (THAILAND)                                                                                                                                            *G         20191114 IMCT                IMCT                                                                                                                    WMF1911147.TXT
MAKK9N103196201911N3               89828070300P3YK20191126000090SPEAKER ASM                   M IMCTM CM1    TNTH  09020IMKDC KA PTB  00015  K0                0231NES        000000000000 DENSO TEN (THAILAND)                                                                                                                                            *G         20191114 IMCT                IMCT                                                                                                                    WMF1911147.TXT
MAKK9N103197201911D3               89828070300P3YK20191126000060SPEAKER ASM                   M IMCTM CM1    TNTH  09020IMKDC KA PTB  00015  K0                1431DES        000000000000 DENSO TEN (THAILAND)                                                                                                                                            *G         20191114 IMCT                IMCT                                                                                                                    WMF1911147.TXT
MAKK9N103198201911N3               89828070300P3YK20191127000060SPEAKER ASM                   M IMCTM CM1    TNTH  09020IMKDC KA PTB  00015  K0                0231NES        000000000000 DENSO TEN (THAILAND)                                                                                                                                            *G         20191114 IMCT                IMCT                                                                                                                    WMF1911147.TXT
MAKK9N103199201911D3               89828070300P3YK20191127000060SPEAKER ASM                   M IMCTM CM1    TNTH  09020IMKDC KA PTB  00015  K0                1431DES        000000000000 DENSO TEN (THAILAND)                                                                                                                                            *G         20191114 IMCT                IMCT                                                                                                                    WMF1911147.TXT
MAKK9N103200201911N3               89828070300P3YK20191128000060SPEAKER ASM                   M IMCTM CM1    TNTH  09020IMKDC KA PTB  00015  K0                0231NES        000000000000 DENSO TEN (THAILAND)                                                                                                                                            *G         20191114 IMCT                IMCT                                                                                                                    WMF1911147.TXT
MAKK9N103201201911D3               89828070300P3YK20191128000090SPEAKER ASM                   M IMCTM CM1    TNTH  09020IMKDC KA PTB  00015  K0                1431DES        000000000000 DENSO TEN (THAILAND)                                                                                                                                            *G         20191114 IMCT                IMCT                                                                                                                    WMF1911147.TXT
MAKK9N103202201911N3               89828070300P3YK20191129000090SPEAKER ASM                   M IMCTM CM1    TNTH  09020IMKDC KA PTB  00015  K0                0231NES        000000000000 DENSO TEN (THAILAND)                                                                                                                                            *G         20191114 IMCT                IMCT                                                                                                                    WMF1911147.TXT
MAKK9N103203201911D3               89828070300P3YK20191129000060SPEAKER ASM                   M IMCTM CM1    TNTH  09020IMKDC KA PTB  00015  K0                1431DES        000000000000 DENSO TEN (THAILAND)                                                                                                                                            *G         20191114 IMCT                IMCT                                                                                                                    WMF1911147.TXT
MAKK9N103204201911N3               89828070300P3YK20191130000060SPEAKER ASM                   M IMCTM CM1    TNTH  09020IMKDC KA PTB  00015  K0                0231NES        000000000000 DENSO TEN (THAILAND)                                                                                                                                            *G         20191114 IMCT                IMCT                                                                                                                    WMF1911147.TXT
MAKK9N103205201911D3               89831228410P3YK20191127000015RADIO;AM/FM,CD                M IMCTM CM1    TNTH  09020IMKDC KA   CPB00003  K0                1431DES        000000000000 DENSO TEN (THAILAND)                                                                                                                                            *G         20191114 IMCT                IMCT                                                                                                                    WMF1911147.TXT
MAKK9N109518201911D3               89828070100P3YK20191126000030SPEAKER ASM                   M IMCTM PK3    TNTH  09020IMKDC KA PTB  00004  K0                1431DES        000000000000 DENSO TEN (THAILAND)                                                                                                                                            *G         20191114 IMCT                IMCT                                                                                                                    WMF1911147.TXT
MAKK9N109519201911D3               89828070200P3YK20191126000030SPEAKER ASM                   M IMCTM PK3    TNTH  09020IMKDC KA PTB  00005  K0                1431DES        000000000000 DENSO TEN (THAILAND)                                                                                                                                            *G         20191114 IMCT                IMCT                                                                                                                    WMF1911147.TXT
