REC2019111920191119ISUZU                              7      
MDEFKNT13962201911                D89828070100PV4F20191122000026SPEAKER ASM                   M IMCTM S7FL05 TNTH  09020IMCT  S7 PTB  00004                    2230 SR        000000000000 DENSO TEN (THAILAND)190L53R0018   190D48R0060   D191104603    D191104615    000000                                                                              *R         20191119 IMCT                IMCT                                                                                                                    RMF1911195.TXT
MDEFKNT13963201911                D89828070200PV4F20191122000025SPEAKER ASM                   M IMCTM S7FL05 TNTH  09020IMCT  S7 PTB  00005                    2230 SR        000000000000 DENSO TEN (THAILAND)190L53R0018   190D48R0060   D191104603    D191104615    000000                                                                              *R         20191119 IMCT                IMCT                                                                                                                    RMF1911195.TXT
MDEFKNT13964201911                D89828070300PT4F20191122000015SPEAKER ASM                   M IMCTM S7TS02 TNTH  09020IMCT  S7 PTB  00015                    2230 SR        000000000000 DENSO TEN (THAILAND)190L55R0018   190D48R0060   D191104608    D191104615    000000                                                                              *R         20191119 IMCT                IMCT                                                                                                                    RMF1911195.TXT
MDEFKNT13965201911                D89831229020PT4F20191122000002RADIO;AM/FM,CD                M IMCTM S7U137 TNTH  09020IMCT  S7 PTB  00003                    2230 SR        000000000000 DENSO TEN (THAILAND)190D48R0059   190D48R0060   D191104614    D191104615    000000                                                                              *R         20191119 IMCT                IMCT                                                                                                                    RMF1911195.TXT
MDEFKN238485201911                D89828070100PV4F20191122000004SPEAKER ASM                   M IMCTM S7FL05 TNTH  09020IMCT  S7 PTB  00004                    2100 SR        000000000000 DENSO TEN (THAILAND)190L53R0016   190L53R0017   D191104601    D191104602    000000                                                                              *R         20191119 IMCT                IMCT                                                                                                                    RMF1911195.TXT
MDEFKN238486201911                D89828070200PV4F20191122000005SPEAKER ASM                   M IMCTM S7FL05 TNTH  09020IMCT  S7 PTB  00005                    2100 SR        000000000000 DENSO TEN (THAILAND)190L53R0016   190L53R0018   D191104601    D191104603    000000                                                                              *R         20191119 IMCT                IMCT                                                                                                                    RMF1911195.TXT
MDEFKN238487201911                D89828070300PT4F20191122000015SPEAKER ASM                   M IMCTM S7TS02 TNTH  09020IMCT  S7 PTB  00015                    2100 SR        000000000000 DENSO TEN (THAILAND)190L53R0016   190L55R0018   D191104601    D191104608    000000                                                                              *R         20191119 IMCT                IMCT                                                                                                                    RMF1911195.TXT
