REC2019111420191114ISUZU                              3      
MECKKN802326000000          IMKDC  89828070100P3YK20191203000008SPEAKER ASM                   M IMCTM IMKDC  TNTH  09020IMKDC KI*PTB  00004    K295C6990   001 0000 ES        000000000000 DENSO TEN (THAILAND)                                                                                                                                            *G         20191114 IMCT                IMCT                                                                                                                    WMF1911144.TXT
MECKKN802327000000          IMKDC  89828070200P3YK20191203000008SPEAKER ASM                   M IMCTM IMKDC  TNTH  09020IMKDC KI*PTB  00005    K295C6990   001 0000 ES        000000000000 DENSO TEN (THAILAND)                                                                                                                                            *G         20191114 IMCT                IMCT                                                                                                                    WMF1911144.TXT
MECKKN802328000000          IMKDC  89828070300P3YK20191203000008SPEAKER ASM                   M IMCTM IMKDC  TNTH  09020IMKDC KI*PTB  00015    K295C6990   001 0000 ES        000000000000 DENSO TEN (THAILAND)                                                                                                                                            *G         20191114 IMCT                IMCT                                                                                                                    WMF1911144.TXT
