REC2019121220191212ISUZU                              27     
MAKK9D075887201912D3               89825451200P3YK20191224000060SPEAKER ASM;ROOF              M IMCTM CM1    TNTH  09020IMKDC KA PTB  00036  K0                1431DES        000000000000 DENSO TEN (THAILAND)                                                                                                                                            *G         20191212 IMCT                IMCT                                                                                                                    WMF1912126.TXT
MAKK9D075888201912N3               89825451200P3YK20191225000030SPEAKER ASM;ROOF              M IMCTM CM1    TNTH  09020IMKDC KA PTB  00036  K0                0231NES        000000000000 DENSO TEN (THAILAND)                                                                                                                                            *G         20191212 IMCT                IMCT                                                                                                                    WMF1912126.TXT
MAKK9D075889201912D3               89828070100P3YK20191223000120SPEAKER ASM                   M IMCTM CM1    TNTH  09020IMKDC KA PTB  00004  K0                1431DES        000000000000 DENSO TEN (THAILAND)                                                                                                                                            *G         20191212 IMCT                IMCT                                                                                                                    WMF1912126.TXT
MAKK9D075890201912N3               89828070100P3YK20191224000150SPEAKER ASM                   M IMCTM CM1    TNTH  09020IMKDC KA PTB  00004  K0                0231NES        000000000000 DENSO TEN (THAILAND)                                                                                                                                            *G         20191212 IMCT                IMCT                                                                                                                    WMF1912126.TXT
MAKK9D075891201912D3               89828070100P3YK20191224000120SPEAKER ASM                   M IMCTM CM1    TNTH  09020IMKDC KA PTB  00004  K0                1431DES        000000000000 DENSO TEN (THAILAND)                                                                                                                                            *G         20191212 IMCT                IMCT                                                                                                                    WMF1912126.TXT
MAKK9D075892201912N3               89828070100P3YK20191225000120SPEAKER ASM                   M IMCTM CM1    TNTH  09020IMKDC KA PTB  00004  K0                0231NES        000000000000 DENSO TEN (THAILAND)                                                                                                                                            *G         20191212 IMCT                IMCT                                                                                                                    WMF1912126.TXT
MAKK9D075893201912D3               89828070100P3YK20191225000180SPEAKER ASM                   M IMCTM CM1    TNTH  09020IMKDC KA PTB  00004  K0                1431DES        000000000000 DENSO TEN (THAILAND)                                                                                                                                            *G         20191212 IMCT                IMCT                                                                                                                    WMF1912126.TXT
MAKK9D075894201912N3               89828070100P3YK20191226000150SPEAKER ASM                   M IMCTM CM1    TNTH  09020IMKDC KA PTB  00004  K0                0231NES        000000000000 DENSO TEN (THAILAND)                                                                                                                                            *G         20191212 IMCT                IMCT                                                                                                                    WMF1912126.TXT
MAKK9D075895201912D3               89828070100P3YK20191226000120SPEAKER ASM                   M IMCTM CM1    TNTH  09020IMKDC KA PTB  00004  K0                1431DES        000000000000 DENSO TEN (THAILAND)                                                                                                                                            *G         20191212 IMCT                IMCT                                                                                                                    WMF1912126.TXT
MAKK9D075896201912N3               89828070100P3YK20191227000030SPEAKER ASM                   M IMCTM CM1    TNTH  09020IMKDC KA PTB  00004  K0                0231NES        000000000000 DENSO TEN (THAILAND)                                                                                                                                            *G         20191212 IMCT                IMCT                                                                                                                    WMF1912126.TXT
MAKK9D075897201912D3               89828070100P3YK20191227000060SPEAKER ASM                   M IMCTM CM1    TNTH  09020IMKDC KA PTB  00004  K0                1431DES        000000000000 DENSO TEN (THAILAND)                                                                                                                                            *G         20191212 IMCT                IMCT                                                                                                                    WMF1912126.TXT
MAKK9D075898201912D3               89828070200P3YK20191223000030SPEAKER ASM                   M IMCTM CM1    TNTH  09020IMKDC KA PTB  00005  K0                1431DES        000000000000 DENSO TEN (THAILAND)                                                                                                                                            *G         20191212 IMCT                IMCT                                                                                                                    WMF1912126.TXT
MAKK9D075899201912N3               89828070200P3YK20191224000090SPEAKER ASM                   M IMCTM CM1    TNTH  09020IMKDC KA PTB  00005  K0                0231NES        000000000000 DENSO TEN (THAILAND)                                                                                                                                            *G         20191212 IMCT                IMCT                                                                                                                    WMF1912126.TXT
MAKK9D075900201912D3               89828070200P3YK20191224000090SPEAKER ASM                   M IMCTM CM1    TNTH  09020IMKDC KA PTB  00005  K0                1431DES        000000000000 DENSO TEN (THAILAND)                                                                                                                                            *G         20191212 IMCT                IMCT                                                                                                                    WMF1912126.TXT
MAKK9D075901201912N3               89828070200P3YK20191225000060SPEAKER ASM                   M IMCTM CM1    TNTH  09020IMKDC KA PTB  00005  K0                0231NES        000000000000 DENSO TEN (THAILAND)                                                                                                                                            *G         20191212 IMCT                IMCT                                                                                                                    WMF1912126.TXT
MAKK9D075902201912D3               89828070200P3YK20191225000060SPEAKER ASM                   M IMCTM CM1    TNTH  09020IMKDC KA PTB  00005  K0                1431DES        000000000000 DENSO TEN (THAILAND)                                                                                                                                            *G         20191212 IMCT                IMCT                                                                                                                    WMF1912126.TXT
MAKK9D075903201912N3               89828070200P3YK20191226000090SPEAKER ASM                   M IMCTM CM1    TNTH  09020IMKDC KA PTB  00005  K0                0231NES        000000000000 DENSO TEN (THAILAND)                                                                                                                                            *G         20191212 IMCT                IMCT                                                                                                                    WMF1912126.TXT
MAKK9D075904201912D3               89828070200P3YK20191226000030SPEAKER ASM                   M IMCTM CM1    TNTH  09020IMKDC KA PTB  00005  K0                1431DES        000000000000 DENSO TEN (THAILAND)                                                                                                                                            *G         20191212 IMCT                IMCT                                                                                                                    WMF1912126.TXT
MAKK9D075905201912D3               89828070200P3YK20191227000030SPEAKER ASM                   M IMCTM CM1    TNTH  09020IMKDC KA PTB  00005  K0                1431DES        000000000000 DENSO TEN (THAILAND)                                                                                                                                            *G         20191212 IMCT                IMCT                                                                                                                    WMF1912126.TXT
MAKK9D075906201912D3               89828070300P3YK20191223000030SPEAKER ASM                   M IMCTM CM1    TNTH  09020IMKDC KA PTB  00015  K0                1431DES        000000000000 DENSO TEN (THAILAND)                                                                                                                                            *G         20191212 IMCT                IMCT                                                                                                                    WMF1912126.TXT
MAKK9D075907201912N3               89828070300P3YK20191224000090SPEAKER ASM                   M IMCTM CM1    TNTH  09020IMKDC KA PTB  00015  K0                0231NES        000000000000 DENSO TEN (THAILAND)                                                                                                                                            *G         20191212 IMCT                IMCT                                                                                                                    WMF1912126.TXT
MAKK9D075908201912D3               89828070300P3YK20191224000120SPEAKER ASM                   M IMCTM CM1    TNTH  09020IMKDC KA PTB  00015  K0                1431DES        000000000000 DENSO TEN (THAILAND)                                                                                                                                            *G         20191212 IMCT                IMCT                                                                                                                    WMF1912126.TXT
MAKK9D075909201912N3               89828070300P3YK20191225000060SPEAKER ASM                   M IMCTM CM1    TNTH  09020IMKDC KA PTB  00015  K0                0231NES        000000000000 DENSO TEN (THAILAND)                                                                                                                                            *G         20191212 IMCT                IMCT                                                                                                                    WMF1912126.TXT
MAKK9D075910201912D3               89828070300P3YK20191225000090SPEAKER ASM                   M IMCTM CM1    TNTH  09020IMKDC KA PTB  00015  K0                1431DES        000000000000 DENSO TEN (THAILAND)                                                                                                                                            *G         20191212 IMCT                IMCT                                                                                                                    WMF1912126.TXT
MAKK9D075911201912N3               89828070300P3YK20191226000090SPEAKER ASM                   M IMCTM CM1    TNTH  09020IMKDC KA PTB  00015  K0                0231NES        000000000000 DENSO TEN (THAILAND)                                                                                                                                            *G         20191212 IMCT                IMCT                                                                                                                    WMF1912126.TXT
MAKK9D075912201912D3               89828070300P3YK20191226000060SPEAKER ASM                   M IMCTM CM1    TNTH  09020IMKDC KA PTB  00015  K0                1431DES        000000000000 DENSO TEN (THAILAND)                                                                                                                                            *G         20191212 IMCT                IMCT                                                                                                                    WMF1912126.TXT
MAKK9D075913201912D3               89828070300P3YK20191227000030SPEAKER ASM                   M IMCTM CM1    TNTH  09020IMKDC KA PTB  00015  K0                1431DES        000000000000 DENSO TEN (THAILAND)                                                                                                                                            *G         20191212 IMCT                IMCT                                                                                                                    WMF1912126.TXT
