REC2019120620191206ISUZU                              38     
MAKK9D052400201912D3               89825451200P3YK20191219000030SPEAKER ASM;ROOF              M IMCTM CM1    TNTH  09020IMKDC KA PTB  00036  K0                1431DES        000000000000 DENSO TEN (THAILAND)                                                                                                                                            *G         20191206 IMCT                IMCT                                                                                                                    WMF1912066.TXT
MAKK9D052401201912N3               89825451200P3YK20191220000030SPEAKER ASM;ROOF              M IMCTM CM1    TNTH  09020IMKDC KA PTB  00036  K0                0231NES        000000000000 DENSO TEN (THAILAND)                                                                                                                                            *G         20191206 IMCT                IMCT                                                                                                                    WMF1912066.TXT
MAKK9D052402201912D3               89825451200P3YK20191220000030SPEAKER ASM;ROOF              M IMCTM CM1    TNTH  09020IMKDC KA PTB  00036  K0                1431DES        000000000000 DENSO TEN (THAILAND)                                                                                                                                            *G         20191206 IMCT                IMCT                                                                                                                    WMF1912066.TXT
MAKK9D052403201912D3               89828070100P3YK20191216000060SPEAKER ASM                   M IMCTM CM1    TNTH  09020IMKDC KA PTB  00004  K0                1431DES        000000000000 DENSO TEN (THAILAND)                                                                                                                                            *G         20191206 IMCT                IMCT                                                                                                                    WMF1912066.TXT
MAKK9D052404201912N3               89828070100P3YK20191217000150SPEAKER ASM                   M IMCTM CM1    TNTH  09020IMKDC KA PTB  00004  K0                0231NES        000000000000 DENSO TEN (THAILAND)                                                                                                                                            *G         20191206 IMCT                IMCT                                                                                                                    WMF1912066.TXT
MAKK9D052405201912D3               89828070100P3YK20191217000120SPEAKER ASM                   M IMCTM CM1    TNTH  09020IMKDC KA PTB  00004  K0                1431DES        000000000000 DENSO TEN (THAILAND)                                                                                                                                            *G         20191206 IMCT                IMCT                                                                                                                    WMF1912066.TXT
MAKK9D052406201912N3               89828070100P3YK20191218000090SPEAKER ASM                   M IMCTM CM1    TNTH  09020IMKDC KA PTB  00004  K0                0231NES        000000000000 DENSO TEN (THAILAND)                                                                                                                                            *G         20191206 IMCT                IMCT                                                                                                                    WMF1912066.TXT
MAKK9D052407201912D3               89828070100P3YK20191218000120SPEAKER ASM                   M IMCTM CM1    TNTH  09020IMKDC KA PTB  00004  K0                1431DES        000000000000 DENSO TEN (THAILAND)                                                                                                                                            *G         20191206 IMCT                IMCT                                                                                                                    WMF1912066.TXT
MAKK9D052408201912N3               89828070100P3YK20191219000120SPEAKER ASM                   M IMCTM CM1    TNTH  09020IMKDC KA PTB  00004  K0                0231NES        000000000000 DENSO TEN (THAILAND)                                                                                                                                            *G         20191206 IMCT                IMCT                                                                                                                    WMF1912066.TXT
MAKK9D052409201912D3               89828070100P3YK20191219000150SPEAKER ASM                   M IMCTM CM1    TNTH  09020IMKDC KA PTB  00004  K0                1431DES        000000000000 DENSO TEN (THAILAND)                                                                                                                                            *G         20191206 IMCT                IMCT                                                                                                                    WMF1912066.TXT
MAKK9D052410201912N3               89828070100P3YK20191220000120SPEAKER ASM                   M IMCTM CM1    TNTH  09020IMKDC KA PTB  00004  K0                0231NES        000000000000 DENSO TEN (THAILAND)                                                                                                                                            *G         20191206 IMCT                IMCT                                                                                                                    WMF1912066.TXT
MAKK9D052411201912D3               89828070100P3YK20191220000150SPEAKER ASM                   M IMCTM CM1    TNTH  09020IMKDC KA PTB  00004  K0                1431DES        000000000000 DENSO TEN (THAILAND)                                                                                                                                            *G         20191206 IMCT                IMCT                                                                                                                    WMF1912066.TXT
MAKK9D052412201912N3               89828070100P3YK20191221000180SPEAKER ASM                   M IMCTM CM1    TNTH  09020IMKDC KA PTB  00004  K0                0231NES        000000000000 DENSO TEN (THAILAND)                                                                                                                                            *G         20191206 IMCT                IMCT                                                                                                                    WMF1912066.TXT
MAKK9D052413201912D3               89828070100P3YK20191221000120SPEAKER ASM                   M IMCTM CM1    TNTH  09020IMKDC KA PTB  00004  K0                1431DES        000000000000 DENSO TEN (THAILAND)                                                                                                                                            *G         20191206 IMCT                IMCT                                                                                                                    WMF1912066.TXT
MAKK9D052414201912N3               89828070100P3YK20191222000120SPEAKER ASM                   M IMCTM CM1    TNTH  09020IMKDC KA PTB  00004  K0                0231NES        000000000000 DENSO TEN (THAILAND)                                                                                                                                            *G         20191206 IMCT                IMCT                                                                                                                    WMF1912066.TXT
MAKK9D052415201912D3               89828070200P3YK20191216000030SPEAKER ASM                   M IMCTM CM1    TNTH  09020IMKDC KA PTB  00005  K0                1431DES        000000000000 DENSO TEN (THAILAND)                                                                                                                                            *G         20191206 IMCT                IMCT                                                                                                                    WMF1912066.TXT
MAKK9D052416201912N3               89828070200P3YK20191217000030SPEAKER ASM                   M IMCTM CM1    TNTH  09020IMKDC KA PTB  00005  K0                0231NES        000000000000 DENSO TEN (THAILAND)                                                                                                                                            *G         20191206 IMCT                IMCT                                                                                                                    WMF1912066.TXT
MAKK9D052417201912D3               89828070200P3YK20191217000030SPEAKER ASM                   M IMCTM CM1    TNTH  09020IMKDC KA PTB  00005  K0                1431DES        000000000000 DENSO TEN (THAILAND)                                                                                                                                            *G         20191206 IMCT                IMCT                                                                                                                    WMF1912066.TXT
MAKK9D052418201912D3               89828070200P3YK20191218000060SPEAKER ASM                   M IMCTM CM1    TNTH  09020IMKDC KA PTB  00005  K0                1431DES        000000000000 DENSO TEN (THAILAND)                                                                                                                                            *G         20191206 IMCT                IMCT                                                                                                                    WMF1912066.TXT
MAKK9D052419201912N3               89828070200P3YK20191219000060SPEAKER ASM                   M IMCTM CM1    TNTH  09020IMKDC KA PTB  00005  K0                0231NES        000000000000 DENSO TEN (THAILAND)                                                                                                                                            *G         20191206 IMCT                IMCT                                                                                                                    WMF1912066.TXT
MAKK9D052420201912D3               89828070200P3YK20191219000090SPEAKER ASM                   M IMCTM CM1    TNTH  09020IMKDC KA PTB  00005  K0                1431DES        000000000000 DENSO TEN (THAILAND)                                                                                                                                            *G         20191206 IMCT                IMCT                                                                                                                    WMF1912066.TXT
MAKK9D052421201912N3               89828070200P3YK20191220000060SPEAKER ASM                   M IMCTM CM1    TNTH  09020IMKDC KA PTB  00005  K0                0231NES        000000000000 DENSO TEN (THAILAND)                                                                                                                                            *G         20191206 IMCT                IMCT                                                                                                                    WMF1912066.TXT
MAKK9D052422201912D3               89828070200P3YK20191220000090SPEAKER ASM                   M IMCTM CM1    TNTH  09020IMKDC KA PTB  00005  K0                1431DES        000000000000 DENSO TEN (THAILAND)                                                                                                                                            *G         20191206 IMCT                IMCT                                                                                                                    WMF1912066.TXT
MAKK9D052423201912N3               89828070200P3YK20191222000030SPEAKER ASM                   M IMCTM CM1    TNTH  09020IMKDC KA PTB  00005  K0                0231NES        000000000000 DENSO TEN (THAILAND)                                                                                                                                            *G         20191206 IMCT                IMCT                                                                                                                    WMF1912066.TXT
MAKK9D052424201912D3               89828070300P3YK20191216000030SPEAKER ASM                   M IMCTM CM1    TNTH  09020IMKDC KA PTB  00015  K0                1431DES        000000000000 DENSO TEN (THAILAND)                                                                                                                                            *G         20191206 IMCT                IMCT                                                                                                                    WMF1912066.TXT
MAKK9D052425201912N3               89828070300P3YK20191217000030SPEAKER ASM                   M IMCTM CM1    TNTH  09020IMKDC KA PTB  00015  K0                0231NES        000000000000 DENSO TEN (THAILAND)                                                                                                                                            *G         20191206 IMCT                IMCT                                                                                                                    WMF1912066.TXT
MAKK9D052426201912D3               89828070300P3YK20191217000060SPEAKER ASM                   M IMCTM CM1    TNTH  09020IMKDC KA PTB  00015  K0                1431DES        000000000000 DENSO TEN (THAILAND)                                                                                                                                            *G         20191206 IMCT                IMCT                                                                                                                    WMF1912066.TXT
MAKK9D052427201912N3               89828070300P3YK20191218000030SPEAKER ASM                   M IMCTM CM1    TNTH  09020IMKDC KA PTB  00015  K0                0231NES        000000000000 DENSO TEN (THAILAND)                                                                                                                                            *G         20191206 IMCT                IMCT                                                                                                                    WMF1912066.TXT
MAKK9D052428201912D3               89828070300P3YK20191218000060SPEAKER ASM                   M IMCTM CM1    TNTH  09020IMKDC KA PTB  00015  K0                1431DES        000000000000 DENSO TEN (THAILAND)                                                                                                                                            *G         20191206 IMCT                IMCT                                                                                                                    WMF1912066.TXT
MAKK9D052429201912N3               89828070300P3YK20191219000060SPEAKER ASM                   M IMCTM CM1    TNTH  09020IMKDC KA PTB  00015  K0                0231NES        000000000000 DENSO TEN (THAILAND)                                                                                                                                            *G         20191206 IMCT                IMCT                                                                                                                    WMF1912066.TXT
MAKK9D052430201912D3               89828070300P3YK20191219000090SPEAKER ASM                   M IMCTM CM1    TNTH  09020IMKDC KA PTB  00015  K0                1431DES        000000000000 DENSO TEN (THAILAND)                                                                                                                                            *G         20191206 IMCT                IMCT                                                                                                                    WMF1912066.TXT
MAKK9D052431201912N3               89828070300P3YK20191220000090SPEAKER ASM                   M IMCTM CM1    TNTH  09020IMKDC KA PTB  00015  K0                0231NES        000000000000 DENSO TEN (THAILAND)                                                                                                                                            *G         20191206 IMCT                IMCT                                                                                                                    WMF1912066.TXT
MAKK9D052432201912D3               89828070300P3YK20191220000090SPEAKER ASM                   M IMCTM CM1    TNTH  09020IMKDC KA PTB  00015  K0                1431DES        000000000000 DENSO TEN (THAILAND)                                                                                                                                            *G         20191206 IMCT                IMCT                                                                                                                    WMF1912066.TXT
MAKK9D052433201912N3               89828070300P3YK20191221000060SPEAKER ASM                   M IMCTM CM1    TNTH  09020IMKDC KA PTB  00015  K0                0231NES        000000000000 DENSO TEN (THAILAND)                                                                                                                                            *G         20191206 IMCT                IMCT                                                                                                                    WMF1912066.TXT
MAKK9D052434201912D3               89828070300P3YK20191221000030SPEAKER ASM                   M IMCTM CM1    TNTH  09020IMKDC KA PTB  00015  K0                1431DES        000000000000 DENSO TEN (THAILAND)                                                                                                                                            *G         20191206 IMCT                IMCT                                                                                                                    WMF1912066.TXT
MAKK9D052435201912N3               89828070300P3YK20191222000030SPEAKER ASM                   M IMCTM CM1    TNTH  09020IMKDC KA PTB  00015  K0                0231NES        000000000000 DENSO TEN (THAILAND)                                                                                                                                            *G         20191206 IMCT                IMCT                                                                                                                    WMF1912066.TXT
MAKK9D052436201912D3               89831228410P3YK20191217000015RADIO;AM/FM,CD                M IMCTM CM1    TNTH  09020IMKDC KA   CPB00003  K0                1431DES        000000000000 DENSO TEN (THAILAND)                                                                                                                                            *G         20191206 IMCT                IMCT                                                                                                                    WMF1912066.TXT
MAKK9D052437201912N3               89831228410P3YK20191218000015RADIO;AM/FM,CD                M IMCTM CM1    TNTH  09020IMKDC KA   CPB00003  K0                0231NES        000000000000 DENSO TEN (THAILAND)                                                                                                                                            *G         20191206 IMCT                IMCT                                                                                                                    WMF1912066.TXT
