REC2019122320191223ISUZU                              3      
MDEFKDT16438201912                D89828070100PV4F20191227000012SPEAKER ASM                   M IMCTM S7FL05 TNTH  09020IMCT  S7 PTB  00004                    1030 SR        000000000000 DENSO TEN (THAILAND)190J81R0090   190J87R0012   R191205210    R191205215    000000                                                                              *R         20191223 IMCT                IMCT                                                                                                                    RMF1912234.TXT
MDEFKD244823201912                D89828070100PV4F20191226000032SPEAKER ASM                   M IMCTM S7FL05 TNTH  09020IMCT  S7 PTB  00004                    2230 SR        000000000000 DENSO TEN (THAILAND)190K09R0090   190J81R0081   S191205101    R191205201    000000                                                                              *R         20191223 IMCT                IMCT                                                                                                                    RMF1912234.TXT
MDEFKD244824201912                D89828070100PV4F20191227000016SPEAKER ASM                   M IMCTM S7FL05 TNTH  09020IMCT  S7 PTB  00004                    0830 SR        000000000000 DENSO TEN (THAILAND)190J81R0082   190J81R0089   R191205202    R191205209    000000                                                                              *R         20191223 IMCT                IMCT                                                                                                                    RMF1912234.TXT
