REC2019122620191226ISUZU                              39     
MAKK9D130817201912N3               89825451200P3YK20200114000030SPEAKER ASM;ROOF              M IMCTM CM1    TNTH  09020IMKDC KA PTB  00036  K0                0231NES        000000000000 DENSO TEN (THAILAND)                                                                                                                                            *G         20191226 IMCT                IMCT                                                                                                                    WMF1912268.TXT
MAKK9D130818201912N3               89825451200P3YK20200115000030SPEAKER ASM;ROOF              M IMCTM CM1    TNTH  09020IMKDC KA PTB  00036  K0                0231NES        000000000000 DENSO TEN (THAILAND)                                                                                                                                            *G         20191226 IMCT                IMCT                                                                                                                    WMF1912268.TXT
MAKK9D130819201912N3               89825451200P3YK20200116000030SPEAKER ASM;ROOF              M IMCTM CM1    TNTH  09020IMKDC KA PTB  00036  K0                0231NES        000000000000 DENSO TEN (THAILAND)                                                                                                                                            *G         20191226 IMCT                IMCT                                                                                                                    WMF1912268.TXT
MAKK9D130820201912N3               89825451200P3YK20200118000030SPEAKER ASM;ROOF              M IMCTM CM1    TNTH  09020IMKDC KA PTB  00036  K0                0231NES        000000000000 DENSO TEN (THAILAND)                                                                                                                                            *G         20191226 IMCT                IMCT                                                                                                                    WMF1912268.TXT
MAKK9D130821201912D3               89828070100P3YK20200113000120SPEAKER ASM                   M IMCTM CM1    TNTH  09020IMKDC KA PTB  00004  K0                1431DES        000000000000 DENSO TEN (THAILAND)                                                                                                                                            *G         20191226 IMCT                IMCT                                                                                                                    WMF1912268.TXT
MAKK9D130822201912N3               89828070100P3YK20200114000120SPEAKER ASM                   M IMCTM CM1    TNTH  09020IMKDC KA PTB  00004  K0                0231NES        000000000000 DENSO TEN (THAILAND)                                                                                                                                            *G         20191226 IMCT                IMCT                                                                                                                    WMF1912268.TXT
MAKK9D130823201912D3               89828070100P3YK20200114000120SPEAKER ASM                   M IMCTM CM1    TNTH  09020IMKDC KA PTB  00004  K0                1431DES        000000000000 DENSO TEN (THAILAND)                                                                                                                                            *G         20191226 IMCT                IMCT                                                                                                                    WMF1912268.TXT
MAKK9D130824201912N3               89828070100P3YK20200115000090SPEAKER ASM                   M IMCTM CM1    TNTH  09020IMKDC KA PTB  00004  K0                0231NES        000000000000 DENSO TEN (THAILAND)                                                                                                                                            *G         20191226 IMCT                IMCT                                                                                                                    WMF1912268.TXT
MAKK9D130825201912D3               89828070100P3YK20200115000090SPEAKER ASM                   M IMCTM CM1    TNTH  09020IMKDC KA PTB  00004  K0                1431DES        000000000000 DENSO TEN (THAILAND)                                                                                                                                            *G         20191226 IMCT                IMCT                                                                                                                    WMF1912268.TXT
MAKK9D130826201912N3               89828070100P3YK20200116000150SPEAKER ASM                   M IMCTM CM1    TNTH  09020IMKDC KA PTB  00004  K0                0231NES        000000000000 DENSO TEN (THAILAND)                                                                                                                                            *G         20191226 IMCT                IMCT                                                                                                                    WMF1912268.TXT
MAKK9D130827201912D3               89828070100P3YK20200116000090SPEAKER ASM                   M IMCTM CM1    TNTH  09020IMKDC KA PTB  00004  K0                1431DES        000000000000 DENSO TEN (THAILAND)                                                                                                                                            *G         20191226 IMCT                IMCT                                                                                                                    WMF1912268.TXT
MAKK9D130828201912N3               89828070100P3YK20200117000150SPEAKER ASM                   M IMCTM CM1    TNTH  09020IMKDC KA PTB  00004  K0                0231NES        000000000000 DENSO TEN (THAILAND)                                                                                                                                            *G         20191226 IMCT                IMCT                                                                                                                    WMF1912268.TXT
MAKK9D130829201912D3               89828070100P3YK20200117000090SPEAKER ASM                   M IMCTM CM1    TNTH  09020IMKDC KA PTB  00004  K0                1431DES        000000000000 DENSO TEN (THAILAND)                                                                                                                                            *G         20191226 IMCT                IMCT                                                                                                                    WMF1912268.TXT
MAKK9D130830201912N3               89828070100P3YK20200118000090SPEAKER ASM                   M IMCTM CM1    TNTH  09020IMKDC KA PTB  00004  K0                0231NES        000000000000 DENSO TEN (THAILAND)                                                                                                                                            *G         20191226 IMCT                IMCT                                                                                                                    WMF1912268.TXT
MAKK9D130831201912D3               89828070100P3YK20200118000150SPEAKER ASM                   M IMCTM CM1    TNTH  09020IMKDC KA PTB  00004  K0                1431DES        000000000000 DENSO TEN (THAILAND)                                                                                                                                            *G         20191226 IMCT                IMCT                                                                                                                    WMF1912268.TXT
MAKK9D130832201912N3               89828070100P3YK20200119000120SPEAKER ASM                   M IMCTM CM1    TNTH  09020IMKDC KA PTB  00004  K0                0231NES        000000000000 DENSO TEN (THAILAND)                                                                                                                                            *G         20191226 IMCT                IMCT                                                                                                                    WMF1912268.TXT
MAKK9D130833201912D3               89828070200P3YK20200113000030SPEAKER ASM                   M IMCTM CM1    TNTH  09020IMKDC KA PTB  00005  K0                1431DES        000000000000 DENSO TEN (THAILAND)                                                                                                                                            *G         20191226 IMCT                IMCT                                                                                                                    WMF1912268.TXT
MAKK9D130834201912N3               89828070200P3YK20200114000060SPEAKER ASM                   M IMCTM CM1    TNTH  09020IMKDC KA PTB  00005  K0                0231NES        000000000000 DENSO TEN (THAILAND)                                                                                                                                            *G         20191226 IMCT                IMCT                                                                                                                    WMF1912268.TXT
MAKK9D130835201912D3               89828070200P3YK20200114000060SPEAKER ASM                   M IMCTM CM1    TNTH  09020IMKDC KA PTB  00005  K0                1431DES        000000000000 DENSO TEN (THAILAND)                                                                                                                                            *G         20191226 IMCT                IMCT                                                                                                                    WMF1912268.TXT
MAKK9D130836201912N3               89828070200P3YK20200115000030SPEAKER ASM                   M IMCTM CM1    TNTH  09020IMKDC KA PTB  00005  K0                0231NES        000000000000 DENSO TEN (THAILAND)                                                                                                                                            *G         20191226 IMCT                IMCT                                                                                                                    WMF1912268.TXT
MAKK9D130837201912N3               89828070200P3YK20200116000030SPEAKER ASM                   M IMCTM CM1    TNTH  09020IMKDC KA PTB  00005  K0                0231NES        000000000000 DENSO TEN (THAILAND)                                                                                                                                            *G         20191226 IMCT                IMCT                                                                                                                    WMF1912268.TXT
MAKK9D130838201912D3               89828070200P3YK20200116000030SPEAKER ASM                   M IMCTM CM1    TNTH  09020IMKDC KA PTB  00005  K0                1431DES        000000000000 DENSO TEN (THAILAND)                                                                                                                                            *G         20191226 IMCT                IMCT                                                                                                                    WMF1912268.TXT
MAKK9D130839201912N3               89828070200P3YK20200117000060SPEAKER ASM                   M IMCTM CM1    TNTH  09020IMKDC KA PTB  00005  K0                0231NES        000000000000 DENSO TEN (THAILAND)                                                                                                                                            *G         20191226 IMCT                IMCT                                                                                                                    WMF1912268.TXT
MAKK9D130840201912D3               89828070200P3YK20200117000030SPEAKER ASM                   M IMCTM CM1    TNTH  09020IMKDC KA PTB  00005  K0                1431DES        000000000000 DENSO TEN (THAILAND)                                                                                                                                            *G         20191226 IMCT                IMCT                                                                                                                    WMF1912268.TXT
MAKK9D130841201912N3               89828070200P3YK20200118000030SPEAKER ASM                   M IMCTM CM1    TNTH  09020IMKDC KA PTB  00005  K0                0231NES        000000000000 DENSO TEN (THAILAND)                                                                                                                                            *G         20191226 IMCT                IMCT                                                                                                                    WMF1912268.TXT
MAKK9D130842201912D3               89828070200P3YK20200118000030SPEAKER ASM                   M IMCTM CM1    TNTH  09020IMKDC KA PTB  00005  K0                1431DES        000000000000 DENSO TEN (THAILAND)                                                                                                                                            *G         20191226 IMCT                IMCT                                                                                                                    WMF1912268.TXT
MAKK9D130843201912D3               89828070300P3YK20200113000030SPEAKER ASM                   M IMCTM CM1    TNTH  09020IMKDC KA PTB  00015  K0                1431DES        000000000000 DENSO TEN (THAILAND)                                                                                                                                            *G         20191226 IMCT                IMCT                                                                                                                    WMF1912268.TXT
MAKK9D130844201912N3               89828070300P3YK20200114000060SPEAKER ASM                   M IMCTM CM1    TNTH  09020IMKDC KA PTB  00015  K0                0231NES        000000000000 DENSO TEN (THAILAND)                                                                                                                                            *G         20191226 IMCT                IMCT                                                                                                                    WMF1912268.TXT
MAKK9D130845201912D3               89828070300P3YK20200114000090SPEAKER ASM                   M IMCTM CM1    TNTH  09020IMKDC KA PTB  00015  K0                1431DES        000000000000 DENSO TEN (THAILAND)                                                                                                                                            *G         20191226 IMCT                IMCT                                                                                                                    WMF1912268.TXT
MAKK9D130846201912N3               89828070300P3YK20200115000030SPEAKER ASM                   M IMCTM CM1    TNTH  09020IMKDC KA PTB  00015  K0                0231NES        000000000000 DENSO TEN (THAILAND)                                                                                                                                            *G         20191226 IMCT                IMCT                                                                                                                    WMF1912268.TXT
MAKK9D130847201912D3               89828070300P3YK20200115000030SPEAKER ASM                   M IMCTM CM1    TNTH  09020IMKDC KA PTB  00015  K0                1431DES        000000000000 DENSO TEN (THAILAND)                                                                                                                                            *G         20191226 IMCT                IMCT                                                                                                                    WMF1912268.TXT
MAKK9D130848201912N3               89828070300P3YK20200116000060SPEAKER ASM                   M IMCTM CM1    TNTH  09020IMKDC KA PTB  00015  K0                0231NES        000000000000 DENSO TEN (THAILAND)                                                                                                                                            *G         20191226 IMCT                IMCT                                                                                                                    WMF1912268.TXT
MAKK9D130849201912D3               89828070300P3YK20200116000030SPEAKER ASM                   M IMCTM CM1    TNTH  09020IMKDC KA PTB  00015  K0                1431DES        000000000000 DENSO TEN (THAILAND)                                                                                                                                            *G         20191226 IMCT                IMCT                                                                                                                    WMF1912268.TXT
MAKK9D130850201912N3               89828070300P3YK20200117000060SPEAKER ASM                   M IMCTM CM1    TNTH  09020IMKDC KA PTB  00015  K0                0231NES        000000000000 DENSO TEN (THAILAND)                                                                                                                                            *G         20191226 IMCT                IMCT                                                                                                                    WMF1912268.TXT
MAKK9D130851201912D3               89828070300P3YK20200117000060SPEAKER ASM                   M IMCTM CM1    TNTH  09020IMKDC KA PTB  00015  K0                1431DES        000000000000 DENSO TEN (THAILAND)                                                                                                                                            *G         20191226 IMCT                IMCT                                                                                                                    WMF1912268.TXT
MAKK9D130852201912N3               89828070300P3YK20200118000060SPEAKER ASM                   M IMCTM CM1    TNTH  09020IMKDC KA PTB  00015  K0                0231NES        000000000000 DENSO TEN (THAILAND)                                                                                                                                            *G         20191226 IMCT                IMCT                                                                                                                    WMF1912268.TXT
MAKK9D130853201912D3               89828070300P3YK20200118000060SPEAKER ASM                   M IMCTM CM1    TNTH  09020IMKDC KA PTB  00015  K0                1431DES        000000000000 DENSO TEN (THAILAND)                                                                                                                                            *G         20191226 IMCT                IMCT                                                                                                                    WMF1912268.TXT
MAKK9D130854201912D3               89831228410P3YK20200116000015RADIO;AM/FM,CD                M IMCTM CM1    TNTH  09020IMKDC KA   CPB00003  K0                1431DES        000000000000 DENSO TEN (THAILAND)                                                                                                                                            *G         20191226 IMCT                IMCT                                                                                                                    WMF1912268.TXT
MAKK9D130855201912D3               89831228410P3YK20200117000015RADIO;AM/FM,CD                M IMCTM CM1    TNTH  09020IMKDC KA   CPB00003  K0                1431DES        000000000000 DENSO TEN (THAILAND)                                                                                                                                            *G         20191226 IMCT                IMCT                                                                                                                    WMF1912268.TXT
