REC2019121720191217ISUZU                              10     
MDEFKDT11877201912                D89828070100PV4F20191223000026SPEAKER ASM                   M IMCTM S7FL05 TNTH  09020IMCT  S7 PTB  00004                    1300 SR        000000000000 DENSO TEN (THAILAND)190K07R0057   190K08R0101   S191203803    S191203815    000000                                                                              *R         20191217 IMCT                IMCT                                                                                                                    RMF1912176.TXT
MDEFKDT11878201912                D89828070200PV4F20191221000026SPEAKER ASM                   M IMCTM S7FL05 TNTH  09020IMCT  S7 PTB  00005                    1600 SR        000000000000 DENSO TEN (THAILAND)190J79R0048   190K21R0059   D191203703    D191203715    000000                                                                              *R         20191217 IMCT                IMCT                                                                                                                    RMF1912176.TXT
MDEFKDT11879201912                D89828070300PT4F20191221000021SPEAKER ASM                   M IMCTM S7TS02 TNTH  09020IMCT  S7 PTB  00015                    1600 SR        000000000000 DENSO TEN (THAILAND)190J79R0050   190K21R0059   D191203705    D191203715    000000                                                                              *R         20191217 IMCT                IMCT                                                                                                                    RMF1912176.TXT
MDEFKDT11880201912                D89838031200PT4F20191221000015RADIO;ASM DVD                 M IMCTM S7TS03 TNTH  09020IMCT  S7 PTB  00003                    1600 SR        000000000000 DENSO TEN (THAILAND)190J79R0046   190K21R0059   D191203701    D191203715    000000                                                                              *R         20191217 IMCT                IMCT                                                                                                                    RMF1912176.TXT
MDEFKD227974201912                D89828070100PV4F20191221000032SPEAKER ASM                   M IMCTM S7FL05 TNTH  09020IMCT  S7 PTB  00004                    1030 SR        000000000000 DENSO TEN (THAILAND)190K12R0087   190J79R0046   D191203601    D191203701    000000                                                                              *R         20191217 IMCT                IMCT                                                                                                                    RMF1912176.TXT
MDEFKD227975201912                D89828070100PV4F20191221000028SPEAKER ASM                   M IMCTM S7FL05 TNTH  09020IMCT  S7 PTB  00004                    1600 SR        000000000000 DENSO TEN (THAILAND)190J79R0047   190K21R0059   D191203702    D191203715    000000                                                                              *R         20191217 IMCT                IMCT                                                                                                                    RMF1912176.TXT
MDEFKD227976201912                D89828070100PV4F20191223000004SPEAKER ASM                   M IMCTM S7FL05 TNTH  09020IMCT  S7 PTB  00004                    1030 SR        000000000000 DENSO TEN (THAILAND)190K07R0055   190K07R0056   S191203801    S191203802    000000                                                                              *R         20191217 IMCT                IMCT                                                                                                                    RMF1912176.TXT
MDEFKD227977201912                D89828070200PV4F20191221000010SPEAKER ASM                   M IMCTM S7FL05 TNTH  09020IMCT  S7 PTB  00005                    1030 SR        000000000000 DENSO TEN (THAILAND)190K16R0101   190J79R0047   D191203613    D191203702    000000                                                                              *R         20191217 IMCT                IMCT                                                                                                                    RMF1912176.TXT
MDEFKD227978201912                D89828070300PT4F20191221000015SPEAKER ASM                   M IMCTM S7TS02 TNTH  09020IMCT  S7 PTB  00015                    1030 SR        000000000000 DENSO TEN (THAILAND)190K16R0101   190J79R0050   D191203613    D191203705    000000                                                                              *R         20191217 IMCT                IMCT                                                                                                                    RMF1912176.TXT
MDEFKD227979201912                D89838031200PT4F20191221000003RADIO;ASM DVD                 M IMCTM S7TS03 TNTH  09020IMCT  S7 PTB  00003                    1030 SR        000000000000 DENSO TEN (THAILAND)190K16R0101   190K16R0103   D191203613    D191203615    000000                                                                              *R         20191217 IMCT                IMCT                                                                                                                    RMF1912176.TXT
