REC2019121020191210ISUZU                              4      
MDEFKDT08719201912                D89828070100PV4F20191214000030SPEAKER ASM                   M IMCTM S7FL05 TNTH  09020IMCT  S7 PTB  00004                    0400 SR        000000000000 DENSO TEN (THAILAND)190F36R0065   190D84R0092   D191203001    D191203015    000000                                                                              *R         20191210 IMCT                IMCT                                                                                                                    RMF1912104.TXT
MDEFKDT08720201912                D89828070200PV4F20191214000012SPEAKER ASM                   M IMCTM S7FL05 TNTH  09020IMCT  S7 PTB  00005                    0400 SR        000000000000 DENSO TEN (THAILAND)190F36R0065   190D84R0092   D191203001    D191203015    000000                                                                              *R         20191210 IMCT                IMCT                                                                                                                    RMF1912104.TXT
MDEFKDT08721201912                D89828070300PT4F20191214000012SPEAKER ASM                   M IMCTM S7TS02 TNTH  09020IMCT  S7 PTB  00015                    0400 SR        000000000000 DENSO TEN (THAILAND)190F36R0065   190D84R0092   D191203001    D191203015    000000                                                                              *R         20191210 IMCT                IMCT                                                                                                                    RMF1912104.TXT
MDEFKDT08722201912                D89848582010PT4F20191214000004RADIO;AM/FM CD D              M IMCTM S7TS01 TNTH  09020IMCT  S7 PTB  00003                    0400 SR        000000000000 DENSO TEN (THAILAND)190F36R0065   190D84R0092   D191203001    D191203015    000000                                                                              *R         20191210 IMCT                IMCT                                                                                                                    RMF1912104.TXT
