REC2019120720191207ISUZU                              3      
MACK9D000420201912          IMKDC  89828070100P3YK20191218000008SPEAKER ASM                   M IMCTM IMKDC  TNTH  09020IMKDC KI PTB  00004    K295C7380   001 0000 ES        000000000000 DENSO TEN (THAILAND)                                                                                                                                            *G         20191207 IMCT                IMCT                                                                                                                    WMF1912071.TXT
MACK9D000421201912          IMKDC  89828070200P3YK20191218000008SPEAKER ASM                   M IMCTM IMKDC  TNTH  09020IMKDC KI PTB  00005    K295C7380   001 0000 ES        000000000000 DENSO TEN (THAILAND)                                                                                                                                            *G         20191207 IMCT                IMCT                                                                                                                    WMF1912071.TXT
MACK9D000422201912          IMKDC  89828070300P3YK20191218000008SPEAKER ASM                   M IMCTM IMKDC  TNTH  09020IMKDC KI PTB  00015    K295C7380   001 0000 ES        000000000000 DENSO TEN (THAILAND)                                                                                                                                            *G         20191207 IMCT                IMCT                                                                                                                    WMF1912071.TXT
