REC2019120320191203ISUZU                              14     
MDEBKDT00916201912                D89828070100PT4B20191207000022SPEAKER ASM                   M IMCTM S7FL05 TNTH  09020IMCT  S7 PTB  00004                    0400 SR        000000000000 DENSO TEN (THAILAND)190F54R0104   190L44R0040   Y191201705    Y191201715    000000                                                                              *R         20191203 IMCT                IMCT                                                                                                                    RMF1912036.TXT
MDEBKDT00917201912                D89828070200PV4B20191207000020SPEAKER ASM                   M IMCTM S7FL05 TNTH  09020IMCT  S7 PTB  00005                    0400 SR        000000000000 DENSO TEN (THAILAND)190F79R0012   190L44R0040   Y191201706    Y191201715    000000                                                                              *R         20191203 IMCT                IMCT                                                                                                                    RMF1912036.TXT
MDEBKDT00918201912                D89828070300PT4B20191207000015SPEAKER ASM                   M IMCTM S7TS02 TNTH  09020IMCT  S7 PTB  00015                    0400 SR        000000000000 DENSO TEN (THAILAND)190F79R0014   190L44R0040   Y191201708    Y191201715    000000                                                                              *R         20191203 IMCT                IMCT                                                                                                                    RMF1912036.TXT
MDEBKDT00919201912                D89848584410PT4B20191207000005RADIO;AM/FM CD D              M IMCTM S7TS01 TNTH  09020IMCT  S7 PTB  00003                    0230 SR        000000000000 DENSO TEN (THAILAND)190F54R0100   190F54R0104   Y191201701    Y191201705    000000                                                                              *R         20191203 IMCT                IMCT                                                                                                                    RMF1912036.TXT
MDEBKD200599201912                D89828070100PT4B20191207000008SPEAKER ASM                   M IMCTM S7FL05 TNTH  09020IMCT  S7 PTB  00004                    0230 SR        000000000000 DENSO TEN (THAILAND)190F54R0100   190F54R0103   Y191201701    Y191201704    000000                                                                              *R         20191203 IMCT                IMCT                                                                                                                    RMF1912036.TXT
MDEBKD200600201912                D89828070200PV4B20191207000010SPEAKER ASM                   M IMCTM S7FL05 TNTH  09020IMCT  S7 PTB  00005                    0230 SR        000000000000 DENSO TEN (THAILAND)190F54R0100   190F54R0104   Y191201701    Y191201705    000000                                                                              *R         20191203 IMCT                IMCT                                                                                                                    RMF1912036.TXT
MDEBKD200601201912                D89828070300PT4B20191207000015SPEAKER ASM                   M IMCTM S7TS02 TNTH  09020IMCT  S7 PTB  00015                    0230 SR        000000000000 DENSO TEN (THAILAND)190F54R0100   190F79R0014   Y191201701    Y191201708    000000                                                                              *R         20191203 IMCT                IMCT                                                                                                                    RMF1912036.TXT
MDEFKDT02123201912                D89828070100PV4F20191207000028SPEAKER ASM                   M IMCTM S7FL05 TNTH  09020IMCT  S7 PTB  00004                    1300 SR        000000000000 DENSO TEN (THAILAND)190K43R0041   190L46R0020   C191201802    C191201815    000000                                                                              *R         20191203 IMCT                IMCT                                                                                                                    RMF1912036.TXT
MDEFKDT02124201912                D89828070200PV4F20191207000012SPEAKER ASM                   M IMCTM S7FL05 TNTH  09020IMCT  S7 PTB  00005                    1300 SR        000000000000 DENSO TEN (THAILAND)190K44R0052   190K44R0054   C191201805    C191201811    000000                                                                              *R         20191203 IMCT                IMCT                                                                                                                    RMF1912036.TXT
MDEFKDT02125201912                D89828070300PT4F20191207000012SPEAKER ASM                   M IMCTM S7TS02 TNTH  09020IMCT  S7 PTB  00015                    1300 SR        000000000000 DENSO TEN (THAILAND)190K44R0052   190K44R0054   C191201805    C191201811    000000                                                                              *R         20191203 IMCT                IMCT                                                                                                                    RMF1912036.TXT
MDEFKDT02126201912                D89831228410PT4F20191207000003RADIO;AM/FM,CD                M IMCTM S7U137 TNTH  09020IMCT  S7 CPB  00003                    1300 SR        000000000000 DENSO TEN (THAILAND)190G62R0040   190G62R0042   C191201807    C191201809    000000                                                                              *R         20191203 IMCT                IMCT                                                                                                                    RMF1912036.TXT
MDEFKDT02127201912                D89831229020PT4F20191207000003RADIO;AM/FM,CD                M IMCTM S7U137 TNTH  09020IMCT  S7 PTB  00003                    1300 SR        000000000000 DENSO TEN (THAILAND)190K44R0052   190K44R0054   C191201805    C191201811    000000                                                                              *R         20191203 IMCT                IMCT                                                                                                                    RMF1912036.TXT
MDEFKD203890201912                D89828070100PV4F20191206000004SPEAKER ASM                   M IMCTM S7FL05 TNTH  09020IMCT  S7 PTB  00004                    2100 SR        000000000000 DENSO TEN (THAILAND)170L33R0040   170L33R0041   R191201601    R191201602    000000                                                                              *R         20191203 IMCT                IMCT                                                                                                                    RMF1912036.TXT
MDEFKD203891201912                D89828070100PV4F20191206000028SPEAKER ASM                   M IMCTM S7FL05 TNTH  09020IMCT  S7 PTB  00004                    2230 SR        000000000000 DENSO TEN (THAILAND)170L33R0042   190D94R0008   R191201603    C191201801    000000                                                                              *R         20191203 IMCT                IMCT                                                                                                                    RMF1912036.TXT
