REC2020012520200125ISUZU                              7      
MDEFL1T10044202001                D89828070100PV4F20200130000012SPEAKER ASM                   M IMCTM S7FL05 TNTH  09020IMCT  S7 PTB  00004                    1030 SR        000000000000 DENSO TEN (THAILAND)190K09R0105   190L37R0043   S200103210    S200103215    000000                                                                              *R         20200125 IMCT                IMCT                                                                                                                    RMF2001254.TXT
MDEFL1T10045202001                D89828070200PV4F20200130000030SPEAKER ASM                   M IMCTM S7FL05 TNTH  09020IMCT  S7 PTB  00005                    0230 SR        000000000000 DENSO TEN (THAILAND)190K17R0082   190K21R0074   D200103101    D200103115    000000                                                                              *R         20200125 IMCT                IMCT                                                                                                                    RMF2001254.TXT
MDEFL1T10046202001                D89828070300PT4F20200130000030SPEAKER ASM                   M IMCTM S7TS02 TNTH  09020IMCT  S7 PTB  00015                    0230 SR        000000000000 DENSO TEN (THAILAND)190K17R0082   190K21R0074   D200103101    D200103115    000000                                                                              *R         20200125 IMCT                IMCT                                                                                                                    RMF2001254.TXT
MDEFL1T10047202001                D89838031200PT4F20200130000015RADIO;ASM DVD                 M IMCTM S7TS03 TNTH  09020IMCT  S7 PTB  00003                    0230 SR        000000000000 DENSO TEN (THAILAND)190K17R0082   190K21R0074   D200103101    D200103115    000000                                                                              *R         20200125 IMCT                IMCT                                                                                                                    RMF2001254.TXT
MDEFL1217692202001                D89828070100PV4F20200130000028SPEAKER ASM                   M IMCTM S7FL05 TNTH  09020IMCT  S7 PTB  00004                    0230 SR        000000000000 DENSO TEN (THAILAND)190K17R0082   190K21R0073   D200103101    D200103114    000000                                                                              *R         20200125 IMCT                IMCT                                                                                                                    RMF2001254.TXT
MDEFL1217693202001                D89828070100PV4F20200130000004SPEAKER ASM                   M IMCTM S7FL05 TNTH  09020IMCT  S7 PTB  00004                    0400 SR        000000000000 DENSO TEN (THAILAND)190K21R0074   190K07R0066   D200103115    S200103201    000000                                                                              *R         20200125 IMCT                IMCT                                                                                                                    RMF2001254.TXT
MDEFL1217694202001                D89828070100PV4F20200130000016SPEAKER ASM                   M IMCTM S7FL05 TNTH  09020IMCT  S7 PTB  00004                    0830 SR        000000000000 DENSO TEN (THAILAND)190K07R0067   190K09R0104   S200103202    S200103209    000000                                                                              *R         20200125 IMCT                IMCT                                                                                                                    RMF2001254.TXT
