REC2020011320200113ISUZU                              11     
MDEBL1T03541202001                D89828070100PT4B20200117000030SPEAKER ASM                   M IMCTM S7FL05 TNTH  09020IMCT  S7 PTB  00004                    1300 SR        000000000000 DENSO TEN (THAILAND)190F58R0006   190F62R0064   Z200102201    Z200102215    000000                                                                              *R         20200113 IMCT                IMCT                                                                                                                    RMF2001135.TXT
MDEBL1T03542202001                D89828070200PV4B20200117000030SPEAKER ASM                   M IMCTM S7FL05 TNTH  09020IMCT  S7 PTB  00005                    1300 SR        000000000000 DENSO TEN (THAILAND)190F58R0006   190F62R0064   Z200102201    Z200102215    000000                                                                              *R         20200113 IMCT                IMCT                                                                                                                    RMF2001135.TXT
MDEBL1T03543202001                D89828070300PT4B20200117000030SPEAKER ASM                   M IMCTM S7TS02 TNTH  09020IMCT  S7 PTB  00015                    1300 SR        000000000000 DENSO TEN (THAILAND)190F58R0006   190F62R0064   Z200102201    Z200102215    000000                                                                              *R         20200113 IMCT                IMCT                                                                                                                    RMF2001135.TXT
MDEBL1T03544202001                D89838432900PT4B20200117000010RADIO;ASM DVD                 M IMCTM S7TS01 TNTH  09020IMCT  S7 PTB  00003                    1300 SR        000000000000 DENSO TEN (THAILAND)190F61R0065   190F62R0064   Z200102202    Z200102215    000000                                                                              *R         20200113 IMCT                IMCT                                                                                                                    RMF2001135.TXT
MDEFL1T06716202001                D89828070100PV4F20200117000028SPEAKER ASM                   M IMCTM S7FL05 TNTH  09020IMCT  S7 PTB  00004                    2100 SR        000000000000 DENSO TEN (THAILAND)190M53R0004   190D88R0090   R200102302    R200102315    000000                                                                              *R         20200113 IMCT                IMCT                                                                                                                    RMF2001135.TXT
MDEFL1T06717202001                D89828070200PV4F20200117000025SPEAKER ASM                   M IMCTM S7FL05 TNTH  09020IMCT  S7 PTB  00005                    0830 SR        000000000000 DENSO TEN (THAILAND)190L49R0028   190L55R0035   D200102103    D200102115    000000                                                                              *R         20200113 IMCT                IMCT                                                                                                                    RMF2001135.TXT
MDEFL1T06718202001                D89828070300PT4F20200117000015SPEAKER ASM                   M IMCTM S7TS02 TNTH  09020IMCT  S7 PTB  00015                    0830 SR        000000000000 DENSO TEN (THAILAND)190L55R0028   190L55R0035   D200102108    D200102115    000000                                                                              *R         20200113 IMCT                IMCT                                                                                                                    RMF2001135.TXT
MDEFL1210653202001                D89828070100PV4F20200117000004SPEAKER ASM                   M IMCTM S7FL05 TNTH  09020IMCT  S7 PTB  00004                    0400 SR        000000000000 DENSO TEN (THAILAND)190L49R0026   190L49R0027   D200102101    D200102102    000000                                                                              *R         20200113 IMCT                IMCT                                                                                                                    RMF2001135.TXT
MDEFL1210654202001                D89828070100PV4F20200117000028SPEAKER ASM                   M IMCTM S7FL05 TNTH  09020IMCT  S7 PTB  00004                    0830 SR        000000000000 DENSO TEN (THAILAND)190L49R0028   190M53R0003   D200102103    R200102301    000000                                                                              *R         20200113 IMCT                IMCT                                                                                                                    RMF2001135.TXT
MDEFL1210655202001                D89828070200PV4F20200117000005SPEAKER ASM                   M IMCTM S7FL05 TNTH  09020IMCT  S7 PTB  00005                    0400 SR        000000000000 DENSO TEN (THAILAND)190L49R0026   190L49R0028   D200102101    D200102103    000000                                                                              *R         20200113 IMCT                IMCT                                                                                                                    RMF2001135.TXT
MDEFL1210656202001                D89828070300PT4F20200117000015SPEAKER ASM                   M IMCTM S7TS02 TNTH  09020IMCT  S7 PTB  00015                    0400 SR        000000000000 DENSO TEN (THAILAND)190L49R0026   190L55R0028   D200102101    D200102108    000000                                                                              *R         20200113 IMCT                IMCT                                                                                                                    RMF2001135.TXT
