REC2020011620200116ISUZU                              36     
MAKK01102562202001N3               89825451200P3YK20200128000030SPEAKER ASM;ROOF              M IMCTM CM1    TNTH  09020IMKDC KA PTB  00036  K0                0231NES        000000000000 DENSO TEN (THAILAND)                                                                                                                                            *G         20200116 IMCT                IMCT                                                                                                                    WMF2001167.TXT
MAKK01102563202001N3               89825451200P3YK20200129000030SPEAKER ASM;ROOF              M IMCTM CM1    TNTH  09020IMKDC KA PTB  00036  K0                0231NES        000000000000 DENSO TEN (THAILAND)                                                                                                                                            *G         20200116 IMCT                IMCT                                                                                                                    WMF2001167.TXT
MAKK01102564202001N3               89825451200P3YK20200131000060SPEAKER ASM;ROOF              M IMCTM CM1    TNTH  09020IMKDC KA PTB  00036  K0                0231NES        000000000000 DENSO TEN (THAILAND)                                                                                                                                            *G         20200116 IMCT                IMCT                                                                                                                    WMF2001167.TXT
MAKK01102565202001D3               89825451200P3YK20200201000030SPEAKER ASM;ROOF              M IMCTM CM1    TNTH  09020IMKDC KA PTB  00036  K0                1431DES        000000000000 DENSO TEN (THAILAND)                                                                                                                                            *G         20200116 IMCT                IMCT                                                                                                                    WMF2001167.TXT
MAKK01102566202001D3               89828070100P3YK20200127000090SPEAKER ASM                   M IMCTM CM1    TNTH  09020IMKDC KA PTB  00004  K0                1431DES        000000000000 DENSO TEN (THAILAND)                                                                                                                                            *G         20200116 IMCT                IMCT                                                                                                                    WMF2001167.TXT
MAKK01102567202001N3               89828070100P3YK20200128000120SPEAKER ASM                   M IMCTM CM1    TNTH  09020IMKDC KA PTB  00004  K0                0231NES        000000000000 DENSO TEN (THAILAND)                                                                                                                                            *G         20200116 IMCT                IMCT                                                                                                                    WMF2001167.TXT
MAKK01102568202001D3               89828070100P3YK20200128000120SPEAKER ASM                   M IMCTM CM1    TNTH  09020IMKDC KA PTB  00004  K0                1431DES        000000000000 DENSO TEN (THAILAND)                                                                                                                                            *G         20200116 IMCT                IMCT                                                                                                                    WMF2001167.TXT
MAKK01102569202001N3               89828070100P3YK20200129000090SPEAKER ASM                   M IMCTM CM1    TNTH  09020IMKDC KA PTB  00004  K0                0231NES        000000000000 DENSO TEN (THAILAND)                                                                                                                                            *G         20200116 IMCT                IMCT                                                                                                                    WMF2001167.TXT
MAKK01102570202001D3               89828070100P3YK20200129000120SPEAKER ASM                   M IMCTM CM1    TNTH  09020IMKDC KA PTB  00004  K0                1431DES        000000000000 DENSO TEN (THAILAND)                                                                                                                                            *G         20200116 IMCT                IMCT                                                                                                                    WMF2001167.TXT
MAKK01102571202001N3               89828070100P3YK20200130000090SPEAKER ASM                   M IMCTM CM1    TNTH  09020IMKDC KA PTB  00004  K0                0231NES        000000000000 DENSO TEN (THAILAND)                                                                                                                                            *G         20200116 IMCT                IMCT                                                                                                                    WMF2001167.TXT
MAKK01102572202001D3               89828070100P3YK20200130000120SPEAKER ASM                   M IMCTM CM1    TNTH  09020IMKDC KA PTB  00004  K0                1431DES        000000000000 DENSO TEN (THAILAND)                                                                                                                                            *G         20200116 IMCT                IMCT                                                                                                                    WMF2001167.TXT
MAKK01102573202001N3               89828070100P3YK20200131000150SPEAKER ASM                   M IMCTM CM1    TNTH  09020IMKDC KA PTB  00004  K0                0231NES        000000000000 DENSO TEN (THAILAND)                                                                                                                                            *G         20200116 IMCT                IMCT                                                                                                                    WMF2001167.TXT
MAKK01102574202001D3               89828070100P3YK20200131000150SPEAKER ASM                   M IMCTM CM1    TNTH  09020IMKDC KA PTB  00004  K0                1431DES        000000000000 DENSO TEN (THAILAND)                                                                                                                                            *G         20200116 IMCT                IMCT                                                                                                                    WMF2001167.TXT
MAKK01102575202001N3               89828070100P3YK20200201000120SPEAKER ASM                   M IMCTM CM1    TNTH  09020IMKDC KA PTB  00004  K0                0231NES        000000000000 DENSO TEN (THAILAND)                                                                                                                                            *G         20200116 IMCT                IMCT                                                                                                                    WMF2001167.TXT
MAKK01102576202001D3               89828070100P3YK20200201000120SPEAKER ASM                   M IMCTM CM1    TNTH  09020IMKDC KA PTB  00004  K0                1431DES        000000000000 DENSO TEN (THAILAND)                                                                                                                                            *G         20200116 IMCT                IMCT                                                                                                                    WMF2001167.TXT
MAKK01102577202001N3               89828070100P3YK20200202000150SPEAKER ASM                   M IMCTM CM1    TNTH  09020IMKDC KA PTB  00004  K0                0231NES        000000000000 DENSO TEN (THAILAND)                                                                                                                                            *G         20200116 IMCT                IMCT                                                                                                                    WMF2001167.TXT
MAKK01102578202001N3               89828070200P3YK20200128000060SPEAKER ASM                   M IMCTM CM1    TNTH  09020IMKDC KA PTB  00005  K0                0231NES        000000000000 DENSO TEN (THAILAND)                                                                                                                                            *G         20200116 IMCT                IMCT                                                                                                                    WMF2001167.TXT
MAKK01102579202001D3               89828070200P3YK20200128000060SPEAKER ASM                   M IMCTM CM1    TNTH  09020IMKDC KA PTB  00005  K0                1431DES        000000000000 DENSO TEN (THAILAND)                                                                                                                                            *G         20200116 IMCT                IMCT                                                                                                                    WMF2001167.TXT
MAKK01102580202001N3               89828070200P3YK20200129000030SPEAKER ASM                   M IMCTM CM1    TNTH  09020IMKDC KA PTB  00005  K0                0231NES        000000000000 DENSO TEN (THAILAND)                                                                                                                                            *G         20200116 IMCT                IMCT                                                                                                                    WMF2001167.TXT
MAKK01102581202001D3               89828070200P3YK20200129000090SPEAKER ASM                   M IMCTM CM1    TNTH  09020IMKDC KA PTB  00005  K0                1431DES        000000000000 DENSO TEN (THAILAND)                                                                                                                                            *G         20200116 IMCT                IMCT                                                                                                                    WMF2001167.TXT
MAKK01102582202001N3               89828070200P3YK20200131000090SPEAKER ASM                   M IMCTM CM1    TNTH  09020IMKDC KA PTB  00005  K0                0231NES        000000000000 DENSO TEN (THAILAND)                                                                                                                                            *G         20200116 IMCT                IMCT                                                                                                                    WMF2001167.TXT
MAKK01102583202001D3               89828070200P3YK20200131000060SPEAKER ASM                   M IMCTM CM1    TNTH  09020IMKDC KA PTB  00005  K0                1431DES        000000000000 DENSO TEN (THAILAND)                                                                                                                                            *G         20200116 IMCT                IMCT                                                                                                                    WMF2001167.TXT
MAKK01102584202001D3               89828070200P3YK20200201000030SPEAKER ASM                   M IMCTM CM1    TNTH  09020IMKDC KA PTB  00005  K0                1431DES        000000000000 DENSO TEN (THAILAND)                                                                                                                                            *G         20200116 IMCT                IMCT                                                                                                                    WMF2001167.TXT
MAKK01102585202001N3               89828070200P3YK20200202000030SPEAKER ASM                   M IMCTM CM1    TNTH  09020IMKDC KA PTB  00005  K0                0231NES        000000000000 DENSO TEN (THAILAND)                                                                                                                                            *G         20200116 IMCT                IMCT                                                                                                                    WMF2001167.TXT
MAKK01102586202001D3               89828070300P3YK20200127000030SPEAKER ASM                   M IMCTM CM1    TNTH  09020IMKDC KA PTB  00015  K0                1431DES        000000000000 DENSO TEN (THAILAND)                                                                                                                                            *G         20200116 IMCT                IMCT                                                                                                                    WMF2001167.TXT
MAKK01102587202001N3               89828070300P3YK20200128000060SPEAKER ASM                   M IMCTM CM1    TNTH  09020IMKDC KA PTB  00015  K0                0231NES        000000000000 DENSO TEN (THAILAND)                                                                                                                                            *G         20200116 IMCT                IMCT                                                                                                                    WMF2001167.TXT
MAKK01102588202001D3               89828070300P3YK20200128000060SPEAKER ASM                   M IMCTM CM1    TNTH  09020IMKDC KA PTB  00015  K0                1431DES        000000000000 DENSO TEN (THAILAND)                                                                                                                                            *G         20200116 IMCT                IMCT                                                                                                                    WMF2001167.TXT
MAKK01102589202001N3               89828070300P3YK20200129000030SPEAKER ASM                   M IMCTM CM1    TNTH  09020IMKDC KA PTB  00015  K0                0231NES        000000000000 DENSO TEN (THAILAND)                                                                                                                                            *G         20200116 IMCT                IMCT                                                                                                                    WMF2001167.TXT
MAKK01102590202001D3               89828070300P3YK20200129000090SPEAKER ASM                   M IMCTM CM1    TNTH  09020IMKDC KA PTB  00015  K0                1431DES        000000000000 DENSO TEN (THAILAND)                                                                                                                                            *G         20200116 IMCT                IMCT                                                                                                                    WMF2001167.TXT
MAKK01102591202001D3               89828070300P3YK20200130000030SPEAKER ASM                   M IMCTM CM1    TNTH  09020IMKDC KA PTB  00015  K0                1431DES        000000000000 DENSO TEN (THAILAND)                                                                                                                                            *G         20200116 IMCT                IMCT                                                                                                                    WMF2001167.TXT
MAKK01102592202001N3               89828070300P3YK20200131000090SPEAKER ASM                   M IMCTM CM1    TNTH  09020IMKDC KA PTB  00015  K0                0231NES        000000000000 DENSO TEN (THAILAND)                                                                                                                                            *G         20200116 IMCT                IMCT                                                                                                                    WMF2001167.TXT
MAKK01102593202001D3               89828070300P3YK20200131000090SPEAKER ASM                   M IMCTM CM1    TNTH  09020IMKDC KA PTB  00015  K0                1431DES        000000000000 DENSO TEN (THAILAND)                                                                                                                                            *G         20200116 IMCT                IMCT                                                                                                                    WMF2001167.TXT
MAKK01102594202001D3               89828070300P3YK20200201000030SPEAKER ASM                   M IMCTM CM1    TNTH  09020IMKDC KA PTB  00015  K0                1431DES        000000000000 DENSO TEN (THAILAND)                                                                                                                                            *G         20200116 IMCT                IMCT                                                                                                                    WMF2001167.TXT
MAKK01102595202001N3               89828070300P3YK20200202000030SPEAKER ASM                   M IMCTM CM1    TNTH  09020IMKDC KA PTB  00015  K0                0231NES        000000000000 DENSO TEN (THAILAND)                                                                                                                                            *G         20200116 IMCT                IMCT                                                                                                                    WMF2001167.TXT
MAKK01102596202001D3               89831228410P3YK20200127000015RADIO;AM/FM,CD                M IMCTM CM1    TNTH  09020IMKDC KA   CPB00003  K0                1431DES        000000000000 DENSO TEN (THAILAND)                                                                                                                                            *G         20200116 IMCT                IMCT                                                                                                                    WMF2001167.TXT
MAKK01102597202001N3               89831228410P3YK20200130000015RADIO;AM/FM,CD                M IMCTM CM1    TNTH  09020IMKDC KA   CPB00003  K0                0231NES        000000000000 DENSO TEN (THAILAND)                                                                                                                                            *G         20200116 IMCT                IMCT                                                                                                                    WMF2001167.TXT
