REC2020012420200124ISUZU                              4      
MDEFL1T09200202001                D89828070100PV4F20200128000026SPEAKER ASM                   M IMCTM S7FL05 TNTH  09020IMCT  S7 PTB  00004                    2230 SR        000000000000 DENSO TEN (THAILAND)190D28R0033   190J92R0122   R200103003    R200103015    000000                                                                              *R         20200124 IMCT                IMCT                                                                                                                    RMF2001247.TXT
MDEFL1T09201202001                D89828070300PT4F20200128000012SPEAKER ASM                   M IMCTM S7TS02 TNTH  09020IMCT  S7 PTB  00015                    2230 SR        000000000000 DENSO TEN (THAILAND)190J92R0117   190J92R0122   R200103010    R200103015    000000                                                                              *R         20200124 IMCT                IMCT                                                                                                                    RMF2001247.TXT
MDEFL1T09202202001                D89831229210PT4F20200128000006RADIO;AM/FM,CD                M IMCTM S7U137 TNTH  09020IMCT  S7 PTB  00003                    2230 SR        000000000000 DENSO TEN (THAILAND)190J92R0117   190J92R0122   R200103010    R200103015    000000                                                                              *R         20200124 IMCT                IMCT                                                                                                                    RMF2001247.TXT
MDEFL1214698202001                D89828070100PV4F20200128000004SPEAKER ASM                   M IMCTM S7FL05 TNTH  09020IMCT  S7 PTB  00004                    2100 SR        000000000000 DENSO TEN (THAILAND)190D28R0031   190D28R0032   R200103001    R200103002    000000                                                                              *R         20200124 IMCT                IMCT                                                                                                                    RMF2001247.TXT
