REC2020011620200116ISUZU                              3      
MDEBL1T05405202001                D89828070100PT4B20200121000030SPEAKER ASM                   M IMCTM S7FL05 TNTH  09020IMCT  S7 PTB  00004                    1300 SR        000000000000 DENSO TEN (THAILAND)190G35R0001   190G38R0011   Y200102501    Y200102515    000000                                                                              *R         20200116 IMCT                IMCT                                                                                                                    RMF2001168.TXT
MDEBL1T05406202001                D89828070200PV4B20200121000030SPEAKER ASM                   M IMCTM S7FL05 TNTH  09020IMCT  S7 PTB  00005                    1300 SR        000000000000 DENSO TEN (THAILAND)190G35R0001   190G38R0011   Y200102501    Y200102515    000000                                                                              *R         20200116 IMCT                IMCT                                                                                                                    RMF2001168.TXT
MDEBL1T05407202001                D89828070300PT4B20200121000030SPEAKER ASM                   M IMCTM S7TS02 TNTH  09020IMCT  S7 PTB  00015                    1300 SR        000000000000 DENSO TEN (THAILAND)190G35R0001   190G38R0011   Y200102501    Y200102515    000000                                                                              *R         20200116 IMCT                IMCT                                                                                                                    RMF2001168.TXT
