REC2020011520200115ISUZU                              3      
MDEBL1T04516202001                D89828070100PT4B20200120000030SPEAKER ASM                   M IMCTM S7FL05 TNTH  09020IMCT  S7 PTB  00004                    0830 SR        000000000000 DENSO TEN (THAILAND)190F78R0017   190F79R0019   Y200102401    Y200102415    000000                                                                              *R         20200115 IMCT                IMCT                                                                                                                    RMF2001156.TXT
MDEBL1T04517202001                D89828070200PV4B20200120000030SPEAKER ASM                   M IMCTM S7FL05 TNTH  09020IMCT  S7 PTB  00005                    0830 SR        000000000000 DENSO TEN (THAILAND)190F78R0017   190F79R0019   Y200102401    Y200102415    000000                                                                              *R         20200115 IMCT                IMCT                                                                                                                    RMF2001156.TXT
MDEBL1T04518202001                D89828070300PT4B20200120000030SPEAKER ASM                   M IMCTM S7TS02 TNTH  09020IMCT  S7 PTB  00015                    0830 SR        000000000000 DENSO TEN (THAILAND)190F78R0017   190F79R0019   Y200102401    Y200102415    000000                                                                              *R         20200115 IMCT                IMCT                                                                                                                    RMF2001156.TXT
