REC2020012420200124ISUZU                              35     
MAKK01129668202001D3               89825451200P3YK20200203000030SPEAKER ASM;ROOF              M IMCTM CM1    TNTH  09020IMKDC KA PTB  00036  K0                1431DES        000000000000 DENSO TEN (THAILAND)                                                                                                                                            *G         20200124 IMCT                IMCT                                                                                                                    WMF2001242.TXT
MAKK01129669202001N3               89825451200P3YK20200204000030SPEAKER ASM;ROOF              M IMCTM CM1    TNTH  09020IMKDC KA PTB  00036  K0                0231NES        000000000000 DENSO TEN (THAILAND)                                                                                                                                            *G         20200124 IMCT                IMCT                                                                                                                    WMF2001242.TXT
MAKK01129670202001D3               89825451200P3YK20200205000060SPEAKER ASM;ROOF              M IMCTM CM1    TNTH  09020IMKDC KA PTB  00036  K0                1431DES        000000000000 DENSO TEN (THAILAND)                                                                                                                                            *G         20200124 IMCT                IMCT                                                                                                                    WMF2001242.TXT
MAKK01129671202001N3               89825451200P3YK20200207000030SPEAKER ASM;ROOF              M IMCTM CM1    TNTH  09020IMKDC KA PTB  00036  K0                0231NES        000000000000 DENSO TEN (THAILAND)                                                                                                                                            *G         20200124 IMCT                IMCT                                                                                                                    WMF2001242.TXT
MAKK01129672202001D3               89825451200P3YK20200207000030SPEAKER ASM;ROOF              M IMCTM CM1    TNTH  09020IMKDC KA PTB  00036  K0                1431DES        000000000000 DENSO TEN (THAILAND)                                                                                                                                            *G         20200124 IMCT                IMCT                                                                                                                    WMF2001242.TXT
MAKK01129673202001N3               89825451200P3YK20200208000030SPEAKER ASM;ROOF              M IMCTM CM1    TNTH  09020IMKDC KA PTB  00036  K0                0231NES        000000000000 DENSO TEN (THAILAND)                                                                                                                                            *G         20200124 IMCT                IMCT                                                                                                                    WMF2001242.TXT
MAKK01129674202001D3               89828070100P3YK20200203000150SPEAKER ASM                   M IMCTM CM1    TNTH  09020IMKDC KA PTB  00004  K0                1431DES        000000000000 DENSO TEN (THAILAND)                                                                                                                                            *G         20200124 IMCT                IMCT                                                                                                                    WMF2001242.TXT
MAKK01129675202001N3               89828070100P3YK20200204000150SPEAKER ASM                   M IMCTM CM1    TNTH  09020IMKDC KA PTB  00004  K0                0231NES        000000000000 DENSO TEN (THAILAND)                                                                                                                                            *G         20200124 IMCT                IMCT                                                                                                                    WMF2001242.TXT
MAKK01129676202001D3               89828070100P3YK20200204000120SPEAKER ASM                   M IMCTM CM1    TNTH  09020IMKDC KA PTB  00004  K0                1431DES        000000000000 DENSO TEN (THAILAND)                                                                                                                                            *G         20200124 IMCT                IMCT                                                                                                                    WMF2001242.TXT
MAKK01129677202001N3               89828070100P3YK20200205000150SPEAKER ASM                   M IMCTM CM1    TNTH  09020IMKDC KA PTB  00004  K0                0231NES        000000000000 DENSO TEN (THAILAND)                                                                                                                                            *G         20200124 IMCT                IMCT                                                                                                                    WMF2001242.TXT
MAKK01129678202001D3               89828070100P3YK20200205000150SPEAKER ASM                   M IMCTM CM1    TNTH  09020IMKDC KA PTB  00004  K0                1431DES        000000000000 DENSO TEN (THAILAND)                                                                                                                                            *G         20200124 IMCT                IMCT                                                                                                                    WMF2001242.TXT
MAKK01129679202001N3               89828070100P3YK20200206000090SPEAKER ASM                   M IMCTM CM1    TNTH  09020IMKDC KA PTB  00004  K0                0231NES        000000000000 DENSO TEN (THAILAND)                                                                                                                                            *G         20200124 IMCT                IMCT                                                                                                                    WMF2001242.TXT
MAKK01129680202001D3               89828070100P3YK20200206000150SPEAKER ASM                   M IMCTM CM1    TNTH  09020IMKDC KA PTB  00004  K0                1431DES        000000000000 DENSO TEN (THAILAND)                                                                                                                                            *G         20200124 IMCT                IMCT                                                                                                                    WMF2001242.TXT
MAKK01129681202001N3               89828070100P3YK20200207000180SPEAKER ASM                   M IMCTM CM1    TNTH  09020IMKDC KA PTB  00004  K0                0231NES        000000000000 DENSO TEN (THAILAND)                                                                                                                                            *G         20200124 IMCT                IMCT                                                                                                                    WMF2001242.TXT
MAKK01129682202001D3               89828070100P3YK20200207000120SPEAKER ASM                   M IMCTM CM1    TNTH  09020IMKDC KA PTB  00004  K0                1431DES        000000000000 DENSO TEN (THAILAND)                                                                                                                                            *G         20200124 IMCT                IMCT                                                                                                                    WMF2001242.TXT
MAKK01129683202001N3               89828070100P3YK20200208000150SPEAKER ASM                   M IMCTM CM1    TNTH  09020IMKDC KA PTB  00004  K0                0231NES        000000000000 DENSO TEN (THAILAND)                                                                                                                                            *G         20200124 IMCT                IMCT                                                                                                                    WMF2001242.TXT
MAKK01129684202001D3               89828070200P3YK20200203000030SPEAKER ASM                   M IMCTM CM1    TNTH  09020IMKDC KA PTB  00005  K0                1431DES        000000000000 DENSO TEN (THAILAND)                                                                                                                                            *G         20200124 IMCT                IMCT                                                                                                                    WMF2001242.TXT
MAKK01129685202001N3               89828070200P3YK20200204000030SPEAKER ASM                   M IMCTM CM1    TNTH  09020IMKDC KA PTB  00005  K0                0231NES        000000000000 DENSO TEN (THAILAND)                                                                                                                                            *G         20200124 IMCT                IMCT                                                                                                                    WMF2001242.TXT
MAKK01129686202001D3               89828070200P3YK20200204000030SPEAKER ASM                   M IMCTM CM1    TNTH  09020IMKDC KA PTB  00005  K0                1431DES        000000000000 DENSO TEN (THAILAND)                                                                                                                                            *G         20200124 IMCT                IMCT                                                                                                                    WMF2001242.TXT
MAKK01129687202001N3               89828070200P3YK20200205000060SPEAKER ASM                   M IMCTM CM1    TNTH  09020IMKDC KA PTB  00005  K0                0231NES        000000000000 DENSO TEN (THAILAND)                                                                                                                                            *G         20200124 IMCT                IMCT                                                                                                                    WMF2001242.TXT
MAKK01129688202001D3               89828070200P3YK20200205000060SPEAKER ASM                   M IMCTM CM1    TNTH  09020IMKDC KA PTB  00005  K0                1431DES        000000000000 DENSO TEN (THAILAND)                                                                                                                                            *G         20200124 IMCT                IMCT                                                                                                                    WMF2001242.TXT
MAKK01129689202001D3               89828070200P3YK20200206000030SPEAKER ASM                   M IMCTM CM1    TNTH  09020IMKDC KA PTB  00005  K0                1431DES        000000000000 DENSO TEN (THAILAND)                                                                                                                                            *G         20200124 IMCT                IMCT                                                                                                                    WMF2001242.TXT
MAKK01129690202001N3               89828070200P3YK20200207000030SPEAKER ASM                   M IMCTM CM1    TNTH  09020IMKDC KA PTB  00005  K0                0231NES        000000000000 DENSO TEN (THAILAND)                                                                                                                                            *G         20200124 IMCT                IMCT                                                                                                                    WMF2001242.TXT
MAKK01129691202001D3               89828070200P3YK20200207000060SPEAKER ASM                   M IMCTM CM1    TNTH  09020IMKDC KA PTB  00005  K0                1431DES        000000000000 DENSO TEN (THAILAND)                                                                                                                                            *G         20200124 IMCT                IMCT                                                                                                                    WMF2001242.TXT
MAKK01129692202001N3               89828070200P3YK20200208000060SPEAKER ASM                   M IMCTM CM1    TNTH  09020IMKDC KA PTB  00005  K0                0231NES        000000000000 DENSO TEN (THAILAND)                                                                                                                                            *G         20200124 IMCT                IMCT                                                                                                                    WMF2001242.TXT
MAKK01129693202001D3               89828070300P3YK20200203000030SPEAKER ASM                   M IMCTM CM1    TNTH  09020IMKDC KA PTB  00015  K0                1431DES        000000000000 DENSO TEN (THAILAND)                                                                                                                                            *G         20200124 IMCT                IMCT                                                                                                                    WMF2001242.TXT
MAKK01129694202001N3               89828070300P3YK20200204000030SPEAKER ASM                   M IMCTM CM1    TNTH  09020IMKDC KA PTB  00015  K0                0231NES        000000000000 DENSO TEN (THAILAND)                                                                                                                                            *G         20200124 IMCT                IMCT                                                                                                                    WMF2001242.TXT
MAKK01129695202001D3               89828070300P3YK20200204000030SPEAKER ASM                   M IMCTM CM1    TNTH  09020IMKDC KA PTB  00015  K0                1431DES        000000000000 DENSO TEN (THAILAND)                                                                                                                                            *G         20200124 IMCT                IMCT                                                                                                                    WMF2001242.TXT
MAKK01129696202001N3               89828070300P3YK20200205000060SPEAKER ASM                   M IMCTM CM1    TNTH  09020IMKDC KA PTB  00015  K0                0231NES        000000000000 DENSO TEN (THAILAND)                                                                                                                                            *G         20200124 IMCT                IMCT                                                                                                                    WMF2001242.TXT
MAKK01129697202001D3               89828070300P3YK20200205000090SPEAKER ASM                   M IMCTM CM1    TNTH  09020IMKDC KA PTB  00015  K0                1431DES        000000000000 DENSO TEN (THAILAND)                                                                                                                                            *G         20200124 IMCT                IMCT                                                                                                                    WMF2001242.TXT
MAKK01129698202001D3               89828070300P3YK20200206000030SPEAKER ASM                   M IMCTM CM1    TNTH  09020IMKDC KA PTB  00015  K0                1431DES        000000000000 DENSO TEN (THAILAND)                                                                                                                                            *G         20200124 IMCT                IMCT                                                                                                                    WMF2001242.TXT
MAKK01129699202001N3               89828070300P3YK20200207000060SPEAKER ASM                   M IMCTM CM1    TNTH  09020IMKDC KA PTB  00015  K0                0231NES        000000000000 DENSO TEN (THAILAND)                                                                                                                                            *G         20200124 IMCT                IMCT                                                                                                                    WMF2001242.TXT
MAKK01129700202001D3               89828070300P3YK20200207000060SPEAKER ASM                   M IMCTM CM1    TNTH  09020IMKDC KA PTB  00015  K0                1431DES        000000000000 DENSO TEN (THAILAND)                                                                                                                                            *G         20200124 IMCT                IMCT                                                                                                                    WMF2001242.TXT
MAKK01129701202001N3               89828070300P3YK20200208000060SPEAKER ASM                   M IMCTM CM1    TNTH  09020IMKDC KA PTB  00015  K0                0231NES        000000000000 DENSO TEN (THAILAND)                                                                                                                                            *G         20200124 IMCT                IMCT                                                                                                                    WMF2001242.TXT
MAKK01129702202001N3               89831228410P3YK20200206000015RADIO;AM/FM,CD                M IMCTM CM1    TNTH  09020IMKDC KA   CPB00003  K0                0231NES        000000000000 DENSO TEN (THAILAND)                                                                                                                                            *G         20200124 IMCT                IMCT                                                                                                                    WMF2001242.TXT
