REC2020012320200123ISUZU                              4      
MDEFL1T08516202001                D89828070100PV4F20200127000030SPEAKER ASM                   M IMCTM S7FL05 TNTH  09020IMCT  S7 PTB  00004                    2230 SR        000000000000 DENSO TEN (THAILAND)190J98R0105   190M54R0020   H200102901    H200102915    000000                                                                              *R         20200123 IMCT                IMCT                                                                                                                    RMF200123A.TXT
MDEFL1T08517202001                D89828070200PV4F20200127000018SPEAKER ASM                   M IMCTM S7FL05 TNTH  09020IMCT  S7 PTB  00005                    2230 SR        000000000000 DENSO TEN (THAILAND)190J98R0105   190J98R0113   H200102901    H200102909    000000                                                                              *R         20200123 IMCT                IMCT                                                                                                                    RMF200123A.TXT
MDEFL1T08518202001                D89828070300PT4F20200127000018SPEAKER ASM                   M IMCTM S7TS02 TNTH  09020IMCT  S7 PTB  00015                    2230 SR        000000000000 DENSO TEN (THAILAND)190J98R0105   190J98R0113   H200102901    H200102909    000000                                                                              *R         20200123 IMCT                IMCT                                                                                                                    RMF200123A.TXT
MDEFL1T08519202001                D89831229210PT4F20200127000009RADIO;AM/FM,CD                M IMCTM S7U137 TNTH  09020IMCT  S7 PTB  00003                    2230 SR        000000000000 DENSO TEN (THAILAND)190J98R0105   190J98R0113   H200102901    H200102909    000000                                                                              *R         20200123 IMCT                IMCT                                                                                                                    RMF200123A.TXT
