REC2020012820200128ISUZU                              14     
MDEBL1T07905202002                D89828070100PT4B20200201000010SPEAKER ASM                   M IMCTM S7FL05 TNTH  09020IMCT  S7 PTB  00004                    1030 SR        000000000000 DENSO TEN (THAILAND)190F63R0073   190F63R0077   Z200200311    Z200200315    000000                                                                              *R         20200128 IMCT                IMCT                                                                                                                    RMF2001285.TXT
MDEBL1T07906202002                D89828070200PV4B20200201000010SPEAKER ASM                   M IMCTM S7FL05 TNTH  09020IMCT  S7 PTB  00005                    1030 SR        000000000000 DENSO TEN (THAILAND)190F63R0073   190F63R0077   Z200200311    Z200200315    000000                                                                              *R         20200128 IMCT                IMCT                                                                                                                    RMF2001285.TXT
MDEBL1T07907202002                D89828070300PT4B20200201000030SPEAKER ASM                   M IMCTM S7TS02 TNTH  09020IMCT  S7 PTB  00015                    0830 SR        000000000000 DENSO TEN (THAILAND)190F59R0062   190F63R0077   Z200200301    Z200200315    000000                                                                              *R         20200128 IMCT                IMCT                                                                                                                    RMF2001285.TXT
MDEBL1T07908202002                D89838432900PT4B20200201000003RADIO;ASM DVD                 M IMCTM S7TS01 TNTH  09020IMCT  S7 PTB  00003                    0830 SR        000000000000 DENSO TEN (THAILAND)190F64R0110   190F61R0071   Z200200306    Z200200308    000000                                                                              *R         20200128 IMCT                IMCT                                                                                                                    RMF2001285.TXT
MDEBL1210502202002                D89828070100PT4B20200201000020SPEAKER ASM                   M IMCTM S7FL05 TNTH  09020IMCT  S7 PTB  00004                    0830 SR        000000000000 DENSO TEN (THAILAND)190F59R0062   190F63R0072   Z200200301    Z200200310    000000                                                                              *R         20200128 IMCT                IMCT                                                                                                                    RMF2001285.TXT
MDEBL1210503202002                D89828070200PV4B20200201000020SPEAKER ASM                   M IMCTM S7FL05 TNTH  09020IMCT  S7 PTB  00005                    0830 SR        000000000000 DENSO TEN (THAILAND)190F59R0062   190F63R0072   Z200200301    Z200200310    000000                                                                              *R         20200128 IMCT                IMCT                                                                                                                    RMF2001285.TXT
MDEFL1T12100202002                D89828070100PV4F20200201000028SPEAKER ASM                   M IMCTM S7FL05 TNTH  09020IMCT  S7 PTB  00004                    0230 SR        000000000000 DENSO TEN (THAILAND)190L48R0017   190L51R0020   D200200202    D200200215    000000                                                                              *R         20200128 IMCT                IMCT                                                                                                                    RMF2001285.TXT
MDEFL1T12101202002                D89828070200PV4F20200201000029SPEAKER ASM                   M IMCTM S7FL05 TNTH  09020IMCT  S7 PTB  00005                    0230 SR        000000000000 DENSO TEN (THAILAND)190L48R0016   190L51R0020   D200200201    D200200215    000000                                                                              *R         20200128 IMCT                IMCT                                                                                                                    RMF2001285.TXT
MDEFL1T12102202002                D89828070300PT4F20200201000024SPEAKER ASM                   M IMCTM S7TS02 TNTH  09020IMCT  S7 PTB  00015                    0230 SR        000000000000 DENSO TEN (THAILAND)190L48R0019   190L51R0020   D200200204    D200200215    000000                                                                              *R         20200128 IMCT                IMCT                                                                                                                    RMF2001285.TXT
MDEFL1T12103202002                D89838031200PT4F20200201000005RADIO;ASM DVD                 M IMCTM S7TS03 TNTH  09020IMCT  S7 PTB  00003                    0230 SR        000000000000 DENSO TEN (THAILAND)190K21R0075   190K21R0079   D200200206    D200200210    000000                                                                              *R         20200128 IMCT                IMCT                                                                                                                    RMF2001285.TXT
MDEFL1221939202002                D89828070100PV4F20200131000032SPEAKER ASM                   M IMCTM S7FL05 TNTH  09020IMCT  S7 PTB  00004                    2100 SR        000000000000 DENSO TEN (THAILAND)190K16R0113   190L48R0016   D200200101    D200200201    000000                                                                              *R         20200128 IMCT                IMCT                                                                                                                    RMF2001285.TXT
MDEFL1221940202002                D89828070200PV4F20200131000025SPEAKER ASM                   M IMCTM S7FL05 TNTH  09020IMCT  S7 PTB  00005                    2100 SR        000000000000 DENSO TEN (THAILAND)190K16R0113   190L48R0016   D200200101    D200200201    000000                                                                              *R         20200128 IMCT                IMCT                                                                                                                    RMF2001285.TXT
MDEFL1221941202002                D89828070300PT4F20200131000030SPEAKER ASM                   M IMCTM S7TS02 TNTH  09020IMCT  S7 PTB  00015                    2100 SR        000000000000 DENSO TEN (THAILAND)190K16R0113   190L48R0018   D200200101    D200200203    000000                                                                              *R         20200128 IMCT                IMCT                                                                                                                    RMF2001285.TXT
MDEFL1221942202002                D89838031200PT4F20200131000012RADIO;ASM DVD                 M IMCTM S7TS03 TNTH  09020IMCT  S7 PTB  00003                    2100 SR        000000000000 DENSO TEN (THAILAND)190K16R0113   190K22R0114   D200200101    D200200115    000000                                                                              *R         20200128 IMCT                IMCT                                                                                                                    RMF2001285.TXT
