REC2020013020200130ISUZU                              40     
MAKK01159192202001N3               89825451200P3YK20200211000030SPEAKER ASM;ROOF              M IMCTM CM1    TNTH  09020IMKDC KA PTB  00036  K0                0231NES        000000000000 DENSO TEN (THAILAND)                                                                                                                                            *G         20200130 IMCT                IMCT                                                                                                                    WMF2001303.TXT
MAKK01159193202001N3               89825451200P3YK20200212000030SPEAKER ASM;ROOF              M IMCTM CM1    TNTH  09020IMKDC KA PTB  00036  K0                0231NES        000000000000 DENSO TEN (THAILAND)                                                                                                                                            *G         20200130 IMCT                IMCT                                                                                                                    WMF2001303.TXT
MAKK01159194202001N3               89825451200P3YK20200213000060SPEAKER ASM;ROOF              M IMCTM CM1    TNTH  09020IMKDC KA PTB  00036  K0                0231NES        000000000000 DENSO TEN (THAILAND)                                                                                                                                            *G         20200130 IMCT                IMCT                                                                                                                    WMF2001303.TXT
MAKK01159195202001N3               89825451200P3YK20200214000030SPEAKER ASM;ROOF              M IMCTM CM1    TNTH  09020IMKDC KA PTB  00036  K0                0231NES        000000000000 DENSO TEN (THAILAND)                                                                                                                                            *G         20200130 IMCT                IMCT                                                                                                                    WMF2001303.TXT
MAKK01159196202001D3               89825451200P3YK20200214000030SPEAKER ASM;ROOF              M IMCTM CM1    TNTH  09020IMKDC KA PTB  00036  K0                1431DES        000000000000 DENSO TEN (THAILAND)                                                                                                                                            *G         20200130 IMCT                IMCT                                                                                                                    WMF2001303.TXT
MAKK01159197202001D3               89825451200P3YK20200215000030SPEAKER ASM;ROOF              M IMCTM CM1    TNTH  09020IMKDC KA PTB  00036  K0                1431DES        000000000000 DENSO TEN (THAILAND)                                                                                                                                            *G         20200130 IMCT                IMCT                                                                                                                    WMF2001303.TXT
MAKK01159198202001N3               89825451200P3YK20200216000030SPEAKER ASM;ROOF              M IMCTM CM1    TNTH  09020IMKDC KA PTB  00036  K0                0231NES        000000000000 DENSO TEN (THAILAND)                                                                                                                                            *G         20200130 IMCT                IMCT                                                                                                                    WMF2001303.TXT
MAKK01159199202001D3               89828070100P3YK20200210000150SPEAKER ASM                   M IMCTM CM1    TNTH  09020IMKDC KA PTB  00004  K0                1431DES        000000000000 DENSO TEN (THAILAND)                                                                                                                                            *G         20200130 IMCT                IMCT                                                                                                                    WMF2001303.TXT
MAKK01159200202001N3               89828070100P3YK20200211000090SPEAKER ASM                   M IMCTM CM1    TNTH  09020IMKDC KA PTB  00004  K0                0231NES        000000000000 DENSO TEN (THAILAND)                                                                                                                                            *G         20200130 IMCT                IMCT                                                                                                                    WMF2001303.TXT
MAKK01159201202001D3               89828070100P3YK20200211000150SPEAKER ASM                   M IMCTM CM1    TNTH  09020IMKDC KA PTB  00004  K0                1431DES        000000000000 DENSO TEN (THAILAND)                                                                                                                                            *G         20200130 IMCT                IMCT                                                                                                                    WMF2001303.TXT
MAKK01159202202001N3               89828070100P3YK20200212000120SPEAKER ASM                   M IMCTM CM1    TNTH  09020IMKDC KA PTB  00004  K0                0231NES        000000000000 DENSO TEN (THAILAND)                                                                                                                                            *G         20200130 IMCT                IMCT                                                                                                                    WMF2001303.TXT
MAKK01159203202001D3               89828070100P3YK20200212000150SPEAKER ASM                   M IMCTM CM1    TNTH  09020IMKDC KA PTB  00004  K0                1431DES        000000000000 DENSO TEN (THAILAND)                                                                                                                                            *G         20200130 IMCT                IMCT                                                                                                                    WMF2001303.TXT
MAKK01159204202001N3               89828070100P3YK20200213000120SPEAKER ASM                   M IMCTM CM1    TNTH  09020IMKDC KA PTB  00004  K0                0231NES        000000000000 DENSO TEN (THAILAND)                                                                                                                                            *G         20200130 IMCT                IMCT                                                                                                                    WMF2001303.TXT
MAKK01159205202001D3               89828070100P3YK20200213000150SPEAKER ASM                   M IMCTM CM1    TNTH  09020IMKDC KA PTB  00004  K0                1431DES        000000000000 DENSO TEN (THAILAND)                                                                                                                                            *G         20200130 IMCT                IMCT                                                                                                                    WMF2001303.TXT
MAKK01159206202001N3               89828070100P3YK20200214000150SPEAKER ASM                   M IMCTM CM1    TNTH  09020IMKDC KA PTB  00004  K0                0231NES        000000000000 DENSO TEN (THAILAND)                                                                                                                                            *G         20200130 IMCT                IMCT                                                                                                                    WMF2001303.TXT
MAKK01159207202001D3               89828070100P3YK20200214000120SPEAKER ASM                   M IMCTM CM1    TNTH  09020IMKDC KA PTB  00004  K0                1431DES        000000000000 DENSO TEN (THAILAND)                                                                                                                                            *G         20200130 IMCT                IMCT                                                                                                                    WMF2001303.TXT
MAKK01159208202001N3               89828070100P3YK20200215000150SPEAKER ASM                   M IMCTM CM1    TNTH  09020IMKDC KA PTB  00004  K0                0231NES        000000000000 DENSO TEN (THAILAND)                                                                                                                                            *G         20200130 IMCT                IMCT                                                                                                                    WMF2001303.TXT
MAKK01159209202001D3               89828070100P3YK20200215000150SPEAKER ASM                   M IMCTM CM1    TNTH  09020IMKDC KA PTB  00004  K0                1431DES        000000000000 DENSO TEN (THAILAND)                                                                                                                                            *G         20200130 IMCT                IMCT                                                                                                                    WMF2001303.TXT
MAKK01159210202001N3               89828070100P3YK20200216000150SPEAKER ASM                   M IMCTM CM1    TNTH  09020IMKDC KA PTB  00004  K0                0231NES        000000000000 DENSO TEN (THAILAND)                                                                                                                                            *G         20200130 IMCT                IMCT                                                                                                                    WMF2001303.TXT
MAKK01159211202001D3               89828070200P3YK20200210000060SPEAKER ASM                   M IMCTM CM1    TNTH  09020IMKDC KA PTB  00005  K0                1431DES        000000000000 DENSO TEN (THAILAND)                                                                                                                                            *G         20200130 IMCT                IMCT                                                                                                                    WMF2001303.TXT
MAKK01159212202001D3               89828070200P3YK20200211000060SPEAKER ASM                   M IMCTM CM1    TNTH  09020IMKDC KA PTB  00005  K0                1431DES        000000000000 DENSO TEN (THAILAND)                                                                                                                                            *G         20200130 IMCT                IMCT                                                                                                                    WMF2001303.TXT
MAKK01159213202001N3               89828070200P3YK20200212000030SPEAKER ASM                   M IMCTM CM1    TNTH  09020IMKDC KA PTB  00005  K0                0231NES        000000000000 DENSO TEN (THAILAND)                                                                                                                                            *G         20200130 IMCT                IMCT                                                                                                                    WMF2001303.TXT
MAKK01159214202001D3               89828070200P3YK20200212000060SPEAKER ASM                   M IMCTM CM1    TNTH  09020IMKDC KA PTB  00005  K0                1431DES        000000000000 DENSO TEN (THAILAND)                                                                                                                                            *G         20200130 IMCT                IMCT                                                                                                                    WMF2001303.TXT
MAKK01159215202001N3               89828070200P3YK20200213000060SPEAKER ASM                   M IMCTM CM1    TNTH  09020IMKDC KA PTB  00005  K0                0231NES        000000000000 DENSO TEN (THAILAND)                                                                                                                                            *G         20200130 IMCT                IMCT                                                                                                                    WMF2001303.TXT
MAKK01159216202001D3               89828070200P3YK20200213000060SPEAKER ASM                   M IMCTM CM1    TNTH  09020IMKDC KA PTB  00005  K0                1431DES        000000000000 DENSO TEN (THAILAND)                                                                                                                                            *G         20200130 IMCT                IMCT                                                                                                                    WMF2001303.TXT
MAKK01159217202001N3               89828070200P3YK20200214000060SPEAKER ASM                   M IMCTM CM1    TNTH  09020IMKDC KA PTB  00005  K0                0231NES        000000000000 DENSO TEN (THAILAND)                                                                                                                                            *G         20200130 IMCT                IMCT                                                                                                                    WMF2001303.TXT
MAKK01159218202001N3               89828070200P3YK20200215000030SPEAKER ASM                   M IMCTM CM1    TNTH  09020IMKDC KA PTB  00005  K0                0231NES        000000000000 DENSO TEN (THAILAND)                                                                                                                                            *G         20200130 IMCT                IMCT                                                                                                                    WMF2001303.TXT
MAKK01159219202001D3               89828070200P3YK20200215000060SPEAKER ASM                   M IMCTM CM1    TNTH  09020IMKDC KA PTB  00005  K0                1431DES        000000000000 DENSO TEN (THAILAND)                                                                                                                                            *G         20200130 IMCT                IMCT                                                                                                                    WMF2001303.TXT
MAKK01159220202001N3               89828070200P3YK20200216000060SPEAKER ASM                   M IMCTM CM1    TNTH  09020IMKDC KA PTB  00005  K0                0231NES        000000000000 DENSO TEN (THAILAND)                                                                                                                                            *G         20200130 IMCT                IMCT                                                                                                                    WMF2001303.TXT
MAKK01159221202001D3               89828070300P3YK20200210000060SPEAKER ASM                   M IMCTM CM1    TNTH  09020IMKDC KA PTB  00015  K0                1431DES        000000000000 DENSO TEN (THAILAND)                                                                                                                                            *G         20200130 IMCT                IMCT                                                                                                                    WMF2001303.TXT
MAKK01159222202001D3               89828070300P3YK20200211000060SPEAKER ASM                   M IMCTM CM1    TNTH  09020IMKDC KA PTB  00015  K0                1431DES        000000000000 DENSO TEN (THAILAND)                                                                                                                                            *G         20200130 IMCT                IMCT                                                                                                                    WMF2001303.TXT
MAKK01159223202001N3               89828070300P3YK20200212000030SPEAKER ASM                   M IMCTM CM1    TNTH  09020IMKDC KA PTB  00015  K0                0231NES        000000000000 DENSO TEN (THAILAND)                                                                                                                                            *G         20200130 IMCT                IMCT                                                                                                                    WMF2001303.TXT
MAKK01159224202001D3               89828070300P3YK20200212000060SPEAKER ASM                   M IMCTM CM1    TNTH  09020IMKDC KA PTB  00015  K0                1431DES        000000000000 DENSO TEN (THAILAND)                                                                                                                                            *G         20200130 IMCT                IMCT                                                                                                                    WMF2001303.TXT
MAKK01159225202001N3               89828070300P3YK20200213000060SPEAKER ASM                   M IMCTM CM1    TNTH  09020IMKDC KA PTB  00015  K0                0231NES        000000000000 DENSO TEN (THAILAND)                                                                                                                                            *G         20200130 IMCT                IMCT                                                                                                                    WMF2001303.TXT
MAKK01159226202001D3               89828070300P3YK20200213000060SPEAKER ASM                   M IMCTM CM1    TNTH  09020IMKDC KA PTB  00015  K0                1431DES        000000000000 DENSO TEN (THAILAND)                                                                                                                                            *G         20200130 IMCT                IMCT                                                                                                                    WMF2001303.TXT
MAKK01159227202001N3               89828070300P3YK20200214000060SPEAKER ASM                   M IMCTM CM1    TNTH  09020IMKDC KA PTB  00015  K0                0231NES        000000000000 DENSO TEN (THAILAND)                                                                                                                                            *G         20200130 IMCT                IMCT                                                                                                                    WMF2001303.TXT
MAKK01159228202001N3               89828070300P3YK20200215000060SPEAKER ASM                   M IMCTM CM1    TNTH  09020IMKDC KA PTB  00015  K0                0231NES        000000000000 DENSO TEN (THAILAND)                                                                                                                                            *G         20200130 IMCT                IMCT                                                                                                                    WMF2001303.TXT
MAKK01159229202001D3               89828070300P3YK20200215000090SPEAKER ASM                   M IMCTM CM1    TNTH  09020IMKDC KA PTB  00015  K0                1431DES        000000000000 DENSO TEN (THAILAND)                                                                                                                                            *G         20200130 IMCT                IMCT                                                                                                                    WMF2001303.TXT
MAKK01159230202001N3               89828070300P3YK20200216000090SPEAKER ASM                   M IMCTM CM1    TNTH  09020IMKDC KA PTB  00015  K0                0231NES        000000000000 DENSO TEN (THAILAND)                                                                                                                                            *G         20200130 IMCT                IMCT                                                                                                                    WMF2001303.TXT
MAKK01159231202001N3               89831228410P3YK20200215000015RADIO;AM/FM,CD                M IMCTM CM1    TNTH  09020IMKDC KA   CPB00003  K0                0231NES        000000000000 DENSO TEN (THAILAND)                                                                                                                                            *G         20200130 IMCT                IMCT                                                                                                                    WMF2001303.TXT
