REC2020011720200117ISUZU                              4      
MDEBL1T06303202001                D89828070100PT4B20200122000030SPEAKER ASM                   M IMCTM S7FL05 TNTH  09020IMCT  S7 PTB  00004                    0400 SR        000000000000 DENSO TEN (THAILAND)190F63R0064   190F65R0132   Z200102601    Z200102615    000000                                                                              *R         20200117 IMCT                IMCT                                                                                                                    RMF2001178.TXT
MDEBL1T06304202001                D89828070200PV4B20200122000030SPEAKER ASM                   M IMCTM S7FL05 TNTH  09020IMCT  S7 PTB  00005                    0400 SR        000000000000 DENSO TEN (THAILAND)190F63R0064   190F65R0132   Z200102601    Z200102615    000000                                                                              *R         20200117 IMCT                IMCT                                                                                                                    RMF2001178.TXT
MDEBL1T06305202001                D89828070300PT4B20200122000030SPEAKER ASM                   M IMCTM S7TS02 TNTH  09020IMCT  S7 PTB  00015                    0400 SR        000000000000 DENSO TEN (THAILAND)190F63R0064   190F65R0132   Z200102601    Z200102615    000000                                                                              *R         20200117 IMCT                IMCT                                                                                                                    RMF2001178.TXT
MDEBL1T06306202001                D89838432900PT4B20200122000014RADIO;ASM DVD                 M IMCTM S7TS01 TNTH  09020IMCT  S7 PTB  00003                    0400 SR        000000000000 DENSO TEN (THAILAND)190F65R0119   190F65R0132   Z200102602    Z200102615    000000                                                                              *R         20200117 IMCT                IMCT                                                                                                                    RMF2001178.TXT
