REC2020010920200109ISUZU                              38     
MAKK01072349202001N3               89825451200P3YK20200121000030SPEAKER ASM;ROOF              M IMCTM CM1    TNTH  09020IMKDC KA PTB  00036  K0                0231NES        000000000000 DENSO TEN (THAILAND)                                                                                                                                            *G         20200109 IMCT                IMCT                                                                                                                    WMF2001098.TXT
MAKK01072350202001N3               89825451200P3YK20200122000030SPEAKER ASM;ROOF              M IMCTM CM1    TNTH  09020IMKDC KA PTB  00036  K0                0231NES        000000000000 DENSO TEN (THAILAND)                                                                                                                                            *G         20200109 IMCT                IMCT                                                                                                                    WMF2001098.TXT
MAKK01072351202001D3               89825451200P3YK20200123000030SPEAKER ASM;ROOF              M IMCTM CM1    TNTH  09020IMKDC KA PTB  00036  K0                1431DES        000000000000 DENSO TEN (THAILAND)                                                                                                                                            *G         20200109 IMCT                IMCT                                                                                                                    WMF2001098.TXT
MAKK01072352202001N3               89825451200P3YK20200124000030SPEAKER ASM;ROOF              M IMCTM CM1    TNTH  09020IMKDC KA PTB  00036  K0                0231NES        000000000000 DENSO TEN (THAILAND)                                                                                                                                            *G         20200109 IMCT                IMCT                                                                                                                    WMF2001098.TXT
MAKK01072353202001D3               89828070100P3YK20200120000120SPEAKER ASM                   M IMCTM CM1    TNTH  09020IMKDC KA PTB  00004  K0                1431DES        000000000000 DENSO TEN (THAILAND)                                                                                                                                            *G         20200109 IMCT                IMCT                                                                                                                    WMF2001098.TXT
MAKK01072354202001N3               89828070100P3YK20200121000090SPEAKER ASM                   M IMCTM CM1    TNTH  09020IMKDC KA PTB  00004  K0                0231NES        000000000000 DENSO TEN (THAILAND)                                                                                                                                            *G         20200109 IMCT                IMCT                                                                                                                    WMF2001098.TXT
MAKK01072355202001D3               89828070100P3YK20200121000150SPEAKER ASM                   M IMCTM CM1    TNTH  09020IMKDC KA PTB  00004  K0                1431DES        000000000000 DENSO TEN (THAILAND)                                                                                                                                            *G         20200109 IMCT                IMCT                                                                                                                    WMF2001098.TXT
MAKK01072356202001N3               89828070100P3YK20200122000120SPEAKER ASM                   M IMCTM CM1    TNTH  09020IMKDC KA PTB  00004  K0                0231NES        000000000000 DENSO TEN (THAILAND)                                                                                                                                            *G         20200109 IMCT                IMCT                                                                                                                    WMF2001098.TXT
MAKK01072357202001D3               89828070100P3YK20200122000120SPEAKER ASM                   M IMCTM CM1    TNTH  09020IMKDC KA PTB  00004  K0                1431DES        000000000000 DENSO TEN (THAILAND)                                                                                                                                            *G         20200109 IMCT                IMCT                                                                                                                    WMF2001098.TXT
MAKK01072358202001N3               89828070100P3YK20200123000120SPEAKER ASM                   M IMCTM CM1    TNTH  09020IMKDC KA PTB  00004  K0                0231NES        000000000000 DENSO TEN (THAILAND)                                                                                                                                            *G         20200109 IMCT                IMCT                                                                                                                    WMF2001098.TXT
MAKK01072359202001D3               89828070100P3YK20200123000090SPEAKER ASM                   M IMCTM CM1    TNTH  09020IMKDC KA PTB  00004  K0                1431DES        000000000000 DENSO TEN (THAILAND)                                                                                                                                            *G         20200109 IMCT                IMCT                                                                                                                    WMF2001098.TXT
MAKK01072360202001N3               89828070100P3YK20200124000120SPEAKER ASM                   M IMCTM CM1    TNTH  09020IMKDC KA PTB  00004  K0                0231NES        000000000000 DENSO TEN (THAILAND)                                                                                                                                            *G         20200109 IMCT                IMCT                                                                                                                    WMF2001098.TXT
MAKK01072361202001D3               89828070100P3YK20200124000150SPEAKER ASM                   M IMCTM CM1    TNTH  09020IMKDC KA PTB  00004  K0                1431DES        000000000000 DENSO TEN (THAILAND)                                                                                                                                            *G         20200109 IMCT                IMCT                                                                                                                    WMF2001098.TXT
MAKK01072362202001N3               89828070100P3YK20200125000150SPEAKER ASM                   M IMCTM CM1    TNTH  09020IMKDC KA PTB  00004  K0                0231NES        000000000000 DENSO TEN (THAILAND)                                                                                                                                            *G         20200109 IMCT                IMCT                                                                                                                    WMF2001098.TXT
MAKK01072363202001D3               89828070100P3YK20200125000120SPEAKER ASM                   M IMCTM CM1    TNTH  09020IMKDC KA PTB  00004  K0                1431DES        000000000000 DENSO TEN (THAILAND)                                                                                                                                            *G         20200109 IMCT                IMCT                                                                                                                    WMF2001098.TXT
MAKK01072364202001N3               89828070100P3YK20200126000120SPEAKER ASM                   M IMCTM CM1    TNTH  09020IMKDC KA PTB  00004  K0                0231NES        000000000000 DENSO TEN (THAILAND)                                                                                                                                            *G         20200109 IMCT                IMCT                                                                                                                    WMF2001098.TXT
MAKK01072365202001D3               89828070200P3YK20200120000060SPEAKER ASM                   M IMCTM CM1    TNTH  09020IMKDC KA PTB  00005  K0                1431DES        000000000000 DENSO TEN (THAILAND)                                                                                                                                            *G         20200109 IMCT                IMCT                                                                                                                    WMF2001098.TXT
MAKK01072366202001N3               89828070200P3YK20200121000030SPEAKER ASM                   M IMCTM CM1    TNTH  09020IMKDC KA PTB  00005  K0                0231NES        000000000000 DENSO TEN (THAILAND)                                                                                                                                            *G         20200109 IMCT                IMCT                                                                                                                    WMF2001098.TXT
MAKK01072367202001D3               89828070200P3YK20200121000060SPEAKER ASM                   M IMCTM CM1    TNTH  09020IMKDC KA PTB  00005  K0                1431DES        000000000000 DENSO TEN (THAILAND)                                                                                                                                            *G         20200109 IMCT                IMCT                                                                                                                    WMF2001098.TXT
MAKK01072368202001N3               89828070200P3YK20200122000030SPEAKER ASM                   M IMCTM CM1    TNTH  09020IMKDC KA PTB  00005  K0                0231NES        000000000000 DENSO TEN (THAILAND)                                                                                                                                            *G         20200109 IMCT                IMCT                                                                                                                    WMF2001098.TXT
MAKK01072369202001D3               89828070200P3YK20200122000060SPEAKER ASM                   M IMCTM CM1    TNTH  09020IMKDC KA PTB  00005  K0                1431DES        000000000000 DENSO TEN (THAILAND)                                                                                                                                            *G         20200109 IMCT                IMCT                                                                                                                    WMF2001098.TXT
MAKK01072370202001D3               89828070200P3YK20200123000060SPEAKER ASM                   M IMCTM CM1    TNTH  09020IMKDC KA PTB  00005  K0                1431DES        000000000000 DENSO TEN (THAILAND)                                                                                                                                            *G         20200109 IMCT                IMCT                                                                                                                    WMF2001098.TXT
MAKK01072371202001N3               89828070200P3YK20200124000030SPEAKER ASM                   M IMCTM CM1    TNTH  09020IMKDC KA PTB  00005  K0                0231NES        000000000000 DENSO TEN (THAILAND)                                                                                                                                            *G         20200109 IMCT                IMCT                                                                                                                    WMF2001098.TXT
MAKK01072372202001D3               89828070200P3YK20200124000030SPEAKER ASM                   M IMCTM CM1    TNTH  09020IMKDC KA PTB  00005  K0                1431DES        000000000000 DENSO TEN (THAILAND)                                                                                                                                            *G         20200109 IMCT                IMCT                                                                                                                    WMF2001098.TXT
MAKK01072373202001D3               89828070200P3YK20200125000060SPEAKER ASM                   M IMCTM CM1    TNTH  09020IMKDC KA PTB  00005  K0                1431DES        000000000000 DENSO TEN (THAILAND)                                                                                                                                            *G         20200109 IMCT                IMCT                                                                                                                    WMF2001098.TXT
MAKK01072374202001N3               89828070200P3YK20200126000030SPEAKER ASM                   M IMCTM CM1    TNTH  09020IMKDC KA PTB  00005  K0                0231NES        000000000000 DENSO TEN (THAILAND)                                                                                                                                            *G         20200109 IMCT                IMCT                                                                                                                    WMF2001098.TXT
MAKK01072375202001D3               89828070300P3YK20200120000060SPEAKER ASM                   M IMCTM CM1    TNTH  09020IMKDC KA PTB  00015  K0                1431DES        000000000000 DENSO TEN (THAILAND)                                                                                                                                            *G         20200109 IMCT                IMCT                                                                                                                    WMF2001098.TXT
MAKK01072376202001N3               89828070300P3YK20200121000060SPEAKER ASM                   M IMCTM CM1    TNTH  09020IMKDC KA PTB  00015  K0                0231NES        000000000000 DENSO TEN (THAILAND)                                                                                                                                            *G         20200109 IMCT                IMCT                                                                                                                    WMF2001098.TXT
MAKK01072377202001D3               89828070300P3YK20200121000090SPEAKER ASM                   M IMCTM CM1    TNTH  09020IMKDC KA PTB  00015  K0                1431DES        000000000000 DENSO TEN (THAILAND)                                                                                                                                            *G         20200109 IMCT                IMCT                                                                                                                    WMF2001098.TXT
MAKK01072378202001N3               89828070300P3YK20200122000030SPEAKER ASM                   M IMCTM CM1    TNTH  09020IMKDC KA PTB  00015  K0                0231NES        000000000000 DENSO TEN (THAILAND)                                                                                                                                            *G         20200109 IMCT                IMCT                                                                                                                    WMF2001098.TXT
MAKK01072379202001D3               89828070300P3YK20200122000060SPEAKER ASM                   M IMCTM CM1    TNTH  09020IMKDC KA PTB  00015  K0                1431DES        000000000000 DENSO TEN (THAILAND)                                                                                                                                            *G         20200109 IMCT                IMCT                                                                                                                    WMF2001098.TXT
MAKK01072380202001D3               89828070300P3YK20200123000060SPEAKER ASM                   M IMCTM CM1    TNTH  09020IMKDC KA PTB  00015  K0                1431DES        000000000000 DENSO TEN (THAILAND)                                                                                                                                            *G         20200109 IMCT                IMCT                                                                                                                    WMF2001098.TXT
MAKK01072381202001N3               89828070300P3YK20200124000030SPEAKER ASM                   M IMCTM CM1    TNTH  09020IMKDC KA PTB  00015  K0                0231NES        000000000000 DENSO TEN (THAILAND)                                                                                                                                            *G         20200109 IMCT                IMCT                                                                                                                    WMF2001098.TXT
MAKK01072382202001D3               89828070300P3YK20200124000060SPEAKER ASM                   M IMCTM CM1    TNTH  09020IMKDC KA PTB  00015  K0                1431DES        000000000000 DENSO TEN (THAILAND)                                                                                                                                            *G         20200109 IMCT                IMCT                                                                                                                    WMF2001098.TXT
MAKK01072383202001N3               89828070300P3YK20200125000060SPEAKER ASM                   M IMCTM CM1    TNTH  09020IMKDC KA PTB  00015  K0                0231NES        000000000000 DENSO TEN (THAILAND)                                                                                                                                            *G         20200109 IMCT                IMCT                                                                                                                    WMF2001098.TXT
MAKK01072384202001D3               89828070300P3YK20200125000060SPEAKER ASM                   M IMCTM CM1    TNTH  09020IMKDC KA PTB  00015  K0                1431DES        000000000000 DENSO TEN (THAILAND)                                                                                                                                            *G         20200109 IMCT                IMCT                                                                                                                    WMF2001098.TXT
MAKK01072385202001N3               89828070300P3YK20200126000030SPEAKER ASM                   M IMCTM CM1    TNTH  09020IMKDC KA PTB  00015  K0                0231NES        000000000000 DENSO TEN (THAILAND)                                                                                                                                            *G         20200109 IMCT                IMCT                                                                                                                    WMF2001098.TXT
MAKK01072386202001D3               89831228410P3YK20200120000015RADIO;AM/FM,CD                M IMCTM CM1    TNTH  09020IMKDC KA   CPB00003  K0                1431DES        000000000000 DENSO TEN (THAILAND)                                                                                                                                            *G         20200109 IMCT                IMCT                                                                                                                    WMF2001098.TXT
