REC2020021220200212ISUZU                              10     
MDEFL2T10041202002                D89828070100PV4F20200217000028SPEAKER ASM                   M IMCTM S7FL05 TNTH  09020IMCT  S7 PTB  00004                    1030 SR        000000000000 DENSO TEN (THAILAND)190K04R0093   190L48R0030   D200203402    D200203415    000000                                                                              *R         20200212 IMCT                IMCT                                                                                                                    RMF2002125.TXT
MDEFL2T10042202002                D89828070200PV4F20200217000030SPEAKER ASM                   M IMCTM S7FL05 TNTH  09020IMCT  S7 PTB  00005                    1030 SR        000000000000 DENSO TEN (THAILAND)190K04R0092   190L48R0030   D200203401    D200203415    000000                                                                              *R         20200212 IMCT                IMCT                                                                                                                    RMF2002125.TXT
MDEFL2T10043202002                D89828070300PT4F20200217000030SPEAKER ASM                   M IMCTM S7TS02 TNTH  09020IMCT  S7 PTB  00015                    1030 SR        000000000000 DENSO TEN (THAILAND)190K04R0092   190L48R0030   D200203401    D200203415    000000                                                                              *R         20200212 IMCT                IMCT                                                                                                                    RMF2002125.TXT
MDEFL2T10044202002                D89838031200PT4F20200217000005RADIO;ASM DVD                 M IMCTM S7TS03 TNTH  09020IMCT  S7 PTB  00003                    1030 SR        000000000000 DENSO TEN (THAILAND)190K04R0092   190K04R0096   D200203401    D200203405    000000                                                                              *R         20200212 IMCT                IMCT                                                                                                                    RMF2002125.TXT
MDEFL2227447202002                D89828070100PV4F20200215000004SPEAKER ASM                   M IMCTM S7FL05 TNTH  09020IMCT  S7 PTB  00004                    2100 SR        000000000000 DENSO TEN (THAILAND)190G64R0085   190L49R0031   D200203301    D200203302    000000                                                                              *R         20200212 IMCT                IMCT                                                                                                                    RMF2002125.TXT
MDEFL2227448202002                D89828070100PV4F20200215000028SPEAKER ASM                   M IMCTM S7FL05 TNTH  09020IMCT  S7 PTB  00004                    2230 SR        000000000000 DENSO TEN (THAILAND)190L49R0032   190K04R0092   D200203303    D200203401    000000                                                                              *R         20200212 IMCT                IMCT                                                                                                                    RMF2002125.TXT
MDEFL2227449202002                D89828070200PV4F20200215000005SPEAKER ASM                   M IMCTM S7FL05 TNTH  09020IMCT  S7 PTB  00005                    2100 SR        000000000000 DENSO TEN (THAILAND)190G64R0085   190L49R0032   D200203301    D200203303    000000                                                                              *R         20200212 IMCT                IMCT                                                                                                                    RMF2002125.TXT
MDEFL2227450202002                D89828070200PV4F20200215000025SPEAKER ASM                   M IMCTM S7FL05 TNTH  09020IMCT  S7 PTB  00005                    2230 SR        000000000000 DENSO TEN (THAILAND)190L49R0032   190G64R0097   D200203303    D200203315    000000                                                                              *R         20200212 IMCT                IMCT                                                                                                                    RMF2002125.TXT
MDEFL2227451202002                D89828070300PT4F20200215000015SPEAKER ASM                   M IMCTM S7TS02 TNTH  09020IMCT  S7 PTB  00015                    2100 SR        000000000000 DENSO TEN (THAILAND)190G64R0085   190G64R0090   D200203301    D200203308    000000                                                                              *R         20200212 IMCT                IMCT                                                                                                                    RMF2002125.TXT
MDEFL2227452202002                D89828070300PT4F20200215000015SPEAKER ASM                   M IMCTM S7TS02 TNTH  09020IMCT  S7 PTB  00015                    2230 SR        000000000000 DENSO TEN (THAILAND)190G64R0090   190G64R0097   D200203308    D200203315    000000                                                                              *R         20200212 IMCT                IMCT                                                                                                                    RMF2002125.TXT
