REC2020021320200213ISUZU                              9      
MDEFL2T11151202002                D89828070100PV4F20200218000030SPEAKER ASM                   M IMCTM S7FL05 TNTH  09020IMCT  S7 PTB  00004                    1300 SR        000000000000 DENSO TEN (THAILAND)190D89R0100   190J92R0124   R200203701    R200203715    000000                                                                              *R         20200213 IMCT                IMCT                                                                                                                    RMF2002137.TXT
MDEFL2T11152202002                D89828070200PV4F20200218000024SPEAKER ASM                   M IMCTM S7FL05 TNTH  09020IMCT  S7 PTB  00005                    0830 SR        000000000000 DENSO TEN (THAILAND)190D39R0057   190D41R0071   D200203603    D200203615    000000                                                                              *R         20200213 IMCT                IMCT                                                                                                                    RMF2002137.TXT
MDEFL2T11153202002                D89828070300PT4F20200218000003SPEAKER ASM                   M IMCTM S7TS02 TNTH  09020IMCT  S7 PTB  00015                    1300 SR        000000000000 DENSO TEN (THAILAND)190J92R0123   190J92R0124   R200203714    R200203715    000000                                                                              *R         20200213 IMCT                IMCT                                                                                                                    RMF2002137.TXT
MDEFL2T11154202002                D89831229210PT4F20200218000002RADIO;AM/FM,CD                M IMCTM S7U137 TNTH  09020IMCT  S7 PTB  00003                    1300 SR        000000000000 DENSO TEN (THAILAND)190J92R0123   190J92R0124   R200203714    R200203715    000000                                                                              *R         20200213 IMCT                IMCT                                                                                                                    RMF2002137.TXT
MDEFL2230729202002                D89828070100PV4F20200217000032SPEAKER ASM                   M IMCTM S7FL05 TNTH  09020IMCT  S7 PTB  00004                    2100 SR        000000000000 DENSO TEN (THAILAND)190D37R0026   190D39R0055   D200203501    D200203601    000000                                                                              *R         20200213 IMCT                IMCT                                                                                                                    RMF2002137.TXT
MDEFL2230730202002                D89828070100PV4F20200218000028SPEAKER ASM                   M IMCTM S7FL05 TNTH  09020IMCT  S7 PTB  00004                    0830 SR        000000000000 DENSO TEN (THAILAND)190D39R0056   190D41R0071   D200203602    D200203615    000000                                                                              *R         20200213 IMCT                IMCT                                                                                                                    RMF2002137.TXT
MDEFL2230731202002                D89828070200PV4F20200217000020SPEAKER ASM                   M IMCTM S7FL05 TNTH  09020IMCT  S7 PTB  00005                    2100 SR        000000000000 DENSO TEN (THAILAND)190D41R0063   190D39R0056   D200203506    D200203602    000000                                                                              *R         20200213 IMCT                IMCT                                                                                                                    RMF2002137.TXT
MDEFL2230732202002                D89828070300PT4F20200217000030SPEAKER ASM                   M IMCTM S7TS02 TNTH  09020IMCT  S7 PTB  00015                    2100 SR        000000000000 DENSO TEN (THAILAND)190D41R0063   190N25R0004   D200203506    D200203607    000000                                                                              *R         20200213 IMCT                IMCT                                                                                                                    RMF2002137.TXT
MDEFL2230733202002                D89828070300PT4F20200218000015SPEAKER ASM                   M IMCTM S7TS02 TNTH  09020IMCT  S7 PTB  00015                    0830 SR        000000000000 DENSO TEN (THAILAND)190N25R0005   190J92R0123   D200203608    R200203714    000000                                                                              *R         20200213 IMCT                IMCT                                                                                                                    RMF2002137.TXT
