REC2020022720200227ISUZU                              43     
MAKK02149480202002D3               89825451200P3YK20200310000030SPEAKER ASM;ROOF              M IMCTM CM1    TNTH  09020IMKDC KA PTB  00036  K0                1431DES        000000000000 DENSO TEN (THAILAND)                                                                                                                                            *G         20200227 IMCT                IMCT                                                                                                                    WMF2002277.TXT
MAKK02149481202002N3               89825451200P3YK20200311000030SPEAKER ASM;ROOF              M IMCTM CM1    TNTH  09020IMKDC KA PTB  00036  K0                0231NES        000000000000 DENSO TEN (THAILAND)                                                                                                                                            *G         20200227 IMCT                IMCT                                                                                                                    WMF2002277.TXT
MAKK02149482202002N3               89825451200P3YK20200312000030SPEAKER ASM;ROOF              M IMCTM CM1    TNTH  09020IMKDC KA PTB  00036  K0                0231NES        000000000000 DENSO TEN (THAILAND)                                                                                                                                            *G         20200227 IMCT                IMCT                                                                                                                    WMF2002277.TXT
MAKK02149483202002D3               89825451200P3YK20200312000030SPEAKER ASM;ROOF              M IMCTM CM1    TNTH  09020IMKDC KA PTB  00036  K0                1431DES        000000000000 DENSO TEN (THAILAND)                                                                                                                                            *G         20200227 IMCT                IMCT                                                                                                                    WMF2002277.TXT
MAKK02149484202002N3               89825451200P3YK20200313000030SPEAKER ASM;ROOF              M IMCTM CM1    TNTH  09020IMKDC KA PTB  00036  K0                0231NES        000000000000 DENSO TEN (THAILAND)                                                                                                                                            *G         20200227 IMCT                IMCT                                                                                                                    WMF2002277.TXT
MAKK02149485202002N3               89825451200P3YK20200314000090SPEAKER ASM;ROOF              M IMCTM CM1    TNTH  09020IMKDC KA PTB  00036  K0                0231NES        000000000000 DENSO TEN (THAILAND)                                                                                                                                            *G         20200227 IMCT                IMCT                                                                                                                    WMF2002277.TXT
MAKK02149486202002D3               89825451200P3YK20200314000060SPEAKER ASM;ROOF              M IMCTM CM1    TNTH  09020IMKDC KA PTB  00036  K0                1431DES        000000000000 DENSO TEN (THAILAND)                                                                                                                                            *G         20200227 IMCT                IMCT                                                                                                                    WMF2002277.TXT
MAKK02149487202002D3               89828070100P3YK20200309000210SPEAKER ASM                   M IMCTM CM1    TNTH  09020IMKDC KA PTB  00004  K0                1431DES        000000000000 DENSO TEN (THAILAND)                                                                                                                                            *G         20200227 IMCT                IMCT                                                                                                                    WMF2002277.TXT
MAKK02149488202002N3               89828070100P3YK20200310000180SPEAKER ASM                   M IMCTM CM1    TNTH  09020IMKDC KA PTB  00004  K0                0231NES        000000000000 DENSO TEN (THAILAND)                                                                                                                                            *G         20200227 IMCT                IMCT                                                                                                                    WMF2002277.TXT
MAKK02149489202002D3               89828070100P3YK20200310000120SPEAKER ASM                   M IMCTM CM1    TNTH  09020IMKDC KA PTB  00004  K0                1431DES        000000000000 DENSO TEN (THAILAND)                                                                                                                                            *G         20200227 IMCT                IMCT                                                                                                                    WMF2002277.TXT
MAKK02149490202002N3               89828070100P3YK20200311000180SPEAKER ASM                   M IMCTM CM1    TNTH  09020IMKDC KA PTB  00004  K0                0231NES        000000000000 DENSO TEN (THAILAND)                                                                                                                                            *G         20200227 IMCT                IMCT                                                                                                                    WMF2002277.TXT
MAKK02149491202002D3               89828070100P3YK20200311000180SPEAKER ASM                   M IMCTM CM1    TNTH  09020IMKDC KA PTB  00004  K0                1431DES        000000000000 DENSO TEN (THAILAND)                                                                                                                                            *G         20200227 IMCT                IMCT                                                                                                                    WMF2002277.TXT
MAKK02149492202002N3               89828070100P3YK20200312000180SPEAKER ASM                   M IMCTM CM1    TNTH  09020IMKDC KA PTB  00004  K0                0231NES        000000000000 DENSO TEN (THAILAND)                                                                                                                                            *G         20200227 IMCT                IMCT                                                                                                                    WMF2002277.TXT
MAKK02149493202002D3               89828070100P3YK20200312000150SPEAKER ASM                   M IMCTM CM1    TNTH  09020IMKDC KA PTB  00004  K0                1431DES        000000000000 DENSO TEN (THAILAND)                                                                                                                                            *G         20200227 IMCT                IMCT                                                                                                                    WMF2002277.TXT
MAKK02149494202002N3               89828070100P3YK20200313000150SPEAKER ASM                   M IMCTM CM1    TNTH  09020IMKDC KA PTB  00004  K0                0231NES        000000000000 DENSO TEN (THAILAND)                                                                                                                                            *G         20200227 IMCT                IMCT                                                                                                                    WMF2002277.TXT
MAKK02149495202002D3               89828070100P3YK20200313000180SPEAKER ASM                   M IMCTM CM1    TNTH  09020IMKDC KA PTB  00004  K0                1431DES        000000000000 DENSO TEN (THAILAND)                                                                                                                                            *G         20200227 IMCT                IMCT                                                                                                                    WMF2002277.TXT
MAKK02149496202002N3               89828070100P3YK20200314000180SPEAKER ASM                   M IMCTM CM1    TNTH  09020IMKDC KA PTB  00004  K0                0231NES        000000000000 DENSO TEN (THAILAND)                                                                                                                                            *G         20200227 IMCT                IMCT                                                                                                                    WMF2002277.TXT
MAKK02149497202002D3               89828070100P3YK20200314000180SPEAKER ASM                   M IMCTM CM1    TNTH  09020IMKDC KA PTB  00004  K0                1431DES        000000000000 DENSO TEN (THAILAND)                                                                                                                                            *G         20200227 IMCT                IMCT                                                                                                                    WMF2002277.TXT
MAKK02149498202002N3               89828070100P3YK20200315000150SPEAKER ASM                   M IMCTM CM1    TNTH  09020IMKDC KA PTB  00004  K0                0231NES        000000000000 DENSO TEN (THAILAND)                                                                                                                                            *G         20200227 IMCT                IMCT                                                                                                                    WMF2002277.TXT
MAKK02149499202002D3               89828070200P3YK20200309000030SPEAKER ASM                   M IMCTM CM1    TNTH  09020IMKDC KA PTB  00005  K0                1431DES        000000000000 DENSO TEN (THAILAND)                                                                                                                                            *G         20200227 IMCT                IMCT                                                                                                                    WMF2002277.TXT
MAKK02149500202002N3               89828070200P3YK20200310000090SPEAKER ASM                   M IMCTM CM1    TNTH  09020IMKDC KA PTB  00005  K0                0231NES        000000000000 DENSO TEN (THAILAND)                                                                                                                                            *G         20200227 IMCT                IMCT                                                                                                                    WMF2002277.TXT
MAKK02149501202002N3               89828070200P3YK20200311000090SPEAKER ASM                   M IMCTM CM1    TNTH  09020IMKDC KA PTB  00005  K0                0231NES        000000000000 DENSO TEN (THAILAND)                                                                                                                                            *G         20200227 IMCT                IMCT                                                                                                                    WMF2002277.TXT
MAKK02149502202002D3               89828070200P3YK20200311000060SPEAKER ASM                   M IMCTM CM1    TNTH  09020IMKDC KA PTB  00005  K0                1431DES        000000000000 DENSO TEN (THAILAND)                                                                                                                                            *G         20200227 IMCT                IMCT                                                                                                                    WMF2002277.TXT
MAKK02149503202002N3               89828070200P3YK20200312000060SPEAKER ASM                   M IMCTM CM1    TNTH  09020IMKDC KA PTB  00005  K0                0231NES        000000000000 DENSO TEN (THAILAND)                                                                                                                                            *G         20200227 IMCT                IMCT                                                                                                                    WMF2002277.TXT
MAKK02149504202002D3               89828070200P3YK20200312000090SPEAKER ASM                   M IMCTM CM1    TNTH  09020IMKDC KA PTB  00005  K0                1431DES        000000000000 DENSO TEN (THAILAND)                                                                                                                                            *G         20200227 IMCT                IMCT                                                                                                                    WMF2002277.TXT
MAKK02149505202002D3               89828070200P3YK20200313000030SPEAKER ASM                   M IMCTM CM1    TNTH  09020IMKDC KA PTB  00005  K0                1431DES        000000000000 DENSO TEN (THAILAND)                                                                                                                                            *G         20200227 IMCT                IMCT                                                                                                                    WMF2002277.TXT
MAKK02149506202002N3               89828070200P3YK20200314000090SPEAKER ASM                   M IMCTM CM1    TNTH  09020IMKDC KA PTB  00005  K0                0231NES        000000000000 DENSO TEN (THAILAND)                                                                                                                                            *G         20200227 IMCT                IMCT                                                                                                                    WMF2002277.TXT
MAKK02149507202002D3               89828070200P3YK20200314000090SPEAKER ASM                   M IMCTM CM1    TNTH  09020IMKDC KA PTB  00005  K0                1431DES        000000000000 DENSO TEN (THAILAND)                                                                                                                                            *G         20200227 IMCT                IMCT                                                                                                                    WMF2002277.TXT
MAKK02149508202002N3               89828070200P3YK20200315000090SPEAKER ASM                   M IMCTM CM1    TNTH  09020IMKDC KA PTB  00005  K0                0231NES        000000000000 DENSO TEN (THAILAND)                                                                                                                                            *G         20200227 IMCT                IMCT                                                                                                                    WMF2002277.TXT
MAKK02149509202002D3               89828070300P3YK20200309000090SPEAKER ASM                   M IMCTM CM1    TNTH  09020IMKDC KA PTB  00015  K0                1431DES        000000000000 DENSO TEN (THAILAND)                                                                                                                                            *G         20200227 IMCT                IMCT                                                                                                                    WMF2002277.TXT
MAKK02149510202002N3               89828070300P3YK20200310000120SPEAKER ASM                   M IMCTM CM1    TNTH  09020IMKDC KA PTB  00015  K0                0231NES        000000000000 DENSO TEN (THAILAND)                                                                                                                                            *G         20200227 IMCT                IMCT                                                                                                                    WMF2002277.TXT
MAKK02149511202002N3               89828070300P3YK20200311000090SPEAKER ASM                   M IMCTM CM1    TNTH  09020IMKDC KA PTB  00015  K0                0231NES        000000000000 DENSO TEN (THAILAND)                                                                                                                                            *G         20200227 IMCT                IMCT                                                                                                                    WMF2002277.TXT
MAKK02149512202002D3               89828070300P3YK20200311000060SPEAKER ASM                   M IMCTM CM1    TNTH  09020IMKDC KA PTB  00015  K0                1431DES        000000000000 DENSO TEN (THAILAND)                                                                                                                                            *G         20200227 IMCT                IMCT                                                                                                                    WMF2002277.TXT
MAKK02149513202002N3               89828070300P3YK20200312000060SPEAKER ASM                   M IMCTM CM1    TNTH  09020IMKDC KA PTB  00015  K0                0231NES        000000000000 DENSO TEN (THAILAND)                                                                                                                                            *G         20200227 IMCT                IMCT                                                                                                                    WMF2002277.TXT
MAKK02149514202002D3               89828070300P3YK20200312000090SPEAKER ASM                   M IMCTM CM1    TNTH  09020IMKDC KA PTB  00015  K0                1431DES        000000000000 DENSO TEN (THAILAND)                                                                                                                                            *G         20200227 IMCT                IMCT                                                                                                                    WMF2002277.TXT
MAKK02149515202002N3               89828070300P3YK20200313000060SPEAKER ASM                   M IMCTM CM1    TNTH  09020IMKDC KA PTB  00015  K0                0231NES        000000000000 DENSO TEN (THAILAND)                                                                                                                                            *G         20200227 IMCT                IMCT                                                                                                                    WMF2002277.TXT
MAKK02149516202002D3               89828070300P3YK20200313000060SPEAKER ASM                   M IMCTM CM1    TNTH  09020IMKDC KA PTB  00015  K0                1431DES        000000000000 DENSO TEN (THAILAND)                                                                                                                                            *G         20200227 IMCT                IMCT                                                                                                                    WMF2002277.TXT
MAKK02149517202002N3               89828070300P3YK20200314000090SPEAKER ASM                   M IMCTM CM1    TNTH  09020IMKDC KA PTB  00015  K0                0231NES        000000000000 DENSO TEN (THAILAND)                                                                                                                                            *G         20200227 IMCT                IMCT                                                                                                                    WMF2002277.TXT
MAKK02149518202002D3               89828070300P3YK20200314000120SPEAKER ASM                   M IMCTM CM1    TNTH  09020IMKDC KA PTB  00015  K0                1431DES        000000000000 DENSO TEN (THAILAND)                                                                                                                                            *G         20200227 IMCT                IMCT                                                                                                                    WMF2002277.TXT
MAKK02149519202002N3               89828070300P3YK20200315000090SPEAKER ASM                   M IMCTM CM1    TNTH  09020IMKDC KA PTB  00015  K0                0231NES        000000000000 DENSO TEN (THAILAND)                                                                                                                                            *G         20200227 IMCT                IMCT                                                                                                                    WMF2002277.TXT
MAKK02149520202002D3               89831228410P3YK20200312000015RADIO;AM/FM,CD                M IMCTM CM1    TNTH  09020IMKDC KA   CPB00003  K0                1431DES        000000000000 DENSO TEN (THAILAND)                                                                                                                                            *G         20200227 IMCT                IMCT                                                                                                                    WMF2002277.TXT
MAKK02157534202002D3               89828070100P3YK20200310000030SPEAKER ASM                   M IMCTM PK3    TNTH  09020IMKDC KA PTB  00004  K0                1431DES        000000000000 DENSO TEN (THAILAND)                                                                                                                                            *G         20200227 IMCT                IMCT                                                                                                                    WMF2002277.TXT
MAKK02157535202002D3               89828070200P3YK20200310000030SPEAKER ASM                   M IMCTM PK3    TNTH  09020IMKDC KA PTB  00005  K0                1431DES        000000000000 DENSO TEN (THAILAND)                                                                                                                                            *G         20200227 IMCT                IMCT                                                                                                                    WMF2002277.TXT
