REC2020021420200214ISUZU                              5      
MDEFL2T12169202002                D89828070100PV4F20200219000028SPEAKER ASM                   M IMCTM S7FL05 TNTH  09020IMCT  S7 PTB  00004                    1030 SR        000000000000 DENSO TEN (THAILAND)190K08R0114   190K49R0042   S200203902    S200203915    000000                                                                              *R         20200214 IMCT                IMCT                                                                                                                    RMF2002148.TXT
MDEFL2T12170202002                D89828070200PV4F20200218000030SPEAKER ASM                   M IMCTM S7FL05 TNTH  09020IMCT  S7 PTB  00005                    2100 SR        000000000000 DENSO TEN (THAILAND)190K05R0096   190L49R0040   D200203801    D200203815    000000                                                                              *R         20200214 IMCT                IMCT                                                                                                                    RMF2002148.TXT
MDEFL2T12171202002                D89828070300PT4F20200218000030SPEAKER ASM                   M IMCTM S7TS02 TNTH  09020IMCT  S7 PTB  00015                    2100 SR        000000000000 DENSO TEN (THAILAND)190K05R0096   190L49R0040   D200203801    D200203815    000000                                                                              *R         20200214 IMCT                IMCT                                                                                                                    RMF2002148.TXT
MDEFL2T12172202002                D89838031200PT4F20200218000005RADIO;ASM DVD                 M IMCTM S7TS03 TNTH  09020IMCT  S7 PTB  00003                    2100 SR        000000000000 DENSO TEN (THAILAND)190K05R0096   190K05R0100   D200203801    D200203805    000000                                                                              *R         20200214 IMCT                IMCT                                                                                                                    RMF2002148.TXT
MDEFL2233164202002                D89828070100PV4F20200218000032SPEAKER ASM                   M IMCTM S7FL05 TNTH  09020IMCT  S7 PTB  00004                    2100 SR        000000000000 DENSO TEN (THAILAND)190K05R0096   190K08R0113   D200203801    S200203901    000000                                                                              *R         20200214 IMCT                IMCT                                                                                                                    RMF2002148.TXT
