REC2020021320200213ISUZU                              27     
MAKK02094376202002N3               89825451200P3YK20200226000030SPEAKER ASM;ROOF              M IMCTM CM1    TNTH  09020IMKDC KA PTB  00036  K0                0231NES        000000000000 DENSO TEN (THAILAND)                                                                                                                                            *G         20200213 IMCT                IMCT                                                                                                                    WMF2002134.TXT
MAKK02094377202002D3               89825451200P3YK20200227000030SPEAKER ASM;ROOF              M IMCTM CM1    TNTH  09020IMKDC KA PTB  00036  K0                1431DES        000000000000 DENSO TEN (THAILAND)                                                                                                                                            *G         20200213 IMCT                IMCT                                                                                                                    WMF2002134.TXT
MAKK02094378202002N3               89825451200P3YK20200228000030SPEAKER ASM;ROOF              M IMCTM CM1    TNTH  09020IMKDC KA PTB  00036  K0                0231NES        000000000000 DENSO TEN (THAILAND)                                                                                                                                            *G         20200213 IMCT                IMCT                                                                                                                    WMF2002134.TXT
MAKK02094379202002D3               89825451200P3YK20200228000030SPEAKER ASM;ROOF              M IMCTM CM1    TNTH  09020IMKDC KA PTB  00036  K0                1431DES        000000000000 DENSO TEN (THAILAND)                                                                                                                                            *G         20200213 IMCT                IMCT                                                                                                                    WMF2002134.TXT
MAKK02094380202002D3               89828070100P3YK20200224000180SPEAKER ASM                   M IMCTM CM1    TNTH  09020IMKDC KA PTB  00004  K0                1431DES        000000000000 DENSO TEN (THAILAND)                                                                                                                                            *G         20200213 IMCT                IMCT                                                                                                                    WMF2002134.TXT
MAKK02094381202002N3               89828070100P3YK20200225000150SPEAKER ASM                   M IMCTM CM1    TNTH  09020IMKDC KA PTB  00004  K0                0231NES        000000000000 DENSO TEN (THAILAND)                                                                                                                                            *G         20200213 IMCT                IMCT                                                                                                                    WMF2002134.TXT
MAKK02094382202002D3               89828070100P3YK20200225000150SPEAKER ASM                   M IMCTM CM1    TNTH  09020IMKDC KA PTB  00004  K0                1431DES        000000000000 DENSO TEN (THAILAND)                                                                                                                                            *G         20200213 IMCT                IMCT                                                                                                                    WMF2002134.TXT
MAKK02094383202002N3               89828070100P3YK20200226000120SPEAKER ASM                   M IMCTM CM1    TNTH  09020IMKDC KA PTB  00004  K0                0231NES        000000000000 DENSO TEN (THAILAND)                                                                                                                                            *G         20200213 IMCT                IMCT                                                                                                                    WMF2002134.TXT
MAKK02094384202002D3               89828070100P3YK20200226000120SPEAKER ASM                   M IMCTM CM1    TNTH  09020IMKDC KA PTB  00004  K0                1431DES        000000000000 DENSO TEN (THAILAND)                                                                                                                                            *G         20200213 IMCT                IMCT                                                                                                                    WMF2002134.TXT
MAKK02094385202002N3               89828070100P3YK20200227000150SPEAKER ASM                   M IMCTM CM1    TNTH  09020IMKDC KA PTB  00004  K0                0231NES        000000000000 DENSO TEN (THAILAND)                                                                                                                                            *G         20200213 IMCT                IMCT                                                                                                                    WMF2002134.TXT
MAKK02094386202002D3               89828070100P3YK20200227000090SPEAKER ASM                   M IMCTM CM1    TNTH  09020IMKDC KA PTB  00004  K0                1431DES        000000000000 DENSO TEN (THAILAND)                                                                                                                                            *G         20200213 IMCT                IMCT                                                                                                                    WMF2002134.TXT
MAKK02094387202002N3               89828070100P3YK20200228000060SPEAKER ASM                   M IMCTM CM1    TNTH  09020IMKDC KA PTB  00004  K0                0231NES        000000000000 DENSO TEN (THAILAND)                                                                                                                                            *G         20200213 IMCT                IMCT                                                                                                                    WMF2002134.TXT
MAKK02094388202002D3               89828070100P3YK20200228000060SPEAKER ASM                   M IMCTM CM1    TNTH  09020IMKDC KA PTB  00004  K0                1431DES        000000000000 DENSO TEN (THAILAND)                                                                                                                                            *G         20200213 IMCT                IMCT                                                                                                                    WMF2002134.TXT
MAKK02094389202002D3               89828070200P3YK20200224000060SPEAKER ASM                   M IMCTM CM1    TNTH  09020IMKDC KA PTB  00005  K0                1431DES        000000000000 DENSO TEN (THAILAND)                                                                                                                                            *G         20200213 IMCT                IMCT                                                                                                                    WMF2002134.TXT
MAKK02094390202002N3               89828070200P3YK20200225000030SPEAKER ASM                   M IMCTM CM1    TNTH  09020IMKDC KA PTB  00005  K0                0231NES        000000000000 DENSO TEN (THAILAND)                                                                                                                                            *G         20200213 IMCT                IMCT                                                                                                                    WMF2002134.TXT
MAKK02094391202002D3               89828070200P3YK20200225000060SPEAKER ASM                   M IMCTM CM1    TNTH  09020IMKDC KA PTB  00005  K0                1431DES        000000000000 DENSO TEN (THAILAND)                                                                                                                                            *G         20200213 IMCT                IMCT                                                                                                                    WMF2002134.TXT
MAKK02094392202002D3               89828070200P3YK20200226000030SPEAKER ASM                   M IMCTM CM1    TNTH  09020IMKDC KA PTB  00005  K0                1431DES        000000000000 DENSO TEN (THAILAND)                                                                                                                                            *G         20200213 IMCT                IMCT                                                                                                                    WMF2002134.TXT
MAKK02094393202002N3               89828070200P3YK20200227000060SPEAKER ASM                   M IMCTM CM1    TNTH  09020IMKDC KA PTB  00005  K0                0231NES        000000000000 DENSO TEN (THAILAND)                                                                                                                                            *G         20200213 IMCT                IMCT                                                                                                                    WMF2002134.TXT
MAKK02094394202002N3               89828070200P3YK20200228000060SPEAKER ASM                   M IMCTM CM1    TNTH  09020IMKDC KA PTB  00005  K0                0231NES        000000000000 DENSO TEN (THAILAND)                                                                                                                                            *G         20200213 IMCT                IMCT                                                                                                                    WMF2002134.TXT
MAKK02094395202002D3               89828070200P3YK20200228000030SPEAKER ASM                   M IMCTM CM1    TNTH  09020IMKDC KA PTB  00005  K0                1431DES        000000000000 DENSO TEN (THAILAND)                                                                                                                                            *G         20200213 IMCT                IMCT                                                                                                                    WMF2002134.TXT
MAKK02094396202002D3               89828070300P3YK20200224000060SPEAKER ASM                   M IMCTM CM1    TNTH  09020IMKDC KA PTB  00015  K0                1431DES        000000000000 DENSO TEN (THAILAND)                                                                                                                                            *G         20200213 IMCT                IMCT                                                                                                                    WMF2002134.TXT
MAKK02094397202002N3               89828070300P3YK20200225000030SPEAKER ASM                   M IMCTM CM1    TNTH  09020IMKDC KA PTB  00015  K0                0231NES        000000000000 DENSO TEN (THAILAND)                                                                                                                                            *G         20200213 IMCT                IMCT                                                                                                                    WMF2002134.TXT
MAKK02094398202002D3               89828070300P3YK20200225000060SPEAKER ASM                   M IMCTM CM1    TNTH  09020IMKDC KA PTB  00015  K0                1431DES        000000000000 DENSO TEN (THAILAND)                                                                                                                                            *G         20200213 IMCT                IMCT                                                                                                                    WMF2002134.TXT
MAKK02094399202002D3               89828070300P3YK20200226000030SPEAKER ASM                   M IMCTM CM1    TNTH  09020IMKDC KA PTB  00015  K0                1431DES        000000000000 DENSO TEN (THAILAND)                                                                                                                                            *G         20200213 IMCT                IMCT                                                                                                                    WMF2002134.TXT
MAKK02094400202002N3               89828070300P3YK20200227000060SPEAKER ASM                   M IMCTM CM1    TNTH  09020IMKDC KA PTB  00015  K0                0231NES        000000000000 DENSO TEN (THAILAND)                                                                                                                                            *G         20200213 IMCT                IMCT                                                                                                                    WMF2002134.TXT
MAKK02094401202002N3               89828070300P3YK20200228000060SPEAKER ASM                   M IMCTM CM1    TNTH  09020IMKDC KA PTB  00015  K0                0231NES        000000000000 DENSO TEN (THAILAND)                                                                                                                                            *G         20200213 IMCT                IMCT                                                                                                                    WMF2002134.TXT
MAKK02094402202002D3               89828070300P3YK20200228000030SPEAKER ASM                   M IMCTM CM1    TNTH  09020IMKDC KA PTB  00015  K0                1431DES        000000000000 DENSO TEN (THAILAND)                                                                                                                                            *G         20200213 IMCT                IMCT                                                                                                                    WMF2002134.TXT
