REC2020022020200220ISUZU                              39     
MAKK02120842202002N3               89821984430P3YK20200308000015RADIO;AM/FM,CD                M IMCTM CM1    TNTH  09020IMKDC KA PTB  00005  K0                0231NES        000000000000 DENSO TEN (THAILAND)                                                                                                                                            *G         20200220 IMCT                IMCT                                                                                                                    WMF2002203.TXT
MAKK02120843202002N3               89825451200P3YK20200303000030SPEAKER ASM;ROOF              M IMCTM CM1    TNTH  09020IMKDC KA PTB  00036  K0                0231NES        000000000000 DENSO TEN (THAILAND)                                                                                                                                            *G         20200220 IMCT                IMCT                                                                                                                    WMF2002203.TXT
MAKK02120844202002D3               89825451200P3YK20200305000030SPEAKER ASM;ROOF              M IMCTM CM1    TNTH  09020IMKDC KA PTB  00036  K0                1431DES        000000000000 DENSO TEN (THAILAND)                                                                                                                                            *G         20200220 IMCT                IMCT                                                                                                                    WMF2002203.TXT
MAKK02120845202002D3               89825451200P3YK20200306000030SPEAKER ASM;ROOF              M IMCTM CM1    TNTH  09020IMKDC KA PTB  00036  K0                1431DES        000000000000 DENSO TEN (THAILAND)                                                                                                                                            *G         20200220 IMCT                IMCT                                                                                                                    WMF2002203.TXT
MAKK02120846202002N3               89825451200P3YK20200307000030SPEAKER ASM;ROOF              M IMCTM CM1    TNTH  09020IMKDC KA PTB  00036  K0                0231NES        000000000000 DENSO TEN (THAILAND)                                                                                                                                            *G         20200220 IMCT                IMCT                                                                                                                    WMF2002203.TXT
MAKK02120847202002N3               89825451200P3YK20200308000030SPEAKER ASM;ROOF              M IMCTM CM1    TNTH  09020IMKDC KA PTB  00036  K0                0231NES        000000000000 DENSO TEN (THAILAND)                                                                                                                                            *G         20200220 IMCT                IMCT                                                                                                                    WMF2002203.TXT
MAKK02120848202002N3               89828070100P3YK20200303000120SPEAKER ASM                   M IMCTM CM1    TNTH  09020IMKDC KA PTB  00004  K0                0231NES        000000000000 DENSO TEN (THAILAND)                                                                                                                                            *G         20200220 IMCT                IMCT                                                                                                                    WMF2002203.TXT
MAKK02120849202002D3               89828070100P3YK20200303000090SPEAKER ASM                   M IMCTM CM1    TNTH  09020IMKDC KA PTB  00004  K0                1431DES        000000000000 DENSO TEN (THAILAND)                                                                                                                                            *G         20200220 IMCT                IMCT                                                                                                                    WMF2002203.TXT
MAKK02120850202002N3               89828070100P3YK20200304000120SPEAKER ASM                   M IMCTM CM1    TNTH  09020IMKDC KA PTB  00004  K0                0231NES        000000000000 DENSO TEN (THAILAND)                                                                                                                                            *G         20200220 IMCT                IMCT                                                                                                                    WMF2002203.TXT
MAKK02120851202002D3               89828070100P3YK20200304000120SPEAKER ASM                   M IMCTM CM1    TNTH  09020IMKDC KA PTB  00004  K0                1431DES        000000000000 DENSO TEN (THAILAND)                                                                                                                                            *G         20200220 IMCT                IMCT                                                                                                                    WMF2002203.TXT
MAKK02120852202002N3               89828070100P3YK20200305000150SPEAKER ASM                   M IMCTM CM1    TNTH  09020IMKDC KA PTB  00004  K0                0231NES        000000000000 DENSO TEN (THAILAND)                                                                                                                                            *G         20200220 IMCT                IMCT                                                                                                                    WMF2002203.TXT
MAKK02120853202002D3               89828070100P3YK20200305000090SPEAKER ASM                   M IMCTM CM1    TNTH  09020IMKDC KA PTB  00004  K0                1431DES        000000000000 DENSO TEN (THAILAND)                                                                                                                                            *G         20200220 IMCT                IMCT                                                                                                                    WMF2002203.TXT
MAKK02120854202002N3               89828070100P3YK20200306000120SPEAKER ASM                   M IMCTM CM1    TNTH  09020IMKDC KA PTB  00004  K0                0231NES        000000000000 DENSO TEN (THAILAND)                                                                                                                                            *G         20200220 IMCT                IMCT                                                                                                                    WMF2002203.TXT
MAKK02120855202002D3               89828070100P3YK20200306000090SPEAKER ASM                   M IMCTM CM1    TNTH  09020IMKDC KA PTB  00004  K0                1431DES        000000000000 DENSO TEN (THAILAND)                                                                                                                                            *G         20200220 IMCT                IMCT                                                                                                                    WMF2002203.TXT
MAKK02120856202002N3               89828070100P3YK20200307000090SPEAKER ASM                   M IMCTM CM1    TNTH  09020IMKDC KA PTB  00004  K0                0231NES        000000000000 DENSO TEN (THAILAND)                                                                                                                                            *G         20200220 IMCT                IMCT                                                                                                                    WMF2002203.TXT
MAKK02120857202002D3               89828070100P3YK20200307000150SPEAKER ASM                   M IMCTM CM1    TNTH  09020IMKDC KA PTB  00004  K0                1431DES        000000000000 DENSO TEN (THAILAND)                                                                                                                                            *G         20200220 IMCT                IMCT                                                                                                                    WMF2002203.TXT
MAKK02120858202002N3               89828070100P3YK20200308000210SPEAKER ASM                   M IMCTM CM1    TNTH  09020IMKDC KA PTB  00004  K0                0231NES        000000000000 DENSO TEN (THAILAND)                                                                                                                                            *G         20200220 IMCT                IMCT                                                                                                                    WMF2002203.TXT
MAKK02120859202002N3               89828070200P3YK20200303000030SPEAKER ASM                   M IMCTM CM1    TNTH  09020IMKDC KA PTB  00005  K0                0231NES        000000000000 DENSO TEN (THAILAND)                                                                                                                                            *G         20200220 IMCT                IMCT                                                                                                                    WMF2002203.TXT
MAKK02120860202002D3               89828070200P3YK20200303000030SPEAKER ASM                   M IMCTM CM1    TNTH  09020IMKDC KA PTB  00005  K0                1431DES        000000000000 DENSO TEN (THAILAND)                                                                                                                                            *G         20200220 IMCT                IMCT                                                                                                                    WMF2002203.TXT
MAKK02120861202002N3               89828070200P3YK20200304000030SPEAKER ASM                   M IMCTM CM1    TNTH  09020IMKDC KA PTB  00005  K0                0231NES        000000000000 DENSO TEN (THAILAND)                                                                                                                                            *G         20200220 IMCT                IMCT                                                                                                                    WMF2002203.TXT
MAKK02120862202002D3               89828070200P3YK20200304000030SPEAKER ASM                   M IMCTM CM1    TNTH  09020IMKDC KA PTB  00005  K0                1431DES        000000000000 DENSO TEN (THAILAND)                                                                                                                                            *G         20200220 IMCT                IMCT                                                                                                                    WMF2002203.TXT
MAKK02120863202002N3               89828070200P3YK20200305000090SPEAKER ASM                   M IMCTM CM1    TNTH  09020IMKDC KA PTB  00005  K0                0231NES        000000000000 DENSO TEN (THAILAND)                                                                                                                                            *G         20200220 IMCT                IMCT                                                                                                                    WMF2002203.TXT
MAKK02120864202002D3               89828070200P3YK20200305000030SPEAKER ASM                   M IMCTM CM1    TNTH  09020IMKDC KA PTB  00005  K0                1431DES        000000000000 DENSO TEN (THAILAND)                                                                                                                                            *G         20200220 IMCT                IMCT                                                                                                                    WMF2002203.TXT
MAKK02120865202002N3               89828070200P3YK20200307000030SPEAKER ASM                   M IMCTM CM1    TNTH  09020IMKDC KA PTB  00005  K0                0231NES        000000000000 DENSO TEN (THAILAND)                                                                                                                                            *G         20200220 IMCT                IMCT                                                                                                                    WMF2002203.TXT
MAKK02120866202002D3               89828070200P3YK20200307000030SPEAKER ASM                   M IMCTM CM1    TNTH  09020IMKDC KA PTB  00005  K0                1431DES        000000000000 DENSO TEN (THAILAND)                                                                                                                                            *G         20200220 IMCT                IMCT                                                                                                                    WMF2002203.TXT
MAKK02120867202002N3               89828070200P3YK20200308000060SPEAKER ASM                   M IMCTM CM1    TNTH  09020IMKDC KA PTB  00005  K0                0231NES        000000000000 DENSO TEN (THAILAND)                                                                                                                                            *G         20200220 IMCT                IMCT                                                                                                                    WMF2002203.TXT
MAKK02120868202002N3               89828070300P3YK20200303000060SPEAKER ASM                   M IMCTM CM1    TNTH  09020IMKDC KA PTB  00015  K0                0231NES        000000000000 DENSO TEN (THAILAND)                                                                                                                                            *G         20200220 IMCT                IMCT                                                                                                                    WMF2002203.TXT
MAKK02120869202002D3               89828070300P3YK20200303000030SPEAKER ASM                   M IMCTM CM1    TNTH  09020IMKDC KA PTB  00015  K0                1431DES        000000000000 DENSO TEN (THAILAND)                                                                                                                                            *G         20200220 IMCT                IMCT                                                                                                                    WMF2002203.TXT
MAKK02120870202002N3               89828070300P3YK20200304000030SPEAKER ASM                   M IMCTM CM1    TNTH  09020IMKDC KA PTB  00015  K0                0231NES        000000000000 DENSO TEN (THAILAND)                                                                                                                                            *G         20200220 IMCT                IMCT                                                                                                                    WMF2002203.TXT
MAKK02120871202002D3               89828070300P3YK20200304000030SPEAKER ASM                   M IMCTM CM1    TNTH  09020IMKDC KA PTB  00015  K0                1431DES        000000000000 DENSO TEN (THAILAND)                                                                                                                                            *G         20200220 IMCT                IMCT                                                                                                                    WMF2002203.TXT
MAKK02120872202002N3               89828070300P3YK20200305000090SPEAKER ASM                   M IMCTM CM1    TNTH  09020IMKDC KA PTB  00015  K0                0231NES        000000000000 DENSO TEN (THAILAND)                                                                                                                                            *G         20200220 IMCT                IMCT                                                                                                                    WMF2002203.TXT
MAKK02120873202002D3               89828070300P3YK20200305000030SPEAKER ASM                   M IMCTM CM1    TNTH  09020IMKDC KA PTB  00015  K0                1431DES        000000000000 DENSO TEN (THAILAND)                                                                                                                                            *G         20200220 IMCT                IMCT                                                                                                                    WMF2002203.TXT
MAKK02120874202002N3               89828070300P3YK20200306000030SPEAKER ASM                   M IMCTM CM1    TNTH  09020IMKDC KA PTB  00015  K0                0231NES        000000000000 DENSO TEN (THAILAND)                                                                                                                                            *G         20200220 IMCT                IMCT                                                                                                                    WMF2002203.TXT
MAKK02120875202002D3               89828070300P3YK20200306000030SPEAKER ASM                   M IMCTM CM1    TNTH  09020IMKDC KA PTB  00015  K0                1431DES        000000000000 DENSO TEN (THAILAND)                                                                                                                                            *G         20200220 IMCT                IMCT                                                                                                                    WMF2002203.TXT
MAKK02120876202002N3               89828070300P3YK20200307000030SPEAKER ASM                   M IMCTM CM1    TNTH  09020IMKDC KA PTB  00015  K0                0231NES        000000000000 DENSO TEN (THAILAND)                                                                                                                                            *G         20200220 IMCT                IMCT                                                                                                                    WMF2002203.TXT
MAKK02120877202002D3               89828070300P3YK20200307000060SPEAKER ASM                   M IMCTM CM1    TNTH  09020IMKDC KA PTB  00015  K0                1431DES        000000000000 DENSO TEN (THAILAND)                                                                                                                                            *G         20200220 IMCT                IMCT                                                                                                                    WMF2002203.TXT
MAKK02120878202002N3               89828070300P3YK20200308000090SPEAKER ASM                   M IMCTM CM1    TNTH  09020IMKDC KA PTB  00015  K0                0231NES        000000000000 DENSO TEN (THAILAND)                                                                                                                                            *G         20200220 IMCT                IMCT                                                                                                                    WMF2002203.TXT
MAKK02128136202002D3               89828070100P3YK20200303000030SPEAKER ASM                   M IMCTM PK3    TNTH  09020IMKDC KA PTB  00004  K0                1431DES        000000000000 DENSO TEN (THAILAND)                                                                                                                                            *G         20200220 IMCT                IMCT                                                                                                                    WMF2002203.TXT
MAKK02128137202002D3               89828070200P3YK20200303000030SPEAKER ASM                   M IMCTM PK3    TNTH  09020IMKDC KA PTB  00005  K0                1431DES        000000000000 DENSO TEN (THAILAND)                                                                                                                                            *G         20200220 IMCT                IMCT                                                                                                                    WMF2002203.TXT
