REC2020021820200218ISUZU                              6      
MDEFL2T15107202002                D89828070100PV4F20200224000010SPEAKER ASM                   M IMCTM S7FL05 TNTH  09020IMCT  S7 PTB  00004                    1030 SR        000000000000 DENSO TEN (THAILAND)190L47R0024   190L47R0028   D200204611    D200204615    000000                                                                              *R         20200218 IMCT                IMCT                                                                                                                    RMF2002185.TXT
MDEFL2T15108202002                D89828070200PV4F20200224000010SPEAKER ASM                   M IMCTM S7FL05 TNTH  09020IMCT  S7 PTB  00005                    1030 SR        000000000000 DENSO TEN (THAILAND)190L47R0024   190L47R0028   D200204611    D200204615    000000                                                                              *R         20200218 IMCT                IMCT                                                                                                                    RMF2002185.TXT
MDEFL2T15109202002                D89828070300PT4F20200224000030SPEAKER ASM                   M IMCTM S7TS02 TNTH  09020IMCT  S7 PTB  00015                    0830 SR        000000000000 DENSO TEN (THAILAND)190D39R0063   190L47R0028   D200204601    D200204615    000000                                                                              *R         20200218 IMCT                IMCT                                                                                                                    RMF2002185.TXT
MDEFL2T15110202002                D89838031200PT4F20200224000001RADIO;ASM DVD                 M IMCTM S7TS03 TNTH  09020IMCT  S7 PTB  00003                    0830 SR        000000000000 DENSO TEN (THAILAND)190G58R0034   190G58R0034   D200204604    D200204604    000000                                                                              *R         20200218 IMCT                IMCT                                                                                                                    RMF2002185.TXT
MDEFL2241660202002                D89828070100PV4F20200224000020SPEAKER ASM                   M IMCTM S7FL05 TNTH  09020IMCT  S7 PTB  00004                    0830 SR        000000000000 DENSO TEN (THAILAND)190D39R0063   190L47R0023   D200204601    D200204610    000000                                                                              *R         20200218 IMCT                IMCT                                                                                                                    RMF2002185.TXT
MDEFL2241661202002                D89828070200PV4F20200224000020SPEAKER ASM                   M IMCTM S7FL05 TNTH  09020IMCT  S7 PTB  00005                    0830 SR        000000000000 DENSO TEN (THAILAND)190D39R0063   190L47R0023   D200204601    D200204610    000000                                                                              *R         20200218 IMCT                IMCT                                                                                                                    RMF2002185.TXT
