REC2020020620200206ISUZU                              42     
MAKK02069516202002N3               89825451200P3YK20200218000030SPEAKER ASM;ROOF              M IMCTM CM1    TNTH  09020IMKDC KA PTB  00036  K0                0231NES        000000000000 DENSO TEN (THAILAND)                                                                                                                                            *G         20200206 IMCT                IMCT                                                                                                                    WMF2002065.TXT
MAKK02069517202002N3               89825451200P3YK20200219000030SPEAKER ASM;ROOF              M IMCTM CM1    TNTH  09020IMKDC KA PTB  00036  K0                0231NES        000000000000 DENSO TEN (THAILAND)                                                                                                                                            *G         20200206 IMCT                IMCT                                                                                                                    WMF2002065.TXT
MAKK02069518202002D3               89825451200P3YK20200220000030SPEAKER ASM;ROOF              M IMCTM CM1    TNTH  09020IMKDC KA PTB  00036  K0                1431DES        000000000000 DENSO TEN (THAILAND)                                                                                                                                            *G         20200206 IMCT                IMCT                                                                                                                    WMF2002065.TXT
MAKK02069519202002D3               89825451200P3YK20200221000060SPEAKER ASM;ROOF              M IMCTM CM1    TNTH  09020IMKDC KA PTB  00036  K0                1431DES        000000000000 DENSO TEN (THAILAND)                                                                                                                                            *G         20200206 IMCT                IMCT                                                                                                                    WMF2002065.TXT
MAKK02069520202002N3               89825451200P3YK20200222000060SPEAKER ASM;ROOF              M IMCTM CM1    TNTH  09020IMKDC KA PTB  00036  K0                0231NES        000000000000 DENSO TEN (THAILAND)                                                                                                                                            *G         20200206 IMCT                IMCT                                                                                                                    WMF2002065.TXT
MAKK02069521202002N3               89825451200P3YK20200223000060SPEAKER ASM;ROOF              M IMCTM CM1    TNTH  09020IMKDC KA PTB  00036  K0                0231NES        000000000000 DENSO TEN (THAILAND)                                                                                                                                            *G         20200206 IMCT                IMCT                                                                                                                    WMF2002065.TXT
MAKK02069522202002D3               89828070100P3YK20200217000150SPEAKER ASM                   M IMCTM CM1    TNTH  09020IMKDC KA PTB  00004  K0                1431DES        000000000000 DENSO TEN (THAILAND)                                                                                                                                            *G         20200206 IMCT                IMCT                                                                                                                    WMF2002065.TXT
MAKK02069523202002N3               89828070100P3YK20200218000150SPEAKER ASM                   M IMCTM CM1    TNTH  09020IMKDC KA PTB  00004  K0                0231NES        000000000000 DENSO TEN (THAILAND)                                                                                                                                            *G         20200206 IMCT                IMCT                                                                                                                    WMF2002065.TXT
MAKK02069524202002D3               89828070100P3YK20200218000180SPEAKER ASM                   M IMCTM CM1    TNTH  09020IMKDC KA PTB  00004  K0                1431DES        000000000000 DENSO TEN (THAILAND)                                                                                                                                            *G         20200206 IMCT                IMCT                                                                                                                    WMF2002065.TXT
MAKK02069525202002N3               89828070100P3YK20200219000180SPEAKER ASM                   M IMCTM CM1    TNTH  09020IMKDC KA PTB  00004  K0                0231NES        000000000000 DENSO TEN (THAILAND)                                                                                                                                            *G         20200206 IMCT                IMCT                                                                                                                    WMF2002065.TXT
MAKK02069526202002D3               89828070100P3YK20200219000180SPEAKER ASM                   M IMCTM CM1    TNTH  09020IMKDC KA PTB  00004  K0                1431DES        000000000000 DENSO TEN (THAILAND)                                                                                                                                            *G         20200206 IMCT                IMCT                                                                                                                    WMF2002065.TXT
MAKK02069527202002N3               89828070100P3YK20200220000150SPEAKER ASM                   M IMCTM CM1    TNTH  09020IMKDC KA PTB  00004  K0                0231NES        000000000000 DENSO TEN (THAILAND)                                                                                                                                            *G         20200206 IMCT                IMCT                                                                                                                    WMF2002065.TXT
MAKK02069528202002D3               89828070100P3YK20200220000180SPEAKER ASM                   M IMCTM CM1    TNTH  09020IMKDC KA PTB  00004  K0                1431DES        000000000000 DENSO TEN (THAILAND)                                                                                                                                            *G         20200206 IMCT                IMCT                                                                                                                    WMF2002065.TXT
MAKK02069529202002N3               89828070100P3YK20200221000120SPEAKER ASM                   M IMCTM CM1    TNTH  09020IMKDC KA PTB  00004  K0                0231NES        000000000000 DENSO TEN (THAILAND)                                                                                                                                            *G         20200206 IMCT                IMCT                                                                                                                    WMF2002065.TXT
MAKK02069530202002D3               89828070100P3YK20200221000120SPEAKER ASM                   M IMCTM CM1    TNTH  09020IMKDC KA PTB  00004  K0                1431DES        000000000000 DENSO TEN (THAILAND)                                                                                                                                            *G         20200206 IMCT                IMCT                                                                                                                    WMF2002065.TXT
MAKK02069531202002N3               89828070100P3YK20200222000180SPEAKER ASM                   M IMCTM CM1    TNTH  09020IMKDC KA PTB  00004  K0                0231NES        000000000000 DENSO TEN (THAILAND)                                                                                                                                            *G         20200206 IMCT                IMCT                                                                                                                    WMF2002065.TXT
MAKK02069532202002D3               89828070100P3YK20200222000150SPEAKER ASM                   M IMCTM CM1    TNTH  09020IMKDC KA PTB  00004  K0                1431DES        000000000000 DENSO TEN (THAILAND)                                                                                                                                            *G         20200206 IMCT                IMCT                                                                                                                    WMF2002065.TXT
MAKK02069533202002N3               89828070100P3YK20200223000060SPEAKER ASM                   M IMCTM CM1    TNTH  09020IMKDC KA PTB  00004  K0                0231NES        000000000000 DENSO TEN (THAILAND)                                                                                                                                            *G         20200206 IMCT                IMCT                                                                                                                    WMF2002065.TXT
MAKK02069534202002D3               89828070200P3YK20200217000030SPEAKER ASM                   M IMCTM CM1    TNTH  09020IMKDC KA PTB  00005  K0                1431DES        000000000000 DENSO TEN (THAILAND)                                                                                                                                            *G         20200206 IMCT                IMCT                                                                                                                    WMF2002065.TXT
MAKK02069535202002D3               89828070200P3YK20200218000030SPEAKER ASM                   M IMCTM CM1    TNTH  09020IMKDC KA PTB  00005  K0                1431DES        000000000000 DENSO TEN (THAILAND)                                                                                                                                            *G         20200206 IMCT                IMCT                                                                                                                    WMF2002065.TXT
MAKK02069536202002N3               89828070200P3YK20200219000030SPEAKER ASM                   M IMCTM CM1    TNTH  09020IMKDC KA PTB  00005  K0                0231NES        000000000000 DENSO TEN (THAILAND)                                                                                                                                            *G         20200206 IMCT                IMCT                                                                                                                    WMF2002065.TXT
MAKK02069537202002D3               89828070200P3YK20200219000090SPEAKER ASM                   M IMCTM CM1    TNTH  09020IMKDC KA PTB  00005  K0                1431DES        000000000000 DENSO TEN (THAILAND)                                                                                                                                            *G         20200206 IMCT                IMCT                                                                                                                    WMF2002065.TXT
MAKK02069538202002N3               89828070200P3YK20200220000060SPEAKER ASM                   M IMCTM CM1    TNTH  09020IMKDC KA PTB  00005  K0                0231NES        000000000000 DENSO TEN (THAILAND)                                                                                                                                            *G         20200206 IMCT                IMCT                                                                                                                    WMF2002065.TXT
MAKK02069539202002D3               89828070200P3YK20200220000060SPEAKER ASM                   M IMCTM CM1    TNTH  09020IMKDC KA PTB  00005  K0                1431DES        000000000000 DENSO TEN (THAILAND)                                                                                                                                            *G         20200206 IMCT                IMCT                                                                                                                    WMF2002065.TXT
MAKK02069540202002N3               89828070200P3YK20200221000030SPEAKER ASM                   M IMCTM CM1    TNTH  09020IMKDC KA PTB  00005  K0                0231NES        000000000000 DENSO TEN (THAILAND)                                                                                                                                            *G         20200206 IMCT                IMCT                                                                                                                    WMF2002065.TXT
MAKK02069541202002D3               89828070200P3YK20200221000060SPEAKER ASM                   M IMCTM CM1    TNTH  09020IMKDC KA PTB  00005  K0                1431DES        000000000000 DENSO TEN (THAILAND)                                                                                                                                            *G         20200206 IMCT                IMCT                                                                                                                    WMF2002065.TXT
MAKK02069542202002N3               89828070200P3YK20200222000030SPEAKER ASM                   M IMCTM CM1    TNTH  09020IMKDC KA PTB  00005  K0                0231NES        000000000000 DENSO TEN (THAILAND)                                                                                                                                            *G         20200206 IMCT                IMCT                                                                                                                    WMF2002065.TXT
MAKK02069543202002D3               89828070200P3YK20200222000030SPEAKER ASM                   M IMCTM CM1    TNTH  09020IMKDC KA PTB  00005  K0                1431DES        000000000000 DENSO TEN (THAILAND)                                                                                                                                            *G         20200206 IMCT                IMCT                                                                                                                    WMF2002065.TXT
MAKK02069544202002N3               89828070200P3YK20200223000060SPEAKER ASM                   M IMCTM CM1    TNTH  09020IMKDC KA PTB  00005  K0                0231NES        000000000000 DENSO TEN (THAILAND)                                                                                                                                            *G         20200206 IMCT                IMCT                                                                                                                    WMF2002065.TXT
MAKK02069545202002D3               89828070300P3YK20200217000030SPEAKER ASM                   M IMCTM CM1    TNTH  09020IMKDC KA PTB  00015  K0                1431DES        000000000000 DENSO TEN (THAILAND)                                                                                                                                            *G         20200206 IMCT                IMCT                                                                                                                    WMF2002065.TXT
MAKK02069546202002D3               89828070300P3YK20200218000030SPEAKER ASM                   M IMCTM CM1    TNTH  09020IMKDC KA PTB  00015  K0                1431DES        000000000000 DENSO TEN (THAILAND)                                                                                                                                            *G         20200206 IMCT                IMCT                                                                                                                    WMF2002065.TXT
MAKK02069547202002N3               89828070300P3YK20200219000030SPEAKER ASM                   M IMCTM CM1    TNTH  09020IMKDC KA PTB  00015  K0                0231NES        000000000000 DENSO TEN (THAILAND)                                                                                                                                            *G         20200206 IMCT                IMCT                                                                                                                    WMF2002065.TXT
MAKK02069548202002D3               89828070300P3YK20200219000090SPEAKER ASM                   M IMCTM CM1    TNTH  09020IMKDC KA PTB  00015  K0                1431DES        000000000000 DENSO TEN (THAILAND)                                                                                                                                            *G         20200206 IMCT                IMCT                                                                                                                    WMF2002065.TXT
MAKK02069549202002N3               89828070300P3YK20200220000060SPEAKER ASM                   M IMCTM CM1    TNTH  09020IMKDC KA PTB  00015  K0                0231NES        000000000000 DENSO TEN (THAILAND)                                                                                                                                            *G         20200206 IMCT                IMCT                                                                                                                    WMF2002065.TXT
MAKK02069550202002D3               89828070300P3YK20200220000060SPEAKER ASM                   M IMCTM CM1    TNTH  09020IMKDC KA PTB  00015  K0                1431DES        000000000000 DENSO TEN (THAILAND)                                                                                                                                            *G         20200206 IMCT                IMCT                                                                                                                    WMF2002065.TXT
MAKK02069551202002N3               89828070300P3YK20200221000060SPEAKER ASM                   M IMCTM CM1    TNTH  09020IMKDC KA PTB  00015  K0                0231NES        000000000000 DENSO TEN (THAILAND)                                                                                                                                            *G         20200206 IMCT                IMCT                                                                                                                    WMF2002065.TXT
MAKK02069552202002D3               89828070300P3YK20200221000060SPEAKER ASM                   M IMCTM CM1    TNTH  09020IMKDC KA PTB  00015  K0                1431DES        000000000000 DENSO TEN (THAILAND)                                                                                                                                            *G         20200206 IMCT                IMCT                                                                                                                    WMF2002065.TXT
MAKK02069553202002N3               89828070300P3YK20200222000060SPEAKER ASM                   M IMCTM CM1    TNTH  09020IMKDC KA PTB  00015  K0                0231NES        000000000000 DENSO TEN (THAILAND)                                                                                                                                            *G         20200206 IMCT                IMCT                                                                                                                    WMF2002065.TXT
MAKK02069554202002D3               89828070300P3YK20200222000030SPEAKER ASM                   M IMCTM CM1    TNTH  09020IMKDC KA PTB  00015  K0                1431DES        000000000000 DENSO TEN (THAILAND)                                                                                                                                            *G         20200206 IMCT                IMCT                                                                                                                    WMF2002065.TXT
MAKK02069555202002N3               89828070300P3YK20200223000060SPEAKER ASM                   M IMCTM CM1    TNTH  09020IMKDC KA PTB  00015  K0                0231NES        000000000000 DENSO TEN (THAILAND)                                                                                                                                            *G         20200206 IMCT                IMCT                                                                                                                    WMF2002065.TXT
MAKK02077830202002D3               89828070100P3YK20200218000030SPEAKER ASM                   M IMCTM PK3    TNTH  09020IMKDC KA PTB  00004  K0                1431DES        000000000000 DENSO TEN (THAILAND)                                                                                                                                            *G         20200206 IMCT                IMCT                                                                                                                    WMF2002065.TXT
MAKK02077831202002D3               89828070200P3YK20200218000030SPEAKER ASM                   M IMCTM PK3    TNTH  09020IMKDC KA PTB  00005  K0                1431DES        000000000000 DENSO TEN (THAILAND)                                                                                                                                            *G         20200206 IMCT                IMCT                                                                                                                    WMF2002065.TXT
