REC2020030220200302ISUZU                              13     
MDEBL3T00645202003                D89828070100PT4B20200306000030SPEAKER ASM                   M IMCTM S7FL05 TNTH  09020IMCT  S7 PTB  00004                    1030 SR        000000000000 DENSO TEN (THAILAND)190L44R0051   190K90R0002   Y200301501    Y200301515    000000                                                                              *R         20200302 IMCT                IMCT                                                                                                                    RMF2003025.TXT
MDEBL3T00646202003                D89828070200PV4B20200306000030SPEAKER ASM                   M IMCTM S7FL05 TNTH  09020IMCT  S7 PTB  00005                    1030 SR        000000000000 DENSO TEN (THAILAND)190L44R0051   190K90R0002   Y200301501    Y200301515    000000                                                                              *R         20200302 IMCT                IMCT                                                                                                                    RMF2003025.TXT
MDEBL3T00647202003                D89828070300PT4B20200306000030SPEAKER ASM                   M IMCTM S7TS02 TNTH  09020IMCT  S7 PTB  00015                    1030 SR        000000000000 DENSO TEN (THAILAND)190L44R0051   190K90R0002   Y200301501    Y200301515    000000                                                                              *R         20200302 IMCT                IMCT                                                                                                                    RMF2003025.TXT
MDEBL3T00648202003                D89848584410PT4B20200306000012RADIO;AM/FM CD D              M IMCTM S7TS01 TNTH  09020IMCT  S7 PTB  00003                    1030 SR        000000000000 DENSO TEN (THAILAND)190F54R0128   190K90R0002   Y200301504    Y200301515    000000                                                                              *R         20200302 IMCT                IMCT                                                                                                                    RMF2003025.TXT
MDEFL3T00840202003                D89828070100PV4F20200306000020SPEAKER ASM                   M IMCTM S7FL05 TNTH  09020IMCT  S7 PTB  00004                    0400 SR        000000000000 DENSO TEN (THAILAND)190D86R0011   190J91R0096   R200301406    R200301415    000000                                                                              *R         20200302 IMCT                IMCT                                                                                                                    RMF2003025.TXT
MDEFL3T00841202003                D89828070200PV4F20200305000025SPEAKER ASM                   M IMCTM S7FL05 TNTH  09020IMCT  S7 PTB  00005                    2230 SR        000000000000 DENSO TEN (THAILAND)190K04R0097   190K05R0108   D200301303    D200301315    000000                                                                              *R         20200302 IMCT                IMCT                                                                                                                    RMF2003025.TXT
MDEFL3T00842202003                D89828070300PT4F20200305000015SPEAKER ASM                   M IMCTM S7TS02 TNTH  09020IMCT  S7 PTB  00015                    2230 SR        000000000000 DENSO TEN (THAILAND)190K05R0101   190K05R0108   D200301308    D200301315    000000                                                                              *R         20200302 IMCT                IMCT                                                                                                                    RMF2003025.TXT
MDEFL3T00843202003                D89838031200PT4F20200305000013RADIO;ASM DVD                 M IMCTM S7TS03 TNTH  09020IMCT  S7 PTB  00003                    2230 SR        000000000000 DENSO TEN (THAILAND)190K04R0097   190K05R0108   D200301303    D200301315    000000                                                                              *R         20200302 IMCT                IMCT                                                                                                                    RMF2003025.TXT
MDEFL3200258202003                D89828070100PV4F20200305000004SPEAKER ASM                   M IMCTM S7FL05 TNTH  09020IMCT  S7 PTB  00004                    2100 SR        000000000000 DENSO TEN (THAILAND)190G74R0090   190G74R0091   D200301301    D200301302    000000                                                                              *R         20200302 IMCT                IMCT                                                                                                                    RMF2003025.TXT
MDEFL3200259202003                D89828070100PV4F20200305000028SPEAKER ASM                   M IMCTM S7FL05 TNTH  09020IMCT  S7 PTB  00004                    2230 SR        000000000000 DENSO TEN (THAILAND)190K04R0097   190D28R0036   D200301303    R200301401    000000                                                                              *R         20200302 IMCT                IMCT                                                                                                                    RMF2003025.TXT
MDEFL3200260202003                D89828070100PV4F20200306000008SPEAKER ASM                   M IMCTM S7FL05 TNTH  09020IMCT  S7 PTB  00004                    0230 SR        000000000000 DENSO TEN (THAILAND)190D28R0037   190D28R0040   R200301402    R200301405    000000                                                                              *R         20200302 IMCT                IMCT                                                                                                                    RMF2003025.TXT
MDEFL3200261202003                D89828070200PV4F20200305000005SPEAKER ASM                   M IMCTM S7FL05 TNTH  09020IMCT  S7 PTB  00005                    2100 SR        000000000000 DENSO TEN (THAILAND)190G74R0090   190K04R0097   D200301301    D200301303    000000                                                                              *R         20200302 IMCT                IMCT                                                                                                                    RMF2003025.TXT
MDEFL3200262202003                D89828070300PT4F20200305000015SPEAKER ASM                   M IMCTM S7TS02 TNTH  09020IMCT  S7 PTB  00015                    2100 SR        000000000000 DENSO TEN (THAILAND)190G74R0090   190K05R0101   D200301301    D200301308    000000                                                                              *R         20200302 IMCT                IMCT                                                                                                                    RMF2003025.TXT
