REC2020030920200309ISUZU                              17     
MDEBL3T02591202003                D89750293000PT4B20200313000003RADIO;AM/FM CD D              M IMCTM S7TS01 TNTH  09020IMCT  S7 PTB  00003                    0830 SR        000000000000 DENSO TEN (THAILAND)190F83R0020   190F83R0022   Y200303105    Y200303107    000000                                                                              *R         20200309 IMCT                IMCT                                                                                                                    RMF2003095.TXT
MDEBL3T02592202003                D89828070100PT4B20200313000010SPEAKER ASM                   M IMCTM S7FL05 TNTH  09020IMCT  S7 PTB  00004                    1030 SR        000000000000 DENSO TEN (THAILAND)190G35R0014   190L44R0057   Y200303111    Y200303115    000000                                                                              *R         20200309 IMCT                IMCT                                                                                                                    RMF2003095.TXT
MDEBL3T02593202003                D89828070200PV4B20200313000010SPEAKER ASM                   M IMCTM S7FL05 TNTH  09020IMCT  S7 PTB  00005                    1030 SR        000000000000 DENSO TEN (THAILAND)190G35R0014   190L44R0057   Y200303111    Y200303115    000000                                                                              *R         20200309 IMCT                IMCT                                                                                                                    RMF2003095.TXT
MDEBL3T02594202003                D89828070300PT4B20200313000030SPEAKER ASM                   M IMCTM S7TS02 TNTH  09020IMCT  S7 PTB  00015                    0830 SR        000000000000 DENSO TEN (THAILAND)190F49R0035   190L44R0057   Y200303101    Y200303115    000000                                                                              *R         20200309 IMCT                IMCT                                                                                                                    RMF2003095.TXT
MDEBL3T02595202003                D89848584410PT4B20200313000004RADIO;AM/FM CD D              M IMCTM S7TS01 TNTH  09020IMCT  S7 PTB  00003                    0830 SR        000000000000 DENSO TEN (THAILAND)190F49R0035   190F49R0038   Y200303101    Y200303104    000000                                                                              *R         20200309 IMCT                IMCT                                                                                                                    RMF2003095.TXT
MDEBL3202007202003                D89828070100PT4B20200313000020SPEAKER ASM                   M IMCTM S7FL05 TNTH  09020IMCT  S7 PTB  00004                    0830 SR        000000000000 DENSO TEN (THAILAND)190F49R0035   190G35R0013   Y200303101    Y200303110    000000                                                                              *R         20200309 IMCT                IMCT                                                                                                                    RMF2003095.TXT
MDEBL3202008202003                D89828070200PV4B20200313000020SPEAKER ASM                   M IMCTM S7FL05 TNTH  09020IMCT  S7 PTB  00005                    0830 SR        000000000000 DENSO TEN (THAILAND)190F49R0035   190G35R0013   Y200303101    Y200303110    000000                                                                              *R         20200309 IMCT                IMCT                                                                                                                    RMF2003095.TXT
MDEFL3T06926202003                D89828070100PV4F20200313000008SPEAKER ASM                   M IMCTM S7FL05 TNTH  09020IMCT  S7 PTB  00004                    1600 SR        000000000000 DENSO TEN (THAILAND)190L49R0042   190L49R0045   D200303212    D200303215    000000                                                                              *R         20200309 IMCT                IMCT                                                                                                                    RMF2003095.TXT
MDEFL3T06927202003                D89828070200PV4F20200313000005SPEAKER ASM                   M IMCTM S7FL05 TNTH  09020IMCT  S7 PTB  00005                    1600 SR        000000000000 DENSO TEN (THAILAND)190L49R0043   190L49R0045   D200303213    D200303215    000000                                                                              *R         20200309 IMCT                IMCT                                                                                                                    RMF2003095.TXT
MDEFL3T06928202003                D89828070300PT4F20200313000005SPEAKER ASM                   M IMCTM S7TS02 TNTH  09020IMCT  S7 PTB  00015                    1600 SR        000000000000 DENSO TEN (THAILAND)190L49R0043   190L49R0045   D200303213    D200303215    000000                                                                              *R         20200309 IMCT                IMCT                                                                                                                    RMF2003095.TXT
MDEFL3T06929202003                D89848582010PT4F20200313000001RADIO;AM/FM CD D              M IMCTM S7TS01 TNTH  09020IMCT  S7 PTB  00003                    1300 SR        000000000000 DENSO TEN (THAILAND)190F09R0003   190F09R0003   D200303201    D200303201    000000                                                                              *R         20200309 IMCT                IMCT                                                                                                                    RMF2003095.TXT
MDEFL3220821202003                D89828070100PV4F20200312000032SPEAKER ASM                   M IMCTM S7FL05 TNTH  09020IMCT  S7 PTB  00004                    2230 SR        000000000000 DENSO TEN (THAILAND)190N25R0011   190F09R0003   D200303001    D200303201    000000                                                                              *R         20200309 IMCT                IMCT                                                                                                                    RMF2003095.TXT
MDEFL3220822202003                D89828070100PV4F20200313000020SPEAKER ASM                   M IMCTM S7FL05 TNTH  09020IMCT  S7 PTB  00004                    1300 SR        000000000000 DENSO TEN (THAILAND)190L47R0031   190L47R0040   D200303202    D200303211    000000                                                                              *R         20200309 IMCT                IMCT                                                                                                                    RMF2003095.TXT
MDEFL3220823202003                D89828070200PV4F20200312000020SPEAKER ASM                   M IMCTM S7FL05 TNTH  09020IMCT  S7 PTB  00005                    2230 SR        000000000000 DENSO TEN (THAILAND)190N25R0011   190D39R0074   D200303001    D200303015    000000                                                                              *R         20200309 IMCT                IMCT                                                                                                                    RMF2003095.TXT
MDEFL3220824202003                D89828070200PV4F20200313000025SPEAKER ASM                   M IMCTM S7FL05 TNTH  09020IMCT  S7 PTB  00005                    1300 SR        000000000000 DENSO TEN (THAILAND)190F09R0003   190L49R0043   D200303201    D200303213    000000                                                                              *R         20200309 IMCT                IMCT                                                                                                                    RMF2003095.TXT
MDEFL3220825202003                D89828070300PT4F20200312000030SPEAKER ASM                   M IMCTM S7TS02 TNTH  09020IMCT  S7 PTB  00015                    2230 SR        000000000000 DENSO TEN (THAILAND)190N25R0011   190L47R0034   D200303001    D200303205    000000                                                                              *R         20200309 IMCT                IMCT                                                                                                                    RMF2003095.TXT
MDEFL3220826202003                D89828070300PT4F20200313000015SPEAKER ASM                   M IMCTM S7TS02 TNTH  09020IMCT  S7 PTB  00015                    1300 SR        000000000000 DENSO TEN (THAILAND)190L47R0035   190L49R0043   D200303206    D200303213    000000                                                                              *R         20200309 IMCT                IMCT                                                                                                                    RMF2003095.TXT
