REC2020032020200320ISUZU                              4      
MDEFL3T13490202003                D89828070100PV4F20200326000030SPEAKER ASM                   M IMCTM S7FL05 TNTH  09020IMCT  S7 PTB  00004                    1300 SR        000000000000 DENSO TEN (THAILAND)190K16R0129   190K21R0099   D200304501    D200304515    000000                                                                              *R         20200320 IMCT                IMCT                                                                                                                    RMF200320A.TXT
MDEFL3T13491202003                D89828070200PV4F20200326000030SPEAKER ASM                   M IMCTM S7FL05 TNTH  09020IMCT  S7 PTB  00005                    1300 SR        000000000000 DENSO TEN (THAILAND)190K16R0129   190K21R0099   D200304501    D200304515    000000                                                                              *R         20200320 IMCT                IMCT                                                                                                                    RMF200320A.TXT
MDEFL3T13492202003                D89828070300PT4F20200326000030SPEAKER ASM                   M IMCTM S7TS02 TNTH  09020IMCT  S7 PTB  00015                    1300 SR        000000000000 DENSO TEN (THAILAND)190K16R0129   190K21R0099   D200304501    D200304515    000000                                                                              *R         20200320 IMCT                IMCT                                                                                                                    RMF200320A.TXT
MDEFL3T13493202003                D89838031200PT4F20200326000015RADIO;ASM DVD                 M IMCTM S7TS03 TNTH  09020IMCT  S7 PTB  00003                    1300 SR        000000000000 DENSO TEN (THAILAND)190K16R0129   190K21R0099   D200304501    D200304515    000000                                                                              *R         20200320 IMCT                IMCT                                                                                                                    RMF200320A.TXT
