REC2020031820200318ISUZU                              4      
MDEBL3T04358202003                D89828070100PT4B20200324000030SPEAKER ASM                   M IMCTM S7FL05 TNTH  09020IMCT  S7 PTB  00004                    0400 SR        000000000000 DENSO TEN (THAILAND)190F62R0085   190F64R0129   Z200304301    Z200304315    000000                                                                              *R         20200318 IMCT                IMCT                                                                                                                    RMF2003185.TXT
MDEBL3T04359202003                D89828070200PV4B20200324000030SPEAKER ASM                   M IMCTM S7FL05 TNTH  09020IMCT  S7 PTB  00005                    0400 SR        000000000000 DENSO TEN (THAILAND)190F62R0085   190F64R0129   Z200304301    Z200304315    000000                                                                              *R         20200318 IMCT                IMCT                                                                                                                    RMF2003185.TXT
MDEBL3T04360202003                D89828070300PT4B20200324000030SPEAKER ASM                   M IMCTM S7TS02 TNTH  09020IMCT  S7 PTB  00015                    0400 SR        000000000000 DENSO TEN (THAILAND)190F62R0085   190F64R0129   Z200304301    Z200304315    000000                                                                              *R         20200318 IMCT                IMCT                                                                                                                    RMF2003185.TXT
MDEBL3T04361202003                D89838432900PT4B20200324000015RADIO;ASM DVD                 M IMCTM S7TS01 TNTH  09020IMCT  S7 PTB  00003                    0400 SR        000000000000 DENSO TEN (THAILAND)190F62R0085   190F64R0129   Z200304301    Z200304315    000000                                                                              *R         20200318 IMCT                IMCT                                                                                                                    RMF2003185.TXT
