REC2020032620200326ISUZU                              37     
MAKK03162925202003N3               89825451200P3YK20200407000030SPEAKER ASM;ROOF              M IMCTM CM1    TNTH  09020IMKDC KA PTB  00036  K0                0231NES        000000000000 DENSO TEN (THAILAND)                                                                                                                                            *G         20200326 IMCT                IMCT                                                                                                                    WMF2003265.TXT
MAKK03162926202003D3               89825451200P3YK20200407000060SPEAKER ASM;ROOF              M IMCTM CM1    TNTH  09020IMKDC KA PTB  00036  K0                1431DES        000000000000 DENSO TEN (THAILAND)                                                                                                                                            *G         20200326 IMCT                IMCT                                                                                                                    WMF2003265.TXT
MAKK03162927202003N3               89825451200P3YK20200408000030SPEAKER ASM;ROOF              M IMCTM CM1    TNTH  09020IMKDC KA PTB  00036  K0                0231NES        000000000000 DENSO TEN (THAILAND)                                                                                                                                            *G         20200326 IMCT                IMCT                                                                                                                    WMF2003265.TXT
MAKK03162928202003D3               89825451200P3YK20200408000030SPEAKER ASM;ROOF              M IMCTM CM1    TNTH  09020IMKDC KA PTB  00036  K0                1431DES        000000000000 DENSO TEN (THAILAND)                                                                                                                                            *G         20200326 IMCT                IMCT                                                                                                                    WMF2003265.TXT
MAKK03162929202003N3               89825451200P3YK20200410000030SPEAKER ASM;ROOF              M IMCTM CM1    TNTH  09020IMKDC KA PTB  00036  K0                0231NES        000000000000 DENSO TEN (THAILAND)                                                                                                                                            *G         20200326 IMCT                IMCT                                                                                                                    WMF2003265.TXT
MAKK03162930202003D3               89828070100P3YK20200406000060SPEAKER ASM                   M IMCTM CM1    TNTH  09020IMKDC KA PTB  00004  K0                1431DES        000000000000 DENSO TEN (THAILAND)                                                                                                                                            *G         20200326 IMCT                IMCT                                                                                                                    WMF2003265.TXT
MAKK03162931202003N3               89828070100P3YK20200407000090SPEAKER ASM                   M IMCTM CM1    TNTH  09020IMKDC KA PTB  00004  K0                0231NES        000000000000 DENSO TEN (THAILAND)                                                                                                                                            *G         20200326 IMCT                IMCT                                                                                                                    WMF2003265.TXT
MAKK03162932202003D3               89828070100P3YK20200407000060SPEAKER ASM                   M IMCTM CM1    TNTH  09020IMKDC KA PTB  00004  K0                1431DES        000000000000 DENSO TEN (THAILAND)                                                                                                                                            *G         20200326 IMCT                IMCT                                                                                                                    WMF2003265.TXT
MAKK03162933202003N3               89828070100P3YK20200408000090SPEAKER ASM                   M IMCTM CM1    TNTH  09020IMKDC KA PTB  00004  K0                0231NES        000000000000 DENSO TEN (THAILAND)                                                                                                                                            *G         20200326 IMCT                IMCT                                                                                                                    WMF2003265.TXT
MAKK03162934202003D3               89828070100P3YK20200408000060SPEAKER ASM                   M IMCTM CM1    TNTH  09020IMKDC KA PTB  00004  K0                1431DES        000000000000 DENSO TEN (THAILAND)                                                                                                                                            *G         20200326 IMCT                IMCT                                                                                                                    WMF2003265.TXT
MAKK03162935202003N3               89828070100P3YK20200409000030SPEAKER ASM                   M IMCTM CM1    TNTH  09020IMKDC KA PTB  00004  K0                0231NES        000000000000 DENSO TEN (THAILAND)                                                                                                                                            *G         20200326 IMCT                IMCT                                                                                                                    WMF2003265.TXT
MAKK03162936202003D3               89828070100P3YK20200409000060SPEAKER ASM                   M IMCTM CM1    TNTH  09020IMKDC KA PTB  00004  K0                1431DES        000000000000 DENSO TEN (THAILAND)                                                                                                                                            *G         20200326 IMCT                IMCT                                                                                                                    WMF2003265.TXT
MAKK03162937202003N3               89828070100P3YK20200410000060SPEAKER ASM                   M IMCTM CM1    TNTH  09020IMKDC KA PTB  00004  K0                0231NES        000000000000 DENSO TEN (THAILAND)                                                                                                                                            *G         20200326 IMCT                IMCT                                                                                                                    WMF2003265.TXT
MAKK03162938202003D3               89828070100P3YK20200410000090SPEAKER ASM                   M IMCTM CM1    TNTH  09020IMKDC KA PTB  00004  K0                1431DES        000000000000 DENSO TEN (THAILAND)                                                                                                                                            *G         20200326 IMCT                IMCT                                                                                                                    WMF2003265.TXT
MAKK03162939202003N3               89828070100P3YK20200411000030SPEAKER ASM                   M IMCTM CM1    TNTH  09020IMKDC KA PTB  00004  K0                0231NES        000000000000 DENSO TEN (THAILAND)                                                                                                                                            *G         20200326 IMCT                IMCT                                                                                                                    WMF2003265.TXT
MAKK03162940202003D3               89828070200P3YK20200406000060SPEAKER ASM                   M IMCTM CM1    TNTH  09020IMKDC KA PTB  00005  K0                1431DES        000000000000 DENSO TEN (THAILAND)                                                                                                                                            *G         20200326 IMCT                IMCT                                                                                                                    WMF2003265.TXT
MAKK03162941202003N3               89828070200P3YK20200407000030SPEAKER ASM                   M IMCTM CM1    TNTH  09020IMKDC KA PTB  00005  K0                0231NES        000000000000 DENSO TEN (THAILAND)                                                                                                                                            *G         20200326 IMCT                IMCT                                                                                                                    WMF2003265.TXT
MAKK03162942202003D3               89828070200P3YK20200407000060SPEAKER ASM                   M IMCTM CM1    TNTH  09020IMKDC KA PTB  00005  K0                1431DES        000000000000 DENSO TEN (THAILAND)                                                                                                                                            *G         20200326 IMCT                IMCT                                                                                                                    WMF2003265.TXT
MAKK03162943202003N3               89828070200P3YK20200408000030SPEAKER ASM                   M IMCTM CM1    TNTH  09020IMKDC KA PTB  00005  K0                0231NES        000000000000 DENSO TEN (THAILAND)                                                                                                                                            *G         20200326 IMCT                IMCT                                                                                                                    WMF2003265.TXT
MAKK03162944202003D3               89828070200P3YK20200408000030SPEAKER ASM                   M IMCTM CM1    TNTH  09020IMKDC KA PTB  00005  K0                1431DES        000000000000 DENSO TEN (THAILAND)                                                                                                                                            *G         20200326 IMCT                IMCT                                                                                                                    WMF2003265.TXT
MAKK03162945202003N3               89828070200P3YK20200409000030SPEAKER ASM                   M IMCTM CM1    TNTH  09020IMKDC KA PTB  00005  K0                0231NES        000000000000 DENSO TEN (THAILAND)                                                                                                                                            *G         20200326 IMCT                IMCT                                                                                                                    WMF2003265.TXT
MAKK03162946202003D3               89828070200P3YK20200409000030SPEAKER ASM                   M IMCTM CM1    TNTH  09020IMKDC KA PTB  00005  K0                1431DES        000000000000 DENSO TEN (THAILAND)                                                                                                                                            *G         20200326 IMCT                IMCT                                                                                                                    WMF2003265.TXT
MAKK03162947202003D3               89828070200P3YK20200410000090SPEAKER ASM                   M IMCTM CM1    TNTH  09020IMKDC KA PTB  00005  K0                1431DES        000000000000 DENSO TEN (THAILAND)                                                                                                                                            *G         20200326 IMCT                IMCT                                                                                                                    WMF2003265.TXT
MAKK03162948202003N3               89828070200P3YK20200411000030SPEAKER ASM                   M IMCTM CM1    TNTH  09020IMKDC KA PTB  00005  K0                0231NES        000000000000 DENSO TEN (THAILAND)                                                                                                                                            *G         20200326 IMCT                IMCT                                                                                                                    WMF2003265.TXT
MAKK03162949202003D3               89828070300P3YK20200406000060SPEAKER ASM                   M IMCTM CM1    TNTH  09020IMKDC KA PTB  00015  K0                1431DES        000000000000 DENSO TEN (THAILAND)                                                                                                                                            *G         20200326 IMCT                IMCT                                                                                                                    WMF2003265.TXT
MAKK03162950202003N3               89828070300P3YK20200407000030SPEAKER ASM                   M IMCTM CM1    TNTH  09020IMKDC KA PTB  00015  K0                0231NES        000000000000 DENSO TEN (THAILAND)                                                                                                                                            *G         20200326 IMCT                IMCT                                                                                                                    WMF2003265.TXT
MAKK03162951202003D3               89828070300P3YK20200407000060SPEAKER ASM                   M IMCTM CM1    TNTH  09020IMKDC KA PTB  00015  K0                1431DES        000000000000 DENSO TEN (THAILAND)                                                                                                                                            *G         20200326 IMCT                IMCT                                                                                                                    WMF2003265.TXT
MAKK03162952202003N3               89828070300P3YK20200408000060SPEAKER ASM                   M IMCTM CM1    TNTH  09020IMKDC KA PTB  00015  K0                0231NES        000000000000 DENSO TEN (THAILAND)                                                                                                                                            *G         20200326 IMCT                IMCT                                                                                                                    WMF2003265.TXT
MAKK03162953202003D3               89828070300P3YK20200408000060SPEAKER ASM                   M IMCTM CM1    TNTH  09020IMKDC KA PTB  00015  K0                1431DES        000000000000 DENSO TEN (THAILAND)                                                                                                                                            *G         20200326 IMCT                IMCT                                                                                                                    WMF2003265.TXT
MAKK03162954202003N3               89828070300P3YK20200409000030SPEAKER ASM                   M IMCTM CM1    TNTH  09020IMKDC KA PTB  00015  K0                0231NES        000000000000 DENSO TEN (THAILAND)                                                                                                                                            *G         20200326 IMCT                IMCT                                                                                                                    WMF2003265.TXT
MAKK03162955202003D3               89828070300P3YK20200409000030SPEAKER ASM                   M IMCTM CM1    TNTH  09020IMKDC KA PTB  00015  K0                1431DES        000000000000 DENSO TEN (THAILAND)                                                                                                                                            *G         20200326 IMCT                IMCT                                                                                                                    WMF2003265.TXT
MAKK03162956202003N3               89828070300P3YK20200410000060SPEAKER ASM                   M IMCTM CM1    TNTH  09020IMKDC KA PTB  00015  K0                0231NES        000000000000 DENSO TEN (THAILAND)                                                                                                                                            *G         20200326 IMCT                IMCT                                                                                                                    WMF2003265.TXT
MAKK03162957202003D3               89828070300P3YK20200410000090SPEAKER ASM                   M IMCTM CM1    TNTH  09020IMKDC KA PTB  00015  K0                1431DES        000000000000 DENSO TEN (THAILAND)                                                                                                                                            *G         20200326 IMCT                IMCT                                                                                                                    WMF2003265.TXT
MAKK03162958202003N3               89828070300P3YK20200411000030SPEAKER ASM                   M IMCTM CM1    TNTH  09020IMKDC KA PTB  00015  K0                0231NES        000000000000 DENSO TEN (THAILAND)                                                                                                                                            *G         20200326 IMCT                IMCT                                                                                                                    WMF2003265.TXT
MAKK03162959202003D3               89831228410P3YK20200408000015RADIO;AM/FM,CD                M IMCTM CM1    TNTH  09020IMKDC KA   CPB00003  K0                1431DES        000000000000 DENSO TEN (THAILAND)                                                                                                                                            *G         20200326 IMCT                IMCT                                                                                                                    WMF2003265.TXT
MAKK03169068202003D3               89828070100P3YK20200407000030SPEAKER ASM                   M IMCTM PK3    TNTH  09020IMKDC KA PTB  00004  K0                1431DES        000000000000 DENSO TEN (THAILAND)                                                                                                                                            *G         20200326 IMCT                IMCT                                                                                                                    WMF2003265.TXT
MAKK03169069202003D3               89828070200P3YK20200407000030SPEAKER ASM                   M IMCTM PK3    TNTH  09020IMKDC KA PTB  00005  K0                1431DES        000000000000 DENSO TEN (THAILAND)                                                                                                                                            *G         20200326 IMCT                IMCT                                                                                                                    WMF2003265.TXT
