REC2020030520200305ISUZU                              27     
MAKK03082219202003N3               89825451200P3YK20200319000030SPEAKER ASM;ROOF              M IMCTM CM1    TNTH  09020IMKDC KA PTB  00036  K0                0231NES        000000000000 DENSO TEN (THAILAND)                                                                                                                                            *G         20200305 IMCT                IMCT                                                                                                                    WMF2003054.TXT
MAKK03082220202003D3               89828070100P3YK20200316000120SPEAKER ASM                   M IMCTM CM1    TNTH  09020IMKDC KA PTB  00004  K0                1431DES        000000000000 DENSO TEN (THAILAND)                                                                                                                                            *G         20200305 IMCT                IMCT                                                                                                                    WMF2003054.TXT
MAKK03082221202003N3               89828070100P3YK20200317000090SPEAKER ASM                   M IMCTM CM1    TNTH  09020IMKDC KA PTB  00004  K0                0231NES        000000000000 DENSO TEN (THAILAND)                                                                                                                                            *G         20200305 IMCT                IMCT                                                                                                                    WMF2003054.TXT
MAKK03082222202003D3               89828070100P3YK20200317000120SPEAKER ASM                   M IMCTM CM1    TNTH  09020IMKDC KA PTB  00004  K0                1431DES        000000000000 DENSO TEN (THAILAND)                                                                                                                                            *G         20200305 IMCT                IMCT                                                                                                                    WMF2003054.TXT
MAKK03082223202003N3               89828070100P3YK20200318000150SPEAKER ASM                   M IMCTM CM1    TNTH  09020IMKDC KA PTB  00004  K0                0231NES        000000000000 DENSO TEN (THAILAND)                                                                                                                                            *G         20200305 IMCT                IMCT                                                                                                                    WMF2003054.TXT
MAKK03082224202003D3               89828070100P3YK20200318000090SPEAKER ASM                   M IMCTM CM1    TNTH  09020IMKDC KA PTB  00004  K0                1431DES        000000000000 DENSO TEN (THAILAND)                                                                                                                                            *G         20200305 IMCT                IMCT                                                                                                                    WMF2003054.TXT
MAKK03082225202003N3               89828070100P3YK20200319000090SPEAKER ASM                   M IMCTM CM1    TNTH  09020IMKDC KA PTB  00004  K0                0231NES        000000000000 DENSO TEN (THAILAND)                                                                                                                                            *G         20200305 IMCT                IMCT                                                                                                                    WMF2003054.TXT
MAKK03082226202003D3               89828070100P3YK20200319000120SPEAKER ASM                   M IMCTM CM1    TNTH  09020IMKDC KA PTB  00004  K0                1431DES        000000000000 DENSO TEN (THAILAND)                                                                                                                                            *G         20200305 IMCT                IMCT                                                                                                                    WMF2003054.TXT
MAKK03082227202003N3               89828070100P3YK20200320000060SPEAKER ASM                   M IMCTM CM1    TNTH  09020IMKDC KA PTB  00004  K0                0231NES        000000000000 DENSO TEN (THAILAND)                                                                                                                                            *G         20200305 IMCT                IMCT                                                                                                                    WMF2003054.TXT
MAKK03082228202003D3               89828070100P3YK20200320000120SPEAKER ASM                   M IMCTM CM1    TNTH  09020IMKDC KA PTB  00004  K0                1431DES        000000000000 DENSO TEN (THAILAND)                                                                                                                                            *G         20200305 IMCT                IMCT                                                                                                                    WMF2003054.TXT
MAKK03082229202003N3               89828070100P3YK20200321000180SPEAKER ASM                   M IMCTM CM1    TNTH  09020IMKDC KA PTB  00004  K0                0231NES        000000000000 DENSO TEN (THAILAND)                                                                                                                                            *G         20200305 IMCT                IMCT                                                                                                                    WMF2003054.TXT
MAKK03082230202003N3               89828070200P3YK20200317000030SPEAKER ASM                   M IMCTM CM1    TNTH  09020IMKDC KA PTB  00005  K0                0231NES        000000000000 DENSO TEN (THAILAND)                                                                                                                                            *G         20200305 IMCT                IMCT                                                                                                                    WMF2003054.TXT
MAKK03082231202003D3               89828070200P3YK20200317000030SPEAKER ASM                   M IMCTM CM1    TNTH  09020IMKDC KA PTB  00005  K0                1431DES        000000000000 DENSO TEN (THAILAND)                                                                                                                                            *G         20200305 IMCT                IMCT                                                                                                                    WMF2003054.TXT
MAKK03082232202003N3               89828070200P3YK20200318000030SPEAKER ASM                   M IMCTM CM1    TNTH  09020IMKDC KA PTB  00005  K0                0231NES        000000000000 DENSO TEN (THAILAND)                                                                                                                                            *G         20200305 IMCT                IMCT                                                                                                                    WMF2003054.TXT
MAKK03082233202003D3               89828070200P3YK20200318000060SPEAKER ASM                   M IMCTM CM1    TNTH  09020IMKDC KA PTB  00005  K0                1431DES        000000000000 DENSO TEN (THAILAND)                                                                                                                                            *G         20200305 IMCT                IMCT                                                                                                                    WMF2003054.TXT
MAKK03082234202003D3               89828070200P3YK20200320000030SPEAKER ASM                   M IMCTM CM1    TNTH  09020IMKDC KA PTB  00005  K0                1431DES        000000000000 DENSO TEN (THAILAND)                                                                                                                                            *G         20200305 IMCT                IMCT                                                                                                                    WMF2003054.TXT
MAKK03082235202003N3               89828070200P3YK20200321000090SPEAKER ASM                   M IMCTM CM1    TNTH  09020IMKDC KA PTB  00005  K0                0231NES        000000000000 DENSO TEN (THAILAND)                                                                                                                                            *G         20200305 IMCT                IMCT                                                                                                                    WMF2003054.TXT
MAKK03082236202003N3               89828070300P3YK20200317000030SPEAKER ASM                   M IMCTM CM1    TNTH  09020IMKDC KA PTB  00015  K0                0231NES        000000000000 DENSO TEN (THAILAND)                                                                                                                                            *G         20200305 IMCT                IMCT                                                                                                                    WMF2003054.TXT
MAKK03082237202003D3               89828070300P3YK20200317000030SPEAKER ASM                   M IMCTM CM1    TNTH  09020IMKDC KA PTB  00015  K0                1431DES        000000000000 DENSO TEN (THAILAND)                                                                                                                                            *G         20200305 IMCT                IMCT                                                                                                                    WMF2003054.TXT
MAKK03082238202003N3               89828070300P3YK20200318000030SPEAKER ASM                   M IMCTM CM1    TNTH  09020IMKDC KA PTB  00015  K0                0231NES        000000000000 DENSO TEN (THAILAND)                                                                                                                                            *G         20200305 IMCT                IMCT                                                                                                                    WMF2003054.TXT
MAKK03082239202003D3               89828070300P3YK20200318000060SPEAKER ASM                   M IMCTM CM1    TNTH  09020IMKDC KA PTB  00015  K0                1431DES        000000000000 DENSO TEN (THAILAND)                                                                                                                                            *G         20200305 IMCT                IMCT                                                                                                                    WMF2003054.TXT
MAKK03082240202003N3               89828070300P3YK20200320000030SPEAKER ASM                   M IMCTM CM1    TNTH  09020IMKDC KA PTB  00015  K0                0231NES        000000000000 DENSO TEN (THAILAND)                                                                                                                                            *G         20200305 IMCT                IMCT                                                                                                                    WMF2003054.TXT
MAKK03082241202003D3               89828070300P3YK20200320000030SPEAKER ASM                   M IMCTM CM1    TNTH  09020IMKDC KA PTB  00015  K0                1431DES        000000000000 DENSO TEN (THAILAND)                                                                                                                                            *G         20200305 IMCT                IMCT                                                                                                                    WMF2003054.TXT
MAKK03082242202003N3               89828070300P3YK20200321000090SPEAKER ASM                   M IMCTM CM1    TNTH  09020IMKDC KA PTB  00015  K0                0231NES        000000000000 DENSO TEN (THAILAND)                                                                                                                                            *G         20200305 IMCT                IMCT                                                                                                                    WMF2003054.TXT
MAKK03082243202003D3               89831228410P3YK20200318000015RADIO;AM/FM,CD                M IMCTM CM1    TNTH  09020IMKDC KA   CPB00003  K0                1431DES        000000000000 DENSO TEN (THAILAND)                                                                                                                                            *G         20200305 IMCT                IMCT                                                                                                                    WMF2003054.TXT
MAKK03088807202003D3               89828070100P3YK20200317000030SPEAKER ASM                   M IMCTM PK3    TNTH  09020IMKDC KA PTB  00004  K0                1431DES        000000000000 DENSO TEN (THAILAND)                                                                                                                                            *G         20200305 IMCT                IMCT                                                                                                                    WMF2003054.TXT
MAKK03088808202003D3               89828070200P3YK20200317000030SPEAKER ASM                   M IMCTM PK3    TNTH  09020IMKDC KA PTB  00005  K0                1431DES        000000000000 DENSO TEN (THAILAND)                                                                                                                                            *G         20200305 IMCT                IMCT                                                                                                                    WMF2003054.TXT
