REC2020030520200305ISUZU                              16     
MDEFL3T04603202003                D89828070100PV4F20200311000024SPEAKER ASM                   M IMCTM S7FL05 TNTH  09020IMCT  S7 PTB  00004                    1600 SR        000000000000 DENSO TEN (THAILAND)190K43R0068   190L46R0037   C200302604    C200302615    000000                                                                              *R         20200305 IMCT                IMCT                                                                                                                    RMF2003058.TXT
MDEFL3T04604202003                D89828070200PV4F20200311000002SPEAKER ASM                   M IMCTM S7FL05 TNTH  09020IMCT  S7 PTB  00005                    1600 SR        000000000000 DENSO TEN (THAILAND)190K63R0017   190K63R0017   C200302608    C200302608    000000                                                                              *R         20200305 IMCT                IMCT                                                                                                                    RMF2003058.TXT
MDEFL3T04605202003                D89828070300PT4F20200311000007SPEAKER ASM                   M IMCTM S7TS02 TNTH  09020IMCT  S7 PTB  00015                    1300 SR        000000000000 DENSO TEN (THAILAND)190J74R0049   190K63R0017   C200302603    C200302608    000000                                                                              *R         20200305 IMCT                IMCT                                                                                                                    RMF2003058.TXT
MDEFL3T04606202003                D89831229020PT4F20200311000006RADIO;AM/FM,CD                M IMCTM S7U137 TNTH  09020IMCT  S7 PTB  00003                    0230 SR        000000000000 DENSO TEN (THAILAND)190K85R0086   190K85R0091   D200302411    D200302508    000000                                                                              *R         20200305 IMCT                IMCT                                                                                                                    RMF2003058.TXT
MDEFL3T04607202003                D89831229210PT4F20200311000003RADIO;AM/FM,CD                M IMCTM S7U137 TNTH  09020IMCT  S7 PTB  00003                    1300 SR        000000000000 DENSO TEN (THAILAND)190J74R0048   190J74R0050   C200302602    C200302606    000000                                                                              *R         20200305 IMCT                IMCT                                                                                                                    RMF2003058.TXT
MDEFL3T04608202003                D89848582010PT4F20200311000001RADIO;AM/FM CD D              M IMCTM S7TS01 TNTH  09020IMCT  S7 PTB  00003                    1030 SR        000000000000 DENSO TEN (THAILAND)190D84R0108   190D84R0108   D200302509    D200302509    000000                                                                              *R         20200305 IMCT                IMCT                                                                                                                    RMF2003058.TXT
MDEFL3212792202003                D89828070100PV4F20200310000032SPEAKER ASM                   M IMCTM S7FL05 TNTH  09020IMCT  S7 PTB  00004                    2100 SR        000000000000 DENSO TEN (THAILAND)190L57R0005   190D37R0034   S200302301    D200302401    000000                                                                              *R         20200305 IMCT                IMCT                                                                                                                    RMF2003058.TXT
MDEFL3212793202003                D89828070100PV4F20200311000028SPEAKER ASM                   M IMCTM S7FL05 TNTH  09020IMCT  S7 PTB  00004                    0230 SR        000000000000 DENSO TEN (THAILAND)190D37R0035   190K85R0089   D200302402    D200302415    000000                                                                              *R         20200305 IMCT                IMCT                                                                                                                    RMF2003058.TXT
MDEFL3212794202003                D89828070100PV4F20200311000004SPEAKER ASM                   M IMCTM S7FL05 TNTH  09020IMCT  S7 PTB  00004                    0830 SR        000000000000 DENSO TEN (THAILAND)190K53R0111   190K53R0112   D200302501    D200302502    000000                                                                              *R         20200305 IMCT                IMCT                                                                                                                    RMF2003058.TXT
MDEFL3212795202003                D89828070100PV4F20200311000028SPEAKER ASM                   M IMCTM S7FL05 TNTH  09020IMCT  S7 PTB  00004                    1030 SR        000000000000 DENSO TEN (THAILAND)190K53R0113   190J51R0007   D200302503    C200302601    000000                                                                              *R         20200305 IMCT                IMCT                                                                                                                    RMF2003058.TXT
MDEFL3212796202003                D89828070100PV4F20200311000004SPEAKER ASM                   M IMCTM S7FL05 TNTH  09020IMCT  S7 PTB  00004                    1300 SR        000000000000 DENSO TEN (THAILAND)190J74R0048   190J74R0049   C200302602    C200302603    000000                                                                              *R         20200305 IMCT                IMCT                                                                                                                    RMF2003058.TXT
MDEFL3212797202003                D89828070200PV4F20200311000025SPEAKER ASM                   M IMCTM S7FL05 TNTH  09020IMCT  S7 PTB  00005                    0230 SR        000000000000 DENSO TEN (THAILAND)190D39R0067   190K85R0090   D200302403    D200302507    000000                                                                              *R         20200305 IMCT                IMCT                                                                                                                    RMF2003058.TXT
MDEFL3212798202003                D89828070200PV4F20200311000020SPEAKER ASM                   M IMCTM S7FL05 TNTH  09020IMCT  S7 PTB  00005                    1030 SR        000000000000 DENSO TEN (THAILAND)190K85R0090   190J74R0049   D200302507    C200302603    000000                                                                              *R         20200305 IMCT                IMCT                                                                                                                    RMF2003058.TXT
MDEFL3212799202003                D89828070200PV4F20200311000005SPEAKER ASM                   M IMCTM S7FL05 TNTH  09020IMCT  S7 PTB  00005                    1300 SR        000000000000 DENSO TEN (THAILAND)190J74R0049   190K63R0016   C200302603    C200302607    000000                                                                              *R         20200305 IMCT                IMCT                                                                                                                    RMF2003058.TXT
MDEFL3212800202003                D89828070300PT4F20200311000030SPEAKER ASM                   M IMCTM S7TS02 TNTH  09020IMCT  S7 PTB  00015                    0230 SR        000000000000 DENSO TEN (THAILAND)190D39R0067   190D84R0108   D200302403    D200302509    000000                                                                              *R         20200305 IMCT                IMCT                                                                                                                    RMF2003058.TXT
MDEFL3212801202003                D89828070300PT4F20200311000015SPEAKER ASM                   M IMCTM S7TS02 TNTH  09020IMCT  S7 PTB  00015                    1030 SR        000000000000 DENSO TEN (THAILAND)190G74R0094   190J74R0049   D200302510    C200302603    000000                                                                              *R         20200305 IMCT                IMCT                                                                                                                    RMF2003058.TXT
