REC2020033120200331ISUZU                              4      
MDEBL3T08925202004                D89828070100PT4B20200404000030SPEAKER ASM                   M IMCTM S7FL05 TNTH  09020IMCT  S7 PTB  00004                    0830 SR        000000000000 DENSO TEN (THAILAND)190F63R0078   190F65R0156   Z200400801    Z200400815    000000                                                                              *R         20200331 IMCT                IMCT                                                                                                                    RMF2003315.TXT
MDEBL3T08926202004                D89828070200PV4B20200404000030SPEAKER ASM                   M IMCTM S7FL05 TNTH  09020IMCT  S7 PTB  00005                    0830 SR        000000000000 DENSO TEN (THAILAND)190F63R0078   190F65R0156   Z200400801    Z200400815    000000                                                                              *R         20200331 IMCT                IMCT                                                                                                                    RMF2003315.TXT
MDEBL3T08927202004                D89828070300PT4B20200404000030SPEAKER ASM                   M IMCTM S7TS02 TNTH  09020IMCT  S7 PTB  00015                    0830 SR        000000000000 DENSO TEN (THAILAND)190F63R0078   190F65R0156   Z200400801    Z200400815    000000                                                                              *R         20200331 IMCT                IMCT                                                                                                                    RMF2003315.TXT
MDEBL3T08928202004                D89838432900PT4B20200404000006RADIO;ASM DVD                 M IMCTM S7TS01 TNTH  09020IMCT  S7 PTB  00003                    0830 SR        000000000000 DENSO TEN (THAILAND)190F65R0155   190F65R0156   Z200400802    Z200400815    000000                                                                              *R         20200331 IMCT                IMCT                                                                                                                    RMF2003315.TXT
