REC2020031220200312ISUZU                              34     
MAKK03110102202003D3               89825451200P3YK20200323000030SPEAKER ASM;ROOF              M IMCTM CM1    TNTH  09020IMKDC KA PTB  00036  K0                1431DES        000000000000 DENSO TEN (THAILAND)                                                                                                                                            *G         20200312 IMCT                IMCT                                                                                                                    WMF2003125.TXT
MAKK03110103202003N3               89825451200P3YK20200325000030SPEAKER ASM;ROOF              M IMCTM CM1    TNTH  09020IMKDC KA PTB  00036  K0                0231NES        000000000000 DENSO TEN (THAILAND)                                                                                                                                            *G         20200312 IMCT                IMCT                                                                                                                    WMF2003125.TXT
MAKK03110104202003D3               89825451200P3YK20200326000030SPEAKER ASM;ROOF              M IMCTM CM1    TNTH  09020IMKDC KA PTB  00036  K0                1431DES        000000000000 DENSO TEN (THAILAND)                                                                                                                                            *G         20200312 IMCT                IMCT                                                                                                                    WMF2003125.TXT
MAKK03110105202003D3               89828070100P3YK20200323000090SPEAKER ASM                   M IMCTM CM1    TNTH  09020IMKDC KA PTB  00004  K0                1431DES        000000000000 DENSO TEN (THAILAND)                                                                                                                                            *G         20200312 IMCT                IMCT                                                                                                                    WMF2003125.TXT
MAKK03110106202003N3               89828070100P3YK20200324000150SPEAKER ASM                   M IMCTM CM1    TNTH  09020IMKDC KA PTB  00004  K0                0231NES        000000000000 DENSO TEN (THAILAND)                                                                                                                                            *G         20200312 IMCT                IMCT                                                                                                                    WMF2003125.TXT
MAKK03110107202003D3               89828070100P3YK20200324000150SPEAKER ASM                   M IMCTM CM1    TNTH  09020IMKDC KA PTB  00004  K0                1431DES        000000000000 DENSO TEN (THAILAND)                                                                                                                                            *G         20200312 IMCT                IMCT                                                                                                                    WMF2003125.TXT
MAKK03110108202003N3               89828070100P3YK20200325000090SPEAKER ASM                   M IMCTM CM1    TNTH  09020IMKDC KA PTB  00004  K0                0231NES        000000000000 DENSO TEN (THAILAND)                                                                                                                                            *G         20200312 IMCT                IMCT                                                                                                                    WMF2003125.TXT
MAKK03110109202003D3               89828070100P3YK20200325000120SPEAKER ASM                   M IMCTM CM1    TNTH  09020IMKDC KA PTB  00004  K0                1431DES        000000000000 DENSO TEN (THAILAND)                                                                                                                                            *G         20200312 IMCT                IMCT                                                                                                                    WMF2003125.TXT
MAKK03110110202003N3               89828070100P3YK20200326000120SPEAKER ASM                   M IMCTM CM1    TNTH  09020IMKDC KA PTB  00004  K0                0231NES        000000000000 DENSO TEN (THAILAND)                                                                                                                                            *G         20200312 IMCT                IMCT                                                                                                                    WMF2003125.TXT
MAKK03110111202003D3               89828070100P3YK20200326000090SPEAKER ASM                   M IMCTM CM1    TNTH  09020IMKDC KA PTB  00004  K0                1431DES        000000000000 DENSO TEN (THAILAND)                                                                                                                                            *G         20200312 IMCT                IMCT                                                                                                                    WMF2003125.TXT
MAKK03110112202003N3               89828070100P3YK20200327000120SPEAKER ASM                   M IMCTM CM1    TNTH  09020IMKDC KA PTB  00004  K0                0231NES        000000000000 DENSO TEN (THAILAND)                                                                                                                                            *G         20200312 IMCT                IMCT                                                                                                                    WMF2003125.TXT
MAKK03110113202003D3               89828070100P3YK20200327000060SPEAKER ASM                   M IMCTM CM1    TNTH  09020IMKDC KA PTB  00004  K0                1431DES        000000000000 DENSO TEN (THAILAND)                                                                                                                                            *G         20200312 IMCT                IMCT                                                                                                                    WMF2003125.TXT
MAKK03110114202003N3               89828070100P3YK20200328000150SPEAKER ASM                   M IMCTM CM1    TNTH  09020IMKDC KA PTB  00004  K0                0231NES        000000000000 DENSO TEN (THAILAND)                                                                                                                                            *G         20200312 IMCT                IMCT                                                                                                                    WMF2003125.TXT
MAKK03110115202003D3               89828070100P3YK20200328000120SPEAKER ASM                   M IMCTM CM1    TNTH  09020IMKDC KA PTB  00004  K0                1431DES        000000000000 DENSO TEN (THAILAND)                                                                                                                                            *G         20200312 IMCT                IMCT                                                                                                                    WMF2003125.TXT
MAKK03110116202003N3               89828070100P3YK20200329000060SPEAKER ASM                   M IMCTM CM1    TNTH  09020IMKDC KA PTB  00004  K0                0231NES        000000000000 DENSO TEN (THAILAND)                                                                                                                                            *G         20200312 IMCT                IMCT                                                                                                                    WMF2003125.TXT
MAKK03110117202003N3               89828070200P3YK20200324000030SPEAKER ASM                   M IMCTM CM1    TNTH  09020IMKDC KA PTB  00005  K0                0231NES        000000000000 DENSO TEN (THAILAND)                                                                                                                                            *G         20200312 IMCT                IMCT                                                                                                                    WMF2003125.TXT
MAKK03110118202003D3               89828070200P3YK20200324000030SPEAKER ASM                   M IMCTM CM1    TNTH  09020IMKDC KA PTB  00005  K0                1431DES        000000000000 DENSO TEN (THAILAND)                                                                                                                                            *G         20200312 IMCT                IMCT                                                                                                                    WMF2003125.TXT
MAKK03110119202003N3               89828070200P3YK20200325000030SPEAKER ASM                   M IMCTM CM1    TNTH  09020IMKDC KA PTB  00005  K0                0231NES        000000000000 DENSO TEN (THAILAND)                                                                                                                                            *G         20200312 IMCT                IMCT                                                                                                                    WMF2003125.TXT
MAKK03110120202003D3               89828070200P3YK20200325000030SPEAKER ASM                   M IMCTM CM1    TNTH  09020IMKDC KA PTB  00005  K0                1431DES        000000000000 DENSO TEN (THAILAND)                                                                                                                                            *G         20200312 IMCT                IMCT                                                                                                                    WMF2003125.TXT
MAKK03110121202003N3               89828070200P3YK20200326000030SPEAKER ASM                   M IMCTM CM1    TNTH  09020IMKDC KA PTB  00005  K0                0231NES        000000000000 DENSO TEN (THAILAND)                                                                                                                                            *G         20200312 IMCT                IMCT                                                                                                                    WMF2003125.TXT
MAKK03110122202003D3               89828070200P3YK20200326000060SPEAKER ASM                   M IMCTM CM1    TNTH  09020IMKDC KA PTB  00005  K0                1431DES        000000000000 DENSO TEN (THAILAND)                                                                                                                                            *G         20200312 IMCT                IMCT                                                                                                                    WMF2003125.TXT
MAKK03110123202003N3               89828070200P3YK20200328000030SPEAKER ASM                   M IMCTM CM1    TNTH  09020IMKDC KA PTB  00005  K0                0231NES        000000000000 DENSO TEN (THAILAND)                                                                                                                                            *G         20200312 IMCT                IMCT                                                                                                                    WMF2003125.TXT
MAKK03110124202003D3               89828070200P3YK20200328000060SPEAKER ASM                   M IMCTM CM1    TNTH  09020IMKDC KA PTB  00005  K0                1431DES        000000000000 DENSO TEN (THAILAND)                                                                                                                                            *G         20200312 IMCT                IMCT                                                                                                                    WMF2003125.TXT
MAKK03110125202003N3               89828070300P3YK20200324000030SPEAKER ASM                   M IMCTM CM1    TNTH  09020IMKDC KA PTB  00015  K0                0231NES        000000000000 DENSO TEN (THAILAND)                                                                                                                                            *G         20200312 IMCT                IMCT                                                                                                                    WMF2003125.TXT
MAKK03110126202003D3               89828070300P3YK20200324000030SPEAKER ASM                   M IMCTM CM1    TNTH  09020IMKDC KA PTB  00015  K0                1431DES        000000000000 DENSO TEN (THAILAND)                                                                                                                                            *G         20200312 IMCT                IMCT                                                                                                                    WMF2003125.TXT
MAKK03110127202003N3               89828070300P3YK20200325000030SPEAKER ASM                   M IMCTM CM1    TNTH  09020IMKDC KA PTB  00015  K0                0231NES        000000000000 DENSO TEN (THAILAND)                                                                                                                                            *G         20200312 IMCT                IMCT                                                                                                                    WMF2003125.TXT
MAKK03110128202003D3               89828070300P3YK20200325000030SPEAKER ASM                   M IMCTM CM1    TNTH  09020IMKDC KA PTB  00015  K0                1431DES        000000000000 DENSO TEN (THAILAND)                                                                                                                                            *G         20200312 IMCT                IMCT                                                                                                                    WMF2003125.TXT
MAKK03110129202003N3               89828070300P3YK20200326000030SPEAKER ASM                   M IMCTM CM1    TNTH  09020IMKDC KA PTB  00015  K0                0231NES        000000000000 DENSO TEN (THAILAND)                                                                                                                                            *G         20200312 IMCT                IMCT                                                                                                                    WMF2003125.TXT
MAKK03110130202003D3               89828070300P3YK20200326000060SPEAKER ASM                   M IMCTM CM1    TNTH  09020IMKDC KA PTB  00015  K0                1431DES        000000000000 DENSO TEN (THAILAND)                                                                                                                                            *G         20200312 IMCT                IMCT                                                                                                                    WMF2003125.TXT
MAKK03110131202003N3               89828070300P3YK20200327000030SPEAKER ASM                   M IMCTM CM1    TNTH  09020IMKDC KA PTB  00015  K0                0231NES        000000000000 DENSO TEN (THAILAND)                                                                                                                                            *G         20200312 IMCT                IMCT                                                                                                                    WMF2003125.TXT
MAKK03110132202003N3               89828070300P3YK20200328000030SPEAKER ASM                   M IMCTM CM1    TNTH  09020IMKDC KA PTB  00015  K0                0231NES        000000000000 DENSO TEN (THAILAND)                                                                                                                                            *G         20200312 IMCT                IMCT                                                                                                                    WMF2003125.TXT
MAKK03110133202003D3               89828070300P3YK20200328000060SPEAKER ASM                   M IMCTM CM1    TNTH  09020IMKDC KA PTB  00015  K0                1431DES        000000000000 DENSO TEN (THAILAND)                                                                                                                                            *G         20200312 IMCT                IMCT                                                                                                                    WMF2003125.TXT
MAKK03118175202003D3               89828070100P3YK20200324000030SPEAKER ASM                   M IMCTM PK3    TNTH  09020IMKDC KA PTB  00004  K0                1431DES        000000000000 DENSO TEN (THAILAND)                                                                                                                                            *G         20200312 IMCT                IMCT                                                                                                                    WMF2003125.TXT
MAKK03118176202003D3               89828070200P3YK20200324000030SPEAKER ASM                   M IMCTM PK3    TNTH  09020IMKDC KA PTB  00005  K0                1431DES        000000000000 DENSO TEN (THAILAND)                                                                                                                                            *G         20200312 IMCT                IMCT                                                                                                                    WMF2003125.TXT
