REC2020031720200317ISUZU                              5      
MDEFL3T12760202003                D89828070100PV4F20200321000022SPEAKER ASM                   M IMCTM S7FL05 TNTH  09020IMCT  S7 PTB  00004                    0400 SR        000000000000 DENSO TEN (THAILAND)190K14R0123   190K22R0141   D200304205    D200304215    000000                                                                              *R         20200317 IMCT                IMCT                                                                                                                    RMF2003175.TXT
MDEFL3T12761202003                D89828070200PV4F20200321000020SPEAKER ASM                   M IMCTM S7FL05 TNTH  09020IMCT  S7 PTB  00005                    0400 SR        000000000000 DENSO TEN (THAILAND)190K19R0106   190K22R0141   D200304206    D200304215    000000                                                                              *R         20200317 IMCT                IMCT                                                                                                                    RMF2003175.TXT
MDEFL3T12762202003                D89828070300PT4F20200321000020SPEAKER ASM                   M IMCTM S7TS02 TNTH  09020IMCT  S7 PTB  00015                    0400 SR        000000000000 DENSO TEN (THAILAND)190K19R0106   190K22R0141   D200304206    D200304215    000000                                                                              *R         20200317 IMCT                IMCT                                                                                                                    RMF2003175.TXT
MDEFL3T12763202003                D89838031200PT4F20200321000010RADIO;ASM DVD                 M IMCTM S7TS03 TNTH  09020IMCT  S7 PTB  00003                    0400 SR        000000000000 DENSO TEN (THAILAND)190K19R0106   190K22R0141   D200304206    D200304215    000000                                                                              *R         20200317 IMCT                IMCT                                                                                                                    RMF2003175.TXT
MDEFL3232617202003                D89828070100PV4F20200321000008SPEAKER ASM                   M IMCTM S7FL05 TNTH  09020IMCT  S7 PTB  00004                    0230 SR        000000000000 DENSO TEN (THAILAND)190K12R0116   190K14R0122   D200304201    D200304204    000000                                                                              *R         20200317 IMCT                IMCT                                                                                                                    RMF2003175.TXT
