REC2020040220200402ISUZU                              26     
MAKK03180407202004D3               89828070100P3YK20200413000060SPEAKER ASM                   M IMCTM CM1    TNTH  09020IMKDC KA PTB  00004  K0                1431DES        000000000000 DENSO TEN (THAILAND)                                                                                                                                            *G         20200402 IMCT                IMCT                                                                                                                    WMF2004026.TXT
MAKK03180408202004N3               89828070100P3YK20200414000060SPEAKER ASM                   M IMCTM CM1    TNTH  09020IMKDC KA PTB  00004  K0                0231NES        000000000000 DENSO TEN (THAILAND)                                                                                                                                            *G         20200402 IMCT                IMCT                                                                                                                    WMF2004026.TXT
MAKK03180409202004D3               89828070100P3YK20200414000060SPEAKER ASM                   M IMCTM CM1    TNTH  09020IMKDC KA PTB  00004  K0                1431DES        000000000000 DENSO TEN (THAILAND)                                                                                                                                            *G         20200402 IMCT                IMCT                                                                                                                    WMF2004026.TXT
MAKK03180410202004N3               89828070100P3YK20200415000060SPEAKER ASM                   M IMCTM CM1    TNTH  09020IMKDC KA PTB  00004  K0                0231NES        000000000000 DENSO TEN (THAILAND)                                                                                                                                            *G         20200402 IMCT                IMCT                                                                                                                    WMF2004026.TXT
MAKK03180411202004D3               89828070100P3YK20200415000060SPEAKER ASM                   M IMCTM CM1    TNTH  09020IMKDC KA PTB  00004  K0                1431DES        000000000000 DENSO TEN (THAILAND)                                                                                                                                            *G         20200402 IMCT                IMCT                                                                                                                    WMF2004026.TXT
MAKK03180412202004N3               89828070100P3YK20200416000060SPEAKER ASM                   M IMCTM CM1    TNTH  09020IMKDC KA PTB  00004  K0                0231NES        000000000000 DENSO TEN (THAILAND)                                                                                                                                            *G         20200402 IMCT                IMCT                                                                                                                    WMF2004026.TXT
MAKK03180413202004D3               89828070100P3YK20200416000060SPEAKER ASM                   M IMCTM CM1    TNTH  09020IMKDC KA PTB  00004  K0                1431DES        000000000000 DENSO TEN (THAILAND)                                                                                                                                            *G         20200402 IMCT                IMCT                                                                                                                    WMF2004026.TXT
MAKK03180414202004N3               89828070100P3YK20200417000090SPEAKER ASM                   M IMCTM CM1    TNTH  09020IMKDC KA PTB  00004  K0                0231NES        000000000000 DENSO TEN (THAILAND)                                                                                                                                            *G         20200402 IMCT                IMCT                                                                                                                    WMF2004026.TXT
MAKK03180415202004D3               89828070100P3YK20200417000060SPEAKER ASM                   M IMCTM CM1    TNTH  09020IMKDC KA PTB  00004  K0                1431DES        000000000000 DENSO TEN (THAILAND)                                                                                                                                            *G         20200402 IMCT                IMCT                                                                                                                    WMF2004026.TXT
MAKK03180416202004D3               89828070200P3YK20200413000060SPEAKER ASM                   M IMCTM CM1    TNTH  09020IMKDC KA PTB  00005  K0                1431DES        000000000000 DENSO TEN (THAILAND)                                                                                                                                            *G         20200402 IMCT                IMCT                                                                                                                    WMF2004026.TXT
MAKK03180417202004N3               89828070200P3YK20200414000060SPEAKER ASM                   M IMCTM CM1    TNTH  09020IMKDC KA PTB  00005  K0                0231NES        000000000000 DENSO TEN (THAILAND)                                                                                                                                            *G         20200402 IMCT                IMCT                                                                                                                    WMF2004026.TXT
MAKK03180418202004D3               89828070200P3YK20200414000030SPEAKER ASM                   M IMCTM CM1    TNTH  09020IMKDC KA PTB  00005  K0                1431DES        000000000000 DENSO TEN (THAILAND)                                                                                                                                            *G         20200402 IMCT                IMCT                                                                                                                    WMF2004026.TXT
MAKK03180419202004N3               89828070200P3YK20200415000060SPEAKER ASM                   M IMCTM CM1    TNTH  09020IMKDC KA PTB  00005  K0                0231NES        000000000000 DENSO TEN (THAILAND)                                                                                                                                            *G         20200402 IMCT                IMCT                                                                                                                    WMF2004026.TXT
MAKK03180420202004D3               89828070200P3YK20200415000060SPEAKER ASM                   M IMCTM CM1    TNTH  09020IMKDC KA PTB  00005  K0                1431DES        000000000000 DENSO TEN (THAILAND)                                                                                                                                            *G         20200402 IMCT                IMCT                                                                                                                    WMF2004026.TXT
MAKK03180421202004N3               89828070200P3YK20200416000060SPEAKER ASM                   M IMCTM CM1    TNTH  09020IMKDC KA PTB  00005  K0                0231NES        000000000000 DENSO TEN (THAILAND)                                                                                                                                            *G         20200402 IMCT                IMCT                                                                                                                    WMF2004026.TXT
MAKK03180422202004D3               89828070200P3YK20200416000030SPEAKER ASM                   M IMCTM CM1    TNTH  09020IMKDC KA PTB  00005  K0                1431DES        000000000000 DENSO TEN (THAILAND)                                                                                                                                            *G         20200402 IMCT                IMCT                                                                                                                    WMF2004026.TXT
MAKK03180423202004N3               89828070200P3YK20200417000060SPEAKER ASM                   M IMCTM CM1    TNTH  09020IMKDC KA PTB  00005  K0                0231NES        000000000000 DENSO TEN (THAILAND)                                                                                                                                            *G         20200402 IMCT                IMCT                                                                                                                    WMF2004026.TXT
MAKK03180424202004D3               89828070300P3YK20200413000060SPEAKER ASM                   M IMCTM CM1    TNTH  09020IMKDC KA PTB  00015  K0                1431DES        000000000000 DENSO TEN (THAILAND)                                                                                                                                            *G         20200402 IMCT                IMCT                                                                                                                    WMF2004026.TXT
MAKK03180425202004N3               89828070300P3YK20200414000060SPEAKER ASM                   M IMCTM CM1    TNTH  09020IMKDC KA PTB  00015  K0                0231NES        000000000000 DENSO TEN (THAILAND)                                                                                                                                            *G         20200402 IMCT                IMCT                                                                                                                    WMF2004026.TXT
MAKK03180426202004D3               89828070300P3YK20200414000060SPEAKER ASM                   M IMCTM CM1    TNTH  09020IMKDC KA PTB  00015  K0                1431DES        000000000000 DENSO TEN (THAILAND)                                                                                                                                            *G         20200402 IMCT                IMCT                                                                                                                    WMF2004026.TXT
MAKK03180427202004N3               89828070300P3YK20200415000060SPEAKER ASM                   M IMCTM CM1    TNTH  09020IMKDC KA PTB  00015  K0                0231NES        000000000000 DENSO TEN (THAILAND)                                                                                                                                            *G         20200402 IMCT                IMCT                                                                                                                    WMF2004026.TXT
MAKK03180428202004D3               89828070300P3YK20200415000060SPEAKER ASM                   M IMCTM CM1    TNTH  09020IMKDC KA PTB  00015  K0                1431DES        000000000000 DENSO TEN (THAILAND)                                                                                                                                            *G         20200402 IMCT                IMCT                                                                                                                    WMF2004026.TXT
MAKK03180429202004N3               89828070300P3YK20200416000060SPEAKER ASM                   M IMCTM CM1    TNTH  09020IMKDC KA PTB  00015  K0                0231NES        000000000000 DENSO TEN (THAILAND)                                                                                                                                            *G         20200402 IMCT                IMCT                                                                                                                    WMF2004026.TXT
MAKK03180430202004D3               89828070300P3YK20200416000060SPEAKER ASM                   M IMCTM CM1    TNTH  09020IMKDC KA PTB  00015  K0                1431DES        000000000000 DENSO TEN (THAILAND)                                                                                                                                            *G         20200402 IMCT                IMCT                                                                                                                    WMF2004026.TXT
MAKK03180431202004N3               89828070300P3YK20200417000090SPEAKER ASM                   M IMCTM CM1    TNTH  09020IMKDC KA PTB  00015  K0                0231NES        000000000000 DENSO TEN (THAILAND)                                                                                                                                            *G         20200402 IMCT                IMCT                                                                                                                    WMF2004026.TXT
MAKK03180432202004D3               89828070300P3YK20200417000030SPEAKER ASM                   M IMCTM CM1    TNTH  09020IMKDC KA PTB  00015  K0                1431DES        000000000000 DENSO TEN (THAILAND)                                                                                                                                            *G         20200402 IMCT                IMCT                                                                                                                    WMF2004026.TXT
