REC2020040320200403ISUZU                              10     
MDEFL4T03089202004                D89828070100PV4F20200409000030SPEAKER ASM                   M IMCTM S7FL05 TNTH  09020IMCT  S7 PTB  00004                    1300 SR        000000000000 DENSO TEN (THAILAND)190D86R0022   190G59R0062   R200401701    R200401715    000000                                                                              *R         20200403 IMCT                IMCT                                                                                                                    RMF2004034.TXT
MDEFL4T03090202004                D89828070200PV4F20200408000005SPEAKER ASM                   M IMCTM S7FL05 TNTH  09020IMCT  S7 PTB  00005                    2100 SR        000000000000 DENSO TEN (THAILAND)190J98R0144   190J98R0146   H200401503    H200401505    000000                                                                              *R         20200403 IMCT                IMCT                                                                                                                    RMF2004034.TXT
MDEFL4T03091202004                D89828070300PT4F20200408000010SPEAKER ASM                   M IMCTM S7TS02 TNTH  09020IMCT  S7 PTB  00015                    1600 SR        000000000000 DENSO TEN (THAILAND)190J98R0142   190J98R0146   H200401501    H200401505    000000                                                                              *R         20200403 IMCT                IMCT                                                                                                                    RMF2004034.TXT
MDEFL4T03092202004                D89831229210PT4F20200408000002RADIO;AM/FM,CD                M IMCTM S7U137 TNTH  09020IMCT  S7 PTB  00003                    2100 SR        000000000000 DENSO TEN (THAILAND)190J98R0145   190J98R0146   H200401504    H200401505    000000                                                                              *R         20200403 IMCT                IMCT                                                                                                                    RMF2004034.TXT
MDEFL4206902202004                D89828070100PV4F20200408000004SPEAKER ASM                   M IMCTM S7FL05 TNTH  09020IMCT  S7 PTB  00004                    1600 SR        000000000000 DENSO TEN (THAILAND)190J98R0142   190J98R0143   H200401501    H200401502    000000                                                                              *R         20200403 IMCT                IMCT                                                                                                                    RMF2004034.TXT
MDEFL4206903202004                D89828070100PV4F20200408000028SPEAKER ASM                   M IMCTM S7FL05 TNTH  09020IMCT  S7 PTB  00004                    2100 SR        000000000000 DENSO TEN (THAILAND)190J98R0144   190G59R0063   H200401503    R200401801    000000                                                                              *R         20200403 IMCT                IMCT                                                                                                                    RMF2004034.TXT
MDEFL4206904202004                D89828070100PV4F20200409000016SPEAKER ASM                   M IMCTM S7FL05 TNTH  09020IMCT  S7 PTB  00004                    0230 SR        000000000000 DENSO TEN (THAILAND)190G59R0064   190J90R0026   R200401802    R200401809    000000                                                                              *R         20200403 IMCT                IMCT                                                                                                                    RMF2004034.TXT
MDEFL4206905202004                D89828070100PV4F20200409000012SPEAKER ASM                   M IMCTM S7FL05 TNTH  09020IMCT  S7 PTB  00004                    0830 SR        000000000000 DENSO TEN (THAILAND)190J90R0027   170L33R0060   R200401810    R200401815    000000                                                                              *R         20200403 IMCT                IMCT                                                                                                                    RMF2004034.TXT
MDEFL4206906202004                D89828070200PV4F20200408000005SPEAKER ASM                   M IMCTM S7FL05 TNTH  09020IMCT  S7 PTB  00005                    1600 SR        000000000000 DENSO TEN (THAILAND)190J98R0142   190J98R0144   H200401501    H200401503    000000                                                                              *R         20200403 IMCT                IMCT                                                                                                                    RMF2004034.TXT
MDEFL4206907202004                D89831229210PT4F20200408000003RADIO;AM/FM,CD                M IMCTM S7U137 TNTH  09020IMCT  S7 PTB  00003                    1600 SR        000000000000 DENSO TEN (THAILAND)190J98R0142   190J98R0144   H200401501    H200401503    000000                                                                              *R         20200403 IMCT                IMCT                                                                                                                    RMF2004034.TXT
