REC2020051920200519ISUZU                              9      
MDEBL5T05566202005                D89828070100PT4B20200526000010SPEAKER ASM                   M IMCTM S7FL05 TNTH  09020IMCT  S7 PTB  00004                    1030 SR        000000000000 DENSO TEN (THAILAND)190F64R0157   190F64R0161   Z200502011    Z200502015    000000                                                                              *R         20200519 IMCT                IMCT                                                                                                                    RMF2005194.TXT
MDEBL5T05567202005                D89828070200PV4B20200526000010SPEAKER ASM                   M IMCTM S7FL05 TNTH  09020IMCT  S7 PTB  00005                    1030 SR        000000000000 DENSO TEN (THAILAND)190F64R0157   190F64R0161   Z200502011    Z200502015    000000                                                                              *R         20200519 IMCT                IMCT                                                                                                                    RMF2005194.TXT
MDEBL5T05568202005                D89828070300PT4B20200526000030SPEAKER ASM                   M IMCTM S7TS02 TNTH  09020IMCT  S7 PTB  00015                    0830 SR        000000000000 DENSO TEN (THAILAND)190F64R0150   190F64R0161   Z200502001    Z200502015    000000                                                                              *R         20200519 IMCT                IMCT                                                                                                                    RMF2005194.TXT
MDEBL5T05569202005                D89838432900PT4B20200526000006RADIO;ASM DVD                 M IMCTM S7TS01 TNTH  09020IMCT  S7 PTB  00003                    1030 SR        000000000000 DENSO TEN (THAILAND)190F64R0156   190F64R0161   Z200502010    Z200502015    000000                                                                              *R         20200519 IMCT                IMCT                                                                                                                    RMF2005194.TXT
MDEBL5406285202005                D89828070100PT4B20200526000020SPEAKER ASM                   M IMCTM S7FL05 TNTH  09020IMCT  S7 PTB  00004                    0830 SR        000000000000 DENSO TEN (THAILAND)190F64R0150   190F64R0156   Z200502001    Z200502010    000000                                                                              *R         20200519 IMCT                IMCT                                                                                                                    RMF2005194.TXT
MDEBL5406286202005                D89828070200PV4B20200526000020SPEAKER ASM                   M IMCTM S7FL05 TNTH  09020IMCT  S7 PTB  00005                    0830 SR        000000000000 DENSO TEN (THAILAND)190F64R0150   190F64R0156   Z200502001    Z200502010    000000                                                                              *R         20200519 IMCT                IMCT                                                                                                                    RMF2005194.TXT
MDEBL5406287202005                D89838432900PT4B20200526000006RADIO;ASM DVD                 M IMCTM S7TS01 TNTH  09020IMCT  S7 PTB  00003                    0830 SR        000000000000 DENSO TEN (THAILAND)190F64R0150   190F64R0155   Z200502001    Z200502009    000000                                                                              *R         20200519 IMCT                IMCT                                                                                                                    RMF2005194.TXT
MDEFL5T09360202005                D89828070100PV4F20200526000006SPEAKER ASM                   M IMCTM S7FL05 TNTH  09020IMCT  S7 PTB  00004                    1600 SR        000000000000 DENSO TEN (THAILAND)190K71R0122   190K71R0124   S200502113    S200502115    000000                                                                              *R         20200519 IMCT                IMCT                                                                                                                    RMF2005194.TXT
MDEFL5213513202005                D89828070100PV4F20200526000024SPEAKER ASM                   M IMCTM S7FL05 TNTH  09020IMCT  S7 PTB  00004                    1300 SR        000000000000 DENSO TEN (THAILAND)190K07R0088   190K71R0121   S200502101    S200502112    000000                                                                              *R         20200519 IMCT                IMCT                                                                                                                    RMF2005194.TXT
