REC2020050920200509ISUZU                              26     
MDDUL5206424202005                D89828070100PT4U20200514000030SPEAKER ASM                   M IMCTM S0FL05 TNTH  09020IMCT  S0 PTB  00004                    1300 SR        000000000000 DENSO TEN (THAILAND)190MUKU0049049                                                                                                                              *          20200509 IMCT                IMCT                                                                                                                    WMF2005095.TXT
MDDUL5206425202005                D89828070100PT4U20200514000030SPEAKER ASM                   M IMCTM S0FL05 TNTH  09020IMCT  S0 PTB  00004                    1600 SR        000000000000 DENSO TEN (THAILAND)190MUJU0073073                                                                                                                              *          20200509 IMCT                IMCT                                                                                                                    WMF2005095.TXT
MDDUL5206426202005                D89828070200PV4U20200514000030SPEAKER ASM                   M IMCTM S0FR05 TNTH  09020IMCT  S0 PTB  00005                    1300 SR        000000000000 DENSO TEN (THAILAND)190MUKU0049049                                                                                                                              *          20200509 IMCT                IMCT                                                                                                                    WMF2005095.TXT
MDDUL5206427202005                D89828070200PV4U20200514000030SPEAKER ASM                   M IMCTM S0FR05 TNTH  09020IMCT  S0 PTB  00005                    1600 SR        000000000000 DENSO TEN (THAILAND)190MUJU0073073                                                                                                                              *          20200509 IMCT                IMCT                                                                                                                    WMF2005095.TXT
MDDUL5206428202005                D89828070300PT4U20200514000030SPEAKER ASM                   M IMCTM S9TS02 TNTH  09020IMCT  S9 PTB  00015                    1300 SR        000000000000 DENSO TEN (THAILAND)190MUKU0049049                                                                                                                              *          20200509 IMCT                IMCT                                                                                                                    WMF2005095.TXT
MDDUL5206429202005                D89828070300PT4U20200514000030SPEAKER ASM                   M IMCTM S9TS02 TNTH  09020IMCT  S9 PTB  00015                    1600 SR        000000000000 DENSO TEN (THAILAND)190MUJU0073073                                                                                                                              *          20200509 IMCT                IMCT                                                                                                                    WMF2005095.TXT
MDEDL5224122202005                D89828070100PV1D20200514000060SPEAKER ASM                   M IMCTM S5MB11 TNTH  09020IMCT  S5 PTB  00004                    1030 SR        000000000000 DENSO TEN (THAILAND)190K13L0007007190L81L0012012                                                                                                                *          20200509 IMCT                IMCT                                                                                                                    WMF2005095.TXT
MDEDL5224123202005                D89828070100PV1D20200514000150SPEAKER ASM                   M IMCTM S5MB11 TNTH  09020IMCT  S5 PTB  00004                    1300 SR        000000000000 DENSO TEN (THAILAND)190J91L0109109190K07L0027027190K08L0048048190K12L0159159190K21L0117117                                                                      *          20200509 IMCT                IMCT                                                                                                                    WMF2005095.TXT
MDEDL5224124202005                D89828070100PV1D20200514000060SPEAKER ASM                   M IMCTM S5MB11 TNTH  09020IMCT  S5 PTB  00004                    1600 SR        000000000000 DENSO TEN (THAILAND)190K21L0118118190K81L0024024                                                                                                                *          20200509 IMCT                IMCT                                                                                                                    WMF2005095.TXT
MDEDL5224125202005                D89828070100PV1D20200515000030SPEAKER ASM                   M IMCTM S5MB11 TNTH  09020IMCT  S5 PTB  00004                    0830 SR        000000000000 DENSO TEN (THAILAND)190K09L0019019                                                                                                                              *          20200509 IMCT                IMCT                                                                                                                    WMF2005095.TXT
MDEDL5224126202005                D89828070200PV1D20200514000030SPEAKER ASM                   M IMCTM S5MA151TNTH  09020IMCT  S5 PTB  00005                    1030 SR        000000000000 DENSO TEN (THAILAND)190L81L0012012                                                                                                                              *          20200509 IMCT                IMCT                                                                                                                    WMF2005095.TXT
MDEDL5224127202005                D89828070200PV1D20200514000030SPEAKER ASM                   M IMCTM S5MA151TNTH  09020IMCT  S5 PTB  00005                    1300 SR        000000000000 DENSO TEN (THAILAND)190K21L0117117                                                                                                                              *          20200509 IMCT                IMCT                                                                                                                    WMF2005095.TXT
MDEDL5224128202005                D89828070200PV1D20200514000030SPEAKER ASM                   M IMCTM S5MA151TNTH  09020IMCT  S5 PTB  00005                    1600 SR        000000000000 DENSO TEN (THAILAND)190K21L0118118                                                                                                                              *          20200509 IMCT                IMCT                                                                                                                    WMF2005095.TXT
MDEDL5224129202005                D89828070300PT1D20200514000030SPEAKER ASM                   M IMCTM S5BC083TNTH  09020IMCT  S5 PTB  00015                    1030 SR        000000000000 DENSO TEN (THAILAND)190L81L0012012                                                                                                                              *          20200509 IMCT                IMCT                                                                                                                    WMF2005095.TXT
MDEDL5224130202005                D89828070300PT1D20200514000030SPEAKER ASM                   M IMCTM S5BC083TNTH  09020IMCT  S5 PTB  00015                    1300 SR        000000000000 DENSO TEN (THAILAND)190K21L0117117                                                                                                                              *          20200509 IMCT                IMCT                                                                                                                    WMF2005095.TXT
MDEDL5224131202005                D89828070300PT1D20200514000030SPEAKER ASM                   M IMCTM S5BC083TNTH  09020IMCT  S5 PTB  00015                    1600 SR        000000000000 DENSO TEN (THAILAND)190K21L0118118                                                                                                                              *          20200509 IMCT                IMCT                                                                                                                    WMF2005095.TXT
MDEDL5224132202005                D89838031200PT1D20200514000015RADIO;ASM DVD                 M IMCTM S5ND041TNTH  09020IMCT  S5 PTB  00003                    1300 SR        000000000000 DENSO TEN (THAILAND)190K21L0117117                                                                                                                              *          20200509 IMCT                IMCT                                                                                                                    WMF2005095.TXT
MDEDL5224133202005                D89838031200PT1D20200514000015RADIO;ASM DVD                 M IMCTM S5ND041TNTH  09020IMCT  S5 PTB  00003                    1600 SR        000000000000 DENSO TEN (THAILAND)190K21L0118118                                                                                                                              *          20200509 IMCT                IMCT                                                                                                                    WMF2005095.TXT
MDEUL5209954202005                D89752845400PT4U20200514000015RADIO;AM FM,CD D              M IMCTM S9AD002TNTH  09020IMCT  S9 PTB  00003                    1300 SR        000000000000 DENSO TEN (THAILAND)190G29U0047047                                                                                                                              *          20200509 IMCT                IMCT                                                                                                                    WMF2005095.TXT
MDEUL5209955202005                D89752845400PT4U20200515000015RADIO;AM FM,CD D              M IMCTM S9AD002TNTH  09020IMCT  S9 PTB  00003                    0830 SR        000000000000 DENSO TEN (THAILAND)190G29U0048048                                                                                                                              *          20200509 IMCT                IMCT                                                                                                                    WMF2005095.TXT
MDEUL5209956202005                D89828070100PT4U20200514000060SPEAKER ASM                   M IMCTM S0FL05 TNTH  09020IMCT  S0 PTB  00004                    1300 SR        000000000000 DENSO TEN (THAILAND)190F59U0034034190G29U0047047                                                                                                                *          20200509 IMCT                IMCT                                                                                                                    WMF2005095.TXT
MDEUL5209957202005                D89828070100PT4U20200515000030SPEAKER ASM                   M IMCTM S0FL05 TNTH  09020IMCT  S0 PTB  00004                    0830 SR        000000000000 DENSO TEN (THAILAND)190G29U0048048                                                                                                                              *          20200509 IMCT                IMCT                                                                                                                    WMF2005095.TXT
MDEUL5209958202005                D89828070200PV4U20200514000060SPEAKER ASM                   M IMCTM S0FR05 TNTH  09020IMCT  S0 PTB  00005                    1300 SR        000000000000 DENSO TEN (THAILAND)190F59U0034034190G29U0047047                                                                                                                *          20200509 IMCT                IMCT                                                                                                                    WMF2005095.TXT
MDEUL5209959202005                D89828070200PV4U20200515000030SPEAKER ASM                   M IMCTM S0FR05 TNTH  09020IMCT  S0 PTB  00005                    0830 SR        000000000000 DENSO TEN (THAILAND)190G29U0048048                                                                                                                              *          20200509 IMCT                IMCT                                                                                                                    WMF2005095.TXT
MDEUL5209960202005                D89828070300PT4U20200514000060SPEAKER ASM                   M IMCTM S9TS02 TNTH  09020IMCT  S9 PTB  00015                    1300 SR        000000000000 DENSO TEN (THAILAND)190F59U0034034190G29U0047047                                                                                                                *          20200509 IMCT                IMCT                                                                                                                    WMF2005095.TXT
MDEUL5209961202005                D89828070300PT4U20200515000030SPEAKER ASM                   M IMCTM S9TS02 TNTH  09020IMCT  S9 PTB  00015                    0830 SR        000000000000 DENSO TEN (THAILAND)190G29U0048048                                                                                                                              *          20200509 IMCT                IMCT                                                                                                                    WMF2005095.TXT
