REC2020052120200521ISUZU                              5      
MDEFL5T11504202005                D89828070100PV4F20200528000026SPEAKER ASM                   M IMCTM S7FL05 TNTH  09020IMCT  S7 PTB  00004                    1300 SR        000000000000 DENSO TEN (THAILAND)190J54R0004   190F44R0147   D200600303    D200600315    000000                                                                              *R         20200521 IMCT                IMCT                                                                                                                    RMF2005218.TXT
MDEFL5T11505202005                D89828070200PV4F20200528000004SPEAKER ASM                   M IMCTM S7FL05 TNTH  09020IMCT  S7 PTB  00005                    1300 SR        000000000000 DENSO TEN (THAILAND)190D84R0111   190F44R0147   D200600314    D200600315    000000                                                                              *R         20200521 IMCT                IMCT                                                                                                                    RMF2005218.TXT
MDEFL5T11506202005                D89828070300PT4F20200528000026SPEAKER ASM                   M IMCTM S7TS02 TNTH  09020IMCT  S7 PTB  00015                    1300 SR        000000000000 DENSO TEN (THAILAND)190J54R0004   190F44R0147   D200600303    D200600315    000000                                                                              *R         20200521 IMCT                IMCT                                                                                                                    RMF2005218.TXT
MDEFL5T11507202005                D89848582010PT4F20200528000002RADIO;AM/FM CD D              M IMCTM S7TS01 TNTH  09020IMCT  S7 PTB  00003                    1300 SR        000000000000 DENSO TEN (THAILAND)190D84R0111   190F44R0147   D200600314    D200600315    000000                                                                              *R         20200521 IMCT                IMCT                                                                                                                    RMF2005218.TXT
MDEFL5218382202005                D89828070100PV4F20200528000004SPEAKER ASM                   M IMCTM S7FL05 TNTH  09020IMCT  S7 PTB  00004                    1030 SR        000000000000 DENSO TEN (THAILAND)190J53R0001   190J53R0002   D200600301    D200600302    000000                                                                              *R         20200521 IMCT                IMCT                                                                                                                    RMF2005218.TXT
