REC2020051220200512ISUZU                              4      
MDEFL5T06155202005                D89828070100PV4F20200519000030SPEAKER ASM                   M IMCTM S7FL05 TNTH  09020IMCT  S7 PTB  00004                    1300 SR        000000000000 DENSO TEN (THAILAND)190G53R0074   190M54R0041   H200501401    H200501415    000000                                                                              *R         20200512 IMCT                IMCT                                                                                                                    RMF2005126.TXT
MDEFL5T06156202005                D89828070200PV4F20200519000014SPEAKER ASM                   M IMCTM S7FL05 TNTH  09020IMCT  S7 PTB  00005                    1300 SR        000000000000 DENSO TEN (THAILAND)190J98R0147   190J98R0153   H200501408    H200501414    000000                                                                              *R         20200512 IMCT                IMCT                                                                                                                    RMF2005126.TXT
MDEFL5T06157202005                D89828070300PT4F20200519000014SPEAKER ASM                   M IMCTM S7TS02 TNTH  09020IMCT  S7 PTB  00015                    1300 SR        000000000000 DENSO TEN (THAILAND)190J98R0147   190J98R0153   H200501408    H200501414    000000                                                                              *R         20200512 IMCT                IMCT                                                                                                                    RMF2005126.TXT
MDEFL5T06158202005                D89831229210PT4F20200519000007RADIO;AM/FM,CD                M IMCTM S7U137 TNTH  09020IMCT  S7 PTB  00003                    1300 SR        000000000000 DENSO TEN (THAILAND)190J98R0147   190J98R0153   H200501408    H200501414    000000                                                                              *R         20200512 IMCT                IMCT                                                                                                                    RMF2005126.TXT
