REC2020050820200508ISUZU                              34     
MDDUL5204901202005                D89828070100PT4U20200513000030SPEAKER ASM                   M IMCTM S0FL05 TNTH  09020IMCT  S0 PTB  00004                    1300 SR        000000000000 DENSO TEN (THAILAND)190MUKU0048048                                                                                                                              *          20200508 IMCT                IMCT                                                                                                                    WMF2005087.TXT
MDDUL5204902202005                D89828070100PT4U20200513000030SPEAKER ASM                   M IMCTM S0FL05 TNTH  09020IMCT  S0 PTB  00004                    1600 SR        000000000000 DENSO TEN (THAILAND)190MUJU0072072                                                                                                                              *          20200508 IMCT                IMCT                                                                                                                    WMF2005087.TXT
MDDUL5204903202005                D89828070200PV4U20200513000030SPEAKER ASM                   M IMCTM S0FR05 TNTH  09020IMCT  S0 PTB  00005                    1300 SR        000000000000 DENSO TEN (THAILAND)190MUKU0048048                                                                                                                              *          20200508 IMCT                IMCT                                                                                                                    WMF2005087.TXT
MDDUL5204904202005                D89828070200PV4U20200513000030SPEAKER ASM                   M IMCTM S0FR05 TNTH  09020IMCT  S0 PTB  00005                    1600 SR        000000000000 DENSO TEN (THAILAND)190MUJU0072072                                                                                                                              *          20200508 IMCT                IMCT                                                                                                                    WMF2005087.TXT
MDDUL5204905202005                D89828070300PT4U20200513000030SPEAKER ASM                   M IMCTM S9TS02 TNTH  09020IMCT  S9 PTB  00015                    1300 SR        000000000000 DENSO TEN (THAILAND)190MUKU0048048                                                                                                                              *          20200508 IMCT                IMCT                                                                                                                    WMF2005087.TXT
MDDUL5204906202005                D89828070300PT4U20200513000030SPEAKER ASM                   M IMCTM S9TS02 TNTH  09020IMCT  S9 PTB  00015                    1600 SR        000000000000 DENSO TEN (THAILAND)190MUJU0072072                                                                                                                              *          20200508 IMCT                IMCT                                                                                                                    WMF2005087.TXT
MDEDL5219484202005                D89828070100PV1D20200513000060SPEAKER ASM                   M IMCTM S5MB11 TNTH  09020IMCT  S5 PTB  00004                    1030 SR        000000000000 DENSO TEN (THAILAND)190J91L0108108190K21L0115115                                                                                                                *          20200508 IMCT                IMCT                                                                                                                    WMF2005087.TXT
MDEDL5219485202005                D89828070100PV1D20200513000150SPEAKER ASM                   M IMCTM S5MB11 TNTH  09020IMCT  S5 PTB  00004                    1300 SR        000000000000 DENSO TEN (THAILAND)190J92L0055055190K07L0026026190K08L0047047190K19L0020020190K21L0116116                                                                      *          20200508 IMCT                IMCT                                                                                                                    WMF2005087.TXT
MDEDL5219486202005                D89828070100PV1D20200513000060SPEAKER ASM                   M IMCTM S5MB11 TNTH  09020IMCT  S5 PTB  00004                    1600 SR        000000000000 DENSO TEN (THAILAND)190K12L0157157190K19L0021021                                                                                                                *          20200508 IMCT                IMCT                                                                                                                    WMF2005087.TXT
MDEDL5219487202005                D89828070100PV1D20200514000060SPEAKER ASM                   M IMCTM S5MB11 TNTH  09020IMCT  S5 PTB  00004                    0830 SR        000000000000 DENSO TEN (THAILAND)190K12L0158158190K86L0009009                                                                                                                *          20200508 IMCT                IMCT                                                                                                                    WMF2005087.TXT
MDEDL5219488202005                D89828070100PV4D20200514000030SPEAKER ASM                   M IMCTM S0FL05 TNTH  09020IMCT  S0 PTB  00004                    1030 SR        000000000000 DENSO TEN (THAILAND)190K19U0061061                                                                                                                              *          20200508 IMCT                IMCT                                                                                                                    WMF2005087.TXT
MDEDL5219489202005                D89828070200PV1D20200513000030SPEAKER ASM                   M IMCTM S5MA151TNTH  09020IMCT  S5 PTB  00005                    1030 SR        000000000000 DENSO TEN (THAILAND)190K21L0115115                                                                                                                              *          20200508 IMCT                IMCT                                                                                                                    WMF2005087.TXT
MDEDL5219490202005                D89828070200PV1D20200513000060SPEAKER ASM                   M IMCTM S5MA151TNTH  09020IMCT  S5 PTB  00005                    1300 SR        000000000000 DENSO TEN (THAILAND)190K19L0020020190K21L0116116                                                                                                                *          20200508 IMCT                IMCT                                                                                                                    WMF2005087.TXT
MDEDL5219491202005                D89828070200PV1D20200513000030SPEAKER ASM                   M IMCTM S5MA151TNTH  09020IMCT  S5 PTB  00005                    1600 SR        000000000000 DENSO TEN (THAILAND)190K19L0021021                                                                                                                              *          20200508 IMCT                IMCT                                                                                                                    WMF2005087.TXT
MDEDL5219492202005                D89828070200PV1D20200514000030SPEAKER ASM                   M IMCTM S5MA151TNTH  09020IMCT  S5 PTB  00005                    0830 SR        000000000000 DENSO TEN (THAILAND)190K86L0009009                                                                                                                              *          20200508 IMCT                IMCT                                                                                                                    WMF2005087.TXT
MDEDL5219493202005                D89828070200PV4D20200514000030SPEAKER ASM                   M IMCTM S0FR05 TNTH  09020IMCT  S0 PTB  00005                    1030 SR        000000000000 DENSO TEN (THAILAND)190K19U0061061                                                                                                                              *          20200508 IMCT                IMCT                                                                                                                    WMF2005087.TXT
MDEDL5219494202005                D89828070300PT1D20200513000030SPEAKER ASM                   M IMCTM S5BC083TNTH  09020IMCT  S5 PTB  00015                    1030 SR        000000000000 DENSO TEN (THAILAND)190K21L0115115                                                                                                                              *          20200508 IMCT                IMCT                                                                                                                    WMF2005087.TXT
MDEDL5219495202005                D89828070300PT1D20200513000090SPEAKER ASM                   M IMCTM S5BC083TNTH  09020IMCT  S5 PTB  00015                    1300 SR        000000000000 DENSO TEN (THAILAND)190J92L0055055190K19L0020020190K21L0116116                                                                                                  *          20200508 IMCT                IMCT                                                                                                                    WMF2005087.TXT
MDEDL5219496202005                D89828070300PT1D20200513000030SPEAKER ASM                   M IMCTM S5BC083TNTH  09020IMCT  S5 PTB  00015                    1600 SR        000000000000 DENSO TEN (THAILAND)190K19L0021021                                                                                                                              *          20200508 IMCT                IMCT                                                                                                                    WMF2005087.TXT
MDEDL5219497202005                D89828070300PT1D20200514000030SPEAKER ASM                   M IMCTM S5BC083TNTH  09020IMCT  S5 PTB  00015                    0830 SR        000000000000 DENSO TEN (THAILAND)190K86L0009009                                                                                                                              *          20200508 IMCT                IMCT                                                                                                                    WMF2005087.TXT
MDEDL5219498202005                D89828070300PT4D20200514000030SPEAKER ASM                   M IMCTM S9TS02 TNTH  09020IMCT  S9 PTB  00015                    1030 SR        000000000000 DENSO TEN (THAILAND)190K19U0061061                                                                                                                              *          20200508 IMCT                IMCT                                                                                                                    WMF2005087.TXT
MDEDL5219499202005                D89831229020PT1D20200514000015RADIO;AM/FM,CD                M IMCTM S5ND041TNTH  09020IMCT  S5 PTB  00003                    0830 SR        000000000000 DENSO TEN (THAILAND)190K86L0009009                                                                                                                              *          20200508 IMCT                IMCT                                                                                                                    WMF2005087.TXT
MDEDL5219500202005                D89831229210PT1D20200513000015RADIO;AM/FM,CD                M IMCTM S5ND041TNTH  09020IMCT  S5 PTB  00003                    1300 SR        000000000000 DENSO TEN (THAILAND)190J92L0055055                                                                                                                              *          20200508 IMCT                IMCT                                                                                                                    WMF2005087.TXT
MDEDL5219501202005                D89838031200PT1D20200513000015RADIO;ASM DVD                 M IMCTM S5ND041TNTH  09020IMCT  S5 PTB  00003                    1030 SR        000000000000 DENSO TEN (THAILAND)190K21L0115115                                                                                                                              *          20200508 IMCT                IMCT                                                                                                                    WMF2005087.TXT
MDEDL5219502202005                D89838031200PT1D20200513000030RADIO;ASM DVD                 M IMCTM S5ND041TNTH  09020IMCT  S5 PTB  00003                    1300 SR        000000000000 DENSO TEN (THAILAND)190K19L0020020190K21L0116116                                                                                                                *          20200508 IMCT                IMCT                                                                                                                    WMF2005087.TXT
MDEDL5219503202005                D89838031200PT1D20200513000015RADIO;ASM DVD                 M IMCTM S5ND041TNTH  09020IMCT  S5 PTB  00003                    1600 SR        000000000000 DENSO TEN (THAILAND)190K19L0021021                                                                                                                              *          20200508 IMCT                IMCT                                                                                                                    WMF2005087.TXT
MDEDL5219504202005                D89838031200PT4D20200514000015RADIO;ASM DVD                 M IMCTM S9CO001TNTH  09020IMCT  S9 PTB  00003                    1030 SR        000000000000 DENSO TEN (THAILAND)190K19U0061061                                                                                                                              *          20200508 IMCT                IMCT                                                                                                                    WMF2005087.TXT
MDEUL5207887202005                D89752845400PT4U20200514000015RADIO;AM FM,CD D              M IMCTM S9AD002TNTH  09020IMCT  S9 PTB  00003                    0830 SR        000000000000 DENSO TEN (THAILAND)190G24U0039039                                                                                                                              *          20200508 IMCT                IMCT                                                                                                                    WMF2005087.TXT
MDEUL5207888202005                D89828070100PT4U20200513000030SPEAKER ASM                   M IMCTM S0FL05 TNTH  09020IMCT  S0 PTB  00004                    1300 SR        000000000000 DENSO TEN (THAILAND)190G32U0296296                                                                                                                              *          20200508 IMCT                IMCT                                                                                                                    WMF2005087.TXT
MDEUL5207889202005                D89828070100PT4U20200514000030SPEAKER ASM                   M IMCTM S0FL05 TNTH  09020IMCT  S0 PTB  00004                    0830 SR        000000000000 DENSO TEN (THAILAND)190G24U0039039                                                                                                                              *          20200508 IMCT                IMCT                                                                                                                    WMF2005087.TXT
MDEUL5207890202005                D89828070200PV4U20200513000030SPEAKER ASM                   M IMCTM S0FR05 TNTH  09020IMCT  S0 PTB  00005                    1300 SR        000000000000 DENSO TEN (THAILAND)190G32U0296296                                                                                                                              *          20200508 IMCT                IMCT                                                                                                                    WMF2005087.TXT
MDEUL5207891202005                D89828070200PV4U20200514000030SPEAKER ASM                   M IMCTM S0FR05 TNTH  09020IMCT  S0 PTB  00005                    0830 SR        000000000000 DENSO TEN (THAILAND)190G24U0039039                                                                                                                              *          20200508 IMCT                IMCT                                                                                                                    WMF2005087.TXT
MDEUL5207892202005                D89828070300PT4U20200513000030SPEAKER ASM                   M IMCTM S9TS02 TNTH  09020IMCT  S9 PTB  00015                    1300 SR        000000000000 DENSO TEN (THAILAND)190G32U0296296                                                                                                                              *          20200508 IMCT                IMCT                                                                                                                    WMF2005087.TXT
MDEUL5207893202005                D89828070300PT4U20200514000030SPEAKER ASM                   M IMCTM S9TS02 TNTH  09020IMCT  S9 PTB  00015                    0830 SR        000000000000 DENSO TEN (THAILAND)190G24U0039039                                                                                                                              *          20200508 IMCT                IMCT                                                                                                                    WMF2005087.TXT
