REC2020050720200507ISUZU                              29     
MDDUL5203415202005                D89828070100PT4U20200512000030SPEAKER ASM                   M IMCTM S0FL05 TNTH  09020IMCT  S0 PTB  00004                    1300 SR        000000000000 DENSO TEN (THAILAND)190MUJU0071071                                                                                                                              *          20200507 IMCT                IMCT                                                                                                                    WMF2005075.TXT
MDDUL5203416202005                D89828070200PV4U20200512000030SPEAKER ASM                   M IMCTM S0FR05 TNTH  09020IMCT  S0 PTB  00005                    1300 SR        000000000000 DENSO TEN (THAILAND)190MUJU0071071                                                                                                                              *          20200507 IMCT                IMCT                                                                                                                    WMF2005075.TXT
MDDUL5203417202005                D89828070300PT4U20200512000030SPEAKER ASM                   M IMCTM S9TS02 TNTH  09020IMCT  S9 PTB  00015                    1300 SR        000000000000 DENSO TEN (THAILAND)190MUJU0071071                                                                                                                              *          20200507 IMCT                IMCT                                                                                                                    WMF2005075.TXT
MDEDL5214260202005                D89828070100PV1D20200512000060SPEAKER ASM                   M IMCTM S5MB11 TNTH  09020IMCT  S5 PTB  00004                    1030 SR        000000000000 DENSO TEN (THAILAND)190D87L0003003190K14L0014014                                                                                                                *          20200507 IMCT                IMCT                                                                                                                    WMF2005075.TXT
MDEDL5214261202005                D89828070100PV1D20200512000150SPEAKER ASM                   M IMCTM S5MB11 TNTH  09020IMCT  S5 PTB  00004                    1300 SR        000000000000 DENSO TEN (THAILAND)190J91L0107107190K12L0156156190K14L0015015190K21L0113114                                                                                    *          20200507 IMCT                IMCT                                                                                                                    WMF2005075.TXT
MDEDL5214262202005                D89828070100PV1D20200512000060SPEAKER ASM                   M IMCTM S5MB11 TNTH  09020IMCT  S5 PTB  00004                    1600 SR        000000000000 DENSO TEN (THAILAND)190K07L0025025190K22L0014014                                                                                                                *          20200507 IMCT                IMCT                                                                                                                    WMF2005075.TXT
MDEDL5214263202005                D89828070100PV1D20200513000090SPEAKER ASM                   M IMCTM S5MB11 TNTH  09020IMCT  S5 PTB  00004                    0830 SR        000000000000 DENSO TEN (THAILAND)190K09L0018018190K22L0015015190K83L0025025                                                                                                  *          20200507 IMCT                IMCT                                                                                                                    WMF2005075.TXT
MDEDL5214264202005                D89828070100PV4D20200512000030SPEAKER ASM                   M IMCTM S0FL05 TNTH  09020IMCT  S0 PTB  00004                    1030 SR        000000000000 DENSO TEN (THAILAND)190K19U0060060                                                                                                                              *          20200507 IMCT                IMCT                                                                                                                    WMF2005075.TXT
MDEDL5214265202005                D89828070200PV1D20200512000060SPEAKER ASM                   M IMCTM S5MA151TNTH  09020IMCT  S5 PTB  00005                    1300 SR        000000000000 DENSO TEN (THAILAND)190K21L0113114                                                                                                                              *          20200507 IMCT                IMCT                                                                                                                    WMF2005075.TXT
MDEDL5214266202005                D89828070200PV1D20200512000030SPEAKER ASM                   M IMCTM S5MA151TNTH  09020IMCT  S5 PTB  00005                    1600 SR        000000000000 DENSO TEN (THAILAND)190K22L0014014                                                                                                                              *          20200507 IMCT                IMCT                                                                                                                    WMF2005075.TXT
MDEDL5214267202005                D89828070200PV1D20200513000060SPEAKER ASM                   M IMCTM S5MA151TNTH  09020IMCT  S5 PTB  00005                    0830 SR        000000000000 DENSO TEN (THAILAND)190K22L0015015190K83L0025025                                                                                                                *          20200507 IMCT                IMCT                                                                                                                    WMF2005075.TXT
MDEDL5214268202005                D89828070200PV4D20200512000030SPEAKER ASM                   M IMCTM S0FR05 TNTH  09020IMCT  S0 PTB  00005                    1030 SR        000000000000 DENSO TEN (THAILAND)190K19U0060060                                                                                                                              *          20200507 IMCT                IMCT                                                                                                                    WMF2005075.TXT
MDEDL5214269202005                D89828070300PT1D20200512000060SPEAKER ASM                   M IMCTM S5BC083TNTH  09020IMCT  S5 PTB  00015                    1300 SR        000000000000 DENSO TEN (THAILAND)190K21L0113114                                                                                                                              *          20200507 IMCT                IMCT                                                                                                                    WMF2005075.TXT
MDEDL5214270202005                D89828070300PT1D20200512000030SPEAKER ASM                   M IMCTM S5BC083TNTH  09020IMCT  S5 PTB  00015                    1600 SR        000000000000 DENSO TEN (THAILAND)190K22L0014014                                                                                                                              *          20200507 IMCT                IMCT                                                                                                                    WMF2005075.TXT
MDEDL5214271202005                D89828070300PT1D20200513000060SPEAKER ASM                   M IMCTM S5BC083TNTH  09020IMCT  S5 PTB  00015                    0830 SR        000000000000 DENSO TEN (THAILAND)190K22L0015015190K83L0025025                                                                                                                *          20200507 IMCT                IMCT                                                                                                                    WMF2005075.TXT
MDEDL5214272202005                D89828070300PT4D20200512000030SPEAKER ASM                   M IMCTM S9TS02 TNTH  09020IMCT  S9 PTB  00015                    1030 SR        000000000000 DENSO TEN (THAILAND)190K19U0060060                                                                                                                              *          20200507 IMCT                IMCT                                                                                                                    WMF2005075.TXT
MDEDL5214273202005                D89838031200PT1D20200512000030RADIO;ASM DVD                 M IMCTM S5ND041TNTH  09020IMCT  S5 PTB  00003                    1300 SR        000000000000 DENSO TEN (THAILAND)190K21L0113114                                                                                                                              *          20200507 IMCT                IMCT                                                                                                                    WMF2005075.TXT
MDEDL5214274202005                D89838031200PT1D20200512000015RADIO;ASM DVD                 M IMCTM S5ND041TNTH  09020IMCT  S5 PTB  00003                    1600 SR        000000000000 DENSO TEN (THAILAND)190K22L0014014                                                                                                                              *          20200507 IMCT                IMCT                                                                                                                    WMF2005075.TXT
MDEDL5214275202005                D89838031200PT1D20200513000015RADIO;ASM DVD                 M IMCTM S5ND041TNTH  09020IMCT  S5 PTB  00003                    0830 SR        000000000000 DENSO TEN (THAILAND)190K22L0015015                                                                                                                              *          20200507 IMCT                IMCT                                                                                                                    WMF2005075.TXT
MDEDL5214276202005                D89838031200PT4D20200512000015RADIO;ASM DVD                 M IMCTM S9CO001TNTH  09020IMCT  S9 PTB  00003                    1030 SR        000000000000 DENSO TEN (THAILAND)190K19U0060060                                                                                                                              *          20200507 IMCT                IMCT                                                                                                                    WMF2005075.TXT
MDEUL5205815202005                D89828070100PT4U20200512000060SPEAKER ASM                   M IMCTM S0FL05 TNTH  09020IMCT  S0 PTB  00004                    1300 SR        000000000000 DENSO TEN (THAILAND)190G26U0074074190G32U0294294                                                                                                                *          20200507 IMCT                IMCT                                                                                                                    WMF2005075.TXT
MDEUL5205816202005                D89828070100PT4U20200513000030SPEAKER ASM                   M IMCTM S0FL05 TNTH  09020IMCT  S0 PTB  00004                    0830 SR        000000000000 DENSO TEN (THAILAND)190G32U0295295                                                                                                                              *          20200507 IMCT                IMCT                                                                                                                    WMF2005075.TXT
MDEUL5205817202005                D89828070100PT4U20200513000030SPEAKER ASM                   M IMCTM S0FL05 TNTH  09020IMCT  S0 PTB  00004                    1030 SR        000000000000 DENSO TEN (THAILAND)190F59U0033033                                                                                                                              *          20200507 IMCT                IMCT                                                                                                                    WMF2005075.TXT
MDEUL5205818202005                D89828070200PV4U20200512000060SPEAKER ASM                   M IMCTM S0FR05 TNTH  09020IMCT  S0 PTB  00005                    1300 SR        000000000000 DENSO TEN (THAILAND)190G26U0074074190G32U0294294                                                                                                                *          20200507 IMCT                IMCT                                                                                                                    WMF2005075.TXT
MDEUL5205819202005                D89828070200PV4U20200513000030SPEAKER ASM                   M IMCTM S0FR05 TNTH  09020IMCT  S0 PTB  00005                    0830 SR        000000000000 DENSO TEN (THAILAND)190G32U0295295                                                                                                                              *          20200507 IMCT                IMCT                                                                                                                    WMF2005075.TXT
MDEUL5205820202005                D89828070200PV4U20200513000030SPEAKER ASM                   M IMCTM S0FR05 TNTH  09020IMCT  S0 PTB  00005                    1030 SR        000000000000 DENSO TEN (THAILAND)190F59U0033033                                                                                                                              *          20200507 IMCT                IMCT                                                                                                                    WMF2005075.TXT
MDEUL5205821202005                D89828070300PT4U20200512000060SPEAKER ASM                   M IMCTM S9TS02 TNTH  09020IMCT  S9 PTB  00015                    1300 SR        000000000000 DENSO TEN (THAILAND)190G26U0074074190G32U0294294                                                                                                                *          20200507 IMCT                IMCT                                                                                                                    WMF2005075.TXT
MDEUL5205822202005                D89828070300PT4U20200513000030SPEAKER ASM                   M IMCTM S9TS02 TNTH  09020IMCT  S9 PTB  00015                    0830 SR        000000000000 DENSO TEN (THAILAND)190G32U0295295                                                                                                                              *          20200507 IMCT                IMCT                                                                                                                    WMF2005075.TXT
MDEUL5205823202005                D89828070300PT4U20200513000030SPEAKER ASM                   M IMCTM S9TS02 TNTH  09020IMCT  S9 PTB  00015                    1030 SR        000000000000 DENSO TEN (THAILAND)190F59U0033033                                                                                                                              *          20200507 IMCT                IMCT                                                                                                                    WMF2005075.TXT
