REC2020051420200514ISUZU                              17     
MAKK05087328202005D3               89825451200P3YK20200525000030SPEAKER ASM;ROOF              M IMCTM CM1    TNTH  09020IMKDC KA PTB  00036  K0                1431DES        000000000000 DENSO TEN (THAILAND)                                                                                                                                            *G         20200514 IMCT                IMCT                                                                                                                    WMF200514B.TXT
MAKK05087329202005D3               89825451200P3YK20200528000030SPEAKER ASM;ROOF              M IMCTM CM1    TNTH  09020IMKDC KA PTB  00036  K0                1431DES        000000000000 DENSO TEN (THAILAND)                                                                                                                                            *G         20200514 IMCT                IMCT                                                                                                                    WMF200514B.TXT
MAKK05087330202005D3               89828070100P3YK20200526000030SPEAKER ASM                   M IMCTM CM1    TNTH  09020IMKDC KA PTB  00004  K0                1431DES        000000000000 DENSO TEN (THAILAND)                                                                                                                                            *G         20200514 IMCT                IMCT                                                                                                                    WMF200514B.TXT
MAKK05087331202005D3               89828070100P3YK20200527000060SPEAKER ASM                   M IMCTM CM1    TNTH  09020IMKDC KA PTB  00004  K0                1431DES        000000000000 DENSO TEN (THAILAND)                                                                                                                                            *G         20200514 IMCT                IMCT                                                                                                                    WMF200514B.TXT
MAKK05087332202005D3               89828070100P3YK20200529000030SPEAKER ASM                   M IMCTM CM1    TNTH  09020IMKDC KA PTB  00004  K0                1431DES        000000000000 DENSO TEN (THAILAND)                                                                                                                                            *G         20200514 IMCT                IMCT                                                                                                                    WMF200514B.TXT
MAKK05087333202005D3               89828070100P3YK20200601000030SPEAKER ASM                   M IMCTM CM1    TNTH  09020IMKDC KA PTB  00004  K0                1431DES        000000000000 DENSO TEN (THAILAND)                                                                                                                                            *G         20200514 IMCT                IMCT                                                                                                                    WMF200514B.TXT
MAKK05087334202005D3               89828070100P3YK20200602000060SPEAKER ASM                   M IMCTM CM1    TNTH  09020IMKDC KA PTB  00004  K0                1431DES        000000000000 DENSO TEN (THAILAND)                                                                                                                                            *G         20200514 IMCT                IMCT                                                                                                                    WMF200514B.TXT
MAKK05087335202005D3               89828070100P3YK20200604000030SPEAKER ASM                   M IMCTM CM1    TNTH  09020IMKDC KA PTB  00004  K0                1431DES        000000000000 DENSO TEN (THAILAND)                                                                                                                                            *G         20200514 IMCT                IMCT                                                                                                                    WMF200514B.TXT
MAKK05087336202005D3               89828070100P3YK20200605000030SPEAKER ASM                   M IMCTM CM1    TNTH  09020IMKDC KA PTB  00004  K0                1431DES        000000000000 DENSO TEN (THAILAND)                                                                                                                                            *G         20200514 IMCT                IMCT                                                                                                                    WMF200514B.TXT
MAKK05087337202005D3               89828070200P3YK20200526000030SPEAKER ASM                   M IMCTM CM1    TNTH  09020IMKDC KA PTB  00005  K0                1431DES        000000000000 DENSO TEN (THAILAND)                                                                                                                                            *G         20200514 IMCT                IMCT                                                                                                                    WMF200514B.TXT
MAKK05087338202005D3               89828070200P3YK20200527000030SPEAKER ASM                   M IMCTM CM1    TNTH  09020IMKDC KA PTB  00005  K0                1431DES        000000000000 DENSO TEN (THAILAND)                                                                                                                                            *G         20200514 IMCT                IMCT                                                                                                                    WMF200514B.TXT
MAKK05087339202005D3               89828070300P3YK20200526000030SPEAKER ASM                   M IMCTM CM1    TNTH  09020IMKDC KA PTB  00015  K0                1431DES        000000000000 DENSO TEN (THAILAND)                                                                                                                                            *G         20200514 IMCT                IMCT                                                                                                                    WMF200514B.TXT
MAKK05087340202005D3               89828070300P3YK20200527000030SPEAKER ASM                   M IMCTM CM1    TNTH  09020IMKDC KA PTB  00015  K0                1431DES        000000000000 DENSO TEN (THAILAND)                                                                                                                                            *G         20200514 IMCT                IMCT                                                                                                                    WMF200514B.TXT
MAKK05087341202005D3               89828070300P3YK20200528000030SPEAKER ASM                   M IMCTM CM1    TNTH  09020IMKDC KA PTB  00015  K0                1431DES        000000000000 DENSO TEN (THAILAND)                                                                                                                                            *G         20200514 IMCT                IMCT                                                                                                                    WMF200514B.TXT
MAKK05091004202005D3               89828070100P3YK20200525000030SPEAKER ASM                   M IMCTM PK3    TNTH  09020IMKDC KA PTB  00004  K0                1431DES        000000000000 DENSO TEN (THAILAND)                                                                                                                                            *G         20200514 IMCT                IMCT                                                                                                                    WMF200514B.TXT
MAKK05091005202005D3               89828070100P3YK20200529000030SPEAKER ASM                   M IMCTM PK3    TNTH  09020IMKDC KA PTB  00004  K0                1431DES        000000000000 DENSO TEN (THAILAND)                                                                                                                                            *G         20200514 IMCT                IMCT                                                                                                                    WMF200514B.TXT
MAKK05091006202005D3               89828070200P3YK20200525000030SPEAKER ASM                   M IMCTM PK3    TNTH  09020IMKDC KA PTB  00005  K0                1431DES        000000000000 DENSO TEN (THAILAND)                                                                                                                                            *G         20200514 IMCT                IMCT                                                                                                                    WMF200514B.TXT
