REC2020052120200521ISUZU                              19     
MDDDL5207172202005                D89748051120PT1D20200528000030RADIO;AM/FM,CD,1              M IMCTM S5ND041TNTH  09020IMCT  S5 PTB  00005                    1300 SR        000000000000 DENSO TEN (THAILAND)200NNDL0054054                                                                                                                              *          20200521 IMCT                IMCT                                                                                                                    WMF2005218.TXT
MDEDL5271048202005                D89828070100PV1D20200528000060SPEAKER ASM                   M IMCTM S5MB11 TNTH  09020IMCT  S5 PTB  00004                    1030 SR        000000000000 DENSO TEN (THAILAND)190K12L0174174190K21L0170170                                                                                                                *          20200521 IMCT                IMCT                                                                                                                    WMF2005218.TXT
MDEDL5271049202005                D89828070100PV1D20200528000030SPEAKER ASM                   M IMCTM S5MB11 TNTH  09020IMCT  S5 PTB  00004                    1300 SR        000000000000 DENSO TEN (THAILAND)190K21L0171171                                                                                                                              *          20200521 IMCT                IMCT                                                                                                                    WMF2005218.TXT
MDEDL5271050202005                D89828070200PV1D20200528000030SPEAKER ASM                   M IMCTM S5MA151TNTH  09020IMCT  S5 PTB  00005                    1030 SR        000000000000 DENSO TEN (THAILAND)190K21L0170170                                                                                                                              *          20200521 IMCT                IMCT                                                                                                                    WMF2005218.TXT
MDEDL5271051202005                D89828070200PV1D20200528000030SPEAKER ASM                   M IMCTM S5MA151TNTH  09020IMCT  S5 PTB  00005                    1300 SR        000000000000 DENSO TEN (THAILAND)190K21L0171171                                                                                                                              *          20200521 IMCT                IMCT                                                                                                                    WMF2005218.TXT
MDEDL5271052202005                D89828070300PT1D20200528000030SPEAKER ASM                   M IMCTM S5BC083TNTH  09020IMCT  S5 PTB  00015                    1030 SR        000000000000 DENSO TEN (THAILAND)190K21L0170170                                                                                                                              *          20200521 IMCT                IMCT                                                                                                                    WMF2005218.TXT
MDEDL5271053202005                D89828070300PT1D20200528000030SPEAKER ASM                   M IMCTM S5BC083TNTH  09020IMCT  S5 PTB  00015                    1300 SR        000000000000 DENSO TEN (THAILAND)190K21L0171171                                                                                                                              *          20200521 IMCT                IMCT                                                                                                                    WMF2005218.TXT
MDEDL5271054202005                D89838031200PT1D20200528000015RADIO;ASM DVD                 M IMCTM S5ND041TNTH  09020IMCT  S5 PTB  00003                    1030 SR        000000000000 DENSO TEN (THAILAND)190K21L0170170                                                                                                                              *          20200521 IMCT                IMCT                                                                                                                    WMF2005218.TXT
MDEDL5271055202005                D89838031200PT1D20200528000015RADIO;ASM DVD                 M IMCTM S5ND041TNTH  09020IMCT  S5 PTB  00003                    1300 SR        000000000000 DENSO TEN (THAILAND)190K21L0171171                                                                                                                              *          20200521 IMCT                IMCT                                                                                                                    WMF2005218.TXT
MDEUL5233048202005                D89828070100PT4U20200528000090SPEAKER ASM                   M IMCTM S0FL05 TNTH  09020IMCT  S0 PTB  00004                    1300 SR        000000000000 DENSO TEN (THAILAND)190F65U0057057190G25U0078078190G32U0303303                                                                                                  *          20200521 IMCT                IMCT                                                                                                                    WMF2005218.TXT
MDEUL5233049202005                D89828070100PT4U20200528000030SPEAKER ASM                   M IMCTM S0FL05 TNTH  09020IMCT  S0 PTB  00004                    1600 SR        000000000000 DENSO TEN (THAILAND)190G31U0194194                                                                                                                              *          20200521 IMCT                IMCT                                                                                                                    WMF2005218.TXT
MDEUL5233050202005                D89828070100PT4U20200529000030SPEAKER ASM                   M IMCTM S0FL05 TNTH  09020IMCT  S0 PTB  00004                    0830 SR        000000000000 DENSO TEN (THAILAND)190G32U0304304                                                                                                                              *          20200521 IMCT                IMCT                                                                                                                    WMF2005218.TXT
MDEUL5233051202005                D89828070200PV4U20200528000090SPEAKER ASM                   M IMCTM S0FR05 TNTH  09020IMCT  S0 PTB  00005                    1300 SR        000000000000 DENSO TEN (THAILAND)190F65U0057057190G25U0078078190G32U0303303                                                                                                  *          20200521 IMCT                IMCT                                                                                                                    WMF2005218.TXT
MDEUL5233052202005                D89828070200PV4U20200528000030SPEAKER ASM                   M IMCTM S0FR05 TNTH  09020IMCT  S0 PTB  00005                    1600 SR        000000000000 DENSO TEN (THAILAND)190G31U0194194                                                                                                                              *          20200521 IMCT                IMCT                                                                                                                    WMF2005218.TXT
MDEUL5233053202005                D89828070200PV4U20200529000030SPEAKER ASM                   M IMCTM S0FR05 TNTH  09020IMCT  S0 PTB  00005                    0830 SR        000000000000 DENSO TEN (THAILAND)190G32U0304304                                                                                                                              *          20200521 IMCT                IMCT                                                                                                                    WMF2005218.TXT
MDEUL5233054202005                D89828070300PT4U20200528000090SPEAKER ASM                   M IMCTM S9TS02 TNTH  09020IMCT  S9 PTB  00015                    1300 SR        000000000000 DENSO TEN (THAILAND)190F65U0057057190G25U0078078190G32U0303303                                                                                                  *          20200521 IMCT                IMCT                                                                                                                    WMF2005218.TXT
MDEUL5233055202005                D89828070300PT4U20200528000030SPEAKER ASM                   M IMCTM S9TS02 TNTH  09020IMCT  S9 PTB  00015                    1600 SR        000000000000 DENSO TEN (THAILAND)190G31U0194194                                                                                                                              *          20200521 IMCT                IMCT                                                                                                                    WMF2005218.TXT
MDEUL5233056202005                D89828070300PT4U20200529000030SPEAKER ASM                   M IMCTM S9TS02 TNTH  09020IMCT  S9 PTB  00015                    0830 SR        000000000000 DENSO TEN (THAILAND)190G32U0304304                                                                                                                              *          20200521 IMCT                IMCT                                                                                                                    WMF2005218.TXT
MDEUL5233057202005                D89838432900PT4U20200528000015RADIO;ASM DVD                 M IMCTM S9CO001TNTH  09020IMCT  S9 PTB  00003                    1300 SR        000000000000 DENSO TEN (THAILAND)190F65U0057057                                                                                                                              *          20200521 IMCT                IMCT                                                                                                                    WMF2005218.TXT
