REC2020050720200507ISUZU                              14     
MAKK05074549202005D3               89825451200P3YK20200518000030SPEAKER ASM;ROOF              M IMCTM CM1    TNTH  09020IMKDC KA PTB  00036  K0                1431DES        000000000000 DENSO TEN (THAILAND)                                                                                                                                            *G         20200507 IMCT                IMCT                                                                                                                    WMF2005074.TXT
MAKK05074550202005D3               89828070100P3YK20200519000060SPEAKER ASM                   M IMCTM CM1    TNTH  09020IMKDC KA PTB  00004  K0                1431DES        000000000000 DENSO TEN (THAILAND)                                                                                                                                            *G         20200507 IMCT                IMCT                                                                                                                    WMF2005074.TXT
MAKK05074551202005D3               89828070100P3YK20200520000060SPEAKER ASM                   M IMCTM CM1    TNTH  09020IMKDC KA PTB  00004  K0                1431DES        000000000000 DENSO TEN (THAILAND)                                                                                                                                            *G         20200507 IMCT                IMCT                                                                                                                    WMF2005074.TXT
MAKK05074552202005D3               89828070100P3YK20200521000060SPEAKER ASM                   M IMCTM CM1    TNTH  09020IMKDC KA PTB  00004  K0                1431DES        000000000000 DENSO TEN (THAILAND)                                                                                                                                            *G         20200507 IMCT                IMCT                                                                                                                    WMF2005074.TXT
MAKK05074553202005D3               89828070200P3YK20200519000060SPEAKER ASM                   M IMCTM CM1    TNTH  09020IMKDC KA PTB  00005  K0                1431DES        000000000000 DENSO TEN (THAILAND)                                                                                                                                            *G         20200507 IMCT                IMCT                                                                                                                    WMF2005074.TXT
MAKK05074554202005D3               89828070200P3YK20200520000030SPEAKER ASM                   M IMCTM CM1    TNTH  09020IMKDC KA PTB  00005  K0                1431DES        000000000000 DENSO TEN (THAILAND)                                                                                                                                            *G         20200507 IMCT                IMCT                                                                                                                    WMF2005074.TXT
MAKK05074555202005D3               89828070200P3YK20200521000030SPEAKER ASM                   M IMCTM CM1    TNTH  09020IMKDC KA PTB  00005  K0                1431DES        000000000000 DENSO TEN (THAILAND)                                                                                                                                            *G         20200507 IMCT                IMCT                                                                                                                    WMF2005074.TXT
MAKK05074556202005D3               89828070300P3YK20200519000060SPEAKER ASM                   M IMCTM CM1    TNTH  09020IMKDC KA PTB  00015  K0                1431DES        000000000000 DENSO TEN (THAILAND)                                                                                                                                            *G         20200507 IMCT                IMCT                                                                                                                    WMF2005074.TXT
MAKK05074557202005D3               89828070300P3YK20200520000030SPEAKER ASM                   M IMCTM CM1    TNTH  09020IMKDC KA PTB  00015  K0                1431DES        000000000000 DENSO TEN (THAILAND)                                                                                                                                            *G         20200507 IMCT                IMCT                                                                                                                    WMF2005074.TXT
MAKK05074558202005D3               89828070300P3YK20200521000060SPEAKER ASM                   M IMCTM CM1    TNTH  09020IMKDC KA PTB  00015  K0                1431DES        000000000000 DENSO TEN (THAILAND)                                                                                                                                            *G         20200507 IMCT                IMCT                                                                                                                    WMF2005074.TXT
MAKK05074559202005D3               89831228410P3YK20200520000015RADIO;AM/FM,CD                M IMCTM CM1    TNTH  09020IMKDC KA   CPB00003  K0                1431DES        000000000000 DENSO TEN (THAILAND)                                                                                                                                            *G         20200507 IMCT                IMCT                                                                                                                    WMF2005074.TXT
MAKK05074560202005D3               89831228410P3YK20200522000015RADIO;AM/FM,CD                M IMCTM CM1    TNTH  09020IMKDC KA   CPB00003  K0                1431DES        000000000000 DENSO TEN (THAILAND)                                                                                                                                            *G         20200507 IMCT                IMCT                                                                                                                    WMF2005074.TXT
MAKK05077235202005D3               89828070100P3YK20200518000030SPEAKER ASM                   M IMCTM PK3    TNTH  09020IMKDC KA PTB  00004  K0                1431DES        000000000000 DENSO TEN (THAILAND)                                                                                                                                            *G         20200507 IMCT                IMCT                                                                                                                    WMF2005074.TXT
MAKK05077236202005D3               89828070200P3YK20200518000030SPEAKER ASM                   M IMCTM PK3    TNTH  09020IMKDC KA PTB  00005  K0                1431DES        000000000000 DENSO TEN (THAILAND)                                                                                                                                            *G         20200507 IMCT                IMCT                                                                                                                    WMF2005074.TXT
