REC2020051920200519ISUZU                              28     
MDDUL5218993202005                D89828070100PT4U20200526000030SPEAKER ASM                   M IMCTM S0FL05 TNTH  09020IMCT  S0 PTB  00004                    1600 SR        000000000000 DENSO TEN (THAILAND)190MUKU0057057                                                                                                                              *          20200519 IMCT                IMCT                                                                                                                    WMF2005194.TXT
MDDUL5218994202005                D89828070100PT4U20200527000030SPEAKER ASM                   M IMCTM S0FL05 TNTH  09020IMCT  S0 PTB  00004                    1030 SR        000000000000 DENSO TEN (THAILAND)190MUJU0079079                                                                                                                              *          20200519 IMCT                IMCT                                                                                                                    WMF2005194.TXT
MDDUL5218995202005                D89828070200PV4U20200526000030SPEAKER ASM                   M IMCTM S0FR05 TNTH  09020IMCT  S0 PTB  00005                    1600 SR        000000000000 DENSO TEN (THAILAND)190MUKU0057057                                                                                                                              *          20200519 IMCT                IMCT                                                                                                                    WMF2005194.TXT
MDDUL5218996202005                D89828070200PV4U20200527000030SPEAKER ASM                   M IMCTM S0FR05 TNTH  09020IMCT  S0 PTB  00005                    1030 SR        000000000000 DENSO TEN (THAILAND)190MUJU0079079                                                                                                                              *          20200519 IMCT                IMCT                                                                                                                    WMF2005194.TXT
MDDUL5218997202005                D89828070300PT4U20200526000030SPEAKER ASM                   M IMCTM S9TS02 TNTH  09020IMCT  S9 PTB  00015                    1600 SR        000000000000 DENSO TEN (THAILAND)190MUKU0057057                                                                                                                              *          20200519 IMCT                IMCT                                                                                                                    WMF2005194.TXT
MDDUL5218998202005                D89828070300PT4U20200527000030SPEAKER ASM                   M IMCTM S9TS02 TNTH  09020IMCT  S9 PTB  00015                    1030 SR        000000000000 DENSO TEN (THAILAND)190MUJU0079079                                                                                                                              *          20200519 IMCT                IMCT                                                                                                                    WMF2005194.TXT
MDEDL5264952202005                D89828070100PV1D20200526000060SPEAKER ASM                   M IMCTM S5MB11 TNTH  09020IMCT  S5 PTB  00004                    1030 SR        000000000000 DENSO TEN (THAILAND)190K09L0022022190K21L0158158                                                                                                                *          20200519 IMCT                IMCT                                                                                                                    WMF2005194.TXT
MDEDL5264953202005                D89828070100PV1D20200526000150SPEAKER ASM                   M IMCTM S5MB11 TNTH  09020IMCT  S5 PTB  00004                    1300 SR        000000000000 DENSO TEN (THAILAND)190K12L0170170190K21L0159161190M53L0004004                                                                                                  *          20200519 IMCT                IMCT                                                                                                                    WMF2005194.TXT
MDEDL5264954202005                D89828070100PV1D20200526000060SPEAKER ASM                   M IMCTM S5MB11 TNTH  09020IMCT  S5 PTB  00004                    1600 SR        000000000000 DENSO TEN (THAILAND)190K12L0171171190K21L0162162                                                                                                                *          20200519 IMCT                IMCT                                                                                                                    WMF2005194.TXT
MDEDL5264955202005                D89828070100PV1D20200527000060SPEAKER ASM                   M IMCTM S5MB11 TNTH  09020IMCT  S5 PTB  00004                    0830 SR        000000000000 DENSO TEN (THAILAND)190D87L0004004190K81L0025025                                                                                                                *          20200519 IMCT                IMCT                                                                                                                    WMF2005194.TXT
MDEDL5264956202005                D89828070100PV4D20200526000030SPEAKER ASM                   M IMCTM S0FL05 TNTH  09020IMCT  S0 PTB  00004                    1300 SR        000000000000 DENSO TEN (THAILAND)190L81U0015015                                                                                                                              *          20200519 IMCT                IMCT                                                                                                                    WMF2005194.TXT
MDEDL5264957202005                D89828070200PV1D20200526000030SPEAKER ASM                   M IMCTM S5MA151TNTH  09020IMCT  S5 PTB  00005                    1030 SR        000000000000 DENSO TEN (THAILAND)190K21L0158158                                                                                                                              *          20200519 IMCT                IMCT                                                                                                                    WMF2005194.TXT
MDEDL5264958202005                D89828070200PV1D20200526000090SPEAKER ASM                   M IMCTM S5MA151TNTH  09020IMCT  S5 PTB  00005                    1300 SR        000000000000 DENSO TEN (THAILAND)190K21L0159161                                                                                                                              *          20200519 IMCT                IMCT                                                                                                                    WMF2005194.TXT
MDEDL5264959202005                D89828070200PV1D20200526000030SPEAKER ASM                   M IMCTM S5MA151TNTH  09020IMCT  S5 PTB  00005                    1600 SR        000000000000 DENSO TEN (THAILAND)190K21L0162162                                                                                                                              *          20200519 IMCT                IMCT                                                                                                                    WMF2005194.TXT
MDEDL5264960202005                D89828070200PV4D20200526000030SPEAKER ASM                   M IMCTM S0FR05 TNTH  09020IMCT  S0 PTB  00005                    1300 SR        000000000000 DENSO TEN (THAILAND)190L81U0015015                                                                                                                              *          20200519 IMCT                IMCT                                                                                                                    WMF2005194.TXT
MDEDL5264961202005                D89828070300PT1D20200526000030SPEAKER ASM                   M IMCTM S5BC083TNTH  09020IMCT  S5 PTB  00015                    1030 SR        000000000000 DENSO TEN (THAILAND)190K21L0158158                                                                                                                              *          20200519 IMCT                IMCT                                                                                                                    WMF2005194.TXT
MDEDL5264962202005                D89828070300PT1D20200526000090SPEAKER ASM                   M IMCTM S5BC083TNTH  09020IMCT  S5 PTB  00015                    1300 SR        000000000000 DENSO TEN (THAILAND)190K21L0159161                                                                                                                              *          20200519 IMCT                IMCT                                                                                                                    WMF2005194.TXT
MDEDL5264963202005                D89828070300PT1D20200526000030SPEAKER ASM                   M IMCTM S5BC083TNTH  09020IMCT  S5 PTB  00015                    1600 SR        000000000000 DENSO TEN (THAILAND)190K21L0162162                                                                                                                              *          20200519 IMCT                IMCT                                                                                                                    WMF2005194.TXT
MDEDL5264964202005                D89828070300PT4D20200526000030SPEAKER ASM                   M IMCTM S9TS02 TNTH  09020IMCT  S9 PTB  00015                    1300 SR        000000000000 DENSO TEN (THAILAND)190L81U0015015                                                                                                                              *          20200519 IMCT                IMCT                                                                                                                    WMF2005194.TXT
MDEDL5264965202005                D89838031200PT1D20200526000015RADIO;ASM DVD                 M IMCTM S5ND041TNTH  09020IMCT  S5 PTB  00003                    1030 SR        000000000000 DENSO TEN (THAILAND)190K21L0158158                                                                                                                              *          20200519 IMCT                IMCT                                                                                                                    WMF2005194.TXT
MDEDL5264966202005                D89838031200PT1D20200526000045RADIO;ASM DVD                 M IMCTM S5ND041TNTH  09020IMCT  S5 PTB  00003                    1300 SR        000000000000 DENSO TEN (THAILAND)190K21L0159161                                                                                                                              *          20200519 IMCT                IMCT                                                                                                                    WMF2005194.TXT
MDEDL5264967202005                D89838031200PT1D20200526000015RADIO;ASM DVD                 M IMCTM S5ND041TNTH  09020IMCT  S5 PTB  00003                    1600 SR        000000000000 DENSO TEN (THAILAND)190K21L0162162                                                                                                                              *          20200519 IMCT                IMCT                                                                                                                    WMF2005194.TXT
MDEUL5227512202005                D89828070100PT4U20200526000030SPEAKER ASM                   M IMCTM S0FL05 TNTH  09020IMCT  S0 PTB  00004                    1300 SR        000000000000 DENSO TEN (THAILAND)190G32U0302302                                                                                                                              *          20200519 IMCT                IMCT                                                                                                                    WMF2005194.TXT
MDEUL5227513202005                D89828070100PT4U20200526000030SPEAKER ASM                   M IMCTM S0FL05 TNTH  09020IMCT  S0 PTB  00004                    1600 SR        000000000000 DENSO TEN (THAILAND)190G31U0192192                                                                                                                              *          20200519 IMCT                IMCT                                                                                                                    WMF2005194.TXT
MDEUL5227514202005                D89828070200PV4U20200526000030SPEAKER ASM                   M IMCTM S0FR05 TNTH  09020IMCT  S0 PTB  00005                    1300 SR        000000000000 DENSO TEN (THAILAND)190G32U0302302                                                                                                                              *          20200519 IMCT                IMCT                                                                                                                    WMF2005194.TXT
MDEUL5227515202005                D89828070200PV4U20200526000030SPEAKER ASM                   M IMCTM S0FR05 TNTH  09020IMCT  S0 PTB  00005                    1600 SR        000000000000 DENSO TEN (THAILAND)190G31U0192192                                                                                                                              *          20200519 IMCT                IMCT                                                                                                                    WMF2005194.TXT
MDEUL5227516202005                D89828070300PT4U20200526000030SPEAKER ASM                   M IMCTM S9TS02 TNTH  09020IMCT  S9 PTB  00015                    1300 SR        000000000000 DENSO TEN (THAILAND)190G32U0302302                                                                                                                              *          20200519 IMCT                IMCT                                                                                                                    WMF2005194.TXT
MDEUL5227517202005                D89828070300PT4U20200526000030SPEAKER ASM                   M IMCTM S9TS02 TNTH  09020IMCT  S9 PTB  00015                    1600 SR        000000000000 DENSO TEN (THAILAND)190G31U0192192                                                                                                                              *          20200519 IMCT                IMCT                                                                                                                    WMF2005194.TXT
