REC2020050520200505ISUZU                              28     
MDDUL5200640202005                D89828070100PT4U20200510000030SPEAKER ASM                   M IMCTM S0FL05 TNTH  09020IMCT  S0 PTB  00004                    0400 SR        000000000000 DENSO TEN (THAILAND)190MUAU0046046                                                                                                                              *          20200505 IMCT                IMCT                                                                                                                    WMF2005052.TXT
MDDUL5200641202005                D89828070200PV4U20200510000030SPEAKER ASM                   M IMCTM S0FR05 TNTH  09020IMCT  S0 PTB  00005                    0400 SR        000000000000 DENSO TEN (THAILAND)190MUAU0046046                                                                                                                              *          20200505 IMCT                IMCT                                                                                                                    WMF2005052.TXT
MDDUL5200642202005                D89828070300PT4U20200510000030SPEAKER ASM                   M IMCTM S9TS02 TNTH  09020IMCT  S9 PTB  00015                    0400 SR        000000000000 DENSO TEN (THAILAND)190MUAU0046046                                                                                                                              *          20200505 IMCT                IMCT                                                                                                                    WMF2005052.TXT
MDDUL5200643202005                D89831228410PT4U20200510000015RADIO;AM/FM,CD                M IMCTM S9CO001TNTH  09020IMCT  S9 CPB  00003                    0400 SR        000000000000 DENSO TEN (THAILAND)190MUAU0046046                                                                                                                              *          20200505 IMCT                IMCT                                                                                                                    WMF2005052.TXT
MDEDL5204007202005                D89828070100PV1D20200509000120SPEAKER ASM                   M IMCTM S5MB11 TNTH  09020IMCT  S5 PTB  00004                    2230 SR        000000000000 DENSO TEN (THAILAND)190K21L0105106190K81L0022023                                                                                                                *          20200505 IMCT                IMCT                                                                                                                    WMF2005052.TXT
MDEDL5204008202005                D89828070100PV1D20200510000060SPEAKER ASM                   M IMCTM S5MB11 TNTH  09020IMCT  S5 PTB  00004                    0230 SR        000000000000 DENSO TEN (THAILAND)190J91L0105105190K14L0012012                                                                                                                *          20200505 IMCT                IMCT                                                                                                                    WMF2005052.TXT
MDEDL5204009202005                D89828070100PV1D20200510000090SPEAKER ASM                   M IMCTM S5MB11 TNTH  09020IMCT  S5 PTB  00004                    0400 SR        000000000000 DENSO TEN (THAILAND)190K21L0107108190L37L0001001                                                                                                                *          20200505 IMCT                IMCT                                                                                                                    WMF2005052.TXT
MDEDL5204010202005                D89828070100PV1D20200511000060SPEAKER ASM                   M IMCTM S5MB11 TNTH  09020IMCT  S5 PTB  00004                    0830 SR        000000000000 DENSO TEN (THAILAND)190J91L0106106190K21L0109109                                                                                                                *          20200505 IMCT                IMCT                                                                                                                    WMF2005052.TXT
MDEDL5204011202005                D89828070100PV4D20200511000030SPEAKER ASM                   M IMCTM S0FL05 TNTH  09020IMCT  S0 PTB  00004                    0830 SR        000000000000 DENSO TEN (THAILAND)190L45U0010010                                                                                                                              *          20200505 IMCT                IMCT                                                                                                                    WMF2005052.TXT
MDEDL5204012202005                D89828070200PV1D20200509000060SPEAKER ASM                   M IMCTM S5MA151TNTH  09020IMCT  S5 PTB  00005                    2230 SR        000000000000 DENSO TEN (THAILAND)190K21L0105106                                                                                                                              *          20200505 IMCT                IMCT                                                                                                                    WMF2005052.TXT
MDEDL5204013202005                D89828070200PV1D20200510000060SPEAKER ASM                   M IMCTM S5MA151TNTH  09020IMCT  S5 PTB  00005                    0400 SR        000000000000 DENSO TEN (THAILAND)190K21L0107108                                                                                                                              *          20200505 IMCT                IMCT                                                                                                                    WMF2005052.TXT
MDEDL5204014202005                D89828070200PV1D20200511000030SPEAKER ASM                   M IMCTM S5MA151TNTH  09020IMCT  S5 PTB  00005                    0830 SR        000000000000 DENSO TEN (THAILAND)190K21L0109109                                                                                                                              *          20200505 IMCT                IMCT                                                                                                                    WMF2005052.TXT
MDEDL5204015202005                D89828070300PT1D20200509000060SPEAKER ASM                   M IMCTM S5BC083TNTH  09020IMCT  S5 PTB  00015                    2230 SR        000000000000 DENSO TEN (THAILAND)190K21L0105106                                                                                                                              *          20200505 IMCT                IMCT                                                                                                                    WMF2005052.TXT
MDEDL5204016202005                D89828070300PT1D20200510000060SPEAKER ASM                   M IMCTM S5BC083TNTH  09020IMCT  S5 PTB  00015                    0400 SR        000000000000 DENSO TEN (THAILAND)190K21L0107108                                                                                                                              *          20200505 IMCT                IMCT                                                                                                                    WMF2005052.TXT
MDEDL5204017202005                D89828070300PT1D20200511000030SPEAKER ASM                   M IMCTM S5BC083TNTH  09020IMCT  S5 PTB  00015                    0830 SR        000000000000 DENSO TEN (THAILAND)190K21L0109109                                                                                                                              *          20200505 IMCT                IMCT                                                                                                                    WMF2005052.TXT
MDEDL5204018202005                D89838031200PT1D20200509000030RADIO;ASM DVD                 M IMCTM S5ND041TNTH  09020IMCT  S5 PTB  00003                    2230 SR        000000000000 DENSO TEN (THAILAND)190K21L0105106                                                                                                                              *          20200505 IMCT                IMCT                                                                                                                    WMF2005052.TXT
MDEDL5204019202005                D89838031200PT1D20200510000030RADIO;ASM DVD                 M IMCTM S5ND041TNTH  09020IMCT  S5 PTB  00003                    0400 SR        000000000000 DENSO TEN (THAILAND)190K21L0107108                                                                                                                              *          20200505 IMCT                IMCT                                                                                                                    WMF2005052.TXT
MDEDL5204020202005                D89838031200PT1D20200511000015RADIO;ASM DVD                 M IMCTM S5ND041TNTH  09020IMCT  S5 PTB  00003                    0830 SR        000000000000 DENSO TEN (THAILAND)190K21L0109109                                                                                                                              *          20200505 IMCT                IMCT                                                                                                                    WMF2005052.TXT
MDEUL5201837202005                D89752845400PT4U20200510000015RADIO;AM FM,CD D              M IMCTM S9AD002TNTH  09020IMCT  S9 PTB  00003                    0400 SR        000000000000 DENSO TEN (THAILAND)190G29U0045045                                                                                                                              *          20200505 IMCT                IMCT                                                                                                                    WMF2005052.TXT
MDEUL5201838202005                D89828070100PT4U20200509000030SPEAKER ASM                   M IMCTM S0FL05 TNTH  09020IMCT  S0 PTB  00004                    2230 SR        000000000000 DENSO TEN (THAILAND)190G31U0188188                                                                                                                              *          20200505 IMCT                IMCT                                                                                                                    WMF2005052.TXT
MDEUL5201839202005                D89828070100PT4U20200510000030SPEAKER ASM                   M IMCTM S0FL05 TNTH  09020IMCT  S0 PTB  00004                    0230 SR        000000000000 DENSO TEN (THAILAND)190G32U0292292                                                                                                                              *          20200505 IMCT                IMCT                                                                                                                    WMF2005052.TXT
MDEUL5201840202005                D89828070100PT4U20200510000030SPEAKER ASM                   M IMCTM S0FL05 TNTH  09020IMCT  S0 PTB  00004                    0400 SR        000000000000 DENSO TEN (THAILAND)190G29U0045045                                                                                                                              *          20200505 IMCT                IMCT                                                                                                                    WMF2005052.TXT
MDEUL5201841202005                D89828070200PV4U20200509000030SPEAKER ASM                   M IMCTM S0FR05 TNTH  09020IMCT  S0 PTB  00005                    2230 SR        000000000000 DENSO TEN (THAILAND)190G31U0188188                                                                                                                              *          20200505 IMCT                IMCT                                                                                                                    WMF2005052.TXT
MDEUL5201842202005                D89828070200PV4U20200510000030SPEAKER ASM                   M IMCTM S0FR05 TNTH  09020IMCT  S0 PTB  00005                    0230 SR        000000000000 DENSO TEN (THAILAND)190G32U0292292                                                                                                                              *          20200505 IMCT                IMCT                                                                                                                    WMF2005052.TXT
MDEUL5201843202005                D89828070200PV4U20200510000030SPEAKER ASM                   M IMCTM S0FR05 TNTH  09020IMCT  S0 PTB  00005                    0400 SR        000000000000 DENSO TEN (THAILAND)190G29U0045045                                                                                                                              *          20200505 IMCT                IMCT                                                                                                                    WMF2005052.TXT
MDEUL5201844202005                D89828070300PT4U20200509000030SPEAKER ASM                   M IMCTM S9TS02 TNTH  09020IMCT  S9 PTB  00015                    2230 SR        000000000000 DENSO TEN (THAILAND)190G31U0188188                                                                                                                              *          20200505 IMCT                IMCT                                                                                                                    WMF2005052.TXT
MDEUL5201845202005                D89828070300PT4U20200510000030SPEAKER ASM                   M IMCTM S9TS02 TNTH  09020IMCT  S9 PTB  00015                    0230 SR        000000000000 DENSO TEN (THAILAND)190G32U0292292                                                                                                                              *          20200505 IMCT                IMCT                                                                                                                    WMF2005052.TXT
MDEUL5201846202005                D89828070300PT4U20200510000030SPEAKER ASM                   M IMCTM S9TS02 TNTH  09020IMCT  S9 PTB  00015                    0400 SR        000000000000 DENSO TEN (THAILAND)190G29U0045045                                                                                                                              *          20200505 IMCT                IMCT                                                                                                                    WMF2005052.TXT
