REC2020052820200528ISUZU                              6      
MDEFL5T17326202006                D89828070100PV4F20200609000028SPEAKER ASM                   M IMCTM S7FL05 TNTH  09020IMCT  S7 PTB  00004                    1300 SR        000000000000 DENSO TEN (THAILAND)190G51R0069   190K41R0035   R200601202    R200601215    000000                                                                              *R         20200528 IMCT                IMCT                                                                                                                    RMF2005287.TXT
MDEFL5T17327202006                D89828070200PV4F20200609000002SPEAKER ASM                   M IMCTM S7FL05 TNTH  09020IMCT  S7 PTB  00005                    1030 SR        000000000000 DENSO TEN (THAILAND)190K85R0103   190K85R0103   D200601115    D200601115    000000                                                                              *R         20200528 IMCT                IMCT                                                                                                                    RMF2005287.TXT
MDEFL5T17328202006                D89828070300PT4F20200609000002SPEAKER ASM                   M IMCTM S7TS02 TNTH  09020IMCT  S7 PTB  00015                    1030 SR        000000000000 DENSO TEN (THAILAND)190K85R0103   190K85R0103   D200601115    D200601115    000000                                                                              *R         20200528 IMCT                IMCT                                                                                                                    RMF2005287.TXT
MDEFL5T17329202006                D89831229020PT4F20200609000001RADIO;AM/FM,CD                M IMCTM S7U137 TNTH  09020IMCT  S7 PTB  00003                    1030 SR        000000000000 DENSO TEN (THAILAND)190K85R0103   190K85R0103   D200601115    D200601115    000000                                                                              *R         20200528 IMCT                IMCT                                                                                                                    RMF2005287.TXT
MDEFL5229368202006                D89828070100PV4F20200609000020SPEAKER ASM                   M IMCTM S7FL05 TNTH  09020IMCT  S7 PTB  00004                    0830 SR        000000000000 DENSO TEN (THAILAND)190L38R0049   190L38R0058   D200601101    D200601110    000000                                                                              *R         20200528 IMCT                IMCT                                                                                                                    RMF2005287.TXT
MDEFL5229369202006                D89828070100PV4F20200609000012SPEAKER ASM                   M IMCTM S7FL05 TNTH  09020IMCT  S7 PTB  00004                    1030 SR        000000000000 DENSO TEN (THAILAND)190K14R0145   190G51R0068   D200601111    R200601201    000000                                                                              *R         20200528 IMCT                IMCT                                                                                                                    RMF2005287.TXT
