REC2020051120200511ISUZU                              29     
MDDUL5209741202005                D89828070100PT4U20200518000030SPEAKER ASM                   M IMCTM S0FL05 TNTH  09020IMCT  S0 PTB  00004                    1030 SR        000000000000 DENSO TEN (THAILAND)190MUJU0074074                                                                                                                              *          20200511 IMCT                IMCT                                                                                                                    WMF2005114.TXT
MDDUL5209742202005                D89828070100PT4U20200518000030SPEAKER ASM                   M IMCTM S0FL05 TNTH  09020IMCT  S0 PTB  00004                    1300 SR        000000000000 DENSO TEN (THAILAND)190MUJU0075075                                                                                                                              *          20200511 IMCT                IMCT                                                                                                                    WMF2005114.TXT
MDDUL5209743202005                D89828070100PT4U20200518000030SPEAKER ASM                   M IMCTM S0FL05 TNTH  09020IMCT  S0 PTB  00004                    1600 SR        000000000000 DENSO TEN (THAILAND)190MULU0007007                                                                                                                              *          20200511 IMCT                IMCT                                                                                                                    WMF2005114.TXT
MDDUL5209744202005                D89828070200PV4U20200518000030SPEAKER ASM                   M IMCTM S0FR05 TNTH  09020IMCT  S0 PTB  00005                    1030 SR        000000000000 DENSO TEN (THAILAND)190MUJU0074074                                                                                                                              *          20200511 IMCT                IMCT                                                                                                                    WMF2005114.TXT
MDDUL5209745202005                D89828070200PV4U20200518000030SPEAKER ASM                   M IMCTM S0FR05 TNTH  09020IMCT  S0 PTB  00005                    1300 SR        000000000000 DENSO TEN (THAILAND)190MUJU0075075                                                                                                                              *          20200511 IMCT                IMCT                                                                                                                    WMF2005114.TXT
MDDUL5209746202005                D89828070200PV4U20200518000030SPEAKER ASM                   M IMCTM S0FR05 TNTH  09020IMCT  S0 PTB  00005                    1600 SR        000000000000 DENSO TEN (THAILAND)190MULU0007007                                                                                                                              *          20200511 IMCT                IMCT                                                                                                                    WMF2005114.TXT
MDDUL5209747202005                D89828070300PT4U20200518000030SPEAKER ASM                   M IMCTM S9TS02 TNTH  09020IMCT  S9 PTB  00015                    1030 SR        000000000000 DENSO TEN (THAILAND)190MUJU0074074                                                                                                                              *          20200511 IMCT                IMCT                                                                                                                    WMF2005114.TXT
MDDUL5209748202005                D89828070300PT4U20200518000030SPEAKER ASM                   M IMCTM S9TS02 TNTH  09020IMCT  S9 PTB  00015                    1300 SR        000000000000 DENSO TEN (THAILAND)190MUJU0075075                                                                                                                              *          20200511 IMCT                IMCT                                                                                                                    WMF2005114.TXT
MDDUL5209749202005                D89828070300PT4U20200518000030SPEAKER ASM                   M IMCTM S9TS02 TNTH  09020IMCT  S9 PTB  00015                    1600 SR        000000000000 DENSO TEN (THAILAND)190MULU0007007                                                                                                                              *          20200511 IMCT                IMCT                                                                                                                    WMF2005114.TXT
MDEDL5234004202005                D89828070100PV1D20200518000060SPEAKER ASM                   M IMCTM S5MB11 TNTH  09020IMCT  S5 PTB  00004                    1030 SR        000000000000 DENSO TEN (THAILAND)190J87L0001001190K08L0049049                                                                                                                *          20200511 IMCT                IMCT                                                                                                                    WMF2005114.TXT
MDEDL5234005202005                D89828070100PV1D20200518000150SPEAKER ASM                   M IMCTM S5MB11 TNTH  09020IMCT  S5 PTB  00004                    1300 SR        000000000000 DENSO TEN (THAILAND)190K12L0163164190K21L0125126190K22L0016016                                                                                                  *          20200511 IMCT                IMCT                                                                                                                    WMF2005114.TXT
MDEDL5234006202005                D89828070100PV1D20200518000060SPEAKER ASM                   M IMCTM S5MB11 TNTH  09020IMCT  S5 PTB  00004                    1600 SR        000000000000 DENSO TEN (THAILAND)190K21L0127127190L45L0046046                                                                                                                *          20200511 IMCT                IMCT                                                                                                                    WMF2005114.TXT
MDEDL5234007202005                D89828070100PV1D20200519000060SPEAKER ASM                   M IMCTM S5MB11 TNTH  09020IMCT  S5 PTB  00004                    0830 SR        000000000000 DENSO TEN (THAILAND)190K08L0050050190K21L0128128                                                                                                                *          20200511 IMCT                IMCT                                                                                                                    WMF2005114.TXT
MDEDL5234008202005                D89828070200PV1D20200518000090SPEAKER ASM                   M IMCTM S5MA151TNTH  09020IMCT  S5 PTB  00005                    1300 SR        000000000000 DENSO TEN (THAILAND)190K21L0125126190K22L0016016                                                                                                                *          20200511 IMCT                IMCT                                                                                                                    WMF2005114.TXT
MDEDL5234009202005                D89828070200PV1D20200518000030SPEAKER ASM                   M IMCTM S5MA151TNTH  09020IMCT  S5 PTB  00005                    1600 SR        000000000000 DENSO TEN (THAILAND)190K21L0127127                                                                                                                              *          20200511 IMCT                IMCT                                                                                                                    WMF2005114.TXT
MDEDL5234010202005                D89828070200PV1D20200519000030SPEAKER ASM                   M IMCTM S5MA151TNTH  09020IMCT  S5 PTB  00005                    0830 SR        000000000000 DENSO TEN (THAILAND)190K21L0128128                                                                                                                              *          20200511 IMCT                IMCT                                                                                                                    WMF2005114.TXT
MDEDL5234011202005                D89828070300PT1D20200518000090SPEAKER ASM                   M IMCTM S5BC083TNTH  09020IMCT  S5 PTB  00015                    1300 SR        000000000000 DENSO TEN (THAILAND)190K21L0125126190K22L0016016                                                                                                                *          20200511 IMCT                IMCT                                                                                                                    WMF2005114.TXT
MDEDL5234012202005                D89828070300PT1D20200518000030SPEAKER ASM                   M IMCTM S5BC083TNTH  09020IMCT  S5 PTB  00015                    1600 SR        000000000000 DENSO TEN (THAILAND)190K21L0127127                                                                                                                              *          20200511 IMCT                IMCT                                                                                                                    WMF2005114.TXT
MDEDL5234013202005                D89828070300PT1D20200519000030SPEAKER ASM                   M IMCTM S5BC083TNTH  09020IMCT  S5 PTB  00015                    0830 SR        000000000000 DENSO TEN (THAILAND)190K21L0128128                                                                                                                              *          20200511 IMCT                IMCT                                                                                                                    WMF2005114.TXT
MDEDL5234014202005                D89838031200PT1D20200518000045RADIO;ASM DVD                 M IMCTM S5ND041TNTH  09020IMCT  S5 PTB  00003                    1300 SR        000000000000 DENSO TEN (THAILAND)190K21L0125126190K22L0016016                                                                                                                *          20200511 IMCT                IMCT                                                                                                                    WMF2005114.TXT
MDEDL5234015202005                D89838031200PT1D20200518000015RADIO;ASM DVD                 M IMCTM S5ND041TNTH  09020IMCT  S5 PTB  00003                    1600 SR        000000000000 DENSO TEN (THAILAND)190K21L0127127                                                                                                                              *          20200511 IMCT                IMCT                                                                                                                    WMF2005114.TXT
MDEDL5234016202005                D89838031200PT1D20200519000015RADIO;ASM DVD                 M IMCTM S5ND041TNTH  09020IMCT  S5 PTB  00003                    0830 SR        000000000000 DENSO TEN (THAILAND)190K21L0128128                                                                                                                              *          20200511 IMCT                IMCT                                                                                                                    WMF2005114.TXT
MDEUL5213904202005                D89828070100PT4U20200518000030SPEAKER ASM                   M IMCTM S0FL05 TNTH  09020IMCT  S0 PTB  00004                    1300 SR        000000000000 DENSO TEN (THAILAND)190F65U0052052                                                                                                                              *          20200511 IMCT                IMCT                                                                                                                    WMF2005114.TXT
MDEUL5213905202005                D89828070100PT4U20200519000030SPEAKER ASM                   M IMCTM S0FL05 TNTH  09020IMCT  S0 PTB  00004                    1030 SR        000000000000 DENSO TEN (THAILAND)190G25U0076076                                                                                                                              *          20200511 IMCT                IMCT                                                                                                                    WMF2005114.TXT
MDEUL5213906202005                D89828070200PV4U20200518000030SPEAKER ASM                   M IMCTM S0FR05 TNTH  09020IMCT  S0 PTB  00005                    1300 SR        000000000000 DENSO TEN (THAILAND)190F65U0052052                                                                                                                              *          20200511 IMCT                IMCT                                                                                                                    WMF2005114.TXT
MDEUL5213907202005                D89828070200PV4U20200519000030SPEAKER ASM                   M IMCTM S0FR05 TNTH  09020IMCT  S0 PTB  00005                    1030 SR        000000000000 DENSO TEN (THAILAND)190G25U0076076                                                                                                                              *          20200511 IMCT                IMCT                                                                                                                    WMF2005114.TXT
MDEUL5213908202005                D89828070300PT4U20200518000030SPEAKER ASM                   M IMCTM S9TS02 TNTH  09020IMCT  S9 PTB  00015                    1300 SR        000000000000 DENSO TEN (THAILAND)190F65U0052052                                                                                                                              *          20200511 IMCT                IMCT                                                                                                                    WMF2005114.TXT
MDEUL5213909202005                D89828070300PT4U20200519000030SPEAKER ASM                   M IMCTM S9TS02 TNTH  09020IMCT  S9 PTB  00015                    1030 SR        000000000000 DENSO TEN (THAILAND)190G25U0076076                                                                                                                              *          20200511 IMCT                IMCT                                                                                                                    WMF2005114.TXT
MDEUL5213910202005                D89838432900PT4U20200518000015RADIO;ASM DVD                 M IMCTM S9CO001TNTH  09020IMCT  S9 PTB  00003                    1300 SR        000000000000 DENSO TEN (THAILAND)190F65U0052052                                                                                                                              *          20200511 IMCT                IMCT                                                                                                                    WMF2005114.TXT
