REC2020051820200518ISUZU                              35     
MDDUL5217437202005                D89828070100PT4U20200525000030SPEAKER ASM                   M IMCTM S0FL05 TNTH  09020IMCT  S0 PTB  00004                    1300 SR        000000000000 DENSO TEN (THAILAND)190MUJU0078078                                                                                                                              *          20200518 IMCT                IMCT                                                                                                                    WMF2005185.TXT
MDDUL5217438202005                D89828070100PT4U20200525000030SPEAKER ASM                   M IMCTM S0FL05 TNTH  09020IMCT  S0 PTB  00004                    1600 SR        000000000000 DENSO TEN (THAILAND)190MUKU0055055                                                                                                                              *          20200518 IMCT                IMCT                                                                                                                    WMF2005185.TXT
MDDUL5217439202005                D89828070100PT4U20200526000030SPEAKER ASM                   M IMCTM S0FL05 TNTH  09020IMCT  S0 PTB  00004                    1030 SR        000000000000 DENSO TEN (THAILAND)190MUKU0056056                                                                                                                              *          20200518 IMCT                IMCT                                                                                                                    WMF2005185.TXT
MDDUL5217440202005                D89828070200PV4U20200525000030SPEAKER ASM                   M IMCTM S0FR05 TNTH  09020IMCT  S0 PTB  00005                    1300 SR        000000000000 DENSO TEN (THAILAND)190MUJU0078078                                                                                                                              *          20200518 IMCT                IMCT                                                                                                                    WMF2005185.TXT
MDDUL5217441202005                D89828070200PV4U20200525000030SPEAKER ASM                   M IMCTM S0FR05 TNTH  09020IMCT  S0 PTB  00005                    1600 SR        000000000000 DENSO TEN (THAILAND)190MUKU0055055                                                                                                                              *          20200518 IMCT                IMCT                                                                                                                    WMF2005185.TXT
MDDUL5217442202005                D89828070200PV4U20200526000030SPEAKER ASM                   M IMCTM S0FR05 TNTH  09020IMCT  S0 PTB  00005                    1030 SR        000000000000 DENSO TEN (THAILAND)190MUKU0056056                                                                                                                              *          20200518 IMCT                IMCT                                                                                                                    WMF2005185.TXT
MDDUL5217443202005                D89828070300PT4U20200525000030SPEAKER ASM                   M IMCTM S9TS02 TNTH  09020IMCT  S9 PTB  00015                    1300 SR        000000000000 DENSO TEN (THAILAND)190MUJU0078078                                                                                                                              *          20200518 IMCT                IMCT                                                                                                                    WMF2005185.TXT
MDDUL5217444202005                D89828070300PT4U20200525000030SPEAKER ASM                   M IMCTM S9TS02 TNTH  09020IMCT  S9 PTB  00015                    1600 SR        000000000000 DENSO TEN (THAILAND)190MUKU0055055                                                                                                                              *          20200518 IMCT                IMCT                                                                                                                    WMF2005185.TXT
MDDUL5217445202005                D89828070300PT4U20200526000030SPEAKER ASM                   M IMCTM S9TS02 TNTH  09020IMCT  S9 PTB  00015                    1030 SR        000000000000 DENSO TEN (THAILAND)190MUKU0056056                                                                                                                              *          20200518 IMCT                IMCT                                                                                                                    WMF2005185.TXT
MDEDL5260526202005                D89828070100PV1D20200525000060SPEAKER ASM                   M IMCTM S5MB11 TNTH  09020IMCT  S5 PTB  00004                    1030 SR        000000000000 DENSO TEN (THAILAND)190K07L0030030190K21L0150150                                                                                                                *          20200518 IMCT                IMCT                                                                                                                    WMF2005185.TXT
MDEDL5260527202005                D89828070100PV1D20200525000150SPEAKER ASM                   M IMCTM S5MB11 TNTH  09020IMCT  S5 PTB  00004                    1300 SR        000000000000 DENSO TEN (THAILAND)190J91L0114114190K12L0169169190K21L0151153                                                                                                  *          20200518 IMCT                IMCT                                                                                                                    WMF2005185.TXT
MDEDL5260528202005                D89828070100PV1D20200525000060SPEAKER ASM                   M IMCTM S5MB11 TNTH  09020IMCT  S5 PTB  00004                    1600 SR        000000000000 DENSO TEN (THAILAND)190K21L0154155                                                                                                                              *          20200518 IMCT                IMCT                                                                                                                    WMF2005185.TXT
MDEDL5260529202005                D89828070100PV1D20200526000090SPEAKER ASM                   M IMCTM S5MB11 TNTH  09020IMCT  S5 PTB  00004                    0830 SR        000000000000 DENSO TEN (THAILAND)190J91L0115115190K21L0156157                                                                                                                *          20200518 IMCT                IMCT                                                                                                                    WMF2005185.TXT
MDEDL5260530202005                D89828070200PV1D20200525000030SPEAKER ASM                   M IMCTM S5MA151TNTH  09020IMCT  S5 PTB  00005                    1030 SR        000000000000 DENSO TEN (THAILAND)190K21L0150150                                                                                                                              *          20200518 IMCT                IMCT                                                                                                                    WMF2005185.TXT
MDEDL5260531202005                D89828070200PV1D20200525000090SPEAKER ASM                   M IMCTM S5MA151TNTH  09020IMCT  S5 PTB  00005                    1300 SR        000000000000 DENSO TEN (THAILAND)190K21L0151153                                                                                                                              *          20200518 IMCT                IMCT                                                                                                                    WMF2005185.TXT
MDEDL5260532202005                D89828070200PV1D20200525000060SPEAKER ASM                   M IMCTM S5MA151TNTH  09020IMCT  S5 PTB  00005                    1600 SR        000000000000 DENSO TEN (THAILAND)190K21L0154155                                                                                                                              *          20200518 IMCT                IMCT                                                                                                                    WMF2005185.TXT
MDEDL5260533202005                D89828070200PV1D20200526000060SPEAKER ASM                   M IMCTM S5MA151TNTH  09020IMCT  S5 PTB  00005                    0830 SR        000000000000 DENSO TEN (THAILAND)190K21L0156157                                                                                                                              *          20200518 IMCT                IMCT                                                                                                                    WMF2005185.TXT
MDEDL5260534202005                D89828070300PT1D20200525000030SPEAKER ASM                   M IMCTM S5BC083TNTH  09020IMCT  S5 PTB  00015                    1030 SR        000000000000 DENSO TEN (THAILAND)190K21L0150150                                                                                                                              *          20200518 IMCT                IMCT                                                                                                                    WMF2005185.TXT
MDEDL5260535202005                D89828070300PT1D20200525000090SPEAKER ASM                   M IMCTM S5BC083TNTH  09020IMCT  S5 PTB  00015                    1300 SR        000000000000 DENSO TEN (THAILAND)190K21L0151153                                                                                                                              *          20200518 IMCT                IMCT                                                                                                                    WMF2005185.TXT
MDEDL5260536202005                D89828070300PT1D20200525000060SPEAKER ASM                   M IMCTM S5BC083TNTH  09020IMCT  S5 PTB  00015                    1600 SR        000000000000 DENSO TEN (THAILAND)190K21L0154155                                                                                                                              *          20200518 IMCT                IMCT                                                                                                                    WMF2005185.TXT
MDEDL5260537202005                D89828070300PT1D20200526000060SPEAKER ASM                   M IMCTM S5BC083TNTH  09020IMCT  S5 PTB  00015                    0830 SR        000000000000 DENSO TEN (THAILAND)190K21L0156157                                                                                                                              *          20200518 IMCT                IMCT                                                                                                                    WMF2005185.TXT
MDEDL5260538202005                D89838031200PT1D20200525000015RADIO;ASM DVD                 M IMCTM S5ND041TNTH  09020IMCT  S5 PTB  00003                    1030 SR        000000000000 DENSO TEN (THAILAND)190K21L0150150                                                                                                                              *          20200518 IMCT                IMCT                                                                                                                    WMF2005185.TXT
MDEDL5260539202005                D89838031200PT1D20200525000045RADIO;ASM DVD                 M IMCTM S5ND041TNTH  09020IMCT  S5 PTB  00003                    1300 SR        000000000000 DENSO TEN (THAILAND)190K21L0151153                                                                                                                              *          20200518 IMCT                IMCT                                                                                                                    WMF2005185.TXT
MDEDL5260540202005                D89838031200PT1D20200525000030RADIO;ASM DVD                 M IMCTM S5ND041TNTH  09020IMCT  S5 PTB  00003                    1600 SR        000000000000 DENSO TEN (THAILAND)190K21L0154155                                                                                                                              *          20200518 IMCT                IMCT                                                                                                                    WMF2005185.TXT
MDEDL5260541202005                D89838031200PT1D20200526000030RADIO;ASM DVD                 M IMCTM S5ND041TNTH  09020IMCT  S5 PTB  00003                    0830 SR        000000000000 DENSO TEN (THAILAND)190K21L0156157                                                                                                                              *          20200518 IMCT                IMCT                                                                                                                    WMF2005185.TXT
MDEUL5225386202005                D89828070100PT4U20200525000030SPEAKER ASM                   M IMCTM S0FL05 TNTH  09020IMCT  S0 PTB  00004                    1300 SR        000000000000 DENSO TEN (THAILAND)190G32U0301301                                                                                                                              *          20200518 IMCT                IMCT                                                                                                                    WMF2005185.TXT
MDEUL5225387202005                D89828070100PT4U20200525000030SPEAKER ASM                   M IMCTM S0FL05 TNTH  09020IMCT  S0 PTB  00004                    1600 SR        000000000000 DENSO TEN (THAILAND)190G31U0191191                                                                                                                              *          20200518 IMCT                IMCT                                                                                                                    WMF2005185.TXT
MDEUL5225388202005                D89828070100PT4U20200526000030SPEAKER ASM                   M IMCTM S0FL05 TNTH  09020IMCT  S0 PTB  00004                    0830 SR        000000000000 DENSO TEN (THAILAND)190F65U0056056                                                                                                                              *          20200518 IMCT                IMCT                                                                                                                    WMF2005185.TXT
MDEUL5225389202005                D89828070200PV4U20200525000030SPEAKER ASM                   M IMCTM S0FR05 TNTH  09020IMCT  S0 PTB  00005                    1300 SR        000000000000 DENSO TEN (THAILAND)190G32U0301301                                                                                                                              *          20200518 IMCT                IMCT                                                                                                                    WMF2005185.TXT
MDEUL5225390202005                D89828070200PV4U20200525000030SPEAKER ASM                   M IMCTM S0FR05 TNTH  09020IMCT  S0 PTB  00005                    1600 SR        000000000000 DENSO TEN (THAILAND)190G31U0191191                                                                                                                              *          20200518 IMCT                IMCT                                                                                                                    WMF2005185.TXT
MDEUL5225391202005                D89828070200PV4U20200526000030SPEAKER ASM                   M IMCTM S0FR05 TNTH  09020IMCT  S0 PTB  00005                    0830 SR        000000000000 DENSO TEN (THAILAND)190F65U0056056                                                                                                                              *          20200518 IMCT                IMCT                                                                                                                    WMF2005185.TXT
MDEUL5225392202005                D89828070300PT4U20200525000030SPEAKER ASM                   M IMCTM S9TS02 TNTH  09020IMCT  S9 PTB  00015                    1300 SR        000000000000 DENSO TEN (THAILAND)190G32U0301301                                                                                                                              *          20200518 IMCT                IMCT                                                                                                                    WMF2005185.TXT
MDEUL5225393202005                D89828070300PT4U20200525000030SPEAKER ASM                   M IMCTM S9TS02 TNTH  09020IMCT  S9 PTB  00015                    1600 SR        000000000000 DENSO TEN (THAILAND)190G31U0191191                                                                                                                              *          20200518 IMCT                IMCT                                                                                                                    WMF2005185.TXT
MDEUL5225394202005                D89828070300PT4U20200526000030SPEAKER ASM                   M IMCTM S9TS02 TNTH  09020IMCT  S9 PTB  00015                    0830 SR        000000000000 DENSO TEN (THAILAND)190F65U0056056                                                                                                                              *          20200518 IMCT                IMCT                                                                                                                    WMF2005185.TXT
MDEUL5225395202005                D89838432900PT4U20200526000015RADIO;ASM DVD                 M IMCTM S9CO001TNTH  09020IMCT  S9 PTB  00003                    0830 SR        000000000000 DENSO TEN (THAILAND)190F65U0056056                                                                                                                              *          20200518 IMCT                IMCT                                                                                                                    WMF2005185.TXT
