REC2020051120200511ISUZU                              5      
MDEBL5T02597202005                D89828070100PT4B20200518000030SPEAKER ASM                   M IMCTM S7FL05 TNTH  09020IMCT  S7 PTB  00004                    1300 SR        000000000000 DENSO TEN (THAILAND)190F59R0089   190F59R0096   Z200501301    Z200501315    000000                                                                              *R         20200511 IMCT                IMCT                                                                                                                    RMF2005114.TXT
MDEBL5T02598202005                D89828070200PV4B20200518000030SPEAKER ASM                   M IMCTM S7FL05 TNTH  09020IMCT  S7 PTB  00005                    1300 SR        000000000000 DENSO TEN (THAILAND)190F59R0089   190F59R0096   Z200501301    Z200501315    000000                                                                              *R         20200511 IMCT                IMCT                                                                                                                    RMF2005114.TXT
MDEBL5T02599202005                D89828070300PT4B20200518000030SPEAKER ASM                   M IMCTM S7TS02 TNTH  09020IMCT  S7 PTB  00015                    1300 SR        000000000000 DENSO TEN (THAILAND)190F59R0089   190F59R0096   Z200501301    Z200501315    000000                                                                              *R         20200511 IMCT                IMCT                                                                                                                    RMF2005114.TXT
MDEBL5T02600202005                D89838432900PT4B20200518000007RADIO;ASM DVD                 M IMCTM S7TS01 TNTH  09020IMCT  S7 PTB  00003                    1300 SR        000000000000 DENSO TEN (THAILAND)190F64R0148   190F64R0149   Z200501304    Z200501313    000000                                                                              *R         20200511 IMCT                IMCT                                                                                                                    RMF2005114.TXT
MDEFL5T05450202005                D89828070100PV4F20200518000030SPEAKER ASM                   M IMCTM S7FL05 TNTH  09020IMCT  S7 PTB  00004                    0830 SR        000000000000 DENSO TEN (THAILAND)190K08R0128   190K49R0050   S200501201    S200501215    000000                                                                              *R         20200511 IMCT                IMCT                                                                                                                    RMF2005114.TXT
