REC2020050920200509ISUZU                              33     
MDDUL5207867202005                D89828070100PT4U20200515000030SPEAKER ASM                   M IMCTM S0FL05 TNTH  09020IMCT  S0 PTB  00004                    1030 SR        000000000000 DENSO TEN (THAILAND)190MUKU0050050                                                                                                                              *          20200509 IMCT                IMCT                                                                                                                    WMF2005097.TXT
MDDUL5207868202005                D89828070100PT4U20200515000030SPEAKER ASM                   M IMCTM S0FL05 TNTH  09020IMCT  S0 PTB  00004                    1300 SR        000000000000 DENSO TEN (THAILAND)190MUAU0047047                                                                                                                              *          20200509 IMCT                IMCT                                                                                                                    WMF2005097.TXT
MDDUL5207869202005                D89828070200PV4U20200515000030SPEAKER ASM                   M IMCTM S0FR05 TNTH  09020IMCT  S0 PTB  00005                    1030 SR        000000000000 DENSO TEN (THAILAND)190MUKU0050050                                                                                                                              *          20200509 IMCT                IMCT                                                                                                                    WMF2005097.TXT
MDDUL5207870202005                D89828070200PV4U20200515000030SPEAKER ASM                   M IMCTM S0FR05 TNTH  09020IMCT  S0 PTB  00005                    1300 SR        000000000000 DENSO TEN (THAILAND)190MUAU0047047                                                                                                                              *          20200509 IMCT                IMCT                                                                                                                    WMF2005097.TXT
MDDUL5207871202005                D89828070300PT4U20200515000030SPEAKER ASM                   M IMCTM S9TS02 TNTH  09020IMCT  S9 PTB  00015                    1030 SR        000000000000 DENSO TEN (THAILAND)190MUKU0050050                                                                                                                              *          20200509 IMCT                IMCT                                                                                                                    WMF2005097.TXT
MDDUL5207872202005                D89828070300PT4U20200515000030SPEAKER ASM                   M IMCTM S9TS02 TNTH  09020IMCT  S9 PTB  00015                    1300 SR        000000000000 DENSO TEN (THAILAND)190MUAU0047047                                                                                                                              *          20200509 IMCT                IMCT                                                                                                                    WMF2005097.TXT
MDDUL5207873202005                D89831228410PT4U20200515000015RADIO;AM/FM,CD                M IMCTM S9CO001TNTH  09020IMCT  S9 CPB  00003                    1300 SR        000000000000 DENSO TEN (THAILAND)190MUAU0047047                                                                                                                              *          20200509 IMCT                IMCT                                                                                                                    WMF2005097.TXT
MDEDL5229007202005                D89828070100PV1D20200515000090SPEAKER ASM                   M IMCTM S5MB11 TNTH  09020IMCT  S5 PTB  00004                    1030 SR        000000000000 DENSO TEN (THAILAND)190K19L0022022190K21L0119119190L45L0044044                                                                                                  *          20200509 IMCT                IMCT                                                                                                                    WMF2005097.TXT
MDEDL5229008202005                D89828070100PV1D20200515000120SPEAKER ASM                   M IMCTM S5MB11 TNTH  09020IMCT  S5 PTB  00004                    1300 SR        000000000000 DENSO TEN (THAILAND)190K12L0160161190K21L0120121                                                                                                                *          20200509 IMCT                IMCT                                                                                                                    WMF2005097.TXT
MDEDL5229009202005                D89828070100PV1D20200515000060SPEAKER ASM                   M IMCTM S5MB11 TNTH  09020IMCT  S5 PTB  00004                    1600 SR        000000000000 DENSO TEN (THAILAND)190K21L0122122190L45L0045045                                                                                                                *          20200509 IMCT                IMCT                                                                                                                    WMF2005097.TXT
MDEDL5229010202005                D89828070100PV1D20200518000090SPEAKER ASM                   M IMCTM S5MB11 TNTH  09020IMCT  S5 PTB  00004                    0830 SR        000000000000 DENSO TEN (THAILAND)190K12L0162162190K21L0123124                                                                                                                *          20200509 IMCT                IMCT                                                                                                                    WMF2005097.TXT
MDEDL5229011202005                D89828070200PV1D20200515000060SPEAKER ASM                   M IMCTM S5MA151TNTH  09020IMCT  S5 PTB  00005                    1030 SR        000000000000 DENSO TEN (THAILAND)190K19L0022022190K21L0119119                                                                                                                *          20200509 IMCT                IMCT                                                                                                                    WMF2005097.TXT
MDEDL5229012202005                D89828070200PV1D20200515000060SPEAKER ASM                   M IMCTM S5MA151TNTH  09020IMCT  S5 PTB  00005                    1300 SR        000000000000 DENSO TEN (THAILAND)190K21L0120121                                                                                                                              *          20200509 IMCT                IMCT                                                                                                                    WMF2005097.TXT
MDEDL5229013202005                D89828070200PV1D20200515000030SPEAKER ASM                   M IMCTM S5MA151TNTH  09020IMCT  S5 PTB  00005                    1600 SR        000000000000 DENSO TEN (THAILAND)190K21L0122122                                                                                                                              *          20200509 IMCT                IMCT                                                                                                                    WMF2005097.TXT
MDEDL5229014202005                D89828070200PV1D20200518000060SPEAKER ASM                   M IMCTM S5MA151TNTH  09020IMCT  S5 PTB  00005                    0830 SR        000000000000 DENSO TEN (THAILAND)190K21L0123124                                                                                                                              *          20200509 IMCT                IMCT                                                                                                                    WMF2005097.TXT
MDEDL5229015202005                D89828070300PT1D20200515000060SPEAKER ASM                   M IMCTM S5BC083TNTH  09020IMCT  S5 PTB  00015                    1030 SR        000000000000 DENSO TEN (THAILAND)190K19L0022022190K21L0119119                                                                                                                *          20200509 IMCT                IMCT                                                                                                                    WMF2005097.TXT
MDEDL5229016202005                D89828070300PT1D20200515000060SPEAKER ASM                   M IMCTM S5BC083TNTH  09020IMCT  S5 PTB  00015                    1300 SR        000000000000 DENSO TEN (THAILAND)190K21L0120121                                                                                                                              *          20200509 IMCT                IMCT                                                                                                                    WMF2005097.TXT
MDEDL5229017202005                D89828070300PT1D20200515000030SPEAKER ASM                   M IMCTM S5BC083TNTH  09020IMCT  S5 PTB  00015                    1600 SR        000000000000 DENSO TEN (THAILAND)190K21L0122122                                                                                                                              *          20200509 IMCT                IMCT                                                                                                                    WMF2005097.TXT
MDEDL5229018202005                D89828070300PT1D20200518000060SPEAKER ASM                   M IMCTM S5BC083TNTH  09020IMCT  S5 PTB  00015                    0830 SR        000000000000 DENSO TEN (THAILAND)190K21L0123124                                                                                                                              *          20200509 IMCT                IMCT                                                                                                                    WMF2005097.TXT
MDEDL5229019202005                D89838031200PT1D20200515000030RADIO;ASM DVD                 M IMCTM S5ND041TNTH  09020IMCT  S5 PTB  00003                    1030 SR        000000000000 DENSO TEN (THAILAND)190K19L0022022190K21L0119119                                                                                                                *          20200509 IMCT                IMCT                                                                                                                    WMF2005097.TXT
MDEDL5229020202005                D89838031200PT1D20200515000030RADIO;ASM DVD                 M IMCTM S5ND041TNTH  09020IMCT  S5 PTB  00003                    1300 SR        000000000000 DENSO TEN (THAILAND)190K21L0120121                                                                                                                              *          20200509 IMCT                IMCT                                                                                                                    WMF2005097.TXT
MDEDL5229021202005                D89838031200PT1D20200515000015RADIO;ASM DVD                 M IMCTM S5ND041TNTH  09020IMCT  S5 PTB  00003                    1600 SR        000000000000 DENSO TEN (THAILAND)190K21L0122122                                                                                                                              *          20200509 IMCT                IMCT                                                                                                                    WMF2005097.TXT
MDEDL5229022202005                D89838031200PT1D20200518000030RADIO;ASM DVD                 M IMCTM S5ND041TNTH  09020IMCT  S5 PTB  00003                    0830 SR        000000000000 DENSO TEN (THAILAND)190K21L0123124                                                                                                                              *          20200509 IMCT                IMCT                                                                                                                    WMF2005097.TXT
MDEUL5212241202005                D89828070100PT4U20200515000030SPEAKER ASM                   M IMCTM S0FL05 TNTH  09020IMCT  S0 PTB  00004                    1300 SR        000000000000 DENSO TEN (THAILAND)190F65U0051051                                                                                                                              *          20200509 IMCT                IMCT                                                                                                                    WMF2005097.TXT
MDEUL5212242202005                D89828070100PT4U20200515000030SPEAKER ASM                   M IMCTM S0FL05 TNTH  09020IMCT  S0 PTB  00004                    1600 SR        000000000000 DENSO TEN (THAILAND)190G25U0075075                                                                                                                              *          20200509 IMCT                IMCT                                                                                                                    WMF2005097.TXT
MDEUL5212243202005                D89828070100PT4U20200518000030SPEAKER ASM                   M IMCTM S0FL05 TNTH  09020IMCT  S0 PTB  00004                    0830 SR        000000000000 DENSO TEN (THAILAND)190G32U0297297                                                                                                                              *          20200509 IMCT                IMCT                                                                                                                    WMF2005097.TXT
MDEUL5212244202005                D89828070200PV4U20200515000030SPEAKER ASM                   M IMCTM S0FR05 TNTH  09020IMCT  S0 PTB  00005                    1300 SR        000000000000 DENSO TEN (THAILAND)190F65U0051051                                                                                                                              *          20200509 IMCT                IMCT                                                                                                                    WMF2005097.TXT
MDEUL5212245202005                D89828070200PV4U20200515000030SPEAKER ASM                   M IMCTM S0FR05 TNTH  09020IMCT  S0 PTB  00005                    1600 SR        000000000000 DENSO TEN (THAILAND)190G25U0075075                                                                                                                              *          20200509 IMCT                IMCT                                                                                                                    WMF2005097.TXT
MDEUL5212246202005                D89828070200PV4U20200518000030SPEAKER ASM                   M IMCTM S0FR05 TNTH  09020IMCT  S0 PTB  00005                    0830 SR        000000000000 DENSO TEN (THAILAND)190G32U0297297                                                                                                                              *          20200509 IMCT                IMCT                                                                                                                    WMF2005097.TXT
MDEUL5212247202005                D89828070300PT4U20200515000030SPEAKER ASM                   M IMCTM S9TS02 TNTH  09020IMCT  S9 PTB  00015                    1300 SR        000000000000 DENSO TEN (THAILAND)190F65U0051051                                                                                                                              *          20200509 IMCT                IMCT                                                                                                                    WMF2005097.TXT
MDEUL5212248202005                D89828070300PT4U20200515000030SPEAKER ASM                   M IMCTM S9TS02 TNTH  09020IMCT  S9 PTB  00015                    1600 SR        000000000000 DENSO TEN (THAILAND)190G25U0075075                                                                                                                              *          20200509 IMCT                IMCT                                                                                                                    WMF2005097.TXT
MDEUL5212249202005                D89828070300PT4U20200518000030SPEAKER ASM                   M IMCTM S9TS02 TNTH  09020IMCT  S9 PTB  00015                    0830 SR        000000000000 DENSO TEN (THAILAND)190G32U0297297                                                                                                                              *          20200509 IMCT                IMCT                                                                                                                    WMF2005097.TXT
MDEUL5212250202005                D89838432900PT4U20200515000015RADIO;ASM DVD                 M IMCTM S9CO001TNTH  09020IMCT  S9 PTB  00003                    1300 SR        000000000000 DENSO TEN (THAILAND)190F65U0051051                                                                                                                              *          20200509 IMCT                IMCT                                                                                                                    WMF2005097.TXT
