REC2020050520200505ISUZU                              24     
MDDUL5202207202005                D89828070100PT4U20200511000030SPEAKER ASM                   M IMCTM S0FL05 TNTH  09020IMCT  S0 PTB  00004                    1300 SR        000000000000 DENSO TEN (THAILAND)190MUCU0066066                                                                                                                              *          20200505 IMCT                IMCT                                                                                                                    WMF2005054.TXT
MDDUL5202208202005                D89828070100PT4U20200512000030SPEAKER ASM                   M IMCTM S0FL05 TNTH  09020IMCT  S0 PTB  00004                    0830 SR        000000000000 DENSO TEN (THAILAND)190MUJU0070070                                                                                                                              *          20200505 IMCT                IMCT                                                                                                                    WMF2005054.TXT
MDDUL5202209202005                D89828070200PV4U20200511000030SPEAKER ASM                   M IMCTM S0FR05 TNTH  09020IMCT  S0 PTB  00005                    1300 SR        000000000000 DENSO TEN (THAILAND)190MUCU0066066                                                                                                                              *          20200505 IMCT                IMCT                                                                                                                    WMF2005054.TXT
MDDUL5202210202005                D89828070200PV4U20200512000030SPEAKER ASM                   M IMCTM S0FR05 TNTH  09020IMCT  S0 PTB  00005                    0830 SR        000000000000 DENSO TEN (THAILAND)190MUJU0070070                                                                                                                              *          20200505 IMCT                IMCT                                                                                                                    WMF2005054.TXT
MDDUL5202211202005                D89828070300PT4U20200511000030SPEAKER ASM                   M IMCTM S9TS02 TNTH  09020IMCT  S9 PTB  00015                    1300 SR        000000000000 DENSO TEN (THAILAND)190MUCU0066066                                                                                                                              *          20200505 IMCT                IMCT                                                                                                                    WMF2005054.TXT
MDDUL5202212202005                D89828070300PT4U20200512000030SPEAKER ASM                   M IMCTM S9TS02 TNTH  09020IMCT  S9 PTB  00015                    0830 SR        000000000000 DENSO TEN (THAILAND)190MUJU0070070                                                                                                                              *          20200505 IMCT                IMCT                                                                                                                    WMF2005054.TXT
MDDUL5202213202005                D89848584200PT4U20200511000015RADIO;AM/FM CD D              M IMCTM S9CO001TNTH  09020IMCT  S9 PTB  00003                    1300 SR        000000000000 DENSO TEN (THAILAND)190MUCU0066066                                                                                                                              *          20200505 IMCT                IMCT                                                                                                                    WMF2005054.TXT
MDEDL5209026202005                D89828070100PV1D20200511000060SPEAKER ASM                   M IMCTM S5MB11 TNTH  09020IMCT  S5 PTB  00004                    1030 SR        000000000000 DENSO TEN (THAILAND)190K12L0154155                                                                                                                              *          20200505 IMCT                IMCT                                                                                                                    WMF2005054.TXT
MDEDL5209027202005                D89828070100PV1D20200511000150SPEAKER ASM                   M IMCTM S5MB11 TNTH  09020IMCT  S5 PTB  00004                    1300 SR        000000000000 DENSO TEN (THAILAND)190K09L0016016190K14L0013013190K21L0110110190K22L0013013190L81L0011011                                                                      *          20200505 IMCT                IMCT                                                                                                                    WMF2005054.TXT
MDEDL5209028202005                D89828070100PV1D20200511000060SPEAKER ASM                   M IMCTM S5MB11 TNTH  09020IMCT  S5 PTB  00004                    1600 SR        000000000000 DENSO TEN (THAILAND)190K09L0017017190K21L0111111                                                                                                                *          20200505 IMCT                IMCT                                                                                                                    WMF2005054.TXT
MDEDL5209029202005                D89828070100PV1D20200512000060SPEAKER ASM                   M IMCTM S5MB11 TNTH  09020IMCT  S5 PTB  00004                    0830 SR        000000000000 DENSO TEN (THAILAND)190K07L0024024190K21L0112112                                                                                                                *          20200505 IMCT                IMCT                                                                                                                    WMF2005054.TXT
MDEDL5209030202005                D89828070200PV1D20200511000090SPEAKER ASM                   M IMCTM S5MA151TNTH  09020IMCT  S5 PTB  00005                    1300 SR        000000000000 DENSO TEN (THAILAND)190K21L0110110190K22L0013013190L81L0011011                                                                                                  *          20200505 IMCT                IMCT                                                                                                                    WMF2005054.TXT
MDEDL5209031202005                D89828070200PV1D20200511000030SPEAKER ASM                   M IMCTM S5MA151TNTH  09020IMCT  S5 PTB  00005                    1600 SR        000000000000 DENSO TEN (THAILAND)190K21L0111111                                                                                                                              *          20200505 IMCT                IMCT                                                                                                                    WMF2005054.TXT
MDEDL5209032202005                D89828070200PV1D20200512000030SPEAKER ASM                   M IMCTM S5MA151TNTH  09020IMCT  S5 PTB  00005                    0830 SR        000000000000 DENSO TEN (THAILAND)190K21L0112112                                                                                                                              *          20200505 IMCT                IMCT                                                                                                                    WMF2005054.TXT
MDEDL5209033202005                D89828070300PT1D20200511000090SPEAKER ASM                   M IMCTM S5BC083TNTH  09020IMCT  S5 PTB  00015                    1300 SR        000000000000 DENSO TEN (THAILAND)190K21L0110110190K22L0013013190L81L0011011                                                                                                  *          20200505 IMCT                IMCT                                                                                                                    WMF2005054.TXT
MDEDL5209034202005                D89828070300PT1D20200511000030SPEAKER ASM                   M IMCTM S5BC083TNTH  09020IMCT  S5 PTB  00015                    1600 SR        000000000000 DENSO TEN (THAILAND)190K21L0111111                                                                                                                              *          20200505 IMCT                IMCT                                                                                                                    WMF2005054.TXT
MDEDL5209035202005                D89828070300PT1D20200512000030SPEAKER ASM                   M IMCTM S5BC083TNTH  09020IMCT  S5 PTB  00015                    0830 SR        000000000000 DENSO TEN (THAILAND)190K21L0112112                                                                                                                              *          20200505 IMCT                IMCT                                                                                                                    WMF2005054.TXT
MDEDL5209036202005                D89838031200PT1D20200511000030RADIO;ASM DVD                 M IMCTM S5ND041TNTH  09020IMCT  S5 PTB  00003                    1300 SR        000000000000 DENSO TEN (THAILAND)190K21L0110110190K22L0013013                                                                                                                *          20200505 IMCT                IMCT                                                                                                                    WMF2005054.TXT
MDEDL5209037202005                D89838031200PT1D20200511000015RADIO;ASM DVD                 M IMCTM S5ND041TNTH  09020IMCT  S5 PTB  00003                    1600 SR        000000000000 DENSO TEN (THAILAND)190K21L0111111                                                                                                                              *          20200505 IMCT                IMCT                                                                                                                    WMF2005054.TXT
MDEDL5209038202005                D89838031200PT1D20200512000015RADIO;ASM DVD                 M IMCTM S5ND041TNTH  09020IMCT  S5 PTB  00003                    0830 SR        000000000000 DENSO TEN (THAILAND)190K21L0112112                                                                                                                              *          20200505 IMCT                IMCT                                                                                                                    WMF2005054.TXT
MDEUL5203510202005                D89752845400PT4U20200511000015RADIO;AM FM,CD D              M IMCTM S9AD002TNTH  09020IMCT  S9 PTB  00003                    1300 SR        000000000000 DENSO TEN (THAILAND)190G29U0046046                                                                                                                              *          20200505 IMCT                IMCT                                                                                                                    WMF2005054.TXT
MDEUL5203511202005                D89828070100PT4U20200511000060SPEAKER ASM                   M IMCTM S0FL05 TNTH  09020IMCT  S0 PTB  00004                    1300 SR        000000000000 DENSO TEN (THAILAND)190G29U0046046190G32U0293293                                                                                                                *          20200505 IMCT                IMCT                                                                                                                    WMF2005054.TXT
MDEUL5203512202005                D89828070200PV4U20200511000060SPEAKER ASM                   M IMCTM S0FR05 TNTH  09020IMCT  S0 PTB  00005                    1300 SR        000000000000 DENSO TEN (THAILAND)190G29U0046046190G32U0293293                                                                                                                *          20200505 IMCT                IMCT                                                                                                                    WMF2005054.TXT
MDEUL5203513202005                D89828070300PT4U20200511000060SPEAKER ASM                   M IMCTM S9TS02 TNTH  09020IMCT  S9 PTB  00015                    1300 SR        000000000000 DENSO TEN (THAILAND)190G29U0046046190G32U0293293                                                                                                                *          20200505 IMCT                IMCT                                                                                                                    WMF2005054.TXT
