REC2020052020200520ISUZU                              30     
MDDUL5219988202005                D89828070100PT4U20200527000030SPEAKER ASM                   M IMCTM S0FL05 TNTH  09020IMCT  S0 PTB  00004                    1600 SR        000000000000 DENSO TEN (THAILAND)190MULU0008008                                                                                                                              *          20200520 IMCT                IMCT                                                                                                                    WMF2005205.TXT
MDDUL5219989202005                D89828070200PV4U20200527000030SPEAKER ASM                   M IMCTM S0FR05 TNTH  09020IMCT  S0 PTB  00005                    1600 SR        000000000000 DENSO TEN (THAILAND)190MULU0008008                                                                                                                              *          20200520 IMCT                IMCT                                                                                                                    WMF2005205.TXT
MDDUL5219990202005                D89828070300PT4U20200527000030SPEAKER ASM                   M IMCTM S9TS02 TNTH  09020IMCT  S9 PTB  00015                    1600 SR        000000000000 DENSO TEN (THAILAND)190MULU0008008                                                                                                                              *          20200520 IMCT                IMCT                                                                                                                    WMF2005205.TXT
MDEDL5269103202005                D89828070100PV1D20200527000060SPEAKER ASM                   M IMCTM S5MB11 TNTH  09020IMCT  S5 PTB  00004                    1030 SR        000000000000 DENSO TEN (THAILAND)190K12L0172172190K21L0163163                                                                                                                *          20200520 IMCT                IMCT                                                                                                                    WMF2005205.TXT
MDEDL5269104202005                D89828070100PV1D20200527000150SPEAKER ASM                   M IMCTM S5MB11 TNTH  09020IMCT  S5 PTB  00004                    1300 SR        000000000000 DENSO TEN (THAILAND)190K12L0173173190K21L0164166190L80L0006006                                                                                                  *          20200520 IMCT                IMCT                                                                                                                    WMF2005205.TXT
MDEDL5269105202005                D89828070100PV1D20200527000060SPEAKER ASM                   M IMCTM S5MB11 TNTH  09020IMCT  S5 PTB  00004                    1600 SR        000000000000 DENSO TEN (THAILAND)190K09L0023023190K21L0167167                                                                                                                *          20200520 IMCT                IMCT                                                                                                                    WMF2005205.TXT
MDEDL5269106202005                D89828070100PV1D20200528000090SPEAKER ASM                   M IMCTM S5MB11 TNTH  09020IMCT  S5 PTB  00004                    0830 SR        000000000000 DENSO TEN (THAILAND)190K21L0168169190L47L0011011                                                                                                                *          20200520 IMCT                IMCT                                                                                                                    WMF2005205.TXT
MDEDL5269107202005                D89828070200PV1D20200527000030SPEAKER ASM                   M IMCTM S5MA151TNTH  09020IMCT  S5 PTB  00005                    1030 SR        000000000000 DENSO TEN (THAILAND)190K21L0163163                                                                                                                              *          20200520 IMCT                IMCT                                                                                                                    WMF2005205.TXT
MDEDL5269108202005                D89828070200PV1D20200527000090SPEAKER ASM                   M IMCTM S5MA151TNTH  09020IMCT  S5 PTB  00005                    1300 SR        000000000000 DENSO TEN (THAILAND)190K21L0164166                                                                                                                              *          20200520 IMCT                IMCT                                                                                                                    WMF2005205.TXT
MDEDL5269109202005                D89828070200PV1D20200527000030SPEAKER ASM                   M IMCTM S5MA151TNTH  09020IMCT  S5 PTB  00005                    1600 SR        000000000000 DENSO TEN (THAILAND)190K21L0167167                                                                                                                              *          20200520 IMCT                IMCT                                                                                                                    WMF2005205.TXT
MDEDL5269110202005                D89828070200PV1D20200528000090SPEAKER ASM                   M IMCTM S5MA151TNTH  09020IMCT  S5 PTB  00005                    0830 SR        000000000000 DENSO TEN (THAILAND)190K21L0168169190L47L0011011                                                                                                                *          20200520 IMCT                IMCT                                                                                                                    WMF2005205.TXT
MDEDL5269111202005                D89828070300PT1D20200527000030SPEAKER ASM                   M IMCTM S5BC083TNTH  09020IMCT  S5 PTB  00015                    1030 SR        000000000000 DENSO TEN (THAILAND)190K21L0163163                                                                                                                              *          20200520 IMCT                IMCT                                                                                                                    WMF2005205.TXT
MDEDL5269112202005                D89828070300PT1D20200527000090SPEAKER ASM                   M IMCTM S5BC083TNTH  09020IMCT  S5 PTB  00015                    1300 SR        000000000000 DENSO TEN (THAILAND)190K21L0164166                                                                                                                              *          20200520 IMCT                IMCT                                                                                                                    WMF2005205.TXT
MDEDL5269113202005                D89828070300PT1D20200527000030SPEAKER ASM                   M IMCTM S5BC083TNTH  09020IMCT  S5 PTB  00015                    1600 SR        000000000000 DENSO TEN (THAILAND)190K21L0167167                                                                                                                              *          20200520 IMCT                IMCT                                                                                                                    WMF2005205.TXT
MDEDL5269114202005                D89828070300PT1D20200528000090SPEAKER ASM                   M IMCTM S5BC083TNTH  09020IMCT  S5 PTB  00015                    0830 SR        000000000000 DENSO TEN (THAILAND)190K21L0168169190L47L0011011                                                                                                                *          20200520 IMCT                IMCT                                                                                                                    WMF2005205.TXT
MDEDL5269115202005                D89838031200PT1D20200527000015RADIO;ASM DVD                 M IMCTM S5ND041TNTH  09020IMCT  S5 PTB  00003                    1030 SR        000000000000 DENSO TEN (THAILAND)190K21L0163163                                                                                                                              *          20200520 IMCT                IMCT                                                                                                                    WMF2005205.TXT
MDEDL5269116202005                D89838031200PT1D20200527000045RADIO;ASM DVD                 M IMCTM S5ND041TNTH  09020IMCT  S5 PTB  00003                    1300 SR        000000000000 DENSO TEN (THAILAND)190K21L0164166                                                                                                                              *          20200520 IMCT                IMCT                                                                                                                    WMF2005205.TXT
MDEDL5269117202005                D89838031200PT1D20200527000015RADIO;ASM DVD                 M IMCTM S5ND041TNTH  09020IMCT  S5 PTB  00003                    1600 SR        000000000000 DENSO TEN (THAILAND)190K21L0167167                                                                                                                              *          20200520 IMCT                IMCT                                                                                                                    WMF2005205.TXT
MDEDL5269118202005                D89838031200PT1D20200528000030RADIO;ASM DVD                 M IMCTM S5ND041TNTH  09020IMCT  S5 PTB  00003                    0830 SR        000000000000 DENSO TEN (THAILAND)190K21L0168169                                                                                                                              *          20200520 IMCT                IMCT                                                                                                                    WMF2005205.TXT
MDEUL5230058202005                D89828070100PT4U20200527000060SPEAKER ASM                   M IMCTM S0FL05 TNTH  09020IMCT  S0 PTB  00004                    1300 SR        000000000000 DENSO TEN (THAILAND)190F64U0021021190G25U0077077                                                                                                                *          20200520 IMCT                IMCT                                                                                                                    WMF2005205.TXT
MDEUL5230059202005                D89828070100PT4U20200527000030SPEAKER ASM                   M IMCTM S0FL05 TNTH  09020IMCT  S0 PTB  00004                    1600 SR        000000000000 DENSO TEN (THAILAND)190G31U0193193                                                                                                                              *          20200520 IMCT                IMCT                                                                                                                    WMF2005205.TXT
MDEUL5230060202005                D89828070100PT4U20200528000030SPEAKER ASM                   M IMCTM S0FL05 TNTH  09020IMCT  S0 PTB  00004                    0830 SR        000000000000 DENSO TEN (THAILAND)190F62U0004004                                                                                                                              *          20200520 IMCT                IMCT                                                                                                                    WMF2005205.TXT
MDEUL5230061202005                D89828070200PV4U20200527000060SPEAKER ASM                   M IMCTM S0FR05 TNTH  09020IMCT  S0 PTB  00005                    1300 SR        000000000000 DENSO TEN (THAILAND)190F64U0021021190G25U0077077                                                                                                                *          20200520 IMCT                IMCT                                                                                                                    WMF2005205.TXT
MDEUL5230062202005                D89828070200PV4U20200527000030SPEAKER ASM                   M IMCTM S0FR05 TNTH  09020IMCT  S0 PTB  00005                    1600 SR        000000000000 DENSO TEN (THAILAND)190G31U0193193                                                                                                                              *          20200520 IMCT                IMCT                                                                                                                    WMF2005205.TXT
MDEUL5230063202005                D89828070200PV4U20200528000030SPEAKER ASM                   M IMCTM S0FR05 TNTH  09020IMCT  S0 PTB  00005                    0830 SR        000000000000 DENSO TEN (THAILAND)190F62U0004004                                                                                                                              *          20200520 IMCT                IMCT                                                                                                                    WMF2005205.TXT
MDEUL5230064202005                D89828070300PT4U20200527000060SPEAKER ASM                   M IMCTM S9TS02 TNTH  09020IMCT  S9 PTB  00015                    1300 SR        000000000000 DENSO TEN (THAILAND)190F64U0021021190G25U0077077                                                                                                                *          20200520 IMCT                IMCT                                                                                                                    WMF2005205.TXT
MDEUL5230065202005                D89828070300PT4U20200527000030SPEAKER ASM                   M IMCTM S9TS02 TNTH  09020IMCT  S9 PTB  00015                    1600 SR        000000000000 DENSO TEN (THAILAND)190G31U0193193                                                                                                                              *          20200520 IMCT                IMCT                                                                                                                    WMF2005205.TXT
MDEUL5230066202005                D89828070300PT4U20200528000030SPEAKER ASM                   M IMCTM S9TS02 TNTH  09020IMCT  S9 PTB  00015                    0830 SR        000000000000 DENSO TEN (THAILAND)190F62U0004004                                                                                                                              *          20200520 IMCT                IMCT                                                                                                                    WMF2005205.TXT
MDEUL5230067202005                D89838432900PT4U20200527000015RADIO;ASM DVD                 M IMCTM S9CO001TNTH  09020IMCT  S9 PTB  00003                    1300 SR        000000000000 DENSO TEN (THAILAND)190F64U0021021                                                                                                                              *          20200520 IMCT                IMCT                                                                                                                    WMF2005205.TXT
MDEUL5230068202005                D89838432900PT4U20200528000015RADIO;ASM DVD                 M IMCTM S9CO001TNTH  09020IMCT  S9 PTB  00003                    0830 SR        000000000000 DENSO TEN (THAILAND)190F62U0004004                                                                                                                              *          20200520 IMCT                IMCT                                                                                                                    WMF2005205.TXT
