REC2020051820200518ISUZU                              4      
MDEFL5T08631202005                D89828070100PV4F20200525000030SPEAKER ASM                   M IMCTM S7FL05 TNTH  09020IMCT  S7 PTB  00004                    1030 SR        000000000000 DENSO TEN (THAILAND)190D94R0016   190K62R0012   C200501901    C200501915    000000                                                                              *R         20200518 IMCT                IMCT                                                                                                                    RMF2005185.TXT
MDEFL5T08632202005                D89828070200PV4F20200525000006SPEAKER ASM                   M IMCTM S7FL05 TNTH  09020IMCT  S7 PTB  00005                    1030 SR        000000000000 DENSO TEN (THAILAND)190K44R0075   190K44R0077   C200501910    C200501912    000000                                                                              *R         20200518 IMCT                IMCT                                                                                                                    RMF2005185.TXT
MDEFL5T08633202005                D89828070300PT4F20200525000006SPEAKER ASM                   M IMCTM S7TS02 TNTH  09020IMCT  S7 PTB  00015                    1030 SR        000000000000 DENSO TEN (THAILAND)190K44R0075   190K44R0077   C200501910    C200501912    000000                                                                              *R         20200518 IMCT                IMCT                                                                                                                    RMF2005185.TXT
MDEFL5T08634202005                D89831229020PT4F20200525000003RADIO;AM/FM,CD                M IMCTM S7U137 TNTH  09020IMCT  S7 PTB  00003                    1030 SR        000000000000 DENSO TEN (THAILAND)190K44R0075   190K44R0077   C200501910    C200501912    000000                                                                              *R         20200518 IMCT                IMCT                                                                                                                    RMF2005185.TXT
