REC2020052120200521ISUZU                              5      
MAKK05096210202005D3               89828070100P3YK20200608000060SPEAKER ASM                   M IMCTM CM1    TNTH  09020IMKDC KA PTB  00004  K0                1431DES        000000000000 DENSO TEN (THAILAND)                                                                                                                                            *G         20200521 IMCT                IMCT                                                                                                                    WMF2005217.TXT
MAKK05096211202005D3               89828070100P3YK20200609000060SPEAKER ASM                   M IMCTM CM1    TNTH  09020IMKDC KA PTB  00004  K0                1431DES        000000000000 DENSO TEN (THAILAND)                                                                                                                                            *G         20200521 IMCT                IMCT                                                                                                                    WMF2005217.TXT
MAKK05096212202005D3               89828070100P3YK20200610000060SPEAKER ASM                   M IMCTM CM1    TNTH  09020IMKDC KA PTB  00004  K0                1431DES        000000000000 DENSO TEN (THAILAND)                                                                                                                                            *G         20200521 IMCT                IMCT                                                                                                                    WMF2005217.TXT
MAKK05096213202005D3               89828070100P3YK20200611000030SPEAKER ASM                   M IMCTM CM1    TNTH  09020IMKDC KA PTB  00004  K0                1431DES        000000000000 DENSO TEN (THAILAND)                                                                                                                                            *G         20200521 IMCT                IMCT                                                                                                                    WMF2005217.TXT
MAKK05096214202005D3               89828070100P3YK20200612000090SPEAKER ASM                   M IMCTM CM1    TNTH  09020IMKDC KA PTB  00004  K0                1431DES        000000000000 DENSO TEN (THAILAND)                                                                                                                                            *G         20200521 IMCT                IMCT                                                                                                                    WMF2005217.TXT
