REC2020051520200515ISUZU                              31     
MDDUL5215731202005                D89828070100PT4U20200525000030SPEAKER ASM                   M IMCTM S0FL05 TNTH  09020IMCT  S0 PTB  00004                    0830 SR        000000000000 DENSO TEN (THAILAND)190MUKU0054054                                                                                                                              *          20200515 IMCT                IMCT                                                                                                                    WMF200515A.TXT
MDDUL5215732202005                D89828070200PV4U20200525000030SPEAKER ASM                   M IMCTM S0FR05 TNTH  09020IMCT  S0 PTB  00005                    0830 SR        000000000000 DENSO TEN (THAILAND)190MUKU0054054                                                                                                                              *          20200515 IMCT                IMCT                                                                                                                    WMF200515A.TXT
MDDUL5215733202005                D89828070300PT4U20200525000030SPEAKER ASM                   M IMCTM S9TS02 TNTH  09020IMCT  S9 PTB  00015                    0830 SR        000000000000 DENSO TEN (THAILAND)190MUKU0054054                                                                                                                              *          20200515 IMCT                IMCT                                                                                                                    WMF200515A.TXT
MDEDL5255484202005                D89828070100PV1D20200522000060SPEAKER ASM                   M IMCTM S5MB11 TNTH  09020IMCT  S5 PTB  00004                    1030 SR        000000000000 DENSO TEN (THAILAND)190K09L0020020190K21L0144144                                                                                                                *          20200515 IMCT                IMCT                                                                                                                    WMF200515A.TXT
MDEDL5255485202005                D89828070100PV1D20200522000150SPEAKER ASM                   M IMCTM S5MB11 TNTH  09020IMCT  S5 PTB  00004                    1300 SR        000000000000 DENSO TEN (THAILAND)190J91L0112112190K09L0021021190K12L0168168190K21L0145146                                                                                    *          20200515 IMCT                IMCT                                                                                                                    WMF200515A.TXT
MDEDL5255486202005                D89828070100PV1D20200522000060SPEAKER ASM                   M IMCTM S5MB11 TNTH  09020IMCT  S5 PTB  00004                    1600 SR        000000000000 DENSO TEN (THAILAND)190J91L0113113190K21L0147147                                                                                                                *          20200515 IMCT                IMCT                                                                                                                    WMF200515A.TXT
MDEDL5255487202005                D89828070100PV1D20200525000060SPEAKER ASM                   M IMCTM S5MB11 TNTH  09020IMCT  S5 PTB  00004                    0830 SR        000000000000 DENSO TEN (THAILAND)190K21L0148149                                                                                                                              *          20200515 IMCT                IMCT                                                                                                                    WMF200515A.TXT
MDEDL5255488202005                D89828070100PV4D20200522000030SPEAKER ASM                   M IMCTM S0FL05 TNTH  09020IMCT  S0 PTB  00004                    1600 SR        000000000000 DENSO TEN (THAILAND)190L81U0014014                                                                                                                              *          20200515 IMCT                IMCT                                                                                                                    WMF200515A.TXT
MDEDL5255489202005                D89828070200PV1D20200522000030SPEAKER ASM                   M IMCTM S5MA151TNTH  09020IMCT  S5 PTB  00005                    1030 SR        000000000000 DENSO TEN (THAILAND)190K21L0144144                                                                                                                              *          20200515 IMCT                IMCT                                                                                                                    WMF200515A.TXT
MDEDL5255490202005                D89828070200PV1D20200522000060SPEAKER ASM                   M IMCTM S5MA151TNTH  09020IMCT  S5 PTB  00005                    1300 SR        000000000000 DENSO TEN (THAILAND)190K21L0145146                                                                                                                              *          20200515 IMCT                IMCT                                                                                                                    WMF200515A.TXT
MDEDL5255491202005                D89828070200PV1D20200522000030SPEAKER ASM                   M IMCTM S5MA151TNTH  09020IMCT  S5 PTB  00005                    1600 SR        000000000000 DENSO TEN (THAILAND)190K21L0147147                                                                                                                              *          20200515 IMCT                IMCT                                                                                                                    WMF200515A.TXT
MDEDL5255492202005                D89828070200PV1D20200525000060SPEAKER ASM                   M IMCTM S5MA151TNTH  09020IMCT  S5 PTB  00005                    0830 SR        000000000000 DENSO TEN (THAILAND)190K21L0148149                                                                                                                              *          20200515 IMCT                IMCT                                                                                                                    WMF200515A.TXT
MDEDL5255493202005                D89828070200PV4D20200522000030SPEAKER ASM                   M IMCTM S0FR05 TNTH  09020IMCT  S0 PTB  00005                    1600 SR        000000000000 DENSO TEN (THAILAND)190L81U0014014                                                                                                                              *          20200515 IMCT                IMCT                                                                                                                    WMF200515A.TXT
MDEDL5255494202005                D89828070300PT1D20200522000030SPEAKER ASM                   M IMCTM S5BC083TNTH  09020IMCT  S5 PTB  00015                    1030 SR        000000000000 DENSO TEN (THAILAND)190K21L0144144                                                                                                                              *          20200515 IMCT                IMCT                                                                                                                    WMF200515A.TXT
MDEDL5255495202005                D89828070300PT1D20200522000060SPEAKER ASM                   M IMCTM S5BC083TNTH  09020IMCT  S5 PTB  00015                    1300 SR        000000000000 DENSO TEN (THAILAND)190K21L0145146                                                                                                                              *          20200515 IMCT                IMCT                                                                                                                    WMF200515A.TXT
MDEDL5255496202005                D89828070300PT1D20200522000030SPEAKER ASM                   M IMCTM S5BC083TNTH  09020IMCT  S5 PTB  00015                    1600 SR        000000000000 DENSO TEN (THAILAND)190K21L0147147                                                                                                                              *          20200515 IMCT                IMCT                                                                                                                    WMF200515A.TXT
MDEDL5255497202005                D89828070300PT1D20200525000060SPEAKER ASM                   M IMCTM S5BC083TNTH  09020IMCT  S5 PTB  00015                    0830 SR        000000000000 DENSO TEN (THAILAND)190K21L0148149                                                                                                                              *          20200515 IMCT                IMCT                                                                                                                    WMF200515A.TXT
MDEDL5255498202005                D89828070300PT4D20200522000030SPEAKER ASM                   M IMCTM S9TS02 TNTH  09020IMCT  S9 PTB  00015                    1600 SR        000000000000 DENSO TEN (THAILAND)190L81U0014014                                                                                                                              *          20200515 IMCT                IMCT                                                                                                                    WMF200515A.TXT
MDEDL5255499202005                D89838031200PT1D20200522000015RADIO;ASM DVD                 M IMCTM S5ND041TNTH  09020IMCT  S5 PTB  00003                    1030 SR        000000000000 DENSO TEN (THAILAND)190K21L0144144                                                                                                                              *          20200515 IMCT                IMCT                                                                                                                    WMF200515A.TXT
MDEDL5255500202005                D89838031200PT1D20200522000030RADIO;ASM DVD                 M IMCTM S5ND041TNTH  09020IMCT  S5 PTB  00003                    1300 SR        000000000000 DENSO TEN (THAILAND)190K21L0145146                                                                                                                              *          20200515 IMCT                IMCT                                                                                                                    WMF200515A.TXT
MDEDL5255501202005                D89838031200PT1D20200522000015RADIO;ASM DVD                 M IMCTM S5ND041TNTH  09020IMCT  S5 PTB  00003                    1600 SR        000000000000 DENSO TEN (THAILAND)190K21L0147147                                                                                                                              *          20200515 IMCT                IMCT                                                                                                                    WMF200515A.TXT
MDEDL5255502202005                D89838031200PT1D20200525000030RADIO;ASM DVD                 M IMCTM S5ND041TNTH  09020IMCT  S5 PTB  00003                    0830 SR        000000000000 DENSO TEN (THAILAND)190K21L0148149                                                                                                                              *          20200515 IMCT                IMCT                                                                                                                    WMF200515A.TXT
MDEUL5223034202005                D89828070100PT4U20200522000060SPEAKER ASM                   M IMCTM S0FL05 TNTH  09020IMCT  S0 PTB  00004                    1300 SR        000000000000 DENSO TEN (THAILAND)190F59U0036036190G32U0299299                                                                                                                *          20200515 IMCT                IMCT                                                                                                                    WMF200515A.TXT
MDEUL5223035202005                D89828070100PT4U20200522000030SPEAKER ASM                   M IMCTM S0FL05 TNTH  09020IMCT  S0 PTB  00004                    1600 SR        000000000000 DENSO TEN (THAILAND)190G32U0300300                                                                                                                              *          20200515 IMCT                IMCT                                                                                                                    WMF200515A.TXT
MDEUL5223036202005                D89828070100PT4U20200525000030SPEAKER ASM                   M IMCTM S0FL05 TNTH  09020IMCT  S0 PTB  00004                    1030 SR        000000000000 DENSO TEN (THAILAND)190G31U0190190                                                                                                                              *          20200515 IMCT                IMCT                                                                                                                    WMF200515A.TXT
MDEUL5223037202005                D89828070200PV4U20200522000060SPEAKER ASM                   M IMCTM S0FR05 TNTH  09020IMCT  S0 PTB  00005                    1300 SR        000000000000 DENSO TEN (THAILAND)190F59U0036036190G32U0299299                                                                                                                *          20200515 IMCT                IMCT                                                                                                                    WMF200515A.TXT
MDEUL5223038202005                D89828070200PV4U20200522000030SPEAKER ASM                   M IMCTM S0FR05 TNTH  09020IMCT  S0 PTB  00005                    1600 SR        000000000000 DENSO TEN (THAILAND)190G32U0300300                                                                                                                              *          20200515 IMCT                IMCT                                                                                                                    WMF200515A.TXT
MDEUL5223039202005                D89828070200PV4U20200525000030SPEAKER ASM                   M IMCTM S0FR05 TNTH  09020IMCT  S0 PTB  00005                    1030 SR        000000000000 DENSO TEN (THAILAND)190G31U0190190                                                                                                                              *          20200515 IMCT                IMCT                                                                                                                    WMF200515A.TXT
MDEUL5223040202005                D89828070300PT4U20200522000060SPEAKER ASM                   M IMCTM S9TS02 TNTH  09020IMCT  S9 PTB  00015                    1300 SR        000000000000 DENSO TEN (THAILAND)190F59U0036036190G32U0299299                                                                                                                *          20200515 IMCT                IMCT                                                                                                                    WMF200515A.TXT
MDEUL5223041202005                D89828070300PT4U20200522000030SPEAKER ASM                   M IMCTM S9TS02 TNTH  09020IMCT  S9 PTB  00015                    1600 SR        000000000000 DENSO TEN (THAILAND)190G32U0300300                                                                                                                              *          20200515 IMCT                IMCT                                                                                                                    WMF200515A.TXT
MDEUL5223042202005                D89828070300PT4U20200525000030SPEAKER ASM                   M IMCTM S9TS02 TNTH  09020IMCT  S9 PTB  00015                    1030 SR        000000000000 DENSO TEN (THAILAND)190G31U0190190                                                                                                                              *          20200515 IMCT                IMCT                                                                                                                    WMF200515A.TXT
