REC2020051420200514ISUZU                              36     
MDDUL5214474202005                D89828070100PT4U20200521000030SPEAKER ASM                   M IMCTM S0FL05 TNTH  09020IMCT  S0 PTB  00004                    1300 SR        000000000000 DENSO TEN (THAILAND)190MUJU0077077                                                                                                                              *          20200514 IMCT                IMCT                                                                                                                    WMF2005149.TXT
MDDUL5214475202005                D89828070100PT4U20200521000030SPEAKER ASM                   M IMCTM S0FL05 TNTH  09020IMCT  S0 PTB  00004                    1600 SR        000000000000 DENSO TEN (THAILAND)190MUKU0052052                                                                                                                              *          20200514 IMCT                IMCT                                                                                                                    WMF2005149.TXT
MDDUL5214476202005                D89828070100PT4U20200522000030SPEAKER ASM                   M IMCTM S0FL05 TNTH  09020IMCT  S0 PTB  00004                    1030 SR        000000000000 DENSO TEN (THAILAND)190MUKU0053053                                                                                                                              *          20200514 IMCT                IMCT                                                                                                                    WMF2005149.TXT
MDDUL5214477202005                D89828070200PV4U20200521000030SPEAKER ASM                   M IMCTM S0FR05 TNTH  09020IMCT  S0 PTB  00005                    1300 SR        000000000000 DENSO TEN (THAILAND)190MUJU0077077                                                                                                                              *          20200514 IMCT                IMCT                                                                                                                    WMF2005149.TXT
MDDUL5214478202005                D89828070200PV4U20200521000030SPEAKER ASM                   M IMCTM S0FR05 TNTH  09020IMCT  S0 PTB  00005                    1600 SR        000000000000 DENSO TEN (THAILAND)190MUKU0052052                                                                                                                              *          20200514 IMCT                IMCT                                                                                                                    WMF2005149.TXT
MDDUL5214479202005                D89828070200PV4U20200522000030SPEAKER ASM                   M IMCTM S0FR05 TNTH  09020IMCT  S0 PTB  00005                    1030 SR        000000000000 DENSO TEN (THAILAND)190MUKU0053053                                                                                                                              *          20200514 IMCT                IMCT                                                                                                                    WMF2005149.TXT
MDDUL5214480202005                D89828070300PT4U20200521000030SPEAKER ASM                   M IMCTM S9TS02 TNTH  09020IMCT  S9 PTB  00015                    1300 SR        000000000000 DENSO TEN (THAILAND)190MUJU0077077                                                                                                                              *          20200514 IMCT                IMCT                                                                                                                    WMF2005149.TXT
MDDUL5214481202005                D89828070300PT4U20200521000030SPEAKER ASM                   M IMCTM S9TS02 TNTH  09020IMCT  S9 PTB  00015                    1600 SR        000000000000 DENSO TEN (THAILAND)190MUKU0052052                                                                                                                              *          20200514 IMCT                IMCT                                                                                                                    WMF2005149.TXT
MDDUL5214482202005                D89828070300PT4U20200522000030SPEAKER ASM                   M IMCTM S9TS02 TNTH  09020IMCT  S9 PTB  00015                    1030 SR        000000000000 DENSO TEN (THAILAND)190MUKU0053053                                                                                                                              *          20200514 IMCT                IMCT                                                                                                                    WMF2005149.TXT
MDEDL5250212202005                D89828070100PV1D20200521000060SPEAKER ASM                   M IMCTM S5MB11 TNTH  09020IMCT  S5 PTB  00004                    1030 SR        000000000000 DENSO TEN (THAILAND)190F44L0006006190J91L0111111                                                                                                                *          20200514 IMCT                IMCT                                                                                                                    WMF2005149.TXT
MDEDL5250213202005                D89828070100PV1D20200521000150SPEAKER ASM                   M IMCTM S5MB11 TNTH  09020IMCT  S5 PTB  00004                    1300 SR        000000000000 DENSO TEN (THAILAND)190K08L0052052190K13L0008008190K21L0140142                                                                                                  *          20200514 IMCT                IMCT                                                                                                                    WMF2005149.TXT
MDEDL5250214202005                D89828070100PV1D20200521000060SPEAKER ASM                   M IMCTM S5MB11 TNTH  09020IMCT  S5 PTB  00004                    1600 SR        000000000000 DENSO TEN (THAILAND)190K05L0001001190K07L0029029                                                                                                                *          20200514 IMCT                IMCT                                                                                                                    WMF2005149.TXT
MDEDL5250215202005                D89828070100PV1D20200522000060SPEAKER ASM                   M IMCTM S5MB11 TNTH  09020IMCT  S5 PTB  00004                    0830 SR        000000000000 DENSO TEN (THAILAND)190K21L0143143190K22L0017017                                                                                                                *          20200514 IMCT                IMCT                                                                                                                    WMF2005149.TXT
MDEDL5250216202005                D89828070100PV4D20200521000030SPEAKER ASM                   M IMCTM S0FL05 TNTH  09020IMCT  S0 PTB  00004                    1300 SR        000000000000 DENSO TEN (THAILAND)190K19U0062062                                                                                                                              *          20200514 IMCT                IMCT                                                                                                                    WMF2005149.TXT
MDEDL5250217202005                D89828070200PV1D20200521000030SPEAKER ASM                   M IMCTM S5MA151TNTH  09020IMCT  S5 PTB  00005                    1030 SR        000000000000 DENSO TEN (THAILAND)190F44L0006006                                                                                                                              *          20200514 IMCT                IMCT                                                                                                                    WMF2005149.TXT
MDEDL5250218202005                D89828070200PV1D20200521000090SPEAKER ASM                   M IMCTM S5MA151TNTH  09020IMCT  S5 PTB  00005                    1300 SR        000000000000 DENSO TEN (THAILAND)190K21L0140142                                                                                                                              *          20200514 IMCT                IMCT                                                                                                                    WMF2005149.TXT
MDEDL5250219202005                D89828070200PV1D20200521000030SPEAKER ASM                   M IMCTM S5MA151TNTH  09020IMCT  S5 PTB  00005                    1600 SR        000000000000 DENSO TEN (THAILAND)190K05L0001001                                                                                                                              *          20200514 IMCT                IMCT                                                                                                                    WMF2005149.TXT
MDEDL5250220202005                D89828070200PV1D20200522000060SPEAKER ASM                   M IMCTM S5MA151TNTH  09020IMCT  S5 PTB  00005                    0830 SR        000000000000 DENSO TEN (THAILAND)190K21L0143143190K22L0017017                                                                                                                *          20200514 IMCT                IMCT                                                                                                                    WMF2005149.TXT
MDEDL5250221202005                D89828070200PV4D20200521000030SPEAKER ASM                   M IMCTM S0FR05 TNTH  09020IMCT  S0 PTB  00005                    1300 SR        000000000000 DENSO TEN (THAILAND)190K19U0062062                                                                                                                              *          20200514 IMCT                IMCT                                                                                                                    WMF2005149.TXT
MDEDL5250222202005                D89828070300PT1D20200521000030SPEAKER ASM                   M IMCTM S5BC083TNTH  09020IMCT  S5 PTB  00015                    1030 SR        000000000000 DENSO TEN (THAILAND)190F44L0006006                                                                                                                              *          20200514 IMCT                IMCT                                                                                                                    WMF2005149.TXT
MDEDL5250223202005                D89828070300PT1D20200521000090SPEAKER ASM                   M IMCTM S5BC083TNTH  09020IMCT  S5 PTB  00015                    1300 SR        000000000000 DENSO TEN (THAILAND)190K21L0140142                                                                                                                              *          20200514 IMCT                IMCT                                                                                                                    WMF2005149.TXT
MDEDL5250224202005                D89828070300PT1D20200521000030SPEAKER ASM                   M IMCTM S5BC083TNTH  09020IMCT  S5 PTB  00015                    1600 SR        000000000000 DENSO TEN (THAILAND)190K05L0001001                                                                                                                              *          20200514 IMCT                IMCT                                                                                                                    WMF2005149.TXT
MDEDL5250225202005                D89828070300PT1D20200522000060SPEAKER ASM                   M IMCTM S5BC083TNTH  09020IMCT  S5 PTB  00015                    0830 SR        000000000000 DENSO TEN (THAILAND)190K21L0143143190K22L0017017                                                                                                                *          20200514 IMCT                IMCT                                                                                                                    WMF2005149.TXT
MDEDL5250226202005                D89828070300PT4D20200521000030SPEAKER ASM                   M IMCTM S9TS02 TNTH  09020IMCT  S9 PTB  00015                    1300 SR        000000000000 DENSO TEN (THAILAND)190K19U0062062                                                                                                                              *          20200514 IMCT                IMCT                                                                                                                    WMF2005149.TXT
MDEDL5250227202005                D89838031200PT1D20200521000045RADIO;ASM DVD                 M IMCTM S5ND041TNTH  09020IMCT  S5 PTB  00003                    1300 SR        000000000000 DENSO TEN (THAILAND)190K21L0140142                                                                                                                              *          20200514 IMCT                IMCT                                                                                                                    WMF2005149.TXT
MDEDL5250228202005                D89838031200PT1D20200521000015RADIO;ASM DVD                 M IMCTM S5ND041TNTH  09020IMCT  S5 PTB  00003                    1600 SR        000000000000 DENSO TEN (THAILAND)190K05L0001001                                                                                                                              *          20200514 IMCT                IMCT                                                                                                                    WMF2005149.TXT
MDEDL5250229202005                D89838031200PT1D20200522000030RADIO;ASM DVD                 M IMCTM S5ND041TNTH  09020IMCT  S5 PTB  00003                    0830 SR        000000000000 DENSO TEN (THAILAND)190K21L0143143190K22L0017017                                                                                                                *          20200514 IMCT                IMCT                                                                                                                    WMF2005149.TXT
MDEDL5250230202005                D89838031200PT4D20200521000015RADIO;ASM DVD                 M IMCTM S9CO001TNTH  09020IMCT  S9 PTB  00003                    1300 SR        000000000000 DENSO TEN (THAILAND)190K19U0062062                                                                                                                              *          20200514 IMCT                IMCT                                                                                                                    WMF2005149.TXT
MDEDL5250231202005                D89848582010PT1D20200521000015RADIO;AM/FM CD D              M IMCTM S5ND041TNTH  09020IMCT  S5 PTB  00003                    1030 SR        000000000000 DENSO TEN (THAILAND)190F44L0006006                                                                                                                              *          20200514 IMCT                IMCT                                                                                                                    WMF2005149.TXT
MDEUL5220484202005                D89828070100PT4U20200521000030SPEAKER ASM                   M IMCTM S0FL05 TNTH  09020IMCT  S0 PTB  00004                    1300 SR        000000000000 DENSO TEN (THAILAND)190F65U0055055                                                                                                                              *          20200514 IMCT                IMCT                                                                                                                    WMF2005149.TXT
MDEUL5220485202005                D89828070100PT4U20200521000030SPEAKER ASM                   M IMCTM S0FL05 TNTH  09020IMCT  S0 PTB  00004                    1600 SR        000000000000 DENSO TEN (THAILAND)190F59U0035035                                                                                                                              *          20200514 IMCT                IMCT                                                                                                                    WMF2005149.TXT
MDEUL5220486202005                D89828070200PV4U20200521000030SPEAKER ASM                   M IMCTM S0FR05 TNTH  09020IMCT  S0 PTB  00005                    1300 SR        000000000000 DENSO TEN (THAILAND)190F65U0055055                                                                                                                              *          20200514 IMCT                IMCT                                                                                                                    WMF2005149.TXT
MDEUL5220487202005                D89828070200PV4U20200521000030SPEAKER ASM                   M IMCTM S0FR05 TNTH  09020IMCT  S0 PTB  00005                    1600 SR        000000000000 DENSO TEN (THAILAND)190F59U0035035                                                                                                                              *          20200514 IMCT                IMCT                                                                                                                    WMF2005149.TXT
MDEUL5220488202005                D89828070300PT4U20200521000030SPEAKER ASM                   M IMCTM S9TS02 TNTH  09020IMCT  S9 PTB  00015                    1300 SR        000000000000 DENSO TEN (THAILAND)190F65U0055055                                                                                                                              *          20200514 IMCT                IMCT                                                                                                                    WMF2005149.TXT
MDEUL5220489202005                D89828070300PT4U20200521000030SPEAKER ASM                   M IMCTM S9TS02 TNTH  09020IMCT  S9 PTB  00015                    1600 SR        000000000000 DENSO TEN (THAILAND)190F59U0035035                                                                                                                              *          20200514 IMCT                IMCT                                                                                                                    WMF2005149.TXT
MDEUL5220490202005                D89838432900PT4U20200521000015RADIO;ASM DVD                 M IMCTM S9CO001TNTH  09020IMCT  S9 PTB  00003                    1300 SR        000000000000 DENSO TEN (THAILAND)190F65U0055055                                                                                                                              *          20200514 IMCT                IMCT                                                                                                                    WMF2005149.TXT
