REC2020052820200528ISUZU                              3      
MAKK05101016202005D3               89828070100P3YK20200615000090SPEAKER ASM                   M IMCTM CM1    TNTH  09020IMKDC KA PTB  00004  K0                1431DES        000000000000 DENSO TEN (THAILAND)                                                                                                                                            *G         20200528 IMCT                IMCT                                                                                                                    WMF2005285.TXT
MAKK05101017202005D3               89828070100P3YK20200616000090SPEAKER ASM                   M IMCTM CM1    TNTH  09020IMKDC KA PTB  00004  K0                1431DES        000000000000 DENSO TEN (THAILAND)                                                                                                                                            *G         20200528 IMCT                IMCT                                                                                                                    WMF2005285.TXT
MAKK05101018202005D3               89828070100P3YK20200618000090SPEAKER ASM                   M IMCTM CM1    TNTH  09020IMKDC KA PTB  00004  K0                1431DES        000000000000 DENSO TEN (THAILAND)                                                                                                                                            *G         20200528 IMCT                IMCT                                                                                                                    WMF2005285.TXT
