REC2020061820200618ISUZU                              11     
MAKK06063975202006D3               89825451200P3YK20200710000060SPEAKER ASM;ROOF              M IMCTM CM1    TNTH  09020IMKDC KA PTB  00036  K0                1431DES        000000000000 DENSO TEN (THAILAND)                                                                                                                                            *G         20200618 IMCT                IMCT                                                                                                                    WMF2006187.TXT
MAKK06063976202006D3               89828070100P3YK20200708000120SPEAKER ASM                   M IMCTM CM1    TNTH  09020IMKDC KA PTB  00004  K0                1431DES        000000000000 DENSO TEN (THAILAND)                                                                                                                                            *G         20200618 IMCT                IMCT                                                                                                                    WMF2006187.TXT
MAKK06063977202006D3               89828070100P3YK20200709000090SPEAKER ASM                   M IMCTM CM1    TNTH  09020IMKDC KA PTB  00004  K0                1431DES        000000000000 DENSO TEN (THAILAND)                                                                                                                                            *G         20200618 IMCT                IMCT                                                                                                                    WMF2006187.TXT
MAKK06063978202006D3               89828070100P3YK20200710000090SPEAKER ASM                   M IMCTM CM1    TNTH  09020IMKDC KA PTB  00004  K0                1431DES        000000000000 DENSO TEN (THAILAND)                                                                                                                                            *G         20200618 IMCT                IMCT                                                                                                                    WMF2006187.TXT
MAKK06063979202006D3               89828070200P3YK20200708000090SPEAKER ASM                   M IMCTM CM1    TNTH  09020IMKDC KA PTB  00005  K0                1431DES        000000000000 DENSO TEN (THAILAND)                                                                                                                                            *G         20200618 IMCT                IMCT                                                                                                                    WMF2006187.TXT
MAKK06063980202006D3               89828070200P3YK20200709000060SPEAKER ASM                   M IMCTM CM1    TNTH  09020IMKDC KA PTB  00005  K0                1431DES        000000000000 DENSO TEN (THAILAND)                                                                                                                                            *G         20200618 IMCT                IMCT                                                                                                                    WMF2006187.TXT
MAKK06063981202006D3               89828070200P3YK20200710000090SPEAKER ASM                   M IMCTM CM1    TNTH  09020IMKDC KA PTB  00005  K0                1431DES        000000000000 DENSO TEN (THAILAND)                                                                                                                                            *G         20200618 IMCT                IMCT                                                                                                                    WMF2006187.TXT
MAKK06063982202006D3               89828070300P3YK20200708000120SPEAKER ASM                   M IMCTM CM1    TNTH  09020IMKDC KA PTB  00015  K0                1431DES        000000000000 DENSO TEN (THAILAND)                                                                                                                                            *G         20200618 IMCT                IMCT                                                                                                                    WMF2006187.TXT
MAKK06063983202006D3               89828070300P3YK20200709000090SPEAKER ASM                   M IMCTM CM1    TNTH  09020IMKDC KA PTB  00015  K0                1431DES        000000000000 DENSO TEN (THAILAND)                                                                                                                                            *G         20200618 IMCT                IMCT                                                                                                                    WMF2006187.TXT
MAKK06063984202006D3               89828070300P3YK20200710000090SPEAKER ASM                   M IMCTM CM1    TNTH  09020IMKDC KA PTB  00015  K0                1431DES        000000000000 DENSO TEN (THAILAND)                                                                                                                                            *G         20200618 IMCT                IMCT                                                                                                                    WMF2006187.TXT
MAKK06065481202006D3               89828070100P3YK20200709000030SPEAKER ASM                   M IMCTM PK3    TNTH  09020IMKDC KA PTB  00004  K0                1431DES        000000000000 DENSO TEN (THAILAND)                                                                                                                                            *G         20200618 IMCT                IMCT                                                                                                                    WMF2006187.TXT
