REC2020061620200616ISUZU                              5      
MDEFL6T06938202006                D89828070100PV4F20200623000028SPEAKER ASM                   M IMCTM S7FL05 TNTH  09020IMCT  S7 PTB  00004                    1600 SR        000000000000 DENSO TEN (THAILAND)190G58R0055   190K21R0115   D200602702    D200602715    000000                                                                              *R         20200616 IMCT                IMCT                                                                                                                    RMF2006165.TXT
MDEFL6T06939202006                D89828070200PV4F20200623000030SPEAKER ASM                   M IMCTM S7FL05 TNTH  09020IMCT  S7 PTB  00005                    1600 SR        000000000000 DENSO TEN (THAILAND)190G58R0054   190K21R0115   D200602701    D200602715    000000                                                                              *R         20200616 IMCT                IMCT                                                                                                                    RMF2006165.TXT
MDEFL6T06940202006                D89828070300PT4F20200623000030SPEAKER ASM                   M IMCTM S7TS02 TNTH  09020IMCT  S7 PTB  00015                    1600 SR        000000000000 DENSO TEN (THAILAND)190G58R0054   190K21R0115   D200602701    D200602715    000000                                                                              *R         20200616 IMCT                IMCT                                                                                                                    RMF2006165.TXT
MDEFL6T06941202006                D89838031200PT4F20200623000015RADIO;ASM DVD                 M IMCTM S7TS03 TNTH  09020IMCT  S7 PTB  00003                    1600 SR        000000000000 DENSO TEN (THAILAND)190G58R0054   190K21R0115   D200602701    D200602715    000000                                                                              *R         20200616 IMCT                IMCT                                                                                                                    RMF2006165.TXT
MDEFL6214477202006                D89828070100PV4F20200623000032SPEAKER ASM                   M IMCTM S7FL05 TNTH  09020IMCT  S7 PTB  00004                    1030 SR        000000000000 DENSO TEN (THAILAND)190G51R0074   190G58R0054   R200602601    D200602701    000000                                                                              *R         20200616 IMCT                IMCT                                                                                                                    RMF2006165.TXT
