REC2020061920200619ISUZU                              6      
MDEBL6T00688202006                D89828070100PT4B20200626000030SPEAKER ASM                   M IMCTM S7FL05 TNTH  09020IMCT  S7 PTB  00004                    1300 SR        000000000000 DENSO TEN (THAILAND)190F59R0097   190F62R0111   Z200603401    Z200603415    000000                                                                              *R         20200619 IMCT                IMCT                                                                                                                    RMF2006196.TXT
MDEBL6T00689202006                D89828070200PV4B20200626000030SPEAKER ASM                   M IMCTM S7FL05 TNTH  09020IMCT  S7 PTB  00005                    1300 SR        000000000000 DENSO TEN (THAILAND)190F59R0097   190F62R0111   Z200603401    Z200603415    000000                                                                              *R         20200619 IMCT                IMCT                                                                                                                    RMF2006196.TXT
MDEBL6T00690202006                D89828070300PT4B20200626000030SPEAKER ASM                   M IMCTM S7TS02 TNTH  09020IMCT  S7 PTB  00015                    1300 SR        000000000000 DENSO TEN (THAILAND)190F59R0097   190F62R0111   Z200603401    Z200603415    000000                                                                              *R         20200619 IMCT                IMCT                                                                                                                    RMF2006196.TXT
MDEBL6T00691202006                D89838432900PT4B20200626000013RADIO;ASM DVD                 M IMCTM S7TS01 TNTH  09020IMCT  S7 PTB  00003                    1300 SR        000000000000 DENSO TEN (THAILAND)190F61R0089   190F62R0111   Z200603403    Z200603415    000000                                                                              *R         20200619 IMCT                IMCT                                                                                                                    RMF2006196.TXT
MDEFL6T09671202006                D89828070100PV4F20200626000026SPEAKER ASM                   M IMCTM S7FL05 TNTH  09020IMCT  S7 PTB  00004                    1030 SR        000000000000 DENSO TEN (THAILAND)190J91R0123   190L45R0035   R200603203    R200603215    000000                                                                              *R         20200619 IMCT                IMCT                                                                                                                    RMF2006196.TXT
MDEFL6220303202006                D89828070100PV4F20200626000004SPEAKER ASM                   M IMCTM S7FL05 TNTH  09020IMCT  S7 PTB  00004                    0830 SR        000000000000 DENSO TEN (THAILAND)190J49R0036   190J49R0037   R200603201    R200603202    000000                                                                              *R         20200619 IMCT                IMCT                                                                                                                    RMF2006196.TXT
