REC2020062420200624ISUZU                              5      
MDEFL6T12230202007                D89828070100PV4F20200701000028SPEAKER ASM                   M IMCTM S7FL05 TNTH  09020IMCT  S7 PTB  00004                    1600 SR        000000000000 DENSO TEN (THAILAND)190K09R0141   190K69R0121   S200700402    S200700415    000000                                                                              *R         20200624 IMCT                IMCT                                                                                                                    RMF2006245.TXT
MDEFL6T12231202007                D89828070200PV4F20200701000026SPEAKER ASM                   M IMCTM S7FL05 TNTH  09020IMCT  S7 PTB  00005                    1030 SR        000000000000 DENSO TEN (THAILAND)190F31R0068   190K22R0170   D200700301    D200700315    000000                                                                              *R         20200624 IMCT                IMCT                                                                                                                    RMF2006245.TXT
MDEFL6T12232202007                D89828070300PT4F20200701000026SPEAKER ASM                   M IMCTM S7TS02 TNTH  09020IMCT  S7 PTB  00015                    1030 SR        000000000000 DENSO TEN (THAILAND)190F31R0068   190K22R0170   D200700301    D200700315    000000                                                                              *R         20200624 IMCT                IMCT                                                                                                                    RMF2006245.TXT
MDEFL6T12233202007                D89838031200PT4F20200701000012RADIO;ASM DVD                 M IMCTM S7TS03 TNTH  09020IMCT  S7 PTB  00003                    1030 SR        000000000000 DENSO TEN (THAILAND)190K18R0043   190K22R0170   D200700304    D200700315    000000                                                                              *R         20200624 IMCT                IMCT                                                                                                                    RMF2006245.TXT
MDEFL6225825202007                D89828070100PV4F20200701000032SPEAKER ASM                   M IMCTM S7FL05 TNTH  09020IMCT  S7 PTB  00004                    1030 SR        000000000000 DENSO TEN (THAILAND)190F31R0068   190K09R0140   D200700301    S200700401    000000                                                                              *R         20200624 IMCT                IMCT                                                                                                                    RMF2006245.TXT
