REC2020061120200611ISUZU                              10     
MAKK06058879202006D3               89828070100P3YK20200629000120SPEAKER ASM                   M IMCTM CM1    TNTH  09020IMKDC KA PTB  00004  K0                1431DES        000000000000 DENSO TEN (THAILAND)                                                                                                                                            *G         20200611 IMCT                IMCT                                                                                                                    WMF2006113.TXT
MAKK06058880202006D3               89828070100P3YK20200701000090SPEAKER ASM                   M IMCTM CM1    TNTH  09020IMKDC KA PTB  00004  K0                1431DES        000000000000 DENSO TEN (THAILAND)                                                                                                                                            *G         20200611 IMCT                IMCT                                                                                                                    WMF2006113.TXT
MAKK06058881202006D3               89828070100P3YK20200702000120SPEAKER ASM                   M IMCTM CM1    TNTH  09020IMKDC KA PTB  00004  K0                1431DES        000000000000 DENSO TEN (THAILAND)                                                                                                                                            *G         20200611 IMCT                IMCT                                                                                                                    WMF2006113.TXT
MAKK06058882202006D3               89828070200P3YK20200629000090SPEAKER ASM                   M IMCTM CM1    TNTH  09020IMKDC KA PTB  00005  K0                1431DES        000000000000 DENSO TEN (THAILAND)                                                                                                                                            *G         20200611 IMCT                IMCT                                                                                                                    WMF2006113.TXT
MAKK06058883202006D3               89828070200P3YK20200701000060SPEAKER ASM                   M IMCTM CM1    TNTH  09020IMKDC KA PTB  00005  K0                1431DES        000000000000 DENSO TEN (THAILAND)                                                                                                                                            *G         20200611 IMCT                IMCT                                                                                                                    WMF2006113.TXT
MAKK06058884202006D3               89828070200P3YK20200702000030SPEAKER ASM                   M IMCTM CM1    TNTH  09020IMKDC KA PTB  00005  K0                1431DES        000000000000 DENSO TEN (THAILAND)                                                                                                                                            *G         20200611 IMCT                IMCT                                                                                                                    WMF2006113.TXT
MAKK06058885202006D3               89828070300P3YK20200629000120SPEAKER ASM                   M IMCTM CM1    TNTH  09020IMKDC KA PTB  00015  K0                1431DES        000000000000 DENSO TEN (THAILAND)                                                                                                                                            *G         20200611 IMCT                IMCT                                                                                                                    WMF2006113.TXT
MAKK06058886202006D3               89828070300P3YK20200701000090SPEAKER ASM                   M IMCTM CM1    TNTH  09020IMKDC KA PTB  00015  K0                1431DES        000000000000 DENSO TEN (THAILAND)                                                                                                                                            *G         20200611 IMCT                IMCT                                                                                                                    WMF2006113.TXT
MAKK06058887202006D3               89828070300P3YK20200702000120SPEAKER ASM                   M IMCTM CM1    TNTH  09020IMKDC KA PTB  00015  K0                1431DES        000000000000 DENSO TEN (THAILAND)                                                                                                                                            *G         20200611 IMCT                IMCT                                                                                                                    WMF2006113.TXT
MAKK06060312202006D3               89828070100P3YK20200701000030SPEAKER ASM                   M IMCTM PK3    TNTH  09020IMKDC KA PTB  00004  K0                1431DES        000000000000 DENSO TEN (THAILAND)                                                                                                                                            *G         20200611 IMCT                IMCT                                                                                                                    WMF2006113.TXT
