REC2020060420200604ISUZU                              4      
MAKK06054559202006D3               89828070100P3YK20200622000090SPEAKER ASM                   M IMCTM CM1    TNTH  09020IMKDC KA PTB  00004  K0                1431DES        000000000000 DENSO TEN (THAILAND)                                                                                                                                            *G         20200604 IMCT                IMCT                                                                                                                    WMF200604A.TXT
MAKK06054560202006D3               89828070100P3YK20200623000090SPEAKER ASM                   M IMCTM CM1    TNTH  09020IMKDC KA PTB  00004  K0                1431DES        000000000000 DENSO TEN (THAILAND)                                                                                                                                            *G         20200604 IMCT                IMCT                                                                                                                    WMF200604A.TXT
MAKK06054561202006D3               89828070100P3YK20200625000090SPEAKER ASM                   M IMCTM CM1    TNTH  09020IMKDC KA PTB  00004  K0                1431DES        000000000000 DENSO TEN (THAILAND)                                                                                                                                            *G         20200604 IMCT                IMCT                                                                                                                    WMF200604A.TXT
MAKK06055598202006D3               89828070100P3YK20200623000030SPEAKER ASM                   M IMCTM PK3    TNTH  09020IMKDC KA PTB  00004  K0                1431DES        000000000000 DENSO TEN (THAILAND)                                                                                                                                            *G         20200604 IMCT                IMCT                                                                                                                    WMF200604A.TXT
