REC2020062520200625ISUZU                              9      
MAKK06069160202006D3               89828070100P3YK20200713000090SPEAKER ASM                   M IMCTM CM1    TNTH  09020IMKDC KA PTB  00004  K0                1431DES        000000000000 DENSO TEN (THAILAND)                                                                                                                                            *G         20200625 IMCT                IMCT                                                                                                                    WMF2006255.TXT
MAKK06069161202006D3               89828070100P3YK20200715000060SPEAKER ASM                   M IMCTM CM1    TNTH  09020IMKDC KA PTB  00004  K0                1431DES        000000000000 DENSO TEN (THAILAND)                                                                                                                                            *G         20200625 IMCT                IMCT                                                                                                                    WMF2006255.TXT
MAKK06069162202006D3               89828070100P3YK20200716000120SPEAKER ASM                   M IMCTM CM1    TNTH  09020IMKDC KA PTB  00004  K0                1431DES        000000000000 DENSO TEN (THAILAND)                                                                                                                                            *G         20200625 IMCT                IMCT                                                                                                                    WMF2006255.TXT
MAKK06069163202006D3               89828070200P3YK20200713000060SPEAKER ASM                   M IMCTM CM1    TNTH  09020IMKDC KA PTB  00005  K0                1431DES        000000000000 DENSO TEN (THAILAND)                                                                                                                                            *G         20200625 IMCT                IMCT                                                                                                                    WMF2006255.TXT
MAKK06069164202006D3               89828070200P3YK20200715000060SPEAKER ASM                   M IMCTM CM1    TNTH  09020IMKDC KA PTB  00005  K0                1431DES        000000000000 DENSO TEN (THAILAND)                                                                                                                                            *G         20200625 IMCT                IMCT                                                                                                                    WMF2006255.TXT
MAKK06069165202006D3               89828070200P3YK20200716000090SPEAKER ASM                   M IMCTM CM1    TNTH  09020IMKDC KA PTB  00005  K0                1431DES        000000000000 DENSO TEN (THAILAND)                                                                                                                                            *G         20200625 IMCT                IMCT                                                                                                                    WMF2006255.TXT
MAKK06069166202006D3               89828070300P3YK20200713000090SPEAKER ASM                   M IMCTM CM1    TNTH  09020IMKDC KA PTB  00015  K0                1431DES        000000000000 DENSO TEN (THAILAND)                                                                                                                                            *G         20200625 IMCT                IMCT                                                                                                                    WMF2006255.TXT
MAKK06069167202006D3               89828070300P3YK20200715000060SPEAKER ASM                   M IMCTM CM1    TNTH  09020IMKDC KA PTB  00015  K0                1431DES        000000000000 DENSO TEN (THAILAND)                                                                                                                                            *G         20200625 IMCT                IMCT                                                                                                                    WMF2006255.TXT
MAKK06069168202006D3               89828070300P3YK20200716000120SPEAKER ASM                   M IMCTM CM1    TNTH  09020IMKDC KA PTB  00015  K0                1431DES        000000000000 DENSO TEN (THAILAND)                                                                                                                                            *G         20200625 IMCT                IMCT                                                                                                                    WMF2006255.TXT
