REC2020070220200702ISUZU                              10     
MAKK06074319202007D3               89825451200P3YK20200722000030SPEAKER ASM;ROOF              M IMCTM CM1    TNTH  09020IMKDC KA PTB  00036  K0                1431DES        000000000000 DENSO TEN (THAILAND)                                                                                                                                            *G         20200702 IMCT                IMCT                                                                                                                    WMF2007028.TXT
MAKK06074320202007D3               89828070100P3YK20200720000090SPEAKER ASM                   M IMCTM CM1    TNTH  09020IMKDC KA PTB  00004  K0                1431DES        000000000000 DENSO TEN (THAILAND)                                                                                                                                            *G         20200702 IMCT                IMCT                                                                                                                    WMF2007028.TXT
MAKK06074321202007D3               89828070100P3YK20200722000120SPEAKER ASM                   M IMCTM CM1    TNTH  09020IMKDC KA PTB  00004  K0                1431DES        000000000000 DENSO TEN (THAILAND)                                                                                                                                            *G         20200702 IMCT                IMCT                                                                                                                    WMF2007028.TXT
MAKK06074322202007D3               89828070100P3YK20200723000060SPEAKER ASM                   M IMCTM CM1    TNTH  09020IMKDC KA PTB  00004  K0                1431DES        000000000000 DENSO TEN (THAILAND)                                                                                                                                            *G         20200702 IMCT                IMCT                                                                                                                    WMF2007028.TXT
MAKK06074323202007D3               89828070200P3YK20200720000060SPEAKER ASM                   M IMCTM CM1    TNTH  09020IMKDC KA PTB  00005  K0                1431DES        000000000000 DENSO TEN (THAILAND)                                                                                                                                            *G         20200702 IMCT                IMCT                                                                                                                    WMF2007028.TXT
MAKK06074324202007D3               89828070200P3YK20200722000060SPEAKER ASM                   M IMCTM CM1    TNTH  09020IMKDC KA PTB  00005  K0                1431DES        000000000000 DENSO TEN (THAILAND)                                                                                                                                            *G         20200702 IMCT                IMCT                                                                                                                    WMF2007028.TXT
MAKK06074325202007D3               89828070200P3YK20200723000030SPEAKER ASM                   M IMCTM CM1    TNTH  09020IMKDC KA PTB  00005  K0                1431DES        000000000000 DENSO TEN (THAILAND)                                                                                                                                            *G         20200702 IMCT                IMCT                                                                                                                    WMF2007028.TXT
MAKK06074326202007D3               89828070300P3YK20200720000090SPEAKER ASM                   M IMCTM CM1    TNTH  09020IMKDC KA PTB  00015  K0                1431DES        000000000000 DENSO TEN (THAILAND)                                                                                                                                            *G         20200702 IMCT                IMCT                                                                                                                    WMF2007028.TXT
MAKK06074327202007D3               89828070300P3YK20200722000120SPEAKER ASM                   M IMCTM CM1    TNTH  09020IMKDC KA PTB  00015  K0                1431DES        000000000000 DENSO TEN (THAILAND)                                                                                                                                            *G         20200702 IMCT                IMCT                                                                                                                    WMF2007028.TXT
MAKK06074328202007D3               89828070300P3YK20200723000060SPEAKER ASM                   M IMCTM CM1    TNTH  09020IMKDC KA PTB  00015  K0                1431DES        000000000000 DENSO TEN (THAILAND)                                                                                                                                            *G         20200702 IMCT                IMCT                                                                                                                    WMF2007028.TXT
