REC2020072320200723ISUZU                              20     
MAKK07063200202007D3               89825451200P3YK20200803000030SPEAKER ASM;ROOF              M IMCTM CM1    TNTH  09020IMKDC KA PTB  00036  K0                1431DES        000000000000 DENSO TEN (THAILAND)                                                                                                                                            *G         20200723 IMCT                IMCT                                                                                                                    WMF2007238.TXT
MAKK07063201202007D3               89825451200P3YK20200807000030SPEAKER ASM;ROOF              M IMCTM CM1    TNTH  09020IMKDC KA PTB  00036  K0                1431DES        000000000000 DENSO TEN (THAILAND)                                                                                                                                            *G         20200723 IMCT                IMCT                                                                                                                    WMF2007238.TXT
MAKK07063202202007D3               89828070100P3YK20200803000090SPEAKER ASM                   M IMCTM CM1    TNTH  09020IMKDC KA PTB  00004  K0                1431DES        000000000000 DENSO TEN (THAILAND)                                                                                                                                            *G         20200723 IMCT                IMCT                                                                                                                    WMF2007238.TXT
MAKK07063203202007D3               89828070100P3YK20200804000060SPEAKER ASM                   M IMCTM CM1    TNTH  09020IMKDC KA PTB  00004  K0                1431DES        000000000000 DENSO TEN (THAILAND)                                                                                                                                            *G         20200723 IMCT                IMCT                                                                                                                    WMF2007238.TXT
MAKK07063204202007D3               89828070100P3YK20200805000090SPEAKER ASM                   M IMCTM CM1    TNTH  09020IMKDC KA PTB  00004  K0                1431DES        000000000000 DENSO TEN (THAILAND)                                                                                                                                            *G         20200723 IMCT                IMCT                                                                                                                    WMF2007238.TXT
MAKK07063205202007D3               89828070100P3YK20200806000060SPEAKER ASM                   M IMCTM CM1    TNTH  09020IMKDC KA PTB  00004  K0                1431DES        000000000000 DENSO TEN (THAILAND)                                                                                                                                            *G         20200723 IMCT                IMCT                                                                                                                    WMF2007238.TXT
MAKK07063206202007D3               89828070100P3YK20200807000150SPEAKER ASM                   M IMCTM CM1    TNTH  09020IMKDC KA PTB  00004  K0                1431DES        000000000000 DENSO TEN (THAILAND)                                                                                                                                            *G         20200723 IMCT                IMCT                                                                                                                    WMF2007238.TXT
MAKK07063207202007D3               89828070200P3YK20200803000060SPEAKER ASM                   M IMCTM CM1    TNTH  09020IMKDC KA PTB  00005  K0                1431DES        000000000000 DENSO TEN (THAILAND)                                                                                                                                            *G         20200723 IMCT                IMCT                                                                                                                    WMF2007238.TXT
MAKK07063208202007D3               89828070200P3YK20200804000030SPEAKER ASM                   M IMCTM CM1    TNTH  09020IMKDC KA PTB  00005  K0                1431DES        000000000000 DENSO TEN (THAILAND)                                                                                                                                            *G         20200723 IMCT                IMCT                                                                                                                    WMF2007238.TXT
MAKK07063209202007D3               89828070200P3YK20200805000030SPEAKER ASM                   M IMCTM CM1    TNTH  09020IMKDC KA PTB  00005  K0                1431DES        000000000000 DENSO TEN (THAILAND)                                                                                                                                            *G         20200723 IMCT                IMCT                                                                                                                    WMF2007238.TXT
MAKK07063210202007D3               89828070200P3YK20200806000030SPEAKER ASM                   M IMCTM CM1    TNTH  09020IMKDC KA PTB  00005  K0                1431DES        000000000000 DENSO TEN (THAILAND)                                                                                                                                            *G         20200723 IMCT                IMCT                                                                                                                    WMF2007238.TXT
MAKK07063211202007D3               89828070200P3YK20200807000120SPEAKER ASM                   M IMCTM CM1    TNTH  09020IMKDC KA PTB  00005  K0                1431DES        000000000000 DENSO TEN (THAILAND)                                                                                                                                            *G         20200723 IMCT                IMCT                                                                                                                    WMF2007238.TXT
MAKK07063212202007D3               89828070300P3YK20200803000060SPEAKER ASM                   M IMCTM CM1    TNTH  09020IMKDC KA PTB  00015  K0                1431DES        000000000000 DENSO TEN (THAILAND)                                                                                                                                            *G         20200723 IMCT                IMCT                                                                                                                    WMF2007238.TXT
MAKK07063213202007D3               89828070300P3YK20200804000060SPEAKER ASM                   M IMCTM CM1    TNTH  09020IMKDC KA PTB  00015  K0                1431DES        000000000000 DENSO TEN (THAILAND)                                                                                                                                            *G         20200723 IMCT                IMCT                                                                                                                    WMF2007238.TXT
MAKK07063214202007D3               89828070300P3YK20200805000060SPEAKER ASM                   M IMCTM CM1    TNTH  09020IMKDC KA PTB  00015  K0                1431DES        000000000000 DENSO TEN (THAILAND)                                                                                                                                            *G         20200723 IMCT                IMCT                                                                                                                    WMF2007238.TXT
MAKK07063215202007D3               89828070300P3YK20200806000060SPEAKER ASM                   M IMCTM CM1    TNTH  09020IMKDC KA PTB  00015  K0                1431DES        000000000000 DENSO TEN (THAILAND)                                                                                                                                            *G         20200723 IMCT                IMCT                                                                                                                    WMF2007238.TXT
MAKK07063216202007D3               89828070300P3YK20200807000120SPEAKER ASM                   M IMCTM CM1    TNTH  09020IMKDC KA PTB  00015  K0                1431DES        000000000000 DENSO TEN (THAILAND)                                                                                                                                            *G         20200723 IMCT                IMCT                                                                                                                    WMF2007238.TXT
MAKK07063217202007D3               89831228410P3YK20200807000015RADIO;AM/FM,CD                M IMCTM CM1    TNTH  09020IMKDC KA   CPB00003  K0                1431DES        000000000000 DENSO TEN (THAILAND)                                                                                                                                            *G         20200723 IMCT                IMCT                                                                                                                    WMF2007238.TXT
MAKK07066364202007D3               89828070100P3YK20200805000030SPEAKER ASM                   M IMCTM PK3    TNTH  09020IMKDC KA PTB  00004  K0                1431DES        000000000000 DENSO TEN (THAILAND)                                                                                                                                            *G         20200723 IMCT                IMCT                                                                                                                    WMF2007238.TXT
MAKK07066365202007D3               89828070100P3YK20200807000030SPEAKER ASM                   M IMCTM PK3    TNTH  09020IMKDC KA PTB  00004  K0                1431DES        000000000000 DENSO TEN (THAILAND)                                                                                                                                            *G         20200723 IMCT                IMCT                                                                                                                    WMF2007238.TXT
