REC2020071620200716ISUZU                              8      
MAKK07053867202007D3               89825451200P3YK20200730000030SPEAKER ASM;ROOF              M IMCTM CM1    TNTH  09020IMKDC KA PTB  00036  K0                1431DES        000000000000 DENSO TEN (THAILAND)                                                                                                                                            *G         20200716 IMCT                IMCT                                                                                                                    WMF2007165.TXT
MAKK07053868202007D3               89828070100P3YK20200727000090SPEAKER ASM                   M IMCTM CM1    TNTH  09020IMKDC KA PTB  00004  K0                1431DES        000000000000 DENSO TEN (THAILAND)                                                                                                                                            *G         20200716 IMCT                IMCT                                                                                                                    WMF2007165.TXT
MAKK07053869202007D3               89828070100P3YK20200729000060SPEAKER ASM                   M IMCTM CM1    TNTH  09020IMKDC KA PTB  00004  K0                1431DES        000000000000 DENSO TEN (THAILAND)                                                                                                                                            *G         20200716 IMCT                IMCT                                                                                                                    WMF2007165.TXT
MAKK07053870202007D3               89828070100P3YK20200730000090SPEAKER ASM                   M IMCTM CM1    TNTH  09020IMKDC KA PTB  00004  K0                1431DES        000000000000 DENSO TEN (THAILAND)                                                                                                                                            *G         20200716 IMCT                IMCT                                                                                                                    WMF2007165.TXT
MAKK07053871202007D3               89828070200P3YK20200727000030SPEAKER ASM                   M IMCTM CM1    TNTH  09020IMKDC KA PTB  00005  K0                1431DES        000000000000 DENSO TEN (THAILAND)                                                                                                                                            *G         20200716 IMCT                IMCT                                                                                                                    WMF2007165.TXT
MAKK07053872202007D3               89828070200P3YK20200730000090SPEAKER ASM                   M IMCTM CM1    TNTH  09020IMKDC KA PTB  00005  K0                1431DES        000000000000 DENSO TEN (THAILAND)                                                                                                                                            *G         20200716 IMCT                IMCT                                                                                                                    WMF2007165.TXT
MAKK07053873202007D3               89828070300P3YK20200727000090SPEAKER ASM                   M IMCTM CM1    TNTH  09020IMKDC KA PTB  00015  K0                1431DES        000000000000 DENSO TEN (THAILAND)                                                                                                                                            *G         20200716 IMCT                IMCT                                                                                                                    WMF2007165.TXT
MAKK07053874202007D3               89828070300P3YK20200730000090SPEAKER ASM                   M IMCTM CM1    TNTH  09020IMKDC KA PTB  00015  K0                1431DES        000000000000 DENSO TEN (THAILAND)                                                                                                                                            *G         20200716 IMCT                IMCT                                                                                                                    WMF2007165.TXT
