REC2020080420200804ISUZU                              4      
MDEFL8T01420202008                D89828070100PV4F20200808000030SPEAKER ASM                   M IMCTM S7FL05 TNTH  09020IMCT  S7 PTB  00004                    0230 SR        000000000000 DENSO TEN (THAILAND)190D39R0075   190M48R0015   D200800401    D200800415    000000                                                                              *R         20200804 IMCT                IMCT                                                                                                                    RMF2008045.TXT
MDEFL8T01421202008                D89828070200PV4F20200808000012SPEAKER ASM                   M IMCTM S7FL05 TNTH  09020IMCT  S7 PTB  00005                    0230 SR        000000000000 DENSO TEN (THAILAND)190D39R0075   190M48R0015   D200800401    D200800415    000000                                                                              *R         20200804 IMCT                IMCT                                                                                                                    RMF2008045.TXT
MDEFL8T01422202008                D89828070300PT4F20200808000012SPEAKER ASM                   M IMCTM S7TS02 TNTH  09020IMCT  S7 PTB  00015                    0230 SR        000000000000 DENSO TEN (THAILAND)190D39R0075   190M48R0015   D200800401    D200800415    000000                                                                              *R         20200804 IMCT                IMCT                                                                                                                    RMF2008045.TXT
MDEFL8T01423202008                D89848581900PT4F20200808000005RADIO;AM/FM CD D              M IMCTM S7TS01 TNTH  09020IMCT  S7 PTB  00003                    0230 SR        000000000000 DENSO TEN (THAILAND)190M48R0011   190M48R0015   D200800411    D200800415    000000                                                                              *R         20200804 IMCT                IMCT                                                                                                                    RMF2008045.TXT
