REC2020082720200827ISUZU                              19     
MAKK08081495202008D3               89825451200P3YK20200908000030SPEAKER ASM;ROOF              M IMCTM CM1    TNTH  09020IMKDC KA PTB  00036  K0                1431DES        000000000000 DENSO TEN (THAILAND)                                                                                                                                            *G         20200827 IMCT                IMCT                                                                                                                    WMF2008273.TXT
MAKK08081496202008D3               89825451200P3YK20200909000060SPEAKER ASM;ROOF              M IMCTM CM1    TNTH  09020IMKDC KA PTB  00036  K0                1431DES        000000000000 DENSO TEN (THAILAND)                                                                                                                                            *G         20200827 IMCT                IMCT                                                                                                                    WMF2008273.TXT
MAKK08081497202008D3               89825451200P3YK20200911000060SPEAKER ASM;ROOF              M IMCTM CM1    TNTH  09020IMKDC KA PTB  00036  K0                1431DES        000000000000 DENSO TEN (THAILAND)                                                                                                                                            *G         20200827 IMCT                IMCT                                                                                                                    WMF2008273.TXT
MAKK08081498202008D3               89828070100P3YK20200907000090SPEAKER ASM                   M IMCTM CM1    TNTH  09020IMKDC KA PTB  00004  K0                1431DES        000000000000 DENSO TEN (THAILAND)                                                                                                                                            *G         20200827 IMCT                IMCT                                                                                                                    WMF2008273.TXT
MAKK08081499202008D3               89828070100P3YK20200908000150SPEAKER ASM                   M IMCTM CM1    TNTH  09020IMKDC KA PTB  00004  K0                1431DES        000000000000 DENSO TEN (THAILAND)                                                                                                                                            *G         20200827 IMCT                IMCT                                                                                                                    WMF2008273.TXT
MAKK08081500202008D3               89828070100P3YK20200909000120SPEAKER ASM                   M IMCTM CM1    TNTH  09020IMKDC KA PTB  00004  K0                1431DES        000000000000 DENSO TEN (THAILAND)                                                                                                                                            *G         20200827 IMCT                IMCT                                                                                                                    WMF2008273.TXT
MAKK08081501202008D3               89828070100P3YK20200910000120SPEAKER ASM                   M IMCTM CM1    TNTH  09020IMKDC KA PTB  00004  K0                1431DES        000000000000 DENSO TEN (THAILAND)                                                                                                                                            *G         20200827 IMCT                IMCT                                                                                                                    WMF2008273.TXT
MAKK08081502202008D3               89828070100P3YK20200911000090SPEAKER ASM                   M IMCTM CM1    TNTH  09020IMKDC KA PTB  00004  K0                1431DES        000000000000 DENSO TEN (THAILAND)                                                                                                                                            *G         20200827 IMCT                IMCT                                                                                                                    WMF2008273.TXT
MAKK08081503202008D3               89828070200P3YK20200907000090SPEAKER ASM                   M IMCTM CM1    TNTH  09020IMKDC KA PTB  00005  K0                1431DES        000000000000 DENSO TEN (THAILAND)                                                                                                                                            *G         20200827 IMCT                IMCT                                                                                                                    WMF2008273.TXT
MAKK08081504202008D3               89828070200P3YK20200908000120SPEAKER ASM                   M IMCTM CM1    TNTH  09020IMKDC KA PTB  00005  K0                1431DES        000000000000 DENSO TEN (THAILAND)                                                                                                                                            *G         20200827 IMCT                IMCT                                                                                                                    WMF2008273.TXT
MAKK08081505202008D3               89828070200P3YK20200909000120SPEAKER ASM                   M IMCTM CM1    TNTH  09020IMKDC KA PTB  00005  K0                1431DES        000000000000 DENSO TEN (THAILAND)                                                                                                                                            *G         20200827 IMCT                IMCT                                                                                                                    WMF2008273.TXT
MAKK08081506202008D3               89828070200P3YK20200910000060SPEAKER ASM                   M IMCTM CM1    TNTH  09020IMKDC KA PTB  00005  K0                1431DES        000000000000 DENSO TEN (THAILAND)                                                                                                                                            *G         20200827 IMCT                IMCT                                                                                                                    WMF2008273.TXT
MAKK08081507202008D3               89828070200P3YK20200911000060SPEAKER ASM                   M IMCTM CM1    TNTH  09020IMKDC KA PTB  00005  K0                1431DES        000000000000 DENSO TEN (THAILAND)                                                                                                                                            *G         20200827 IMCT                IMCT                                                                                                                    WMF2008273.TXT
MAKK08081508202008D3               89828070300P3YK20200907000090SPEAKER ASM                   M IMCTM CM1    TNTH  09020IMKDC KA PTB  00015  K0                1431DES        000000000000 DENSO TEN (THAILAND)                                                                                                                                            *G         20200827 IMCT                IMCT                                                                                                                    WMF2008273.TXT
MAKK08081509202008D3               89828070300P3YK20200908000120SPEAKER ASM                   M IMCTM CM1    TNTH  09020IMKDC KA PTB  00015  K0                1431DES        000000000000 DENSO TEN (THAILAND)                                                                                                                                            *G         20200827 IMCT                IMCT                                                                                                                    WMF2008273.TXT
MAKK08081510202008D3               89828070300P3YK20200909000120SPEAKER ASM                   M IMCTM CM1    TNTH  09020IMKDC KA PTB  00015  K0                1431DES        000000000000 DENSO TEN (THAILAND)                                                                                                                                            *G         20200827 IMCT                IMCT                                                                                                                    WMF2008273.TXT
MAKK08081511202008D3               89828070300P3YK20200910000060SPEAKER ASM                   M IMCTM CM1    TNTH  09020IMKDC KA PTB  00015  K0                1431DES        000000000000 DENSO TEN (THAILAND)                                                                                                                                            *G         20200827 IMCT                IMCT                                                                                                                    WMF2008273.TXT
MAKK08081512202008D3               89828070300P3YK20200911000060SPEAKER ASM                   M IMCTM CM1    TNTH  09020IMKDC KA PTB  00015  K0                1431DES        000000000000 DENSO TEN (THAILAND)                                                                                                                                            *G         20200827 IMCT                IMCT                                                                                                                    WMF2008273.TXT
MAKK08084531202008D3               89828070100P3YK20200911000030SPEAKER ASM                   M IMCTM PK3    TNTH  09020IMKDC KA PTB  00004  K0                1431DES        000000000000 DENSO TEN (THAILAND)                                                                                                                                            *G         20200827 IMCT                IMCT                                                                                                                    WMF2008273.TXT
