REC2020082020200820ISUZU                              13     
MAKK08071287202008D3               89825451200P3YK20200904000060SPEAKER ASM;ROOF              M IMCTM CM1    TNTH  09020IMKDC KA PTB  00036  K0                1431DES        000000000000 DENSO TEN (THAILAND)                                                                                                                                            *G         20200820 IMCT                IMCT                                                                                                                    WMF2008204.TXT
MAKK08071288202008D3               89828070100P3YK20200901000060SPEAKER ASM                   M IMCTM CM1    TNTH  09020IMKDC KA PTB  00004  K0                1431DES        000000000000 DENSO TEN (THAILAND)                                                                                                                                            *G         20200820 IMCT                IMCT                                                                                                                    WMF2008204.TXT
MAKK08071289202008D3               89828070100P3YK20200902000030SPEAKER ASM                   M IMCTM CM1    TNTH  09020IMKDC KA PTB  00004  K0                1431DES        000000000000 DENSO TEN (THAILAND)                                                                                                                                            *G         20200820 IMCT                IMCT                                                                                                                    WMF2008204.TXT
MAKK08071290202008D3               89828070100P3YK20200903000060SPEAKER ASM                   M IMCTM CM1    TNTH  09020IMKDC KA PTB  00004  K0                1431DES        000000000000 DENSO TEN (THAILAND)                                                                                                                                            *G         20200820 IMCT                IMCT                                                                                                                    WMF2008204.TXT
MAKK08071291202008D3               89828070100P3YK20200904000150SPEAKER ASM                   M IMCTM CM1    TNTH  09020IMKDC KA PTB  00004  K0                1431DES        000000000000 DENSO TEN (THAILAND)                                                                                                                                            *G         20200820 IMCT                IMCT                                                                                                                    WMF2008204.TXT
MAKK08071292202008D3               89828070200P3YK20200901000060SPEAKER ASM                   M IMCTM CM1    TNTH  09020IMKDC KA PTB  00005  K0                1431DES        000000000000 DENSO TEN (THAILAND)                                                                                                                                            *G         20200820 IMCT                IMCT                                                                                                                    WMF2008204.TXT
MAKK08071293202008D3               89828070200P3YK20200902000030SPEAKER ASM                   M IMCTM CM1    TNTH  09020IMKDC KA PTB  00005  K0                1431DES        000000000000 DENSO TEN (THAILAND)                                                                                                                                            *G         20200820 IMCT                IMCT                                                                                                                    WMF2008204.TXT
MAKK08071294202008D3               89828070200P3YK20200904000060SPEAKER ASM                   M IMCTM CM1    TNTH  09020IMKDC KA PTB  00005  K0                1431DES        000000000000 DENSO TEN (THAILAND)                                                                                                                                            *G         20200820 IMCT                IMCT                                                                                                                    WMF2008204.TXT
MAKK08071295202008D3               89828070300P3YK20200901000060SPEAKER ASM                   M IMCTM CM1    TNTH  09020IMKDC KA PTB  00015  K0                1431DES        000000000000 DENSO TEN (THAILAND)                                                                                                                                            *G         20200820 IMCT                IMCT                                                                                                                    WMF2008204.TXT
MAKK08071296202008D3               89828070300P3YK20200902000030SPEAKER ASM                   M IMCTM CM1    TNTH  09020IMKDC KA PTB  00015  K0                1431DES        000000000000 DENSO TEN (THAILAND)                                                                                                                                            *G         20200820 IMCT                IMCT                                                                                                                    WMF2008204.TXT
MAKK08071297202008D3               89828070300P3YK20200904000120SPEAKER ASM                   M IMCTM CM1    TNTH  09020IMKDC KA PTB  00015  K0                1431DES        000000000000 DENSO TEN (THAILAND)                                                                                                                                            *G         20200820 IMCT                IMCT                                                                                                                    WMF2008204.TXT
MAKK08071298202008D3               89831228410P3YK20200902000015RADIO;AM/FM,CD                M IMCTM CM1    TNTH  09020IMKDC KA   CPB00003  K0                1431DES        000000000000 DENSO TEN (THAILAND)                                                                                                                                            *G         20200820 IMCT                IMCT                                                                                                                    WMF2008204.TXT
MAKK08073452202008D3               89828070100P3YK20200904000030SPEAKER ASM                   M IMCTM PK3    TNTH  09020IMKDC KA PTB  00004  K0                1431DES        000000000000 DENSO TEN (THAILAND)                                                                                                                                            *G         20200820 IMCT                IMCT                                                                                                                    WMF2008204.TXT
