REC2020081320200813ISUZU                              11     
MAKK08063290202008D3               89825451200P3YK20200824000060SPEAKER ASM;ROOF              M IMCTM CM1    TNTH  09020IMKDC KA PTB  00036  K0                1431DES        000000000000 DENSO TEN (THAILAND)                                                                                                                                            *G         20200813 IMCT                IMCT                                                                                                                    WMF2008136.TXT
MAKK08063291202008D3               89825451200P3YK20200825000060SPEAKER ASM;ROOF              M IMCTM CM1    TNTH  09020IMKDC KA PTB  00036  K0                1431DES        000000000000 DENSO TEN (THAILAND)                                                                                                                                            *G         20200813 IMCT                IMCT                                                                                                                    WMF2008136.TXT
MAKK08063292202008D3               89828070100P3YK20200824000090SPEAKER ASM                   M IMCTM CM1    TNTH  09020IMKDC KA PTB  00004  K0                1431DES        000000000000 DENSO TEN (THAILAND)                                                                                                                                            *G         20200813 IMCT                IMCT                                                                                                                    WMF2008136.TXT
MAKK08063293202008D3               89828070100P3YK20200825000150SPEAKER ASM                   M IMCTM CM1    TNTH  09020IMKDC KA PTB  00004  K0                1431DES        000000000000 DENSO TEN (THAILAND)                                                                                                                                            *G         20200813 IMCT                IMCT                                                                                                                    WMF2008136.TXT
MAKK08063294202008D3               89828070100P3YK20200826000090SPEAKER ASM                   M IMCTM CM1    TNTH  09020IMKDC KA PTB  00004  K0                1431DES        000000000000 DENSO TEN (THAILAND)                                                                                                                                            *G         20200813 IMCT                IMCT                                                                                                                    WMF2008136.TXT
MAKK08063295202008D3               89828070200P3YK20200824000060SPEAKER ASM                   M IMCTM CM1    TNTH  09020IMKDC KA PTB  00005  K0                1431DES        000000000000 DENSO TEN (THAILAND)                                                                                                                                            *G         20200813 IMCT                IMCT                                                                                                                    WMF2008136.TXT
MAKK08063296202008D3               89828070200P3YK20200825000120SPEAKER ASM                   M IMCTM CM1    TNTH  09020IMKDC KA PTB  00005  K0                1431DES        000000000000 DENSO TEN (THAILAND)                                                                                                                                            *G         20200813 IMCT                IMCT                                                                                                                    WMF2008136.TXT
MAKK08063297202008D3               89828070200P3YK20200826000090SPEAKER ASM                   M IMCTM CM1    TNTH  09020IMKDC KA PTB  00005  K0                1431DES        000000000000 DENSO TEN (THAILAND)                                                                                                                                            *G         20200813 IMCT                IMCT                                                                                                                    WMF2008136.TXT
MAKK08063298202008D3               89828070300P3YK20200824000060SPEAKER ASM                   M IMCTM CM1    TNTH  09020IMKDC KA PTB  00015  K0                1431DES        000000000000 DENSO TEN (THAILAND)                                                                                                                                            *G         20200813 IMCT                IMCT                                                                                                                    WMF2008136.TXT
MAKK08063299202008D3               89828070300P3YK20200825000150SPEAKER ASM                   M IMCTM CM1    TNTH  09020IMKDC KA PTB  00015  K0                1431DES        000000000000 DENSO TEN (THAILAND)                                                                                                                                            *G         20200813 IMCT                IMCT                                                                                                                    WMF2008136.TXT
MAKK08063300202008D3               89828070300P3YK20200826000090SPEAKER ASM                   M IMCTM CM1    TNTH  09020IMKDC KA PTB  00015  K0                1431DES        000000000000 DENSO TEN (THAILAND)                                                                                                                                            *G         20200813 IMCT                IMCT                                                                                                                    WMF2008136.TXT
