REC2020080320200803ISUZU                              3      
MDEFL8T00528202008                D89828070100PV4F20200806000030SPEAKER ASM                   M IMCTM S7FL05 TNTH  09020IMCT  S7 PTB  00004                    2230 SR        000000000000 DENSO TEN (THAILAND)190D37R0045   190K81R0123   D200800301    D200800315    000000                                                                              *R         20200803 IMCT                IMCT                                                                                                                    RMF2008035.TXT
MDEFL8T00529202008                D89828070200PV4F20200806000010SPEAKER ASM                   M IMCTM S7FL05 TNTH  09020IMCT  S7 PTB  00005                    2230 SR        000000000000 DENSO TEN (THAILAND)190F31R0084   190F31R0088   D200800302    D200800314    000000                                                                              *R         20200803 IMCT                IMCT                                                                                                                    RMF2008035.TXT
MDEFL8T00530202008                D89828070300PT4F20200806000010SPEAKER ASM                   M IMCTM S7TS02 TNTH  09020IMCT  S7 PTB  00015                    2230 SR        000000000000 DENSO TEN (THAILAND)190F31R0084   190F31R0088   D200800302    D200800314    000000                                                                              *R         20200803 IMCT                IMCT                                                                                                                    RMF2008035.TXT
