REC2020081120200811ISUZU                              4      
MDEFL8T04554202008                D89828070100PV4F20200815000030SPEAKER ASM                   M IMCTM S7FL05 TNTH  09020IMCT  S7 PTB  00004                    2230 SR        000000000000 DENSO TEN (THAILAND)190K13R0142   190K21R0131   D200800801    D200800815    000000                                                                              *R         20200811 IMCT                IMCT                                                                                                                    RMF2008115.TXT
MDEFL8T04555202008                D89828070200PV4F20200815000012SPEAKER ASM                   M IMCTM S7FL05 TNTH  09020IMCT  S7 PTB  00005                    2230 SR        000000000000 DENSO TEN (THAILAND)190K21R0126   190K21R0131   D200800810    D200800815    000000                                                                              *R         20200811 IMCT                IMCT                                                                                                                    RMF2008115.TXT
MDEFL8T04556202008                D89828070300PT4F20200815000012SPEAKER ASM                   M IMCTM S7TS02 TNTH  09020IMCT  S7 PTB  00015                    2230 SR        000000000000 DENSO TEN (THAILAND)190K21R0126   190K21R0131   D200800810    D200800815    000000                                                                              *R         20200811 IMCT                IMCT                                                                                                                    RMF2008115.TXT
MDEFL8T04557202008                D89838031200PT4F20200815000006RADIO;ASM DVD                 M IMCTM S7TS03 TNTH  09020IMCT  S7 PTB  00003                    2230 SR        000000000000 DENSO TEN (THAILAND)190K21R0126   190K21R0131   D200800810    D200800815    000000                                                                              *R         20200811 IMCT                IMCT                                                                                                                    RMF2008115.TXT
