REC2020090320200903ISUZU                              19     
MAKK08093021202009D3               89825451200P3YK20200915000030SPEAKER ASM;ROOF              M IMCTM CM1    TNTH  09020IMKDC KA PTB  00036  K0                1431DES        000000000000 DENSO TEN (THAILAND)                                                                                                                                            *G         20200903 IMCT                IMCT                                                                                                                    WMF2009034.TXT
MAKK08093022202009D3               89828070100P3YK20200914000120SPEAKER ASM                   M IMCTM CM1    TNTH  09020IMKDC KA PTB  00004  K0                1431DES        000000000000 DENSO TEN (THAILAND)                                                                                                                                            *G         20200903 IMCT                IMCT                                                                                                                    WMF2009034.TXT
MAKK08093023202009D3               89828070100P3YK20200915000120SPEAKER ASM                   M IMCTM CM1    TNTH  09020IMKDC KA PTB  00004  K0                1431DES        000000000000 DENSO TEN (THAILAND)                                                                                                                                            *G         20200903 IMCT                IMCT                                                                                                                    WMF2009034.TXT
MAKK08093024202009D3               89828070100P3YK20200916000120SPEAKER ASM                   M IMCTM CM1    TNTH  09020IMKDC KA PTB  00004  K0                1431DES        000000000000 DENSO TEN (THAILAND)                                                                                                                                            *G         20200903 IMCT                IMCT                                                                                                                    WMF2009034.TXT
MAKK08093025202009D3               89828070100P3YK20200917000120SPEAKER ASM                   M IMCTM CM1    TNTH  09020IMKDC KA PTB  00004  K0                1431DES        000000000000 DENSO TEN (THAILAND)                                                                                                                                            *G         20200903 IMCT                IMCT                                                                                                                    WMF2009034.TXT
MAKK08093026202009D3               89828070100P3YK20200918000120SPEAKER ASM                   M IMCTM CM1    TNTH  09020IMKDC KA PTB  00004  K0                1431DES        000000000000 DENSO TEN (THAILAND)                                                                                                                                            *G         20200903 IMCT                IMCT                                                                                                                    WMF2009034.TXT
MAKK08093027202009D3               89828070200P3YK20200914000090SPEAKER ASM                   M IMCTM CM1    TNTH  09020IMKDC KA PTB  00005  K0                1431DES        000000000000 DENSO TEN (THAILAND)                                                                                                                                            *G         20200903 IMCT                IMCT                                                                                                                    WMF2009034.TXT
MAKK08093028202009D3               89828070200P3YK20200915000090SPEAKER ASM                   M IMCTM CM1    TNTH  09020IMKDC KA PTB  00005  K0                1431DES        000000000000 DENSO TEN (THAILAND)                                                                                                                                            *G         20200903 IMCT                IMCT                                                                                                                    WMF2009034.TXT
MAKK08093029202009D3               89828070200P3YK20200916000090SPEAKER ASM                   M IMCTM CM1    TNTH  09020IMKDC KA PTB  00005  K0                1431DES        000000000000 DENSO TEN (THAILAND)                                                                                                                                            *G         20200903 IMCT                IMCT                                                                                                                    WMF2009034.TXT
MAKK08093030202009D3               89828070200P3YK20200917000060SPEAKER ASM                   M IMCTM CM1    TNTH  09020IMKDC KA PTB  00005  K0                1431DES        000000000000 DENSO TEN (THAILAND)                                                                                                                                            *G         20200903 IMCT                IMCT                                                                                                                    WMF2009034.TXT
MAKK08093031202009D3               89828070200P3YK20200918000090SPEAKER ASM                   M IMCTM CM1    TNTH  09020IMKDC KA PTB  00005  K0                1431DES        000000000000 DENSO TEN (THAILAND)                                                                                                                                            *G         20200903 IMCT                IMCT                                                                                                                    WMF2009034.TXT
MAKK08093032202009D3               89828070300P3YK20200914000090SPEAKER ASM                   M IMCTM CM1    TNTH  09020IMKDC KA PTB  00015  K0                1431DES        000000000000 DENSO TEN (THAILAND)                                                                                                                                            *G         20200903 IMCT                IMCT                                                                                                                    WMF2009034.TXT
MAKK08093033202009D3               89828070300P3YK20200915000090SPEAKER ASM                   M IMCTM CM1    TNTH  09020IMKDC KA PTB  00015  K0                1431DES        000000000000 DENSO TEN (THAILAND)                                                                                                                                            *G         20200903 IMCT                IMCT                                                                                                                    WMF2009034.TXT
MAKK08093034202009D3               89828070300P3YK20200916000090SPEAKER ASM                   M IMCTM CM1    TNTH  09020IMKDC KA PTB  00015  K0                1431DES        000000000000 DENSO TEN (THAILAND)                                                                                                                                            *G         20200903 IMCT                IMCT                                                                                                                    WMF2009034.TXT
MAKK08093035202009D3               89828070300P3YK20200917000060SPEAKER ASM                   M IMCTM CM1    TNTH  09020IMKDC KA PTB  00015  K0                1431DES        000000000000 DENSO TEN (THAILAND)                                                                                                                                            *G         20200903 IMCT                IMCT                                                                                                                    WMF2009034.TXT
MAKK08093036202009D3               89828070300P3YK20200918000090SPEAKER ASM                   M IMCTM CM1    TNTH  09020IMKDC KA PTB  00015  K0                1431DES        000000000000 DENSO TEN (THAILAND)                                                                                                                                            *G         20200903 IMCT                IMCT                                                                                                                    WMF2009034.TXT
MAKK08093037202009D3               89831228410P3YK20200916000015RADIO;AM/FM,CD                M IMCTM CM1    TNTH  09020IMKDC KA   CPB00003  K0                1431DES        000000000000 DENSO TEN (THAILAND)                                                                                                                                            *G         20200903 IMCT                IMCT                                                                                                                    WMF2009034.TXT
MAKK08093038202009D3               89831228410P3YK20200918000015RADIO;AM/FM,CD                M IMCTM CM1    TNTH  09020IMKDC KA   CPB00003  K0                1431DES        000000000000 DENSO TEN (THAILAND)                                                                                                                                            *G         20200903 IMCT                IMCT                                                                                                                    WMF2009034.TXT
MAKK08096266202009D3               89828070100P3YK20200916000030SPEAKER ASM                   M IMCTM PK3    TNTH  09020IMKDC KA PTB  00004  K0                1431DES        000000000000 DENSO TEN (THAILAND)                                                                                                                                            *G         20200903 IMCT                IMCT                                                                                                                    WMF2009034.TXT
