REC2020091120200911ISUZU                              20     
MAKK09052431202009D3               89825451200P3YK20200923000030SPEAKER ASM;ROOF              M IMCTM CM1    TNTH  09020IMKDC KA PTB  00036  K0                1431DES        000000000000 DENSO TEN (THAILAND)                                                                                                                                            *G         20200911 IMCT                IMCT                                                                                                                    WMF2009111.TXT
MAKK09052432202009D3               89828070100P3YK20200921000150SPEAKER ASM                   M IMCTM CM1    TNTH  09020IMKDC KA PTB  00004  K0                1431DES        000000000000 DENSO TEN (THAILAND)                                                                                                                                            *G         20200911 IMCT                IMCT                                                                                                                    WMF2009111.TXT
MAKK09052433202009D3               89828070100P3YK20200922000120SPEAKER ASM                   M IMCTM CM1    TNTH  09020IMKDC KA PTB  00004  K0                1431DES        000000000000 DENSO TEN (THAILAND)                                                                                                                                            *G         20200911 IMCT                IMCT                                                                                                                    WMF2009111.TXT
MAKK09052434202009D3               89828070100P3YK20200923000150SPEAKER ASM                   M IMCTM CM1    TNTH  09020IMKDC KA PTB  00004  K0                1431DES        000000000000 DENSO TEN (THAILAND)                                                                                                                                            *G         20200911 IMCT                IMCT                                                                                                                    WMF2009111.TXT
MAKK09052435202009D3               89828070100P3YK20200924000090SPEAKER ASM                   M IMCTM CM1    TNTH  09020IMKDC KA PTB  00004  K0                1431DES        000000000000 DENSO TEN (THAILAND)                                                                                                                                            *G         20200911 IMCT                IMCT                                                                                                                    WMF2009111.TXT
MAKK09052436202009D3               89828070100P3YK20200925000150SPEAKER ASM                   M IMCTM CM1    TNTH  09020IMKDC KA PTB  00004  K0                1431DES        000000000000 DENSO TEN (THAILAND)                                                                                                                                            *G         20200911 IMCT                IMCT                                                                                                                    WMF2009111.TXT
MAKK09052437202009D3               89828070200P3YK20200921000060SPEAKER ASM                   M IMCTM CM1    TNTH  09020IMKDC KA PTB  00005  K0                1431DES        000000000000 DENSO TEN (THAILAND)                                                                                                                                            *G         20200911 IMCT                IMCT                                                                                                                    WMF2009111.TXT
MAKK09052438202009D3               89828070200P3YK20200922000060SPEAKER ASM                   M IMCTM CM1    TNTH  09020IMKDC KA PTB  00005  K0                1431DES        000000000000 DENSO TEN (THAILAND)                                                                                                                                            *G         20200911 IMCT                IMCT                                                                                                                    WMF2009111.TXT
MAKK09052439202009D3               89828070200P3YK20200923000120SPEAKER ASM                   M IMCTM CM1    TNTH  09020IMKDC KA PTB  00005  K0                1431DES        000000000000 DENSO TEN (THAILAND)                                                                                                                                            *G         20200911 IMCT                IMCT                                                                                                                    WMF2009111.TXT
MAKK09052440202009D3               89828070200P3YK20200925000090SPEAKER ASM                   M IMCTM CM1    TNTH  09020IMKDC KA PTB  00005  K0                1431DES        000000000000 DENSO TEN (THAILAND)                                                                                                                                            *G         20200911 IMCT                IMCT                                                                                                                    WMF2009111.TXT
MAKK09052441202009D3               89828070300P3YK20200921000120SPEAKER ASM                   M IMCTM CM1    TNTH  09020IMKDC KA PTB  00015  K0                1431DES        000000000000 DENSO TEN (THAILAND)                                                                                                                                            *G         20200911 IMCT                IMCT                                                                                                                    WMF2009111.TXT
MAKK09052442202009D3               89828070300P3YK20200922000060SPEAKER ASM                   M IMCTM CM1    TNTH  09020IMKDC KA PTB  00015  K0                1431DES        000000000000 DENSO TEN (THAILAND)                                                                                                                                            *G         20200911 IMCT                IMCT                                                                                                                    WMF2009111.TXT
MAKK09052443202009D3               89828070300P3YK20200923000120SPEAKER ASM                   M IMCTM CM1    TNTH  09020IMKDC KA PTB  00015  K0                1431DES        000000000000 DENSO TEN (THAILAND)                                                                                                                                            *G         20200911 IMCT                IMCT                                                                                                                    WMF2009111.TXT
MAKK09052444202009D3               89828070300P3YK20200925000090SPEAKER ASM                   M IMCTM CM1    TNTH  09020IMKDC KA PTB  00015  K0                1431DES        000000000000 DENSO TEN (THAILAND)                                                                                                                                            *G         20200911 IMCT                IMCT                                                                                                                    WMF2009111.TXT
MAKK09052445202009D3               89831228410P3YK20200922000015RADIO;AM/FM,CD                M IMCTM CM1    TNTH  09020IMKDC KA   CPB00003  K0                1431DES        000000000000 DENSO TEN (THAILAND)                                                                                                                                            *G         20200911 IMCT                IMCT                                                                                                                    WMF2009111.TXT
MAKK09055817202009D3               89828070100P3YK20200922000030SPEAKER ASM                   M IMCTM PK3    TNTH  09020IMKDC KA PTB  00004  K0                1431DES        000000000000 DENSO TEN (THAILAND)                                                                                                                                            *G         20200911 IMCT                IMCT                                                                                                                    WMF2009111.TXT
MAKK09055818202009D3               89828070100P3YK20200925000030SPEAKER ASM                   M IMCTM PK3    TNTH  09020IMKDC KA PTB  00004  K0                1431DES        000000000000 DENSO TEN (THAILAND)                                                                                                                                            *G         20200911 IMCT                IMCT                                                                                                                    WMF2009111.TXT
MAKK09055819202009D3               89828070200P3YK20200922000030SPEAKER ASM                   M IMCTM PK3    TNTH  09020IMKDC KA PTB  00005  K0                1431DES        000000000000 DENSO TEN (THAILAND)                                                                                                                                            *G         20200911 IMCT                IMCT                                                                                                                    WMF2009111.TXT
MAKK09055820202009D3               89828070200P3YK20200925000030SPEAKER ASM                   M IMCTM PK3    TNTH  09020IMKDC KA PTB  00005  K0                1431DES        000000000000 DENSO TEN (THAILAND)                                                                                                                                            *G         20200911 IMCT                IMCT                                                                                                                    WMF2009111.TXT
MAKK09055821202009D3               89828070300P3YK20200925000030SPEAKER ASM                   M IMCTM PK3    TNTH  09020IMKDC KA PTB  00015  K0                1431DES        000000000000 DENSO TEN (THAILAND)                                                                                                                                            *G         20200911 IMCT                IMCT                                                                                                                    WMF2009111.TXT
