REC2020090720200907ISUZU                              3      
MDEFL9T07848202009                D89828070100PV4F20200910000030SPEAKER ASM                   M IMCTM S7FL05 TNTH  09020IMCT  S7 PTB  00004                    2230 SR        000000000000 DENSO TEN (THAILAND)190K53R0143   190M75R0013   D200901301    D200901315    000000                                                                              *R         20200907 IMCT                IMCT                                                                                                                    RMF2009075.TXT
MDEFL9T07849202009                D89828070200PV4F20200910000004SPEAKER ASM                   M IMCTM S7FL05 TNTH  09020IMCT  S7 PTB  00005                    2230 SR        000000000000 DENSO TEN (THAILAND)190K83R0109   190K83R0110   D200901311    D200901312    000000                                                                              *R         20200907 IMCT                IMCT                                                                                                                    RMF2009075.TXT
MDEFL9T07850202009                D89828070300PT4F20200910000004SPEAKER ASM                   M IMCTM S7TS02 TNTH  09020IMCT  S7 PTB  00015                    2230 SR        000000000000 DENSO TEN (THAILAND)190K83R0109   190K83R0110   D200901311    D200901312    000000                                                                              *R         20200907 IMCT                IMCT                                                                                                                    RMF2009075.TXT
