REC2020102920201029ISUZU                              20     
MAKK0O091217202010D3               89825451200P3YK20201110000030SPEAKER ASM;ROOF              M IMCTM CM1    TNTH  09020IMKDC KA PTB  00036  K0                1431DES        000000000000 DENSO TEN (THAILAND)                                                                                                                                            *G         20201029 IMCT                IMCT                                                                                                                    WMF2010292.TXT
MAKK0O091218202010D3               89825451200P3YK20201113000030SPEAKER ASM;ROOF              M IMCTM CM1    TNTH  09020IMKDC KA PTB  00036  K0                1431DES        000000000000 DENSO TEN (THAILAND)                                                                                                                                            *G         20201029 IMCT                IMCT                                                                                                                    WMF2010292.TXT
MAKK0O091219202010D3               89828070100P3YK20201109000120SPEAKER ASM                   M IMCTM CM1    TNTH  09020IMKDC KA PTB  00004  K0                1431DES        000000000000 DENSO TEN (THAILAND)                                                                                                                                            *G         20201029 IMCT                IMCT                                                                                                                    WMF2010292.TXT
MAKK0O091220202010D3               89828070100P3YK20201110000150SPEAKER ASM                   M IMCTM CM1    TNTH  09020IMKDC KA PTB  00004  K0                1431DES        000000000000 DENSO TEN (THAILAND)                                                                                                                                            *G         20201029 IMCT                IMCT                                                                                                                    WMF2010292.TXT
MAKK0O091221202010D3               89828070100P3YK20201111000210SPEAKER ASM                   M IMCTM CM1    TNTH  09020IMKDC KA PTB  00004  K0                1431DES        000000000000 DENSO TEN (THAILAND)                                                                                                                                            *G         20201029 IMCT                IMCT                                                                                                                    WMF2010292.TXT
MAKK0O091222202010D3               89828070100P3YK20201112000150SPEAKER ASM                   M IMCTM CM1    TNTH  09020IMKDC KA PTB  00004  K0                1431DES        000000000000 DENSO TEN (THAILAND)                                                                                                                                            *G         20201029 IMCT                IMCT                                                                                                                    WMF2010292.TXT
MAKK0O091223202010D3               89828070100P3YK20201113000150SPEAKER ASM                   M IMCTM CM1    TNTH  09020IMKDC KA PTB  00004  K0                1431DES        000000000000 DENSO TEN (THAILAND)                                                                                                                                            *G         20201029 IMCT                IMCT                                                                                                                    WMF2010292.TXT
MAKK0O091224202010D3               89828070200P3YK20201109000090SPEAKER ASM                   M IMCTM CM1    TNTH  09020IMKDC KA PTB  00005  K0                1431DES        000000000000 DENSO TEN (THAILAND)                                                                                                                                            *G         20201029 IMCT                IMCT                                                                                                                    WMF2010292.TXT
MAKK0O091225202010D3               89828070200P3YK20201110000090SPEAKER ASM                   M IMCTM CM1    TNTH  09020IMKDC KA PTB  00005  K0                1431DES        000000000000 DENSO TEN (THAILAND)                                                                                                                                            *G         20201029 IMCT                IMCT                                                                                                                    WMF2010292.TXT
MAKK0O091226202010D3               89828070200P3YK20201111000090SPEAKER ASM                   M IMCTM CM1    TNTH  09020IMKDC KA PTB  00005  K0                1431DES        000000000000 DENSO TEN (THAILAND)                                                                                                                                            *G         20201029 IMCT                IMCT                                                                                                                    WMF2010292.TXT
MAKK0O091227202010D3               89828070200P3YK20201112000030SPEAKER ASM                   M IMCTM CM1    TNTH  09020IMKDC KA PTB  00005  K0                1431DES        000000000000 DENSO TEN (THAILAND)                                                                                                                                            *G         20201029 IMCT                IMCT                                                                                                                    WMF2010292.TXT
MAKK0O091228202010D3               89828070200P3YK20201113000090SPEAKER ASM                   M IMCTM CM1    TNTH  09020IMKDC KA PTB  00005  K0                1431DES        000000000000 DENSO TEN (THAILAND)                                                                                                                                            *G         20201029 IMCT                IMCT                                                                                                                    WMF2010292.TXT
MAKK0O091229202010D3               89828070300P3YK20201109000090SPEAKER ASM                   M IMCTM CM1    TNTH  09020IMKDC KA PTB  00015  K0                1431DES        000000000000 DENSO TEN (THAILAND)                                                                                                                                            *G         20201029 IMCT                IMCT                                                                                                                    WMF2010292.TXT
MAKK0O091230202010D3               89828070300P3YK20201110000090SPEAKER ASM                   M IMCTM CM1    TNTH  09020IMKDC KA PTB  00015  K0                1431DES        000000000000 DENSO TEN (THAILAND)                                                                                                                                            *G         20201029 IMCT                IMCT                                                                                                                    WMF2010292.TXT
MAKK0O091231202010D3               89828070300P3YK20201111000090SPEAKER ASM                   M IMCTM CM1    TNTH  09020IMKDC KA PTB  00015  K0                1431DES        000000000000 DENSO TEN (THAILAND)                                                                                                                                            *G         20201029 IMCT                IMCT                                                                                                                    WMF2010292.TXT
MAKK0O091232202010D3               89828070300P3YK20201112000060SPEAKER ASM                   M IMCTM CM1    TNTH  09020IMKDC KA PTB  00015  K0                1431DES        000000000000 DENSO TEN (THAILAND)                                                                                                                                            *G         20201029 IMCT                IMCT                                                                                                                    WMF2010292.TXT
MAKK0O091233202010D3               89828070300P3YK20201113000090SPEAKER ASM                   M IMCTM CM1    TNTH  09020IMKDC KA PTB  00015  K0                1431DES        000000000000 DENSO TEN (THAILAND)                                                                                                                                            *G         20201029 IMCT                IMCT                                                                                                                    WMF2010292.TXT
MAKK0O094905202010D3               89828070100P3YK20201110000030SPEAKER ASM                   M IMCTM PK3    TNTH  09020IMKDC KA PTB  00004  K0                1431DES        000000000000 DENSO TEN (THAILAND)                                                                                                                                            *G         20201029 IMCT                IMCT                                                                                                                    WMF2010292.TXT
MAKK0O094906202010D3               89828070200P3YK20201110000030SPEAKER ASM                   M IMCTM PK3    TNTH  09020IMKDC KA PTB  00005  K0                1431DES        000000000000 DENSO TEN (THAILAND)                                                                                                                                            *G         20201029 IMCT                IMCT                                                                                                                    WMF2010292.TXT
MAKK0O094907202010D3               89828070300P3YK20201110000030SPEAKER ASM                   M IMCTM PK3    TNTH  09020IMKDC KA PTB  00015  K0                1431DES        000000000000 DENSO TEN (THAILAND)                                                                                                                                            *G         20201029 IMCT                IMCT                                                                                                                    WMF2010292.TXT
