REC2020102120201021ISUZU                              4      
MDEBLOT01594202010                D89750293000PT4B20201028000015RADIO;AM/FM CD D              M IMCTM S7TS01 TNTH  09020IMCT  S7 PTB  00003                    1600 SR        000000000000 DENSO TEN (THAILAND)190F82R0010   190F82R0017   Y201002401    Y201002415    000000                                                                              *R         20201021 IMCT                IMCT                                                                                                                    RMF2010217.TXT
MDEBLOT01595202010                D89828070100PT4B20201028000030SPEAKER ASM                   M IMCTM S7FL05 TNTH  09020IMCT  S7 PTB  00004                    1600 SR        000000000000 DENSO TEN (THAILAND)190F82R0010   190F82R0017   Y201002401    Y201002415    000000                                                                              *R         20201021 IMCT                IMCT                                                                                                                    RMF2010217.TXT
MDEBLOT01596202010                D89828070200PV4B20201028000030SPEAKER ASM                   M IMCTM S7FL05 TNTH  09020IMCT  S7 PTB  00005                    1600 SR        000000000000 DENSO TEN (THAILAND)190F82R0010   190F82R0017   Y201002401    Y201002415    000000                                                                              *R         20201021 IMCT                IMCT                                                                                                                    RMF2010217.TXT
MDEBLOT01597202010                D89828070300PT4B20201028000030SPEAKER ASM                   M IMCTM S7TS02 TNTH  09020IMCT  S7 PTB  00015                    1600 SR        000000000000 DENSO TEN (THAILAND)190F82R0010   190F82R0017   Y201002401    Y201002415    000000                                                                              *R         20201021 IMCT                IMCT                                                                                                                    RMF2010217.TXT
