REC2020100820201008ISUZU                              14     
MAKK0O053496202010D3               89825451200P3YK20201020000030SPEAKER ASM;ROOF              M IMCTM CM1    TNTH  09020IMKDC KA PTB  00036  K0                1431DES        000000000000 DENSO TEN (THAILAND)                                                                                                                                            *G         20201008 IMCT                IMCT                                                                                                                    WMF2010087.TXT
MAKK0O053497202010D3               89825451200P3YK20201021000030SPEAKER ASM;ROOF              M IMCTM CM1    TNTH  09020IMKDC KA PTB  00036  K0                1431DES        000000000000 DENSO TEN (THAILAND)                                                                                                                                            *G         20201008 IMCT                IMCT                                                                                                                    WMF2010087.TXT
MAKK0O053498202010D3               89828070100P3YK20201019000180SPEAKER ASM                   M IMCTM CM1    TNTH  09020IMKDC KA PTB  00004  K0                1431DES        000000000000 DENSO TEN (THAILAND)                                                                                                                                            *G         20201008 IMCT                IMCT                                                                                                                    WMF2010087.TXT
MAKK0O053499202010D3               89828070100P3YK20201020000150SPEAKER ASM                   M IMCTM CM1    TNTH  09020IMKDC KA PTB  00004  K0                1431DES        000000000000 DENSO TEN (THAILAND)                                                                                                                                            *G         20201008 IMCT                IMCT                                                                                                                    WMF2010087.TXT
MAKK0O053500202010D3               89828070100P3YK20201021000120SPEAKER ASM                   M IMCTM CM1    TNTH  09020IMKDC KA PTB  00004  K0                1431DES        000000000000 DENSO TEN (THAILAND)                                                                                                                                            *G         20201008 IMCT                IMCT                                                                                                                    WMF2010087.TXT
MAKK0O053501202010D3               89828070100P3YK20201022000180SPEAKER ASM                   M IMCTM CM1    TNTH  09020IMKDC KA PTB  00004  K0                1431DES        000000000000 DENSO TEN (THAILAND)                                                                                                                                            *G         20201008 IMCT                IMCT                                                                                                                    WMF2010087.TXT
MAKK0O053502202010D3               89828070200P3YK20201019000090SPEAKER ASM                   M IMCTM CM1    TNTH  09020IMKDC KA PTB  00005  K0                1431DES        000000000000 DENSO TEN (THAILAND)                                                                                                                                            *G         20201008 IMCT                IMCT                                                                                                                    WMF2010087.TXT
MAKK0O053503202010D3               89828070200P3YK20201020000060SPEAKER ASM                   M IMCTM CM1    TNTH  09020IMKDC KA PTB  00005  K0                1431DES        000000000000 DENSO TEN (THAILAND)                                                                                                                                            *G         20201008 IMCT                IMCT                                                                                                                    WMF2010087.TXT
MAKK0O053504202010D3               89828070200P3YK20201021000060SPEAKER ASM                   M IMCTM CM1    TNTH  09020IMKDC KA PTB  00005  K0                1431DES        000000000000 DENSO TEN (THAILAND)                                                                                                                                            *G         20201008 IMCT                IMCT                                                                                                                    WMF2010087.TXT
MAKK0O053505202010D3               89828070200P3YK20201022000060SPEAKER ASM                   M IMCTM CM1    TNTH  09020IMKDC KA PTB  00005  K0                1431DES        000000000000 DENSO TEN (THAILAND)                                                                                                                                            *G         20201008 IMCT                IMCT                                                                                                                    WMF2010087.TXT
MAKK0O053506202010D3               89828070300P3YK20201019000090SPEAKER ASM                   M IMCTM CM1    TNTH  09020IMKDC KA PTB  00015  K0                1431DES        000000000000 DENSO TEN (THAILAND)                                                                                                                                            *G         20201008 IMCT                IMCT                                                                                                                    WMF2010087.TXT
MAKK0O053507202010D3               89828070300P3YK20201020000060SPEAKER ASM                   M IMCTM CM1    TNTH  09020IMKDC KA PTB  00015  K0                1431DES        000000000000 DENSO TEN (THAILAND)                                                                                                                                            *G         20201008 IMCT                IMCT                                                                                                                    WMF2010087.TXT
MAKK0O053508202010D3               89828070300P3YK20201021000060SPEAKER ASM                   M IMCTM CM1    TNTH  09020IMKDC KA PTB  00015  K0                1431DES        000000000000 DENSO TEN (THAILAND)                                                                                                                                            *G         20201008 IMCT                IMCT                                                                                                                    WMF2010087.TXT
MAKK0O053509202010D3               89828070300P3YK20201022000060SPEAKER ASM                   M IMCTM CM1    TNTH  09020IMKDC KA PTB  00015  K0                1431DES        000000000000 DENSO TEN (THAILAND)                                                                                                                                            *G         20201008 IMCT                IMCT                                                                                                                    WMF2010087.TXT
