REC2020111920201119ISUZU                              26     
MAKK0N096585202011D3               89825451200P3YK20201130000060SPEAKER ASM;ROOF              M IMCTM CM1    TNTH  09020IMKDC KA PTB  00036  K0                1431DES        000000000000 DENSO TEN (THAILAND)                                                                                                                                            *G         20201119 IMCT                IMCT                                                                                                                    WMF2011195.TXT
MAKK0N096586202011D3               89825451200P3YK20201201000030SPEAKER ASM;ROOF              M IMCTM CM1    TNTH  09020IMKDC KA PTB  00036  K0                1431DES        000000000000 DENSO TEN (THAILAND)                                                                                                                                            *G         20201119 IMCT                IMCT                                                                                                                    WMF2011195.TXT
MAKK0N096587202011D3               89825451200P3YK20201202000030SPEAKER ASM;ROOF              M IMCTM CM1    TNTH  09020IMKDC KA PTB  00036  K0                1431DES        000000000000 DENSO TEN (THAILAND)                                                                                                                                            *G         20201119 IMCT                IMCT                                                                                                                    WMF2011195.TXT
MAKK0N096588202011D3               89825451200P3YK20201203000030SPEAKER ASM;ROOF              M IMCTM CM1    TNTH  09020IMKDC KA PTB  00036  K0                1431DES        000000000000 DENSO TEN (THAILAND)                                                                                                                                            *G         20201119 IMCT                IMCT                                                                                                                    WMF2011195.TXT
MAKK0N096589202011D3               89828070100P3YK20201130000150SPEAKER ASM                   M IMCTM CM1    TNTH  09020IMKDC KA PTB  00004  K0                1431DES        000000000000 DENSO TEN (THAILAND)                                                                                                                                            *G         20201119 IMCT                IMCT                                                                                                                    WMF2011195.TXT
MAKK0N096590202011D3               89828070100P3YK20201201000150SPEAKER ASM                   M IMCTM CM1    TNTH  09020IMKDC KA PTB  00004  K0                1431DES        000000000000 DENSO TEN (THAILAND)                                                                                                                                            *G         20201119 IMCT                IMCT                                                                                                                    WMF2011195.TXT
MAKK0N096591202011D3               89828070100P3YK20201202000180SPEAKER ASM                   M IMCTM CM1    TNTH  09020IMKDC KA PTB  00004  K0                1431DES        000000000000 DENSO TEN (THAILAND)                                                                                                                                            *G         20201119 IMCT                IMCT                                                                                                                    WMF2011195.TXT
MAKK0N096592202011D3               89828070100P3YK20201203000120SPEAKER ASM                   M IMCTM CM1    TNTH  09020IMKDC KA PTB  00004  K0                1431DES        000000000000 DENSO TEN (THAILAND)                                                                                                                                            *G         20201119 IMCT                IMCT                                                                                                                    WMF2011195.TXT
MAKK0N096593202011D3               89828070100P3YK20201204000180SPEAKER ASM                   M IMCTM CM1    TNTH  09020IMKDC KA PTB  00004  K0                1431DES        000000000000 DENSO TEN (THAILAND)                                                                                                                                            *G         20201119 IMCT                IMCT                                                                                                                    WMF2011195.TXT
MAKK0N096594202011D3               89828070100P3YK20201205000150SPEAKER ASM                   M IMCTM CM1    TNTH  09020IMKDC KA PTB  00004  K0                1431DES        000000000000 DENSO TEN (THAILAND)                                                                                                                                            *G         20201119 IMCT                IMCT                                                                                                                    WMF2011195.TXT
MAKK0N096595202011D3               89828070200P3YK20201130000090SPEAKER ASM                   M IMCTM CM1    TNTH  09020IMKDC KA PTB  00005  K0                1431DES        000000000000 DENSO TEN (THAILAND)                                                                                                                                            *G         20201119 IMCT                IMCT                                                                                                                    WMF2011195.TXT
MAKK0N096596202011D3               89828070200P3YK20201201000090SPEAKER ASM                   M IMCTM CM1    TNTH  09020IMKDC KA PTB  00005  K0                1431DES        000000000000 DENSO TEN (THAILAND)                                                                                                                                            *G         20201119 IMCT                IMCT                                                                                                                    WMF2011195.TXT
MAKK0N096597202011D3               89828070200P3YK20201202000060SPEAKER ASM                   M IMCTM CM1    TNTH  09020IMKDC KA PTB  00005  K0                1431DES        000000000000 DENSO TEN (THAILAND)                                                                                                                                            *G         20201119 IMCT                IMCT                                                                                                                    WMF2011195.TXT
MAKK0N096598202011D3               89828070200P3YK20201203000060SPEAKER ASM                   M IMCTM CM1    TNTH  09020IMKDC KA PTB  00005  K0                1431DES        000000000000 DENSO TEN (THAILAND)                                                                                                                                            *G         20201119 IMCT                IMCT                                                                                                                    WMF2011195.TXT
MAKK0N096599202011D3               89828070200P3YK20201204000120SPEAKER ASM                   M IMCTM CM1    TNTH  09020IMKDC KA PTB  00005  K0                1431DES        000000000000 DENSO TEN (THAILAND)                                                                                                                                            *G         20201119 IMCT                IMCT                                                                                                                    WMF2011195.TXT
MAKK0N096600202011D3               89828070200P3YK20201205000060SPEAKER ASM                   M IMCTM CM1    TNTH  09020IMKDC KA PTB  00005  K0                1431DES        000000000000 DENSO TEN (THAILAND)                                                                                                                                            *G         20201119 IMCT                IMCT                                                                                                                    WMF2011195.TXT
MAKK0N096601202011D3               89828070300P3YK20201130000090SPEAKER ASM                   M IMCTM CM1    TNTH  09020IMKDC KA PTB  00015  K0                1431DES        000000000000 DENSO TEN (THAILAND)                                                                                                                                            *G         20201119 IMCT                IMCT                                                                                                                    WMF2011195.TXT
MAKK0N096602202011D3               89828070300P3YK20201201000120SPEAKER ASM                   M IMCTM CM1    TNTH  09020IMKDC KA PTB  00015  K0                1431DES        000000000000 DENSO TEN (THAILAND)                                                                                                                                            *G         20201119 IMCT                IMCT                                                                                                                    WMF2011195.TXT
MAKK0N096603202011D3               89828070300P3YK20201202000090SPEAKER ASM                   M IMCTM CM1    TNTH  09020IMKDC KA PTB  00015  K0                1431DES        000000000000 DENSO TEN (THAILAND)                                                                                                                                            *G         20201119 IMCT                IMCT                                                                                                                    WMF2011195.TXT
MAKK0N096604202011D3               89828070300P3YK20201203000060SPEAKER ASM                   M IMCTM CM1    TNTH  09020IMKDC KA PTB  00015  K0                1431DES        000000000000 DENSO TEN (THAILAND)                                                                                                                                            *G         20201119 IMCT                IMCT                                                                                                                    WMF2011195.TXT
MAKK0N096605202011D3               89828070300P3YK20201204000120SPEAKER ASM                   M IMCTM CM1    TNTH  09020IMKDC KA PTB  00015  K0                1431DES        000000000000 DENSO TEN (THAILAND)                                                                                                                                            *G         20201119 IMCT                IMCT                                                                                                                    WMF2011195.TXT
MAKK0N096606202011D3               89828070300P3YK20201205000060SPEAKER ASM                   M IMCTM CM1    TNTH  09020IMKDC KA PTB  00015  K0                1431DES        000000000000 DENSO TEN (THAILAND)                                                                                                                                            *G         20201119 IMCT                IMCT                                                                                                                    WMF2011195.TXT
MAKK0N096607202011D3               89831228410P3YK20201202000015RADIO;AM/FM,CD                M IMCTM CM1    TNTH  09020IMKDC KA   CPB00003  K0                1431DES        000000000000 DENSO TEN (THAILAND)                                                                                                                                            *G         20201119 IMCT                IMCT                                                                                                                    WMF2011195.TXT
MAKK0N101364202011D3               89828070100P3YK20201130000030SPEAKER ASM                   M IMCTM PK3    TNTH  09020IMKDC KA PTB  00004  K0                1431DES        000000000000 DENSO TEN (THAILAND)                                                                                                                                            *G         20201119 IMCT                IMCT                                                                                                                    WMF2011195.TXT
MAKK0N101365202011D3               89828070200P3YK20201130000030SPEAKER ASM                   M IMCTM PK3    TNTH  09020IMKDC KA PTB  00005  K0                1431DES        000000000000 DENSO TEN (THAILAND)                                                                                                                                            *G         20201119 IMCT                IMCT                                                                                                                    WMF2011195.TXT
MAKK0N101366202011D3               89828070300P3YK20201130000030SPEAKER ASM                   M IMCTM PK3    TNTH  09020IMKDC KA PTB  00015  K0                1431DES        000000000000 DENSO TEN (THAILAND)                                                                                                                                            *G         20201119 IMCT                IMCT                                                                                                                    WMF2011195.TXT
