REC2020111220201112ISUZU                              24     
MAKK0N079577202011D3               89825451200P3YK20201125000030SPEAKER ASM;ROOF              M IMCTM CM1    TNTH  09020IMKDC KA PTB  00036  K0                1431DES        000000000000 DENSO TEN (THAILAND)                                                                                                                                            *G         20201112 IMCT                IMCT                                                                                                                    WMF2011124.TXT
MAKK0N079578202011D3               89825451200P3YK20201127000030SPEAKER ASM;ROOF              M IMCTM CM1    TNTH  09020IMKDC KA PTB  00036  K0                1431DES        000000000000 DENSO TEN (THAILAND)                                                                                                                                            *G         20201112 IMCT                IMCT                                                                                                                    WMF2011124.TXT
MAKK0N079579202011D3               89825451200P3YK20201128000030SPEAKER ASM;ROOF              M IMCTM CM1    TNTH  09020IMKDC KA PTB  00036  K0                1431DES        000000000000 DENSO TEN (THAILAND)                                                                                                                                            *G         20201112 IMCT                IMCT                                                                                                                    WMF2011124.TXT
MAKK0N079580202011D3               89828070100P3YK20201123000180SPEAKER ASM                   M IMCTM CM1    TNTH  09020IMKDC KA PTB  00004  K0                1431DES        000000000000 DENSO TEN (THAILAND)                                                                                                                                            *G         20201112 IMCT                IMCT                                                                                                                    WMF2011124.TXT
MAKK0N079581202011D3               89828070100P3YK20201124000150SPEAKER ASM                   M IMCTM CM1    TNTH  09020IMKDC KA PTB  00004  K0                1431DES        000000000000 DENSO TEN (THAILAND)                                                                                                                                            *G         20201112 IMCT                IMCT                                                                                                                    WMF2011124.TXT
MAKK0N079582202011D3               89828070100P3YK20201125000150SPEAKER ASM                   M IMCTM CM1    TNTH  09020IMKDC KA PTB  00004  K0                1431DES        000000000000 DENSO TEN (THAILAND)                                                                                                                                            *G         20201112 IMCT                IMCT                                                                                                                    WMF2011124.TXT
MAKK0N079583202011D3               89828070100P3YK20201126000180SPEAKER ASM                   M IMCTM CM1    TNTH  09020IMKDC KA PTB  00004  K0                1431DES        000000000000 DENSO TEN (THAILAND)                                                                                                                                            *G         20201112 IMCT                IMCT                                                                                                                    WMF2011124.TXT
MAKK0N079584202011D3               89828070100P3YK20201127000180SPEAKER ASM                   M IMCTM CM1    TNTH  09020IMKDC KA PTB  00004  K0                1431DES        000000000000 DENSO TEN (THAILAND)                                                                                                                                            *G         20201112 IMCT                IMCT                                                                                                                    WMF2011124.TXT
MAKK0N079585202011D3               89828070100P3YK20201128000120SPEAKER ASM                   M IMCTM CM1    TNTH  09020IMKDC KA PTB  00004  K0                1431DES        000000000000 DENSO TEN (THAILAND)                                                                                                                                            *G         20201112 IMCT                IMCT                                                                                                                    WMF2011124.TXT
MAKK0N079586202011D3               89828070200P3YK20201123000060SPEAKER ASM                   M IMCTM CM1    TNTH  09020IMKDC KA PTB  00005  K0                1431DES        000000000000 DENSO TEN (THAILAND)                                                                                                                                            *G         20201112 IMCT                IMCT                                                                                                                    WMF2011124.TXT
MAKK0N079587202011D3               89828070200P3YK20201124000060SPEAKER ASM                   M IMCTM CM1    TNTH  09020IMKDC KA PTB  00005  K0                1431DES        000000000000 DENSO TEN (THAILAND)                                                                                                                                            *G         20201112 IMCT                IMCT                                                                                                                    WMF2011124.TXT
MAKK0N079588202011D3               89828070200P3YK20201125000060SPEAKER ASM                   M IMCTM CM1    TNTH  09020IMKDC KA PTB  00005  K0                1431DES        000000000000 DENSO TEN (THAILAND)                                                                                                                                            *G         20201112 IMCT                IMCT                                                                                                                    WMF2011124.TXT
MAKK0N079589202011D3               89828070200P3YK20201126000060SPEAKER ASM                   M IMCTM CM1    TNTH  09020IMKDC KA PTB  00005  K0                1431DES        000000000000 DENSO TEN (THAILAND)                                                                                                                                            *G         20201112 IMCT                IMCT                                                                                                                    WMF2011124.TXT
MAKK0N079590202011D3               89828070200P3YK20201127000090SPEAKER ASM                   M IMCTM CM1    TNTH  09020IMKDC KA PTB  00005  K0                1431DES        000000000000 DENSO TEN (THAILAND)                                                                                                                                            *G         20201112 IMCT                IMCT                                                                                                                    WMF2011124.TXT
MAKK0N079591202011D3               89828070200P3YK20201128000030SPEAKER ASM                   M IMCTM CM1    TNTH  09020IMKDC KA PTB  00005  K0                1431DES        000000000000 DENSO TEN (THAILAND)                                                                                                                                            *G         20201112 IMCT                IMCT                                                                                                                    WMF2011124.TXT
MAKK0N079592202011D3               89828070300P3YK20201123000120SPEAKER ASM                   M IMCTM CM1    TNTH  09020IMKDC KA PTB  00015  K0                1431DES        000000000000 DENSO TEN (THAILAND)                                                                                                                                            *G         20201112 IMCT                IMCT                                                                                                                    WMF2011124.TXT
MAKK0N079593202011D3               89828070300P3YK20201124000060SPEAKER ASM                   M IMCTM CM1    TNTH  09020IMKDC KA PTB  00015  K0                1431DES        000000000000 DENSO TEN (THAILAND)                                                                                                                                            *G         20201112 IMCT                IMCT                                                                                                                    WMF2011124.TXT
MAKK0N079594202011D3               89828070300P3YK20201125000120SPEAKER ASM                   M IMCTM CM1    TNTH  09020IMKDC KA PTB  00015  K0                1431DES        000000000000 DENSO TEN (THAILAND)                                                                                                                                            *G         20201112 IMCT                IMCT                                                                                                                    WMF2011124.TXT
MAKK0N079595202011D3               89828070300P3YK20201126000090SPEAKER ASM                   M IMCTM CM1    TNTH  09020IMKDC KA PTB  00015  K0                1431DES        000000000000 DENSO TEN (THAILAND)                                                                                                                                            *G         20201112 IMCT                IMCT                                                                                                                    WMF2011124.TXT
MAKK0N079596202011D3               89828070300P3YK20201127000090SPEAKER ASM                   M IMCTM CM1    TNTH  09020IMKDC KA PTB  00015  K0                1431DES        000000000000 DENSO TEN (THAILAND)                                                                                                                                            *G         20201112 IMCT                IMCT                                                                                                                    WMF2011124.TXT
MAKK0N079597202011D3               89828070300P3YK20201128000060SPEAKER ASM                   M IMCTM CM1    TNTH  09020IMKDC KA PTB  00015  K0                1431DES        000000000000 DENSO TEN (THAILAND)                                                                                                                                            *G         20201112 IMCT                IMCT                                                                                                                    WMF2011124.TXT
MAKK0N079598202011D3               89831228410P3YK20201125000015RADIO;AM/FM,CD                M IMCTM CM1    TNTH  09020IMKDC KA   CPB00003  K0                1431DES        000000000000 DENSO TEN (THAILAND)                                                                                                                                            *G         20201112 IMCT                IMCT                                                                                                                    WMF2011124.TXT
MAKK0N083813202011D3               89828070100P3YK20201124000030SPEAKER ASM                   M IMCTM PK3    TNTH  09020IMKDC KA PTB  00004  K0                1431DES        000000000000 DENSO TEN (THAILAND)                                                                                                                                            *G         20201112 IMCT                IMCT                                                                                                                    WMF2011124.TXT
MAKK0N083814202011D3               89828070200P3YK20201124000030SPEAKER ASM                   M IMCTM PK3    TNTH  09020IMKDC KA PTB  00005  K0                1431DES        000000000000 DENSO TEN (THAILAND)                                                                                                                                            *G         20201112 IMCT                IMCT                                                                                                                    WMF2011124.TXT
