REC2020110520201105ISUZU                              24     
MAKK0N064119202011D3               89825451200P3YK20201117000030SPEAKER ASM;ROOF              M IMCTM CM1    TNTH  09020IMKDC KA PTB  00036  K0                1431DES        000000000000 DENSO TEN (THAILAND)                                                                                                                                            *G         20201105 IMCT                IMCT                                                                                                                    WMF2011057.TXT
MAKK0N064120202011D3               89825451200P3YK20201120000030SPEAKER ASM;ROOF              M IMCTM CM1    TNTH  09020IMKDC KA PTB  00036  K0                1431DES        000000000000 DENSO TEN (THAILAND)                                                                                                                                            *G         20201105 IMCT                IMCT                                                                                                                    WMF2011057.TXT
MAKK0N064121202011D3               89825451200P3YK20201121000030SPEAKER ASM;ROOF              M IMCTM CM1    TNTH  09020IMKDC KA PTB  00036  K0                1431DES        000000000000 DENSO TEN (THAILAND)                                                                                                                                            *G         20201105 IMCT                IMCT                                                                                                                    WMF2011057.TXT
MAKK0N064122202011D3               89828070100P3YK20201116000180SPEAKER ASM                   M IMCTM CM1    TNTH  09020IMKDC KA PTB  00004  K0                1431DES        000000000000 DENSO TEN (THAILAND)                                                                                                                                            *G         20201105 IMCT                IMCT                                                                                                                    WMF2011057.TXT
MAKK0N064123202011D3               89828070100P3YK20201117000210SPEAKER ASM                   M IMCTM CM1    TNTH  09020IMKDC KA PTB  00004  K0                1431DES        000000000000 DENSO TEN (THAILAND)                                                                                                                                            *G         20201105 IMCT                IMCT                                                                                                                    WMF2011057.TXT
MAKK0N064124202011D3               89828070100P3YK20201118000120SPEAKER ASM                   M IMCTM CM1    TNTH  09020IMKDC KA PTB  00004  K0                1431DES        000000000000 DENSO TEN (THAILAND)                                                                                                                                            *G         20201105 IMCT                IMCT                                                                                                                    WMF2011057.TXT
MAKK0N064125202011D3               89828070100P3YK20201119000180SPEAKER ASM                   M IMCTM CM1    TNTH  09020IMKDC KA PTB  00004  K0                1431DES        000000000000 DENSO TEN (THAILAND)                                                                                                                                            *G         20201105 IMCT                IMCT                                                                                                                    WMF2011057.TXT
MAKK0N064126202011D3               89828070100P3YK20201120000300SPEAKER ASM                   M IMCTM CM1    TNTH  09020IMKDC KA PTB  00004  K0                1431DES        000000000000 DENSO TEN (THAILAND)                                                                                                                                            *G         20201105 IMCT                IMCT                                                                                                                    WMF2011057.TXT
MAKK0N064127202011D3               89828070100P3YK20201121000210SPEAKER ASM                   M IMCTM CM1    TNTH  09020IMKDC KA PTB  00004  K0                1431DES        000000000000 DENSO TEN (THAILAND)                                                                                                                                            *G         20201105 IMCT                IMCT                                                                                                                    WMF2011057.TXT
MAKK0N064128202011D3               89828070200P3YK20201116000060SPEAKER ASM                   M IMCTM CM1    TNTH  09020IMKDC KA PTB  00005  K0                1431DES        000000000000 DENSO TEN (THAILAND)                                                                                                                                            *G         20201105 IMCT                IMCT                                                                                                                    WMF2011057.TXT
MAKK0N064129202011D3               89828070200P3YK20201117000090SPEAKER ASM                   M IMCTM CM1    TNTH  09020IMKDC KA PTB  00005  K0                1431DES        000000000000 DENSO TEN (THAILAND)                                                                                                                                            *G         20201105 IMCT                IMCT                                                                                                                    WMF2011057.TXT
MAKK0N064130202011D3               89828070200P3YK20201118000090SPEAKER ASM                   M IMCTM CM1    TNTH  09020IMKDC KA PTB  00005  K0                1431DES        000000000000 DENSO TEN (THAILAND)                                                                                                                                            *G         20201105 IMCT                IMCT                                                                                                                    WMF2011057.TXT
MAKK0N064131202011D3               89828070200P3YK20201119000090SPEAKER ASM                   M IMCTM CM1    TNTH  09020IMKDC KA PTB  00005  K0                1431DES        000000000000 DENSO TEN (THAILAND)                                                                                                                                            *G         20201105 IMCT                IMCT                                                                                                                    WMF2011057.TXT
MAKK0N064132202011D3               89828070200P3YK20201120000030SPEAKER ASM                   M IMCTM CM1    TNTH  09020IMKDC KA PTB  00005  K0                1431DES        000000000000 DENSO TEN (THAILAND)                                                                                                                                            *G         20201105 IMCT                IMCT                                                                                                                    WMF2011057.TXT
MAKK0N064133202011D3               89828070200P3YK20201121000060SPEAKER ASM                   M IMCTM CM1    TNTH  09020IMKDC KA PTB  00005  K0                1431DES        000000000000 DENSO TEN (THAILAND)                                                                                                                                            *G         20201105 IMCT                IMCT                                                                                                                    WMF2011057.TXT
MAKK0N064134202011D3               89828070300P3YK20201116000060SPEAKER ASM                   M IMCTM CM1    TNTH  09020IMKDC KA PTB  00015  K0                1431DES        000000000000 DENSO TEN (THAILAND)                                                                                                                                            *G         20201105 IMCT                IMCT                                                                                                                    WMF2011057.TXT
MAKK0N064135202011D3               89828070300P3YK20201117000090SPEAKER ASM                   M IMCTM CM1    TNTH  09020IMKDC KA PTB  00015  K0                1431DES        000000000000 DENSO TEN (THAILAND)                                                                                                                                            *G         20201105 IMCT                IMCT                                                                                                                    WMF2011057.TXT
MAKK0N064136202011D3               89828070300P3YK20201118000090SPEAKER ASM                   M IMCTM CM1    TNTH  09020IMKDC KA PTB  00015  K0                1431DES        000000000000 DENSO TEN (THAILAND)                                                                                                                                            *G         20201105 IMCT                IMCT                                                                                                                    WMF2011057.TXT
MAKK0N064137202011D3               89828070300P3YK20201119000090SPEAKER ASM                   M IMCTM CM1    TNTH  09020IMKDC KA PTB  00015  K0                1431DES        000000000000 DENSO TEN (THAILAND)                                                                                                                                            *G         20201105 IMCT                IMCT                                                                                                                    WMF2011057.TXT
MAKK0N064138202011D3               89828070300P3YK20201120000060SPEAKER ASM                   M IMCTM CM1    TNTH  09020IMKDC KA PTB  00015  K0                1431DES        000000000000 DENSO TEN (THAILAND)                                                                                                                                            *G         20201105 IMCT                IMCT                                                                                                                    WMF2011057.TXT
MAKK0N064139202011D3               89828070300P3YK20201121000090SPEAKER ASM                   M IMCTM CM1    TNTH  09020IMKDC KA PTB  00015  K0                1431DES        000000000000 DENSO TEN (THAILAND)                                                                                                                                            *G         20201105 IMCT                IMCT                                                                                                                    WMF2011057.TXT
MAKK0N068077202011D3               89828070100P3YK20201117000030SPEAKER ASM                   M IMCTM PK3    TNTH  09020IMKDC KA PTB  00004  K0                1431DES        000000000000 DENSO TEN (THAILAND)                                                                                                                                            *G         20201105 IMCT                IMCT                                                                                                                    WMF2011057.TXT
MAKK0N068078202011D3               89828070200P3YK20201117000030SPEAKER ASM                   M IMCTM PK3    TNTH  09020IMKDC KA PTB  00005  K0                1431DES        000000000000 DENSO TEN (THAILAND)                                                                                                                                            *G         20201105 IMCT                IMCT                                                                                                                    WMF2011057.TXT
MAKK0N068079202011D3               89828070300P3YK20201117000030SPEAKER ASM                   M IMCTM PK3    TNTH  09020IMKDC KA PTB  00015  K0                1431DES        000000000000 DENSO TEN (THAILAND)                                                                                                                                            *G         20201105 IMCT                IMCT                                                                                                                    WMF2011057.TXT
