REC2020121120201211ISUZU                              20     
MAKK0D038490202012D3               89825451200P3YK20201222000030SPEAKER ASM;ROOF              M IMCTM CM1    TNTH  09020IMKDC KA PTB  00036  K0                1431DES        000000000000 DENSO TEN (THAILAND)                                                                                                                                            *G         20201211 IMCT                IMCT                                                                                                                    WMF2012115.TXT
MAKK0D038491202012D3               89825451200P3YK20201223000030SPEAKER ASM;ROOF              M IMCTM CM1    TNTH  09020IMKDC KA PTB  00036  K0                1431DES        000000000000 DENSO TEN (THAILAND)                                                                                                                                            *G         20201211 IMCT                IMCT                                                                                                                    WMF2012115.TXT
MAKK0D038492202012D3               89828070100P3YK20201221000210SPEAKER ASM                   M IMCTM CM1    TNTH  09020IMKDC KA PTB  00004  K0                1431DES        000000000000 DENSO TEN (THAILAND)                                                                                                                                            *G         20201211 IMCT                IMCT                                                                                                                    WMF2012115.TXT
MAKK0D038493202012D3               89828070100P3YK20201222000270SPEAKER ASM                   M IMCTM CM1    TNTH  09020IMKDC KA PTB  00004  K0                1431DES        000000000000 DENSO TEN (THAILAND)                                                                                                                                            *G         20201211 IMCT                IMCT                                                                                                                    WMF2012115.TXT
MAKK0D038494202012D3               89828070100P3YK20201223000240SPEAKER ASM                   M IMCTM CM1    TNTH  09020IMKDC KA PTB  00004  K0                1431DES        000000000000 DENSO TEN (THAILAND)                                                                                                                                            *G         20201211 IMCT                IMCT                                                                                                                    WMF2012115.TXT
MAKK0D038495202012D3               89828070100P3YK20201224000210SPEAKER ASM                   M IMCTM CM1    TNTH  09020IMKDC KA PTB  00004  K0                1431DES        000000000000 DENSO TEN (THAILAND)                                                                                                                                            *G         20201211 IMCT                IMCT                                                                                                                    WMF2012115.TXT
MAKK0D038496202012D3               89828070100P3YK20201225000180SPEAKER ASM                   M IMCTM CM1    TNTH  09020IMKDC KA PTB  00004  K0                1431DES        000000000000 DENSO TEN (THAILAND)                                                                                                                                            *G         20201211 IMCT                IMCT                                                                                                                    WMF2012115.TXT
MAKK0D038497202012D3               89828070200P3YK20201221000120SPEAKER ASM                   M IMCTM CM1    TNTH  09020IMKDC KA PTB  00005  K0                1431DES        000000000000 DENSO TEN (THAILAND)                                                                                                                                            *G         20201211 IMCT                IMCT                                                                                                                    WMF2012115.TXT
MAKK0D038498202012D3               89828070200P3YK20201222000090SPEAKER ASM                   M IMCTM CM1    TNTH  09020IMKDC KA PTB  00005  K0                1431DES        000000000000 DENSO TEN (THAILAND)                                                                                                                                            *G         20201211 IMCT                IMCT                                                                                                                    WMF2012115.TXT
MAKK0D038499202012D3               89828070200P3YK20201223000060SPEAKER ASM                   M IMCTM CM1    TNTH  09020IMKDC KA PTB  00005  K0                1431DES        000000000000 DENSO TEN (THAILAND)                                                                                                                                            *G         20201211 IMCT                IMCT                                                                                                                    WMF2012115.TXT
MAKK0D038500202012D3               89828070200P3YK20201224000120SPEAKER ASM                   M IMCTM CM1    TNTH  09020IMKDC KA PTB  00005  K0                1431DES        000000000000 DENSO TEN (THAILAND)                                                                                                                                            *G         20201211 IMCT                IMCT                                                                                                                    WMF2012115.TXT
MAKK0D038501202012D3               89828070200P3YK20201225000030SPEAKER ASM                   M IMCTM CM1    TNTH  09020IMKDC KA PTB  00005  K0                1431DES        000000000000 DENSO TEN (THAILAND)                                                                                                                                            *G         20201211 IMCT                IMCT                                                                                                                    WMF2012115.TXT
MAKK0D038502202012D3               89828070300P3YK20201221000120SPEAKER ASM                   M IMCTM CM1    TNTH  09020IMKDC KA PTB  00015  K0                1431DES        000000000000 DENSO TEN (THAILAND)                                                                                                                                            *G         20201211 IMCT                IMCT                                                                                                                    WMF2012115.TXT
MAKK0D038503202012D3               89828070300P3YK20201222000120SPEAKER ASM                   M IMCTM CM1    TNTH  09020IMKDC KA PTB  00015  K0                1431DES        000000000000 DENSO TEN (THAILAND)                                                                                                                                            *G         20201211 IMCT                IMCT                                                                                                                    WMF2012115.TXT
MAKK0D038504202012D3               89828070300P3YK20201223000090SPEAKER ASM                   M IMCTM CM1    TNTH  09020IMKDC KA PTB  00015  K0                1431DES        000000000000 DENSO TEN (THAILAND)                                                                                                                                            *G         20201211 IMCT                IMCT                                                                                                                    WMF2012115.TXT
MAKK0D038505202012D3               89828070300P3YK20201224000150SPEAKER ASM                   M IMCTM CM1    TNTH  09020IMKDC KA PTB  00015  K0                1431DES        000000000000 DENSO TEN (THAILAND)                                                                                                                                            *G         20201211 IMCT                IMCT                                                                                                                    WMF2012115.TXT
MAKK0D038506202012D3               89828070300P3YK20201225000030SPEAKER ASM                   M IMCTM CM1    TNTH  09020IMKDC KA PTB  00015  K0                1431DES        000000000000 DENSO TEN (THAILAND)                                                                                                                                            *G         20201211 IMCT                IMCT                                                                                                                    WMF2012115.TXT
MAKK0D038507202012D3               89831228410P3YK20201221000015RADIO;AM/FM,CD                M IMCTM CM1    TNTH  09020IMKDC KA   CPB00003  K0                1431DES        000000000000 DENSO TEN (THAILAND)                                                                                                                                            *G         20201211 IMCT                IMCT                                                                                                                    WMF2012115.TXT
MAKK0D042069202012D3               89828070100P3YK20201221000030SPEAKER ASM                   M IMCTM PK3    TNTH  09020IMKDC KA PTB  00004  K0                1431DES        000000000000 DENSO TEN (THAILAND)                                                                                                                                            *G         20201211 IMCT                IMCT                                                                                                                    WMF2012115.TXT
MAKK0D042070202012D3               89828070200P3YK20201221000030SPEAKER ASM                   M IMCTM PK3    TNTH  09020IMKDC KA PTB  00005  K0                1431DES        000000000000 DENSO TEN (THAILAND)                                                                                                                                            *G         20201211 IMCT                IMCT                                                                                                                    WMF2012115.TXT
