REC2020122420201224ISUZU                              45     
MAKK0D086887202012N3               89825451200P3YK20210112000030SPEAKER ASM;ROOF              M IMCTM CM1    TNTH  09020IMKDC KA PTB  00036  K0                0231NES        000000000000 DENSO TEN (THAILAND)                                                                                                                                            *G         20201224 IMCT                IMCT                                                                                                                    WMF2012247.TXT
MAKK0D086888202012D3               89825451200P3YK20210113000030SPEAKER ASM;ROOF              M IMCTM CM1    TNTH  09020IMKDC KA PTB  00036  K0                1431DES        000000000000 DENSO TEN (THAILAND)                                                                                                                                            *G         20201224 IMCT                IMCT                                                                                                                    WMF2012247.TXT
MAKK0D086889202012D3               89825451200P3YK20210114000030SPEAKER ASM;ROOF              M IMCTM CM1    TNTH  09020IMKDC KA PTB  00036  K0                1431DES        000000000000 DENSO TEN (THAILAND)                                                                                                                                            *G         20201224 IMCT                IMCT                                                                                                                    WMF2012247.TXT
MAKK0D086890202012D3               89825451200P3YK20210115000030SPEAKER ASM;ROOF              M IMCTM CM1    TNTH  09020IMKDC KA PTB  00036  K0                1431DES        000000000000 DENSO TEN (THAILAND)                                                                                                                                            *G         20201224 IMCT                IMCT                                                                                                                    WMF2012247.TXT
MAKK0D086891202012N3               89825451200P3YK20210117000030SPEAKER ASM;ROOF              M IMCTM CM1    TNTH  09020IMKDC KA PTB  00036  K0                0231NES        000000000000 DENSO TEN (THAILAND)                                                                                                                                            *G         20201224 IMCT                IMCT                                                                                                                    WMF2012247.TXT
MAKK0D086892202012D3               89828070100P3YK20210111000060SPEAKER ASM                   M IMCTM CM1    TNTH  09020IMKDC KA PTB  00004  K0                1431DES        000000000000 DENSO TEN (THAILAND)                                                                                                                                            *G         20201224 IMCT                IMCT                                                                                                                    WMF2012247.TXT
MAKK0D086893202012N3               89828070100P3YK20210112000090SPEAKER ASM                   M IMCTM CM1    TNTH  09020IMKDC KA PTB  00004  K0                0231NES        000000000000 DENSO TEN (THAILAND)                                                                                                                                            *G         20201224 IMCT                IMCT                                                                                                                    WMF2012247.TXT
MAKK0D086894202012D3               89828070100P3YK20210112000030SPEAKER ASM                   M IMCTM CM1    TNTH  09020IMKDC KA PTB  00004  K0                1431DES        000000000000 DENSO TEN (THAILAND)                                                                                                                                            *G         20201224 IMCT                IMCT                                                                                                                    WMF2012247.TXT
MAKK0D086895202012N3               89828070100P3YK20210113000090SPEAKER ASM                   M IMCTM CM1    TNTH  09020IMKDC KA PTB  00004  K0                0231NES        000000000000 DENSO TEN (THAILAND)                                                                                                                                            *G         20201224 IMCT                IMCT                                                                                                                    WMF2012247.TXT
MAKK0D086896202012D3               89828070100P3YK20210113000060SPEAKER ASM                   M IMCTM CM1    TNTH  09020IMKDC KA PTB  00004  K0                1431DES        000000000000 DENSO TEN (THAILAND)                                                                                                                                            *G         20201224 IMCT                IMCT                                                                                                                    WMF2012247.TXT
MAKK0D086897202012N3               89828070100P3YK20210114000090SPEAKER ASM                   M IMCTM CM1    TNTH  09020IMKDC KA PTB  00004  K0                0231NES        000000000000 DENSO TEN (THAILAND)                                                                                                                                            *G         20201224 IMCT                IMCT                                                                                                                    WMF2012247.TXT
MAKK0D086898202012D3               89828070100P3YK20210114000060SPEAKER ASM                   M IMCTM CM1    TNTH  09020IMKDC KA PTB  00004  K0                1431DES        000000000000 DENSO TEN (THAILAND)                                                                                                                                            *G         20201224 IMCT                IMCT                                                                                                                    WMF2012247.TXT
MAKK0D086899202012N3               89828070100P3YK20210115000090SPEAKER ASM                   M IMCTM CM1    TNTH  09020IMKDC KA PTB  00004  K0                0231NES        000000000000 DENSO TEN (THAILAND)                                                                                                                                            *G         20201224 IMCT                IMCT                                                                                                                    WMF2012247.TXT
MAKK0D086900202012D3               89828070100P3YK20210115000060SPEAKER ASM                   M IMCTM CM1    TNTH  09020IMKDC KA PTB  00004  K0                1431DES        000000000000 DENSO TEN (THAILAND)                                                                                                                                            *G         20201224 IMCT                IMCT                                                                                                                    WMF2012247.TXT
MAKK0D086901202012N3               89828070100P3YK20210116000120SPEAKER ASM                   M IMCTM CM1    TNTH  09020IMKDC KA PTB  00004  K0                0231NES        000000000000 DENSO TEN (THAILAND)                                                                                                                                            *G         20201224 IMCT                IMCT                                                                                                                    WMF2012247.TXT
MAKK0D086902202012D3               89828070100P3YK20210116000060SPEAKER ASM                   M IMCTM CM1    TNTH  09020IMKDC KA PTB  00004  K0                1431DES        000000000000 DENSO TEN (THAILAND)                                                                                                                                            *G         20201224 IMCT                IMCT                                                                                                                    WMF2012247.TXT
MAKK0D086903202012N3               89828070100P3YK20210117000090SPEAKER ASM                   M IMCTM CM1    TNTH  09020IMKDC KA PTB  00004  K0                0231NES        000000000000 DENSO TEN (THAILAND)                                                                                                                                            *G         20201224 IMCT                IMCT                                                                                                                    WMF2012247.TXT
MAKK0D086904202012D3               89828070200P3YK20210111000030SPEAKER ASM                   M IMCTM CM1    TNTH  09020IMKDC KA PTB  00005  K0                1431DES        000000000000 DENSO TEN (THAILAND)                                                                                                                                            *G         20201224 IMCT                IMCT                                                                                                                    WMF2012247.TXT
MAKK0D086905202012N3               89828070200P3YK20210112000090SPEAKER ASM                   M IMCTM CM1    TNTH  09020IMKDC KA PTB  00005  K0                0231NES        000000000000 DENSO TEN (THAILAND)                                                                                                                                            *G         20201224 IMCT                IMCT                                                                                                                    WMF2012247.TXT
MAKK0D086906202012N3               89828070200P3YK20210113000060SPEAKER ASM                   M IMCTM CM1    TNTH  09020IMKDC KA PTB  00005  K0                0231NES        000000000000 DENSO TEN (THAILAND)                                                                                                                                            *G         20201224 IMCT                IMCT                                                                                                                    WMF2012247.TXT
MAKK0D086907202012D3               89828070200P3YK20210113000060SPEAKER ASM                   M IMCTM CM1    TNTH  09020IMKDC KA PTB  00005  K0                1431DES        000000000000 DENSO TEN (THAILAND)                                                                                                                                            *G         20201224 IMCT                IMCT                                                                                                                    WMF2012247.TXT
MAKK0D086908202012D3               89828070200P3YK20210114000030SPEAKER ASM                   M IMCTM CM1    TNTH  09020IMKDC KA PTB  00005  K0                1431DES        000000000000 DENSO TEN (THAILAND)                                                                                                                                            *G         20201224 IMCT                IMCT                                                                                                                    WMF2012247.TXT
MAKK0D086909202012N3               89828070200P3YK20210115000090SPEAKER ASM                   M IMCTM CM1    TNTH  09020IMKDC KA PTB  00005  K0                0231NES        000000000000 DENSO TEN (THAILAND)                                                                                                                                            *G         20201224 IMCT                IMCT                                                                                                                    WMF2012247.TXT
MAKK0D086910202012D3               89828070200P3YK20210115000030SPEAKER ASM                   M IMCTM CM1    TNTH  09020IMKDC KA PTB  00005  K0                1431DES        000000000000 DENSO TEN (THAILAND)                                                                                                                                            *G         20201224 IMCT                IMCT                                                                                                                    WMF2012247.TXT
MAKK0D086911202012N3               89828070200P3YK20210116000030SPEAKER ASM                   M IMCTM CM1    TNTH  09020IMKDC KA PTB  00005  K0                0231NES        000000000000 DENSO TEN (THAILAND)                                                                                                                                            *G         20201224 IMCT                IMCT                                                                                                                    WMF2012247.TXT
MAKK0D086912202012D3               89828070200P3YK20210116000030SPEAKER ASM                   M IMCTM CM1    TNTH  09020IMKDC KA PTB  00005  K0                1431DES        000000000000 DENSO TEN (THAILAND)                                                                                                                                            *G         20201224 IMCT                IMCT                                                                                                                    WMF2012247.TXT
MAKK0D086913202012N3               89828070200P3YK20210117000030SPEAKER ASM                   M IMCTM CM1    TNTH  09020IMKDC KA PTB  00005  K0                0231NES        000000000000 DENSO TEN (THAILAND)                                                                                                                                            *G         20201224 IMCT                IMCT                                                                                                                    WMF2012247.TXT
MAKK0D086914202012D3               89828070300P3YK20210111000030SPEAKER ASM                   M IMCTM CM1    TNTH  09020IMKDC KA PTB  00015  K0                1431DES        000000000000 DENSO TEN (THAILAND)                                                                                                                                            *G         20201224 IMCT                IMCT                                                                                                                    WMF2012247.TXT
MAKK0D086915202012N3               89828070300P3YK20210112000090SPEAKER ASM                   M IMCTM CM1    TNTH  09020IMKDC KA PTB  00015  K0                0231NES        000000000000 DENSO TEN (THAILAND)                                                                                                                                            *G         20201224 IMCT                IMCT                                                                                                                    WMF2012247.TXT
MAKK0D086916202012D3               89828070300P3YK20210112000030SPEAKER ASM                   M IMCTM CM1    TNTH  09020IMKDC KA PTB  00015  K0                1431DES        000000000000 DENSO TEN (THAILAND)                                                                                                                                            *G         20201224 IMCT                IMCT                                                                                                                    WMF2012247.TXT
MAKK0D086917202012N3               89828070300P3YK20210113000060SPEAKER ASM                   M IMCTM CM1    TNTH  09020IMKDC KA PTB  00015  K0                0231NES        000000000000 DENSO TEN (THAILAND)                                                                                                                                            *G         20201224 IMCT                IMCT                                                                                                                    WMF2012247.TXT
MAKK0D086918202012D3               89828070300P3YK20210113000060SPEAKER ASM                   M IMCTM CM1    TNTH  09020IMKDC KA PTB  00015  K0                1431DES        000000000000 DENSO TEN (THAILAND)                                                                                                                                            *G         20201224 IMCT                IMCT                                                                                                                    WMF2012247.TXT
MAKK0D086919202012D3               89828070300P3YK20210114000030SPEAKER ASM                   M IMCTM CM1    TNTH  09020IMKDC KA PTB  00015  K0                1431DES        000000000000 DENSO TEN (THAILAND)                                                                                                                                            *G         20201224 IMCT                IMCT                                                                                                                    WMF2012247.TXT
MAKK0D086920202012N3               89828070300P3YK20210115000090SPEAKER ASM                   M IMCTM CM1    TNTH  09020IMKDC KA PTB  00015  K0                0231NES        000000000000 DENSO TEN (THAILAND)                                                                                                                                            *G         20201224 IMCT                IMCT                                                                                                                    WMF2012247.TXT
MAKK0D086921202012D3               89828070300P3YK20210115000030SPEAKER ASM                   M IMCTM CM1    TNTH  09020IMKDC KA PTB  00015  K0                1431DES        000000000000 DENSO TEN (THAILAND)                                                                                                                                            *G         20201224 IMCT                IMCT                                                                                                                    WMF2012247.TXT
MAKK0D086922202012N3               89828070300P3YK20210116000060SPEAKER ASM                   M IMCTM CM1    TNTH  09020IMKDC KA PTB  00015  K0                0231NES        000000000000 DENSO TEN (THAILAND)                                                                                                                                            *G         20201224 IMCT                IMCT                                                                                                                    WMF2012247.TXT
MAKK0D086923202012D3               89828070300P3YK20210116000030SPEAKER ASM                   M IMCTM CM1    TNTH  09020IMKDC KA PTB  00015  K0                1431DES        000000000000 DENSO TEN (THAILAND)                                                                                                                                            *G         20201224 IMCT                IMCT                                                                                                                    WMF2012247.TXT
MAKK0D086924202012N3               89828070300P3YK20210117000030SPEAKER ASM                   M IMCTM CM1    TNTH  09020IMKDC KA PTB  00015  K0                0231NES        000000000000 DENSO TEN (THAILAND)                                                                                                                                            *G         20201224 IMCT                IMCT                                                                                                                    WMF2012247.TXT
MAKK0D086925202012D3               89831228410P3YK20210112000015RADIO;AM/FM,CD                M IMCTM CM1    TNTH  09020IMKDC KA   CPB00003  K0                1431DES        000000000000 DENSO TEN (THAILAND)                                                                                                                                            *G         20201224 IMCT                IMCT                                                                                                                    WMF2012247.TXT
MAKK0D086926202012N3               89831228410P3YK20210113000015RADIO;AM/FM,CD                M IMCTM CM1    TNTH  09020IMKDC KA   CPB00003  K0                0231NES        000000000000 DENSO TEN (THAILAND)                                                                                                                                            *G         20201224 IMCT                IMCT                                                                                                                    WMF2012247.TXT
MAKK0D086927202012N3               89831228410P3YK20210114000015RADIO;AM/FM,CD                M IMCTM CM1    TNTH  09020IMKDC KA   CPB00003  K0                0231NES        000000000000 DENSO TEN (THAILAND)                                                                                                                                            *G         20201224 IMCT                IMCT                                                                                                                    WMF2012247.TXT
MAKK0D086928202012D3               89831228410P3YK20210116000015RADIO;AM/FM,CD                M IMCTM CM1    TNTH  09020IMKDC KA   CPB00003  K0                1431DES        000000000000 DENSO TEN (THAILAND)                                                                                                                                            *G         20201224 IMCT                IMCT                                                                                                                    WMF2012247.TXT
MAKK0D094267202012D3               89828070100P3YK20210111000030SPEAKER ASM                   M IMCTM PK3    TNTH  09020IMKDC KA PTB  00004  K0                1431DES        000000000000 DENSO TEN (THAILAND)                                                                                                                                            *G         20201224 IMCT                IMCT                                                                                                                    WMF2012247.TXT
MAKK0D094268202012D3               89828070200P3YK20210111000030SPEAKER ASM                   M IMCTM PK3    TNTH  09020IMKDC KA PTB  00005  K0                1431DES        000000000000 DENSO TEN (THAILAND)                                                                                                                                            *G         20201224 IMCT                IMCT                                                                                                                    WMF2012247.TXT
MAKK0D094269202012D3               89828070300P3YK20210111000030SPEAKER ASM                   M IMCTM PK3    TNTH  09020IMKDC KA PTB  00015  K0                1431DES        000000000000 DENSO TEN (THAILAND)                                                                                                                                            *G         20201224 IMCT                IMCT                                                                                                                    WMF2012247.TXT
