REC2021012820210128ISUZU                              38     
MAKK11165105202101D3               89825451200P3YK20210208000030SPEAKER ASM;ROOF              M IMCTM CM1    TNTH  09020IMKDC KA PTB  00036  K0                1431DES        000000000000 DENSO TEN (THAILAND)                                                                                                                                            *G         20210128 IMCT                IMCT                                                                                                                    WMF2101286.TXT
MAKK11165106202101N3               89825451200P3YK20210211000030SPEAKER ASM;ROOF              M IMCTM CM1    TNTH  09020IMKDC KA PTB  00036  K0                0231NES        000000000000 DENSO TEN (THAILAND)                                                                                                                                            *G         20210128 IMCT                IMCT                                                                                                                    WMF2101286.TXT
MAKK11165107202101D3               89825451200P3YK20210212000030SPEAKER ASM;ROOF              M IMCTM CM1    TNTH  09020IMKDC KA PTB  00036  K0                1431DES        000000000000 DENSO TEN (THAILAND)                                                                                                                                            *G         20210128 IMCT                IMCT                                                                                                                    WMF2101286.TXT
MAKK11165108202101D3               89828070100P3YK20210208000090SPEAKER ASM                   M IMCTM CM1    TNTH  09020IMKDC KA PTB  00004  K0                1431DES        000000000000 DENSO TEN (THAILAND)                                                                                                                                            *G         20210128 IMCT                IMCT                                                                                                                    WMF2101286.TXT
MAKK11165109202101N3               89828070100P3YK20210209000090SPEAKER ASM                   M IMCTM CM1    TNTH  09020IMKDC KA PTB  00004  K0                0231NES        000000000000 DENSO TEN (THAILAND)                                                                                                                                            *G         20210128 IMCT                IMCT                                                                                                                    WMF2101286.TXT
MAKK11165110202101D3               89828070100P3YK20210209000120SPEAKER ASM                   M IMCTM CM1    TNTH  09020IMKDC KA PTB  00004  K0                1431DES        000000000000 DENSO TEN (THAILAND)                                                                                                                                            *G         20210128 IMCT                IMCT                                                                                                                    WMF2101286.TXT
MAKK11165111202101N3               89828070100P3YK20210210000120SPEAKER ASM                   M IMCTM CM1    TNTH  09020IMKDC KA PTB  00004  K0                0231NES        000000000000 DENSO TEN (THAILAND)                                                                                                                                            *G         20210128 IMCT                IMCT                                                                                                                    WMF2101286.TXT
MAKK11165112202101D3               89828070100P3YK20210210000120SPEAKER ASM                   M IMCTM CM1    TNTH  09020IMKDC KA PTB  00004  K0                1431DES        000000000000 DENSO TEN (THAILAND)                                                                                                                                            *G         20210128 IMCT                IMCT                                                                                                                    WMF2101286.TXT
MAKK11165113202101N3               89828070100P3YK20210211000090SPEAKER ASM                   M IMCTM CM1    TNTH  09020IMKDC KA PTB  00004  K0                0231NES        000000000000 DENSO TEN (THAILAND)                                                                                                                                            *G         20210128 IMCT                IMCT                                                                                                                    WMF2101286.TXT
MAKK11165114202101D3               89828070100P3YK20210211000090SPEAKER ASM                   M IMCTM CM1    TNTH  09020IMKDC KA PTB  00004  K0                1431DES        000000000000 DENSO TEN (THAILAND)                                                                                                                                            *G         20210128 IMCT                IMCT                                                                                                                    WMF2101286.TXT
MAKK11165115202101N3               89828070100P3YK20210212000090SPEAKER ASM                   M IMCTM CM1    TNTH  09020IMKDC KA PTB  00004  K0                0231NES        000000000000 DENSO TEN (THAILAND)                                                                                                                                            *G         20210128 IMCT                IMCT                                                                                                                    WMF2101286.TXT
MAKK11165116202101D3               89828070100P3YK20210212000120SPEAKER ASM                   M IMCTM CM1    TNTH  09020IMKDC KA PTB  00004  K0                1431DES        000000000000 DENSO TEN (THAILAND)                                                                                                                                            *G         20210128 IMCT                IMCT                                                                                                                    WMF2101286.TXT
MAKK11165117202101N3               89828070100P3YK20210213000060SPEAKER ASM                   M IMCTM CM1    TNTH  09020IMKDC KA PTB  00004  K0                0231NES        000000000000 DENSO TEN (THAILAND)                                                                                                                                            *G         20210128 IMCT                IMCT                                                                                                                    WMF2101286.TXT
MAKK11165118202101D3               89828070100P3YK20210213000090SPEAKER ASM                   M IMCTM CM1    TNTH  09020IMKDC KA PTB  00004  K0                1431DES        000000000000 DENSO TEN (THAILAND)                                                                                                                                            *G         20210128 IMCT                IMCT                                                                                                                    WMF2101286.TXT
MAKK11165119202101N3               89828070100P3YK20210214000060SPEAKER ASM                   M IMCTM CM1    TNTH  09020IMKDC KA PTB  00004  K0                0231NES        000000000000 DENSO TEN (THAILAND)                                                                                                                                            *G         20210128 IMCT                IMCT                                                                                                                    WMF2101286.TXT
MAKK11165120202101D3               89828070200P3YK20210208000030SPEAKER ASM                   M IMCTM CM1    TNTH  09020IMKDC KA PTB  00005  K0                1431DES        000000000000 DENSO TEN (THAILAND)                                                                                                                                            *G         20210128 IMCT                IMCT                                                                                                                    WMF2101286.TXT
MAKK11165121202101D3               89828070200P3YK20210209000060SPEAKER ASM                   M IMCTM CM1    TNTH  09020IMKDC KA PTB  00005  K0                1431DES        000000000000 DENSO TEN (THAILAND)                                                                                                                                            *G         20210128 IMCT                IMCT                                                                                                                    WMF2101286.TXT
MAKK11165122202101N3               89828070200P3YK20210210000030SPEAKER ASM                   M IMCTM CM1    TNTH  09020IMKDC KA PTB  00005  K0                0231NES        000000000000 DENSO TEN (THAILAND)                                                                                                                                            *G         20210128 IMCT                IMCT                                                                                                                    WMF2101286.TXT
MAKK11165123202101D3               89828070200P3YK20210210000030SPEAKER ASM                   M IMCTM CM1    TNTH  09020IMKDC KA PTB  00005  K0                1431DES        000000000000 DENSO TEN (THAILAND)                                                                                                                                            *G         20210128 IMCT                IMCT                                                                                                                    WMF2101286.TXT
MAKK11165124202101N3               89828070200P3YK20210211000060SPEAKER ASM                   M IMCTM CM1    TNTH  09020IMKDC KA PTB  00005  K0                0231NES        000000000000 DENSO TEN (THAILAND)                                                                                                                                            *G         20210128 IMCT                IMCT                                                                                                                    WMF2101286.TXT
MAKK11165125202101D3               89828070200P3YK20210211000030SPEAKER ASM                   M IMCTM CM1    TNTH  09020IMKDC KA PTB  00005  K0                1431DES        000000000000 DENSO TEN (THAILAND)                                                                                                                                            *G         20210128 IMCT                IMCT                                                                                                                    WMF2101286.TXT
MAKK11165126202101D3               89828070200P3YK20210212000030SPEAKER ASM                   M IMCTM CM1    TNTH  09020IMKDC KA PTB  00005  K0                1431DES        000000000000 DENSO TEN (THAILAND)                                                                                                                                            *G         20210128 IMCT                IMCT                                                                                                                    WMF2101286.TXT
MAKK11165127202101D3               89828070200P3YK20210213000060SPEAKER ASM                   M IMCTM CM1    TNTH  09020IMKDC KA PTB  00005  K0                1431DES        000000000000 DENSO TEN (THAILAND)                                                                                                                                            *G         20210128 IMCT                IMCT                                                                                                                    WMF2101286.TXT
MAKK11165128202101N3               89828070200P3YK20210214000030SPEAKER ASM                   M IMCTM CM1    TNTH  09020IMKDC KA PTB  00005  K0                0231NES        000000000000 DENSO TEN (THAILAND)                                                                                                                                            *G         20210128 IMCT                IMCT                                                                                                                    WMF2101286.TXT
MAKK11165129202101D3               89828070300P3YK20210208000030SPEAKER ASM                   M IMCTM CM1    TNTH  09020IMKDC KA PTB  00015  K0                1431DES        000000000000 DENSO TEN (THAILAND)                                                                                                                                            *G         20210128 IMCT                IMCT                                                                                                                    WMF2101286.TXT
MAKK11165130202101N3               89828070300P3YK20210209000030SPEAKER ASM                   M IMCTM CM1    TNTH  09020IMKDC KA PTB  00015  K0                0231NES        000000000000 DENSO TEN (THAILAND)                                                                                                                                            *G         20210128 IMCT                IMCT                                                                                                                    WMF2101286.TXT
MAKK11165131202101D3               89828070300P3YK20210209000060SPEAKER ASM                   M IMCTM CM1    TNTH  09020IMKDC KA PTB  00015  K0                1431DES        000000000000 DENSO TEN (THAILAND)                                                                                                                                            *G         20210128 IMCT                IMCT                                                                                                                    WMF2101286.TXT
MAKK11165132202101N3               89828070300P3YK20210210000030SPEAKER ASM                   M IMCTM CM1    TNTH  09020IMKDC KA PTB  00015  K0                0231NES        000000000000 DENSO TEN (THAILAND)                                                                                                                                            *G         20210128 IMCT                IMCT                                                                                                                    WMF2101286.TXT
MAKK11165133202101D3               89828070300P3YK20210210000030SPEAKER ASM                   M IMCTM CM1    TNTH  09020IMKDC KA PTB  00015  K0                1431DES        000000000000 DENSO TEN (THAILAND)                                                                                                                                            *G         20210128 IMCT                IMCT                                                                                                                    WMF2101286.TXT
MAKK11165134202101N3               89828070300P3YK20210211000060SPEAKER ASM                   M IMCTM CM1    TNTH  09020IMKDC KA PTB  00015  K0                0231NES        000000000000 DENSO TEN (THAILAND)                                                                                                                                            *G         20210128 IMCT                IMCT                                                                                                                    WMF2101286.TXT
MAKK11165135202101D3               89828070300P3YK20210211000030SPEAKER ASM                   M IMCTM CM1    TNTH  09020IMKDC KA PTB  00015  K0                1431DES        000000000000 DENSO TEN (THAILAND)                                                                                                                                            *G         20210128 IMCT                IMCT                                                                                                                    WMF2101286.TXT
MAKK11165136202101N3               89828070300P3YK20210212000030SPEAKER ASM                   M IMCTM CM1    TNTH  09020IMKDC KA PTB  00015  K0                0231NES        000000000000 DENSO TEN (THAILAND)                                                                                                                                            *G         20210128 IMCT                IMCT                                                                                                                    WMF2101286.TXT
MAKK11165137202101D3               89828070300P3YK20210212000030SPEAKER ASM                   M IMCTM CM1    TNTH  09020IMKDC KA PTB  00015  K0                1431DES        000000000000 DENSO TEN (THAILAND)                                                                                                                                            *G         20210128 IMCT                IMCT                                                                                                                    WMF2101286.TXT
MAKK11165138202101N3               89828070300P3YK20210213000060SPEAKER ASM                   M IMCTM CM1    TNTH  09020IMKDC KA PTB  00015  K0                0231NES        000000000000 DENSO TEN (THAILAND)                                                                                                                                            *G         20210128 IMCT                IMCT                                                                                                                    WMF2101286.TXT
MAKK11165139202101D3               89828070300P3YK20210213000060SPEAKER ASM                   M IMCTM CM1    TNTH  09020IMKDC KA PTB  00015  K0                1431DES        000000000000 DENSO TEN (THAILAND)                                                                                                                                            *G         20210128 IMCT                IMCT                                                                                                                    WMF2101286.TXT
MAKK11165140202101N3               89828070300P3YK20210214000030SPEAKER ASM                   M IMCTM CM1    TNTH  09020IMKDC KA PTB  00015  K0                0231NES        000000000000 DENSO TEN (THAILAND)                                                                                                                                            *G         20210128 IMCT                IMCT                                                                                                                    WMF2101286.TXT
MAKK11171906202101D3               89828070100P3YK20210209000030SPEAKER ASM                   M IMCTM PK3    TNTH  09020IMKDC KA PTB  00004  K0                1431DES        000000000000 DENSO TEN (THAILAND)                                                                                                                                            *G         20210128 IMCT                IMCT                                                                                                                    WMF2101286.TXT
MAKK11171907202101D3               89828070200P3YK20210209000030SPEAKER ASM                   M IMCTM PK3    TNTH  09020IMKDC KA PTB  00005  K0                1431DES        000000000000 DENSO TEN (THAILAND)                                                                                                                                            *G         20210128 IMCT                IMCT                                                                                                                    WMF2101286.TXT
