REC2021012120210121ISUZU                              40     
MAKK11140045202101D3               89825451200P3YK20210201000030SPEAKER ASM;ROOF              M IMCTM CM1    TNTH  09020IMKDC KA PTB  00036  K0                1431DES        000000000000 DENSO TEN (THAILAND)                                                                                                                                            *G         20210121 IMCT                IMCT                                                                                                                    WMF2101215.TXT
MAKK11140046202101N3               89825451200P3YK20210205000030SPEAKER ASM;ROOF              M IMCTM CM1    TNTH  09020IMKDC KA PTB  00036  K0                0231NES        000000000000 DENSO TEN (THAILAND)                                                                                                                                            *G         20210121 IMCT                IMCT                                                                                                                    WMF2101215.TXT
MAKK11140047202101N3               89825451200P3YK20210206000030SPEAKER ASM;ROOF              M IMCTM CM1    TNTH  09020IMKDC KA PTB  00036  K0                0231NES        000000000000 DENSO TEN (THAILAND)                                                                                                                                            *G         20210121 IMCT                IMCT                                                                                                                    WMF2101215.TXT
MAKK11140048202101N3               89825451200P3YK20210207000030SPEAKER ASM;ROOF              M IMCTM CM1    TNTH  09020IMKDC KA PTB  00036  K0                0231NES        000000000000 DENSO TEN (THAILAND)                                                                                                                                            *G         20210121 IMCT                IMCT                                                                                                                    WMF2101215.TXT
MAKK11140049202101D3               89828070100P3YK20210201000060SPEAKER ASM                   M IMCTM CM1    TNTH  09020IMKDC KA PTB  00004  K0                1431DES        000000000000 DENSO TEN (THAILAND)                                                                                                                                            *G         20210121 IMCT                IMCT                                                                                                                    WMF2101215.TXT
MAKK11140050202101N3               89828070100P3YK20210202000120SPEAKER ASM                   M IMCTM CM1    TNTH  09020IMKDC KA PTB  00004  K0                0231NES        000000000000 DENSO TEN (THAILAND)                                                                                                                                            *G         20210121 IMCT                IMCT                                                                                                                    WMF2101215.TXT
MAKK11140051202101D3               89828070100P3YK20210202000090SPEAKER ASM                   M IMCTM CM1    TNTH  09020IMKDC KA PTB  00004  K0                1431DES        000000000000 DENSO TEN (THAILAND)                                                                                                                                            *G         20210121 IMCT                IMCT                                                                                                                    WMF2101215.TXT
MAKK11140052202101N3               89828070100P3YK20210203000120SPEAKER ASM                   M IMCTM CM1    TNTH  09020IMKDC KA PTB  00004  K0                0231NES        000000000000 DENSO TEN (THAILAND)                                                                                                                                            *G         20210121 IMCT                IMCT                                                                                                                    WMF2101215.TXT
MAKK11140053202101D3               89828070100P3YK20210203000090SPEAKER ASM                   M IMCTM CM1    TNTH  09020IMKDC KA PTB  00004  K0                1431DES        000000000000 DENSO TEN (THAILAND)                                                                                                                                            *G         20210121 IMCT                IMCT                                                                                                                    WMF2101215.TXT
MAKK11140054202101N3               89828070100P3YK20210204000090SPEAKER ASM                   M IMCTM CM1    TNTH  09020IMKDC KA PTB  00004  K0                0231NES        000000000000 DENSO TEN (THAILAND)                                                                                                                                            *G         20210121 IMCT                IMCT                                                                                                                    WMF2101215.TXT
MAKK11140055202101D3               89828070100P3YK20210204000120SPEAKER ASM                   M IMCTM CM1    TNTH  09020IMKDC KA PTB  00004  K0                1431DES        000000000000 DENSO TEN (THAILAND)                                                                                                                                            *G         20210121 IMCT                IMCT                                                                                                                    WMF2101215.TXT
MAKK11140056202101N3               89828070100P3YK20210205000060SPEAKER ASM                   M IMCTM CM1    TNTH  09020IMKDC KA PTB  00004  K0                0231NES        000000000000 DENSO TEN (THAILAND)                                                                                                                                            *G         20210121 IMCT                IMCT                                                                                                                    WMF2101215.TXT
MAKK11140057202101D3               89828070100P3YK20210205000150SPEAKER ASM                   M IMCTM CM1    TNTH  09020IMKDC KA PTB  00004  K0                1431DES        000000000000 DENSO TEN (THAILAND)                                                                                                                                            *G         20210121 IMCT                IMCT                                                                                                                    WMF2101215.TXT
MAKK11140058202101N3               89828070100P3YK20210206000090SPEAKER ASM                   M IMCTM CM1    TNTH  09020IMKDC KA PTB  00004  K0                0231NES        000000000000 DENSO TEN (THAILAND)                                                                                                                                            *G         20210121 IMCT                IMCT                                                                                                                    WMF2101215.TXT
MAKK11140059202101D3               89828070100P3YK20210206000120SPEAKER ASM                   M IMCTM CM1    TNTH  09020IMKDC KA PTB  00004  K0                1431DES        000000000000 DENSO TEN (THAILAND)                                                                                                                                            *G         20210121 IMCT                IMCT                                                                                                                    WMF2101215.TXT
MAKK11140060202101N3               89828070100P3YK20210207000090SPEAKER ASM                   M IMCTM CM1    TNTH  09020IMKDC KA PTB  00004  K0                0231NES        000000000000 DENSO TEN (THAILAND)                                                                                                                                            *G         20210121 IMCT                IMCT                                                                                                                    WMF2101215.TXT
MAKK11140061202101D3               89828070200P3YK20210201000030SPEAKER ASM                   M IMCTM CM1    TNTH  09020IMKDC KA PTB  00005  K0                1431DES        000000000000 DENSO TEN (THAILAND)                                                                                                                                            *G         20210121 IMCT                IMCT                                                                                                                    WMF2101215.TXT
MAKK11140062202101D3               89828070200P3YK20210202000030SPEAKER ASM                   M IMCTM CM1    TNTH  09020IMKDC KA PTB  00005  K0                1431DES        000000000000 DENSO TEN (THAILAND)                                                                                                                                            *G         20210121 IMCT                IMCT                                                                                                                    WMF2101215.TXT
MAKK11140063202101N3               89828070200P3YK20210203000030SPEAKER ASM                   M IMCTM CM1    TNTH  09020IMKDC KA PTB  00005  K0                0231NES        000000000000 DENSO TEN (THAILAND)                                                                                                                                            *G         20210121 IMCT                IMCT                                                                                                                    WMF2101215.TXT
MAKK11140064202101N3               89828070200P3YK20210204000030SPEAKER ASM                   M IMCTM CM1    TNTH  09020IMKDC KA PTB  00005  K0                0231NES        000000000000 DENSO TEN (THAILAND)                                                                                                                                            *G         20210121 IMCT                IMCT                                                                                                                    WMF2101215.TXT
MAKK11140065202101D3               89828070200P3YK20210204000060SPEAKER ASM                   M IMCTM CM1    TNTH  09020IMKDC KA PTB  00005  K0                1431DES        000000000000 DENSO TEN (THAILAND)                                                                                                                                            *G         20210121 IMCT                IMCT                                                                                                                    WMF2101215.TXT
MAKK11140066202101D3               89828070200P3YK20210205000060SPEAKER ASM                   M IMCTM CM1    TNTH  09020IMKDC KA PTB  00005  K0                1431DES        000000000000 DENSO TEN (THAILAND)                                                                                                                                            *G         20210121 IMCT                IMCT                                                                                                                    WMF2101215.TXT
MAKK11140067202101N3               89828070200P3YK20210206000030SPEAKER ASM                   M IMCTM CM1    TNTH  09020IMKDC KA PTB  00005  K0                0231NES        000000000000 DENSO TEN (THAILAND)                                                                                                                                            *G         20210121 IMCT                IMCT                                                                                                                    WMF2101215.TXT
MAKK11140068202101D3               89828070200P3YK20210206000060SPEAKER ASM                   M IMCTM CM1    TNTH  09020IMKDC KA PTB  00005  K0                1431DES        000000000000 DENSO TEN (THAILAND)                                                                                                                                            *G         20210121 IMCT                IMCT                                                                                                                    WMF2101215.TXT
MAKK11140069202101N3               89828070200P3YK20210207000030SPEAKER ASM                   M IMCTM CM1    TNTH  09020IMKDC KA PTB  00005  K0                0231NES        000000000000 DENSO TEN (THAILAND)                                                                                                                                            *G         20210121 IMCT                IMCT                                                                                                                    WMF2101215.TXT
MAKK11140070202101D3               89828070300P3YK20210201000060SPEAKER ASM                   M IMCTM CM1    TNTH  09020IMKDC KA PTB  00015  K0                1431DES        000000000000 DENSO TEN (THAILAND)                                                                                                                                            *G         20210121 IMCT                IMCT                                                                                                                    WMF2101215.TXT
MAKK11140071202101N3               89828070300P3YK20210202000060SPEAKER ASM                   M IMCTM CM1    TNTH  09020IMKDC KA PTB  00015  K0                0231NES        000000000000 DENSO TEN (THAILAND)                                                                                                                                            *G         20210121 IMCT                IMCT                                                                                                                    WMF2101215.TXT
MAKK11140072202101D3               89828070300P3YK20210202000030SPEAKER ASM                   M IMCTM CM1    TNTH  09020IMKDC KA PTB  00015  K0                1431DES        000000000000 DENSO TEN (THAILAND)                                                                                                                                            *G         20210121 IMCT                IMCT                                                                                                                    WMF2101215.TXT
MAKK11140073202101N3               89828070300P3YK20210203000030SPEAKER ASM                   M IMCTM CM1    TNTH  09020IMKDC KA PTB  00015  K0                0231NES        000000000000 DENSO TEN (THAILAND)                                                                                                                                            *G         20210121 IMCT                IMCT                                                                                                                    WMF2101215.TXT
MAKK11140074202101D3               89828070300P3YK20210203000030SPEAKER ASM                   M IMCTM CM1    TNTH  09020IMKDC KA PTB  00015  K0                1431DES        000000000000 DENSO TEN (THAILAND)                                                                                                                                            *G         20210121 IMCT                IMCT                                                                                                                    WMF2101215.TXT
MAKK11140075202101N3               89828070300P3YK20210204000030SPEAKER ASM                   M IMCTM CM1    TNTH  09020IMKDC KA PTB  00015  K0                0231NES        000000000000 DENSO TEN (THAILAND)                                                                                                                                            *G         20210121 IMCT                IMCT                                                                                                                    WMF2101215.TXT
MAKK11140076202101D3               89828070300P3YK20210204000060SPEAKER ASM                   M IMCTM CM1    TNTH  09020IMKDC KA PTB  00015  K0                1431DES        000000000000 DENSO TEN (THAILAND)                                                                                                                                            *G         20210121 IMCT                IMCT                                                                                                                    WMF2101215.TXT
MAKK11140077202101N3               89828070300P3YK20210205000060SPEAKER ASM                   M IMCTM CM1    TNTH  09020IMKDC KA PTB  00015  K0                0231NES        000000000000 DENSO TEN (THAILAND)                                                                                                                                            *G         20210121 IMCT                IMCT                                                                                                                    WMF2101215.TXT
MAKK11140078202101D3               89828070300P3YK20210205000060SPEAKER ASM                   M IMCTM CM1    TNTH  09020IMKDC KA PTB  00015  K0                1431DES        000000000000 DENSO TEN (THAILAND)                                                                                                                                            *G         20210121 IMCT                IMCT                                                                                                                    WMF2101215.TXT
MAKK11140079202101N3               89828070300P3YK20210206000030SPEAKER ASM                   M IMCTM CM1    TNTH  09020IMKDC KA PTB  00015  K0                0231NES        000000000000 DENSO TEN (THAILAND)                                                                                                                                            *G         20210121 IMCT                IMCT                                                                                                                    WMF2101215.TXT
MAKK11140080202101D3               89828070300P3YK20210206000060SPEAKER ASM                   M IMCTM CM1    TNTH  09020IMKDC KA PTB  00015  K0                1431DES        000000000000 DENSO TEN (THAILAND)                                                                                                                                            *G         20210121 IMCT                IMCT                                                                                                                    WMF2101215.TXT
MAKK11140081202101N3               89828070300P3YK20210207000030SPEAKER ASM                   M IMCTM CM1    TNTH  09020IMKDC KA PTB  00015  K0                0231NES        000000000000 DENSO TEN (THAILAND)                                                                                                                                            *G         20210121 IMCT                IMCT                                                                                                                    WMF2101215.TXT
MAKK11146501202101D3               89828070100P3YK20210202000030SPEAKER ASM                   M IMCTM PK3    TNTH  09020IMKDC KA PTB  00004  K0                1431DES        000000000000 DENSO TEN (THAILAND)                                                                                                                                            *G         20210121 IMCT                IMCT                                                                                                                    WMF2101215.TXT
MAKK11146502202101D3               89828070200P3YK20210202000030SPEAKER ASM                   M IMCTM PK3    TNTH  09020IMKDC KA PTB  00005  K0                1431DES        000000000000 DENSO TEN (THAILAND)                                                                                                                                            *G         20210121 IMCT                IMCT                                                                                                                    WMF2101215.TXT
MAKK11146503202101D3               89828070300P3YK20210202000030SPEAKER ASM                   M IMCTM PK3    TNTH  09020IMKDC KA PTB  00015  K0                1431DES        000000000000 DENSO TEN (THAILAND)                                                                                                                                            *G         20210121 IMCT                IMCT                                                                                                                    WMF2101215.TXT
