REC2021011420210114ISUZU                              46     
MAKK11114006202101D3               89825451200P3YK20210125000030SPEAKER ASM;ROOF              M IMCTM CM1    TNTH  09020IMKDC KA PTB  00036  K0                1431DES        000000000000 DENSO TEN (THAILAND)                                                                                                                                            *G         20210114 IMCT                IMCT                                                                                                                    WMF2101142.TXT
MAKK11114007202101N3               89825451200P3YK20210126000030SPEAKER ASM;ROOF              M IMCTM CM1    TNTH  09020IMKDC KA PTB  00036  K0                0231NES        000000000000 DENSO TEN (THAILAND)                                                                                                                                            *G         20210114 IMCT                IMCT                                                                                                                    WMF2101142.TXT
MAKK11114008202101N3               89825451200P3YK20210127000060SPEAKER ASM;ROOF              M IMCTM CM1    TNTH  09020IMKDC KA PTB  00036  K0                0231NES        000000000000 DENSO TEN (THAILAND)                                                                                                                                            *G         20210114 IMCT                IMCT                                                                                                                    WMF2101142.TXT
MAKK11114009202101N3               89825451200P3YK20210128000060SPEAKER ASM;ROOF              M IMCTM CM1    TNTH  09020IMKDC KA PTB  00036  K0                0231NES        000000000000 DENSO TEN (THAILAND)                                                                                                                                            *G         20210114 IMCT                IMCT                                                                                                                    WMF2101142.TXT
MAKK11114010202101D3               89825451200P3YK20210128000030SPEAKER ASM;ROOF              M IMCTM CM1    TNTH  09020IMKDC KA PTB  00036  K0                1431DES        000000000000 DENSO TEN (THAILAND)                                                                                                                                            *G         20210114 IMCT                IMCT                                                                                                                    WMF2101142.TXT
MAKK11114011202101N3               89825451200P3YK20210130000030SPEAKER ASM;ROOF              M IMCTM CM1    TNTH  09020IMKDC KA PTB  00036  K0                0231NES        000000000000 DENSO TEN (THAILAND)                                                                                                                                            *G         20210114 IMCT                IMCT                                                                                                                    WMF2101142.TXT
MAKK11114012202101D3               89828070100P3YK20210125000120SPEAKER ASM                   M IMCTM CM1    TNTH  09020IMKDC KA PTB  00004  K0                1431DES        000000000000 DENSO TEN (THAILAND)                                                                                                                                            *G         20210114 IMCT                IMCT                                                                                                                    WMF2101142.TXT
MAKK11114013202101N3               89828070100P3YK20210126000090SPEAKER ASM                   M IMCTM CM1    TNTH  09020IMKDC KA PTB  00004  K0                0231NES        000000000000 DENSO TEN (THAILAND)                                                                                                                                            *G         20210114 IMCT                IMCT                                                                                                                    WMF2101142.TXT
MAKK11114014202101D3               89828070100P3YK20210126000090SPEAKER ASM                   M IMCTM CM1    TNTH  09020IMKDC KA PTB  00004  K0                1431DES        000000000000 DENSO TEN (THAILAND)                                                                                                                                            *G         20210114 IMCT                IMCT                                                                                                                    WMF2101142.TXT
MAKK11114015202101N3               89828070100P3YK20210127000060SPEAKER ASM                   M IMCTM CM1    TNTH  09020IMKDC KA PTB  00004  K0                0231NES        000000000000 DENSO TEN (THAILAND)                                                                                                                                            *G         20210114 IMCT                IMCT                                                                                                                    WMF2101142.TXT
MAKK11114016202101D3               89828070100P3YK20210127000120SPEAKER ASM                   M IMCTM CM1    TNTH  09020IMKDC KA PTB  00004  K0                1431DES        000000000000 DENSO TEN (THAILAND)                                                                                                                                            *G         20210114 IMCT                IMCT                                                                                                                    WMF2101142.TXT
MAKK11114017202101N3               89828070100P3YK20210128000120SPEAKER ASM                   M IMCTM CM1    TNTH  09020IMKDC KA PTB  00004  K0                0231NES        000000000000 DENSO TEN (THAILAND)                                                                                                                                            *G         20210114 IMCT                IMCT                                                                                                                    WMF2101142.TXT
MAKK11114018202101D3               89828070100P3YK20210128000120SPEAKER ASM                   M IMCTM CM1    TNTH  09020IMKDC KA PTB  00004  K0                1431DES        000000000000 DENSO TEN (THAILAND)                                                                                                                                            *G         20210114 IMCT                IMCT                                                                                                                    WMF2101142.TXT
MAKK11114019202101N3               89828070100P3YK20210129000120SPEAKER ASM                   M IMCTM CM1    TNTH  09020IMKDC KA PTB  00004  K0                0231NES        000000000000 DENSO TEN (THAILAND)                                                                                                                                            *G         20210114 IMCT                IMCT                                                                                                                    WMF2101142.TXT
MAKK11114020202101D3               89828070100P3YK20210129000090SPEAKER ASM                   M IMCTM CM1    TNTH  09020IMKDC KA PTB  00004  K0                1431DES        000000000000 DENSO TEN (THAILAND)                                                                                                                                            *G         20210114 IMCT                IMCT                                                                                                                    WMF2101142.TXT
MAKK11114021202101N3               89828070100P3YK20210130000120SPEAKER ASM                   M IMCTM CM1    TNTH  09020IMKDC KA PTB  00004  K0                0231NES        000000000000 DENSO TEN (THAILAND)                                                                                                                                            *G         20210114 IMCT                IMCT                                                                                                                    WMF2101142.TXT
MAKK11114022202101D3               89828070100P3YK20210130000090SPEAKER ASM                   M IMCTM CM1    TNTH  09020IMKDC KA PTB  00004  K0                1431DES        000000000000 DENSO TEN (THAILAND)                                                                                                                                            *G         20210114 IMCT                IMCT                                                                                                                    WMF2101142.TXT
MAKK11114023202101N3               89828070100P3YK20210131000060SPEAKER ASM                   M IMCTM CM1    TNTH  09020IMKDC KA PTB  00004  K0                0231NES        000000000000 DENSO TEN (THAILAND)                                                                                                                                            *G         20210114 IMCT                IMCT                                                                                                                    WMF2101142.TXT
MAKK11114024202101D3               89828070200P3YK20210125000090SPEAKER ASM                   M IMCTM CM1    TNTH  09020IMKDC KA PTB  00005  K0                1431DES        000000000000 DENSO TEN (THAILAND)                                                                                                                                            *G         20210114 IMCT                IMCT                                                                                                                    WMF2101142.TXT
MAKK11114025202101N3               89828070200P3YK20210126000060SPEAKER ASM                   M IMCTM CM1    TNTH  09020IMKDC KA PTB  00005  K0                0231NES        000000000000 DENSO TEN (THAILAND)                                                                                                                                            *G         20210114 IMCT                IMCT                                                                                                                    WMF2101142.TXT
MAKK11114026202101D3               89828070200P3YK20210126000030SPEAKER ASM                   M IMCTM CM1    TNTH  09020IMKDC KA PTB  00005  K0                1431DES        000000000000 DENSO TEN (THAILAND)                                                                                                                                            *G         20210114 IMCT                IMCT                                                                                                                    WMF2101142.TXT
MAKK11114027202101N3               89828070200P3YK20210127000060SPEAKER ASM                   M IMCTM CM1    TNTH  09020IMKDC KA PTB  00005  K0                0231NES        000000000000 DENSO TEN (THAILAND)                                                                                                                                            *G         20210114 IMCT                IMCT                                                                                                                    WMF2101142.TXT
MAKK11114028202101D3               89828070200P3YK20210127000060SPEAKER ASM                   M IMCTM CM1    TNTH  09020IMKDC KA PTB  00005  K0                1431DES        000000000000 DENSO TEN (THAILAND)                                                                                                                                            *G         20210114 IMCT                IMCT                                                                                                                    WMF2101142.TXT
MAKK11114029202101N3               89828070200P3YK20210128000090SPEAKER ASM                   M IMCTM CM1    TNTH  09020IMKDC KA PTB  00005  K0                0231NES        000000000000 DENSO TEN (THAILAND)                                                                                                                                            *G         20210114 IMCT                IMCT                                                                                                                    WMF2101142.TXT
MAKK11114030202101D3               89828070200P3YK20210128000060SPEAKER ASM                   M IMCTM CM1    TNTH  09020IMKDC KA PTB  00005  K0                1431DES        000000000000 DENSO TEN (THAILAND)                                                                                                                                            *G         20210114 IMCT                IMCT                                                                                                                    WMF2101142.TXT
MAKK11114031202101N3               89828070200P3YK20210129000030SPEAKER ASM                   M IMCTM CM1    TNTH  09020IMKDC KA PTB  00005  K0                0231NES        000000000000 DENSO TEN (THAILAND)                                                                                                                                            *G         20210114 IMCT                IMCT                                                                                                                    WMF2101142.TXT
MAKK11114032202101D3               89828070200P3YK20210129000060SPEAKER ASM                   M IMCTM CM1    TNTH  09020IMKDC KA PTB  00005  K0                1431DES        000000000000 DENSO TEN (THAILAND)                                                                                                                                            *G         20210114 IMCT                IMCT                                                                                                                    WMF2101142.TXT
MAKK11114033202101N3               89828070200P3YK20210130000090SPEAKER ASM                   M IMCTM CM1    TNTH  09020IMKDC KA PTB  00005  K0                0231NES        000000000000 DENSO TEN (THAILAND)                                                                                                                                            *G         20210114 IMCT                IMCT                                                                                                                    WMF2101142.TXT
MAKK11114034202101N3               89828070200P3YK20210131000030SPEAKER ASM                   M IMCTM CM1    TNTH  09020IMKDC KA PTB  00005  K0                0231NES        000000000000 DENSO TEN (THAILAND)                                                                                                                                            *G         20210114 IMCT                IMCT                                                                                                                    WMF2101142.TXT
MAKK11114035202101D3               89828070300P3YK20210125000090SPEAKER ASM                   M IMCTM CM1    TNTH  09020IMKDC KA PTB  00015  K0                1431DES        000000000000 DENSO TEN (THAILAND)                                                                                                                                            *G         20210114 IMCT                IMCT                                                                                                                    WMF2101142.TXT
MAKK11114036202101N3               89828070300P3YK20210126000060SPEAKER ASM                   M IMCTM CM1    TNTH  09020IMKDC KA PTB  00015  K0                0231NES        000000000000 DENSO TEN (THAILAND)                                                                                                                                            *G         20210114 IMCT                IMCT                                                                                                                    WMF2101142.TXT
MAKK11114037202101D3               89828070300P3YK20210126000030SPEAKER ASM                   M IMCTM CM1    TNTH  09020IMKDC KA PTB  00015  K0                1431DES        000000000000 DENSO TEN (THAILAND)                                                                                                                                            *G         20210114 IMCT                IMCT                                                                                                                    WMF2101142.TXT
MAKK11114038202101N3               89828070300P3YK20210127000060SPEAKER ASM                   M IMCTM CM1    TNTH  09020IMKDC KA PTB  00015  K0                0231NES        000000000000 DENSO TEN (THAILAND)                                                                                                                                            *G         20210114 IMCT                IMCT                                                                                                                    WMF2101142.TXT
MAKK11114039202101D3               89828070300P3YK20210127000060SPEAKER ASM                   M IMCTM CM1    TNTH  09020IMKDC KA PTB  00015  K0                1431DES        000000000000 DENSO TEN (THAILAND)                                                                                                                                            *G         20210114 IMCT                IMCT                                                                                                                    WMF2101142.TXT
MAKK11114040202101N3               89828070300P3YK20210128000090SPEAKER ASM                   M IMCTM CM1    TNTH  09020IMKDC KA PTB  00015  K0                0231NES        000000000000 DENSO TEN (THAILAND)                                                                                                                                            *G         20210114 IMCT                IMCT                                                                                                                    WMF2101142.TXT
MAKK11114041202101D3               89828070300P3YK20210128000060SPEAKER ASM                   M IMCTM CM1    TNTH  09020IMKDC KA PTB  00015  K0                1431DES        000000000000 DENSO TEN (THAILAND)                                                                                                                                            *G         20210114 IMCT                IMCT                                                                                                                    WMF2101142.TXT
MAKK11114042202101N3               89828070300P3YK20210129000090SPEAKER ASM                   M IMCTM CM1    TNTH  09020IMKDC KA PTB  00015  K0                0231NES        000000000000 DENSO TEN (THAILAND)                                                                                                                                            *G         20210114 IMCT                IMCT                                                                                                                    WMF2101142.TXT
MAKK11114043202101D3               89828070300P3YK20210129000060SPEAKER ASM                   M IMCTM CM1    TNTH  09020IMKDC KA PTB  00015  K0                1431DES        000000000000 DENSO TEN (THAILAND)                                                                                                                                            *G         20210114 IMCT                IMCT                                                                                                                    WMF2101142.TXT
MAKK11114044202101N3               89828070300P3YK20210130000090SPEAKER ASM                   M IMCTM CM1    TNTH  09020IMKDC KA PTB  00015  K0                0231NES        000000000000 DENSO TEN (THAILAND)                                                                                                                                            *G         20210114 IMCT                IMCT                                                                                                                    WMF2101142.TXT
MAKK11114045202101N3               89828070300P3YK20210131000030SPEAKER ASM                   M IMCTM CM1    TNTH  09020IMKDC KA PTB  00015  K0                0231NES        000000000000 DENSO TEN (THAILAND)                                                                                                                                            *G         20210114 IMCT                IMCT                                                                                                                    WMF2101142.TXT
MAKK11114046202101N3               89831228410P3YK20210126000015RADIO;AM/FM,CD                M IMCTM CM1    TNTH  09020IMKDC KA   CPB00003  K0                0231NES        000000000000 DENSO TEN (THAILAND)                                                                                                                                            *G         20210114 IMCT                IMCT                                                                                                                    WMF2101142.TXT
MAKK11121102202101D3               89828070100P3YK20210125000030SPEAKER ASM                   M IMCTM PK3    TNTH  09020IMKDC KA PTB  00004  K0                1431DES        000000000000 DENSO TEN (THAILAND)                                                                                                                                            *G         20210114 IMCT                IMCT                                                                                                                    WMF2101142.TXT
MAKK11121103202101D3               89828070100P3YK20210130000030SPEAKER ASM                   M IMCTM PK3    TNTH  09020IMKDC KA PTB  00004  K0                1431DES        000000000000 DENSO TEN (THAILAND)                                                                                                                                            *G         20210114 IMCT                IMCT                                                                                                                    WMF2101142.TXT
MAKK11121104202101D3               89828070200P3YK20210125000030SPEAKER ASM                   M IMCTM PK3    TNTH  09020IMKDC KA PTB  00005  K0                1431DES        000000000000 DENSO TEN (THAILAND)                                                                                                                                            *G         20210114 IMCT                IMCT                                                                                                                    WMF2101142.TXT
MAKK11121105202101D3               89828070200P3YK20210130000030SPEAKER ASM                   M IMCTM PK3    TNTH  09020IMKDC KA PTB  00005  K0                1431DES        000000000000 DENSO TEN (THAILAND)                                                                                                                                            *G         20210114 IMCT                IMCT                                                                                                                    WMF2101142.TXT
MAKK11121106202101D3               89828070300P3YK20210130000030SPEAKER ASM                   M IMCTM PK3    TNTH  09020IMKDC KA PTB  00015  K0                1431DES        000000000000 DENSO TEN (THAILAND)                                                                                                                                            *G         20210114 IMCT                IMCT                                                                                                                    WMF2101142.TXT
