REC2021010720210107ISUZU                              48     
MAKK11087406202101N3               89825451200P3YK20210119000030SPEAKER ASM;ROOF              M IMCTM CM1    TNTH  09020IMKDC KA PTB  00036  K0                0231NES        000000000000 DENSO TEN (THAILAND)                                                                                                                                            *G         20210107 IMCT                IMCT                                                                                                                    WMF2101079.TXT
MAKK11087407202101N3               89825451200P3YK20210120000030SPEAKER ASM;ROOF              M IMCTM CM1    TNTH  09020IMKDC KA PTB  00036  K0                0231NES        000000000000 DENSO TEN (THAILAND)                                                                                                                                            *G         20210107 IMCT                IMCT                                                                                                                    WMF2101079.TXT
MAKK11087408202101D3               89825451200P3YK20210121000030SPEAKER ASM;ROOF              M IMCTM CM1    TNTH  09020IMKDC KA PTB  00036  K0                1431DES        000000000000 DENSO TEN (THAILAND)                                                                                                                                            *G         20210107 IMCT                IMCT                                                                                                                    WMF2101079.TXT
MAKK11087409202101D3               89825451200P3YK20210122000060SPEAKER ASM;ROOF              M IMCTM CM1    TNTH  09020IMKDC KA PTB  00036  K0                1431DES        000000000000 DENSO TEN (THAILAND)                                                                                                                                            *G         20210107 IMCT                IMCT                                                                                                                    WMF2101079.TXT
MAKK11087410202101N3               89825451200P3YK20210124000030SPEAKER ASM;ROOF              M IMCTM CM1    TNTH  09020IMKDC KA PTB  00036  K0                0231NES        000000000000 DENSO TEN (THAILAND)                                                                                                                                            *G         20210107 IMCT                IMCT                                                                                                                    WMF2101079.TXT
MAKK11087411202101D3               89828070100P3YK20210118000060SPEAKER ASM                   M IMCTM CM1    TNTH  09020IMKDC KA PTB  00004  K0                1431DES        000000000000 DENSO TEN (THAILAND)                                                                                                                                            *G         20210107 IMCT                IMCT                                                                                                                    WMF2101079.TXT
MAKK11087412202101N3               89828070100P3YK20210119000090SPEAKER ASM                   M IMCTM CM1    TNTH  09020IMKDC KA PTB  00004  K0                0231NES        000000000000 DENSO TEN (THAILAND)                                                                                                                                            *G         20210107 IMCT                IMCT                                                                                                                    WMF2101079.TXT
MAKK11087413202101D3               89828070100P3YK20210119000060SPEAKER ASM                   M IMCTM CM1    TNTH  09020IMKDC KA PTB  00004  K0                1431DES        000000000000 DENSO TEN (THAILAND)                                                                                                                                            *G         20210107 IMCT                IMCT                                                                                                                    WMF2101079.TXT
MAKK11087414202101N3               89828070100P3YK20210120000060SPEAKER ASM                   M IMCTM CM1    TNTH  09020IMKDC KA PTB  00004  K0                0231NES        000000000000 DENSO TEN (THAILAND)                                                                                                                                            *G         20210107 IMCT                IMCT                                                                                                                    WMF2101079.TXT
MAKK11087415202101D3               89828070100P3YK20210120000120SPEAKER ASM                   M IMCTM CM1    TNTH  09020IMKDC KA PTB  00004  K0                1431DES        000000000000 DENSO TEN (THAILAND)                                                                                                                                            *G         20210107 IMCT                IMCT                                                                                                                    WMF2101079.TXT
MAKK11087416202101N3               89828070100P3YK20210121000090SPEAKER ASM                   M IMCTM CM1    TNTH  09020IMKDC KA PTB  00004  K0                0231NES        000000000000 DENSO TEN (THAILAND)                                                                                                                                            *G         20210107 IMCT                IMCT                                                                                                                    WMF2101079.TXT
MAKK11087417202101D3               89828070100P3YK20210121000030SPEAKER ASM                   M IMCTM CM1    TNTH  09020IMKDC KA PTB  00004  K0                1431DES        000000000000 DENSO TEN (THAILAND)                                                                                                                                            *G         20210107 IMCT                IMCT                                                                                                                    WMF2101079.TXT
MAKK11087418202101N3               89828070100P3YK20210122000090SPEAKER ASM                   M IMCTM CM1    TNTH  09020IMKDC KA PTB  00004  K0                0231NES        000000000000 DENSO TEN (THAILAND)                                                                                                                                            *G         20210107 IMCT                IMCT                                                                                                                    WMF2101079.TXT
MAKK11087419202101D3               89828070100P3YK20210122000090SPEAKER ASM                   M IMCTM CM1    TNTH  09020IMKDC KA PTB  00004  K0                1431DES        000000000000 DENSO TEN (THAILAND)                                                                                                                                            *G         20210107 IMCT                IMCT                                                                                                                    WMF2101079.TXT
MAKK11087420202101N3               89828070100P3YK20210123000120SPEAKER ASM                   M IMCTM CM1    TNTH  09020IMKDC KA PTB  00004  K0                0231NES        000000000000 DENSO TEN (THAILAND)                                                                                                                                            *G         20210107 IMCT                IMCT                                                                                                                    WMF2101079.TXT
MAKK11087421202101D3               89828070100P3YK20210123000120SPEAKER ASM                   M IMCTM CM1    TNTH  09020IMKDC KA PTB  00004  K0                1431DES        000000000000 DENSO TEN (THAILAND)                                                                                                                                            *G         20210107 IMCT                IMCT                                                                                                                    WMF2101079.TXT
MAKK11087422202101N3               89828070100P3YK20210124000090SPEAKER ASM                   M IMCTM CM1    TNTH  09020IMKDC KA PTB  00004  K0                0231NES        000000000000 DENSO TEN (THAILAND)                                                                                                                                            *G         20210107 IMCT                IMCT                                                                                                                    WMF2101079.TXT
MAKK11087423202101D3               89828070200P3YK20210118000030SPEAKER ASM                   M IMCTM CM1    TNTH  09020IMKDC KA PTB  00005  K0                1431DES        000000000000 DENSO TEN (THAILAND)                                                                                                                                            *G         20210107 IMCT                IMCT                                                                                                                    WMF2101079.TXT
MAKK11087424202101N3               89828070200P3YK20210119000030SPEAKER ASM                   M IMCTM CM1    TNTH  09020IMKDC KA PTB  00005  K0                0231NES        000000000000 DENSO TEN (THAILAND)                                                                                                                                            *G         20210107 IMCT                IMCT                                                                                                                    WMF2101079.TXT
MAKK11087425202101D3               89828070200P3YK20210119000060SPEAKER ASM                   M IMCTM CM1    TNTH  09020IMKDC KA PTB  00005  K0                1431DES        000000000000 DENSO TEN (THAILAND)                                                                                                                                            *G         20210107 IMCT                IMCT                                                                                                                    WMF2101079.TXT
MAKK11087426202101N3               89828070200P3YK20210120000060SPEAKER ASM                   M IMCTM CM1    TNTH  09020IMKDC KA PTB  00005  K0                0231NES        000000000000 DENSO TEN (THAILAND)                                                                                                                                            *G         20210107 IMCT                IMCT                                                                                                                    WMF2101079.TXT
MAKK11087427202101D3               89828070200P3YK20210120000060SPEAKER ASM                   M IMCTM CM1    TNTH  09020IMKDC KA PTB  00005  K0                1431DES        000000000000 DENSO TEN (THAILAND)                                                                                                                                            *G         20210107 IMCT                IMCT                                                                                                                    WMF2101079.TXT
MAKK11087428202101N3               89828070200P3YK20210121000060SPEAKER ASM                   M IMCTM CM1    TNTH  09020IMKDC KA PTB  00005  K0                0231NES        000000000000 DENSO TEN (THAILAND)                                                                                                                                            *G         20210107 IMCT                IMCT                                                                                                                    WMF2101079.TXT
MAKK11087429202101D3               89828070200P3YK20210121000030SPEAKER ASM                   M IMCTM CM1    TNTH  09020IMKDC KA PTB  00005  K0                1431DES        000000000000 DENSO TEN (THAILAND)                                                                                                                                            *G         20210107 IMCT                IMCT                                                                                                                    WMF2101079.TXT
MAKK11087430202101N3               89828070200P3YK20210122000060SPEAKER ASM                   M IMCTM CM1    TNTH  09020IMKDC KA PTB  00005  K0                0231NES        000000000000 DENSO TEN (THAILAND)                                                                                                                                            *G         20210107 IMCT                IMCT                                                                                                                    WMF2101079.TXT
MAKK11087431202101D3               89828070200P3YK20210122000030SPEAKER ASM                   M IMCTM CM1    TNTH  09020IMKDC KA PTB  00005  K0                1431DES        000000000000 DENSO TEN (THAILAND)                                                                                                                                            *G         20210107 IMCT                IMCT                                                                                                                    WMF2101079.TXT
MAKK11087432202101N3               89828070200P3YK20210123000090SPEAKER ASM                   M IMCTM CM1    TNTH  09020IMKDC KA PTB  00005  K0                0231NES        000000000000 DENSO TEN (THAILAND)                                                                                                                                            *G         20210107 IMCT                IMCT                                                                                                                    WMF2101079.TXT
MAKK11087433202101D3               89828070200P3YK20210123000030SPEAKER ASM                   M IMCTM CM1    TNTH  09020IMKDC KA PTB  00005  K0                1431DES        000000000000 DENSO TEN (THAILAND)                                                                                                                                            *G         20210107 IMCT                IMCT                                                                                                                    WMF2101079.TXT
MAKK11087434202101N3               89828070200P3YK20210124000060SPEAKER ASM                   M IMCTM CM1    TNTH  09020IMKDC KA PTB  00005  K0                0231NES        000000000000 DENSO TEN (THAILAND)                                                                                                                                            *G         20210107 IMCT                IMCT                                                                                                                    WMF2101079.TXT
MAKK11087435202101D3               89828070300P3YK20210118000030SPEAKER ASM                   M IMCTM CM1    TNTH  09020IMKDC KA PTB  00015  K0                1431DES        000000000000 DENSO TEN (THAILAND)                                                                                                                                            *G         20210107 IMCT                IMCT                                                                                                                    WMF2101079.TXT
MAKK11087436202101N3               89828070300P3YK20210119000030SPEAKER ASM                   M IMCTM CM1    TNTH  09020IMKDC KA PTB  00015  K0                0231NES        000000000000 DENSO TEN (THAILAND)                                                                                                                                            *G         20210107 IMCT                IMCT                                                                                                                    WMF2101079.TXT
MAKK11087437202101D3               89828070300P3YK20210119000060SPEAKER ASM                   M IMCTM CM1    TNTH  09020IMKDC KA PTB  00015  K0                1431DES        000000000000 DENSO TEN (THAILAND)                                                                                                                                            *G         20210107 IMCT                IMCT                                                                                                                    WMF2101079.TXT
MAKK11087438202101N3               89828070300P3YK20210120000060SPEAKER ASM                   M IMCTM CM1    TNTH  09020IMKDC KA PTB  00015  K0                0231NES        000000000000 DENSO TEN (THAILAND)                                                                                                                                            *G         20210107 IMCT                IMCT                                                                                                                    WMF2101079.TXT
MAKK11087439202101D3               89828070300P3YK20210120000060SPEAKER ASM                   M IMCTM CM1    TNTH  09020IMKDC KA PTB  00015  K0                1431DES        000000000000 DENSO TEN (THAILAND)                                                                                                                                            *G         20210107 IMCT                IMCT                                                                                                                    WMF2101079.TXT
MAKK11087440202101N3               89828070300P3YK20210121000060SPEAKER ASM                   M IMCTM CM1    TNTH  09020IMKDC KA PTB  00015  K0                0231NES        000000000000 DENSO TEN (THAILAND)                                                                                                                                            *G         20210107 IMCT                IMCT                                                                                                                    WMF2101079.TXT
MAKK11087441202101D3               89828070300P3YK20210121000030SPEAKER ASM                   M IMCTM CM1    TNTH  09020IMKDC KA PTB  00015  K0                1431DES        000000000000 DENSO TEN (THAILAND)                                                                                                                                            *G         20210107 IMCT                IMCT                                                                                                                    WMF2101079.TXT
MAKK11087442202101N3               89828070300P3YK20210122000060SPEAKER ASM                   M IMCTM CM1    TNTH  09020IMKDC KA PTB  00015  K0                0231NES        000000000000 DENSO TEN (THAILAND)                                                                                                                                            *G         20210107 IMCT                IMCT                                                                                                                    WMF2101079.TXT
MAKK11087443202101D3               89828070300P3YK20210122000060SPEAKER ASM                   M IMCTM CM1    TNTH  09020IMKDC KA PTB  00015  K0                1431DES        000000000000 DENSO TEN (THAILAND)                                                                                                                                            *G         20210107 IMCT                IMCT                                                                                                                    WMF2101079.TXT
MAKK11087444202101N3               89828070300P3YK20210123000090SPEAKER ASM                   M IMCTM CM1    TNTH  09020IMKDC KA PTB  00015  K0                0231NES        000000000000 DENSO TEN (THAILAND)                                                                                                                                            *G         20210107 IMCT                IMCT                                                                                                                    WMF2101079.TXT
MAKK11087445202101D3               89828070300P3YK20210123000030SPEAKER ASM                   M IMCTM CM1    TNTH  09020IMKDC KA PTB  00015  K0                1431DES        000000000000 DENSO TEN (THAILAND)                                                                                                                                            *G         20210107 IMCT                IMCT                                                                                                                    WMF2101079.TXT
MAKK11087446202101N3               89828070300P3YK20210124000060SPEAKER ASM                   M IMCTM CM1    TNTH  09020IMKDC KA PTB  00015  K0                0231NES        000000000000 DENSO TEN (THAILAND)                                                                                                                                            *G         20210107 IMCT                IMCT                                                                                                                    WMF2101079.TXT
MAKK11087447202101D3               89831228410P3YK20210118000015RADIO;AM/FM,CD                M IMCTM CM1    TNTH  09020IMKDC KA   CPB00003  K0                1431DES        000000000000 DENSO TEN (THAILAND)                                                                                                                                            *G         20210107 IMCT                IMCT                                                                                                                    WMF2101079.TXT
MAKK11087448202101D3               89831228410P3YK20210119000015RADIO;AM/FM,CD                M IMCTM CM1    TNTH  09020IMKDC KA   CPB00003  K0                1431DES        000000000000 DENSO TEN (THAILAND)                                                                                                                                            *G         20210107 IMCT                IMCT                                                                                                                    WMF2101079.TXT
MAKK11087449202101N3               89831228410P3YK20210120000015RADIO;AM/FM,CD                M IMCTM CM1    TNTH  09020IMKDC KA   CPB00003  K0                0231NES        000000000000 DENSO TEN (THAILAND)                                                                                                                                            *G         20210107 IMCT                IMCT                                                                                                                    WMF2101079.TXT
MAKK11087450202101N3               89831228410P3YK20210121000015RADIO;AM/FM,CD                M IMCTM CM1    TNTH  09020IMKDC KA   CPB00003  K0                0231NES        000000000000 DENSO TEN (THAILAND)                                                                                                                                            *G         20210107 IMCT                IMCT                                                                                                                    WMF2101079.TXT
MAKK11094553202101D3               89828070100P3YK20210118000030SPEAKER ASM                   M IMCTM PK3    TNTH  09020IMKDC KA PTB  00004  K0                1431DES        000000000000 DENSO TEN (THAILAND)                                                                                                                                            *G         20210107 IMCT                IMCT                                                                                                                    WMF2101079.TXT
MAKK11094554202101D3               89828070200P3YK20210118000030SPEAKER ASM                   M IMCTM PK3    TNTH  09020IMKDC KA PTB  00005  K0                1431DES        000000000000 DENSO TEN (THAILAND)                                                                                                                                            *G         20210107 IMCT                IMCT                                                                                                                    WMF2101079.TXT
MAKK11094555202101D3               89828070300P3YK20210118000030SPEAKER ASM                   M IMCTM PK3    TNTH  09020IMKDC KA PTB  00015  K0                1431DES        000000000000 DENSO TEN (THAILAND)                                                                                                                                            *G         20210107 IMCT                IMCT                                                                                                                    WMF2101079.TXT
