REC2021021120210211ISUZU                              27     
MAKK12073534202102D3               89825451200P3YK20210224000030SPEAKER ASM;ROOF              M IMCTM CM1    TNTH  09020IMKDC KA PTB  00036  K0                1431DES        000000000000 DENSO TEN (THAILAND)                                                                                                                                            *G         20210211 IMCT                IMCT                                                                                                                    WMF2102112.TXT
MAKK12073535202102N3               89825451200P3YK20210226000030SPEAKER ASM;ROOF              M IMCTM CM1    TNTH  09020IMKDC KA PTB  00036  K0                0231NES        000000000000 DENSO TEN (THAILAND)                                                                                                                                            *G         20210211 IMCT                IMCT                                                                                                                    WMF2102112.TXT
MAKK12073536202102D3               89828070100P3YK20210222000060SPEAKER ASM                   M IMCTM CM1    TNTH  09020IMKDC KA PTB  00004  K0                1431DES        000000000000 DENSO TEN (THAILAND)                                                                                                                                            *G         20210211 IMCT                IMCT                                                                                                                    WMF2102112.TXT
MAKK12073537202102N3               89828070100P3YK20210223000060SPEAKER ASM                   M IMCTM CM1    TNTH  09020IMKDC KA PTB  00004  K0                0231NES        000000000000 DENSO TEN (THAILAND)                                                                                                                                            *G         20210211 IMCT                IMCT                                                                                                                    WMF2102112.TXT
MAKK12073538202102D3               89828070100P3YK20210223000090SPEAKER ASM                   M IMCTM CM1    TNTH  09020IMKDC KA PTB  00004  K0                1431DES        000000000000 DENSO TEN (THAILAND)                                                                                                                                            *G         20210211 IMCT                IMCT                                                                                                                    WMF2102112.TXT
MAKK12073539202102N3               89828070100P3YK20210224000090SPEAKER ASM                   M IMCTM CM1    TNTH  09020IMKDC KA PTB  00004  K0                0231NES        000000000000 DENSO TEN (THAILAND)                                                                                                                                            *G         20210211 IMCT                IMCT                                                                                                                    WMF2102112.TXT
MAKK12073540202102D3               89828070100P3YK20210224000060SPEAKER ASM                   M IMCTM CM1    TNTH  09020IMKDC KA PTB  00004  K0                1431DES        000000000000 DENSO TEN (THAILAND)                                                                                                                                            *G         20210211 IMCT                IMCT                                                                                                                    WMF2102112.TXT
MAKK12073541202102N3               89828070100P3YK20210225000060SPEAKER ASM                   M IMCTM CM1    TNTH  09020IMKDC KA PTB  00004  K0                0231NES        000000000000 DENSO TEN (THAILAND)                                                                                                                                            *G         20210211 IMCT                IMCT                                                                                                                    WMF2102112.TXT
MAKK12073542202102D3               89828070100P3YK20210225000090SPEAKER ASM                   M IMCTM CM1    TNTH  09020IMKDC KA PTB  00004  K0                1431DES        000000000000 DENSO TEN (THAILAND)                                                                                                                                            *G         20210211 IMCT                IMCT                                                                                                                    WMF2102112.TXT
MAKK12073543202102N3               89828070100P3YK20210226000090SPEAKER ASM                   M IMCTM CM1    TNTH  09020IMKDC KA PTB  00004  K0                0231NES        000000000000 DENSO TEN (THAILAND)                                                                                                                                            *G         20210211 IMCT                IMCT                                                                                                                    WMF2102112.TXT
MAKK12073544202102D3               89828070200P3YK20210222000030SPEAKER ASM                   M IMCTM CM1    TNTH  09020IMKDC KA PTB  00005  K0                1431DES        000000000000 DENSO TEN (THAILAND)                                                                                                                                            *G         20210211 IMCT                IMCT                                                                                                                    WMF2102112.TXT
MAKK12073545202102N3               89828070200P3YK20210223000030SPEAKER ASM                   M IMCTM CM1    TNTH  09020IMKDC KA PTB  00005  K0                0231NES        000000000000 DENSO TEN (THAILAND)                                                                                                                                            *G         20210211 IMCT                IMCT                                                                                                                    WMF2102112.TXT
MAKK12073546202102D3               89828070200P3YK20210223000030SPEAKER ASM                   M IMCTM CM1    TNTH  09020IMKDC KA PTB  00005  K0                1431DES        000000000000 DENSO TEN (THAILAND)                                                                                                                                            *G         20210211 IMCT                IMCT                                                                                                                    WMF2102112.TXT
MAKK12073547202102N3               89828070200P3YK20210224000030SPEAKER ASM                   M IMCTM CM1    TNTH  09020IMKDC KA PTB  00005  K0                0231NES        000000000000 DENSO TEN (THAILAND)                                                                                                                                            *G         20210211 IMCT                IMCT                                                                                                                    WMF2102112.TXT
MAKK12073548202102D3               89828070200P3YK20210224000030SPEAKER ASM                   M IMCTM CM1    TNTH  09020IMKDC KA PTB  00005  K0                1431DES        000000000000 DENSO TEN (THAILAND)                                                                                                                                            *G         20210211 IMCT                IMCT                                                                                                                    WMF2102112.TXT
MAKK12073549202102N3               89828070200P3YK20210225000030SPEAKER ASM                   M IMCTM CM1    TNTH  09020IMKDC KA PTB  00005  K0                0231NES        000000000000 DENSO TEN (THAILAND)                                                                                                                                            *G         20210211 IMCT                IMCT                                                                                                                    WMF2102112.TXT
MAKK12073550202102N3               89828070200P3YK20210226000060SPEAKER ASM                   M IMCTM CM1    TNTH  09020IMKDC KA PTB  00005  K0                0231NES        000000000000 DENSO TEN (THAILAND)                                                                                                                                            *G         20210211 IMCT                IMCT                                                                                                                    WMF2102112.TXT
MAKK12073551202102D3               89828070300P3YK20210222000030SPEAKER ASM                   M IMCTM CM1    TNTH  09020IMKDC KA PTB  00015  K0                1431DES        000000000000 DENSO TEN (THAILAND)                                                                                                                                            *G         20210211 IMCT                IMCT                                                                                                                    WMF2102112.TXT
MAKK12073552202102N3               89828070300P3YK20210223000030SPEAKER ASM                   M IMCTM CM1    TNTH  09020IMKDC KA PTB  00015  K0                0231NES        000000000000 DENSO TEN (THAILAND)                                                                                                                                            *G         20210211 IMCT                IMCT                                                                                                                    WMF2102112.TXT
MAKK12073553202102D3               89828070300P3YK20210223000030SPEAKER ASM                   M IMCTM CM1    TNTH  09020IMKDC KA PTB  00015  K0                1431DES        000000000000 DENSO TEN (THAILAND)                                                                                                                                            *G         20210211 IMCT                IMCT                                                                                                                    WMF2102112.TXT
MAKK12073554202102N3               89828070300P3YK20210224000030SPEAKER ASM                   M IMCTM CM1    TNTH  09020IMKDC KA PTB  00015  K0                0231NES        000000000000 DENSO TEN (THAILAND)                                                                                                                                            *G         20210211 IMCT                IMCT                                                                                                                    WMF2102112.TXT
MAKK12073555202102D3               89828070300P3YK20210224000030SPEAKER ASM                   M IMCTM CM1    TNTH  09020IMKDC KA PTB  00015  K0                1431DES        000000000000 DENSO TEN (THAILAND)                                                                                                                                            *G         20210211 IMCT                IMCT                                                                                                                    WMF2102112.TXT
MAKK12073556202102N3               89828070300P3YK20210225000030SPEAKER ASM                   M IMCTM CM1    TNTH  09020IMKDC KA PTB  00015  K0                0231NES        000000000000 DENSO TEN (THAILAND)                                                                                                                                            *G         20210211 IMCT                IMCT                                                                                                                    WMF2102112.TXT
MAKK12073557202102N3               89828070300P3YK20210226000060SPEAKER ASM                   M IMCTM CM1    TNTH  09020IMKDC KA PTB  00015  K0                0231NES        000000000000 DENSO TEN (THAILAND)                                                                                                                                            *G         20210211 IMCT                IMCT                                                                                                                    WMF2102112.TXT
MAKK12077865202102D3               89828070100P3YK20210225000030SPEAKER ASM                   M IMCTM PK3    TNTH  09020IMKDC KA PTB  00004  K0                1431DES        000000000000 DENSO TEN (THAILAND)                                                                                                                                            *G         20210211 IMCT                IMCT                                                                                                                    WMF2102112.TXT
MAKK12077866202102D3               89828070200P3YK20210225000030SPEAKER ASM                   M IMCTM PK3    TNTH  09020IMKDC KA PTB  00005  K0                1431DES        000000000000 DENSO TEN (THAILAND)                                                                                                                                            *G         20210211 IMCT                IMCT                                                                                                                    WMF2102112.TXT
MAKK12077867202102D3               89828070300P3YK20210225000030SPEAKER ASM                   M IMCTM PK3    TNTH  09020IMKDC KA PTB  00015  K0                1431DES        000000000000 DENSO TEN (THAILAND)                                                                                                                                            *G         20210211 IMCT                IMCT                                                                                                                    WMF2102112.TXT
