REC2021020420210204ISUZU                              27     
MAKK12056436202102D3               89825451200P3YK20210215000030SPEAKER ASM;ROOF              M IMCTM CM1    TNTH  09020IMKDC KA PTB  00036  K0                1431DES        000000000000 DENSO TEN (THAILAND)                                                                                                                                            *G         20210204 IMCT                IMCT                                                                                                                    WMF2102047.TXT
MAKK12056437202102D3               89828070100P3YK20210215000060SPEAKER ASM                   M IMCTM CM1    TNTH  09020IMKDC KA PTB  00004  K0                1431DES        000000000000 DENSO TEN (THAILAND)                                                                                                                                            *G         20210204 IMCT                IMCT                                                                                                                    WMF2102047.TXT
MAKK12056438202102N3               89828070100P3YK20210216000030SPEAKER ASM                   M IMCTM CM1    TNTH  09020IMKDC KA PTB  00004  K0                0231NES        000000000000 DENSO TEN (THAILAND)                                                                                                                                            *G         20210204 IMCT                IMCT                                                                                                                    WMF2102047.TXT
MAKK12056439202102D3               89828070100P3YK20210216000060SPEAKER ASM                   M IMCTM CM1    TNTH  09020IMKDC KA PTB  00004  K0                1431DES        000000000000 DENSO TEN (THAILAND)                                                                                                                                            *G         20210204 IMCT                IMCT                                                                                                                    WMF2102047.TXT
MAKK12056440202102N3               89828070100P3YK20210217000060SPEAKER ASM                   M IMCTM CM1    TNTH  09020IMKDC KA PTB  00004  K0                0231NES        000000000000 DENSO TEN (THAILAND)                                                                                                                                            *G         20210204 IMCT                IMCT                                                                                                                    WMF2102047.TXT
MAKK12056441202102D3               89828070100P3YK20210217000030SPEAKER ASM                   M IMCTM CM1    TNTH  09020IMKDC KA PTB  00004  K0                1431DES        000000000000 DENSO TEN (THAILAND)                                                                                                                                            *G         20210204 IMCT                IMCT                                                                                                                    WMF2102047.TXT
MAKK12056442202102N3               89828070100P3YK20210218000060SPEAKER ASM                   M IMCTM CM1    TNTH  09020IMKDC KA PTB  00004  K0                0231NES        000000000000 DENSO TEN (THAILAND)                                                                                                                                            *G         20210204 IMCT                IMCT                                                                                                                    WMF2102047.TXT
MAKK12056443202102D3               89828070100P3YK20210218000060SPEAKER ASM                   M IMCTM CM1    TNTH  09020IMKDC KA PTB  00004  K0                1431DES        000000000000 DENSO TEN (THAILAND)                                                                                                                                            *G         20210204 IMCT                IMCT                                                                                                                    WMF2102047.TXT
MAKK12056444202102N3               89828070100P3YK20210219000060SPEAKER ASM                   M IMCTM CM1    TNTH  09020IMKDC KA PTB  00004  K0                0231NES        000000000000 DENSO TEN (THAILAND)                                                                                                                                            *G         20210204 IMCT                IMCT                                                                                                                    WMF2102047.TXT
MAKK12056445202102D3               89828070100P3YK20210219000060SPEAKER ASM                   M IMCTM CM1    TNTH  09020IMKDC KA PTB  00004  K0                1431DES        000000000000 DENSO TEN (THAILAND)                                                                                                                                            *G         20210204 IMCT                IMCT                                                                                                                    WMF2102047.TXT
MAKK12056446202102N3               89828070100P3YK20210220000090SPEAKER ASM                   M IMCTM CM1    TNTH  09020IMKDC KA PTB  00004  K0                0231NES        000000000000 DENSO TEN (THAILAND)                                                                                                                                            *G         20210204 IMCT                IMCT                                                                                                                    WMF2102047.TXT
MAKK12056447202102D3               89828070200P3YK20210215000030SPEAKER ASM                   M IMCTM CM1    TNTH  09020IMKDC KA PTB  00005  K0                1431DES        000000000000 DENSO TEN (THAILAND)                                                                                                                                            *G         20210204 IMCT                IMCT                                                                                                                    WMF2102047.TXT
MAKK12056448202102D3               89828070200P3YK20210216000030SPEAKER ASM                   M IMCTM CM1    TNTH  09020IMKDC KA PTB  00005  K0                1431DES        000000000000 DENSO TEN (THAILAND)                                                                                                                                            *G         20210204 IMCT                IMCT                                                                                                                    WMF2102047.TXT
MAKK12056449202102N3               89828070200P3YK20210217000030SPEAKER ASM                   M IMCTM CM1    TNTH  09020IMKDC KA PTB  00005  K0                0231NES        000000000000 DENSO TEN (THAILAND)                                                                                                                                            *G         20210204 IMCT                IMCT                                                                                                                    WMF2102047.TXT
MAKK12056450202102D3               89828070200P3YK20210217000030SPEAKER ASM                   M IMCTM CM1    TNTH  09020IMKDC KA PTB  00005  K0                1431DES        000000000000 DENSO TEN (THAILAND)                                                                                                                                            *G         20210204 IMCT                IMCT                                                                                                                    WMF2102047.TXT
MAKK12056451202102N3               89828070200P3YK20210218000030SPEAKER ASM                   M IMCTM CM1    TNTH  09020IMKDC KA PTB  00005  K0                0231NES        000000000000 DENSO TEN (THAILAND)                                                                                                                                            *G         20210204 IMCT                IMCT                                                                                                                    WMF2102047.TXT
MAKK12056452202102N3               89828070200P3YK20210219000030SPEAKER ASM                   M IMCTM CM1    TNTH  09020IMKDC KA PTB  00005  K0                0231NES        000000000000 DENSO TEN (THAILAND)                                                                                                                                            *G         20210204 IMCT                IMCT                                                                                                                    WMF2102047.TXT
MAKK12056453202102N3               89828070200P3YK20210220000030SPEAKER ASM                   M IMCTM CM1    TNTH  09020IMKDC KA PTB  00005  K0                0231NES        000000000000 DENSO TEN (THAILAND)                                                                                                                                            *G         20210204 IMCT                IMCT                                                                                                                    WMF2102047.TXT
MAKK12056454202102D3               89828070300P3YK20210215000030SPEAKER ASM                   M IMCTM CM1    TNTH  09020IMKDC KA PTB  00015  K0                1431DES        000000000000 DENSO TEN (THAILAND)                                                                                                                                            *G         20210204 IMCT                IMCT                                                                                                                    WMF2102047.TXT
MAKK12056455202102D3               89828070300P3YK20210216000030SPEAKER ASM                   M IMCTM CM1    TNTH  09020IMKDC KA PTB  00015  K0                1431DES        000000000000 DENSO TEN (THAILAND)                                                                                                                                            *G         20210204 IMCT                IMCT                                                                                                                    WMF2102047.TXT
MAKK12056456202102N3               89828070300P3YK20210217000030SPEAKER ASM                   M IMCTM CM1    TNTH  09020IMKDC KA PTB  00015  K0                0231NES        000000000000 DENSO TEN (THAILAND)                                                                                                                                            *G         20210204 IMCT                IMCT                                                                                                                    WMF2102047.TXT
MAKK12056457202102D3               89828070300P3YK20210217000030SPEAKER ASM                   M IMCTM CM1    TNTH  09020IMKDC KA PTB  00015  K0                1431DES        000000000000 DENSO TEN (THAILAND)                                                                                                                                            *G         20210204 IMCT                IMCT                                                                                                                    WMF2102047.TXT
MAKK12056458202102N3               89828070300P3YK20210218000030SPEAKER ASM                   M IMCTM CM1    TNTH  09020IMKDC KA PTB  00015  K0                0231NES        000000000000 DENSO TEN (THAILAND)                                                                                                                                            *G         20210204 IMCT                IMCT                                                                                                                    WMF2102047.TXT
MAKK12056459202102N3               89828070300P3YK20210219000060SPEAKER ASM                   M IMCTM CM1    TNTH  09020IMKDC KA PTB  00015  K0                0231NES        000000000000 DENSO TEN (THAILAND)                                                                                                                                            *G         20210204 IMCT                IMCT                                                                                                                    WMF2102047.TXT
MAKK12056460202102N3               89828070300P3YK20210220000060SPEAKER ASM                   M IMCTM CM1    TNTH  09020IMKDC KA PTB  00015  K0                0231NES        000000000000 DENSO TEN (THAILAND)                                                                                                                                            *G         20210204 IMCT                IMCT                                                                                                                    WMF2102047.TXT
MAKK12061453202102D3               89828070100P3YK20210215000030SPEAKER ASM                   M IMCTM PK3    TNTH  09020IMKDC KA PTB  00004  K0                1431DES        000000000000 DENSO TEN (THAILAND)                                                                                                                                            *G         20210204 IMCT                IMCT                                                                                                                    WMF2102047.TXT
MAKK12061454202102D3               89828070200P3YK20210215000030SPEAKER ASM                   M IMCTM PK3    TNTH  09020IMKDC KA PTB  00005  K0                1431DES        000000000000 DENSO TEN (THAILAND)                                                                                                                                            *G         20210204 IMCT                IMCT                                                                                                                    WMF2102047.TXT
