REC2021022520210225ISUZU                              38     
MAKK12114237202102D3               89825451200P3YK20210310000030SPEAKER ASM;ROOF              M IMCTM CM1    TNTH  09020IMKDC KA PTB  00036  K0                1431DES        000000000000 DENSO TEN (THAILAND)                                                                                                                                            *G         20210225 IMCT                IMCT                                                                                                                    WMF2102254.TXT
MAKK12114238202102D3               89825451200P3YK20210311000030SPEAKER ASM;ROOF              M IMCTM CM1    TNTH  09020IMKDC KA PTB  00036  K0                1431DES        000000000000 DENSO TEN (THAILAND)                                                                                                                                            *G         20210225 IMCT                IMCT                                                                                                                    WMF2102254.TXT
MAKK12114239202102D3               89825451200P3YK20210312000030SPEAKER ASM;ROOF              M IMCTM CM1    TNTH  09020IMKDC KA PTB  00036  K0                1431DES        000000000000 DENSO TEN (THAILAND)                                                                                                                                            *G         20210225 IMCT                IMCT                                                                                                                    WMF2102254.TXT
MAKK12114240202102N3               89828070100P3YK20210309000090SPEAKER ASM                   M IMCTM CM1    TNTH  09020IMKDC KA PTB  00004  K0                0231NES        000000000000 DENSO TEN (THAILAND)                                                                                                                                            *G         20210225 IMCT                IMCT                                                                                                                    WMF2102254.TXT
MAKK12114241202102D3               89828070100P3YK20210309000060SPEAKER ASM                   M IMCTM CM1    TNTH  09020IMKDC KA PTB  00004  K0                1431DES        000000000000 DENSO TEN (THAILAND)                                                                                                                                            *G         20210225 IMCT                IMCT                                                                                                                    WMF2102254.TXT
MAKK12114242202102N3               89828070100P3YK20210310000060SPEAKER ASM                   M IMCTM CM1    TNTH  09020IMKDC KA PTB  00004  K0                0231NES        000000000000 DENSO TEN (THAILAND)                                                                                                                                            *G         20210225 IMCT                IMCT                                                                                                                    WMF2102254.TXT
MAKK12114243202102D3               89828070100P3YK20210310000060SPEAKER ASM                   M IMCTM CM1    TNTH  09020IMKDC KA PTB  00004  K0                1431DES        000000000000 DENSO TEN (THAILAND)                                                                                                                                            *G         20210225 IMCT                IMCT                                                                                                                    WMF2102254.TXT
MAKK12114244202102N3               89828070100P3YK20210311000060SPEAKER ASM                   M IMCTM CM1    TNTH  09020IMKDC KA PTB  00004  K0                0231NES        000000000000 DENSO TEN (THAILAND)                                                                                                                                            *G         20210225 IMCT                IMCT                                                                                                                    WMF2102254.TXT
MAKK12114245202102D3               89828070100P3YK20210311000060SPEAKER ASM                   M IMCTM CM1    TNTH  09020IMKDC KA PTB  00004  K0                1431DES        000000000000 DENSO TEN (THAILAND)                                                                                                                                            *G         20210225 IMCT                IMCT                                                                                                                    WMF2102254.TXT
MAKK12114246202102N3               89828070100P3YK20210312000120SPEAKER ASM                   M IMCTM CM1    TNTH  09020IMKDC KA PTB  00004  K0                0231NES        000000000000 DENSO TEN (THAILAND)                                                                                                                                            *G         20210225 IMCT                IMCT                                                                                                                    WMF2102254.TXT
MAKK12114247202102D3               89828070100P3YK20210312000060SPEAKER ASM                   M IMCTM CM1    TNTH  09020IMKDC KA PTB  00004  K0                1431DES        000000000000 DENSO TEN (THAILAND)                                                                                                                                            *G         20210225 IMCT                IMCT                                                                                                                    WMF2102254.TXT
MAKK12114248202102N3               89828070100P3YK20210313000030SPEAKER ASM                   M IMCTM CM1    TNTH  09020IMKDC KA PTB  00004  K0                0231NES        000000000000 DENSO TEN (THAILAND)                                                                                                                                            *G         20210225 IMCT                IMCT                                                                                                                    WMF2102254.TXT
MAKK12114249202102D3               89828070100P3YK20210313000090SPEAKER ASM                   M IMCTM CM1    TNTH  09020IMKDC KA PTB  00004  K0                1431DES        000000000000 DENSO TEN (THAILAND)                                                                                                                                            *G         20210225 IMCT                IMCT                                                                                                                    WMF2102254.TXT
MAKK12114250202102N3               89828070100P3YK20210314000060SPEAKER ASM                   M IMCTM CM1    TNTH  09020IMKDC KA PTB  00004  K0                0231NES        000000000000 DENSO TEN (THAILAND)                                                                                                                                            *G         20210225 IMCT                IMCT                                                                                                                    WMF2102254.TXT
MAKK12114251202102N3               89828070200P3YK20210309000090SPEAKER ASM                   M IMCTM CM1    TNTH  09020IMKDC KA PTB  00005  K0                0231NES        000000000000 DENSO TEN (THAILAND)                                                                                                                                            *G         20210225 IMCT                IMCT                                                                                                                    WMF2102254.TXT
MAKK12114252202102D3               89828070200P3YK20210309000030SPEAKER ASM                   M IMCTM CM1    TNTH  09020IMKDC KA PTB  00005  K0                1431DES        000000000000 DENSO TEN (THAILAND)                                                                                                                                            *G         20210225 IMCT                IMCT                                                                                                                    WMF2102254.TXT
MAKK12114253202102N3               89828070200P3YK20210310000030SPEAKER ASM                   M IMCTM CM1    TNTH  09020IMKDC KA PTB  00005  K0                0231NES        000000000000 DENSO TEN (THAILAND)                                                                                                                                            *G         20210225 IMCT                IMCT                                                                                                                    WMF2102254.TXT
MAKK12114254202102N3               89828070200P3YK20210311000030SPEAKER ASM                   M IMCTM CM1    TNTH  09020IMKDC KA PTB  00005  K0                0231NES        000000000000 DENSO TEN (THAILAND)                                                                                                                                            *G         20210225 IMCT                IMCT                                                                                                                    WMF2102254.TXT
MAKK12114255202102N3               89828070200P3YK20210312000030SPEAKER ASM                   M IMCTM CM1    TNTH  09020IMKDC KA PTB  00005  K0                0231NES        000000000000 DENSO TEN (THAILAND)                                                                                                                                            *G         20210225 IMCT                IMCT                                                                                                                    WMF2102254.TXT
MAKK12114256202102D3               89828070200P3YK20210312000060SPEAKER ASM                   M IMCTM CM1    TNTH  09020IMKDC KA PTB  00005  K0                1431DES        000000000000 DENSO TEN (THAILAND)                                                                                                                                            *G         20210225 IMCT                IMCT                                                                                                                    WMF2102254.TXT
MAKK12114257202102D3               89828070200P3YK20210313000060SPEAKER ASM                   M IMCTM CM1    TNTH  09020IMKDC KA PTB  00005  K0                1431DES        000000000000 DENSO TEN (THAILAND)                                                                                                                                            *G         20210225 IMCT                IMCT                                                                                                                    WMF2102254.TXT
MAKK12114258202102N3               89828070200P3YK20210314000060SPEAKER ASM                   M IMCTM CM1    TNTH  09020IMKDC KA PTB  00005  K0                0231NES        000000000000 DENSO TEN (THAILAND)                                                                                                                                            *G         20210225 IMCT                IMCT                                                                                                                    WMF2102254.TXT
MAKK12114259202102N3               89828070300P3YK20210309000090SPEAKER ASM                   M IMCTM CM1    TNTH  09020IMKDC KA PTB  00015  K0                0231NES        000000000000 DENSO TEN (THAILAND)                                                                                                                                            *G         20210225 IMCT                IMCT                                                                                                                    WMF2102254.TXT
MAKK12114260202102D3               89828070300P3YK20210309000030SPEAKER ASM                   M IMCTM CM1    TNTH  09020IMKDC KA PTB  00015  K0                1431DES        000000000000 DENSO TEN (THAILAND)                                                                                                                                            *G         20210225 IMCT                IMCT                                                                                                                    WMF2102254.TXT
MAKK12114261202102N3               89828070300P3YK20210310000030SPEAKER ASM                   M IMCTM CM1    TNTH  09020IMKDC KA PTB  00015  K0                0231NES        000000000000 DENSO TEN (THAILAND)                                                                                                                                            *G         20210225 IMCT                IMCT                                                                                                                    WMF2102254.TXT
MAKK12114262202102D3               89828070300P3YK20210310000030SPEAKER ASM                   M IMCTM CM1    TNTH  09020IMKDC KA PTB  00015  K0                1431DES        000000000000 DENSO TEN (THAILAND)                                                                                                                                            *G         20210225 IMCT                IMCT                                                                                                                    WMF2102254.TXT
MAKK12114263202102N3               89828070300P3YK20210311000030SPEAKER ASM                   M IMCTM CM1    TNTH  09020IMKDC KA PTB  00015  K0                0231NES        000000000000 DENSO TEN (THAILAND)                                                                                                                                            *G         20210225 IMCT                IMCT                                                                                                                    WMF2102254.TXT
MAKK12114264202102D3               89828070300P3YK20210311000030SPEAKER ASM                   M IMCTM CM1    TNTH  09020IMKDC KA PTB  00015  K0                1431DES        000000000000 DENSO TEN (THAILAND)                                                                                                                                            *G         20210225 IMCT                IMCT                                                                                                                    WMF2102254.TXT
MAKK12114265202102N3               89828070300P3YK20210312000030SPEAKER ASM                   M IMCTM CM1    TNTH  09020IMKDC KA PTB  00015  K0                0231NES        000000000000 DENSO TEN (THAILAND)                                                                                                                                            *G         20210225 IMCT                IMCT                                                                                                                    WMF2102254.TXT
MAKK12114266202102D3               89828070300P3YK20210312000060SPEAKER ASM                   M IMCTM CM1    TNTH  09020IMKDC KA PTB  00015  K0                1431DES        000000000000 DENSO TEN (THAILAND)                                                                                                                                            *G         20210225 IMCT                IMCT                                                                                                                    WMF2102254.TXT
MAKK12114267202102N3               89828070300P3YK20210313000030SPEAKER ASM                   M IMCTM CM1    TNTH  09020IMKDC KA PTB  00015  K0                0231NES        000000000000 DENSO TEN (THAILAND)                                                                                                                                            *G         20210225 IMCT                IMCT                                                                                                                    WMF2102254.TXT
MAKK12114268202102D3               89828070300P3YK20210313000090SPEAKER ASM                   M IMCTM CM1    TNTH  09020IMKDC KA PTB  00015  K0                1431DES        000000000000 DENSO TEN (THAILAND)                                                                                                                                            *G         20210225 IMCT                IMCT                                                                                                                    WMF2102254.TXT
MAKK12114269202102N3               89828070300P3YK20210314000060SPEAKER ASM                   M IMCTM CM1    TNTH  09020IMKDC KA PTB  00015  K0                0231NES        000000000000 DENSO TEN (THAILAND)                                                                                                                                            *G         20210225 IMCT                IMCT                                                                                                                    WMF2102254.TXT
MAKK12120856202102D3               89828070100P3YK20210308000030SPEAKER ASM                   M IMCTM PK3    TNTH  09020IMKDC KA PTB  00004  K0                1431DES        000000000000 DENSO TEN (THAILAND)                                                                                                                                            *G         20210225 IMCT                IMCT                                                                                                                    WMF2102254.TXT
MAKK12120857202102D3               89828070100P3YK20210310000030SPEAKER ASM                   M IMCTM PK3    TNTH  09020IMKDC KA PTB  00004  K0                1431DES        000000000000 DENSO TEN (THAILAND)                                                                                                                                            *G         20210225 IMCT                IMCT                                                                                                                    WMF2102254.TXT
MAKK12120858202102D3               89828070200P3YK20210308000030SPEAKER ASM                   M IMCTM PK3    TNTH  09020IMKDC KA PTB  00005  K0                1431DES        000000000000 DENSO TEN (THAILAND)                                                                                                                                            *G         20210225 IMCT                IMCT                                                                                                                    WMF2102254.TXT
MAKK12120859202102D3               89828070200P3YK20210310000030SPEAKER ASM                   M IMCTM PK3    TNTH  09020IMKDC KA PTB  00005  K0                1431DES        000000000000 DENSO TEN (THAILAND)                                                                                                                                            *G         20210225 IMCT                IMCT                                                                                                                    WMF2102254.TXT
MAKK12120860202102D3               89828070300P3YK20210308000030SPEAKER ASM                   M IMCTM PK3    TNTH  09020IMKDC KA PTB  00015  K0                1431DES        000000000000 DENSO TEN (THAILAND)                                                                                                                                            *G         20210225 IMCT                IMCT                                                                                                                    WMF2102254.TXT
