REC2021021820210218ISUZU                              34     
MAKK12091559202102D3               89825451200P3YK20210301000030SPEAKER ASM;ROOF              M IMCTM CM1    TNTH  09020IMKDC KA PTB  00036  K0                1431DES        000000000000 DENSO TEN (THAILAND)                                                                                                                                            *G         20210218 IMCT                IMCT                                                                                                                    WMF2102182.TXT
MAKK12091560202102D3               89825451200P3YK20210303000030SPEAKER ASM;ROOF              M IMCTM CM1    TNTH  09020IMKDC KA PTB  00036  K0                1431DES        000000000000 DENSO TEN (THAILAND)                                                                                                                                            *G         20210218 IMCT                IMCT                                                                                                                    WMF2102182.TXT
MAKK12091561202102N3               89825451200P3YK20210304000030SPEAKER ASM;ROOF              M IMCTM CM1    TNTH  09020IMKDC KA PTB  00036  K0                0231NES        000000000000 DENSO TEN (THAILAND)                                                                                                                                            *G         20210218 IMCT                IMCT                                                                                                                    WMF2102182.TXT
MAKK12091562202102D3               89825451200P3YK20210304000030SPEAKER ASM;ROOF              M IMCTM CM1    TNTH  09020IMKDC KA PTB  00036  K0                1431DES        000000000000 DENSO TEN (THAILAND)                                                                                                                                            *G         20210218 IMCT                IMCT                                                                                                                    WMF2102182.TXT
MAKK12091563202102D3               89828070100P3YK20210301000090SPEAKER ASM                   M IMCTM CM1    TNTH  09020IMKDC KA PTB  00004  K0                1431DES        000000000000 DENSO TEN (THAILAND)                                                                                                                                            *G         20210218 IMCT                IMCT                                                                                                                    WMF2102182.TXT
MAKK12091564202102N3               89828070100P3YK20210302000060SPEAKER ASM                   M IMCTM CM1    TNTH  09020IMKDC KA PTB  00004  K0                0231NES        000000000000 DENSO TEN (THAILAND)                                                                                                                                            *G         20210218 IMCT                IMCT                                                                                                                    WMF2102182.TXT
MAKK12091565202102D3               89828070100P3YK20210302000090SPEAKER ASM                   M IMCTM CM1    TNTH  09020IMKDC KA PTB  00004  K0                1431DES        000000000000 DENSO TEN (THAILAND)                                                                                                                                            *G         20210218 IMCT                IMCT                                                                                                                    WMF2102182.TXT
MAKK12091566202102N3               89828070100P3YK20210303000090SPEAKER ASM                   M IMCTM CM1    TNTH  09020IMKDC KA PTB  00004  K0                0231NES        000000000000 DENSO TEN (THAILAND)                                                                                                                                            *G         20210218 IMCT                IMCT                                                                                                                    WMF2102182.TXT
MAKK12091567202102D3               89828070100P3YK20210303000090SPEAKER ASM                   M IMCTM CM1    TNTH  09020IMKDC KA PTB  00004  K0                1431DES        000000000000 DENSO TEN (THAILAND)                                                                                                                                            *G         20210218 IMCT                IMCT                                                                                                                    WMF2102182.TXT
MAKK12091568202102N3               89828070100P3YK20210304000090SPEAKER ASM                   M IMCTM CM1    TNTH  09020IMKDC KA PTB  00004  K0                0231NES        000000000000 DENSO TEN (THAILAND)                                                                                                                                            *G         20210218 IMCT                IMCT                                                                                                                    WMF2102182.TXT
MAKK12091569202102D3               89828070100P3YK20210304000090SPEAKER ASM                   M IMCTM CM1    TNTH  09020IMKDC KA PTB  00004  K0                1431DES        000000000000 DENSO TEN (THAILAND)                                                                                                                                            *G         20210218 IMCT                IMCT                                                                                                                    WMF2102182.TXT
MAKK12091570202102N3               89828070100P3YK20210305000090SPEAKER ASM                   M IMCTM CM1    TNTH  09020IMKDC KA PTB  00004  K0                0231NES        000000000000 DENSO TEN (THAILAND)                                                                                                                                            *G         20210218 IMCT                IMCT                                                                                                                    WMF2102182.TXT
MAKK12091571202102D3               89828070100P3YK20210305000090SPEAKER ASM                   M IMCTM CM1    TNTH  09020IMKDC KA PTB  00004  K0                1431DES        000000000000 DENSO TEN (THAILAND)                                                                                                                                            *G         20210218 IMCT                IMCT                                                                                                                    WMF2102182.TXT
MAKK12091572202102D3               89828070200P3YK20210301000030SPEAKER ASM                   M IMCTM CM1    TNTH  09020IMKDC KA PTB  00005  K0                1431DES        000000000000 DENSO TEN (THAILAND)                                                                                                                                            *G         20210218 IMCT                IMCT                                                                                                                    WMF2102182.TXT
MAKK12091573202102N3               89828070200P3YK20210302000030SPEAKER ASM                   M IMCTM CM1    TNTH  09020IMKDC KA PTB  00005  K0                0231NES        000000000000 DENSO TEN (THAILAND)                                                                                                                                            *G         20210218 IMCT                IMCT                                                                                                                    WMF2102182.TXT
MAKK12091574202102D3               89828070200P3YK20210302000060SPEAKER ASM                   M IMCTM CM1    TNTH  09020IMKDC KA PTB  00005  K0                1431DES        000000000000 DENSO TEN (THAILAND)                                                                                                                                            *G         20210218 IMCT                IMCT                                                                                                                    WMF2102182.TXT
MAKK12091575202102N3               89828070200P3YK20210303000060SPEAKER ASM                   M IMCTM CM1    TNTH  09020IMKDC KA PTB  00005  K0                0231NES        000000000000 DENSO TEN (THAILAND)                                                                                                                                            *G         20210218 IMCT                IMCT                                                                                                                    WMF2102182.TXT
MAKK12091576202102D3               89828070200P3YK20210303000030SPEAKER ASM                   M IMCTM CM1    TNTH  09020IMKDC KA PTB  00005  K0                1431DES        000000000000 DENSO TEN (THAILAND)                                                                                                                                            *G         20210218 IMCT                IMCT                                                                                                                    WMF2102182.TXT
MAKK12091577202102N3               89828070200P3YK20210304000060SPEAKER ASM                   M IMCTM CM1    TNTH  09020IMKDC KA PTB  00005  K0                0231NES        000000000000 DENSO TEN (THAILAND)                                                                                                                                            *G         20210218 IMCT                IMCT                                                                                                                    WMF2102182.TXT
MAKK12091578202102D3               89828070200P3YK20210304000030SPEAKER ASM                   M IMCTM CM1    TNTH  09020IMKDC KA PTB  00005  K0                1431DES        000000000000 DENSO TEN (THAILAND)                                                                                                                                            *G         20210218 IMCT                IMCT                                                                                                                    WMF2102182.TXT
MAKK12091579202102N3               89828070200P3YK20210305000030SPEAKER ASM                   M IMCTM CM1    TNTH  09020IMKDC KA PTB  00005  K0                0231NES        000000000000 DENSO TEN (THAILAND)                                                                                                                                            *G         20210218 IMCT                IMCT                                                                                                                    WMF2102182.TXT
MAKK12091580202102D3               89828070200P3YK20210305000030SPEAKER ASM                   M IMCTM CM1    TNTH  09020IMKDC KA PTB  00005  K0                1431DES        000000000000 DENSO TEN (THAILAND)                                                                                                                                            *G         20210218 IMCT                IMCT                                                                                                                    WMF2102182.TXT
MAKK12091581202102D3               89828070300P3YK20210301000030SPEAKER ASM                   M IMCTM CM1    TNTH  09020IMKDC KA PTB  00015  K0                1431DES        000000000000 DENSO TEN (THAILAND)                                                                                                                                            *G         20210218 IMCT                IMCT                                                                                                                    WMF2102182.TXT
MAKK12091582202102N3               89828070300P3YK20210302000030SPEAKER ASM                   M IMCTM CM1    TNTH  09020IMKDC KA PTB  00015  K0                0231NES        000000000000 DENSO TEN (THAILAND)                                                                                                                                            *G         20210218 IMCT                IMCT                                                                                                                    WMF2102182.TXT
MAKK12091583202102D3               89828070300P3YK20210302000060SPEAKER ASM                   M IMCTM CM1    TNTH  09020IMKDC KA PTB  00015  K0                1431DES        000000000000 DENSO TEN (THAILAND)                                                                                                                                            *G         20210218 IMCT                IMCT                                                                                                                    WMF2102182.TXT
MAKK12091584202102N3               89828070300P3YK20210303000060SPEAKER ASM                   M IMCTM CM1    TNTH  09020IMKDC KA PTB  00015  K0                0231NES        000000000000 DENSO TEN (THAILAND)                                                                                                                                            *G         20210218 IMCT                IMCT                                                                                                                    WMF2102182.TXT
MAKK12091585202102D3               89828070300P3YK20210303000030SPEAKER ASM                   M IMCTM CM1    TNTH  09020IMKDC KA PTB  00015  K0                1431DES        000000000000 DENSO TEN (THAILAND)                                                                                                                                            *G         20210218 IMCT                IMCT                                                                                                                    WMF2102182.TXT
MAKK12091586202102N3               89828070300P3YK20210304000060SPEAKER ASM                   M IMCTM CM1    TNTH  09020IMKDC KA PTB  00015  K0                0231NES        000000000000 DENSO TEN (THAILAND)                                                                                                                                            *G         20210218 IMCT                IMCT                                                                                                                    WMF2102182.TXT
MAKK12091587202102D3               89828070300P3YK20210304000060SPEAKER ASM                   M IMCTM CM1    TNTH  09020IMKDC KA PTB  00015  K0                1431DES        000000000000 DENSO TEN (THAILAND)                                                                                                                                            *G         20210218 IMCT                IMCT                                                                                                                    WMF2102182.TXT
MAKK12091588202102N3               89828070300P3YK20210305000030SPEAKER ASM                   M IMCTM CM1    TNTH  09020IMKDC KA PTB  00015  K0                0231NES        000000000000 DENSO TEN (THAILAND)                                                                                                                                            *G         20210218 IMCT                IMCT                                                                                                                    WMF2102182.TXT
MAKK12091589202102D3               89828070300P3YK20210305000030SPEAKER ASM                   M IMCTM CM1    TNTH  09020IMKDC KA PTB  00015  K0                1431DES        000000000000 DENSO TEN (THAILAND)                                                                                                                                            *G         20210218 IMCT                IMCT                                                                                                                    WMF2102182.TXT
MAKK12096650202102D3               89828070100P3YK20210302000030SPEAKER ASM                   M IMCTM PK3    TNTH  09020IMKDC KA PTB  00004  K0                1431DES        000000000000 DENSO TEN (THAILAND)                                                                                                                                            *G         20210218 IMCT                IMCT                                                                                                                    WMF2102182.TXT
MAKK12096651202102D3               89828070200P3YK20210302000030SPEAKER ASM                   M IMCTM PK3    TNTH  09020IMKDC KA PTB  00005  K0                1431DES        000000000000 DENSO TEN (THAILAND)                                                                                                                                            *G         20210218 IMCT                IMCT                                                                                                                    WMF2102182.TXT
MAKK12096652202102D3               89828070300P3YK20210302000030SPEAKER ASM                   M IMCTM PK3    TNTH  09020IMKDC KA PTB  00015  K0                1431DES        000000000000 DENSO TEN (THAILAND)                                                                                                                                            *G         20210218 IMCT                IMCT                                                                                                                    WMF2102182.TXT
