REC2021031120210311ISUZU                              31     
MAKK13057535202103N3               89825451200P3YK20210326000030SPEAKER ASM;ROOF              M IMCTM CM1    TNTH  09020IMKDC KA PTB  00036  K0                0231NES        000000000000 DENSO TEN (THAILAND)                                                                                                                                            *G         20210311 IMCT                IMCT                                                                                                                    WMF2103113.TXT
MAKK13057536202103D3               89828070100P3YK20210322000120SPEAKER ASM                   M IMCTM CM1    TNTH  09020IMKDC KA PTB  00004  K0                1431DES        000000000000 DENSO TEN (THAILAND)                                                                                                                                            *G         20210311 IMCT                IMCT                                                                                                                    WMF2103113.TXT
MAKK13057537202103N3               89828070100P3YK20210323000090SPEAKER ASM                   M IMCTM CM1    TNTH  09020IMKDC KA PTB  00004  K0                0231NES        000000000000 DENSO TEN (THAILAND)                                                                                                                                            *G         20210311 IMCT                IMCT                                                                                                                    WMF2103113.TXT
MAKK13057538202103D3               89828070100P3YK20210323000120SPEAKER ASM                   M IMCTM CM1    TNTH  09020IMKDC KA PTB  00004  K0                1431DES        000000000000 DENSO TEN (THAILAND)                                                                                                                                            *G         20210311 IMCT                IMCT                                                                                                                    WMF2103113.TXT
MAKK13057539202103N3               89828070100P3YK20210324000150SPEAKER ASM                   M IMCTM CM1    TNTH  09020IMKDC KA PTB  00004  K0                0231NES        000000000000 DENSO TEN (THAILAND)                                                                                                                                            *G         20210311 IMCT                IMCT                                                                                                                    WMF2103113.TXT
MAKK13057540202103D3               89828070100P3YK20210324000090SPEAKER ASM                   M IMCTM CM1    TNTH  09020IMKDC KA PTB  00004  K0                1431DES        000000000000 DENSO TEN (THAILAND)                                                                                                                                            *G         20210311 IMCT                IMCT                                                                                                                    WMF2103113.TXT
MAKK13057541202103N3               89828070100P3YK20210325000120SPEAKER ASM                   M IMCTM CM1    TNTH  09020IMKDC KA PTB  00004  K0                0231NES        000000000000 DENSO TEN (THAILAND)                                                                                                                                            *G         20210311 IMCT                IMCT                                                                                                                    WMF2103113.TXT
MAKK13057542202103D3               89828070100P3YK20210325000120SPEAKER ASM                   M IMCTM CM1    TNTH  09020IMKDC KA PTB  00004  K0                1431DES        000000000000 DENSO TEN (THAILAND)                                                                                                                                            *G         20210311 IMCT                IMCT                                                                                                                    WMF2103113.TXT
MAKK13057543202103N3               89828070100P3YK20210326000120SPEAKER ASM                   M IMCTM CM1    TNTH  09020IMKDC KA PTB  00004  K0                0231NES        000000000000 DENSO TEN (THAILAND)                                                                                                                                            *G         20210311 IMCT                IMCT                                                                                                                    WMF2103113.TXT
MAKK13057544202103D3               89828070100P3YK20210326000090SPEAKER ASM                   M IMCTM CM1    TNTH  09020IMKDC KA PTB  00004  K0                1431DES        000000000000 DENSO TEN (THAILAND)                                                                                                                                            *G         20210311 IMCT                IMCT                                                                                                                    WMF2103113.TXT
MAKK13057545202103N3               89828070100P3YK20210327000090SPEAKER ASM                   M IMCTM CM1    TNTH  09020IMKDC KA PTB  00004  K0                0231NES        000000000000 DENSO TEN (THAILAND)                                                                                                                                            *G         20210311 IMCT                IMCT                                                                                                                    WMF2103113.TXT
MAKK13057546202103D3               89828070200P3YK20210322000030SPEAKER ASM                   M IMCTM CM1    TNTH  09020IMKDC KA PTB  00005  K0                1431DES        000000000000 DENSO TEN (THAILAND)                                                                                                                                            *G         20210311 IMCT                IMCT                                                                                                                    WMF2103113.TXT
MAKK13057547202103N3               89828070200P3YK20210323000060SPEAKER ASM                   M IMCTM CM1    TNTH  09020IMKDC KA PTB  00005  K0                0231NES        000000000000 DENSO TEN (THAILAND)                                                                                                                                            *G         20210311 IMCT                IMCT                                                                                                                    WMF2103113.TXT
MAKK13057548202103D3               89828070200P3YK20210323000090SPEAKER ASM                   M IMCTM CM1    TNTH  09020IMKDC KA PTB  00005  K0                1431DES        000000000000 DENSO TEN (THAILAND)                                                                                                                                            *G         20210311 IMCT                IMCT                                                                                                                    WMF2103113.TXT
MAKK13057549202103N3               89828070200P3YK20210324000060SPEAKER ASM                   M IMCTM CM1    TNTH  09020IMKDC KA PTB  00005  K0                0231NES        000000000000 DENSO TEN (THAILAND)                                                                                                                                            *G         20210311 IMCT                IMCT                                                                                                                    WMF2103113.TXT
MAKK13057550202103D3               89828070200P3YK20210324000060SPEAKER ASM                   M IMCTM CM1    TNTH  09020IMKDC KA PTB  00005  K0                1431DES        000000000000 DENSO TEN (THAILAND)                                                                                                                                            *G         20210311 IMCT                IMCT                                                                                                                    WMF2103113.TXT
MAKK13057551202103N3               89828070200P3YK20210325000060SPEAKER ASM                   M IMCTM CM1    TNTH  09020IMKDC KA PTB  00005  K0                0231NES        000000000000 DENSO TEN (THAILAND)                                                                                                                                            *G         20210311 IMCT                IMCT                                                                                                                    WMF2103113.TXT
MAKK13057552202103D3               89828070200P3YK20210325000060SPEAKER ASM                   M IMCTM CM1    TNTH  09020IMKDC KA PTB  00005  K0                1431DES        000000000000 DENSO TEN (THAILAND)                                                                                                                                            *G         20210311 IMCT                IMCT                                                                                                                    WMF2103113.TXT
MAKK13057553202103N3               89828070200P3YK20210326000060SPEAKER ASM                   M IMCTM CM1    TNTH  09020IMKDC KA PTB  00005  K0                0231NES        000000000000 DENSO TEN (THAILAND)                                                                                                                                            *G         20210311 IMCT                IMCT                                                                                                                    WMF2103113.TXT
MAKK13057554202103D3               89828070200P3YK20210326000060SPEAKER ASM                   M IMCTM CM1    TNTH  09020IMKDC KA PTB  00005  K0                1431DES        000000000000 DENSO TEN (THAILAND)                                                                                                                                            *G         20210311 IMCT                IMCT                                                                                                                    WMF2103113.TXT
MAKK13057555202103N3               89828070200P3YK20210327000060SPEAKER ASM                   M IMCTM CM1    TNTH  09020IMKDC KA PTB  00005  K0                0231NES        000000000000 DENSO TEN (THAILAND)                                                                                                                                            *G         20210311 IMCT                IMCT                                                                                                                    WMF2103113.TXT
MAKK13057556202103D3               89828070300P3YK20210322000030SPEAKER ASM                   M IMCTM CM1    TNTH  09020IMKDC KA PTB  00015  K0                1431DES        000000000000 DENSO TEN (THAILAND)                                                                                                                                            *G         20210311 IMCT                IMCT                                                                                                                    WMF2103113.TXT
MAKK13057557202103N3               89828070300P3YK20210323000060SPEAKER ASM                   M IMCTM CM1    TNTH  09020IMKDC KA PTB  00015  K0                0231NES        000000000000 DENSO TEN (THAILAND)                                                                                                                                            *G         20210311 IMCT                IMCT                                                                                                                    WMF2103113.TXT
MAKK13057558202103D3               89828070300P3YK20210323000090SPEAKER ASM                   M IMCTM CM1    TNTH  09020IMKDC KA PTB  00015  K0                1431DES        000000000000 DENSO TEN (THAILAND)                                                                                                                                            *G         20210311 IMCT                IMCT                                                                                                                    WMF2103113.TXT
MAKK13057559202103N3               89828070300P3YK20210324000060SPEAKER ASM                   M IMCTM CM1    TNTH  09020IMKDC KA PTB  00015  K0                0231NES        000000000000 DENSO TEN (THAILAND)                                                                                                                                            *G         20210311 IMCT                IMCT                                                                                                                    WMF2103113.TXT
MAKK13057560202103D3               89828070300P3YK20210324000060SPEAKER ASM                   M IMCTM CM1    TNTH  09020IMKDC KA PTB  00015  K0                1431DES        000000000000 DENSO TEN (THAILAND)                                                                                                                                            *G         20210311 IMCT                IMCT                                                                                                                    WMF2103113.TXT
MAKK13057561202103N3               89828070300P3YK20210325000060SPEAKER ASM                   M IMCTM CM1    TNTH  09020IMKDC KA PTB  00015  K0                0231NES        000000000000 DENSO TEN (THAILAND)                                                                                                                                            *G         20210311 IMCT                IMCT                                                                                                                    WMF2103113.TXT
MAKK13057562202103D3               89828070300P3YK20210325000090SPEAKER ASM                   M IMCTM CM1    TNTH  09020IMKDC KA PTB  00015  K0                1431DES        000000000000 DENSO TEN (THAILAND)                                                                                                                                            *G         20210311 IMCT                IMCT                                                                                                                    WMF2103113.TXT
MAKK13057563202103N3               89828070300P3YK20210326000090SPEAKER ASM                   M IMCTM CM1    TNTH  09020IMKDC KA PTB  00015  K0                0231NES        000000000000 DENSO TEN (THAILAND)                                                                                                                                            *G         20210311 IMCT                IMCT                                                                                                                    WMF2103113.TXT
MAKK13057564202103D3               89828070300P3YK20210326000060SPEAKER ASM                   M IMCTM CM1    TNTH  09020IMKDC KA PTB  00015  K0                1431DES        000000000000 DENSO TEN (THAILAND)                                                                                                                                            *G         20210311 IMCT                IMCT                                                                                                                    WMF2103113.TXT
MAKK13057565202103N3               89828070300P3YK20210327000060SPEAKER ASM                   M IMCTM CM1    TNTH  09020IMKDC KA PTB  00015  K0                0231NES        000000000000 DENSO TEN (THAILAND)                                                                                                                                            *G         20210311 IMCT                IMCT                                                                                                                    WMF2103113.TXT
