REC2021031820210318ISUZU                              45     
MAKK13081815202103D3               89749224010P3YK20210330000015DISPLAY UNIT;ASM              M IMCTM CM1    TNTH  09020IMKDC KA*PTB  00005  K0                1431DES        000000000000 DENSO TEN (THAILAND)                                                                                                                                            *G         20210318 IMCT                IMCT                                                                                                                    WMF2103188.TXT
MAKK13081816202103D3               89753792300P3YK20210330000015HARNESS ASM;INFO              M IMCTM CM1    TNTH  09020IMKDC KA*PTB  00015  K0                1431DES        000000000000 DENSO TEN (THAILAND)                                                                                                                                            *G         20210318 IMCT                IMCT                                                                                                                    WMF2103188.TXT
MAKK13081817202103N3               89825451200P3YK20210404000030SPEAKER ASM;ROOF              M IMCTM CM1    TNTH  09020IMKDC KA PTB  00036  K0                0231NES        000000000000 DENSO TEN (THAILAND)                                                                                                                                            *G         20210318 IMCT                IMCT                                                                                                                    WMF2103188.TXT
MAKK13081818202103D3               89828070100P3YK20210329000120SPEAKER ASM                   M IMCTM CM1    TNTH  09020IMKDC KA PTB  00004  K0                1431DES        000000000000 DENSO TEN (THAILAND)                                                                                                                                            *G         20210318 IMCT                IMCT                                                                                                                    WMF2103188.TXT
MAKK13081819202103N3               89828070100P3YK20210330000090SPEAKER ASM                   M IMCTM CM1    TNTH  09020IMKDC KA PTB  00004  K0                0231NES        000000000000 DENSO TEN (THAILAND)                                                                                                                                            *G         20210318 IMCT                IMCT                                                                                                                    WMF2103188.TXT
MAKK13081820202103D3               89828070100P3YK20210330000060SPEAKER ASM                   M IMCTM CM1    TNTH  09020IMKDC KA PTB  00004  K0                1431DES        000000000000 DENSO TEN (THAILAND)                                                                                                                                            *G         20210318 IMCT                IMCT                                                                                                                    WMF2103188.TXT
MAKK13081821202103N3               89828070100P3YK20210331000060SPEAKER ASM                   M IMCTM CM1    TNTH  09020IMKDC KA PTB  00004  K0                0231NES        000000000000 DENSO TEN (THAILAND)                                                                                                                                            *G         20210318 IMCT                IMCT                                                                                                                    WMF2103188.TXT
MAKK13081822202103D3               89828070100P3YK20210331000090SPEAKER ASM                   M IMCTM CM1    TNTH  09020IMKDC KA PTB  00004  K0                1431DES        000000000000 DENSO TEN (THAILAND)                                                                                                                                            *G         20210318 IMCT                IMCT                                                                                                                    WMF2103188.TXT
MAKK13081823202103N3               89828070100P3YK20210401000150SPEAKER ASM                   M IMCTM CM1    TNTH  09020IMKDC KA PTB  00004  K0                0231NES        000000000000 DENSO TEN (THAILAND)                                                                                                                                            *G         20210318 IMCT                IMCT                                                                                                                    WMF2103188.TXT
MAKK13081824202103D3               89828070100P3YK20210401000120SPEAKER ASM                   M IMCTM CM1    TNTH  09020IMKDC KA PTB  00004  K0                1431DES        000000000000 DENSO TEN (THAILAND)                                                                                                                                            *G         20210318 IMCT                IMCT                                                                                                                    WMF2103188.TXT
MAKK13081825202103N3               89828070100P3YK20210402000120SPEAKER ASM                   M IMCTM CM1    TNTH  09020IMKDC KA PTB  00004  K0                0231NES        000000000000 DENSO TEN (THAILAND)                                                                                                                                            *G         20210318 IMCT                IMCT                                                                                                                    WMF2103188.TXT
MAKK13081826202103D3               89828070100P3YK20210402000120SPEAKER ASM                   M IMCTM CM1    TNTH  09020IMKDC KA PTB  00004  K0                1431DES        000000000000 DENSO TEN (THAILAND)                                                                                                                                            *G         20210318 IMCT                IMCT                                                                                                                    WMF2103188.TXT
MAKK13081827202103N3               89828070100P3YK20210403000120SPEAKER ASM                   M IMCTM CM1    TNTH  09020IMKDC KA PTB  00004  K0                0231NES        000000000000 DENSO TEN (THAILAND)                                                                                                                                            *G         20210318 IMCT                IMCT                                                                                                                    WMF2103188.TXT
MAKK13081828202103D3               89828070100P3YK20210403000120SPEAKER ASM                   M IMCTM CM1    TNTH  09020IMKDC KA PTB  00004  K0                1431DES        000000000000 DENSO TEN (THAILAND)                                                                                                                                            *G         20210318 IMCT                IMCT                                                                                                                    WMF2103188.TXT
MAKK13081829202103N3               89828070100P3YK20210404000060SPEAKER ASM                   M IMCTM CM1    TNTH  09020IMKDC KA PTB  00004  K0                0231NES        000000000000 DENSO TEN (THAILAND)                                                                                                                                            *G         20210318 IMCT                IMCT                                                                                                                    WMF2103188.TXT
MAKK13081830202103D3               89828070200P3YK20210329000090SPEAKER ASM                   M IMCTM CM1    TNTH  09020IMKDC KA PTB  00005  K0                1431DES        000000000000 DENSO TEN (THAILAND)                                                                                                                                            *G         20210318 IMCT                IMCT                                                                                                                    WMF2103188.TXT
MAKK13081831202103N3               89828070200P3YK20210330000060SPEAKER ASM                   M IMCTM CM1    TNTH  09020IMKDC KA PTB  00005  K0                0231NES        000000000000 DENSO TEN (THAILAND)                                                                                                                                            *G         20210318 IMCT                IMCT                                                                                                                    WMF2103188.TXT
MAKK13081832202103D3               89828070200P3YK20210330000060SPEAKER ASM                   M IMCTM CM1    TNTH  09020IMKDC KA PTB  00005  K0                1431DES        000000000000 DENSO TEN (THAILAND)                                                                                                                                            *G         20210318 IMCT                IMCT                                                                                                                    WMF2103188.TXT
MAKK13081833202103N3               89828070200P3YK20210331000060SPEAKER ASM                   M IMCTM CM1    TNTH  09020IMKDC KA PTB  00005  K0                0231NES        000000000000 DENSO TEN (THAILAND)                                                                                                                                            *G         20210318 IMCT                IMCT                                                                                                                    WMF2103188.TXT
MAKK13081834202103D3               89828070200P3YK20210331000060SPEAKER ASM                   M IMCTM CM1    TNTH  09020IMKDC KA PTB  00005  K0                1431DES        000000000000 DENSO TEN (THAILAND)                                                                                                                                            *G         20210318 IMCT                IMCT                                                                                                                    WMF2103188.TXT
MAKK13081835202103N3               89828070200P3YK20210401000090SPEAKER ASM                   M IMCTM CM1    TNTH  09020IMKDC KA PTB  00005  K0                0231NES        000000000000 DENSO TEN (THAILAND)                                                                                                                                            *G         20210318 IMCT                IMCT                                                                                                                    WMF2103188.TXT
MAKK13081836202103D3               89828070200P3YK20210401000060SPEAKER ASM                   M IMCTM CM1    TNTH  09020IMKDC KA PTB  00005  K0                1431DES        000000000000 DENSO TEN (THAILAND)                                                                                                                                            *G         20210318 IMCT                IMCT                                                                                                                    WMF2103188.TXT
MAKK13081837202103N3               89828070200P3YK20210402000060SPEAKER ASM                   M IMCTM CM1    TNTH  09020IMKDC KA PTB  00005  K0                0231NES        000000000000 DENSO TEN (THAILAND)                                                                                                                                            *G         20210318 IMCT                IMCT                                                                                                                    WMF2103188.TXT
MAKK13081838202103D3               89828070200P3YK20210402000030SPEAKER ASM                   M IMCTM CM1    TNTH  09020IMKDC KA PTB  00005  K0                1431DES        000000000000 DENSO TEN (THAILAND)                                                                                                                                            *G         20210318 IMCT                IMCT                                                                                                                    WMF2103188.TXT
MAKK13081839202103N3               89828070200P3YK20210403000060SPEAKER ASM                   M IMCTM CM1    TNTH  09020IMKDC KA PTB  00005  K0                0231NES        000000000000 DENSO TEN (THAILAND)                                                                                                                                            *G         20210318 IMCT                IMCT                                                                                                                    WMF2103188.TXT
MAKK13081840202103D3               89828070200P3YK20210403000030SPEAKER ASM                   M IMCTM CM1    TNTH  09020IMKDC KA PTB  00005  K0                1431DES        000000000000 DENSO TEN (THAILAND)                                                                                                                                            *G         20210318 IMCT                IMCT                                                                                                                    WMF2103188.TXT
MAKK13081841202103N3               89828070200P3YK20210404000060SPEAKER ASM                   M IMCTM CM1    TNTH  09020IMKDC KA PTB  00005  K0                0231NES        000000000000 DENSO TEN (THAILAND)                                                                                                                                            *G         20210318 IMCT                IMCT                                                                                                                    WMF2103188.TXT
MAKK13081842202103D3               89828070300P3YK20210329000090SPEAKER ASM                   M IMCTM CM1    TNTH  09020IMKDC KA PTB  00015  K0                1431DES        000000000000 DENSO TEN (THAILAND)                                                                                                                                            *G         20210318 IMCT                IMCT                                                                                                                    WMF2103188.TXT
MAKK13081843202103N3               89828070300P3YK20210330000060SPEAKER ASM                   M IMCTM CM1    TNTH  09020IMKDC KA PTB  00015  K0                0231NES        000000000000 DENSO TEN (THAILAND)                                                                                                                                            *G         20210318 IMCT                IMCT                                                                                                                    WMF2103188.TXT
MAKK13081844202103D3               89828070300P3YK20210330000060SPEAKER ASM                   M IMCTM CM1    TNTH  09020IMKDC KA PTB  00015  K0                1431DES        000000000000 DENSO TEN (THAILAND)                                                                                                                                            *G         20210318 IMCT                IMCT                                                                                                                    WMF2103188.TXT
MAKK13081845202103N3               89828070300P3YK20210331000060SPEAKER ASM                   M IMCTM CM1    TNTH  09020IMKDC KA PTB  00015  K0                0231NES        000000000000 DENSO TEN (THAILAND)                                                                                                                                            *G         20210318 IMCT                IMCT                                                                                                                    WMF2103188.TXT
MAKK13081846202103D3               89828070300P3YK20210331000060SPEAKER ASM                   M IMCTM CM1    TNTH  09020IMKDC KA PTB  00015  K0                1431DES        000000000000 DENSO TEN (THAILAND)                                                                                                                                            *G         20210318 IMCT                IMCT                                                                                                                    WMF2103188.TXT
MAKK13081847202103N3               89828070300P3YK20210401000090SPEAKER ASM                   M IMCTM CM1    TNTH  09020IMKDC KA PTB  00015  K0                0231NES        000000000000 DENSO TEN (THAILAND)                                                                                                                                            *G         20210318 IMCT                IMCT                                                                                                                    WMF2103188.TXT
MAKK13081848202103D3               89828070300P3YK20210401000060SPEAKER ASM                   M IMCTM CM1    TNTH  09020IMKDC KA PTB  00015  K0                1431DES        000000000000 DENSO TEN (THAILAND)                                                                                                                                            *G         20210318 IMCT                IMCT                                                                                                                    WMF2103188.TXT
MAKK13081849202103N3               89828070300P3YK20210402000090SPEAKER ASM                   M IMCTM CM1    TNTH  09020IMKDC KA PTB  00015  K0                0231NES        000000000000 DENSO TEN (THAILAND)                                                                                                                                            *G         20210318 IMCT                IMCT                                                                                                                    WMF2103188.TXT
MAKK13081850202103D3               89828070300P3YK20210402000030SPEAKER ASM                   M IMCTM CM1    TNTH  09020IMKDC KA PTB  00015  K0                1431DES        000000000000 DENSO TEN (THAILAND)                                                                                                                                            *G         20210318 IMCT                IMCT                                                                                                                    WMF2103188.TXT
MAKK13081851202103N3               89828070300P3YK20210403000090SPEAKER ASM                   M IMCTM CM1    TNTH  09020IMKDC KA PTB  00015  K0                0231NES        000000000000 DENSO TEN (THAILAND)                                                                                                                                            *G         20210318 IMCT                IMCT                                                                                                                    WMF2103188.TXT
MAKK13081852202103D3               89828070300P3YK20210403000060SPEAKER ASM                   M IMCTM CM1    TNTH  09020IMKDC KA PTB  00015  K0                1431DES        000000000000 DENSO TEN (THAILAND)                                                                                                                                            *G         20210318 IMCT                IMCT                                                                                                                    WMF2103188.TXT
MAKK13081853202103N3               89828070300P3YK20210404000060SPEAKER ASM                   M IMCTM CM1    TNTH  09020IMKDC KA PTB  00015  K0                0231NES        000000000000 DENSO TEN (THAILAND)                                                                                                                                            *G         20210318 IMCT                IMCT                                                                                                                    WMF2103188.TXT
MAKK13081854202103D3               89839627340P3YK20210330000015RADIO;ASM CENTER              M IMCTM CM1    TNTH  09020IMKDC KA*PTB  00005  K0                1431DES        000000000000 DENSO TEN (THAILAND)                                                                                                                                            *G         20210318 IMCT                IMCT                                                                                                                    WMF2103188.TXT
MAKK13081855202103D3               89839629110P3YK20210330000015RECEPTACLE ASM;I              M IMCTM CM1    TNTH  09020IMKDC KA*PTB  00015  K0                1431DES        000000000000 DENSO TEN (THAILAND)                                                                                                                                            *G         20210318 IMCT                IMCT                                                                                                                    WMF2103188.TXT
MAKK13081856202103D3               89839631600P3YK20210330000015HARNESS KIT;ASM,              M IMCTM CM1    TNTH  09020IMKDC KA*PTB  00030  K0                1431DES        000000000000 DENSO TEN (THAILAND)                                                                                                                                            *G         20210318 IMCT                IMCT                                                                                                                    WMF2103188.TXT
MAKK13088578202103D3               89828070100P3YK20210403000030SPEAKER ASM                   M IMCTM PK3    TNTH  09020IMKDC KA PTB  00004  K0                1431DES        000000000000 DENSO TEN (THAILAND)                                                                                                                                            *G         20210318 IMCT                IMCT                                                                                                                    WMF2103188.TXT
MAKK13088579202103D3               89828070200P3YK20210403000030SPEAKER ASM                   M IMCTM PK3    TNTH  09020IMKDC KA PTB  00005  K0                1431DES        000000000000 DENSO TEN (THAILAND)                                                                                                                                            *G         20210318 IMCT                IMCT                                                                                                                    WMF2103188.TXT
MAKK13088580202103D3               89828070300P3YK20210403000030SPEAKER ASM                   M IMCTM PK3    TNTH  09020IMKDC KA PTB  00015  K0                1431DES        000000000000 DENSO TEN (THAILAND)                                                                                                                                            *G         20210318 IMCT                IMCT                                                                                                                    WMF2103188.TXT
