REC2021030420210304ISUZU                              31     
MAKK13035577202103D3               89825451200P3YK20210317000030SPEAKER ASM;ROOF              M IMCTM CM1    TNTH  09020IMKDC KA PTB  00036  K0                1431DES        000000000000 DENSO TEN (THAILAND)                                                                                                                                            *G         20210304 IMCT                IMCT                                                                                                                    WMF210304A.TXT
MAKK13035578202103N3               89825451200P3YK20210320000030SPEAKER ASM;ROOF              M IMCTM CM1    TNTH  09020IMKDC KA PTB  00036  K0                0231NES        000000000000 DENSO TEN (THAILAND)                                                                                                                                            *G         20210304 IMCT                IMCT                                                                                                                    WMF210304A.TXT
MAKK13035579202103D3               89828070100P3YK20210315000090SPEAKER ASM                   M IMCTM CM1    TNTH  09020IMKDC KA PTB  00004  K0                1431DES        000000000000 DENSO TEN (THAILAND)                                                                                                                                            *G         20210304 IMCT                IMCT                                                                                                                    WMF210304A.TXT
MAKK13035580202103N3               89828070100P3YK20210316000090SPEAKER ASM                   M IMCTM CM1    TNTH  09020IMKDC KA PTB  00004  K0                0231NES        000000000000 DENSO TEN (THAILAND)                                                                                                                                            *G         20210304 IMCT                IMCT                                                                                                                    WMF210304A.TXT
MAKK13035581202103D3               89828070100P3YK20210316000090SPEAKER ASM                   M IMCTM CM1    TNTH  09020IMKDC KA PTB  00004  K0                1431DES        000000000000 DENSO TEN (THAILAND)                                                                                                                                            *G         20210304 IMCT                IMCT                                                                                                                    WMF210304A.TXT
MAKK13035582202103N3               89828070100P3YK20210317000120SPEAKER ASM                   M IMCTM CM1    TNTH  09020IMKDC KA PTB  00004  K0                0231NES        000000000000 DENSO TEN (THAILAND)                                                                                                                                            *G         20210304 IMCT                IMCT                                                                                                                    WMF210304A.TXT
MAKK13035583202103D3               89828070100P3YK20210317000090SPEAKER ASM                   M IMCTM CM1    TNTH  09020IMKDC KA PTB  00004  K0                1431DES        000000000000 DENSO TEN (THAILAND)                                                                                                                                            *G         20210304 IMCT                IMCT                                                                                                                    WMF210304A.TXT
MAKK13035584202103N3               89828070100P3YK20210318000090SPEAKER ASM                   M IMCTM CM1    TNTH  09020IMKDC KA PTB  00004  K0                0231NES        000000000000 DENSO TEN (THAILAND)                                                                                                                                            *G         20210304 IMCT                IMCT                                                                                                                    WMF210304A.TXT
MAKK13035585202103D3               89828070100P3YK20210318000090SPEAKER ASM                   M IMCTM CM1    TNTH  09020IMKDC KA PTB  00004  K0                1431DES        000000000000 DENSO TEN (THAILAND)                                                                                                                                            *G         20210304 IMCT                IMCT                                                                                                                    WMF210304A.TXT
MAKK13035586202103N3               89828070100P3YK20210319000090SPEAKER ASM                   M IMCTM CM1    TNTH  09020IMKDC KA PTB  00004  K0                0231NES        000000000000 DENSO TEN (THAILAND)                                                                                                                                            *G         20210304 IMCT                IMCT                                                                                                                    WMF210304A.TXT
MAKK13035587202103D3               89828070100P3YK20210319000060SPEAKER ASM                   M IMCTM CM1    TNTH  09020IMKDC KA PTB  00004  K0                1431DES        000000000000 DENSO TEN (THAILAND)                                                                                                                                            *G         20210304 IMCT                IMCT                                                                                                                    WMF210304A.TXT
MAKK13035588202103N3               89828070100P3YK20210320000150SPEAKER ASM                   M IMCTM CM1    TNTH  09020IMKDC KA PTB  00004  K0                0231NES        000000000000 DENSO TEN (THAILAND)                                                                                                                                            *G         20210304 IMCT                IMCT                                                                                                                    WMF210304A.TXT
MAKK13035589202103D3               89828070200P3YK20210315000030SPEAKER ASM                   M IMCTM CM1    TNTH  09020IMKDC KA PTB  00005  K0                1431DES        000000000000 DENSO TEN (THAILAND)                                                                                                                                            *G         20210304 IMCT                IMCT                                                                                                                    WMF210304A.TXT
MAKK13035590202103N3               89828070200P3YK20210316000030SPEAKER ASM                   M IMCTM CM1    TNTH  09020IMKDC KA PTB  00005  K0                0231NES        000000000000 DENSO TEN (THAILAND)                                                                                                                                            *G         20210304 IMCT                IMCT                                                                                                                    WMF210304A.TXT
MAKK13035591202103D3               89828070200P3YK20210316000030SPEAKER ASM                   M IMCTM CM1    TNTH  09020IMKDC KA PTB  00005  K0                1431DES        000000000000 DENSO TEN (THAILAND)                                                                                                                                            *G         20210304 IMCT                IMCT                                                                                                                    WMF210304A.TXT
MAKK13035592202103N3               89828070200P3YK20210317000030SPEAKER ASM                   M IMCTM CM1    TNTH  09020IMKDC KA PTB  00005  K0                0231NES        000000000000 DENSO TEN (THAILAND)                                                                                                                                            *G         20210304 IMCT                IMCT                                                                                                                    WMF210304A.TXT
MAKK13035593202103D3               89828070200P3YK20210317000090SPEAKER ASM                   M IMCTM CM1    TNTH  09020IMKDC KA PTB  00005  K0                1431DES        000000000000 DENSO TEN (THAILAND)                                                                                                                                            *G         20210304 IMCT                IMCT                                                                                                                    WMF210304A.TXT
MAKK13035594202103N3               89828070200P3YK20210318000060SPEAKER ASM                   M IMCTM CM1    TNTH  09020IMKDC KA PTB  00005  K0                0231NES        000000000000 DENSO TEN (THAILAND)                                                                                                                                            *G         20210304 IMCT                IMCT                                                                                                                    WMF210304A.TXT
MAKK13035595202103N3               89828070200P3YK20210319000090SPEAKER ASM                   M IMCTM CM1    TNTH  09020IMKDC KA PTB  00005  K0                0231NES        000000000000 DENSO TEN (THAILAND)                                                                                                                                            *G         20210304 IMCT                IMCT                                                                                                                    WMF210304A.TXT
MAKK13035596202103D3               89828070200P3YK20210319000030SPEAKER ASM                   M IMCTM CM1    TNTH  09020IMKDC KA PTB  00005  K0                1431DES        000000000000 DENSO TEN (THAILAND)                                                                                                                                            *G         20210304 IMCT                IMCT                                                                                                                    WMF210304A.TXT
MAKK13035597202103N3               89828070200P3YK20210320000060SPEAKER ASM                   M IMCTM CM1    TNTH  09020IMKDC KA PTB  00005  K0                0231NES        000000000000 DENSO TEN (THAILAND)                                                                                                                                            *G         20210304 IMCT                IMCT                                                                                                                    WMF210304A.TXT
MAKK13035598202103D3               89828070300P3YK20210315000030SPEAKER ASM                   M IMCTM CM1    TNTH  09020IMKDC KA PTB  00015  K0                1431DES        000000000000 DENSO TEN (THAILAND)                                                                                                                                            *G         20210304 IMCT                IMCT                                                                                                                    WMF210304A.TXT
MAKK13035599202103N3               89828070300P3YK20210316000030SPEAKER ASM                   M IMCTM CM1    TNTH  09020IMKDC KA PTB  00015  K0                0231NES        000000000000 DENSO TEN (THAILAND)                                                                                                                                            *G         20210304 IMCT                IMCT                                                                                                                    WMF210304A.TXT
MAKK13035600202103D3               89828070300P3YK20210316000030SPEAKER ASM                   M IMCTM CM1    TNTH  09020IMKDC KA PTB  00015  K0                1431DES        000000000000 DENSO TEN (THAILAND)                                                                                                                                            *G         20210304 IMCT                IMCT                                                                                                                    WMF210304A.TXT
MAKK13035601202103N3               89828070300P3YK20210317000060SPEAKER ASM                   M IMCTM CM1    TNTH  09020IMKDC KA PTB  00015  K0                0231NES        000000000000 DENSO TEN (THAILAND)                                                                                                                                            *G         20210304 IMCT                IMCT                                                                                                                    WMF210304A.TXT
MAKK13035602202103D3               89828070300P3YK20210317000090SPEAKER ASM                   M IMCTM CM1    TNTH  09020IMKDC KA PTB  00015  K0                1431DES        000000000000 DENSO TEN (THAILAND)                                                                                                                                            *G         20210304 IMCT                IMCT                                                                                                                    WMF210304A.TXT
MAKK13035603202103N3               89828070300P3YK20210318000060SPEAKER ASM                   M IMCTM CM1    TNTH  09020IMKDC KA PTB  00015  K0                0231NES        000000000000 DENSO TEN (THAILAND)                                                                                                                                            *G         20210304 IMCT                IMCT                                                                                                                    WMF210304A.TXT
MAKK13035604202103D3               89828070300P3YK20210318000030SPEAKER ASM                   M IMCTM CM1    TNTH  09020IMKDC KA PTB  00015  K0                1431DES        000000000000 DENSO TEN (THAILAND)                                                                                                                                            *G         20210304 IMCT                IMCT                                                                                                                    WMF210304A.TXT
MAKK13035605202103N3               89828070300P3YK20210319000090SPEAKER ASM                   M IMCTM CM1    TNTH  09020IMKDC KA PTB  00015  K0                0231NES        000000000000 DENSO TEN (THAILAND)                                                                                                                                            *G         20210304 IMCT                IMCT                                                                                                                    WMF210304A.TXT
MAKK13035606202103D3               89828070300P3YK20210319000030SPEAKER ASM                   M IMCTM CM1    TNTH  09020IMKDC KA PTB  00015  K0                1431DES        000000000000 DENSO TEN (THAILAND)                                                                                                                                            *G         20210304 IMCT                IMCT                                                                                                                    WMF210304A.TXT
MAKK13035607202103N3               89828070300P3YK20210320000060SPEAKER ASM                   M IMCTM CM1    TNTH  09020IMKDC KA PTB  00015  K0                0231NES        000000000000 DENSO TEN (THAILAND)                                                                                                                                            *G         20210304 IMCT                IMCT                                                                                                                    WMF210304A.TXT
