REC2021040120210401ISUZU                              37     
MAKK13124671202104D3               89825451200P3YK20210422000030SPEAKER ASM;ROOF              M IMCTM CM1    TNTH  09020IMKDC KA PTB  00036  K0                1431DES        000000000000 DENSO TEN (THAILAND)                                                                                                                                            *G         20210401 IMCT                IMCT                                                                                                                    WMF2104018.TXT
MAKK13124672202104N3               89825451200P3YK20210423000030SPEAKER ASM;ROOF              M IMCTM CM1    TNTH  09020IMKDC KA PTB  00036  K0                0231NES        000000000000 DENSO TEN (THAILAND)                                                                                                                                            *G         20210401 IMCT                IMCT                                                                                                                    WMF2104018.TXT
MAKK13124673202104N3               89828070100P3YK20210420000090SPEAKER ASM                   M IMCTM CM1    TNTH  09020IMKDC KA PTB  00004  K0                0231NES        000000000000 DENSO TEN (THAILAND)                                                                                                                                            *G         20210401 IMCT                IMCT                                                                                                                    WMF2104018.TXT
MAKK13124674202104D3               89828070100P3YK20210420000090SPEAKER ASM                   M IMCTM CM1    TNTH  09020IMKDC KA PTB  00004  K0                1431DES        000000000000 DENSO TEN (THAILAND)                                                                                                                                            *G         20210401 IMCT                IMCT                                                                                                                    WMF2104018.TXT
MAKK13124675202104N3               89828070100P3YK20210421000090SPEAKER ASM                   M IMCTM CM1    TNTH  09020IMKDC KA PTB  00004  K0                0231NES        000000000000 DENSO TEN (THAILAND)                                                                                                                                            *G         20210401 IMCT                IMCT                                                                                                                    WMF2104018.TXT
MAKK13124676202104D3               89828070100P3YK20210421000120SPEAKER ASM                   M IMCTM CM1    TNTH  09020IMKDC KA PTB  00004  K0                1431DES        000000000000 DENSO TEN (THAILAND)                                                                                                                                            *G         20210401 IMCT                IMCT                                                                                                                    WMF2104018.TXT
MAKK13124677202104N3               89828070100P3YK20210422000060SPEAKER ASM                   M IMCTM CM1    TNTH  09020IMKDC KA PTB  00004  K0                0231NES        000000000000 DENSO TEN (THAILAND)                                                                                                                                            *G         20210401 IMCT                IMCT                                                                                                                    WMF2104018.TXT
MAKK13124678202104D3               89828070100P3YK20210422000060SPEAKER ASM                   M IMCTM CM1    TNTH  09020IMKDC KA PTB  00004  K0                1431DES        000000000000 DENSO TEN (THAILAND)                                                                                                                                            *G         20210401 IMCT                IMCT                                                                                                                    WMF2104018.TXT
MAKK13124679202104N3               89828070100P3YK20210423000060SPEAKER ASM                   M IMCTM CM1    TNTH  09020IMKDC KA PTB  00004  K0                0231NES        000000000000 DENSO TEN (THAILAND)                                                                                                                                            *G         20210401 IMCT                IMCT                                                                                                                    WMF2104018.TXT
MAKK13124680202104D3               89828070100P3YK20210423000120SPEAKER ASM                   M IMCTM CM1    TNTH  09020IMKDC KA PTB  00004  K0                1431DES        000000000000 DENSO TEN (THAILAND)                                                                                                                                            *G         20210401 IMCT                IMCT                                                                                                                    WMF2104018.TXT
MAKK13124681202104N3               89828070100P3YK20210424000090SPEAKER ASM                   M IMCTM CM1    TNTH  09020IMKDC KA PTB  00004  K0                0231NES        000000000000 DENSO TEN (THAILAND)                                                                                                                                            *G         20210401 IMCT                IMCT                                                                                                                    WMF2104018.TXT
MAKK13124682202104D3               89828070100P3YK20210424000090SPEAKER ASM                   M IMCTM CM1    TNTH  09020IMKDC KA PTB  00004  K0                1431DES        000000000000 DENSO TEN (THAILAND)                                                                                                                                            *G         20210401 IMCT                IMCT                                                                                                                    WMF2104018.TXT
MAKK13124683202104N3               89828070100P3YK20210425000090SPEAKER ASM                   M IMCTM CM1    TNTH  09020IMKDC KA PTB  00004  K0                0231NES        000000000000 DENSO TEN (THAILAND)                                                                                                                                            *G         20210401 IMCT                IMCT                                                                                                                    WMF2104018.TXT
MAKK13124684202104N3               89828070200P3YK20210420000060SPEAKER ASM                   M IMCTM CM1    TNTH  09020IMKDC KA PTB  00005  K0                0231NES        000000000000 DENSO TEN (THAILAND)                                                                                                                                            *G         20210401 IMCT                IMCT                                                                                                                    WMF2104018.TXT
MAKK13124685202104D3               89828070200P3YK20210420000090SPEAKER ASM                   M IMCTM CM1    TNTH  09020IMKDC KA PTB  00005  K0                1431DES        000000000000 DENSO TEN (THAILAND)                                                                                                                                            *G         20210401 IMCT                IMCT                                                                                                                    WMF2104018.TXT
MAKK13124686202104N3               89828070200P3YK20210421000060SPEAKER ASM                   M IMCTM CM1    TNTH  09020IMKDC KA PTB  00005  K0                0231NES        000000000000 DENSO TEN (THAILAND)                                                                                                                                            *G         20210401 IMCT                IMCT                                                                                                                    WMF2104018.TXT
MAKK13124687202104D3               89828070200P3YK20210421000030SPEAKER ASM                   M IMCTM CM1    TNTH  09020IMKDC KA PTB  00005  K0                1431DES        000000000000 DENSO TEN (THAILAND)                                                                                                                                            *G         20210401 IMCT                IMCT                                                                                                                    WMF2104018.TXT
MAKK13124688202104N3               89828070200P3YK20210422000030SPEAKER ASM                   M IMCTM CM1    TNTH  09020IMKDC KA PTB  00005  K0                0231NES        000000000000 DENSO TEN (THAILAND)                                                                                                                                            *G         20210401 IMCT                IMCT                                                                                                                    WMF2104018.TXT
MAKK13124689202104D3               89828070200P3YK20210422000060SPEAKER ASM                   M IMCTM CM1    TNTH  09020IMKDC KA PTB  00005  K0                1431DES        000000000000 DENSO TEN (THAILAND)                                                                                                                                            *G         20210401 IMCT                IMCT                                                                                                                    WMF2104018.TXT
MAKK13124690202104N3               89828070200P3YK20210423000060SPEAKER ASM                   M IMCTM CM1    TNTH  09020IMKDC KA PTB  00005  K0                0231NES        000000000000 DENSO TEN (THAILAND)                                                                                                                                            *G         20210401 IMCT                IMCT                                                                                                                    WMF2104018.TXT
MAKK13124691202104D3               89828070200P3YK20210423000030SPEAKER ASM                   M IMCTM CM1    TNTH  09020IMKDC KA PTB  00005  K0                1431DES        000000000000 DENSO TEN (THAILAND)                                                                                                                                            *G         20210401 IMCT                IMCT                                                                                                                    WMF2104018.TXT
MAKK13124692202104N3               89828070200P3YK20210424000060SPEAKER ASM                   M IMCTM CM1    TNTH  09020IMKDC KA PTB  00005  K0                0231NES        000000000000 DENSO TEN (THAILAND)                                                                                                                                            *G         20210401 IMCT                IMCT                                                                                                                    WMF2104018.TXT
MAKK13124693202104D3               89828070200P3YK20210424000060SPEAKER ASM                   M IMCTM CM1    TNTH  09020IMKDC KA PTB  00005  K0                1431DES        000000000000 DENSO TEN (THAILAND)                                                                                                                                            *G         20210401 IMCT                IMCT                                                                                                                    WMF2104018.TXT
MAKK13124694202104N3               89828070200P3YK20210425000060SPEAKER ASM                   M IMCTM CM1    TNTH  09020IMKDC KA PTB  00005  K0                0231NES        000000000000 DENSO TEN (THAILAND)                                                                                                                                            *G         20210401 IMCT                IMCT                                                                                                                    WMF2104018.TXT
MAKK13124695202104N3               89828070300P3YK20210420000060SPEAKER ASM                   M IMCTM CM1    TNTH  09020IMKDC KA PTB  00015  K0                0231NES        000000000000 DENSO TEN (THAILAND)                                                                                                                                            *G         20210401 IMCT                IMCT                                                                                                                    WMF2104018.TXT
MAKK13124696202104D3               89828070300P3YK20210420000090SPEAKER ASM                   M IMCTM CM1    TNTH  09020IMKDC KA PTB  00015  K0                1431DES        000000000000 DENSO TEN (THAILAND)                                                                                                                                            *G         20210401 IMCT                IMCT                                                                                                                    WMF2104018.TXT
MAKK13124697202104N3               89828070300P3YK20210421000060SPEAKER ASM                   M IMCTM CM1    TNTH  09020IMKDC KA PTB  00015  K0                0231NES        000000000000 DENSO TEN (THAILAND)                                                                                                                                            *G         20210401 IMCT                IMCT                                                                                                                    WMF2104018.TXT
MAKK13124698202104D3               89828070300P3YK20210421000030SPEAKER ASM                   M IMCTM CM1    TNTH  09020IMKDC KA PTB  00015  K0                1431DES        000000000000 DENSO TEN (THAILAND)                                                                                                                                            *G         20210401 IMCT                IMCT                                                                                                                    WMF2104018.TXT
MAKK13124699202104N3               89828070300P3YK20210422000060SPEAKER ASM                   M IMCTM CM1    TNTH  09020IMKDC KA PTB  00015  K0                0231NES        000000000000 DENSO TEN (THAILAND)                                                                                                                                            *G         20210401 IMCT                IMCT                                                                                                                    WMF2104018.TXT
MAKK13124700202104D3               89828070300P3YK20210422000090SPEAKER ASM                   M IMCTM CM1    TNTH  09020IMKDC KA PTB  00015  K0                1431DES        000000000000 DENSO TEN (THAILAND)                                                                                                                                            *G         20210401 IMCT                IMCT                                                                                                                    WMF2104018.TXT
MAKK13124701202104N3               89828070300P3YK20210423000090SPEAKER ASM                   M IMCTM CM1    TNTH  09020IMKDC KA PTB  00015  K0                0231NES        000000000000 DENSO TEN (THAILAND)                                                                                                                                            *G         20210401 IMCT                IMCT                                                                                                                    WMF2104018.TXT
MAKK13124702202104D3               89828070300P3YK20210423000030SPEAKER ASM                   M IMCTM CM1    TNTH  09020IMKDC KA PTB  00015  K0                1431DES        000000000000 DENSO TEN (THAILAND)                                                                                                                                            *G         20210401 IMCT                IMCT                                                                                                                    WMF2104018.TXT
MAKK13124703202104N3               89828070300P3YK20210424000060SPEAKER ASM                   M IMCTM CM1    TNTH  09020IMKDC KA PTB  00015  K0                0231NES        000000000000 DENSO TEN (THAILAND)                                                                                                                                            *G         20210401 IMCT                IMCT                                                                                                                    WMF2104018.TXT
MAKK13124704202104D3               89828070300P3YK20210424000060SPEAKER ASM                   M IMCTM CM1    TNTH  09020IMKDC KA PTB  00015  K0                1431DES        000000000000 DENSO TEN (THAILAND)                                                                                                                                            *G         20210401 IMCT                IMCT                                                                                                                    WMF2104018.TXT
MAKK13124705202104N3               89828070300P3YK20210425000060SPEAKER ASM                   M IMCTM CM1    TNTH  09020IMKDC KA PTB  00015  K0                0231NES        000000000000 DENSO TEN (THAILAND)                                                                                                                                            *G         20210401 IMCT                IMCT                                                                                                                    WMF2104018.TXT
MAKK13131449202104D3               89828070100P3YK20210419000030SPEAKER ASM                   M IMCTM PK3    TNTH  09020IMKDC KA PTB  00004  K0                1431DES        000000000000 DENSO TEN (THAILAND)                                                                                                                                            *G         20210401 IMCT                IMCT                                                                                                                    WMF2104018.TXT
MAKK13131450202104D3               89828070200P3YK20210419000030SPEAKER ASM                   M IMCTM PK3    TNTH  09020IMKDC KA PTB  00005  K0                1431DES        000000000000 DENSO TEN (THAILAND)                                                                                                                                            *G         20210401 IMCT                IMCT                                                                                                                    WMF2104018.TXT
