REC2021042220210422ISUZU                              42     
MAKK14046107202104N3               89825451200P3YK20210504000030SPEAKER ASM;ROOF              M IMCTM CM1    TNTH  09020IMKDC KA PTB  00036  K0                0231NES        000000000000 DENSO TEN (THAILAND)                                                                                                                                             G         20210422 IMCT                IMCT                                                                                                                    WMF2104226.TXT
MAKK14046108202104D3               89825451200P3YK20210504000060SPEAKER ASM;ROOF              M IMCTM CM1    TNTH  09020IMKDC KA PTB  00036  K0                1431DES        000000000000 DENSO TEN (THAILAND)                                                                                                                                             G         20210422 IMCT                IMCT                                                                                                                    WMF2104226.TXT
MAKK14046109202104D3               89825451200P3YK20210506000030SPEAKER ASM;ROOF              M IMCTM CM1    TNTH  09020IMKDC KA PTB  00036  K0                1431DES        000000000000 DENSO TEN (THAILAND)                                                                                                                                             G         20210422 IMCT                IMCT                                                                                                                    WMF2104226.TXT
MAKK14046110202104N3               89825451200P3YK20210507000030SPEAKER ASM;ROOF              M IMCTM CM1    TNTH  09020IMKDC KA PTB  00036  K0                0231NES        000000000000 DENSO TEN (THAILAND)                                                                                                                                             G         20210422 IMCT                IMCT                                                                                                                    WMF2104226.TXT
MAKK14046111202104N3               89825451200P3YK20210508000030SPEAKER ASM;ROOF              M IMCTM CM1    TNTH  09020IMKDC KA PTB  00036  K0                0231NES        000000000000 DENSO TEN (THAILAND)                                                                                                                                             G         20210422 IMCT                IMCT                                                                                                                    WMF2104226.TXT
MAKK14046112202104N3               89825451200P3YK20210509000030SPEAKER ASM;ROOF              M IMCTM CM1    TNTH  09020IMKDC KA PTB  00036  K0                0231NES        000000000000 DENSO TEN (THAILAND)                                                                                                                                             G         20210422 IMCT                IMCT                                                                                                                    WMF2104226.TXT
MAKK14046113202104D3               89828070100P3YK20210503000120SPEAKER ASM                   M IMCTM CM1    TNTH  09020IMKDC KA PTB  00004  K0                1431DES        000000000000 DENSO TEN (THAILAND)                                                                                                                                             G         20210422 IMCT                IMCT                                                                                                                    WMF2104226.TXT
MAKK14046114202104N3               89828070100P3YK20210504000120SPEAKER ASM                   M IMCTM CM1    TNTH  09020IMKDC KA PTB  00004  K0                0231NES        000000000000 DENSO TEN (THAILAND)                                                                                                                                             G         20210422 IMCT                IMCT                                                                                                                    WMF2104226.TXT
MAKK14046115202104D3               89828070100P3YK20210504000090SPEAKER ASM                   M IMCTM CM1    TNTH  09020IMKDC KA PTB  00004  K0                1431DES        000000000000 DENSO TEN (THAILAND)                                                                                                                                             G         20210422 IMCT                IMCT                                                                                                                    WMF2104226.TXT
MAKK14046116202104N3               89828070100P3YK20210505000120SPEAKER ASM                   M IMCTM CM1    TNTH  09020IMKDC KA PTB  00004  K0                0231NES        000000000000 DENSO TEN (THAILAND)                                                                                                                                             G         20210422 IMCT                IMCT                                                                                                                    WMF2104226.TXT
MAKK14046117202104D3               89828070100P3YK20210505000120SPEAKER ASM                   M IMCTM CM1    TNTH  09020IMKDC KA PTB  00004  K0                1431DES        000000000000 DENSO TEN (THAILAND)                                                                                                                                             G         20210422 IMCT                IMCT                                                                                                                    WMF2104226.TXT
MAKK14046118202104N3               89828070100P3YK20210506000120SPEAKER ASM                   M IMCTM CM1    TNTH  09020IMKDC KA PTB  00004  K0                0231NES        000000000000 DENSO TEN (THAILAND)                                                                                                                                             G         20210422 IMCT                IMCT                                                                                                                    WMF2104226.TXT
MAKK14046119202104D3               89828070100P3YK20210506000090SPEAKER ASM                   M IMCTM CM1    TNTH  09020IMKDC KA PTB  00004  K0                1431DES        000000000000 DENSO TEN (THAILAND)                                                                                                                                             G         20210422 IMCT                IMCT                                                                                                                    WMF2104226.TXT
MAKK14046120202104N3               89828070100P3YK20210507000120SPEAKER ASM                   M IMCTM CM1    TNTH  09020IMKDC KA PTB  00004  K0                0231NES        000000000000 DENSO TEN (THAILAND)                                                                                                                                             G         20210422 IMCT                IMCT                                                                                                                    WMF2104226.TXT
MAKK14046121202104D3               89828070100P3YK20210507000090SPEAKER ASM                   M IMCTM CM1    TNTH  09020IMKDC KA PTB  00004  K0                1431DES        000000000000 DENSO TEN (THAILAND)                                                                                                                                             G         20210422 IMCT                IMCT                                                                                                                    WMF2104226.TXT
MAKK14046122202104N3               89828070100P3YK20210508000120SPEAKER ASM                   M IMCTM CM1    TNTH  09020IMKDC KA PTB  00004  K0                0231NES        000000000000 DENSO TEN (THAILAND)                                                                                                                                             G         20210422 IMCT                IMCT                                                                                                                    WMF2104226.TXT
MAKK14046123202104D3               89828070100P3YK20210508000090SPEAKER ASM                   M IMCTM CM1    TNTH  09020IMKDC KA PTB  00004  K0                1431DES        000000000000 DENSO TEN (THAILAND)                                                                                                                                             G         20210422 IMCT                IMCT                                                                                                                    WMF2104226.TXT
MAKK14046124202104N3               89828070100P3YK20210509000090SPEAKER ASM                   M IMCTM CM1    TNTH  09020IMKDC KA PTB  00004  K0                0231NES        000000000000 DENSO TEN (THAILAND)                                                                                                                                             G         20210422 IMCT                IMCT                                                                                                                    WMF2104226.TXT
MAKK14046125202104D3               89828070200P3YK20210503000030SPEAKER ASM                   M IMCTM CM1    TNTH  09020IMKDC KA PTB  00005  K0                1431DES        000000000000 DENSO TEN (THAILAND)                                                                                                                                             G         20210422 IMCT                IMCT                                                                                                                    WMF2104226.TXT
MAKK14046126202104N3               89828070200P3YK20210504000030SPEAKER ASM                   M IMCTM CM1    TNTH  09020IMKDC KA PTB  00005  K0                0231NES        000000000000 DENSO TEN (THAILAND)                                                                                                                                             G         20210422 IMCT                IMCT                                                                                                                    WMF2104226.TXT
MAKK14046127202104D3               89828070200P3YK20210504000090SPEAKER ASM                   M IMCTM CM1    TNTH  09020IMKDC KA PTB  00005  K0                1431DES        000000000000 DENSO TEN (THAILAND)                                                                                                                                             G         20210422 IMCT                IMCT                                                                                                                    WMF2104226.TXT
MAKK14046128202104N3               89828070200P3YK20210505000030SPEAKER ASM                   M IMCTM CM1    TNTH  09020IMKDC KA PTB  00005  K0                0231NES        000000000000 DENSO TEN (THAILAND)                                                                                                                                             G         20210422 IMCT                IMCT                                                                                                                    WMF2104226.TXT
MAKK14046129202104D3               89828070200P3YK20210505000060SPEAKER ASM                   M IMCTM CM1    TNTH  09020IMKDC KA PTB  00005  K0                1431DES        000000000000 DENSO TEN (THAILAND)                                                                                                                                             G         20210422 IMCT                IMCT                                                                                                                    WMF2104226.TXT
MAKK14046130202104N3               89828070200P3YK20210506000030SPEAKER ASM                   M IMCTM CM1    TNTH  09020IMKDC KA PTB  00005  K0                0231NES        000000000000 DENSO TEN (THAILAND)                                                                                                                                             G         20210422 IMCT                IMCT                                                                                                                    WMF2104226.TXT
MAKK14046131202104D3               89828070200P3YK20210506000060SPEAKER ASM                   M IMCTM CM1    TNTH  09020IMKDC KA PTB  00005  K0                1431DES        000000000000 DENSO TEN (THAILAND)                                                                                                                                             G         20210422 IMCT                IMCT                                                                                                                    WMF2104226.TXT
MAKK14046132202104N3               89828070200P3YK20210507000090SPEAKER ASM                   M IMCTM CM1    TNTH  09020IMKDC KA PTB  00005  K0                0231NES        000000000000 DENSO TEN (THAILAND)                                                                                                                                             G         20210422 IMCT                IMCT                                                                                                                    WMF2104226.TXT
MAKK14046133202104D3               89828070200P3YK20210507000060SPEAKER ASM                   M IMCTM CM1    TNTH  09020IMKDC KA PTB  00005  K0                1431DES        000000000000 DENSO TEN (THAILAND)                                                                                                                                             G         20210422 IMCT                IMCT                                                                                                                    WMF2104226.TXT
MAKK14046134202104N3               89828070200P3YK20210508000060SPEAKER ASM                   M IMCTM CM1    TNTH  09020IMKDC KA PTB  00005  K0                0231NES        000000000000 DENSO TEN (THAILAND)                                                                                                                                             G         20210422 IMCT                IMCT                                                                                                                    WMF2104226.TXT
MAKK14046135202104D3               89828070200P3YK20210508000060SPEAKER ASM                   M IMCTM CM1    TNTH  09020IMKDC KA PTB  00005  K0                1431DES        000000000000 DENSO TEN (THAILAND)                                                                                                                                             G         20210422 IMCT                IMCT                                                                                                                    WMF2104226.TXT
MAKK14046136202104N3               89828070200P3YK20210509000060SPEAKER ASM                   M IMCTM CM1    TNTH  09020IMKDC KA PTB  00005  K0                0231NES        000000000000 DENSO TEN (THAILAND)                                                                                                                                             G         20210422 IMCT                IMCT                                                                                                                    WMF2104226.TXT
MAKK14046137202104D3               89828070300P3YK20210503000030SPEAKER ASM                   M IMCTM CM1    TNTH  09020IMKDC KA PTB  00015  K0                1431DES        000000000000 DENSO TEN (THAILAND)                                                                                                                                             G         20210422 IMCT                IMCT                                                                                                                    WMF2104226.TXT
MAKK14046138202104N3               89828070300P3YK20210504000030SPEAKER ASM                   M IMCTM CM1    TNTH  09020IMKDC KA PTB  00015  K0                0231NES        000000000000 DENSO TEN (THAILAND)                                                                                                                                             G         20210422 IMCT                IMCT                                                                                                                    WMF2104226.TXT
MAKK14046139202104D3               89828070300P3YK20210504000090SPEAKER ASM                   M IMCTM CM1    TNTH  09020IMKDC KA PTB  00015  K0                1431DES        000000000000 DENSO TEN (THAILAND)                                                                                                                                             G         20210422 IMCT                IMCT                                                                                                                    WMF2104226.TXT
MAKK14046140202104N3               89828070300P3YK20210505000060SPEAKER ASM                   M IMCTM CM1    TNTH  09020IMKDC KA PTB  00015  K0                0231NES        000000000000 DENSO TEN (THAILAND)                                                                                                                                             G         20210422 IMCT                IMCT                                                                                                                    WMF2104226.TXT
MAKK14046141202104D3               89828070300P3YK20210505000060SPEAKER ASM                   M IMCTM CM1    TNTH  09020IMKDC KA PTB  00015  K0                1431DES        000000000000 DENSO TEN (THAILAND)                                                                                                                                             G         20210422 IMCT                IMCT                                                                                                                    WMF2104226.TXT
MAKK14046142202104N3               89828070300P3YK20210506000030SPEAKER ASM                   M IMCTM CM1    TNTH  09020IMKDC KA PTB  00015  K0                0231NES        000000000000 DENSO TEN (THAILAND)                                                                                                                                             G         20210422 IMCT                IMCT                                                                                                                    WMF2104226.TXT
MAKK14046143202104D3               89828070300P3YK20210506000060SPEAKER ASM                   M IMCTM CM1    TNTH  09020IMKDC KA PTB  00015  K0                1431DES        000000000000 DENSO TEN (THAILAND)                                                                                                                                             G         20210422 IMCT                IMCT                                                                                                                    WMF2104226.TXT
MAKK14046144202104N3               89828070300P3YK20210507000090SPEAKER ASM                   M IMCTM CM1    TNTH  09020IMKDC KA PTB  00015  K0                0231NES        000000000000 DENSO TEN (THAILAND)                                                                                                                                             G         20210422 IMCT                IMCT                                                                                                                    WMF2104226.TXT
MAKK14046145202104D3               89828070300P3YK20210507000060SPEAKER ASM                   M IMCTM CM1    TNTH  09020IMKDC KA PTB  00015  K0                1431DES        000000000000 DENSO TEN (THAILAND)                                                                                                                                             G         20210422 IMCT                IMCT                                                                                                                    WMF2104226.TXT
MAKK14046146202104N3               89828070300P3YK20210508000060SPEAKER ASM                   M IMCTM CM1    TNTH  09020IMKDC KA PTB  00015  K0                0231NES        000000000000 DENSO TEN (THAILAND)                                                                                                                                             G         20210422 IMCT                IMCT                                                                                                                    WMF2104226.TXT
MAKK14046147202104D3               89828070300P3YK20210508000060SPEAKER ASM                   M IMCTM CM1    TNTH  09020IMKDC KA PTB  00015  K0                1431DES        000000000000 DENSO TEN (THAILAND)                                                                                                                                             G         20210422 IMCT                IMCT                                                                                                                    WMF2104226.TXT
MAKK14046148202104N3               89828070300P3YK20210509000090SPEAKER ASM                   M IMCTM CM1    TNTH  09020IMKDC KA PTB  00015  K0                0231NES        000000000000 DENSO TEN (THAILAND)                                                                                                                                             G         20210422 IMCT                IMCT                                                                                                                    WMF2104226.TXT
