REC2021040520210405ISUZU                              4      
MDEFM4T07825202104                D89828070100PV4F20210409000028SPEAKER ASM                   M IMCTM S7FL05 TNTH  09020IMCT  S7 PTB  00004                    1300 SR        000000000000 DENSO TEN (THAILAND)17054RR0113   190K14R0196   D210401802    D210401815    000000                                                                              *R         20210405 IMCT                IMCT                                                                                                                    RMF2104052.TXT
MDEFM4T07826202104                D89828070200PV4F20210409000010SPEAKER ASM                   M IMCTM S7FL05 TNTH  09020IMCT  S7 PTB  00005                    1300 SR        000000000000 DENSO TEN (THAILAND)17054RR0113   17054RR0117   D210401802    D210401808    000000                                                                              *R         20210405 IMCT                IMCT                                                                                                                    RMF2104052.TXT
MDEFM4T07827202104                D89828070300PT4F20210409000010SPEAKER ASM                   M IMCTM S7TS02 TNTH  09020IMCT  S7 PTB  00015                    1300 SR        000000000000 DENSO TEN (THAILAND)17054RR0113   17054RR0117   D210401802    D210401808    000000                                                                              *R         20210405 IMCT                IMCT                                                                                                                    RMF2104052.TXT
MDEFM4212001202104                D89828070100PV4F20210408000032SPEAKER ASM                   M IMCTM S7FL05 TNTH  09020IMCT  S7 PTB  00004                    2230 SR        000000000000 DENSO TEN (THAILAND)190J75R0045   190J91R0193   D210401801    R210401915    000000                                                                              *R         20210405 IMCT                IMCT                                                                                                                    RMF2104052.TXT
