REC2021052020210520ISUZU                              30     
MAKK15128385202105N3               89825451200P3YK20210602000060SPEAKER ASM;ROOF              M IMCTM CM1    TNTH  09020IMKDC KA PTB  00036  K0                0231NES        000000000000 DENSO TEN (THAILAND)                                                                                                                                             G         20210520 IMCT                IMCT                                                                                                                    WMF2105208.TXT
MAKK15128386202105N3               89825451200P3YK20210603000030SPEAKER ASM;ROOF              M IMCTM CM1    TNTH  09020IMKDC KA PTB  00036  K0                0231NES        000000000000 DENSO TEN (THAILAND)                                                                                                                                             G         20210520 IMCT                IMCT                                                                                                                    WMF2105208.TXT
MAKK15128387202105D3               89825451200P3YK20210604000030SPEAKER ASM;ROOF              M IMCTM CM1    TNTH  09020IMKDC KA PTB  00036  K0                1431DES        000000000000 DENSO TEN (THAILAND)                                                                                                                                             G         20210520 IMCT                IMCT                                                                                                                    WMF2105208.TXT
MAKK15128388202105N3               89825451200P3YK20210606000030SPEAKER ASM;ROOF              M IMCTM CM1    TNTH  09020IMKDC KA PTB  00036  K0                0231NES        000000000000 DENSO TEN (THAILAND)                                                                                                                                             G         20210520 IMCT                IMCT                                                                                                                    WMF2105208.TXT
MAKK15128389202105D3               89828070100P3YK20210531000030SPEAKER ASM                   M IMCTM CM1    TNTH  09020IMKDC KA PTB  00004  K0                1431DES        000000000000 DENSO TEN (THAILAND)                                                                                                                                             G         20210520 IMCT                IMCT                                                                                                                    WMF2105208.TXT
MAKK15128390202105N3               89828070100P3YK20210601000120SPEAKER ASM                   M IMCTM CM1    TNTH  09020IMKDC KA PTB  00004  K0                0231NES        000000000000 DENSO TEN (THAILAND)                                                                                                                                             G         20210520 IMCT                IMCT                                                                                                                    WMF2105208.TXT
MAKK15128391202105D3               89828070100P3YK20210601000150SPEAKER ASM                   M IMCTM CM1    TNTH  09020IMKDC KA PTB  00004  K0                1431DES        000000000000 DENSO TEN (THAILAND)                                                                                                                                             G         20210520 IMCT                IMCT                                                                                                                    WMF2105208.TXT
MAKK15128392202105N3               89828070100P3YK20210602000120SPEAKER ASM                   M IMCTM CM1    TNTH  09020IMKDC KA PTB  00004  K0                0231NES        000000000000 DENSO TEN (THAILAND)                                                                                                                                             G         20210520 IMCT                IMCT                                                                                                                    WMF2105208.TXT
MAKK15128393202105D3               89828070100P3YK20210602000180SPEAKER ASM                   M IMCTM CM1    TNTH  09020IMKDC KA PTB  00004  K0                1431DES        000000000000 DENSO TEN (THAILAND)                                                                                                                                             G         20210520 IMCT                IMCT                                                                                                                    WMF2105208.TXT
MAKK15128394202105N3               89828070100P3YK20210603000150SPEAKER ASM                   M IMCTM CM1    TNTH  09020IMKDC KA PTB  00004  K0                0231NES        000000000000 DENSO TEN (THAILAND)                                                                                                                                             G         20210520 IMCT                IMCT                                                                                                                    WMF2105208.TXT
MAKK15128395202105D3               89828070100P3YK20210604000150SPEAKER ASM                   M IMCTM CM1    TNTH  09020IMKDC KA PTB  00004  K0                1431DES        000000000000 DENSO TEN (THAILAND)                                                                                                                                             G         20210520 IMCT                IMCT                                                                                                                    WMF2105208.TXT
MAKK15128396202105N3               89828070100P3YK20210605000150SPEAKER ASM                   M IMCTM CM1    TNTH  09020IMKDC KA PTB  00004  K0                0231NES        000000000000 DENSO TEN (THAILAND)                                                                                                                                             G         20210520 IMCT                IMCT                                                                                                                    WMF2105208.TXT
MAKK15128397202105D3               89828070100P3YK20210605000180SPEAKER ASM                   M IMCTM CM1    TNTH  09020IMKDC KA PTB  00004  K0                1431DES        000000000000 DENSO TEN (THAILAND)                                                                                                                                             G         20210520 IMCT                IMCT                                                                                                                    WMF2105208.TXT
MAKK15128398202105N3               89828070100P3YK20210606000120SPEAKER ASM                   M IMCTM CM1    TNTH  09020IMKDC KA PTB  00004  K0                0231NES        000000000000 DENSO TEN (THAILAND)                                                                                                                                             G         20210520 IMCT                IMCT                                                                                                                    WMF2105208.TXT
MAKK15128399202105D3               89828070200P3YK20210601000030SPEAKER ASM                   M IMCTM CM1    TNTH  09020IMKDC KA PTB  00005  K0                1431DES        000000000000 DENSO TEN (THAILAND)                                                                                                                                             G         20210520 IMCT                IMCT                                                                                                                    WMF2105208.TXT
MAKK15128400202105N3               89828070200P3YK20210602000030SPEAKER ASM                   M IMCTM CM1    TNTH  09020IMKDC KA PTB  00005  K0                0231NES        000000000000 DENSO TEN (THAILAND)                                                                                                                                             G         20210520 IMCT                IMCT                                                                                                                    WMF2105208.TXT
MAKK15128401202105D3               89828070200P3YK20210602000030SPEAKER ASM                   M IMCTM CM1    TNTH  09020IMKDC KA PTB  00005  K0                1431DES        000000000000 DENSO TEN (THAILAND)                                                                                                                                             G         20210520 IMCT                IMCT                                                                                                                    WMF2105208.TXT
MAKK15128402202105N3               89828070200P3YK20210603000030SPEAKER ASM                   M IMCTM CM1    TNTH  09020IMKDC KA PTB  00005  K0                0231NES        000000000000 DENSO TEN (THAILAND)                                                                                                                                             G         20210520 IMCT                IMCT                                                                                                                    WMF2105208.TXT
MAKK15128403202105D3               89828070200P3YK20210604000060SPEAKER ASM                   M IMCTM CM1    TNTH  09020IMKDC KA PTB  00005  K0                1431DES        000000000000 DENSO TEN (THAILAND)                                                                                                                                             G         20210520 IMCT                IMCT                                                                                                                    WMF2105208.TXT
MAKK15128404202105N3               89828070200P3YK20210605000030SPEAKER ASM                   M IMCTM CM1    TNTH  09020IMKDC KA PTB  00005  K0                0231NES        000000000000 DENSO TEN (THAILAND)                                                                                                                                             G         20210520 IMCT                IMCT                                                                                                                    WMF2105208.TXT
MAKK15128405202105D3               89828070200P3YK20210605000060SPEAKER ASM                   M IMCTM CM1    TNTH  09020IMKDC KA PTB  00005  K0                1431DES        000000000000 DENSO TEN (THAILAND)                                                                                                                                             G         20210520 IMCT                IMCT                                                                                                                    WMF2105208.TXT
MAKK15128406202105N3               89828070200P3YK20210606000060SPEAKER ASM                   M IMCTM CM1    TNTH  09020IMKDC KA PTB  00005  K0                0231NES        000000000000 DENSO TEN (THAILAND)                                                                                                                                             G         20210520 IMCT                IMCT                                                                                                                    WMF2105208.TXT
MAKK15128407202105D3               89828070300P3YK20210601000030SPEAKER ASM                   M IMCTM CM1    TNTH  09020IMKDC KA PTB  00015  K0                1431DES        000000000000 DENSO TEN (THAILAND)                                                                                                                                             G         20210520 IMCT                IMCT                                                                                                                    WMF2105208.TXT
MAKK15128408202105N3               89828070300P3YK20210602000090SPEAKER ASM                   M IMCTM CM1    TNTH  09020IMKDC KA PTB  00015  K0                0231NES        000000000000 DENSO TEN (THAILAND)                                                                                                                                             G         20210520 IMCT                IMCT                                                                                                                    WMF2105208.TXT
MAKK15128409202105D3               89828070300P3YK20210602000030SPEAKER ASM                   M IMCTM CM1    TNTH  09020IMKDC KA PTB  00015  K0                1431DES        000000000000 DENSO TEN (THAILAND)                                                                                                                                             G         20210520 IMCT                IMCT                                                                                                                    WMF2105208.TXT
MAKK15128410202105N3               89828070300P3YK20210603000030SPEAKER ASM                   M IMCTM CM1    TNTH  09020IMKDC KA PTB  00015  K0                0231NES        000000000000 DENSO TEN (THAILAND)                                                                                                                                             G         20210520 IMCT                IMCT                                                                                                                    WMF2105208.TXT
MAKK15128411202105D3               89828070300P3YK20210604000090SPEAKER ASM                   M IMCTM CM1    TNTH  09020IMKDC KA PTB  00015  K0                1431DES        000000000000 DENSO TEN (THAILAND)                                                                                                                                             G         20210520 IMCT                IMCT                                                                                                                    WMF2105208.TXT
MAKK15128412202105N3               89828070300P3YK20210605000030SPEAKER ASM                   M IMCTM CM1    TNTH  09020IMKDC KA PTB  00015  K0                0231NES        000000000000 DENSO TEN (THAILAND)                                                                                                                                             G         20210520 IMCT                IMCT                                                                                                                    WMF2105208.TXT
MAKK15128413202105D3               89828070300P3YK20210605000090SPEAKER ASM                   M IMCTM CM1    TNTH  09020IMKDC KA PTB  00015  K0                1431DES        000000000000 DENSO TEN (THAILAND)                                                                                                                                             G         20210520 IMCT                IMCT                                                                                                                    WMF2105208.TXT
MAKK15128414202105N3               89828070300P3YK20210606000060SPEAKER ASM                   M IMCTM CM1    TNTH  09020IMKDC KA PTB  00015  K0                0231NES        000000000000 DENSO TEN (THAILAND)                                                                                                                                             G         20210520 IMCT                IMCT                                                                                                                    WMF2105208.TXT
