REC2021052720210527ISUZU                              41     
MAKK15154322202105D3               89825451200P3YK20210608000030SPEAKER ASM;ROOF              M IMCTM CM1    TNTH  09020IMKDC KA PTB  00036  K0                1431DES        000000000000 DENSO TEN (THAILAND)                                                                                                                                             G         20210527 IMCT                IMCT                                                                                                                    WMF2105272.TXT
MAKK15154323202105N3               89825451200P3YK20210609000030SPEAKER ASM;ROOF              M IMCTM CM1    TNTH  09020IMKDC KA PTB  00036  K0                0231NES        000000000000 DENSO TEN (THAILAND)                                                                                                                                             G         20210527 IMCT                IMCT                                                                                                                    WMF2105272.TXT
MAKK15154324202105N3               89825451200P3YK20210611000030SPEAKER ASM;ROOF              M IMCTM CM1    TNTH  09020IMKDC KA PTB  00036  K0                0231NES        000000000000 DENSO TEN (THAILAND)                                                                                                                                             G         20210527 IMCT                IMCT                                                                                                                    WMF2105272.TXT
MAKK15154325202105D3               89828070100P3YK20210607000120SPEAKER ASM                   M IMCTM CM1    TNTH  09020IMKDC KA PTB  00004  K0                1431DES        000000000000 DENSO TEN (THAILAND)                                                                                                                                             G         20210527 IMCT                IMCT                                                                                                                    WMF2105272.TXT
MAKK15154326202105N3               89828070100P3YK20210608000090SPEAKER ASM                   M IMCTM CM1    TNTH  09020IMKDC KA PTB  00004  K0                0231NES        000000000000 DENSO TEN (THAILAND)                                                                                                                                             G         20210527 IMCT                IMCT                                                                                                                    WMF2105272.TXT
MAKK15154327202105D3               89828070100P3YK20210608000120SPEAKER ASM                   M IMCTM CM1    TNTH  09020IMKDC KA PTB  00004  K0                1431DES        000000000000 DENSO TEN (THAILAND)                                                                                                                                             G         20210527 IMCT                IMCT                                                                                                                    WMF2105272.TXT
MAKK15154328202105N3               89828070100P3YK20210609000120SPEAKER ASM                   M IMCTM CM1    TNTH  09020IMKDC KA PTB  00004  K0                0231NES        000000000000 DENSO TEN (THAILAND)                                                                                                                                             G         20210527 IMCT                IMCT                                                                                                                    WMF2105272.TXT
MAKK15154329202105D3               89828070100P3YK20210609000120SPEAKER ASM                   M IMCTM CM1    TNTH  09020IMKDC KA PTB  00004  K0                1431DES        000000000000 DENSO TEN (THAILAND)                                                                                                                                             G         20210527 IMCT                IMCT                                                                                                                    WMF2105272.TXT
MAKK15154330202105N3               89828070100P3YK20210610000120SPEAKER ASM                   M IMCTM CM1    TNTH  09020IMKDC KA PTB  00004  K0                0231NES        000000000000 DENSO TEN (THAILAND)                                                                                                                                             G         20210527 IMCT                IMCT                                                                                                                    WMF2105272.TXT
MAKK15154331202105D3               89828070100P3YK20210610000090SPEAKER ASM                   M IMCTM CM1    TNTH  09020IMKDC KA PTB  00004  K0                1431DES        000000000000 DENSO TEN (THAILAND)                                                                                                                                             G         20210527 IMCT                IMCT                                                                                                                    WMF2105272.TXT
MAKK15154332202105N3               89828070100P3YK20210611000120SPEAKER ASM                   M IMCTM CM1    TNTH  09020IMKDC KA PTB  00004  K0                0231NES        000000000000 DENSO TEN (THAILAND)                                                                                                                                             G         20210527 IMCT                IMCT                                                                                                                    WMF2105272.TXT
MAKK15154333202105D3               89828070100P3YK20210611000090SPEAKER ASM                   M IMCTM CM1    TNTH  09020IMKDC KA PTB  00004  K0                1431DES        000000000000 DENSO TEN (THAILAND)                                                                                                                                             G         20210527 IMCT                IMCT                                                                                                                    WMF2105272.TXT
MAKK15154334202105N3               89828070100P3YK20210612000090SPEAKER ASM                   M IMCTM CM1    TNTH  09020IMKDC KA PTB  00004  K0                0231NES        000000000000 DENSO TEN (THAILAND)                                                                                                                                             G         20210527 IMCT                IMCT                                                                                                                    WMF2105272.TXT
MAKK15154335202105D3               89828070100P3YK20210612000090SPEAKER ASM                   M IMCTM CM1    TNTH  09020IMKDC KA PTB  00004  K0                1431DES        000000000000 DENSO TEN (THAILAND)                                                                                                                                             G         20210527 IMCT                IMCT                                                                                                                    WMF2105272.TXT
MAKK15154336202105N3               89828070100P3YK20210613000060SPEAKER ASM                   M IMCTM CM1    TNTH  09020IMKDC KA PTB  00004  K0                0231NES        000000000000 DENSO TEN (THAILAND)                                                                                                                                             G         20210527 IMCT                IMCT                                                                                                                    WMF2105272.TXT
MAKK15154337202105D3               89828070200P3YK20210607000060SPEAKER ASM                   M IMCTM CM1    TNTH  09020IMKDC KA PTB  00005  K0                1431DES        000000000000 DENSO TEN (THAILAND)                                                                                                                                             G         20210527 IMCT                IMCT                                                                                                                    WMF2105272.TXT
MAKK15154338202105N3               89828070200P3YK20210608000060SPEAKER ASM                   M IMCTM CM1    TNTH  09020IMKDC KA PTB  00005  K0                0231NES        000000000000 DENSO TEN (THAILAND)                                                                                                                                             G         20210527 IMCT                IMCT                                                                                                                    WMF2105272.TXT
MAKK15154339202105D3               89828070200P3YK20210608000030SPEAKER ASM                   M IMCTM CM1    TNTH  09020IMKDC KA PTB  00005  K0                1431DES        000000000000 DENSO TEN (THAILAND)                                                                                                                                             G         20210527 IMCT                IMCT                                                                                                                    WMF2105272.TXT
MAKK15154340202105N3               89828070200P3YK20210609000030SPEAKER ASM                   M IMCTM CM1    TNTH  09020IMKDC KA PTB  00005  K0                0231NES        000000000000 DENSO TEN (THAILAND)                                                                                                                                             G         20210527 IMCT                IMCT                                                                                                                    WMF2105272.TXT
MAKK15154341202105D3               89828070200P3YK20210609000090SPEAKER ASM                   M IMCTM CM1    TNTH  09020IMKDC KA PTB  00005  K0                1431DES        000000000000 DENSO TEN (THAILAND)                                                                                                                                             G         20210527 IMCT                IMCT                                                                                                                    WMF2105272.TXT
MAKK15154342202105N3               89828070200P3YK20210610000060SPEAKER ASM                   M IMCTM CM1    TNTH  09020IMKDC KA PTB  00005  K0                0231NES        000000000000 DENSO TEN (THAILAND)                                                                                                                                             G         20210527 IMCT                IMCT                                                                                                                    WMF2105272.TXT
MAKK15154343202105D3               89828070200P3YK20210610000030SPEAKER ASM                   M IMCTM CM1    TNTH  09020IMKDC KA PTB  00005  K0                1431DES        000000000000 DENSO TEN (THAILAND)                                                                                                                                             G         20210527 IMCT                IMCT                                                                                                                    WMF2105272.TXT
MAKK15154344202105N3               89828070200P3YK20210611000030SPEAKER ASM                   M IMCTM CM1    TNTH  09020IMKDC KA PTB  00005  K0                0231NES        000000000000 DENSO TEN (THAILAND)                                                                                                                                             G         20210527 IMCT                IMCT                                                                                                                    WMF2105272.TXT
MAKK15154345202105D3               89828070200P3YK20210611000060SPEAKER ASM                   M IMCTM CM1    TNTH  09020IMKDC KA PTB  00005  K0                1431DES        000000000000 DENSO TEN (THAILAND)                                                                                                                                             G         20210527 IMCT                IMCT                                                                                                                    WMF2105272.TXT
MAKK15154346202105N3               89828070200P3YK20210612000060SPEAKER ASM                   M IMCTM CM1    TNTH  09020IMKDC KA PTB  00005  K0                0231NES        000000000000 DENSO TEN (THAILAND)                                                                                                                                             G         20210527 IMCT                IMCT                                                                                                                    WMF2105272.TXT
MAKK15154347202105D3               89828070200P3YK20210612000030SPEAKER ASM                   M IMCTM CM1    TNTH  09020IMKDC KA PTB  00005  K0                1431DES        000000000000 DENSO TEN (THAILAND)                                                                                                                                             G         20210527 IMCT                IMCT                                                                                                                    WMF2105272.TXT
MAKK15154348202105N3               89828070200P3YK20210613000030SPEAKER ASM                   M IMCTM CM1    TNTH  09020IMKDC KA PTB  00005  K0                0231NES        000000000000 DENSO TEN (THAILAND)                                                                                                                                             G         20210527 IMCT                IMCT                                                                                                                    WMF2105272.TXT
MAKK15154349202105D3               89828070300P3YK20210607000060SPEAKER ASM                   M IMCTM CM1    TNTH  09020IMKDC KA PTB  00015  K0                1431DES        000000000000 DENSO TEN (THAILAND)                                                                                                                                             G         20210527 IMCT                IMCT                                                                                                                    WMF2105272.TXT
MAKK15154350202105N3               89828070300P3YK20210608000060SPEAKER ASM                   M IMCTM CM1    TNTH  09020IMKDC KA PTB  00015  K0                0231NES        000000000000 DENSO TEN (THAILAND)                                                                                                                                             G         20210527 IMCT                IMCT                                                                                                                    WMF2105272.TXT
MAKK15154351202105D3               89828070300P3YK20210608000060SPEAKER ASM                   M IMCTM CM1    TNTH  09020IMKDC KA PTB  00015  K0                1431DES        000000000000 DENSO TEN (THAILAND)                                                                                                                                             G         20210527 IMCT                IMCT                                                                                                                    WMF2105272.TXT
MAKK15154352202105N3               89828070300P3YK20210609000030SPEAKER ASM                   M IMCTM CM1    TNTH  09020IMKDC KA PTB  00015  K0                0231NES        000000000000 DENSO TEN (THAILAND)                                                                                                                                             G         20210527 IMCT                IMCT                                                                                                                    WMF2105272.TXT
MAKK15154353202105D3               89828070300P3YK20210609000090SPEAKER ASM                   M IMCTM CM1    TNTH  09020IMKDC KA PTB  00015  K0                1431DES        000000000000 DENSO TEN (THAILAND)                                                                                                                                             G         20210527 IMCT                IMCT                                                                                                                    WMF2105272.TXT
MAKK15154354202105N3               89828070300P3YK20210610000060SPEAKER ASM                   M IMCTM CM1    TNTH  09020IMKDC KA PTB  00015  K0                0231NES        000000000000 DENSO TEN (THAILAND)                                                                                                                                             G         20210527 IMCT                IMCT                                                                                                                    WMF2105272.TXT
MAKK15154355202105D3               89828070300P3YK20210610000060SPEAKER ASM                   M IMCTM CM1    TNTH  09020IMKDC KA PTB  00015  K0                1431DES        000000000000 DENSO TEN (THAILAND)                                                                                                                                             G         20210527 IMCT                IMCT                                                                                                                    WMF2105272.TXT
MAKK15154356202105N3               89828070300P3YK20210611000060SPEAKER ASM                   M IMCTM CM1    TNTH  09020IMKDC KA PTB  00015  K0                0231NES        000000000000 DENSO TEN (THAILAND)                                                                                                                                             G         20210527 IMCT                IMCT                                                                                                                    WMF2105272.TXT
MAKK15154357202105D3               89828070300P3YK20210611000060SPEAKER ASM                   M IMCTM CM1    TNTH  09020IMKDC KA PTB  00015  K0                1431DES        000000000000 DENSO TEN (THAILAND)                                                                                                                                             G         20210527 IMCT                IMCT                                                                                                                    WMF2105272.TXT
MAKK15154358202105N3               89828070300P3YK20210612000090SPEAKER ASM                   M IMCTM CM1    TNTH  09020IMKDC KA PTB  00015  K0                0231NES        000000000000 DENSO TEN (THAILAND)                                                                                                                                             G         20210527 IMCT                IMCT                                                                                                                    WMF2105272.TXT
MAKK15154359202105D3               89828070300P3YK20210612000030SPEAKER ASM                   M IMCTM CM1    TNTH  09020IMKDC KA PTB  00015  K0                1431DES        000000000000 DENSO TEN (THAILAND)                                                                                                                                             G         20210527 IMCT                IMCT                                                                                                                    WMF2105272.TXT
MAKK15154360202105N3               89828070300P3YK20210613000030SPEAKER ASM                   M IMCTM CM1    TNTH  09020IMKDC KA PTB  00015  K0                0231NES        000000000000 DENSO TEN (THAILAND)                                                                                                                                             G         20210527 IMCT                IMCT                                                                                                                    WMF2105272.TXT
MAKK15161998202105D3               89828070100P3YK20210609000030SPEAKER ASM                   M IMCTM PK3    TNTH  09020IMKDC KA PTB  00004  K0                1431DES        000000000000 DENSO TEN (THAILAND)                                                                                                                                             G         20210527 IMCT                IMCT                                                                                                                    WMF2105272.TXT
MAKK15161999202105D3               89828070200P3YK20210609000030SPEAKER ASM                   M IMCTM PK3    TNTH  09020IMKDC KA PTB  00005  K0                1431DES        000000000000 DENSO TEN (THAILAND)                                                                                                                                             G         20210527 IMCT                IMCT                                                                                                                    WMF2105272.TXT
