REC2021051320210513ISUZU                              35     
MAKK15105467202105D3               89753792300P3YK20210527000015HARNESS ASM;INFO              M IMCTM CM1    TNTH  09020IMKDC KA PTB  00015  K0                1431DES        000000000000 DENSO TEN (THAILAND)                                                                                                                                             G         20210513 IMCT                IMCT                                                                                                                    WMF2105135.TXT
MAKK15105468202105D3               89767048400P3YK20210527000015DISPLAY UNIT;ASM              M IMCTM CM1    TNTH  09020IMKDC KA PTB  00005  K0                1431DES        000000000000 DENSO TEN (THAILAND)                                                                                                                                             G         20210513 IMCT                IMCT                                                                                                                    WMF2105135.TXT
MAKK15105469202105N3               89825451200P3YK20210525000060SPEAKER ASM;ROOF              M IMCTM CM1    TNTH  09020IMKDC KA PTB  00036  K0                0231NES        000000000000 DENSO TEN (THAILAND)                                                                                                                                             G         20210513 IMCT                IMCT                                                                                                                    WMF2105135.TXT
MAKK15105470202105D3               89825451200P3YK20210526000030SPEAKER ASM;ROOF              M IMCTM CM1    TNTH  09020IMKDC KA PTB  00036  K0                1431DES        000000000000 DENSO TEN (THAILAND)                                                                                                                                             G         20210513 IMCT                IMCT                                                                                                                    WMF2105135.TXT
MAKK15105471202105D3               89828070100P3YK20210524000060SPEAKER ASM                   M IMCTM CM1    TNTH  09020IMKDC KA PTB  00004  K0                1431DES        000000000000 DENSO TEN (THAILAND)                                                                                                                                             G         20210513 IMCT                IMCT                                                                                                                    WMF2105135.TXT
MAKK15105472202105N3               89828070100P3YK20210525000090SPEAKER ASM                   M IMCTM CM1    TNTH  09020IMKDC KA PTB  00004  K0                0231NES        000000000000 DENSO TEN (THAILAND)                                                                                                                                             G         20210513 IMCT                IMCT                                                                                                                    WMF2105135.TXT
MAKK15105473202105D3               89828070100P3YK20210525000060SPEAKER ASM                   M IMCTM CM1    TNTH  09020IMKDC KA PTB  00004  K0                1431DES        000000000000 DENSO TEN (THAILAND)                                                                                                                                             G         20210513 IMCT                IMCT                                                                                                                    WMF2105135.TXT
MAKK15105474202105N3               89828070100P3YK20210526000120SPEAKER ASM                   M IMCTM CM1    TNTH  09020IMKDC KA PTB  00004  K0                0231NES        000000000000 DENSO TEN (THAILAND)                                                                                                                                             G         20210513 IMCT                IMCT                                                                                                                    WMF2105135.TXT
MAKK15105475202105D3               89828070100P3YK20210526000060SPEAKER ASM                   M IMCTM CM1    TNTH  09020IMKDC KA PTB  00004  K0                1431DES        000000000000 DENSO TEN (THAILAND)                                                                                                                                             G         20210513 IMCT                IMCT                                                                                                                    WMF2105135.TXT
MAKK15105476202105N3               89828070100P3YK20210527000060SPEAKER ASM                   M IMCTM CM1    TNTH  09020IMKDC KA PTB  00004  K0                0231NES        000000000000 DENSO TEN (THAILAND)                                                                                                                                             G         20210513 IMCT                IMCT                                                                                                                    WMF2105135.TXT
MAKK15105477202105D3               89828070100P3YK20210527000060SPEAKER ASM                   M IMCTM CM1    TNTH  09020IMKDC KA PTB  00004  K0                1431DES        000000000000 DENSO TEN (THAILAND)                                                                                                                                             G         20210513 IMCT                IMCT                                                                                                                    WMF2105135.TXT
MAKK15105478202105N3               89828070100P3YK20210528000090SPEAKER ASM                   M IMCTM CM1    TNTH  09020IMKDC KA PTB  00004  K0                0231NES        000000000000 DENSO TEN (THAILAND)                                                                                                                                             G         20210513 IMCT                IMCT                                                                                                                    WMF2105135.TXT
MAKK15105479202105D3               89828070100P3YK20210528000060SPEAKER ASM                   M IMCTM CM1    TNTH  09020IMKDC KA PTB  00004  K0                1431DES        000000000000 DENSO TEN (THAILAND)                                                                                                                                             G         20210513 IMCT                IMCT                                                                                                                    WMF2105135.TXT
MAKK15105480202105N3               89828070100P3YK20210529000030SPEAKER ASM                   M IMCTM CM1    TNTH  09020IMKDC KA PTB  00004  K0                0231NES        000000000000 DENSO TEN (THAILAND)                                                                                                                                             G         20210513 IMCT                IMCT                                                                                                                    WMF2105135.TXT
MAKK15105481202105D3               89828070200P3YK20210524000030SPEAKER ASM                   M IMCTM CM1    TNTH  09020IMKDC KA PTB  00005  K0                1431DES        000000000000 DENSO TEN (THAILAND)                                                                                                                                             G         20210513 IMCT                IMCT                                                                                                                    WMF2105135.TXT
MAKK15105482202105N3               89828070200P3YK20210525000030SPEAKER ASM                   M IMCTM CM1    TNTH  09020IMKDC KA PTB  00005  K0                0231NES        000000000000 DENSO TEN (THAILAND)                                                                                                                                             G         20210513 IMCT                IMCT                                                                                                                    WMF2105135.TXT
MAKK15105483202105D3               89828070200P3YK20210525000060SPEAKER ASM                   M IMCTM CM1    TNTH  09020IMKDC KA PTB  00005  K0                1431DES        000000000000 DENSO TEN (THAILAND)                                                                                                                                             G         20210513 IMCT                IMCT                                                                                                                    WMF2105135.TXT
MAKK15105484202105N3               89828070200P3YK20210526000060SPEAKER ASM                   M IMCTM CM1    TNTH  09020IMKDC KA PTB  00005  K0                0231NES        000000000000 DENSO TEN (THAILAND)                                                                                                                                             G         20210513 IMCT                IMCT                                                                                                                    WMF2105135.TXT
MAKK15105485202105D3               89828070200P3YK20210526000060SPEAKER ASM                   M IMCTM CM1    TNTH  09020IMKDC KA PTB  00005  K0                1431DES        000000000000 DENSO TEN (THAILAND)                                                                                                                                             G         20210513 IMCT                IMCT                                                                                                                    WMF2105135.TXT
MAKK15105486202105N3               89828070200P3YK20210527000030SPEAKER ASM                   M IMCTM CM1    TNTH  09020IMKDC KA PTB  00005  K0                0231NES        000000000000 DENSO TEN (THAILAND)                                                                                                                                             G         20210513 IMCT                IMCT                                                                                                                    WMF2105135.TXT
MAKK15105487202105D3               89828070200P3YK20210527000060SPEAKER ASM                   M IMCTM CM1    TNTH  09020IMKDC KA PTB  00005  K0                1431DES        000000000000 DENSO TEN (THAILAND)                                                                                                                                             G         20210513 IMCT                IMCT                                                                                                                    WMF2105135.TXT
MAKK15105488202105N3               89828070200P3YK20210528000060SPEAKER ASM                   M IMCTM CM1    TNTH  09020IMKDC KA PTB  00005  K0                0231NES        000000000000 DENSO TEN (THAILAND)                                                                                                                                             G         20210513 IMCT                IMCT                                                                                                                    WMF2105135.TXT
MAKK15105489202105D3               89828070200P3YK20210528000060SPEAKER ASM                   M IMCTM CM1    TNTH  09020IMKDC KA PTB  00005  K0                1431DES        000000000000 DENSO TEN (THAILAND)                                                                                                                                             G         20210513 IMCT                IMCT                                                                                                                    WMF2105135.TXT
MAKK15105490202105D3               89828070300P3YK20210524000060SPEAKER ASM                   M IMCTM CM1    TNTH  09020IMKDC KA PTB  00015  K0                1431DES        000000000000 DENSO TEN (THAILAND)                                                                                                                                             G         20210513 IMCT                IMCT                                                                                                                    WMF2105135.TXT
MAKK15105491202105N3               89828070300P3YK20210525000060SPEAKER ASM                   M IMCTM CM1    TNTH  09020IMKDC KA PTB  00015  K0                0231NES        000000000000 DENSO TEN (THAILAND)                                                                                                                                             G         20210513 IMCT                IMCT                                                                                                                    WMF2105135.TXT
MAKK15105492202105D3               89828070300P3YK20210525000060SPEAKER ASM                   M IMCTM CM1    TNTH  09020IMKDC KA PTB  00015  K0                1431DES        000000000000 DENSO TEN (THAILAND)                                                                                                                                             G         20210513 IMCT                IMCT                                                                                                                    WMF2105135.TXT
MAKK15105493202105N3               89828070300P3YK20210526000060SPEAKER ASM                   M IMCTM CM1    TNTH  09020IMKDC KA PTB  00015  K0                0231NES        000000000000 DENSO TEN (THAILAND)                                                                                                                                             G         20210513 IMCT                IMCT                                                                                                                    WMF2105135.TXT
MAKK15105494202105D3               89828070300P3YK20210526000060SPEAKER ASM                   M IMCTM CM1    TNTH  09020IMKDC KA PTB  00015  K0                1431DES        000000000000 DENSO TEN (THAILAND)                                                                                                                                             G         20210513 IMCT                IMCT                                                                                                                    WMF2105135.TXT
MAKK15105495202105N3               89828070300P3YK20210527000060SPEAKER ASM                   M IMCTM CM1    TNTH  09020IMKDC KA PTB  00015  K0                0231NES        000000000000 DENSO TEN (THAILAND)                                                                                                                                             G         20210513 IMCT                IMCT                                                                                                                    WMF2105135.TXT
MAKK15105496202105D3               89828070300P3YK20210527000060SPEAKER ASM                   M IMCTM CM1    TNTH  09020IMKDC KA PTB  00015  K0                1431DES        000000000000 DENSO TEN (THAILAND)                                                                                                                                             G         20210513 IMCT                IMCT                                                                                                                    WMF2105135.TXT
MAKK15105497202105N3               89828070300P3YK20210528000060SPEAKER ASM                   M IMCTM CM1    TNTH  09020IMKDC KA PTB  00015  K0                0231NES        000000000000 DENSO TEN (THAILAND)                                                                                                                                             G         20210513 IMCT                IMCT                                                                                                                    WMF2105135.TXT
MAKK15105498202105D3               89828070300P3YK20210528000060SPEAKER ASM                   M IMCTM CM1    TNTH  09020IMKDC KA PTB  00015  K0                1431DES        000000000000 DENSO TEN (THAILAND)                                                                                                                                             G         20210513 IMCT                IMCT                                                                                                                    WMF2105135.TXT
MAKK15105499202105D3               89839627340P3YK20210527000015RADIO;ASM CENTER              M IMCTM CM1    TNTH  09020IMKDC KA PTB  00005  K0                1431DES        000000000000 DENSO TEN (THAILAND)                                                                                                                                             G         20210513 IMCT                IMCT                                                                                                                    WMF2105135.TXT
MAKK15105500202105D3               89839629110P3YK20210527000015RECEPTACLE ASM;I              M IMCTM CM1    TNTH  09020IMKDC KA PTB  00015  K0                1431DES        000000000000 DENSO TEN (THAILAND)                                                                                                                                             G         20210513 IMCT                IMCT                                                                                                                    WMF2105135.TXT
MAKK15105501202105D3               89839631600P3YK20210527000015HARNESS KIT;ASM,              M IMCTM CM1    TNTH  09020IMKDC KA PTB  00030  K0                1431DES        000000000000 DENSO TEN (THAILAND)                                                                                                                                             G         20210513 IMCT                IMCT                                                                                                                    WMF2105135.TXT
