REC2021061720210617ISUZU                              31     
MAKK16089022202106D3               89825451200P3YK20210629000030SPEAKER ASM;ROOF              M IMCTM CM1    TNTH  09020IMKDC KA PTB  00036  K0                1431DES        000000000000 DENSO TEN (THAILAND)                                                                                                                                             G         20210617 IMCT                IMCT                                                                                                                    WMF2106175.TXT
MAKK16089023202106D3               89825451200P3YK20210701000030SPEAKER ASM;ROOF              M IMCTM CM1    TNTH  09020IMKDC KA PTB  00036  K0                1431DES        000000000000 DENSO TEN (THAILAND)                                                                                                                                             G         20210617 IMCT                IMCT                                                                                                                    WMF2106175.TXT
MAKK16089024202106N3               89825451200P3YK20210703000030SPEAKER ASM;ROOF              M IMCTM CM1    TNTH  09020IMKDC KA PTB  00036  K0                0231NES        000000000000 DENSO TEN (THAILAND)                                                                                                                                             G         20210617 IMCT                IMCT                                                                                                                    WMF2106175.TXT
MAKK16089025202106D3               89828070100P3YK20210628000090SPEAKER ASM                   M IMCTM CM1    TNTH  09020IMKDC KA PTB  00004  K0                1431DES        000000000000 DENSO TEN (THAILAND)                                                                                                                                             G         20210617 IMCT                IMCT                                                                                                                    WMF2106175.TXT
MAKK16089026202106N3               89828070100P3YK20210629000120SPEAKER ASM                   M IMCTM CM1    TNTH  09020IMKDC KA PTB  00004  K0                0231NES        000000000000 DENSO TEN (THAILAND)                                                                                                                                             G         20210617 IMCT                IMCT                                                                                                                    WMF2106175.TXT
MAKK16089027202106D3               89828070100P3YK20210629000090SPEAKER ASM                   M IMCTM CM1    TNTH  09020IMKDC KA PTB  00004  K0                1431DES        000000000000 DENSO TEN (THAILAND)                                                                                                                                             G         20210617 IMCT                IMCT                                                                                                                    WMF2106175.TXT
MAKK16089028202106N3               89828070100P3YK20210630000090SPEAKER ASM                   M IMCTM CM1    TNTH  09020IMKDC KA PTB  00004  K0                0231NES        000000000000 DENSO TEN (THAILAND)                                                                                                                                             G         20210617 IMCT                IMCT                                                                                                                    WMF2106175.TXT
MAKK16089029202106D3               89828070100P3YK20210630000090SPEAKER ASM                   M IMCTM CM1    TNTH  09020IMKDC KA PTB  00004  K0                1431DES        000000000000 DENSO TEN (THAILAND)                                                                                                                                             G         20210617 IMCT                IMCT                                                                                                                    WMF2106175.TXT
MAKK16089030202106N3               89828070100P3YK20210701000120SPEAKER ASM                   M IMCTM CM1    TNTH  09020IMKDC KA PTB  00004  K0                0231NES        000000000000 DENSO TEN (THAILAND)                                                                                                                                             G         20210617 IMCT                IMCT                                                                                                                    WMF2106175.TXT
MAKK16089031202106D3               89828070100P3YK20210701000090SPEAKER ASM                   M IMCTM CM1    TNTH  09020IMKDC KA PTB  00004  K0                1431DES        000000000000 DENSO TEN (THAILAND)                                                                                                                                             G         20210617 IMCT                IMCT                                                                                                                    WMF2106175.TXT
MAKK16089032202106N3               89828070100P3YK20210702000150SPEAKER ASM                   M IMCTM CM1    TNTH  09020IMKDC KA PTB  00004  K0                0231NES        000000000000 DENSO TEN (THAILAND)                                                                                                                                             G         20210617 IMCT                IMCT                                                                                                                    WMF2106175.TXT
MAKK16089033202106D3               89828070100P3YK20210702000120SPEAKER ASM                   M IMCTM CM1    TNTH  09020IMKDC KA PTB  00004  K0                1431DES        000000000000 DENSO TEN (THAILAND)                                                                                                                                             G         20210617 IMCT                IMCT                                                                                                                    WMF2106175.TXT
MAKK16089034202106N3               89828070100P3YK20210703000090SPEAKER ASM                   M IMCTM CM1    TNTH  09020IMKDC KA PTB  00004  K0                0231NES        000000000000 DENSO TEN (THAILAND)                                                                                                                                             G         20210617 IMCT                IMCT                                                                                                                    WMF2106175.TXT
MAKK16089035202106N3               89828070200P3YK20210629000030SPEAKER ASM                   M IMCTM CM1    TNTH  09020IMKDC KA PTB  00005  K0                0231NES        000000000000 DENSO TEN (THAILAND)                                                                                                                                             G         20210617 IMCT                IMCT                                                                                                                    WMF2106175.TXT
MAKK16089036202106D3               89828070200P3YK20210629000030SPEAKER ASM                   M IMCTM CM1    TNTH  09020IMKDC KA PTB  00005  K0                1431DES        000000000000 DENSO TEN (THAILAND)                                                                                                                                             G         20210617 IMCT                IMCT                                                                                                                    WMF2106175.TXT
MAKK16089037202106D3               89828070200P3YK20210630000030SPEAKER ASM                   M IMCTM CM1    TNTH  09020IMKDC KA PTB  00005  K0                1431DES        000000000000 DENSO TEN (THAILAND)                                                                                                                                             G         20210617 IMCT                IMCT                                                                                                                    WMF2106175.TXT
MAKK16089038202106N3               89828070200P3YK20210701000060SPEAKER ASM                   M IMCTM CM1    TNTH  09020IMKDC KA PTB  00005  K0                0231NES        000000000000 DENSO TEN (THAILAND)                                                                                                                                             G         20210617 IMCT                IMCT                                                                                                                    WMF2106175.TXT
MAKK16089039202106D3               89828070200P3YK20210701000060SPEAKER ASM                   M IMCTM CM1    TNTH  09020IMKDC KA PTB  00005  K0                1431DES        000000000000 DENSO TEN (THAILAND)                                                                                                                                             G         20210617 IMCT                IMCT                                                                                                                    WMF2106175.TXT
MAKK16089040202106N3               89828070200P3YK20210702000090SPEAKER ASM                   M IMCTM CM1    TNTH  09020IMKDC KA PTB  00005  K0                0231NES        000000000000 DENSO TEN (THAILAND)                                                                                                                                             G         20210617 IMCT                IMCT                                                                                                                    WMF2106175.TXT
MAKK16089041202106D3               89828070200P3YK20210702000060SPEAKER ASM                   M IMCTM CM1    TNTH  09020IMKDC KA PTB  00005  K0                1431DES        000000000000 DENSO TEN (THAILAND)                                                                                                                                             G         20210617 IMCT                IMCT                                                                                                                    WMF2106175.TXT
MAKK16089042202106N3               89828070200P3YK20210703000060SPEAKER ASM                   M IMCTM CM1    TNTH  09020IMKDC KA PTB  00005  K0                0231NES        000000000000 DENSO TEN (THAILAND)                                                                                                                                             G         20210617 IMCT                IMCT                                                                                                                    WMF2106175.TXT
MAKK16089043202106D3               89828070300P3YK20210628000060SPEAKER ASM                   M IMCTM CM1    TNTH  09020IMKDC KA PTB  00015  K0                1431DES        000000000000 DENSO TEN (THAILAND)                                                                                                                                             G         20210617 IMCT                IMCT                                                                                                                    WMF2106175.TXT
MAKK16089044202106N3               89828070300P3YK20210629000060SPEAKER ASM                   M IMCTM CM1    TNTH  09020IMKDC KA PTB  00015  K0                0231NES        000000000000 DENSO TEN (THAILAND)                                                                                                                                             G         20210617 IMCT                IMCT                                                                                                                    WMF2106175.TXT
MAKK16089045202106D3               89828070300P3YK20210629000060SPEAKER ASM                   M IMCTM CM1    TNTH  09020IMKDC KA PTB  00015  K0                1431DES        000000000000 DENSO TEN (THAILAND)                                                                                                                                             G         20210617 IMCT                IMCT                                                                                                                    WMF2106175.TXT
MAKK16089046202106N3               89828070300P3YK20210630000030SPEAKER ASM                   M IMCTM CM1    TNTH  09020IMKDC KA PTB  00015  K0                0231NES        000000000000 DENSO TEN (THAILAND)                                                                                                                                             G         20210617 IMCT                IMCT                                                                                                                    WMF2106175.TXT
MAKK16089047202106D3               89828070300P3YK20210630000060SPEAKER ASM                   M IMCTM CM1    TNTH  09020IMKDC KA PTB  00015  K0                1431DES        000000000000 DENSO TEN (THAILAND)                                                                                                                                             G         20210617 IMCT                IMCT                                                                                                                    WMF2106175.TXT
MAKK16089048202106N3               89828070300P3YK20210701000060SPEAKER ASM                   M IMCTM CM1    TNTH  09020IMKDC KA PTB  00015  K0                0231NES        000000000000 DENSO TEN (THAILAND)                                                                                                                                             G         20210617 IMCT                IMCT                                                                                                                    WMF2106175.TXT
MAKK16089049202106D3               89828070300P3YK20210701000090SPEAKER ASM                   M IMCTM CM1    TNTH  09020IMKDC KA PTB  00015  K0                1431DES        000000000000 DENSO TEN (THAILAND)                                                                                                                                             G         20210617 IMCT                IMCT                                                                                                                    WMF2106175.TXT
MAKK16089050202106N3               89828070300P3YK20210702000090SPEAKER ASM                   M IMCTM CM1    TNTH  09020IMKDC KA PTB  00015  K0                0231NES        000000000000 DENSO TEN (THAILAND)                                                                                                                                             G         20210617 IMCT                IMCT                                                                                                                    WMF2106175.TXT
MAKK16089051202106D3               89828070300P3YK20210702000060SPEAKER ASM                   M IMCTM CM1    TNTH  09020IMKDC KA PTB  00015  K0                1431DES        000000000000 DENSO TEN (THAILAND)                                                                                                                                             G         20210617 IMCT                IMCT                                                                                                                    WMF2106175.TXT
MAKK16089052202106N3               89828070300P3YK20210703000090SPEAKER ASM                   M IMCTM CM1    TNTH  09020IMKDC KA PTB  00015  K0                0231NES        000000000000 DENSO TEN (THAILAND)                                                                                                                                             G         20210617 IMCT                IMCT                                                                                                                    WMF2106175.TXT
