REC2021060420210604ISUZU                              31     
MAKK15178807202106D3               89825451200P3YK20210615000030SPEAKER ASM;ROOF              M IMCTM CM1    TNTH  09020IMKDC KA PTB  00036  K0                1431DES        000000000000 DENSO TEN (THAILAND)                                                                                                                                             G         20210604 IMCT                IMCT                                                                                                                    WMF2106043.TXT
MAKK15178808202106N3               89825451200P3YK20210616000030SPEAKER ASM;ROOF              M IMCTM CM1    TNTH  09020IMKDC KA PTB  00036  K0                0231NES        000000000000 DENSO TEN (THAILAND)                                                                                                                                             G         20210604 IMCT                IMCT                                                                                                                    WMF2106043.TXT
MAKK15178809202106D3               89825451200P3YK20210617000030SPEAKER ASM;ROOF              M IMCTM CM1    TNTH  09020IMKDC KA PTB  00036  K0                1431DES        000000000000 DENSO TEN (THAILAND)                                                                                                                                             G         20210604 IMCT                IMCT                                                                                                                    WMF2106043.TXT
MAKK15178810202106N3               89825451200P3YK20210618000060SPEAKER ASM;ROOF              M IMCTM CM1    TNTH  09020IMKDC KA PTB  00036  K0                0231NES        000000000000 DENSO TEN (THAILAND)                                                                                                                                             G         20210604 IMCT                IMCT                                                                                                                    WMF2106043.TXT
MAKK15178811202106D3               89828070100P3YK20210614000120SPEAKER ASM                   M IMCTM CM1    TNTH  09020IMKDC KA PTB  00004  K0                1431DES        000000000000 DENSO TEN (THAILAND)                                                                                                                                             G         20210604 IMCT                IMCT                                                                                                                    WMF2106043.TXT
MAKK15178812202106N3               89828070100P3YK20210615000120SPEAKER ASM                   M IMCTM CM1    TNTH  09020IMKDC KA PTB  00004  K0                0231NES        000000000000 DENSO TEN (THAILAND)                                                                                                                                             G         20210604 IMCT                IMCT                                                                                                                    WMF2106043.TXT
MAKK15178813202106D3               89828070100P3YK20210615000120SPEAKER ASM                   M IMCTM CM1    TNTH  09020IMKDC KA PTB  00004  K0                1431DES        000000000000 DENSO TEN (THAILAND)                                                                                                                                             G         20210604 IMCT                IMCT                                                                                                                    WMF2106043.TXT
MAKK15178814202106N3               89828070100P3YK20210616000060SPEAKER ASM                   M IMCTM CM1    TNTH  09020IMKDC KA PTB  00004  K0                0231NES        000000000000 DENSO TEN (THAILAND)                                                                                                                                             G         20210604 IMCT                IMCT                                                                                                                    WMF2106043.TXT
MAKK15178815202106D3               89828070100P3YK20210616000060SPEAKER ASM                   M IMCTM CM1    TNTH  09020IMKDC KA PTB  00004  K0                1431DES        000000000000 DENSO TEN (THAILAND)                                                                                                                                             G         20210604 IMCT                IMCT                                                                                                                    WMF2106043.TXT
MAKK15178816202106N3               89828070100P3YK20210617000090SPEAKER ASM                   M IMCTM CM1    TNTH  09020IMKDC KA PTB  00004  K0                0231NES        000000000000 DENSO TEN (THAILAND)                                                                                                                                             G         20210604 IMCT                IMCT                                                                                                                    WMF2106043.TXT
MAKK15178817202106D3               89828070100P3YK20210617000150SPEAKER ASM                   M IMCTM CM1    TNTH  09020IMKDC KA PTB  00004  K0                1431DES        000000000000 DENSO TEN (THAILAND)                                                                                                                                             G         20210604 IMCT                IMCT                                                                                                                    WMF2106043.TXT
MAKK15178818202106N3               89828070100P3YK20210618000030SPEAKER ASM                   M IMCTM CM1    TNTH  09020IMKDC KA PTB  00004  K0                0231NES        000000000000 DENSO TEN (THAILAND)                                                                                                                                             G         20210604 IMCT                IMCT                                                                                                                    WMF2106043.TXT
MAKK15178819202106D3               89828070100P3YK20210618000120SPEAKER ASM                   M IMCTM CM1    TNTH  09020IMKDC KA PTB  00004  K0                1431DES        000000000000 DENSO TEN (THAILAND)                                                                                                                                             G         20210604 IMCT                IMCT                                                                                                                    WMF2106043.TXT
MAKK15178820202106N3               89828070100P3YK20210619000120SPEAKER ASM                   M IMCTM CM1    TNTH  09020IMKDC KA PTB  00004  K0                0231NES        000000000000 DENSO TEN (THAILAND)                                                                                                                                             G         20210604 IMCT                IMCT                                                                                                                    WMF2106043.TXT
MAKK15178821202106D3               89828070200P3YK20210614000060SPEAKER ASM                   M IMCTM CM1    TNTH  09020IMKDC KA PTB  00005  K0                1431DES        000000000000 DENSO TEN (THAILAND)                                                                                                                                             G         20210604 IMCT                IMCT                                                                                                                    WMF2106043.TXT
MAKK15178822202106N3               89828070200P3YK20210615000030SPEAKER ASM                   M IMCTM CM1    TNTH  09020IMKDC KA PTB  00005  K0                0231NES        000000000000 DENSO TEN (THAILAND)                                                                                                                                             G         20210604 IMCT                IMCT                                                                                                                    WMF2106043.TXT
MAKK15178823202106D3               89828070200P3YK20210615000060SPEAKER ASM                   M IMCTM CM1    TNTH  09020IMKDC KA PTB  00005  K0                1431DES        000000000000 DENSO TEN (THAILAND)                                                                                                                                             G         20210604 IMCT                IMCT                                                                                                                    WMF2106043.TXT
MAKK15178824202106N3               89828070200P3YK20210616000030SPEAKER ASM                   M IMCTM CM1    TNTH  09020IMKDC KA PTB  00005  K0                0231NES        000000000000 DENSO TEN (THAILAND)                                                                                                                                             G         20210604 IMCT                IMCT                                                                                                                    WMF2106043.TXT
MAKK15178825202106N3               89828070200P3YK20210617000030SPEAKER ASM                   M IMCTM CM1    TNTH  09020IMKDC KA PTB  00005  K0                0231NES        000000000000 DENSO TEN (THAILAND)                                                                                                                                             G         20210604 IMCT                IMCT                                                                                                                    WMF2106043.TXT
MAKK15178826202106D3               89828070200P3YK20210617000060SPEAKER ASM                   M IMCTM CM1    TNTH  09020IMKDC KA PTB  00005  K0                1431DES        000000000000 DENSO TEN (THAILAND)                                                                                                                                             G         20210604 IMCT                IMCT                                                                                                                    WMF2106043.TXT
MAKK15178827202106D3               89828070200P3YK20210618000060SPEAKER ASM                   M IMCTM CM1    TNTH  09020IMKDC KA PTB  00005  K0                1431DES        000000000000 DENSO TEN (THAILAND)                                                                                                                                             G         20210604 IMCT                IMCT                                                                                                                    WMF2106043.TXT
MAKK15178828202106N3               89828070200P3YK20210619000060SPEAKER ASM                   M IMCTM CM1    TNTH  09020IMKDC KA PTB  00005  K0                0231NES        000000000000 DENSO TEN (THAILAND)                                                                                                                                             G         20210604 IMCT                IMCT                                                                                                                    WMF2106043.TXT
MAKK15178829202106D3               89828070300P3YK20210614000060SPEAKER ASM                   M IMCTM CM1    TNTH  09020IMKDC KA PTB  00015  K0                1431DES        000000000000 DENSO TEN (THAILAND)                                                                                                                                             G         20210604 IMCT                IMCT                                                                                                                    WMF2106043.TXT
MAKK15178830202106N3               89828070300P3YK20210615000030SPEAKER ASM                   M IMCTM CM1    TNTH  09020IMKDC KA PTB  00015  K0                0231NES        000000000000 DENSO TEN (THAILAND)                                                                                                                                             G         20210604 IMCT                IMCT                                                                                                                    WMF2106043.TXT
MAKK15178831202106D3               89828070300P3YK20210615000060SPEAKER ASM                   M IMCTM CM1    TNTH  09020IMKDC KA PTB  00015  K0                1431DES        000000000000 DENSO TEN (THAILAND)                                                                                                                                             G         20210604 IMCT                IMCT                                                                                                                    WMF2106043.TXT
MAKK15178832202106N3               89828070300P3YK20210616000060SPEAKER ASM                   M IMCTM CM1    TNTH  09020IMKDC KA PTB  00015  K0                0231NES        000000000000 DENSO TEN (THAILAND)                                                                                                                                             G         20210604 IMCT                IMCT                                                                                                                    WMF2106043.TXT
MAKK15178833202106N3               89828070300P3YK20210617000060SPEAKER ASM                   M IMCTM CM1    TNTH  09020IMKDC KA PTB  00015  K0                0231NES        000000000000 DENSO TEN (THAILAND)                                                                                                                                             G         20210604 IMCT                IMCT                                                                                                                    WMF2106043.TXT
MAKK15178834202106D3               89828070300P3YK20210617000060SPEAKER ASM                   M IMCTM CM1    TNTH  09020IMKDC KA PTB  00015  K0                1431DES        000000000000 DENSO TEN (THAILAND)                                                                                                                                             G         20210604 IMCT                IMCT                                                                                                                    WMF2106043.TXT
MAKK15178835202106N3               89828070300P3YK20210618000060SPEAKER ASM                   M IMCTM CM1    TNTH  09020IMKDC KA PTB  00015  K0                0231NES        000000000000 DENSO TEN (THAILAND)                                                                                                                                             G         20210604 IMCT                IMCT                                                                                                                    WMF2106043.TXT
MAKK15178836202106D3               89828070300P3YK20210618000060SPEAKER ASM                   M IMCTM CM1    TNTH  09020IMKDC KA PTB  00015  K0                1431DES        000000000000 DENSO TEN (THAILAND)                                                                                                                                             G         20210604 IMCT                IMCT                                                                                                                    WMF2106043.TXT
MAKK15178837202106N3               89828070300P3YK20210619000060SPEAKER ASM                   M IMCTM CM1    TNTH  09020IMKDC KA PTB  00015  K0                0231NES        000000000000 DENSO TEN (THAILAND)                                                                                                                                             G         20210604 IMCT                IMCT                                                                                                                    WMF2106043.TXT
