REC2021062520210625ISUZU                              43     
MAKK16115689202106D3               89825451200P3YK20210705000030SPEAKER ASM;ROOF              M IMCTM CM1    TNTH  09020IMKDC KA PTB  00036  K0                1431DES        000000000000 DENSO TEN (THAILAND)                                                                                                                                             G         20210625 IMCT                IMCT                                                                                                                    WMF2106252.TXT
MAKK16115690202106N3               89825451200P3YK20210706000030SPEAKER ASM;ROOF              M IMCTM CM1    TNTH  09020IMKDC KA PTB  00036  K0                0231NES        000000000000 DENSO TEN (THAILAND)                                                                                                                                             G         20210625 IMCT                IMCT                                                                                                                    WMF2106252.TXT
MAKK16115691202106D3               89825451200P3YK20210709000030SPEAKER ASM;ROOF              M IMCTM CM1    TNTH  09020IMKDC KA PTB  00036  K0                1431DES        000000000000 DENSO TEN (THAILAND)                                                                                                                                             G         20210625 IMCT                IMCT                                                                                                                    WMF2106252.TXT
MAKK16115692202106N3               89825451200P3YK20210710000060SPEAKER ASM;ROOF              M IMCTM CM1    TNTH  09020IMKDC KA PTB  00036  K0                0231NES        000000000000 DENSO TEN (THAILAND)                                                                                                                                             G         20210625 IMCT                IMCT                                                                                                                    WMF2106252.TXT
MAKK16115693202106D3               89825451200P3YK20210710000030SPEAKER ASM;ROOF              M IMCTM CM1    TNTH  09020IMKDC KA PTB  00036  K0                1431DES        000000000000 DENSO TEN (THAILAND)                                                                                                                                             G         20210625 IMCT                IMCT                                                                                                                    WMF2106252.TXT
MAKK16115694202106D3               89828070100P3YK20210705000090SPEAKER ASM                   M IMCTM CM1    TNTH  09020IMKDC KA PTB  00004  K0                1431DES        000000000000 DENSO TEN (THAILAND)                                                                                                                                             G         20210625 IMCT                IMCT                                                                                                                    WMF2106252.TXT
MAKK16115695202106N3               89828070100P3YK20210706000120SPEAKER ASM                   M IMCTM CM1    TNTH  09020IMKDC KA PTB  00004  K0                0231NES        000000000000 DENSO TEN (THAILAND)                                                                                                                                             G         20210625 IMCT                IMCT                                                                                                                    WMF2106252.TXT
MAKK16115696202106D3               89828070100P3YK20210706000120SPEAKER ASM                   M IMCTM CM1    TNTH  09020IMKDC KA PTB  00004  K0                1431DES        000000000000 DENSO TEN (THAILAND)                                                                                                                                             G         20210625 IMCT                IMCT                                                                                                                    WMF2106252.TXT
MAKK16115697202106N3               89828070100P3YK20210707000120SPEAKER ASM                   M IMCTM CM1    TNTH  09020IMKDC KA PTB  00004  K0                0231NES        000000000000 DENSO TEN (THAILAND)                                                                                                                                             G         20210625 IMCT                IMCT                                                                                                                    WMF2106252.TXT
MAKK16115698202106D3               89828070100P3YK20210707000120SPEAKER ASM                   M IMCTM CM1    TNTH  09020IMKDC KA PTB  00004  K0                1431DES        000000000000 DENSO TEN (THAILAND)                                                                                                                                             G         20210625 IMCT                IMCT                                                                                                                    WMF2106252.TXT
MAKK16115699202106N3               89828070100P3YK20210708000120SPEAKER ASM                   M IMCTM CM1    TNTH  09020IMKDC KA PTB  00004  K0                0231NES        000000000000 DENSO TEN (THAILAND)                                                                                                                                             G         20210625 IMCT                IMCT                                                                                                                    WMF2106252.TXT
MAKK16115700202106D3               89828070100P3YK20210708000120SPEAKER ASM                   M IMCTM CM1    TNTH  09020IMKDC KA PTB  00004  K0                1431DES        000000000000 DENSO TEN (THAILAND)                                                                                                                                             G         20210625 IMCT                IMCT                                                                                                                    WMF2106252.TXT
MAKK16115701202106N3               89828070100P3YK20210709000120SPEAKER ASM                   M IMCTM CM1    TNTH  09020IMKDC KA PTB  00004  K0                0231NES        000000000000 DENSO TEN (THAILAND)                                                                                                                                             G         20210625 IMCT                IMCT                                                                                                                    WMF2106252.TXT
MAKK16115702202106D3               89828070100P3YK20210709000120SPEAKER ASM                   M IMCTM CM1    TNTH  09020IMKDC KA PTB  00004  K0                1431DES        000000000000 DENSO TEN (THAILAND)                                                                                                                                             G         20210625 IMCT                IMCT                                                                                                                    WMF2106252.TXT
MAKK16115703202106N3               89828070100P3YK20210710000090SPEAKER ASM                   M IMCTM CM1    TNTH  09020IMKDC KA PTB  00004  K0                0231NES        000000000000 DENSO TEN (THAILAND)                                                                                                                                             G         20210625 IMCT                IMCT                                                                                                                    WMF2106252.TXT
MAKK16115704202106D3               89828070100P3YK20210710000120SPEAKER ASM                   M IMCTM CM1    TNTH  09020IMKDC KA PTB  00004  K0                1431DES        000000000000 DENSO TEN (THAILAND)                                                                                                                                             G         20210625 IMCT                IMCT                                                                                                                    WMF2106252.TXT
MAKK16115705202106N3               89828070100P3YK20210711000030SPEAKER ASM                   M IMCTM CM1    TNTH  09020IMKDC KA PTB  00004  K0                0231NES        000000000000 DENSO TEN (THAILAND)                                                                                                                                             G         20210625 IMCT                IMCT                                                                                                                    WMF2106252.TXT
MAKK16115706202106D3               89828070200P3YK20210705000060SPEAKER ASM                   M IMCTM CM1    TNTH  09020IMKDC KA PTB  00005  K0                1431DES        000000000000 DENSO TEN (THAILAND)                                                                                                                                             G         20210625 IMCT                IMCT                                                                                                                    WMF2106252.TXT
MAKK16115707202106N3               89828070200P3YK20210706000060SPEAKER ASM                   M IMCTM CM1    TNTH  09020IMKDC KA PTB  00005  K0                0231NES        000000000000 DENSO TEN (THAILAND)                                                                                                                                             G         20210625 IMCT                IMCT                                                                                                                    WMF2106252.TXT
MAKK16115708202106D3               89828070200P3YK20210706000060SPEAKER ASM                   M IMCTM CM1    TNTH  09020IMKDC KA PTB  00005  K0                1431DES        000000000000 DENSO TEN (THAILAND)                                                                                                                                             G         20210625 IMCT                IMCT                                                                                                                    WMF2106252.TXT
MAKK16115709202106N3               89828070200P3YK20210707000060SPEAKER ASM                   M IMCTM CM1    TNTH  09020IMKDC KA PTB  00005  K0                0231NES        000000000000 DENSO TEN (THAILAND)                                                                                                                                             G         20210625 IMCT                IMCT                                                                                                                    WMF2106252.TXT
MAKK16115710202106D3               89828070200P3YK20210707000060SPEAKER ASM                   M IMCTM CM1    TNTH  09020IMKDC KA PTB  00005  K0                1431DES        000000000000 DENSO TEN (THAILAND)                                                                                                                                             G         20210625 IMCT                IMCT                                                                                                                    WMF2106252.TXT
MAKK16115711202106N3               89828070200P3YK20210708000060SPEAKER ASM                   M IMCTM CM1    TNTH  09020IMKDC KA PTB  00005  K0                0231NES        000000000000 DENSO TEN (THAILAND)                                                                                                                                             G         20210625 IMCT                IMCT                                                                                                                    WMF2106252.TXT
MAKK16115712202106D3               89828070200P3YK20210708000060SPEAKER ASM                   M IMCTM CM1    TNTH  09020IMKDC KA PTB  00005  K0                1431DES        000000000000 DENSO TEN (THAILAND)                                                                                                                                             G         20210625 IMCT                IMCT                                                                                                                    WMF2106252.TXT
MAKK16115713202106N3               89828070200P3YK20210709000090SPEAKER ASM                   M IMCTM CM1    TNTH  09020IMKDC KA PTB  00005  K0                0231NES        000000000000 DENSO TEN (THAILAND)                                                                                                                                             G         20210625 IMCT                IMCT                                                                                                                    WMF2106252.TXT
MAKK16115714202106D3               89828070200P3YK20210709000060SPEAKER ASM                   M IMCTM CM1    TNTH  09020IMKDC KA PTB  00005  K0                1431DES        000000000000 DENSO TEN (THAILAND)                                                                                                                                             G         20210625 IMCT                IMCT                                                                                                                    WMF2106252.TXT
MAKK16115715202106N3               89828070200P3YK20210710000060SPEAKER ASM                   M IMCTM CM1    TNTH  09020IMKDC KA PTB  00005  K0                0231NES        000000000000 DENSO TEN (THAILAND)                                                                                                                                             G         20210625 IMCT                IMCT                                                                                                                    WMF2106252.TXT
MAKK16115716202106D3               89828070200P3YK20210710000060SPEAKER ASM                   M IMCTM CM1    TNTH  09020IMKDC KA PTB  00005  K0                1431DES        000000000000 DENSO TEN (THAILAND)                                                                                                                                             G         20210625 IMCT                IMCT                                                                                                                    WMF2106252.TXT
MAKK16115717202106N3               89828070200P3YK20210711000030SPEAKER ASM                   M IMCTM CM1    TNTH  09020IMKDC KA PTB  00005  K0                0231NES        000000000000 DENSO TEN (THAILAND)                                                                                                                                             G         20210625 IMCT                IMCT                                                                                                                    WMF2106252.TXT
MAKK16115718202106D3               89828070300P3YK20210705000060SPEAKER ASM                   M IMCTM CM1    TNTH  09020IMKDC KA PTB  00015  K0                1431DES        000000000000 DENSO TEN (THAILAND)                                                                                                                                             G         20210625 IMCT                IMCT                                                                                                                    WMF2106252.TXT
MAKK16115719202106N3               89828070300P3YK20210706000060SPEAKER ASM                   M IMCTM CM1    TNTH  09020IMKDC KA PTB  00015  K0                0231NES        000000000000 DENSO TEN (THAILAND)                                                                                                                                             G         20210625 IMCT                IMCT                                                                                                                    WMF2106252.TXT
MAKK16115720202106D3               89828070300P3YK20210706000060SPEAKER ASM                   M IMCTM CM1    TNTH  09020IMKDC KA PTB  00015  K0                1431DES        000000000000 DENSO TEN (THAILAND)                                                                                                                                             G         20210625 IMCT                IMCT                                                                                                                    WMF2106252.TXT
MAKK16115721202106N3               89828070300P3YK20210707000060SPEAKER ASM                   M IMCTM CM1    TNTH  09020IMKDC KA PTB  00015  K0                0231NES        000000000000 DENSO TEN (THAILAND)                                                                                                                                             G         20210625 IMCT                IMCT                                                                                                                    WMF2106252.TXT
MAKK16115722202106D3               89828070300P3YK20210707000060SPEAKER ASM                   M IMCTM CM1    TNTH  09020IMKDC KA PTB  00015  K0                1431DES        000000000000 DENSO TEN (THAILAND)                                                                                                                                             G         20210625 IMCT                IMCT                                                                                                                    WMF2106252.TXT
MAKK16115723202106N3               89828070300P3YK20210708000060SPEAKER ASM                   M IMCTM CM1    TNTH  09020IMKDC KA PTB  00015  K0                0231NES        000000000000 DENSO TEN (THAILAND)                                                                                                                                             G         20210625 IMCT                IMCT                                                                                                                    WMF2106252.TXT
MAKK16115724202106D3               89828070300P3YK20210708000060SPEAKER ASM                   M IMCTM CM1    TNTH  09020IMKDC KA PTB  00015  K0                1431DES        000000000000 DENSO TEN (THAILAND)                                                                                                                                             G         20210625 IMCT                IMCT                                                                                                                    WMF2106252.TXT
MAKK16115725202106N3               89828070300P3YK20210709000090SPEAKER ASM                   M IMCTM CM1    TNTH  09020IMKDC KA PTB  00015  K0                0231NES        000000000000 DENSO TEN (THAILAND)                                                                                                                                             G         20210625 IMCT                IMCT                                                                                                                    WMF2106252.TXT
MAKK16115726202106D3               89828070300P3YK20210709000060SPEAKER ASM                   M IMCTM CM1    TNTH  09020IMKDC KA PTB  00015  K0                1431DES        000000000000 DENSO TEN (THAILAND)                                                                                                                                             G         20210625 IMCT                IMCT                                                                                                                    WMF2106252.TXT
MAKK16115727202106N3               89828070300P3YK20210710000090SPEAKER ASM                   M IMCTM CM1    TNTH  09020IMKDC KA PTB  00015  K0                0231NES        000000000000 DENSO TEN (THAILAND)                                                                                                                                             G         20210625 IMCT                IMCT                                                                                                                    WMF2106252.TXT
MAKK16115728202106D3               89828070300P3YK20210710000060SPEAKER ASM                   M IMCTM CM1    TNTH  09020IMKDC KA PTB  00015  K0                1431DES        000000000000 DENSO TEN (THAILAND)                                                                                                                                             G         20210625 IMCT                IMCT                                                                                                                    WMF2106252.TXT
MAKK16115729202106N3               89828070300P3YK20210711000030SPEAKER ASM                   M IMCTM CM1    TNTH  09020IMKDC KA PTB  00015  K0                0231NES        000000000000 DENSO TEN (THAILAND)                                                                                                                                             G         20210625 IMCT                IMCT                                                                                                                    WMF2106252.TXT
MAKK16123630202106D3               89828070100P3YK20210707000030SPEAKER ASM                   M IMCTM PK3    TNTH  09020IMKDC KA PTB  00004  K0                1431DES        000000000000 DENSO TEN (THAILAND)                                                                                                                                             G         20210625 IMCT                IMCT                                                                                                                    WMF2106252.TXT
MAKK16123631202106D3               89828070200P3YK20210707000030SPEAKER ASM                   M IMCTM PK3    TNTH  09020IMKDC KA PTB  00005  K0                1431DES        000000000000 DENSO TEN (THAILAND)                                                                                                                                             G         20210625 IMCT                IMCT                                                                                                                    WMF2106252.TXT
