REC2021061020210610ISUZU                              30     
MAKK16066865202106D3               89825451200P3YK20210621000030SPEAKER ASM;ROOF              M IMCTM CM1    TNTH  09020IMKDC KA PTB  00036  K0                1431DES        000000000000 DENSO TEN (THAILAND)                                                                                                                                             G         20210610 IMCT                IMCT                                                                                                                    WMF2106108.TXT
MAKK16066866202106N3               89825451200P3YK20210626000030SPEAKER ASM;ROOF              M IMCTM CM1    TNTH  09020IMKDC KA PTB  00036  K0                0231NES        000000000000 DENSO TEN (THAILAND)                                                                                                                                             G         20210610 IMCT                IMCT                                                                                                                    WMF2106108.TXT
MAKK16066867202106D3               89828070100P3YK20210621000120SPEAKER ASM                   M IMCTM CM1    TNTH  09020IMKDC KA PTB  00004  K0                1431DES        000000000000 DENSO TEN (THAILAND)                                                                                                                                             G         20210610 IMCT                IMCT                                                                                                                    WMF2106108.TXT
MAKK16066868202106N3               89828070100P3YK20210622000090SPEAKER ASM                   M IMCTM CM1    TNTH  09020IMKDC KA PTB  00004  K0                0231NES        000000000000 DENSO TEN (THAILAND)                                                                                                                                             G         20210610 IMCT                IMCT                                                                                                                    WMF2106108.TXT
MAKK16066869202106D3               89828070100P3YK20210622000090SPEAKER ASM                   M IMCTM CM1    TNTH  09020IMKDC KA PTB  00004  K0                1431DES        000000000000 DENSO TEN (THAILAND)                                                                                                                                             G         20210610 IMCT                IMCT                                                                                                                    WMF2106108.TXT
MAKK16066870202106N3               89828070100P3YK20210623000120SPEAKER ASM                   M IMCTM CM1    TNTH  09020IMKDC KA PTB  00004  K0                0231NES        000000000000 DENSO TEN (THAILAND)                                                                                                                                             G         20210610 IMCT                IMCT                                                                                                                    WMF2106108.TXT
MAKK16066871202106D3               89828070100P3YK20210623000090SPEAKER ASM                   M IMCTM CM1    TNTH  09020IMKDC KA PTB  00004  K0                1431DES        000000000000 DENSO TEN (THAILAND)                                                                                                                                             G         20210610 IMCT                IMCT                                                                                                                    WMF2106108.TXT
MAKK16066872202106N3               89828070100P3YK20210624000090SPEAKER ASM                   M IMCTM CM1    TNTH  09020IMKDC KA PTB  00004  K0                0231NES        000000000000 DENSO TEN (THAILAND)                                                                                                                                             G         20210610 IMCT                IMCT                                                                                                                    WMF2106108.TXT
MAKK16066873202106D3               89828070100P3YK20210624000120SPEAKER ASM                   M IMCTM CM1    TNTH  09020IMKDC KA PTB  00004  K0                1431DES        000000000000 DENSO TEN (THAILAND)                                                                                                                                             G         20210610 IMCT                IMCT                                                                                                                    WMF2106108.TXT
MAKK16066874202106N3               89828070100P3YK20210625000090SPEAKER ASM                   M IMCTM CM1    TNTH  09020IMKDC KA PTB  00004  K0                0231NES        000000000000 DENSO TEN (THAILAND)                                                                                                                                             G         20210610 IMCT                IMCT                                                                                                                    WMF2106108.TXT
MAKK16066875202106D3               89828070100P3YK20210625000090SPEAKER ASM                   M IMCTM CM1    TNTH  09020IMKDC KA PTB  00004  K0                1431DES        000000000000 DENSO TEN (THAILAND)                                                                                                                                             G         20210610 IMCT                IMCT                                                                                                                    WMF2106108.TXT
MAKK16066876202106N3               89828070100P3YK20210626000120SPEAKER ASM                   M IMCTM CM1    TNTH  09020IMKDC KA PTB  00004  K0                0231NES        000000000000 DENSO TEN (THAILAND)                                                                                                                                             G         20210610 IMCT                IMCT                                                                                                                    WMF2106108.TXT
MAKK16066877202106D3               89828070200P3YK20210621000060SPEAKER ASM                   M IMCTM CM1    TNTH  09020IMKDC KA PTB  00005  K0                1431DES        000000000000 DENSO TEN (THAILAND)                                                                                                                                             G         20210610 IMCT                IMCT                                                                                                                    WMF2106108.TXT
MAKK16066878202106N3               89828070200P3YK20210622000030SPEAKER ASM                   M IMCTM CM1    TNTH  09020IMKDC KA PTB  00005  K0                0231NES        000000000000 DENSO TEN (THAILAND)                                                                                                                                             G         20210610 IMCT                IMCT                                                                                                                    WMF2106108.TXT
MAKK16066879202106D3               89828070200P3YK20210622000030SPEAKER ASM                   M IMCTM CM1    TNTH  09020IMKDC KA PTB  00005  K0                1431DES        000000000000 DENSO TEN (THAILAND)                                                                                                                                             G         20210610 IMCT                IMCT                                                                                                                    WMF2106108.TXT
MAKK16066880202106N3               89828070200P3YK20210623000060SPEAKER ASM                   M IMCTM CM1    TNTH  09020IMKDC KA PTB  00005  K0                0231NES        000000000000 DENSO TEN (THAILAND)                                                                                                                                             G         20210610 IMCT                IMCT                                                                                                                    WMF2106108.TXT
MAKK16066881202106D3               89828070200P3YK20210623000030SPEAKER ASM                   M IMCTM CM1    TNTH  09020IMKDC KA PTB  00005  K0                1431DES        000000000000 DENSO TEN (THAILAND)                                                                                                                                             G         20210610 IMCT                IMCT                                                                                                                    WMF2106108.TXT
MAKK16066882202106D3               89828070200P3YK20210624000030SPEAKER ASM                   M IMCTM CM1    TNTH  09020IMKDC KA PTB  00005  K0                1431DES        000000000000 DENSO TEN (THAILAND)                                                                                                                                             G         20210610 IMCT                IMCT                                                                                                                    WMF2106108.TXT
MAKK16066883202106N3               89828070200P3YK20210625000060SPEAKER ASM                   M IMCTM CM1    TNTH  09020IMKDC KA PTB  00005  K0                0231NES        000000000000 DENSO TEN (THAILAND)                                                                                                                                             G         20210610 IMCT                IMCT                                                                                                                    WMF2106108.TXT
MAKK16066884202106N3               89828070200P3YK20210626000090SPEAKER ASM                   M IMCTM CM1    TNTH  09020IMKDC KA PTB  00005  K0                0231NES        000000000000 DENSO TEN (THAILAND)                                                                                                                                             G         20210610 IMCT                IMCT                                                                                                                    WMF2106108.TXT
MAKK16066885202106D3               89828070300P3YK20210621000060SPEAKER ASM                   M IMCTM CM1    TNTH  09020IMKDC KA PTB  00015  K0                1431DES        000000000000 DENSO TEN (THAILAND)                                                                                                                                             G         20210610 IMCT                IMCT                                                                                                                    WMF2106108.TXT
MAKK16066886202106N3               89828070300P3YK20210622000030SPEAKER ASM                   M IMCTM CM1    TNTH  09020IMKDC KA PTB  00015  K0                0231NES        000000000000 DENSO TEN (THAILAND)                                                                                                                                             G         20210610 IMCT                IMCT                                                                                                                    WMF2106108.TXT
MAKK16066887202106D3               89828070300P3YK20210622000030SPEAKER ASM                   M IMCTM CM1    TNTH  09020IMKDC KA PTB  00015  K0                1431DES        000000000000 DENSO TEN (THAILAND)                                                                                                                                             G         20210610 IMCT                IMCT                                                                                                                    WMF2106108.TXT
MAKK16066888202106N3               89828070300P3YK20210623000060SPEAKER ASM                   M IMCTM CM1    TNTH  09020IMKDC KA PTB  00015  K0                0231NES        000000000000 DENSO TEN (THAILAND)                                                                                                                                             G         20210610 IMCT                IMCT                                                                                                                    WMF2106108.TXT
MAKK16066889202106D3               89828070300P3YK20210623000030SPEAKER ASM                   M IMCTM CM1    TNTH  09020IMKDC KA PTB  00015  K0                1431DES        000000000000 DENSO TEN (THAILAND)                                                                                                                                             G         20210610 IMCT                IMCT                                                                                                                    WMF2106108.TXT
MAKK16066890202106N3               89828070300P3YK20210624000030SPEAKER ASM                   M IMCTM CM1    TNTH  09020IMKDC KA PTB  00015  K0                0231NES        000000000000 DENSO TEN (THAILAND)                                                                                                                                             G         20210610 IMCT                IMCT                                                                                                                    WMF2106108.TXT
MAKK16066891202106D3               89828070300P3YK20210624000060SPEAKER ASM                   M IMCTM CM1    TNTH  09020IMKDC KA PTB  00015  K0                1431DES        000000000000 DENSO TEN (THAILAND)                                                                                                                                             G         20210610 IMCT                IMCT                                                                                                                    WMF2106108.TXT
MAKK16066892202106N3               89828070300P3YK20210625000060SPEAKER ASM                   M IMCTM CM1    TNTH  09020IMKDC KA PTB  00015  K0                0231NES        000000000000 DENSO TEN (THAILAND)                                                                                                                                             G         20210610 IMCT                IMCT                                                                                                                    WMF2106108.TXT
MAKK16066893202106D3               89828070300P3YK20210625000030SPEAKER ASM                   M IMCTM CM1    TNTH  09020IMKDC KA PTB  00015  K0                1431DES        000000000000 DENSO TEN (THAILAND)                                                                                                                                             G         20210610 IMCT                IMCT                                                                                                                    WMF2106108.TXT
MAKK16066894202106N3               89828070300P3YK20210626000090SPEAKER ASM                   M IMCTM CM1    TNTH  09020IMKDC KA PTB  00015  K0                0231NES        000000000000 DENSO TEN (THAILAND)                                                                                                                                             G         20210610 IMCT                IMCT                                                                                                                    WMF2106108.TXT
