REC2021072220210722ISUZU                              3      
MACK17001724202107          IMKDC  89828070100P3YK20210805000004SPEAKER ASM                   M IMCTM IMKDC  TNTH  09020IMKDC KV PTB  00004    K295D3110   001 0000 ES        000000000000 DENSO TEN (THAILAND)                                                                                                                                             G         20210722 IMCT                IMCT                                                                                                                    WMF2107225.TXT
MACK17001725202107          IMKDC  89828070200P3YK20210805000004SPEAKER ASM                   M IMCTM IMKDC  TNTH  09020IMKDC KV PTB  00005    K295D3110   001 0000 ES        000000000000 DENSO TEN (THAILAND)                                                                                                                                             G         20210722 IMCT                IMCT                                                                                                                    WMF2107225.TXT
MACK17001726202107          IMKDC  89828070300P3YK20210805000004SPEAKER ASM                   M IMCTM IMKDC  TNTH  09020IMKDC KV PTB  00015    K295D3110   001 0000 ES        000000000000 DENSO TEN (THAILAND)                                                                                                                                             G         20210722 IMCT                IMCT                                                                                                                    WMF2107225.TXT
