REC2021070820210708ISUZU                              34     
MAKK17066947202107D3               89748082340P3YK20210719000015RADIO ASM;CENTER              M IMCTM CM1    TNTH  09020IMKDC KA*PTB  00005  K0                1431DES        000000000000 DENSO TEN (THAILAND)                                                                                                                                             G         20210708 IMCT                IMCT                                                                                                                    WMF2107083.TXT
MAKK17066948202107D3               89749224010P3YK20210719000015DISPLAY UNIT;ASM              M IMCTM CM1    TNTH  09020IMKDC KA PTB  00005  K0                1431DES        000000000000 DENSO TEN (THAILAND)                                                                                                                                             G         20210708 IMCT                IMCT                                                                                                                    WMF2107083.TXT
MAKK17066949202107D3               89753792300P3YK20210719000015HARNESS ASM;INFO              M IMCTM CM1    TNTH  09020IMKDC KA PTB  00015  K0                1431DES        000000000000 DENSO TEN (THAILAND)                                                                                                                                             G         20210708 IMCT                IMCT                                                                                                                    WMF2107083.TXT
MAKK17066950202107D3               89825451200P3YK20210720000030SPEAKER ASM;ROOF              M IMCTM CM1    TNTH  09020IMKDC KA PTB  00036  K0                1431DES        000000000000 DENSO TEN (THAILAND)                                                                                                                                             G         20210708 IMCT                IMCT                                                                                                                    WMF2107083.TXT
MAKK17066951202107D3               89828070100P3YK20210719000030SPEAKER ASM                   M IMCTM CM1    TNTH  09020IMKDC KA PTB  00004  K0                1431DES        000000000000 DENSO TEN (THAILAND)                                                                                                                                             G         20210708 IMCT                IMCT                                                                                                                    WMF2107083.TXT
MAKK17066952202107N3               89828070100P3YK20210720000060SPEAKER ASM                   M IMCTM CM1    TNTH  09020IMKDC KA PTB  00004  K0                0231NES        000000000000 DENSO TEN (THAILAND)                                                                                                                                             G         20210708 IMCT                IMCT                                                                                                                    WMF2107083.TXT
MAKK17066953202107D3               89828070100P3YK20210720000090SPEAKER ASM                   M IMCTM CM1    TNTH  09020IMKDC KA PTB  00004  K0                1431DES        000000000000 DENSO TEN (THAILAND)                                                                                                                                             G         20210708 IMCT                IMCT                                                                                                                    WMF2107083.TXT
MAKK17066954202107N3               89828070100P3YK20210721000060SPEAKER ASM                   M IMCTM CM1    TNTH  09020IMKDC KA PTB  00004  K0                0231NES        000000000000 DENSO TEN (THAILAND)                                                                                                                                             G         20210708 IMCT                IMCT                                                                                                                    WMF2107083.TXT
MAKK17066955202107D3               89828070100P3YK20210721000090SPEAKER ASM                   M IMCTM CM1    TNTH  09020IMKDC KA PTB  00004  K0                1431DES        000000000000 DENSO TEN (THAILAND)                                                                                                                                             G         20210708 IMCT                IMCT                                                                                                                    WMF2107083.TXT
MAKK17066956202107N3               89828070100P3YK20210722000090SPEAKER ASM                   M IMCTM CM1    TNTH  09020IMKDC KA PTB  00004  K0                0231NES        000000000000 DENSO TEN (THAILAND)                                                                                                                                             G         20210708 IMCT                IMCT                                                                                                                    WMF2107083.TXT
MAKK17066957202107D3               89828070100P3YK20210722000060SPEAKER ASM                   M IMCTM CM1    TNTH  09020IMKDC KA PTB  00004  K0                1431DES        000000000000 DENSO TEN (THAILAND)                                                                                                                                             G         20210708 IMCT                IMCT                                                                                                                    WMF2107083.TXT
MAKK17066958202107N3               89828070100P3YK20210723000090SPEAKER ASM                   M IMCTM CM1    TNTH  09020IMKDC KA PTB  00004  K0                0231NES        000000000000 DENSO TEN (THAILAND)                                                                                                                                             G         20210708 IMCT                IMCT                                                                                                                    WMF2107083.TXT
MAKK17066959202107D3               89828070100P3YK20210723000090SPEAKER ASM                   M IMCTM CM1    TNTH  09020IMKDC KA PTB  00004  K0                1431DES        000000000000 DENSO TEN (THAILAND)                                                                                                                                             G         20210708 IMCT                IMCT                                                                                                                    WMF2107083.TXT
MAKK17066960202107N3               89828070100P3YK20210724000090SPEAKER ASM                   M IMCTM CM1    TNTH  09020IMKDC KA PTB  00004  K0                0231NES        000000000000 DENSO TEN (THAILAND)                                                                                                                                             G         20210708 IMCT                IMCT                                                                                                                    WMF2107083.TXT
MAKK17066961202107N3               89828070200P3YK20210720000030SPEAKER ASM                   M IMCTM CM1    TNTH  09020IMKDC KA PTB  00005  K0                0231NES        000000000000 DENSO TEN (THAILAND)                                                                                                                                             G         20210708 IMCT                IMCT                                                                                                                    WMF2107083.TXT
MAKK17066962202107D3               89828070200P3YK20210720000060SPEAKER ASM                   M IMCTM CM1    TNTH  09020IMKDC KA PTB  00005  K0                1431DES        000000000000 DENSO TEN (THAILAND)                                                                                                                                             G         20210708 IMCT                IMCT                                                                                                                    WMF2107083.TXT
MAKK17066963202107N3               89828070200P3YK20210721000030SPEAKER ASM                   M IMCTM CM1    TNTH  09020IMKDC KA PTB  00005  K0                0231NES        000000000000 DENSO TEN (THAILAND)                                                                                                                                             G         20210708 IMCT                IMCT                                                                                                                    WMF2107083.TXT
MAKK17066964202107D3               89828070200P3YK20210721000030SPEAKER ASM                   M IMCTM CM1    TNTH  09020IMKDC KA PTB  00005  K0                1431DES        000000000000 DENSO TEN (THAILAND)                                                                                                                                             G         20210708 IMCT                IMCT                                                                                                                    WMF2107083.TXT
MAKK17066965202107N3               89828070200P3YK20210722000060SPEAKER ASM                   M IMCTM CM1    TNTH  09020IMKDC KA PTB  00005  K0                0231NES        000000000000 DENSO TEN (THAILAND)                                                                                                                                             G         20210708 IMCT                IMCT                                                                                                                    WMF2107083.TXT
MAKK17066966202107D3               89828070200P3YK20210722000030SPEAKER ASM                   M IMCTM CM1    TNTH  09020IMKDC KA PTB  00005  K0                1431DES        000000000000 DENSO TEN (THAILAND)                                                                                                                                             G         20210708 IMCT                IMCT                                                                                                                    WMF2107083.TXT
MAKK17066967202107N3               89828070200P3YK20210723000060SPEAKER ASM                   M IMCTM CM1    TNTH  09020IMKDC KA PTB  00005  K0                0231NES        000000000000 DENSO TEN (THAILAND)                                                                                                                                             G         20210708 IMCT                IMCT                                                                                                                    WMF2107083.TXT
MAKK17066968202107D3               89828070200P3YK20210723000030SPEAKER ASM                   M IMCTM CM1    TNTH  09020IMKDC KA PTB  00005  K0                1431DES        000000000000 DENSO TEN (THAILAND)                                                                                                                                             G         20210708 IMCT                IMCT                                                                                                                    WMF2107083.TXT
MAKK17066969202107N3               89828070200P3YK20210724000060SPEAKER ASM                   M IMCTM CM1    TNTH  09020IMKDC KA PTB  00005  K0                0231NES        000000000000 DENSO TEN (THAILAND)                                                                                                                                             G         20210708 IMCT                IMCT                                                                                                                    WMF2107083.TXT
MAKK17066970202107N3               89828070300P3YK20210720000030SPEAKER ASM                   M IMCTM CM1    TNTH  09020IMKDC KA PTB  00015  K0                0231NES        000000000000 DENSO TEN (THAILAND)                                                                                                                                             G         20210708 IMCT                IMCT                                                                                                                    WMF2107083.TXT
MAKK17066971202107D3               89828070300P3YK20210720000060SPEAKER ASM                   M IMCTM CM1    TNTH  09020IMKDC KA PTB  00015  K0                1431DES        000000000000 DENSO TEN (THAILAND)                                                                                                                                             G         20210708 IMCT                IMCT                                                                                                                    WMF2107083.TXT
MAKK17066972202107N3               89828070300P3YK20210721000030SPEAKER ASM                   M IMCTM CM1    TNTH  09020IMKDC KA PTB  00015  K0                0231NES        000000000000 DENSO TEN (THAILAND)                                                                                                                                             G         20210708 IMCT                IMCT                                                                                                                    WMF2107083.TXT
MAKK17066973202107D3               89828070300P3YK20210721000060SPEAKER ASM                   M IMCTM CM1    TNTH  09020IMKDC KA PTB  00015  K0                1431DES        000000000000 DENSO TEN (THAILAND)                                                                                                                                             G         20210708 IMCT                IMCT                                                                                                                    WMF2107083.TXT
MAKK17066974202107N3               89828070300P3YK20210722000060SPEAKER ASM                   M IMCTM CM1    TNTH  09020IMKDC KA PTB  00015  K0                0231NES        000000000000 DENSO TEN (THAILAND)                                                                                                                                             G         20210708 IMCT                IMCT                                                                                                                    WMF2107083.TXT
MAKK17066975202107D3               89828070300P3YK20210722000030SPEAKER ASM                   M IMCTM CM1    TNTH  09020IMKDC KA PTB  00015  K0                1431DES        000000000000 DENSO TEN (THAILAND)                                                                                                                                             G         20210708 IMCT                IMCT                                                                                                                    WMF2107083.TXT
MAKK17066976202107N3               89828070300P3YK20210723000060SPEAKER ASM                   M IMCTM CM1    TNTH  09020IMKDC KA PTB  00015  K0                0231NES        000000000000 DENSO TEN (THAILAND)                                                                                                                                             G         20210708 IMCT                IMCT                                                                                                                    WMF2107083.TXT
MAKK17066977202107D3               89828070300P3YK20210723000060SPEAKER ASM                   M IMCTM CM1    TNTH  09020IMKDC KA PTB  00015  K0                1431DES        000000000000 DENSO TEN (THAILAND)                                                                                                                                             G         20210708 IMCT                IMCT                                                                                                                    WMF2107083.TXT
MAKK17066978202107N3               89828070300P3YK20210724000060SPEAKER ASM                   M IMCTM CM1    TNTH  09020IMKDC KA PTB  00015  K0                0231NES        000000000000 DENSO TEN (THAILAND)                                                                                                                                             G         20210708 IMCT                IMCT                                                                                                                    WMF2107083.TXT
MAKK17066979202107D3               89839629110P3YK20210719000015RECEPTACLE ASM;I              M IMCTM CM1    TNTH  09020IMKDC KA PTB  00015  K0                1431DES        000000000000 DENSO TEN (THAILAND)                                                                                                                                             G         20210708 IMCT                IMCT                                                                                                                    WMF2107083.TXT
MAKK17066980202107D3               89839631600P3YK20210719000015HARNESS KIT;ASM,              M IMCTM CM1    TNTH  09020IMKDC KA PTB  00030  K0                1431DES        000000000000 DENSO TEN (THAILAND)                                                                                                                                             G         20210708 IMCT                IMCT                                                                                                                    WMF2107083.TXT
