REC2021070120210701ISUZU                              27     
MAKK16139592202107N3               89825451200P3YK20210714000030SPEAKER ASM;ROOF              M IMCTM CM1    TNTH  09020IMKDC KA PTB  00036  K0                0231NES        000000000000 DENSO TEN (THAILAND)                                                                                                                                             G         20210701 IMCT                IMCT                                                                                                                    WMF2107018.TXT
MAKK16139593202107N3               89825451200P3YK20210717000030SPEAKER ASM;ROOF              M IMCTM CM1    TNTH  09020IMKDC KA PTB  00036  K0                0231NES        000000000000 DENSO TEN (THAILAND)                                                                                                                                             G         20210701 IMCT                IMCT                                                                                                                    WMF2107018.TXT
MAKK16139594202107D3               89828070100P3YK20210712000060SPEAKER ASM                   M IMCTM CM1    TNTH  09020IMKDC KA PTB  00004  K0                1431DES        000000000000 DENSO TEN (THAILAND)                                                                                                                                             G         20210701 IMCT                IMCT                                                                                                                    WMF2107018.TXT
MAKK16139595202107N3               89828070100P3YK20210713000060SPEAKER ASM                   M IMCTM CM1    TNTH  09020IMKDC KA PTB  00004  K0                0231NES        000000000000 DENSO TEN (THAILAND)                                                                                                                                             G         20210701 IMCT                IMCT                                                                                                                    WMF2107018.TXT
MAKK16139596202107D3               89828070100P3YK20210713000030SPEAKER ASM                   M IMCTM CM1    TNTH  09020IMKDC KA PTB  00004  K0                1431DES        000000000000 DENSO TEN (THAILAND)                                                                                                                                             G         20210701 IMCT                IMCT                                                                                                                    WMF2107018.TXT
MAKK16139597202107N3               89828070100P3YK20210714000030SPEAKER ASM                   M IMCTM CM1    TNTH  09020IMKDC KA PTB  00004  K0                0231NES        000000000000 DENSO TEN (THAILAND)                                                                                                                                             G         20210701 IMCT                IMCT                                                                                                                    WMF2107018.TXT
MAKK16139598202107D3               89828070100P3YK20210714000060SPEAKER ASM                   M IMCTM CM1    TNTH  09020IMKDC KA PTB  00004  K0                1431DES        000000000000 DENSO TEN (THAILAND)                                                                                                                                             G         20210701 IMCT                IMCT                                                                                                                    WMF2107018.TXT
MAKK16139599202107N3               89828070100P3YK20210715000090SPEAKER ASM                   M IMCTM CM1    TNTH  09020IMKDC KA PTB  00004  K0                0231NES        000000000000 DENSO TEN (THAILAND)                                                                                                                                             G         20210701 IMCT                IMCT                                                                                                                    WMF2107018.TXT
MAKK16139600202107D3               89828070100P3YK20210715000030SPEAKER ASM                   M IMCTM CM1    TNTH  09020IMKDC KA PTB  00004  K0                1431DES        000000000000 DENSO TEN (THAILAND)                                                                                                                                             G         20210701 IMCT                IMCT                                                                                                                    WMF2107018.TXT
MAKK16139601202107N3               89828070100P3YK20210716000030SPEAKER ASM                   M IMCTM CM1    TNTH  09020IMKDC KA PTB  00004  K0                0231NES        000000000000 DENSO TEN (THAILAND)                                                                                                                                             G         20210701 IMCT                IMCT                                                                                                                    WMF2107018.TXT
MAKK16139602202107D3               89828070100P3YK20210716000060SPEAKER ASM                   M IMCTM CM1    TNTH  09020IMKDC KA PTB  00004  K0                1431DES        000000000000 DENSO TEN (THAILAND)                                                                                                                                             G         20210701 IMCT                IMCT                                                                                                                    WMF2107018.TXT
MAKK16139603202107N3               89828070100P3YK20210717000090SPEAKER ASM                   M IMCTM CM1    TNTH  09020IMKDC KA PTB  00004  K0                0231NES        000000000000 DENSO TEN (THAILAND)                                                                                                                                             G         20210701 IMCT                IMCT                                                                                                                    WMF2107018.TXT
MAKK16139604202107D3               89828070200P3YK20210712000030SPEAKER ASM                   M IMCTM CM1    TNTH  09020IMKDC KA PTB  00005  K0                1431DES        000000000000 DENSO TEN (THAILAND)                                                                                                                                             G         20210701 IMCT                IMCT                                                                                                                    WMF2107018.TXT
MAKK16139605202107N3               89828070200P3YK20210713000030SPEAKER ASM                   M IMCTM CM1    TNTH  09020IMKDC KA PTB  00005  K0                0231NES        000000000000 DENSO TEN (THAILAND)                                                                                                                                             G         20210701 IMCT                IMCT                                                                                                                    WMF2107018.TXT
MAKK16139606202107N3               89828070200P3YK20210715000030SPEAKER ASM                   M IMCTM CM1    TNTH  09020IMKDC KA PTB  00005  K0                0231NES        000000000000 DENSO TEN (THAILAND)                                                                                                                                             G         20210701 IMCT                IMCT                                                                                                                    WMF2107018.TXT
MAKK16139607202107N3               89828070200P3YK20210716000030SPEAKER ASM                   M IMCTM CM1    TNTH  09020IMKDC KA PTB  00005  K0                0231NES        000000000000 DENSO TEN (THAILAND)                                                                                                                                             G         20210701 IMCT                IMCT                                                                                                                    WMF2107018.TXT
MAKK16139608202107D3               89828070200P3YK20210716000030SPEAKER ASM                   M IMCTM CM1    TNTH  09020IMKDC KA PTB  00005  K0                1431DES        000000000000 DENSO TEN (THAILAND)                                                                                                                                             G         20210701 IMCT                IMCT                                                                                                                    WMF2107018.TXT
MAKK16139609202107N3               89828070200P3YK20210717000060SPEAKER ASM                   M IMCTM CM1    TNTH  09020IMKDC KA PTB  00005  K0                0231NES        000000000000 DENSO TEN (THAILAND)                                                                                                                                             G         20210701 IMCT                IMCT                                                                                                                    WMF2107018.TXT
MAKK16139610202107D3               89828070300P3YK20210712000030SPEAKER ASM                   M IMCTM CM1    TNTH  09020IMKDC KA PTB  00015  K0                1431DES        000000000000 DENSO TEN (THAILAND)                                                                                                                                             G         20210701 IMCT                IMCT                                                                                                                    WMF2107018.TXT
MAKK16139611202107N3               89828070300P3YK20210713000030SPEAKER ASM                   M IMCTM CM1    TNTH  09020IMKDC KA PTB  00015  K0                0231NES        000000000000 DENSO TEN (THAILAND)                                                                                                                                             G         20210701 IMCT                IMCT                                                                                                                    WMF2107018.TXT
MAKK16139612202107N3               89828070300P3YK20210714000030SPEAKER ASM                   M IMCTM CM1    TNTH  09020IMKDC KA PTB  00015  K0                0231NES        000000000000 DENSO TEN (THAILAND)                                                                                                                                             G         20210701 IMCT                IMCT                                                                                                                    WMF2107018.TXT
MAKK16139613202107N3               89828070300P3YK20210715000060SPEAKER ASM                   M IMCTM CM1    TNTH  09020IMKDC KA PTB  00015  K0                0231NES        000000000000 DENSO TEN (THAILAND)                                                                                                                                             G         20210701 IMCT                IMCT                                                                                                                    WMF2107018.TXT
MAKK16139614202107N3               89828070300P3YK20210716000060SPEAKER ASM                   M IMCTM CM1    TNTH  09020IMKDC KA PTB  00015  K0                0231NES        000000000000 DENSO TEN (THAILAND)                                                                                                                                             G         20210701 IMCT                IMCT                                                                                                                    WMF2107018.TXT
MAKK16139615202107D3               89828070300P3YK20210716000030SPEAKER ASM                   M IMCTM CM1    TNTH  09020IMKDC KA PTB  00015  K0                1431DES        000000000000 DENSO TEN (THAILAND)                                                                                                                                             G         20210701 IMCT                IMCT                                                                                                                    WMF2107018.TXT
MAKK16139616202107N3               89828070300P3YK20210717000060SPEAKER ASM                   M IMCTM CM1    TNTH  09020IMKDC KA PTB  00015  K0                0231NES        000000000000 DENSO TEN (THAILAND)                                                                                                                                             G         20210701 IMCT                IMCT                                                                                                                    WMF2107018.TXT
MAKK16145449202107D3               89828070100P3YK20210713000030SPEAKER ASM                   M IMCTM PK3    TNTH  09020IMKDC KA PTB  00004  K0                1431DES        000000000000 DENSO TEN (THAILAND)                                                                                                                                             G         20210701 IMCT                IMCT                                                                                                                    WMF2107018.TXT
MAKK16145450202107D3               89828070200P3YK20210713000030SPEAKER ASM                   M IMCTM PK3    TNTH  09020IMKDC KA PTB  00005  K0                1431DES        000000000000 DENSO TEN (THAILAND)                                                                                                                                             G         20210701 IMCT                IMCT                                                                                                                    WMF2107018.TXT
