REC2021070120210701ISUZU                              3      
MACK16000738202107          IMKDC  89828070100P3YK20210712000006SPEAKER ASM                   M IMCTM IMKDC  TNTH  09020IMKDC KV PTB  00004    K295D3230   001 0000 ES        000000000000 DENSO TEN (THAILAND)                                                                                                                                             G         20210701 IMCT                IMCT                                                                                                                    WMF2107014.TXT
MACK16000739202107          IMKDC  89828070200P3YK20210712000006SPEAKER ASM                   M IMCTM IMKDC  TNTH  09020IMKDC KV PTB  00005    K295D3230   001 0000 ES        000000000000 DENSO TEN (THAILAND)                                                                                                                                             G         20210701 IMCT                IMCT                                                                                                                    WMF2107014.TXT
MACK16000740202107          IMKDC  89828070300P3YK20210712000006SPEAKER ASM                   M IMCTM IMKDC  TNTH  09020IMKDC KV PTB  00015    K295D3230   001 0000 ES        000000000000 DENSO TEN (THAILAND)                                                                                                                                             G         20210701 IMCT                IMCT                                                                                                                    WMF2107014.TXT
