REC2021072220210722ISUZU                              40     
MAKK17114803202107D3               89825451200P3YK20210802000060SPEAKER ASM;ROOF              M IMCTM CM1    TNTH  09020IMKDC KA PTB  00036  K0                1431DES        000000000000 DENSO TEN (THAILAND)                                                                                                                                             G         20210722 IMCT                IMCT                                                                                                                    WMF2107224.TXT
MAKK17114804202107N3               89825451200P3YK20210803000030SPEAKER ASM;ROOF              M IMCTM CM1    TNTH  09020IMKDC KA PTB  00036  K0                0231NES        000000000000 DENSO TEN (THAILAND)                                                                                                                                             G         20210722 IMCT                IMCT                                                                                                                    WMF2107224.TXT
MAKK17114805202107D3               89825451200P3YK20210804000030SPEAKER ASM;ROOF              M IMCTM CM1    TNTH  09020IMKDC KA PTB  00036  K0                1431DES        000000000000 DENSO TEN (THAILAND)                                                                                                                                             G         20210722 IMCT                IMCT                                                                                                                    WMF2107224.TXT
MAKK17114806202107N3               89825451200P3YK20210805000030SPEAKER ASM;ROOF              M IMCTM CM1    TNTH  09020IMKDC KA PTB  00036  K0                0231NES        000000000000 DENSO TEN (THAILAND)                                                                                                                                             G         20210722 IMCT                IMCT                                                                                                                    WMF2107224.TXT
MAKK17114807202107D3               89825451200P3YK20210806000030SPEAKER ASM;ROOF              M IMCTM CM1    TNTH  09020IMKDC KA PTB  00036  K0                1431DES        000000000000 DENSO TEN (THAILAND)                                                                                                                                             G         20210722 IMCT                IMCT                                                                                                                    WMF2107224.TXT
MAKK17114808202107D3               89828070100P3YK20210802000120SPEAKER ASM                   M IMCTM CM1    TNTH  09020IMKDC KA PTB  00004  K0                1431DES        000000000000 DENSO TEN (THAILAND)                                                                                                                                             G         20210722 IMCT                IMCT                                                                                                                    WMF2107224.TXT
MAKK17114809202107N3               89828070100P3YK20210803000120SPEAKER ASM                   M IMCTM CM1    TNTH  09020IMKDC KA PTB  00004  K0                0231NES        000000000000 DENSO TEN (THAILAND)                                                                                                                                             G         20210722 IMCT                IMCT                                                                                                                    WMF2107224.TXT
MAKK17114810202107D3               89828070100P3YK20210803000120SPEAKER ASM                   M IMCTM CM1    TNTH  09020IMKDC KA PTB  00004  K0                1431DES        000000000000 DENSO TEN (THAILAND)                                                                                                                                             G         20210722 IMCT                IMCT                                                                                                                    WMF2107224.TXT
MAKK17114811202107N3               89828070100P3YK20210804000150SPEAKER ASM                   M IMCTM CM1    TNTH  09020IMKDC KA PTB  00004  K0                0231NES        000000000000 DENSO TEN (THAILAND)                                                                                                                                             G         20210722 IMCT                IMCT                                                                                                                    WMF2107224.TXT
MAKK17114812202107D3               89828070100P3YK20210804000120SPEAKER ASM                   M IMCTM CM1    TNTH  09020IMKDC KA PTB  00004  K0                1431DES        000000000000 DENSO TEN (THAILAND)                                                                                                                                             G         20210722 IMCT                IMCT                                                                                                                    WMF2107224.TXT
MAKK17114813202107N3               89828070100P3YK20210805000150SPEAKER ASM                   M IMCTM CM1    TNTH  09020IMKDC KA PTB  00004  K0                0231NES        000000000000 DENSO TEN (THAILAND)                                                                                                                                             G         20210722 IMCT                IMCT                                                                                                                    WMF2107224.TXT
MAKK17114814202107D3               89828070100P3YK20210805000120SPEAKER ASM                   M IMCTM CM1    TNTH  09020IMKDC KA PTB  00004  K0                1431DES        000000000000 DENSO TEN (THAILAND)                                                                                                                                             G         20210722 IMCT                IMCT                                                                                                                    WMF2107224.TXT
MAKK17114815202107N3               89828070100P3YK20210806000120SPEAKER ASM                   M IMCTM CM1    TNTH  09020IMKDC KA PTB  00004  K0                0231NES        000000000000 DENSO TEN (THAILAND)                                                                                                                                             G         20210722 IMCT                IMCT                                                                                                                    WMF2107224.TXT
MAKK17114816202107D3               89828070100P3YK20210806000120SPEAKER ASM                   M IMCTM CM1    TNTH  09020IMKDC KA PTB  00004  K0                1431DES        000000000000 DENSO TEN (THAILAND)                                                                                                                                             G         20210722 IMCT                IMCT                                                                                                                    WMF2107224.TXT
MAKK17114817202107N3               89828070100P3YK20210807000120SPEAKER ASM                   M IMCTM CM1    TNTH  09020IMKDC KA PTB  00004  K0                0231NES        000000000000 DENSO TEN (THAILAND)                                                                                                                                             G         20210722 IMCT                IMCT                                                                                                                    WMF2107224.TXT
MAKK17114818202107D3               89828070100P3YK20210807000150SPEAKER ASM                   M IMCTM CM1    TNTH  09020IMKDC KA PTB  00004  K0                1431DES        000000000000 DENSO TEN (THAILAND)                                                                                                                                             G         20210722 IMCT                IMCT                                                                                                                    WMF2107224.TXT
MAKK17114819202107N3               89828070100P3YK20210808000120SPEAKER ASM                   M IMCTM CM1    TNTH  09020IMKDC KA PTB  00004  K0                0231NES        000000000000 DENSO TEN (THAILAND)                                                                                                                                             G         20210722 IMCT                IMCT                                                                                                                    WMF2107224.TXT
MAKK17114820202107D3               89828070200P3YK20210802000030SPEAKER ASM                   M IMCTM CM1    TNTH  09020IMKDC KA PTB  00005  K0                1431DES        000000000000 DENSO TEN (THAILAND)                                                                                                                                             G         20210722 IMCT                IMCT                                                                                                                    WMF2107224.TXT
MAKK17114821202107N3               89828070200P3YK20210803000060SPEAKER ASM                   M IMCTM CM1    TNTH  09020IMKDC KA PTB  00005  K0                0231NES        000000000000 DENSO TEN (THAILAND)                                                                                                                                             G         20210722 IMCT                IMCT                                                                                                                    WMF2107224.TXT
MAKK17114822202107D3               89828070200P3YK20210803000030SPEAKER ASM                   M IMCTM CM1    TNTH  09020IMKDC KA PTB  00005  K0                1431DES        000000000000 DENSO TEN (THAILAND)                                                                                                                                             G         20210722 IMCT                IMCT                                                                                                                    WMF2107224.TXT
MAKK17114823202107D3               89828070200P3YK20210804000030SPEAKER ASM                   M IMCTM CM1    TNTH  09020IMKDC KA PTB  00005  K0                1431DES        000000000000 DENSO TEN (THAILAND)                                                                                                                                             G         20210722 IMCT                IMCT                                                                                                                    WMF2107224.TXT
MAKK17114824202107N3               89828070200P3YK20210805000030SPEAKER ASM                   M IMCTM CM1    TNTH  09020IMKDC KA PTB  00005  K0                0231NES        000000000000 DENSO TEN (THAILAND)                                                                                                                                             G         20210722 IMCT                IMCT                                                                                                                    WMF2107224.TXT
MAKK17114825202107D3               89828070200P3YK20210805000060SPEAKER ASM                   M IMCTM CM1    TNTH  09020IMKDC KA PTB  00005  K0                1431DES        000000000000 DENSO TEN (THAILAND)                                                                                                                                             G         20210722 IMCT                IMCT                                                                                                                    WMF2107224.TXT
MAKK17114826202107N3               89828070200P3YK20210806000030SPEAKER ASM                   M IMCTM CM1    TNTH  09020IMKDC KA PTB  00005  K0                0231NES        000000000000 DENSO TEN (THAILAND)                                                                                                                                             G         20210722 IMCT                IMCT                                                                                                                    WMF2107224.TXT
MAKK17114827202107D3               89828070200P3YK20210806000090SPEAKER ASM                   M IMCTM CM1    TNTH  09020IMKDC KA PTB  00005  K0                1431DES        000000000000 DENSO TEN (THAILAND)                                                                                                                                             G         20210722 IMCT                IMCT                                                                                                                    WMF2107224.TXT
MAKK17114828202107N3               89828070200P3YK20210807000030SPEAKER ASM                   M IMCTM CM1    TNTH  09020IMKDC KA PTB  00005  K0                0231NES        000000000000 DENSO TEN (THAILAND)                                                                                                                                             G         20210722 IMCT                IMCT                                                                                                                    WMF2107224.TXT
MAKK17114829202107D3               89828070200P3YK20210807000090SPEAKER ASM                   M IMCTM CM1    TNTH  09020IMKDC KA PTB  00005  K0                1431DES        000000000000 DENSO TEN (THAILAND)                                                                                                                                             G         20210722 IMCT                IMCT                                                                                                                    WMF2107224.TXT
MAKK17114830202107N3               89828070200P3YK20210808000030SPEAKER ASM                   M IMCTM CM1    TNTH  09020IMKDC KA PTB  00005  K0                0231NES        000000000000 DENSO TEN (THAILAND)                                                                                                                                             G         20210722 IMCT                IMCT                                                                                                                    WMF2107224.TXT
MAKK17114831202107D3               89828070300P3YK20210802000060SPEAKER ASM                   M IMCTM CM1    TNTH  09020IMKDC KA PTB  00015  K0                1431DES        000000000000 DENSO TEN (THAILAND)                                                                                                                                             G         20210722 IMCT                IMCT                                                                                                                    WMF2107224.TXT
MAKK17114832202107N3               89828070300P3YK20210803000090SPEAKER ASM                   M IMCTM CM1    TNTH  09020IMKDC KA PTB  00015  K0                0231NES        000000000000 DENSO TEN (THAILAND)                                                                                                                                             G         20210722 IMCT                IMCT                                                                                                                    WMF2107224.TXT
MAKK17114833202107D3               89828070300P3YK20210803000030SPEAKER ASM                   M IMCTM CM1    TNTH  09020IMKDC KA PTB  00015  K0                1431DES        000000000000 DENSO TEN (THAILAND)                                                                                                                                             G         20210722 IMCT                IMCT                                                                                                                    WMF2107224.TXT
MAKK17114834202107N3               89828070300P3YK20210804000030SPEAKER ASM                   M IMCTM CM1    TNTH  09020IMKDC KA PTB  00015  K0                0231NES        000000000000 DENSO TEN (THAILAND)                                                                                                                                             G         20210722 IMCT                IMCT                                                                                                                    WMF2107224.TXT
MAKK17114835202107D3               89828070300P3YK20210804000090SPEAKER ASM                   M IMCTM CM1    TNTH  09020IMKDC KA PTB  00015  K0                1431DES        000000000000 DENSO TEN (THAILAND)                                                                                                                                             G         20210722 IMCT                IMCT                                                                                                                    WMF2107224.TXT
MAKK17114836202107N3               89828070300P3YK20210805000060SPEAKER ASM                   M IMCTM CM1    TNTH  09020IMKDC KA PTB  00015  K0                0231NES        000000000000 DENSO TEN (THAILAND)                                                                                                                                             G         20210722 IMCT                IMCT                                                                                                                    WMF2107224.TXT
MAKK17114837202107D3               89828070300P3YK20210805000090SPEAKER ASM                   M IMCTM CM1    TNTH  09020IMKDC KA PTB  00015  K0                1431DES        000000000000 DENSO TEN (THAILAND)                                                                                                                                             G         20210722 IMCT                IMCT                                                                                                                    WMF2107224.TXT
MAKK17114838202107N3               89828070300P3YK20210806000060SPEAKER ASM                   M IMCTM CM1    TNTH  09020IMKDC KA PTB  00015  K0                0231NES        000000000000 DENSO TEN (THAILAND)                                                                                                                                             G         20210722 IMCT                IMCT                                                                                                                    WMF2107224.TXT
MAKK17114839202107D3               89828070300P3YK20210806000090SPEAKER ASM                   M IMCTM CM1    TNTH  09020IMKDC KA PTB  00015  K0                1431DES        000000000000 DENSO TEN (THAILAND)                                                                                                                                             G         20210722 IMCT                IMCT                                                                                                                    WMF2107224.TXT
MAKK17114840202107N3               89828070300P3YK20210807000030SPEAKER ASM                   M IMCTM CM1    TNTH  09020IMKDC KA PTB  00015  K0                0231NES        000000000000 DENSO TEN (THAILAND)                                                                                                                                             G         20210722 IMCT                IMCT                                                                                                                    WMF2107224.TXT
MAKK17114841202107D3               89828070300P3YK20210807000090SPEAKER ASM                   M IMCTM CM1    TNTH  09020IMKDC KA PTB  00015  K0                1431DES        000000000000 DENSO TEN (THAILAND)                                                                                                                                             G         20210722 IMCT                IMCT                                                                                                                    WMF2107224.TXT
MAKK17114842202107N3               89828070300P3YK20210808000030SPEAKER ASM                   M IMCTM CM1    TNTH  09020IMKDC KA PTB  00015  K0                0231NES        000000000000 DENSO TEN (THAILAND)                                                                                                                                             G         20210722 IMCT                IMCT                                                                                                                    WMF2107224.TXT
