REC2021070920210709ISUZU                              3      
MACK17000526202107          IMKDC  89828070100P3YK20210722000008SPEAKER ASM                   M IMCTM IMKDC  TNTH  09020IMKDC KV PTB  00004    K295D2960   001 0000 ES        000000000000 DENSO TEN (THAILAND)                                                                                                                                             G         20210709 IMCT                IMCT                                                                                                                    WMF2107097.TXT
MACK17000527202107          IMKDC  89828070200P3YK20210722000008SPEAKER ASM                   M IMCTM IMKDC  TNTH  09020IMKDC KV PTB  00005    K295D2960   001 0000 ES        000000000000 DENSO TEN (THAILAND)                                                                                                                                             G         20210709 IMCT                IMCT                                                                                                                    WMF2107097.TXT
MACK17000528202107          IMKDC  89828070300P3YK20210722000008SPEAKER ASM                   M IMCTM IMKDC  TNTH  09020IMKDC KV PTB  00015    K295D2960   001 0000 ES        000000000000 DENSO TEN (THAILAND)                                                                                                                                             G         20210709 IMCT                IMCT                                                                                                                    WMF2107097.TXT
