REC2021072920210729ISUZU                              39     
MAKK17143332202107D3               89748082340P3YK20210810000015RADIO ASM;CENTER              M IMCTM CM1    TNTH  09020IMKDC KA PTB  00005  K0                1431DES        000000000000 DENSO TEN (THAILAND)                                                                                                                                             G         20210729 IMCT                IMCT                                                                                                                    WMF2107295.TXT
MAKK17143333202107D3               89753792300P3YK20210810000015HARNESS ASM;INFO              M IMCTM CM1    TNTH  09020IMKDC KA PTB  00015  K0                1431DES        000000000000 DENSO TEN (THAILAND)                                                                                                                                             G         20210729 IMCT                IMCT                                                                                                                    WMF2107295.TXT
MAKK17143334202107D3               89767048400P3YK20210810000015DISPLAY UNIT;ASM              M IMCTM CM1    TNTH  09020IMKDC KA PTB  00005  K0                1431DES        000000000000 DENSO TEN (THAILAND)                                                                                                                                             G         20210729 IMCT                IMCT                                                                                                                    WMF2107295.TXT
MAKK17143335202107N3               89825451200P3YK20210814000030SPEAKER ASM;ROOF              M IMCTM CM1    TNTH  09020IMKDC KA PTB  00036  K0                0231NES        000000000000 DENSO TEN (THAILAND)                                                                                                                                             G         20210729 IMCT                IMCT                                                                                                                    WMF2107295.TXT
MAKK17143336202107D3               89828070100P3YK20210809000120SPEAKER ASM                   M IMCTM CM1    TNTH  09020IMKDC KA PTB  00004  K0                1431DES        000000000000 DENSO TEN (THAILAND)                                                                                                                                             G         20210729 IMCT                IMCT                                                                                                                    WMF2107295.TXT
MAKK17143337202107N3               89828070100P3YK20210810000120SPEAKER ASM                   M IMCTM CM1    TNTH  09020IMKDC KA PTB  00004  K0                0231NES        000000000000 DENSO TEN (THAILAND)                                                                                                                                             G         20210729 IMCT                IMCT                                                                                                                    WMF2107295.TXT
MAKK17143338202107D3               89828070100P3YK20210810000090SPEAKER ASM                   M IMCTM CM1    TNTH  09020IMKDC KA PTB  00004  K0                1431DES        000000000000 DENSO TEN (THAILAND)                                                                                                                                             G         20210729 IMCT                IMCT                                                                                                                    WMF2107295.TXT
MAKK17143339202107N3               89828070100P3YK20210811000120SPEAKER ASM                   M IMCTM CM1    TNTH  09020IMKDC KA PTB  00004  K0                0231NES        000000000000 DENSO TEN (THAILAND)                                                                                                                                             G         20210729 IMCT                IMCT                                                                                                                    WMF2107295.TXT
MAKK17143340202107D3               89828070100P3YK20210811000120SPEAKER ASM                   M IMCTM CM1    TNTH  09020IMKDC KA PTB  00004  K0                1431DES        000000000000 DENSO TEN (THAILAND)                                                                                                                                             G         20210729 IMCT                IMCT                                                                                                                    WMF2107295.TXT
MAKK17143341202107N3               89828070100P3YK20210812000150SPEAKER ASM                   M IMCTM CM1    TNTH  09020IMKDC KA PTB  00004  K0                0231NES        000000000000 DENSO TEN (THAILAND)                                                                                                                                             G         20210729 IMCT                IMCT                                                                                                                    WMF2107295.TXT
MAKK17143342202107D3               89828070100P3YK20210812000090SPEAKER ASM                   M IMCTM CM1    TNTH  09020IMKDC KA PTB  00004  K0                1431DES        000000000000 DENSO TEN (THAILAND)                                                                                                                                             G         20210729 IMCT                IMCT                                                                                                                    WMF2107295.TXT
MAKK17143343202107N3               89828070100P3YK20210813000150SPEAKER ASM                   M IMCTM CM1    TNTH  09020IMKDC KA PTB  00004  K0                0231NES        000000000000 DENSO TEN (THAILAND)                                                                                                                                             G         20210729 IMCT                IMCT                                                                                                                    WMF2107295.TXT
MAKK17143344202107D3               89828070100P3YK20210813000120SPEAKER ASM                   M IMCTM CM1    TNTH  09020IMKDC KA PTB  00004  K0                1431DES        000000000000 DENSO TEN (THAILAND)                                                                                                                                             G         20210729 IMCT                IMCT                                                                                                                    WMF2107295.TXT
MAKK17143345202107N3               89828070100P3YK20210814000120SPEAKER ASM                   M IMCTM CM1    TNTH  09020IMKDC KA PTB  00004  K0                0231NES        000000000000 DENSO TEN (THAILAND)                                                                                                                                             G         20210729 IMCT                IMCT                                                                                                                    WMF2107295.TXT
MAKK17143346202107D3               89828070100P3YK20210814000090SPEAKER ASM                   M IMCTM CM1    TNTH  09020IMKDC KA PTB  00004  K0                1431DES        000000000000 DENSO TEN (THAILAND)                                                                                                                                             G         20210729 IMCT                IMCT                                                                                                                    WMF2107295.TXT
MAKK17143347202107N3               89828070100P3YK20210815000150SPEAKER ASM                   M IMCTM CM1    TNTH  09020IMKDC KA PTB  00004  K0                0231NES        000000000000 DENSO TEN (THAILAND)                                                                                                                                             G         20210729 IMCT                IMCT                                                                                                                    WMF2107295.TXT
MAKK17143348202107N3               89828070200P3YK20210810000030SPEAKER ASM                   M IMCTM CM1    TNTH  09020IMKDC KA PTB  00005  K0                0231NES        000000000000 DENSO TEN (THAILAND)                                                                                                                                             G         20210729 IMCT                IMCT                                                                                                                    WMF2107295.TXT
MAKK17143349202107D3               89828070200P3YK20210810000030SPEAKER ASM                   M IMCTM CM1    TNTH  09020IMKDC KA PTB  00005  K0                1431DES        000000000000 DENSO TEN (THAILAND)                                                                                                                                             G         20210729 IMCT                IMCT                                                                                                                    WMF2107295.TXT
MAKK17143350202107N3               89828070200P3YK20210811000060SPEAKER ASM                   M IMCTM CM1    TNTH  09020IMKDC KA PTB  00005  K0                0231NES        000000000000 DENSO TEN (THAILAND)                                                                                                                                             G         20210729 IMCT                IMCT                                                                                                                    WMF2107295.TXT
MAKK17143351202107D3               89828070200P3YK20210811000030SPEAKER ASM                   M IMCTM CM1    TNTH  09020IMKDC KA PTB  00005  K0                1431DES        000000000000 DENSO TEN (THAILAND)                                                                                                                                             G         20210729 IMCT                IMCT                                                                                                                    WMF2107295.TXT
MAKK17143352202107N3               89828070200P3YK20210812000030SPEAKER ASM                   M IMCTM CM1    TNTH  09020IMKDC KA PTB  00005  K0                0231NES        000000000000 DENSO TEN (THAILAND)                                                                                                                                             G         20210729 IMCT                IMCT                                                                                                                    WMF2107295.TXT
MAKK17143353202107N3               89828070200P3YK20210813000060SPEAKER ASM                   M IMCTM CM1    TNTH  09020IMKDC KA PTB  00005  K0                0231NES        000000000000 DENSO TEN (THAILAND)                                                                                                                                             G         20210729 IMCT                IMCT                                                                                                                    WMF2107295.TXT
MAKK17143354202107N3               89828070200P3YK20210814000030SPEAKER ASM                   M IMCTM CM1    TNTH  09020IMKDC KA PTB  00005  K0                0231NES        000000000000 DENSO TEN (THAILAND)                                                                                                                                             G         20210729 IMCT                IMCT                                                                                                                    WMF2107295.TXT
MAKK17143355202107D3               89828070200P3YK20210814000030SPEAKER ASM                   M IMCTM CM1    TNTH  09020IMKDC KA PTB  00005  K0                1431DES        000000000000 DENSO TEN (THAILAND)                                                                                                                                             G         20210729 IMCT                IMCT                                                                                                                    WMF2107295.TXT
MAKK17143356202107N3               89828070200P3YK20210815000060SPEAKER ASM                   M IMCTM CM1    TNTH  09020IMKDC KA PTB  00005  K0                0231NES        000000000000 DENSO TEN (THAILAND)                                                                                                                                             G         20210729 IMCT                IMCT                                                                                                                    WMF2107295.TXT
MAKK17143357202107D3               89828070300P3YK20210809000060SPEAKER ASM                   M IMCTM CM1    TNTH  09020IMKDC KA PTB  00015  K0                1431DES        000000000000 DENSO TEN (THAILAND)                                                                                                                                             G         20210729 IMCT                IMCT                                                                                                                    WMF2107295.TXT
MAKK17143358202107N3               89828070300P3YK20210810000060SPEAKER ASM                   M IMCTM CM1    TNTH  09020IMKDC KA PTB  00015  K0                0231NES        000000000000 DENSO TEN (THAILAND)                                                                                                                                             G         20210729 IMCT                IMCT                                                                                                                    WMF2107295.TXT
MAKK17143359202107D3               89828070300P3YK20210810000060SPEAKER ASM                   M IMCTM CM1    TNTH  09020IMKDC KA PTB  00015  K0                1431DES        000000000000 DENSO TEN (THAILAND)                                                                                                                                             G         20210729 IMCT                IMCT                                                                                                                    WMF2107295.TXT
MAKK17143360202107N3               89828070300P3YK20210811000090SPEAKER ASM                   M IMCTM CM1    TNTH  09020IMKDC KA PTB  00015  K0                0231NES        000000000000 DENSO TEN (THAILAND)                                                                                                                                             G         20210729 IMCT                IMCT                                                                                                                    WMF2107295.TXT
MAKK17143361202107D3               89828070300P3YK20210811000060SPEAKER ASM                   M IMCTM CM1    TNTH  09020IMKDC KA PTB  00015  K0                1431DES        000000000000 DENSO TEN (THAILAND)                                                                                                                                             G         20210729 IMCT                IMCT                                                                                                                    WMF2107295.TXT
MAKK17143362202107N3               89828070300P3YK20210812000060SPEAKER ASM                   M IMCTM CM1    TNTH  09020IMKDC KA PTB  00015  K0                0231NES        000000000000 DENSO TEN (THAILAND)                                                                                                                                             G         20210729 IMCT                IMCT                                                                                                                    WMF2107295.TXT
MAKK17143363202107D3               89828070300P3YK20210812000060SPEAKER ASM                   M IMCTM CM1    TNTH  09020IMKDC KA PTB  00015  K0                1431DES        000000000000 DENSO TEN (THAILAND)                                                                                                                                             G         20210729 IMCT                IMCT                                                                                                                    WMF2107295.TXT
MAKK17143364202107N3               89828070300P3YK20210813000090SPEAKER ASM                   M IMCTM CM1    TNTH  09020IMKDC KA PTB  00015  K0                0231NES        000000000000 DENSO TEN (THAILAND)                                                                                                                                             G         20210729 IMCT                IMCT                                                                                                                    WMF2107295.TXT
MAKK17143365202107D3               89828070300P3YK20210813000030SPEAKER ASM                   M IMCTM CM1    TNTH  09020IMKDC KA PTB  00015  K0                1431DES        000000000000 DENSO TEN (THAILAND)                                                                                                                                             G         20210729 IMCT                IMCT                                                                                                                    WMF2107295.TXT
MAKK17143366202107N3               89828070300P3YK20210814000030SPEAKER ASM                   M IMCTM CM1    TNTH  09020IMKDC KA PTB  00015  K0                0231NES        000000000000 DENSO TEN (THAILAND)                                                                                                                                             G         20210729 IMCT                IMCT                                                                                                                    WMF2107295.TXT
MAKK17143367202107D3               89828070300P3YK20210814000060SPEAKER ASM                   M IMCTM CM1    TNTH  09020IMKDC KA PTB  00015  K0                1431DES        000000000000 DENSO TEN (THAILAND)                                                                                                                                             G         20210729 IMCT                IMCT                                                                                                                    WMF2107295.TXT
MAKK17143368202107N3               89828070300P3YK20210815000060SPEAKER ASM                   M IMCTM CM1    TNTH  09020IMKDC KA PTB  00015  K0                0231NES        000000000000 DENSO TEN (THAILAND)                                                                                                                                             G         20210729 IMCT                IMCT                                                                                                                    WMF2107295.TXT
MAKK17143369202107D3               89839629110P3YK20210810000015RECEPTACLE ASM;I              M IMCTM CM1    TNTH  09020IMKDC KA PTB  00015  K0                1431DES        000000000000 DENSO TEN (THAILAND)                                                                                                                                             G         20210729 IMCT                IMCT                                                                                                                    WMF2107295.TXT
MAKK17143370202107D3               89839631600P3YK20210810000015HARNESS KIT;ASM,              M IMCTM CM1    TNTH  09020IMKDC KA PTB  00030  K0                1431DES        000000000000 DENSO TEN (THAILAND)                                                                                                                                             G         20210729 IMCT                IMCT                                                                                                                    WMF2107295.TXT
