REC2021071520210715ISUZU                              28     
MAKK17088631202107D3               89828070100P3YK20210726000090SPEAKER ASM                   M IMCTM CM1    TNTH  09020IMKDC KA PTB  00004  K0                1431DES        000000000000 DENSO TEN (THAILAND)                                                                                                                                             G         20210715 IMCT                IMCT                                                                                                                    WMF2107156.TXT
MAKK17088632202107N3               89828070100P3YK20210727000060SPEAKER ASM                   M IMCTM CM1    TNTH  09020IMKDC KA PTB  00004  K0                0231NES        000000000000 DENSO TEN (THAILAND)                                                                                                                                             G         20210715 IMCT                IMCT                                                                                                                    WMF2107156.TXT
MAKK17088633202107D3               89828070100P3YK20210727000060SPEAKER ASM                   M IMCTM CM1    TNTH  09020IMKDC KA PTB  00004  K0                1431DES        000000000000 DENSO TEN (THAILAND)                                                                                                                                             G         20210715 IMCT                IMCT                                                                                                                    WMF2107156.TXT
MAKK17088634202107N3               89828070100P3YK20210728000090SPEAKER ASM                   M IMCTM CM1    TNTH  09020IMKDC KA PTB  00004  K0                0231NES        000000000000 DENSO TEN (THAILAND)                                                                                                                                             G         20210715 IMCT                IMCT                                                                                                                    WMF2107156.TXT
MAKK17088635202107D3               89828070100P3YK20210729000030SPEAKER ASM                   M IMCTM CM1    TNTH  09020IMKDC KA PTB  00004  K0                1431DES        000000000000 DENSO TEN (THAILAND)                                                                                                                                             G         20210715 IMCT                IMCT                                                                                                                    WMF2107156.TXT
MAKK17088636202107N3               89828070100P3YK20210730000030SPEAKER ASM                   M IMCTM CM1    TNTH  09020IMKDC KA PTB  00004  K0                0231NES        000000000000 DENSO TEN (THAILAND)                                                                                                                                             G         20210715 IMCT                IMCT                                                                                                                    WMF2107156.TXT
MAKK17088637202107D3               89828070100P3YK20210730000060SPEAKER ASM                   M IMCTM CM1    TNTH  09020IMKDC KA PTB  00004  K0                1431DES        000000000000 DENSO TEN (THAILAND)                                                                                                                                             G         20210715 IMCT                IMCT                                                                                                                    WMF2107156.TXT
MAKK17088638202107N3               89828070100P3YK20210731000060SPEAKER ASM                   M IMCTM CM1    TNTH  09020IMKDC KA PTB  00004  K0                0231NES        000000000000 DENSO TEN (THAILAND)                                                                                                                                             G         20210715 IMCT                IMCT                                                                                                                    WMF2107156.TXT
MAKK17088639202107D3               89828070100P3YK20210731000060SPEAKER ASM                   M IMCTM CM1    TNTH  09020IMKDC KA PTB  00004  K0                1431DES        000000000000 DENSO TEN (THAILAND)                                                                                                                                             G         20210715 IMCT                IMCT                                                                                                                    WMF2107156.TXT
MAKK17088640202107N3               89828070100P3YK20210801000120SPEAKER ASM                   M IMCTM CM1    TNTH  09020IMKDC KA PTB  00004  K0                0231NES        000000000000 DENSO TEN (THAILAND)                                                                                                                                             G         20210715 IMCT                IMCT                                                                                                                    WMF2107156.TXT
MAKK17088641202107D3               89828070200P3YK20210726000030SPEAKER ASM                   M IMCTM CM1    TNTH  09020IMKDC KA PTB  00005  K0                1431DES        000000000000 DENSO TEN (THAILAND)                                                                                                                                             G         20210715 IMCT                IMCT                                                                                                                    WMF2107156.TXT
MAKK17088642202107N3               89828070200P3YK20210727000030SPEAKER ASM                   M IMCTM CM1    TNTH  09020IMKDC KA PTB  00005  K0                0231NES        000000000000 DENSO TEN (THAILAND)                                                                                                                                             G         20210715 IMCT                IMCT                                                                                                                    WMF2107156.TXT
MAKK17088643202107D3               89828070200P3YK20210727000030SPEAKER ASM                   M IMCTM CM1    TNTH  09020IMKDC KA PTB  00005  K0                1431DES        000000000000 DENSO TEN (THAILAND)                                                                                                                                             G         20210715 IMCT                IMCT                                                                                                                    WMF2107156.TXT
MAKK17088644202107N3               89828070200P3YK20210728000060SPEAKER ASM                   M IMCTM CM1    TNTH  09020IMKDC KA PTB  00005  K0                0231NES        000000000000 DENSO TEN (THAILAND)                                                                                                                                             G         20210715 IMCT                IMCT                                                                                                                    WMF2107156.TXT
MAKK17088645202107N3               89828070200P3YK20210730000030SPEAKER ASM                   M IMCTM CM1    TNTH  09020IMKDC KA PTB  00005  K0                0231NES        000000000000 DENSO TEN (THAILAND)                                                                                                                                             G         20210715 IMCT                IMCT                                                                                                                    WMF2107156.TXT
MAKK17088646202107D3               89828070200P3YK20210730000030SPEAKER ASM                   M IMCTM CM1    TNTH  09020IMKDC KA PTB  00005  K0                1431DES        000000000000 DENSO TEN (THAILAND)                                                                                                                                             G         20210715 IMCT                IMCT                                                                                                                    WMF2107156.TXT
MAKK17088647202107N3               89828070200P3YK20210731000030SPEAKER ASM                   M IMCTM CM1    TNTH  09020IMKDC KA PTB  00005  K0                0231NES        000000000000 DENSO TEN (THAILAND)                                                                                                                                             G         20210715 IMCT                IMCT                                                                                                                    WMF2107156.TXT
MAKK17088648202107D3               89828070200P3YK20210731000030SPEAKER ASM                   M IMCTM CM1    TNTH  09020IMKDC KA PTB  00005  K0                1431DES        000000000000 DENSO TEN (THAILAND)                                                                                                                                             G         20210715 IMCT                IMCT                                                                                                                    WMF2107156.TXT
MAKK17088649202107N3               89828070200P3YK20210801000060SPEAKER ASM                   M IMCTM CM1    TNTH  09020IMKDC KA PTB  00005  K0                0231NES        000000000000 DENSO TEN (THAILAND)                                                                                                                                             G         20210715 IMCT                IMCT                                                                                                                    WMF2107156.TXT
MAKK17088650202107D3               89828070300P3YK20210726000030SPEAKER ASM                   M IMCTM CM1    TNTH  09020IMKDC KA PTB  00015  K0                1431DES        000000000000 DENSO TEN (THAILAND)                                                                                                                                             G         20210715 IMCT                IMCT                                                                                                                    WMF2107156.TXT
MAKK17088651202107N3               89828070300P3YK20210727000030SPEAKER ASM                   M IMCTM CM1    TNTH  09020IMKDC KA PTB  00015  K0                0231NES        000000000000 DENSO TEN (THAILAND)                                                                                                                                             G         20210715 IMCT                IMCT                                                                                                                    WMF2107156.TXT
MAKK17088652202107D3               89828070300P3YK20210727000030SPEAKER ASM                   M IMCTM CM1    TNTH  09020IMKDC KA PTB  00015  K0                1431DES        000000000000 DENSO TEN (THAILAND)                                                                                                                                             G         20210715 IMCT                IMCT                                                                                                                    WMF2107156.TXT
MAKK17088653202107N3               89828070300P3YK20210728000060SPEAKER ASM                   M IMCTM CM1    TNTH  09020IMKDC KA PTB  00015  K0                0231NES        000000000000 DENSO TEN (THAILAND)                                                                                                                                             G         20210715 IMCT                IMCT                                                                                                                    WMF2107156.TXT
MAKK17088654202107N3               89828070300P3YK20210730000030SPEAKER ASM                   M IMCTM CM1    TNTH  09020IMKDC KA PTB  00015  K0                0231NES        000000000000 DENSO TEN (THAILAND)                                                                                                                                             G         20210715 IMCT                IMCT                                                                                                                    WMF2107156.TXT
MAKK17088655202107D3               89828070300P3YK20210730000030SPEAKER ASM                   M IMCTM CM1    TNTH  09020IMKDC KA PTB  00015  K0                1431DES        000000000000 DENSO TEN (THAILAND)                                                                                                                                             G         20210715 IMCT                IMCT                                                                                                                    WMF2107156.TXT
MAKK17088656202107N3               89828070300P3YK20210731000060SPEAKER ASM                   M IMCTM CM1    TNTH  09020IMKDC KA PTB  00015  K0                0231NES        000000000000 DENSO TEN (THAILAND)                                                                                                                                             G         20210715 IMCT                IMCT                                                                                                                    WMF2107156.TXT
MAKK17088657202107D3               89828070300P3YK20210731000030SPEAKER ASM                   M IMCTM CM1    TNTH  09020IMKDC KA PTB  00015  K0                1431DES        000000000000 DENSO TEN (THAILAND)                                                                                                                                             G         20210715 IMCT                IMCT                                                                                                                    WMF2107156.TXT
MAKK17088658202107N3               89828070300P3YK20210801000060SPEAKER ASM                   M IMCTM CM1    TNTH  09020IMKDC KA PTB  00015  K0                0231NES        000000000000 DENSO TEN (THAILAND)                                                                                                                                             G         20210715 IMCT                IMCT                                                                                                                    WMF2107156.TXT
