REC2021081320210813ISUZU                              30     
MAKK18104869202108D3               89825451200P3YK20210826000030SPEAKER ASM;ROOF              M IMCTM CM1    TNTH  09020IMKDC KA PTB  00036  K0                1431DES        000000000000 DENSO TEN (THAILAND)                                                                                                                                             G         20210813 IMCT                IMCT                                                                                                                    WMF2108132.TXT
MAKK18104870202108D3               89828070100P3YK20210823000150SPEAKER ASM                   M IMCTM CM1    TNTH  09020IMKDC KA PTB  00004  K0                1431DES        000000000000 DENSO TEN (THAILAND)                                                                                                                                             G         20210813 IMCT                IMCT                                                                                                                    WMF2108132.TXT
MAKK18104871202108N3               89828070100P3YK20210824000120SPEAKER ASM                   M IMCTM CM1    TNTH  09020IMKDC KA PTB  00004  K0                0231NES        000000000000 DENSO TEN (THAILAND)                                                                                                                                             G         20210813 IMCT                IMCT                                                                                                                    WMF2108132.TXT
MAKK18104872202108D3               89828070100P3YK20210824000120SPEAKER ASM                   M IMCTM CM1    TNTH  09020IMKDC KA PTB  00004  K0                1431DES        000000000000 DENSO TEN (THAILAND)                                                                                                                                             G         20210813 IMCT                IMCT                                                                                                                    WMF2108132.TXT
MAKK18104873202108N3               89828070100P3YK20210825000120SPEAKER ASM                   M IMCTM CM1    TNTH  09020IMKDC KA PTB  00004  K0                0231NES        000000000000 DENSO TEN (THAILAND)                                                                                                                                             G         20210813 IMCT                IMCT                                                                                                                    WMF2108132.TXT
MAKK18104874202108D3               89828070100P3YK20210825000120SPEAKER ASM                   M IMCTM CM1    TNTH  09020IMKDC KA PTB  00004  K0                1431DES        000000000000 DENSO TEN (THAILAND)                                                                                                                                             G         20210813 IMCT                IMCT                                                                                                                    WMF2108132.TXT
MAKK18104875202108N3               89828070100P3YK20210826000120SPEAKER ASM                   M IMCTM CM1    TNTH  09020IMKDC KA PTB  00004  K0                0231NES        000000000000 DENSO TEN (THAILAND)                                                                                                                                             G         20210813 IMCT                IMCT                                                                                                                    WMF2108132.TXT
MAKK18104876202108D3               89828070100P3YK20210826000090SPEAKER ASM                   M IMCTM CM1    TNTH  09020IMKDC KA PTB  00004  K0                1431DES        000000000000 DENSO TEN (THAILAND)                                                                                                                                             G         20210813 IMCT                IMCT                                                                                                                    WMF2108132.TXT
MAKK18104877202108N3               89828070100P3YK20210827000120SPEAKER ASM                   M IMCTM CM1    TNTH  09020IMKDC KA PTB  00004  K0                0231NES        000000000000 DENSO TEN (THAILAND)                                                                                                                                             G         20210813 IMCT                IMCT                                                                                                                    WMF2108132.TXT
MAKK18104878202108D3               89828070100P3YK20210827000090SPEAKER ASM                   M IMCTM CM1    TNTH  09020IMKDC KA PTB  00004  K0                1431DES        000000000000 DENSO TEN (THAILAND)                                                                                                                                             G         20210813 IMCT                IMCT                                                                                                                    WMF2108132.TXT
MAKK18104879202108N3               89828070100P3YK20210828000120SPEAKER ASM                   M IMCTM CM1    TNTH  09020IMKDC KA PTB  00004  K0                0231NES        000000000000 DENSO TEN (THAILAND)                                                                                                                                             G         20210813 IMCT                IMCT                                                                                                                    WMF2108132.TXT
MAKK18104880202108D3               89828070200P3YK20210823000060SPEAKER ASM                   M IMCTM CM1    TNTH  09020IMKDC KA PTB  00005  K0                1431DES        000000000000 DENSO TEN (THAILAND)                                                                                                                                             G         20210813 IMCT                IMCT                                                                                                                    WMF2108132.TXT
MAKK18104881202108N3               89828070200P3YK20210824000030SPEAKER ASM                   M IMCTM CM1    TNTH  09020IMKDC KA PTB  00005  K0                0231NES        000000000000 DENSO TEN (THAILAND)                                                                                                                                             G         20210813 IMCT                IMCT                                                                                                                    WMF2108132.TXT
MAKK18104882202108D3               89828070200P3YK20210824000030SPEAKER ASM                   M IMCTM CM1    TNTH  09020IMKDC KA PTB  00005  K0                1431DES        000000000000 DENSO TEN (THAILAND)                                                                                                                                             G         20210813 IMCT                IMCT                                                                                                                    WMF2108132.TXT
MAKK18104883202108N3               89828070200P3YK20210825000060SPEAKER ASM                   M IMCTM CM1    TNTH  09020IMKDC KA PTB  00005  K0                0231NES        000000000000 DENSO TEN (THAILAND)                                                                                                                                             G         20210813 IMCT                IMCT                                                                                                                    WMF2108132.TXT
MAKK18104884202108D3               89828070200P3YK20210825000030SPEAKER ASM                   M IMCTM CM1    TNTH  09020IMKDC KA PTB  00005  K0                1431DES        000000000000 DENSO TEN (THAILAND)                                                                                                                                             G         20210813 IMCT                IMCT                                                                                                                    WMF2108132.TXT
MAKK18104885202108N3               89828070200P3YK20210826000060SPEAKER ASM                   M IMCTM CM1    TNTH  09020IMKDC KA PTB  00005  K0                0231NES        000000000000 DENSO TEN (THAILAND)                                                                                                                                             G         20210813 IMCT                IMCT                                                                                                                    WMF2108132.TXT
MAKK18104886202108N3               89828070200P3YK20210827000060SPEAKER ASM                   M IMCTM CM1    TNTH  09020IMKDC KA PTB  00005  K0                0231NES        000000000000 DENSO TEN (THAILAND)                                                                                                                                             G         20210813 IMCT                IMCT                                                                                                                    WMF2108132.TXT
MAKK18104887202108D3               89828070200P3YK20210827000030SPEAKER ASM                   M IMCTM CM1    TNTH  09020IMKDC KA PTB  00005  K0                1431DES        000000000000 DENSO TEN (THAILAND)                                                                                                                                             G         20210813 IMCT                IMCT                                                                                                                    WMF2108132.TXT
MAKK18104888202108N3               89828070200P3YK20210828000060SPEAKER ASM                   M IMCTM CM1    TNTH  09020IMKDC KA PTB  00005  K0                0231NES        000000000000 DENSO TEN (THAILAND)                                                                                                                                             G         20210813 IMCT                IMCT                                                                                                                    WMF2108132.TXT
MAKK18104889202108D3               89828070300P3YK20210823000060SPEAKER ASM                   M IMCTM CM1    TNTH  09020IMKDC KA PTB  00015  K0                1431DES        000000000000 DENSO TEN (THAILAND)                                                                                                                                             G         20210813 IMCT                IMCT                                                                                                                    WMF2108132.TXT
MAKK18104890202108N3               89828070300P3YK20210824000030SPEAKER ASM                   M IMCTM CM1    TNTH  09020IMKDC KA PTB  00015  K0                0231NES        000000000000 DENSO TEN (THAILAND)                                                                                                                                             G         20210813 IMCT                IMCT                                                                                                                    WMF2108132.TXT
MAKK18104891202108D3               89828070300P3YK20210824000030SPEAKER ASM                   M IMCTM CM1    TNTH  09020IMKDC KA PTB  00015  K0                1431DES        000000000000 DENSO TEN (THAILAND)                                                                                                                                             G         20210813 IMCT                IMCT                                                                                                                    WMF2108132.TXT
MAKK18104892202108N3               89828070300P3YK20210825000090SPEAKER ASM                   M IMCTM CM1    TNTH  09020IMKDC KA PTB  00015  K0                0231NES        000000000000 DENSO TEN (THAILAND)                                                                                                                                             G         20210813 IMCT                IMCT                                                                                                                    WMF2108132.TXT
MAKK18104893202108D3               89828070300P3YK20210825000030SPEAKER ASM                   M IMCTM CM1    TNTH  09020IMKDC KA PTB  00015  K0                1431DES        000000000000 DENSO TEN (THAILAND)                                                                                                                                             G         20210813 IMCT                IMCT                                                                                                                    WMF2108132.TXT
MAKK18104894202108N3               89828070300P3YK20210826000090SPEAKER ASM                   M IMCTM CM1    TNTH  09020IMKDC KA PTB  00015  K0                0231NES        000000000000 DENSO TEN (THAILAND)                                                                                                                                             G         20210813 IMCT                IMCT                                                                                                                    WMF2108132.TXT
MAKK18104895202108D3               89828070300P3YK20210826000030SPEAKER ASM                   M IMCTM CM1    TNTH  09020IMKDC KA PTB  00015  K0                1431DES        000000000000 DENSO TEN (THAILAND)                                                                                                                                             G         20210813 IMCT                IMCT                                                                                                                    WMF2108132.TXT
MAKK18104896202108N3               89828070300P3YK20210827000090SPEAKER ASM                   M IMCTM CM1    TNTH  09020IMKDC KA PTB  00015  K0                0231NES        000000000000 DENSO TEN (THAILAND)                                                                                                                                             G         20210813 IMCT                IMCT                                                                                                                    WMF2108132.TXT
MAKK18104897202108D3               89828070300P3YK20210827000030SPEAKER ASM                   M IMCTM CM1    TNTH  09020IMKDC KA PTB  00015  K0                1431DES        000000000000 DENSO TEN (THAILAND)                                                                                                                                             G         20210813 IMCT                IMCT                                                                                                                    WMF2108132.TXT
MAKK18104898202108N3               89828070300P3YK20210828000060SPEAKER ASM                   M IMCTM CM1    TNTH  09020IMKDC KA PTB  00015  K0                0231NES        000000000000 DENSO TEN (THAILAND)                                                                                                                                             G         20210813 IMCT                IMCT                                                                                                                    WMF2108132.TXT
