REC2021082620210826ISUZU                              30     
MAKK18150725202108N3               89825451200P3YK20210907000030SPEAKER ASM;ROOF              M IMCTM CM1    TNTH  09020IMKDC KA PTB  00036  K0                0231NES        000000000000 DENSO TEN (THAILAND)                                                                                                                                             G         20210826 IMCT                IMCT                                                                                                                    WMF2108263.TXT
MAKK18150726202108D3               89828070100P3YK20210906000120SPEAKER ASM                   M IMCTM CM1    TNTH  09020IMKDC KA PTB  00004  K0                1431DES        000000000000 DENSO TEN (THAILAND)                                                                                                                                             G         20210826 IMCT                IMCT                                                                                                                    WMF2108263.TXT
MAKK18150727202108N3               89828070100P3YK20210907000120SPEAKER ASM                   M IMCTM CM1    TNTH  09020IMKDC KA PTB  00004  K0                0231NES        000000000000 DENSO TEN (THAILAND)                                                                                                                                             G         20210826 IMCT                IMCT                                                                                                                    WMF2108263.TXT
MAKK18150728202108D3               89828070100P3YK20210907000090SPEAKER ASM                   M IMCTM CM1    TNTH  09020IMKDC KA PTB  00004  K0                1431DES        000000000000 DENSO TEN (THAILAND)                                                                                                                                             G         20210826 IMCT                IMCT                                                                                                                    WMF2108263.TXT
MAKK18150729202108N3               89828070100P3YK20210908000090SPEAKER ASM                   M IMCTM CM1    TNTH  09020IMKDC KA PTB  00004  K0                0231NES        000000000000 DENSO TEN (THAILAND)                                                                                                                                             G         20210826 IMCT                IMCT                                                                                                                    WMF2108263.TXT
MAKK18150730202108D3               89828070100P3YK20210908000090SPEAKER ASM                   M IMCTM CM1    TNTH  09020IMKDC KA PTB  00004  K0                1431DES        000000000000 DENSO TEN (THAILAND)                                                                                                                                             G         20210826 IMCT                IMCT                                                                                                                    WMF2108263.TXT
MAKK18150731202108N3               89828070100P3YK20210909000120SPEAKER ASM                   M IMCTM CM1    TNTH  09020IMKDC KA PTB  00004  K0                0231NES        000000000000 DENSO TEN (THAILAND)                                                                                                                                             G         20210826 IMCT                IMCT                                                                                                                    WMF2108263.TXT
MAKK18150732202108D3               89828070100P3YK20210909000090SPEAKER ASM                   M IMCTM CM1    TNTH  09020IMKDC KA PTB  00004  K0                1431DES        000000000000 DENSO TEN (THAILAND)                                                                                                                                             G         20210826 IMCT                IMCT                                                                                                                    WMF2108263.TXT
MAKK18150733202108N3               89828070100P3YK20210910000120SPEAKER ASM                   M IMCTM CM1    TNTH  09020IMKDC KA PTB  00004  K0                0231NES        000000000000 DENSO TEN (THAILAND)                                                                                                                                             G         20210826 IMCT                IMCT                                                                                                                    WMF2108263.TXT
MAKK18150734202108D3               89828070100P3YK20210910000090SPEAKER ASM                   M IMCTM CM1    TNTH  09020IMKDC KA PTB  00004  K0                1431DES        000000000000 DENSO TEN (THAILAND)                                                                                                                                             G         20210826 IMCT                IMCT                                                                                                                    WMF2108263.TXT
MAKK18150735202108N3               89828070100P3YK20210911000090SPEAKER ASM                   M IMCTM CM1    TNTH  09020IMKDC KA PTB  00004  K0                0231NES        000000000000 DENSO TEN (THAILAND)                                                                                                                                             G         20210826 IMCT                IMCT                                                                                                                    WMF2108263.TXT
MAKK18150736202108D3               89828070200P3YK20210906000060SPEAKER ASM                   M IMCTM CM1    TNTH  09020IMKDC KA PTB  00005  K0                1431DES        000000000000 DENSO TEN (THAILAND)                                                                                                                                             G         20210826 IMCT                IMCT                                                                                                                    WMF2108263.TXT
MAKK18150737202108N3               89828070200P3YK20210907000060SPEAKER ASM                   M IMCTM CM1    TNTH  09020IMKDC KA PTB  00005  K0                0231NES        000000000000 DENSO TEN (THAILAND)                                                                                                                                             G         20210826 IMCT                IMCT                                                                                                                    WMF2108263.TXT
MAKK18150738202108D3               89828070200P3YK20210907000030SPEAKER ASM                   M IMCTM CM1    TNTH  09020IMKDC KA PTB  00005  K0                1431DES        000000000000 DENSO TEN (THAILAND)                                                                                                                                             G         20210826 IMCT                IMCT                                                                                                                    WMF2108263.TXT
MAKK18150739202108N3               89828070200P3YK20210908000030SPEAKER ASM                   M IMCTM CM1    TNTH  09020IMKDC KA PTB  00005  K0                0231NES        000000000000 DENSO TEN (THAILAND)                                                                                                                                             G         20210826 IMCT                IMCT                                                                                                                    WMF2108263.TXT
MAKK18150740202108D3               89828070200P3YK20210908000090SPEAKER ASM                   M IMCTM CM1    TNTH  09020IMKDC KA PTB  00005  K0                1431DES        000000000000 DENSO TEN (THAILAND)                                                                                                                                             G         20210826 IMCT                IMCT                                                                                                                    WMF2108263.TXT
MAKK18150741202108N3               89828070200P3YK20210909000030SPEAKER ASM                   M IMCTM CM1    TNTH  09020IMKDC KA PTB  00005  K0                0231NES        000000000000 DENSO TEN (THAILAND)                                                                                                                                             G         20210826 IMCT                IMCT                                                                                                                    WMF2108263.TXT
MAKK18150742202108D3               89828070200P3YK20210909000030SPEAKER ASM                   M IMCTM CM1    TNTH  09020IMKDC KA PTB  00005  K0                1431DES        000000000000 DENSO TEN (THAILAND)                                                                                                                                             G         20210826 IMCT                IMCT                                                                                                                    WMF2108263.TXT
MAKK18150743202108D3               89828070200P3YK20210910000030SPEAKER ASM                   M IMCTM CM1    TNTH  09020IMKDC KA PTB  00005  K0                1431DES        000000000000 DENSO TEN (THAILAND)                                                                                                                                             G         20210826 IMCT                IMCT                                                                                                                    WMF2108263.TXT
MAKK18150744202108N3               89828070200P3YK20210911000090SPEAKER ASM                   M IMCTM CM1    TNTH  09020IMKDC KA PTB  00005  K0                0231NES        000000000000 DENSO TEN (THAILAND)                                                                                                                                             G         20210826 IMCT                IMCT                                                                                                                    WMF2108263.TXT
MAKK18150745202108D3               89828070300P3YK20210906000060SPEAKER ASM                   M IMCTM CM1    TNTH  09020IMKDC KA PTB  00015  K0                1431DES        000000000000 DENSO TEN (THAILAND)                                                                                                                                             G         20210826 IMCT                IMCT                                                                                                                    WMF2108263.TXT
MAKK18150746202108N3               89828070300P3YK20210907000090SPEAKER ASM                   M IMCTM CM1    TNTH  09020IMKDC KA PTB  00015  K0                0231NES        000000000000 DENSO TEN (THAILAND)                                                                                                                                             G         20210826 IMCT                IMCT                                                                                                                    WMF2108263.TXT
MAKK18150747202108D3               89828070300P3YK20210907000060SPEAKER ASM                   M IMCTM CM1    TNTH  09020IMKDC KA PTB  00015  K0                1431DES        000000000000 DENSO TEN (THAILAND)                                                                                                                                             G         20210826 IMCT                IMCT                                                                                                                    WMF2108263.TXT
MAKK18150748202108N3               89828070300P3YK20210908000060SPEAKER ASM                   M IMCTM CM1    TNTH  09020IMKDC KA PTB  00015  K0                0231NES        000000000000 DENSO TEN (THAILAND)                                                                                                                                             G         20210826 IMCT                IMCT                                                                                                                    WMF2108263.TXT
MAKK18150749202108D3               89828070300P3YK20210908000090SPEAKER ASM                   M IMCTM CM1    TNTH  09020IMKDC KA PTB  00015  K0                1431DES        000000000000 DENSO TEN (THAILAND)                                                                                                                                             G         20210826 IMCT                IMCT                                                                                                                    WMF2108263.TXT
MAKK18150750202108N3               89828070300P3YK20210909000030SPEAKER ASM                   M IMCTM CM1    TNTH  09020IMKDC KA PTB  00015  K0                0231NES        000000000000 DENSO TEN (THAILAND)                                                                                                                                             G         20210826 IMCT                IMCT                                                                                                                    WMF2108263.TXT
MAKK18150751202108D3               89828070300P3YK20210909000060SPEAKER ASM                   M IMCTM CM1    TNTH  09020IMKDC KA PTB  00015  K0                1431DES        000000000000 DENSO TEN (THAILAND)                                                                                                                                             G         20210826 IMCT                IMCT                                                                                                                    WMF2108263.TXT
MAKK18150752202108N3               89828070300P3YK20210910000060SPEAKER ASM                   M IMCTM CM1    TNTH  09020IMKDC KA PTB  00015  K0                0231NES        000000000000 DENSO TEN (THAILAND)                                                                                                                                             G         20210826 IMCT                IMCT                                                                                                                    WMF2108263.TXT
MAKK18150753202108D3               89828070300P3YK20210910000030SPEAKER ASM                   M IMCTM CM1    TNTH  09020IMKDC KA PTB  00015  K0                1431DES        000000000000 DENSO TEN (THAILAND)                                                                                                                                             G         20210826 IMCT                IMCT                                                                                                                    WMF2108263.TXT
MAKK18150754202108N3               89828070300P3YK20210911000090SPEAKER ASM                   M IMCTM CM1    TNTH  09020IMKDC KA PTB  00015  K0                0231NES        000000000000 DENSO TEN (THAILAND)                                                                                                                                             G         20210826 IMCT                IMCT                                                                                                                    WMF2108263.TXT
