REC2021081920210819ISUZU                              34     
MAKK18127800202108D3               89748082340P3YK20210831000015RADIO ASM;CENTER              M IMCTM CM1    TNTH  09020IMKDC KA PTB  00005  K0                1431DES        000000000000 DENSO TEN (THAILAND)                                                                                                                                             G         20210819 IMCT                IMCT                                                                                                                    WMF2108192.TXT
MAKK18127801202108D3               89749224120P3YK20210831000015DISPLAY UNIT;ASM              M IMCTM CM1    TNTH  09020IMKDC KA*PTB  00005  K0                1431DES        000000000000 DENSO TEN (THAILAND)                                                                                                                                             G         20210819 IMCT                IMCT                                                                                                                    WMF2108192.TXT
MAKK18127802202108D3               89753792300P3YK20210831000015HARNESS ASM;INFO              M IMCTM CM1    TNTH  09020IMKDC KA PTB  00015  K0                1431DES        000000000000 DENSO TEN (THAILAND)                                                                                                                                             G         20210819 IMCT                IMCT                                                                                                                    WMF2108192.TXT
MAKK18127803202108D3               89825451200P3YK20210901000030SPEAKER ASM;ROOF              M IMCTM CM1    TNTH  09020IMKDC KA PTB  00036  K0                1431DES        000000000000 DENSO TEN (THAILAND)                                                                                                                                             G         20210819 IMCT                IMCT                                                                                                                    WMF2108192.TXT
MAKK18127804202108D3               89828070100P3YK20210830000120SPEAKER ASM                   M IMCTM CM1    TNTH  09020IMKDC KA PTB  00004  K0                1431DES        000000000000 DENSO TEN (THAILAND)                                                                                                                                             G         20210819 IMCT                IMCT                                                                                                                    WMF2108192.TXT
MAKK18127805202108N3               89828070100P3YK20210831000090SPEAKER ASM                   M IMCTM CM1    TNTH  09020IMKDC KA PTB  00004  K0                0231NES        000000000000 DENSO TEN (THAILAND)                                                                                                                                             G         20210819 IMCT                IMCT                                                                                                                    WMF2108192.TXT
MAKK18127806202108D3               89828070100P3YK20210831000090SPEAKER ASM                   M IMCTM CM1    TNTH  09020IMKDC KA PTB  00004  K0                1431DES        000000000000 DENSO TEN (THAILAND)                                                                                                                                             G         20210819 IMCT                IMCT                                                                                                                    WMF2108192.TXT
MAKK18127807202108N3               89828070100P3YK20210901000090SPEAKER ASM                   M IMCTM CM1    TNTH  09020IMKDC KA PTB  00004  K0                0231NES        000000000000 DENSO TEN (THAILAND)                                                                                                                                             G         20210819 IMCT                IMCT                                                                                                                    WMF2108192.TXT
MAKK18127808202108D3               89828070100P3YK20210901000090SPEAKER ASM                   M IMCTM CM1    TNTH  09020IMKDC KA PTB  00004  K0                1431DES        000000000000 DENSO TEN (THAILAND)                                                                                                                                             G         20210819 IMCT                IMCT                                                                                                                    WMF2108192.TXT
MAKK18127809202108N3               89828070100P3YK20210902000150SPEAKER ASM                   M IMCTM CM1    TNTH  09020IMKDC KA PTB  00004  K0                0231NES        000000000000 DENSO TEN (THAILAND)                                                                                                                                             G         20210819 IMCT                IMCT                                                                                                                    WMF2108192.TXT
MAKK18127810202108D3               89828070100P3YK20210902000090SPEAKER ASM                   M IMCTM CM1    TNTH  09020IMKDC KA PTB  00004  K0                1431DES        000000000000 DENSO TEN (THAILAND)                                                                                                                                             G         20210819 IMCT                IMCT                                                                                                                    WMF2108192.TXT
MAKK18127811202108N3               89828070100P3YK20210903000120SPEAKER ASM                   M IMCTM CM1    TNTH  09020IMKDC KA PTB  00004  K0                0231NES        000000000000 DENSO TEN (THAILAND)                                                                                                                                             G         20210819 IMCT                IMCT                                                                                                                    WMF2108192.TXT
MAKK18127812202108D3               89828070100P3YK20210903000090SPEAKER ASM                   M IMCTM CM1    TNTH  09020IMKDC KA PTB  00004  K0                1431DES        000000000000 DENSO TEN (THAILAND)                                                                                                                                             G         20210819 IMCT                IMCT                                                                                                                    WMF2108192.TXT
MAKK18127813202108N3               89828070100P3YK20210904000090SPEAKER ASM                   M IMCTM CM1    TNTH  09020IMKDC KA PTB  00004  K0                0231NES        000000000000 DENSO TEN (THAILAND)                                                                                                                                             G         20210819 IMCT                IMCT                                                                                                                    WMF2108192.TXT
MAKK18127814202108D3               89828070200P3YK20210830000030SPEAKER ASM                   M IMCTM CM1    TNTH  09020IMKDC KA PTB  00005  K0                1431DES        000000000000 DENSO TEN (THAILAND)                                                                                                                                             G         20210819 IMCT                IMCT                                                                                                                    WMF2108192.TXT
MAKK18127815202108N3               89828070200P3YK20210831000030SPEAKER ASM                   M IMCTM CM1    TNTH  09020IMKDC KA PTB  00005  K0                0231NES        000000000000 DENSO TEN (THAILAND)                                                                                                                                             G         20210819 IMCT                IMCT                                                                                                                    WMF2108192.TXT
MAKK18127816202108D3               89828070200P3YK20210831000060SPEAKER ASM                   M IMCTM CM1    TNTH  09020IMKDC KA PTB  00005  K0                1431DES        000000000000 DENSO TEN (THAILAND)                                                                                                                                             G         20210819 IMCT                IMCT                                                                                                                    WMF2108192.TXT
MAKK18127817202108N3               89828070200P3YK20210901000030SPEAKER ASM                   M IMCTM CM1    TNTH  09020IMKDC KA PTB  00005  K0                0231NES        000000000000 DENSO TEN (THAILAND)                                                                                                                                             G         20210819 IMCT                IMCT                                                                                                                    WMF2108192.TXT
MAKK18127818202108D3               89828070200P3YK20210901000030SPEAKER ASM                   M IMCTM CM1    TNTH  09020IMKDC KA PTB  00005  K0                1431DES        000000000000 DENSO TEN (THAILAND)                                                                                                                                             G         20210819 IMCT                IMCT                                                                                                                    WMF2108192.TXT
MAKK18127819202108N3               89828070200P3YK20210902000030SPEAKER ASM                   M IMCTM CM1    TNTH  09020IMKDC KA PTB  00005  K0                0231NES        000000000000 DENSO TEN (THAILAND)                                                                                                                                             G         20210819 IMCT                IMCT                                                                                                                    WMF2108192.TXT
MAKK18127820202108N3               89828070200P3YK20210903000030SPEAKER ASM                   M IMCTM CM1    TNTH  09020IMKDC KA PTB  00005  K0                0231NES        000000000000 DENSO TEN (THAILAND)                                                                                                                                             G         20210819 IMCT                IMCT                                                                                                                    WMF2108192.TXT
MAKK18127821202108N3               89828070200P3YK20210904000060SPEAKER ASM                   M IMCTM CM1    TNTH  09020IMKDC KA PTB  00005  K0                0231NES        000000000000 DENSO TEN (THAILAND)                                                                                                                                             G         20210819 IMCT                IMCT                                                                                                                    WMF2108192.TXT
MAKK18127822202108D3               89828070300P3YK20210830000060SPEAKER ASM                   M IMCTM CM1    TNTH  09020IMKDC KA PTB  00015  K0                1431DES        000000000000 DENSO TEN (THAILAND)                                                                                                                                             G         20210819 IMCT                IMCT                                                                                                                    WMF2108192.TXT
MAKK18127823202108N3               89828070300P3YK20210831000060SPEAKER ASM                   M IMCTM CM1    TNTH  09020IMKDC KA PTB  00015  K0                0231NES        000000000000 DENSO TEN (THAILAND)                                                                                                                                             G         20210819 IMCT                IMCT                                                                                                                    WMF2108192.TXT
MAKK18127824202108D3               89828070300P3YK20210831000060SPEAKER ASM                   M IMCTM CM1    TNTH  09020IMKDC KA PTB  00015  K0                1431DES        000000000000 DENSO TEN (THAILAND)                                                                                                                                             G         20210819 IMCT                IMCT                                                                                                                    WMF2108192.TXT
MAKK18127825202108N3               89828070300P3YK20210901000030SPEAKER ASM                   M IMCTM CM1    TNTH  09020IMKDC KA PTB  00015  K0                0231NES        000000000000 DENSO TEN (THAILAND)                                                                                                                                             G         20210819 IMCT                IMCT                                                                                                                    WMF2108192.TXT
MAKK18127826202108D3               89828070300P3YK20210901000030SPEAKER ASM                   M IMCTM CM1    TNTH  09020IMKDC KA PTB  00015  K0                1431DES        000000000000 DENSO TEN (THAILAND)                                                                                                                                             G         20210819 IMCT                IMCT                                                                                                                    WMF2108192.TXT
MAKK18127827202108N3               89828070300P3YK20210902000030SPEAKER ASM                   M IMCTM CM1    TNTH  09020IMKDC KA PTB  00015  K0                0231NES        000000000000 DENSO TEN (THAILAND)                                                                                                                                             G         20210819 IMCT                IMCT                                                                                                                    WMF2108192.TXT
MAKK18127828202108D3               89828070300P3YK20210902000030SPEAKER ASM                   M IMCTM CM1    TNTH  09020IMKDC KA PTB  00015  K0                1431DES        000000000000 DENSO TEN (THAILAND)                                                                                                                                             G         20210819 IMCT                IMCT                                                                                                                    WMF2108192.TXT
MAKK18127829202108N3               89828070300P3YK20210903000030SPEAKER ASM                   M IMCTM CM1    TNTH  09020IMKDC KA PTB  00015  K0                0231NES        000000000000 DENSO TEN (THAILAND)                                                                                                                                             G         20210819 IMCT                IMCT                                                                                                                    WMF2108192.TXT
MAKK18127830202108D3               89828070300P3YK20210903000030SPEAKER ASM                   M IMCTM CM1    TNTH  09020IMKDC KA PTB  00015  K0                1431DES        000000000000 DENSO TEN (THAILAND)                                                                                                                                             G         20210819 IMCT                IMCT                                                                                                                    WMF2108192.TXT
MAKK18127831202108N3               89828070300P3YK20210904000060SPEAKER ASM                   M IMCTM CM1    TNTH  09020IMKDC KA PTB  00015  K0                0231NES        000000000000 DENSO TEN (THAILAND)                                                                                                                                             G         20210819 IMCT                IMCT                                                                                                                    WMF2108192.TXT
MAKK18127832202108D3               89839629110P3YK20210831000015RECEPTACLE ASM;I              M IMCTM CM1    TNTH  09020IMKDC KA PTB  00015  K0                1431DES        000000000000 DENSO TEN (THAILAND)                                                                                                                                             G         20210819 IMCT                IMCT                                                                                                                    WMF2108192.TXT
MAKK18127833202108D3               89839631600P3YK20210831000015HARNESS KIT;ASM,              M IMCTM CM1    TNTH  09020IMKDC KA PTB  00030  K0                1431DES        000000000000 DENSO TEN (THAILAND)                                                                                                                                             G         20210819 IMCT                IMCT                                                                                                                    WMF2108192.TXT
