REC2021080520210805ISUZU                              27     
MAKK18082092202108D3               89828070100P3YK20210816000120SPEAKER ASM                   M IMCTM CM1    TNTH  09020IMKDC KA PTB  00004  K0                1431DES        000000000000 DENSO TEN (THAILAND)                                                                                                                                             G         20210805 IMCT                IMCT                                                                                                                    WMF2108052.TXT
MAKK18082093202108N3               89828070100P3YK20210817000150SPEAKER ASM                   M IMCTM CM1    TNTH  09020IMKDC KA PTB  00004  K0                0231NES        000000000000 DENSO TEN (THAILAND)                                                                                                                                             G         20210805 IMCT                IMCT                                                                                                                    WMF2108052.TXT
MAKK18082094202108D3               89828070100P3YK20210817000090SPEAKER ASM                   M IMCTM CM1    TNTH  09020IMKDC KA PTB  00004  K0                1431DES        000000000000 DENSO TEN (THAILAND)                                                                                                                                             G         20210805 IMCT                IMCT                                                                                                                    WMF2108052.TXT
MAKK18082095202108N3               89828070100P3YK20210818000120SPEAKER ASM                   M IMCTM CM1    TNTH  09020IMKDC KA PTB  00004  K0                0231NES        000000000000 DENSO TEN (THAILAND)                                                                                                                                             G         20210805 IMCT                IMCT                                                                                                                    WMF2108052.TXT
MAKK18082096202108D3               89828070100P3YK20210818000090SPEAKER ASM                   M IMCTM CM1    TNTH  09020IMKDC KA PTB  00004  K0                1431DES        000000000000 DENSO TEN (THAILAND)                                                                                                                                             G         20210805 IMCT                IMCT                                                                                                                    WMF2108052.TXT
MAKK18082097202108N3               89828070100P3YK20210819000120SPEAKER ASM                   M IMCTM CM1    TNTH  09020IMKDC KA PTB  00004  K0                0231NES        000000000000 DENSO TEN (THAILAND)                                                                                                                                             G         20210805 IMCT                IMCT                                                                                                                    WMF2108052.TXT
MAKK18082098202108D3               89828070100P3YK20210819000090SPEAKER ASM                   M IMCTM CM1    TNTH  09020IMKDC KA PTB  00004  K0                1431DES        000000000000 DENSO TEN (THAILAND)                                                                                                                                             G         20210805 IMCT                IMCT                                                                                                                    WMF2108052.TXT
MAKK18082099202108N3               89828070100P3YK20210820000090SPEAKER ASM                   M IMCTM CM1    TNTH  09020IMKDC KA PTB  00004  K0                0231NES        000000000000 DENSO TEN (THAILAND)                                                                                                                                             G         20210805 IMCT                IMCT                                                                                                                    WMF2108052.TXT
MAKK18082100202108D3               89828070100P3YK20210820000150SPEAKER ASM                   M IMCTM CM1    TNTH  09020IMKDC KA PTB  00004  K0                1431DES        000000000000 DENSO TEN (THAILAND)                                                                                                                                             G         20210805 IMCT                IMCT                                                                                                                    WMF2108052.TXT
MAKK18082101202108N3               89828070100P3YK20210821000120SPEAKER ASM                   M IMCTM CM1    TNTH  09020IMKDC KA PTB  00004  K0                0231NES        000000000000 DENSO TEN (THAILAND)                                                                                                                                             G         20210805 IMCT                IMCT                                                                                                                    WMF2108052.TXT
MAKK18082102202108D3               89828070200P3YK20210816000030SPEAKER ASM                   M IMCTM CM1    TNTH  09020IMKDC KA PTB  00005  K0                1431DES        000000000000 DENSO TEN (THAILAND)                                                                                                                                             G         20210805 IMCT                IMCT                                                                                                                    WMF2108052.TXT
MAKK18082103202108N3               89828070200P3YK20210817000060SPEAKER ASM                   M IMCTM CM1    TNTH  09020IMKDC KA PTB  00005  K0                0231NES        000000000000 DENSO TEN (THAILAND)                                                                                                                                             G         20210805 IMCT                IMCT                                                                                                                    WMF2108052.TXT
MAKK18082104202108D3               89828070200P3YK20210817000030SPEAKER ASM                   M IMCTM CM1    TNTH  09020IMKDC KA PTB  00005  K0                1431DES        000000000000 DENSO TEN (THAILAND)                                                                                                                                             G         20210805 IMCT                IMCT                                                                                                                    WMF2108052.TXT
MAKK18082105202108N3               89828070200P3YK20210818000030SPEAKER ASM                   M IMCTM CM1    TNTH  09020IMKDC KA PTB  00005  K0                0231NES        000000000000 DENSO TEN (THAILAND)                                                                                                                                             G         20210805 IMCT                IMCT                                                                                                                    WMF2108052.TXT
MAKK18082106202108D3               89828070200P3YK20210818000030SPEAKER ASM                   M IMCTM CM1    TNTH  09020IMKDC KA PTB  00005  K0                1431DES        000000000000 DENSO TEN (THAILAND)                                                                                                                                             G         20210805 IMCT                IMCT                                                                                                                    WMF2108052.TXT
MAKK18082107202108D3               89828070200P3YK20210819000030SPEAKER ASM                   M IMCTM CM1    TNTH  09020IMKDC KA PTB  00005  K0                1431DES        000000000000 DENSO TEN (THAILAND)                                                                                                                                             G         20210805 IMCT                IMCT                                                                                                                    WMF2108052.TXT
MAKK18082108202108N3               89828070200P3YK20210820000030SPEAKER ASM                   M IMCTM CM1    TNTH  09020IMKDC KA PTB  00005  K0                0231NES        000000000000 DENSO TEN (THAILAND)                                                                                                                                             G         20210805 IMCT                IMCT                                                                                                                    WMF2108052.TXT
MAKK18082109202108D3               89828070200P3YK20210820000060SPEAKER ASM                   M IMCTM CM1    TNTH  09020IMKDC KA PTB  00005  K0                1431DES        000000000000 DENSO TEN (THAILAND)                                                                                                                                             G         20210805 IMCT                IMCT                                                                                                                    WMF2108052.TXT
MAKK18082110202108D3               89828070300P3YK20210816000030SPEAKER ASM                   M IMCTM CM1    TNTH  09020IMKDC KA PTB  00015  K0                1431DES        000000000000 DENSO TEN (THAILAND)                                                                                                                                             G         20210805 IMCT                IMCT                                                                                                                    WMF2108052.TXT
MAKK18082111202108N3               89828070300P3YK20210817000060SPEAKER ASM                   M IMCTM CM1    TNTH  09020IMKDC KA PTB  00015  K0                0231NES        000000000000 DENSO TEN (THAILAND)                                                                                                                                             G         20210805 IMCT                IMCT                                                                                                                    WMF2108052.TXT
MAKK18082112202108D3               89828070300P3YK20210817000030SPEAKER ASM                   M IMCTM CM1    TNTH  09020IMKDC KA PTB  00015  K0                1431DES        000000000000 DENSO TEN (THAILAND)                                                                                                                                             G         20210805 IMCT                IMCT                                                                                                                    WMF2108052.TXT
MAKK18082113202108N3               89828070300P3YK20210818000030SPEAKER ASM                   M IMCTM CM1    TNTH  09020IMKDC KA PTB  00015  K0                0231NES        000000000000 DENSO TEN (THAILAND)                                                                                                                                             G         20210805 IMCT                IMCT                                                                                                                    WMF2108052.TXT
MAKK18082114202108D3               89828070300P3YK20210818000060SPEAKER ASM                   M IMCTM CM1    TNTH  09020IMKDC KA PTB  00015  K0                1431DES        000000000000 DENSO TEN (THAILAND)                                                                                                                                             G         20210805 IMCT                IMCT                                                                                                                    WMF2108052.TXT
MAKK18082115202108N3               89828070300P3YK20210819000030SPEAKER ASM                   M IMCTM CM1    TNTH  09020IMKDC KA PTB  00015  K0                0231NES        000000000000 DENSO TEN (THAILAND)                                                                                                                                             G         20210805 IMCT                IMCT                                                                                                                    WMF2108052.TXT
MAKK18082116202108D3               89828070300P3YK20210819000030SPEAKER ASM                   M IMCTM CM1    TNTH  09020IMKDC KA PTB  00015  K0                1431DES        000000000000 DENSO TEN (THAILAND)                                                                                                                                             G         20210805 IMCT                IMCT                                                                                                                    WMF2108052.TXT
MAKK18082117202108N3               89828070300P3YK20210820000030SPEAKER ASM                   M IMCTM CM1    TNTH  09020IMKDC KA PTB  00015  K0                0231NES        000000000000 DENSO TEN (THAILAND)                                                                                                                                             G         20210805 IMCT                IMCT                                                                                                                    WMF2108052.TXT
MAKK18082118202108D3               89828070300P3YK20210820000060SPEAKER ASM                   M IMCTM CM1    TNTH  09020IMKDC KA PTB  00015  K0                1431DES        000000000000 DENSO TEN (THAILAND)                                                                                                                                             G         20210805 IMCT                IMCT                                                                                                                    WMF2108052.TXT
