REC2021092320210923ISUZU                              32     
MAKK19109905202109N3               89748082350P3YK20211005000045RADIO ASM;CENTER              M IMCTM CM1    TNTH  09020IMKDC KA PTB  00005  K0                0231NES        000000000000 DENSO TEN (THAILAND)                                                                                                                                             G         20210923 IMCT                IMCT                                                                                                                    WMF2109235.TXT
MAKK19109906202109N3               89749224010P3YK20211005000015DISPLAY UNIT;ASM              M IMCTM CM1    TNTH  09020IMKDC KA PTB  00005  K0                0231NES        000000000000 DENSO TEN (THAILAND)                                                                                                                                             G         20210923 IMCT                IMCT                                                                                                                    WMF2109235.TXT
MAKK19109907202109N3               89753792300P3YK20211005000045HARNESS ASM;INFO              M IMCTM CM1    TNTH  09020IMKDC KA PTB  00015  K0                0231NES        000000000000 DENSO TEN (THAILAND)                                                                                                                                             G         20210923 IMCT                IMCT                                                                                                                    WMF2109235.TXT
MAKK19109908202109N3               89767048400P3YK20211005000030DISPLAY UNIT;ASM              M IMCTM CM1    TNTH  09020IMKDC KA PTB  00005  K0                0231NES        000000000000 DENSO TEN (THAILAND)                                                                                                                                             G         20210923 IMCT                IMCT                                                                                                                    WMF2109235.TXT
MAKK19109909202109D3               89828070100P3YK20211004000090SPEAKER ASM                   M IMCTM CM1    TNTH  09020IMKDC KA PTB  00004  K0                1431DES        000000000000 DENSO TEN (THAILAND)                                                                                                                                             G         20210923 IMCT                IMCT                                                                                                                    WMF2109235.TXT
MAKK19109910202109N3               89828070100P3YK20211005000030SPEAKER ASM                   M IMCTM CM1    TNTH  09020IMKDC KA PTB  00004  K0                0231NES        000000000000 DENSO TEN (THAILAND)                                                                                                                                             G         20210923 IMCT                IMCT                                                                                                                    WMF2109235.TXT
MAKK19109911202109D3               89828070100P3YK20211005000060SPEAKER ASM                   M IMCTM CM1    TNTH  09020IMKDC KA PTB  00004  K0                1431DES        000000000000 DENSO TEN (THAILAND)                                                                                                                                             G         20210923 IMCT                IMCT                                                                                                                    WMF2109235.TXT
MAKK19109912202109N3               89828070100P3YK20211006000060SPEAKER ASM                   M IMCTM CM1    TNTH  09020IMKDC KA PTB  00004  K0                0231NES        000000000000 DENSO TEN (THAILAND)                                                                                                                                             G         20210923 IMCT                IMCT                                                                                                                    WMF2109235.TXT
MAKK19109913202109D3               89828070100P3YK20211006000090SPEAKER ASM                   M IMCTM CM1    TNTH  09020IMKDC KA PTB  00004  K0                1431DES        000000000000 DENSO TEN (THAILAND)                                                                                                                                             G         20210923 IMCT                IMCT                                                                                                                    WMF2109235.TXT
MAKK19109914202109N3               89828070100P3YK20211007000060SPEAKER ASM                   M IMCTM CM1    TNTH  09020IMKDC KA PTB  00004  K0                0231NES        000000000000 DENSO TEN (THAILAND)                                                                                                                                             G         20210923 IMCT                IMCT                                                                                                                    WMF2109235.TXT
MAKK19109915202109D3               89828070100P3YK20211007000060SPEAKER ASM                   M IMCTM CM1    TNTH  09020IMKDC KA PTB  00004  K0                1431DES        000000000000 DENSO TEN (THAILAND)                                                                                                                                             G         20210923 IMCT                IMCT                                                                                                                    WMF2109235.TXT
MAKK19109916202109N3               89828070100P3YK20211008000060SPEAKER ASM                   M IMCTM CM1    TNTH  09020IMKDC KA PTB  00004  K0                0231NES        000000000000 DENSO TEN (THAILAND)                                                                                                                                             G         20210923 IMCT                IMCT                                                                                                                    WMF2109235.TXT
MAKK19109917202109D3               89828070100P3YK20211008000060SPEAKER ASM                   M IMCTM CM1    TNTH  09020IMKDC KA PTB  00004  K0                1431DES        000000000000 DENSO TEN (THAILAND)                                                                                                                                             G         20210923 IMCT                IMCT                                                                                                                    WMF2109235.TXT
MAKK19109918202109N3               89828070100P3YK20211009000090SPEAKER ASM                   M IMCTM CM1    TNTH  09020IMKDC KA PTB  00004  K0                0231NES        000000000000 DENSO TEN (THAILAND)                                                                                                                                             G         20210923 IMCT                IMCT                                                                                                                    WMF2109235.TXT
MAKK19109919202109D3               89828070200P3YK20211004000030SPEAKER ASM                   M IMCTM CM1    TNTH  09020IMKDC KA PTB  00005  K0                1431DES        000000000000 DENSO TEN (THAILAND)                                                                                                                                             G         20210923 IMCT                IMCT                                                                                                                    WMF2109235.TXT
MAKK19109920202109D3               89828070200P3YK20211006000030SPEAKER ASM                   M IMCTM CM1    TNTH  09020IMKDC KA PTB  00005  K0                1431DES        000000000000 DENSO TEN (THAILAND)                                                                                                                                             G         20210923 IMCT                IMCT                                                                                                                    WMF2109235.TXT
MAKK19109921202109N3               89828070200P3YK20211007000030SPEAKER ASM                   M IMCTM CM1    TNTH  09020IMKDC KA PTB  00005  K0                0231NES        000000000000 DENSO TEN (THAILAND)                                                                                                                                             G         20210923 IMCT                IMCT                                                                                                                    WMF2109235.TXT
MAKK19109922202109N3               89828070200P3YK20211008000030SPEAKER ASM                   M IMCTM CM1    TNTH  09020IMKDC KA PTB  00005  K0                0231NES        000000000000 DENSO TEN (THAILAND)                                                                                                                                             G         20210923 IMCT                IMCT                                                                                                                    WMF2109235.TXT
MAKK19109923202109N3               89828070200P3YK20211009000030SPEAKER ASM                   M IMCTM CM1    TNTH  09020IMKDC KA PTB  00005  K0                0231NES        000000000000 DENSO TEN (THAILAND)                                                                                                                                             G         20210923 IMCT                IMCT                                                                                                                    WMF2109235.TXT
MAKK19109924202109D3               89828070300P3YK20211004000030SPEAKER ASM                   M IMCTM CM1    TNTH  09020IMKDC KA PTB  00015  K0                1431DES        000000000000 DENSO TEN (THAILAND)                                                                                                                                             G         20210923 IMCT                IMCT                                                                                                                    WMF2109235.TXT
MAKK19109925202109N3               89828070300P3YK20211006000030SPEAKER ASM                   M IMCTM CM1    TNTH  09020IMKDC KA PTB  00015  K0                0231NES        000000000000 DENSO TEN (THAILAND)                                                                                                                                             G         20210923 IMCT                IMCT                                                                                                                    WMF2109235.TXT
MAKK19109926202109D3               89828070300P3YK20211006000030SPEAKER ASM                   M IMCTM CM1    TNTH  09020IMKDC KA PTB  00015  K0                1431DES        000000000000 DENSO TEN (THAILAND)                                                                                                                                             G         20210923 IMCT                IMCT                                                                                                                    WMF2109235.TXT
MAKK19109927202109N3               89828070300P3YK20211007000060SPEAKER ASM                   M IMCTM CM1    TNTH  09020IMKDC KA PTB  00015  K0                0231NES        000000000000 DENSO TEN (THAILAND)                                                                                                                                             G         20210923 IMCT                IMCT                                                                                                                    WMF2109235.TXT
MAKK19109928202109N3               89828070300P3YK20211008000030SPEAKER ASM                   M IMCTM CM1    TNTH  09020IMKDC KA PTB  00015  K0                0231NES        000000000000 DENSO TEN (THAILAND)                                                                                                                                             G         20210923 IMCT                IMCT                                                                                                                    WMF2109235.TXT
MAKK19109929202109N3               89828070300P3YK20211009000060SPEAKER ASM                   M IMCTM CM1    TNTH  09020IMKDC KA PTB  00015  K0                0231NES        000000000000 DENSO TEN (THAILAND)                                                                                                                                             G         20210923 IMCT                IMCT                                                                                                                    WMF2109235.TXT
MAKK19109930202109N3               89839629110P3YK20211005000045RECEPTACLE ASM;I              M IMCTM CM1    TNTH  09020IMKDC KA PTB  00015  K0                0231NES        000000000000 DENSO TEN (THAILAND)                                                                                                                                             G         20210923 IMCT                IMCT                                                                                                                    WMF2109235.TXT
MAKK19109931202109N3               89839631600P3YK20211005000045HARNESS KIT;ASM,              M IMCTM CM1    TNTH  09020IMKDC KA PTB  00030  K0                0231NES        000000000000 DENSO TEN (THAILAND)                                                                                                                                             G         20210923 IMCT                IMCT                                                                                                                    WMF2109235.TXT
MAKK19116503202109D3               89828070100P3YK20211004000030SPEAKER ASM                   M IMCTM PK3    TNTH  09020IMKDC KA PTB  00004  K0                1431DES        000000000000 DENSO TEN (THAILAND)                                                                                                                                             G         20210923 IMCT                IMCT                                                                                                                    WMF2109235.TXT
MAKK19116504202109D3               89828070100P3YK20211007000030SPEAKER ASM                   M IMCTM PK3    TNTH  09020IMKDC KA PTB  00004  K0                1431DES        000000000000 DENSO TEN (THAILAND)                                                                                                                                             G         20210923 IMCT                IMCT                                                                                                                    WMF2109235.TXT
MAKK19116505202109D3               89828070200P3YK20211004000030SPEAKER ASM                   M IMCTM PK3    TNTH  09020IMKDC KA PTB  00005  K0                1431DES        000000000000 DENSO TEN (THAILAND)                                                                                                                                             G         20210923 IMCT                IMCT                                                                                                                    WMF2109235.TXT
MAKK19116506202109D3               89828070200P3YK20211007000030SPEAKER ASM                   M IMCTM PK3    TNTH  09020IMKDC KA PTB  00005  K0                1431DES        000000000000 DENSO TEN (THAILAND)                                                                                                                                             G         20210923 IMCT                IMCT                                                                                                                    WMF2109235.TXT
MAKK19116507202109D3               89828070300P3YK20211007000030SPEAKER ASM                   M IMCTM PK3    TNTH  09020IMKDC KA PTB  00015  K0                1431DES        000000000000 DENSO TEN (THAILAND)                                                                                                                                             G         20210923 IMCT                IMCT                                                                                                                    WMF2109235.TXT
