REC2021091720210917ISUZU                              36     
MAKK19086751202109D3               89825451200P3YK20210928000030SPEAKER ASM;ROOF              M IMCTM CM1    TNTH  09020IMKDC KA PTB  00036  K0                1431DES        000000000000 DENSO TEN (THAILAND)                                                                                                                                             G         20210917 IMCT                IMCT                                                                                                                    WMF2109173.TXT
MAKK19086752202109D3               89825451200P3YK20210930000030SPEAKER ASM;ROOF              M IMCTM CM1    TNTH  09020IMKDC KA PTB  00036  K0                1431DES        000000000000 DENSO TEN (THAILAND)                                                                                                                                             G         20210917 IMCT                IMCT                                                                                                                    WMF2109173.TXT
MAKK19086753202109N3               89825451200P3YK20211001000060SPEAKER ASM;ROOF              M IMCTM CM1    TNTH  09020IMKDC KA PTB  00036  K0                0231NES        000000000000 DENSO TEN (THAILAND)                                                                                                                                             G         20210917 IMCT                IMCT                                                                                                                    WMF2109173.TXT
MAKK19086754202109D3               89825451200P3YK20211001000060SPEAKER ASM;ROOF              M IMCTM CM1    TNTH  09020IMKDC KA PTB  00036  K0                1431DES        000000000000 DENSO TEN (THAILAND)                                                                                                                                             G         20210917 IMCT                IMCT                                                                                                                    WMF2109173.TXT
MAKK19086755202109D3               89828070100P3YK20210927000090SPEAKER ASM                   M IMCTM CM1    TNTH  09020IMKDC KA PTB  00004  K0                1431DES        000000000000 DENSO TEN (THAILAND)                                                                                                                                             G         20210917 IMCT                IMCT                                                                                                                    WMF2109173.TXT
MAKK19086756202109N3               89828070100P3YK20210928000120SPEAKER ASM                   M IMCTM CM1    TNTH  09020IMKDC KA PTB  00004  K0                0231NES        000000000000 DENSO TEN (THAILAND)                                                                                                                                             G         20210917 IMCT                IMCT                                                                                                                    WMF2109173.TXT
MAKK19086757202109D3               89828070100P3YK20210928000090SPEAKER ASM                   M IMCTM CM1    TNTH  09020IMKDC KA PTB  00004  K0                1431DES        000000000000 DENSO TEN (THAILAND)                                                                                                                                             G         20210917 IMCT                IMCT                                                                                                                    WMF2109173.TXT
MAKK19086758202109N3               89828070100P3YK20210929000090SPEAKER ASM                   M IMCTM CM1    TNTH  09020IMKDC KA PTB  00004  K0                0231NES        000000000000 DENSO TEN (THAILAND)                                                                                                                                             G         20210917 IMCT                IMCT                                                                                                                    WMF2109173.TXT
MAKK19086759202109D3               89828070100P3YK20210929000090SPEAKER ASM                   M IMCTM CM1    TNTH  09020IMKDC KA PTB  00004  K0                1431DES        000000000000 DENSO TEN (THAILAND)                                                                                                                                             G         20210917 IMCT                IMCT                                                                                                                    WMF2109173.TXT
MAKK19086760202109N3               89828070100P3YK20210930000060SPEAKER ASM                   M IMCTM CM1    TNTH  09020IMKDC KA PTB  00004  K0                0231NES        000000000000 DENSO TEN (THAILAND)                                                                                                                                             G         20210917 IMCT                IMCT                                                                                                                    WMF2109173.TXT
MAKK19086761202109D3               89828070100P3YK20210930000120SPEAKER ASM                   M IMCTM CM1    TNTH  09020IMKDC KA PTB  00004  K0                1431DES        000000000000 DENSO TEN (THAILAND)                                                                                                                                             G         20210917 IMCT                IMCT                                                                                                                    WMF2109173.TXT
MAKK19086762202109N3               89828070100P3YK20211001000090SPEAKER ASM                   M IMCTM CM1    TNTH  09020IMKDC KA PTB  00004  K0                0231NES        000000000000 DENSO TEN (THAILAND)                                                                                                                                             G         20210917 IMCT                IMCT                                                                                                                    WMF2109173.TXT
MAKK19086763202109D3               89828070100P3YK20211001000060SPEAKER ASM                   M IMCTM CM1    TNTH  09020IMKDC KA PTB  00004  K0                1431DES        000000000000 DENSO TEN (THAILAND)                                                                                                                                             G         20210917 IMCT                IMCT                                                                                                                    WMF2109173.TXT
MAKK19086764202109N3               89828070100P3YK20211002000060SPEAKER ASM                   M IMCTM CM1    TNTH  09020IMKDC KA PTB  00004  K0                0231NES        000000000000 DENSO TEN (THAILAND)                                                                                                                                             G         20210917 IMCT                IMCT                                                                                                                    WMF2109173.TXT
MAKK19086765202109D3               89828070200P3YK20210927000030SPEAKER ASM                   M IMCTM CM1    TNTH  09020IMKDC KA PTB  00005  K0                1431DES        000000000000 DENSO TEN (THAILAND)                                                                                                                                             G         20210917 IMCT                IMCT                                                                                                                    WMF2109173.TXT
MAKK19086766202109N3               89828070200P3YK20210928000030SPEAKER ASM                   M IMCTM CM1    TNTH  09020IMKDC KA PTB  00005  K0                0231NES        000000000000 DENSO TEN (THAILAND)                                                                                                                                             G         20210917 IMCT                IMCT                                                                                                                    WMF2109173.TXT
MAKK19086767202109D3               89828070200P3YK20210928000030SPEAKER ASM                   M IMCTM CM1    TNTH  09020IMKDC KA PTB  00005  K0                1431DES        000000000000 DENSO TEN (THAILAND)                                                                                                                                             G         20210917 IMCT                IMCT                                                                                                                    WMF2109173.TXT
MAKK19086768202109D3               89828070200P3YK20210929000060SPEAKER ASM                   M IMCTM CM1    TNTH  09020IMKDC KA PTB  00005  K0                1431DES        000000000000 DENSO TEN (THAILAND)                                                                                                                                             G         20210917 IMCT                IMCT                                                                                                                    WMF2109173.TXT
MAKK19086769202109N3               89828070200P3YK20210930000030SPEAKER ASM                   M IMCTM CM1    TNTH  09020IMKDC KA PTB  00005  K0                0231NES        000000000000 DENSO TEN (THAILAND)                                                                                                                                             G         20210917 IMCT                IMCT                                                                                                                    WMF2109173.TXT
MAKK19086770202109D3               89828070200P3YK20210930000030SPEAKER ASM                   M IMCTM CM1    TNTH  09020IMKDC KA PTB  00005  K0                1431DES        000000000000 DENSO TEN (THAILAND)                                                                                                                                             G         20210917 IMCT                IMCT                                                                                                                    WMF2109173.TXT
MAKK19086771202109N3               89828070200P3YK20211001000090SPEAKER ASM                   M IMCTM CM1    TNTH  09020IMKDC KA PTB  00005  K0                0231NES        000000000000 DENSO TEN (THAILAND)                                                                                                                                             G         20210917 IMCT                IMCT                                                                                                                    WMF2109173.TXT
MAKK19086772202109D3               89828070200P3YK20211001000060SPEAKER ASM                   M IMCTM CM1    TNTH  09020IMKDC KA PTB  00005  K0                1431DES        000000000000 DENSO TEN (THAILAND)                                                                                                                                             G         20210917 IMCT                IMCT                                                                                                                    WMF2109173.TXT
MAKK19086773202109N3               89828070200P3YK20211002000030SPEAKER ASM                   M IMCTM CM1    TNTH  09020IMKDC KA PTB  00005  K0                0231NES        000000000000 DENSO TEN (THAILAND)                                                                                                                                             G         20210917 IMCT                IMCT                                                                                                                    WMF2109173.TXT
MAKK19086774202109D3               89828070300P3YK20210927000030SPEAKER ASM                   M IMCTM CM1    TNTH  09020IMKDC KA PTB  00015  K0                1431DES        000000000000 DENSO TEN (THAILAND)                                                                                                                                             G         20210917 IMCT                IMCT                                                                                                                    WMF2109173.TXT
MAKK19086775202109N3               89828070300P3YK20210928000030SPEAKER ASM                   M IMCTM CM1    TNTH  09020IMKDC KA PTB  00015  K0                0231NES        000000000000 DENSO TEN (THAILAND)                                                                                                                                             G         20210917 IMCT                IMCT                                                                                                                    WMF2109173.TXT
MAKK19086776202109D3               89828070300P3YK20210928000030SPEAKER ASM                   M IMCTM CM1    TNTH  09020IMKDC KA PTB  00015  K0                1431DES        000000000000 DENSO TEN (THAILAND)                                                                                                                                             G         20210917 IMCT                IMCT                                                                                                                    WMF2109173.TXT
MAKK19086777202109N3               89828070300P3YK20210929000030SPEAKER ASM                   M IMCTM CM1    TNTH  09020IMKDC KA PTB  00015  K0                0231NES        000000000000 DENSO TEN (THAILAND)                                                                                                                                             G         20210917 IMCT                IMCT                                                                                                                    WMF2109173.TXT
MAKK19086778202109D3               89828070300P3YK20210929000060SPEAKER ASM                   M IMCTM CM1    TNTH  09020IMKDC KA PTB  00015  K0                1431DES        000000000000 DENSO TEN (THAILAND)                                                                                                                                             G         20210917 IMCT                IMCT                                                                                                                    WMF2109173.TXT
MAKK19086779202109N3               89828070300P3YK20210930000030SPEAKER ASM                   M IMCTM CM1    TNTH  09020IMKDC KA PTB  00015  K0                0231NES        000000000000 DENSO TEN (THAILAND)                                                                                                                                             G         20210917 IMCT                IMCT                                                                                                                    WMF2109173.TXT
MAKK19086780202109D3               89828070300P3YK20210930000060SPEAKER ASM                   M IMCTM CM1    TNTH  09020IMKDC KA PTB  00015  K0                1431DES        000000000000 DENSO TEN (THAILAND)                                                                                                                                             G         20210917 IMCT                IMCT                                                                                                                    WMF2109173.TXT
MAKK19086781202109N3               89828070300P3YK20211001000090SPEAKER ASM                   M IMCTM CM1    TNTH  09020IMKDC KA PTB  00015  K0                0231NES        000000000000 DENSO TEN (THAILAND)                                                                                                                                             G         20210917 IMCT                IMCT                                                                                                                    WMF2109173.TXT
MAKK19086782202109D3               89828070300P3YK20211001000090SPEAKER ASM                   M IMCTM CM1    TNTH  09020IMKDC KA PTB  00015  K0                1431DES        000000000000 DENSO TEN (THAILAND)                                                                                                                                             G         20210917 IMCT                IMCT                                                                                                                    WMF2109173.TXT
MAKK19086783202109N3               89828070300P3YK20211002000030SPEAKER ASM                   M IMCTM CM1    TNTH  09020IMKDC KA PTB  00015  K0                0231NES        000000000000 DENSO TEN (THAILAND)                                                                                                                                             G         20210917 IMCT                IMCT                                                                                                                    WMF2109173.TXT
MAKK19093173202109D3               89828070100P3YK20210929000030SPEAKER ASM                   M IMCTM PK3    TNTH  09020IMKDC KA PTB  00004  K0                1431DES        000000000000 DENSO TEN (THAILAND)                                                                                                                                             G         20210917 IMCT                IMCT                                                                                                                    WMF2109173.TXT
MAKK19093174202109D3               89828070200P3YK20210929000030SPEAKER ASM                   M IMCTM PK3    TNTH  09020IMKDC KA PTB  00005  K0                1431DES        000000000000 DENSO TEN (THAILAND)                                                                                                                                             G         20210917 IMCT                IMCT                                                                                                                    WMF2109173.TXT
MAKK19093175202109D3               89828070300P3YK20210929000030SPEAKER ASM                   M IMCTM PK3    TNTH  09020IMKDC KA PTB  00015  K0                1431DES        000000000000 DENSO TEN (THAILAND)                                                                                                                                             G         20210917 IMCT                IMCT                                                                                                                    WMF2109173.TXT
