REC2021090220210902ISUZU                              31     
MAKK18173131202109N3               89825451200P3YK20210915000030SPEAKER ASM;ROOF              M IMCTM CM1    TNTH  09020IMKDC KA PTB  00036  K0                0231NES        000000000000 DENSO TEN (THAILAND)                                                                                                                                             G         20210902 IMCT                IMCT                                                                                                                    WMF2109026.TXT
MAKK18173132202109D3               89828070100P3YK20210913000090SPEAKER ASM                   M IMCTM CM1    TNTH  09020IMKDC KA PTB  00004  K0                1431DES        000000000000 DENSO TEN (THAILAND)                                                                                                                                             G         20210902 IMCT                IMCT                                                                                                                    WMF2109026.TXT
MAKK18173133202109N3               89828070100P3YK20210914000120SPEAKER ASM                   M IMCTM CM1    TNTH  09020IMKDC KA PTB  00004  K0                0231NES        000000000000 DENSO TEN (THAILAND)                                                                                                                                             G         20210902 IMCT                IMCT                                                                                                                    WMF2109026.TXT
MAKK18173134202109D3               89828070100P3YK20210914000060SPEAKER ASM                   M IMCTM CM1    TNTH  09020IMKDC KA PTB  00004  K0                1431DES        000000000000 DENSO TEN (THAILAND)                                                                                                                                             G         20210902 IMCT                IMCT                                                                                                                    WMF2109026.TXT
MAKK18173135202109N3               89828070100P3YK20210915000090SPEAKER ASM                   M IMCTM CM1    TNTH  09020IMKDC KA PTB  00004  K0                0231NES        000000000000 DENSO TEN (THAILAND)                                                                                                                                             G         20210902 IMCT                IMCT                                                                                                                    WMF2109026.TXT
MAKK18173136202109D3               89828070100P3YK20210915000060SPEAKER ASM                   M IMCTM CM1    TNTH  09020IMKDC KA PTB  00004  K0                1431DES        000000000000 DENSO TEN (THAILAND)                                                                                                                                             G         20210902 IMCT                IMCT                                                                                                                    WMF2109026.TXT
MAKK18173137202109N3               89828070100P3YK20210916000090SPEAKER ASM                   M IMCTM CM1    TNTH  09020IMKDC KA PTB  00004  K0                0231NES        000000000000 DENSO TEN (THAILAND)                                                                                                                                             G         20210902 IMCT                IMCT                                                                                                                    WMF2109026.TXT
MAKK18173138202109D3               89828070100P3YK20210916000090SPEAKER ASM                   M IMCTM CM1    TNTH  09020IMKDC KA PTB  00004  K0                1431DES        000000000000 DENSO TEN (THAILAND)                                                                                                                                             G         20210902 IMCT                IMCT                                                                                                                    WMF2109026.TXT
MAKK18173139202109N3               89828070100P3YK20210917000090SPEAKER ASM                   M IMCTM CM1    TNTH  09020IMKDC KA PTB  00004  K0                0231NES        000000000000 DENSO TEN (THAILAND)                                                                                                                                             G         20210902 IMCT                IMCT                                                                                                                    WMF2109026.TXT
MAKK18173140202109D3               89828070100P3YK20210917000090SPEAKER ASM                   M IMCTM CM1    TNTH  09020IMKDC KA PTB  00004  K0                1431DES        000000000000 DENSO TEN (THAILAND)                                                                                                                                             G         20210902 IMCT                IMCT                                                                                                                    WMF2109026.TXT
MAKK18173141202109N3               89828070100P3YK20210918000120SPEAKER ASM                   M IMCTM CM1    TNTH  09020IMKDC KA PTB  00004  K0                0231NES        000000000000 DENSO TEN (THAILAND)                                                                                                                                             G         20210902 IMCT                IMCT                                                                                                                    WMF2109026.TXT
MAKK18173142202109D3               89828070200P3YK20210913000030SPEAKER ASM                   M IMCTM CM1    TNTH  09020IMKDC KA PTB  00005  K0                1431DES        000000000000 DENSO TEN (THAILAND)                                                                                                                                             G         20210902 IMCT                IMCT                                                                                                                    WMF2109026.TXT
MAKK18173143202109N3               89828070200P3YK20210914000060SPEAKER ASM                   M IMCTM CM1    TNTH  09020IMKDC KA PTB  00005  K0                0231NES        000000000000 DENSO TEN (THAILAND)                                                                                                                                             G         20210902 IMCT                IMCT                                                                                                                    WMF2109026.TXT
MAKK18173144202109D3               89828070200P3YK20210914000060SPEAKER ASM                   M IMCTM CM1    TNTH  09020IMKDC KA PTB  00005  K0                1431DES        000000000000 DENSO TEN (THAILAND)                                                                                                                                             G         20210902 IMCT                IMCT                                                                                                                    WMF2109026.TXT
MAKK18173145202109N3               89828070200P3YK20210915000060SPEAKER ASM                   M IMCTM CM1    TNTH  09020IMKDC KA PTB  00005  K0                0231NES        000000000000 DENSO TEN (THAILAND)                                                                                                                                             G         20210902 IMCT                IMCT                                                                                                                    WMF2109026.TXT
MAKK18173146202109D3               89828070200P3YK20210915000030SPEAKER ASM                   M IMCTM CM1    TNTH  09020IMKDC KA PTB  00005  K0                1431DES        000000000000 DENSO TEN (THAILAND)                                                                                                                                             G         20210902 IMCT                IMCT                                                                                                                    WMF2109026.TXT
MAKK18173147202109N3               89828070200P3YK20210916000060SPEAKER ASM                   M IMCTM CM1    TNTH  09020IMKDC KA PTB  00005  K0                0231NES        000000000000 DENSO TEN (THAILAND)                                                                                                                                             G         20210902 IMCT                IMCT                                                                                                                    WMF2109026.TXT
MAKK18173148202109D3               89828070200P3YK20210916000030SPEAKER ASM                   M IMCTM CM1    TNTH  09020IMKDC KA PTB  00005  K0                1431DES        000000000000 DENSO TEN (THAILAND)                                                                                                                                             G         20210902 IMCT                IMCT                                                                                                                    WMF2109026.TXT
MAKK18173149202109N3               89828070200P3YK20210917000030SPEAKER ASM                   M IMCTM CM1    TNTH  09020IMKDC KA PTB  00005  K0                0231NES        000000000000 DENSO TEN (THAILAND)                                                                                                                                             G         20210902 IMCT                IMCT                                                                                                                    WMF2109026.TXT
MAKK18173150202109D3               89828070200P3YK20210917000060SPEAKER ASM                   M IMCTM CM1    TNTH  09020IMKDC KA PTB  00005  K0                1431DES        000000000000 DENSO TEN (THAILAND)                                                                                                                                             G         20210902 IMCT                IMCT                                                                                                                    WMF2109026.TXT
MAKK18173151202109N3               89828070200P3YK20210918000090SPEAKER ASM                   M IMCTM CM1    TNTH  09020IMKDC KA PTB  00005  K0                0231NES        000000000000 DENSO TEN (THAILAND)                                                                                                                                             G         20210902 IMCT                IMCT                                                                                                                    WMF2109026.TXT
MAKK18173152202109D3               89828070300P3YK20210913000030SPEAKER ASM                   M IMCTM CM1    TNTH  09020IMKDC KA PTB  00015  K0                1431DES        000000000000 DENSO TEN (THAILAND)                                                                                                                                             G         20210902 IMCT                IMCT                                                                                                                    WMF2109026.TXT
MAKK18173153202109N3               89828070300P3YK20210914000060SPEAKER ASM                   M IMCTM CM1    TNTH  09020IMKDC KA PTB  00015  K0                0231NES        000000000000 DENSO TEN (THAILAND)                                                                                                                                             G         20210902 IMCT                IMCT                                                                                                                    WMF2109026.TXT
MAKK18173154202109D3               89828070300P3YK20210914000060SPEAKER ASM                   M IMCTM CM1    TNTH  09020IMKDC KA PTB  00015  K0                1431DES        000000000000 DENSO TEN (THAILAND)                                                                                                                                             G         20210902 IMCT                IMCT                                                                                                                    WMF2109026.TXT
MAKK18173155202109N3               89828070300P3YK20210915000060SPEAKER ASM                   M IMCTM CM1    TNTH  09020IMKDC KA PTB  00015  K0                0231NES        000000000000 DENSO TEN (THAILAND)                                                                                                                                             G         20210902 IMCT                IMCT                                                                                                                    WMF2109026.TXT
MAKK18173156202109D3               89828070300P3YK20210915000060SPEAKER ASM                   M IMCTM CM1    TNTH  09020IMKDC KA PTB  00015  K0                1431DES        000000000000 DENSO TEN (THAILAND)                                                                                                                                             G         20210902 IMCT                IMCT                                                                                                                    WMF2109026.TXT
MAKK18173157202109N3               89828070300P3YK20210916000090SPEAKER ASM                   M IMCTM CM1    TNTH  09020IMKDC KA PTB  00015  K0                0231NES        000000000000 DENSO TEN (THAILAND)                                                                                                                                             G         20210902 IMCT                IMCT                                                                                                                    WMF2109026.TXT
MAKK18173158202109D3               89828070300P3YK20210916000030SPEAKER ASM                   M IMCTM CM1    TNTH  09020IMKDC KA PTB  00015  K0                1431DES        000000000000 DENSO TEN (THAILAND)                                                                                                                                             G         20210902 IMCT                IMCT                                                                                                                    WMF2109026.TXT
MAKK18173159202109N3               89828070300P3YK20210917000030SPEAKER ASM                   M IMCTM CM1    TNTH  09020IMKDC KA PTB  00015  K0                0231NES        000000000000 DENSO TEN (THAILAND)                                                                                                                                             G         20210902 IMCT                IMCT                                                                                                                    WMF2109026.TXT
MAKK18173160202109D3               89828070300P3YK20210917000060SPEAKER ASM                   M IMCTM CM1    TNTH  09020IMKDC KA PTB  00015  K0                1431DES        000000000000 DENSO TEN (THAILAND)                                                                                                                                             G         20210902 IMCT                IMCT                                                                                                                    WMF2109026.TXT
MAKK18173161202109N3               89828070300P3YK20210918000090SPEAKER ASM                   M IMCTM CM1    TNTH  09020IMKDC KA PTB  00015  K0                0231NES        000000000000 DENSO TEN (THAILAND)                                                                                                                                             G         20210902 IMCT                IMCT                                                                                                                    WMF2109026.TXT
