REC2021090920210909ISUZU                              32     
MAKK19063466202109D3               89748082350P3YK20210921000030RADIO ASM;CENTER              M IMCTM CM1    TNTH  09020IMKDC KA*PTB  00005  K0                1431DES        000000000000 DENSO TEN (THAILAND)                                                                                                                                             G         20210909 IMCT                IMCT                                                                                                                    WMF2109092.TXT
MAKK19063467202109D3               89749224010P3YK20210921000030DISPLAY UNIT;ASM              M IMCTM CM1    TNTH  09020IMKDC KA PTB  00005  K0                1431DES        000000000000 DENSO TEN (THAILAND)                                                                                                                                             G         20210909 IMCT                IMCT                                                                                                                    WMF2109092.TXT
MAKK19063468202109D3               89753792300P3YK20210921000030HARNESS ASM;INFO              M IMCTM CM1    TNTH  09020IMKDC KA PTB  00015  K0                1431DES        000000000000 DENSO TEN (THAILAND)                                                                                                                                             G         20210909 IMCT                IMCT                                                                                                                    WMF2109092.TXT
MAKK19063469202109D3               89825451200P3YK20210923000030SPEAKER ASM;ROOF              M IMCTM CM1    TNTH  09020IMKDC KA PTB  00036  K0                1431DES        000000000000 DENSO TEN (THAILAND)                                                                                                                                             G         20210909 IMCT                IMCT                                                                                                                    WMF2109092.TXT
MAKK19063470202109D3               89828070100P3YK20210920000090SPEAKER ASM                   M IMCTM CM1    TNTH  09020IMKDC KA PTB  00004  K0                1431DES        000000000000 DENSO TEN (THAILAND)                                                                                                                                             G         20210909 IMCT                IMCT                                                                                                                    WMF2109092.TXT
MAKK19063471202109N3               89828070100P3YK20210921000090SPEAKER ASM                   M IMCTM CM1    TNTH  09020IMKDC KA PTB  00004  K0                0231NES        000000000000 DENSO TEN (THAILAND)                                                                                                                                             G         20210909 IMCT                IMCT                                                                                                                    WMF2109092.TXT
MAKK19063472202109N3               89828070100P3YK20210922000090SPEAKER ASM                   M IMCTM CM1    TNTH  09020IMKDC KA PTB  00004  K0                0231NES        000000000000 DENSO TEN (THAILAND)                                                                                                                                             G         20210909 IMCT                IMCT                                                                                                                    WMF2109092.TXT
MAKK19063473202109D3               89828070100P3YK20210922000090SPEAKER ASM                   M IMCTM CM1    TNTH  09020IMKDC KA PTB  00004  K0                1431DES        000000000000 DENSO TEN (THAILAND)                                                                                                                                             G         20210909 IMCT                IMCT                                                                                                                    WMF2109092.TXT
MAKK19063474202109N3               89828070100P3YK20210923000090SPEAKER ASM                   M IMCTM CM1    TNTH  09020IMKDC KA PTB  00004  K0                0231NES        000000000000 DENSO TEN (THAILAND)                                                                                                                                             G         20210909 IMCT                IMCT                                                                                                                    WMF2109092.TXT
MAKK19063475202109D3               89828070100P3YK20210923000090SPEAKER ASM                   M IMCTM CM1    TNTH  09020IMKDC KA PTB  00004  K0                1431DES        000000000000 DENSO TEN (THAILAND)                                                                                                                                             G         20210909 IMCT                IMCT                                                                                                                    WMF2109092.TXT
MAKK19063476202109N3               89828070100P3YK20210924000090SPEAKER ASM                   M IMCTM CM1    TNTH  09020IMKDC KA PTB  00004  K0                0231NES        000000000000 DENSO TEN (THAILAND)                                                                                                                                             G         20210909 IMCT                IMCT                                                                                                                    WMF2109092.TXT
MAKK19063477202109D3               89828070100P3YK20210924000120SPEAKER ASM                   M IMCTM CM1    TNTH  09020IMKDC KA PTB  00004  K0                1431DES        000000000000 DENSO TEN (THAILAND)                                                                                                                                             G         20210909 IMCT                IMCT                                                                                                                    WMF2109092.TXT
MAKK19063478202109N3               89828070100P3YK20210925000090SPEAKER ASM                   M IMCTM CM1    TNTH  09020IMKDC KA PTB  00004  K0                0231NES        000000000000 DENSO TEN (THAILAND)                                                                                                                                             G         20210909 IMCT                IMCT                                                                                                                    WMF2109092.TXT
MAKK19063479202109D3               89828070200P3YK20210920000060SPEAKER ASM                   M IMCTM CM1    TNTH  09020IMKDC KA PTB  00005  K0                1431DES        000000000000 DENSO TEN (THAILAND)                                                                                                                                             G         20210909 IMCT                IMCT                                                                                                                    WMF2109092.TXT
MAKK19063480202109N3               89828070200P3YK20210921000030SPEAKER ASM                   M IMCTM CM1    TNTH  09020IMKDC KA PTB  00005  K0                0231NES        000000000000 DENSO TEN (THAILAND)                                                                                                                                             G         20210909 IMCT                IMCT                                                                                                                    WMF2109092.TXT
MAKK19063481202109N3               89828070200P3YK20210922000060SPEAKER ASM                   M IMCTM CM1    TNTH  09020IMKDC KA PTB  00005  K0                0231NES        000000000000 DENSO TEN (THAILAND)                                                                                                                                             G         20210909 IMCT                IMCT                                                                                                                    WMF2109092.TXT
MAKK19063482202109D3               89828070200P3YK20210922000030SPEAKER ASM                   M IMCTM CM1    TNTH  09020IMKDC KA PTB  00005  K0                1431DES        000000000000 DENSO TEN (THAILAND)                                                                                                                                             G         20210909 IMCT                IMCT                                                                                                                    WMF2109092.TXT
MAKK19063483202109D3               89828070200P3YK20210923000090SPEAKER ASM                   M IMCTM CM1    TNTH  09020IMKDC KA PTB  00005  K0                1431DES        000000000000 DENSO TEN (THAILAND)                                                                                                                                             G         20210909 IMCT                IMCT                                                                                                                    WMF2109092.TXT
MAKK19063484202109N3               89828070200P3YK20210924000030SPEAKER ASM                   M IMCTM CM1    TNTH  09020IMKDC KA PTB  00005  K0                0231NES        000000000000 DENSO TEN (THAILAND)                                                                                                                                             G         20210909 IMCT                IMCT                                                                                                                    WMF2109092.TXT
MAKK19063485202109D3               89828070200P3YK20210924000030SPEAKER ASM                   M IMCTM CM1    TNTH  09020IMKDC KA PTB  00005  K0                1431DES        000000000000 DENSO TEN (THAILAND)                                                                                                                                             G         20210909 IMCT                IMCT                                                                                                                    WMF2109092.TXT
MAKK19063486202109N3               89828070200P3YK20210925000060SPEAKER ASM                   M IMCTM CM1    TNTH  09020IMKDC KA PTB  00005  K0                0231NES        000000000000 DENSO TEN (THAILAND)                                                                                                                                             G         20210909 IMCT                IMCT                                                                                                                    WMF2109092.TXT
MAKK19063487202109D3               89828070300P3YK20210920000060SPEAKER ASM                   M IMCTM CM1    TNTH  09020IMKDC KA PTB  00015  K0                1431DES        000000000000 DENSO TEN (THAILAND)                                                                                                                                             G         20210909 IMCT                IMCT                                                                                                                    WMF2109092.TXT
MAKK19063488202109N3               89828070300P3YK20210921000060SPEAKER ASM                   M IMCTM CM1    TNTH  09020IMKDC KA PTB  00015  K0                0231NES        000000000000 DENSO TEN (THAILAND)                                                                                                                                             G         20210909 IMCT                IMCT                                                                                                                    WMF2109092.TXT
MAKK19063489202109N3               89828070300P3YK20210922000060SPEAKER ASM                   M IMCTM CM1    TNTH  09020IMKDC KA PTB  00015  K0                0231NES        000000000000 DENSO TEN (THAILAND)                                                                                                                                             G         20210909 IMCT                IMCT                                                                                                                    WMF2109092.TXT
MAKK19063490202109D3               89828070300P3YK20210922000030SPEAKER ASM                   M IMCTM CM1    TNTH  09020IMKDC KA PTB  00015  K0                1431DES        000000000000 DENSO TEN (THAILAND)                                                                                                                                             G         20210909 IMCT                IMCT                                                                                                                    WMF2109092.TXT
MAKK19063491202109N3               89828070300P3YK20210923000030SPEAKER ASM                   M IMCTM CM1    TNTH  09020IMKDC KA PTB  00015  K0                0231NES        000000000000 DENSO TEN (THAILAND)                                                                                                                                             G         20210909 IMCT                IMCT                                                                                                                    WMF2109092.TXT
MAKK19063492202109D3               89828070300P3YK20210923000090SPEAKER ASM                   M IMCTM CM1    TNTH  09020IMKDC KA PTB  00015  K0                1431DES        000000000000 DENSO TEN (THAILAND)                                                                                                                                             G         20210909 IMCT                IMCT                                                                                                                    WMF2109092.TXT
MAKK19063493202109N3               89828070300P3YK20210924000060SPEAKER ASM                   M IMCTM CM1    TNTH  09020IMKDC KA PTB  00015  K0                0231NES        000000000000 DENSO TEN (THAILAND)                                                                                                                                             G         20210909 IMCT                IMCT                                                                                                                    WMF2109092.TXT
MAKK19063494202109D3               89828070300P3YK20210924000060SPEAKER ASM                   M IMCTM CM1    TNTH  09020IMKDC KA PTB  00015  K0                1431DES        000000000000 DENSO TEN (THAILAND)                                                                                                                                             G         20210909 IMCT                IMCT                                                                                                                    WMF2109092.TXT
MAKK19063495202109N3               89828070300P3YK20210925000060SPEAKER ASM                   M IMCTM CM1    TNTH  09020IMKDC KA PTB  00015  K0                0231NES        000000000000 DENSO TEN (THAILAND)                                                                                                                                             G         20210909 IMCT                IMCT                                                                                                                    WMF2109092.TXT
MAKK19063496202109D3               89839629110P3YK20210921000030RECEPTACLE ASM;I              M IMCTM CM1    TNTH  09020IMKDC KA PTB  00015  K0                1431DES        000000000000 DENSO TEN (THAILAND)                                                                                                                                             G         20210909 IMCT                IMCT                                                                                                                    WMF2109092.TXT
MAKK19063497202109D3               89839631600P3YK20210921000030HARNESS KIT;ASM,              M IMCTM CM1    TNTH  09020IMKDC KA PTB  00030  K0                1431DES        000000000000 DENSO TEN (THAILAND)                                                                                                                                             G         20210909 IMCT                IMCT                                                                                                                    WMF2109092.TXT
