REC2021093020210930ISUZU                              40     
MAKK19135550202109N3               89748082350P3YK20211012000030RADIO ASM;CENTER              M IMCTM CM1    TNTH  09020IMKDC KA PTB  00005  K0                0231NES        000000000000 DENSO TEN (THAILAND)                                                                                                                                             G         20210930 IMCT                IMCT                                                                                                                    WMF2109305.TXT
MAKK19135551202109N3               89753792300P3YK20211012000030HARNESS ASM;INFO              M IMCTM CM1    TNTH  09020IMKDC KA PTB  00015  K0                0231NES        000000000000 DENSO TEN (THAILAND)                                                                                                                                             G         20210930 IMCT                IMCT                                                                                                                    WMF2109305.TXT
MAKK19135552202109N3               89767048400P3YK20211012000030DISPLAY UNIT;ASM              M IMCTM CM1    TNTH  09020IMKDC KA PTB  00005  K0                0231NES        000000000000 DENSO TEN (THAILAND)                                                                                                                                             G         20210930 IMCT                IMCT                                                                                                                    WMF2109305.TXT
MAKK19135553202109D3               89828070100P3YK20211011000060SPEAKER ASM                   M IMCTM CM1    TNTH  09020IMKDC KA PTB  00004  K0                1431DES        000000000000 DENSO TEN (THAILAND)                                                                                                                                             G         20210930 IMCT                IMCT                                                                                                                    WMF2109305.TXT
MAKK19135554202109D3               89828070100P3YK20211012000090SPEAKER ASM                   M IMCTM CM1    TNTH  09020IMKDC KA PTB  00004  K0                1431DES        000000000000 DENSO TEN (THAILAND)                                                                                                                                             G         20210930 IMCT                IMCT                                                                                                                    WMF2109305.TXT
MAKK19135555202109N3               89828070100P3YK20211013000060SPEAKER ASM                   M IMCTM CM1    TNTH  09020IMKDC KA PTB  00004  K0                0231NES        000000000000 DENSO TEN (THAILAND)                                                                                                                                             G         20210930 IMCT                IMCT                                                                                                                    WMF2109305.TXT
MAKK19135556202109D3               89828070100P3YK20211013000060SPEAKER ASM                   M IMCTM CM1    TNTH  09020IMKDC KA PTB  00004  K0                1431DES        000000000000 DENSO TEN (THAILAND)                                                                                                                                             G         20210930 IMCT                IMCT                                                                                                                    WMF2109305.TXT
MAKK19135557202109N3               89828070100P3YK20211014000060SPEAKER ASM                   M IMCTM CM1    TNTH  09020IMKDC KA PTB  00004  K0                0231NES        000000000000 DENSO TEN (THAILAND)                                                                                                                                             G         20210930 IMCT                IMCT                                                                                                                    WMF2109305.TXT
MAKK19135558202109D3               89828070100P3YK20211014000090SPEAKER ASM                   M IMCTM CM1    TNTH  09020IMKDC KA PTB  00004  K0                1431DES        000000000000 DENSO TEN (THAILAND)                                                                                                                                             G         20210930 IMCT                IMCT                                                                                                                    WMF2109305.TXT
MAKK19135559202109N3               89828070100P3YK20211015000060SPEAKER ASM                   M IMCTM CM1    TNTH  09020IMKDC KA PTB  00004  K0                0231NES        000000000000 DENSO TEN (THAILAND)                                                                                                                                             G         20210930 IMCT                IMCT                                                                                                                    WMF2109305.TXT
MAKK19135560202109D3               89828070100P3YK20211015000060SPEAKER ASM                   M IMCTM CM1    TNTH  09020IMKDC KA PTB  00004  K0                1431DES        000000000000 DENSO TEN (THAILAND)                                                                                                                                             G         20210930 IMCT                IMCT                                                                                                                    WMF2109305.TXT
MAKK19135561202109N3               89828070100P3YK20211016000060SPEAKER ASM                   M IMCTM CM1    TNTH  09020IMKDC KA PTB  00004  K0                0231NES        000000000000 DENSO TEN (THAILAND)                                                                                                                                             G         20210930 IMCT                IMCT                                                                                                                    WMF2109305.TXT
MAKK19135562202109D3               89828070100P3YK20211016000090SPEAKER ASM                   M IMCTM CM1    TNTH  09020IMKDC KA PTB  00004  K0                1431DES        000000000000 DENSO TEN (THAILAND)                                                                                                                                             G         20210930 IMCT                IMCT                                                                                                                    WMF2109305.TXT
MAKK19135563202109N3               89828070100P3YK20211017000060SPEAKER ASM                   M IMCTM CM1    TNTH  09020IMKDC KA PTB  00004  K0                0231NES        000000000000 DENSO TEN (THAILAND)                                                                                                                                             G         20210930 IMCT                IMCT                                                                                                                    WMF2109305.TXT
MAKK19135564202109D3               89828070200P3YK20211012000030SPEAKER ASM                   M IMCTM CM1    TNTH  09020IMKDC KA PTB  00005  K0                1431DES        000000000000 DENSO TEN (THAILAND)                                                                                                                                             G         20210930 IMCT                IMCT                                                                                                                    WMF2109305.TXT
MAKK19135565202109N3               89828070200P3YK20211013000030SPEAKER ASM                   M IMCTM CM1    TNTH  09020IMKDC KA PTB  00005  K0                0231NES        000000000000 DENSO TEN (THAILAND)                                                                                                                                             G         20210930 IMCT                IMCT                                                                                                                    WMF2109305.TXT
MAKK19135566202109D3               89828070200P3YK20211013000030SPEAKER ASM                   M IMCTM CM1    TNTH  09020IMKDC KA PTB  00005  K0                1431DES        000000000000 DENSO TEN (THAILAND)                                                                                                                                             G         20210930 IMCT                IMCT                                                                                                                    WMF2109305.TXT
MAKK19135567202109N3               89828070200P3YK20211014000030SPEAKER ASM                   M IMCTM CM1    TNTH  09020IMKDC KA PTB  00005  K0                0231NES        000000000000 DENSO TEN (THAILAND)                                                                                                                                             G         20210930 IMCT                IMCT                                                                                                                    WMF2109305.TXT
MAKK19135568202109D3               89828070200P3YK20211014000030SPEAKER ASM                   M IMCTM CM1    TNTH  09020IMKDC KA PTB  00005  K0                1431DES        000000000000 DENSO TEN (THAILAND)                                                                                                                                             G         20210930 IMCT                IMCT                                                                                                                    WMF2109305.TXT
MAKK19135569202109D3               89828070200P3YK20211015000030SPEAKER ASM                   M IMCTM CM1    TNTH  09020IMKDC KA PTB  00005  K0                1431DES        000000000000 DENSO TEN (THAILAND)                                                                                                                                             G         20210930 IMCT                IMCT                                                                                                                    WMF2109305.TXT
MAKK19135570202109N3               89828070200P3YK20211016000060SPEAKER ASM                   M IMCTM CM1    TNTH  09020IMKDC KA PTB  00005  K0                0231NES        000000000000 DENSO TEN (THAILAND)                                                                                                                                             G         20210930 IMCT                IMCT                                                                                                                    WMF2109305.TXT
MAKK19135571202109D3               89828070200P3YK20211016000030SPEAKER ASM                   M IMCTM CM1    TNTH  09020IMKDC KA PTB  00005  K0                1431DES        000000000000 DENSO TEN (THAILAND)                                                                                                                                             G         20210930 IMCT                IMCT                                                                                                                    WMF2109305.TXT
MAKK19135572202109D3               89828070300P3YK20211011000030SPEAKER ASM                   M IMCTM CM1    TNTH  09020IMKDC KA PTB  00015  K0                1431DES        000000000000 DENSO TEN (THAILAND)                                                                                                                                             G         20210930 IMCT                IMCT                                                                                                                    WMF2109305.TXT
MAKK19135573202109D3               89828070300P3YK20211012000030SPEAKER ASM                   M IMCTM CM1    TNTH  09020IMKDC KA PTB  00015  K0                1431DES        000000000000 DENSO TEN (THAILAND)                                                                                                                                             G         20210930 IMCT                IMCT                                                                                                                    WMF2109305.TXT
MAKK19135574202109N3               89828070300P3YK20211013000030SPEAKER ASM                   M IMCTM CM1    TNTH  09020IMKDC KA PTB  00015  K0                0231NES        000000000000 DENSO TEN (THAILAND)                                                                                                                                             G         20210930 IMCT                IMCT                                                                                                                    WMF2109305.TXT
MAKK19135575202109D3               89828070300P3YK20211013000060SPEAKER ASM                   M IMCTM CM1    TNTH  09020IMKDC KA PTB  00015  K0                1431DES        000000000000 DENSO TEN (THAILAND)                                                                                                                                             G         20210930 IMCT                IMCT                                                                                                                    WMF2109305.TXT
MAKK19135576202109N3               89828070300P3YK20211014000030SPEAKER ASM                   M IMCTM CM1    TNTH  09020IMKDC KA PTB  00015  K0                0231NES        000000000000 DENSO TEN (THAILAND)                                                                                                                                             G         20210930 IMCT                IMCT                                                                                                                    WMF2109305.TXT
MAKK19135577202109D3               89828070300P3YK20211014000060SPEAKER ASM                   M IMCTM CM1    TNTH  09020IMKDC KA PTB  00015  K0                1431DES        000000000000 DENSO TEN (THAILAND)                                                                                                                                             G         20210930 IMCT                IMCT                                                                                                                    WMF2109305.TXT
MAKK19135578202109N3               89828070300P3YK20211015000060SPEAKER ASM                   M IMCTM CM1    TNTH  09020IMKDC KA PTB  00015  K0                0231NES        000000000000 DENSO TEN (THAILAND)                                                                                                                                             G         20210930 IMCT                IMCT                                                                                                                    WMF2109305.TXT
MAKK19135579202109D3               89828070300P3YK20211015000030SPEAKER ASM                   M IMCTM CM1    TNTH  09020IMKDC KA PTB  00015  K0                1431DES        000000000000 DENSO TEN (THAILAND)                                                                                                                                             G         20210930 IMCT                IMCT                                                                                                                    WMF2109305.TXT
MAKK19135580202109N3               89828070300P3YK20211016000060SPEAKER ASM                   M IMCTM CM1    TNTH  09020IMKDC KA PTB  00015  K0                0231NES        000000000000 DENSO TEN (THAILAND)                                                                                                                                             G         20210930 IMCT                IMCT                                                                                                                    WMF2109305.TXT
MAKK19135581202109D3               89828070300P3YK20211016000030SPEAKER ASM                   M IMCTM CM1    TNTH  09020IMKDC KA PTB  00015  K0                1431DES        000000000000 DENSO TEN (THAILAND)                                                                                                                                             G         20210930 IMCT                IMCT                                                                                                                    WMF2109305.TXT
MAKK19135582202109N3               89828070300P3YK20211017000030SPEAKER ASM                   M IMCTM CM1    TNTH  09020IMKDC KA PTB  00015  K0                0231NES        000000000000 DENSO TEN (THAILAND)                                                                                                                                             G         20210930 IMCT                IMCT                                                                                                                    WMF2109305.TXT
MAKK19135583202109N3               89839629110P3YK20211012000030RECEPTACLE ASM;I              M IMCTM CM1    TNTH  09020IMKDC KA PTB  00015  K0                0231NES        000000000000 DENSO TEN (THAILAND)                                                                                                                                             G         20210930 IMCT                IMCT                                                                                                                    WMF2109305.TXT
MAKK19135584202109N3               89839631600P3YK20211012000030HARNESS KIT;ASM,              M IMCTM CM1    TNTH  09020IMKDC KA PTB  00030  K0                0231NES        000000000000 DENSO TEN (THAILAND)                                                                                                                                             G         20210930 IMCT                IMCT                                                                                                                    WMF2109305.TXT
MAKK19143368202109D3               89828070100P3YK20211012000030SPEAKER ASM                   M IMCTM PK3    TNTH  09020IMKDC KA PTB  00004  K0                1431DES        000000000000 DENSO TEN (THAILAND)                                                                                                                                             G         20210930 IMCT                IMCT                                                                                                                    WMF2109305.TXT
MAKK19143369202109D3               89828070100P3YK20211015000030SPEAKER ASM                   M IMCTM PK3    TNTH  09020IMKDC KA PTB  00004  K0                1431DES        000000000000 DENSO TEN (THAILAND)                                                                                                                                             G         20210930 IMCT                IMCT                                                                                                                    WMF2109305.TXT
MAKK19143370202109D3               89828070200P3YK20211012000030SPEAKER ASM                   M IMCTM PK3    TNTH  09020IMKDC KA PTB  00005  K0                1431DES        000000000000 DENSO TEN (THAILAND)                                                                                                                                             G         20210930 IMCT                IMCT                                                                                                                    WMF2109305.TXT
MAKK19143371202109D3               89828070200P3YK20211015000030SPEAKER ASM                   M IMCTM PK3    TNTH  09020IMKDC KA PTB  00005  K0                1431DES        000000000000 DENSO TEN (THAILAND)                                                                                                                                             G         20210930 IMCT                IMCT                                                                                                                    WMF2109305.TXT
MAKK19143372202109D3               89828070300P3YK20211015000030SPEAKER ASM                   M IMCTM PK3    TNTH  09020IMKDC KA PTB  00015  K0                1431DES        000000000000 DENSO TEN (THAILAND)                                                                                                                                             G         20210930 IMCT                IMCT                                                                                                                    WMF2109305.TXT
