REC2021102120211021ISUZU                              29     
MAKK1O088298202110N3               89748082350P3YK20211102000015RADIO ASM;CENTER              M IMCTM CM1    TNTH  09020IMKDC KA PTB  00005  K0                0231NES        000000000000 DENSO TEN (THAILAND)                                                                                                                                            *G         20211021 IMCT                IMCT                                                                                                                    WMF2110215.TXT
MAKK1O088299202110N3               89753792300P3YK20211102000015HARNESS ASM;INFO              M IMCTM CM1    TNTH  09020IMKDC KA PTB  00015  K0                0231NES        000000000000 DENSO TEN (THAILAND)                                                                                                                                            *G         20211021 IMCT                IMCT                                                                                                                    WMF2110215.TXT
MAKK1O088300202110N3               89767048400P3YK20211102000015DISPLAY UNIT;ASM              M IMCTM CM1    TNTH  09020IMKDC KA PTB  00005  K0                0231NES        000000000000 DENSO TEN (THAILAND)                                                                                                                                            *G         20211021 IMCT                IMCT                                                                                                                    WMF2110215.TXT
MAKK1O088301202110D3               89828070100P3YK20211101000060SPEAKER ASM                   M IMCTM CM1    TNTH  09020IMKDC KA PTB  00004  K0                1431DES        000000000000 DENSO TEN (THAILAND)                                                                                                                                            *G         20211021 IMCT                IMCT                                                                                                                    WMF2110215.TXT
MAKK1O088302202110D3               89828070100P3YK20211102000090SPEAKER ASM                   M IMCTM CM1    TNTH  09020IMKDC KA PTB  00004  K0                1431DES        000000000000 DENSO TEN (THAILAND)                                                                                                                                            *G         20211021 IMCT                IMCT                                                                                                                    WMF2110215.TXT
MAKK1O088303202110N3               89828070100P3YK20211103000090SPEAKER ASM                   M IMCTM CM1    TNTH  09020IMKDC KA PTB  00004  K0                0231NES        000000000000 DENSO TEN (THAILAND)                                                                                                                                            *G         20211021 IMCT                IMCT                                                                                                                    WMF2110215.TXT
MAKK1O088304202110D3               89828070100P3YK20211103000060SPEAKER ASM                   M IMCTM CM1    TNTH  09020IMKDC KA PTB  00004  K0                1431DES        000000000000 DENSO TEN (THAILAND)                                                                                                                                            *G         20211021 IMCT                IMCT                                                                                                                    WMF2110215.TXT
MAKK1O088305202110N3               89828070100P3YK20211104000090SPEAKER ASM                   M IMCTM CM1    TNTH  09020IMKDC KA PTB  00004  K0                0231NES        000000000000 DENSO TEN (THAILAND)                                                                                                                                            *G         20211021 IMCT                IMCT                                                                                                                    WMF2110215.TXT
MAKK1O088306202110D3               89828070100P3YK20211104000090SPEAKER ASM                   M IMCTM CM1    TNTH  09020IMKDC KA PTB  00004  K0                1431DES        000000000000 DENSO TEN (THAILAND)                                                                                                                                            *G         20211021 IMCT                IMCT                                                                                                                    WMF2110215.TXT
MAKK1O088307202110N3               89828070100P3YK20211105000090SPEAKER ASM                   M IMCTM CM1    TNTH  09020IMKDC KA PTB  00004  K0                0231NES        000000000000 DENSO TEN (THAILAND)                                                                                                                                            *G         20211021 IMCT                IMCT                                                                                                                    WMF2110215.TXT
MAKK1O088308202110D3               89828070100P3YK20211105000090SPEAKER ASM                   M IMCTM CM1    TNTH  09020IMKDC KA PTB  00004  K0                1431DES        000000000000 DENSO TEN (THAILAND)                                                                                                                                            *G         20211021 IMCT                IMCT                                                                                                                    WMF2110215.TXT
MAKK1O088309202110N3               89828070100P3YK20211106000090SPEAKER ASM                   M IMCTM CM1    TNTH  09020IMKDC KA PTB  00004  K0                0231NES        000000000000 DENSO TEN (THAILAND)                                                                                                                                            *G         20211021 IMCT                IMCT                                                                                                                    WMF2110215.TXT
MAKK1O088310202110D3               89828070200P3YK20211101000030SPEAKER ASM                   M IMCTM CM1    TNTH  09020IMKDC KA PTB  00005  K0                1431DES        000000000000 DENSO TEN (THAILAND)                                                                                                                                            *G         20211021 IMCT                IMCT                                                                                                                    WMF2110215.TXT
MAKK1O088311202110N3               89828070200P3YK20211103000030SPEAKER ASM                   M IMCTM CM1    TNTH  09020IMKDC KA PTB  00005  K0                0231NES        000000000000 DENSO TEN (THAILAND)                                                                                                                                            *G         20211021 IMCT                IMCT                                                                                                                    WMF2110215.TXT
MAKK1O088312202110D3               89828070200P3YK20211103000030SPEAKER ASM                   M IMCTM CM1    TNTH  09020IMKDC KA PTB  00005  K0                1431DES        000000000000 DENSO TEN (THAILAND)                                                                                                                                            *G         20211021 IMCT                IMCT                                                                                                                    WMF2110215.TXT
MAKK1O088313202110D3               89828070200P3YK20211104000030SPEAKER ASM                   M IMCTM CM1    TNTH  09020IMKDC KA PTB  00005  K0                1431DES        000000000000 DENSO TEN (THAILAND)                                                                                                                                            *G         20211021 IMCT                IMCT                                                                                                                    WMF2110215.TXT
MAKK1O088314202110N3               89828070200P3YK20211105000060SPEAKER ASM                   M IMCTM CM1    TNTH  09020IMKDC KA PTB  00005  K0                0231NES        000000000000 DENSO TEN (THAILAND)                                                                                                                                            *G         20211021 IMCT                IMCT                                                                                                                    WMF2110215.TXT
MAKK1O088315202110D3               89828070200P3YK20211105000030SPEAKER ASM                   M IMCTM CM1    TNTH  09020IMKDC KA PTB  00005  K0                1431DES        000000000000 DENSO TEN (THAILAND)                                                                                                                                            *G         20211021 IMCT                IMCT                                                                                                                    WMF2110215.TXT
MAKK1O088316202110N3               89828070200P3YK20211106000030SPEAKER ASM                   M IMCTM CM1    TNTH  09020IMKDC KA PTB  00005  K0                0231NES        000000000000 DENSO TEN (THAILAND)                                                                                                                                            *G         20211021 IMCT                IMCT                                                                                                                    WMF2110215.TXT
MAKK1O088317202110D3               89828070300P3YK20211101000060SPEAKER ASM                   M IMCTM CM1    TNTH  09020IMKDC KA PTB  00015  K0                1431DES        000000000000 DENSO TEN (THAILAND)                                                                                                                                            *G         20211021 IMCT                IMCT                                                                                                                    WMF2110215.TXT
MAKK1O088318202110N3               89828070300P3YK20211103000060SPEAKER ASM                   M IMCTM CM1    TNTH  09020IMKDC KA PTB  00015  K0                0231NES        000000000000 DENSO TEN (THAILAND)                                                                                                                                            *G         20211021 IMCT                IMCT                                                                                                                    WMF2110215.TXT
MAKK1O088319202110D3               89828070300P3YK20211103000030SPEAKER ASM                   M IMCTM CM1    TNTH  09020IMKDC KA PTB  00015  K0                1431DES        000000000000 DENSO TEN (THAILAND)                                                                                                                                            *G         20211021 IMCT                IMCT                                                                                                                    WMF2110215.TXT
MAKK1O088320202110N3               89828070300P3YK20211104000030SPEAKER ASM                   M IMCTM CM1    TNTH  09020IMKDC KA PTB  00015  K0                0231NES        000000000000 DENSO TEN (THAILAND)                                                                                                                                            *G         20211021 IMCT                IMCT                                                                                                                    WMF2110215.TXT
MAKK1O088321202110D3               89828070300P3YK20211104000030SPEAKER ASM                   M IMCTM CM1    TNTH  09020IMKDC KA PTB  00015  K0                1431DES        000000000000 DENSO TEN (THAILAND)                                                                                                                                            *G         20211021 IMCT                IMCT                                                                                                                    WMF2110215.TXT
MAKK1O088322202110N3               89828070300P3YK20211105000060SPEAKER ASM                   M IMCTM CM1    TNTH  09020IMKDC KA PTB  00015  K0                0231NES        000000000000 DENSO TEN (THAILAND)                                                                                                                                            *G         20211021 IMCT                IMCT                                                                                                                    WMF2110215.TXT
MAKK1O088323202110D3               89828070300P3YK20211105000060SPEAKER ASM                   M IMCTM CM1    TNTH  09020IMKDC KA PTB  00015  K0                1431DES        000000000000 DENSO TEN (THAILAND)                                                                                                                                            *G         20211021 IMCT                IMCT                                                                                                                    WMF2110215.TXT
MAKK1O088324202110N3               89828070300P3YK20211106000060SPEAKER ASM                   M IMCTM CM1    TNTH  09020IMKDC KA PTB  00015  K0                0231NES        000000000000 DENSO TEN (THAILAND)                                                                                                                                            *G         20211021 IMCT                IMCT                                                                                                                    WMF2110215.TXT
MAKK1O088325202110N3               89839629110P3YK20211102000015RECEPTACLE ASM;I              M IMCTM CM1    TNTH  09020IMKDC KA PTB  00015  K0                0231NES        000000000000 DENSO TEN (THAILAND)                                                                                                                                            *G         20211021 IMCT                IMCT                                                                                                                    WMF2110215.TXT
MAKK1O088326202110N3               89839631600P3YK20211102000015HARNESS KIT;ASM,              M IMCTM CM1    TNTH  09020IMKDC KA PTB  00030  K0                0231NES        000000000000 DENSO TEN (THAILAND)                                                                                                                                            *G         20211021 IMCT                IMCT                                                                                                                    WMF2110215.TXT
