REC2021101320211013ISUZU                              3      
MECKMO800180000000          IMKDC  89828070200P3YK20211021000001SPEAKER ASM                   M IMCTM IMKDC  TNTH  09020IMKDC KV*PTB  00005    K293N4490   001 0000 ES        000000000000 DENSO TEN (THAILAND)                                                                                                                                            *G         20211013 IMCT                IMCT                                                                                                                    WMF2110131.TXT
MECKMO800181000000          IMKDC  89828070300P3YK20211021000001SPEAKER ASM                   M IMCTM IMKDC  TNTH  09020IMKDC KV*PTB  00015    K293N4490   001 0000 ES        000000000000 DENSO TEN (THAILAND)                                                                                                                                            *G         20211013 IMCT                IMCT                                                                                                                    WMF2110131.TXT
MECKMO800182000000          IMKDC  89828070300P3YK20211022000001SPEAKER ASM                   M IMCTM IMKDC  TNTH  09020IMKDC KV*PTB  00015    K293N4530   001 0000 ES        000000000000 DENSO TEN (THAILAND)                                                                                                                                            *G         20211013 IMCT                IMCT                                                                                                                    WMF2110131.TXT
