REC2021102820211028ISUZU                              29     
MAKK1O111248202110N3               89748082350P3YK20211109000045RADIO ASM;CENTER              M IMCTM CM1    TNTH  09020IMKDC KA PTB  00005  K0                0231NES        000000000000 DENSO TEN (THAILAND)                                                                                                                                            *G         20211028 IMCT                IMCT                                                                                                                    WMF2110285.TXT
MAKK1O111249202110N3               89749224010P3YK20211109000045DISPLAY UNIT;ASM              M IMCTM CM1    TNTH  09020IMKDC KA PTB  00005  K0                0231NES        000000000000 DENSO TEN (THAILAND)                                                                                                                                            *G         20211028 IMCT                IMCT                                                                                                                    WMF2110285.TXT
MAKK1O111250202110N3               89753792310P3YK20211109000045HARNESS ASM;INFO              M IMCTM CM1    TNTH  09020IMKDC KA*PTB  00015  K0                0231NES        000000000000 DENSO TEN (THAILAND)                                                                                                                                            *G         20211028 IMCT                IMCT                                                                                                                    WMF2110285.TXT
MAKK1O111251202110D3               89828070100P3YK20211108000090SPEAKER ASM                   M IMCTM CM1    TNTH  09020IMKDC KA PTB  00004  K0                1431DES        000000000000 DENSO TEN (THAILAND)                                                                                                                                            *G         20211028 IMCT                IMCT                                                                                                                    WMF2110285.TXT
MAKK1O111252202110N3               89828070100P3YK20211109000030SPEAKER ASM                   M IMCTM CM1    TNTH  09020IMKDC KA PTB  00004  K0                0231NES        000000000000 DENSO TEN (THAILAND)                                                                                                                                            *G         20211028 IMCT                IMCT                                                                                                                    WMF2110285.TXT
MAKK1O111253202110D3               89828070100P3YK20211109000060SPEAKER ASM                   M IMCTM CM1    TNTH  09020IMKDC KA PTB  00004  K0                1431DES        000000000000 DENSO TEN (THAILAND)                                                                                                                                            *G         20211028 IMCT                IMCT                                                                                                                    WMF2110285.TXT
MAKK1O111254202110N3               89828070100P3YK20211110000060SPEAKER ASM                   M IMCTM CM1    TNTH  09020IMKDC KA PTB  00004  K0                0231NES        000000000000 DENSO TEN (THAILAND)                                                                                                                                            *G         20211028 IMCT                IMCT                                                                                                                    WMF2110285.TXT
MAKK1O111255202110D3               89828070100P3YK20211110000060SPEAKER ASM                   M IMCTM CM1    TNTH  09020IMKDC KA PTB  00004  K0                1431DES        000000000000 DENSO TEN (THAILAND)                                                                                                                                            *G         20211028 IMCT                IMCT                                                                                                                    WMF2110285.TXT
MAKK1O111256202110N3               89828070100P3YK20211111000090SPEAKER ASM                   M IMCTM CM1    TNTH  09020IMKDC KA PTB  00004  K0                0231NES        000000000000 DENSO TEN (THAILAND)                                                                                                                                            *G         20211028 IMCT                IMCT                                                                                                                    WMF2110285.TXT
MAKK1O111257202110D3               89828070100P3YK20211111000090SPEAKER ASM                   M IMCTM CM1    TNTH  09020IMKDC KA PTB  00004  K0                1431DES        000000000000 DENSO TEN (THAILAND)                                                                                                                                            *G         20211028 IMCT                IMCT                                                                                                                    WMF2110285.TXT
MAKK1O111258202110N3               89828070100P3YK20211112000060SPEAKER ASM                   M IMCTM CM1    TNTH  09020IMKDC KA PTB  00004  K0                0231NES        000000000000 DENSO TEN (THAILAND)                                                                                                                                            *G         20211028 IMCT                IMCT                                                                                                                    WMF2110285.TXT
MAKK1O111259202110D3               89828070100P3YK20211112000090SPEAKER ASM                   M IMCTM CM1    TNTH  09020IMKDC KA PTB  00004  K0                1431DES        000000000000 DENSO TEN (THAILAND)                                                                                                                                            *G         20211028 IMCT                IMCT                                                                                                                    WMF2110285.TXT
MAKK1O111260202110N3               89828070100P3YK20211113000060SPEAKER ASM                   M IMCTM CM1    TNTH  09020IMKDC KA PTB  00004  K0                0231NES        000000000000 DENSO TEN (THAILAND)                                                                                                                                            *G         20211028 IMCT                IMCT                                                                                                                    WMF2110285.TXT
MAKK1O111261202110D3               89828070200P3YK20211108000030SPEAKER ASM                   M IMCTM CM1    TNTH  09020IMKDC KA PTB  00005  K0                1431DES        000000000000 DENSO TEN (THAILAND)                                                                                                                                            *G         20211028 IMCT                IMCT                                                                                                                    WMF2110285.TXT
MAKK1O111262202110D3               89828070200P3YK20211109000030SPEAKER ASM                   M IMCTM CM1    TNTH  09020IMKDC KA PTB  00005  K0                1431DES        000000000000 DENSO TEN (THAILAND)                                                                                                                                            *G         20211028 IMCT                IMCT                                                                                                                    WMF2110285.TXT
MAKK1O111263202110N3               89828070200P3YK20211110000030SPEAKER ASM                   M IMCTM CM1    TNTH  09020IMKDC KA PTB  00005  K0                0231NES        000000000000 DENSO TEN (THAILAND)                                                                                                                                            *G         20211028 IMCT                IMCT                                                                                                                    WMF2110285.TXT
MAKK1O111264202110D3               89828070200P3YK20211110000030SPEAKER ASM                   M IMCTM CM1    TNTH  09020IMKDC KA PTB  00005  K0                1431DES        000000000000 DENSO TEN (THAILAND)                                                                                                                                            *G         20211028 IMCT                IMCT                                                                                                                    WMF2110285.TXT
MAKK1O111265202110N3               89828070200P3YK20211111000030SPEAKER ASM                   M IMCTM CM1    TNTH  09020IMKDC KA PTB  00005  K0                0231NES        000000000000 DENSO TEN (THAILAND)                                                                                                                                            *G         20211028 IMCT                IMCT                                                                                                                    WMF2110285.TXT
MAKK1O111266202110D3               89828070200P3YK20211111000030SPEAKER ASM                   M IMCTM CM1    TNTH  09020IMKDC KA PTB  00005  K0                1431DES        000000000000 DENSO TEN (THAILAND)                                                                                                                                            *G         20211028 IMCT                IMCT                                                                                                                    WMF2110285.TXT
MAKK1O111267202110D3               89828070300P3YK20211108000030SPEAKER ASM                   M IMCTM CM1    TNTH  09020IMKDC KA PTB  00015  K0                1431DES        000000000000 DENSO TEN (THAILAND)                                                                                                                                            *G         20211028 IMCT                IMCT                                                                                                                    WMF2110285.TXT
MAKK1O111268202110D3               89828070300P3YK20211109000030SPEAKER ASM                   M IMCTM CM1    TNTH  09020IMKDC KA PTB  00015  K0                1431DES        000000000000 DENSO TEN (THAILAND)                                                                                                                                            *G         20211028 IMCT                IMCT                                                                                                                    WMF2110285.TXT
MAKK1O111269202110N3               89828070300P3YK20211110000030SPEAKER ASM                   M IMCTM CM1    TNTH  09020IMKDC KA PTB  00015  K0                0231NES        000000000000 DENSO TEN (THAILAND)                                                                                                                                            *G         20211028 IMCT                IMCT                                                                                                                    WMF2110285.TXT
MAKK1O111270202110D3               89828070300P3YK20211110000060SPEAKER ASM                   M IMCTM CM1    TNTH  09020IMKDC KA PTB  00015  K0                1431DES        000000000000 DENSO TEN (THAILAND)                                                                                                                                            *G         20211028 IMCT                IMCT                                                                                                                    WMF2110285.TXT
MAKK1O111271202110N3               89828070300P3YK20211111000030SPEAKER ASM                   M IMCTM CM1    TNTH  09020IMKDC KA PTB  00015  K0                0231NES        000000000000 DENSO TEN (THAILAND)                                                                                                                                            *G         20211028 IMCT                IMCT                                                                                                                    WMF2110285.TXT
MAKK1O111272202110D3               89828070300P3YK20211111000060SPEAKER ASM                   M IMCTM CM1    TNTH  09020IMKDC KA PTB  00015  K0                1431DES        000000000000 DENSO TEN (THAILAND)                                                                                                                                            *G         20211028 IMCT                IMCT                                                                                                                    WMF2110285.TXT
MAKK1O111273202110N3               89828070300P3YK20211112000030SPEAKER ASM                   M IMCTM CM1    TNTH  09020IMKDC KA PTB  00015  K0                0231NES        000000000000 DENSO TEN (THAILAND)                                                                                                                                            *G         20211028 IMCT                IMCT                                                                                                                    WMF2110285.TXT
MAKK1O111274202110N3               89828070300P3YK20211113000030SPEAKER ASM                   M IMCTM CM1    TNTH  09020IMKDC KA PTB  00015  K0                0231NES        000000000000 DENSO TEN (THAILAND)                                                                                                                                            *G         20211028 IMCT                IMCT                                                                                                                    WMF2110285.TXT
MAKK1O111275202110N3               89839629110P3YK20211109000045RECEPTACLE ASM;I              M IMCTM CM1    TNTH  09020IMKDC KA PTB  00015  K0                0231NES        000000000000 DENSO TEN (THAILAND)                                                                                                                                            *G         20211028 IMCT                IMCT                                                                                                                    WMF2110285.TXT
MAKK1O111276202110N3               89839631600P3YK20211109000045HARNESS KIT;ASM,              M IMCTM CM1    TNTH  09020IMKDC KA PTB  00030  K0                0231NES        000000000000 DENSO TEN (THAILAND)                                                                                                                                            *G         20211028 IMCT                IMCT                                                                                                                    WMF2110285.TXT
