REC2021111820211118ISUZU                              29     
MAKK1N056009202111N3               89825451200P3YK20211204000030SPEAKER ASM;ROOF              M IMCTM CM1    TNTH  09020IMKDC KA PTB  00036  K0                0231NES        000000000000 DENSO TEN (THAILAND)                                                                                                                                            *G         20211118 IMCT                IMCT                                                                                                                    WMF2111187.TXT
MAKK1N056010202111D3               89828070100P3YK20211129000060SPEAKER ASM                   M IMCTM CM1    TNTH  09020IMKDC KA PTB  00004  K0                1431DES        000000000000 DENSO TEN (THAILAND)                                                                                                                                            *G         20211118 IMCT                IMCT                                                                                                                    WMF2111187.TXT
MAKK1N056011202111N3               89828070100P3YK20211130000090SPEAKER ASM                   M IMCTM CM1    TNTH  09020IMKDC KA PTB  00004  K0                0231NES        000000000000 DENSO TEN (THAILAND)                                                                                                                                            *G         20211118 IMCT                IMCT                                                                                                                    WMF2111187.TXT
MAKK1N056012202111D3               89828070100P3YK20211130000090SPEAKER ASM                   M IMCTM CM1    TNTH  09020IMKDC KA PTB  00004  K0                1431DES        000000000000 DENSO TEN (THAILAND)                                                                                                                                            *G         20211118 IMCT                IMCT                                                                                                                    WMF2111187.TXT
MAKK1N056013202111N3               89828070100P3YK20211201000060SPEAKER ASM                   M IMCTM CM1    TNTH  09020IMKDC KA PTB  00004  K0                0231NES        000000000000 DENSO TEN (THAILAND)                                                                                                                                            *G         20211118 IMCT                IMCT                                                                                                                    WMF2111187.TXT
MAKK1N056014202111D3               89828070100P3YK20211201000030SPEAKER ASM                   M IMCTM CM1    TNTH  09020IMKDC KA PTB  00004  K0                1431DES        000000000000 DENSO TEN (THAILAND)                                                                                                                                            *G         20211118 IMCT                IMCT                                                                                                                    WMF2111187.TXT
MAKK1N056015202111N3               89828070100P3YK20211202000090SPEAKER ASM                   M IMCTM CM1    TNTH  09020IMKDC KA PTB  00004  K0                0231NES        000000000000 DENSO TEN (THAILAND)                                                                                                                                            *G         20211118 IMCT                IMCT                                                                                                                    WMF2111187.TXT
MAKK1N056016202111D3               89828070100P3YK20211202000060SPEAKER ASM                   M IMCTM CM1    TNTH  09020IMKDC KA PTB  00004  K0                1431DES        000000000000 DENSO TEN (THAILAND)                                                                                                                                            *G         20211118 IMCT                IMCT                                                                                                                    WMF2111187.TXT
MAKK1N056017202111N3               89828070100P3YK20211203000060SPEAKER ASM                   M IMCTM CM1    TNTH  09020IMKDC KA PTB  00004  K0                0231NES        000000000000 DENSO TEN (THAILAND)                                                                                                                                            *G         20211118 IMCT                IMCT                                                                                                                    WMF2111187.TXT
MAKK1N056018202111D3               89828070100P3YK20211203000060SPEAKER ASM                   M IMCTM CM1    TNTH  09020IMKDC KA PTB  00004  K0                1431DES        000000000000 DENSO TEN (THAILAND)                                                                                                                                            *G         20211118 IMCT                IMCT                                                                                                                    WMF2111187.TXT
MAKK1N056019202111N3               89828070100P3YK20211204000060SPEAKER ASM                   M IMCTM CM1    TNTH  09020IMKDC KA PTB  00004  K0                0231NES        000000000000 DENSO TEN (THAILAND)                                                                                                                                            *G         20211118 IMCT                IMCT                                                                                                                    WMF2111187.TXT
MAKK1N056020202111D3               89828070100P3YK20211204000030SPEAKER ASM                   M IMCTM CM1    TNTH  09020IMKDC KA PTB  00004  K0                1431DES        000000000000 DENSO TEN (THAILAND)                                                                                                                                            *G         20211118 IMCT                IMCT                                                                                                                    WMF2111187.TXT
MAKK1N056021202111N3               89828070100P3YK20211205000060SPEAKER ASM                   M IMCTM CM1    TNTH  09020IMKDC KA PTB  00004  K0                0231NES        000000000000 DENSO TEN (THAILAND)                                                                                                                                            *G         20211118 IMCT                IMCT                                                                                                                    WMF2111187.TXT
MAKK1N056022202111N3               89828070200P3YK20211201000030SPEAKER ASM                   M IMCTM CM1    TNTH  09020IMKDC KA PTB  00005  K0                0231NES        000000000000 DENSO TEN (THAILAND)                                                                                                                                            *G         20211118 IMCT                IMCT                                                                                                                    WMF2111187.TXT
MAKK1N056023202111D3               89828070200P3YK20211201000030SPEAKER ASM                   M IMCTM CM1    TNTH  09020IMKDC KA PTB  00005  K0                1431DES        000000000000 DENSO TEN (THAILAND)                                                                                                                                            *G         20211118 IMCT                IMCT                                                                                                                    WMF2111187.TXT
MAKK1N056024202111N3               89828070200P3YK20211202000060SPEAKER ASM                   M IMCTM CM1    TNTH  09020IMKDC KA PTB  00005  K0                0231NES        000000000000 DENSO TEN (THAILAND)                                                                                                                                            *G         20211118 IMCT                IMCT                                                                                                                    WMF2111187.TXT
MAKK1N056025202111N3               89828070200P3YK20211203000030SPEAKER ASM                   M IMCTM CM1    TNTH  09020IMKDC KA PTB  00005  K0                0231NES        000000000000 DENSO TEN (THAILAND)                                                                                                                                            *G         20211118 IMCT                IMCT                                                                                                                    WMF2111187.TXT
MAKK1N056026202111N3               89828070200P3YK20211204000030SPEAKER ASM                   M IMCTM CM1    TNTH  09020IMKDC KA PTB  00005  K0                0231NES        000000000000 DENSO TEN (THAILAND)                                                                                                                                            *G         20211118 IMCT                IMCT                                                                                                                    WMF2111187.TXT
MAKK1N056027202111N3               89828070200P3YK20211205000030SPEAKER ASM                   M IMCTM CM1    TNTH  09020IMKDC KA PTB  00005  K0                0231NES        000000000000 DENSO TEN (THAILAND)                                                                                                                                            *G         20211118 IMCT                IMCT                                                                                                                    WMF2111187.TXT
MAKK1N056028202111D3               89828070300P3YK20211130000030SPEAKER ASM                   M IMCTM CM1    TNTH  09020IMKDC KA PTB  00015  K0                1431DES        000000000000 DENSO TEN (THAILAND)                                                                                                                                            *G         20211118 IMCT                IMCT                                                                                                                    WMF2111187.TXT
MAKK1N056029202111N3               89828070300P3YK20211201000060SPEAKER ASM                   M IMCTM CM1    TNTH  09020IMKDC KA PTB  00015  K0                0231NES        000000000000 DENSO TEN (THAILAND)                                                                                                                                            *G         20211118 IMCT                IMCT                                                                                                                    WMF2111187.TXT
MAKK1N056030202111D3               89828070300P3YK20211201000030SPEAKER ASM                   M IMCTM CM1    TNTH  09020IMKDC KA PTB  00015  K0                1431DES        000000000000 DENSO TEN (THAILAND)                                                                                                                                            *G         20211118 IMCT                IMCT                                                                                                                    WMF2111187.TXT
MAKK1N056031202111N3               89828070300P3YK20211202000060SPEAKER ASM                   M IMCTM CM1    TNTH  09020IMKDC KA PTB  00015  K0                0231NES        000000000000 DENSO TEN (THAILAND)                                                                                                                                            *G         20211118 IMCT                IMCT                                                                                                                    WMF2111187.TXT
MAKK1N056032202111D3               89828070300P3YK20211202000030SPEAKER ASM                   M IMCTM CM1    TNTH  09020IMKDC KA PTB  00015  K0                1431DES        000000000000 DENSO TEN (THAILAND)                                                                                                                                            *G         20211118 IMCT                IMCT                                                                                                                    WMF2111187.TXT
MAKK1N056033202111N3               89828070300P3YK20211203000030SPEAKER ASM                   M IMCTM CM1    TNTH  09020IMKDC KA PTB  00015  K0                0231NES        000000000000 DENSO TEN (THAILAND)                                                                                                                                            *G         20211118 IMCT                IMCT                                                                                                                    WMF2111187.TXT
MAKK1N056034202111D3               89828070300P3YK20211203000060SPEAKER ASM                   M IMCTM CM1    TNTH  09020IMKDC KA PTB  00015  K0                1431DES        000000000000 DENSO TEN (THAILAND)                                                                                                                                            *G         20211118 IMCT                IMCT                                                                                                                    WMF2111187.TXT
MAKK1N056035202111N3               89828070300P3YK20211204000090SPEAKER ASM                   M IMCTM CM1    TNTH  09020IMKDC KA PTB  00015  K0                0231NES        000000000000 DENSO TEN (THAILAND)                                                                                                                                            *G         20211118 IMCT                IMCT                                                                                                                    WMF2111187.TXT
MAKK1N056036202111D3               89828070300P3YK20211204000030SPEAKER ASM                   M IMCTM CM1    TNTH  09020IMKDC KA PTB  00015  K0                1431DES        000000000000 DENSO TEN (THAILAND)                                                                                                                                            *G         20211118 IMCT                IMCT                                                                                                                    WMF2111187.TXT
MAKK1N056037202111N3               89828070300P3YK20211205000030SPEAKER ASM                   M IMCTM CM1    TNTH  09020IMKDC KA PTB  00015  K0                0231NES        000000000000 DENSO TEN (THAILAND)                                                                                                                                            *G         20211118 IMCT                IMCT                                                                                                                    WMF2111187.TXT
