REC2021110420211104ISUZU                              26     
MAKK1N013751202111D3               89828070100P3YK20211115000060SPEAKER ASM                   M IMCTM CM1    TNTH  09020IMKDC KA PTB  00004  K0                1431DES        000000000000 DENSO TEN (THAILAND)                                                                                                                                            *G         20211104 IMCT                IMCT                                                                                                                    WMF2111046.TXT
MAKK1N013752202111N3               89828070100P3YK20211116000060SPEAKER ASM                   M IMCTM CM1    TNTH  09020IMKDC KA PTB  00004  K0                0231NES        000000000000 DENSO TEN (THAILAND)                                                                                                                                            *G         20211104 IMCT                IMCT                                                                                                                    WMF2111046.TXT
MAKK1N013753202111D3               89828070100P3YK20211116000060SPEAKER ASM                   M IMCTM CM1    TNTH  09020IMKDC KA PTB  00004  K0                1431DES        000000000000 DENSO TEN (THAILAND)                                                                                                                                            *G         20211104 IMCT                IMCT                                                                                                                    WMF2111046.TXT
MAKK1N013754202111N3               89828070100P3YK20211117000030SPEAKER ASM                   M IMCTM CM1    TNTH  09020IMKDC KA PTB  00004  K0                0231NES        000000000000 DENSO TEN (THAILAND)                                                                                                                                            *G         20211104 IMCT                IMCT                                                                                                                    WMF2111046.TXT
MAKK1N013755202111D3               89828070100P3YK20211117000060SPEAKER ASM                   M IMCTM CM1    TNTH  09020IMKDC KA PTB  00004  K0                1431DES        000000000000 DENSO TEN (THAILAND)                                                                                                                                            *G         20211104 IMCT                IMCT                                                                                                                    WMF2111046.TXT
MAKK1N013756202111N3               89828070100P3YK20211118000030SPEAKER ASM                   M IMCTM CM1    TNTH  09020IMKDC KA PTB  00004  K0                0231NES        000000000000 DENSO TEN (THAILAND)                                                                                                                                            *G         20211104 IMCT                IMCT                                                                                                                    WMF2111046.TXT
MAKK1N013757202111D3               89828070100P3YK20211118000030SPEAKER ASM                   M IMCTM CM1    TNTH  09020IMKDC KA PTB  00004  K0                1431DES        000000000000 DENSO TEN (THAILAND)                                                                                                                                            *G         20211104 IMCT                IMCT                                                                                                                    WMF2111046.TXT
MAKK1N013758202111N3               89828070100P3YK20211119000060SPEAKER ASM                   M IMCTM CM1    TNTH  09020IMKDC KA PTB  00004  K0                0231NES        000000000000 DENSO TEN (THAILAND)                                                                                                                                            *G         20211104 IMCT                IMCT                                                                                                                    WMF2111046.TXT
MAKK1N013759202111D3               89828070100P3YK20211119000060SPEAKER ASM                   M IMCTM CM1    TNTH  09020IMKDC KA PTB  00004  K0                1431DES        000000000000 DENSO TEN (THAILAND)                                                                                                                                            *G         20211104 IMCT                IMCT                                                                                                                    WMF2111046.TXT
MAKK1N013760202111N3               89828070100P3YK20211120000030SPEAKER ASM                   M IMCTM CM1    TNTH  09020IMKDC KA PTB  00004  K0                0231NES        000000000000 DENSO TEN (THAILAND)                                                                                                                                            *G         20211104 IMCT                IMCT                                                                                                                    WMF2111046.TXT
MAKK1N013761202111D3               89828070200P3YK20211116000030SPEAKER ASM                   M IMCTM CM1    TNTH  09020IMKDC KA PTB  00005  K0                1431DES        000000000000 DENSO TEN (THAILAND)                                                                                                                                            *G         20211104 IMCT                IMCT                                                                                                                    WMF2111046.TXT
MAKK1N013762202111N3               89828070200P3YK20211118000030SPEAKER ASM                   M IMCTM CM1    TNTH  09020IMKDC KA PTB  00005  K0                0231NES        000000000000 DENSO TEN (THAILAND)                                                                                                                                            *G         20211104 IMCT                IMCT                                                                                                                    WMF2111046.TXT
MAKK1N013763202111N3               89828070200P3YK20211119000030SPEAKER ASM                   M IMCTM CM1    TNTH  09020IMKDC KA PTB  00005  K0                0231NES        000000000000 DENSO TEN (THAILAND)                                                                                                                                            *G         20211104 IMCT                IMCT                                                                                                                    WMF2111046.TXT
MAKK1N013764202111N3               89828070200P3YK20211120000030SPEAKER ASM                   M IMCTM CM1    TNTH  09020IMKDC KA PTB  00005  K0                0231NES        000000000000 DENSO TEN (THAILAND)                                                                                                                                            *G         20211104 IMCT                IMCT                                                                                                                    WMF2111046.TXT
MAKK1N013765202111N3               89828070300P3YK20211116000030SPEAKER ASM                   M IMCTM CM1    TNTH  09020IMKDC KA PTB  00015  K0                0231NES        000000000000 DENSO TEN (THAILAND)                                                                                                                                            *G         20211104 IMCT                IMCT                                                                                                                    WMF2111046.TXT
MAKK1N013766202111D3               89828070300P3YK20211116000030SPEAKER ASM                   M IMCTM CM1    TNTH  09020IMKDC KA PTB  00015  K0                1431DES        000000000000 DENSO TEN (THAILAND)                                                                                                                                            *G         20211104 IMCT                IMCT                                                                                                                    WMF2111046.TXT
MAKK1N013767202111D3               89828070300P3YK20211117000030SPEAKER ASM                   M IMCTM CM1    TNTH  09020IMKDC KA PTB  00015  K0                1431DES        000000000000 DENSO TEN (THAILAND)                                                                                                                                            *G         20211104 IMCT                IMCT                                                                                                                    WMF2111046.TXT
MAKK1N013768202111N3               89828070300P3YK20211118000060SPEAKER ASM                   M IMCTM CM1    TNTH  09020IMKDC KA PTB  00015  K0                0231NES        000000000000 DENSO TEN (THAILAND)                                                                                                                                            *G         20211104 IMCT                IMCT                                                                                                                    WMF2111046.TXT
MAKK1N013769202111N3               89828070300P3YK20211119000030SPEAKER ASM                   M IMCTM CM1    TNTH  09020IMKDC KA PTB  00015  K0                0231NES        000000000000 DENSO TEN (THAILAND)                                                                                                                                            *G         20211104 IMCT                IMCT                                                                                                                    WMF2111046.TXT
MAKK1N013770202111D3               89828070300P3YK20211119000030SPEAKER ASM                   M IMCTM CM1    TNTH  09020IMKDC KA PTB  00015  K0                1431DES        000000000000 DENSO TEN (THAILAND)                                                                                                                                            *G         20211104 IMCT                IMCT                                                                                                                    WMF2111046.TXT
MAKK1N013771202111N3               89828070300P3YK20211120000030SPEAKER ASM                   M IMCTM CM1    TNTH  09020IMKDC KA PTB  00015  K0                0231NES        000000000000 DENSO TEN (THAILAND)                                                                                                                                            *G         20211104 IMCT                IMCT                                                                                                                    WMF2111046.TXT
MAKK1N019385202111D3               89828070100P3YK20211115000030SPEAKER ASM                   M IMCTM PK3    TNTH  09020IMKDC KA PTB  00004  K0                1431DES        000000000000 DENSO TEN (THAILAND)                                                                                                                                            *G         20211104 IMCT                IMCT                                                                                                                    WMF2111046.TXT
MAKK1N019386202111D3               89828070100P3YK20211118000030SPEAKER ASM                   M IMCTM PK3    TNTH  09020IMKDC KA PTB  00004  K0                1431DES        000000000000 DENSO TEN (THAILAND)                                                                                                                                            *G         20211104 IMCT                IMCT                                                                                                                    WMF2111046.TXT
MAKK1N019387202111D3               89828070200P3YK20211115000030SPEAKER ASM                   M IMCTM PK3    TNTH  09020IMKDC KA PTB  00005  K0                1431DES        000000000000 DENSO TEN (THAILAND)                                                                                                                                            *G         20211104 IMCT                IMCT                                                                                                                    WMF2111046.TXT
MAKK1N019388202111D3               89828070200P3YK20211118000030SPEAKER ASM                   M IMCTM PK3    TNTH  09020IMKDC KA PTB  00005  K0                1431DES        000000000000 DENSO TEN (THAILAND)                                                                                                                                            *G         20211104 IMCT                IMCT                                                                                                                    WMF2111046.TXT
MAKK1N019389202111D3               89828070300P3YK20211118000030SPEAKER ASM                   M IMCTM PK3    TNTH  09020IMKDC KA PTB  00015  K0                1431DES        000000000000 DENSO TEN (THAILAND)                                                                                                                                            *G         20211104 IMCT                IMCT                                                                                                                    WMF2111046.TXT
