REC2021111120211111ISUZU                              19     
MAKK1N033886202111D3               89825451200P3YK20211123000030SPEAKER ASM;ROOF              M IMCTM CM1    TNTH  09020IMKDC KA PTB  00036  K0                1431DES        000000000000 DENSO TEN (THAILAND)                                                                                                                                            *G         20211111 IMCT                IMCT                                                                                                                    WMF2111117.TXT
MAKK1N033887202111D3               89828070100P3YK20211122000060SPEAKER ASM                   M IMCTM CM1    TNTH  09020IMKDC KA PTB  00004  K0                1431DES        000000000000 DENSO TEN (THAILAND)                                                                                                                                            *G         20211111 IMCT                IMCT                                                                                                                    WMF2111117.TXT
MAKK1N033888202111N3               89828070100P3YK20211123000060SPEAKER ASM                   M IMCTM CM1    TNTH  09020IMKDC KA PTB  00004  K0                0231NES        000000000000 DENSO TEN (THAILAND)                                                                                                                                            *G         20211111 IMCT                IMCT                                                                                                                    WMF2111117.TXT
MAKK1N033889202111N3               89828070100P3YK20211124000060SPEAKER ASM                   M IMCTM CM1    TNTH  09020IMKDC KA PTB  00004  K0                0231NES        000000000000 DENSO TEN (THAILAND)                                                                                                                                            *G         20211111 IMCT                IMCT                                                                                                                    WMF2111117.TXT
MAKK1N033890202111D3               89828070100P3YK20211124000060SPEAKER ASM                   M IMCTM CM1    TNTH  09020IMKDC KA PTB  00004  K0                1431DES        000000000000 DENSO TEN (THAILAND)                                                                                                                                            *G         20211111 IMCT                IMCT                                                                                                                    WMF2111117.TXT
MAKK1N033891202111N3               89828070100P3YK20211125000060SPEAKER ASM                   M IMCTM CM1    TNTH  09020IMKDC KA PTB  00004  K0                0231NES        000000000000 DENSO TEN (THAILAND)                                                                                                                                            *G         20211111 IMCT                IMCT                                                                                                                    WMF2111117.TXT
MAKK1N033892202111D3               89828070100P3YK20211125000060SPEAKER ASM                   M IMCTM CM1    TNTH  09020IMKDC KA PTB  00004  K0                1431DES        000000000000 DENSO TEN (THAILAND)                                                                                                                                            *G         20211111 IMCT                IMCT                                                                                                                    WMF2111117.TXT
MAKK1N033893202111N3               89828070100P3YK20211126000030SPEAKER ASM                   M IMCTM CM1    TNTH  09020IMKDC KA PTB  00004  K0                0231NES        000000000000 DENSO TEN (THAILAND)                                                                                                                                            *G         20211111 IMCT                IMCT                                                                                                                    WMF2111117.TXT
MAKK1N033894202111D3               89828070100P3YK20211126000030SPEAKER ASM                   M IMCTM CM1    TNTH  09020IMKDC KA PTB  00004  K0                1431DES        000000000000 DENSO TEN (THAILAND)                                                                                                                                            *G         20211111 IMCT                IMCT                                                                                                                    WMF2111117.TXT
MAKK1N033895202111N3               89828070100P3YK20211127000090SPEAKER ASM                   M IMCTM CM1    TNTH  09020IMKDC KA PTB  00004  K0                0231NES        000000000000 DENSO TEN (THAILAND)                                                                                                                                            *G         20211111 IMCT                IMCT                                                                                                                    WMF2111117.TXT
MAKK1N033896202111N3               89828070200P3YK20211127000030SPEAKER ASM                   M IMCTM CM1    TNTH  09020IMKDC KA PTB  00005  K0                0231NES        000000000000 DENSO TEN (THAILAND)                                                                                                                                            *G         20211111 IMCT                IMCT                                                                                                                    WMF2111117.TXT
MAKK1N033897202111N3               89828070300P3YK20211123000030SPEAKER ASM                   M IMCTM CM1    TNTH  09020IMKDC KA PTB  00015  K0                0231NES        000000000000 DENSO TEN (THAILAND)                                                                                                                                            *G         20211111 IMCT                IMCT                                                                                                                    WMF2111117.TXT
MAKK1N033898202111D3               89828070300P3YK20211123000030SPEAKER ASM                   M IMCTM CM1    TNTH  09020IMKDC KA PTB  00015  K0                1431DES        000000000000 DENSO TEN (THAILAND)                                                                                                                                            *G         20211111 IMCT                IMCT                                                                                                                    WMF2111117.TXT
MAKK1N033899202111N3               89828070300P3YK20211124000030SPEAKER ASM                   M IMCTM CM1    TNTH  09020IMKDC KA PTB  00015  K0                0231NES        000000000000 DENSO TEN (THAILAND)                                                                                                                                            *G         20211111 IMCT                IMCT                                                                                                                    WMF2111117.TXT
MAKK1N033900202111N3               89828070300P3YK20211125000030SPEAKER ASM                   M IMCTM CM1    TNTH  09020IMKDC KA PTB  00015  K0                0231NES        000000000000 DENSO TEN (THAILAND)                                                                                                                                            *G         20211111 IMCT                IMCT                                                                                                                    WMF2111117.TXT
MAKK1N033901202111N3               89828070300P3YK20211127000030SPEAKER ASM                   M IMCTM CM1    TNTH  09020IMKDC KA PTB  00015  K0                0231NES        000000000000 DENSO TEN (THAILAND)                                                                                                                                            *G         20211111 IMCT                IMCT                                                                                                                    WMF2111117.TXT
MAKK1N039150202111D3               89828070100P3YK20211123000030SPEAKER ASM                   M IMCTM PK3    TNTH  09020IMKDC KA PTB  00004  K0                1431DES        000000000000 DENSO TEN (THAILAND)                                                                                                                                            *G         20211111 IMCT                IMCT                                                                                                                    WMF2111117.TXT
MAKK1N039151202111D3               89828070200P3YK20211123000030SPEAKER ASM                   M IMCTM PK3    TNTH  09020IMKDC KA PTB  00005  K0                1431DES        000000000000 DENSO TEN (THAILAND)                                                                                                                                            *G         20211111 IMCT                IMCT                                                                                                                    WMF2111117.TXT
MAKK1N039152202111D3               89828070300P3YK20211123000030SPEAKER ASM                   M IMCTM PK3    TNTH  09020IMKDC KA PTB  00015  K0                1431DES        000000000000 DENSO TEN (THAILAND)                                                                                                                                            *G         20211111 IMCT                IMCT                                                                                                                    WMF2111117.TXT
