REC2022010620220106ISUZU                              3      
MACK21000974202201          IMKDC  89828070100P3YK20220120000016SPEAKER ASM                   M IMCTM IMKDC  TNTH  09020IMKDC KV PTB  00004    K295D3970   001 0000 ES        000000000000 DENSO TEN (THAILAND)                                                                                                                                            *G         20220106 IMCT                IMCT                                                                                                                    WMF2201064.TXT
MACK21000975202201          IMKDC  89828070200P3YK20220120000016SPEAKER ASM                   M IMCTM IMKDC  TNTH  09020IMKDC KV PTB  00005    K295D3970   001 0000 ES        000000000000 DENSO TEN (THAILAND)                                                                                                                                            *G         20220106 IMCT                IMCT                                                                                                                    WMF2201064.TXT
MACK21000976202201          IMKDC  89828070300P3YK20220120000016SPEAKER ASM                   M IMCTM IMKDC  TNTH  09020IMKDC KV PTB  00015    K295D3970   001 0000 ES        000000000000 DENSO TEN (THAILAND)                                                                                                                                            *G         20220106 IMCT                IMCT                                                                                                                    WMF2201064.TXT
