REC2022021720220217ISUZU                              3      
MACK22001040202202          IMKDC  89828070100P3YK20220304000020SPEAKER ASM                   M IMCTM IMKDC  TNTH  09020IMKDC KV PTB  00004    K295D4300   001 0000 ES        000000000000 DENSO TEN (THAILAND)                                                                                                                                            *G         20220217 IMCT                IMCT                                                                                                                    WMF2202174.TXT
MACK22001041202202          IMKDC  89828070200P3YK20220304000020SPEAKER ASM                   M IMCTM IMKDC  TNTH  09020IMKDC KV PTB  00005    K295D4300   001 0000 ES        000000000000 DENSO TEN (THAILAND)                                                                                                                                            *G         20220217 IMCT                IMCT                                                                                                                    WMF2202174.TXT
MACK22001042202202          IMKDC  89828070300P3YK20220304000020SPEAKER ASM                   M IMCTM IMKDC  TNTH  09020IMKDC KV PTB  00015    K295D4300   001 0000 ES        000000000000 DENSO TEN (THAILAND)                                                                                                                                            *G         20220217 IMCT                IMCT                                                                                                                    WMF2202174.TXT
