REC2022020320220203ISUZU                              3      
MACK21003215202202          IMKDC  89828070100P3YK20220217000008SPEAKER ASM                   M IMCTM IMKDC  TNTH  09020IMKDC KV PTB  00004    K295D4200   001 0000 ES        000000000000 DENSO TEN (THAILAND)                                                                                                                                            *G         20220203 IMCT                IMCT                                                                                                                    WMF2202036.TXT
MACK21003216202202          IMKDC  89828070200P3YK20220217000008SPEAKER ASM                   M IMCTM IMKDC  TNTH  09020IMKDC KV PTB  00005    K295D4200   001 0000 ES        000000000000 DENSO TEN (THAILAND)                                                                                                                                            *G         20220203 IMCT                IMCT                                                                                                                    WMF2202036.TXT
MACK21003217202202          IMKDC  89828070300P3YK20220217000008SPEAKER ASM                   M IMCTM IMKDC  TNTH  09020IMKDC KV PTB  00015    K295D4200   001 0000 ES        000000000000 DENSO TEN (THAILAND)                                                                                                                                            *G         20220203 IMCT                IMCT                                                                                                                    WMF2202036.TXT
