REC2022050720220507ISUZU                              3      
MECKN5801104000000          IMKDC  89828070100P3YK20220524000002SPEAKER ASM                   M IMCTM IMKDC  TNTH  09020IMKDC KV*PTB  00004    K295D6470   001 0000 ES        000000000000 DENSO TEN (THAILAND)                                                                                                                                            *G         20220507 IMCT                IMCT                                                                                                                    WMF2205071.TXT
MECKN5801105000000          IMKDC  89828070200P3YK20220524000002SPEAKER ASM                   M IMCTM IMKDC  TNTH  09020IMKDC KV*PTB  00005    K295D6470   001 0000 ES        000000000000 DENSO TEN (THAILAND)                                                                                                                                            *G         20220507 IMCT                IMCT                                                                                                                    WMF2205071.TXT
MECKN5801106000000          IMKDC  89828070300P3YK20220524000002SPEAKER ASM                   M IMCTM IMKDC  TNTH  09020IMKDC KV*PTB  00015    K295D6470   001 0000 ES        000000000000 DENSO TEN (THAILAND)                                                                                                                                            *G         20220507 IMCT                IMCT                                                                                                                    WMF2205071.TXT
