REC2022052620220526ISUZU                              3      
MACK25002136202205          IMKDC  89828070100P3YK20220611000002SPEAKER ASM                   M IMCTM IMKDC  TNTH  09020IMKDC KV PTB  00004    K295D6370   001 0000 ES        000000000000 DENSO TEN (THAILAND)                                                                                                                                            *G         20220526 IMCT                IMCT                                                                                                                    WMF2205264.TXT
MACK25002137202205          IMKDC  89828070200P3YK20220611000002SPEAKER ASM                   M IMCTM IMKDC  TNTH  09020IMKDC KV PTB  00005    K295D6370   001 0000 ES        000000000000 DENSO TEN (THAILAND)                                                                                                                                            *G         20220526 IMCT                IMCT                                                                                                                    WMF2205264.TXT
MACK25002138202205          IMKDC  89828070300P3YK20220611000002SPEAKER ASM                   M IMCTM IMKDC  TNTH  09020IMKDC KV PTB  00015    K295D6370   001 0000 ES        000000000000 DENSO TEN (THAILAND)                                                                                                                                            *G         20220526 IMCT                IMCT                                                                                                                    WMF2205264.TXT
