REC2023052520230525ISUZU                              3      
MACK35001722202305          IMKDC  89828070100P3YK20230606000002SPEAKER ASM                   M IMCTM IMKDC  TNTH  09020IMKDC KK PTB  00004    K295D8740   001 0000 ES        000000000000 DENSO TEN (THAILAND)                                                                                                                                            *G         20230525 IMCT                IMCT                                                                                                                    WMF2305253.TXT
MACK35001723202305          IMKDC  89828070200P3YK20230606000002SPEAKER ASM                   M IMCTM IMKDC  TNTH  09020IMKDC KK PTB  00005    K295D8740   001 0000 ES        000000000000 DENSO TEN (THAILAND)                                                                                                                                            *G         20230525 IMCT                IMCT                                                                                                                    WMF2305253.TXT
MACK35001724202305          IMKDC  89828070300P3YK20230606000002SPEAKER ASM                   M IMCTM IMKDC  TNTH  09020IMKDC KK PTB  00015    K295D8740   001 0000 ES        000000000000 DENSO TEN (THAILAND)                                                                                                                                            *G         20230525 IMCT                IMCT                                                                                                                    WMF2305253.TXT
