REC2024031420240314ISUZU                              3      
MECKR3801093000000          IMKDC  89828070100P3YK20240402000001SPEAKER ASM                   M IMCTM IMKDC  TNTH  09020IMKDC KJ*PTB  00004    K293P5330   001 0000 ES        000000000000 DENSO TEN (THAILAND)                                                                                                                                            *G         20240314 IMCT                IMCT                                                                                                                    WMF2403146.TXT
MECKR3801094000000          IMKDC  89828070200P3YK20240402000001SPEAKER ASM                   M IMCTM IMKDC  TNTH  09020IMKDC KJ*PTB  00005    K293P5330   001 0000 ES        000000000000 DENSO TEN (THAILAND)                                                                                                                                            *G         20240314 IMCT                IMCT                                                                                                                    WMF2403146.TXT
MECKR3801095000000          IMKDC  89828070300P3YK20240402000002SPEAKER ASM                   M IMCTM IMKDC  TNTH  09020IMKDC KJ*PTB  00015    K293P5330   001 0000 ES        000000000000 DENSO TEN (THAILAND)                                                                                                                                            *G         20240314 IMCT                IMCT                                                                                                                    WMF2403146.TXT
